{"contracts/HatcherV1.sol":{"HatcherV1":{"abi":[{"inputs":[],"stateMutability":"nonpayable","type":"constructor"},{"inputs":[],"name":"Unauthorized","type":"error"},{"anonymous":false,"inputs":[{"indexed":false,"internalType":"address","name":"previousAdmin","type":"address"},{"indexed":false,"internalType":"address","name":"newAdmin","type":"address"}],"name":"AdminChanged","type":"event"},{"anonymous":false,"inputs":[{"indexed":true,"internalType":"address","name":"owner","type":"address"},{"indexed":true,"internalType":"address","name":"spender","type":"address"},{"indexed":false,"internalType":"uint256","name":"value","type":"uint256"}],"name":"Approval","type":"event"},{"anonymous":false,"inputs":[{"indexed":true,"internalType":"address","name":"beacon","type":"address"}],"name":"BeaconUpgraded","type":"event"},{"anonymous":false,"inputs":[{"indexed":false,"internalType":"address","name":"sentToUser","type":"address"},{"indexed":false,"internalType":"address","name":"token","type":"address"},{"indexed":false,"internalType":"uint256","name":"tokenId","type":"uint256"}],"name":"DeListedAPlanet","type":"event"},{"anonymous":false,"inputs":[],"name":"EIP712DomainChanged","type":"event"},{"anonymous":false,"inputs":[{"indexed":true,"internalType":"contract IERC20Upgradeable","name":"token","type":"address"},{"indexed":false,"internalType":"address","name":"to","type":"address"},{"indexed":false,"internalType":"uint256","name":"amount","type":"uint256"}],"name":"ERC20PaymentReleased","type":"event"},{"anonymous":false,"inputs":[{"indexed":false,"internalType":"uint8","name":"version","type":"uint8"}],"name":"Initialized","type":"event"},{"anonymous":false,"inputs":[{"indexed":false,"internalType":"address","name":"sentFromUser","type":"address"},{"indexed":false,"internalType":"address","name":"token","type":"address"},{"indexed":false,"internalType":"uint256","name":"tokenId","type":"uint256"},{"indexed":false,"internalType":"uint256","name":"price","type":"uint256"}],"name":"ListedAPlanet","type":"event"},{"anonymous":false,"inputs":[{"indexed":false,"internalType":"address","name":"operator","type":"address"},{"indexed":false,"internalType":"address","name":"from","type":"address"},{"indexed":false,"internalType":"uint256","name":"tokenId","type":"uint256"},{"indexed":false,"internalType":"bytes","name":"data","type":"bytes"}],"name":"NftReceived","type":"event"},{"anonymous":false,"inputs":[{"indexed":true,"internalType":"address","name":"previousOwner","type":"address"},{"indexed":true,"internalType":"address","name":"newOwner","type":"address"}],"name":"OwnershipTransferred","type":"event"},{"anonymous":false,"inputs":[{"indexed":false,"internalType":"address","name":"account","type":"address"}],"name":"Paused","type":"event"},{"anonymous":false,"inputs":[{"indexed":false,"internalType":"address","name":"account","type":"address"},{"indexed":false,"internalType":"uint256","name":"shares","type":"uint256"}],"name":"PayeeAdded","type":"event"},{"anonymous":false,"inputs":[{"indexed":false,"internalType":"address","name":"from","type":"address"},{"indexed":false,"internalType":"uint256","name":"amount","type":"uint256"}],"name":"PaymentReceived","type":"event"},{"anonymous":false,"inputs":[{"indexed":false,"internalType":"address","name":"to","type":"address"},{"indexed":false,"internalType":"uint256","name":"amount","type":"uint256"}],"name":"PaymentReleased","type":"event"},{"anonymous":false,"inputs":[{"indexed":false,"internalType":"uint256","name":"planetAsking","type":"uint256"},{"indexed":false,"internalType":"address","name":"askingUser","type":"address"},{"indexed":false,"internalType":"uint256","name":"planetJoining","type":"uint256"},{"indexed":false,"internalType":"address","name":"joiningUser","type":"address"}],"name":"PlanetsConjoining","type":"event"},{"anonymous":false,"inputs":[{"indexed":true,"internalType":"address","name":"from","type":"address"},{"indexed":true,"internalType":"address","name":"to","type":"address"},{"indexed":false,"internalType":"uint256","name":"value","type":"uint256"}],"name":"Transfer","type":"event"},{"anonymous":false,"inputs":[{"indexed":false,"internalType":"address","name":"account","type":"address"}],"name":"Unpaused","type":"event"},{"anonymous":false,"inputs":[{"indexed":true,"internalType":"address","name":"implementation","type":"address"}],"name":"Upgraded","type":"event"},{"inputs":[],"name":"DOMAIN_SEPARATOR","outputs":[{"internalType":"bytes32","name":"","type":"bytes32"}],"stateMutability":"view","type":"function"},{"inputs":[{"internalType":"address","name":"owner","type":"address"},{"internalType":"address","name":"spender","type":"address"}],"name":"allowance","outputs":[{"internalType":"uint256","name":"","type":"uint256"}],"stateMutability":"view","type":"function"},{"inputs":[{"internalType":"address","name":"spender","type":"address"},{"internalType":"uint256","name":"amount","type":"uint256"}],"name":"approve","outputs":[{"internalType":"bool","name":"","type":"bool"}],"stateMutability":"nonpayable","type":"function"},{"inputs":[{"internalType":"address","name":"operator","type":"address"},{"internalType":"bool","name":"approved","type":"bool"}],"name":"approveForAllAsOwner","outputs":[],"stateMutability":"nonpayable","type":"function"},{"inputs":[{"internalType":"address","name":"account","type":"address"}],"name":"balanceOf","outputs":[{"internalType":"uint256","name":"","type":"uint256"}],"stateMutability":"view","type":"function"},{"inputs":[{"internalType":"uint256","name":"newVRF","type":"uint256"}],"name":"changeVRFValue","outputs":[],"stateMutability":"nonpayable","type":"function"},{"inputs":[{"internalType":"address","name":"","type":"address"},{"internalType":"uint256","name":"","type":"uint256"}],"name":"claimablePlanets","outputs":[{"internalType":"address","name":"ownerParentAddress","type":"address"},{"internalType":"uint256","name":"ownerTokenId","type":"uint256"},{"internalType":"bool","name":"delivered","type":"bool"},{"internalType":"address","name":"otherParent","type":"address"},{"internalType":"uint256","name":"otherTokenId","type":"uint256"}],"stateMutability":"view","type":"function"},{"inputs":[{"internalType":"uint256","name":"","type":"uint256"}],"name":"claimableTokenIdToOwnerAddress","outputs":[{"internalType":"address","name":"","type":"address"}],"stateMutability":"view","type":"function"},{"inputs":[{"internalType":"uint256","name":"yourPlanet","type":"uint256"},{"internalType":"uint256","name":"withListedPlanet","type":"uint256"}],"name":"conjunct","outputs":[],"stateMutability":"payable","type":"function"},{"inputs":[{"internalType":"uint256","name":"idIndex","type":"uint256"},{"internalType":"uint256","name":"tokenId","type":"uint256"}],"name":"deList","outputs":[],"stateMutability":"nonpayable","type":"function"},{"inputs":[],"name":"deListAllYourPlanets","outputs":[],"stateMutability":"nonpayable","type":"function"},{"inputs":[],"name":"decimals","outputs":[{"internalType":"uint8","name":"","type":"uint8"}],"stateMutability":"view","type":"function"},{"inputs":[{"internalType":"address","name":"spender","type":"address"},{"internalType":"uint256","name":"subtractedValue","type":"uint256"}],"name":"decreaseAllowance","outputs":[{"internalType":"bool","name":"","type":"bool"}],"stateMutability":"nonpayable","type":"function"},{"inputs":[],"name":"eip712Domain","outputs":[{"internalType":"bytes1","name":"fields","type":"bytes1"},{"internalType":"string","name":"name","type":"string"},{"internalType":"string","name":"version","type":"string"},{"internalType":"uint256","name":"chainId","type":"uint256"},{"internalType":"address","name":"verifyingContract","type":"address"},{"internalType":"bytes32","name":"salt","type":"bytes32"},{"internalType":"uint256[]","name":"extensions","type":"uint256[]"}],"stateMutability":"view","type":"function"},{"inputs":[],"name":"getAllPlanets","outputs":[{"components":[{"internalType":"uint256","name":"planet","type":"uint256"},{"internalType":"uint256","name":"price","type":"uint256"},{"internalType":"address","name":"ownerAddress","type":"address"}],"internalType":"struct ListedPlanet[]","name":"","type":"tuple[]"}],"stateMutability":"view","type":"function"},{"inputs":[{"internalType":"uint256","name":"startIndex","type":"uint256"},{"internalType":"uint256","name":"endIndex","type":"uint256"}],"name":"getPlanetsPaginated","outputs":[{"components":[{"internalType":"uint256","name":"planet","type":"uint256"},{"internalType":"uint256","name":"price","type":"uint256"},{"internalType":"address","name":"ownerAddress","type":"address"}],"internalType":"struct ListedPlanet[]","name":"","type":"tuple[]"}],"stateMutability":"view","type":"function"},{"inputs":[{"internalType":"address","name":"spender","type":"address"},{"internalType":"uint256","name":"addedValue","type":"uint256"}],"name":"increaseAllowance","outputs":[{"internalType":"bool","name":"","type":"bool"}],"stateMutability":"nonpayable","type":"function"},{"inputs":[],"name":"initialize","outputs":[],"stateMutability":"nonpayable","type":"function"},{"inputs":[],"name":"listAllYourPlanets","outputs":[],"stateMutability":"nonpayable","type":"function"},{"inputs":[],"name":"name","outputs":[{"internalType":"string","name":"","type":"string"}],"stateMutability":"view","type":"function"},{"inputs":[{"internalType":"address","name":"owner","type":"address"}],"name":"nonces","outputs":[{"internalType":"uint256","name":"","type":"uint256"}],"stateMutability":"view","type":"function"},{"inputs":[{"internalType":"address","name":"operator","type":"address"},{"internalType":"address","name":"from","type":"address"},{"internalType":"uint256","name":"tokenId","type":"uint256"},{"internalType":"bytes","name":"data","type":"bytes"}],"name":"onERC721Received","outputs":[{"internalType":"bytes4","name":"","type":"bytes4"}],"stateMutability":"nonpayable","type":"function"},{"inputs":[],"name":"owner","outputs":[{"internalType":"address","name":"","type":"address"}],"stateMutability":"view","type":"function"},{"inputs":[],"name":"pause","outputs":[],"stateMutability":"nonpayable","type":"function"},{"inputs":[],"name":"paused","outputs":[{"internalType":"bool","name":"","type":"bool"}],"stateMutability":"view","type":"function"},{"inputs":[{"internalType":"uint256","name":"index","type":"uint256"}],"name":"payee","outputs":[{"internalType":"address","name":"","type":"address"}],"stateMutability":"view","type":"function"},{"inputs":[{"internalType":"address","name":"owner","type":"address"},{"internalType":"address","name":"spender","type":"address"},{"internalType":"uint256","name":"value","type":"uint256"},{"internalType":"uint256","name":"deadline","type":"uint256"},{"internalType":"uint8","name":"v","type":"uint8"},{"internalType":"bytes32","name":"r","type":"bytes32"},{"internalType":"bytes32","name":"s","type":"bytes32"}],"name":"permit","outputs":[],"stateMutability":"nonpayable","type":"function"},{"inputs":[],"name":"proxiableUUID","outputs":[{"internalType":"bytes32","name":"","type":"bytes32"}],"stateMutability":"view","type":"function"},{"inputs":[{"internalType":"address","name":"account","type":"address"}],"name":"releasable","outputs":[{"internalType":"uint256","name":"","type":"uint256"}],"stateMutability":"view","type":"function"},{"inputs":[{"internalType":"contract IERC20Upgradeable","name":"token","type":"address"},{"internalType":"address","name":"account","type":"address"}],"name":"releasable","outputs":[{"internalType":"uint256","name":"","type":"uint256"}],"stateMutability":"view","type":"function"},{"inputs":[{"internalType":"address payable","name":"account","type":"address"}],"name":"release","outputs":[],"stateMutability":"nonpayable","type":"function"},{"inputs":[{"internalType":"contract IERC20Upgradeable","name":"token","type":"address"},{"internalType":"address","name":"account","type":"address"}],"name":"release","outputs":[],"stateMutability":"nonpayable","type":"function"},{"inputs":[{"internalType":"contract IERC20Upgradeable","name":"token","type":"address"},{"internalType":"address","name":"account","type":"address"}],"name":"released","outputs":[{"internalType":"uint256","name":"","type":"uint256"}],"stateMutability":"view","type":"function"},{"inputs":[{"internalType":"address","name":"account","type":"address"}],"name":"released","outputs":[{"internalType":"uint256","name":"","type":"uint256"}],"stateMutability":"view","type":"function"},{"inputs":[],"name":"renounceOwnership","outputs":[],"stateMutability":"nonpayable","type":"function"},{"inputs":[{"internalType":"address","name":"_breederContractAddr","type":"address"},{"internalType":"uint256","name":"_vrfValue","type":"uint256"},{"internalType":"address","name":"_nftContractAddr","type":"address"}],"name":"setAllOf","outputs":[],"stateMutability":"nonpayable","type":"function"},{"inputs":[{"internalType":"address payable","name":"newTAdd","type":"address"}],"name":"setTAdd","outputs":[],"stateMutability":"nonpayable","type":"function"},{"inputs":[{"internalType":"address","name":"account","type":"address"}],"name":"shares","outputs":[{"internalType":"uint256","name":"","type":"uint256"}],"stateMutability":"view","type":"function"},{"inputs":[],"name":"status","outputs":[],"stateMutability":"nonpayable","type":"function"},{"inputs":[],"name":"symbol","outputs":[{"internalType":"string","name":"","type":"string"}],"stateMutability":"view","type":"function"},{"inputs":[{"internalType":"contract IERC20Upgradeable","name":"token","type":"address"}],"name":"totalReleased","outputs":[{"internalType":"uint256","name":"","type":"uint256"}],"stateMutability":"view","type":"function"},{"inputs":[],"name":"totalReleased","outputs":[{"internalType":"uint256","name":"","type":"uint256"}],"stateMutability":"view","type":"function"},{"inputs":[],"name":"totalShares","outputs":[{"internalType":"uint256","name":"","type":"uint256"}],"stateMutability":"view","type":"function"},{"inputs":[],"name":"totalSupply","outputs":[{"internalType":"uint256","name":"","type":"uint256"}],"stateMutability":"view","type":"function"},{"inputs":[{"internalType":"address","name":"to","type":"address"},{"internalType":"uint256","name":"amount","type":"uint256"}],"name":"transfer","outputs":[{"internalType":"bool","name":"","type":"bool"}],"stateMutability":"nonpayable","type":"function"},{"inputs":[{"internalType":"address","name":"from","type":"address"},{"internalType":"address","name":"to","type":"address"},{"internalType":"uint256","name":"amount","type":"uint256"}],"name":"transferFrom","outputs":[{"internalType":"bool","name":"","type":"bool"}],"stateMutability":"nonpayable","type":"function"},{"inputs":[{"internalType":"address","name":"newOwner","type":"address"}],"name":"transferOwnership","outputs":[],"stateMutability":"nonpayable","type":"function"},{"inputs":[],"name":"unpause","outputs":[],"stateMutability":"nonpayable","type":"function"},{"inputs":[{"internalType":"address","name":"newImplementation","type":"address"}],"name":"upgradeTo","outputs":[],"stateMutability":"nonpayable","type":"function"},{"inputs":[{"internalType":"address","name":"newImplementation","type":"address"},{"internalType":"bytes","name":"data","type":"bytes"}],"name":"upgradeToAndCall","outputs":[],"stateMutability":"payable","type":"function"},{"inputs":[{"internalType":"address","name":"","type":"address"},{"internalType":"uint256","name":"","type":"uint256"}],"name":"userToListedPlanets","outputs":[{"internalType":"uint256","name":"planet","type":"uint256"},{"internalType":"uint256","name":"price","type":"uint256"},{"internalType":"address","name":"ownerAddress","type":"address"}],"stateMutability":"view","type":"function"},{"inputs":[],"name":"withdrawFunds","outputs":[],"stateMutability":"nonpayable","type":"function"},{"stateMutability":"payable","type":"receive"}],"devdoc":{"author":"Caecus","custom:security-contact":"security@earnalliance.com","details":"Contract is liable to be updated without warningHomo faber suae quisque fortunae","events":{"AdminChanged(address,address)":{"details":"Emitted when the admin account has changed."},"Approval(address,address,uint256)":{"details":"Emitted when the allowance of a `spender` for an `owner` is set by a call to {approve}. `value` is the new allowance."},"BeaconUpgraded(address)":{"details":"Emitted when the beacon is changed."},"EIP712DomainChanged()":{"details":"MAY be emitted to signal that the domain could have changed."},"Initialized(uint8)":{"details":"Triggered when the contract has been initialized or reinitialized."},"Paused(address)":{"details":"Emitted when the pause is triggered by `account`."},"Transfer(address,address,uint256)":{"details":"Emitted when `value` tokens are moved from one account (`from`) to another (`to`). Note that `value` may be zero."},"Unpaused(address)":{"details":"Emitted when the pause is lifted by `account`."},"Upgraded(address)":{"details":"Emitted when the implementation is upgraded."}},"kind":"dev","methods":{"DOMAIN_SEPARATOR()":{"details":"Returns the domain separator used in the encoding of the signature for {permit}, as defined by {EIP712}."},"allowance(address,address)":{"details":"See {IERC20-allowance}."},"approve(address,uint256)":{"details":"See {IERC20-approve}. NOTE: If `amount` is the maximum `uint256`, the allowance is not updated on `transferFrom`. This is semantically equivalent to an infinite approval. Requirements: - `spender` cannot be the zero address."},"balanceOf(address)":{"details":"See {IERC20-balanceOf}."},"constructor":{"custom:oz-upgrades-unsafe-allow":"constructor"},"decimals()":{"details":"Returns the number of decimals used to get its user representation. For example, if `decimals` equals `2`, a balance of `505` tokens should be displayed to a user as `5.05` (`505 / 10 ** 2`). Tokens usually opt for a value of 18, imitating the relationship between Ether and Wei. This is the default value returned by this function, unless it's overridden. NOTE: This information is only used for _display_ purposes: it in no way affects any of the arithmetic of the contract, including {IERC20-balanceOf} and {IERC20-transfer}."},"decreaseAllowance(address,uint256)":{"details":"Atomically decreases the allowance granted to `spender` by the caller. This is an alternative to {approve} that can be used as a mitigation for problems described in {IERC20-approve}. Emits an {Approval} event indicating the updated allowance. Requirements: - `spender` cannot be the zero address. - `spender` must have allowance for the caller of at least `subtractedValue`."},"eip712Domain()":{"details":"See {EIP-5267}. _Available since v4.9._"},"increaseAllowance(address,uint256)":{"details":"Atomically increases the allowance granted to `spender` by the caller. This is an alternative to {approve} that can be used as a mitigation for problems described in {IERC20-approve}. Emits an {Approval} event indicating the updated allowance. Requirements: - `spender` cannot be the zero address."},"initialize()":{"details":"implements EIP712, is upgradeable, pausable, burn function is custom to save space"},"name()":{"details":"Returns the name of the token."},"nonces(address)":{"details":"Returns the current nonce for `owner`. This value must be included whenever a signature is generated for {permit}. Every successful call to {permit} increases ``owner``'s nonce by one. This prevents a signature from being used multiple times."},"onERC721Received(address,address,uint256,bytes)":{"details":"Whenever an {IERC721} `tokenId` token is transferred to this contract via {IERC721-safeTransferFrom} by `operator` from `from`, this function is called. It must return its Solidity selector to confirm the token transfer. If any other value is returned or the interface is not implemented by the recipient, the transfer will be reverted. The selector can be obtained in Solidity with `IERC721Receiver.onERC721Received.selector`."},"owner()":{"details":"Returns the address of the current owner."},"pause()":{"details":"can only be called by owner"},"paused()":{"details":"Returns true if the contract is paused, and false otherwise."},"payee(uint256)":{"details":"Getter for the address of the payee number `index`."},"permit(address,address,uint256,uint256,uint8,bytes32,bytes32)":{"details":"Sets `value` as the allowance of `spender` over ``owner``'s tokens, given ``owner``'s signed approval. IMPORTANT: The same issues {IERC20-approve} has related to transaction ordering also apply here. Emits an {Approval} event. Requirements: - `spender` cannot be the zero address. - `deadline` must be a timestamp in the future. - `v`, `r` and `s` must be a valid `secp256k1` signature from `owner` over the EIP712-formatted function arguments. - the signature must use ``owner``'s current nonce (see {nonces}). For more information on the signature format, see the https://eips.ethereum.org/EIPS/eip-2612#specification[relevant EIP section]. CAUTION: See Security Considerations above."},"proxiableUUID()":{"details":"Implementation of the ERC1822 {proxiableUUID} function. This returns the storage slot used by the implementation. It is used to validate the implementation's compatibility when performing an upgrade. IMPORTANT: A proxy pointing at a proxiable contract should not be considered proxiable itself, because this risks bricking a proxy that upgrades to it, by delegating to itself until out of gas. Thus it is critical that this function revert if invoked through a proxy. This is guaranteed by the `notDelegated` modifier."},"releasable(address)":{"details":"Getter for the amount of payee's releasable Ether."},"releasable(address,address)":{"details":"Getter for the amount of payee's releasable `token` tokens. `token` should be the address of an IERC20 contract."},"release(address)":{"details":"Triggers a transfer to `account` of the amount of Ether they are owed, according to their percentage of the total shares and their previous withdrawals."},"release(address,address)":{"details":"Triggers a transfer to `account` of the amount of `token` tokens they are owed, according to their percentage of the total shares and their previous withdrawals. `token` must be the address of an IERC20 contract."},"released(address)":{"details":"Getter for the amount of Ether already released to a payee."},"released(address,address)":{"details":"Getter for the amount of `token` tokens already released to a payee. `token` should be the address of an IERC20 contract."},"renounceOwnership()":{"details":"Leaves the contract without owner. It will not be possible to call `onlyOwner` functions. Can only be called by the current owner. NOTE: Renouncing ownership will leave the contract without an owner, thereby disabling any functionality that is only available to the owner."},"setTAdd(address)":{"params":{"newTAdd":"the address that the owner would like the new URI to be"}},"shares(address)":{"details":"Getter for the amount of shares held by an account."},"symbol()":{"details":"Returns the symbol of the token, usually a shorter version of the name."},"totalReleased()":{"details":"Getter for the total amount of Ether already released."},"totalReleased(address)":{"details":"Getter for the total amount of `token` already released. `token` should be the address of an IERC20 contract."},"totalShares()":{"details":"Getter for the total shares held by payees."},"totalSupply()":{"details":"See {IERC20-totalSupply}."},"transfer(address,uint256)":{"details":"See {IERC20-transfer}. Requirements: - `to` cannot be the zero address. - the caller must have a balance of at least `amount`."},"transferFrom(address,address,uint256)":{"details":"See {IERC20-transferFrom}. Emits an {Approval} event indicating the updated allowance. This is not required by the EIP. See the note at the beginning of {ERC20}. NOTE: Does not update the allowance if the current allowance is the maximum `uint256`. Requirements: - `from` and `to` cannot be the zero address. - `from` must have a balance of at least `amount`. - the caller must have allowance for ``from``'s tokens of at least `amount`."},"transferOwnership(address)":{"details":"Transfers ownership of the contract to a new account (`newOwner`). Can only be called by the current owner."},"unpause()":{"details":"can only be called by owner"},"upgradeTo(address)":{"custom:oz-upgrades-unsafe-allow-reachable":"delegatecall","details":"Upgrade the implementation of the proxy to `newImplementation`. Calls {_authorizeUpgrade}. Emits an {Upgraded} event."},"upgradeToAndCall(address,bytes)":{"custom:oz-upgrades-unsafe-allow-reachable":"delegatecall","details":"Upgrade the implementation of the proxy to `newImplementation`, and subsequently execute the function call encoded in `data`. Calls {_authorizeUpgrade}. Emits an {Upgraded} event."},"withdrawFunds()":{"details":"utility function only, shouldn't need to be used."}},"title":"HatcherGG","version":1},"evm":{"bytecode":{"linkReferences":{},"object":"60a0604052306080523480156200001557600080fd5b506200002062000026565b620000e7565b600054610100900460ff1615620000935760405162461bcd60e51b815260206004820152602760248201527f496e697469616c697a61626c653a20636f6e747261637420697320696e697469604482015266616c697a696e6760c81b606482015260840160405180910390fd5b60005460ff90811614620000e5576000805460ff191660ff9081179091556040519081527f7f26b83ff96e1f2b6a682f133852f6798a09c465da95921460cefb38474024989060200160405180910390a15b565b60805161447b6200011f6000396000818161111d015281816111a2015281816114bd015281816115420152611628015261447b6000f3fe6080604052600436106103435760003560e01c8063715018a6116101b0578063a9059cbb116100ec578063d28eb2dc11610095578063dd62ed3e1161006f578063dd62ed3e146109dc578063e22aecb414610a22578063e33b7de314610a7d578063f2fde38b14610a9357600080fd5b8063d28eb2dc14610965578063d505accf14610985578063d79779b2146109a557600080fd5b8063cbdf1b5a116100c6578063cbdf1b5a146108ee578063cdb82a371461090e578063ce7c2ac21461092e57600080fd5b8063a9059cbb1461088e578063c45ac050146108ae578063c7c0e6b1146108ce57600080fd5b806385fe72431161015957806395d89b411161013357806395d89b41146108025780639852595c14610817578063a3f8eace1461084e578063a457c2d71461086e57600080fd5b806385fe72431461077f5780638b83209b146107c35780638da5cb5b146107e357600080fd5b80638230a7841161018a5780638230a784146107445780638456cb59146104d557806384b0196e1461075757600080fd5b8063715018a6146106fa5780637ecebe001461070f5780638129fc1c1461072f57600080fd5b80633659cfe61161027f5780634a02099b1161022857806352d1902d1161020257806352d1902d146106825780635c975abb146106975780636a23befb146106af57806370a08231146106c457600080fd5b80634a02099b1461064f5780634f1ef2861461066f57806350842cf3146104c957600080fd5b80633f4ba83a116102595780633f4ba83a146105d3578063406072a9146105e857806348b750441461062f57600080fd5b80633659cfe61461057d578063395093511461059d5780633a98ef39146105bd57600080fd5b80631ac9a91e116102ec57806324600fc3116102c657806324600fc31461050a578063259478181461051f578063313ce5671461054c5780633644e5151461056857600080fd5b80631ac9a91e146104c9578063200d2ed2146104d557806323b872dd146104ea57600080fd5b8063150b7a021161031d578063150b7a021461043757806318160ddd1461048857806319165587146104a757600080fd5b8063064db8741461039157806306fdde03146103e5578063095ea7b31461040757600080fd5b3661038c577f6ef95f06320e7a25a04a175ca677b7052bdd97131872c2192525a629f51be77033604080516001600160a01b0390921682523460208301520160405180910390a1005b600080fd5b34801561039d57600080fd5b506103c86103ac366004613c02565b6101cc602052600090815260409020546001600160a01b031681565b6040516001600160a01b0390911681526020015b60405180910390f35b3480156103f157600080fd5b506103fa610ab3565b6040516103dc9190613c6b565b34801561041357600080fd5b50610427610422366004613c93565b610b45565b60405190151581526020016103dc565b34801561044357600080fd5b50610457610452366004613da0565b610b5f565b6040517fffffffff0000000000000000000000000000000000000000000000000000000090911681526020016103dc565b34801561049457600080fd5b5060cb545b6040519081526020016103dc565b3480156104b357600080fd5b506104c76104c2366004613e0c565b610d62565b005b3480156104c757600080fd5b3480156104e157600080fd5b506104c7610ed6565b3480156104f657600080fd5b50610427610505366004613e29565b610ee6565b34801561051657600080fd5b506104c7610f0a565b34801561052b57600080fd5b5061053f61053a366004613e6a565b610f44565b6040516103dc9190613e8c565b34801561055857600080fd5b50604051601281526020016103dc565b34801561057457600080fd5b50610499611104565b34801561058957600080fd5b506104c7610598366004613e0c565b611113565b3480156105a957600080fd5b506104276105b8366004613c93565b61128e565b3480156105c957600080fd5b5061016254610499565b3480156105df57600080fd5b506104c76112cd565b3480156105f457600080fd5b50610499610603366004613eee565b6001600160a01b0391821660009081526101686020908152604080832093909416825291909152205490565b34801561063b57600080fd5b506104c761064a366004613eee565b6112dd565b34801561065b57600080fd5b506104c761066a366004613f27565b611474565b6104c761067d366004613f69565b6114b3565b34801561068e57600080fd5b5061049961161b565b3480156106a357600080fd5b5060335460ff16610427565b3480156106bb57600080fd5b5061053f6116e0565b3480156106d057600080fd5b506104996106df366004613e0c565b6001600160a01b0316600090815260c9602052604090205490565b34801561070657600080fd5b506104c7611763565b34801561071b57600080fd5b5061049961072a366004613e0c565b611775565b34801561073b57600080fd5b506104c7611794565b6104c7610752366004613e6a565b6118c3565b34801561076357600080fd5b5061076c611bdb565b6040516103dc9796959493929190613fb9565b34801561078b57600080fd5b5061079f61079a366004613c93565b611c9d565b6040805193845260208401929092526001600160a01b0316908201526060016103dc565b3480156107cf57600080fd5b506103c86107de366004613c02565b611ce9565b3480156107ef57600080fd5b50610194546001600160a01b03166103c8565b34801561080e57600080fd5b506103fa611d1a565b34801561082357600080fd5b50610499610832366004613e0c565b6001600160a01b03166000908152610165602052604090205490565b34801561085a57600080fd5b50610499610869366004613e0c565b611d29565b34801561087a57600080fd5b50610427610889366004613c93565b611d73565b34801561089a57600080fd5b506104276108a9366004613c93565b611e1d565b3480156108ba57600080fd5b506104996108c9366004613eee565b611e2b565b3480156108da57600080fd5b506104c76108e9366004613c02565b611f09565b3480156108fa57600080fd5b506104c7610909366004613e6a565b611f17565b34801561091a57600080fd5b506104c7610929366004613e0c565b6120b6565b34801561093a57600080fd5b50610499610949366004613e0c565b6001600160a01b03166000908152610164602052604090205490565b34801561097157600080fd5b506104c761098036600461407c565b6120e1565b34801561099157600080fd5b506104c76109a03660046140aa565b61216f565b3480156109b157600080fd5b506104996109c0366004613e0c565b6001600160a01b03166000908152610167602052604090205490565b3480156109e857600080fd5b506104996109f7366004613eee565b6001600160a01b03918216600090815260ca6020908152604080832093909416825291909152205490565b348015610a2e57600080fd5b50610a42610a3d366004613c93565b6122d3565b604080516001600160a01b0396871681526020810195909552921515928401929092529092166060820152608081019190915260a0016103dc565b348015610a8957600080fd5b5061016354610499565b348015610a9f57600080fd5b506104c7610aae366004613e0c565b612333565b606060cc8054610ac290614121565b80601f0160208091040260200160405190810160405280929190818152602001828054610aee90614121565b8015610b3b5780601f10610b1057610100808354040283529160200191610b3b565b820191906000526020600020905b815481529060010190602001808311610b1e57829003601f168201915b5050505050905090565b600033610b538185856123c0565b60019150505b92915050565b60007f0895c277367ff99b8c0dec875f3149fc2c82df592f63ca6f0747ac209516908785858585604051610b969493929190614155565b60405180910390a133158015610bba57506101c8546001600160a01b038681169116145b15610d0b576101c8546040517fdc9ce7a50000000000000000000000000000000000000000000000000000000081526004810185905260009182916001600160a01b039091169063dc9ce7a590602401600060405180830381865afa158015610c27573d6000803e3d6000fd5b505050506040513d6000823e601f3d908101601f19168201604052610c4f919081019061420c565b915091506000826101200151905060006101cc600083600081518110610c7757610c7761432b565b6020026020010151815260200190815260200160002060009054906101000a90046001600160a01b0316905060006101cc600084600181518110610cbd57610cbd61432b565b60209081029190910181015182528181019290925260409081016000205481518083019092526001600160a01b03858116835216918101829052909150610d0381612518565b505050505050505b815115610d3757600082806020019051810190610d289190614341565b9050610d3584828761278b565b505b507f150b7a02000000000000000000000000000000000000000000000000000000005b949350505050565b6001600160a01b03811660009081526101646020526040902054610ddc5760405162461bcd60e51b815260206004820152602660248201527f5061796d656e7453706c69747465723a206163636f756e7420686173206e6f2060448201526573686172657360d01b60648201526084015b60405180910390fd5b6000610de782611d29565b905080600003610e4d5760405162461bcd60e51b815260206004820152602b60248201527f5061796d656e7453706c69747465723a206163636f756e74206973206e6f742060448201526a191d59481c185e5b595b9d60aa1b6064820152608401610dd3565b806101636000828254610e609190614370565b90915550506001600160a01b038216600090815261016560205260409020805482019055610e8e82826128d7565b604080516001600160a01b0384168152602081018390527fdf20fd1e76bc69d672e4814fafb2c449bba3a5369d8359adf9e05e6fde87b056910160405180910390a15050565b565b610ede6129f5565b610ed4612a50565b600033610ef4858285612aaa565b610eff858585612b3c565b506001949350505050565b610f126129f5565b604051339081904780156108fc02916000818181858888f19350505050158015610f40573d6000803e3d6000fd5b5050565b6060828211610f955760405162461bcd60e51b815260206004820152600d60248201527f496e76616c696420696e646578000000000000000000000000000000000000006044820152606401610dd3565b6101cb54821115610fe85760405162461bcd60e51b815260206004820152601360248201527f496e646578206f7574206f6620626f756e6473000000000000000000000000006044820152606401610dd3565b6000610ff48484614383565b67ffffffffffffffff81111561100c5761100c613cbf565b60405190808252806020026020018201604052801561106a57816020015b6110576040518060600160405280600081526020016000815260200160006001600160a01b031681525090565b81526020019060019003908161102a5790505b509050835b838110156110fc576101cb818154811061108b5761108b61432b565b6000918252602091829020604080516060810182526003909302909101805483526001810154938301939093526002909201546001600160a01b031691810191909152826110d98784614383565b815181106110e9576110e961432b565b602090810291909101015260010161106f565b509392505050565b600061110e612d30565b905090565b6001600160a01b037f00000000000000000000000000000000000000000000000000000000000000001630036111a05760405162461bcd60e51b815260206004820152602c60248201527f46756e6374696f6e206d7573742062652063616c6c6564207468726f7567682060448201526b19195b1959d85d1958d85b1b60a21b6064820152608401610dd3565b7f00000000000000000000000000000000000000000000000000000000000000006001600160a01b03166111fb7f360894a13ba1a3210667c828492db98dca3e2076cc3735a920a3ca505d382bbc546001600160a01b031690565b6001600160a01b0316146112665760405162461bcd60e51b815260206004820152602c60248201527f46756e6374696f6e206d7573742062652063616c6c6564207468726f7567682060448201526b6163746976652070726f787960a01b6064820152608401610dd3565b61126f81612d3a565b6040805160008082526020820190925261128b91839190612d42565b50565b33600081815260ca602090815260408083206001600160a01b0387168452909152812054909190610b5390829086906112c8908790614370565b6123c0565b6112d56129f5565b610ed4612ee2565b6001600160a01b038116600090815261016460205260409020546113525760405162461bcd60e51b815260206004820152602660248201527f5061796d656e7453706c69747465723a206163636f756e7420686173206e6f2060448201526573686172657360d01b6064820152608401610dd3565b600061135e8383611e2b565b9050806000036113c45760405162461bcd60e51b815260206004820152602b60248201527f5061796d656e7453706c69747465723a206163636f756e74206973206e6f742060448201526a191d59481c185e5b595b9d60aa1b6064820152608401610dd3565b6001600160a01b03831660009081526101676020526040812080548392906113ed908490614370565b90915550506001600160a01b03808416600090815261016860209081526040808320938616835292905220805482019055611429838383612f1b565b604080516001600160a01b038481168252602082018490528516917f3be5b7a71e84ed12875d241991c70855ac5817d847039e17a9d895c1ceb0f18a910160405180910390a2505050565b61147c6129f5565b6101c9919091556101c680546001600160a01b039384166001600160a01b0319918216179091556101c88054929093169116179055565b6001600160a01b037f00000000000000000000000000000000000000000000000000000000000000001630036115405760405162461bcd60e51b815260206004820152602c60248201527f46756e6374696f6e206d7573742062652063616c6c6564207468726f7567682060448201526b19195b1959d85d1958d85b1b60a21b6064820152608401610dd3565b7f00000000000000000000000000000000000000000000000000000000000000006001600160a01b031661159b7f360894a13ba1a3210667c828492db98dca3e2076cc3735a920a3ca505d382bbc546001600160a01b031690565b6001600160a01b0316146116065760405162461bcd60e51b815260206004820152602c60248201527f46756e6374696f6e206d7573742062652063616c6c6564207468726f7567682060448201526b6163746976652070726f787960a01b6064820152608401610dd3565b61160f82612d3a565b610f4082826001612d42565b6000306001600160a01b037f000000000000000000000000000000000000000000000000000000000000000016146116bb5760405162461bcd60e51b815260206004820152603860248201527f555550535570677261646561626c653a206d757374206e6f742062652063616c60448201527f6c6564207468726f7567682064656c656761746563616c6c00000000000000006064820152608401610dd3565b507f360894a13ba1a3210667c828492db98dca3e2076cc3735a920a3ca505d382bbc90565b60606101cb805480602002602001604051908101604052809291908181526020016000905b8282101561175a576000848152602090819020604080516060810182526003860290920180548352600180820154848601526002909101546001600160a01b0316918301919091529083529092019101611705565b50505050905090565b61176b6129f5565b610ed46000612f9b565b6001600160a01b038116600090815261012f6020526040812054610b59565b600054610100900460ff16158080156117b45750600054600160ff909116105b806117ce5750303b1580156117ce575060005460ff166001145b6118405760405162461bcd60e51b815260206004820152602e60248201527f496e697469616c697a61626c653a20636f6e747261637420697320616c72656160448201527f647920696e697469616c697a65640000000000000000000000000000000000006064820152608401610dd3565b6000805460ff191660011790558015611863576000805461ff0019166101001790555b61186b612fee565b611873613061565b61187b6130d4565b801561128b576000805461ff0019169055604051600181527f7f26b83ff96e1f2b6a682f133852f6798a09c465da95921460cefb38474024989060200160405180910390a150565b80600080806118d18461313f565b9050806101c9546118e29190614370565b3410156118ee57600080fd5b6000805b6101cb5481101561196957866101cb82815481106119125761191261432b565b90600052602060002090600302016000015403611961576101cb818154811061193d5761193d61432b565b60009182526020909120600260039092020101546001600160a01b03169150611969565b6001016118f2565b50604051600b9060009081906001600160a01b0385169084908381818185875af1925050503d80600081146119ba576040519150601f19603f3d011682016040523d82523d6000602084013e6119bf565b606091505b509150915081611a115760405162461bcd60e51b815260206004820152601460248201527f4661696c656420746f2073656e642045746865720000000000000000000000006044820152606401610dd3565b6101c6546040517fbf0e57a3000000000000000000000000000000000000000000000000000000008152600481018c9052602481018b9052600060448201523460648201526001600160a01b039091169063bf0e57a3906084016020604051808303816000875af1158015611a8a573d6000803e3d6000fd5b505050506040513d601f19601f82011682018060405250810190611aae9190614341565b50826101c954611abe9190614370565b341115611b7f576000336001600160a01b0316846101c95434611ae19190614383565b611aeb9190614383565b604051600081818185875af1925050503d8060008114611b27576040519150601f19603f3d011682016040523d82523d6000602084013e611b2c565b606091505b5050905080611b7d5760405162461bcd60e51b815260206004820152601d60248201527f4661696c656420746f20726566756e64206578636573732045746865720000006044820152606401610dd3565b505b604080518b81526001600160a01b0389811660208301528183018c90528816606082015290517f8557df6951fbdd47fe9027516fc896be40f285ed55a6acac460352adbab730cd9181900360800190a150505050505050505050565b60006060806000806000606060fb546000801b148015611bfb575060fc54155b611c475760405162461bcd60e51b815260206004820152601560248201527f4549503731323a20556e696e697469616c697a656400000000000000000000006044820152606401610dd3565b611c4f6131b6565b611c576131c5565b604080516000808252602082019092527f0f000000000000000000000000000000000000000000000000000000000000009b939a50919850469750309650945092509050565b6101ca6020528160005260406000208181548110611cba57600080fd5b60009182526020909120600390910201805460018201546002909201549093509091506001600160a01b031683565b60006101668281548110611cff57611cff61432b565b6000918252602090912001546001600160a01b031692915050565b606060cd8054610ac290614121565b600080611d366101635490565b611d409047614370565b9050611d6c8382611d67866001600160a01b03166000908152610165602052604090205490565b6131d4565b9392505050565b33600081815260ca602090815260408083206001600160a01b038716845290915281205490919083811015611e105760405162461bcd60e51b815260206004820152602560248201527f45524332303a2064656372656173656420616c6c6f77616e63652062656c6f7760448201527f207a65726f0000000000000000000000000000000000000000000000000000006064820152608401610dd3565b610eff82868684036123c0565b600033610b53818585612b3c565b6001600160a01b0382166000908152610167602052604081205481906040517f70a082310000000000000000000000000000000000000000000000000000000081523060048201526001600160a01b038616906370a0823190602401602060405180830381865afa158015611ea4573d6000803e3d6000fd5b505050506040513d601f19601f82011682018060405250810190611ec89190614341565b611ed29190614370565b6001600160a01b0380861660009081526101686020908152604080832093881683529290522054909150610d5a90849083906131d4565b611f116129f5565b6101c955565b6101cb548210611f695760405162461bcd60e51b815260206004820152601360248201527f496e646578206f7574206f6620626f756e6473000000000000000000000000006044820152606401610dd3565b600033905060006101cb8481548110611f8457611f8461432b565b6000918252602091829020604080516060810182526003909302909101805483526001810154938301939093526002909201546001600160a01b031691810182905291503314611fd357600080fd5b6040518060600160405280600081526020016000815260200160006001600160a01b03168152506101cb858154811061200e5761200e61432b565b6000918252602091829020835160039290920201908155908201516001820155604090910151600290910180546001600160a01b0319166001600160a01b039092169190911790556120608383613214565b6101c8548151604080516001600160a01b03808716825290931660208401528201527f0ece05e698e9e143fb75b2ad0aba7f141238c27b6d3e9728898183ee0d68498b906060015b60405180910390a150505050565b6120be6129f5565b6101c780546001600160a01b0319166001600160a01b0392909216919091179055565b6120e96129f5565b6101c8546040517fa22cb4650000000000000000000000000000000000000000000000000000000081526001600160a01b03848116600483015283151560248301529091169063a22cb465906044015b600060405180830381600087803b15801561215357600080fd5b505af1158015612167573d6000803e3d6000fd5b505050505050565b834211156121bf5760405162461bcd60e51b815260206004820152601d60248201527f45524332305065726d69743a206578706972656420646561646c696e650000006044820152606401610dd3565b60007f6e71edae12b1b97f4d1f60370fef10105fa2faae0126114a169c64845d6126c98888886121ee8c61326d565b6040805160208101969096526001600160a01b0394851690860152929091166060840152608083015260a082015260c0810186905260e001604051602081830303815290604052805190602001209050600061224982613294565b90506000612259828787876132dc565b9050896001600160a01b0316816001600160a01b0316146122bc5760405162461bcd60e51b815260206004820152601e60248201527f45524332305065726d69743a20696e76616c6964207369676e617475726500006044820152606401610dd3565b6122c78a8a8a6123c0565b50505050505050505050565b6101cd60205281600052604060002081815481106122f057600080fd5b600091825260209091206004909102018054600182015460028301546003909301546001600160a01b03928316955090935060ff83169261010090049091169085565b61233b6129f5565b6001600160a01b0381166123b75760405162461bcd60e51b815260206004820152602660248201527f4f776e61626c653a206e6577206f776e657220697320746865207a65726f206160448201527f64647265737300000000000000000000000000000000000000000000000000006064820152608401610dd3565b61128b81612f9b565b6001600160a01b03831661243b5760405162461bcd60e51b8152602060048201526024808201527f45524332303a20617070726f76652066726f6d20746865207a65726f2061646460448201527f72657373000000000000000000000000000000000000000000000000000000006064820152608401610dd3565b6001600160a01b0382166124b75760405162461bcd60e51b815260206004820152602260248201527f45524332303a20617070726f766520746f20746865207a65726f20616464726560448201527f73730000000000000000000000000000000000000000000000000000000000006064820152608401610dd3565b6001600160a01b03838116600081815260ca602090815260408083209487168084529482529182902085905590518481527f8c5be1e5ebec7d5bd14f71427d1e84f3dd0314c0f7b2291e5b200ac8c7c3b925910160405180910390a3505050565b80516020808301516001600160a01b03831660009081526101cd90925260408220549192911561261d5760005b6001600160a01b03831660009081526101cd6020526040902054811015612617576001600160a01b0383811660009081526101cd60205260409020805491841691839081106125965761259661432b565b600091825260209091206004909102016002015461010090046001600160a01b03160361260f576001600160a01b03831660009081526101cd60205260409020805460019190839081106125ec576125ec61432b565b60009182526020909120600490910201600201805460ff19169115159190911790555b600101612545565b50612784565b6020808501516001600160a01b031660009081526101cd9091526040902054156127165760005b6001600160a01b03821660009081526101cd6020526040902054811015612617576001600160a01b0382811660009081526101cd60205260409020805491851691839081106126955761269561432b565b600091825260209091206004909102016002015461010090046001600160a01b03160361270e576001600160a01b03821660009081526101cd60205260409020805460019190839081106126eb576126eb61432b565b60009182526020909120600490910201600201805460ff19169115159190911790555b600101612644565b60405162461bcd60e51b815260206004820152602560248201527f706c616e65742073656e7420657272616e746c792c206e6f206f6e6520746f2060448201527f636c61696d0000000000000000000000000000000000000000000000000000006064820152608401610dd3565b5050919050565b604080516060808201835285825260208083018681526001600160a01b0386811685870181815260009182526101ca8552878220805460018082018355918452868420895160039283029091019081558651818401558351600290910180549187166001600160a01b03199283161790556101cb80549384018155909452885191027fe8bbfecd380c4167d6a1f763a233ec73e73f534b1970c4e1683f437ec23c1f4481019190915593517fe8bbfecd380c4167d6a1f763a233ec73e73f534b1970c4e1683f437ec23c1f45850155517fe8bbfecd380c4167d6a1f763a233ec73e73f534b1970c4e1683f437ec23c1f46909301805493831693909116929092179091556101c85485513381529116918101919091529283018690528201849052907fb30319a217488a3ed441c348e935a48d16091e33109bab0c79a353b979752883906080016120a8565b804710156129275760405162461bcd60e51b815260206004820152601d60248201527f416464726573733a20696e73756666696369656e742062616c616e63650000006044820152606401610dd3565b6000826001600160a01b03168260405160006040518083038185875af1925050503d8060008114612974576040519150601f19603f3d011682016040523d82523d6000602084013e612979565b606091505b50509050806129f05760405162461bcd60e51b815260206004820152603a60248201527f416464726573733a20756e61626c6520746f2073656e642076616c75652c207260448201527f6563697069656e74206d617920686176652072657665727465640000000000006064820152608401610dd3565b505050565b610194546001600160a01b03163314610ed45760405162461bcd60e51b815260206004820181905260248201527f4f776e61626c653a2063616c6c6572206973206e6f7420746865206f776e65726044820152606401610dd3565b612a58613304565b6033805460ff191660011790557f62e78cea01bee320cd4e420270b5ea74000d11b0c9f74754ebdbfc544b05a258612a8d3390565b6040516001600160a01b03909116815260200160405180910390a1565b6001600160a01b03838116600090815260ca60209081526040808320938616835292905220546000198114612b365781811015612b295760405162461bcd60e51b815260206004820152601d60248201527f45524332303a20696e73756666696369656e7420616c6c6f77616e63650000006044820152606401610dd3565b612b3684848484036123c0565b50505050565b6001600160a01b038316612bb85760405162461bcd60e51b815260206004820152602560248201527f45524332303a207472616e736665722066726f6d20746865207a65726f20616460448201527f64726573730000000000000000000000000000000000000000000000000000006064820152608401610dd3565b6001600160a01b038216612c345760405162461bcd60e51b815260206004820152602360248201527f45524332303a207472616e7366657220746f20746865207a65726f206164647260448201527f65737300000000000000000000000000000000000000000000000000000000006064820152608401610dd3565b6001600160a01b038316600090815260c9602052604090205481811015612cc35760405162461bcd60e51b815260206004820152602660248201527f45524332303a207472616e7366657220616d6f756e742065786365656473206260448201527f616c616e636500000000000000000000000000000000000000000000000000006064820152608401610dd3565b6001600160a01b03808516600081815260c9602052604080822086860390559286168082529083902080548601905591517fddf252ad1be2c89b69c2b068fc378daa952ba7f163c4a11628f55a4df523b3ef90612d239086815260200190565b60405180910390a3612b36565b600061110e613357565b61128b6129f5565b7f4910fdfa16fed3260ed0e7147f7cc6da11a60208b5b9406d12a635614ffd91435460ff1615612d75576129f0836133cb565b826001600160a01b03166352d1902d6040518163ffffffff1660e01b8152600401602060405180830381865afa925050508015612dcf575060408051601f3d908101601f19168201909252612dcc91810190614341565b60015b612e415760405162461bcd60e51b815260206004820152602e60248201527f45524331393637557067726164653a206e657720696d706c656d656e7461746960448201527f6f6e206973206e6f7420555550530000000000000000000000000000000000006064820152608401610dd3565b7f360894a13ba1a3210667c828492db98dca3e2076cc3735a920a3ca505d382bbc8114612ed65760405162461bcd60e51b815260206004820152602960248201527f45524331393637557067726164653a20756e737570706f727465642070726f7860448201527f6961626c655555494400000000000000000000000000000000000000000000006064820152608401610dd3565b506129f0838383613489565b612eea6134ae565b6033805460ff191690557f5db9ee0a495bf2e6ff9c91a7834c1ba4fdd244a5e8aa4e537bd38aeae4b073aa33612a8d565b604080516001600160a01b038416602482015260448082018490528251808303909101815260649091019091526020810180517bffffffffffffffffffffffffffffffffffffffffffffffffffffffff167fa9059cbb000000000000000000000000000000000000000000000000000000001790526129f0908490613500565b61019480546001600160a01b038381166001600160a01b0319831681179093556040519116919082907f8be0079c531659141344cd1fd0a4f28419497f9722a3daafe3b4186f6b6457e090600090a35050565b600054610100900460ff166130595760405162461bcd60e51b815260206004820152602b60248201527f496e697469616c697a61626c653a20636f6e7472616374206973206e6f74206960448201526a6e697469616c697a696e6760a81b6064820152608401610dd3565b610ed46135e8565b600054610100900460ff166130cc5760405162461bcd60e51b815260206004820152602b60248201527f496e697469616c697a61626c653a20636f6e7472616374206973206e6f74206960448201526a6e697469616c697a696e6760a81b6064820152608401610dd3565b610ed461365c565b600054610100900460ff16610ed45760405162461bcd60e51b815260206004820152602b60248201527f496e697469616c697a61626c653a20636f6e7472616374206973206e6f74206960448201526a6e697469616c697a696e6760a81b6064820152608401610dd3565b6000805b6101cb548110156131b057826101cb82815481106131635761316361432b565b906000526020600020906003020160000154036131a8576101cb818154811061318e5761318e61432b565b906000526020600020906003020160010154915050919050565b600101613143565b50919050565b606060fd8054610ac290614121565b606060fe8054610ac290614121565b610162546001600160a01b03841660009081526101646020526040812054909183916132009086614396565b61320a91906143ad565b610d5a9190614383565b6101c8546040517f23b872dd0000000000000000000000000000000000000000000000000000000081523060048201526001600160a01b03838116602483015260448201859052909116906323b872dd90606401612139565b6001600160a01b038116600090815261012f602052604090208054600181018255906131b0565b6000610b596132a1612d30565b836040517f19010000000000000000000000000000000000000000000000000000000000008152600281019290925260228201526042902090565b60008060006132ed878787876136d3565b915091506132fa81613797565b5095945050505050565b60335460ff1615610ed45760405162461bcd60e51b815260206004820152601060248201527f5061757361626c653a20706175736564000000000000000000000000000000006044820152606401610dd3565b60007f8b73c3c69bb8fe3d512ecc4cf759cc79239f7b179b0ffacaa9a75d522b39400f6133826138fc565b61338a613955565b60408051602081019490945283019190915260608201524660808201523060a082015260c00160405160208183030381529060405280519060200120905090565b6001600160a01b0381163b6134485760405162461bcd60e51b815260206004820152602d60248201527f455243313936373a206e657720696d706c656d656e746174696f6e206973206e60448201527f6f74206120636f6e7472616374000000000000000000000000000000000000006064820152608401610dd3565b7f360894a13ba1a3210667c828492db98dca3e2076cc3735a920a3ca505d382bbc80546001600160a01b0319166001600160a01b0392909216919091179055565b61349283613986565b60008251118061349f5750805b156129f057612b3683836139c6565b60335460ff16610ed45760405162461bcd60e51b815260206004820152601460248201527f5061757361626c653a206e6f74207061757365640000000000000000000000006044820152606401610dd3565b6000613555826040518060400160405280602081526020017f5361666545524332303a206c6f772d6c6576656c2063616c6c206661696c6564815250856001600160a01b03166139eb9092919063ffffffff16565b905080516000148061357657508080602001905181019061357691906143cf565b6129f05760405162461bcd60e51b815260206004820152602a60248201527f5361666545524332303a204552433230206f7065726174696f6e20646964206e60448201527f6f742073756363656564000000000000000000000000000000000000000000006064820152608401610dd3565b600054610100900460ff166136535760405162461bcd60e51b815260206004820152602b60248201527f496e697469616c697a61626c653a20636f6e7472616374206973206e6f74206960448201526a6e697469616c697a696e6760a81b6064820152608401610dd3565b610ed433612f9b565b600054610100900460ff166136c75760405162461bcd60e51b815260206004820152602b60248201527f496e697469616c697a61626c653a20636f6e7472616374206973206e6f74206960448201526a6e697469616c697a696e6760a81b6064820152608401610dd3565b6033805460ff19169055565b6000807f7fffffffffffffffffffffffffffffff5d576e7357a4501ddfe92f46681b20a083111561370a575060009050600361378e565b6040805160008082526020820180845289905260ff881692820192909252606081018690526080810185905260019060a0016020604051602081039080840390855afa15801561375e573d6000803e3d6000fd5b5050604051601f1901519150506001600160a01b0381166137875760006001925092505061378e565b9150600090505b94509492505050565b60008160048111156137ab576137ab6143ec565b036137b35750565b60018160048111156137c7576137c76143ec565b036138145760405162461bcd60e51b815260206004820152601860248201527f45434453413a20696e76616c6964207369676e617475726500000000000000006044820152606401610dd3565b6002816004811115613828576138286143ec565b036138755760405162461bcd60e51b815260206004820152601f60248201527f45434453413a20696e76616c6964207369676e6174757265206c656e677468006044820152606401610dd3565b6003816004811115613889576138896143ec565b0361128b5760405162461bcd60e51b815260206004820152602260248201527f45434453413a20696e76616c6964207369676e6174757265202773272076616c60448201527f75650000000000000000000000000000000000000000000000000000000000006064820152608401610dd3565b6000806139076131b6565b80519091501561391e578051602090910120919050565b60fb54801561392d5792915050565b7fc5d2460186f7233c927e7db2dcc703c0e500b653ca82273b7bfad8045d85a4709250505090565b6000806139606131c5565b805190915015613977578051602090910120919050565b60fc54801561392d5792915050565b61398f816133cb565b6040516001600160a01b038216907fbc7cd75a20ee27fd9adebab32041f755214dbc6bffa90cc0225b39da2e5c2d3b90600090a250565b6060611d6c838360405180606001604052806027815260200161441f602791396139fa565b6060610d5a8484600085613a72565b6060600080856001600160a01b031685604051613a179190614402565b600060405180830381855af49150503d8060008114613a52576040519150601f19603f3d011682016040523d82523d6000602084013e613a57565b606091505b5091509150613a6886838387613b64565b9695505050505050565b606082471015613aea5760405162461bcd60e51b815260206004820152602660248201527f416464726573733a20696e73756666696369656e742062616c616e636520666f60448201527f722063616c6c00000000000000000000000000000000000000000000000000006064820152608401610dd3565b600080866001600160a01b03168587604051613b069190614402565b60006040518083038185875af1925050503d8060008114613b43576040519150601f19603f3d011682016040523d82523d6000602084013e613b48565b606091505b5091509150613b5987838387613b64565b979650505050505050565b60608315613bd3578251600003613bcc576001600160a01b0385163b613bcc5760405162461bcd60e51b815260206004820152601d60248201527f416464726573733a2063616c6c20746f206e6f6e2d636f6e74726163740000006044820152606401610dd3565b5081610d5a565b610d5a8383815115613be85781518083602001fd5b8060405162461bcd60e51b8152600401610dd39190613c6b565b600060208284031215613c1457600080fd5b5035919050565b60005b83811015613c36578181015183820152602001613c1e565b50506000910152565b60008151808452613c57816020860160208601613c1b565b601f01601f19169290920160200192915050565b602081526000611d6c6020830184613c3f565b6001600160a01b038116811461128b57600080fd5b60008060408385031215613ca657600080fd5b8235613cb181613c7e565b946020939093013593505050565b634e487b7160e01b600052604160045260246000fd5b604051610160810167ffffffffffffffff81118282101715613cf957613cf9613cbf565b60405290565b604051601f8201601f1916810167ffffffffffffffff81118282101715613d2857613d28613cbf565b604052919050565b600082601f830112613d4157600080fd5b813567ffffffffffffffff811115613d5b57613d5b613cbf565b613d6e601f8201601f1916602001613cff565b818152846020838601011115613d8357600080fd5b816020850160208301376000918101602001919091529392505050565b60008060008060808587031215613db657600080fd5b8435613dc181613c7e565b93506020850135613dd181613c7e565b925060408501359150606085013567ffffffffffffffff811115613df457600080fd5b613e0087828801613d30565b91505092959194509250565b600060208284031215613e1e57600080fd5b8135611d6c81613c7e565b600080600060608486031215613e3e57600080fd5b8335613e4981613c7e565b92506020840135613e5981613c7e565b929592945050506040919091013590565b60008060408385031215613e7d57600080fd5b50508035926020909101359150565b602080825282518282018190526000919060409081850190868401855b82811015613ee15781518051855286810151878601528501516001600160a01b03168585015260609093019290850190600101613ea9565b5091979650505050505050565b60008060408385031215613f0157600080fd5b8235613f0c81613c7e565b91506020830135613f1c81613c7e565b809150509250929050565b600080600060608486031215613f3c57600080fd5b8335613f4781613c7e565b9250602084013591506040840135613f5e81613c7e565b809150509250925092565b60008060408385031215613f7c57600080fd5b8235613f8781613c7e565b9150602083013567ffffffffffffffff811115613fa357600080fd5b613faf85828601613d30565b9150509250929050565b7fff00000000000000000000000000000000000000000000000000000000000000881681526000602060e06020840152613ff660e084018a613c3f565b8381036040850152614008818a613c3f565b606085018990526001600160a01b038816608086015260a0850187905284810360c08601528551808252602080880193509091019060005b8181101561405c57835183529284019291840191600101614040565b50909c9b505050505050505050505050565b801515811461128b57600080fd5b6000806040838503121561408f57600080fd5b823561409a81613c7e565b91506020830135613f1c8161406e565b600080600080600080600060e0888a0312156140c557600080fd5b87356140d081613c7e565b965060208801356140e081613c7e565b95506040880135945060608801359350608088013560ff8116811461410457600080fd5b9699959850939692959460a0840135945060c09093013592915050565b600181811c9082168061413557607f821691505b6020821081036131b057634e487b7160e01b600052602260045260246000fd5b60006001600160a01b03808716835280861660208401525083604083015260806060830152613a686080830184613c3f565b600082601f83011261419857600080fd5b8151602067ffffffffffffffff8211156141b4576141b4613cbf565b8160051b6141c3828201613cff565b92835284810182019282810190878511156141dd57600080fd5b83870192505b84831015613b59578251825291830191908301906141e3565b80516142078161406e565b919050565b6000806040838503121561421f57600080fd5b825167ffffffffffffffff8082111561423757600080fd5b90840190610160828703121561424c57600080fd5b614254613cd5565b825181526020830151602082015260408301516040820152606083015160608201526080830151608082015260a083015160a082015260c083015160c082015260e083015160e082015261010080840151838111156142b257600080fd5b6142be89828701614187565b82840152505061012080840151838111156142d857600080fd5b6142e489828701614187565b82840152505061014080840151838111156142fe57600080fd5b61430a89828701614187565b828401525050809450505050614322602084016141fc565b90509250929050565b634e487b7160e01b600052603260045260246000fd5b60006020828403121561435357600080fd5b5051919050565b634e487b7160e01b600052601160045260246000fd5b80820180821115610b5957610b5961435a565b81810381811115610b5957610b5961435a565b8082028115828204841417610b5957610b5961435a565b6000826143ca57634e487b7160e01b600052601260045260246000fd5b500490565b6000602082840312156143e157600080fd5b8151611d6c8161406e565b634e487b7160e01b600052602160045260246000fd5b60008251614414818460208701613c1b565b919091019291505056fe416464726573733a206c6f772d6c6576656c2064656c65676174652063616c6c206661696c6564a264697066735822122098cfefaaba3c714fd3bc963a3563f436e60cc2d0d7d537e66ee2b2287912e5f964736f6c63430008180033","opcodes":"PUSH1 0xA0 PUSH1 0x40 MSTORE ADDRESS PUSH1 0x80 MSTORE CALLVALUE DUP1 ISZERO PUSH3 0x15 JUMPI PUSH1 0x0 DUP1 REVERT JUMPDEST POP PUSH3 0x20 PUSH3 0x26 JUMP JUMPDEST PUSH3 0xE7 JUMP JUMPDEST PUSH1 0x0 SLOAD PUSH2 0x100 SWAP1 DIV PUSH1 0xFF AND ISZERO PUSH3 0x93 JUMPI PUSH1 0x40 MLOAD PUSH3 0x461BCD PUSH1 0xE5 SHL DUP2 MSTORE PUSH1 0x20 PUSH1 0x4 DUP3 ADD MSTORE PUSH1 0x27 PUSH1 0x24 DUP3 ADD MSTORE PUSH32 0x496E697469616C697A61626C653A20636F6E747261637420697320696E697469 PUSH1 0x44 DUP3 ADD MSTORE PUSH7 0x616C697A696E67 PUSH1 0xC8 SHL PUSH1 0x64 DUP3 ADD MSTORE PUSH1 0x84 ADD PUSH1 0x40 MLOAD DUP1 SWAP2 SUB SWAP1 REVERT JUMPDEST PUSH1 0x0 SLOAD PUSH1 0xFF SWAP1 DUP2 AND EQ PUSH3 0xE5 JUMPI PUSH1 0x0 DUP1 SLOAD PUSH1 0xFF NOT AND PUSH1 0xFF SWAP1 DUP2 OR SWAP1 SWAP2 SSTORE PUSH1 0x40 MLOAD SWAP1 DUP2 MSTORE PUSH32 0x7F26B83FF96E1F2B6A682F133852F6798A09C465DA95921460CEFB3847402498 SWAP1 PUSH1 0x20 ADD PUSH1 0x40 MLOAD DUP1 SWAP2 SUB SWAP1 LOG1 JUMPDEST JUMP JUMPDEST PUSH1 0x80 MLOAD PUSH2 0x447B PUSH3 0x11F PUSH1 0x0 CODECOPY PUSH1 0x0 DUP2 DUP2 PUSH2 0x111D ADD MSTORE DUP2 DUP2 PUSH2 0x11A2 ADD MSTORE DUP2 DUP2 PUSH2 0x14BD ADD MSTORE DUP2 DUP2 PUSH2 0x1542 ADD MSTORE PUSH2 0x1628 ADD MSTORE PUSH2 0x447B PUSH1 0x0 RETURN INVALID PUSH1 0x80 PUSH1 0x40 MSTORE PUSH1 0x4 CALLDATASIZE LT PUSH2 0x343 JUMPI PUSH1 0x0 CALLDATALOAD PUSH1 0xE0 SHR DUP1 PUSH4 0x715018A6 GT PUSH2 0x1B0 JUMPI DUP1 PUSH4 0xA9059CBB GT PUSH2 0xEC JUMPI DUP1 PUSH4 0xD28EB2DC GT PUSH2 0x95 JUMPI DUP1 PUSH4 0xDD62ED3E GT PUSH2 0x6F JUMPI DUP1 PUSH4 0xDD62ED3E EQ PUSH2 0x9DC JUMPI DUP1 PUSH4 0xE22AECB4 EQ PUSH2 0xA22 JUMPI DUP1 PUSH4 0xE33B7DE3 EQ PUSH2 0xA7D JUMPI DUP1 PUSH4 0xF2FDE38B EQ PUSH2 0xA93 JUMPI PUSH1 0x0 DUP1 REVERT JUMPDEST DUP1 PUSH4 0xD28EB2DC EQ PUSH2 0x965 JUMPI DUP1 PUSH4 0xD505ACCF EQ PUSH2 0x985 JUMPI DUP1 PUSH4 0xD79779B2 EQ PUSH2 0x9A5 JUMPI PUSH1 0x0 DUP1 REVERT JUMPDEST DUP1 PUSH4 0xCBDF1B5A GT PUSH2 0xC6 JUMPI DUP1 PUSH4 0xCBDF1B5A EQ PUSH2 0x8EE JUMPI DUP1 PUSH4 0xCDB82A37 EQ PUSH2 0x90E JUMPI DUP1 PUSH4 0xCE7C2AC2 EQ PUSH2 0x92E JUMPI PUSH1 0x0 DUP1 REVERT JUMPDEST DUP1 PUSH4 0xA9059CBB EQ PUSH2 0x88E JUMPI DUP1 PUSH4 0xC45AC050 EQ PUSH2 0x8AE JUMPI DUP1 PUSH4 0xC7C0E6B1 EQ PUSH2 0x8CE JUMPI PUSH1 0x0 DUP1 REVERT JUMPDEST DUP1 PUSH4 0x85FE7243 GT PUSH2 0x159 JUMPI DUP1 PUSH4 0x95D89B41 GT PUSH2 0x133 JUMPI DUP1 PUSH4 0x95D89B41 EQ PUSH2 0x802 JUMPI DUP1 PUSH4 0x9852595C EQ PUSH2 0x817 JUMPI DUP1 PUSH4 0xA3F8EACE EQ PUSH2 0x84E JUMPI DUP1 PUSH4 0xA457C2D7 EQ PUSH2 0x86E JUMPI PUSH1 0x0 DUP1 REVERT JUMPDEST DUP1 PUSH4 0x85FE7243 EQ PUSH2 0x77F JUMPI DUP1 PUSH4 0x8B83209B EQ PUSH2 0x7C3 JUMPI DUP1 PUSH4 0x8DA5CB5B EQ PUSH2 0x7E3 JUMPI PUSH1 0x0 DUP1 REVERT JUMPDEST DUP1 PUSH4 0x8230A784 GT PUSH2 0x18A JUMPI DUP1 PUSH4 0x8230A784 EQ PUSH2 0x744 JUMPI DUP1 PUSH4 0x8456CB59 EQ PUSH2 0x4D5 JUMPI DUP1 PUSH4 0x84B0196E EQ PUSH2 0x757 JUMPI PUSH1 0x0 DUP1 REVERT JUMPDEST DUP1 PUSH4 0x715018A6 EQ PUSH2 0x6FA JUMPI DUP1 PUSH4 0x7ECEBE00 EQ PUSH2 0x70F JUMPI DUP1 PUSH4 0x8129FC1C EQ PUSH2 0x72F JUMPI PUSH1 0x0 DUP1 REVERT JUMPDEST DUP1 PUSH4 0x3659CFE6 GT PUSH2 0x27F JUMPI DUP1 PUSH4 0x4A02099B GT PUSH2 0x228 JUMPI DUP1 PUSH4 0x52D1902D GT PUSH2 0x202 JUMPI DUP1 PUSH4 0x52D1902D EQ PUSH2 0x682 JUMPI DUP1 PUSH4 0x5C975ABB EQ PUSH2 0x697 JUMPI DUP1 PUSH4 0x6A23BEFB EQ PUSH2 0x6AF JUMPI DUP1 PUSH4 0x70A08231 EQ PUSH2 0x6C4 JUMPI PUSH1 0x0 DUP1 REVERT JUMPDEST DUP1 PUSH4 0x4A02099B EQ PUSH2 0x64F JUMPI DUP1 PUSH4 0x4F1EF286 EQ PUSH2 0x66F JUMPI DUP1 PUSH4 0x50842CF3 EQ PUSH2 0x4C9 JUMPI PUSH1 0x0 DUP1 REVERT JUMPDEST DUP1 PUSH4 0x3F4BA83A GT PUSH2 0x259 JUMPI DUP1 PUSH4 0x3F4BA83A EQ PUSH2 0x5D3 JUMPI DUP1 PUSH4 0x406072A9 EQ PUSH2 0x5E8 JUMPI DUP1 PUSH4 0x48B75044 EQ PUSH2 0x62F JUMPI PUSH1 0x0 DUP1 REVERT JUMPDEST DUP1 PUSH4 0x3659CFE6 EQ PUSH2 0x57D JUMPI DUP1 PUSH4 0x39509351 EQ PUSH2 0x59D JUMPI DUP1 PUSH4 0x3A98EF39 EQ PUSH2 0x5BD JUMPI PUSH1 0x0 DUP1 REVERT JUMPDEST DUP1 PUSH4 0x1AC9A91E GT PUSH2 0x2EC JUMPI DUP1 PUSH4 0x24600FC3 GT PUSH2 0x2C6 JUMPI DUP1 PUSH4 0x24600FC3 EQ PUSH2 0x50A JUMPI DUP1 PUSH4 0x25947818 EQ PUSH2 0x51F JUMPI DUP1 PUSH4 0x313CE567 EQ PUSH2 0x54C JUMPI DUP1 PUSH4 0x3644E515 EQ PUSH2 0x568 JUMPI PUSH1 0x0 DUP1 REVERT JUMPDEST DUP1 PUSH4 0x1AC9A91E EQ PUSH2 0x4C9 JUMPI DUP1 PUSH4 0x200D2ED2 EQ PUSH2 0x4D5 JUMPI DUP1 PUSH4 0x23B872DD EQ PUSH2 0x4EA JUMPI PUSH1 0x0 DUP1 REVERT JUMPDEST DUP1 PUSH4 0x150B7A02 GT PUSH2 0x31D JUMPI DUP1 PUSH4 0x150B7A02 EQ PUSH2 0x437 JUMPI DUP1 PUSH4 0x18160DDD EQ PUSH2 0x488 JUMPI DUP1 PUSH4 0x19165587 EQ PUSH2 0x4A7 JUMPI PUSH1 0x0 DUP1 REVERT JUMPDEST DUP1 PUSH4 0x64DB874 EQ PUSH2 0x391 JUMPI DUP1 PUSH4 0x6FDDE03 EQ PUSH2 0x3E5 JUMPI DUP1 PUSH4 0x95EA7B3 EQ PUSH2 0x407 JUMPI PUSH1 0x0 DUP1 REVERT JUMPDEST CALLDATASIZE PUSH2 0x38C JUMPI PUSH32 0x6EF95F06320E7A25A04A175CA677B7052BDD97131872C2192525A629F51BE770 CALLER PUSH1 0x40 DUP1 MLOAD PUSH1 0x1 PUSH1 0x1 PUSH1 0xA0 SHL SUB SWAP1 SWAP3 AND DUP3 MSTORE CALLVALUE PUSH1 0x20 DUP4 ADD MSTORE ADD PUSH1 0x40 MLOAD DUP1 SWAP2 SUB SWAP1 LOG1 STOP JUMPDEST PUSH1 0x0 DUP1 REVERT JUMPDEST CALLVALUE DUP1 ISZERO PUSH2 0x39D JUMPI PUSH1 0x0 DUP1 REVERT JUMPDEST POP PUSH2 0x3C8 PUSH2 0x3AC CALLDATASIZE PUSH1 0x4 PUSH2 0x3C02 JUMP JUMPDEST PUSH2 0x1CC PUSH1 0x20 MSTORE PUSH1 0x0 SWAP1 DUP2 MSTORE PUSH1 0x40 SWAP1 KECCAK256 SLOAD PUSH1 0x1 PUSH1 0x1 PUSH1 0xA0 SHL SUB AND DUP2 JUMP JUMPDEST PUSH1 0x40 MLOAD PUSH1 0x1 PUSH1 0x1 PUSH1 0xA0 SHL SUB SWAP1 SWAP2 AND DUP2 MSTORE PUSH1 0x20 ADD JUMPDEST PUSH1 0x40 MLOAD DUP1 SWAP2 SUB SWAP1 RETURN JUMPDEST CALLVALUE DUP1 ISZERO PUSH2 0x3F1 JUMPI PUSH1 0x0 DUP1 REVERT JUMPDEST POP PUSH2 0x3FA PUSH2 0xAB3 JUMP JUMPDEST PUSH1 0x40 MLOAD PUSH2 0x3DC SWAP2 SWAP1 PUSH2 0x3C6B JUMP JUMPDEST CALLVALUE DUP1 ISZERO PUSH2 0x413 JUMPI PUSH1 0x0 DUP1 REVERT JUMPDEST POP PUSH2 0x427 PUSH2 0x422 CALLDATASIZE PUSH1 0x4 PUSH2 0x3C93 JUMP JUMPDEST PUSH2 0xB45 JUMP JUMPDEST PUSH1 0x40 MLOAD SWAP1 ISZERO ISZERO DUP2 MSTORE PUSH1 0x20 ADD PUSH2 0x3DC JUMP JUMPDEST CALLVALUE DUP1 ISZERO PUSH2 0x443 JUMPI PUSH1 0x0 DUP1 REVERT JUMPDEST POP PUSH2 0x457 PUSH2 0x452 CALLDATASIZE PUSH1 0x4 PUSH2 0x3DA0 JUMP JUMPDEST PUSH2 0xB5F JUMP JUMPDEST PUSH1 0x40 MLOAD PUSH32 0xFFFFFFFF00000000000000000000000000000000000000000000000000000000 SWAP1 SWAP2 AND DUP2 MSTORE PUSH1 0x20 ADD PUSH2 0x3DC JUMP JUMPDEST CALLVALUE DUP1 ISZERO PUSH2 0x494 JUMPI PUSH1 0x0 DUP1 REVERT JUMPDEST POP PUSH1 0xCB SLOAD JUMPDEST PUSH1 0x40 MLOAD SWAP1 DUP2 MSTORE PUSH1 0x20 ADD PUSH2 0x3DC JUMP JUMPDEST CALLVALUE DUP1 ISZERO PUSH2 0x4B3 JUMPI PUSH1 0x0 DUP1 REVERT JUMPDEST POP PUSH2 0x4C7 PUSH2 0x4C2 CALLDATASIZE PUSH1 0x4 PUSH2 0x3E0C JUMP JUMPDEST PUSH2 0xD62 JUMP JUMPDEST STOP JUMPDEST CALLVALUE DUP1 ISZERO PUSH2 0x4C7 JUMPI PUSH1 0x0 DUP1 REVERT JUMPDEST CALLVALUE DUP1 ISZERO PUSH2 0x4E1 JUMPI PUSH1 0x0 DUP1 REVERT JUMPDEST POP PUSH2 0x4C7 PUSH2 0xED6 JUMP JUMPDEST CALLVALUE DUP1 ISZERO PUSH2 0x4F6 JUMPI PUSH1 0x0 DUP1 REVERT JUMPDEST POP PUSH2 0x427 PUSH2 0x505 CALLDATASIZE PUSH1 0x4 PUSH2 0x3E29 JUMP JUMPDEST PUSH2 0xEE6 JUMP JUMPDEST CALLVALUE DUP1 ISZERO PUSH2 0x516 JUMPI PUSH1 0x0 DUP1 REVERT JUMPDEST POP PUSH2 0x4C7 PUSH2 0xF0A JUMP JUMPDEST CALLVALUE DUP1 ISZERO PUSH2 0x52B JUMPI PUSH1 0x0 DUP1 REVERT JUMPDEST POP PUSH2 0x53F PUSH2 0x53A CALLDATASIZE PUSH1 0x4 PUSH2 0x3E6A JUMP JUMPDEST PUSH2 0xF44 JUMP JUMPDEST PUSH1 0x40 MLOAD PUSH2 0x3DC SWAP2 SWAP1 PUSH2 0x3E8C JUMP JUMPDEST CALLVALUE DUP1 ISZERO PUSH2 0x558 JUMPI PUSH1 0x0 DUP1 REVERT JUMPDEST POP PUSH1 0x40 MLOAD PUSH1 0x12 DUP2 MSTORE PUSH1 0x20 ADD PUSH2 0x3DC JUMP JUMPDEST CALLVALUE DUP1 ISZERO PUSH2 0x574 JUMPI PUSH1 0x0 DUP1 REVERT JUMPDEST POP PUSH2 0x499 PUSH2 0x1104 JUMP JUMPDEST CALLVALUE DUP1 ISZERO PUSH2 0x589 JUMPI PUSH1 0x0 DUP1 REVERT JUMPDEST POP PUSH2 0x4C7 PUSH2 0x598 CALLDATASIZE PUSH1 0x4 PUSH2 0x3E0C JUMP JUMPDEST PUSH2 0x1113 JUMP JUMPDEST CALLVALUE DUP1 ISZERO PUSH2 0x5A9 JUMPI PUSH1 0x0 DUP1 REVERT JUMPDEST POP PUSH2 0x427 PUSH2 0x5B8 CALLDATASIZE PUSH1 0x4 PUSH2 0x3C93 JUMP JUMPDEST PUSH2 0x128E JUMP JUMPDEST CALLVALUE DUP1 ISZERO PUSH2 0x5C9 JUMPI PUSH1 0x0 DUP1 REVERT JUMPDEST POP PUSH2 0x162 SLOAD PUSH2 0x499 JUMP JUMPDEST CALLVALUE DUP1 ISZERO PUSH2 0x5DF JUMPI PUSH1 0x0 DUP1 REVERT JUMPDEST POP PUSH2 0x4C7 PUSH2 0x12CD JUMP JUMPDEST CALLVALUE DUP1 ISZERO PUSH2 0x5F4 JUMPI PUSH1 0x0 DUP1 REVERT JUMPDEST POP PUSH2 0x499 PUSH2 0x603 CALLDATASIZE PUSH1 0x4 PUSH2 0x3EEE JUMP JUMPDEST PUSH1 0x1 PUSH1 0x1 PUSH1 0xA0 SHL SUB SWAP2 DUP3 AND PUSH1 0x0 SWAP1 DUP2 MSTORE PUSH2 0x168 PUSH1 0x20 SWAP1 DUP2 MSTORE PUSH1 0x40 DUP1 DUP4 KECCAK256 SWAP4 SWAP1 SWAP5 AND DUP3 MSTORE SWAP2 SWAP1 SWAP2 MSTORE KECCAK256 SLOAD SWAP1 JUMP JUMPDEST CALLVALUE DUP1 ISZERO PUSH2 0x63B JUMPI PUSH1 0x0 DUP1 REVERT JUMPDEST POP PUSH2 0x4C7 PUSH2 0x64A CALLDATASIZE PUSH1 0x4 PUSH2 0x3EEE JUMP JUMPDEST PUSH2 0x12DD JUMP JUMPDEST CALLVALUE DUP1 ISZERO PUSH2 0x65B JUMPI PUSH1 0x0 DUP1 REVERT JUMPDEST POP PUSH2 0x4C7 PUSH2 0x66A CALLDATASIZE PUSH1 0x4 PUSH2 0x3F27 JUMP JUMPDEST PUSH2 0x1474 JUMP JUMPDEST PUSH2 0x4C7 PUSH2 0x67D CALLDATASIZE PUSH1 0x4 PUSH2 0x3F69 JUMP JUMPDEST PUSH2 0x14B3 JUMP JUMPDEST CALLVALUE DUP1 ISZERO PUSH2 0x68E JUMPI PUSH1 0x0 DUP1 REVERT JUMPDEST POP PUSH2 0x499 PUSH2 0x161B JUMP JUMPDEST CALLVALUE DUP1 ISZERO PUSH2 0x6A3 JUMPI PUSH1 0x0 DUP1 REVERT JUMPDEST POP PUSH1 0x33 SLOAD PUSH1 0xFF AND PUSH2 0x427 JUMP JUMPDEST CALLVALUE DUP1 ISZERO PUSH2 0x6BB JUMPI PUSH1 0x0 DUP1 REVERT JUMPDEST POP PUSH2 0x53F PUSH2 0x16E0 JUMP JUMPDEST CALLVALUE DUP1 ISZERO PUSH2 0x6D0 JUMPI PUSH1 0x0 DUP1 REVERT JUMPDEST POP PUSH2 0x499 PUSH2 0x6DF CALLDATASIZE PUSH1 0x4 PUSH2 0x3E0C JUMP JUMPDEST PUSH1 0x1 PUSH1 0x1 PUSH1 0xA0 SHL SUB AND PUSH1 0x0 SWAP1 DUP2 MSTORE PUSH1 0xC9 PUSH1 0x20 MSTORE PUSH1 0x40 SWAP1 KECCAK256 SLOAD SWAP1 JUMP JUMPDEST CALLVALUE DUP1 ISZERO PUSH2 0x706 JUMPI PUSH1 0x0 DUP1 REVERT JUMPDEST POP PUSH2 0x4C7 PUSH2 0x1763 JUMP JUMPDEST CALLVALUE DUP1 ISZERO PUSH2 0x71B JUMPI PUSH1 0x0 DUP1 REVERT JUMPDEST POP PUSH2 0x499 PUSH2 0x72A CALLDATASIZE PUSH1 0x4 PUSH2 0x3E0C JUMP JUMPDEST PUSH2 0x1775 JUMP JUMPDEST CALLVALUE DUP1 ISZERO PUSH2 0x73B JUMPI PUSH1 0x0 DUP1 REVERT JUMPDEST POP PUSH2 0x4C7 PUSH2 0x1794 JUMP JUMPDEST PUSH2 0x4C7 PUSH2 0x752 CALLDATASIZE PUSH1 0x4 PUSH2 0x3E6A JUMP JUMPDEST PUSH2 0x18C3 JUMP JUMPDEST CALLVALUE DUP1 ISZERO PUSH2 0x763 JUMPI PUSH1 0x0 DUP1 REVERT JUMPDEST POP PUSH2 0x76C PUSH2 0x1BDB JUMP JUMPDEST PUSH1 0x40 MLOAD PUSH2 0x3DC SWAP8 SWAP7 SWAP6 SWAP5 SWAP4 SWAP3 SWAP2 SWAP1 PUSH2 0x3FB9 JUMP JUMPDEST CALLVALUE DUP1 ISZERO PUSH2 0x78B JUMPI PUSH1 0x0 DUP1 REVERT JUMPDEST POP PUSH2 0x79F PUSH2 0x79A CALLDATASIZE PUSH1 0x4 PUSH2 0x3C93 JUMP JUMPDEST PUSH2 0x1C9D JUMP JUMPDEST PUSH1 0x40 DUP1 MLOAD SWAP4 DUP5 MSTORE PUSH1 0x20 DUP5 ADD SWAP3 SWAP1 SWAP3 MSTORE PUSH1 0x1 PUSH1 0x1 PUSH1 0xA0 SHL SUB AND SWAP1 DUP3 ADD MSTORE PUSH1 0x60 ADD PUSH2 0x3DC JUMP JUMPDEST CALLVALUE DUP1 ISZERO PUSH2 0x7CF JUMPI PUSH1 0x0 DUP1 REVERT JUMPDEST POP PUSH2 0x3C8 PUSH2 0x7DE CALLDATASIZE PUSH1 0x4 PUSH2 0x3C02 JUMP JUMPDEST PUSH2 0x1CE9 JUMP JUMPDEST CALLVALUE DUP1 ISZERO PUSH2 0x7EF JUMPI PUSH1 0x0 DUP1 REVERT JUMPDEST POP PUSH2 0x194 SLOAD PUSH1 0x1 PUSH1 0x1 PUSH1 0xA0 SHL SUB AND PUSH2 0x3C8 JUMP JUMPDEST CALLVALUE DUP1 ISZERO PUSH2 0x80E JUMPI PUSH1 0x0 DUP1 REVERT JUMPDEST POP PUSH2 0x3FA PUSH2 0x1D1A JUMP JUMPDEST CALLVALUE DUP1 ISZERO PUSH2 0x823 JUMPI PUSH1 0x0 DUP1 REVERT JUMPDEST POP PUSH2 0x499 PUSH2 0x832 CALLDATASIZE PUSH1 0x4 PUSH2 0x3E0C JUMP JUMPDEST PUSH1 0x1 PUSH1 0x1 PUSH1 0xA0 SHL SUB AND PUSH1 0x0 SWAP1 DUP2 MSTORE PUSH2 0x165 PUSH1 0x20 MSTORE PUSH1 0x40 SWAP1 KECCAK256 SLOAD SWAP1 JUMP JUMPDEST CALLVALUE DUP1 ISZERO PUSH2 0x85A JUMPI PUSH1 0x0 DUP1 REVERT JUMPDEST POP PUSH2 0x499 PUSH2 0x869 CALLDATASIZE PUSH1 0x4 PUSH2 0x3E0C JUMP JUMPDEST PUSH2 0x1D29 JUMP JUMPDEST CALLVALUE DUP1 ISZERO PUSH2 0x87A JUMPI PUSH1 0x0 DUP1 REVERT JUMPDEST POP PUSH2 0x427 PUSH2 0x889 CALLDATASIZE PUSH1 0x4 PUSH2 0x3C93 JUMP JUMPDEST PUSH2 0x1D73 JUMP JUMPDEST CALLVALUE DUP1 ISZERO PUSH2 0x89A JUMPI PUSH1 0x0 DUP1 REVERT JUMPDEST POP PUSH2 0x427 PUSH2 0x8A9 CALLDATASIZE PUSH1 0x4 PUSH2 0x3C93 JUMP JUMPDEST PUSH2 0x1E1D JUMP JUMPDEST CALLVALUE DUP1 ISZERO PUSH2 0x8BA JUMPI PUSH1 0x0 DUP1 REVERT JUMPDEST POP PUSH2 0x499 PUSH2 0x8C9 CALLDATASIZE PUSH1 0x4 PUSH2 0x3EEE JUMP JUMPDEST PUSH2 0x1E2B JUMP JUMPDEST CALLVALUE DUP1 ISZERO PUSH2 0x8DA JUMPI PUSH1 0x0 DUP1 REVERT JUMPDEST POP PUSH2 0x4C7 PUSH2 0x8E9 CALLDATASIZE PUSH1 0x4 PUSH2 0x3C02 JUMP JUMPDEST PUSH2 0x1F09 JUMP JUMPDEST CALLVALUE DUP1 ISZERO PUSH2 0x8FA JUMPI PUSH1 0x0 DUP1 REVERT JUMPDEST POP PUSH2 0x4C7 PUSH2 0x909 CALLDATASIZE PUSH1 0x4 PUSH2 0x3E6A JUMP JUMPDEST PUSH2 0x1F17 JUMP JUMPDEST CALLVALUE DUP1 ISZERO PUSH2 0x91A JUMPI PUSH1 0x0 DUP1 REVERT JUMPDEST POP PUSH2 0x4C7 PUSH2 0x929 CALLDATASIZE PUSH1 0x4 PUSH2 0x3E0C JUMP JUMPDEST PUSH2 0x20B6 JUMP JUMPDEST CALLVALUE DUP1 ISZERO PUSH2 0x93A JUMPI PUSH1 0x0 DUP1 REVERT JUMPDEST POP PUSH2 0x499 PUSH2 0x949 CALLDATASIZE PUSH1 0x4 PUSH2 0x3E0C JUMP JUMPDEST PUSH1 0x1 PUSH1 0x1 PUSH1 0xA0 SHL SUB AND PUSH1 0x0 SWAP1 DUP2 MSTORE PUSH2 0x164 PUSH1 0x20 MSTORE PUSH1 0x40 SWAP1 KECCAK256 SLOAD SWAP1 JUMP JUMPDEST CALLVALUE DUP1 ISZERO PUSH2 0x971 JUMPI PUSH1 0x0 DUP1 REVERT JUMPDEST POP PUSH2 0x4C7 PUSH2 0x980 CALLDATASIZE PUSH1 0x4 PUSH2 0x407C JUMP JUMPDEST PUSH2 0x20E1 JUMP JUMPDEST CALLVALUE DUP1 ISZERO PUSH2 0x991 JUMPI PUSH1 0x0 DUP1 REVERT JUMPDEST POP PUSH2 0x4C7 PUSH2 0x9A0 CALLDATASIZE PUSH1 0x4 PUSH2 0x40AA JUMP JUMPDEST PUSH2 0x216F JUMP JUMPDEST CALLVALUE DUP1 ISZERO PUSH2 0x9B1 JUMPI PUSH1 0x0 DUP1 REVERT JUMPDEST POP PUSH2 0x499 PUSH2 0x9C0 CALLDATASIZE PUSH1 0x4 PUSH2 0x3E0C JUMP JUMPDEST PUSH1 0x1 PUSH1 0x1 PUSH1 0xA0 SHL SUB AND PUSH1 0x0 SWAP1 DUP2 MSTORE PUSH2 0x167 PUSH1 0x20 MSTORE PUSH1 0x40 SWAP1 KECCAK256 SLOAD SWAP1 JUMP JUMPDEST CALLVALUE DUP1 ISZERO PUSH2 0x9E8 JUMPI PUSH1 0x0 DUP1 REVERT JUMPDEST POP PUSH2 0x499 PUSH2 0x9F7 CALLDATASIZE PUSH1 0x4 PUSH2 0x3EEE JUMP JUMPDEST PUSH1 0x1 PUSH1 0x1 PUSH1 0xA0 SHL SUB SWAP2 DUP3 AND PUSH1 0x0 SWAP1 DUP2 MSTORE PUSH1 0xCA PUSH1 0x20 SWAP1 DUP2 MSTORE PUSH1 0x40 DUP1 DUP4 KECCAK256 SWAP4 SWAP1 SWAP5 AND DUP3 MSTORE SWAP2 SWAP1 SWAP2 MSTORE KECCAK256 SLOAD SWAP1 JUMP JUMPDEST CALLVALUE DUP1 ISZERO PUSH2 0xA2E JUMPI PUSH1 0x0 DUP1 REVERT JUMPDEST POP PUSH2 0xA42 PUSH2 0xA3D CALLDATASIZE PUSH1 0x4 PUSH2 0x3C93 JUMP JUMPDEST PUSH2 0x22D3 JUMP JUMPDEST PUSH1 0x40 DUP1 MLOAD PUSH1 0x1 PUSH1 0x1 PUSH1 0xA0 SHL SUB SWAP7 DUP8 AND DUP2 MSTORE PUSH1 0x20 DUP2 ADD SWAP6 SWAP1 SWAP6 MSTORE SWAP3 ISZERO ISZERO SWAP3 DUP5 ADD SWAP3 SWAP1 SWAP3 MSTORE SWAP1 SWAP3 AND PUSH1 0x60 DUP3 ADD MSTORE PUSH1 0x80 DUP2 ADD SWAP2 SWAP1 SWAP2 MSTORE PUSH1 0xA0 ADD PUSH2 0x3DC JUMP JUMPDEST CALLVALUE DUP1 ISZERO PUSH2 0xA89 JUMPI PUSH1 0x0 DUP1 REVERT JUMPDEST POP PUSH2 0x163 SLOAD PUSH2 0x499 JUMP JUMPDEST CALLVALUE DUP1 ISZERO PUSH2 0xA9F JUMPI PUSH1 0x0 DUP1 REVERT JUMPDEST POP PUSH2 0x4C7 PUSH2 0xAAE CALLDATASIZE PUSH1 0x4 PUSH2 0x3E0C JUMP JUMPDEST PUSH2 0x2333 JUMP JUMPDEST PUSH1 0x60 PUSH1 0xCC DUP1 SLOAD PUSH2 0xAC2 SWAP1 PUSH2 0x4121 JUMP JUMPDEST DUP1 PUSH1 0x1F ADD PUSH1 0x20 DUP1 SWAP2 DIV MUL PUSH1 0x20 ADD PUSH1 0x40 MLOAD SWAP1 DUP2 ADD PUSH1 0x40 MSTORE DUP1 SWAP3 SWAP2 SWAP1 DUP2 DUP2 MSTORE PUSH1 0x20 ADD DUP3 DUP1 SLOAD PUSH2 0xAEE SWAP1 PUSH2 0x4121 JUMP JUMPDEST DUP1 ISZERO PUSH2 0xB3B JUMPI DUP1 PUSH1 0x1F LT PUSH2 0xB10 JUMPI PUSH2 0x100 DUP1 DUP4 SLOAD DIV MUL DUP4 MSTORE SWAP2 PUSH1 0x20 ADD SWAP2 PUSH2 0xB3B JUMP JUMPDEST DUP3 ADD SWAP2 SWAP1 PUSH1 0x0 MSTORE PUSH1 0x20 PUSH1 0x0 KECCAK256 SWAP1 JUMPDEST DUP2 SLOAD DUP2 MSTORE SWAP1 PUSH1 0x1 ADD SWAP1 PUSH1 0x20 ADD DUP1 DUP4 GT PUSH2 0xB1E JUMPI DUP3 SWAP1 SUB PUSH1 0x1F AND DUP3 ADD SWAP2 JUMPDEST POP POP POP POP POP SWAP1 POP SWAP1 JUMP JUMPDEST PUSH1 0x0 CALLER PUSH2 0xB53 DUP2 DUP6 DUP6 PUSH2 0x23C0 JUMP JUMPDEST PUSH1 0x1 SWAP2 POP POP JUMPDEST SWAP3 SWAP2 POP POP JUMP JUMPDEST PUSH1 0x0 PUSH32 0x895C277367FF99B8C0DEC875F3149FC2C82DF592F63CA6F0747AC2095169087 DUP6 DUP6 DUP6 DUP6 PUSH1 0x40 MLOAD PUSH2 0xB96 SWAP5 SWAP4 SWAP3 SWAP2 SWAP1 PUSH2 0x4155 JUMP JUMPDEST PUSH1 0x40 MLOAD DUP1 SWAP2 SUB SWAP1 LOG1 CALLER ISZERO DUP1 ISZERO PUSH2 0xBBA JUMPI POP PUSH2 0x1C8 SLOAD PUSH1 0x1 PUSH1 0x1 PUSH1 0xA0 SHL SUB DUP7 DUP2 AND SWAP2 AND EQ JUMPDEST ISZERO PUSH2 0xD0B JUMPI PUSH2 0x1C8 SLOAD PUSH1 0x40 MLOAD PUSH32 0xDC9CE7A500000000000000000000000000000000000000000000000000000000 DUP2 MSTORE PUSH1 0x4 DUP2 ADD DUP6 SWAP1 MSTORE PUSH1 0x0 SWAP2 DUP3 SWAP2 PUSH1 0x1 PUSH1 0x1 PUSH1 0xA0 SHL SUB SWAP1 SWAP2 AND SWAP1 PUSH4 0xDC9CE7A5 SWAP1 PUSH1 0x24 ADD PUSH1 0x0 PUSH1 0x40 MLOAD DUP1 DUP4 SUB DUP2 DUP7 GAS STATICCALL ISZERO DUP1 ISZERO PUSH2 0xC27 JUMPI RETURNDATASIZE PUSH1 0x0 DUP1 RETURNDATACOPY RETURNDATASIZE PUSH1 0x0 REVERT JUMPDEST POP POP POP POP PUSH1 0x40 MLOAD RETURNDATASIZE PUSH1 0x0 DUP3 RETURNDATACOPY PUSH1 0x1F RETURNDATASIZE SWAP1 DUP2 ADD PUSH1 0x1F NOT AND DUP3 ADD PUSH1 0x40 MSTORE PUSH2 0xC4F SWAP2 SWAP1 DUP2 ADD SWAP1 PUSH2 0x420C JUMP JUMPDEST SWAP2 POP SWAP2 POP PUSH1 0x0 DUP3 PUSH2 0x120 ADD MLOAD SWAP1 POP PUSH1 0x0 PUSH2 0x1CC PUSH1 0x0 DUP4 PUSH1 0x0 DUP2 MLOAD DUP2 LT PUSH2 0xC77 JUMPI PUSH2 0xC77 PUSH2 0x432B JUMP JUMPDEST PUSH1 0x20 MUL PUSH1 0x20 ADD ADD MLOAD DUP2 MSTORE PUSH1 0x20 ADD SWAP1 DUP2 MSTORE PUSH1 0x20 ADD PUSH1 0x0 KECCAK256 PUSH1 0x0 SWAP1 SLOAD SWAP1 PUSH2 0x100 EXP SWAP1 DIV PUSH1 0x1 PUSH1 0x1 PUSH1 0xA0 SHL SUB AND SWAP1 POP PUSH1 0x0 PUSH2 0x1CC PUSH1 0x0 DUP5 PUSH1 0x1 DUP2 MLOAD DUP2 LT PUSH2 0xCBD JUMPI PUSH2 0xCBD PUSH2 0x432B JUMP JUMPDEST PUSH1 0x20 SWAP1 DUP2 MUL SWAP2 SWAP1 SWAP2 ADD DUP2 ADD MLOAD DUP3 MSTORE DUP2 DUP2 ADD SWAP3 SWAP1 SWAP3 MSTORE PUSH1 0x40 SWAP1 DUP2 ADD PUSH1 0x0 KECCAK256 SLOAD DUP2 MLOAD DUP1 DUP4 ADD SWAP1 SWAP3 MSTORE PUSH1 0x1 PUSH1 0x1 PUSH1 0xA0 SHL SUB DUP6 DUP2 AND DUP4 MSTORE AND SWAP2 DUP2 ADD DUP3 SWAP1 MSTORE SWAP1 SWAP2 POP PUSH2 0xD03 DUP2 PUSH2 0x2518 JUMP JUMPDEST POP POP POP POP POP POP POP JUMPDEST DUP2 MLOAD ISZERO PUSH2 0xD37 JUMPI PUSH1 0x0 DUP3 DUP1 PUSH1 0x20 ADD SWAP1 MLOAD DUP2 ADD SWAP1 PUSH2 0xD28 SWAP2 SWAP1 PUSH2 0x4341 JUMP JUMPDEST SWAP1 POP PUSH2 0xD35 DUP5 DUP3 DUP8 PUSH2 0x278B JUMP JUMPDEST POP JUMPDEST POP PUSH32 0x150B7A0200000000000000000000000000000000000000000000000000000000 JUMPDEST SWAP5 SWAP4 POP POP POP POP JUMP JUMPDEST PUSH1 0x1 PUSH1 0x1 PUSH1 0xA0 SHL SUB DUP2 AND PUSH1 0x0 SWAP1 DUP2 MSTORE PUSH2 0x164 PUSH1 0x20 MSTORE PUSH1 0x40 SWAP1 KECCAK256 SLOAD PUSH2 0xDDC JUMPI PUSH1 0x40 MLOAD PUSH3 0x461BCD PUSH1 0xE5 SHL DUP2 MSTORE PUSH1 0x20 PUSH1 0x4 DUP3 ADD MSTORE PUSH1 0x26 PUSH1 0x24 DUP3 ADD MSTORE PUSH32 0x5061796D656E7453706C69747465723A206163636F756E7420686173206E6F20 PUSH1 0x44 DUP3 ADD MSTORE PUSH6 0x736861726573 PUSH1 0xD0 SHL PUSH1 0x64 DUP3 ADD MSTORE PUSH1 0x84 ADD JUMPDEST PUSH1 0x40 MLOAD DUP1 SWAP2 SUB SWAP1 REVERT JUMPDEST PUSH1 0x0 PUSH2 0xDE7 DUP3 PUSH2 0x1D29 JUMP JUMPDEST SWAP1 POP DUP1 PUSH1 0x0 SUB PUSH2 0xE4D JUMPI PUSH1 0x40 MLOAD PUSH3 0x461BCD PUSH1 0xE5 SHL DUP2 MSTORE PUSH1 0x20 PUSH1 0x4 DUP3 ADD MSTORE PUSH1 0x2B PUSH1 0x24 DUP3 ADD MSTORE PUSH32 0x5061796D656E7453706C69747465723A206163636F756E74206973206E6F7420 PUSH1 0x44 DUP3 ADD MSTORE PUSH11 0x191D59481C185E5B595B9D PUSH1 0xAA SHL PUSH1 0x64 DUP3 ADD MSTORE PUSH1 0x84 ADD PUSH2 0xDD3 JUMP JUMPDEST DUP1 PUSH2 0x163 PUSH1 0x0 DUP3 DUP3 SLOAD PUSH2 0xE60 SWAP2 SWAP1 PUSH2 0x4370 JUMP JUMPDEST SWAP1 SWAP2 SSTORE POP POP PUSH1 0x1 PUSH1 0x1 PUSH1 0xA0 SHL SUB DUP3 AND PUSH1 0x0 SWAP1 DUP2 MSTORE PUSH2 0x165 PUSH1 0x20 MSTORE PUSH1 0x40 SWAP1 KECCAK256 DUP1 SLOAD DUP3 ADD SWAP1 SSTORE PUSH2 0xE8E DUP3 DUP3 PUSH2 0x28D7 JUMP JUMPDEST PUSH1 0x40 DUP1 MLOAD PUSH1 0x1 PUSH1 0x1 PUSH1 0xA0 SHL SUB DUP5 AND DUP2 MSTORE PUSH1 0x20 DUP2 ADD DUP4 SWAP1 MSTORE PUSH32 0xDF20FD1E76BC69D672E4814FAFB2C449BBA3A5369D8359ADF9E05E6FDE87B056 SWAP2 ADD PUSH1 0x40 MLOAD DUP1 SWAP2 SUB SWAP1 LOG1 POP POP JUMP JUMPDEST JUMP JUMPDEST PUSH2 0xEDE PUSH2 0x29F5 JUMP JUMPDEST PUSH2 0xED4 PUSH2 0x2A50 JUMP JUMPDEST PUSH1 0x0 CALLER PUSH2 0xEF4 DUP6 DUP3 DUP6 PUSH2 0x2AAA JUMP JUMPDEST PUSH2 0xEFF DUP6 DUP6 DUP6 PUSH2 0x2B3C JUMP JUMPDEST POP PUSH1 0x1 SWAP5 SWAP4 POP POP POP POP JUMP JUMPDEST PUSH2 0xF12 PUSH2 0x29F5 JUMP JUMPDEST PUSH1 0x40 MLOAD CALLER SWAP1 DUP2 SWAP1 SELFBALANCE DUP1 ISZERO PUSH2 0x8FC MUL SWAP2 PUSH1 0x0 DUP2 DUP2 DUP2 DUP6 DUP9 DUP9 CALL SWAP4 POP POP POP POP ISZERO DUP1 ISZERO PUSH2 0xF40 JUMPI RETURNDATASIZE PUSH1 0x0 DUP1 RETURNDATACOPY RETURNDATASIZE PUSH1 0x0 REVERT JUMPDEST POP POP JUMP JUMPDEST PUSH1 0x60 DUP3 DUP3 GT PUSH2 0xF95 JUMPI PUSH1 0x40 MLOAD PUSH3 0x461BCD PUSH1 0xE5 SHL DUP2 MSTORE PUSH1 0x20 PUSH1 0x4 DUP3 ADD MSTORE PUSH1 0xD PUSH1 0x24 DUP3 ADD MSTORE PUSH32 0x496E76616C696420696E64657800000000000000000000000000000000000000 PUSH1 0x44 DUP3 ADD MSTORE PUSH1 0x64 ADD PUSH2 0xDD3 JUMP JUMPDEST PUSH2 0x1CB SLOAD DUP3 GT ISZERO PUSH2 0xFE8 JUMPI PUSH1 0x40 MLOAD PUSH3 0x461BCD PUSH1 0xE5 SHL DUP2 MSTORE PUSH1 0x20 PUSH1 0x4 DUP3 ADD MSTORE PUSH1 0x13 PUSH1 0x24 DUP3 ADD MSTORE PUSH32 0x496E646578206F7574206F6620626F756E647300000000000000000000000000 PUSH1 0x44 DUP3 ADD MSTORE PUSH1 0x64 ADD PUSH2 0xDD3 JUMP JUMPDEST PUSH1 0x0 PUSH2 0xFF4 DUP5 DUP5 PUSH2 0x4383 JUMP JUMPDEST PUSH8 0xFFFFFFFFFFFFFFFF DUP2 GT ISZERO PUSH2 0x100C JUMPI PUSH2 0x100C PUSH2 0x3CBF JUMP JUMPDEST PUSH1 0x40 MLOAD SWAP1 DUP1 DUP3 MSTORE DUP1 PUSH1 0x20 MUL PUSH1 0x20 ADD DUP3 ADD PUSH1 0x40 MSTORE DUP1 ISZERO PUSH2 0x106A JUMPI DUP2 PUSH1 0x20 ADD JUMPDEST PUSH2 0x1057 PUSH1 0x40 MLOAD DUP1 PUSH1 0x60 ADD PUSH1 0x40 MSTORE DUP1 PUSH1 0x0 DUP2 MSTORE PUSH1 0x20 ADD PUSH1 0x0 DUP2 MSTORE PUSH1 0x20 ADD PUSH1 0x0 PUSH1 0x1 PUSH1 0x1 PUSH1 0xA0 SHL SUB AND DUP2 MSTORE POP SWAP1 JUMP JUMPDEST DUP2 MSTORE PUSH1 0x20 ADD SWAP1 PUSH1 0x1 SWAP1 SUB SWAP1 DUP2 PUSH2 0x102A JUMPI SWAP1 POP JUMPDEST POP SWAP1 POP DUP4 JUMPDEST DUP4 DUP2 LT ISZERO PUSH2 0x10FC JUMPI PUSH2 0x1CB DUP2 DUP2 SLOAD DUP2 LT PUSH2 0x108B JUMPI PUSH2 0x108B PUSH2 0x432B JUMP JUMPDEST PUSH1 0x0 SWAP2 DUP3 MSTORE PUSH1 0x20 SWAP2 DUP3 SWAP1 KECCAK256 PUSH1 0x40 DUP1 MLOAD PUSH1 0x60 DUP2 ADD DUP3 MSTORE PUSH1 0x3 SWAP1 SWAP4 MUL SWAP1 SWAP2 ADD DUP1 SLOAD DUP4 MSTORE PUSH1 0x1 DUP2 ADD SLOAD SWAP4 DUP4 ADD SWAP4 SWAP1 SWAP4 MSTORE PUSH1 0x2 SWAP1 SWAP3 ADD SLOAD PUSH1 0x1 PUSH1 0x1 PUSH1 0xA0 SHL SUB AND SWAP2 DUP2 ADD SWAP2 SWAP1 SWAP2 MSTORE DUP3 PUSH2 0x10D9 DUP8 DUP5 PUSH2 0x4383 JUMP JUMPDEST DUP2 MLOAD DUP2 LT PUSH2 0x10E9 JUMPI PUSH2 0x10E9 PUSH2 0x432B JUMP JUMPDEST PUSH1 0x20 SWAP1 DUP2 MUL SWAP2 SWAP1 SWAP2 ADD ADD MSTORE PUSH1 0x1 ADD PUSH2 0x106F JUMP JUMPDEST POP SWAP4 SWAP3 POP POP POP JUMP JUMPDEST PUSH1 0x0 PUSH2 0x110E PUSH2 0x2D30 JUMP JUMPDEST SWAP1 POP SWAP1 JUMP JUMPDEST PUSH1 0x1 PUSH1 0x1 PUSH1 0xA0 SHL SUB PUSH32 0x0 AND ADDRESS SUB PUSH2 0x11A0 JUMPI PUSH1 0x40 MLOAD PUSH3 0x461BCD PUSH1 0xE5 SHL DUP2 MSTORE PUSH1 0x20 PUSH1 0x4 DUP3 ADD MSTORE PUSH1 0x2C PUSH1 0x24 DUP3 ADD MSTORE PUSH32 0x46756E6374696F6E206D7573742062652063616C6C6564207468726F75676820 PUSH1 0x44 DUP3 ADD MSTORE PUSH12 0x19195B1959D85D1958D85B1B PUSH1 0xA2 SHL PUSH1 0x64 DUP3 ADD MSTORE PUSH1 0x84 ADD PUSH2 0xDD3 JUMP JUMPDEST PUSH32 0x0 PUSH1 0x1 PUSH1 0x1 PUSH1 0xA0 SHL SUB AND PUSH2 0x11FB PUSH32 0x360894A13BA1A3210667C828492DB98DCA3E2076CC3735A920A3CA505D382BBC SLOAD PUSH1 0x1 PUSH1 0x1 PUSH1 0xA0 SHL SUB AND SWAP1 JUMP JUMPDEST PUSH1 0x1 PUSH1 0x1 PUSH1 0xA0 SHL SUB AND EQ PUSH2 0x1266 JUMPI PUSH1 0x40 MLOAD PUSH3 0x461BCD PUSH1 0xE5 SHL DUP2 MSTORE PUSH1 0x20 PUSH1 0x4 DUP3 ADD MSTORE PUSH1 0x2C PUSH1 0x24 DUP3 ADD MSTORE PUSH32 0x46756E6374696F6E206D7573742062652063616C6C6564207468726F75676820 PUSH1 0x44 DUP3 ADD MSTORE PUSH12 0x6163746976652070726F7879 PUSH1 0xA0 SHL PUSH1 0x64 DUP3 ADD MSTORE PUSH1 0x84 ADD PUSH2 0xDD3 JUMP JUMPDEST PUSH2 0x126F DUP2 PUSH2 0x2D3A JUMP JUMPDEST PUSH1 0x40 DUP1 MLOAD PUSH1 0x0 DUP1 DUP3 MSTORE PUSH1 0x20 DUP3 ADD SWAP1 SWAP3 MSTORE PUSH2 0x128B SWAP2 DUP4 SWAP2 SWAP1 PUSH2 0x2D42 JUMP JUMPDEST POP JUMP JUMPDEST CALLER PUSH1 0x0 DUP2 DUP2 MSTORE PUSH1 0xCA PUSH1 0x20 SWAP1 DUP2 MSTORE PUSH1 0x40 DUP1 DUP4 KECCAK256 PUSH1 0x1 PUSH1 0x1 PUSH1 0xA0 SHL SUB DUP8 AND DUP5 MSTORE SWAP1 SWAP2 MSTORE DUP2 KECCAK256 SLOAD SWAP1 SWAP2 SWAP1 PUSH2 0xB53 SWAP1 DUP3 SWAP1 DUP7 SWAP1 PUSH2 0x12C8 SWAP1 DUP8 SWAP1 PUSH2 0x4370 JUMP JUMPDEST PUSH2 0x23C0 JUMP JUMPDEST PUSH2 0x12D5 PUSH2 0x29F5 JUMP JUMPDEST PUSH2 0xED4 PUSH2 0x2EE2 JUMP JUMPDEST PUSH1 0x1 PUSH1 0x1 PUSH1 0xA0 SHL SUB DUP2 AND PUSH1 0x0 SWAP1 DUP2 MSTORE PUSH2 0x164 PUSH1 0x20 MSTORE PUSH1 0x40 SWAP1 KECCAK256 SLOAD PUSH2 0x1352 JUMPI PUSH1 0x40 MLOAD PUSH3 0x461BCD PUSH1 0xE5 SHL DUP2 MSTORE PUSH1 0x20 PUSH1 0x4 DUP3 ADD MSTORE PUSH1 0x26 PUSH1 0x24 DUP3 ADD MSTORE PUSH32 0x5061796D656E7453706C69747465723A206163636F756E7420686173206E6F20 PUSH1 0x44 DUP3 ADD MSTORE PUSH6 0x736861726573 PUSH1 0xD0 SHL PUSH1 0x64 DUP3 ADD MSTORE PUSH1 0x84 ADD PUSH2 0xDD3 JUMP JUMPDEST PUSH1 0x0 PUSH2 0x135E DUP4 DUP4 PUSH2 0x1E2B JUMP JUMPDEST SWAP1 POP DUP1 PUSH1 0x0 SUB PUSH2 0x13C4 JUMPI PUSH1 0x40 MLOAD PUSH3 0x461BCD PUSH1 0xE5 SHL DUP2 MSTORE PUSH1 0x20 PUSH1 0x4 DUP3 ADD MSTORE PUSH1 0x2B PUSH1 0x24 DUP3 ADD MSTORE PUSH32 0x5061796D656E7453706C69747465723A206163636F756E74206973206E6F7420 PUSH1 0x44 DUP3 ADD MSTORE PUSH11 0x191D59481C185E5B595B9D PUSH1 0xAA SHL PUSH1 0x64 DUP3 ADD MSTORE PUSH1 0x84 ADD PUSH2 0xDD3 JUMP JUMPDEST PUSH1 0x1 PUSH1 0x1 PUSH1 0xA0 SHL SUB DUP4 AND PUSH1 0x0 SWAP1 DUP2 MSTORE PUSH2 0x167 PUSH1 0x20 MSTORE PUSH1 0x40 DUP2 KECCAK256 DUP1 SLOAD DUP4 SWAP3 SWAP1 PUSH2 0x13ED SWAP1 DUP5 SWAP1 PUSH2 0x4370 JUMP JUMPDEST SWAP1 SWAP2 SSTORE POP POP PUSH1 0x1 PUSH1 0x1 PUSH1 0xA0 SHL SUB DUP1 DUP5 AND PUSH1 0x0 SWAP1 DUP2 MSTORE PUSH2 0x168 PUSH1 0x20 SWAP1 DUP2 MSTORE PUSH1 0x40 DUP1 DUP4 KECCAK256 SWAP4 DUP7 AND DUP4 MSTORE SWAP3 SWAP1 MSTORE KECCAK256 DUP1 SLOAD DUP3 ADD SWAP1 SSTORE PUSH2 0x1429 DUP4 DUP4 DUP4 PUSH2 0x2F1B JUMP JUMPDEST PUSH1 0x40 DUP1 MLOAD PUSH1 0x1 PUSH1 0x1 PUSH1 0xA0 SHL SUB DUP5 DUP2 AND DUP3 MSTORE PUSH1 0x20 DUP3 ADD DUP5 SWAP1 MSTORE DUP6 AND SWAP2 PUSH32 0x3BE5B7A71E84ED12875D241991C70855AC5817D847039E17A9D895C1CEB0F18A SWAP2 ADD PUSH1 0x40 MLOAD DUP1 SWAP2 SUB SWAP1 LOG2 POP POP POP JUMP JUMPDEST PUSH2 0x147C PUSH2 0x29F5 JUMP JUMPDEST PUSH2 0x1C9 SWAP2 SWAP1 SWAP2 SSTORE PUSH2 0x1C6 DUP1 SLOAD PUSH1 0x1 PUSH1 0x1 PUSH1 0xA0 SHL SUB SWAP4 DUP5 AND PUSH1 0x1 PUSH1 0x1 PUSH1 0xA0 SHL SUB NOT SWAP2 DUP3 AND OR SWAP1 SWAP2 SSTORE PUSH2 0x1C8 DUP1 SLOAD SWAP3 SWAP1 SWAP4 AND SWAP2 AND OR SWAP1 SSTORE JUMP JUMPDEST PUSH1 0x1 PUSH1 0x1 PUSH1 0xA0 SHL SUB PUSH32 0x0 AND ADDRESS SUB PUSH2 0x1540 JUMPI PUSH1 0x40 MLOAD PUSH3 0x461BCD PUSH1 0xE5 SHL DUP2 MSTORE PUSH1 0x20 PUSH1 0x4 DUP3 ADD MSTORE PUSH1 0x2C PUSH1 0x24 DUP3 ADD MSTORE PUSH32 0x46756E6374696F6E206D7573742062652063616C6C6564207468726F75676820 PUSH1 0x44 DUP3 ADD MSTORE PUSH12 0x19195B1959D85D1958D85B1B PUSH1 0xA2 SHL PUSH1 0x64 DUP3 ADD MSTORE PUSH1 0x84 ADD PUSH2 0xDD3 JUMP JUMPDEST PUSH32 0x0 PUSH1 0x1 PUSH1 0x1 PUSH1 0xA0 SHL SUB AND PUSH2 0x159B PUSH32 0x360894A13BA1A3210667C828492DB98DCA3E2076CC3735A920A3CA505D382BBC SLOAD PUSH1 0x1 PUSH1 0x1 PUSH1 0xA0 SHL SUB AND SWAP1 JUMP JUMPDEST PUSH1 0x1 PUSH1 0x1 PUSH1 0xA0 SHL SUB AND EQ PUSH2 0x1606 JUMPI PUSH1 0x40 MLOAD PUSH3 0x461BCD PUSH1 0xE5 SHL DUP2 MSTORE PUSH1 0x20 PUSH1 0x4 DUP3 ADD MSTORE PUSH1 0x2C PUSH1 0x24 DUP3 ADD MSTORE PUSH32 0x46756E6374696F6E206D7573742062652063616C6C6564207468726F75676820 PUSH1 0x44 DUP3 ADD MSTORE PUSH12 0x6163746976652070726F7879 PUSH1 0xA0 SHL PUSH1 0x64 DUP3 ADD MSTORE PUSH1 0x84 ADD PUSH2 0xDD3 JUMP JUMPDEST PUSH2 0x160F DUP3 PUSH2 0x2D3A JUMP JUMPDEST PUSH2 0xF40 DUP3 DUP3 PUSH1 0x1 PUSH2 0x2D42 JUMP JUMPDEST PUSH1 0x0 ADDRESS PUSH1 0x1 PUSH1 0x1 PUSH1 0xA0 SHL SUB PUSH32 0x0 AND EQ PUSH2 0x16BB JUMPI PUSH1 0x40 MLOAD PUSH3 0x461BCD PUSH1 0xE5 SHL DUP2 MSTORE PUSH1 0x20 PUSH1 0x4 DUP3 ADD MSTORE PUSH1 0x38 PUSH1 0x24 DUP3 ADD MSTORE PUSH32 0x555550535570677261646561626C653A206D757374206E6F742062652063616C PUSH1 0x44 DUP3 ADD MSTORE PUSH32 0x6C6564207468726F7567682064656C656761746563616C6C0000000000000000 PUSH1 0x64 DUP3 ADD MSTORE PUSH1 0x84 ADD PUSH2 0xDD3 JUMP JUMPDEST POP PUSH32 0x360894A13BA1A3210667C828492DB98DCA3E2076CC3735A920A3CA505D382BBC SWAP1 JUMP JUMPDEST PUSH1 0x60 PUSH2 0x1CB DUP1 SLOAD DUP1 PUSH1 0x20 MUL PUSH1 0x20 ADD PUSH1 0x40 MLOAD SWAP1 DUP2 ADD PUSH1 0x40 MSTORE DUP1 SWAP3 SWAP2 SWAP1 DUP2 DUP2 MSTORE PUSH1 0x20 ADD PUSH1 0x0 SWAP1 JUMPDEST DUP3 DUP3 LT ISZERO PUSH2 0x175A JUMPI PUSH1 0x0 DUP5 DUP2 MSTORE PUSH1 0x20 SWAP1 DUP2 SWAP1 KECCAK256 PUSH1 0x40 DUP1 MLOAD PUSH1 0x60 DUP2 ADD DUP3 MSTORE PUSH1 0x3 DUP7 MUL SWAP1 SWAP3 ADD DUP1 SLOAD DUP4 MSTORE PUSH1 0x1 DUP1 DUP3 ADD SLOAD DUP5 DUP7 ADD MSTORE PUSH1 0x2 SWAP1 SWAP2 ADD SLOAD PUSH1 0x1 PUSH1 0x1 PUSH1 0xA0 SHL SUB AND SWAP2 DUP4 ADD SWAP2 SWAP1 SWAP2 MSTORE SWAP1 DUP4 MSTORE SWAP1 SWAP3 ADD SWAP2 ADD PUSH2 0x1705 JUMP JUMPDEST POP POP POP POP SWAP1 POP SWAP1 JUMP JUMPDEST PUSH2 0x176B PUSH2 0x29F5 JUMP JUMPDEST PUSH2 0xED4 PUSH1 0x0 PUSH2 0x2F9B JUMP JUMPDEST PUSH1 0x1 PUSH1 0x1 PUSH1 0xA0 SHL SUB DUP2 AND PUSH1 0x0 SWAP1 DUP2 MSTORE PUSH2 0x12F PUSH1 0x20 MSTORE PUSH1 0x40 DUP2 KECCAK256 SLOAD PUSH2 0xB59 JUMP JUMPDEST PUSH1 0x0 SLOAD PUSH2 0x100 SWAP1 DIV PUSH1 0xFF AND ISZERO DUP1 DUP1 ISZERO PUSH2 0x17B4 JUMPI POP PUSH1 0x0 SLOAD PUSH1 0x1 PUSH1 0xFF SWAP1 SWAP2 AND LT JUMPDEST DUP1 PUSH2 0x17CE JUMPI POP ADDRESS EXTCODESIZE ISZERO DUP1 ISZERO PUSH2 0x17CE JUMPI POP PUSH1 0x0 SLOAD PUSH1 0xFF AND PUSH1 0x1 EQ JUMPDEST PUSH2 0x1840 JUMPI PUSH1 0x40 MLOAD PUSH3 0x461BCD PUSH1 0xE5 SHL DUP2 MSTORE PUSH1 0x20 PUSH1 0x4 DUP3 ADD MSTORE PUSH1 0x2E PUSH1 0x24 DUP3 ADD MSTORE PUSH32 0x496E697469616C697A61626C653A20636F6E747261637420697320616C726561 PUSH1 0x44 DUP3 ADD MSTORE PUSH32 0x647920696E697469616C697A6564000000000000000000000000000000000000 PUSH1 0x64 DUP3 ADD MSTORE PUSH1 0x84 ADD PUSH2 0xDD3 JUMP JUMPDEST PUSH1 0x0 DUP1 SLOAD PUSH1 0xFF NOT AND PUSH1 0x1 OR SWAP1 SSTORE DUP1 ISZERO PUSH2 0x1863 JUMPI PUSH1 0x0 DUP1 SLOAD PUSH2 0xFF00 NOT AND PUSH2 0x100 OR SWAP1 SSTORE JUMPDEST PUSH2 0x186B PUSH2 0x2FEE JUMP JUMPDEST PUSH2 0x1873 PUSH2 0x3061 JUMP JUMPDEST PUSH2 0x187B PUSH2 0x30D4 JUMP JUMPDEST DUP1 ISZERO PUSH2 0x128B JUMPI PUSH1 0x0 DUP1 SLOAD PUSH2 0xFF00 NOT AND SWAP1 SSTORE PUSH1 0x40 MLOAD PUSH1 0x1 DUP2 MSTORE PUSH32 0x7F26B83FF96E1F2B6A682F133852F6798A09C465DA95921460CEFB3847402498 SWAP1 PUSH1 0x20 ADD PUSH1 0x40 MLOAD DUP1 SWAP2 SUB SWAP1 LOG1 POP JUMP JUMPDEST DUP1 PUSH1 0x0 DUP1 DUP1 PUSH2 0x18D1 DUP5 PUSH2 0x313F JUMP JUMPDEST SWAP1 POP DUP1 PUSH2 0x1C9 SLOAD PUSH2 0x18E2 SWAP2 SWAP1 PUSH2 0x4370 JUMP JUMPDEST CALLVALUE LT ISZERO PUSH2 0x18EE JUMPI PUSH1 0x0 DUP1 REVERT JUMPDEST PUSH1 0x0 DUP1 JUMPDEST PUSH2 0x1CB SLOAD DUP2 LT ISZERO PUSH2 0x1969 JUMPI DUP7 PUSH2 0x1CB DUP3 DUP2 SLOAD DUP2 LT PUSH2 0x1912 JUMPI PUSH2 0x1912 PUSH2 0x432B JUMP JUMPDEST SWAP1 PUSH1 0x0 MSTORE PUSH1 0x20 PUSH1 0x0 KECCAK256 SWAP1 PUSH1 0x3 MUL ADD PUSH1 0x0 ADD SLOAD SUB PUSH2 0x1961 JUMPI PUSH2 0x1CB DUP2 DUP2 SLOAD DUP2 LT PUSH2 0x193D JUMPI PUSH2 0x193D PUSH2 0x432B JUMP JUMPDEST PUSH1 0x0 SWAP2 DUP3 MSTORE PUSH1 0x20 SWAP1 SWAP2 KECCAK256 PUSH1 0x2 PUSH1 0x3 SWAP1 SWAP3 MUL ADD ADD SLOAD PUSH1 0x1 PUSH1 0x1 PUSH1 0xA0 SHL SUB AND SWAP2 POP PUSH2 0x1969 JUMP JUMPDEST PUSH1 0x1 ADD PUSH2 0x18F2 JUMP JUMPDEST POP PUSH1 0x40 MLOAD PUSH1 0xB SWAP1 PUSH1 0x0 SWAP1 DUP2 SWAP1 PUSH1 0x1 PUSH1 0x1 PUSH1 0xA0 SHL SUB DUP6 AND SWAP1 DUP5 SWAP1 DUP4 DUP2 DUP2 DUP2 DUP6 DUP8 GAS CALL SWAP3 POP POP POP RETURNDATASIZE DUP1 PUSH1 0x0 DUP2 EQ PUSH2 0x19BA JUMPI PUSH1 0x40 MLOAD SWAP2 POP PUSH1 0x1F NOT PUSH1 0x3F RETURNDATASIZE ADD AND DUP3 ADD PUSH1 0x40 MSTORE RETURNDATASIZE DUP3 MSTORE RETURNDATASIZE PUSH1 0x0 PUSH1 0x20 DUP5 ADD RETURNDATACOPY PUSH2 0x19BF JUMP JUMPDEST PUSH1 0x60 SWAP2 POP JUMPDEST POP SWAP2 POP SWAP2 POP DUP2 PUSH2 0x1A11 JUMPI PUSH1 0x40 MLOAD PUSH3 0x461BCD PUSH1 0xE5 SHL DUP2 MSTORE PUSH1 0x20 PUSH1 0x4 DUP3 ADD MSTORE PUSH1 0x14 PUSH1 0x24 DUP3 ADD MSTORE PUSH32 0x4661696C656420746F2073656E64204574686572000000000000000000000000 PUSH1 0x44 DUP3 ADD MSTORE PUSH1 0x64 ADD PUSH2 0xDD3 JUMP JUMPDEST PUSH2 0x1C6 SLOAD PUSH1 0x40 MLOAD PUSH32 0xBF0E57A300000000000000000000000000000000000000000000000000000000 DUP2 MSTORE PUSH1 0x4 DUP2 ADD DUP13 SWAP1 MSTORE PUSH1 0x24 DUP2 ADD DUP12 SWAP1 MSTORE PUSH1 0x0 PUSH1 0x44 DUP3 ADD MSTORE CALLVALUE PUSH1 0x64 DUP3 ADD MSTORE PUSH1 0x1 PUSH1 0x1 PUSH1 0xA0 SHL SUB SWAP1 SWAP2 AND SWAP1 PUSH4 0xBF0E57A3 SWAP1 PUSH1 0x84 ADD PUSH1 0x20 PUSH1 0x40 MLOAD DUP1 DUP4 SUB DUP2 PUSH1 0x0 DUP8 GAS CALL ISZERO DUP1 ISZERO PUSH2 0x1A8A JUMPI RETURNDATASIZE PUSH1 0x0 DUP1 RETURNDATACOPY RETURNDATASIZE PUSH1 0x0 REVERT JUMPDEST POP POP POP POP PUSH1 0x40 MLOAD RETURNDATASIZE PUSH1 0x1F NOT PUSH1 0x1F DUP3 ADD AND DUP3 ADD DUP1 PUSH1 0x40 MSTORE POP DUP2 ADD SWAP1 PUSH2 0x1AAE SWAP2 SWAP1 PUSH2 0x4341 JUMP JUMPDEST POP DUP3 PUSH2 0x1C9 SLOAD PUSH2 0x1ABE SWAP2 SWAP1 PUSH2 0x4370 JUMP JUMPDEST CALLVALUE GT ISZERO PUSH2 0x1B7F JUMPI PUSH1 0x0 CALLER PUSH1 0x1 PUSH1 0x1 PUSH1 0xA0 SHL SUB AND DUP5 PUSH2 0x1C9 SLOAD CALLVALUE PUSH2 0x1AE1 SWAP2 SWAP1 PUSH2 0x4383 JUMP JUMPDEST PUSH2 0x1AEB SWAP2 SWAP1 PUSH2 0x4383 JUMP JUMPDEST PUSH1 0x40 MLOAD PUSH1 0x0 DUP2 DUP2 DUP2 DUP6 DUP8 GAS CALL SWAP3 POP POP POP RETURNDATASIZE DUP1 PUSH1 0x0 DUP2 EQ PUSH2 0x1B27 JUMPI PUSH1 0x40 MLOAD SWAP2 POP PUSH1 0x1F NOT PUSH1 0x3F RETURNDATASIZE ADD AND DUP3 ADD PUSH1 0x40 MSTORE RETURNDATASIZE DUP3 MSTORE RETURNDATASIZE PUSH1 0x0 PUSH1 0x20 DUP5 ADD RETURNDATACOPY PUSH2 0x1B2C JUMP JUMPDEST PUSH1 0x60 SWAP2 POP JUMPDEST POP POP SWAP1 POP DUP1 PUSH2 0x1B7D JUMPI PUSH1 0x40 MLOAD PUSH3 0x461BCD PUSH1 0xE5 SHL DUP2 MSTORE PUSH1 0x20 PUSH1 0x4 DUP3 ADD MSTORE PUSH1 0x1D PUSH1 0x24 DUP3 ADD MSTORE PUSH32 0x4661696C656420746F20726566756E6420657863657373204574686572000000 PUSH1 0x44 DUP3 ADD MSTORE PUSH1 0x64 ADD PUSH2 0xDD3 JUMP JUMPDEST POP JUMPDEST PUSH1 0x40 DUP1 MLOAD DUP12 DUP2 MSTORE PUSH1 0x1 PUSH1 0x1 PUSH1 0xA0 SHL SUB DUP10 DUP2 AND PUSH1 0x20 DUP4 ADD MSTORE DUP2 DUP4 ADD DUP13 SWAP1 MSTORE DUP9 AND PUSH1 0x60 DUP3 ADD MSTORE SWAP1 MLOAD PUSH32 0x8557DF6951FBDD47FE9027516FC896BE40F285ED55A6ACAC460352ADBAB730CD SWAP2 DUP2 SWAP1 SUB PUSH1 0x80 ADD SWAP1 LOG1 POP POP POP POP POP POP POP POP POP POP JUMP JUMPDEST PUSH1 0x0 PUSH1 0x60 DUP1 PUSH1 0x0 DUP1 PUSH1 0x0 PUSH1 0x60 PUSH1 0xFB SLOAD PUSH1 0x0 DUP1 SHL EQ DUP1 ISZERO PUSH2 0x1BFB JUMPI POP PUSH1 0xFC SLOAD ISZERO JUMPDEST PUSH2 0x1C47 JUMPI PUSH1 0x40 MLOAD PUSH3 0x461BCD PUSH1 0xE5 SHL DUP2 MSTORE PUSH1 0x20 PUSH1 0x4 DUP3 ADD MSTORE PUSH1 0x15 PUSH1 0x24 DUP3 ADD MSTORE PUSH32 0x4549503731323A20556E696E697469616C697A65640000000000000000000000 PUSH1 0x44 DUP3 ADD MSTORE PUSH1 0x64 ADD PUSH2 0xDD3 JUMP JUMPDEST PUSH2 0x1C4F PUSH2 0x31B6 JUMP JUMPDEST PUSH2 0x1C57 PUSH2 0x31C5 JUMP JUMPDEST PUSH1 0x40 DUP1 MLOAD PUSH1 0x0 DUP1 DUP3 MSTORE PUSH1 0x20 DUP3 ADD SWAP1 SWAP3 MSTORE PUSH32 0xF00000000000000000000000000000000000000000000000000000000000000 SWAP12 SWAP4 SWAP11 POP SWAP2 SWAP9 POP CHAINID SWAP8 POP ADDRESS SWAP7 POP SWAP5 POP SWAP3 POP SWAP1 POP JUMP JUMPDEST PUSH2 0x1CA PUSH1 0x20 MSTORE DUP2 PUSH1 0x0 MSTORE PUSH1 0x40 PUSH1 0x0 KECCAK256 DUP2 DUP2 SLOAD DUP2 LT PUSH2 0x1CBA JUMPI PUSH1 0x0 DUP1 REVERT JUMPDEST PUSH1 0x0 SWAP2 DUP3 MSTORE PUSH1 0x20 SWAP1 SWAP2 KECCAK256 PUSH1 0x3 SWAP1 SWAP2 MUL ADD DUP1 SLOAD PUSH1 0x1 DUP3 ADD SLOAD PUSH1 0x2 SWAP1 SWAP3 ADD SLOAD SWAP1 SWAP4 POP SWAP1 SWAP2 POP PUSH1 0x1 PUSH1 0x1 PUSH1 0xA0 SHL SUB AND DUP4 JUMP JUMPDEST PUSH1 0x0 PUSH2 0x166 DUP3 DUP2 SLOAD DUP2 LT PUSH2 0x1CFF JUMPI PUSH2 0x1CFF PUSH2 0x432B JUMP JUMPDEST PUSH1 0x0 SWAP2 DUP3 MSTORE PUSH1 0x20 SWAP1 SWAP2 KECCAK256 ADD SLOAD PUSH1 0x1 PUSH1 0x1 PUSH1 0xA0 SHL SUB AND SWAP3 SWAP2 POP POP JUMP JUMPDEST PUSH1 0x60 PUSH1 0xCD DUP1 SLOAD PUSH2 0xAC2 SWAP1 PUSH2 0x4121 JUMP JUMPDEST PUSH1 0x0 DUP1 PUSH2 0x1D36 PUSH2 0x163 SLOAD SWAP1 JUMP JUMPDEST PUSH2 0x1D40 SWAP1 SELFBALANCE PUSH2 0x4370 JUMP JUMPDEST SWAP1 POP PUSH2 0x1D6C DUP4 DUP3 PUSH2 0x1D67 DUP7 PUSH1 0x1 PUSH1 0x1 PUSH1 0xA0 SHL SUB AND PUSH1 0x0 SWAP1 DUP2 MSTORE PUSH2 0x165 PUSH1 0x20 MSTORE PUSH1 0x40 SWAP1 KECCAK256 SLOAD SWAP1 JUMP JUMPDEST PUSH2 0x31D4 JUMP JUMPDEST SWAP4 SWAP3 POP POP POP JUMP JUMPDEST CALLER PUSH1 0x0 DUP2 DUP2 MSTORE PUSH1 0xCA PUSH1 0x20 SWAP1 DUP2 MSTORE PUSH1 0x40 DUP1 DUP4 KECCAK256 PUSH1 0x1 PUSH1 0x1 PUSH1 0xA0 SHL SUB DUP8 AND DUP5 MSTORE SWAP1 SWAP2 MSTORE DUP2 KECCAK256 SLOAD SWAP1 SWAP2 SWAP1 DUP4 DUP2 LT ISZERO PUSH2 0x1E10 JUMPI PUSH1 0x40 MLOAD PUSH3 0x461BCD PUSH1 0xE5 SHL DUP2 MSTORE PUSH1 0x20 PUSH1 0x4 DUP3 ADD MSTORE PUSH1 0x25 PUSH1 0x24 DUP3 ADD MSTORE PUSH32 0x45524332303A2064656372656173656420616C6C6F77616E63652062656C6F77 PUSH1 0x44 DUP3 ADD MSTORE PUSH32 0x207A65726F000000000000000000000000000000000000000000000000000000 PUSH1 0x64 DUP3 ADD MSTORE PUSH1 0x84 ADD PUSH2 0xDD3 JUMP JUMPDEST PUSH2 0xEFF DUP3 DUP7 DUP7 DUP5 SUB PUSH2 0x23C0 JUMP JUMPDEST PUSH1 0x0 CALLER PUSH2 0xB53 DUP2 DUP6 DUP6 PUSH2 0x2B3C JUMP JUMPDEST PUSH1 0x1 PUSH1 0x1 PUSH1 0xA0 SHL SUB DUP3 AND PUSH1 0x0 SWAP1 DUP2 MSTORE PUSH2 0x167 PUSH1 0x20 MSTORE PUSH1 0x40 DUP2 KECCAK256 SLOAD DUP2 SWAP1 PUSH1 0x40 MLOAD PUSH32 0x70A0823100000000000000000000000000000000000000000000000000000000 DUP2 MSTORE ADDRESS PUSH1 0x4 DUP3 ADD MSTORE PUSH1 0x1 PUSH1 0x1 PUSH1 0xA0 SHL SUB DUP7 AND SWAP1 PUSH4 0x70A08231 SWAP1 PUSH1 0x24 ADD PUSH1 0x20 PUSH1 0x40 MLOAD DUP1 DUP4 SUB DUP2 DUP7 GAS STATICCALL ISZERO DUP1 ISZERO PUSH2 0x1EA4 JUMPI RETURNDATASIZE PUSH1 0x0 DUP1 RETURNDATACOPY RETURNDATASIZE PUSH1 0x0 REVERT JUMPDEST POP POP POP POP PUSH1 0x40 MLOAD RETURNDATASIZE PUSH1 0x1F NOT PUSH1 0x1F DUP3 ADD AND DUP3 ADD DUP1 PUSH1 0x40 MSTORE POP DUP2 ADD SWAP1 PUSH2 0x1EC8 SWAP2 SWAP1 PUSH2 0x4341 JUMP JUMPDEST PUSH2 0x1ED2 SWAP2 SWAP1 PUSH2 0x4370 JUMP JUMPDEST PUSH1 0x1 PUSH1 0x1 PUSH1 0xA0 SHL SUB DUP1 DUP7 AND PUSH1 0x0 SWAP1 DUP2 MSTORE PUSH2 0x168 PUSH1 0x20 SWAP1 DUP2 MSTORE PUSH1 0x40 DUP1 DUP4 KECCAK256 SWAP4 DUP9 AND DUP4 MSTORE SWAP3 SWAP1 MSTORE KECCAK256 SLOAD SWAP1 SWAP2 POP PUSH2 0xD5A SWAP1 DUP5 SWAP1 DUP4 SWAP1 PUSH2 0x31D4 JUMP JUMPDEST PUSH2 0x1F11 PUSH2 0x29F5 JUMP JUMPDEST PUSH2 0x1C9 SSTORE JUMP JUMPDEST PUSH2 0x1CB SLOAD DUP3 LT PUSH2 0x1F69 JUMPI PUSH1 0x40 MLOAD PUSH3 0x461BCD PUSH1 0xE5 SHL DUP2 MSTORE PUSH1 0x20 PUSH1 0x4 DUP3 ADD MSTORE PUSH1 0x13 PUSH1 0x24 DUP3 ADD MSTORE PUSH32 0x496E646578206F7574206F6620626F756E647300000000000000000000000000 PUSH1 0x44 DUP3 ADD MSTORE PUSH1 0x64 ADD PUSH2 0xDD3 JUMP JUMPDEST PUSH1 0x0 CALLER SWAP1 POP PUSH1 0x0 PUSH2 0x1CB DUP5 DUP2 SLOAD DUP2 LT PUSH2 0x1F84 JUMPI PUSH2 0x1F84 PUSH2 0x432B JUMP JUMPDEST PUSH1 0x0 SWAP2 DUP3 MSTORE PUSH1 0x20 SWAP2 DUP3 SWAP1 KECCAK256 PUSH1 0x40 DUP1 MLOAD PUSH1 0x60 DUP2 ADD DUP3 MSTORE PUSH1 0x3 SWAP1 SWAP4 MUL SWAP1 SWAP2 ADD DUP1 SLOAD DUP4 MSTORE PUSH1 0x1 DUP2 ADD SLOAD SWAP4 DUP4 ADD SWAP4 SWAP1 SWAP4 MSTORE PUSH1 0x2 SWAP1 SWAP3 ADD SLOAD PUSH1 0x1 PUSH1 0x1 PUSH1 0xA0 SHL SUB AND SWAP2 DUP2 ADD DUP3 SWAP1 MSTORE SWAP2 POP CALLER EQ PUSH2 0x1FD3 JUMPI PUSH1 0x0 DUP1 REVERT JUMPDEST PUSH1 0x40 MLOAD DUP1 PUSH1 0x60 ADD PUSH1 0x40 MSTORE DUP1 PUSH1 0x0 DUP2 MSTORE PUSH1 0x20 ADD PUSH1 0x0 DUP2 MSTORE PUSH1 0x20 ADD PUSH1 0x0 PUSH1 0x1 PUSH1 0x1 PUSH1 0xA0 SHL SUB AND DUP2 MSTORE POP PUSH2 0x1CB DUP6 DUP2 SLOAD DUP2 LT PUSH2 0x200E JUMPI PUSH2 0x200E PUSH2 0x432B JUMP JUMPDEST PUSH1 0x0 SWAP2 DUP3 MSTORE PUSH1 0x20 SWAP2 DUP3 SWAP1 KECCAK256 DUP4 MLOAD PUSH1 0x3 SWAP3 SWAP1 SWAP3 MUL ADD SWAP1 DUP2 SSTORE SWAP1 DUP3 ADD MLOAD PUSH1 0x1 DUP3 ADD SSTORE PUSH1 0x40 SWAP1 SWAP2 ADD MLOAD PUSH1 0x2 SWAP1 SWAP2 ADD DUP1 SLOAD PUSH1 0x1 PUSH1 0x1 PUSH1 0xA0 SHL SUB NOT AND PUSH1 0x1 PUSH1 0x1 PUSH1 0xA0 SHL SUB SWAP1 SWAP3 AND SWAP2 SWAP1 SWAP2 OR SWAP1 SSTORE PUSH2 0x2060 DUP4 DUP4 PUSH2 0x3214 JUMP JUMPDEST PUSH2 0x1C8 SLOAD DUP2 MLOAD PUSH1 0x40 DUP1 MLOAD PUSH1 0x1 PUSH1 0x1 PUSH1 0xA0 SHL SUB DUP1 DUP8 AND DUP3 MSTORE SWAP1 SWAP4 AND PUSH1 0x20 DUP5 ADD MSTORE DUP3 ADD MSTORE PUSH32 0xECE05E698E9E143FB75B2AD0ABA7F141238C27B6D3E9728898183EE0D68498B SWAP1 PUSH1 0x60 ADD JUMPDEST PUSH1 0x40 MLOAD DUP1 SWAP2 SUB SWAP1 LOG1 POP POP POP POP JUMP JUMPDEST PUSH2 0x20BE PUSH2 0x29F5 JUMP JUMPDEST PUSH2 0x1C7 DUP1 SLOAD PUSH1 0x1 PUSH1 0x1 PUSH1 0xA0 SHL SUB NOT AND PUSH1 0x1 PUSH1 0x1 PUSH1 0xA0 SHL SUB SWAP3 SWAP1 SWAP3 AND SWAP2 SWAP1 SWAP2 OR SWAP1 SSTORE JUMP JUMPDEST PUSH2 0x20E9 PUSH2 0x29F5 JUMP JUMPDEST PUSH2 0x1C8 SLOAD PUSH1 0x40 MLOAD PUSH32 0xA22CB46500000000000000000000000000000000000000000000000000000000 DUP2 MSTORE PUSH1 0x1 PUSH1 0x1 PUSH1 0xA0 SHL SUB DUP5 DUP2 AND PUSH1 0x4 DUP4 ADD MSTORE DUP4 ISZERO ISZERO PUSH1 0x24 DUP4 ADD MSTORE SWAP1 SWAP2 AND SWAP1 PUSH4 0xA22CB465 SWAP1 PUSH1 0x44 ADD JUMPDEST PUSH1 0x0 PUSH1 0x40 MLOAD DUP1 DUP4 SUB DUP2 PUSH1 0x0 DUP8 DUP1 EXTCODESIZE ISZERO DUP1 ISZERO PUSH2 0x2153 JUMPI PUSH1 0x0 DUP1 REVERT JUMPDEST POP GAS CALL ISZERO DUP1 ISZERO PUSH2 0x2167 JUMPI RETURNDATASIZE PUSH1 0x0 DUP1 RETURNDATACOPY RETURNDATASIZE PUSH1 0x0 REVERT JUMPDEST POP POP POP POP POP POP JUMP JUMPDEST DUP4 TIMESTAMP GT ISZERO PUSH2 0x21BF JUMPI PUSH1 0x40 MLOAD PUSH3 0x461BCD PUSH1 0xE5 SHL DUP2 MSTORE PUSH1 0x20 PUSH1 0x4 DUP3 ADD MSTORE PUSH1 0x1D PUSH1 0x24 DUP3 ADD MSTORE PUSH32 0x45524332305065726D69743A206578706972656420646561646C696E65000000 PUSH1 0x44 DUP3 ADD MSTORE PUSH1 0x64 ADD PUSH2 0xDD3 JUMP JUMPDEST PUSH1 0x0 PUSH32 0x6E71EDAE12B1B97F4D1F60370FEF10105FA2FAAE0126114A169C64845D6126C9 DUP9 DUP9 DUP9 PUSH2 0x21EE DUP13 PUSH2 0x326D JUMP JUMPDEST PUSH1 0x40 DUP1 MLOAD PUSH1 0x20 DUP2 ADD SWAP7 SWAP1 SWAP7 MSTORE PUSH1 0x1 PUSH1 0x1 PUSH1 0xA0 SHL SUB SWAP5 DUP6 AND SWAP1 DUP7 ADD MSTORE SWAP3 SWAP1 SWAP2 AND PUSH1 0x60 DUP5 ADD MSTORE PUSH1 0x80 DUP4 ADD MSTORE PUSH1 0xA0 DUP3 ADD MSTORE PUSH1 0xC0 DUP2 ADD DUP7 SWAP1 MSTORE PUSH1 0xE0 ADD PUSH1 0x40 MLOAD PUSH1 0x20 DUP2 DUP4 SUB SUB DUP2 MSTORE SWAP1 PUSH1 0x40 MSTORE DUP1 MLOAD SWAP1 PUSH1 0x20 ADD KECCAK256 SWAP1 POP PUSH1 0x0 PUSH2 0x2249 DUP3 PUSH2 0x3294 JUMP JUMPDEST SWAP1 POP PUSH1 0x0 PUSH2 0x2259 DUP3 DUP8 DUP8 DUP8 PUSH2 0x32DC JUMP JUMPDEST SWAP1 POP DUP10 PUSH1 0x1 PUSH1 0x1 PUSH1 0xA0 SHL SUB AND DUP2 PUSH1 0x1 PUSH1 0x1 PUSH1 0xA0 SHL SUB AND EQ PUSH2 0x22BC JUMPI PUSH1 0x40 MLOAD PUSH3 0x461BCD PUSH1 0xE5 SHL DUP2 MSTORE PUSH1 0x20 PUSH1 0x4 DUP3 ADD MSTORE PUSH1 0x1E PUSH1 0x24 DUP3 ADD MSTORE PUSH32 0x45524332305065726D69743A20696E76616C6964207369676E61747572650000 PUSH1 0x44 DUP3 ADD MSTORE PUSH1 0x64 ADD PUSH2 0xDD3 JUMP JUMPDEST PUSH2 0x22C7 DUP11 DUP11 DUP11 PUSH2 0x23C0 JUMP JUMPDEST POP POP POP POP POP POP POP POP POP POP JUMP JUMPDEST PUSH2 0x1CD PUSH1 0x20 MSTORE DUP2 PUSH1 0x0 MSTORE PUSH1 0x40 PUSH1 0x0 KECCAK256 DUP2 DUP2 SLOAD DUP2 LT PUSH2 0x22F0 JUMPI PUSH1 0x0 DUP1 REVERT JUMPDEST PUSH1 0x0 SWAP2 DUP3 MSTORE PUSH1 0x20 SWAP1 SWAP2 KECCAK256 PUSH1 0x4 SWAP1 SWAP2 MUL ADD DUP1 SLOAD PUSH1 0x1 DUP3 ADD SLOAD PUSH1 0x2 DUP4 ADD SLOAD PUSH1 0x3 SWAP1 SWAP4 ADD SLOAD PUSH1 0x1 PUSH1 0x1 PUSH1 0xA0 SHL SUB SWAP3 DUP4 AND SWAP6 POP SWAP1 SWAP4 POP PUSH1 0xFF DUP4 AND SWAP3 PUSH2 0x100 SWAP1 DIV SWAP1 SWAP2 AND SWAP1 DUP6 JUMP JUMPDEST PUSH2 0x233B PUSH2 0x29F5 JUMP JUMPDEST PUSH1 0x1 PUSH1 0x1 PUSH1 0xA0 SHL SUB DUP2 AND PUSH2 0x23B7 JUMPI PUSH1 0x40 MLOAD PUSH3 0x461BCD PUSH1 0xE5 SHL DUP2 MSTORE PUSH1 0x20 PUSH1 0x4 DUP3 ADD MSTORE PUSH1 0x26 PUSH1 0x24 DUP3 ADD MSTORE PUSH32 0x4F776E61626C653A206E6577206F776E657220697320746865207A65726F2061 PUSH1 0x44 DUP3 ADD MSTORE PUSH32 0x6464726573730000000000000000000000000000000000000000000000000000 PUSH1 0x64 DUP3 ADD MSTORE PUSH1 0x84 ADD PUSH2 0xDD3 JUMP JUMPDEST PUSH2 0x128B DUP2 PUSH2 0x2F9B JUMP JUMPDEST PUSH1 0x1 PUSH1 0x1 PUSH1 0xA0 SHL SUB DUP4 AND PUSH2 0x243B JUMPI PUSH1 0x40 MLOAD PUSH3 0x461BCD PUSH1 0xE5 SHL DUP2 MSTORE PUSH1 0x20 PUSH1 0x4 DUP3 ADD MSTORE PUSH1 0x24 DUP1 DUP3 ADD MSTORE PUSH32 0x45524332303A20617070726F76652066726F6D20746865207A65726F20616464 PUSH1 0x44 DUP3 ADD MSTORE PUSH32 0x7265737300000000000000000000000000000000000000000000000000000000 PUSH1 0x64 DUP3 ADD MSTORE PUSH1 0x84 ADD PUSH2 0xDD3 JUMP JUMPDEST PUSH1 0x1 PUSH1 0x1 PUSH1 0xA0 SHL SUB DUP3 AND PUSH2 0x24B7 JUMPI PUSH1 0x40 MLOAD PUSH3 0x461BCD PUSH1 0xE5 SHL DUP2 MSTORE PUSH1 0x20 PUSH1 0x4 DUP3 ADD MSTORE PUSH1 0x22 PUSH1 0x24 DUP3 ADD MSTORE PUSH32 0x45524332303A20617070726F766520746F20746865207A65726F206164647265 PUSH1 0x44 DUP3 ADD MSTORE PUSH32 0x7373000000000000000000000000000000000000000000000000000000000000 PUSH1 0x64 DUP3 ADD MSTORE PUSH1 0x84 ADD PUSH2 0xDD3 JUMP JUMPDEST PUSH1 0x1 PUSH1 0x1 PUSH1 0xA0 SHL SUB DUP4 DUP2 AND PUSH1 0x0 DUP2 DUP2 MSTORE PUSH1 0xCA PUSH1 0x20 SWAP1 DUP2 MSTORE PUSH1 0x40 DUP1 DUP4 KECCAK256 SWAP5 DUP8 AND DUP1 DUP5 MSTORE SWAP5 DUP3 MSTORE SWAP2 DUP3 SWAP1 KECCAK256 DUP6 SWAP1 SSTORE SWAP1 MLOAD DUP5 DUP2 MSTORE PUSH32 0x8C5BE1E5EBEC7D5BD14F71427D1E84F3DD0314C0F7B2291E5B200AC8C7C3B925 SWAP2 ADD PUSH1 0x40 MLOAD DUP1 SWAP2 SUB SWAP1 LOG3 POP POP POP JUMP JUMPDEST DUP1 MLOAD PUSH1 0x20 DUP1 DUP4 ADD MLOAD PUSH1 0x1 PUSH1 0x1 PUSH1 0xA0 SHL SUB DUP4 AND PUSH1 0x0 SWAP1 DUP2 MSTORE PUSH2 0x1CD SWAP1 SWAP3 MSTORE PUSH1 0x40 DUP3 KECCAK256 SLOAD SWAP2 SWAP3 SWAP2 ISZERO PUSH2 0x261D JUMPI PUSH1 0x0 JUMPDEST PUSH1 0x1 PUSH1 0x1 PUSH1 0xA0 SHL SUB DUP4 AND PUSH1 0x0 SWAP1 DUP2 MSTORE PUSH2 0x1CD PUSH1 0x20 MSTORE PUSH1 0x40 SWAP1 KECCAK256 SLOAD DUP2 LT ISZERO PUSH2 0x2617 JUMPI PUSH1 0x1 PUSH1 0x1 PUSH1 0xA0 SHL SUB DUP4 DUP2 AND PUSH1 0x0 SWAP1 DUP2 MSTORE PUSH2 0x1CD PUSH1 0x20 MSTORE PUSH1 0x40 SWAP1 KECCAK256 DUP1 SLOAD SWAP2 DUP5 AND SWAP2 DUP4 SWAP1 DUP2 LT PUSH2 0x2596 JUMPI PUSH2 0x2596 PUSH2 0x432B JUMP JUMPDEST PUSH1 0x0 SWAP2 DUP3 MSTORE PUSH1 0x20 SWAP1 SWAP2 KECCAK256 PUSH1 0x4 SWAP1 SWAP2 MUL ADD PUSH1 0x2 ADD SLOAD PUSH2 0x100 SWAP1 DIV PUSH1 0x1 PUSH1 0x1 PUSH1 0xA0 SHL SUB AND SUB PUSH2 0x260F JUMPI PUSH1 0x1 PUSH1 0x1 PUSH1 0xA0 SHL SUB DUP4 AND PUSH1 0x0 SWAP1 DUP2 MSTORE PUSH2 0x1CD PUSH1 0x20 MSTORE PUSH1 0x40 SWAP1 KECCAK256 DUP1 SLOAD PUSH1 0x1 SWAP2 SWAP1 DUP4 SWAP1 DUP2 LT PUSH2 0x25EC JUMPI PUSH2 0x25EC PUSH2 0x432B JUMP JUMPDEST PUSH1 0x0 SWAP2 DUP3 MSTORE PUSH1 0x20 SWAP1 SWAP2 KECCAK256 PUSH1 0x4 SWAP1 SWAP2 MUL ADD PUSH1 0x2 ADD DUP1 SLOAD PUSH1 0xFF NOT AND SWAP2 ISZERO ISZERO SWAP2 SWAP1 SWAP2 OR SWAP1 SSTORE JUMPDEST PUSH1 0x1 ADD PUSH2 0x2545 JUMP JUMPDEST POP PUSH2 0x2784 JUMP JUMPDEST PUSH1 0x20 DUP1 DUP6 ADD MLOAD PUSH1 0x1 PUSH1 0x1 PUSH1 0xA0 SHL SUB AND PUSH1 0x0 SWAP1 DUP2 MSTORE PUSH2 0x1CD SWAP1 SWAP2 MSTORE PUSH1 0x40 SWAP1 KECCAK256 SLOAD ISZERO PUSH2 0x2716 JUMPI PUSH1 0x0 JUMPDEST PUSH1 0x1 PUSH1 0x1 PUSH1 0xA0 SHL SUB DUP3 AND PUSH1 0x0 SWAP1 DUP2 MSTORE PUSH2 0x1CD PUSH1 0x20 MSTORE PUSH1 0x40 SWAP1 KECCAK256 SLOAD DUP2 LT ISZERO PUSH2 0x2617 JUMPI PUSH1 0x1 PUSH1 0x1 PUSH1 0xA0 SHL SUB DUP3 DUP2 AND PUSH1 0x0 SWAP1 DUP2 MSTORE PUSH2 0x1CD PUSH1 0x20 MSTORE PUSH1 0x40 SWAP1 KECCAK256 DUP1 SLOAD SWAP2 DUP6 AND SWAP2 DUP4 SWAP1 DUP2 LT PUSH2 0x2695 JUMPI PUSH2 0x2695 PUSH2 0x432B JUMP JUMPDEST PUSH1 0x0 SWAP2 DUP3 MSTORE PUSH1 0x20 SWAP1 SWAP2 KECCAK256 PUSH1 0x4 SWAP1 SWAP2 MUL ADD PUSH1 0x2 ADD SLOAD PUSH2 0x100 SWAP1 DIV PUSH1 0x1 PUSH1 0x1 PUSH1 0xA0 SHL SUB AND SUB PUSH2 0x270E JUMPI PUSH1 0x1 PUSH1 0x1 PUSH1 0xA0 SHL SUB DUP3 AND PUSH1 0x0 SWAP1 DUP2 MSTORE PUSH2 0x1CD PUSH1 0x20 MSTORE PUSH1 0x40 SWAP1 KECCAK256 DUP1 SLOAD PUSH1 0x1 SWAP2 SWAP1 DUP4 SWAP1 DUP2 LT PUSH2 0x26EB JUMPI PUSH2 0x26EB PUSH2 0x432B JUMP JUMPDEST PUSH1 0x0 SWAP2 DUP3 MSTORE PUSH1 0x20 SWAP1 SWAP2 KECCAK256 PUSH1 0x4 SWAP1 SWAP2 MUL ADD PUSH1 0x2 ADD DUP1 SLOAD PUSH1 0xFF NOT AND SWAP2 ISZERO ISZERO SWAP2 SWAP1 SWAP2 OR SWAP1 SSTORE JUMPDEST PUSH1 0x1 ADD PUSH2 0x2644 JUMP JUMPDEST PUSH1 0x40 MLOAD PUSH3 0x461BCD PUSH1 0xE5 SHL DUP2 MSTORE PUSH1 0x20 PUSH1 0x4 DUP3 ADD MSTORE PUSH1 0x25 PUSH1 0x24 DUP3 ADD MSTORE PUSH32 0x706C616E65742073656E7420657272616E746C792C206E6F206F6E6520746F20 PUSH1 0x44 DUP3 ADD MSTORE PUSH32 0x636C61696D000000000000000000000000000000000000000000000000000000 PUSH1 0x64 DUP3 ADD MSTORE PUSH1 0x84 ADD PUSH2 0xDD3 JUMP JUMPDEST POP POP SWAP2 SWAP1 POP JUMP JUMPDEST PUSH1 0x40 DUP1 MLOAD PUSH1 0x60 DUP1 DUP3 ADD DUP4 MSTORE DUP6 DUP3 MSTORE PUSH1 0x20 DUP1 DUP4 ADD DUP7 DUP2 MSTORE PUSH1 0x1 PUSH1 0x1 PUSH1 0xA0 SHL SUB DUP7 DUP2 AND DUP6 DUP8 ADD DUP2 DUP2 MSTORE PUSH1 0x0 SWAP2 DUP3 MSTORE PUSH2 0x1CA DUP6 MSTORE DUP8 DUP3 KECCAK256 DUP1 SLOAD PUSH1 0x1 DUP1 DUP3 ADD DUP4 SSTORE SWAP2 DUP5 MSTORE DUP7 DUP5 KECCAK256 DUP10 MLOAD PUSH1 0x3 SWAP3 DUP4 MUL SWAP1 SWAP2 ADD SWAP1 DUP2 SSTORE DUP7 MLOAD DUP2 DUP5 ADD SSTORE DUP4 MLOAD PUSH1 0x2 SWAP1 SWAP2 ADD DUP1 SLOAD SWAP2 DUP8 AND PUSH1 0x1 PUSH1 0x1 PUSH1 0xA0 SHL SUB NOT SWAP3 DUP4 AND OR SWAP1 SSTORE PUSH2 0x1CB DUP1 SLOAD SWAP4 DUP5 ADD DUP2 SSTORE SWAP1 SWAP5 MSTORE DUP9 MLOAD SWAP2 MUL PUSH32 0xE8BBFECD380C4167D6A1F763A233EC73E73F534B1970C4E1683F437EC23C1F44 DUP2 ADD SWAP2 SWAP1 SWAP2 SSTORE SWAP4 MLOAD PUSH32 0xE8BBFECD380C4167D6A1F763A233EC73E73F534B1970C4E1683F437EC23C1F45 DUP6 ADD SSTORE MLOAD PUSH32 0xE8BBFECD380C4167D6A1F763A233EC73E73F534B1970C4E1683F437EC23C1F46 SWAP1 SWAP4 ADD DUP1 SLOAD SWAP4 DUP4 AND SWAP4 SWAP1 SWAP2 AND SWAP3 SWAP1 SWAP3 OR SWAP1 SWAP2 SSTORE PUSH2 0x1C8 SLOAD DUP6 MLOAD CALLER DUP2 MSTORE SWAP2 AND SWAP2 DUP2 ADD SWAP2 SWAP1 SWAP2 MSTORE SWAP3 DUP4 ADD DUP7 SWAP1 MSTORE DUP3 ADD DUP5 SWAP1 MSTORE SWAP1 PUSH32 0xB30319A217488A3ED441C348E935A48D16091E33109BAB0C79A353B979752883 SWAP1 PUSH1 0x80 ADD PUSH2 0x20A8 JUMP JUMPDEST DUP1 SELFBALANCE LT ISZERO PUSH2 0x2927 JUMPI PUSH1 0x40 MLOAD PUSH3 0x461BCD PUSH1 0xE5 SHL DUP2 MSTORE PUSH1 0x20 PUSH1 0x4 DUP3 ADD MSTORE PUSH1 0x1D PUSH1 0x24 DUP3 ADD MSTORE PUSH32 0x416464726573733A20696E73756666696369656E742062616C616E6365000000 PUSH1 0x44 DUP3 ADD MSTORE PUSH1 0x64 ADD PUSH2 0xDD3 JUMP JUMPDEST PUSH1 0x0 DUP3 PUSH1 0x1 PUSH1 0x1 PUSH1 0xA0 SHL SUB AND DUP3 PUSH1 0x40 MLOAD PUSH1 0x0 PUSH1 0x40 MLOAD DUP1 DUP4 SUB DUP2 DUP6 DUP8 GAS CALL SWAP3 POP POP POP RETURNDATASIZE DUP1 PUSH1 0x0 DUP2 EQ PUSH2 0x2974 JUMPI PUSH1 0x40 MLOAD SWAP2 POP PUSH1 0x1F NOT PUSH1 0x3F RETURNDATASIZE ADD AND DUP3 ADD PUSH1 0x40 MSTORE RETURNDATASIZE DUP3 MSTORE RETURNDATASIZE PUSH1 0x0 PUSH1 0x20 DUP5 ADD RETURNDATACOPY PUSH2 0x2979 JUMP JUMPDEST PUSH1 0x60 SWAP2 POP JUMPDEST POP POP SWAP1 POP DUP1 PUSH2 0x29F0 JUMPI PUSH1 0x40 MLOAD PUSH3 0x461BCD PUSH1 0xE5 SHL DUP2 MSTORE PUSH1 0x20 PUSH1 0x4 DUP3 ADD MSTORE PUSH1 0x3A PUSH1 0x24 DUP3 ADD MSTORE PUSH32 0x416464726573733A20756E61626C6520746F2073656E642076616C75652C2072 PUSH1 0x44 DUP3 ADD MSTORE PUSH32 0x6563697069656E74206D61792068617665207265766572746564000000000000 PUSH1 0x64 DUP3 ADD MSTORE PUSH1 0x84 ADD PUSH2 0xDD3 JUMP JUMPDEST POP POP POP JUMP JUMPDEST PUSH2 0x194 SLOAD PUSH1 0x1 PUSH1 0x1 PUSH1 0xA0 SHL SUB AND CALLER EQ PUSH2 0xED4 JUMPI PUSH1 0x40 MLOAD PUSH3 0x461BCD PUSH1 0xE5 SHL DUP2 MSTORE PUSH1 0x20 PUSH1 0x4 DUP3 ADD DUP2 SWAP1 MSTORE PUSH1 0x24 DUP3 ADD MSTORE PUSH32 0x4F776E61626C653A2063616C6C6572206973206E6F7420746865206F776E6572 PUSH1 0x44 DUP3 ADD MSTORE PUSH1 0x64 ADD PUSH2 0xDD3 JUMP JUMPDEST PUSH2 0x2A58 PUSH2 0x3304 JUMP JUMPDEST PUSH1 0x33 DUP1 SLOAD PUSH1 0xFF NOT AND PUSH1 0x1 OR SWAP1 SSTORE PUSH32 0x62E78CEA01BEE320CD4E420270B5EA74000D11B0C9F74754EBDBFC544B05A258 PUSH2 0x2A8D CALLER SWAP1 JUMP JUMPDEST PUSH1 0x40 MLOAD PUSH1 0x1 PUSH1 0x1 PUSH1 0xA0 SHL SUB SWAP1 SWAP2 AND DUP2 MSTORE PUSH1 0x20 ADD PUSH1 0x40 MLOAD DUP1 SWAP2 SUB SWAP1 LOG1 JUMP JUMPDEST PUSH1 0x1 PUSH1 0x1 PUSH1 0xA0 SHL SUB DUP4 DUP2 AND PUSH1 0x0 SWAP1 DUP2 MSTORE PUSH1 0xCA PUSH1 0x20 SWAP1 DUP2 MSTORE PUSH1 0x40 DUP1 DUP4 KECCAK256 SWAP4 DUP7 AND DUP4 MSTORE SWAP3 SWAP1 MSTORE KECCAK256 SLOAD PUSH1 0x0 NOT DUP2 EQ PUSH2 0x2B36 JUMPI DUP2 DUP2 LT ISZERO PUSH2 0x2B29 JUMPI PUSH1 0x40 MLOAD PUSH3 0x461BCD PUSH1 0xE5 SHL DUP2 MSTORE PUSH1 0x20 PUSH1 0x4 DUP3 ADD MSTORE PUSH1 0x1D PUSH1 0x24 DUP3 ADD MSTORE PUSH32 0x45524332303A20696E73756666696369656E7420616C6C6F77616E6365000000 PUSH1 0x44 DUP3 ADD MSTORE PUSH1 0x64 ADD PUSH2 0xDD3 JUMP JUMPDEST PUSH2 0x2B36 DUP5 DUP5 DUP5 DUP5 SUB PUSH2 0x23C0 JUMP JUMPDEST POP POP POP POP JUMP JUMPDEST PUSH1 0x1 PUSH1 0x1 PUSH1 0xA0 SHL SUB DUP4 AND PUSH2 0x2BB8 JUMPI PUSH1 0x40 MLOAD PUSH3 0x461BCD PUSH1 0xE5 SHL DUP2 MSTORE PUSH1 0x20 PUSH1 0x4 DUP3 ADD MSTORE PUSH1 0x25 PUSH1 0x24 DUP3 ADD MSTORE PUSH32 0x45524332303A207472616E736665722066726F6D20746865207A65726F206164 PUSH1 0x44 DUP3 ADD MSTORE PUSH32 0x6472657373000000000000000000000000000000000000000000000000000000 PUSH1 0x64 DUP3 ADD MSTORE PUSH1 0x84 ADD PUSH2 0xDD3 JUMP JUMPDEST PUSH1 0x1 PUSH1 0x1 PUSH1 0xA0 SHL SUB DUP3 AND PUSH2 0x2C34 JUMPI PUSH1 0x40 MLOAD PUSH3 0x461BCD PUSH1 0xE5 SHL DUP2 MSTORE PUSH1 0x20 PUSH1 0x4 DUP3 ADD MSTORE PUSH1 0x23 PUSH1 0x24 DUP3 ADD MSTORE PUSH32 0x45524332303A207472616E7366657220746F20746865207A65726F2061646472 PUSH1 0x44 DUP3 ADD MSTORE PUSH32 0x6573730000000000000000000000000000000000000000000000000000000000 PUSH1 0x64 DUP3 ADD MSTORE PUSH1 0x84 ADD PUSH2 0xDD3 JUMP JUMPDEST PUSH1 0x1 PUSH1 0x1 PUSH1 0xA0 SHL SUB DUP4 AND PUSH1 0x0 SWAP1 DUP2 MSTORE PUSH1 0xC9 PUSH1 0x20 MSTORE PUSH1 0x40 SWAP1 KECCAK256 SLOAD DUP2 DUP2 LT ISZERO PUSH2 0x2CC3 JUMPI PUSH1 0x40 MLOAD PUSH3 0x461BCD PUSH1 0xE5 SHL DUP2 MSTORE PUSH1 0x20 PUSH1 0x4 DUP3 ADD MSTORE PUSH1 0x26 PUSH1 0x24 DUP3 ADD MSTORE PUSH32 0x45524332303A207472616E7366657220616D6F756E7420657863656564732062 PUSH1 0x44 DUP3 ADD MSTORE PUSH32 0x616C616E63650000000000000000000000000000000000000000000000000000 PUSH1 0x64 DUP3 ADD MSTORE PUSH1 0x84 ADD PUSH2 0xDD3 JUMP JUMPDEST PUSH1 0x1 PUSH1 0x1 PUSH1 0xA0 SHL SUB DUP1 DUP6 AND PUSH1 0x0 DUP2 DUP2 MSTORE PUSH1 0xC9 PUSH1 0x20 MSTORE PUSH1 0x40 DUP1 DUP3 KECCAK256 DUP7 DUP7 SUB SWAP1 SSTORE SWAP3 DUP7 AND DUP1 DUP3 MSTORE SWAP1 DUP4 SWAP1 KECCAK256 DUP1 SLOAD DUP7 ADD SWAP1 SSTORE SWAP2 MLOAD PUSH32 0xDDF252AD1BE2C89B69C2B068FC378DAA952BA7F163C4A11628F55A4DF523B3EF SWAP1 PUSH2 0x2D23 SWAP1 DUP7 DUP2 MSTORE PUSH1 0x20 ADD SWAP1 JUMP JUMPDEST PUSH1 0x40 MLOAD DUP1 SWAP2 SUB SWAP1 LOG3 PUSH2 0x2B36 JUMP JUMPDEST PUSH1 0x0 PUSH2 0x110E PUSH2 0x3357 JUMP JUMPDEST PUSH2 0x128B PUSH2 0x29F5 JUMP JUMPDEST PUSH32 0x4910FDFA16FED3260ED0E7147F7CC6DA11A60208B5B9406D12A635614FFD9143 SLOAD PUSH1 0xFF AND ISZERO PUSH2 0x2D75 JUMPI PUSH2 0x29F0 DUP4 PUSH2 0x33CB JUMP JUMPDEST DUP3 PUSH1 0x1 PUSH1 0x1 PUSH1 0xA0 SHL SUB AND PUSH4 0x52D1902D PUSH1 0x40 MLOAD DUP2 PUSH4 0xFFFFFFFF AND PUSH1 0xE0 SHL DUP2 MSTORE PUSH1 0x4 ADD PUSH1 0x20 PUSH1 0x40 MLOAD DUP1 DUP4 SUB DUP2 DUP7 GAS STATICCALL SWAP3 POP POP POP DUP1 ISZERO PUSH2 0x2DCF JUMPI POP PUSH1 0x40 DUP1 MLOAD PUSH1 0x1F RETURNDATASIZE SWAP1 DUP2 ADD PUSH1 0x1F NOT AND DUP3 ADD SWAP1 SWAP3 MSTORE PUSH2 0x2DCC SWAP2 DUP2 ADD SWAP1 PUSH2 0x4341 JUMP JUMPDEST PUSH1 0x1 JUMPDEST PUSH2 0x2E41 JUMPI PUSH1 0x40 MLOAD PUSH3 0x461BCD PUSH1 0xE5 SHL DUP2 MSTORE PUSH1 0x20 PUSH1 0x4 DUP3 ADD MSTORE PUSH1 0x2E PUSH1 0x24 DUP3 ADD MSTORE PUSH32 0x45524331393637557067726164653A206E657720696D706C656D656E74617469 PUSH1 0x44 DUP3 ADD MSTORE PUSH32 0x6F6E206973206E6F742055555053000000000000000000000000000000000000 PUSH1 0x64 DUP3 ADD MSTORE PUSH1 0x84 ADD PUSH2 0xDD3 JUMP JUMPDEST PUSH32 0x360894A13BA1A3210667C828492DB98DCA3E2076CC3735A920A3CA505D382BBC DUP2 EQ PUSH2 0x2ED6 JUMPI PUSH1 0x40 MLOAD PUSH3 0x461BCD PUSH1 0xE5 SHL DUP2 MSTORE PUSH1 0x20 PUSH1 0x4 DUP3 ADD MSTORE PUSH1 0x29 PUSH1 0x24 DUP3 ADD MSTORE PUSH32 0x45524331393637557067726164653A20756E737570706F727465642070726F78 PUSH1 0x44 DUP3 ADD MSTORE PUSH32 0x6961626C65555549440000000000000000000000000000000000000000000000 PUSH1 0x64 DUP3 ADD MSTORE PUSH1 0x84 ADD PUSH2 0xDD3 JUMP JUMPDEST POP PUSH2 0x29F0 DUP4 DUP4 DUP4 PUSH2 0x3489 JUMP JUMPDEST PUSH2 0x2EEA PUSH2 0x34AE JUMP JUMPDEST PUSH1 0x33 DUP1 SLOAD PUSH1 0xFF NOT AND SWAP1 SSTORE PUSH32 0x5DB9EE0A495BF2E6FF9C91A7834C1BA4FDD244A5E8AA4E537BD38AEAE4B073AA CALLER PUSH2 0x2A8D JUMP JUMPDEST PUSH1 0x40 DUP1 MLOAD PUSH1 0x1 PUSH1 0x1 PUSH1 0xA0 SHL SUB DUP5 AND PUSH1 0x24 DUP3 ADD MSTORE PUSH1 0x44 DUP1 DUP3 ADD DUP5 SWAP1 MSTORE DUP3 MLOAD DUP1 DUP4 SUB SWAP1 SWAP2 ADD DUP2 MSTORE PUSH1 0x64 SWAP1 SWAP2 ADD SWAP1 SWAP2 MSTORE PUSH1 0x20 DUP2 ADD DUP1 MLOAD PUSH28 0xFFFFFFFFFFFFFFFFFFFFFFFFFFFFFFFFFFFFFFFFFFFFFFFFFFFFFFFF AND PUSH32 0xA9059CBB00000000000000000000000000000000000000000000000000000000 OR SWAP1 MSTORE PUSH2 0x29F0 SWAP1 DUP5 SWAP1 PUSH2 0x3500 JUMP JUMPDEST PUSH2 0x194 DUP1 SLOAD PUSH1 0x1 PUSH1 0x1 PUSH1 0xA0 SHL SUB DUP4 DUP2 AND PUSH1 0x1 PUSH1 0x1 PUSH1 0xA0 SHL SUB NOT DUP4 AND DUP2 OR SWAP1 SWAP4 SSTORE PUSH1 0x40 MLOAD SWAP2 AND SWAP2 SWAP1 DUP3 SWAP1 PUSH32 0x8BE0079C531659141344CD1FD0A4F28419497F9722A3DAAFE3B4186F6B6457E0 SWAP1 PUSH1 0x0 SWAP1 LOG3 POP POP JUMP JUMPDEST PUSH1 0x0 SLOAD PUSH2 0x100 SWAP1 DIV PUSH1 0xFF AND PUSH2 0x3059 JUMPI PUSH1 0x40 MLOAD PUSH3 0x461BCD PUSH1 0xE5 SHL DUP2 MSTORE PUSH1 0x20 PUSH1 0x4 DUP3 ADD MSTORE PUSH1 0x2B PUSH1 0x24 DUP3 ADD MSTORE PUSH32 0x496E697469616C697A61626C653A20636F6E7472616374206973206E6F742069 PUSH1 0x44 DUP3 ADD MSTORE PUSH11 0x6E697469616C697A696E67 PUSH1 0xA8 SHL PUSH1 0x64 DUP3 ADD MSTORE PUSH1 0x84 ADD PUSH2 0xDD3 JUMP JUMPDEST PUSH2 0xED4 PUSH2 0x35E8 JUMP JUMPDEST PUSH1 0x0 SLOAD PUSH2 0x100 SWAP1 DIV PUSH1 0xFF AND PUSH2 0x30CC JUMPI PUSH1 0x40 MLOAD PUSH3 0x461BCD PUSH1 0xE5 SHL DUP2 MSTORE PUSH1 0x20 PUSH1 0x4 DUP3 ADD MSTORE PUSH1 0x2B PUSH1 0x24 DUP3 ADD MSTORE PUSH32 0x496E697469616C697A61626C653A20636F6E7472616374206973206E6F742069 PUSH1 0x44 DUP3 ADD MSTORE PUSH11 0x6E697469616C697A696E67 PUSH1 0xA8 SHL PUSH1 0x64 DUP3 ADD MSTORE PUSH1 0x84 ADD PUSH2 0xDD3 JUMP JUMPDEST PUSH2 0xED4 PUSH2 0x365C JUMP JUMPDEST PUSH1 0x0 SLOAD PUSH2 0x100 SWAP1 DIV PUSH1 0xFF AND PUSH2 0xED4 JUMPI PUSH1 0x40 MLOAD PUSH3 0x461BCD PUSH1 0xE5 SHL DUP2 MSTORE PUSH1 0x20 PUSH1 0x4 DUP3 ADD MSTORE PUSH1 0x2B PUSH1 0x24 DUP3 ADD MSTORE PUSH32 0x496E697469616C697A61626C653A20636F6E7472616374206973206E6F742069 PUSH1 0x44 DUP3 ADD MSTORE PUSH11 0x6E697469616C697A696E67 PUSH1 0xA8 SHL PUSH1 0x64 DUP3 ADD MSTORE PUSH1 0x84 ADD PUSH2 0xDD3 JUMP JUMPDEST PUSH1 0x0 DUP1 JUMPDEST PUSH2 0x1CB SLOAD DUP2 LT ISZERO PUSH2 0x31B0 JUMPI DUP3 PUSH2 0x1CB DUP3 DUP2 SLOAD DUP2 LT PUSH2 0x3163 JUMPI PUSH2 0x3163 PUSH2 0x432B JUMP JUMPDEST SWAP1 PUSH1 0x0 MSTORE PUSH1 0x20 PUSH1 0x0 KECCAK256 SWAP1 PUSH1 0x3 MUL ADD PUSH1 0x0 ADD SLOAD SUB PUSH2 0x31A8 JUMPI PUSH2 0x1CB DUP2 DUP2 SLOAD DUP2 LT PUSH2 0x318E JUMPI PUSH2 0x318E PUSH2 0x432B JUMP JUMPDEST SWAP1 PUSH1 0x0 MSTORE PUSH1 0x20 PUSH1 0x0 KECCAK256 SWAP1 PUSH1 0x3 MUL ADD PUSH1 0x1 ADD SLOAD SWAP2 POP POP SWAP2 SWAP1 POP JUMP JUMPDEST PUSH1 0x1 ADD PUSH2 0x3143 JUMP JUMPDEST POP SWAP2 SWAP1 POP JUMP JUMPDEST PUSH1 0x60 PUSH1 0xFD DUP1 SLOAD PUSH2 0xAC2 SWAP1 PUSH2 0x4121 JUMP JUMPDEST PUSH1 0x60 PUSH1 0xFE DUP1 SLOAD PUSH2 0xAC2 SWAP1 PUSH2 0x4121 JUMP JUMPDEST PUSH2 0x162 SLOAD PUSH1 0x1 PUSH1 0x1 PUSH1 0xA0 SHL SUB DUP5 AND PUSH1 0x0 SWAP1 DUP2 MSTORE PUSH2 0x164 PUSH1 0x20 MSTORE PUSH1 0x40 DUP2 KECCAK256 SLOAD SWAP1 SWAP2 DUP4 SWAP2 PUSH2 0x3200 SWAP1 DUP7 PUSH2 0x4396 JUMP JUMPDEST PUSH2 0x320A SWAP2 SWAP1 PUSH2 0x43AD JUMP JUMPDEST PUSH2 0xD5A SWAP2 SWAP1 PUSH2 0x4383 JUMP JUMPDEST PUSH2 0x1C8 SLOAD PUSH1 0x40 MLOAD PUSH32 0x23B872DD00000000000000000000000000000000000000000000000000000000 DUP2 MSTORE ADDRESS PUSH1 0x4 DUP3 ADD MSTORE PUSH1 0x1 PUSH1 0x1 PUSH1 0xA0 SHL SUB DUP4 DUP2 AND PUSH1 0x24 DUP4 ADD MSTORE PUSH1 0x44 DUP3 ADD DUP6 SWAP1 MSTORE SWAP1 SWAP2 AND SWAP1 PUSH4 0x23B872DD SWAP1 PUSH1 0x64 ADD PUSH2 0x2139 JUMP JUMPDEST PUSH1 0x1 PUSH1 0x1 PUSH1 0xA0 SHL SUB DUP2 AND PUSH1 0x0 SWAP1 DUP2 MSTORE PUSH2 0x12F PUSH1 0x20 MSTORE PUSH1 0x40 SWAP1 KECCAK256 DUP1 SLOAD PUSH1 0x1 DUP2 ADD DUP3 SSTORE SWAP1 PUSH2 0x31B0 JUMP JUMPDEST PUSH1 0x0 PUSH2 0xB59 PUSH2 0x32A1 PUSH2 0x2D30 JUMP JUMPDEST DUP4 PUSH1 0x40 MLOAD PUSH32 0x1901000000000000000000000000000000000000000000000000000000000000 DUP2 MSTORE PUSH1 0x2 DUP2 ADD SWAP3 SWAP1 SWAP3 MSTORE PUSH1 0x22 DUP3 ADD MSTORE PUSH1 0x42 SWAP1 KECCAK256 SWAP1 JUMP JUMPDEST PUSH1 0x0 DUP1 PUSH1 0x0 PUSH2 0x32ED DUP8 DUP8 DUP8 DUP8 PUSH2 0x36D3 JUMP JUMPDEST SWAP2 POP SWAP2 POP PUSH2 0x32FA DUP2 PUSH2 0x3797 JUMP JUMPDEST POP SWAP6 SWAP5 POP POP POP POP POP JUMP JUMPDEST PUSH1 0x33 SLOAD PUSH1 0xFF AND ISZERO PUSH2 0xED4 JUMPI PUSH1 0x40 MLOAD PUSH3 0x461BCD PUSH1 0xE5 SHL DUP2 MSTORE PUSH1 0x20 PUSH1 0x4 DUP3 ADD MSTORE PUSH1 0x10 PUSH1 0x24 DUP3 ADD MSTORE PUSH32 0x5061757361626C653A2070617573656400000000000000000000000000000000 PUSH1 0x44 DUP3 ADD MSTORE PUSH1 0x64 ADD PUSH2 0xDD3 JUMP JUMPDEST PUSH1 0x0 PUSH32 0x8B73C3C69BB8FE3D512ECC4CF759CC79239F7B179B0FFACAA9A75D522B39400F PUSH2 0x3382 PUSH2 0x38FC JUMP JUMPDEST PUSH2 0x338A PUSH2 0x3955 JUMP JUMPDEST PUSH1 0x40 DUP1 MLOAD PUSH1 0x20 DUP2 ADD SWAP5 SWAP1 SWAP5 MSTORE DUP4 ADD SWAP2 SWAP1 SWAP2 MSTORE PUSH1 0x60 DUP3 ADD MSTORE CHAINID PUSH1 0x80 DUP3 ADD MSTORE ADDRESS PUSH1 0xA0 DUP3 ADD MSTORE PUSH1 0xC0 ADD PUSH1 0x40 MLOAD PUSH1 0x20 DUP2 DUP4 SUB SUB DUP2 MSTORE SWAP1 PUSH1 0x40 MSTORE DUP1 MLOAD SWAP1 PUSH1 0x20 ADD KECCAK256 SWAP1 POP SWAP1 JUMP JUMPDEST PUSH1 0x1 PUSH1 0x1 PUSH1 0xA0 SHL SUB DUP2 AND EXTCODESIZE PUSH2 0x3448 JUMPI PUSH1 0x40 MLOAD PUSH3 0x461BCD PUSH1 0xE5 SHL DUP2 MSTORE PUSH1 0x20 PUSH1 0x4 DUP3 ADD MSTORE PUSH1 0x2D PUSH1 0x24 DUP3 ADD MSTORE PUSH32 0x455243313936373A206E657720696D706C656D656E746174696F6E206973206E PUSH1 0x44 DUP3 ADD MSTORE PUSH32 0x6F74206120636F6E747261637400000000000000000000000000000000000000 PUSH1 0x64 DUP3 ADD MSTORE PUSH1 0x84 ADD PUSH2 0xDD3 JUMP JUMPDEST PUSH32 0x360894A13BA1A3210667C828492DB98DCA3E2076CC3735A920A3CA505D382BBC DUP1 SLOAD PUSH1 0x1 PUSH1 0x1 PUSH1 0xA0 SHL SUB NOT AND PUSH1 0x1 PUSH1 0x1 PUSH1 0xA0 SHL SUB SWAP3 SWAP1 SWAP3 AND SWAP2 SWAP1 SWAP2 OR SWAP1 SSTORE JUMP JUMPDEST PUSH2 0x3492 DUP4 PUSH2 0x3986 JUMP JUMPDEST PUSH1 0x0 DUP3 MLOAD GT DUP1 PUSH2 0x349F JUMPI POP DUP1 JUMPDEST ISZERO PUSH2 0x29F0 JUMPI PUSH2 0x2B36 DUP4 DUP4 PUSH2 0x39C6 JUMP JUMPDEST PUSH1 0x33 SLOAD PUSH1 0xFF AND PUSH2 0xED4 JUMPI PUSH1 0x40 MLOAD PUSH3 0x461BCD PUSH1 0xE5 SHL DUP2 MSTORE PUSH1 0x20 PUSH1 0x4 DUP3 ADD MSTORE PUSH1 0x14 PUSH1 0x24 DUP3 ADD MSTORE PUSH32 0x5061757361626C653A206E6F7420706175736564000000000000000000000000 PUSH1 0x44 DUP3 ADD MSTORE PUSH1 0x64 ADD PUSH2 0xDD3 JUMP JUMPDEST PUSH1 0x0 PUSH2 0x3555 DUP3 PUSH1 0x40 MLOAD DUP1 PUSH1 0x40 ADD PUSH1 0x40 MSTORE DUP1 PUSH1 0x20 DUP2 MSTORE PUSH1 0x20 ADD PUSH32 0x5361666545524332303A206C6F772D6C6576656C2063616C6C206661696C6564 DUP2 MSTORE POP DUP6 PUSH1 0x1 PUSH1 0x1 PUSH1 0xA0 SHL SUB AND PUSH2 0x39EB SWAP1 SWAP3 SWAP2 SWAP1 PUSH4 0xFFFFFFFF AND JUMP JUMPDEST SWAP1 POP DUP1 MLOAD PUSH1 0x0 EQ DUP1 PUSH2 0x3576 JUMPI POP DUP1 DUP1 PUSH1 0x20 ADD SWAP1 MLOAD DUP2 ADD SWAP1 PUSH2 0x3576 SWAP2 SWAP1 PUSH2 0x43CF JUMP JUMPDEST PUSH2 0x29F0 JUMPI PUSH1 0x40 MLOAD PUSH3 0x461BCD PUSH1 0xE5 SHL DUP2 MSTORE PUSH1 0x20 PUSH1 0x4 DUP3 ADD MSTORE PUSH1 0x2A PUSH1 0x24 DUP3 ADD MSTORE PUSH32 0x5361666545524332303A204552433230206F7065726174696F6E20646964206E PUSH1 0x44 DUP3 ADD MSTORE PUSH32 0x6F74207375636365656400000000000000000000000000000000000000000000 PUSH1 0x64 DUP3 ADD MSTORE PUSH1 0x84 ADD PUSH2 0xDD3 JUMP JUMPDEST PUSH1 0x0 SLOAD PUSH2 0x100 SWAP1 DIV PUSH1 0xFF AND PUSH2 0x3653 JUMPI PUSH1 0x40 MLOAD PUSH3 0x461BCD PUSH1 0xE5 SHL DUP2 MSTORE PUSH1 0x20 PUSH1 0x4 DUP3 ADD MSTORE PUSH1 0x2B PUSH1 0x24 DUP3 ADD MSTORE PUSH32 0x496E697469616C697A61626C653A20636F6E7472616374206973206E6F742069 PUSH1 0x44 DUP3 ADD MSTORE PUSH11 0x6E697469616C697A696E67 PUSH1 0xA8 SHL PUSH1 0x64 DUP3 ADD MSTORE PUSH1 0x84 ADD PUSH2 0xDD3 JUMP JUMPDEST PUSH2 0xED4 CALLER PUSH2 0x2F9B JUMP JUMPDEST PUSH1 0x0 SLOAD PUSH2 0x100 SWAP1 DIV PUSH1 0xFF AND PUSH2 0x36C7 JUMPI PUSH1 0x40 MLOAD PUSH3 0x461BCD PUSH1 0xE5 SHL DUP2 MSTORE PUSH1 0x20 PUSH1 0x4 DUP3 ADD MSTORE PUSH1 0x2B PUSH1 0x24 DUP3 ADD MSTORE PUSH32 0x496E697469616C697A61626C653A20636F6E7472616374206973206E6F742069 PUSH1 0x44 DUP3 ADD MSTORE PUSH11 0x6E697469616C697A696E67 PUSH1 0xA8 SHL PUSH1 0x64 DUP3 ADD MSTORE PUSH1 0x84 ADD PUSH2 0xDD3 JUMP JUMPDEST PUSH1 0x33 DUP1 SLOAD PUSH1 0xFF NOT AND SWAP1 SSTORE JUMP JUMPDEST PUSH1 0x0 DUP1 PUSH32 0x7FFFFFFFFFFFFFFFFFFFFFFFFFFFFFFF5D576E7357A4501DDFE92F46681B20A0 DUP4 GT ISZERO PUSH2 0x370A JUMPI POP PUSH1 0x0 SWAP1 POP PUSH1 0x3 PUSH2 0x378E JUMP JUMPDEST PUSH1 0x40 DUP1 MLOAD PUSH1 0x0 DUP1 DUP3 MSTORE PUSH1 0x20 DUP3 ADD DUP1 DUP5 MSTORE DUP10 SWAP1 MSTORE PUSH1 0xFF DUP9 AND SWAP3 DUP3 ADD SWAP3 SWAP1 SWAP3 MSTORE PUSH1 0x60 DUP2 ADD DUP7 SWAP1 MSTORE PUSH1 0x80 DUP2 ADD DUP6 SWAP1 MSTORE PUSH1 0x1 SWAP1 PUSH1 0xA0 ADD PUSH1 0x20 PUSH1 0x40 MLOAD PUSH1 0x20 DUP2 SUB SWAP1 DUP1 DUP5 SUB SWAP1 DUP6 GAS STATICCALL ISZERO DUP1 ISZERO PUSH2 0x375E JUMPI RETURNDATASIZE PUSH1 0x0 DUP1 RETURNDATACOPY RETURNDATASIZE PUSH1 0x0 REVERT JUMPDEST POP POP PUSH1 0x40 MLOAD PUSH1 0x1F NOT ADD MLOAD SWAP2 POP POP PUSH1 0x1 PUSH1 0x1 PUSH1 0xA0 SHL SUB DUP2 AND PUSH2 0x3787 JUMPI PUSH1 0x0 PUSH1 0x1 SWAP3 POP SWAP3 POP POP PUSH2 0x378E JUMP JUMPDEST SWAP2 POP PUSH1 0x0 SWAP1 POP JUMPDEST SWAP5 POP SWAP5 SWAP3 POP POP POP JUMP JUMPDEST PUSH1 0x0 DUP2 PUSH1 0x4 DUP2 GT ISZERO PUSH2 0x37AB JUMPI PUSH2 0x37AB PUSH2 0x43EC JUMP JUMPDEST SUB PUSH2 0x37B3 JUMPI POP JUMP JUMPDEST PUSH1 0x1 DUP2 PUSH1 0x4 DUP2 GT ISZERO PUSH2 0x37C7 JUMPI PUSH2 0x37C7 PUSH2 0x43EC JUMP JUMPDEST SUB PUSH2 0x3814 JUMPI PUSH1 0x40 MLOAD PUSH3 0x461BCD PUSH1 0xE5 SHL DUP2 MSTORE PUSH1 0x20 PUSH1 0x4 DUP3 ADD MSTORE PUSH1 0x18 PUSH1 0x24 DUP3 ADD MSTORE PUSH32 0x45434453413A20696E76616C6964207369676E61747572650000000000000000 PUSH1 0x44 DUP3 ADD MSTORE PUSH1 0x64 ADD PUSH2 0xDD3 JUMP JUMPDEST PUSH1 0x2 DUP2 PUSH1 0x4 DUP2 GT ISZERO PUSH2 0x3828 JUMPI PUSH2 0x3828 PUSH2 0x43EC JUMP JUMPDEST SUB PUSH2 0x3875 JUMPI PUSH1 0x40 MLOAD PUSH3 0x461BCD PUSH1 0xE5 SHL DUP2 MSTORE PUSH1 0x20 PUSH1 0x4 DUP3 ADD MSTORE PUSH1 0x1F PUSH1 0x24 DUP3 ADD MSTORE PUSH32 0x45434453413A20696E76616C6964207369676E6174757265206C656E67746800 PUSH1 0x44 DUP3 ADD MSTORE PUSH1 0x64 ADD PUSH2 0xDD3 JUMP JUMPDEST PUSH1 0x3 DUP2 PUSH1 0x4 DUP2 GT ISZERO PUSH2 0x3889 JUMPI PUSH2 0x3889 PUSH2 0x43EC JUMP JUMPDEST SUB PUSH2 0x128B JUMPI PUSH1 0x40 MLOAD PUSH3 0x461BCD PUSH1 0xE5 SHL DUP2 MSTORE PUSH1 0x20 PUSH1 0x4 DUP3 ADD MSTORE PUSH1 0x22 PUSH1 0x24 DUP3 ADD MSTORE PUSH32 0x45434453413A20696E76616C6964207369676E6174757265202773272076616C PUSH1 0x44 DUP3 ADD MSTORE PUSH32 0x7565000000000000000000000000000000000000000000000000000000000000 PUSH1 0x64 DUP3 ADD MSTORE PUSH1 0x84 ADD PUSH2 0xDD3 JUMP JUMPDEST PUSH1 0x0 DUP1 PUSH2 0x3907 PUSH2 0x31B6 JUMP JUMPDEST DUP1 MLOAD SWAP1 SWAP2 POP ISZERO PUSH2 0x391E JUMPI DUP1 MLOAD PUSH1 0x20 SWAP1 SWAP2 ADD KECCAK256 SWAP2 SWAP1 POP JUMP JUMPDEST PUSH1 0xFB SLOAD DUP1 ISZERO PUSH2 0x392D JUMPI SWAP3 SWAP2 POP POP JUMP JUMPDEST PUSH32 0xC5D2460186F7233C927E7DB2DCC703C0E500B653CA82273B7BFAD8045D85A470 SWAP3 POP POP POP SWAP1 JUMP JUMPDEST PUSH1 0x0 DUP1 PUSH2 0x3960 PUSH2 0x31C5 JUMP JUMPDEST DUP1 MLOAD SWAP1 SWAP2 POP ISZERO PUSH2 0x3977 JUMPI DUP1 MLOAD PUSH1 0x20 SWAP1 SWAP2 ADD KECCAK256 SWAP2 SWAP1 POP JUMP JUMPDEST PUSH1 0xFC SLOAD DUP1 ISZERO PUSH2 0x392D JUMPI SWAP3 SWAP2 POP POP JUMP JUMPDEST PUSH2 0x398F DUP2 PUSH2 0x33CB JUMP JUMPDEST PUSH1 0x40 MLOAD PUSH1 0x1 PUSH1 0x1 PUSH1 0xA0 SHL SUB DUP3 AND SWAP1 PUSH32 0xBC7CD75A20EE27FD9ADEBAB32041F755214DBC6BFFA90CC0225B39DA2E5C2D3B SWAP1 PUSH1 0x0 SWAP1 LOG2 POP JUMP JUMPDEST PUSH1 0x60 PUSH2 0x1D6C DUP4 DUP4 PUSH1 0x40 MLOAD DUP1 PUSH1 0x60 ADD PUSH1 0x40 MSTORE DUP1 PUSH1 0x27 DUP2 MSTORE PUSH1 0x20 ADD PUSH2 0x441F PUSH1 0x27 SWAP2 CODECOPY PUSH2 0x39FA JUMP JUMPDEST PUSH1 0x60 PUSH2 0xD5A DUP5 DUP5 PUSH1 0x0 DUP6 PUSH2 0x3A72 JUMP JUMPDEST PUSH1 0x60 PUSH1 0x0 DUP1 DUP6 PUSH1 0x1 PUSH1 0x1 PUSH1 0xA0 SHL SUB AND DUP6 PUSH1 0x40 MLOAD PUSH2 0x3A17 SWAP2 SWAP1 PUSH2 0x4402 JUMP JUMPDEST PUSH1 0x0 PUSH1 0x40 MLOAD DUP1 DUP4 SUB DUP2 DUP6 GAS DELEGATECALL SWAP2 POP POP RETURNDATASIZE DUP1 PUSH1 0x0 DUP2 EQ PUSH2 0x3A52 JUMPI PUSH1 0x40 MLOAD SWAP2 POP PUSH1 0x1F NOT PUSH1 0x3F RETURNDATASIZE ADD AND DUP3 ADD PUSH1 0x40 MSTORE RETURNDATASIZE DUP3 MSTORE RETURNDATASIZE PUSH1 0x0 PUSH1 0x20 DUP5 ADD RETURNDATACOPY PUSH2 0x3A57 JUMP JUMPDEST PUSH1 0x60 SWAP2 POP JUMPDEST POP SWAP2 POP SWAP2 POP PUSH2 0x3A68 DUP7 DUP4 DUP4 DUP8 PUSH2 0x3B64 JUMP JUMPDEST SWAP7 SWAP6 POP POP POP POP POP POP JUMP JUMPDEST PUSH1 0x60 DUP3 SELFBALANCE LT ISZERO PUSH2 0x3AEA JUMPI PUSH1 0x40 MLOAD PUSH3 0x461BCD PUSH1 0xE5 SHL DUP2 MSTORE PUSH1 0x20 PUSH1 0x4 DUP3 ADD MSTORE PUSH1 0x26 PUSH1 0x24 DUP3 ADD MSTORE PUSH32 0x416464726573733A20696E73756666696369656E742062616C616E636520666F PUSH1 0x44 DUP3 ADD MSTORE PUSH32 0x722063616C6C0000000000000000000000000000000000000000000000000000 PUSH1 0x64 DUP3 ADD MSTORE PUSH1 0x84 ADD PUSH2 0xDD3 JUMP JUMPDEST PUSH1 0x0 DUP1 DUP7 PUSH1 0x1 PUSH1 0x1 PUSH1 0xA0 SHL SUB AND DUP6 DUP8 PUSH1 0x40 MLOAD PUSH2 0x3B06 SWAP2 SWAP1 PUSH2 0x4402 JUMP JUMPDEST PUSH1 0x0 PUSH1 0x40 MLOAD DUP1 DUP4 SUB DUP2 DUP6 DUP8 GAS CALL SWAP3 POP POP POP RETURNDATASIZE DUP1 PUSH1 0x0 DUP2 EQ PUSH2 0x3B43 JUMPI PUSH1 0x40 MLOAD SWAP2 POP PUSH1 0x1F NOT PUSH1 0x3F RETURNDATASIZE ADD AND DUP3 ADD PUSH1 0x40 MSTORE RETURNDATASIZE DUP3 MSTORE RETURNDATASIZE PUSH1 0x0 PUSH1 0x20 DUP5 ADD RETURNDATACOPY PUSH2 0x3B48 JUMP JUMPDEST PUSH1 0x60 SWAP2 POP JUMPDEST POP SWAP2 POP SWAP2 POP PUSH2 0x3B59 DUP8 DUP4 DUP4 DUP8 PUSH2 0x3B64 JUMP JUMPDEST SWAP8 SWAP7 POP POP POP POP POP POP POP JUMP JUMPDEST PUSH1 0x60 DUP4 ISZERO PUSH2 0x3BD3 JUMPI DUP3 MLOAD PUSH1 0x0 SUB PUSH2 0x3BCC JUMPI PUSH1 0x1 PUSH1 0x1 PUSH1 0xA0 SHL SUB DUP6 AND EXTCODESIZE PUSH2 0x3BCC JUMPI PUSH1 0x40 MLOAD PUSH3 0x461BCD PUSH1 0xE5 SHL DUP2 MSTORE PUSH1 0x20 PUSH1 0x4 DUP3 ADD MSTORE PUSH1 0x1D PUSH1 0x24 DUP3 ADD MSTORE PUSH32 0x416464726573733A2063616C6C20746F206E6F6E2D636F6E7472616374000000 PUSH1 0x44 DUP3 ADD MSTORE PUSH1 0x64 ADD PUSH2 0xDD3 JUMP JUMPDEST POP DUP2 PUSH2 0xD5A JUMP JUMPDEST PUSH2 0xD5A DUP4 DUP4 DUP2 MLOAD ISZERO PUSH2 0x3BE8 JUMPI DUP2 MLOAD DUP1 DUP4 PUSH1 0x20 ADD REVERT JUMPDEST DUP1 PUSH1 0x40 MLOAD PUSH3 0x461BCD PUSH1 0xE5 SHL DUP2 MSTORE PUSH1 0x4 ADD PUSH2 0xDD3 SWAP2 SWAP1 PUSH2 0x3C6B JUMP JUMPDEST PUSH1 0x0 PUSH1 0x20 DUP3 DUP5 SUB SLT ISZERO PUSH2 0x3C14 JUMPI PUSH1 0x0 DUP1 REVERT JUMPDEST POP CALLDATALOAD SWAP2 SWAP1 POP JUMP JUMPDEST PUSH1 0x0 JUMPDEST DUP4 DUP2 LT ISZERO PUSH2 0x3C36 JUMPI DUP2 DUP2 ADD MLOAD DUP4 DUP3 ADD MSTORE PUSH1 0x20 ADD PUSH2 0x3C1E JUMP JUMPDEST POP POP PUSH1 0x0 SWAP2 ADD MSTORE JUMP JUMPDEST PUSH1 0x0 DUP2 MLOAD DUP1 DUP5 MSTORE PUSH2 0x3C57 DUP2 PUSH1 0x20 DUP7 ADD PUSH1 0x20 DUP7 ADD PUSH2 0x3C1B JUMP JUMPDEST PUSH1 0x1F ADD PUSH1 0x1F NOT AND SWAP3 SWAP1 SWAP3 ADD PUSH1 0x20 ADD SWAP3 SWAP2 POP POP JUMP JUMPDEST PUSH1 0x20 DUP2 MSTORE PUSH1 0x0 PUSH2 0x1D6C PUSH1 0x20 DUP4 ADD DUP5 PUSH2 0x3C3F JUMP JUMPDEST PUSH1 0x1 PUSH1 0x1 PUSH1 0xA0 SHL SUB DUP2 AND DUP2 EQ PUSH2 0x128B JUMPI PUSH1 0x0 DUP1 REVERT JUMPDEST PUSH1 0x0 DUP1 PUSH1 0x40 DUP4 DUP6 SUB SLT ISZERO PUSH2 0x3CA6 JUMPI PUSH1 0x0 DUP1 REVERT JUMPDEST DUP3 CALLDATALOAD PUSH2 0x3CB1 DUP2 PUSH2 0x3C7E JUMP JUMPDEST SWAP5 PUSH1 0x20 SWAP4 SWAP1 SWAP4 ADD CALLDATALOAD SWAP4 POP POP POP JUMP JUMPDEST PUSH4 0x4E487B71 PUSH1 0xE0 SHL PUSH1 0x0 MSTORE PUSH1 0x41 PUSH1 0x4 MSTORE PUSH1 0x24 PUSH1 0x0 REVERT JUMPDEST PUSH1 0x40 MLOAD PUSH2 0x160 DUP2 ADD PUSH8 0xFFFFFFFFFFFFFFFF DUP2 GT DUP3 DUP3 LT OR ISZERO PUSH2 0x3CF9 JUMPI PUSH2 0x3CF9 PUSH2 0x3CBF JUMP JUMPDEST PUSH1 0x40 MSTORE SWAP1 JUMP JUMPDEST PUSH1 0x40 MLOAD PUSH1 0x1F DUP3 ADD PUSH1 0x1F NOT AND DUP2 ADD PUSH8 0xFFFFFFFFFFFFFFFF DUP2 GT DUP3 DUP3 LT OR ISZERO PUSH2 0x3D28 JUMPI PUSH2 0x3D28 PUSH2 0x3CBF JUMP JUMPDEST PUSH1 0x40 MSTORE SWAP2 SWAP1 POP JUMP JUMPDEST PUSH1 0x0 DUP3 PUSH1 0x1F DUP4 ADD SLT PUSH2 0x3D41 JUMPI PUSH1 0x0 DUP1 REVERT JUMPDEST DUP2 CALLDATALOAD PUSH8 0xFFFFFFFFFFFFFFFF DUP2 GT ISZERO PUSH2 0x3D5B JUMPI PUSH2 0x3D5B PUSH2 0x3CBF JUMP JUMPDEST PUSH2 0x3D6E PUSH1 0x1F DUP3 ADD PUSH1 0x1F NOT AND PUSH1 0x20 ADD PUSH2 0x3CFF JUMP JUMPDEST DUP2 DUP2 MSTORE DUP5 PUSH1 0x20 DUP4 DUP7 ADD ADD GT ISZERO PUSH2 0x3D83 JUMPI PUSH1 0x0 DUP1 REVERT JUMPDEST DUP2 PUSH1 0x20 DUP6 ADD PUSH1 0x20 DUP4 ADD CALLDATACOPY PUSH1 0x0 SWAP2 DUP2 ADD PUSH1 0x20 ADD SWAP2 SWAP1 SWAP2 MSTORE SWAP4 SWAP3 POP POP POP JUMP JUMPDEST PUSH1 0x0 DUP1 PUSH1 0x0 DUP1 PUSH1 0x80 DUP6 DUP8 SUB SLT ISZERO PUSH2 0x3DB6 JUMPI PUSH1 0x0 DUP1 REVERT JUMPDEST DUP5 CALLDATALOAD PUSH2 0x3DC1 DUP2 PUSH2 0x3C7E JUMP JUMPDEST SWAP4 POP PUSH1 0x20 DUP6 ADD CALLDATALOAD PUSH2 0x3DD1 DUP2 PUSH2 0x3C7E JUMP JUMPDEST SWAP3 POP PUSH1 0x40 DUP6 ADD CALLDATALOAD SWAP2 POP PUSH1 0x60 DUP6 ADD CALLDATALOAD PUSH8 0xFFFFFFFFFFFFFFFF DUP2 GT ISZERO PUSH2 0x3DF4 JUMPI PUSH1 0x0 DUP1 REVERT JUMPDEST PUSH2 0x3E00 DUP8 DUP3 DUP9 ADD PUSH2 0x3D30 JUMP JUMPDEST SWAP2 POP POP SWAP3 SWAP6 SWAP2 SWAP5 POP SWAP3 POP JUMP JUMPDEST PUSH1 0x0 PUSH1 0x20 DUP3 DUP5 SUB SLT ISZERO PUSH2 0x3E1E JUMPI PUSH1 0x0 DUP1 REVERT JUMPDEST DUP2 CALLDATALOAD PUSH2 0x1D6C DUP2 PUSH2 0x3C7E JUMP JUMPDEST PUSH1 0x0 DUP1 PUSH1 0x0 PUSH1 0x60 DUP5 DUP7 SUB SLT ISZERO PUSH2 0x3E3E JUMPI PUSH1 0x0 DUP1 REVERT JUMPDEST DUP4 CALLDATALOAD PUSH2 0x3E49 DUP2 PUSH2 0x3C7E JUMP JUMPDEST SWAP3 POP PUSH1 0x20 DUP5 ADD CALLDATALOAD PUSH2 0x3E59 DUP2 PUSH2 0x3C7E JUMP JUMPDEST SWAP3 SWAP6 SWAP3 SWAP5 POP POP POP PUSH1 0x40 SWAP2 SWAP1 SWAP2 ADD CALLDATALOAD SWAP1 JUMP JUMPDEST PUSH1 0x0 DUP1 PUSH1 0x40 DUP4 DUP6 SUB SLT ISZERO PUSH2 0x3E7D JUMPI PUSH1 0x0 DUP1 REVERT JUMPDEST POP POP DUP1 CALLDATALOAD SWAP3 PUSH1 0x20 SWAP1 SWAP2 ADD CALLDATALOAD SWAP2 POP JUMP JUMPDEST PUSH1 0x20 DUP1 DUP3 MSTORE DUP3 MLOAD DUP3 DUP3 ADD DUP2 SWAP1 MSTORE PUSH1 0x0 SWAP2 SWAP1 PUSH1 0x40 SWAP1 DUP2 DUP6 ADD SWAP1 DUP7 DUP5 ADD DUP6 JUMPDEST DUP3 DUP2 LT ISZERO PUSH2 0x3EE1 JUMPI DUP2 MLOAD DUP1 MLOAD DUP6 MSTORE DUP7 DUP2 ADD MLOAD DUP8 DUP7 ADD MSTORE DUP6 ADD MLOAD PUSH1 0x1 PUSH1 0x1 PUSH1 0xA0 SHL SUB AND DUP6 DUP6 ADD MSTORE PUSH1 0x60 SWAP1 SWAP4 ADD SWAP3 SWAP1 DUP6 ADD SWAP1 PUSH1 0x1 ADD PUSH2 0x3EA9 JUMP JUMPDEST POP SWAP2 SWAP8 SWAP7 POP POP POP POP POP POP POP JUMP JUMPDEST PUSH1 0x0 DUP1 PUSH1 0x40 DUP4 DUP6 SUB SLT ISZERO PUSH2 0x3F01 JUMPI PUSH1 0x0 DUP1 REVERT JUMPDEST DUP3 CALLDATALOAD PUSH2 0x3F0C DUP2 PUSH2 0x3C7E JUMP JUMPDEST SWAP2 POP PUSH1 0x20 DUP4 ADD CALLDATALOAD PUSH2 0x3F1C DUP2 PUSH2 0x3C7E JUMP JUMPDEST DUP1 SWAP2 POP POP SWAP3 POP SWAP3 SWAP1 POP JUMP JUMPDEST PUSH1 0x0 DUP1 PUSH1 0x0 PUSH1 0x60 DUP5 DUP7 SUB SLT ISZERO PUSH2 0x3F3C JUMPI PUSH1 0x0 DUP1 REVERT JUMPDEST DUP4 CALLDATALOAD PUSH2 0x3F47 DUP2 PUSH2 0x3C7E JUMP JUMPDEST SWAP3 POP PUSH1 0x20 DUP5 ADD CALLDATALOAD SWAP2 POP PUSH1 0x40 DUP5 ADD CALLDATALOAD PUSH2 0x3F5E DUP2 PUSH2 0x3C7E JUMP JUMPDEST DUP1 SWAP2 POP POP SWAP3 POP SWAP3 POP SWAP3 JUMP JUMPDEST PUSH1 0x0 DUP1 PUSH1 0x40 DUP4 DUP6 SUB SLT ISZERO PUSH2 0x3F7C JUMPI PUSH1 0x0 DUP1 REVERT JUMPDEST DUP3 CALLDATALOAD PUSH2 0x3F87 DUP2 PUSH2 0x3C7E JUMP JUMPDEST SWAP2 POP PUSH1 0x20 DUP4 ADD CALLDATALOAD PUSH8 0xFFFFFFFFFFFFFFFF DUP2 GT ISZERO PUSH2 0x3FA3 JUMPI PUSH1 0x0 DUP1 REVERT JUMPDEST PUSH2 0x3FAF DUP6 DUP3 DUP7 ADD PUSH2 0x3D30 JUMP JUMPDEST SWAP2 POP POP SWAP3 POP SWAP3 SWAP1 POP JUMP JUMPDEST PUSH32 0xFF00000000000000000000000000000000000000000000000000000000000000 DUP9 AND DUP2 MSTORE PUSH1 0x0 PUSH1 0x20 PUSH1 0xE0 PUSH1 0x20 DUP5 ADD MSTORE PUSH2 0x3FF6 PUSH1 0xE0 DUP5 ADD DUP11 PUSH2 0x3C3F JUMP JUMPDEST DUP4 DUP2 SUB PUSH1 0x40 DUP6 ADD MSTORE PUSH2 0x4008 DUP2 DUP11 PUSH2 0x3C3F JUMP JUMPDEST PUSH1 0x60 DUP6 ADD DUP10 SWAP1 MSTORE PUSH1 0x1 PUSH1 0x1 PUSH1 0xA0 SHL SUB DUP9 AND PUSH1 0x80 DUP7 ADD MSTORE PUSH1 0xA0 DUP6 ADD DUP8 SWAP1 MSTORE DUP5 DUP2 SUB PUSH1 0xC0 DUP7 ADD MSTORE DUP6 MLOAD DUP1 DUP3 MSTORE PUSH1 0x20 DUP1 DUP9 ADD SWAP4 POP SWAP1 SWAP2 ADD SWAP1 PUSH1 0x0 JUMPDEST DUP2 DUP2 LT ISZERO PUSH2 0x405C JUMPI DUP4 MLOAD DUP4 MSTORE SWAP3 DUP5 ADD SWAP3 SWAP2 DUP5 ADD SWAP2 PUSH1 0x1 ADD PUSH2 0x4040 JUMP JUMPDEST POP SWAP1 SWAP13 SWAP12 POP POP POP POP POP POP POP POP POP POP POP POP JUMP JUMPDEST DUP1 ISZERO ISZERO DUP2 EQ PUSH2 0x128B JUMPI PUSH1 0x0 DUP1 REVERT JUMPDEST PUSH1 0x0 DUP1 PUSH1 0x40 DUP4 DUP6 SUB SLT ISZERO PUSH2 0x408F JUMPI PUSH1 0x0 DUP1 REVERT JUMPDEST DUP3 CALLDATALOAD PUSH2 0x409A DUP2 PUSH2 0x3C7E JUMP JUMPDEST SWAP2 POP PUSH1 0x20 DUP4 ADD CALLDATALOAD PUSH2 0x3F1C DUP2 PUSH2 0x406E JUMP JUMPDEST PUSH1 0x0 DUP1 PUSH1 0x0 DUP1 PUSH1 0x0 DUP1 PUSH1 0x0 PUSH1 0xE0 DUP9 DUP11 SUB SLT ISZERO PUSH2 0x40C5 JUMPI PUSH1 0x0 DUP1 REVERT JUMPDEST DUP8 CALLDATALOAD PUSH2 0x40D0 DUP2 PUSH2 0x3C7E JUMP JUMPDEST SWAP7 POP PUSH1 0x20 DUP9 ADD CALLDATALOAD PUSH2 0x40E0 DUP2 PUSH2 0x3C7E JUMP JUMPDEST SWAP6 POP PUSH1 0x40 DUP9 ADD CALLDATALOAD SWAP5 POP PUSH1 0x60 DUP9 ADD CALLDATALOAD SWAP4 POP PUSH1 0x80 DUP9 ADD CALLDATALOAD PUSH1 0xFF DUP2 AND DUP2 EQ PUSH2 0x4104 JUMPI PUSH1 0x0 DUP1 REVERT JUMPDEST SWAP7 SWAP10 SWAP6 SWAP9 POP SWAP4 SWAP7 SWAP3 SWAP6 SWAP5 PUSH1 0xA0 DUP5 ADD CALLDATALOAD SWAP5 POP PUSH1 0xC0 SWAP1 SWAP4 ADD CALLDATALOAD SWAP3 SWAP2 POP POP JUMP JUMPDEST PUSH1 0x1 DUP2 DUP2 SHR SWAP1 DUP3 AND DUP1 PUSH2 0x4135 JUMPI PUSH1 0x7F DUP3 AND SWAP2 POP JUMPDEST PUSH1 0x20 DUP3 LT DUP2 SUB PUSH2 0x31B0 JUMPI PUSH4 0x4E487B71 PUSH1 0xE0 SHL PUSH1 0x0 MSTORE PUSH1 0x22 PUSH1 0x4 MSTORE PUSH1 0x24 PUSH1 0x0 REVERT JUMPDEST PUSH1 0x0 PUSH1 0x1 PUSH1 0x1 PUSH1 0xA0 SHL SUB DUP1 DUP8 AND DUP4 MSTORE DUP1 DUP7 AND PUSH1 0x20 DUP5 ADD MSTORE POP DUP4 PUSH1 0x40 DUP4 ADD MSTORE PUSH1 0x80 PUSH1 0x60 DUP4 ADD MSTORE PUSH2 0x3A68 PUSH1 0x80 DUP4 ADD DUP5 PUSH2 0x3C3F JUMP JUMPDEST PUSH1 0x0 DUP3 PUSH1 0x1F DUP4 ADD SLT PUSH2 0x4198 JUMPI PUSH1 0x0 DUP1 REVERT JUMPDEST DUP2 MLOAD PUSH1 0x20 PUSH8 0xFFFFFFFFFFFFFFFF DUP3 GT ISZERO PUSH2 0x41B4 JUMPI PUSH2 0x41B4 PUSH2 0x3CBF JUMP JUMPDEST DUP2 PUSH1 0x5 SHL PUSH2 0x41C3 DUP3 DUP3 ADD PUSH2 0x3CFF JUMP JUMPDEST SWAP3 DUP4 MSTORE DUP5 DUP2 ADD DUP3 ADD SWAP3 DUP3 DUP2 ADD SWAP1 DUP8 DUP6 GT ISZERO PUSH2 0x41DD JUMPI PUSH1 0x0 DUP1 REVERT JUMPDEST DUP4 DUP8 ADD SWAP3 POP JUMPDEST DUP5 DUP4 LT ISZERO PUSH2 0x3B59 JUMPI DUP3 MLOAD DUP3 MSTORE SWAP2 DUP4 ADD SWAP2 SWAP1 DUP4 ADD SWAP1 PUSH2 0x41E3 JUMP JUMPDEST DUP1 MLOAD PUSH2 0x4207 DUP2 PUSH2 0x406E JUMP JUMPDEST SWAP2 SWAP1 POP JUMP JUMPDEST PUSH1 0x0 DUP1 PUSH1 0x40 DUP4 DUP6 SUB SLT ISZERO PUSH2 0x421F JUMPI PUSH1 0x0 DUP1 REVERT JUMPDEST DUP3 MLOAD PUSH8 0xFFFFFFFFFFFFFFFF DUP1 DUP3 GT ISZERO PUSH2 0x4237 JUMPI PUSH1 0x0 DUP1 REVERT JUMPDEST SWAP1 DUP5 ADD SWAP1 PUSH2 0x160 DUP3 DUP8 SUB SLT ISZERO PUSH2 0x424C JUMPI PUSH1 0x0 DUP1 REVERT JUMPDEST PUSH2 0x4254 PUSH2 0x3CD5 JUMP JUMPDEST DUP3 MLOAD DUP2 MSTORE PUSH1 0x20 DUP4 ADD MLOAD PUSH1 0x20 DUP3 ADD MSTORE PUSH1 0x40 DUP4 ADD MLOAD PUSH1 0x40 DUP3 ADD MSTORE PUSH1 0x60 DUP4 ADD MLOAD PUSH1 0x60 DUP3 ADD MSTORE PUSH1 0x80 DUP4 ADD MLOAD PUSH1 0x80 DUP3 ADD MSTORE PUSH1 0xA0 DUP4 ADD MLOAD PUSH1 0xA0 DUP3 ADD MSTORE PUSH1 0xC0 DUP4 ADD MLOAD PUSH1 0xC0 DUP3 ADD MSTORE PUSH1 0xE0 DUP4 ADD MLOAD PUSH1 0xE0 DUP3 ADD MSTORE PUSH2 0x100 DUP1 DUP5 ADD MLOAD DUP4 DUP2 GT ISZERO PUSH2 0x42B2 JUMPI PUSH1 0x0 DUP1 REVERT JUMPDEST PUSH2 0x42BE DUP10 DUP3 DUP8 ADD PUSH2 0x4187 JUMP JUMPDEST DUP3 DUP5 ADD MSTORE POP POP PUSH2 0x120 DUP1 DUP5 ADD MLOAD DUP4 DUP2 GT ISZERO PUSH2 0x42D8 JUMPI PUSH1 0x0 DUP1 REVERT JUMPDEST PUSH2 0x42E4 DUP10 DUP3 DUP8 ADD PUSH2 0x4187 JUMP JUMPDEST DUP3 DUP5 ADD MSTORE POP POP PUSH2 0x140 DUP1 DUP5 ADD MLOAD DUP4 DUP2 GT ISZERO PUSH2 0x42FE JUMPI PUSH1 0x0 DUP1 REVERT JUMPDEST PUSH2 0x430A DUP10 DUP3 DUP8 ADD PUSH2 0x4187 JUMP JUMPDEST DUP3 DUP5 ADD MSTORE POP POP DUP1 SWAP5 POP POP POP POP PUSH2 0x4322 PUSH1 0x20 DUP5 ADD PUSH2 0x41FC JUMP JUMPDEST SWAP1 POP SWAP3 POP SWAP3 SWAP1 POP JUMP JUMPDEST PUSH4 0x4E487B71 PUSH1 0xE0 SHL PUSH1 0x0 MSTORE PUSH1 0x32 PUSH1 0x4 MSTORE PUSH1 0x24 PUSH1 0x0 REVERT JUMPDEST PUSH1 0x0 PUSH1 0x20 DUP3 DUP5 SUB SLT ISZERO PUSH2 0x4353 JUMPI PUSH1 0x0 DUP1 REVERT JUMPDEST POP MLOAD SWAP2 SWAP1 POP JUMP JUMPDEST PUSH4 0x4E487B71 PUSH1 0xE0 SHL PUSH1 0x0 MSTORE PUSH1 0x11 PUSH1 0x4 MSTORE PUSH1 0x24 PUSH1 0x0 REVERT JUMPDEST DUP1 DUP3 ADD DUP1 DUP3 GT ISZERO PUSH2 0xB59 JUMPI PUSH2 0xB59 PUSH2 0x435A JUMP JUMPDEST DUP2 DUP2 SUB DUP2 DUP2 GT ISZERO PUSH2 0xB59 JUMPI PUSH2 0xB59 PUSH2 0x435A JUMP JUMPDEST DUP1 DUP3 MUL DUP2 ISZERO DUP3 DUP3 DIV DUP5 EQ OR PUSH2 0xB59 JUMPI PUSH2 0xB59 PUSH2 0x435A JUMP JUMPDEST PUSH1 0x0 DUP3 PUSH2 0x43CA JUMPI PUSH4 0x4E487B71 PUSH1 0xE0 SHL PUSH1 0x0 MSTORE PUSH1 0x12 PUSH1 0x4 MSTORE PUSH1 0x24 PUSH1 0x0 REVERT JUMPDEST POP DIV SWAP1 JUMP JUMPDEST PUSH1 0x0 PUSH1 0x20 DUP3 DUP5 SUB SLT ISZERO PUSH2 0x43E1 JUMPI PUSH1 0x0 DUP1 REVERT JUMPDEST DUP2 MLOAD PUSH2 0x1D6C DUP2 PUSH2 0x406E JUMP JUMPDEST PUSH4 0x4E487B71 PUSH1 0xE0 SHL PUSH1 0x0 MSTORE PUSH1 0x21 PUSH1 0x4 MSTORE PUSH1 0x24 PUSH1 0x0 REVERT JUMPDEST PUSH1 0x0 DUP3 MLOAD PUSH2 0x4414 DUP2 DUP5 PUSH1 0x20 DUP8 ADD PUSH2 0x3C1B JUMP JUMPDEST SWAP2 SWAP1 SWAP2 ADD SWAP3 SWAP2 POP POP JUMP INVALID COINBASE PUSH5 0x6472657373 GASPRICE KECCAK256 PUSH13 0x6F772D6C6576656C2064656C65 PUSH8 0x6174652063616C6C KECCAK256 PUSH7 0x61696C6564A264 PUSH10 0x7066735822122098CFEF 0xAA 0xBA EXTCODECOPY PUSH18 0x4FD3BC963A3563F436E60CC2D0D7D537E66E 0xE2 0xB2 0x28 PUSH26 0x12E5F964736F6C63430008180033000000000000000000000000 "},"gasEstimates":{"creation":{"codeDepositCost":"3506200","executionCost":"infinite","totalCost":"infinite"},"external":{"DOMAIN_SEPARATOR()":"infinite","allowance(address,address)":"infinite","approve(address,uint256)":"24713","approveForAllAsOwner(address,bool)":"infinite","balanceOf(address)":"2664","changeVRFValue(uint256)":"24600","claimablePlanets(address,uint256)":"11365","claimableTokenIdToOwnerAddress(uint256)":"2536","conjunct(uint256,uint256)":"infinite","deList(uint256,uint256)":"infinite","deListAllYourPlanets()":"235","decimals()":"289","decreaseAllowance(address,uint256)":"27027","eip712Domain()":"infinite","getAllPlanets()":"infinite","getPlanetsPaginated(uint256,uint256)":"infinite","increaseAllowance(address,uint256)":"infinite","initialize()":"infinite","listAllYourPlanets()":"192","name()":"infinite","nonces(address)":"2656","onERC721Received(address,address,uint256,bytes)":"infinite","owner()":"2432","pause()":"infinite","paused()":"2393","payee(uint256)":"4698","permit(address,address,uint256,uint256,uint8,bytes32,bytes32)":"infinite","proxiableUUID()":"infinite","releasable(address)":"infinite","releasable(address,address)":"infinite","release(address)":"infinite","release(address,address)":"infinite","released(address)":"2620","released(address,address)":"infinite","renounceOwnership()":"infinite","setAllOf(address,uint256,address)":"infinite","setTAdd(address)":"26818","shares(address)":"2642","status()":"infinite","symbol()":"infinite","totalReleased()":"2402","totalReleased(address)":"2642","totalShares()":"2405","totalSupply()":"2372","transfer(address,uint256)":"51121","transferFrom(address,address,uint256)":"infinite","transferOwnership(address)":"infinite","unpause()":"infinite","upgradeTo(address)":"infinite","upgradeToAndCall(address,bytes)":"infinite","userToListedPlanets(address,uint256)":"9129","withdrawFunds()":"infinite"},"internal":{"_authorizeUpgrade(address)":"infinite","_sendNFT(uint256,address)":"infinite","list(uint256,uint256,address)":"infinite","priceOfListingRetrieval(uint256)":"infinite","setDeliveryToTrue(address[2] memory)":"infinite"}},"methodIdentifiers":{"DOMAIN_SEPARATOR()":"3644e515","allowance(address,address)":"dd62ed3e","approve(address,uint256)":"095ea7b3","approveForAllAsOwner(address,bool)":"d28eb2dc","balanceOf(address)":"70a08231","changeVRFValue(uint256)":"c7c0e6b1","claimablePlanets(address,uint256)":"e22aecb4","claimableTokenIdToOwnerAddress(uint256)":"064db874","conjunct(uint256,uint256)":"8230a784","deList(uint256,uint256)":"cbdf1b5a","deListAllYourPlanets()":"50842cf3","decimals()":"313ce567","decreaseAllowance(address,uint256)":"a457c2d7","eip712Domain()":"84b0196e","getAllPlanets()":"6a23befb","getPlanetsPaginated(uint256,uint256)":"25947818","increaseAllowance(address,uint256)":"39509351","initialize()":"8129fc1c","listAllYourPlanets()":"1ac9a91e","name()":"06fdde03","nonces(address)":"7ecebe00","onERC721Received(address,address,uint256,bytes)":"150b7a02","owner()":"8da5cb5b","pause()":"8456cb59","paused()":"5c975abb","payee(uint256)":"8b83209b","permit(address,address,uint256,uint256,uint8,bytes32,bytes32)":"d505accf","proxiableUUID()":"52d1902d","releasable(address)":"a3f8eace","releasable(address,address)":"c45ac050","release(address)":"19165587","release(address,address)":"48b75044","released(address)":"9852595c","released(address,address)":"406072a9","renounceOwnership()":"715018a6","setAllOf(address,uint256,address)":"4a02099b","setTAdd(address)":"cdb82a37","shares(address)":"ce7c2ac2","status()":"200d2ed2","symbol()":"95d89b41","totalReleased()":"e33b7de3","totalReleased(address)":"d79779b2","totalShares()":"3a98ef39","totalSupply()":"18160ddd","transfer(address,uint256)":"a9059cbb","transferFrom(address,address,uint256)":"23b872dd","transferOwnership(address)":"f2fde38b","unpause()":"3f4ba83a","upgradeTo(address)":"3659cfe6","upgradeToAndCall(address,bytes)":"4f1ef286","userToListedPlanets(address,uint256)":"85fe7243","withdrawFunds()":"24600fc3"}},"storageLayout":{"storage":[{"astId":1031,"contract":"contracts/HatcherV1.sol:HatcherV1","label":"_initialized","offset":0,"slot":"0","type":"t_uint8"},{"astId":1034,"contract":"contracts/HatcherV1.sol:HatcherV1","label":"_initializing","offset":1,"slot":"0","type":"t_bool"},{"astId":3176,"contract":"contracts/HatcherV1.sol:HatcherV1","label":"__gap","offset":0,"slot":"1","type":"t_array(t_uint256)50_storage"},{"astId":1352,"contract":"contracts/HatcherV1.sol:HatcherV1","label":"_paused","offset":0,"slot":"51","type":"t_bool"},{"astId":1457,"contract":"contracts/HatcherV1.sol:HatcherV1","label":"__gap","offset":0,"slot":"52","type":"t_array(t_uint256)49_storage"},{"astId":1013,"contract":"contracts/HatcherV1.sol:HatcherV1","label":"__gap","offset":0,"slot":"101","type":"t_array(t_uint256)50_storage"},{"astId":1329,"contract":"contracts/HatcherV1.sol:HatcherV1","label":"__gap","offset":0,"slot":"151","type":"t_array(t_uint256)50_storage"},{"astId":1478,"contract":"contracts/HatcherV1.sol:HatcherV1","label":"_balances","offset":0,"slot":"201","type":"t_mapping(t_address,t_uint256)"},{"astId":1484,"contract":"contracts/HatcherV1.sol:HatcherV1","label":"_allowances","offset":0,"slot":"202","type":"t_mapping(t_address,t_mapping(t_address,t_uint256))"},{"astId":1486,"contract":"contracts/HatcherV1.sol:HatcherV1","label":"_totalSupply","offset":0,"slot":"203","type":"t_uint256"},{"astId":1488,"contract":"contracts/HatcherV1.sol:HatcherV1","label":"_name","offset":0,"slot":"204","type":"t_string_storage"},{"astId":1490,"contract":"contracts/HatcherV1.sol:HatcherV1","label":"_symbol","offset":0,"slot":"205","type":"t_string_storage"},{"astId":2070,"contract":"contracts/HatcherV1.sol:HatcherV1","label":"__gap","offset":0,"slot":"206","type":"t_array(t_uint256)45_storage"},{"astId":3975,"contract":"contracts/HatcherV1.sol:HatcherV1","label":"_hashedName","offset":0,"slot":"251","type":"t_bytes32"},{"astId":3978,"contract":"contracts/HatcherV1.sol:HatcherV1","label":"_hashedVersion","offset":0,"slot":"252","type":"t_bytes32"},{"astId":3980,"contract":"contracts/HatcherV1.sol:HatcherV1","label":"_name","offset":0,"slot":"253","type":"t_string_storage"},{"astId":3982,"contract":"contracts/HatcherV1.sol:HatcherV1","label":"_version","offset":0,"slot":"254","type":"t_string_storage"},{"astId":4240,"contract":"contracts/HatcherV1.sol:HatcherV1","label":"__gap","offset":0,"slot":"255","type":"t_array(t_uint256)48_storage"},{"astId":2176,"contract":"contracts/HatcherV1.sol:HatcherV1","label":"_nonces","offset":0,"slot":"303","type":"t_mapping(t_address,t_struct(Counter)3183_storage)"},{"astId":2184,"contract":"contracts/HatcherV1.sol:HatcherV1","label":"_PERMIT_TYPEHASH_DEPRECATED_SLOT","offset":0,"slot":"304","type":"t_bytes32"},{"astId":2340,"contract":"contracts/HatcherV1.sol:HatcherV1","label":"__gap","offset":0,"slot":"305","type":"t_array(t_uint256)49_storage"},{"astId":173,"contract":"contracts/HatcherV1.sol:HatcherV1","label":"_totalShares","offset":0,"slot":"354","type":"t_uint256"},{"astId":175,"contract":"contracts/HatcherV1.sol:HatcherV1","label":"_totalReleased","offset":0,"slot":"355","type":"t_uint256"},{"astId":179,"contract":"contracts/HatcherV1.sol:HatcherV1","label":"_shares","offset":0,"slot":"356","type":"t_mapping(t_address,t_uint256)"},{"astId":183,"contract":"contracts/HatcherV1.sol:HatcherV1","label":"_released","offset":0,"slot":"357","type":"t_mapping(t_address,t_uint256)"},{"astId":186,"contract":"contracts/HatcherV1.sol:HatcherV1","label":"_payees","offset":0,"slot":"358","type":"t_array(t_address)dyn_storage"},{"astId":191,"contract":"contracts/HatcherV1.sol:HatcherV1","label":"_erc20TotalReleased","offset":0,"slot":"359","type":"t_mapping(t_contract(IERC20Upgradeable)2149,t_uint256)"},{"astId":198,"contract":"contracts/HatcherV1.sol:HatcherV1","label":"_erc20Released","offset":0,"slot":"360","type":"t_mapping(t_contract(IERC20Upgradeable)2149,t_mapping(t_address,t_uint256))"},{"astId":632,"contract":"contracts/HatcherV1.sol:HatcherV1","label":"__gap","offset":0,"slot":"361","type":"t_array(t_uint256)43_storage"},{"astId":11,"contract":"contracts/HatcherV1.sol:HatcherV1","label":"_owner","offset":0,"slot":"404","type":"t_address"},{"astId":131,"contract":"contracts/HatcherV1.sol:HatcherV1","label":"__gap","offset":0,"slot":"405","type":"t_array(t_uint256)49_storage"},{"astId":5681,"contract":"contracts/HatcherV1.sol:HatcherV1","label":"breedContract","offset":0,"slot":"454","type":"t_contract(IBreedContract)5576"},{"astId":5683,"contract":"contracts/HatcherV1.sol:HatcherV1","label":"treasuryAddr","offset":0,"slot":"455","type":"t_address_payable"},{"astId":5686,"contract":"contracts/HatcherV1.sol:HatcherV1","label":"nftPlanetContract","offset":0,"slot":"456","type":"t_contract(IERC721)5562"},{"astId":5688,"contract":"contracts/HatcherV1.sol:HatcherV1","label":"vrfValue","offset":0,"slot":"457","type":"t_uint256"},{"astId":5694,"contract":"contracts/HatcherV1.sol:HatcherV1","label":"userToListedPlanets","offset":0,"slot":"458","type":"t_mapping(t_address,t_array(t_struct(ListedPlanet)5583_storage)dyn_storage)"},{"astId":5698,"contract":"contracts/HatcherV1.sol:HatcherV1","label":"planetsListed","offset":0,"slot":"459","type":"t_array(t_struct(ListedPlanet)5583_storage)dyn_storage"},{"astId":5702,"contract":"contracts/HatcherV1.sol:HatcherV1","label":"claimableTokenIdToOwnerAddress","offset":0,"slot":"460","type":"t_mapping(t_uint256,t_address)"},{"astId":5708,"contract":"contracts/HatcherV1.sol:HatcherV1","label":"claimablePlanets","offset":0,"slot":"461","type":"t_mapping(t_address,t_array(t_struct(ClaimablePlanet)5594_storage)dyn_storage)"}],"types":{"t_address":{"encoding":"inplace","label":"address","numberOfBytes":"20"},"t_address_payable":{"encoding":"inplace","label":"address payable","numberOfBytes":"20"},"t_array(t_address)dyn_storage":{"base":"t_address","encoding":"dynamic_array","label":"address[]","numberOfBytes":"32"},"t_array(t_struct(ClaimablePlanet)5594_storage)dyn_storage":{"base":"t_struct(ClaimablePlanet)5594_storage","encoding":"dynamic_array","label":"struct ClaimablePlanet[]","numberOfBytes":"32"},"t_array(t_struct(ListedPlanet)5583_storage)dyn_storage":{"base":"t_struct(ListedPlanet)5583_storage","encoding":"dynamic_array","label":"struct ListedPlanet[]","numberOfBytes":"32"},"t_array(t_uint256)43_storage":{"base":"t_uint256","encoding":"inplace","label":"uint256[43]","numberOfBytes":"1376"},"t_array(t_uint256)45_storage":{"base":"t_uint256","encoding":"inplace","label":"uint256[45]","numberOfBytes":"1440"},"t_array(t_uint256)48_storage":{"base":"t_uint256","encoding":"inplace","label":"uint256[48]","numberOfBytes":"1536"},"t_array(t_uint256)49_storage":{"base":"t_uint256","encoding":"inplace","label":"uint256[49]","numberOfBytes":"1568"},"t_array(t_uint256)50_storage":{"base":"t_uint256","encoding":"inplace","label":"uint256[50]","numberOfBytes":"1600"},"t_bool":{"encoding":"inplace","label":"bool","numberOfBytes":"1"},"t_bytes32":{"encoding":"inplace","label":"bytes32","numberOfBytes":"32"},"t_contract(IBreedContract)5576":{"encoding":"inplace","label":"contract IBreedContract","numberOfBytes":"20"},"t_contract(IERC20Upgradeable)2149":{"encoding":"inplace","label":"contract IERC20Upgradeable","numberOfBytes":"20"},"t_contract(IERC721)5562":{"encoding":"inplace","label":"contract IERC721","numberOfBytes":"20"},"t_mapping(t_address,t_array(t_struct(ClaimablePlanet)5594_storage)dyn_storage)":{"encoding":"mapping","key":"t_address","label":"mapping(address => struct ClaimablePlanet[])","numberOfBytes":"32","value":"t_array(t_struct(ClaimablePlanet)5594_storage)dyn_storage"},"t_mapping(t_address,t_array(t_struct(ListedPlanet)5583_storage)dyn_storage)":{"encoding":"mapping","key":"t_address","label":"mapping(address => struct ListedPlanet[])","numberOfBytes":"32","value":"t_array(t_struct(ListedPlanet)5583_storage)dyn_storage"},"t_mapping(t_address,t_mapping(t_address,t_uint256))":{"encoding":"mapping","key":"t_address","label":"mapping(address => mapping(address => uint256))","numberOfBytes":"32","value":"t_mapping(t_address,t_uint256)"},"t_mapping(t_address,t_struct(Counter)3183_storage)":{"encoding":"mapping","key":"t_address","label":"mapping(address => struct CountersUpgradeable.Counter)","numberOfBytes":"32","value":"t_struct(Counter)3183_storage"},"t_mapping(t_address,t_uint256)":{"encoding":"mapping","key":"t_address","label":"mapping(address => uint256)","numberOfBytes":"32","value":"t_uint256"},"t_mapping(t_contract(IERC20Upgradeable)2149,t_mapping(t_address,t_uint256))":{"encoding":"mapping","key":"t_contract(IERC20Upgradeable)2149","label":"mapping(contract IERC20Upgradeable => mapping(address => uint256))","numberOfBytes":"32","value":"t_mapping(t_address,t_uint256)"},"t_mapping(t_contract(IERC20Upgradeable)2149,t_uint256)":{"encoding":"mapping","key":"t_contract(IERC20Upgradeable)2149","label":"mapping(contract IERC20Upgradeable => uint256)","numberOfBytes":"32","value":"t_uint256"},"t_mapping(t_uint256,t_address)":{"encoding":"mapping","key":"t_uint256","label":"mapping(uint256 => address)","numberOfBytes":"32","value":"t_address"},"t_string_storage":{"encoding":"bytes","label":"string","numberOfBytes":"32"},"t_struct(ClaimablePlanet)5594_storage":{"encoding":"inplace","label":"struct ClaimablePlanet","members":[{"astId":5585,"contract":"contracts/HatcherV1.sol:HatcherV1","label":"ownerParentAddress","offset":0,"slot":"0","type":"t_address"},{"astId":5587,"contract":"contracts/HatcherV1.sol:HatcherV1","label":"ownerTokenId","offset":0,"slot":"1","type":"t_uint256"},{"astId":5589,"contract":"contracts/HatcherV1.sol:HatcherV1","label":"delivered","offset":0,"slot":"2","type":"t_bool"},{"astId":5591,"contract":"contracts/HatcherV1.sol:HatcherV1","label":"otherParent","offset":1,"slot":"2","type":"t_address"},{"astId":5593,"contract":"contracts/HatcherV1.sol:HatcherV1","label":"otherTokenId","offset":0,"slot":"3","type":"t_uint256"}],"numberOfBytes":"128"},"t_struct(Counter)3183_storage":{"encoding":"inplace","label":"struct CountersUpgradeable.Counter","members":[{"astId":3182,"contract":"contracts/HatcherV1.sol:HatcherV1","label":"_value","offset":0,"slot":"0","type":"t_uint256"}],"numberOfBytes":"32"},"t_struct(ListedPlanet)5583_storage":{"encoding":"inplace","label":"struct ListedPlanet","members":[{"astId":5578,"contract":"contracts/HatcherV1.sol:HatcherV1","label":"planet","offset":0,"slot":"0","type":"t_uint256"},{"astId":5580,"contract":"contracts/HatcherV1.sol:HatcherV1","label":"price","offset":0,"slot":"1","type":"t_uint256"},{"astId":5582,"contract":"contracts/HatcherV1.sol:HatcherV1","label":"ownerAddress","offset":0,"slot":"2","type":"t_address"}],"numberOfBytes":"96"},"t_uint256":{"encoding":"inplace","label":"uint256","numberOfBytes":"32"},"t_uint8":{"encoding":"inplace","label":"uint8","numberOfBytes":"1"}}},"userdoc":{"errors":{"Unauthorized()":[{"notice":"error given if user other than minter tries to use forbidden funcs"}]},"kind":"user","methods":{"initialize()":{"notice":"Initialization of contract, called upon deployment"},"pause()":{"notice":"pause any token transfers including mints and burns"},"setAllOf(address,uint256,address)":{"notice":"function should be run after deployment to set up defaults"},"setTAdd(address)":{"notice":"set URI.  Where metadata and images will come from per tokenId"},"unpause()":{"notice":"unpause any token transfers including mints and burns"},"withdrawFunds()":{"notice":"Allow Owner to withdraw of MATIC from the contract"}},"notice":"This contract allows for escrowed NFT breeding","version":1}}}}