{
  "_format": "hh-sol-artifact-1",
  "contractName": "HatcherV1",
  "sourceName": "contracts/HatcherV1.sol",
  "abi": [
    {
      "inputs": [],
      "name": "Unauthorized",
      "type": "error"
    },
    {
      "anonymous": false,
      "inputs": [
        {
          "indexed": false,
          "internalType": "address",
          "name": "previousAdmin",
          "type": "address"
        },
        {
          "indexed": false,
          "internalType": "address",
          "name": "newAdmin",
          "type": "address"
        }
      ],
      "name": "AdminChanged",
      "type": "event"
    },
    {
      "anonymous": false,
      "inputs": [
        {
          "indexed": true,
          "internalType": "address",
          "name": "owner",
          "type": "address"
        },
        {
          "indexed": true,
          "internalType": "address",
          "name": "spender",
          "type": "address"
        },
        {
          "indexed": false,
          "internalType": "uint256",
          "name": "value",
          "type": "uint256"
        }
      ],
      "name": "Approval",
      "type": "event"
    },
    {
      "anonymous": false,
      "inputs": [
        {
          "indexed": true,
          "internalType": "address",
          "name": "beacon",
          "type": "address"
        }
      ],
      "name": "BeaconUpgraded",
      "type": "event"
    },
    {
      "anonymous": false,
      "inputs": [
        {
          "indexed": false,
          "internalType": "address",
          "name": "sentToUser",
          "type": "address"
        },
        {
          "indexed": false,
          "internalType": "address",
          "name": "token",
          "type": "address"
        },
        {
          "indexed": false,
          "internalType": "uint256",
          "name": "tokenId",
          "type": "uint256"
        }
      ],
      "name": "DeListedAPlanet",
      "type": "event"
    },
    {
      "anonymous": false,
      "inputs": [],
      "name": "EIP712DomainChanged",
      "type": "event"
    },
    {
      "anonymous": false,
      "inputs": [
        {
          "indexed": true,
          "internalType": "contract IERC20Upgradeable",
          "name": "token",
          "type": "address"
        },
        {
          "indexed": false,
          "internalType": "address",
          "name": "to",
          "type": "address"
        },
        {
          "indexed": false,
          "internalType": "uint256",
          "name": "amount",
          "type": "uint256"
        }
      ],
      "name": "ERC20PaymentReleased",
      "type": "event"
    },
    {
      "anonymous": false,
      "inputs": [
        {
          "indexed": false,
          "internalType": "uint8",
          "name": "version",
          "type": "uint8"
        }
      ],
      "name": "Initialized",
      "type": "event"
    },
    {
      "anonymous": false,
      "inputs": [
        {
          "indexed": false,
          "internalType": "address",
          "name": "sentFromUser",
          "type": "address"
        },
        {
          "indexed": false,
          "internalType": "address",
          "name": "token",
          "type": "address"
        },
        {
          "indexed": false,
          "internalType": "uint256",
          "name": "tokenId",
          "type": "uint256"
        },
        {
          "indexed": false,
          "internalType": "uint256",
          "name": "price",
          "type": "uint256"
        }
      ],
      "name": "ListedAPlanet",
      "type": "event"
    },
    {
      "anonymous": false,
      "inputs": [
        {
          "indexed": false,
          "internalType": "address",
          "name": "operator",
          "type": "address"
        },
        {
          "indexed": false,
          "internalType": "address",
          "name": "from",
          "type": "address"
        },
        {
          "indexed": false,
          "internalType": "uint256",
          "name": "tokenId",
          "type": "uint256"
        },
        {
          "indexed": false,
          "internalType": "bytes",
          "name": "data",
          "type": "bytes"
        },
        {
          "indexed": false,
          "internalType": "string",
          "name": "typeOfReceival",
          "type": "string"
        }
      ],
      "name": "NftReceived",
      "type": "event"
    },
    {
      "anonymous": false,
      "inputs": [
        {
          "indexed": true,
          "internalType": "address",
          "name": "previousOwner",
          "type": "address"
        },
        {
          "indexed": true,
          "internalType": "address",
          "name": "newOwner",
          "type": "address"
        }
      ],
      "name": "OwnershipTransferred",
      "type": "event"
    },
    {
      "anonymous": false,
      "inputs": [
        {
          "indexed": false,
          "internalType": "address",
          "name": "account",
          "type": "address"
        }
      ],
      "name": "Paused",
      "type": "event"
    },
    {
      "anonymous": false,
      "inputs": [
        {
          "indexed": false,
          "internalType": "address",
          "name": "account",
          "type": "address"
        },
        {
          "indexed": false,
          "internalType": "uint256",
          "name": "shares",
          "type": "uint256"
        }
      ],
      "name": "PayeeAdded",
      "type": "event"
    },
    {
      "anonymous": false,
      "inputs": [
        {
          "indexed": false,
          "internalType": "address",
          "name": "from",
          "type": "address"
        },
        {
          "indexed": false,
          "internalType": "uint256",
          "name": "amount",
          "type": "uint256"
        }
      ],
      "name": "PaymentReceived",
      "type": "event"
    },
    {
      "anonymous": false,
      "inputs": [
        {
          "indexed": false,
          "internalType": "address",
          "name": "to",
          "type": "address"
        },
        {
          "indexed": false,
          "internalType": "uint256",
          "name": "amount",
          "type": "uint256"
        }
      ],
      "name": "PaymentReleased",
      "type": "event"
    },
    {
      "anonymous": false,
      "inputs": [
        {
          "indexed": false,
          "internalType": "uint256",
          "name": "planetAsking",
          "type": "uint256"
        },
        {
          "indexed": false,
          "internalType": "address",
          "name": "askingUser",
          "type": "address"
        },
        {
          "indexed": false,
          "internalType": "uint256",
          "name": "planetJoining",
          "type": "uint256"
        },
        {
          "indexed": false,
          "internalType": "address",
          "name": "joiningUser",
          "type": "address"
        }
      ],
      "name": "PlanetsConjoining",
      "type": "event"
    },
    {
      "anonymous": false,
      "inputs": [
        {
          "indexed": true,
          "internalType": "address",
          "name": "from",
          "type": "address"
        },
        {
          "indexed": true,
          "internalType": "address",
          "name": "to",
          "type": "address"
        },
        {
          "indexed": false,
          "internalType": "uint256",
          "name": "value",
          "type": "uint256"
        }
      ],
      "name": "Transfer",
      "type": "event"
    },
    {
      "anonymous": false,
      "inputs": [
        {
          "indexed": false,
          "internalType": "address",
          "name": "account",
          "type": "address"
        }
      ],
      "name": "Unpaused",
      "type": "event"
    },
    {
      "anonymous": false,
      "inputs": [
        {
          "indexed": true,
          "internalType": "address",
          "name": "implementation",
          "type": "address"
        }
      ],
      "name": "Upgraded",
      "type": "event"
    },
    {
      "inputs": [],
      "name": "DOMAIN_SEPARATOR",
      "outputs": [
        {
          "internalType": "bytes32",
          "name": "",
          "type": "bytes32"
        }
      ],
      "stateMutability": "view",
      "type": "function"
    },
    {
      "inputs": [
        {
          "internalType": "address",
          "name": "owner",
          "type": "address"
        },
        {
          "internalType": "address",
          "name": "spender",
          "type": "address"
        }
      ],
      "name": "allowance",
      "outputs": [
        {
          "internalType": "uint256",
          "name": "",
          "type": "uint256"
        }
      ],
      "stateMutability": "view",
      "type": "function"
    },
    {
      "inputs": [
        {
          "internalType": "address",
          "name": "spender",
          "type": "address"
        },
        {
          "internalType": "uint256",
          "name": "amount",
          "type": "uint256"
        }
      ],
      "name": "approve",
      "outputs": [
        {
          "internalType": "bool",
          "name": "",
          "type": "bool"
        }
      ],
      "stateMutability": "nonpayable",
      "type": "function"
    },
    {
      "inputs": [
        {
          "internalType": "address",
          "name": "operator",
          "type": "address"
        },
        {
          "internalType": "bool",
          "name": "approved",
          "type": "bool"
        }
      ],
      "name": "approveForAllAsOwner",
      "outputs": [],
      "stateMutability": "nonpayable",
      "type": "function"
    },
    {
      "inputs": [
        {
          "internalType": "address",
          "name": "account",
          "type": "address"
        }
      ],
      "name": "balanceOf",
      "outputs": [
        {
          "internalType": "uint256",
          "name": "",
          "type": "uint256"
        }
      ],
      "stateMutability": "view",
      "type": "function"
    },
    {
      "inputs": [
        {
          "internalType": "uint256",
          "name": "newVRF",
          "type": "uint256"
        }
      ],
      "name": "changeVRFValue",
      "outputs": [],
      "stateMutability": "nonpayable",
      "type": "function"
    },
    {
      "inputs": [
        {
          "internalType": "address",
          "name": "owner",
          "type": "address"
        },
        {
          "internalType": "address",
          "name": "operator",
          "type": "address"
        }
      ],
      "name": "checkApprovalForAll",
      "outputs": [
        {
          "internalType": "bool",
          "name": "",
          "type": "bool"
        }
      ],
      "stateMutability": "view",
      "type": "function"
    },
    {
      "inputs": [
        {
          "internalType": "address",
          "name": "",
          "type": "address"
        },
        {
          "internalType": "uint256",
          "name": "",
          "type": "uint256"
        }
      ],
      "name": "claimablePlanets",
      "outputs": [
        {
          "internalType": "address",
          "name": "ownerParentAddress",
          "type": "address"
        },
        {
          "internalType": "uint256",
          "name": "ownerTokenId",
          "type": "uint256"
        },
        {
          "internalType": "bool",
          "name": "delivered",
          "type": "bool"
        },
        {
          "internalType": "address",
          "name": "otherParent",
          "type": "address"
        },
        {
          "internalType": "uint256",
          "name": "otherTokenId",
          "type": "uint256"
        }
      ],
      "stateMutability": "view",
      "type": "function"
    },
    {
      "inputs": [
        {
          "internalType": "uint256",
          "name": "",
          "type": "uint256"
        }
      ],
      "name": "claimableTokenIdToOwnerAddress",
      "outputs": [
        {
          "internalType": "address",
          "name": "",
          "type": "address"
        }
      ],
      "stateMutability": "view",
      "type": "function"
    },
    {
      "inputs": [
        {
          "internalType": "uint256",
          "name": "yourPlanet",
          "type": "uint256"
        },
        {
          "internalType": "uint256",
          "name": "withListedPlanet",
          "type": "uint256"
        }
      ],
      "name": "conjunct",
      "outputs": [],
      "stateMutability": "payable",
      "type": "function"
    },
    {
      "inputs": [
        {
          "internalType": "uint256",
          "name": "idIndex",
          "type": "uint256"
        },
        {
          "internalType": "uint256",
          "name": "tokenId",
          "type": "uint256"
        }
      ],
      "name": "deList",
      "outputs": [],
      "stateMutability": "nonpayable",
      "type": "function"
    },
    {
      "inputs": [],
      "name": "deListAllYourPlanets",
      "outputs": [],
      "stateMutability": "nonpayable",
      "type": "function"
    },
    {
      "inputs": [],
      "name": "decimals",
      "outputs": [
        {
          "internalType": "uint8",
          "name": "",
          "type": "uint8"
        }
      ],
      "stateMutability": "view",
      "type": "function"
    },
    {
      "inputs": [
        {
          "internalType": "address",
          "name": "spender",
          "type": "address"
        },
        {
          "internalType": "uint256",
          "name": "subtractedValue",
          "type": "uint256"
        }
      ],
      "name": "decreaseAllowance",
      "outputs": [
        {
          "internalType": "bool",
          "name": "",
          "type": "bool"
        }
      ],
      "stateMutability": "nonpayable",
      "type": "function"
    },
    {
      "inputs": [],
      "name": "eip712Domain",
      "outputs": [
        {
          "internalType": "bytes1",
          "name": "fields",
          "type": "bytes1"
        },
        {
          "internalType": "string",
          "name": "name",
          "type": "string"
        },
        {
          "internalType": "string",
          "name": "version",
          "type": "string"
        },
        {
          "internalType": "uint256",
          "name": "chainId",
          "type": "uint256"
        },
        {
          "internalType": "address",
          "name": "verifyingContract",
          "type": "address"
        },
        {
          "internalType": "bytes32",
          "name": "salt",
          "type": "bytes32"
        },
        {
          "internalType": "uint256[]",
          "name": "extensions",
          "type": "uint256[]"
        }
      ],
      "stateMutability": "view",
      "type": "function"
    },
    {
      "inputs": [],
      "name": "getAllPlanets",
      "outputs": [
        {
          "components": [
            {
              "internalType": "uint256",
              "name": "planet",
              "type": "uint256"
            },
            {
              "internalType": "uint256",
              "name": "price",
              "type": "uint256"
            },
            {
              "internalType": "address",
              "name": "ownerAddress",
              "type": "address"
            }
          ],
          "internalType": "struct ListedPlanet[]",
          "name": "",
          "type": "tuple[]"
        }
      ],
      "stateMutability": "view",
      "type": "function"
    },
    {
      "inputs": [
        {
          "internalType": "uint256",
          "name": "startIndex",
          "type": "uint256"
        },
        {
          "internalType": "uint256",
          "name": "endIndex",
          "type": "uint256"
        }
      ],
      "name": "getPlanetsPaginated",
      "outputs": [
        {
          "components": [
            {
              "internalType": "uint256",
              "name": "planet",
              "type": "uint256"
            },
            {
              "internalType": "uint256",
              "name": "price",
              "type": "uint256"
            },
            {
              "internalType": "address",
              "name": "ownerAddress",
              "type": "address"
            }
          ],
          "internalType": "struct ListedPlanet[]",
          "name": "",
          "type": "tuple[]"
        }
      ],
      "stateMutability": "view",
      "type": "function"
    },
    {
      "inputs": [
        {
          "internalType": "address",
          "name": "spender",
          "type": "address"
        },
        {
          "internalType": "uint256",
          "name": "addedValue",
          "type": "uint256"
        }
      ],
      "name": "increaseAllowance",
      "outputs": [
        {
          "internalType": "bool",
          "name": "",
          "type": "bool"
        }
      ],
      "stateMutability": "nonpayable",
      "type": "function"
    },
    {
      "inputs": [],
      "name": "initialize",
      "outputs": [],
      "stateMutability": "nonpayable",
      "type": "function"
    },
    {
      "inputs": [],
      "name": "listAllYourPlanets",
      "outputs": [],
      "stateMutability": "nonpayable",
      "type": "function"
    },
    {
      "inputs": [],
      "name": "name",
      "outputs": [
        {
          "internalType": "string",
          "name": "",
          "type": "string"
        }
      ],
      "stateMutability": "view",
      "type": "function"
    },
    {
      "inputs": [
        {
          "internalType": "address",
          "name": "owner",
          "type": "address"
        }
      ],
      "name": "nonces",
      "outputs": [
        {
          "internalType": "uint256",
          "name": "",
          "type": "uint256"
        }
      ],
      "stateMutability": "view",
      "type": "function"
    },
    {
      "inputs": [
        {
          "internalType": "address",
          "name": "operator",
          "type": "address"
        },
        {
          "internalType": "address",
          "name": "from",
          "type": "address"
        },
        {
          "internalType": "uint256",
          "name": "tokenId",
          "type": "uint256"
        },
        {
          "internalType": "bytes",
          "name": "data",
          "type": "bytes"
        }
      ],
      "name": "onERC721Received",
      "outputs": [
        {
          "internalType": "bytes4",
          "name": "",
          "type": "bytes4"
        }
      ],
      "stateMutability": "nonpayable",
      "type": "function"
    },
    {
      "inputs": [],
      "name": "owner",
      "outputs": [
        {
          "internalType": "address",
          "name": "",
          "type": "address"
        }
      ],
      "stateMutability": "view",
      "type": "function"
    },
    {
      "inputs": [],
      "name": "pause",
      "outputs": [],
      "stateMutability": "nonpayable",
      "type": "function"
    },
    {
      "inputs": [],
      "name": "paused",
      "outputs": [
        {
          "internalType": "bool",
          "name": "",
          "type": "bool"
        }
      ],
      "stateMutability": "view",
      "type": "function"
    },
    {
      "inputs": [
        {
          "internalType": "uint256",
          "name": "index",
          "type": "uint256"
        }
      ],
      "name": "payee",
      "outputs": [
        {
          "internalType": "address",
          "name": "",
          "type": "address"
        }
      ],
      "stateMutability": "view",
      "type": "function"
    },
    {
      "inputs": [
        {
          "internalType": "address",
          "name": "owner",
          "type": "address"
        },
        {
          "internalType": "address",
          "name": "spender",
          "type": "address"
        },
        {
          "internalType": "uint256",
          "name": "value",
          "type": "uint256"
        },
        {
          "internalType": "uint256",
          "name": "deadline",
          "type": "uint256"
        },
        {
          "internalType": "uint8",
          "name": "v",
          "type": "uint8"
        },
        {
          "internalType": "bytes32",
          "name": "r",
          "type": "bytes32"
        },
        {
          "internalType": "bytes32",
          "name": "s",
          "type": "bytes32"
        }
      ],
      "name": "permit",
      "outputs": [],
      "stateMutability": "nonpayable",
      "type": "function"
    },
    {
      "inputs": [],
      "name": "proxiableUUID",
      "outputs": [
        {
          "internalType": "bytes32",
          "name": "",
          "type": "bytes32"
        }
      ],
      "stateMutability": "view",
      "type": "function"
    },
    {
      "inputs": [
        {
          "internalType": "address",
          "name": "account",
          "type": "address"
        }
      ],
      "name": "releasable",
      "outputs": [
        {
          "internalType": "uint256",
          "name": "",
          "type": "uint256"
        }
      ],
      "stateMutability": "view",
      "type": "function"
    },
    {
      "inputs": [
        {
          "internalType": "contract IERC20Upgradeable",
          "name": "token",
          "type": "address"
        },
        {
          "internalType": "address",
          "name": "account",
          "type": "address"
        }
      ],
      "name": "releasable",
      "outputs": [
        {
          "internalType": "uint256",
          "name": "",
          "type": "uint256"
        }
      ],
      "stateMutability": "view",
      "type": "function"
    },
    {
      "inputs": [
        {
          "internalType": "address payable",
          "name": "account",
          "type": "address"
        }
      ],
      "name": "release",
      "outputs": [],
      "stateMutability": "nonpayable",
      "type": "function"
    },
    {
      "inputs": [
        {
          "internalType": "contract IERC20Upgradeable",
          "name": "token",
          "type": "address"
        },
        {
          "internalType": "address",
          "name": "account",
          "type": "address"
        }
      ],
      "name": "release",
      "outputs": [],
      "stateMutability": "nonpayable",
      "type": "function"
    },
    {
      "inputs": [
        {
          "internalType": "contract IERC20Upgradeable",
          "name": "token",
          "type": "address"
        },
        {
          "internalType": "address",
          "name": "account",
          "type": "address"
        }
      ],
      "name": "released",
      "outputs": [
        {
          "internalType": "uint256",
          "name": "",
          "type": "uint256"
        }
      ],
      "stateMutability": "view",
      "type": "function"
    },
    {
      "inputs": [
        {
          "internalType": "address",
          "name": "account",
          "type": "address"
        }
      ],
      "name": "released",
      "outputs": [
        {
          "internalType": "uint256",
          "name": "",
          "type": "uint256"
        }
      ],
      "stateMutability": "view",
      "type": "function"
    },
    {
      "inputs": [],
      "name": "renounceOwnership",
      "outputs": [],
      "stateMutability": "nonpayable",
      "type": "function"
    },
    {
      "inputs": [
        {
          "internalType": "address",
          "name": "_breederContractAddr",
          "type": "address"
        },
        {
          "internalType": "uint256",
          "name": "_vrfValue",
          "type": "uint256"
        },
        {
          "internalType": "address",
          "name": "_nftContractAddr",
          "type": "address"
        }
      ],
      "name": "setAllOf",
      "outputs": [],
      "stateMutability": "nonpayable",
      "type": "function"
    },
    {
      "inputs": [
        {
          "internalType": "address payable",
          "name": "newTAdd",
          "type": "address"
        }
      ],
      "name": "setTAdd",
      "outputs": [],
      "stateMutability": "nonpayable",
      "type": "function"
    },
    {
      "inputs": [
        {
          "internalType": "address",
          "name": "account",
          "type": "address"
        }
      ],
      "name": "shares",
      "outputs": [
        {
          "internalType": "uint256",
          "name": "",
          "type": "uint256"
        }
      ],
      "stateMutability": "view",
      "type": "function"
    },
    {
      "inputs": [],
      "name": "status",
      "outputs": [],
      "stateMutability": "nonpayable",
      "type": "function"
    },
    {
      "inputs": [],
      "name": "symbol",
      "outputs": [
        {
          "internalType": "string",
          "name": "",
          "type": "string"
        }
      ],
      "stateMutability": "view",
      "type": "function"
    },
    {
      "inputs": [
        {
          "internalType": "contract IERC20Upgradeable",
          "name": "token",
          "type": "address"
        }
      ],
      "name": "totalReleased",
      "outputs": [
        {
          "internalType": "uint256",
          "name": "",
          "type": "uint256"
        }
      ],
      "stateMutability": "view",
      "type": "function"
    },
    {
      "inputs": [],
      "name": "totalReleased",
      "outputs": [
        {
          "internalType": "uint256",
          "name": "",
          "type": "uint256"
        }
      ],
      "stateMutability": "view",
      "type": "function"
    },
    {
      "inputs": [],
      "name": "totalShares",
      "outputs": [
        {
          "internalType": "uint256",
          "name": "",
          "type": "uint256"
        }
      ],
      "stateMutability": "view",
      "type": "function"
    },
    {
      "inputs": [],
      "name": "totalSupply",
      "outputs": [
        {
          "internalType": "uint256",
          "name": "",
          "type": "uint256"
        }
      ],
      "stateMutability": "view",
      "type": "function"
    },
    {
      "inputs": [
        {
          "internalType": "address",
          "name": "to",
          "type": "address"
        },
        {
          "internalType": "uint256",
          "name": "amount",
          "type": "uint256"
        }
      ],
      "name": "transfer",
      "outputs": [
        {
          "internalType": "bool",
          "name": "",
          "type": "bool"
        }
      ],
      "stateMutability": "nonpayable",
      "type": "function"
    },
    {
      "inputs": [
        {
          "internalType": "address",
          "name": "from",
          "type": "address"
        },
        {
          "internalType": "address",
          "name": "to",
          "type": "address"
        },
        {
          "internalType": "uint256",
          "name": "amount",
          "type": "uint256"
        }
      ],
      "name": "transferFrom",
      "outputs": [
        {
          "internalType": "bool",
          "name": "",
          "type": "bool"
        }
      ],
      "stateMutability": "nonpayable",
      "type": "function"
    },
    {
      "inputs": [
        {
          "internalType": "address",
          "name": "newOwner",
          "type": "address"
        }
      ],
      "name": "transferOwnership",
      "outputs": [],
      "stateMutability": "nonpayable",
      "type": "function"
    },
    {
      "inputs": [],
      "name": "unpause",
      "outputs": [],
      "stateMutability": "nonpayable",
      "type": "function"
    },
    {
      "inputs": [
        {
          "internalType": "address",
          "name": "newImplementation",
          "type": "address"
        }
      ],
      "name": "upgradeTo",
      "outputs": [],
      "stateMutability": "nonpayable",
      "type": "function"
    },
    {
      "inputs": [
        {
          "internalType": "address",
          "name": "newImplementation",
          "type": "address"
        },
        {
          "internalType": "bytes",
          "name": "data",
          "type": "bytes"
        }
      ],
      "name": "upgradeToAndCall",
      "outputs": [],
      "stateMutability": "payable",
      "type": "function"
    },
    {
      "inputs": [
        {
          "internalType": "address",
          "name": "",
          "type": "address"
        },
        {
          "internalType": "uint256",
          "name": "",
          "type": "uint256"
        }
      ],
      "name": "userToListedPlanets",
      "outputs": [
        {
          "internalType": "uint256",
          "name": "planet",
          "type": "uint256"
        },
        {
          "internalType": "uint256",
          "name": "price",
          "type": "uint256"
        },
        {
          "internalType": "address",
          "name": "ownerAddress",
          "type": "address"
        }
      ],
      "stateMutability": "view",
      "type": "function"
    },
    {
      "inputs": [],
      "name": "withdrawFunds",
      "outputs": [],
      "stateMutability": "nonpayable",
      "type": "function"
    },
    {
      "stateMutability": "payable",
      "type": "receive"
    }
  ],
  "bytecode": "0x60a06040523060805234801561001457600080fd5b5060805161418461004c600039600081816110b0015281816110f00152818161131c0152818161135c01526113eb01526141846000f3fe60806040526004361061031e5760003560e01c8063715018a6116101ab578063a9059cbb116100f7578063d505accf11610095578063dd62ed3e1161006f578063dd62ed3e146109bf578063e22aecb4146109df578063e33b7de314610a3a578063f2fde38b14610a5057600080fd5b8063d505accf14610948578063d79779b214610968578063dd22a9c71461099f57600080fd5b8063cbdf1b5a116100d1578063cbdf1b5a146108b1578063cdb82a37146108d1578063ce7c2ac2146108f1578063d28eb2dc1461092857600080fd5b8063a9059cbb14610851578063c45ac05014610871578063c7c0e6b11461089157600080fd5b806385fe72431161016457806395d89b411161013e57806395d89b41146107c55780639852595c146107da578063a3f8eace14610811578063a457c2d71461083157600080fd5b806385fe7243146107425780638b83209b146107865780638da5cb5b146107a657600080fd5b8063715018a6146106bd5780637ecebe00146106d25780638129fc1c146106f25780638230a784146107075780638456cb591461049857806384b0196e1461071a57600080fd5b80633659cfe61161026a5780634a02099b1161022357806352d1902d116101fd57806352d1902d146106455780635c975abb1461065a5780636a23befb1461067257806370a082311461068757600080fd5b80634a02099b146106125780634f1ef2861461063257806350842cf31461048c57600080fd5b80633659cfe61461054057806339509351146105605780633a98ef39146105805780633f4ba83a14610596578063406072a9146105ab57806348b75044146105f257600080fd5b80631ac9a91e116102d757806324600fc3116102b157806324600fc3146104cd57806325947818146104e2578063313ce5671461050f5780633644e5151461052b57600080fd5b80631ac9a91e1461048c578063200d2ed21461049857806323b872dd146104ad57600080fd5b8063064db8741461036c57806306fdde03146103c0578063095ea7b3146103e2578063150b7a021461041257806318160ddd1461044b578063191655871461046a57600080fd5b36610367577f6ef95f06320e7a25a04a175ca677b7052bdd97131872c2192525a629f51be77033604080516001600160a01b0390921682523460208301520160405180910390a1005b600080fd5b34801561037857600080fd5b506103a36103873660046136a0565b6101cc602052600090815260409020546001600160a01b031681565b6040516001600160a01b0390911681526020015b60405180910390f35b3480156103cc57600080fd5b506103d5610a70565b6040516103b79190613709565b3480156103ee57600080fd5b506104026103fd366004613731565b610b02565b60405190151581526020016103b7565b34801561041e57600080fd5b5061043261042d36600461383e565b610b1c565b6040516001600160e01b031990911681526020016103b7565b34801561045757600080fd5b5060cb545b6040519081526020016103b7565b34801561047657600080fd5b5061048a6104853660046138aa565b610d86565b005b34801561048a57600080fd5b3480156104a457600080fd5b5061048a610e7b565b3480156104b957600080fd5b506104026104c83660046138c7565b610e8b565b3480156104d957600080fd5b5061048a610eaf565b3480156104ee57600080fd5b506105026104fd366004613908565b610ef1565b6040516103b7919061392a565b34801561051b57600080fd5b50604051601281526020016103b7565b34801561053757600080fd5b5061045c611097565b34801561054c57600080fd5b5061048a61055b3660046138aa565b6110a6565b34801561056c57600080fd5b5061040261057b366004613731565b611185565b34801561058c57600080fd5b506101625461045c565b3480156105a257600080fd5b5061048a6111a7565b3480156105b757600080fd5b5061045c6105c636600461398c565b6001600160a01b0391821660009081526101686020908152604080832093909416825291909152205490565b3480156105fe57600080fd5b5061048a61060d36600461398c565b6111b7565b34801561061e57600080fd5b5061048a61062d3660046139c5565b6112cb565b61048a610640366004613a07565b611312565b34801561065157600080fd5b5061045c6113de565b34801561066657600080fd5b5060335460ff16610402565b34801561067e57600080fd5b50610502611491565b34801561069357600080fd5b5061045c6106a23660046138aa565b6001600160a01b0316600090815260c9602052604090205490565b3480156106c957600080fd5b5061048a611514565b3480156106de57600080fd5b5061045c6106ed3660046138aa565b611526565b3480156106fe57600080fd5b5061048a611545565b61048a610715366004613908565b611665565b34801561072657600080fd5b5061072f61195e565b6040516103b79796959493929190613a57565b34801561074e57600080fd5b5061076261075d366004613731565b6119fc565b6040805193845260208401929092526001600160a01b0316908201526060016103b7565b34801561079257600080fd5b506103a36107a13660046136a0565b611a48565b3480156107b257600080fd5b50610194546001600160a01b03166103a3565b3480156107d157600080fd5b506103d5611a79565b3480156107e657600080fd5b5061045c6107f53660046138aa565b6001600160a01b03166000908152610165602052604090205490565b34801561081d57600080fd5b5061045c61082c3660046138aa565b611a88565b34801561083d57600080fd5b5061040261084c366004613731565b611ad2565b34801561085d57600080fd5b5061040261086c366004613731565b611b4d565b34801561087d57600080fd5b5061045c61088c36600461398c565b611b5b565b34801561089d57600080fd5b5061048a6108ac3660046136a0565b611c20565b3480156108bd57600080fd5b5061048a6108cc366004613908565b611c36565b3480156108dd57600080fd5b5061048a6108ec3660046138aa565b611dd3565b3480156108fd57600080fd5b5061045c61090c3660046138aa565b6001600160a01b03166000908152610164602052604090205490565b34801561093457600080fd5b5061048a610943366004613afe565b611e06565b34801561095457600080fd5b5061048a610963366004613b2c565b611e7b565b34801561097457600080fd5b5061045c6109833660046138aa565b6001600160a01b03166000908152610167602052604090205490565b3480156109ab57600080fd5b506104026109ba36600461398c565b611fdf565b3480156109cb57600080fd5b5061045c6109da36600461398c565b612057565b3480156109eb57600080fd5b506109ff6109fa366004613731565b612082565b604080516001600160a01b0396871681526020810195909552921515928401929092529092166060820152608081019190915260a0016103b7565b348015610a4657600080fd5b506101635461045c565b348015610a5c57600080fd5b5061048a610a6b3660046138aa565b6120e2565b606060cc8054610a7f90613ba3565b80601f0160208091040260200160405190810160405280929190818152602001828054610aab90613ba3565b8015610af85780601f10610acd57610100808354040283529160200191610af8565b820191906000526020600020905b815481529060010190602001808311610adb57829003601f168201915b5050505050905090565b600033610b10818585612158565b60019150505b92915050565b600033158015610b3a57506101c8546001600160a01b038681169116145b15610cac576101c85460405163dc9ce7a560e01b8152600481018590526000916001600160a01b03169063dc9ce7a590602401600060405180830381865afa158015610b8a573d6000803e3d6000fd5b505050506040513d6000823e601f3d908101601f19168201604052610bb29190810190613c57565b5090506000816101200151905060006101cc600083600081518110610bd957610bd9613d76565b6020026020010151815260200190815260200160002060009054906101000a90046001600160a01b0316905060006101cc600084600181518110610c1f57610c1f613d76565b60209081029190910181015182528181019290925260409081016000205481518083019092526001600160a01b03858116835216918101829052909150610c658161227c565b7f13c6ec2a463a35f898a457814a782f1f567808293fa783a31fa4dac8868e60118a8a8a8a604051610c9a9493929190613d8c565b60405180910390a15050505050610d74565b60008251118015610ccb57506101c8546001600160a01b038681169116145b15610d3657600082806020019051810190610ce69190613ded565b9050610cf38482876124d3565b7f13c6ec2a463a35f898a457814a782f1f567808293fa783a31fa4dac8868e601186868686604051610d289493929190613e06565b60405180910390a150610d74565b7f13c6ec2a463a35f898a457814a782f1f567808293fa783a31fa4dac8868e601185858585604051610d6b9493929190613e6b565b60405180910390a15b50630a85bd0160e11b5b949350505050565b6001600160a01b03811660009081526101646020526040902054610dc55760405162461bcd60e51b8152600401610dbc90613ecf565b60405180910390fd5b6000610dd082611a88565b905080600003610df25760405162461bcd60e51b8152600401610dbc90613f15565b806101636000828254610e059190613f76565b90915550506001600160a01b038216600090815261016560205260409020805482019055610e33828261261f565b604080516001600160a01b0384168152602081018390527fdf20fd1e76bc69d672e4814fafb2c449bba3a5369d8359adf9e05e6fde87b056910160405180910390a15050565b565b610e83612738565b610e79612793565b600033610e998582856127ed565b610ea4858585612861565b506001949350505050565b610eb7612738565b610ebf612a0c565b604051339081904780156108fc02916000818181858888f19350505050158015610eed573d6000803e3d6000fd5b5050565b6060828211610f325760405162461bcd60e51b815260206004820152600d60248201526c092dcecc2d8d2c840d2dcc8caf609b1b6044820152606401610dbc565b6101cb54821115610f7b5760405162461bcd60e51b8152602060048201526013602482015272496e646578206f7574206f6620626f756e647360681b6044820152606401610dbc565b6000610f878484613f89565b67ffffffffffffffff811115610f9f57610f9f61375d565b604051908082528060200260200182016040528015610ffd57816020015b610fea6040518060600160405280600081526020016000815260200160006001600160a01b031681525090565b815260200190600190039081610fbd5790505b509050835b8381101561108f576101cb818154811061101e5761101e613d76565b6000918252602091829020604080516060810182526003909302909101805483526001810154938301939093526002909201546001600160a01b0316918101919091528261106c8784613f89565b8151811061107c5761107c613d76565b6020908102919091010152600101611002565b509392505050565b60006110a1612a52565b905090565b6001600160a01b037f00000000000000000000000000000000000000000000000000000000000000001630036110ee5760405162461bcd60e51b8152600401610dbc90613f9c565b7f00000000000000000000000000000000000000000000000000000000000000006001600160a01b0316611137600080516020614108833981519152546001600160a01b031690565b6001600160a01b03161461115d5760405162461bcd60e51b8152600401610dbc90613fe8565b61116681612a5c565b6040805160008082526020820190925261118291839190612a64565b50565b600033610b108185856111988383612057565b6111a29190613f76565b612158565b6111af612738565b610e79612bcf565b6001600160a01b038116600090815261016460205260409020546111ed5760405162461bcd60e51b8152600401610dbc90613ecf565b60006111f98383611b5b565b90508060000361121b5760405162461bcd60e51b8152600401610dbc90613f15565b6001600160a01b0383166000908152610167602052604081208054839290611244908490613f76565b90915550506001600160a01b03808416600090815261016860209081526040808320938616835292905220805482019055611280838383612c08565b604080516001600160a01b038481168252602082018490528516917f3be5b7a71e84ed12875d241991c70855ac5817d847039e17a9d895c1ceb0f18a910160405180910390a2505050565b6112d3612738565b6112db612a0c565b6101c9919091556101c680546001600160a01b039384166001600160a01b0319918216179091556101c88054929093169116179055565b6001600160a01b037f000000000000000000000000000000000000000000000000000000000000000016300361135a5760405162461bcd60e51b8152600401610dbc90613f9c565b7f00000000000000000000000000000000000000000000000000000000000000006001600160a01b03166113a3600080516020614108833981519152546001600160a01b031690565b6001600160a01b0316146113c95760405162461bcd60e51b8152600401610dbc90613fe8565b6113d282612a5c565b610eed82826001612a64565b6000306001600160a01b037f0000000000000000000000000000000000000000000000000000000000000000161461147e5760405162461bcd60e51b815260206004820152603860248201527f555550535570677261646561626c653a206d757374206e6f742062652063616c60448201527f6c6564207468726f7567682064656c656761746563616c6c00000000000000006064820152608401610dbc565b5060008051602061410883398151915290565b60606101cb805480602002602001604051908101604052809291908181526020016000905b8282101561150b576000848152602090819020604080516060810182526003860290920180548352600180820154848601526002909101546001600160a01b03169183019190915290835290920191016114b6565b50505050905090565b61151c612738565b610e796000612c5a565b6001600160a01b038116600090815261012f6020526040812054610b16565b600054610100900460ff16158080156115655750600054600160ff909116105b8061157f5750303b15801561157f575060005460ff166001145b6115e25760405162461bcd60e51b815260206004820152602e60248201527f496e697469616c697a61626c653a20636f6e747261637420697320616c72656160448201526d191e481a5b9a5d1a585b1a5e995960921b6064820152608401610dbc565b6000805460ff191660011790558015611605576000805461ff0019166101001790555b61160d612cad565b611615612cdc565b61161d612d0b565b8015611182576000805461ff0019169055604051600181527f7f26b83ff96e1f2b6a682f133852f6798a09c465da95921460cefb38474024989060200160405180910390a150565b61166d612a0c565b600080600061167b84612d32565b9050806101c95461168c9190613f76565b34101561169857600080fd5b6000805b6101cb5481101561171357856101cb82815481106116bc576116bc613d76565b9060005260206000209060030201600001540361170b576101cb81815481106116e7576116e7613d76565b60009182526020909120600260039092020101546001600160a01b03169150611713565b60010161169c565b50604051600b906000906001600160a01b0384169083908381818185875af1925050503d8060008114611762576040519150601f19603f3d011682016040523d82523d6000602084013e611767565b606091505b50509050806117af5760405162461bcd60e51b81526020600482015260146024820152732330b4b632b2103a379039b2b7321022ba3432b960611b6044820152606401610dbc565b6101c65460405163bf0e57a360e01b8152600481018a905260248101899052600060448201523460648201526001600160a01b039091169063bf0e57a3906084016020604051808303816000875af115801561180f573d6000803e3d6000fd5b505050506040513d601f19601f820116820180604052508101906118339190613ded565b50816101c9546118439190613f76565b341115611904576000336001600160a01b0316836101c954346118669190613f89565b6118709190613f89565b604051600081818185875af1925050503d80600081146118ac576040519150601f19603f3d011682016040523d82523d6000602084013e6118b1565b606091505b50509050806119025760405162461bcd60e51b815260206004820152601d60248201527f4661696c656420746f20726566756e64206578636573732045746865720000006044820152606401610dbc565b505b604080518981526001600160a01b0388811660208301528183018a90528716606082015290517f8557df6951fbdd47fe9027516fc896be40f285ed55a6acac460352adbab730cd9181900360800190a15050505050505050565b60006060806000806000606060fb546000801b14801561197e575060fc54155b6119c25760405162461bcd60e51b81526020600482015260156024820152741152540dcc4c8e88155b9a5b9a5d1a585b1a5e9959605a1b6044820152606401610dbc565b6119ca612dd3565b6119d2612de2565b60408051600080825260208201909252600f60f81b9b939a50919850469750309650945092509050565b6101ca6020528160005260406000208181548110611a1957600080fd5b60009182526020909120600390910201805460018201546002909201549093509091506001600160a01b031683565b60006101668281548110611a5e57611a5e613d76565b6000918252602090912001546001600160a01b031692915050565b606060cd8054610a7f90613ba3565b600080611a956101635490565b611a9f9047613f76565b9050611acb8382611ac6866001600160a01b03166000908152610165602052604090205490565b612df1565b9392505050565b60003381611ae08286612057565b905083811015611b405760405162461bcd60e51b815260206004820152602560248201527f45524332303a2064656372656173656420616c6c6f77616e63652062656c6f77604482015264207a65726f60d81b6064820152608401610dbc565b610ea48286868403612158565b600033610b10818585612861565b6001600160a01b0382166000908152610167602052604081205481906040516370a0823160e01b81523060048201526001600160a01b038616906370a0823190602401602060405180830381865afa158015611bbb573d6000803e3d6000fd5b505050506040513d601f19601f82011682018060405250810190611bdf9190613ded565b611be99190613f76565b6001600160a01b0380861660009081526101686020908152604080832093881683529290522054909150610d7e9084908390612df1565b611c28612738565b611c30612a0c565b6101c955565b611c3e612a0c565b6101cb548210611c865760405162461bcd60e51b8152602060048201526013602482015272496e646578206f7574206f6620626f756e647360681b6044820152606401610dbc565b600033905060006101cb8481548110611ca157611ca1613d76565b6000918252602091829020604080516060810182526003909302909101805483526001810154938301939093526002909201546001600160a01b031691810182905291503314611cf057600080fd5b6040518060600160405280600081526020016000815260200160006001600160a01b03168152506101cb8581548110611d2b57611d2b613d76565b6000918252602091829020835160039290920201908155908201516001820155604090910151600290910180546001600160a01b0319166001600160a01b03909216919091179055611d7d8383612e31565b6101c8548151604080516001600160a01b03808716825290931660208401528201527f0ece05e698e9e143fb75b2ad0aba7f141238c27b6d3e9728898183ee0d68498b906060015b60405180910390a150505050565b611ddb612738565b611de3612a0c565b6101c780546001600160a01b0319166001600160a01b0392909216919091179055565b611e0e612738565b6101c85460405163a22cb46560e01b81526001600160a01b03848116600483015283151560248301529091169063a22cb465906044015b600060405180830381600087803b158015611e5f57600080fd5b505af1158015611e73573d6000803e3d6000fd5b505050505050565b83421115611ecb5760405162461bcd60e51b815260206004820152601d60248201527f45524332305065726d69743a206578706972656420646561646c696e650000006044820152606401610dbc565b60007f6e71edae12b1b97f4d1f60370fef10105fa2faae0126114a169c64845d6126c9888888611efa8c612e71565b6040805160208101969096526001600160a01b0394851690860152929091166060840152608083015260a082015260c0810186905260e0016040516020818303038152906040528051906020012090506000611f5582612e98565b90506000611f6582878787612ec5565b9050896001600160a01b0316816001600160a01b031614611fc85760405162461bcd60e51b815260206004820152601e60248201527f45524332305065726d69743a20696e76616c6964207369676e617475726500006044820152606401610dbc565b611fd38a8a8a612158565b50505050505050505050565b6101c85460405163e985e9c560e01b81526001600160a01b0384811660048301528381166024830152600092169063e985e9c590604401602060405180830381865afa158015612033573d6000803e3d6000fd5b505050506040513d601f19601f82011682018060405250810190611acb9190614034565b6001600160a01b03918216600090815260ca6020908152604080832093909416825291909152205490565b6101cd602052816000526040600020818154811061209f57600080fd5b600091825260209091206004909102018054600182015460028301546003909301546001600160a01b03928316955090935060ff83169261010090049091169085565b6120ea612738565b6001600160a01b03811661214f5760405162461bcd60e51b815260206004820152602660248201527f4f776e61626c653a206e6577206f776e657220697320746865207a65726f206160448201526564647265737360d01b6064820152608401610dbc565b61118281612c5a565b6001600160a01b0383166121ba5760405162461bcd60e51b8152602060048201526024808201527f45524332303a20617070726f76652066726f6d20746865207a65726f206164646044820152637265737360e01b6064820152608401610dbc565b6001600160a01b03821661221b5760405162461bcd60e51b815260206004820152602260248201527f45524332303a20617070726f766520746f20746865207a65726f206164647265604482015261737360f01b6064820152608401610dbc565b6001600160a01b03838116600081815260ca602090815260408083209487168084529482529182902085905590518481527f8c5be1e5ebec7d5bd14f71427d1e84f3dd0314c0f7b2291e5b200ac8c7c3b925910160405180910390a3505050565b80516020808301516001600160a01b03831660009081526101cd9092526040909120541561237f5760005b6001600160a01b03831660009081526101cd6020526040902054811015612379576001600160a01b0383811660009081526101cd60205260409020805491841691839081106122f8576122f8613d76565b600091825260209091206004909102016002015461010090046001600160a01b031603612371576001600160a01b03831660009081526101cd602052604090208054600191908390811061234e5761234e613d76565b60009182526020909120600490910201600201805460ff19169115159190911790555b6001016122a7565b50505050565b6020808401516001600160a01b031660009081526101cd9091526040902054156124785760005b6001600160a01b03821660009081526101cd6020526040902054811015612379576001600160a01b0382811660009081526101cd60205260409020805491851691839081106123f7576123f7613d76565b600091825260209091206004909102016002015461010090046001600160a01b031603612470576001600160a01b03821660009081526101cd602052604090208054600191908390811061244d5761244d613d76565b60009182526020909120600490910201600201805460ff19169115159190911790555b6001016123a6565b60405162461bcd60e51b815260206004820152602560248201527f706c616e65742073656e7420657272616e746c792c206e6f206f6e6520746f20604482015264636c61696d60d81b6064820152608401610dbc565b505050565b604080516060808201835285825260208083018681526001600160a01b0386811685870181815260009182526101ca8552878220805460018082018355918452868420895160039283029091019081558651818401558351600290910180549187166001600160a01b03199283161790556101cb80549384018155909452885191027fe8bbfecd380c4167d6a1f763a233ec73e73f534b1970c4e1683f437ec23c1f4481019190915593517fe8bbfecd380c4167d6a1f763a233ec73e73f534b1970c4e1683f437ec23c1f45850155517fe8bbfecd380c4167d6a1f763a233ec73e73f534b1970c4e1683f437ec23c1f46909301805493831693909116929092179091556101c85485513381529116918101919091529283018690528201849052907fb30319a217488a3ed441c348e935a48d16091e33109bab0c79a353b97975288390608001611dc5565b8047101561266f5760405162461bcd60e51b815260206004820152601d60248201527f416464726573733a20696e73756666696369656e742062616c616e63650000006044820152606401610dbc565b6000826001600160a01b03168260405160006040518083038185875af1925050503d80600081146126bc576040519150601f19603f3d011682016040523d82523d6000602084013e6126c1565b606091505b50509050806124ce5760405162461bcd60e51b815260206004820152603a60248201527f416464726573733a20756e61626c6520746f2073656e642076616c75652c207260448201527f6563697069656e74206d617920686176652072657665727465640000000000006064820152608401610dbc565b610194546001600160a01b03163314610e795760405162461bcd60e51b815260206004820181905260248201527f4f776e61626c653a2063616c6c6572206973206e6f7420746865206f776e65726044820152606401610dbc565b61279b612a0c565b6033805460ff191660011790557f62e78cea01bee320cd4e420270b5ea74000d11b0c9f74754ebdbfc544b05a2586127d03390565b6040516001600160a01b03909116815260200160405180910390a1565b60006127f98484612057565b9050600019811461237957818110156128545760405162461bcd60e51b815260206004820152601d60248201527f45524332303a20696e73756666696369656e7420616c6c6f77616e63650000006044820152606401610dbc565b6123798484848403612158565b6001600160a01b0383166128c55760405162461bcd60e51b815260206004820152602560248201527f45524332303a207472616e736665722066726f6d20746865207a65726f206164604482015264647265737360d81b6064820152608401610dbc565b6001600160a01b0382166129275760405162461bcd60e51b815260206004820152602360248201527f45524332303a207472616e7366657220746f20746865207a65726f206164647260448201526265737360e81b6064820152608401610dbc565b6001600160a01b038316600090815260c960205260409020548181101561299f5760405162461bcd60e51b815260206004820152602660248201527f45524332303a207472616e7366657220616d6f756e7420657863656564732062604482015265616c616e636560d01b6064820152608401610dbc565b6001600160a01b03808516600081815260c9602052604080822086860390559286168082529083902080548601905591517fddf252ad1be2c89b69c2b068fc378daa952ba7f163c4a11628f55a4df523b3ef906129ff9086815260200190565b60405180910390a3612379565b60335460ff1615610e795760405162461bcd60e51b815260206004820152601060248201526f14185d5cd8589b194e881c185d5cd95960821b6044820152606401610dbc565b60006110a1612eed565b611182612738565b7f4910fdfa16fed3260ed0e7147f7cc6da11a60208b5b9406d12a635614ffd91435460ff1615612a97576124ce83612f61565b826001600160a01b03166352d1902d6040518163ffffffff1660e01b8152600401602060405180830381865afa925050508015612af1575060408051601f3d908101601f19168201909252612aee91810190613ded565b60015b612b545760405162461bcd60e51b815260206004820152602e60248201527f45524331393637557067726164653a206e657720696d706c656d656e7461746960448201526d6f6e206973206e6f74205555505360901b6064820152608401610dbc565b6000805160206141088339815191528114612bc35760405162461bcd60e51b815260206004820152602960248201527f45524331393637557067726164653a20756e737570706f727465642070726f786044820152681a58589b195555525160ba1b6064820152608401610dbc565b506124ce838383612ffd565b612bd7613022565b6033805460ff191690557f5db9ee0a495bf2e6ff9c91a7834c1ba4fdd244a5e8aa4e537bd38aeae4b073aa336127d0565b604080516001600160a01b038416602482015260448082018490528251808303909101815260649091019091526020810180516001600160e01b031663a9059cbb60e01b1790526124ce90849061306b565b61019480546001600160a01b038381166001600160a01b0319831681179093556040519116919082907f8be0079c531659141344cd1fd0a4f28419497f9722a3daafe3b4186f6b6457e090600090a35050565b600054610100900460ff16612cd45760405162461bcd60e51b8152600401610dbc90614051565b610e79613140565b600054610100900460ff16612d035760405162461bcd60e51b8152600401610dbc90614051565b610e79613170565b600054610100900460ff16610e795760405162461bcd60e51b8152600401610dbc90614051565b6000612d3c612a0c565b60005b6101cb54811015612dcc57826101cb8281548110612d5f57612d5f613d76565b90600052602060002090600302016000015403612da4576101cb8181548110612d8a57612d8a613d76565b906000526020600020906003020160010154915050919050565b6101cb54612db490600190613f89565b8103612dc4575060001992915050565b600101612d3f565b505b919050565b606060fd8054610a7f90613ba3565b606060fe8054610a7f90613ba3565b610162546001600160a01b0384166000908152610164602052604081205490918391612e1d908661409c565b612e2791906140b3565b610d7e9190613f89565b6101c8546040516323b872dd60e01b81523060048201526001600160a01b03838116602483015260448201859052909116906323b872dd90606401611e45565b6001600160a01b038116600090815261012f60205260409020805460018101825590612dcc565b6000610b16612ea5612a52565b8360405161190160f01b8152600281019290925260228201526042902090565b6000806000612ed6878787876131a3565b91509150612ee381613267565b5095945050505050565b60007f8b73c3c69bb8fe3d512ecc4cf759cc79239f7b179b0ffacaa9a75d522b39400f612f186133b1565b612f2061340a565b60408051602081019490945283019190915260608201524660808201523060a082015260c00160405160208183030381529060405280519060200120905090565b6001600160a01b0381163b612fce5760405162461bcd60e51b815260206004820152602d60248201527f455243313936373a206e657720696d706c656d656e746174696f6e206973206e60448201526c1bdd08184818dbdb9d1c9858dd609a1b6064820152608401610dbc565b60008051602061410883398151915280546001600160a01b0319166001600160a01b0392909216919091179055565b6130068361343b565b6000825111806130135750805b156124ce57612379838361347b565b60335460ff16610e795760405162461bcd60e51b815260206004820152601460248201527314185d5cd8589b194e881b9bdd081c185d5cd95960621b6044820152606401610dbc565b60006130c0826040518060400160405280602081526020017f5361666545524332303a206c6f772d6c6576656c2063616c6c206661696c6564815250856001600160a01b03166134a09092919063ffffffff16565b90508051600014806130e15750808060200190518101906130e19190614034565b6124ce5760405162461bcd60e51b815260206004820152602a60248201527f5361666545524332303a204552433230206f7065726174696f6e20646964206e6044820152691bdd081cdd58d8d9595960b21b6064820152608401610dbc565b600054610100900460ff166131675760405162461bcd60e51b8152600401610dbc90614051565b610e7933612c5a565b600054610100900460ff166131975760405162461bcd60e51b8152600401610dbc90614051565b6033805460ff19169055565b6000807f7fffffffffffffffffffffffffffffff5d576e7357a4501ddfe92f46681b20a08311156131da575060009050600361325e565b6040805160008082526020820180845289905260ff881692820192909252606081018690526080810185905260019060a0016020604051602081039080840390855afa15801561322e573d6000803e3d6000fd5b5050604051601f1901519150506001600160a01b0381166132575760006001925092505061325e565b9150600090505b94509492505050565b600081600481111561327b5761327b6140d5565b036132835750565b6001816004811115613297576132976140d5565b036132e45760405162461bcd60e51b815260206004820152601860248201527f45434453413a20696e76616c6964207369676e617475726500000000000000006044820152606401610dbc565b60028160048111156132f8576132f86140d5565b036133455760405162461bcd60e51b815260206004820152601f60248201527f45434453413a20696e76616c6964207369676e6174757265206c656e677468006044820152606401610dbc565b6003816004811115613359576133596140d5565b036111825760405162461bcd60e51b815260206004820152602260248201527f45434453413a20696e76616c6964207369676e6174757265202773272076616c604482015261756560f01b6064820152608401610dbc565b6000806133bc612dd3565b8051909150156133d3578051602090910120919050565b60fb5480156133e25792915050565b7fc5d2460186f7233c927e7db2dcc703c0e500b653ca82273b7bfad8045d85a4709250505090565b600080613415612de2565b80519091501561342c578051602090910120919050565b60fc5480156133e25792915050565b61344481612f61565b6040516001600160a01b038216907fbc7cd75a20ee27fd9adebab32041f755214dbc6bffa90cc0225b39da2e5c2d3b90600090a250565b6060611acb8383604051806060016040528060278152602001614128602791396134af565b6060610d7e8484600085613527565b6060600080856001600160a01b0316856040516134cc91906140eb565b600060405180830381855af49150503d8060008114613507576040519150601f19603f3d011682016040523d82523d6000602084013e61350c565b606091505b509150915061351d86838387613602565b9695505050505050565b6060824710156135885760405162461bcd60e51b815260206004820152602660248201527f416464726573733a20696e73756666696369656e742062616c616e636520666f6044820152651c8818d85b1b60d21b6064820152608401610dbc565b600080866001600160a01b031685876040516135a491906140eb565b60006040518083038185875af1925050503d80600081146135e1576040519150601f19603f3d011682016040523d82523d6000602084013e6135e6565b606091505b50915091506135f787838387613602565b979650505050505050565b6060831561367157825160000361366a576001600160a01b0385163b61366a5760405162461bcd60e51b815260206004820152601d60248201527f416464726573733a2063616c6c20746f206e6f6e2d636f6e74726163740000006044820152606401610dbc565b5081610d7e565b610d7e83838151156136865781518083602001fd5b8060405162461bcd60e51b8152600401610dbc9190613709565b6000602082840312156136b257600080fd5b5035919050565b60005b838110156136d45781810151838201526020016136bc565b50506000910152565b600081518084526136f58160208601602086016136b9565b601f01601f19169290920160200192915050565b602081526000611acb60208301846136dd565b6001600160a01b038116811461118257600080fd5b6000806040838503121561374457600080fd5b823561374f8161371c565b946020939093013593505050565b634e487b7160e01b600052604160045260246000fd5b604051610160810167ffffffffffffffff811182821017156137975761379761375d565b60405290565b604051601f8201601f1916810167ffffffffffffffff811182821017156137c6576137c661375d565b604052919050565b600082601f8301126137df57600080fd5b813567ffffffffffffffff8111156137f9576137f961375d565b61380c601f8201601f191660200161379d565b81815284602083860101111561382157600080fd5b816020850160208301376000918101602001919091529392505050565b6000806000806080858703121561385457600080fd5b843561385f8161371c565b9350602085013561386f8161371c565b925060408501359150606085013567ffffffffffffffff81111561389257600080fd5b61389e878288016137ce565b91505092959194509250565b6000602082840312156138bc57600080fd5b8135611acb8161371c565b6000806000606084860312156138dc57600080fd5b83356138e78161371c565b925060208401356138f78161371c565b929592945050506040919091013590565b6000806040838503121561391b57600080fd5b50508035926020909101359150565b602080825282518282018190526000919060409081850190868401855b8281101561397f5781518051855286810151878601528501516001600160a01b03168585015260609093019290850190600101613947565b5091979650505050505050565b6000806040838503121561399f57600080fd5b82356139aa8161371c565b915060208301356139ba8161371c565b809150509250929050565b6000806000606084860312156139da57600080fd5b83356139e58161371c565b92506020840135915060408401356139fc8161371c565b809150509250925092565b60008060408385031215613a1a57600080fd5b8235613a258161371c565b9150602083013567ffffffffffffffff811115613a4157600080fd5b613a4d858286016137ce565b9150509250929050565b60ff60f81b881681526000602060e06020840152613a7860e084018a6136dd565b8381036040850152613a8a818a6136dd565b606085018990526001600160a01b038816608086015260a0850187905284810360c08601528551808252602080880193509091019060005b81811015613ade57835183529284019291840191600101613ac2565b50909c9b505050505050505050505050565b801515811461118257600080fd5b60008060408385031215613b1157600080fd5b8235613b1c8161371c565b915060208301356139ba81613af0565b600080600080600080600060e0888a031215613b4757600080fd5b8735613b528161371c565b96506020880135613b628161371c565b95506040880135945060608801359350608088013560ff81168114613b8657600080fd5b9699959850939692959460a0840135945060c09093013592915050565b600181811c90821680613bb757607f821691505b602082108103612dcc57634e487b7160e01b600052602260045260246000fd5b600082601f830112613be857600080fd5b8151602067ffffffffffffffff821115613c0457613c0461375d565b8160051b613c1382820161379d565b9283528481018201928281019087851115613c2d57600080fd5b83870192505b848310156135f757825182529183019190830190613c33565b8051612dce81613af0565b60008060408385031215613c6a57600080fd5b825167ffffffffffffffff80821115613c8257600080fd5b908401906101608287031215613c9757600080fd5b613c9f613773565b825181526020830151602082015260408301516040820152606083015160608201526080830151608082015260a083015160a082015260c083015160c082015260e083015160e08201526101008084015183811115613cfd57600080fd5b613d0989828701613bd7565b8284015250506101208084015183811115613d2357600080fd5b613d2f89828701613bd7565b8284015250506101408084015183811115613d4957600080fd5b613d5589828701613bd7565b828401525050809450505050613d6d60208401613c4c565b90509250929050565b634e487b7160e01b600052603260045260246000fd5b60006001600160a01b03808716835280861660208401525083604083015260a06060830152613dbe60a08301846136dd565b8281036080840152600a8152691b995dc81c1b185b995d60b21b60208201526040810191505095945050505050565b600060208284031215613dff57600080fd5b5051919050565b60006001600160a01b03808716835280861660208401525083604083015260a06060830152613e3860a08301846136dd565b8281036080840152600e81526d1b1a5cdd1a5b99c81c1b185b995d60921b60208201526040810191505095945050505050565b60006001600160a01b03808716835280861660208401525083604083015260a06060830152613e9d60a08301846136dd565b8281036080840152600d81526c1d5b98d85d1959dbdc9a5e9959609a1b60208201526040810191505095945050505050565b60208082526026908201527f5061796d656e7453706c69747465723a206163636f756e7420686173206e6f2060408201526573686172657360d01b606082015260800190565b6020808252602b908201527f5061796d656e7453706c69747465723a206163636f756e74206973206e6f742060408201526a191d59481c185e5b595b9d60aa1b606082015260800190565b634e487b7160e01b600052601160045260246000fd5b80820180821115610b1657610b16613f60565b81810381811115610b1657610b16613f60565b6020808252602c908201527f46756e6374696f6e206d7573742062652063616c6c6564207468726f7567682060408201526b19195b1959d85d1958d85b1b60a21b606082015260800190565b6020808252602c908201527f46756e6374696f6e206d7573742062652063616c6c6564207468726f7567682060408201526b6163746976652070726f787960a01b606082015260800190565b60006020828403121561404657600080fd5b8151611acb81613af0565b6020808252602b908201527f496e697469616c697a61626c653a20636f6e7472616374206973206e6f74206960408201526a6e697469616c697a696e6760a81b606082015260800190565b8082028115828204841417610b1657610b16613f60565b6000826140d057634e487b7160e01b600052601260045260246000fd5b500490565b634e487b7160e01b600052602160045260246000fd5b600082516140fd8184602087016136b9565b919091019291505056fe360894a13ba1a3210667c828492db98dca3e2076cc3735a920a3ca505d382bbc416464726573733a206c6f772d6c6576656c2064656c65676174652063616c6c206661696c6564a26469706673582212200fb8b553c6b3e246d5d6e0e879177299da554bcd24c748a444a4d50eaaaaebae64736f6c63430008180033",
  "linkReferences": {},
  "deployedLinkReferences": {}
}