{
  "_format": "hh-sol-artifact-1",
  "contractName": "HatcherV1",
  "sourceName": "contracts/HatcherV1.sol",
  "abi": [
    {
      "inputs": [],
      "stateMutability": "nonpayable",
      "type": "constructor"
    },
    {
      "inputs": [],
      "name": "Unauthorized",
      "type": "error"
    },
    {
      "anonymous": false,
      "inputs": [
        {
          "indexed": false,
          "internalType": "address",
          "name": "previousAdmin",
          "type": "address"
        },
        {
          "indexed": false,
          "internalType": "address",
          "name": "newAdmin",
          "type": "address"
        }
      ],
      "name": "AdminChanged",
      "type": "event"
    },
    {
      "anonymous": false,
      "inputs": [
        {
          "indexed": true,
          "internalType": "address",
          "name": "owner",
          "type": "address"
        },
        {
          "indexed": true,
          "internalType": "address",
          "name": "spender",
          "type": "address"
        },
        {
          "indexed": false,
          "internalType": "uint256",
          "name": "value",
          "type": "uint256"
        }
      ],
      "name": "Approval",
      "type": "event"
    },
    {
      "anonymous": false,
      "inputs": [
        {
          "indexed": true,
          "internalType": "address",
          "name": "beacon",
          "type": "address"
        }
      ],
      "name": "BeaconUpgraded",
      "type": "event"
    },
    {
      "anonymous": false,
      "inputs": [
        {
          "indexed": false,
          "internalType": "address",
          "name": "sentToUser",
          "type": "address"
        },
        {
          "indexed": false,
          "internalType": "address",
          "name": "token",
          "type": "address"
        },
        {
          "indexed": false,
          "internalType": "uint256",
          "name": "tokenId",
          "type": "uint256"
        }
      ],
      "name": "DeListedAPlanet",
      "type": "event"
    },
    {
      "anonymous": false,
      "inputs": [],
      "name": "EIP712DomainChanged",
      "type": "event"
    },
    {
      "anonymous": false,
      "inputs": [
        {
          "indexed": true,
          "internalType": "contract IERC20Upgradeable",
          "name": "token",
          "type": "address"
        },
        {
          "indexed": false,
          "internalType": "address",
          "name": "to",
          "type": "address"
        },
        {
          "indexed": false,
          "internalType": "uint256",
          "name": "amount",
          "type": "uint256"
        }
      ],
      "name": "ERC20PaymentReleased",
      "type": "event"
    },
    {
      "anonymous": false,
      "inputs": [
        {
          "indexed": false,
          "internalType": "uint8",
          "name": "version",
          "type": "uint8"
        }
      ],
      "name": "Initialized",
      "type": "event"
    },
    {
      "anonymous": false,
      "inputs": [
        {
          "indexed": false,
          "internalType": "address",
          "name": "sentFromUser",
          "type": "address"
        },
        {
          "indexed": false,
          "internalType": "address",
          "name": "token",
          "type": "address"
        },
        {
          "indexed": false,
          "internalType": "uint256",
          "name": "tokenId",
          "type": "uint256"
        },
        {
          "indexed": false,
          "internalType": "uint256",
          "name": "price",
          "type": "uint256"
        }
      ],
      "name": "ListedAPlanet",
      "type": "event"
    },
    {
      "anonymous": false,
      "inputs": [
        {
          "indexed": false,
          "internalType": "address",
          "name": "operator",
          "type": "address"
        },
        {
          "indexed": false,
          "internalType": "address",
          "name": "from",
          "type": "address"
        },
        {
          "indexed": false,
          "internalType": "uint256",
          "name": "tokenId",
          "type": "uint256"
        },
        {
          "indexed": false,
          "internalType": "bytes",
          "name": "data",
          "type": "bytes"
        }
      ],
      "name": "NftReceived",
      "type": "event"
    },
    {
      "anonymous": false,
      "inputs": [
        {
          "indexed": true,
          "internalType": "address",
          "name": "previousOwner",
          "type": "address"
        },
        {
          "indexed": true,
          "internalType": "address",
          "name": "newOwner",
          "type": "address"
        }
      ],
      "name": "OwnershipTransferred",
      "type": "event"
    },
    {
      "anonymous": false,
      "inputs": [
        {
          "indexed": false,
          "internalType": "address",
          "name": "account",
          "type": "address"
        }
      ],
      "name": "Paused",
      "type": "event"
    },
    {
      "anonymous": false,
      "inputs": [
        {
          "indexed": false,
          "internalType": "address",
          "name": "account",
          "type": "address"
        },
        {
          "indexed": false,
          "internalType": "uint256",
          "name": "shares",
          "type": "uint256"
        }
      ],
      "name": "PayeeAdded",
      "type": "event"
    },
    {
      "anonymous": false,
      "inputs": [
        {
          "indexed": false,
          "internalType": "address",
          "name": "from",
          "type": "address"
        },
        {
          "indexed": false,
          "internalType": "uint256",
          "name": "amount",
          "type": "uint256"
        }
      ],
      "name": "PaymentReceived",
      "type": "event"
    },
    {
      "anonymous": false,
      "inputs": [
        {
          "indexed": false,
          "internalType": "address",
          "name": "to",
          "type": "address"
        },
        {
          "indexed": false,
          "internalType": "uint256",
          "name": "amount",
          "type": "uint256"
        }
      ],
      "name": "PaymentReleased",
      "type": "event"
    },
    {
      "anonymous": false,
      "inputs": [
        {
          "indexed": false,
          "internalType": "uint256",
          "name": "planetAsking",
          "type": "uint256"
        },
        {
          "indexed": false,
          "internalType": "address",
          "name": "askingUser",
          "type": "address"
        },
        {
          "indexed": false,
          "internalType": "uint256",
          "name": "planetJoining",
          "type": "uint256"
        },
        {
          "indexed": false,
          "internalType": "address",
          "name": "joiningUser",
          "type": "address"
        }
      ],
      "name": "PlanetsConjoining",
      "type": "event"
    },
    {
      "anonymous": false,
      "inputs": [
        {
          "indexed": true,
          "internalType": "address",
          "name": "from",
          "type": "address"
        },
        {
          "indexed": true,
          "internalType": "address",
          "name": "to",
          "type": "address"
        },
        {
          "indexed": false,
          "internalType": "uint256",
          "name": "value",
          "type": "uint256"
        }
      ],
      "name": "Transfer",
      "type": "event"
    },
    {
      "anonymous": false,
      "inputs": [
        {
          "indexed": false,
          "internalType": "address",
          "name": "account",
          "type": "address"
        }
      ],
      "name": "Unpaused",
      "type": "event"
    },
    {
      "anonymous": false,
      "inputs": [
        {
          "indexed": true,
          "internalType": "address",
          "name": "implementation",
          "type": "address"
        }
      ],
      "name": "Upgraded",
      "type": "event"
    },
    {
      "inputs": [],
      "name": "DOMAIN_SEPARATOR",
      "outputs": [
        {
          "internalType": "bytes32",
          "name": "",
          "type": "bytes32"
        }
      ],
      "stateMutability": "view",
      "type": "function"
    },
    {
      "inputs": [
        {
          "internalType": "address",
          "name": "owner",
          "type": "address"
        },
        {
          "internalType": "address",
          "name": "spender",
          "type": "address"
        }
      ],
      "name": "allowance",
      "outputs": [
        {
          "internalType": "uint256",
          "name": "",
          "type": "uint256"
        }
      ],
      "stateMutability": "view",
      "type": "function"
    },
    {
      "inputs": [
        {
          "internalType": "address",
          "name": "spender",
          "type": "address"
        },
        {
          "internalType": "uint256",
          "name": "amount",
          "type": "uint256"
        }
      ],
      "name": "approve",
      "outputs": [
        {
          "internalType": "bool",
          "name": "",
          "type": "bool"
        }
      ],
      "stateMutability": "nonpayable",
      "type": "function"
    },
    {
      "inputs": [
        {
          "internalType": "address",
          "name": "operator",
          "type": "address"
        },
        {
          "internalType": "bool",
          "name": "approved",
          "type": "bool"
        }
      ],
      "name": "approveForAllAsOwner",
      "outputs": [],
      "stateMutability": "nonpayable",
      "type": "function"
    },
    {
      "inputs": [
        {
          "internalType": "address",
          "name": "account",
          "type": "address"
        }
      ],
      "name": "balanceOf",
      "outputs": [
        {
          "internalType": "uint256",
          "name": "",
          "type": "uint256"
        }
      ],
      "stateMutability": "view",
      "type": "function"
    },
    {
      "inputs": [
        {
          "internalType": "uint256",
          "name": "newVRF",
          "type": "uint256"
        }
      ],
      "name": "changeVRFValue",
      "outputs": [],
      "stateMutability": "nonpayable",
      "type": "function"
    },
    {
      "inputs": [
        {
          "internalType": "address",
          "name": "",
          "type": "address"
        },
        {
          "internalType": "uint256",
          "name": "",
          "type": "uint256"
        }
      ],
      "name": "claimablePlanets",
      "outputs": [
        {
          "internalType": "address",
          "name": "ownerParentAddress",
          "type": "address"
        },
        {
          "internalType": "uint256",
          "name": "ownerTokenId",
          "type": "uint256"
        },
        {
          "internalType": "bool",
          "name": "delivered",
          "type": "bool"
        },
        {
          "internalType": "address",
          "name": "otherParent",
          "type": "address"
        },
        {
          "internalType": "uint256",
          "name": "otherTokenId",
          "type": "uint256"
        }
      ],
      "stateMutability": "view",
      "type": "function"
    },
    {
      "inputs": [
        {
          "internalType": "uint256",
          "name": "",
          "type": "uint256"
        }
      ],
      "name": "claimableTokenIdToOwnerAddress",
      "outputs": [
        {
          "internalType": "address",
          "name": "",
          "type": "address"
        }
      ],
      "stateMutability": "view",
      "type": "function"
    },
    {
      "inputs": [
        {
          "internalType": "uint256",
          "name": "yourPlanet",
          "type": "uint256"
        },
        {
          "internalType": "uint256",
          "name": "withListedPlanet",
          "type": "uint256"
        }
      ],
      "name": "conjunct",
      "outputs": [],
      "stateMutability": "payable",
      "type": "function"
    },
    {
      "inputs": [
        {
          "internalType": "uint256",
          "name": "idIndex",
          "type": "uint256"
        },
        {
          "internalType": "uint256",
          "name": "tokenId",
          "type": "uint256"
        }
      ],
      "name": "deList",
      "outputs": [],
      "stateMutability": "nonpayable",
      "type": "function"
    },
    {
      "inputs": [],
      "name": "deListAllYourPlanets",
      "outputs": [],
      "stateMutability": "nonpayable",
      "type": "function"
    },
    {
      "inputs": [],
      "name": "decimals",
      "outputs": [
        {
          "internalType": "uint8",
          "name": "",
          "type": "uint8"
        }
      ],
      "stateMutability": "view",
      "type": "function"
    },
    {
      "inputs": [
        {
          "internalType": "address",
          "name": "spender",
          "type": "address"
        },
        {
          "internalType": "uint256",
          "name": "subtractedValue",
          "type": "uint256"
        }
      ],
      "name": "decreaseAllowance",
      "outputs": [
        {
          "internalType": "bool",
          "name": "",
          "type": "bool"
        }
      ],
      "stateMutability": "nonpayable",
      "type": "function"
    },
    {
      "inputs": [],
      "name": "eip712Domain",
      "outputs": [
        {
          "internalType": "bytes1",
          "name": "fields",
          "type": "bytes1"
        },
        {
          "internalType": "string",
          "name": "name",
          "type": "string"
        },
        {
          "internalType": "string",
          "name": "version",
          "type": "string"
        },
        {
          "internalType": "uint256",
          "name": "chainId",
          "type": "uint256"
        },
        {
          "internalType": "address",
          "name": "verifyingContract",
          "type": "address"
        },
        {
          "internalType": "bytes32",
          "name": "salt",
          "type": "bytes32"
        },
        {
          "internalType": "uint256[]",
          "name": "extensions",
          "type": "uint256[]"
        }
      ],
      "stateMutability": "view",
      "type": "function"
    },
    {
      "inputs": [],
      "name": "getAllPlanets",
      "outputs": [
        {
          "components": [
            {
              "internalType": "uint256",
              "name": "planet",
              "type": "uint256"
            },
            {
              "internalType": "uint256",
              "name": "price",
              "type": "uint256"
            },
            {
              "internalType": "address",
              "name": "ownerAddress",
              "type": "address"
            }
          ],
          "internalType": "struct ListedPlanet[]",
          "name": "",
          "type": "tuple[]"
        }
      ],
      "stateMutability": "view",
      "type": "function"
    },
    {
      "inputs": [
        {
          "internalType": "uint256",
          "name": "startIndex",
          "type": "uint256"
        },
        {
          "internalType": "uint256",
          "name": "endIndex",
          "type": "uint256"
        }
      ],
      "name": "getPlanetsPaginated",
      "outputs": [
        {
          "components": [
            {
              "internalType": "uint256",
              "name": "planet",
              "type": "uint256"
            },
            {
              "internalType": "uint256",
              "name": "price",
              "type": "uint256"
            },
            {
              "internalType": "address",
              "name": "ownerAddress",
              "type": "address"
            }
          ],
          "internalType": "struct ListedPlanet[]",
          "name": "",
          "type": "tuple[]"
        }
      ],
      "stateMutability": "view",
      "type": "function"
    },
    {
      "inputs": [
        {
          "internalType": "address",
          "name": "spender",
          "type": "address"
        },
        {
          "internalType": "uint256",
          "name": "addedValue",
          "type": "uint256"
        }
      ],
      "name": "increaseAllowance",
      "outputs": [
        {
          "internalType": "bool",
          "name": "",
          "type": "bool"
        }
      ],
      "stateMutability": "nonpayable",
      "type": "function"
    },
    {
      "inputs": [],
      "name": "initialize",
      "outputs": [],
      "stateMutability": "nonpayable",
      "type": "function"
    },
    {
      "inputs": [],
      "name": "listAllYourPlanets",
      "outputs": [],
      "stateMutability": "nonpayable",
      "type": "function"
    },
    {
      "inputs": [],
      "name": "name",
      "outputs": [
        {
          "internalType": "string",
          "name": "",
          "type": "string"
        }
      ],
      "stateMutability": "view",
      "type": "function"
    },
    {
      "inputs": [
        {
          "internalType": "address",
          "name": "owner",
          "type": "address"
        }
      ],
      "name": "nonces",
      "outputs": [
        {
          "internalType": "uint256",
          "name": "",
          "type": "uint256"
        }
      ],
      "stateMutability": "view",
      "type": "function"
    },
    {
      "inputs": [
        {
          "internalType": "address",
          "name": "operator",
          "type": "address"
        },
        {
          "internalType": "address",
          "name": "from",
          "type": "address"
        },
        {
          "internalType": "uint256",
          "name": "tokenId",
          "type": "uint256"
        },
        {
          "internalType": "bytes",
          "name": "data",
          "type": "bytes"
        }
      ],
      "name": "onERC721Received",
      "outputs": [
        {
          "internalType": "bytes4",
          "name": "",
          "type": "bytes4"
        }
      ],
      "stateMutability": "nonpayable",
      "type": "function"
    },
    {
      "inputs": [],
      "name": "owner",
      "outputs": [
        {
          "internalType": "address",
          "name": "",
          "type": "address"
        }
      ],
      "stateMutability": "view",
      "type": "function"
    },
    {
      "inputs": [],
      "name": "pause",
      "outputs": [],
      "stateMutability": "nonpayable",
      "type": "function"
    },
    {
      "inputs": [],
      "name": "paused",
      "outputs": [
        {
          "internalType": "bool",
          "name": "",
          "type": "bool"
        }
      ],
      "stateMutability": "view",
      "type": "function"
    },
    {
      "inputs": [
        {
          "internalType": "uint256",
          "name": "index",
          "type": "uint256"
        }
      ],
      "name": "payee",
      "outputs": [
        {
          "internalType": "address",
          "name": "",
          "type": "address"
        }
      ],
      "stateMutability": "view",
      "type": "function"
    },
    {
      "inputs": [
        {
          "internalType": "address",
          "name": "owner",
          "type": "address"
        },
        {
          "internalType": "address",
          "name": "spender",
          "type": "address"
        },
        {
          "internalType": "uint256",
          "name": "value",
          "type": "uint256"
        },
        {
          "internalType": "uint256",
          "name": "deadline",
          "type": "uint256"
        },
        {
          "internalType": "uint8",
          "name": "v",
          "type": "uint8"
        },
        {
          "internalType": "bytes32",
          "name": "r",
          "type": "bytes32"
        },
        {
          "internalType": "bytes32",
          "name": "s",
          "type": "bytes32"
        }
      ],
      "name": "permit",
      "outputs": [],
      "stateMutability": "nonpayable",
      "type": "function"
    },
    {
      "inputs": [],
      "name": "proxiableUUID",
      "outputs": [
        {
          "internalType": "bytes32",
          "name": "",
          "type": "bytes32"
        }
      ],
      "stateMutability": "view",
      "type": "function"
    },
    {
      "inputs": [
        {
          "internalType": "address",
          "name": "account",
          "type": "address"
        }
      ],
      "name": "releasable",
      "outputs": [
        {
          "internalType": "uint256",
          "name": "",
          "type": "uint256"
        }
      ],
      "stateMutability": "view",
      "type": "function"
    },
    {
      "inputs": [
        {
          "internalType": "contract IERC20Upgradeable",
          "name": "token",
          "type": "address"
        },
        {
          "internalType": "address",
          "name": "account",
          "type": "address"
        }
      ],
      "name": "releasable",
      "outputs": [
        {
          "internalType": "uint256",
          "name": "",
          "type": "uint256"
        }
      ],
      "stateMutability": "view",
      "type": "function"
    },
    {
      "inputs": [
        {
          "internalType": "address payable",
          "name": "account",
          "type": "address"
        }
      ],
      "name": "release",
      "outputs": [],
      "stateMutability": "nonpayable",
      "type": "function"
    },
    {
      "inputs": [
        {
          "internalType": "contract IERC20Upgradeable",
          "name": "token",
          "type": "address"
        },
        {
          "internalType": "address",
          "name": "account",
          "type": "address"
        }
      ],
      "name": "release",
      "outputs": [],
      "stateMutability": "nonpayable",
      "type": "function"
    },
    {
      "inputs": [
        {
          "internalType": "contract IERC20Upgradeable",
          "name": "token",
          "type": "address"
        },
        {
          "internalType": "address",
          "name": "account",
          "type": "address"
        }
      ],
      "name": "released",
      "outputs": [
        {
          "internalType": "uint256",
          "name": "",
          "type": "uint256"
        }
      ],
      "stateMutability": "view",
      "type": "function"
    },
    {
      "inputs": [
        {
          "internalType": "address",
          "name": "account",
          "type": "address"
        }
      ],
      "name": "released",
      "outputs": [
        {
          "internalType": "uint256",
          "name": "",
          "type": "uint256"
        }
      ],
      "stateMutability": "view",
      "type": "function"
    },
    {
      "inputs": [],
      "name": "renounceOwnership",
      "outputs": [],
      "stateMutability": "nonpayable",
      "type": "function"
    },
    {
      "inputs": [
        {
          "internalType": "address",
          "name": "_breederContractAddr",
          "type": "address"
        },
        {
          "internalType": "uint256",
          "name": "_vrfValue",
          "type": "uint256"
        },
        {
          "internalType": "address",
          "name": "_nftContractAddr",
          "type": "address"
        }
      ],
      "name": "setAllOf",
      "outputs": [],
      "stateMutability": "nonpayable",
      "type": "function"
    },
    {
      "inputs": [
        {
          "internalType": "address payable",
          "name": "newTAdd",
          "type": "address"
        }
      ],
      "name": "setTAdd",
      "outputs": [],
      "stateMutability": "nonpayable",
      "type": "function"
    },
    {
      "inputs": [
        {
          "internalType": "address",
          "name": "account",
          "type": "address"
        }
      ],
      "name": "shares",
      "outputs": [
        {
          "internalType": "uint256",
          "name": "",
          "type": "uint256"
        }
      ],
      "stateMutability": "view",
      "type": "function"
    },
    {
      "inputs": [],
      "name": "status",
      "outputs": [],
      "stateMutability": "nonpayable",
      "type": "function"
    },
    {
      "inputs": [],
      "name": "symbol",
      "outputs": [
        {
          "internalType": "string",
          "name": "",
          "type": "string"
        }
      ],
      "stateMutability": "view",
      "type": "function"
    },
    {
      "inputs": [
        {
          "internalType": "contract IERC20Upgradeable",
          "name": "token",
          "type": "address"
        }
      ],
      "name": "totalReleased",
      "outputs": [
        {
          "internalType": "uint256",
          "name": "",
          "type": "uint256"
        }
      ],
      "stateMutability": "view",
      "type": "function"
    },
    {
      "inputs": [],
      "name": "totalReleased",
      "outputs": [
        {
          "internalType": "uint256",
          "name": "",
          "type": "uint256"
        }
      ],
      "stateMutability": "view",
      "type": "function"
    },
    {
      "inputs": [],
      "name": "totalShares",
      "outputs": [
        {
          "internalType": "uint256",
          "name": "",
          "type": "uint256"
        }
      ],
      "stateMutability": "view",
      "type": "function"
    },
    {
      "inputs": [],
      "name": "totalSupply",
      "outputs": [
        {
          "internalType": "uint256",
          "name": "",
          "type": "uint256"
        }
      ],
      "stateMutability": "view",
      "type": "function"
    },
    {
      "inputs": [
        {
          "internalType": "address",
          "name": "to",
          "type": "address"
        },
        {
          "internalType": "uint256",
          "name": "amount",
          "type": "uint256"
        }
      ],
      "name": "transfer",
      "outputs": [
        {
          "internalType": "bool",
          "name": "",
          "type": "bool"
        }
      ],
      "stateMutability": "nonpayable",
      "type": "function"
    },
    {
      "inputs": [
        {
          "internalType": "address",
          "name": "from",
          "type": "address"
        },
        {
          "internalType": "address",
          "name": "to",
          "type": "address"
        },
        {
          "internalType": "uint256",
          "name": "amount",
          "type": "uint256"
        }
      ],
      "name": "transferFrom",
      "outputs": [
        {
          "internalType": "bool",
          "name": "",
          "type": "bool"
        }
      ],
      "stateMutability": "nonpayable",
      "type": "function"
    },
    {
      "inputs": [
        {
          "internalType": "address",
          "name": "newOwner",
          "type": "address"
        }
      ],
      "name": "transferOwnership",
      "outputs": [],
      "stateMutability": "nonpayable",
      "type": "function"
    },
    {
      "inputs": [],
      "name": "unpause",
      "outputs": [],
      "stateMutability": "nonpayable",
      "type": "function"
    },
    {
      "inputs": [
        {
          "internalType": "address",
          "name": "newImplementation",
          "type": "address"
        }
      ],
      "name": "upgradeTo",
      "outputs": [],
      "stateMutability": "nonpayable",
      "type": "function"
    },
    {
      "inputs": [
        {
          "internalType": "address",
          "name": "newImplementation",
          "type": "address"
        },
        {
          "internalType": "bytes",
          "name": "data",
          "type": "bytes"
        }
      ],
      "name": "upgradeToAndCall",
      "outputs": [],
      "stateMutability": "payable",
      "type": "function"
    },
    {
      "inputs": [
        {
          "internalType": "address",
          "name": "",
          "type": "address"
        },
        {
          "internalType": "uint256",
          "name": "",
          "type": "uint256"
        }
      ],
      "name": "userToListedPlanets",
      "outputs": [
        {
          "internalType": "uint256",
          "name": "planet",
          "type": "uint256"
        },
        {
          "internalType": "uint256",
          "name": "price",
          "type": "uint256"
        },
        {
          "internalType": "address",
          "name": "ownerAddress",
          "type": "address"
        }
      ],
      "stateMutability": "view",
      "type": "function"
    },
    {
      "inputs": [],
      "name": "withdrawFunds",
      "outputs": [],
      "stateMutability": "nonpayable",
      "type": "function"
    },
    {
      "stateMutability": "payable",
      "type": "receive"
    }
  ],
  "bytecode": "0x60a0604052306080523480156200001557600080fd5b506200002062000026565b620000e7565b600054610100900460ff1615620000935760405162461bcd60e51b815260206004820152602760248201527f496e697469616c697a61626c653a20636f6e747261637420697320696e697469604482015266616c697a696e6760c81b606482015260840160405180910390fd5b60005460ff90811614620000e5576000805460ff191660ff9081179091556040519081527f7f26b83ff96e1f2b6a682f133852f6798a09c465da95921460cefb38474024989060200160405180910390a15b565b60805161447b6200011f6000396000818161111d015281816111a2015281816114bd015281816115420152611628015261447b6000f3fe6080604052600436106103435760003560e01c8063715018a6116101b0578063a9059cbb116100ec578063d28eb2dc11610095578063dd62ed3e1161006f578063dd62ed3e146109dc578063e22aecb414610a22578063e33b7de314610a7d578063f2fde38b14610a9357600080fd5b8063d28eb2dc14610965578063d505accf14610985578063d79779b2146109a557600080fd5b8063cbdf1b5a116100c6578063cbdf1b5a146108ee578063cdb82a371461090e578063ce7c2ac21461092e57600080fd5b8063a9059cbb1461088e578063c45ac050146108ae578063c7c0e6b1146108ce57600080fd5b806385fe72431161015957806395d89b411161013357806395d89b41146108025780639852595c14610817578063a3f8eace1461084e578063a457c2d71461086e57600080fd5b806385fe72431461077f5780638b83209b146107c35780638da5cb5b146107e357600080fd5b80638230a7841161018a5780638230a784146107445780638456cb59146104d557806384b0196e1461075757600080fd5b8063715018a6146106fa5780637ecebe001461070f5780638129fc1c1461072f57600080fd5b80633659cfe61161027f5780634a02099b1161022857806352d1902d1161020257806352d1902d146106825780635c975abb146106975780636a23befb146106af57806370a08231146106c457600080fd5b80634a02099b1461064f5780634f1ef2861461066f57806350842cf3146104c957600080fd5b80633f4ba83a116102595780633f4ba83a146105d3578063406072a9146105e857806348b750441461062f57600080fd5b80633659cfe61461057d578063395093511461059d5780633a98ef39146105bd57600080fd5b80631ac9a91e116102ec57806324600fc3116102c657806324600fc31461050a578063259478181461051f578063313ce5671461054c5780633644e5151461056857600080fd5b80631ac9a91e146104c9578063200d2ed2146104d557806323b872dd146104ea57600080fd5b8063150b7a021161031d578063150b7a021461043757806318160ddd1461048857806319165587146104a757600080fd5b8063064db8741461039157806306fdde03146103e5578063095ea7b31461040757600080fd5b3661038c577f6ef95f06320e7a25a04a175ca677b7052bdd97131872c2192525a629f51be77033604080516001600160a01b0390921682523460208301520160405180910390a1005b600080fd5b34801561039d57600080fd5b506103c86103ac366004613c02565b6101cc602052600090815260409020546001600160a01b031681565b6040516001600160a01b0390911681526020015b60405180910390f35b3480156103f157600080fd5b506103fa610ab3565b6040516103dc9190613c6b565b34801561041357600080fd5b50610427610422366004613c93565b610b45565b60405190151581526020016103dc565b34801561044357600080fd5b50610457610452366004613da0565b610b5f565b6040517fffffffff0000000000000000000000000000000000000000000000000000000090911681526020016103dc565b34801561049457600080fd5b5060cb545b6040519081526020016103dc565b3480156104b357600080fd5b506104c76104c2366004613e0c565b610d62565b005b3480156104c757600080fd5b3480156104e157600080fd5b506104c7610ed6565b3480156104f657600080fd5b50610427610505366004613e29565b610ee6565b34801561051657600080fd5b506104c7610f0a565b34801561052b57600080fd5b5061053f61053a366004613e6a565b610f44565b6040516103dc9190613e8c565b34801561055857600080fd5b50604051601281526020016103dc565b34801561057457600080fd5b50610499611104565b34801561058957600080fd5b506104c7610598366004613e0c565b611113565b3480156105a957600080fd5b506104276105b8366004613c93565b61128e565b3480156105c957600080fd5b5061016254610499565b3480156105df57600080fd5b506104c76112cd565b3480156105f457600080fd5b50610499610603366004613eee565b6001600160a01b0391821660009081526101686020908152604080832093909416825291909152205490565b34801561063b57600080fd5b506104c761064a366004613eee565b6112dd565b34801561065b57600080fd5b506104c761066a366004613f27565b611474565b6104c761067d366004613f69565b6114b3565b34801561068e57600080fd5b5061049961161b565b3480156106a357600080fd5b5060335460ff16610427565b3480156106bb57600080fd5b5061053f6116e0565b3480156106d057600080fd5b506104996106df366004613e0c565b6001600160a01b0316600090815260c9602052604090205490565b34801561070657600080fd5b506104c7611763565b34801561071b57600080fd5b5061049961072a366004613e0c565b611775565b34801561073b57600080fd5b506104c7611794565b6104c7610752366004613e6a565b6118c3565b34801561076357600080fd5b5061076c611bdb565b6040516103dc9796959493929190613fb9565b34801561078b57600080fd5b5061079f61079a366004613c93565b611c9d565b6040805193845260208401929092526001600160a01b0316908201526060016103dc565b3480156107cf57600080fd5b506103c86107de366004613c02565b611ce9565b3480156107ef57600080fd5b50610194546001600160a01b03166103c8565b34801561080e57600080fd5b506103fa611d1a565b34801561082357600080fd5b50610499610832366004613e0c565b6001600160a01b03166000908152610165602052604090205490565b34801561085a57600080fd5b50610499610869366004613e0c565b611d29565b34801561087a57600080fd5b50610427610889366004613c93565b611d73565b34801561089a57600080fd5b506104276108a9366004613c93565b611e1d565b3480156108ba57600080fd5b506104996108c9366004613eee565b611e2b565b3480156108da57600080fd5b506104c76108e9366004613c02565b611f09565b3480156108fa57600080fd5b506104c7610909366004613e6a565b611f17565b34801561091a57600080fd5b506104c7610929366004613e0c565b6120b6565b34801561093a57600080fd5b50610499610949366004613e0c565b6001600160a01b03166000908152610164602052604090205490565b34801561097157600080fd5b506104c761098036600461407c565b6120e1565b34801561099157600080fd5b506104c76109a03660046140aa565b61216f565b3480156109b157600080fd5b506104996109c0366004613e0c565b6001600160a01b03166000908152610167602052604090205490565b3480156109e857600080fd5b506104996109f7366004613eee565b6001600160a01b03918216600090815260ca6020908152604080832093909416825291909152205490565b348015610a2e57600080fd5b50610a42610a3d366004613c93565b6122d3565b604080516001600160a01b0396871681526020810195909552921515928401929092529092166060820152608081019190915260a0016103dc565b348015610a8957600080fd5b5061016354610499565b348015610a9f57600080fd5b506104c7610aae366004613e0c565b612333565b606060cc8054610ac290614121565b80601f0160208091040260200160405190810160405280929190818152602001828054610aee90614121565b8015610b3b5780601f10610b1057610100808354040283529160200191610b3b565b820191906000526020600020905b815481529060010190602001808311610b1e57829003601f168201915b5050505050905090565b600033610b538185856123c0565b60019150505b92915050565b60007f0895c277367ff99b8c0dec875f3149fc2c82df592f63ca6f0747ac209516908785858585604051610b969493929190614155565b60405180910390a133158015610bba57506101c8546001600160a01b038681169116145b15610d0b576101c8546040517fdc9ce7a50000000000000000000000000000000000000000000000000000000081526004810185905260009182916001600160a01b039091169063dc9ce7a590602401600060405180830381865afa158015610c27573d6000803e3d6000fd5b505050506040513d6000823e601f3d908101601f19168201604052610c4f919081019061420c565b915091506000826101200151905060006101cc600083600081518110610c7757610c7761432b565b6020026020010151815260200190815260200160002060009054906101000a90046001600160a01b0316905060006101cc600084600181518110610cbd57610cbd61432b565b60209081029190910181015182528181019290925260409081016000205481518083019092526001600160a01b03858116835216918101829052909150610d0381612518565b505050505050505b815115610d3757600082806020019051810190610d289190614341565b9050610d3584828761278b565b505b507f150b7a02000000000000000000000000000000000000000000000000000000005b949350505050565b6001600160a01b03811660009081526101646020526040902054610ddc5760405162461bcd60e51b815260206004820152602660248201527f5061796d656e7453706c69747465723a206163636f756e7420686173206e6f2060448201526573686172657360d01b60648201526084015b60405180910390fd5b6000610de782611d29565b905080600003610e4d5760405162461bcd60e51b815260206004820152602b60248201527f5061796d656e7453706c69747465723a206163636f756e74206973206e6f742060448201526a191d59481c185e5b595b9d60aa1b6064820152608401610dd3565b806101636000828254610e609190614370565b90915550506001600160a01b038216600090815261016560205260409020805482019055610e8e82826128d7565b604080516001600160a01b0384168152602081018390527fdf20fd1e76bc69d672e4814fafb2c449bba3a5369d8359adf9e05e6fde87b056910160405180910390a15050565b565b610ede6129f5565b610ed4612a50565b600033610ef4858285612aaa565b610eff858585612b3c565b506001949350505050565b610f126129f5565b604051339081904780156108fc02916000818181858888f19350505050158015610f40573d6000803e3d6000fd5b5050565b6060828211610f955760405162461bcd60e51b815260206004820152600d60248201527f496e76616c696420696e646578000000000000000000000000000000000000006044820152606401610dd3565b6101cb54821115610fe85760405162461bcd60e51b815260206004820152601360248201527f496e646578206f7574206f6620626f756e6473000000000000000000000000006044820152606401610dd3565b6000610ff48484614383565b67ffffffffffffffff81111561100c5761100c613cbf565b60405190808252806020026020018201604052801561106a57816020015b6110576040518060600160405280600081526020016000815260200160006001600160a01b031681525090565b81526020019060019003908161102a5790505b509050835b838110156110fc576101cb818154811061108b5761108b61432b565b6000918252602091829020604080516060810182526003909302909101805483526001810154938301939093526002909201546001600160a01b031691810191909152826110d98784614383565b815181106110e9576110e961432b565b602090810291909101015260010161106f565b509392505050565b600061110e612d30565b905090565b6001600160a01b037f00000000000000000000000000000000000000000000000000000000000000001630036111a05760405162461bcd60e51b815260206004820152602c60248201527f46756e6374696f6e206d7573742062652063616c6c6564207468726f7567682060448201526b19195b1959d85d1958d85b1b60a21b6064820152608401610dd3565b7f00000000000000000000000000000000000000000000000000000000000000006001600160a01b03166111fb7f360894a13ba1a3210667c828492db98dca3e2076cc3735a920a3ca505d382bbc546001600160a01b031690565b6001600160a01b0316146112665760405162461bcd60e51b815260206004820152602c60248201527f46756e6374696f6e206d7573742062652063616c6c6564207468726f7567682060448201526b6163746976652070726f787960a01b6064820152608401610dd3565b61126f81612d3a565b6040805160008082526020820190925261128b91839190612d42565b50565b33600081815260ca602090815260408083206001600160a01b0387168452909152812054909190610b5390829086906112c8908790614370565b6123c0565b6112d56129f5565b610ed4612ee2565b6001600160a01b038116600090815261016460205260409020546113525760405162461bcd60e51b815260206004820152602660248201527f5061796d656e7453706c69747465723a206163636f756e7420686173206e6f2060448201526573686172657360d01b6064820152608401610dd3565b600061135e8383611e2b565b9050806000036113c45760405162461bcd60e51b815260206004820152602b60248201527f5061796d656e7453706c69747465723a206163636f756e74206973206e6f742060448201526a191d59481c185e5b595b9d60aa1b6064820152608401610dd3565b6001600160a01b03831660009081526101676020526040812080548392906113ed908490614370565b90915550506001600160a01b03808416600090815261016860209081526040808320938616835292905220805482019055611429838383612f1b565b604080516001600160a01b038481168252602082018490528516917f3be5b7a71e84ed12875d241991c70855ac5817d847039e17a9d895c1ceb0f18a910160405180910390a2505050565b61147c6129f5565b6101c9919091556101c680546001600160a01b039384166001600160a01b0319918216179091556101c88054929093169116179055565b6001600160a01b037f00000000000000000000000000000000000000000000000000000000000000001630036115405760405162461bcd60e51b815260206004820152602c60248201527f46756e6374696f6e206d7573742062652063616c6c6564207468726f7567682060448201526b19195b1959d85d1958d85b1b60a21b6064820152608401610dd3565b7f00000000000000000000000000000000000000000000000000000000000000006001600160a01b031661159b7f360894a13ba1a3210667c828492db98dca3e2076cc3735a920a3ca505d382bbc546001600160a01b031690565b6001600160a01b0316146116065760405162461bcd60e51b815260206004820152602c60248201527f46756e6374696f6e206d7573742062652063616c6c6564207468726f7567682060448201526b6163746976652070726f787960a01b6064820152608401610dd3565b61160f82612d3a565b610f4082826001612d42565b6000306001600160a01b037f000000000000000000000000000000000000000000000000000000000000000016146116bb5760405162461bcd60e51b815260206004820152603860248201527f555550535570677261646561626c653a206d757374206e6f742062652063616c60448201527f6c6564207468726f7567682064656c656761746563616c6c00000000000000006064820152608401610dd3565b507f360894a13ba1a3210667c828492db98dca3e2076cc3735a920a3ca505d382bbc90565b60606101cb805480602002602001604051908101604052809291908181526020016000905b8282101561175a576000848152602090819020604080516060810182526003860290920180548352600180820154848601526002909101546001600160a01b0316918301919091529083529092019101611705565b50505050905090565b61176b6129f5565b610ed46000612f9b565b6001600160a01b038116600090815261012f6020526040812054610b59565b600054610100900460ff16158080156117b45750600054600160ff909116105b806117ce5750303b1580156117ce575060005460ff166001145b6118405760405162461bcd60e51b815260206004820152602e60248201527f496e697469616c697a61626c653a20636f6e747261637420697320616c72656160448201527f647920696e697469616c697a65640000000000000000000000000000000000006064820152608401610dd3565b6000805460ff191660011790558015611863576000805461ff0019166101001790555b61186b612fee565b611873613061565b61187b6130d4565b801561128b576000805461ff0019169055604051600181527f7f26b83ff96e1f2b6a682f133852f6798a09c465da95921460cefb38474024989060200160405180910390a150565b80600080806118d18461313f565b9050806101c9546118e29190614370565b3410156118ee57600080fd5b6000805b6101cb5481101561196957866101cb82815481106119125761191261432b565b90600052602060002090600302016000015403611961576101cb818154811061193d5761193d61432b565b60009182526020909120600260039092020101546001600160a01b03169150611969565b6001016118f2565b50604051600b9060009081906001600160a01b0385169084908381818185875af1925050503d80600081146119ba576040519150601f19603f3d011682016040523d82523d6000602084013e6119bf565b606091505b509150915081611a115760405162461bcd60e51b815260206004820152601460248201527f4661696c656420746f2073656e642045746865720000000000000000000000006044820152606401610dd3565b6101c6546040517fbf0e57a3000000000000000000000000000000000000000000000000000000008152600481018c9052602481018b9052600060448201523460648201526001600160a01b039091169063bf0e57a3906084016020604051808303816000875af1158015611a8a573d6000803e3d6000fd5b505050506040513d601f19601f82011682018060405250810190611aae9190614341565b50826101c954611abe9190614370565b341115611b7f576000336001600160a01b0316846101c95434611ae19190614383565b611aeb9190614383565b604051600081818185875af1925050503d8060008114611b27576040519150601f19603f3d011682016040523d82523d6000602084013e611b2c565b606091505b5050905080611b7d5760405162461bcd60e51b815260206004820152601d60248201527f4661696c656420746f20726566756e64206578636573732045746865720000006044820152606401610dd3565b505b604080518b81526001600160a01b0389811660208301528183018c90528816606082015290517f8557df6951fbdd47fe9027516fc896be40f285ed55a6acac460352adbab730cd9181900360800190a150505050505050505050565b60006060806000806000606060fb546000801b148015611bfb575060fc54155b611c475760405162461bcd60e51b815260206004820152601560248201527f4549503731323a20556e696e697469616c697a656400000000000000000000006044820152606401610dd3565b611c4f6131b6565b611c576131c5565b604080516000808252602082019092527f0f000000000000000000000000000000000000000000000000000000000000009b939a50919850469750309650945092509050565b6101ca6020528160005260406000208181548110611cba57600080fd5b60009182526020909120600390910201805460018201546002909201549093509091506001600160a01b031683565b60006101668281548110611cff57611cff61432b565b6000918252602090912001546001600160a01b031692915050565b606060cd8054610ac290614121565b600080611d366101635490565b611d409047614370565b9050611d6c8382611d67866001600160a01b03166000908152610165602052604090205490565b6131d4565b9392505050565b33600081815260ca602090815260408083206001600160a01b038716845290915281205490919083811015611e105760405162461bcd60e51b815260206004820152602560248201527f45524332303a2064656372656173656420616c6c6f77616e63652062656c6f7760448201527f207a65726f0000000000000000000000000000000000000000000000000000006064820152608401610dd3565b610eff82868684036123c0565b600033610b53818585612b3c565b6001600160a01b0382166000908152610167602052604081205481906040517f70a082310000000000000000000000000000000000000000000000000000000081523060048201526001600160a01b038616906370a0823190602401602060405180830381865afa158015611ea4573d6000803e3d6000fd5b505050506040513d601f19601f82011682018060405250810190611ec89190614341565b611ed29190614370565b6001600160a01b0380861660009081526101686020908152604080832093881683529290522054909150610d5a90849083906131d4565b611f116129f5565b6101c955565b6101cb548210611f695760405162461bcd60e51b815260206004820152601360248201527f496e646578206f7574206f6620626f756e6473000000000000000000000000006044820152606401610dd3565b600033905060006101cb8481548110611f8457611f8461432b565b6000918252602091829020604080516060810182526003909302909101805483526001810154938301939093526002909201546001600160a01b031691810182905291503314611fd357600080fd5b6040518060600160405280600081526020016000815260200160006001600160a01b03168152506101cb858154811061200e5761200e61432b565b6000918252602091829020835160039290920201908155908201516001820155604090910151600290910180546001600160a01b0319166001600160a01b039092169190911790556120608383613214565b6101c8548151604080516001600160a01b03808716825290931660208401528201527f0ece05e698e9e143fb75b2ad0aba7f141238c27b6d3e9728898183ee0d68498b906060015b60405180910390a150505050565b6120be6129f5565b6101c780546001600160a01b0319166001600160a01b0392909216919091179055565b6120e96129f5565b6101c8546040517fa22cb4650000000000000000000000000000000000000000000000000000000081526001600160a01b03848116600483015283151560248301529091169063a22cb465906044015b600060405180830381600087803b15801561215357600080fd5b505af1158015612167573d6000803e3d6000fd5b505050505050565b834211156121bf5760405162461bcd60e51b815260206004820152601d60248201527f45524332305065726d69743a206578706972656420646561646c696e650000006044820152606401610dd3565b60007f6e71edae12b1b97f4d1f60370fef10105fa2faae0126114a169c64845d6126c98888886121ee8c61326d565b6040805160208101969096526001600160a01b0394851690860152929091166060840152608083015260a082015260c0810186905260e001604051602081830303815290604052805190602001209050600061224982613294565b90506000612259828787876132dc565b9050896001600160a01b0316816001600160a01b0316146122bc5760405162461bcd60e51b815260206004820152601e60248201527f45524332305065726d69743a20696e76616c6964207369676e617475726500006044820152606401610dd3565b6122c78a8a8a6123c0565b50505050505050505050565b6101cd60205281600052604060002081815481106122f057600080fd5b600091825260209091206004909102018054600182015460028301546003909301546001600160a01b03928316955090935060ff83169261010090049091169085565b61233b6129f5565b6001600160a01b0381166123b75760405162461bcd60e51b815260206004820152602660248201527f4f776e61626c653a206e6577206f776e657220697320746865207a65726f206160448201527f64647265737300000000000000000000000000000000000000000000000000006064820152608401610dd3565b61128b81612f9b565b6001600160a01b03831661243b5760405162461bcd60e51b8152602060048201526024808201527f45524332303a20617070726f76652066726f6d20746865207a65726f2061646460448201527f72657373000000000000000000000000000000000000000000000000000000006064820152608401610dd3565b6001600160a01b0382166124b75760405162461bcd60e51b815260206004820152602260248201527f45524332303a20617070726f766520746f20746865207a65726f20616464726560448201527f73730000000000000000000000000000000000000000000000000000000000006064820152608401610dd3565b6001600160a01b03838116600081815260ca602090815260408083209487168084529482529182902085905590518481527f8c5be1e5ebec7d5bd14f71427d1e84f3dd0314c0f7b2291e5b200ac8c7c3b925910160405180910390a3505050565b80516020808301516001600160a01b03831660009081526101cd90925260408220549192911561261d5760005b6001600160a01b03831660009081526101cd6020526040902054811015612617576001600160a01b0383811660009081526101cd60205260409020805491841691839081106125965761259661432b565b600091825260209091206004909102016002015461010090046001600160a01b03160361260f576001600160a01b03831660009081526101cd60205260409020805460019190839081106125ec576125ec61432b565b60009182526020909120600490910201600201805460ff19169115159190911790555b600101612545565b50612784565b6020808501516001600160a01b031660009081526101cd9091526040902054156127165760005b6001600160a01b03821660009081526101cd6020526040902054811015612617576001600160a01b0382811660009081526101cd60205260409020805491851691839081106126955761269561432b565b600091825260209091206004909102016002015461010090046001600160a01b03160361270e576001600160a01b03821660009081526101cd60205260409020805460019190839081106126eb576126eb61432b565b60009182526020909120600490910201600201805460ff19169115159190911790555b600101612644565b60405162461bcd60e51b815260206004820152602560248201527f706c616e65742073656e7420657272616e746c792c206e6f206f6e6520746f2060448201527f636c61696d0000000000000000000000000000000000000000000000000000006064820152608401610dd3565b5050919050565b604080516060808201835285825260208083018681526001600160a01b0386811685870181815260009182526101ca8552878220805460018082018355918452868420895160039283029091019081558651818401558351600290910180549187166001600160a01b03199283161790556101cb80549384018155909452885191027fe8bbfecd380c4167d6a1f763a233ec73e73f534b1970c4e1683f437ec23c1f4481019190915593517fe8bbfecd380c4167d6a1f763a233ec73e73f534b1970c4e1683f437ec23c1f45850155517fe8bbfecd380c4167d6a1f763a233ec73e73f534b1970c4e1683f437ec23c1f46909301805493831693909116929092179091556101c85485513381529116918101919091529283018690528201849052907fb30319a217488a3ed441c348e935a48d16091e33109bab0c79a353b979752883906080016120a8565b804710156129275760405162461bcd60e51b815260206004820152601d60248201527f416464726573733a20696e73756666696369656e742062616c616e63650000006044820152606401610dd3565b6000826001600160a01b03168260405160006040518083038185875af1925050503d8060008114612974576040519150601f19603f3d011682016040523d82523d6000602084013e612979565b606091505b50509050806129f05760405162461bcd60e51b815260206004820152603a60248201527f416464726573733a20756e61626c6520746f2073656e642076616c75652c207260448201527f6563697069656e74206d617920686176652072657665727465640000000000006064820152608401610dd3565b505050565b610194546001600160a01b03163314610ed45760405162461bcd60e51b815260206004820181905260248201527f4f776e61626c653a2063616c6c6572206973206e6f7420746865206f776e65726044820152606401610dd3565b612a58613304565b6033805460ff191660011790557f62e78cea01bee320cd4e420270b5ea74000d11b0c9f74754ebdbfc544b05a258612a8d3390565b6040516001600160a01b03909116815260200160405180910390a1565b6001600160a01b03838116600090815260ca60209081526040808320938616835292905220546000198114612b365781811015612b295760405162461bcd60e51b815260206004820152601d60248201527f45524332303a20696e73756666696369656e7420616c6c6f77616e63650000006044820152606401610dd3565b612b3684848484036123c0565b50505050565b6001600160a01b038316612bb85760405162461bcd60e51b815260206004820152602560248201527f45524332303a207472616e736665722066726f6d20746865207a65726f20616460448201527f64726573730000000000000000000000000000000000000000000000000000006064820152608401610dd3565b6001600160a01b038216612c345760405162461bcd60e51b815260206004820152602360248201527f45524332303a207472616e7366657220746f20746865207a65726f206164647260448201527f65737300000000000000000000000000000000000000000000000000000000006064820152608401610dd3565b6001600160a01b038316600090815260c9602052604090205481811015612cc35760405162461bcd60e51b815260206004820152602660248201527f45524332303a207472616e7366657220616d6f756e742065786365656473206260448201527f616c616e636500000000000000000000000000000000000000000000000000006064820152608401610dd3565b6001600160a01b03808516600081815260c9602052604080822086860390559286168082529083902080548601905591517fddf252ad1be2c89b69c2b068fc378daa952ba7f163c4a11628f55a4df523b3ef90612d239086815260200190565b60405180910390a3612b36565b600061110e613357565b61128b6129f5565b7f4910fdfa16fed3260ed0e7147f7cc6da11a60208b5b9406d12a635614ffd91435460ff1615612d75576129f0836133cb565b826001600160a01b03166352d1902d6040518163ffffffff1660e01b8152600401602060405180830381865afa925050508015612dcf575060408051601f3d908101601f19168201909252612dcc91810190614341565b60015b612e415760405162461bcd60e51b815260206004820152602e60248201527f45524331393637557067726164653a206e657720696d706c656d656e7461746960448201527f6f6e206973206e6f7420555550530000000000000000000000000000000000006064820152608401610dd3565b7f360894a13ba1a3210667c828492db98dca3e2076cc3735a920a3ca505d382bbc8114612ed65760405162461bcd60e51b815260206004820152602960248201527f45524331393637557067726164653a20756e737570706f727465642070726f7860448201527f6961626c655555494400000000000000000000000000000000000000000000006064820152608401610dd3565b506129f0838383613489565b612eea6134ae565b6033805460ff191690557f5db9ee0a495bf2e6ff9c91a7834c1ba4fdd244a5e8aa4e537bd38aeae4b073aa33612a8d565b604080516001600160a01b038416602482015260448082018490528251808303909101815260649091019091526020810180517bffffffffffffffffffffffffffffffffffffffffffffffffffffffff167fa9059cbb000000000000000000000000000000000000000000000000000000001790526129f0908490613500565b61019480546001600160a01b038381166001600160a01b0319831681179093556040519116919082907f8be0079c531659141344cd1fd0a4f28419497f9722a3daafe3b4186f6b6457e090600090a35050565b600054610100900460ff166130595760405162461bcd60e51b815260206004820152602b60248201527f496e697469616c697a61626c653a20636f6e7472616374206973206e6f74206960448201526a6e697469616c697a696e6760a81b6064820152608401610dd3565b610ed46135e8565b600054610100900460ff166130cc5760405162461bcd60e51b815260206004820152602b60248201527f496e697469616c697a61626c653a20636f6e7472616374206973206e6f74206960448201526a6e697469616c697a696e6760a81b6064820152608401610dd3565b610ed461365c565b600054610100900460ff16610ed45760405162461bcd60e51b815260206004820152602b60248201527f496e697469616c697a61626c653a20636f6e7472616374206973206e6f74206960448201526a6e697469616c697a696e6760a81b6064820152608401610dd3565b6000805b6101cb548110156131b057826101cb82815481106131635761316361432b565b906000526020600020906003020160000154036131a8576101cb818154811061318e5761318e61432b565b906000526020600020906003020160010154915050919050565b600101613143565b50919050565b606060fd8054610ac290614121565b606060fe8054610ac290614121565b610162546001600160a01b03841660009081526101646020526040812054909183916132009086614396565b61320a91906143ad565b610d5a9190614383565b6101c8546040517f23b872dd0000000000000000000000000000000000000000000000000000000081523060048201526001600160a01b03838116602483015260448201859052909116906323b872dd90606401612139565b6001600160a01b038116600090815261012f602052604090208054600181018255906131b0565b6000610b596132a1612d30565b836040517f19010000000000000000000000000000000000000000000000000000000000008152600281019290925260228201526042902090565b60008060006132ed878787876136d3565b915091506132fa81613797565b5095945050505050565b60335460ff1615610ed45760405162461bcd60e51b815260206004820152601060248201527f5061757361626c653a20706175736564000000000000000000000000000000006044820152606401610dd3565b60007f8b73c3c69bb8fe3d512ecc4cf759cc79239f7b179b0ffacaa9a75d522b39400f6133826138fc565b61338a613955565b60408051602081019490945283019190915260608201524660808201523060a082015260c00160405160208183030381529060405280519060200120905090565b6001600160a01b0381163b6134485760405162461bcd60e51b815260206004820152602d60248201527f455243313936373a206e657720696d706c656d656e746174696f6e206973206e60448201527f6f74206120636f6e7472616374000000000000000000000000000000000000006064820152608401610dd3565b7f360894a13ba1a3210667c828492db98dca3e2076cc3735a920a3ca505d382bbc80546001600160a01b0319166001600160a01b0392909216919091179055565b61349283613986565b60008251118061349f5750805b156129f057612b3683836139c6565b60335460ff16610ed45760405162461bcd60e51b815260206004820152601460248201527f5061757361626c653a206e6f74207061757365640000000000000000000000006044820152606401610dd3565b6000613555826040518060400160405280602081526020017f5361666545524332303a206c6f772d6c6576656c2063616c6c206661696c6564815250856001600160a01b03166139eb9092919063ffffffff16565b905080516000148061357657508080602001905181019061357691906143cf565b6129f05760405162461bcd60e51b815260206004820152602a60248201527f5361666545524332303a204552433230206f7065726174696f6e20646964206e60448201527f6f742073756363656564000000000000000000000000000000000000000000006064820152608401610dd3565b600054610100900460ff166136535760405162461bcd60e51b815260206004820152602b60248201527f496e697469616c697a61626c653a20636f6e7472616374206973206e6f74206960448201526a6e697469616c697a696e6760a81b6064820152608401610dd3565b610ed433612f9b565b600054610100900460ff166136c75760405162461bcd60e51b815260206004820152602b60248201527f496e697469616c697a61626c653a20636f6e7472616374206973206e6f74206960448201526a6e697469616c697a696e6760a81b6064820152608401610dd3565b6033805460ff19169055565b6000807f7fffffffffffffffffffffffffffffff5d576e7357a4501ddfe92f46681b20a083111561370a575060009050600361378e565b6040805160008082526020820180845289905260ff881692820192909252606081018690526080810185905260019060a0016020604051602081039080840390855afa15801561375e573d6000803e3d6000fd5b5050604051601f1901519150506001600160a01b0381166137875760006001925092505061378e565b9150600090505b94509492505050565b60008160048111156137ab576137ab6143ec565b036137b35750565b60018160048111156137c7576137c76143ec565b036138145760405162461bcd60e51b815260206004820152601860248201527f45434453413a20696e76616c6964207369676e617475726500000000000000006044820152606401610dd3565b6002816004811115613828576138286143ec565b036138755760405162461bcd60e51b815260206004820152601f60248201527f45434453413a20696e76616c6964207369676e6174757265206c656e677468006044820152606401610dd3565b6003816004811115613889576138896143ec565b0361128b5760405162461bcd60e51b815260206004820152602260248201527f45434453413a20696e76616c6964207369676e6174757265202773272076616c60448201527f75650000000000000000000000000000000000000000000000000000000000006064820152608401610dd3565b6000806139076131b6565b80519091501561391e578051602090910120919050565b60fb54801561392d5792915050565b7fc5d2460186f7233c927e7db2dcc703c0e500b653ca82273b7bfad8045d85a4709250505090565b6000806139606131c5565b805190915015613977578051602090910120919050565b60fc54801561392d5792915050565b61398f816133cb565b6040516001600160a01b038216907fbc7cd75a20ee27fd9adebab32041f755214dbc6bffa90cc0225b39da2e5c2d3b90600090a250565b6060611d6c838360405180606001604052806027815260200161441f602791396139fa565b6060610d5a8484600085613a72565b6060600080856001600160a01b031685604051613a179190614402565b600060405180830381855af49150503d8060008114613a52576040519150601f19603f3d011682016040523d82523d6000602084013e613a57565b606091505b5091509150613a6886838387613b64565b9695505050505050565b606082471015613aea5760405162461bcd60e51b815260206004820152602660248201527f416464726573733a20696e73756666696369656e742062616c616e636520666f60448201527f722063616c6c00000000000000000000000000000000000000000000000000006064820152608401610dd3565b600080866001600160a01b03168587604051613b069190614402565b60006040518083038185875af1925050503d8060008114613b43576040519150601f19603f3d011682016040523d82523d6000602084013e613b48565b606091505b5091509150613b5987838387613b64565b979650505050505050565b60608315613bd3578251600003613bcc576001600160a01b0385163b613bcc5760405162461bcd60e51b815260206004820152601d60248201527f416464726573733a2063616c6c20746f206e6f6e2d636f6e74726163740000006044820152606401610dd3565b5081610d5a565b610d5a8383815115613be85781518083602001fd5b8060405162461bcd60e51b8152600401610dd39190613c6b565b600060208284031215613c1457600080fd5b5035919050565b60005b83811015613c36578181015183820152602001613c1e565b50506000910152565b60008151808452613c57816020860160208601613c1b565b601f01601f19169290920160200192915050565b602081526000611d6c6020830184613c3f565b6001600160a01b038116811461128b57600080fd5b60008060408385031215613ca657600080fd5b8235613cb181613c7e565b946020939093013593505050565b634e487b7160e01b600052604160045260246000fd5b604051610160810167ffffffffffffffff81118282101715613cf957613cf9613cbf565b60405290565b604051601f8201601f1916810167ffffffffffffffff81118282101715613d2857613d28613cbf565b604052919050565b600082601f830112613d4157600080fd5b813567ffffffffffffffff811115613d5b57613d5b613cbf565b613d6e601f8201601f1916602001613cff565b818152846020838601011115613d8357600080fd5b816020850160208301376000918101602001919091529392505050565b60008060008060808587031215613db657600080fd5b8435613dc181613c7e565b93506020850135613dd181613c7e565b925060408501359150606085013567ffffffffffffffff811115613df457600080fd5b613e0087828801613d30565b91505092959194509250565b600060208284031215613e1e57600080fd5b8135611d6c81613c7e565b600080600060608486031215613e3e57600080fd5b8335613e4981613c7e565b92506020840135613e5981613c7e565b929592945050506040919091013590565b60008060408385031215613e7d57600080fd5b50508035926020909101359150565b602080825282518282018190526000919060409081850190868401855b82811015613ee15781518051855286810151878601528501516001600160a01b03168585015260609093019290850190600101613ea9565b5091979650505050505050565b60008060408385031215613f0157600080fd5b8235613f0c81613c7e565b91506020830135613f1c81613c7e565b809150509250929050565b600080600060608486031215613f3c57600080fd5b8335613f4781613c7e565b9250602084013591506040840135613f5e81613c7e565b809150509250925092565b60008060408385031215613f7c57600080fd5b8235613f8781613c7e565b9150602083013567ffffffffffffffff811115613fa357600080fd5b613faf85828601613d30565b9150509250929050565b7fff00000000000000000000000000000000000000000000000000000000000000881681526000602060e06020840152613ff660e084018a613c3f565b8381036040850152614008818a613c3f565b606085018990526001600160a01b038816608086015260a0850187905284810360c08601528551808252602080880193509091019060005b8181101561405c57835183529284019291840191600101614040565b50909c9b505050505050505050505050565b801515811461128b57600080fd5b6000806040838503121561408f57600080fd5b823561409a81613c7e565b91506020830135613f1c8161406e565b600080600080600080600060e0888a0312156140c557600080fd5b87356140d081613c7e565b965060208801356140e081613c7e565b95506040880135945060608801359350608088013560ff8116811461410457600080fd5b9699959850939692959460a0840135945060c09093013592915050565b600181811c9082168061413557607f821691505b6020821081036131b057634e487b7160e01b600052602260045260246000fd5b60006001600160a01b03808716835280861660208401525083604083015260806060830152613a686080830184613c3f565b600082601f83011261419857600080fd5b8151602067ffffffffffffffff8211156141b4576141b4613cbf565b8160051b6141c3828201613cff565b92835284810182019282810190878511156141dd57600080fd5b83870192505b84831015613b59578251825291830191908301906141e3565b80516142078161406e565b919050565b6000806040838503121561421f57600080fd5b825167ffffffffffffffff8082111561423757600080fd5b90840190610160828703121561424c57600080fd5b614254613cd5565b825181526020830151602082015260408301516040820152606083015160608201526080830151608082015260a083015160a082015260c083015160c082015260e083015160e082015261010080840151838111156142b257600080fd5b6142be89828701614187565b82840152505061012080840151838111156142d857600080fd5b6142e489828701614187565b82840152505061014080840151838111156142fe57600080fd5b61430a89828701614187565b828401525050809450505050614322602084016141fc565b90509250929050565b634e487b7160e01b600052603260045260246000fd5b60006020828403121561435357600080fd5b5051919050565b634e487b7160e01b600052601160045260246000fd5b80820180821115610b5957610b5961435a565b81810381811115610b5957610b5961435a565b8082028115828204841417610b5957610b5961435a565b6000826143ca57634e487b7160e01b600052601260045260246000fd5b500490565b6000602082840312156143e157600080fd5b8151611d6c8161406e565b634e487b7160e01b600052602160045260246000fd5b60008251614414818460208701613c1b565b919091019291505056fe416464726573733a206c6f772d6c6576656c2064656c65676174652063616c6c206661696c6564a264697066735822122098cfefaaba3c714fd3bc963a3563f436e60cc2d0d7d537e66ee2b2287912e5f964736f6c63430008180033",
  "linkReferences": {},
  "deployedLinkReferences": {}
}