{
  "_format": "hh-sol-artifact-1",
  "contractName": "HatcherV1",
  "sourceName": "contracts/HatcherV1.sol",
  "abi": [
    {
      "inputs": [],
      "name": "Unauthorized",
      "type": "error"
    },
    {
      "anonymous": false,
      "inputs": [
        {
          "indexed": false,
          "internalType": "address",
          "name": "previousAdmin",
          "type": "address"
        },
        {
          "indexed": false,
          "internalType": "address",
          "name": "newAdmin",
          "type": "address"
        }
      ],
      "name": "AdminChanged",
      "type": "event"
    },
    {
      "anonymous": false,
      "inputs": [
        {
          "indexed": true,
          "internalType": "address",
          "name": "owner",
          "type": "address"
        },
        {
          "indexed": true,
          "internalType": "address",
          "name": "spender",
          "type": "address"
        },
        {
          "indexed": false,
          "internalType": "uint256",
          "name": "value",
          "type": "uint256"
        }
      ],
      "name": "Approval",
      "type": "event"
    },
    {
      "anonymous": false,
      "inputs": [
        {
          "indexed": true,
          "internalType": "address",
          "name": "beacon",
          "type": "address"
        }
      ],
      "name": "BeaconUpgraded",
      "type": "event"
    },
    {
      "anonymous": false,
      "inputs": [
        {
          "indexed": false,
          "internalType": "address",
          "name": "sentToUser",
          "type": "address"
        },
        {
          "indexed": false,
          "internalType": "address",
          "name": "token",
          "type": "address"
        },
        {
          "indexed": false,
          "internalType": "uint256",
          "name": "tokenId",
          "type": "uint256"
        }
      ],
      "name": "DeListedAPlanet",
      "type": "event"
    },
    {
      "anonymous": false,
      "inputs": [],
      "name": "EIP712DomainChanged",
      "type": "event"
    },
    {
      "anonymous": false,
      "inputs": [
        {
          "indexed": true,
          "internalType": "contract IERC20Upgradeable",
          "name": "token",
          "type": "address"
        },
        {
          "indexed": false,
          "internalType": "address",
          "name": "to",
          "type": "address"
        },
        {
          "indexed": false,
          "internalType": "uint256",
          "name": "amount",
          "type": "uint256"
        }
      ],
      "name": "ERC20PaymentReleased",
      "type": "event"
    },
    {
      "anonymous": false,
      "inputs": [
        {
          "indexed": false,
          "internalType": "uint8",
          "name": "version",
          "type": "uint8"
        }
      ],
      "name": "Initialized",
      "type": "event"
    },
    {
      "anonymous": false,
      "inputs": [
        {
          "indexed": false,
          "internalType": "address",
          "name": "sentFromUser",
          "type": "address"
        },
        {
          "indexed": false,
          "internalType": "address",
          "name": "token",
          "type": "address"
        },
        {
          "indexed": false,
          "internalType": "uint256",
          "name": "tokenId",
          "type": "uint256"
        },
        {
          "indexed": false,
          "internalType": "uint256",
          "name": "price",
          "type": "uint256"
        }
      ],
      "name": "ListedAPlanet",
      "type": "event"
    },
    {
      "anonymous": false,
      "inputs": [
        {
          "indexed": false,
          "internalType": "address",
          "name": "operator",
          "type": "address"
        },
        {
          "indexed": false,
          "internalType": "address",
          "name": "from",
          "type": "address"
        },
        {
          "indexed": false,
          "internalType": "uint256",
          "name": "tokenId",
          "type": "uint256"
        },
        {
          "indexed": false,
          "internalType": "bytes",
          "name": "data",
          "type": "bytes"
        },
        {
          "indexed": false,
          "internalType": "string",
          "name": "typeOfReceival",
          "type": "string"
        }
      ],
      "name": "NftReceived",
      "type": "event"
    },
    {
      "anonymous": false,
      "inputs": [
        {
          "indexed": true,
          "internalType": "address",
          "name": "previousOwner",
          "type": "address"
        },
        {
          "indexed": true,
          "internalType": "address",
          "name": "newOwner",
          "type": "address"
        }
      ],
      "name": "OwnershipTransferred",
      "type": "event"
    },
    {
      "anonymous": false,
      "inputs": [
        {
          "indexed": false,
          "internalType": "address",
          "name": "account",
          "type": "address"
        }
      ],
      "name": "Paused",
      "type": "event"
    },
    {
      "anonymous": false,
      "inputs": [
        {
          "indexed": false,
          "internalType": "address",
          "name": "account",
          "type": "address"
        },
        {
          "indexed": false,
          "internalType": "uint256",
          "name": "shares",
          "type": "uint256"
        }
      ],
      "name": "PayeeAdded",
      "type": "event"
    },
    {
      "anonymous": false,
      "inputs": [
        {
          "indexed": false,
          "internalType": "address",
          "name": "from",
          "type": "address"
        },
        {
          "indexed": false,
          "internalType": "uint256",
          "name": "amount",
          "type": "uint256"
        }
      ],
      "name": "PaymentReceived",
      "type": "event"
    },
    {
      "anonymous": false,
      "inputs": [
        {
          "indexed": false,
          "internalType": "address",
          "name": "to",
          "type": "address"
        },
        {
          "indexed": false,
          "internalType": "uint256",
          "name": "amount",
          "type": "uint256"
        }
      ],
      "name": "PaymentReleased",
      "type": "event"
    },
    {
      "anonymous": false,
      "inputs": [
        {
          "indexed": false,
          "internalType": "uint256",
          "name": "planetAsking",
          "type": "uint256"
        },
        {
          "indexed": false,
          "internalType": "address",
          "name": "askingUser",
          "type": "address"
        },
        {
          "indexed": false,
          "internalType": "uint256",
          "name": "planetJoining",
          "type": "uint256"
        },
        {
          "indexed": false,
          "internalType": "address",
          "name": "joiningUser",
          "type": "address"
        }
      ],
      "name": "PlanetsConjoining",
      "type": "event"
    },
    {
      "anonymous": false,
      "inputs": [
        {
          "indexed": true,
          "internalType": "address",
          "name": "from",
          "type": "address"
        },
        {
          "indexed": true,
          "internalType": "address",
          "name": "to",
          "type": "address"
        },
        {
          "indexed": false,
          "internalType": "uint256",
          "name": "value",
          "type": "uint256"
        }
      ],
      "name": "Transfer",
      "type": "event"
    },
    {
      "anonymous": false,
      "inputs": [
        {
          "indexed": false,
          "internalType": "address",
          "name": "account",
          "type": "address"
        }
      ],
      "name": "Unpaused",
      "type": "event"
    },
    {
      "anonymous": false,
      "inputs": [
        {
          "indexed": true,
          "internalType": "address",
          "name": "implementation",
          "type": "address"
        }
      ],
      "name": "Upgraded",
      "type": "event"
    },
    {
      "inputs": [],
      "name": "DOMAIN_SEPARATOR",
      "outputs": [
        {
          "internalType": "bytes32",
          "name": "",
          "type": "bytes32"
        }
      ],
      "stateMutability": "view",
      "type": "function"
    },
    {
      "inputs": [
        {
          "internalType": "address",
          "name": "owner",
          "type": "address"
        },
        {
          "internalType": "address",
          "name": "spender",
          "type": "address"
        }
      ],
      "name": "allowance",
      "outputs": [
        {
          "internalType": "uint256",
          "name": "",
          "type": "uint256"
        }
      ],
      "stateMutability": "view",
      "type": "function"
    },
    {
      "inputs": [
        {
          "internalType": "address",
          "name": "spender",
          "type": "address"
        },
        {
          "internalType": "uint256",
          "name": "amount",
          "type": "uint256"
        }
      ],
      "name": "approve",
      "outputs": [
        {
          "internalType": "bool",
          "name": "",
          "type": "bool"
        }
      ],
      "stateMutability": "nonpayable",
      "type": "function"
    },
    {
      "inputs": [
        {
          "internalType": "address",
          "name": "operator",
          "type": "address"
        },
        {
          "internalType": "bool",
          "name": "approved",
          "type": "bool"
        }
      ],
      "name": "approveForAllAsOwner",
      "outputs": [],
      "stateMutability": "nonpayable",
      "type": "function"
    },
    {
      "inputs": [
        {
          "internalType": "address",
          "name": "account",
          "type": "address"
        }
      ],
      "name": "balanceOf",
      "outputs": [
        {
          "internalType": "uint256",
          "name": "",
          "type": "uint256"
        }
      ],
      "stateMutability": "view",
      "type": "function"
    },
    {
      "inputs": [
        {
          "internalType": "uint256",
          "name": "newVRF",
          "type": "uint256"
        }
      ],
      "name": "changeVRFValue",
      "outputs": [],
      "stateMutability": "nonpayable",
      "type": "function"
    },
    {
      "inputs": [
        {
          "internalType": "address",
          "name": "owner",
          "type": "address"
        },
        {
          "internalType": "address",
          "name": "operator",
          "type": "address"
        }
      ],
      "name": "checkApprovalForAll",
      "outputs": [
        {
          "internalType": "bool",
          "name": "",
          "type": "bool"
        }
      ],
      "stateMutability": "view",
      "type": "function"
    },
    {
      "inputs": [
        {
          "internalType": "address",
          "name": "",
          "type": "address"
        },
        {
          "internalType": "uint256",
          "name": "",
          "type": "uint256"
        }
      ],
      "name": "claimablePlanets",
      "outputs": [
        {
          "internalType": "address",
          "name": "ownerParentAddress",
          "type": "address"
        },
        {
          "internalType": "uint256",
          "name": "ownerTokenId",
          "type": "uint256"
        },
        {
          "internalType": "bool",
          "name": "delivered",
          "type": "bool"
        },
        {
          "internalType": "address",
          "name": "otherParent",
          "type": "address"
        },
        {
          "internalType": "uint256",
          "name": "otherTokenId",
          "type": "uint256"
        }
      ],
      "stateMutability": "view",
      "type": "function"
    },
    {
      "inputs": [
        {
          "internalType": "uint256",
          "name": "",
          "type": "uint256"
        }
      ],
      "name": "claimableTokenIdToOwnerAddress",
      "outputs": [
        {
          "internalType": "address",
          "name": "",
          "type": "address"
        }
      ],
      "stateMutability": "view",
      "type": "function"
    },
    {
      "inputs": [
        {
          "internalType": "uint256",
          "name": "yourPlanet",
          "type": "uint256"
        },
        {
          "internalType": "uint256",
          "name": "withListedPlanet",
          "type": "uint256"
        }
      ],
      "name": "conjunct",
      "outputs": [],
      "stateMutability": "payable",
      "type": "function"
    },
    {
      "inputs": [
        {
          "internalType": "uint256",
          "name": "idIndex",
          "type": "uint256"
        },
        {
          "internalType": "uint256",
          "name": "tokenId",
          "type": "uint256"
        }
      ],
      "name": "deList",
      "outputs": [],
      "stateMutability": "nonpayable",
      "type": "function"
    },
    {
      "inputs": [],
      "name": "deListAllYourPlanets",
      "outputs": [],
      "stateMutability": "nonpayable",
      "type": "function"
    },
    {
      "inputs": [],
      "name": "decimals",
      "outputs": [
        {
          "internalType": "uint8",
          "name": "",
          "type": "uint8"
        }
      ],
      "stateMutability": "view",
      "type": "function"
    },
    {
      "inputs": [
        {
          "internalType": "address",
          "name": "spender",
          "type": "address"
        },
        {
          "internalType": "uint256",
          "name": "subtractedValue",
          "type": "uint256"
        }
      ],
      "name": "decreaseAllowance",
      "outputs": [
        {
          "internalType": "bool",
          "name": "",
          "type": "bool"
        }
      ],
      "stateMutability": "nonpayable",
      "type": "function"
    },
    {
      "inputs": [],
      "name": "eip712Domain",
      "outputs": [
        {
          "internalType": "bytes1",
          "name": "fields",
          "type": "bytes1"
        },
        {
          "internalType": "string",
          "name": "name",
          "type": "string"
        },
        {
          "internalType": "string",
          "name": "version",
          "type": "string"
        },
        {
          "internalType": "uint256",
          "name": "chainId",
          "type": "uint256"
        },
        {
          "internalType": "address",
          "name": "verifyingContract",
          "type": "address"
        },
        {
          "internalType": "bytes32",
          "name": "salt",
          "type": "bytes32"
        },
        {
          "internalType": "uint256[]",
          "name": "extensions",
          "type": "uint256[]"
        }
      ],
      "stateMutability": "view",
      "type": "function"
    },
    {
      "inputs": [],
      "name": "getAllPlanets",
      "outputs": [
        {
          "components": [
            {
              "internalType": "uint256",
              "name": "planet",
              "type": "uint256"
            },
            {
              "internalType": "uint256",
              "name": "price",
              "type": "uint256"
            },
            {
              "internalType": "address",
              "name": "ownerAddress",
              "type": "address"
            }
          ],
          "internalType": "struct ListedPlanet[]",
          "name": "",
          "type": "tuple[]"
        }
      ],
      "stateMutability": "view",
      "type": "function"
    },
    {
      "inputs": [
        {
          "internalType": "uint256",
          "name": "startIndex",
          "type": "uint256"
        },
        {
          "internalType": "uint256",
          "name": "endIndex",
          "type": "uint256"
        }
      ],
      "name": "getPlanetsPaginated",
      "outputs": [
        {
          "components": [
            {
              "internalType": "uint256",
              "name": "planet",
              "type": "uint256"
            },
            {
              "internalType": "uint256",
              "name": "price",
              "type": "uint256"
            },
            {
              "internalType": "address",
              "name": "ownerAddress",
              "type": "address"
            }
          ],
          "internalType": "struct ListedPlanet[]",
          "name": "",
          "type": "tuple[]"
        }
      ],
      "stateMutability": "view",
      "type": "function"
    },
    {
      "inputs": [
        {
          "internalType": "address",
          "name": "spender",
          "type": "address"
        },
        {
          "internalType": "uint256",
          "name": "addedValue",
          "type": "uint256"
        }
      ],
      "name": "increaseAllowance",
      "outputs": [
        {
          "internalType": "bool",
          "name": "",
          "type": "bool"
        }
      ],
      "stateMutability": "nonpayable",
      "type": "function"
    },
    {
      "inputs": [],
      "name": "initialize",
      "outputs": [],
      "stateMutability": "nonpayable",
      "type": "function"
    },
    {
      "inputs": [],
      "name": "listAllYourPlanets",
      "outputs": [],
      "stateMutability": "nonpayable",
      "type": "function"
    },
    {
      "inputs": [],
      "name": "name",
      "outputs": [
        {
          "internalType": "string",
          "name": "",
          "type": "string"
        }
      ],
      "stateMutability": "view",
      "type": "function"
    },
    {
      "inputs": [
        {
          "internalType": "address",
          "name": "owner",
          "type": "address"
        }
      ],
      "name": "nonces",
      "outputs": [
        {
          "internalType": "uint256",
          "name": "",
          "type": "uint256"
        }
      ],
      "stateMutability": "view",
      "type": "function"
    },
    {
      "inputs": [
        {
          "internalType": "address",
          "name": "operator",
          "type": "address"
        },
        {
          "internalType": "address",
          "name": "from",
          "type": "address"
        },
        {
          "internalType": "uint256",
          "name": "tokenId",
          "type": "uint256"
        },
        {
          "internalType": "bytes",
          "name": "data",
          "type": "bytes"
        }
      ],
      "name": "onERC721Received",
      "outputs": [
        {
          "internalType": "bytes4",
          "name": "",
          "type": "bytes4"
        }
      ],
      "stateMutability": "nonpayable",
      "type": "function"
    },
    {
      "inputs": [],
      "name": "owner",
      "outputs": [
        {
          "internalType": "address",
          "name": "",
          "type": "address"
        }
      ],
      "stateMutability": "view",
      "type": "function"
    },
    {
      "inputs": [],
      "name": "pause",
      "outputs": [],
      "stateMutability": "nonpayable",
      "type": "function"
    },
    {
      "inputs": [],
      "name": "paused",
      "outputs": [
        {
          "internalType": "bool",
          "name": "",
          "type": "bool"
        }
      ],
      "stateMutability": "view",
      "type": "function"
    },
    {
      "inputs": [
        {
          "internalType": "uint256",
          "name": "index",
          "type": "uint256"
        }
      ],
      "name": "payee",
      "outputs": [
        {
          "internalType": "address",
          "name": "",
          "type": "address"
        }
      ],
      "stateMutability": "view",
      "type": "function"
    },
    {
      "inputs": [
        {
          "internalType": "address",
          "name": "owner",
          "type": "address"
        },
        {
          "internalType": "address",
          "name": "spender",
          "type": "address"
        },
        {
          "internalType": "uint256",
          "name": "value",
          "type": "uint256"
        },
        {
          "internalType": "uint256",
          "name": "deadline",
          "type": "uint256"
        },
        {
          "internalType": "uint8",
          "name": "v",
          "type": "uint8"
        },
        {
          "internalType": "bytes32",
          "name": "r",
          "type": "bytes32"
        },
        {
          "internalType": "bytes32",
          "name": "s",
          "type": "bytes32"
        }
      ],
      "name": "permit",
      "outputs": [],
      "stateMutability": "nonpayable",
      "type": "function"
    },
    {
      "inputs": [],
      "name": "proxiableUUID",
      "outputs": [
        {
          "internalType": "bytes32",
          "name": "",
          "type": "bytes32"
        }
      ],
      "stateMutability": "view",
      "type": "function"
    },
    {
      "inputs": [
        {
          "internalType": "address",
          "name": "account",
          "type": "address"
        }
      ],
      "name": "releasable",
      "outputs": [
        {
          "internalType": "uint256",
          "name": "",
          "type": "uint256"
        }
      ],
      "stateMutability": "view",
      "type": "function"
    },
    {
      "inputs": [
        {
          "internalType": "contract IERC20Upgradeable",
          "name": "token",
          "type": "address"
        },
        {
          "internalType": "address",
          "name": "account",
          "type": "address"
        }
      ],
      "name": "releasable",
      "outputs": [
        {
          "internalType": "uint256",
          "name": "",
          "type": "uint256"
        }
      ],
      "stateMutability": "view",
      "type": "function"
    },
    {
      "inputs": [
        {
          "internalType": "address payable",
          "name": "account",
          "type": "address"
        }
      ],
      "name": "release",
      "outputs": [],
      "stateMutability": "nonpayable",
      "type": "function"
    },
    {
      "inputs": [
        {
          "internalType": "contract IERC20Upgradeable",
          "name": "token",
          "type": "address"
        },
        {
          "internalType": "address",
          "name": "account",
          "type": "address"
        }
      ],
      "name": "release",
      "outputs": [],
      "stateMutability": "nonpayable",
      "type": "function"
    },
    {
      "inputs": [
        {
          "internalType": "contract IERC20Upgradeable",
          "name": "token",
          "type": "address"
        },
        {
          "internalType": "address",
          "name": "account",
          "type": "address"
        }
      ],
      "name": "released",
      "outputs": [
        {
          "internalType": "uint256",
          "name": "",
          "type": "uint256"
        }
      ],
      "stateMutability": "view",
      "type": "function"
    },
    {
      "inputs": [
        {
          "internalType": "address",
          "name": "account",
          "type": "address"
        }
      ],
      "name": "released",
      "outputs": [
        {
          "internalType": "uint256",
          "name": "",
          "type": "uint256"
        }
      ],
      "stateMutability": "view",
      "type": "function"
    },
    {
      "inputs": [],
      "name": "renounceOwnership",
      "outputs": [],
      "stateMutability": "nonpayable",
      "type": "function"
    },
    {
      "inputs": [
        {
          "internalType": "address",
          "name": "_breederContractAddr",
          "type": "address"
        },
        {
          "internalType": "uint256",
          "name": "_vrfValue",
          "type": "uint256"
        },
        {
          "internalType": "address",
          "name": "_nftContractAddr",
          "type": "address"
        }
      ],
      "name": "setAllOf",
      "outputs": [],
      "stateMutability": "nonpayable",
      "type": "function"
    },
    {
      "inputs": [
        {
          "internalType": "address payable",
          "name": "newTAdd",
          "type": "address"
        }
      ],
      "name": "setTAdd",
      "outputs": [],
      "stateMutability": "nonpayable",
      "type": "function"
    },
    {
      "inputs": [
        {
          "internalType": "address",
          "name": "account",
          "type": "address"
        }
      ],
      "name": "shares",
      "outputs": [
        {
          "internalType": "uint256",
          "name": "",
          "type": "uint256"
        }
      ],
      "stateMutability": "view",
      "type": "function"
    },
    {
      "inputs": [],
      "name": "status",
      "outputs": [],
      "stateMutability": "nonpayable",
      "type": "function"
    },
    {
      "inputs": [],
      "name": "symbol",
      "outputs": [
        {
          "internalType": "string",
          "name": "",
          "type": "string"
        }
      ],
      "stateMutability": "view",
      "type": "function"
    },
    {
      "inputs": [
        {
          "internalType": "contract IERC20Upgradeable",
          "name": "token",
          "type": "address"
        }
      ],
      "name": "totalReleased",
      "outputs": [
        {
          "internalType": "uint256",
          "name": "",
          "type": "uint256"
        }
      ],
      "stateMutability": "view",
      "type": "function"
    },
    {
      "inputs": [],
      "name": "totalReleased",
      "outputs": [
        {
          "internalType": "uint256",
          "name": "",
          "type": "uint256"
        }
      ],
      "stateMutability": "view",
      "type": "function"
    },
    {
      "inputs": [],
      "name": "totalShares",
      "outputs": [
        {
          "internalType": "uint256",
          "name": "",
          "type": "uint256"
        }
      ],
      "stateMutability": "view",
      "type": "function"
    },
    {
      "inputs": [],
      "name": "totalSupply",
      "outputs": [
        {
          "internalType": "uint256",
          "name": "",
          "type": "uint256"
        }
      ],
      "stateMutability": "view",
      "type": "function"
    },
    {
      "inputs": [
        {
          "internalType": "address",
          "name": "to",
          "type": "address"
        },
        {
          "internalType": "uint256",
          "name": "amount",
          "type": "uint256"
        }
      ],
      "name": "transfer",
      "outputs": [
        {
          "internalType": "bool",
          "name": "",
          "type": "bool"
        }
      ],
      "stateMutability": "nonpayable",
      "type": "function"
    },
    {
      "inputs": [
        {
          "internalType": "address",
          "name": "from",
          "type": "address"
        },
        {
          "internalType": "address",
          "name": "to",
          "type": "address"
        },
        {
          "internalType": "uint256",
          "name": "amount",
          "type": "uint256"
        }
      ],
      "name": "transferFrom",
      "outputs": [
        {
          "internalType": "bool",
          "name": "",
          "type": "bool"
        }
      ],
      "stateMutability": "nonpayable",
      "type": "function"
    },
    {
      "inputs": [
        {
          "internalType": "address",
          "name": "newOwner",
          "type": "address"
        }
      ],
      "name": "transferOwnership",
      "outputs": [],
      "stateMutability": "nonpayable",
      "type": "function"
    },
    {
      "inputs": [],
      "name": "unpause",
      "outputs": [],
      "stateMutability": "nonpayable",
      "type": "function"
    },
    {
      "inputs": [
        {
          "internalType": "address",
          "name": "newImplementation",
          "type": "address"
        }
      ],
      "name": "upgradeTo",
      "outputs": [],
      "stateMutability": "nonpayable",
      "type": "function"
    },
    {
      "inputs": [
        {
          "internalType": "address",
          "name": "newImplementation",
          "type": "address"
        },
        {
          "internalType": "bytes",
          "name": "data",
          "type": "bytes"
        }
      ],
      "name": "upgradeToAndCall",
      "outputs": [],
      "stateMutability": "payable",
      "type": "function"
    },
    {
      "inputs": [
        {
          "internalType": "address",
          "name": "",
          "type": "address"
        },
        {
          "internalType": "uint256",
          "name": "",
          "type": "uint256"
        }
      ],
      "name": "userToListedPlanets",
      "outputs": [
        {
          "internalType": "uint256",
          "name": "planet",
          "type": "uint256"
        },
        {
          "internalType": "uint256",
          "name": "price",
          "type": "uint256"
        },
        {
          "internalType": "address",
          "name": "ownerAddress",
          "type": "address"
        }
      ],
      "stateMutability": "view",
      "type": "function"
    },
    {
      "inputs": [],
      "name": "withdrawFunds",
      "outputs": [],
      "stateMutability": "nonpayable",
      "type": "function"
    },
    {
      "stateMutability": "payable",
      "type": "receive"
    }
  ],
  "bytecode": "0x60a06040523060805234801561001457600080fd5b5060805161473b61004c600039600081816111e90152818161126e015281816115910152818161161601526116fc015261473b6000f3fe60806040526004361061034e5760003560e01c8063715018a6116101bb578063a9059cbb116100f7578063d505accf11610095578063dd62ed3e1161006f578063dd62ed3e14610a07578063e22aecb414610a4d578063e33b7de314610aa8578063f2fde38b14610abe57600080fd5b8063d505accf14610990578063d79779b2146109b0578063dd22a9c7146109e757600080fd5b8063cbdf1b5a116100d1578063cbdf1b5a146108f9578063cdb82a3714610919578063ce7c2ac214610939578063d28eb2dc1461097057600080fd5b8063a9059cbb14610899578063c45ac050146108b9578063c7c0e6b1146108d957600080fd5b806385fe72431161016457806395d89b411161013e57806395d89b411461080d5780639852595c14610822578063a3f8eace14610859578063a457c2d71461087957600080fd5b806385fe72431461078a5780638b83209b146107ce5780638da5cb5b146107ee57600080fd5b80638230a784116101955780638230a7841461074f5780638456cb59146104e057806384b0196e1461076257600080fd5b8063715018a6146107055780637ecebe001461071a5780638129fc1c1461073a57600080fd5b80633659cfe61161028a5780634a02099b1161023357806352d1902d1161020d57806352d1902d1461068d5780635c975abb146106a25780636a23befb146106ba57806370a08231146106cf57600080fd5b80634a02099b1461065a5780634f1ef2861461067a57806350842cf3146104d457600080fd5b80633f4ba83a116102645780633f4ba83a146105de578063406072a9146105f357806348b750441461063a57600080fd5b80633659cfe61461058857806339509351146105a85780633a98ef39146105c857600080fd5b80631ac9a91e116102f757806324600fc3116102d157806324600fc314610515578063259478181461052a578063313ce567146105575780633644e5151461057357600080fd5b80631ac9a91e146104d4578063200d2ed2146104e057806323b872dd146104f557600080fd5b8063150b7a0211610328578063150b7a021461044257806318160ddd1461049357806319165587146104b257600080fd5b8063064db8741461039c57806306fdde03146103f0578063095ea7b31461041257600080fd5b36610397577f6ef95f06320e7a25a04a175ca677b7052bdd97131872c2192525a629f51be77033604080516001600160a01b0390921682523460208301520160405180910390a1005b600080fd5b3480156103a857600080fd5b506103d36103b7366004613d9d565b6101cc602052600090815260409020546001600160a01b031681565b6040516001600160a01b0390911681526020015b60405180910390f35b3480156103fc57600080fd5b50610405610ade565b6040516103e79190613e06565b34801561041e57600080fd5b5061043261042d366004613e2e565b610b70565b60405190151581526020016103e7565b34801561044e57600080fd5b5061046261045d366004613f3b565b610b8a565b6040517fffffffff0000000000000000000000000000000000000000000000000000000090911681526020016103e7565b34801561049f57600080fd5b5060cb545b6040519081526020016103e7565b3480156104be57600080fd5b506104d26104cd366004613fa7565b610e26565b005b3480156104d257600080fd5b3480156104ec57600080fd5b506104d2610f9a565b34801561050157600080fd5b50610432610510366004613fc4565b610faa565b34801561052157600080fd5b506104d2610fce565b34801561053657600080fd5b5061054a610545366004614005565b611010565b6040516103e79190614027565b34801561056357600080fd5b50604051601281526020016103e7565b34801561057f57600080fd5b506104a46111d0565b34801561059457600080fd5b506104d26105a3366004613fa7565b6111df565b3480156105b457600080fd5b506104326105c3366004613e2e565b61135a565b3480156105d457600080fd5b50610162546104a4565b3480156105ea57600080fd5b506104d2611399565b3480156105ff57600080fd5b506104a461060e366004614089565b6001600160a01b0391821660009081526101686020908152604080832093909416825291909152205490565b34801561064657600080fd5b506104d2610655366004614089565b6113a9565b34801561066657600080fd5b506104d26106753660046140c2565b611540565b6104d2610688366004614104565b611587565b34801561069957600080fd5b506104a46116ef565b3480156106ae57600080fd5b5060335460ff16610432565b3480156106c657600080fd5b5061054a6117b4565b3480156106db57600080fd5b506104a46106ea366004613fa7565b6001600160a01b0316600090815260c9602052604090205490565b34801561071157600080fd5b506104d2611837565b34801561072657600080fd5b506104a4610735366004613fa7565b611849565b34801561074657600080fd5b506104d2611868565b6104d261075d366004614005565b611997565b34801561076e57600080fd5b50610777611cb2565b6040516103e79796959493929190614154565b34801561079657600080fd5b506107aa6107a5366004613e2e565b611d74565b6040805193845260208401929092526001600160a01b0316908201526060016103e7565b3480156107da57600080fd5b506103d36107e9366004613d9d565b611dc0565b3480156107fa57600080fd5b50610194546001600160a01b03166103d3565b34801561081957600080fd5b50610405611df1565b34801561082e57600080fd5b506104a461083d366004613fa7565b6001600160a01b03166000908152610165602052604090205490565b34801561086557600080fd5b506104a4610874366004613fa7565b611e00565b34801561088557600080fd5b50610432610894366004613e2e565b611e4a565b3480156108a557600080fd5b506104326108b4366004613e2e565b611ef4565b3480156108c557600080fd5b506104a46108d4366004614089565b611f02565b3480156108e557600080fd5b506104d26108f4366004613d9d565b611fe0565b34801561090557600080fd5b506104d2610914366004614005565b611ff6565b34801561092557600080fd5b506104d2610934366004613fa7565b61219d565b34801561094557600080fd5b506104a4610954366004613fa7565b6001600160a01b03166000908152610164602052604090205490565b34801561097c57600080fd5b506104d261098b366004614217565b6121d0565b34801561099c57600080fd5b506104d26109ab366004614245565b61225e565b3480156109bc57600080fd5b506104a46109cb366004613fa7565b6001600160a01b03166000908152610167602052604090205490565b3480156109f357600080fd5b50610432610a02366004614089565b6123c2565b348015610a1357600080fd5b506104a4610a22366004614089565b6001600160a01b03918216600090815260ca6020908152604080832093909416825291909152205490565b348015610a5957600080fd5b50610a6d610a68366004613e2e565b612453565b604080516001600160a01b0396871681526020810195909552921515928401929092529092166060820152608081019190915260a0016103e7565b348015610ab457600080fd5b50610163546104a4565b348015610aca57600080fd5b506104d2610ad9366004613fa7565b6124b3565b606060cc8054610aed906142bc565b80601f0160208091040260200160405190810160405280929190818152602001828054610b19906142bc565b8015610b665780601f10610b3b57610100808354040283529160200191610b66565b820191906000526020600020905b815481529060010190602001808311610b4957829003601f168201915b5050505050905090565b600033610b7e818585612540565b60019150505b92915050565b600033158015610ba857506101c8546001600160a01b038681169116145b15610d33576101c8546040517fdc9ce7a5000000000000000000000000000000000000000000000000000000008152600481018590526000916001600160a01b03169063dc9ce7a590602401600060405180830381865afa158015610c11573d6000803e3d6000fd5b505050506040513d6000823e601f3d908101601f19168201604052610c399190810190614370565b5090506000816101200151905060006101cc600083600081518110610c6057610c6061448f565b6020026020010151815260200190815260200160002060009054906101000a90046001600160a01b0316905060006101cc600084600181518110610ca657610ca661448f565b60209081029190910181015182528181019290925260409081016000205481518083019092526001600160a01b03858116835216918101829052909150610cec81612698565b7f13c6ec2a463a35f898a457814a782f1f567808293fa783a31fa4dac8868e60118a8a8a8a604051610d2194939291906144a5565b60405180910390a15050505050610dfb565b60008251118015610d5257506101c8546001600160a01b038681169116145b15610dbd57600082806020019051810190610d6d9190614519565b9050610d7a848287612907565b7f13c6ec2a463a35f898a457814a782f1f567808293fa783a31fa4dac8868e601186868686604051610daf9493929190614532565b60405180910390a150610dfb565b7f13c6ec2a463a35f898a457814a782f1f567808293fa783a31fa4dac8868e601185858585604051610df294939291906145a6565b60405180910390a15b507f150b7a02000000000000000000000000000000000000000000000000000000005b949350505050565b6001600160a01b03811660009081526101646020526040902054610ea05760405162461bcd60e51b815260206004820152602660248201527f5061796d656e7453706c69747465723a206163636f756e7420686173206e6f2060448201526573686172657360d01b60648201526084015b60405180910390fd5b6000610eab82611e00565b905080600003610f115760405162461bcd60e51b815260206004820152602b60248201527f5061796d656e7453706c69747465723a206163636f756e74206973206e6f742060448201526a191d59481c185e5b595b9d60aa1b6064820152608401610e97565b806101636000828254610f249190614630565b90915550506001600160a01b038216600090815261016560205260409020805482019055610f528282612a53565b604080516001600160a01b0384168152602081018390527fdf20fd1e76bc69d672e4814fafb2c449bba3a5369d8359adf9e05e6fde87b056910160405180910390a15050565b565b610fa2612b6c565b610f98612bc7565b600033610fb8858285612c21565b610fc3858585612cad565b506001949350505050565b610fd6612b6c565b610fde612ea1565b604051339081904780156108fc02916000818181858888f1935050505015801561100c573d6000803e3d6000fd5b5050565b60608282116110615760405162461bcd60e51b815260206004820152600d60248201527f496e76616c696420696e646578000000000000000000000000000000000000006044820152606401610e97565b6101cb548211156110b45760405162461bcd60e51b815260206004820152601360248201527f496e646578206f7574206f6620626f756e6473000000000000000000000000006044820152606401610e97565b60006110c08484614643565b67ffffffffffffffff8111156110d8576110d8613e5a565b60405190808252806020026020018201604052801561113657816020015b6111236040518060600160405280600081526020016000815260200160006001600160a01b031681525090565b8152602001906001900390816110f65790505b509050835b838110156111c8576101cb81815481106111575761115761448f565b6000918252602091829020604080516060810182526003909302909101805483526001810154938301939093526002909201546001600160a01b031691810191909152826111a58784614643565b815181106111b5576111b561448f565b602090810291909101015260010161113b565b509392505050565b60006111da612ef4565b905090565b6001600160a01b037f000000000000000000000000000000000000000000000000000000000000000016300361126c5760405162461bcd60e51b815260206004820152602c60248201527f46756e6374696f6e206d7573742062652063616c6c6564207468726f7567682060448201526b19195b1959d85d1958d85b1b60a21b6064820152608401610e97565b7f00000000000000000000000000000000000000000000000000000000000000006001600160a01b03166112c77f360894a13ba1a3210667c828492db98dca3e2076cc3735a920a3ca505d382bbc546001600160a01b031690565b6001600160a01b0316146113325760405162461bcd60e51b815260206004820152602c60248201527f46756e6374696f6e206d7573742062652063616c6c6564207468726f7567682060448201526b6163746976652070726f787960a01b6064820152608401610e97565b61133b81612efe565b6040805160008082526020820190925261135791839190612f06565b50565b33600081815260ca602090815260408083206001600160a01b0387168452909152812054909190610b7e9082908690611394908790614630565b612540565b6113a1612b6c565b610f986130a6565b6001600160a01b0381166000908152610164602052604090205461141e5760405162461bcd60e51b815260206004820152602660248201527f5061796d656e7453706c69747465723a206163636f756e7420686173206e6f2060448201526573686172657360d01b6064820152608401610e97565b600061142a8383611f02565b9050806000036114905760405162461bcd60e51b815260206004820152602b60248201527f5061796d656e7453706c69747465723a206163636f756e74206973206e6f742060448201526a191d59481c185e5b595b9d60aa1b6064820152608401610e97565b6001600160a01b03831660009081526101676020526040812080548392906114b9908490614630565b90915550506001600160a01b038084166000908152610168602090815260408083209386168352929052208054820190556114f58383836130df565b604080516001600160a01b038481168252602082018490528516917f3be5b7a71e84ed12875d241991c70855ac5817d847039e17a9d895c1ceb0f18a910160405180910390a2505050565b611548612b6c565b611550612ea1565b6101c9919091556101c680546001600160a01b039384166001600160a01b0319918216179091556101c88054929093169116179055565b6001600160a01b037f00000000000000000000000000000000000000000000000000000000000000001630036116145760405162461bcd60e51b815260206004820152602c60248201527f46756e6374696f6e206d7573742062652063616c6c6564207468726f7567682060448201526b19195b1959d85d1958d85b1b60a21b6064820152608401610e97565b7f00000000000000000000000000000000000000000000000000000000000000006001600160a01b031661166f7f360894a13ba1a3210667c828492db98dca3e2076cc3735a920a3ca505d382bbc546001600160a01b031690565b6001600160a01b0316146116da5760405162461bcd60e51b815260206004820152602c60248201527f46756e6374696f6e206d7573742062652063616c6c6564207468726f7567682060448201526b6163746976652070726f787960a01b6064820152608401610e97565b6116e382612efe565b61100c82826001612f06565b6000306001600160a01b037f0000000000000000000000000000000000000000000000000000000000000000161461178f5760405162461bcd60e51b815260206004820152603860248201527f555550535570677261646561626c653a206d757374206e6f742062652063616c60448201527f6c6564207468726f7567682064656c656761746563616c6c00000000000000006064820152608401610e97565b507f360894a13ba1a3210667c828492db98dca3e2076cc3735a920a3ca505d382bbc90565b60606101cb805480602002602001604051908101604052809291908181526020016000905b8282101561182e576000848152602090819020604080516060810182526003860290920180548352600180820154848601526002909101546001600160a01b03169183019190915290835290920191016117d9565b50505050905090565b61183f612b6c565b610f98600061315f565b6001600160a01b038116600090815261012f6020526040812054610b84565b600054610100900460ff16158080156118885750600054600160ff909116105b806118a25750303b1580156118a2575060005460ff166001145b6119145760405162461bcd60e51b815260206004820152602e60248201527f496e697469616c697a61626c653a20636f6e747261637420697320616c72656160448201527f647920696e697469616c697a65640000000000000000000000000000000000006064820152608401610e97565b6000805460ff191660011790558015611937576000805461ff0019166101001790555b61193f6131b2565b611947613225565b61194f613298565b8015611357576000805461ff0019169055604051600181527f7f26b83ff96e1f2b6a682f133852f6798a09c465da95921460cefb38474024989060200160405180910390a150565b61199f612ea1565b60008060006119ad84613303565b9050806101c9546119be9190614630565b3410156119ca57600080fd5b6000805b6101cb54811015611a4557856101cb82815481106119ee576119ee61448f565b90600052602060002090600302016000015403611a3d576101cb8181548110611a1957611a1961448f565b60009182526020909120600260039092020101546001600160a01b03169150611a45565b6001016119ce565b50604051600b906000906001600160a01b0384169083908381818185875af1925050503d8060008114611a94576040519150601f19603f3d011682016040523d82523d6000602084013e611a99565b606091505b5050905080611aea5760405162461bcd60e51b815260206004820152601460248201527f4661696c656420746f2073656e642045746865720000000000000000000000006044820152606401610e97565b6101c6546040517fbf0e57a3000000000000000000000000000000000000000000000000000000008152600481018a905260248101899052600060448201523460648201526001600160a01b039091169063bf0e57a3906084016020604051808303816000875af1158015611b63573d6000803e3d6000fd5b505050506040513d601f19601f82011682018060405250810190611b879190614519565b50816101c954611b979190614630565b341115611c58576000336001600160a01b0316836101c95434611bba9190614643565b611bc49190614643565b604051600081818185875af1925050503d8060008114611c00576040519150601f19603f3d011682016040523d82523d6000602084013e611c05565b606091505b5050905080611c565760405162461bcd60e51b815260206004820152601d60248201527f4661696c656420746f20726566756e64206578636573732045746865720000006044820152606401610e97565b505b604080518981526001600160a01b0388811660208301528183018a90528716606082015290517f8557df6951fbdd47fe9027516fc896be40f285ed55a6acac460352adbab730cd9181900360800190a15050505050505050565b60006060806000806000606060fb546000801b148015611cd2575060fc54155b611d1e5760405162461bcd60e51b815260206004820152601560248201527f4549503731323a20556e696e697469616c697a656400000000000000000000006044820152606401610e97565b611d266133a4565b611d2e6133b3565b604080516000808252602082019092527f0f000000000000000000000000000000000000000000000000000000000000009b939a50919850469750309650945092509050565b6101ca6020528160005260406000208181548110611d9157600080fd5b60009182526020909120600390910201805460018201546002909201549093509091506001600160a01b031683565b60006101668281548110611dd657611dd661448f565b6000918252602090912001546001600160a01b031692915050565b606060cd8054610aed906142bc565b600080611e0d6101635490565b611e179047614630565b9050611e438382611e3e866001600160a01b03166000908152610165602052604090205490565b6133c2565b9392505050565b33600081815260ca602090815260408083206001600160a01b038716845290915281205490919083811015611ee75760405162461bcd60e51b815260206004820152602560248201527f45524332303a2064656372656173656420616c6c6f77616e63652062656c6f7760448201527f207a65726f0000000000000000000000000000000000000000000000000000006064820152608401610e97565b610fc38286868403612540565b600033610b7e818585612cad565b6001600160a01b0382166000908152610167602052604081205481906040517f70a082310000000000000000000000000000000000000000000000000000000081523060048201526001600160a01b038616906370a0823190602401602060405180830381865afa158015611f7b573d6000803e3d6000fd5b505050506040513d601f19601f82011682018060405250810190611f9f9190614519565b611fa99190614630565b6001600160a01b0380861660009081526101686020908152604080832093881683529290522054909150610e1e90849083906133c2565b611fe8612b6c565b611ff0612ea1565b6101c955565b611ffe612ea1565b6101cb5482106120505760405162461bcd60e51b815260206004820152601360248201527f496e646578206f7574206f6620626f756e6473000000000000000000000000006044820152606401610e97565b600033905060006101cb848154811061206b5761206b61448f565b6000918252602091829020604080516060810182526003909302909101805483526001810154938301939093526002909201546001600160a01b0316918101829052915033146120ba57600080fd5b6040518060600160405280600081526020016000815260200160006001600160a01b03168152506101cb85815481106120f5576120f561448f565b6000918252602091829020835160039290920201908155908201516001820155604090910151600290910180546001600160a01b0319166001600160a01b039092169190911790556121478383613402565b6101c8548151604080516001600160a01b03808716825290931660208401528201527f0ece05e698e9e143fb75b2ad0aba7f141238c27b6d3e9728898183ee0d68498b906060015b60405180910390a150505050565b6121a5612b6c565b6121ad612ea1565b6101c780546001600160a01b0319166001600160a01b0392909216919091179055565b6121d8612b6c565b6101c8546040517fa22cb4650000000000000000000000000000000000000000000000000000000081526001600160a01b03848116600483015283151560248301529091169063a22cb465906044015b600060405180830381600087803b15801561224257600080fd5b505af1158015612256573d6000803e3d6000fd5b505050505050565b834211156122ae5760405162461bcd60e51b815260206004820152601d60248201527f45524332305065726d69743a206578706972656420646561646c696e650000006044820152606401610e97565b60007f6e71edae12b1b97f4d1f60370fef10105fa2faae0126114a169c64845d6126c98888886122dd8c61345b565b6040805160208101969096526001600160a01b0394851690860152929091166060840152608083015260a082015260c0810186905260e001604051602081830303815290604052805190602001209050600061233882613482565b90506000612348828787876134ca565b9050896001600160a01b0316816001600160a01b0316146123ab5760405162461bcd60e51b815260206004820152601e60248201527f45524332305065726d69743a20696e76616c6964207369676e617475726500006044820152606401610e97565b6123b68a8a8a612540565b50505050505050505050565b6101c8546040517fe985e9c50000000000000000000000000000000000000000000000000000000081526001600160a01b0384811660048301528381166024830152600092169063e985e9c590604401602060405180830381865afa15801561242f573d6000803e3d6000fd5b505050506040513d601f19601f82011682018060405250810190611e439190614656565b6101cd602052816000526040600020818154811061247057600080fd5b600091825260209091206004909102018054600182015460028301546003909301546001600160a01b03928316955090935060ff83169261010090049091169085565b6124bb612b6c565b6001600160a01b0381166125375760405162461bcd60e51b815260206004820152602660248201527f4f776e61626c653a206e6577206f776e657220697320746865207a65726f206160448201527f64647265737300000000000000000000000000000000000000000000000000006064820152608401610e97565b6113578161315f565b6001600160a01b0383166125bb5760405162461bcd60e51b8152602060048201526024808201527f45524332303a20617070726f76652066726f6d20746865207a65726f2061646460448201527f72657373000000000000000000000000000000000000000000000000000000006064820152608401610e97565b6001600160a01b0382166126375760405162461bcd60e51b815260206004820152602260248201527f45524332303a20617070726f766520746f20746865207a65726f20616464726560448201527f73730000000000000000000000000000000000000000000000000000000000006064820152608401610e97565b6001600160a01b03838116600081815260ca602090815260408083209487168084529482529182902085905590518481527f8c5be1e5ebec7d5bd14f71427d1e84f3dd0314c0f7b2291e5b200ac8c7c3b925910160405180910390a3505050565b80516020808301516001600160a01b03831660009081526101cd9092526040909120541561279b5760005b6001600160a01b03831660009081526101cd6020526040902054811015612795576001600160a01b0383811660009081526101cd60205260409020805491841691839081106127145761271461448f565b600091825260209091206004909102016002015461010090046001600160a01b03160361278d576001600160a01b03831660009081526101cd602052604090208054600191908390811061276a5761276a61448f565b60009182526020909120600490910201600201805460ff19169115159190911790555b6001016126c3565b50505050565b6020808401516001600160a01b031660009081526101cd9091526040902054156128945760005b6001600160a01b03821660009081526101cd6020526040902054811015612795576001600160a01b0382811660009081526101cd60205260409020805491851691839081106128135761281361448f565b600091825260209091206004909102016002015461010090046001600160a01b03160361288c576001600160a01b03821660009081526101cd60205260409020805460019190839081106128695761286961448f565b60009182526020909120600490910201600201805460ff19169115159190911790555b6001016127c2565b60405162461bcd60e51b815260206004820152602560248201527f706c616e65742073656e7420657272616e746c792c206e6f206f6e6520746f2060448201527f636c61696d0000000000000000000000000000000000000000000000000000006064820152608401610e97565b505050565b604080516060808201835285825260208083018681526001600160a01b0386811685870181815260009182526101ca8552878220805460018082018355918452868420895160039283029091019081558651818401558351600290910180549187166001600160a01b03199283161790556101cb80549384018155909452885191027fe8bbfecd380c4167d6a1f763a233ec73e73f534b1970c4e1683f437ec23c1f4481019190915593517fe8bbfecd380c4167d6a1f763a233ec73e73f534b1970c4e1683f437ec23c1f45850155517fe8bbfecd380c4167d6a1f763a233ec73e73f534b1970c4e1683f437ec23c1f46909301805493831693909116929092179091556101c85485513381529116918101919091529283018690528201849052907fb30319a217488a3ed441c348e935a48d16091e33109bab0c79a353b9797528839060800161218f565b80471015612aa35760405162461bcd60e51b815260206004820152601d60248201527f416464726573733a20696e73756666696369656e742062616c616e63650000006044820152606401610e97565b6000826001600160a01b03168260405160006040518083038185875af1925050503d8060008114612af0576040519150601f19603f3d011682016040523d82523d6000602084013e612af5565b606091505b50509050806129025760405162461bcd60e51b815260206004820152603a60248201527f416464726573733a20756e61626c6520746f2073656e642076616c75652c207260448201527f6563697069656e74206d617920686176652072657665727465640000000000006064820152608401610e97565b610194546001600160a01b03163314610f985760405162461bcd60e51b815260206004820181905260248201527f4f776e61626c653a2063616c6c6572206973206e6f7420746865206f776e65726044820152606401610e97565b612bcf612ea1565b6033805460ff191660011790557f62e78cea01bee320cd4e420270b5ea74000d11b0c9f74754ebdbfc544b05a258612c043390565b6040516001600160a01b03909116815260200160405180910390a1565b6001600160a01b03838116600090815260ca602090815260408083209386168352929052205460001981146127955781811015612ca05760405162461bcd60e51b815260206004820152601d60248201527f45524332303a20696e73756666696369656e7420616c6c6f77616e63650000006044820152606401610e97565b6127958484848403612540565b6001600160a01b038316612d295760405162461bcd60e51b815260206004820152602560248201527f45524332303a207472616e736665722066726f6d20746865207a65726f20616460448201527f64726573730000000000000000000000000000000000000000000000000000006064820152608401610e97565b6001600160a01b038216612da55760405162461bcd60e51b815260206004820152602360248201527f45524332303a207472616e7366657220746f20746865207a65726f206164647260448201527f65737300000000000000000000000000000000000000000000000000000000006064820152608401610e97565b6001600160a01b038316600090815260c9602052604090205481811015612e345760405162461bcd60e51b815260206004820152602660248201527f45524332303a207472616e7366657220616d6f756e742065786365656473206260448201527f616c616e636500000000000000000000000000000000000000000000000000006064820152608401610e97565b6001600160a01b03808516600081815260c9602052604080822086860390559286168082529083902080548601905591517fddf252ad1be2c89b69c2b068fc378daa952ba7f163c4a11628f55a4df523b3ef90612e949086815260200190565b60405180910390a3612795565b60335460ff1615610f985760405162461bcd60e51b815260206004820152601060248201527f5061757361626c653a20706175736564000000000000000000000000000000006044820152606401610e97565b60006111da6134f2565b611357612b6c565b7f4910fdfa16fed3260ed0e7147f7cc6da11a60208b5b9406d12a635614ffd91435460ff1615612f395761290283613566565b826001600160a01b03166352d1902d6040518163ffffffff1660e01b8152600401602060405180830381865afa925050508015612f93575060408051601f3d908101601f19168201909252612f9091810190614519565b60015b6130055760405162461bcd60e51b815260206004820152602e60248201527f45524331393637557067726164653a206e657720696d706c656d656e7461746960448201527f6f6e206973206e6f7420555550530000000000000000000000000000000000006064820152608401610e97565b7f360894a13ba1a3210667c828492db98dca3e2076cc3735a920a3ca505d382bbc811461309a5760405162461bcd60e51b815260206004820152602960248201527f45524331393637557067726164653a20756e737570706f727465642070726f7860448201527f6961626c655555494400000000000000000000000000000000000000000000006064820152608401610e97565b50612902838383613624565b6130ae613649565b6033805460ff191690557f5db9ee0a495bf2e6ff9c91a7834c1ba4fdd244a5e8aa4e537bd38aeae4b073aa33612c04565b604080516001600160a01b038416602482015260448082018490528251808303909101815260649091019091526020810180517bffffffffffffffffffffffffffffffffffffffffffffffffffffffff167fa9059cbb0000000000000000000000000000000000000000000000000000000017905261290290849061369b565b61019480546001600160a01b038381166001600160a01b0319831681179093556040519116919082907f8be0079c531659141344cd1fd0a4f28419497f9722a3daafe3b4186f6b6457e090600090a35050565b600054610100900460ff1661321d5760405162461bcd60e51b815260206004820152602b60248201527f496e697469616c697a61626c653a20636f6e7472616374206973206e6f74206960448201526a6e697469616c697a696e6760a81b6064820152608401610e97565b610f98613783565b600054610100900460ff166132905760405162461bcd60e51b815260206004820152602b60248201527f496e697469616c697a61626c653a20636f6e7472616374206973206e6f74206960448201526a6e697469616c697a696e6760a81b6064820152608401610e97565b610f986137f7565b600054610100900460ff16610f985760405162461bcd60e51b815260206004820152602b60248201527f496e697469616c697a61626c653a20636f6e7472616374206973206e6f74206960448201526a6e697469616c697a696e6760a81b6064820152608401610e97565b600061330d612ea1565b60005b6101cb5481101561339d57826101cb82815481106133305761333061448f565b90600052602060002090600302016000015403613375576101cb818154811061335b5761335b61448f565b906000526020600020906003020160010154915050919050565b6101cb5461338590600190614643565b8103613395575060001992915050565b600101613310565b505b919050565b606060fd8054610aed906142bc565b606060fe8054610aed906142bc565b610162546001600160a01b03841660009081526101646020526040812054909183916133ee9086614673565b6133f8919061468a565b610e1e9190614643565b6101c8546040517f23b872dd0000000000000000000000000000000000000000000000000000000081523060048201526001600160a01b03838116602483015260448201859052909116906323b872dd90606401612228565b6001600160a01b038116600090815261012f6020526040902080546001810182559061339d565b6000610b8461348f612ef4565b836040517f19010000000000000000000000000000000000000000000000000000000000008152600281019290925260228201526042902090565b60008060006134db8787878761386e565b915091506134e881613932565b5095945050505050565b60007f8b73c3c69bb8fe3d512ecc4cf759cc79239f7b179b0ffacaa9a75d522b39400f61351d613a97565b613525613af0565b60408051602081019490945283019190915260608201524660808201523060a082015260c00160405160208183030381529060405280519060200120905090565b6001600160a01b0381163b6135e35760405162461bcd60e51b815260206004820152602d60248201527f455243313936373a206e657720696d706c656d656e746174696f6e206973206e60448201527f6f74206120636f6e7472616374000000000000000000000000000000000000006064820152608401610e97565b7f360894a13ba1a3210667c828492db98dca3e2076cc3735a920a3ca505d382bbc80546001600160a01b0319166001600160a01b0392909216919091179055565b61362d83613b21565b60008251118061363a5750805b15612902576127958383613b61565b60335460ff16610f985760405162461bcd60e51b815260206004820152601460248201527f5061757361626c653a206e6f74207061757365640000000000000000000000006044820152606401610e97565b60006136f0826040518060400160405280602081526020017f5361666545524332303a206c6f772d6c6576656c2063616c6c206661696c6564815250856001600160a01b0316613b869092919063ffffffff16565b90508051600014806137115750808060200190518101906137119190614656565b6129025760405162461bcd60e51b815260206004820152602a60248201527f5361666545524332303a204552433230206f7065726174696f6e20646964206e60448201527f6f742073756363656564000000000000000000000000000000000000000000006064820152608401610e97565b600054610100900460ff166137ee5760405162461bcd60e51b815260206004820152602b60248201527f496e697469616c697a61626c653a20636f6e7472616374206973206e6f74206960448201526a6e697469616c697a696e6760a81b6064820152608401610e97565b610f983361315f565b600054610100900460ff166138625760405162461bcd60e51b815260206004820152602b60248201527f496e697469616c697a61626c653a20636f6e7472616374206973206e6f74206960448201526a6e697469616c697a696e6760a81b6064820152608401610e97565b6033805460ff19169055565b6000807f7fffffffffffffffffffffffffffffff5d576e7357a4501ddfe92f46681b20a08311156138a55750600090506003613929565b6040805160008082526020820180845289905260ff881692820192909252606081018690526080810185905260019060a0016020604051602081039080840390855afa1580156138f9573d6000803e3d6000fd5b5050604051601f1901519150506001600160a01b03811661392257600060019250925050613929565b9150600090505b94509492505050565b6000816004811115613946576139466146ac565b0361394e5750565b6001816004811115613962576139626146ac565b036139af5760405162461bcd60e51b815260206004820152601860248201527f45434453413a20696e76616c6964207369676e617475726500000000000000006044820152606401610e97565b60028160048111156139c3576139c36146ac565b03613a105760405162461bcd60e51b815260206004820152601f60248201527f45434453413a20696e76616c6964207369676e6174757265206c656e677468006044820152606401610e97565b6003816004811115613a2457613a246146ac565b036113575760405162461bcd60e51b815260206004820152602260248201527f45434453413a20696e76616c6964207369676e6174757265202773272076616c60448201527f75650000000000000000000000000000000000000000000000000000000000006064820152608401610e97565b600080613aa26133a4565b805190915015613ab9578051602090910120919050565b60fb548015613ac85792915050565b7fc5d2460186f7233c927e7db2dcc703c0e500b653ca82273b7bfad8045d85a4709250505090565b600080613afb6133b3565b805190915015613b12578051602090910120919050565b60fc548015613ac85792915050565b613b2a81613566565b6040516001600160a01b038216907fbc7cd75a20ee27fd9adebab32041f755214dbc6bffa90cc0225b39da2e5c2d3b90600090a250565b6060611e4383836040518060600160405280602781526020016146df60279139613b95565b6060610e1e8484600085613c0d565b6060600080856001600160a01b031685604051613bb291906146c2565b600060405180830381855af49150503d8060008114613bed576040519150601f19603f3d011682016040523d82523d6000602084013e613bf2565b606091505b5091509150613c0386838387613cff565b9695505050505050565b606082471015613c855760405162461bcd60e51b815260206004820152602660248201527f416464726573733a20696e73756666696369656e742062616c616e636520666f60448201527f722063616c6c00000000000000000000000000000000000000000000000000006064820152608401610e97565b600080866001600160a01b03168587604051613ca191906146c2565b60006040518083038185875af1925050503d8060008114613cde576040519150601f19603f3d011682016040523d82523d6000602084013e613ce3565b606091505b5091509150613cf487838387613cff565b979650505050505050565b60608315613d6e578251600003613d67576001600160a01b0385163b613d675760405162461bcd60e51b815260206004820152601d60248201527f416464726573733a2063616c6c20746f206e6f6e2d636f6e74726163740000006044820152606401610e97565b5081610e1e565b610e1e8383815115613d835781518083602001fd5b8060405162461bcd60e51b8152600401610e979190613e06565b600060208284031215613daf57600080fd5b5035919050565b60005b83811015613dd1578181015183820152602001613db9565b50506000910152565b60008151808452613df2816020860160208601613db6565b601f01601f19169290920160200192915050565b602081526000611e436020830184613dda565b6001600160a01b038116811461135757600080fd5b60008060408385031215613e4157600080fd5b8235613e4c81613e19565b946020939093013593505050565b634e487b7160e01b600052604160045260246000fd5b604051610160810167ffffffffffffffff81118282101715613e9457613e94613e5a565b60405290565b604051601f8201601f1916810167ffffffffffffffff81118282101715613ec357613ec3613e5a565b604052919050565b600082601f830112613edc57600080fd5b813567ffffffffffffffff811115613ef657613ef6613e5a565b613f09601f8201601f1916602001613e9a565b818152846020838601011115613f1e57600080fd5b816020850160208301376000918101602001919091529392505050565b60008060008060808587031215613f5157600080fd5b8435613f5c81613e19565b93506020850135613f6c81613e19565b925060408501359150606085013567ffffffffffffffff811115613f8f57600080fd5b613f9b87828801613ecb565b91505092959194509250565b600060208284031215613fb957600080fd5b8135611e4381613e19565b600080600060608486031215613fd957600080fd5b8335613fe481613e19565b92506020840135613ff481613e19565b929592945050506040919091013590565b6000806040838503121561401857600080fd5b50508035926020909101359150565b602080825282518282018190526000919060409081850190868401855b8281101561407c5781518051855286810151878601528501516001600160a01b03168585015260609093019290850190600101614044565b5091979650505050505050565b6000806040838503121561409c57600080fd5b82356140a781613e19565b915060208301356140b781613e19565b809150509250929050565b6000806000606084860312156140d757600080fd5b83356140e281613e19565b92506020840135915060408401356140f981613e19565b809150509250925092565b6000806040838503121561411757600080fd5b823561412281613e19565b9150602083013567ffffffffffffffff81111561413e57600080fd5b61414a85828601613ecb565b9150509250929050565b7fff00000000000000000000000000000000000000000000000000000000000000881681526000602060e0602084015261419160e084018a613dda565b83810360408501526141a3818a613dda565b606085018990526001600160a01b038816608086015260a0850187905284810360c08601528551808252602080880193509091019060005b818110156141f7578351835292840192918401916001016141db565b50909c9b505050505050505050505050565b801515811461135757600080fd5b6000806040838503121561422a57600080fd5b823561423581613e19565b915060208301356140b781614209565b600080600080600080600060e0888a03121561426057600080fd5b873561426b81613e19565b9650602088013561427b81613e19565b95506040880135945060608801359350608088013560ff8116811461429f57600080fd5b9699959850939692959460a0840135945060c09093013592915050565b600181811c908216806142d057607f821691505b60208210810361339d57634e487b7160e01b600052602260045260246000fd5b600082601f83011261430157600080fd5b8151602067ffffffffffffffff82111561431d5761431d613e5a565b8160051b61432c828201613e9a565b928352848101820192828101908785111561434657600080fd5b83870192505b84831015613cf45782518252918301919083019061434c565b805161339f81614209565b6000806040838503121561438357600080fd5b825167ffffffffffffffff8082111561439b57600080fd5b9084019061016082870312156143b057600080fd5b6143b8613e70565b825181526020830151602082015260408301516040820152606083015160608201526080830151608082015260a083015160a082015260c083015160c082015260e083015160e0820152610100808401518381111561441657600080fd5b614422898287016142f0565b828401525050610120808401518381111561443c57600080fd5b614448898287016142f0565b828401525050610140808401518381111561446257600080fd5b61446e898287016142f0565b82840152505080945050505061448660208401614365565b90509250929050565b634e487b7160e01b600052603260045260246000fd5b60006001600160a01b03808716835280861660208401525083604083015260a060608301526144d760a0830184613dda565b8281036080840152600a81527f6e657720706c616e65740000000000000000000000000000000000000000000060208201526040810191505095945050505050565b60006020828403121561452b57600080fd5b5051919050565b60006001600160a01b03808716835280861660208401525083604083015260a0606083015261456460a0830184613dda565b8281036080840152600e81527f6c697374696e6720706c616e657400000000000000000000000000000000000060208201526040810191505095945050505050565b60006001600160a01b03808716835280861660208401525083604083015260a060608301526145d860a0830184613dda565b8281036080840152600d81527f756e63617465676f72697a65640000000000000000000000000000000000000060208201526040810191505095945050505050565b634e487b7160e01b600052601160045260246000fd5b80820180821115610b8457610b8461461a565b81810381811115610b8457610b8461461a565b60006020828403121561466857600080fd5b8151611e4381614209565b8082028115828204841417610b8457610b8461461a565b6000826146a757634e487b7160e01b600052601260045260246000fd5b500490565b634e487b7160e01b600052602160045260246000fd5b600082516146d4818460208701613db6565b919091019291505056fe416464726573733a206c6f772d6c6576656c2064656c65676174652063616c6c206661696c6564a26469706673582212204e2dd2834414a912245bd08a021eb05177b40f85244d110b253f1674de2c4a4d64736f6c63430008180033",
  "linkReferences": {},
  "deployedLinkReferences": {}
}