{
  "_format": "hh-sol-artifact-1",
  "contractName": "HatcherVOld",
  "sourceName": "contracts/Older/HatcherV3Old.sol",
  "abi": [
    {
      "inputs": [],
      "name": "Unauthorized",
      "type": "error"
    },
    {
      "anonymous": false,
      "inputs": [
        {
          "indexed": false,
          "internalType": "address",
          "name": "previousAdmin",
          "type": "address"
        },
        {
          "indexed": false,
          "internalType": "address",
          "name": "newAdmin",
          "type": "address"
        }
      ],
      "name": "AdminChanged",
      "type": "event"
    },
    {
      "anonymous": false,
      "inputs": [
        {
          "indexed": true,
          "internalType": "address",
          "name": "owner",
          "type": "address"
        },
        {
          "indexed": true,
          "internalType": "address",
          "name": "spender",
          "type": "address"
        },
        {
          "indexed": false,
          "internalType": "uint256",
          "name": "value",
          "type": "uint256"
        }
      ],
      "name": "Approval",
      "type": "event"
    },
    {
      "anonymous": false,
      "inputs": [
        {
          "indexed": true,
          "internalType": "address",
          "name": "beacon",
          "type": "address"
        }
      ],
      "name": "BeaconUpgraded",
      "type": "event"
    },
    {
      "anonymous": false,
      "inputs": [
        {
          "indexed": false,
          "internalType": "address",
          "name": "sentToUser",
          "type": "address"
        },
        {
          "indexed": false,
          "internalType": "address",
          "name": "token",
          "type": "address"
        },
        {
          "indexed": false,
          "internalType": "uint256",
          "name": "tokenId",
          "type": "uint256"
        },
        {
          "indexed": false,
          "internalType": "bool",
          "name": "success",
          "type": "bool"
        }
      ],
      "name": "DeClaimedAPlanet",
      "type": "event"
    },
    {
      "anonymous": false,
      "inputs": [
        {
          "indexed": false,
          "internalType": "address",
          "name": "sentToUser",
          "type": "address"
        },
        {
          "indexed": false,
          "internalType": "address",
          "name": "token",
          "type": "address"
        },
        {
          "indexed": false,
          "internalType": "uint256",
          "name": "tokenId",
          "type": "uint256"
        },
        {
          "indexed": false,
          "internalType": "bool",
          "name": "success",
          "type": "bool"
        }
      ],
      "name": "DeListedAPlanet",
      "type": "event"
    },
    {
      "anonymous": false,
      "inputs": [],
      "name": "EIP712DomainChanged",
      "type": "event"
    },
    {
      "anonymous": false,
      "inputs": [
        {
          "indexed": true,
          "internalType": "contract IERC20Upgradeable",
          "name": "token",
          "type": "address"
        },
        {
          "indexed": false,
          "internalType": "address",
          "name": "to",
          "type": "address"
        },
        {
          "indexed": false,
          "internalType": "uint256",
          "name": "amount",
          "type": "uint256"
        }
      ],
      "name": "ERC20PaymentReleased",
      "type": "event"
    },
    {
      "anonymous": false,
      "inputs": [
        {
          "indexed": false,
          "internalType": "uint8",
          "name": "version",
          "type": "uint8"
        }
      ],
      "name": "Initialized",
      "type": "event"
    },
    {
      "anonymous": false,
      "inputs": [
        {
          "indexed": false,
          "internalType": "address",
          "name": "sentFromUser",
          "type": "address"
        },
        {
          "indexed": false,
          "internalType": "address",
          "name": "token",
          "type": "address"
        },
        {
          "indexed": false,
          "internalType": "uint256",
          "name": "tokenId",
          "type": "uint256"
        },
        {
          "indexed": false,
          "internalType": "uint256",
          "name": "price",
          "type": "uint256"
        }
      ],
      "name": "ListedAPlanet",
      "type": "event"
    },
    {
      "anonymous": false,
      "inputs": [
        {
          "indexed": false,
          "internalType": "address",
          "name": "operator",
          "type": "address"
        },
        {
          "indexed": false,
          "internalType": "address",
          "name": "from",
          "type": "address"
        },
        {
          "indexed": false,
          "internalType": "uint256",
          "name": "tokenId",
          "type": "uint256"
        },
        {
          "indexed": false,
          "internalType": "bytes",
          "name": "data",
          "type": "bytes"
        },
        {
          "indexed": false,
          "internalType": "string",
          "name": "typeOfReceival",
          "type": "string"
        }
      ],
      "name": "NftReceived",
      "type": "event"
    },
    {
      "anonymous": false,
      "inputs": [
        {
          "indexed": true,
          "internalType": "address",
          "name": "previousOwner",
          "type": "address"
        },
        {
          "indexed": true,
          "internalType": "address",
          "name": "newOwner",
          "type": "address"
        }
      ],
      "name": "OwnershipTransferred",
      "type": "event"
    },
    {
      "anonymous": false,
      "inputs": [
        {
          "indexed": false,
          "internalType": "address",
          "name": "account",
          "type": "address"
        }
      ],
      "name": "Paused",
      "type": "event"
    },
    {
      "anonymous": false,
      "inputs": [
        {
          "indexed": false,
          "internalType": "address",
          "name": "account",
          "type": "address"
        },
        {
          "indexed": false,
          "internalType": "uint256",
          "name": "shares",
          "type": "uint256"
        }
      ],
      "name": "PayeeAdded",
      "type": "event"
    },
    {
      "anonymous": false,
      "inputs": [
        {
          "indexed": false,
          "internalType": "address",
          "name": "from",
          "type": "address"
        },
        {
          "indexed": false,
          "internalType": "uint256",
          "name": "amount",
          "type": "uint256"
        }
      ],
      "name": "PaymentReceived",
      "type": "event"
    },
    {
      "anonymous": false,
      "inputs": [
        {
          "indexed": false,
          "internalType": "address",
          "name": "to",
          "type": "address"
        },
        {
          "indexed": false,
          "internalType": "uint256",
          "name": "amount",
          "type": "uint256"
        }
      ],
      "name": "PaymentReleased",
      "type": "event"
    },
    {
      "anonymous": false,
      "inputs": [
        {
          "indexed": false,
          "internalType": "uint256",
          "name": "planetAsking",
          "type": "uint256"
        },
        {
          "indexed": false,
          "internalType": "address",
          "name": "askingUser",
          "type": "address"
        },
        {
          "indexed": false,
          "internalType": "uint256",
          "name": "planetJoining",
          "type": "uint256"
        },
        {
          "indexed": false,
          "internalType": "address",
          "name": "joiningUser",
          "type": "address"
        }
      ],
      "name": "PlanetsConjoining",
      "type": "event"
    },
    {
      "anonymous": false,
      "inputs": [
        {
          "indexed": true,
          "internalType": "address",
          "name": "from",
          "type": "address"
        },
        {
          "indexed": true,
          "internalType": "address",
          "name": "to",
          "type": "address"
        },
        {
          "indexed": false,
          "internalType": "uint256",
          "name": "value",
          "type": "uint256"
        }
      ],
      "name": "Transfer",
      "type": "event"
    },
    {
      "anonymous": false,
      "inputs": [
        {
          "indexed": false,
          "internalType": "address",
          "name": "account",
          "type": "address"
        }
      ],
      "name": "Unpaused",
      "type": "event"
    },
    {
      "anonymous": false,
      "inputs": [
        {
          "indexed": true,
          "internalType": "address",
          "name": "implementation",
          "type": "address"
        }
      ],
      "name": "Upgraded",
      "type": "event"
    },
    {
      "stateMutability": "payable",
      "type": "fallback"
    },
    {
      "inputs": [],
      "name": "DOMAIN_SEPARATOR",
      "outputs": [
        {
          "internalType": "bytes32",
          "name": "",
          "type": "bytes32"
        }
      ],
      "stateMutability": "view",
      "type": "function"
    },
    {
      "inputs": [
        {
          "internalType": "address",
          "name": "owner",
          "type": "address"
        },
        {
          "internalType": "address",
          "name": "spender",
          "type": "address"
        }
      ],
      "name": "allowance",
      "outputs": [
        {
          "internalType": "uint256",
          "name": "",
          "type": "uint256"
        }
      ],
      "stateMutability": "view",
      "type": "function"
    },
    {
      "inputs": [
        {
          "internalType": "address",
          "name": "spender",
          "type": "address"
        },
        {
          "internalType": "uint256",
          "name": "amount",
          "type": "uint256"
        }
      ],
      "name": "approve",
      "outputs": [
        {
          "internalType": "bool",
          "name": "",
          "type": "bool"
        }
      ],
      "stateMutability": "nonpayable",
      "type": "function"
    },
    {
      "inputs": [
        {
          "internalType": "contract IERC721",
          "name": "token",
          "type": "address"
        },
        {
          "internalType": "address",
          "name": "operator",
          "type": "address"
        }
      ],
      "name": "approveAllERC721Tokens",
      "outputs": [],
      "stateMutability": "nonpayable",
      "type": "function"
    },
    {
      "inputs": [
        {
          "internalType": "contract IERC20",
          "name": "token",
          "type": "address"
        },
        {
          "internalType": "address",
          "name": "spender",
          "type": "address"
        },
        {
          "internalType": "uint256",
          "name": "amount",
          "type": "uint256"
        }
      ],
      "name": "approveERC20",
      "outputs": [],
      "stateMutability": "nonpayable",
      "type": "function"
    },
    {
      "inputs": [
        {
          "internalType": "address",
          "name": "account",
          "type": "address"
        }
      ],
      "name": "balanceOf",
      "outputs": [
        {
          "internalType": "uint256",
          "name": "",
          "type": "uint256"
        }
      ],
      "stateMutability": "view",
      "type": "function"
    },
    {
      "inputs": [],
      "name": "breedContract",
      "outputs": [
        {
          "internalType": "contract IBreedContract",
          "name": "",
          "type": "address"
        }
      ],
      "stateMutability": "view",
      "type": "function"
    },
    {
      "inputs": [
        {
          "internalType": "uint256",
          "name": "newVRF",
          "type": "uint256"
        }
      ],
      "name": "changeVRFValue",
      "outputs": [],
      "stateMutability": "nonpayable",
      "type": "function"
    },
    {
      "inputs": [
        {
          "internalType": "address",
          "name": "owner",
          "type": "address"
        },
        {
          "internalType": "address",
          "name": "operator",
          "type": "address"
        }
      ],
      "name": "checkApprovalForAll",
      "outputs": [
        {
          "internalType": "bool",
          "name": "",
          "type": "bool"
        }
      ],
      "stateMutability": "view",
      "type": "function"
    },
    {
      "inputs": [
        {
          "internalType": "uint256",
          "name": "claimableTokenId",
          "type": "uint256"
        }
      ],
      "name": "claimPlanet",
      "outputs": [],
      "stateMutability": "nonpayable",
      "type": "function"
    },
    {
      "inputs": [
        {
          "internalType": "address",
          "name": "",
          "type": "address"
        },
        {
          "internalType": "uint256",
          "name": "",
          "type": "uint256"
        }
      ],
      "name": "claimablePlanets",
      "outputs": [
        {
          "internalType": "address",
          "name": "ownerParentAddress",
          "type": "address"
        },
        {
          "internalType": "uint256",
          "name": "ownerTokenId",
          "type": "uint256"
        },
        {
          "internalType": "bool",
          "name": "delivered",
          "type": "bool"
        },
        {
          "internalType": "bool",
          "name": "arrived",
          "type": "bool"
        },
        {
          "internalType": "address",
          "name": "otherParent",
          "type": "address"
        },
        {
          "internalType": "uint256",
          "name": "otherTokenId",
          "type": "uint256"
        },
        {
          "internalType": "uint256",
          "name": "claimsTokenId",
          "type": "uint256"
        }
      ],
      "stateMutability": "view",
      "type": "function"
    },
    {
      "inputs": [
        {
          "internalType": "uint256",
          "name": "",
          "type": "uint256"
        }
      ],
      "name": "claimantTokenIdToOwnerAddress",
      "outputs": [
        {
          "internalType": "address",
          "name": "",
          "type": "address"
        }
      ],
      "stateMutability": "view",
      "type": "function"
    },
    {
      "inputs": [
        {
          "internalType": "uint256",
          "name": "yourPlanet",
          "type": "uint256"
        },
        {
          "internalType": "uint256",
          "name": "withListedPlanet",
          "type": "uint256"
        }
      ],
      "name": "conjunct",
      "outputs": [],
      "stateMutability": "payable",
      "type": "function"
    },
    {
      "inputs": [
        {
          "internalType": "uint256",
          "name": "idIndex",
          "type": "uint256"
        },
        {
          "internalType": "uint256",
          "name": "tokenId",
          "type": "uint256"
        }
      ],
      "name": "deList",
      "outputs": [],
      "stateMutability": "nonpayable",
      "type": "function"
    },
    {
      "inputs": [],
      "name": "deListAllYourPlanets",
      "outputs": [],
      "stateMutability": "nonpayable",
      "type": "function"
    },
    {
      "inputs": [],
      "name": "decimals",
      "outputs": [
        {
          "internalType": "uint8",
          "name": "",
          "type": "uint8"
        }
      ],
      "stateMutability": "view",
      "type": "function"
    },
    {
      "inputs": [
        {
          "internalType": "address",
          "name": "spender",
          "type": "address"
        },
        {
          "internalType": "uint256",
          "name": "subtractedValue",
          "type": "uint256"
        }
      ],
      "name": "decreaseAllowance",
      "outputs": [
        {
          "internalType": "bool",
          "name": "",
          "type": "bool"
        }
      ],
      "stateMutability": "nonpayable",
      "type": "function"
    },
    {
      "inputs": [],
      "name": "eip712Domain",
      "outputs": [
        {
          "internalType": "bytes1",
          "name": "fields",
          "type": "bytes1"
        },
        {
          "internalType": "string",
          "name": "name",
          "type": "string"
        },
        {
          "internalType": "string",
          "name": "version",
          "type": "string"
        },
        {
          "internalType": "uint256",
          "name": "chainId",
          "type": "uint256"
        },
        {
          "internalType": "address",
          "name": "verifyingContract",
          "type": "address"
        },
        {
          "internalType": "bytes32",
          "name": "salt",
          "type": "bytes32"
        },
        {
          "internalType": "uint256[]",
          "name": "extensions",
          "type": "uint256[]"
        }
      ],
      "stateMutability": "view",
      "type": "function"
    },
    {
      "inputs": [],
      "name": "getAllPlanets",
      "outputs": [
        {
          "components": [
            {
              "internalType": "uint256",
              "name": "tokenId",
              "type": "uint256"
            },
            {
              "internalType": "uint256",
              "name": "price",
              "type": "uint256"
            },
            {
              "internalType": "address",
              "name": "ownerAddress",
              "type": "address"
            },
            {
              "internalType": "bool",
              "name": "active",
              "type": "bool"
            }
          ],
          "internalType": "struct ListedPlanet[]",
          "name": "",
          "type": "tuple[]"
        }
      ],
      "stateMutability": "view",
      "type": "function"
    },
    {
      "inputs": [
        {
          "internalType": "address",
          "name": "userAddr",
          "type": "address"
        }
      ],
      "name": "getClaimablePlanetsFor",
      "outputs": [
        {
          "components": [
            {
              "internalType": "address",
              "name": "ownerParentAddress",
              "type": "address"
            },
            {
              "internalType": "uint256",
              "name": "ownerTokenId",
              "type": "uint256"
            },
            {
              "internalType": "bool",
              "name": "delivered",
              "type": "bool"
            },
            {
              "internalType": "bool",
              "name": "arrived",
              "type": "bool"
            },
            {
              "internalType": "address",
              "name": "otherParent",
              "type": "address"
            },
            {
              "internalType": "uint256",
              "name": "otherTokenId",
              "type": "uint256"
            },
            {
              "internalType": "uint256",
              "name": "claimsTokenId",
              "type": "uint256"
            }
          ],
          "internalType": "struct ClaimablePlanet[]",
          "name": "",
          "type": "tuple[]"
        }
      ],
      "stateMutability": "view",
      "type": "function"
    },
    {
      "inputs": [
        {
          "internalType": "uint256",
          "name": "claimableTokenId",
          "type": "uint256"
        }
      ],
      "name": "getClaimantTokenIdToOwnerAddress",
      "outputs": [
        {
          "internalType": "address",
          "name": "",
          "type": "address"
        }
      ],
      "stateMutability": "view",
      "type": "function"
    },
    {
      "inputs": [
        {
          "internalType": "uint256",
          "name": "listedTokenId",
          "type": "uint256"
        }
      ],
      "name": "getListedTokenIdToOwnerAddr",
      "outputs": [
        {
          "internalType": "address",
          "name": "",
          "type": "address"
        }
      ],
      "stateMutability": "view",
      "type": "function"
    },
    {
      "inputs": [
        {
          "internalType": "uint256",
          "name": "startIndex",
          "type": "uint256"
        },
        {
          "internalType": "uint256",
          "name": "endIndex",
          "type": "uint256"
        }
      ],
      "name": "getPlanetsPaginated",
      "outputs": [
        {
          "components": [
            {
              "internalType": "uint256",
              "name": "tokenId",
              "type": "uint256"
            },
            {
              "internalType": "uint256",
              "name": "price",
              "type": "uint256"
            },
            {
              "internalType": "address",
              "name": "ownerAddress",
              "type": "address"
            },
            {
              "internalType": "bool",
              "name": "active",
              "type": "bool"
            }
          ],
          "internalType": "struct ListedPlanet[]",
          "name": "",
          "type": "tuple[]"
        }
      ],
      "stateMutability": "view",
      "type": "function"
    },
    {
      "inputs": [
        {
          "internalType": "address",
          "name": "userAddr",
          "type": "address"
        }
      ],
      "name": "getuserToListedPlanets",
      "outputs": [
        {
          "components": [
            {
              "internalType": "uint256",
              "name": "tokenId",
              "type": "uint256"
            },
            {
              "internalType": "uint256",
              "name": "price",
              "type": "uint256"
            },
            {
              "internalType": "address",
              "name": "ownerAddress",
              "type": "address"
            },
            {
              "internalType": "bool",
              "name": "active",
              "type": "bool"
            }
          ],
          "internalType": "struct ListedPlanet[]",
          "name": "",
          "type": "tuple[]"
        }
      ],
      "stateMutability": "view",
      "type": "function"
    },
    {
      "inputs": [
        {
          "internalType": "address",
          "name": "owner",
          "type": "address"
        },
        {
          "internalType": "uint256",
          "name": "tokenId",
          "type": "uint256"
        }
      ],
      "name": "hasPlanetArrived",
      "outputs": [
        {
          "internalType": "bool",
          "name": "arrived",
          "type": "bool"
        }
      ],
      "stateMutability": "view",
      "type": "function"
    },
    {
      "inputs": [
        {
          "internalType": "address",
          "name": "owner",
          "type": "address"
        },
        {
          "internalType": "uint256",
          "name": "tokenId",
          "type": "uint256"
        }
      ],
      "name": "hasPlanetBeenDelivered",
      "outputs": [
        {
          "internalType": "bool",
          "name": "delivered",
          "type": "bool"
        }
      ],
      "stateMutability": "view",
      "type": "function"
    },
    {
      "inputs": [
        {
          "internalType": "address",
          "name": "spender",
          "type": "address"
        },
        {
          "internalType": "uint256",
          "name": "addedValue",
          "type": "uint256"
        }
      ],
      "name": "increaseAllowance",
      "outputs": [
        {
          "internalType": "bool",
          "name": "",
          "type": "bool"
        }
      ],
      "stateMutability": "nonpayable",
      "type": "function"
    },
    {
      "inputs": [
        {
          "internalType": "address",
          "name": "initialOwner",
          "type": "address"
        }
      ],
      "name": "initialize",
      "outputs": [],
      "stateMutability": "nonpayable",
      "type": "function"
    },
    {
      "inputs": [],
      "name": "listAllYourPlanets",
      "outputs": [],
      "stateMutability": "nonpayable",
      "type": "function"
    },
    {
      "inputs": [
        {
          "internalType": "uint256",
          "name": "",
          "type": "uint256"
        }
      ],
      "name": "listedTokenIdToOwnerAddr",
      "outputs": [
        {
          "internalType": "address",
          "name": "",
          "type": "address"
        }
      ],
      "stateMutability": "view",
      "type": "function"
    },
    {
      "inputs": [],
      "name": "name",
      "outputs": [
        {
          "internalType": "string",
          "name": "",
          "type": "string"
        }
      ],
      "stateMutability": "view",
      "type": "function"
    },
    {
      "inputs": [
        {
          "internalType": "address",
          "name": "owner",
          "type": "address"
        }
      ],
      "name": "nonces",
      "outputs": [
        {
          "internalType": "uint256",
          "name": "",
          "type": "uint256"
        }
      ],
      "stateMutability": "view",
      "type": "function"
    },
    {
      "inputs": [
        {
          "internalType": "address",
          "name": "operator",
          "type": "address"
        },
        {
          "internalType": "address",
          "name": "from",
          "type": "address"
        },
        {
          "internalType": "uint256",
          "name": "tokenId",
          "type": "uint256"
        },
        {
          "internalType": "bytes",
          "name": "data",
          "type": "bytes"
        }
      ],
      "name": "onERC721Received",
      "outputs": [
        {
          "internalType": "bytes4",
          "name": "",
          "type": "bytes4"
        }
      ],
      "stateMutability": "nonpayable",
      "type": "function"
    },
    {
      "inputs": [],
      "name": "owner",
      "outputs": [
        {
          "internalType": "address",
          "name": "",
          "type": "address"
        }
      ],
      "stateMutability": "view",
      "type": "function"
    },
    {
      "inputs": [
        {
          "internalType": "uint256",
          "name": "claimableTokenId",
          "type": "uint256"
        },
        {
          "internalType": "address",
          "name": "sendToAddr",
          "type": "address"
        }
      ],
      "name": "ownerClaimPlanet",
      "outputs": [],
      "stateMutability": "nonpayable",
      "type": "function"
    },
    {
      "inputs": [
        {
          "internalType": "uint256",
          "name": "tokenId",
          "type": "uint256"
        },
        {
          "internalType": "address",
          "name": "destinationAddr",
          "type": "address"
        }
      ],
      "name": "ownerOverrideSendNFT",
      "outputs": [],
      "stateMutability": "nonpayable",
      "type": "function"
    },
    {
      "inputs": [],
      "name": "pause",
      "outputs": [],
      "stateMutability": "nonpayable",
      "type": "function"
    },
    {
      "inputs": [],
      "name": "paused",
      "outputs": [
        {
          "internalType": "bool",
          "name": "",
          "type": "bool"
        }
      ],
      "stateMutability": "view",
      "type": "function"
    },
    {
      "inputs": [
        {
          "internalType": "uint256",
          "name": "index",
          "type": "uint256"
        }
      ],
      "name": "payee",
      "outputs": [
        {
          "internalType": "address",
          "name": "",
          "type": "address"
        }
      ],
      "stateMutability": "view",
      "type": "function"
    },
    {
      "inputs": [
        {
          "internalType": "address",
          "name": "owner",
          "type": "address"
        },
        {
          "internalType": "address",
          "name": "spender",
          "type": "address"
        },
        {
          "internalType": "uint256",
          "name": "value",
          "type": "uint256"
        },
        {
          "internalType": "uint256",
          "name": "deadline",
          "type": "uint256"
        },
        {
          "internalType": "uint8",
          "name": "v",
          "type": "uint8"
        },
        {
          "internalType": "bytes32",
          "name": "r",
          "type": "bytes32"
        },
        {
          "internalType": "bytes32",
          "name": "s",
          "type": "bytes32"
        }
      ],
      "name": "permit",
      "outputs": [],
      "stateMutability": "nonpayable",
      "type": "function"
    },
    {
      "inputs": [],
      "name": "proxiableUUID",
      "outputs": [
        {
          "internalType": "bytes32",
          "name": "",
          "type": "bytes32"
        }
      ],
      "stateMutability": "view",
      "type": "function"
    },
    {
      "inputs": [
        {
          "internalType": "address",
          "name": "account",
          "type": "address"
        }
      ],
      "name": "releasable",
      "outputs": [
        {
          "internalType": "uint256",
          "name": "",
          "type": "uint256"
        }
      ],
      "stateMutability": "view",
      "type": "function"
    },
    {
      "inputs": [
        {
          "internalType": "contract IERC20Upgradeable",
          "name": "token",
          "type": "address"
        },
        {
          "internalType": "address",
          "name": "account",
          "type": "address"
        }
      ],
      "name": "releasable",
      "outputs": [
        {
          "internalType": "uint256",
          "name": "",
          "type": "uint256"
        }
      ],
      "stateMutability": "view",
      "type": "function"
    },
    {
      "inputs": [
        {
          "internalType": "address payable",
          "name": "account",
          "type": "address"
        }
      ],
      "name": "release",
      "outputs": [],
      "stateMutability": "nonpayable",
      "type": "function"
    },
    {
      "inputs": [
        {
          "internalType": "contract IERC20Upgradeable",
          "name": "token",
          "type": "address"
        },
        {
          "internalType": "address",
          "name": "account",
          "type": "address"
        }
      ],
      "name": "release",
      "outputs": [],
      "stateMutability": "nonpayable",
      "type": "function"
    },
    {
      "inputs": [
        {
          "internalType": "contract IERC20Upgradeable",
          "name": "token",
          "type": "address"
        },
        {
          "internalType": "address",
          "name": "account",
          "type": "address"
        }
      ],
      "name": "released",
      "outputs": [
        {
          "internalType": "uint256",
          "name": "",
          "type": "uint256"
        }
      ],
      "stateMutability": "view",
      "type": "function"
    },
    {
      "inputs": [
        {
          "internalType": "address",
          "name": "account",
          "type": "address"
        }
      ],
      "name": "released",
      "outputs": [
        {
          "internalType": "uint256",
          "name": "",
          "type": "uint256"
        }
      ],
      "stateMutability": "view",
      "type": "function"
    },
    {
      "inputs": [],
      "name": "renounceOwnership",
      "outputs": [],
      "stateMutability": "nonpayable",
      "type": "function"
    },
    {
      "inputs": [
        {
          "internalType": "address",
          "name": "_breederContractAddr",
          "type": "address"
        },
        {
          "internalType": "uint256",
          "name": "_vrfValue",
          "type": "uint256"
        },
        {
          "internalType": "address",
          "name": "_nftContractAddr",
          "type": "address"
        }
      ],
      "name": "setAllOf",
      "outputs": [],
      "stateMutability": "nonpayable",
      "type": "function"
    },
    {
      "inputs": [
        {
          "internalType": "uint256",
          "name": "_toThisPercentage",
          "type": "uint256"
        }
      ],
      "name": "setMktFee",
      "outputs": [],
      "stateMutability": "nonpayable",
      "type": "function"
    },
    {
      "inputs": [
        {
          "internalType": "address payable",
          "name": "newTAdd",
          "type": "address"
        }
      ],
      "name": "setTAdd",
      "outputs": [],
      "stateMutability": "nonpayable",
      "type": "function"
    },
    {
      "inputs": [
        {
          "internalType": "address",
          "name": "account",
          "type": "address"
        }
      ],
      "name": "shares",
      "outputs": [
        {
          "internalType": "uint256",
          "name": "",
          "type": "uint256"
        }
      ],
      "stateMutability": "view",
      "type": "function"
    },
    {
      "inputs": [],
      "name": "status",
      "outputs": [],
      "stateMutability": "nonpayable",
      "type": "function"
    },
    {
      "inputs": [],
      "name": "symbol",
      "outputs": [
        {
          "internalType": "string",
          "name": "",
          "type": "string"
        }
      ],
      "stateMutability": "view",
      "type": "function"
    },
    {
      "inputs": [
        {
          "internalType": "uint256",
          "name": "",
          "type": "uint256"
        }
      ],
      "name": "tokenIdClaimableToOwnerAddr",
      "outputs": [
        {
          "internalType": "address",
          "name": "",
          "type": "address"
        }
      ],
      "stateMutability": "view",
      "type": "function"
    },
    {
      "inputs": [
        {
          "internalType": "contract IERC20Upgradeable",
          "name": "token",
          "type": "address"
        }
      ],
      "name": "totalReleased",
      "outputs": [
        {
          "internalType": "uint256",
          "name": "",
          "type": "uint256"
        }
      ],
      "stateMutability": "view",
      "type": "function"
    },
    {
      "inputs": [],
      "name": "totalReleased",
      "outputs": [
        {
          "internalType": "uint256",
          "name": "",
          "type": "uint256"
        }
      ],
      "stateMutability": "view",
      "type": "function"
    },
    {
      "inputs": [],
      "name": "totalShares",
      "outputs": [
        {
          "internalType": "uint256",
          "name": "",
          "type": "uint256"
        }
      ],
      "stateMutability": "view",
      "type": "function"
    },
    {
      "inputs": [],
      "name": "totalSupply",
      "outputs": [
        {
          "internalType": "uint256",
          "name": "",
          "type": "uint256"
        }
      ],
      "stateMutability": "view",
      "type": "function"
    },
    {
      "inputs": [
        {
          "internalType": "address",
          "name": "to",
          "type": "address"
        },
        {
          "internalType": "uint256",
          "name": "amount",
          "type": "uint256"
        }
      ],
      "name": "transfer",
      "outputs": [
        {
          "internalType": "bool",
          "name": "",
          "type": "bool"
        }
      ],
      "stateMutability": "nonpayable",
      "type": "function"
    },
    {
      "inputs": [
        {
          "internalType": "address",
          "name": "from",
          "type": "address"
        },
        {
          "internalType": "address",
          "name": "to",
          "type": "address"
        },
        {
          "internalType": "uint256",
          "name": "amount",
          "type": "uint256"
        }
      ],
      "name": "transferFrom",
      "outputs": [
        {
          "internalType": "bool",
          "name": "",
          "type": "bool"
        }
      ],
      "stateMutability": "nonpayable",
      "type": "function"
    },
    {
      "inputs": [
        {
          "internalType": "address",
          "name": "newOwner",
          "type": "address"
        }
      ],
      "name": "transferOwnership",
      "outputs": [],
      "stateMutability": "nonpayable",
      "type": "function"
    },
    {
      "inputs": [],
      "name": "unpause",
      "outputs": [],
      "stateMutability": "nonpayable",
      "type": "function"
    },
    {
      "inputs": [
        {
          "internalType": "address",
          "name": "newImplementation",
          "type": "address"
        }
      ],
      "name": "upgradeTo",
      "outputs": [],
      "stateMutability": "nonpayable",
      "type": "function"
    },
    {
      "inputs": [
        {
          "internalType": "address",
          "name": "newImplementation",
          "type": "address"
        },
        {
          "internalType": "bytes",
          "name": "data",
          "type": "bytes"
        }
      ],
      "name": "upgradeToAndCall",
      "outputs": [],
      "stateMutability": "payable",
      "type": "function"
    },
    {
      "inputs": [
        {
          "internalType": "address",
          "name": "",
          "type": "address"
        },
        {
          "internalType": "uint256",
          "name": "",
          "type": "uint256"
        }
      ],
      "name": "userToListedPlanets",
      "outputs": [
        {
          "internalType": "uint256",
          "name": "tokenId",
          "type": "uint256"
        },
        {
          "internalType": "uint256",
          "name": "price",
          "type": "uint256"
        },
        {
          "internalType": "address",
          "name": "ownerAddress",
          "type": "address"
        },
        {
          "internalType": "bool",
          "name": "active",
          "type": "bool"
        }
      ],
      "stateMutability": "view",
      "type": "function"
    },
    {
      "inputs": [
        {
          "internalType": "address",
          "name": "userAddress",
          "type": "address"
        }
      ],
      "name": "usersClaims",
      "outputs": [
        {
          "components": [
            {
              "internalType": "address",
              "name": "ownerParentAddress",
              "type": "address"
            },
            {
              "internalType": "uint256",
              "name": "ownerTokenId",
              "type": "uint256"
            },
            {
              "internalType": "bool",
              "name": "delivered",
              "type": "bool"
            },
            {
              "internalType": "bool",
              "name": "arrived",
              "type": "bool"
            },
            {
              "internalType": "address",
              "name": "otherParent",
              "type": "address"
            },
            {
              "internalType": "uint256",
              "name": "otherTokenId",
              "type": "uint256"
            },
            {
              "internalType": "uint256",
              "name": "claimsTokenId",
              "type": "uint256"
            }
          ],
          "internalType": "struct ClaimablePlanet[]",
          "name": "",
          "type": "tuple[]"
        }
      ],
      "stateMutability": "view",
      "type": "function"
    },
    {
      "inputs": [
        {
          "internalType": "address",
          "name": "address1",
          "type": "address"
        },
        {
          "internalType": "address",
          "name": "address2",
          "type": "address"
        }
      ],
      "name": "withdrawAndSplitHalfsies",
      "outputs": [],
      "stateMutability": "nonpayable",
      "type": "function"
    },
    {
      "inputs": [],
      "name": "withdrawFunds",
      "outputs": [],
      "stateMutability": "nonpayable",
      "type": "function"
    },
    {
      "stateMutability": "payable",
      "type": "receive"
    }
  ],
  "bytecode": "0x60a06040523060805234801561001457600080fd5b506080516156e16200004d600039600081816113a8015281816113e801528181611795015281816117d50152611a0201526156e16000f3fe6080604052600436106103665760003560e01c80638230a784116101c7578063cdb82a37116100fd578063e33b7de311610098578063e33b7de314610b79578063ee6e3a2314610b8f578063f2fde38b14610bb0578063f4c1494314610bd0578063f658159a14610bf0578063f837894714610c27578063fdb4087514610c47578063fde4976714610c67578063fe79222914610aa157005b8063cdb82a37146109d3578063ce7c2ac2146109f3578063d4b5b8d614610a2a578063d505accf14610a61578063d79779b214610a81578063dbb774d814610aa1578063dd22a9c714610ace578063dd62ed3e14610aee578063e22aecb414610b0e57005b8063a3f8eace1161016d578063a3f8eace1461089c578063a457c2d7146108bc578063a8e5e4aa146108dc578063a9059cbb146108fc578063bd83dc051461091c578063c45ac05014610953578063c4d66de814610973578063c7c0e6b114610993578063cbdf1b5a146109b357005b80638230a7841461079c5780638456cb591461046e57806384b0196e146107af57806385fe7243146107d75780638b83209b146108285780638da5cb5b1461084857806395d89b41146108675780639852595c1461087c57005b80633a98ef391161029c57806350842cf31161024257806350842cf3146104425780635270ad6c1461069857806352d1902d146106b85780635b634b6a146106cd5780635c975abb146107045780636a23befb1461071c57806370a0823114610731578063715018a6146107675780637ecebe001461077c57005b80633a98ef39146105ba5780633f4ba83a146105d0578063406072a9146105e55780634594f0471461060557806348b75044146106255780634a02099b146106455780634d950449146106655780634f1ef2861461068557005b806323b872dd1161030c57806323b872dd1461048357806324600fc3146104a357806325947818146104b8578063313ce567146104e557806334ae54e9146105015780633644e515146105455780633659cfe61461055a578063395093511461057a5780633a7fb03d1461059a57005b806306fdde031461036f578063095ea7b31461039a578063150b7a02146103ca57806318160ddd1461040357806319165587146104225780631ac9a91e146104425780631dd320ea1461044e578063200d2ed21461046e57005b3661036d57005b005b34801561037b57600080fd5b50610384610c87565b6040516103919190614ad7565b60405180910390f35b3480156103a657600080fd5b506103ba6103b5366004614aff565b610d19565b6040519015158152602001610391565b3480156103d657600080fd5b506103ea6103e5366004614c09565b610d33565b6040516001600160e01b03199091168152602001610391565b34801561040f57600080fd5b5060cb545b604051908152602001610391565b34801561042e57600080fd5b5061036d61043d366004614c74565b610fe1565b34801561036d57600080fd5b34801561045a57600080fd5b506103ba610469366004614aff565b6110cd565b34801561047a57600080fd5b5061036d611192565b34801561048f57600080fd5b506103ba61049e366004614c91565b6111a2565b3480156104af57600080fd5b5061036d6111c6565b3480156104c457600080fd5b506104d86104d3366004614cd2565b611208565b6040516103919190614cf4565b3480156104f157600080fd5b5060405160128152602001610391565b34801561050d57600080fd5b5061053861051c366004614d63565b6101cc602052600090815260409020546001600160a01b031681565b6040516103919190614d7c565b34801561055157600080fd5b5061041461138f565b34801561056657600080fd5b5061036d610575366004614c74565b61139e565b34801561058657600080fd5b506103ba610595366004614aff565b611466565b3480156105a657600080fd5b5061036d6105b5366004614d90565b611488565b3480156105c657600080fd5b5061016254610414565b3480156105dc57600080fd5b5061036d6114fe565b3480156105f157600080fd5b50610414610600366004614dc0565b61150e565b34801561061157600080fd5b5061036d610620366004614dc0565b61153a565b34801561063157600080fd5b5061036d610640366004614dc0565b611625565b34801561065157600080fd5b5061036d610660366004614dee565b611736565b34801561067157600080fd5b5061036d610680366004614d63565b61177d565b61036d610693366004614e30565b61178b565b3480156106a457600080fd5b5061036d6106b3366004614d63565b611840565b3480156106c457600080fd5b506104146119f5565b3480156106d957600080fd5b506105386106e8366004614d63565b6101cf602052600090815260409020546001600160a01b031681565b34801561071057600080fd5b5060335460ff166103ba565b34801561072857600080fd5b506104d8611aa3565b34801561073d57600080fd5b5061041461074c366004614c74565b6001600160a01b0316600090815260c9602052604090205490565b34801561077357600080fd5b5061036d611b39565b34801561078857600080fd5b50610414610797366004614c74565b611b4b565b61036d6107aa366004614cd2565b611b6a565b3480156107bb57600080fd5b506107c461238b565b6040516103919796959493929190614e7f565b3480156107e357600080fd5b506107f76107f2366004614aff565b612429565b604051610391949392919093845260208401929092526001600160a01b031660408301521515606082015260800190565b34801561083457600080fd5b50610538610843366004614d63565b612481565b34801561085457600080fd5b50610194546001600160a01b0316610538565b34801561087357600080fd5b506103846124b2565b34801561088857600080fd5b50610414610897366004614c74565b6124c1565b3480156108a857600080fd5b506104146108b7366004614c74565b6124dd565b3480156108c857600080fd5b506103ba6108d7366004614aff565b612510565b3480156108e857600080fd5b5061036d6108f7366004614c91565b61258b565b34801561090857600080fd5b506103ba610917366004614aff565b612644565b34801561092857600080fd5b50610538610937366004614d63565b60009081526101cc60205260409020546001600160a01b031690565b34801561095f57600080fd5b5061041461096e366004614dc0565b612652565b34801561097f57600080fd5b5061036d61098e366004614c74565b6126e6565b34801561099f57600080fd5b5061036d6109ae366004614d63565b612810565b3480156109bf57600080fd5b5061036d6109ce366004614cd2565b612826565b3480156109df57600080fd5b5061036d6109ee366004614c74565b612b72565b3480156109ff57600080fd5b50610414610a0e366004614c74565b6001600160a01b03166000908152610164602052604090205490565b348015610a3657600080fd5b50610538610a45366004614d63565b6101d0602052600090815260409020546001600160a01b031681565b348015610a6d57600080fd5b5061036d610a7c366004614f18565b612ba5565b348015610a8d57600080fd5b50610414610a9c366004614c74565b612d09565b348015610aad57600080fd5b50610ac1610abc366004614c74565b612d25565b6040516103919190614f8f565b348015610ada57600080fd5b506103ba610ae9366004614dc0565b612df5565b348015610afa57600080fd5b50610414610b09366004614dc0565b612e6d565b348015610b1a57600080fd5b50610b2e610b29366004614aff565b612e98565b604080516001600160a01b0398891681526020810197909752941515948601949094529115156060850152909316608083015260a082019290925260c081019190915260e001610391565b348015610b8557600080fd5b5061016354610414565b348015610b9b57600080fd5b506101c654610538906001600160a01b031681565b348015610bbc57600080fd5b5061036d610bcb366004614c74565b612f09565b348015610bdc57600080fd5b506103ba610beb366004614aff565b612f7f565b348015610bfc57600080fd5b50610538610c0b366004614d63565b60009081526101d060205260409020546001600160a01b031690565b348015610c3357600080fd5b5061036d610c42366004614dc0565b61300f565b348015610c5357600080fd5b5061036d610c62366004614d90565b613086565b348015610c7357600080fd5b506104d8610c82366004614c74565b6130c3565b606060cc8054610c9690615016565b80601f0160208091040260200160405190810160405280929190818152602001828054610cc290615016565b8015610d0f5780601f10610ce457610100808354040283529160200191610d0f565b820191906000526020600020905b815481529060010190602001808311610cf257829003601f168201915b5050505050905090565b600033610d27818585613164565b60019150505b92915050565b6000808251118015610d5057506101c8546001600160a01b031633145b15610da957600082806020019051810190610d6b919061504a565b9050610d78848287613288565b60008051602061564583398151915286868686604051610d9b9493929190615063565b60405180910390a150610fcf565b6101c8546001600160a01b03163303610fa3576101c85460405163dc9ce7a560e01b8152600481018590526000916001600160a01b03169063dc9ce7a590602401600060405180830381865afa158015610e07573d6000803e3d6000fd5b505050506040513d6000823e601f3d908101601f19168201604052610e2f919081019061514d565b50905060008161012001519050600085905060006101cc600084600081518110610e5b57610e5b61526b565b6020026020010151815260200190815260200160002060009054906101000a90046001600160a01b0316905060006101cc600085600181518110610ea157610ea161526b565b6020026020010151815260200190815260200160002060009054906101000a90046001600160a01b0316905060006040518060400160405280846001600160a01b03166001600160a01b03168152602001836001600160a01b03166001600160a01b0316815250905060006040518060400160405280886101200151600081518110610f2f57610f2f61526b565b60200260200101518152602001886101200151600181518110610f5457610f5461526b565b60200260200101518152509050610f6c82868361341a565b6000805160206156458339815191528c8c8c8c604051610f8f9493929190615281565b60405180910390a150505050505050610fcf565b60008051602061564583398151915285858585604051610fc694939291906152e3565b60405180910390a15b50630a85bd0160e11b5b949350505050565b6001600160a01b038116600090815261016460205260409020546110205760405162461bcd60e51b815260040161101790615348565b60405180910390fd5b600061102b826124dd565b90508060000361104d5760405162461bcd60e51b81526004016110179061538e565b80610163600082825461106091906153ef565b90915550506001600160a01b03821660009081526101656020526040902080548201905561108e8282613829565b7fdf20fd1e76bc69d672e4814fafb2c449bba3a5369d8359adf9e05e6fde87b05682826040516110bf929190615402565b60405180910390a15050565b565b6001600160a01b03821660009081526101cd60205260408120815b815481101561115657838282815481106111045761110461526b565b9060005260206000209060050201600401540361114e5781818154811061112d5761112d61526b565b600091825260209091206002600590920201015460ff169250610d2d915050565b6001016110e8565b5060405162461bcd60e51b815260206004820152601060248201526f141b185b995d081b9bdd08199bdd5b9960821b6044820152606401611017565b61119a61393f565b6110cb61399a565b6000336111b08582856139ee565b6111bb858585613a62565b506001949350505050565b6111ce61393f565b6111d6613c0d565b604051339081904780156108fc02916000818181858888f19350505050158015611204573d6000803e3d6000fd5b5050565b60608282116112495760405162461bcd60e51b815260206004820152600d60248201526c092dcecc2d8d2c840d2dcc8caf609b1b6044820152606401611017565b6101cb5482111561126c5760405162461bcd60e51b81526004016110179061541b565b60006112788484615448565b6001600160401b0381111561128f5761128f614b2b565b6040519080825280602002602001820160405280156112e157816020015b6040805160808101825260008082526020808301829052928201819052606082015282526000199092019101816112ad5790505b509050835b83811015611387576101cb81815481106113025761130261526b565b600091825260209182902060408051608081018252600393909302909101805483526001810154938301939093526002909201546001600160a01b03811692820192909252600160a01b90910460ff1615156060820152826113648784615448565b815181106113745761137461526b565b60209081029190910101526001016112e6565b509392505050565b6000611399613c53565b905090565b6001600160a01b037f00000000000000000000000000000000000000000000000000000000000000001630036113e65760405162461bcd60e51b81526004016110179061545b565b7f00000000000000000000000000000000000000000000000000000000000000006001600160a01b0316611418613c5d565b6001600160a01b03161461143e5760405162461bcd60e51b8152600401611017906154a7565b61144781613c79565b6040805160008082526020820190925261146391839190613c81565b50565b600033610d278185856114798383612e6d565b61148391906153ef565b613164565b61149061393f565b611498613c0d565b60006114a48383613dec565b90506114af83613e61565b6101c8546040517f3e47efa91d5d329f50f04f0b9784b40b63d441ca130a5ddca1865d16e4d612a3916114f19185916001600160a01b031690879086906154f3565b60405180910390a1505050565b61150661393f565b6110cb613f01565b6001600160a01b0391821660009081526101686020908152604080832093909416825291909152205490565b61154261393f565b61154a613c0d565b600061155760024761551c565b9050600061156682600261553e565b6115709047615448565b6040519091506001600160a01b0385169083156108fc029084906000818181858888f193505050501580156115a9573d6000803e3d6000fd5b506040516001600160a01b0384169083156108fc029084906000818181858888f193505050501580156115e0573d6000803e3d6000fd5b50801561161f576040516001600160a01b0385169082156108fc029083906000818181858888f1935050505015801561161d573d6000803e3d6000fd5b505b50505050565b6001600160a01b0381166000908152610164602052604090205461165b5760405162461bcd60e51b815260040161101790615348565b60006116678383612652565b9050806000036116895760405162461bcd60e51b81526004016110179061538e565b6001600160a01b03831660009081526101676020526040812080548392906116b29084906153ef565b90915550506001600160a01b038084166000908152610168602090815260408083209386168352929052208054820190556116ee838383613f3a565b826001600160a01b03167f3be5b7a71e84ed12875d241991c70855ac5817d847039e17a9d895c1ceb0f18a8383604051611729929190615402565b60405180910390a2505050565b61173e61393f565b611746613c0d565b6101c9919091556101c680546001600160a01b039384166001600160a01b0319918216179091556101c88054929093169116179055565b61178561393f565b6101ce55565b6001600160a01b037f00000000000000000000000000000000000000000000000000000000000000001630036117d35760405162461bcd60e51b81526004016110179061545b565b7f00000000000000000000000000000000000000000000000000000000000000006001600160a01b0316611805613c5d565b6001600160a01b03161461182b5760405162461bcd60e51b8152600401611017906154a7565b61183482613c79565b61120482826001613c81565b611848613c0d565b60008181526101cf602052604090205433906001600160a01b03168082146118df5761187381613f90565b61187c82613f90565b60405162461bcd60e51b815260206004820152603260248201527f636c61696d206d7573742062652066726f6d20636c61696d616e7473206164646044820152713932b9b99696903234b9b0b63637bbb2b21760711b6064820152608401611017565b611917604051806040016040528060178152602001761696a7232a16969021ba34b216103a3432b7103ab9b2b960491b815250613fd3565b61192083614016565b61192982613f90565b60006119358484613dec565b90508061199c5760405162461bcd60e51b815260206004820152602f60248201527f4661696c656420746f2073656e64204e46542e20436865636b20436c61696d6160448201526e1b9d08151bdad95b9259081cd95b9d608a1b6064820152608401611017565b6119a584613e61565b6101c8546040517f3e47efa91d5d329f50f04f0b9784b40b63d441ca130a5ddca1865d16e4d612a3916119e79186916001600160a01b031690889086906154f3565b60405180910390a150505050565b6000306001600160a01b037f00000000000000000000000000000000000000000000000000000000000000001614611a905760405162461bcd60e51b815260206004820152603860248201527f555550535570677261646561626c653a206d757374206e6f742062652063616c6044820152771b1959081d1a1c9bdd59da0819195b1959d85d1958d85b1b60421b6064820152608401611017565b5060008051602061566583398151915290565b60606101cb805480602002602001604051908101604052809291908181526020016000905b82821015611b30576000848152602090819020604080516080810182526003860290920180548352600180820154848601526002909101546001600160a01b03811692840192909252600160a01b90910460ff16151560608301529083529092019101611ac8565b50505050905090565b611b4161393f565b6110cb600061405b565b6001600160a01b038116600090815261012f6020526040812054610d2d565b611b72613c0d565b808203611bcd5760405162461bcd60e51b815260206004820152602360248201527f4173657875616c20726570726f64756374696f6e206973206e6f7420616c6c6f6044820152621dd95960ea1b6064820152608401611017565b6000611bd8826140ae565b6101c8546040516331a9108f60e11b8152600481018690529192506000916001600160a01b0390911690636352211e90602401602060405180830381865afa158015611c28573d6000803e3d6000fd5b505050506040513d601f19601f82011682018060405250810190611c4c9190615555565b90506001600160a01b0381163014611cd65760405162461bcd60e51b815260206004820152604160248201527f596f75206e65656420746f206c6973742f6465706f7369742074686520706c6160448201527f6e657420796f752061726520747279696e6720746f20627265656420776974686064820152601760f91b608482015260a401611017565b60008060005b6101cb54811015611d8357866101cb8281548110611cfc57611cfc61526b565b90600052602060002090600302016000015403611d7b576101cb8181548110611d2757611d2761526b565b906000526020600020906003020160020160009054906101000a90046001600160a01b031692506101cb8181548110611d6257611d6261526b565b9060005260206000209060030201600001549150611d83565b600101611cdc565b506001600160a01b0382163314611df75760405162461bcd60e51b815260206004820152603260248201527f596f7520646f206e6f74206f776e2074686520706c616e657420796f7520617260448201527132903a393cb4b733903a3790313932b2b21760711b6064820152608401611017565b600060646101ce5486611e0a919061553e565b611e14919061551c565b905080856101c954611e2691906153ef565b611e3091906153ef565b341015611e9f5760405162461bcd60e51b815260206004820152603760248201527f496e73756666696369656e742066756e647320746f20636f766572205652462060448201527631b7b9ba1030b73210383934b1b29030b732103332b29760491b6064820152608401611017565b33600080805b6101cb54811015611f4c57896101cb8281548110611ec557611ec561526b565b90600052602060002090600302016000015403611f44576101cb8181548110611ef057611ef061526b565b906000526020600020906003020160020160009054906101000a90046001600160a01b031692506101cb8181548110611f2b57611f2b61526b565b9060005260206000209060030201600001549150611f4c565b600101611ea5565b506706f05b59d3b20000471015611fc35760405162461bcd60e51b815260206004820152603560248201527f436f6e74726163742068617320496e73756666696369656e742062616c616e63604482015274652c20636f6e74616374206861746368657220687160581b6064820152608401611017565b6040516000906001600160a01b038416908a156108fc02908b9084818181858888f193505050509050806120305760405162461bcd60e51b81526020600482015260146024820152732330b4b632b2103a379039b2b7321022ba3432b960611b6044820152606401611017565b6101c6546101c954604051634e9e6a0760e01b8152600481018e9052602481018d9052600060448201526001600160a01b0390921691634e9e6a07919060640160206040518083038185885af115801561208e573d6000803e3d6000fd5b50505050506040513d601f19601f820116820180604052508101906120b3919061504a565b5060006040518060e00160405280866001600160a01b031681526020018d8152602001600015158152602001600015158152602001856001600160a01b03168152602001848152602001600081525090506101cd6000866001600160a01b03166001600160a01b0316815260200190815260200160002081908060018154018082558091505060019003906000526020600020906005020160009091909190915060008201518160000160006101000a8154816001600160a01b0302191690836001600160a01b031602179055506020820151816001015560408201518160020160006101000a81548160ff02191690831515021790555060608201518160020160016101000a81548160ff02191690831515021790555060808201518160020160026101000a8154816001600160a01b0302191690836001600160a01b0316021790555060a0820151816003015560c082015181600401555050846101cc60008e815260200190815260200160002060006101000a8154816001600160a01b0302191690836001600160a01b03160217905550858a6101c95461225791906153ef565b61226191906153ef565b34111561232d576000336001600160a01b0316878c6101c954346122859190615448565b61228f9190615448565b6122999190615448565b604051600081818185875af1925050503d80600081146122d5576040519150601f19603f3d011682016040523d82523d6000602084013e6122da565b606091505b505090508061232b5760405162461bcd60e51b815260206004820152601d60248201527f4661696c656420746f20726566756e64206578636573732045746865720000006044820152606401611017565b505b604080518d81526001600160a01b0387811660208301528183018e90528616606082015290517f8557df6951fbdd47fe9027516fc896be40f285ed55a6acac460352adbab730cd9181900360800190a1505050505050505050505050565b60006060806000806000606060fb546000801b1480156123ab575060fc54155b6123ef5760405162461bcd60e51b81526020600482015260156024820152741152540dcc4c8e88155b9a5b9a5d1a585b1a5e9959605a1b6044820152606401611017565b6123f761414f565b6123ff61415e565b60408051600080825260208201909252600f60f81b9b939a50919850469750309650945092509050565b6101ca602052816000526040600020818154811061244657600080fd5b60009182526020909120600390910201805460018201546002909201549093509091506001600160a01b03811690600160a01b900460ff1684565b600061016682815481106124975761249761526b565b6000918252602090912001546001600160a01b031692915050565b606060cd8054610c9690615016565b6001600160a01b03166000908152610165602052604090205490565b6000806124ea6101635490565b6124f490476153ef565b90506125098382612504866124c1565b61416d565b9392505050565b6000338161251e8286612e6d565b90508381101561257e5760405162461bcd60e51b815260206004820152602560248201527f45524332303a2064656372656173656420616c6c6f77616e63652062656c6f77604482015264207a65726f60d81b6064820152608401611017565b6111bb8286868403613164565b60405163095ea7b360e01b81526001600160a01b0384169063095ea7b3906125b99085908590600401615402565b6020604051808303816000875af11580156125d8573d6000803e3d6000fd5b505050506040513d601f19601f820116820180604052508101906125fc9190615572565b61263f5760405162461bcd60e51b8152602060048201526014602482015273115490cc8c08185c1c1c9bdd994819985a5b195960621b6044820152606401611017565b505050565b600033610d27818585613a62565b60008061265e84612d09565b6040516370a0823160e01b81526001600160a01b038616906370a082319061268a903090600401614d7c565b602060405180830381865afa1580156126a7573d6000803e3d6000fd5b505050506040513d601f19601f820116820180604052508101906126cb919061504a565b6126d591906153ef565b9050610fd98382612504878761150e565b600054610100900460ff16158080156127065750600054600160ff909116105b806127275750612715306141ad565b158015612727575060005460ff166001145b61278a5760405162461bcd60e51b815260206004820152602e60248201527f496e697469616c697a61626c653a20636f6e747261637420697320616c72656160448201526d191e481a5b9a5d1a585b1a5e995960921b6064820152608401611017565b6000805460ff1916600117905580156127ad576000805461ff0019166101001790555b6127b56141bc565b6127bd6141eb565b6127c561421a565b6127ce82612f09565b8015611204576000805461ff0019169055604051600181527f7f26b83ff96e1f2b6a682f133852f6798a09c465da95921460cefb3847402498906020016110bf565b61281861393f565b612820613c0d565b6101c955565b61282e613c0d565b6101cb5482106128505760405162461bcd60e51b81526004016110179061541b565b600033905060006101cb848154811061286b5761286b61526b565b6000918252602091829020604080516080810182526003909302909101805483526001810154938301939093526002909201546001600160a01b03811692820183905260ff600160a01b9091041615156060820152915033146128cd57600080fd5b6040518060800160405280826000015181526020016000815260200182604001516001600160a01b03168152602001600015158152506101cb85815481106129175761291761526b565b60009182526020808320845160039093020191825583015160018201556040830151600290910180546060909401511515600160a01b026001600160a81b03199094166001600160a01b03909216919091179290921790915561297a8484613dec565b9050806129d35760405162461bcd60e51b815260206004820152602160248201527f64654c697374696e67204661696c65642073656e64204e46542070726f6365736044820152607360f81b6064820152608401611017565b3360009081526101ca6020526040902080546129f190600190615448565b81548110612a0157612a0161526b565b90600052602060002090600302016101ca6000336001600160a01b03166001600160a01b031681526020019081526020016000208681548110612a4657612a4661526b565b60009182526020808320845460039093020191825560018085015490830155600293840180549490920180546001600160a01b031981166001600160a01b039096169586178255925460ff600160a01b91829004161515026001600160a81b0319909316909417919091179092553381526101ca90915260409020805480612ad057612ad061558d565b600082815260208082206003600019909401938402018281556001810183905560020180546001600160a81b0319169055919092558582526101d090526040902080546001600160a01b03191690556101c85482516040517fc6d479c3ed7081a22666733326104ccbbbaccec81902d39e12430505ee2993bd92612b639287926001600160a01b039092169186906154f3565b60405180910390a15050505050565b612b7a61393f565b612b82613c0d565b6101c780546001600160a01b0319166001600160a01b0392909216919091179055565b83421115612bf55760405162461bcd60e51b815260206004820152601d60248201527f45524332305065726d69743a206578706972656420646561646c696e650000006044820152606401611017565b60007f6e71edae12b1b97f4d1f60370fef10105fa2faae0126114a169c64845d6126c9888888612c248c614241565b6040805160208101969096526001600160a01b0394851690860152929091166060840152608083015260a082015260c0810186905260e0016040516020818303038152906040528051906020012090506000612c7f82614268565b90506000612c8f82878787614295565b9050896001600160a01b0316816001600160a01b031614612cf25760405162461bcd60e51b815260206004820152601e60248201527f45524332305065726d69743a20696e76616c6964207369676e617475726500006044820152606401611017565b612cfd8a8a8a613164565b50505050505050505050565b6001600160a01b03166000908152610167602052604090205490565b6001600160a01b03811660009081526101cd60209081526040808320805482518185028101850190935280835260609492939192909184015b82821015612dea5760008481526020908190206040805160e0810182526005860290920180546001600160a01b03908116845260018083015485870152600283015460ff80821615159587019590955261010081049094161515606086015262010000909304166080840152600381015460a08401526004015460c08301529083529092019101612d5e565b505050509050919050565b6101c85460405163e985e9c560e01b81526001600160a01b0384811660048301528381166024830152600092169063e985e9c590604401602060405180830381865afa158015612e49573d6000803e3d6000fd5b505050506040513d601f19601f820116820180604052508101906125099190615572565b6001600160a01b03918216600090815260ca6020908152604080832093909416825291909152205490565b6101cd6020528160005260406000208181548110612eb557600080fd5b6000918252602090912060059091020180546001820154600283015460038401546004909401546001600160a01b03938416965091945060ff80821694610100830490911693620100009092049091169187565b612f1161393f565b6001600160a01b038116612f765760405162461bcd60e51b815260206004820152602660248201527f4f776e61626c653a206e6577206f776e657220697320746865207a65726f206160448201526564647265737360d01b6064820152608401611017565b6114638161405b565b6001600160a01b03821660009081526101cd60205260408120815b81548110156111565783828281548110612fb657612fb661526b565b9060005260206000209060050201600401540361300757818181548110612fdf57612fdf61526b565b906000526020600020906005020160020160019054906101000a900460ff1692505050610d2d565b600101612f9a565b61301761393f565b61301f613c0d565b60405163a22cb46560e01b81526001600160a01b0382811660048301526001602483015283169063a22cb465906044015b600060405180830381600087803b15801561306a57600080fd5b505af115801561307e573d6000803e3d6000fd5b505050505050565b61308e61393f565b6101c8546040516323b872dd60e01b81526001600160a01b03909116906323b872dd90613050903090859087906004016155a3565b6001600160a01b03811660009081526101ca60209081526040808320805482518185028101850190935280835260609492939192909184015b82821015612dea576000848152602090819020604080516080810182526003860290920180548352600180820154848601526002909101546001600160a01b03811692840192909252600160a01b90910460ff161515606083015290835290920191016130fc565b6001600160a01b0383166131c65760405162461bcd60e51b8152602060048201526024808201527f45524332303a20617070726f76652066726f6d20746865207a65726f206164646044820152637265737360e01b6064820152608401611017565b6001600160a01b0382166132275760405162461bcd60e51b815260206004820152602260248201527f45524332303a20617070726f766520746f20746865207a65726f206164647265604482015261737360f01b6064820152608401611017565b6001600160a01b03838116600081815260ca602090815260408083209487168084529482529182902085905590518481527f8c5be1e5ebec7d5bd14f71427d1e84f3dd0314c0f7b2291e5b200ac8c7c3b925910160405180910390a3505050565b604080516080808201835285825260208083018681526001600160a01b03868116858701818152600160608089018281526101cb8054808501825560009182528b517fe8bbfecd380c4167d6a1f763a233ec73e73f534b1970c4e1683f437ec23c1f4460039283029081019190915589517fe8bbfecd380c4167d6a1f763a233ec73e73f534b1970c4e1683f437ec23c1f4582015586517fe8bbfecd380c4167d6a1f763a233ec73e73f534b1970c4e1683f437ec23c1f4690910180548551928b166001600160a81b031991821617600160a01b9315158402179091558884526101ca8c528e8420805480890182559085528c85208f519190940290930192835599519582019590955594516002909501805492519588169290981691909117931515909202929092179094558a84526101d085529287902080546001600160a01b03191690911790556101c854865133815291169281019290925293810187905292830185905290917fb30319a217488a3ed441c348e935a48d16091e33109bab0c79a353b97975288391016119e7565b82516020808501518351918401519091906000805b6001600160a01b03861660009081526101cd60205260409020548110156135f0576001600160a01b0386811660009081526101cd60205260409020805491871691839081106134805761348061526b565b60009182526020909120600590910201600201546201000090046001600160a01b03161480156134ed57506001600160a01b03861660009081526101cd602052604090208054859190839081106134d9576134d961526b565b906000526020600020906005020160010154145b801561353657506001600160a01b03861660009081526101cd602052604090208054849190839081106135225761352261526b565b906000526020600020906005020160030154145b156135e8576001600160a01b03861660009081526101cd602052604090208054600191908390811061356a5761356a61526b565b906000526020600020906005020160020160016101000a81548160ff021916908315150217905550876101cd6000886001600160a01b03166001600160a01b0316815260200190815260200160002082815481106135ca576135ca61526b565b906000526020600020906005020160040181905550600191506135f0565b60010161342f565b50806137bc5760005b6001600160a01b03851660009081526101cd60205260409020548110156137ba576001600160a01b0385811660009081526101cd602052604090208054918816918390811061364a5761364a61526b565b60009182526020909120600590910201600201546201000090046001600160a01b03161480156136b757506001600160a01b03851660009081526101cd602052604090208054849190839081106136a3576136a361526b565b906000526020600020906005020160010154145b801561370057506001600160a01b03851660009081526101cd602052604090208054859190839081106136ec576136ec61526b565b906000526020600020906005020160030154145b156137b2576001600160a01b03851660009081526101cd60205260409020805460019190839081106137345761373461526b565b906000526020600020906005020160020160016101000a81548160ff021916908315150217905550876101cd6000876001600160a01b03166001600160a01b0316815260200190815260200160002082815481106137945761379461526b565b906000526020600020906005020160040181905550600191506137ba565b6001016135f9565b505b8061381f5760405162461bcd60e51b815260206004820152602d60248201527f506c616e65742073656e7420657272616e746c792c206e6f206d61746368696e60448201526c19c818db185a5b48199bdd5b99609a1b6064820152608401611017565b5050505050505050565b804710156138795760405162461bcd60e51b815260206004820152601d60248201527f416464726573733a20696e73756666696369656e742062616c616e63650000006044820152606401611017565b6000826001600160a01b03168260405160006040518083038185875af1925050503d80600081146138c6576040519150601f19603f3d011682016040523d82523d6000602084013e6138cb565b606091505b505090508061263f5760405162461bcd60e51b815260206004820152603a60248201527f416464726573733a20756e61626c6520746f2073656e642076616c75652c20726044820152791958da5c1a595b9d081b585e481a185d99481c995d995c9d195960321b6064820152608401611017565b610194546001600160a01b031633146110cb5760405162461bcd60e51b815260206004820181905260248201527f4f776e61626c653a2063616c6c6572206973206e6f7420746865206f776e65726044820152606401611017565b6139a2613c0d565b6033805460ff191660011790557f62e78cea01bee320cd4e420270b5ea74000d11b0c9f74754ebdbfc544b05a2586139d73390565b6040516139e49190614d7c565b60405180910390a1565b60006139fa8484612e6d565b9050600019811461161f5781811015613a555760405162461bcd60e51b815260206004820152601d60248201527f45524332303a20696e73756666696369656e7420616c6c6f77616e63650000006044820152606401611017565b61161f8484848403613164565b6001600160a01b038316613ac65760405162461bcd60e51b815260206004820152602560248201527f45524332303a207472616e736665722066726f6d20746865207a65726f206164604482015264647265737360d81b6064820152608401611017565b6001600160a01b038216613b285760405162461bcd60e51b815260206004820152602360248201527f45524332303a207472616e7366657220746f20746865207a65726f206164647260448201526265737360e81b6064820152608401611017565b6001600160a01b038316600090815260c9602052604090205481811015613ba05760405162461bcd60e51b815260206004820152602660248201527f45524332303a207472616e7366657220616d6f756e7420657863656564732062604482015265616c616e636560d01b6064820152608401611017565b6001600160a01b03808516600081815260c9602052604080822086860390559286168082529083902080548601905591517fddf252ad1be2c89b69c2b068fc378daa952ba7f163c4a11628f55a4df523b3ef90613c009086815260200190565b60405180910390a361161f565b60335460ff16156110cb5760405162461bcd60e51b815260206004820152601060248201526f14185d5cd8589b194e881c185d5cd95960821b6044820152606401611017565b60006113996142bd565b600080516020615665833981519152546001600160a01b031690565b61146361393f565b7f4910fdfa16fed3260ed0e7147f7cc6da11a60208b5b9406d12a635614ffd91435460ff1615613cb45761263f83614331565b826001600160a01b03166352d1902d6040518163ffffffff1660e01b8152600401602060405180830381865afa925050508015613d0e575060408051601f3d908101601f19168201909252613d0b9181019061504a565b60015b613d715760405162461bcd60e51b815260206004820152602e60248201527f45524331393637557067726164653a206e657720696d706c656d656e7461746960448201526d6f6e206973206e6f74205555505360901b6064820152608401611017565b6000805160206156658339815191528114613de05760405162461bcd60e51b815260206004820152602960248201527f45524331393637557067726164653a20756e737570706f727465642070726f786044820152681a58589b195555525160ba1b6064820152608401611017565b5061263f8383836143cb565b6101c854604051632142170760e11b81526000916001600160a01b0316906342842e0e90613e22903090869088906004016155a3565b600060405180830381600087803b158015613e3c57600080fd5b505af1925050508015613e4d575060015b613e5957506000610d2d565b506001610d2d565b60008181526101cc60209081526040808320546001600160a01b03168084526101cd909252822090915b815481101561161f5783828281548110613ea757613ea761526b565b90600052602060002090600502016004015403613ef9576001828281548110613ed257613ed261526b565b60009182526020909120600590910201600201805460ff191691151591909117905561161f565b600101613e8b565b613f096143f0565b6033805460ff191690557f5db9ee0a495bf2e6ff9c91a7834c1ba4fdd244a5e8aa4e537bd38aeae4b073aa336139d7565b61263f8363a9059cbb60e01b8484604051602401613f59929190615402565b60408051601f198184030181529190526020810180516001600160e01b03166001600160e01b031990931692909217909152614439565b61146381604051602401613fa49190614d7c565b60408051601f198184030181529190526020810180516001600160e01b031663161765e160e11b17905261450e565b61146381604051602401613fe79190614ad7565b60408051601f198184030181529190526020810180516001600160e01b031663104c13eb60e21b17905261450e565b6114638160405160240161402c91815260200190565b60408051601f198184030181529190526020810180516001600160e01b031663f82c50f160e01b17905261450e565b61019480546001600160a01b038381166001600160a01b0319831681179093556040519116919082907f8be0079c531659141344cd1fd0a4f28419497f9722a3daafe3b4186f6b6457e090600090a35050565b60006140b8613c0d565b60005b6101cb5481101561414857826101cb82815481106140db576140db61526b565b90600052602060002090600302016000015403614120576101cb81815481106141065761410661526b565b906000526020600020906003020160010154915050919050565b6101cb5461413090600190615448565b8103614140575060001992915050565b6001016140bb565b505b919050565b606060fd8054610c9690615016565b606060fe8054610c9690615016565b610162546001600160a01b0384166000908152610164602052604081205490918391614199908661553e565b6141a3919061551c565b610fd99190615448565b6001600160a01b03163b151590565b600054610100900460ff166141e35760405162461bcd60e51b8152600401611017906155c7565b6110cb614517565b600054610100900460ff166142125760405162461bcd60e51b8152600401611017906155c7565b6110cb614547565b600054610100900460ff166110cb5760405162461bcd60e51b8152600401611017906155c7565b6001600160a01b038116600090815261012f60205260409020805460018101825590614148565b6000610d2d614275613c53565b8360405161190160f01b8152600281019290925260228201526042902090565b60008060006142a68787878761457a565b915091506142b381614634565b5095945050505050565b60007f8b73c3c69bb8fe3d512ecc4cf759cc79239f7b179b0ffacaa9a75d522b39400f6142e8614779565b6142f06147d2565b60408051602081019490945283019190915260608201524660808201523060a082015260c00160405160208183030381529060405280519060200120905090565b61433a816141ad565b61439c5760405162461bcd60e51b815260206004820152602d60248201527f455243313936373a206e657720696d706c656d656e746174696f6e206973206e60448201526c1bdd08184818dbdb9d1c9858dd609a1b6064820152608401611017565b60008051602061566583398151915280546001600160a01b0319166001600160a01b0392909216919091179055565b6143d483614803565b6000825111806143e15750805b1561263f5761161f8383614843565b60335460ff166110cb5760405162461bcd60e51b815260206004820152601460248201527314185d5cd8589b194e881b9bdd081c185d5cd95960621b6044820152606401611017565b600061448e826040518060400160405280602081526020017f5361666545524332303a206c6f772d6c6576656c2063616c6c206661696c6564815250856001600160a01b03166148689092919063ffffffff16565b90508051600014806144af5750808060200190518101906144af9190615572565b61263f5760405162461bcd60e51b815260206004820152602a60248201527f5361666545524332303a204552433230206f7065726174696f6e20646964206e6044820152691bdd081cdd58d8d9595960b21b6064820152608401611017565b61146381614877565b600054610100900460ff1661453e5760405162461bcd60e51b8152600401611017906155c7565b6110cb3361405b565b600054610100900460ff1661456e5760405162461bcd60e51b8152600401611017906155c7565b6033805460ff19169055565b6000806fa2a8918ca85bafe22016d0b997e4df60600160ff1b038311156145a7575060009050600361462b565b6040805160008082526020820180845289905260ff881692820192909252606081018690526080810185905260019060a0016020604051602081039080840390855afa1580156145fb573d6000803e3d6000fd5b5050604051601f1901519150506001600160a01b0381166146245760006001925092505061462b565b9150600090505b94509492505050565b600081600481111561464857614648615612565b036146505750565b600181600481111561466457614664615612565b036146ac5760405162461bcd60e51b815260206004820152601860248201527745434453413a20696e76616c6964207369676e617475726560401b6044820152606401611017565b60028160048111156146c0576146c0615612565b0361470d5760405162461bcd60e51b815260206004820152601f60248201527f45434453413a20696e76616c6964207369676e6174757265206c656e677468006044820152606401611017565b600381600481111561472157614721615612565b036114635760405162461bcd60e51b815260206004820152602260248201527f45434453413a20696e76616c6964207369676e6174757265202773272076616c604482015261756560f01b6064820152608401611017565b60008061478461414f565b80519091501561479b578051602090910120919050565b60fb5480156147aa5792915050565b7fc5d2460186f7233c927e7db2dcc703c0e500b653ca82273b7bfad8045d85a4709250505090565b6000806147dd61415e565b8051909150156147f4578051602090910120919050565b60fc5480156147aa5792915050565b61480c81614331565b6040516001600160a01b038216907fbc7cd75a20ee27fd9adebab32041f755214dbc6bffa90cc0225b39da2e5c2d3b90600090a250565b6060612509838360405180606001604052806027815260200161568560279139614898565b6060610fd98484600085614910565b60006a636f6e736f6c652e6c6f679050600080835160208501845afa505050565b6060600080856001600160a01b0316856040516148b59190615628565b600060405180830381855af49150503d80600081146148f0576040519150601f19603f3d011682016040523d82523d6000602084013e6148f5565b606091505b5091509150614906868383876149eb565b9695505050505050565b6060824710156149715760405162461bcd60e51b815260206004820152602660248201527f416464726573733a20696e73756666696369656e742062616c616e636520666f6044820152651c8818d85b1b60d21b6064820152608401611017565b600080866001600160a01b0316858760405161498d9190615628565b60006040518083038185875af1925050503d80600081146149ca576040519150601f19603f3d011682016040523d82523d6000602084013e6149cf565b606091505b50915091506149e0878383876149eb565b979650505050505050565b60608315614a58578251600003614a5157614a05856141ad565b614a515760405162461bcd60e51b815260206004820152601d60248201527f416464726573733a2063616c6c20746f206e6f6e2d636f6e74726163740000006044820152606401611017565b5081610fd9565b610fd98383815115614a6d5781518083602001fd5b8060405162461bcd60e51b81526004016110179190614ad7565b60005b83811015614aa2578181015183820152602001614a8a565b50506000910152565b60008151808452614ac3816020860160208601614a87565b601f01601f19169290920160200192915050565b6020815260006125096020830184614aab565b6001600160a01b038116811461146357600080fd5b60008060408385031215614b1257600080fd5b8235614b1d81614aea565b946020939093013593505050565b634e487b7160e01b600052604160045260246000fd5b60405161016081016001600160401b0381118282101715614b6457614b64614b2b565b60405290565b604051601f8201601f191681016001600160401b0381118282101715614b9257614b92614b2b565b604052919050565b600082601f830112614bab57600080fd5b81356001600160401b03811115614bc457614bc4614b2b565b614bd7601f8201601f1916602001614b6a565b818152846020838601011115614bec57600080fd5b816020850160208301376000918101602001919091529392505050565b60008060008060808587031215614c1f57600080fd5b8435614c2a81614aea565b93506020850135614c3a81614aea565b92506040850135915060608501356001600160401b03811115614c5c57600080fd5b614c6887828801614b9a565b91505092959194509250565b600060208284031215614c8657600080fd5b813561250981614aea565b600080600060608486031215614ca657600080fd5b8335614cb181614aea565b92506020840135614cc181614aea565b929592945050506040919091013590565b60008060408385031215614ce557600080fd5b50508035926020909101359150565b602080825282518282018190526000919060409081850190868401855b82811015614d56578151805185528681015187860152858101516001600160a01b03168686015260609081015115159085015260809093019290850190600101614d11565b5091979650505050505050565b600060208284031215614d7557600080fd5b5035919050565b6001600160a01b0391909116815260200190565b60008060408385031215614da357600080fd5b823591506020830135614db581614aea565b809150509250929050565b60008060408385031215614dd357600080fd5b8235614dde81614aea565b91506020830135614db581614aea565b600080600060608486031215614e0357600080fd5b8335614e0e81614aea565b9250602084013591506040840135614e2581614aea565b809150509250925092565b60008060408385031215614e4357600080fd5b8235614e4e81614aea565b915060208301356001600160401b03811115614e6957600080fd5b614e7585828601614b9a565b9150509250929050565b60ff60f81b881681526000602060e06020840152614ea060e084018a614aab565b8381036040850152614eb2818a614aab565b606085018990526001600160a01b038816608086015260a0850187905284810360c08601528551808252602080880193509091019060005b81811015614f0657835183529284019291840191600101614eea565b50909c9b505050505050505050505050565b600080600080600080600060e0888a031215614f3357600080fd5b8735614f3e81614aea565b96506020880135614f4e81614aea565b95506040880135945060608801359350608088013560ff81168114614f7257600080fd5b9699959850939692959460a0840135945060c09093013592915050565b602080825282518282018190526000919060409081850190868401855b82811015614d5657815180516001600160a01b0390811686528782015188870152868201511515878701526060808301511515908701526080808301519091169086015260a0808201519086015260c0908101519085015260e09093019290850190600101614fac565b600181811c9082168061502a57607f821691505b60208210810361414857634e487b7160e01b600052602260045260246000fd5b60006020828403121561505c57600080fd5b5051919050565b6001600160a01b038581168252841660208201526040810183905260a06060820181905260009061509690830184614aab565b8281036080840152600e81526d1b1a5cdd1a5b99c81c1b185b995d60921b60208201526040810191505095945050505050565b600082601f8301126150da57600080fd5b815160206001600160401b038211156150f5576150f5614b2b565b8160051b615104828201614b6a565b928352848101820192828101908785111561511e57600080fd5b83870192505b848310156149e057825182529183019190830190615124565b8051801515811461414a57600080fd5b6000806040838503121561516057600080fd5b82516001600160401b038082111561517757600080fd5b90840190610160828703121561518c57600080fd5b615194614b41565b825181526020830151602082015260408301516040820152606083015160608201526080830151608082015260a083015160a082015260c083015160c082015260e083015160e082015261010080840151838111156151f257600080fd5b6151fe898287016150c9565b828401525050610120808401518381111561521857600080fd5b615224898287016150c9565b828401525050610140808401518381111561523e57600080fd5b61524a898287016150c9565b8284015250508094505050506152626020840161513d565b90509250929050565b634e487b7160e01b600052603260045260246000fd5b6001600160a01b038581168252841660208201526040810183905260a0606082018190526000906152b490830184614aab565b8281036080840152600a8152691b995dc81c1b185b995d60b21b60208201526040810191505095945050505050565b6001600160a01b038581168252841660208201526040810183905260a06060820181905260009061531690830184614aab565b8281036080840152600d81526c1d5b98d85d1959dbdc9a5e9959609a1b60208201526040810191505095945050505050565b60208082526026908201527f5061796d656e7453706c69747465723a206163636f756e7420686173206e6f2060408201526573686172657360d01b606082015260800190565b6020808252602b908201527f5061796d656e7453706c69747465723a206163636f756e74206973206e6f742060408201526a191d59481c185e5b595b9d60aa1b606082015260800190565b634e487b7160e01b600052601160045260246000fd5b80820180821115610d2d57610d2d6153d9565b6001600160a01b03929092168252602082015260400190565b602080825260139082015272496e646578206f7574206f6620626f756e647360681b604082015260600190565b81810381811115610d2d57610d2d6153d9565b6020808252602c908201527f46756e6374696f6e206d7573742062652063616c6c6564207468726f7567682060408201526b19195b1959d85d1958d85b1b60a21b606082015260800190565b6020808252602c908201527f46756e6374696f6e206d7573742062652063616c6c6564207468726f7567682060408201526b6163746976652070726f787960a01b606082015260800190565b6001600160a01b0394851681529290931660208301526040820152901515606082015260800190565b60008261553957634e487b7160e01b600052601260045260246000fd5b500490565b8082028115828204841417610d2d57610d2d6153d9565b60006020828403121561556757600080fd5b815161250981614aea565b60006020828403121561558457600080fd5b6125098261513d565b634e487b7160e01b600052603160045260246000fd5b6001600160a01b039384168152919092166020820152604081019190915260600190565b6020808252602b908201527f496e697469616c697a61626c653a20636f6e7472616374206973206e6f74206960408201526a6e697469616c697a696e6760a81b606082015260800190565b634e487b7160e01b600052602160045260246000fd5b6000825161563a818460208701614a87565b919091019291505056fe13c6ec2a463a35f898a457814a782f1f567808293fa783a31fa4dac8868e6011360894a13ba1a3210667c828492db98dca3e2076cc3735a920a3ca505d382bbc416464726573733a206c6f772d6c6576656c2064656c65676174652063616c6c206661696c6564a26469706673582212207b9e1e53973d86631a579dd2652467f38990eca0c31d767720ba2a750e497c3164736f6c63430008180033",
  "linkReferences": {},
  "deployedLinkReferences": {}
}