{
  "_format": "hh-sol-artifact-1",
  "contractName": "HatcherV2",
  "sourceName": "contracts/HatcherV2.sol",
  "abi": [
    {
      "inputs": [],
      "name": "Unauthorized",
      "type": "error"
    },
    {
      "anonymous": false,
      "inputs": [
        {
          "indexed": false,
          "internalType": "address",
          "name": "previousAdmin",
          "type": "address"
        },
        {
          "indexed": false,
          "internalType": "address",
          "name": "newAdmin",
          "type": "address"
        }
      ],
      "name": "AdminChanged",
      "type": "event"
    },
    {
      "anonymous": false,
      "inputs": [
        {
          "indexed": true,
          "internalType": "address",
          "name": "owner",
          "type": "address"
        },
        {
          "indexed": true,
          "internalType": "address",
          "name": "spender",
          "type": "address"
        },
        {
          "indexed": false,
          "internalType": "uint256",
          "name": "value",
          "type": "uint256"
        }
      ],
      "name": "Approval",
      "type": "event"
    },
    {
      "anonymous": false,
      "inputs": [
        {
          "indexed": true,
          "internalType": "address",
          "name": "beacon",
          "type": "address"
        }
      ],
      "name": "BeaconUpgraded",
      "type": "event"
    },
    {
      "anonymous": false,
      "inputs": [
        {
          "indexed": false,
          "internalType": "address",
          "name": "sentToUser",
          "type": "address"
        },
        {
          "indexed": false,
          "internalType": "address",
          "name": "token",
          "type": "address"
        },
        {
          "indexed": false,
          "internalType": "uint256",
          "name": "tokenId",
          "type": "uint256"
        }
      ],
      "name": "DeClaimedAPlanet",
      "type": "event"
    },
    {
      "anonymous": false,
      "inputs": [
        {
          "indexed": false,
          "internalType": "address",
          "name": "sentToUser",
          "type": "address"
        },
        {
          "indexed": false,
          "internalType": "address",
          "name": "token",
          "type": "address"
        },
        {
          "indexed": false,
          "internalType": "uint256",
          "name": "tokenId",
          "type": "uint256"
        }
      ],
      "name": "DeListedAPlanet",
      "type": "event"
    },
    {
      "anonymous": false,
      "inputs": [],
      "name": "EIP712DomainChanged",
      "type": "event"
    },
    {
      "anonymous": false,
      "inputs": [
        {
          "indexed": true,
          "internalType": "contract IERC20Upgradeable",
          "name": "token",
          "type": "address"
        },
        {
          "indexed": false,
          "internalType": "address",
          "name": "to",
          "type": "address"
        },
        {
          "indexed": false,
          "internalType": "uint256",
          "name": "amount",
          "type": "uint256"
        }
      ],
      "name": "ERC20PaymentReleased",
      "type": "event"
    },
    {
      "anonymous": false,
      "inputs": [
        {
          "indexed": false,
          "internalType": "uint8",
          "name": "version",
          "type": "uint8"
        }
      ],
      "name": "Initialized",
      "type": "event"
    },
    {
      "anonymous": false,
      "inputs": [
        {
          "indexed": false,
          "internalType": "address",
          "name": "sentFromUser",
          "type": "address"
        },
        {
          "indexed": false,
          "internalType": "address",
          "name": "token",
          "type": "address"
        },
        {
          "indexed": false,
          "internalType": "uint256",
          "name": "tokenId",
          "type": "uint256"
        },
        {
          "indexed": false,
          "internalType": "uint256",
          "name": "price",
          "type": "uint256"
        }
      ],
      "name": "ListedAPlanet",
      "type": "event"
    },
    {
      "anonymous": false,
      "inputs": [
        {
          "indexed": false,
          "internalType": "address",
          "name": "operator",
          "type": "address"
        },
        {
          "indexed": false,
          "internalType": "address",
          "name": "from",
          "type": "address"
        },
        {
          "indexed": false,
          "internalType": "uint256",
          "name": "tokenId",
          "type": "uint256"
        },
        {
          "indexed": false,
          "internalType": "bytes",
          "name": "data",
          "type": "bytes"
        },
        {
          "indexed": false,
          "internalType": "string",
          "name": "typeOfReceival",
          "type": "string"
        }
      ],
      "name": "NftReceived",
      "type": "event"
    },
    {
      "anonymous": false,
      "inputs": [
        {
          "indexed": true,
          "internalType": "address",
          "name": "previousOwner",
          "type": "address"
        },
        {
          "indexed": true,
          "internalType": "address",
          "name": "newOwner",
          "type": "address"
        }
      ],
      "name": "OwnershipTransferred",
      "type": "event"
    },
    {
      "anonymous": false,
      "inputs": [
        {
          "indexed": false,
          "internalType": "address",
          "name": "account",
          "type": "address"
        }
      ],
      "name": "Paused",
      "type": "event"
    },
    {
      "anonymous": false,
      "inputs": [
        {
          "indexed": false,
          "internalType": "address",
          "name": "account",
          "type": "address"
        },
        {
          "indexed": false,
          "internalType": "uint256",
          "name": "shares",
          "type": "uint256"
        }
      ],
      "name": "PayeeAdded",
      "type": "event"
    },
    {
      "anonymous": false,
      "inputs": [
        {
          "indexed": false,
          "internalType": "address",
          "name": "from",
          "type": "address"
        },
        {
          "indexed": false,
          "internalType": "uint256",
          "name": "amount",
          "type": "uint256"
        }
      ],
      "name": "PaymentReceived",
      "type": "event"
    },
    {
      "anonymous": false,
      "inputs": [
        {
          "indexed": false,
          "internalType": "address",
          "name": "to",
          "type": "address"
        },
        {
          "indexed": false,
          "internalType": "uint256",
          "name": "amount",
          "type": "uint256"
        }
      ],
      "name": "PaymentReleased",
      "type": "event"
    },
    {
      "anonymous": false,
      "inputs": [
        {
          "indexed": false,
          "internalType": "uint256",
          "name": "planetAsking",
          "type": "uint256"
        },
        {
          "indexed": false,
          "internalType": "address",
          "name": "askingUser",
          "type": "address"
        },
        {
          "indexed": false,
          "internalType": "uint256",
          "name": "planetJoining",
          "type": "uint256"
        },
        {
          "indexed": false,
          "internalType": "address",
          "name": "joiningUser",
          "type": "address"
        }
      ],
      "name": "PlanetsConjoining",
      "type": "event"
    },
    {
      "anonymous": false,
      "inputs": [
        {
          "indexed": true,
          "internalType": "address",
          "name": "from",
          "type": "address"
        },
        {
          "indexed": true,
          "internalType": "address",
          "name": "to",
          "type": "address"
        },
        {
          "indexed": false,
          "internalType": "uint256",
          "name": "value",
          "type": "uint256"
        }
      ],
      "name": "Transfer",
      "type": "event"
    },
    {
      "anonymous": false,
      "inputs": [
        {
          "indexed": false,
          "internalType": "address",
          "name": "account",
          "type": "address"
        }
      ],
      "name": "Unpaused",
      "type": "event"
    },
    {
      "anonymous": false,
      "inputs": [
        {
          "indexed": true,
          "internalType": "address",
          "name": "implementation",
          "type": "address"
        }
      ],
      "name": "Upgraded",
      "type": "event"
    },
    {
      "inputs": [],
      "name": "DOMAIN_SEPARATOR",
      "outputs": [
        {
          "internalType": "bytes32",
          "name": "",
          "type": "bytes32"
        }
      ],
      "stateMutability": "view",
      "type": "function"
    },
    {
      "inputs": [
        {
          "internalType": "address",
          "name": "owner",
          "type": "address"
        },
        {
          "internalType": "address",
          "name": "spender",
          "type": "address"
        }
      ],
      "name": "allowance",
      "outputs": [
        {
          "internalType": "uint256",
          "name": "",
          "type": "uint256"
        }
      ],
      "stateMutability": "view",
      "type": "function"
    },
    {
      "inputs": [
        {
          "internalType": "address",
          "name": "spender",
          "type": "address"
        },
        {
          "internalType": "uint256",
          "name": "amount",
          "type": "uint256"
        }
      ],
      "name": "approve",
      "outputs": [
        {
          "internalType": "bool",
          "name": "",
          "type": "bool"
        }
      ],
      "stateMutability": "nonpayable",
      "type": "function"
    },
    {
      "inputs": [
        {
          "internalType": "address",
          "name": "account",
          "type": "address"
        }
      ],
      "name": "balanceOf",
      "outputs": [
        {
          "internalType": "uint256",
          "name": "",
          "type": "uint256"
        }
      ],
      "stateMutability": "view",
      "type": "function"
    },
    {
      "inputs": [
        {
          "internalType": "uint256",
          "name": "newVRF",
          "type": "uint256"
        }
      ],
      "name": "changeVRFValue",
      "outputs": [],
      "stateMutability": "nonpayable",
      "type": "function"
    },
    {
      "inputs": [
        {
          "internalType": "address",
          "name": "owner",
          "type": "address"
        },
        {
          "internalType": "address",
          "name": "operator",
          "type": "address"
        }
      ],
      "name": "checkApprovalForAll",
      "outputs": [
        {
          "internalType": "bool",
          "name": "",
          "type": "bool"
        }
      ],
      "stateMutability": "view",
      "type": "function"
    },
    {
      "inputs": [
        {
          "internalType": "uint256",
          "name": "claimableTokenId",
          "type": "uint256"
        }
      ],
      "name": "claimPlanet",
      "outputs": [],
      "stateMutability": "nonpayable",
      "type": "function"
    },
    {
      "inputs": [
        {
          "internalType": "address",
          "name": "",
          "type": "address"
        },
        {
          "internalType": "uint256",
          "name": "",
          "type": "uint256"
        }
      ],
      "name": "claimablePlanets",
      "outputs": [
        {
          "internalType": "address",
          "name": "ownerParentAddress",
          "type": "address"
        },
        {
          "internalType": "uint256",
          "name": "ownerTokenId",
          "type": "uint256"
        },
        {
          "internalType": "bool",
          "name": "delivered",
          "type": "bool"
        },
        {
          "internalType": "address",
          "name": "otherParent",
          "type": "address"
        },
        {
          "internalType": "uint256",
          "name": "otherTokenId",
          "type": "uint256"
        },
        {
          "internalType": "uint256",
          "name": "claimsTokenId",
          "type": "uint256"
        }
      ],
      "stateMutability": "view",
      "type": "function"
    },
    {
      "inputs": [
        {
          "internalType": "uint256",
          "name": "",
          "type": "uint256"
        }
      ],
      "name": "claimableTokenIdToOwnerAddress",
      "outputs": [
        {
          "internalType": "address",
          "name": "",
          "type": "address"
        }
      ],
      "stateMutability": "view",
      "type": "function"
    },
    {
      "inputs": [
        {
          "internalType": "uint256",
          "name": "yourPlanet",
          "type": "uint256"
        },
        {
          "internalType": "uint256",
          "name": "withListedPlanet",
          "type": "uint256"
        }
      ],
      "name": "conjunct",
      "outputs": [],
      "stateMutability": "payable",
      "type": "function"
    },
    {
      "inputs": [
        {
          "internalType": "uint256",
          "name": "idIndex",
          "type": "uint256"
        },
        {
          "internalType": "uint256",
          "name": "tokenId",
          "type": "uint256"
        }
      ],
      "name": "deList",
      "outputs": [],
      "stateMutability": "nonpayable",
      "type": "function"
    },
    {
      "inputs": [],
      "name": "deListAllYourPlanets",
      "outputs": [],
      "stateMutability": "nonpayable",
      "type": "function"
    },
    {
      "inputs": [],
      "name": "decimals",
      "outputs": [
        {
          "internalType": "uint8",
          "name": "",
          "type": "uint8"
        }
      ],
      "stateMutability": "view",
      "type": "function"
    },
    {
      "inputs": [
        {
          "internalType": "address",
          "name": "spender",
          "type": "address"
        },
        {
          "internalType": "uint256",
          "name": "subtractedValue",
          "type": "uint256"
        }
      ],
      "name": "decreaseAllowance",
      "outputs": [
        {
          "internalType": "bool",
          "name": "",
          "type": "bool"
        }
      ],
      "stateMutability": "nonpayable",
      "type": "function"
    },
    {
      "inputs": [],
      "name": "eip712Domain",
      "outputs": [
        {
          "internalType": "bytes1",
          "name": "fields",
          "type": "bytes1"
        },
        {
          "internalType": "string",
          "name": "name",
          "type": "string"
        },
        {
          "internalType": "string",
          "name": "version",
          "type": "string"
        },
        {
          "internalType": "uint256",
          "name": "chainId",
          "type": "uint256"
        },
        {
          "internalType": "address",
          "name": "verifyingContract",
          "type": "address"
        },
        {
          "internalType": "bytes32",
          "name": "salt",
          "type": "bytes32"
        },
        {
          "internalType": "uint256[]",
          "name": "extensions",
          "type": "uint256[]"
        }
      ],
      "stateMutability": "view",
      "type": "function"
    },
    {
      "inputs": [],
      "name": "getAllPlanets",
      "outputs": [
        {
          "components": [
            {
              "internalType": "uint256",
              "name": "tokenId",
              "type": "uint256"
            },
            {
              "internalType": "uint256",
              "name": "price",
              "type": "uint256"
            },
            {
              "internalType": "address",
              "name": "ownerAddress",
              "type": "address"
            },
            {
              "internalType": "bool",
              "name": "active",
              "type": "bool"
            }
          ],
          "internalType": "struct ListedPlanet[]",
          "name": "",
          "type": "tuple[]"
        }
      ],
      "stateMutability": "view",
      "type": "function"
    },
    {
      "inputs": [
        {
          "internalType": "address",
          "name": "userAddr",
          "type": "address"
        }
      ],
      "name": "getClaimablePlanet",
      "outputs": [
        {
          "components": [
            {
              "internalType": "address",
              "name": "ownerParentAddress",
              "type": "address"
            },
            {
              "internalType": "uint256",
              "name": "ownerTokenId",
              "type": "uint256"
            },
            {
              "internalType": "bool",
              "name": "delivered",
              "type": "bool"
            },
            {
              "internalType": "address",
              "name": "otherParent",
              "type": "address"
            },
            {
              "internalType": "uint256",
              "name": "otherTokenId",
              "type": "uint256"
            },
            {
              "internalType": "uint256",
              "name": "claimsTokenId",
              "type": "uint256"
            }
          ],
          "internalType": "struct ClaimablePlanet[]",
          "name": "",
          "type": "tuple[]"
        }
      ],
      "stateMutability": "view",
      "type": "function"
    },
    {
      "inputs": [
        {
          "internalType": "uint256",
          "name": "claimableTokenId",
          "type": "uint256"
        }
      ],
      "name": "getClaimableTokenIdToOwnerAddress",
      "outputs": [
        {
          "internalType": "address",
          "name": "",
          "type": "address"
        }
      ],
      "stateMutability": "view",
      "type": "function"
    },
    {
      "inputs": [
        {
          "internalType": "uint256",
          "name": "startIndex",
          "type": "uint256"
        },
        {
          "internalType": "uint256",
          "name": "endIndex",
          "type": "uint256"
        }
      ],
      "name": "getPlanetsPaginated",
      "outputs": [
        {
          "components": [
            {
              "internalType": "uint256",
              "name": "tokenId",
              "type": "uint256"
            },
            {
              "internalType": "uint256",
              "name": "price",
              "type": "uint256"
            },
            {
              "internalType": "address",
              "name": "ownerAddress",
              "type": "address"
            },
            {
              "internalType": "bool",
              "name": "active",
              "type": "bool"
            }
          ],
          "internalType": "struct ListedPlanet[]",
          "name": "",
          "type": "tuple[]"
        }
      ],
      "stateMutability": "view",
      "type": "function"
    },
    {
      "inputs": [
        {
          "internalType": "address",
          "name": "userAddr",
          "type": "address"
        }
      ],
      "name": "getuserToListedPlanets",
      "outputs": [
        {
          "components": [
            {
              "internalType": "uint256",
              "name": "tokenId",
              "type": "uint256"
            },
            {
              "internalType": "uint256",
              "name": "price",
              "type": "uint256"
            },
            {
              "internalType": "address",
              "name": "ownerAddress",
              "type": "address"
            },
            {
              "internalType": "bool",
              "name": "active",
              "type": "bool"
            }
          ],
          "internalType": "struct ListedPlanet[]",
          "name": "",
          "type": "tuple[]"
        }
      ],
      "stateMutability": "view",
      "type": "function"
    },
    {
      "inputs": [
        {
          "internalType": "address",
          "name": "spender",
          "type": "address"
        },
        {
          "internalType": "uint256",
          "name": "addedValue",
          "type": "uint256"
        }
      ],
      "name": "increaseAllowance",
      "outputs": [
        {
          "internalType": "bool",
          "name": "",
          "type": "bool"
        }
      ],
      "stateMutability": "nonpayable",
      "type": "function"
    },
    {
      "inputs": [],
      "name": "initialize",
      "outputs": [],
      "stateMutability": "nonpayable",
      "type": "function"
    },
    {
      "inputs": [],
      "name": "listAllYourPlanets",
      "outputs": [],
      "stateMutability": "nonpayable",
      "type": "function"
    },
    {
      "inputs": [],
      "name": "name",
      "outputs": [
        {
          "internalType": "string",
          "name": "",
          "type": "string"
        }
      ],
      "stateMutability": "view",
      "type": "function"
    },
    {
      "inputs": [
        {
          "internalType": "address",
          "name": "owner",
          "type": "address"
        }
      ],
      "name": "nonces",
      "outputs": [
        {
          "internalType": "uint256",
          "name": "",
          "type": "uint256"
        }
      ],
      "stateMutability": "view",
      "type": "function"
    },
    {
      "inputs": [
        {
          "internalType": "address",
          "name": "operator",
          "type": "address"
        },
        {
          "internalType": "address",
          "name": "from",
          "type": "address"
        },
        {
          "internalType": "uint256",
          "name": "tokenId",
          "type": "uint256"
        },
        {
          "internalType": "bytes",
          "name": "data",
          "type": "bytes"
        }
      ],
      "name": "onERC721Received",
      "outputs": [
        {
          "internalType": "bytes4",
          "name": "",
          "type": "bytes4"
        }
      ],
      "stateMutability": "nonpayable",
      "type": "function"
    },
    {
      "inputs": [],
      "name": "owner",
      "outputs": [
        {
          "internalType": "address",
          "name": "",
          "type": "address"
        }
      ],
      "stateMutability": "view",
      "type": "function"
    },
    {
      "inputs": [
        {
          "internalType": "uint256",
          "name": "claimableTokenId",
          "type": "uint256"
        },
        {
          "internalType": "address",
          "name": "sendToAddr",
          "type": "address"
        }
      ],
      "name": "ownerClaimPlanet",
      "outputs": [],
      "stateMutability": "nonpayable",
      "type": "function"
    },
    {
      "inputs": [
        {
          "internalType": "uint256",
          "name": "tokenId",
          "type": "uint256"
        },
        {
          "internalType": "address",
          "name": "destinationAddr",
          "type": "address"
        }
      ],
      "name": "ownerOverrideSendNFT",
      "outputs": [],
      "stateMutability": "nonpayable",
      "type": "function"
    },
    {
      "inputs": [],
      "name": "pause",
      "outputs": [],
      "stateMutability": "nonpayable",
      "type": "function"
    },
    {
      "inputs": [],
      "name": "paused",
      "outputs": [
        {
          "internalType": "bool",
          "name": "",
          "type": "bool"
        }
      ],
      "stateMutability": "view",
      "type": "function"
    },
    {
      "inputs": [
        {
          "internalType": "uint256",
          "name": "index",
          "type": "uint256"
        }
      ],
      "name": "payee",
      "outputs": [
        {
          "internalType": "address",
          "name": "",
          "type": "address"
        }
      ],
      "stateMutability": "view",
      "type": "function"
    },
    {
      "inputs": [
        {
          "internalType": "address",
          "name": "owner",
          "type": "address"
        },
        {
          "internalType": "address",
          "name": "spender",
          "type": "address"
        },
        {
          "internalType": "uint256",
          "name": "value",
          "type": "uint256"
        },
        {
          "internalType": "uint256",
          "name": "deadline",
          "type": "uint256"
        },
        {
          "internalType": "uint8",
          "name": "v",
          "type": "uint8"
        },
        {
          "internalType": "bytes32",
          "name": "r",
          "type": "bytes32"
        },
        {
          "internalType": "bytes32",
          "name": "s",
          "type": "bytes32"
        }
      ],
      "name": "permit",
      "outputs": [],
      "stateMutability": "nonpayable",
      "type": "function"
    },
    {
      "inputs": [],
      "name": "proxiableUUID",
      "outputs": [
        {
          "internalType": "bytes32",
          "name": "",
          "type": "bytes32"
        }
      ],
      "stateMutability": "view",
      "type": "function"
    },
    {
      "inputs": [
        {
          "internalType": "address",
          "name": "account",
          "type": "address"
        }
      ],
      "name": "releasable",
      "outputs": [
        {
          "internalType": "uint256",
          "name": "",
          "type": "uint256"
        }
      ],
      "stateMutability": "view",
      "type": "function"
    },
    {
      "inputs": [
        {
          "internalType": "contract IERC20Upgradeable",
          "name": "token",
          "type": "address"
        },
        {
          "internalType": "address",
          "name": "account",
          "type": "address"
        }
      ],
      "name": "releasable",
      "outputs": [
        {
          "internalType": "uint256",
          "name": "",
          "type": "uint256"
        }
      ],
      "stateMutability": "view",
      "type": "function"
    },
    {
      "inputs": [
        {
          "internalType": "address payable",
          "name": "account",
          "type": "address"
        }
      ],
      "name": "release",
      "outputs": [],
      "stateMutability": "nonpayable",
      "type": "function"
    },
    {
      "inputs": [
        {
          "internalType": "contract IERC20Upgradeable",
          "name": "token",
          "type": "address"
        },
        {
          "internalType": "address",
          "name": "account",
          "type": "address"
        }
      ],
      "name": "release",
      "outputs": [],
      "stateMutability": "nonpayable",
      "type": "function"
    },
    {
      "inputs": [
        {
          "internalType": "contract IERC20Upgradeable",
          "name": "token",
          "type": "address"
        },
        {
          "internalType": "address",
          "name": "account",
          "type": "address"
        }
      ],
      "name": "released",
      "outputs": [
        {
          "internalType": "uint256",
          "name": "",
          "type": "uint256"
        }
      ],
      "stateMutability": "view",
      "type": "function"
    },
    {
      "inputs": [
        {
          "internalType": "address",
          "name": "account",
          "type": "address"
        }
      ],
      "name": "released",
      "outputs": [
        {
          "internalType": "uint256",
          "name": "",
          "type": "uint256"
        }
      ],
      "stateMutability": "view",
      "type": "function"
    },
    {
      "inputs": [],
      "name": "renounceOwnership",
      "outputs": [],
      "stateMutability": "nonpayable",
      "type": "function"
    },
    {
      "inputs": [
        {
          "internalType": "address",
          "name": "_breederContractAddr",
          "type": "address"
        },
        {
          "internalType": "uint256",
          "name": "_vrfValue",
          "type": "uint256"
        },
        {
          "internalType": "address",
          "name": "_nftContractAddr",
          "type": "address"
        }
      ],
      "name": "setAllOf",
      "outputs": [],
      "stateMutability": "nonpayable",
      "type": "function"
    },
    {
      "inputs": [
        {
          "internalType": "address payable",
          "name": "newTAdd",
          "type": "address"
        }
      ],
      "name": "setTAdd",
      "outputs": [],
      "stateMutability": "nonpayable",
      "type": "function"
    },
    {
      "inputs": [
        {
          "internalType": "address",
          "name": "account",
          "type": "address"
        }
      ],
      "name": "shares",
      "outputs": [
        {
          "internalType": "uint256",
          "name": "",
          "type": "uint256"
        }
      ],
      "stateMutability": "view",
      "type": "function"
    },
    {
      "inputs": [],
      "name": "status",
      "outputs": [],
      "stateMutability": "nonpayable",
      "type": "function"
    },
    {
      "inputs": [],
      "name": "symbol",
      "outputs": [
        {
          "internalType": "string",
          "name": "",
          "type": "string"
        }
      ],
      "stateMutability": "view",
      "type": "function"
    },
    {
      "inputs": [
        {
          "internalType": "contract IERC20Upgradeable",
          "name": "token",
          "type": "address"
        }
      ],
      "name": "totalReleased",
      "outputs": [
        {
          "internalType": "uint256",
          "name": "",
          "type": "uint256"
        }
      ],
      "stateMutability": "view",
      "type": "function"
    },
    {
      "inputs": [],
      "name": "totalReleased",
      "outputs": [
        {
          "internalType": "uint256",
          "name": "",
          "type": "uint256"
        }
      ],
      "stateMutability": "view",
      "type": "function"
    },
    {
      "inputs": [],
      "name": "totalShares",
      "outputs": [
        {
          "internalType": "uint256",
          "name": "",
          "type": "uint256"
        }
      ],
      "stateMutability": "view",
      "type": "function"
    },
    {
      "inputs": [],
      "name": "totalSupply",
      "outputs": [
        {
          "internalType": "uint256",
          "name": "",
          "type": "uint256"
        }
      ],
      "stateMutability": "view",
      "type": "function"
    },
    {
      "inputs": [
        {
          "internalType": "address",
          "name": "to",
          "type": "address"
        },
        {
          "internalType": "uint256",
          "name": "amount",
          "type": "uint256"
        }
      ],
      "name": "transfer",
      "outputs": [
        {
          "internalType": "bool",
          "name": "",
          "type": "bool"
        }
      ],
      "stateMutability": "nonpayable",
      "type": "function"
    },
    {
      "inputs": [
        {
          "internalType": "address",
          "name": "from",
          "type": "address"
        },
        {
          "internalType": "address",
          "name": "to",
          "type": "address"
        },
        {
          "internalType": "uint256",
          "name": "amount",
          "type": "uint256"
        }
      ],
      "name": "transferFrom",
      "outputs": [
        {
          "internalType": "bool",
          "name": "",
          "type": "bool"
        }
      ],
      "stateMutability": "nonpayable",
      "type": "function"
    },
    {
      "inputs": [
        {
          "internalType": "address",
          "name": "newOwner",
          "type": "address"
        }
      ],
      "name": "transferOwnership",
      "outputs": [],
      "stateMutability": "nonpayable",
      "type": "function"
    },
    {
      "inputs": [],
      "name": "unpause",
      "outputs": [],
      "stateMutability": "nonpayable",
      "type": "function"
    },
    {
      "inputs": [
        {
          "internalType": "address",
          "name": "newImplementation",
          "type": "address"
        }
      ],
      "name": "upgradeTo",
      "outputs": [],
      "stateMutability": "nonpayable",
      "type": "function"
    },
    {
      "inputs": [
        {
          "internalType": "address",
          "name": "newImplementation",
          "type": "address"
        },
        {
          "internalType": "bytes",
          "name": "data",
          "type": "bytes"
        }
      ],
      "name": "upgradeToAndCall",
      "outputs": [],
      "stateMutability": "payable",
      "type": "function"
    },
    {
      "inputs": [
        {
          "internalType": "address",
          "name": "",
          "type": "address"
        },
        {
          "internalType": "uint256",
          "name": "",
          "type": "uint256"
        }
      ],
      "name": "userToListedPlanets",
      "outputs": [
        {
          "internalType": "uint256",
          "name": "tokenId",
          "type": "uint256"
        },
        {
          "internalType": "uint256",
          "name": "price",
          "type": "uint256"
        },
        {
          "internalType": "address",
          "name": "ownerAddress",
          "type": "address"
        },
        {
          "internalType": "bool",
          "name": "active",
          "type": "bool"
        }
      ],
      "stateMutability": "view",
      "type": "function"
    },
    {
      "inputs": [
        {
          "internalType": "address",
          "name": "userAddress",
          "type": "address"
        }
      ],
      "name": "usersClaims",
      "outputs": [
        {
          "components": [
            {
              "internalType": "address",
              "name": "ownerParentAddress",
              "type": "address"
            },
            {
              "internalType": "uint256",
              "name": "ownerTokenId",
              "type": "uint256"
            },
            {
              "internalType": "bool",
              "name": "delivered",
              "type": "bool"
            },
            {
              "internalType": "address",
              "name": "otherParent",
              "type": "address"
            },
            {
              "internalType": "uint256",
              "name": "otherTokenId",
              "type": "uint256"
            },
            {
              "internalType": "uint256",
              "name": "claimsTokenId",
              "type": "uint256"
            }
          ],
          "internalType": "struct ClaimablePlanet[]",
          "name": "",
          "type": "tuple[]"
        }
      ],
      "stateMutability": "view",
      "type": "function"
    },
    {
      "inputs": [],
      "name": "withdrawFunds",
      "outputs": [],
      "stateMutability": "nonpayable",
      "type": "function"
    },
    {
      "stateMutability": "payable",
      "type": "receive"
    }
  ],
  "bytecode": "0x60a06040523060805234801561001457600080fd5b50608051614f6861004c600039600081816112f70152818161137c0152818161172f015281816117b401526119410152614f686000f3fe6080604052600436106103905760003560e01c8063715018a6116101dc578063c7c0e6b111610102578063dbb774d8116100a0578063e33b7de31161006f578063e33b7de314610b82578063f2fde38b14610b98578063fdb4087514610bb8578063fde4976714610bd857600080fd5b8063dbb774d814610a36578063dd22a9c714610aba578063dd62ed3e14610ada578063e22aecb414610b2057600080fd5b8063ce7c2ac2116100dc578063ce7c2ac2146109ff578063d2f6d0ac14610a36578063d505accf14610a63578063d79779b214610a8357600080fd5b8063c7c0e6b11461099f578063cbdf1b5a146109bf578063cdb82a37146109df57600080fd5b80638b83209b1161017a578063a3f8eace11610149578063a3f8eace1461091f578063a457c2d71461093f578063a9059cbb1461095f578063c45ac0501461097f57600080fd5b80638b83209b146108945780638da5cb5b146108b457806395d89b41146108d35780639852595c146108e857600080fd5b80638230a784116101b65780638230a784146108085780638456cb591461055957806384b0196e1461081b57806385fe72431461084357600080fd5b8063715018a6146107be5780637ecebe00146107d35780638129fc1c146107f357600080fd5b80633659cfe6116102c15780634a02099b1161025f57806352d1902d1161022e57806352d1902d146107465780635c975abb1461075b5780636a23befb1461077357806370a082311461078857600080fd5b80634a02099b146106f35780634f1ef2861461071357806350842cf31461054d5780635270ad6c1461072657600080fd5b80633a98ef391161029b5780633a98ef39146106615780633f4ba83a14610677578063406072a91461068c57806348b75044146106d357600080fd5b80633659cfe61461060157806339509351146106215780633a7fb03d1461064157600080fd5b80631ac9a91e1161032e57806324600fc31161030857806324600fc31461058e57806325947818146105a3578063313ce567146105d05780633644e515146105ec57600080fd5b80631ac9a91e1461054d578063200d2ed21461055957806323b872dd1461056e57600080fd5b8063095ea7b31161036a578063095ea7b31461048b578063150b7a02146104bb57806318160ddd1461050c578063191655871461052b57600080fd5b8063064db874146103de57806306fdde0314610432578063076619391461045457600080fd5b366103d9577f6ef95f06320e7a25a04a175ca677b7052bdd97131872c2192525a629f51be77033604080516001600160a01b0390921682523460208301520160405180910390a1005b600080fd5b3480156103ea57600080fd5b506104156103f9366004614597565b6101cc602052600090815260409020546001600160a01b031681565b6040516001600160a01b0390911681526020015b60405180910390f35b34801561043e57600080fd5b50610447610bf8565b6040516104299190614600565b34801561046057600080fd5b5061041561046f366004614597565b60009081526101cc60205260409020546001600160a01b031690565b34801561049757600080fd5b506104ab6104a6366004614628565b610c8a565b6040519015158152602001610429565b3480156104c757600080fd5b506104db6104d6366004614735565b610ca4565b6040517fffffffff000000000000000000000000000000000000000000000000000000009091168152602001610429565b34801561051857600080fd5b5060cb545b604051908152602001610429565b34801561053757600080fd5b5061054b6105463660046147a1565b610f2c565b005b34801561054b57600080fd5b34801561056557600080fd5b5061054b6110a0565b34801561057a57600080fd5b506104ab6105893660046147be565b6110b0565b34801561059a57600080fd5b5061054b6110d4565b3480156105af57600080fd5b506105c36105be3660046147ff565b611116565b6040516104299190614821565b3480156105dc57600080fd5b5060405160128152602001610429565b3480156105f857600080fd5b5061051d6112de565b34801561060d57600080fd5b5061054b61061c3660046147a1565b6112ed565b34801561062d57600080fd5b506104ab61063c366004614628565b611468565b34801561064d57600080fd5b5061054b61065c366004614890565b6114a7565b34801561066d57600080fd5b506101625461051d565b34801561068357600080fd5b5061054b611537565b34801561069857600080fd5b5061051d6106a73660046148c0565b6001600160a01b0391821660009081526101686020908152604080832093909416825291909152205490565b3480156106df57600080fd5b5061054b6106ee3660046148c0565b611547565b3480156106ff57600080fd5b5061054b61070e3660046148ee565b6116de565b61054b610721366004614930565b611725565b34801561073257600080fd5b5061054b610741366004614597565b61188d565b34801561075257600080fd5b5061051d611934565b34801561076757600080fd5b5060335460ff166104ab565b34801561077f57600080fd5b506105c36119f9565b34801561079457600080fd5b5061051d6107a33660046147a1565b6001600160a01b0316600090815260c9602052604090205490565b3480156107ca57600080fd5b5061054b611a8f565b3480156107df57600080fd5b5061051d6107ee3660046147a1565b611aa1565b3480156107ff57600080fd5b5061054b611ac0565b61054b6108163660046147ff565b611bef565b34801561082757600080fd5b50610830612095565b6040516104299796959493929190614980565b34801561084f57600080fd5b5061086361085e366004614628565b612157565b604051610429949392919093845260208401929092526001600160a01b031660408301521515606082015260800190565b3480156108a057600080fd5b506104156108af366004614597565b6121af565b3480156108c057600080fd5b50610194546001600160a01b0316610415565b3480156108df57600080fd5b506104476121e0565b3480156108f457600080fd5b5061051d6109033660046147a1565b6001600160a01b03166000908152610165602052604090205490565b34801561092b57600080fd5b5061051d61093a3660046147a1565b6121ef565b34801561094b57600080fd5b506104ab61095a366004614628565b612239565b34801561096b57600080fd5b506104ab61097a366004614628565b6122e3565b34801561098b57600080fd5b5061051d61099a3660046148c0565b6122f1565b3480156109ab57600080fd5b5061054b6109ba366004614597565b6123cf565b3480156109cb57600080fd5b5061054b6109da3660046147ff565b6123e5565b3480156109eb57600080fd5b5061054b6109fa3660046147a1565b612719565b348015610a0b57600080fd5b5061051d610a1a3660046147a1565b6001600160a01b03166000908152610164602052604090205490565b348015610a4257600080fd5b50610a56610a513660046147a1565b61274c565b6040516104299190614a35565b348015610a6f57600080fd5b5061054b610a7e366004614ab0565b61280b565b348015610a8f57600080fd5b5061051d610a9e3660046147a1565b6001600160a01b03166000908152610167602052604090205490565b348015610ac657600080fd5b506104ab610ad53660046148c0565b61296f565b348015610ae657600080fd5b5061051d610af53660046148c0565b6001600160a01b03918216600090815260ca6020908152604080832093909416825291909152205490565b348015610b2c57600080fd5b50610b40610b3b366004614628565b612a00565b604080516001600160a01b03978816815260208101969096529315159385019390935293166060830152608082019290925260a081019190915260c001610429565b348015610b8e57600080fd5b506101635461051d565b348015610ba457600080fd5b5061054b610bb33660046147a1565b612a67565b348015610bc457600080fd5b5061054b610bd3366004614890565b612af4565b348015610be457600080fd5b506105c3610bf33660046147a1565b612b86565b606060cc8054610c0790614b27565b80601f0160208091040260200160405190810160405280929190818152602001828054610c3390614b27565b8015610c805780601f10610c5557610100808354040283529160200191610c80565b820191906000526020600020905b815481529060010190602001808311610c6357829003601f168201915b5050505050905090565b600033610c98818585612c27565b60019150505b92915050565b6000610ce46040518060400160405280600881526020017f7265636569766572000000000000000000000000000000000000000000000000815250612d7f565b815115610d5157600082806020019051810190610d019190614b5b565b9050610d0e848287612df0565b7f13c6ec2a463a35f898a457814a782f1f567808293fa783a31fa4dac8868e601186868686604051610d439493929190614b74565b60405180910390a150610f01565b6101c6546001600160a01b038681169116148015610d7a57506101c8546001600160a01b031633145b15610f01576101c8546040517fdc9ce7a5000000000000000000000000000000000000000000000000000000008152600481018590526000916001600160a01b03169063dc9ce7a590602401600060405180830381865afa158015610de3573d6000803e3d6000fd5b505050506040513d6000823e601f3d908101601f19168201604052610e0b9190810190614c6d565b5090506000816101200151905060006101cc600083600081518110610e3257610e32614d8c565b6020026020010151815260200190815260200160002060009054906101000a90046001600160a01b0316905060006101cc600084600181518110610e7857610e78614d8c565b60209081029190910181015182528181019290925260409081016000205481518083019092526001600160a01b03858116835216918101829052909150610ebe81612f72565b7f13c6ec2a463a35f898a457814a782f1f567808293fa783a31fa4dac8868e60118a8a8a8a604051610ef39493929190614da2565b60405180910390a150505050505b507f150b7a02000000000000000000000000000000000000000000000000000000005b949350505050565b6001600160a01b03811660009081526101646020526040902054610fa65760405162461bcd60e51b815260206004820152602660248201527f5061796d656e7453706c69747465723a206163636f756e7420686173206e6f2060448201526573686172657360d01b60648201526084015b60405180910390fd5b6000610fb1826121ef565b9050806000036110175760405162461bcd60e51b815260206004820152602b60248201527f5061796d656e7453706c69747465723a206163636f756e74206973206e6f742060448201526a191d59481c185e5b595b9d60aa1b6064820152608401610f9d565b80610163600082825461102a9190614e2c565b90915550506001600160a01b03821660009081526101656020526040902080548201905561105882826131dc565b604080516001600160a01b0384168152602081018390527fdf20fd1e76bc69d672e4814fafb2c449bba3a5369d8359adf9e05e6fde87b056910160405180910390a15050565b565b6110a86132f5565b61109e613350565b6000336110be8582856133aa565b6110c9858585613436565b506001949350505050565b6110dc6132f5565b6110e461362a565b604051339081904780156108fc02916000818181858888f19350505050158015611112573d6000803e3d6000fd5b5050565b60608282116111675760405162461bcd60e51b815260206004820152600d60248201527f496e76616c696420696e646578000000000000000000000000000000000000006044820152606401610f9d565b6101cb548211156111ba5760405162461bcd60e51b815260206004820152601360248201527f496e646578206f7574206f6620626f756e6473000000000000000000000000006044820152606401610f9d565b60006111c68484614e3f565b67ffffffffffffffff8111156111de576111de614654565b60405190808252806020026020018201604052801561123057816020015b6040805160808101825260008082526020808301829052928201819052606082015282526000199092019101816111fc5790505b509050835b838110156112d6576101cb818154811061125157611251614d8c565b600091825260209182902060408051608081018252600393909302909101805483526001810154938301939093526002909201546001600160a01b03811692820192909252600160a01b90910460ff1615156060820152826112b38784614e3f565b815181106112c3576112c3614d8c565b6020908102919091010152600101611235565b509392505050565b60006112e861367d565b905090565b6001600160a01b037f000000000000000000000000000000000000000000000000000000000000000016300361137a5760405162461bcd60e51b815260206004820152602c60248201527f46756e6374696f6e206d7573742062652063616c6c6564207468726f7567682060448201526b19195b1959d85d1958d85b1b60a21b6064820152608401610f9d565b7f00000000000000000000000000000000000000000000000000000000000000006001600160a01b03166113d57f360894a13ba1a3210667c828492db98dca3e2076cc3735a920a3ca505d382bbc546001600160a01b031690565b6001600160a01b0316146114405760405162461bcd60e51b815260206004820152602c60248201527f46756e6374696f6e206d7573742062652063616c6c6564207468726f7567682060448201526b6163746976652070726f787960a01b6064820152608401610f9d565b61144981613687565b604080516000808252602082019092526114659183919061368f565b50565b33600081815260ca602090815260408083206001600160a01b0387168452909152812054909190610c9890829086906114a2908790614e2c565b612c27565b6114af6132f5565b6114b761362a565b60008281526101cc60205260409020546001600160a01b03166114da8382612afc565b6114e38361382f565b6101c854604080516001600160a01b038086168252909216602083015281018490527ffbabfabc293b9daf3d9f8a42d485f10715027db90fd73abbe4ae4b4424decd049060600160405180910390a1505050565b61153f6132f5565b61109e6138cf565b6001600160a01b038116600090815261016460205260409020546115bc5760405162461bcd60e51b815260206004820152602660248201527f5061796d656e7453706c69747465723a206163636f756e7420686173206e6f2060448201526573686172657360d01b6064820152608401610f9d565b60006115c883836122f1565b90508060000361162e5760405162461bcd60e51b815260206004820152602b60248201527f5061796d656e7453706c69747465723a206163636f756e74206973206e6f742060448201526a191d59481c185e5b595b9d60aa1b6064820152608401610f9d565b6001600160a01b0383166000908152610167602052604081208054839290611657908490614e2c565b90915550506001600160a01b03808416600090815261016860209081526040808320938616835292905220805482019055611693838383613908565b604080516001600160a01b038481168252602082018490528516917f3be5b7a71e84ed12875d241991c70855ac5817d847039e17a9d895c1ceb0f18a910160405180910390a2505050565b6116e66132f5565b6116ee61362a565b6101c9919091556101c680546001600160a01b039384166001600160a01b0319918216179091556101c88054929093169116179055565b6001600160a01b037f00000000000000000000000000000000000000000000000000000000000000001630036117b25760405162461bcd60e51b815260206004820152602c60248201527f46756e6374696f6e206d7573742062652063616c6c6564207468726f7567682060448201526b19195b1959d85d1958d85b1b60a21b6064820152608401610f9d565b7f00000000000000000000000000000000000000000000000000000000000000006001600160a01b031661180d7f360894a13ba1a3210667c828492db98dca3e2076cc3735a920a3ca505d382bbc546001600160a01b031690565b6001600160a01b0316146118785760405162461bcd60e51b815260206004820152602c60248201527f46756e6374696f6e206d7573742062652063616c6c6564207468726f7567682060448201526b6163746976652070726f787960a01b6064820152608401610f9d565b61188182613687565b6111128282600161368f565b61189561362a565b60008181526101cc602052604090205433906001600160a01b03168181036118c1576114da8383612afc565b60405162461bcd60e51b815260206004820152603260248201527f636c61696d206d7573742062652066726f6d20636c61696d616e74732061646460448201527f726573732d2d20646973616c6c6f7765642e00000000000000000000000000006064820152608401610f9d565b505050565b6000306001600160a01b037f000000000000000000000000000000000000000000000000000000000000000016146119d45760405162461bcd60e51b815260206004820152603860248201527f555550535570677261646561626c653a206d757374206e6f742062652063616c60448201527f6c6564207468726f7567682064656c656761746563616c6c00000000000000006064820152608401610f9d565b507f360894a13ba1a3210667c828492db98dca3e2076cc3735a920a3ca505d382bbc90565b60606101cb805480602002602001604051908101604052809291908181526020016000905b82821015611a86576000848152602090819020604080516080810182526003860290920180548352600180820154848601526002909101546001600160a01b03811692840192909252600160a01b90910460ff16151560608301529083529092019101611a1e565b50505050905090565b611a976132f5565b61109e6000613988565b6001600160a01b038116600090815261012f6020526040812054610c9e565b600054610100900460ff1615808015611ae05750600054600160ff909116105b80611afa5750303b158015611afa575060005460ff166001145b611b6c5760405162461bcd60e51b815260206004820152602e60248201527f496e697469616c697a61626c653a20636f6e747261637420697320616c72656160448201527f647920696e697469616c697a65640000000000000000000000000000000000006064820152608401610f9d565b6000805460ff191660011790558015611b8f576000805461ff0019166101001790555b611b976139db565b611b9f613a4e565b611ba7613ac1565b8015611465576000805461ff0019169055604051600181527f7f26b83ff96e1f2b6a682f133852f6798a09c465da95921460cefb38474024989060200160405180910390a150565b611bf761362a565b6000611c0282613b2c565b6101c8546040517f6352211e000000000000000000000000000000000000000000000000000000008152600481018690529192506000916001600160a01b0390911690636352211e90602401602060405180830381865afa158015611c6b573d6000803e3d6000fd5b505050506040513d601f19601f82011682018060405250810190611c8f9190614e52565b90506001600160a01b0381163314611d0f5760405162461bcd60e51b815260206004820152603260248201527f596f7520646f206e6f74206f776e2074686520706c616e657420796f7520617260448201527f6520747279696e6720746f2062726565642e00000000000000000000000000006064820152608401610f9d565b816101c954611d1e9190614e2c565b341015611d935760405162461bcd60e51b815260206004820152602a60248201527f496e73756666696369656e742066756e647320746f20636f766572205652462060448201527f616e642070726963652e000000000000000000000000000000000000000000006064820152608401610f9d565b336000805b6101cb54811015611e0f57856101cb8281548110611db857611db8614d8c565b90600052602060002090600302016000015403611e07576101cb8181548110611de357611de3614d8c565b60009182526020909120600260039092020101546001600160a01b03169150611e0f565b600101611d98565b5060006064611e1f86605f614e6f565b611e299190614e86565b90506000826001600160a01b03168260405160006040518083038185875af1925050503d8060008114611e78576040519150601f19603f3d011682016040523d82523d6000602084013e611e7d565b606091505b5050905080611ece5760405162461bcd60e51b815260206004820152601460248201527f4661696c656420746f2073656e642045746865720000000000000000000000006044820152606401610f9d565b6101c6546101c9546040517f4e9e6a07000000000000000000000000000000000000000000000000000000008152600481018b9052602481018a9052600060448201526001600160a01b0390921691634e9e6a07919060640160206040518083038185885af1158015611f45573d6000803e3d6000fd5b50505050506040513d601f19601f82011682018060405250810190611f6a9190614b5b565b50816101c954611f7a9190614e2c565b34111561203b576000336001600160a01b0316836101c95434611f9d9190614e3f565b611fa79190614e3f565b604051600081818185875af1925050503d8060008114611fe3576040519150601f19603f3d011682016040523d82523d6000602084013e611fe8565b606091505b50509050806120395760405162461bcd60e51b815260206004820152601d60248201527f4661696c656420746f20726566756e64206578636573732045746865720000006044820152606401610f9d565b505b604080518981526001600160a01b0386811660208301528183018a90528516606082015290517f8557df6951fbdd47fe9027516fc896be40f285ed55a6acac460352adbab730cd9181900360800190a15050505050505050565b60006060806000806000606060fb546000801b1480156120b5575060fc54155b6121015760405162461bcd60e51b815260206004820152601560248201527f4549503731323a20556e696e697469616c697a656400000000000000000000006044820152606401610f9d565b612109613bcd565b612111613bdc565b604080516000808252602082019092527f0f000000000000000000000000000000000000000000000000000000000000009b939a50919850469750309650945092509050565b6101ca602052816000526040600020818154811061217457600080fd5b60009182526020909120600390910201805460018201546002909201549093509091506001600160a01b03811690600160a01b900460ff1684565b600061016682815481106121c5576121c5614d8c565b6000918252602090912001546001600160a01b031692915050565b606060cd8054610c0790614b27565b6000806121fc6101635490565b6122069047614e2c565b9050612232838261222d866001600160a01b03166000908152610165602052604090205490565b613beb565b9392505050565b33600081815260ca602090815260408083206001600160a01b0387168452909152812054909190838110156122d65760405162461bcd60e51b815260206004820152602560248201527f45524332303a2064656372656173656420616c6c6f77616e63652062656c6f7760448201527f207a65726f0000000000000000000000000000000000000000000000000000006064820152608401610f9d565b6110c98286868403612c27565b600033610c98818585613436565b6001600160a01b0382166000908152610167602052604081205481906040517f70a082310000000000000000000000000000000000000000000000000000000081523060048201526001600160a01b038616906370a0823190602401602060405180830381865afa15801561236a573d6000803e3d6000fd5b505050506040513d601f19601f8201168201806040525081019061238e9190614b5b565b6123989190614e2c565b6001600160a01b0380861660009081526101686020908152604080832093881683529290522054909150610f249084908390613beb565b6123d76132f5565b6123df61362a565b6101c955565b6123ed61362a565b6101cb54821061243f5760405162461bcd60e51b815260206004820152601360248201527f496e646578206f7574206f6620626f756e6473000000000000000000000000006044820152606401610f9d565b600033905060006101cb848154811061245a5761245a614d8c565b6000918252602091829020604080516080810182526003909302909101805483526001810154938301939093526002909201546001600160a01b03811692820183905260ff600160a01b9091041615156060820152915033146124bc57600080fd5b6040518060800160405280826000015181526020016000815260200182604001516001600160a01b03168152602001600015158152506101cb858154811061250657612506614d8c565b60009182526020808320845160039093020191825583810151600180840191909155604080860151600290940180546060909701511515600160a01b0274ffffffffffffffffffffffffffffffffffffffffff199097166001600160a01b0390951694909417959095179092553383526101ca90529190208054909161258b91614e3f565b8154811061259b5761259b614d8c565b90600052602060002090600302016101ca6000336001600160a01b03166001600160a01b0316815260200190815260200160002085815481106125e0576125e0614d8c565b60009182526020808320845460039093020191825560018085015490830155600293840180549490920180546001600160a01b031981166001600160a01b039096169586178255925460ff600160a01b918290041615150274ffffffffffffffffffffffffffffffffffffffffff19909316909417919091179092553381526101ca9091526040902080548061267857612678614ea8565b6000828152602081206003600019909301928302018181556001810191909155600201805474ffffffffffffffffffffffffffffffffffffffffff1916905590556126c38383612afc565b6101c8548151604080516001600160a01b03808716825290931660208401528201527f0ece05e698e9e143fb75b2ad0aba7f141238c27b6d3e9728898183ee0d68498b906060015b60405180910390a150505050565b6127216132f5565b61272961362a565b6101c780546001600160a01b0319166001600160a01b0392909216919091179055565b6001600160a01b03811660009081526101cd60209081526040808320805482518185028101850190935280835260609492939192909184015b828210156128005760008481526020908190206040805160c0810182526005860290920180546001600160a01b03908116845260018083015485870152600283015460ff8116151594860194909452610100909304166060840152600381015460808401526004015460a08301529083529092019101612785565b505050509050919050565b8342111561285b5760405162461bcd60e51b815260206004820152601d60248201527f45524332305065726d69743a206578706972656420646561646c696e650000006044820152606401610f9d565b60007f6e71edae12b1b97f4d1f60370fef10105fa2faae0126114a169c64845d6126c988888861288a8c613c2b565b6040805160208101969096526001600160a01b0394851690860152929091166060840152608083015260a082015260c0810186905260e00160405160208183030381529060405280519060200120905060006128e582613c52565b905060006128f582878787613c9a565b9050896001600160a01b0316816001600160a01b0316146129585760405162461bcd60e51b815260206004820152601e60248201527f45524332305065726d69743a20696e76616c6964207369676e617475726500006044820152606401610f9d565b6129638a8a8a612c27565b50505050505050505050565b6101c8546040517fe985e9c50000000000000000000000000000000000000000000000000000000081526001600160a01b0384811660048301528381166024830152600092169063e985e9c590604401602060405180830381865afa1580156129dc573d6000803e3d6000fd5b505050506040513d601f19601f820116820180604052508101906122329190614ebe565b6101cd6020528160005260406000208181548110612a1d57600080fd5b6000918252602090912060059091020180546001820154600283015460038401546004909401546001600160a01b03938416965091945060ff811693610100909104909216919086565b612a6f6132f5565b6001600160a01b038116612aeb5760405162461bcd60e51b815260206004820152602660248201527f4f776e61626c653a206e6577206f776e657220697320746865207a65726f206160448201527f64647265737300000000000000000000000000000000000000000000000000006064820152608401610f9d565b61146581613988565b612afc6132f5565b6101c8546040517f23b872dd0000000000000000000000000000000000000000000000000000000081523060048201526001600160a01b03838116602483015260448201859052909116906323b872dd90606401600060405180830381600087803b158015612b6a57600080fd5b505af1158015612b7e573d6000803e3d6000fd5b505050505050565b6001600160a01b03811660009081526101ca60209081526040808320805482518185028101850190935280835260609492939192909184015b82821015612800576000848152602090819020604080516080810182526003860290920180548352600180820154848601526002909101546001600160a01b03811692840192909252600160a01b90910460ff16151560608301529083529092019101612bbf565b6001600160a01b038316612ca25760405162461bcd60e51b8152602060048201526024808201527f45524332303a20617070726f76652066726f6d20746865207a65726f2061646460448201527f72657373000000000000000000000000000000000000000000000000000000006064820152608401610f9d565b6001600160a01b038216612d1e5760405162461bcd60e51b815260206004820152602260248201527f45524332303a20617070726f766520746f20746865207a65726f20616464726560448201527f73730000000000000000000000000000000000000000000000000000000000006064820152608401610f9d565b6001600160a01b03838116600081815260ca602090815260408083209487168084529482529182902085905590518481527f8c5be1e5ebec7d5bd14f71427d1e84f3dd0314c0f7b2291e5b200ac8c7c3b925910160405180910390a3505050565b61146581604051602401612d939190614600565b60408051601f198184030181529190526020810180517bffffffffffffffffffffffffffffffffffffffffffffffffffffffff167f41304fac00000000000000000000000000000000000000000000000000000000179052613cc2565b604080516080808201835285825260208083018681526001600160a01b03868116858701818152600160608089018281526101cb8054808501825560009182528b5160039182027fe8bbfecd380c4167d6a1f763a233ec73e73f534b1970c4e1683f437ec23c1f4481019190915589517fe8bbfecd380c4167d6a1f763a233ec73e73f534b1970c4e1683f437ec23c1f4582015586517fe8bbfecd380c4167d6a1f763a233ec73e73f534b1970c4e1683f437ec23c1f46909101805485511515600160a01b90810274ffffffffffffffffffffffffffffffffffffffffff19928316948d1694909417939093179091559783526101ca8b528d832080548088018255908452928b90208d5193909202909101918255975193810193909355925160029092018054935115159096029290931690841617179092556101c854865133815291169281019290925293810187905292830185905290917fb30319a217488a3ed441c348e935a48d16091e33109bab0c79a353b979752883910161270b565b80516020808301516001600160a01b03831660009081526101cd909252604090912054156130755760005b6001600160a01b03831660009081526101cd602052604090205481101561306f576001600160a01b0383811660009081526101cd6020526040902080549184169183908110612fee57612fee614d8c565b600091825260209091206005909102016002015461010090046001600160a01b031603613067576001600160a01b03831660009081526101cd602052604090208054600191908390811061304457613044614d8c565b60009182526020909120600590910201600201805460ff19169115159190911790555b600101612f9d565b50505050565b6020808401516001600160a01b031660009081526101cd90915260409020541561316e5760005b6001600160a01b03821660009081526101cd602052604090205481101561306f576001600160a01b0382811660009081526101cd60205260409020805491851691839081106130ed576130ed614d8c565b600091825260209091206005909102016002015461010090046001600160a01b031603613166576001600160a01b03821660009081526101cd602052604090208054600191908390811061314357613143614d8c565b60009182526020909120600590910201600201805460ff19169115159190911790555b60010161309c565b60405162461bcd60e51b815260206004820152602560248201527f706c616e65742073656e7420657272616e746c792c206e6f206f6e6520746f2060448201527f636c61696d0000000000000000000000000000000000000000000000000000006064820152608401610f9d565b8047101561322c5760405162461bcd60e51b815260206004820152601d60248201527f416464726573733a20696e73756666696369656e742062616c616e63650000006044820152606401610f9d565b6000826001600160a01b03168260405160006040518083038185875af1925050503d8060008114613279576040519150601f19603f3d011682016040523d82523d6000602084013e61327e565b606091505b505090508061192f5760405162461bcd60e51b815260206004820152603a60248201527f416464726573733a20756e61626c6520746f2073656e642076616c75652c207260448201527f6563697069656e74206d617920686176652072657665727465640000000000006064820152608401610f9d565b610194546001600160a01b0316331461109e5760405162461bcd60e51b815260206004820181905260248201527f4f776e61626c653a2063616c6c6572206973206e6f7420746865206f776e65726044820152606401610f9d565b61335861362a565b6033805460ff191660011790557f62e78cea01bee320cd4e420270b5ea74000d11b0c9f74754ebdbfc544b05a25861338d3390565b6040516001600160a01b03909116815260200160405180910390a1565b6001600160a01b03838116600090815260ca6020908152604080832093861683529290522054600019811461306f57818110156134295760405162461bcd60e51b815260206004820152601d60248201527f45524332303a20696e73756666696369656e7420616c6c6f77616e63650000006044820152606401610f9d565b61306f8484848403612c27565b6001600160a01b0383166134b25760405162461bcd60e51b815260206004820152602560248201527f45524332303a207472616e736665722066726f6d20746865207a65726f20616460448201527f64726573730000000000000000000000000000000000000000000000000000006064820152608401610f9d565b6001600160a01b03821661352e5760405162461bcd60e51b815260206004820152602360248201527f45524332303a207472616e7366657220746f20746865207a65726f206164647260448201527f65737300000000000000000000000000000000000000000000000000000000006064820152608401610f9d565b6001600160a01b038316600090815260c96020526040902054818110156135bd5760405162461bcd60e51b815260206004820152602660248201527f45524332303a207472616e7366657220616d6f756e742065786365656473206260448201527f616c616e636500000000000000000000000000000000000000000000000000006064820152608401610f9d565b6001600160a01b03808516600081815260c9602052604080822086860390559286168082529083902080548601905591517fddf252ad1be2c89b69c2b068fc378daa952ba7f163c4a11628f55a4df523b3ef9061361d9086815260200190565b60405180910390a361306f565b60335460ff161561109e5760405162461bcd60e51b815260206004820152601060248201527f5061757361626c653a20706175736564000000000000000000000000000000006044820152606401610f9d565b60006112e8613ccb565b6114656132f5565b7f4910fdfa16fed3260ed0e7147f7cc6da11a60208b5b9406d12a635614ffd91435460ff16156136c25761192f83613d3f565b826001600160a01b03166352d1902d6040518163ffffffff1660e01b8152600401602060405180830381865afa92505050801561371c575060408051601f3d908101601f1916820190925261371991810190614b5b565b60015b61378e5760405162461bcd60e51b815260206004820152602e60248201527f45524331393637557067726164653a206e657720696d706c656d656e7461746960448201527f6f6e206973206e6f7420555550530000000000000000000000000000000000006064820152608401610f9d565b7f360894a13ba1a3210667c828492db98dca3e2076cc3735a920a3ca505d382bbc81146138235760405162461bcd60e51b815260206004820152602960248201527f45524331393637557067726164653a20756e737570706f727465642070726f7860448201527f6961626c655555494400000000000000000000000000000000000000000000006064820152608401610f9d565b5061192f838383613dfd565b60008181526101cc60209081526040808320546001600160a01b03168084526101cd909252822090915b815481101561306f578382828154811061387557613875614d8c565b906000526020600020906005020160040154036138c75760018282815481106138a0576138a0614d8c565b60009182526020909120600590910201600201805460ff191691151591909117905561306f565b600101613859565b6138d7613e22565b6033805460ff191690557f5db9ee0a495bf2e6ff9c91a7834c1ba4fdd244a5e8aa4e537bd38aeae4b073aa3361338d565b604080516001600160a01b038416602482015260448082018490528251808303909101815260649091019091526020810180517bffffffffffffffffffffffffffffffffffffffffffffffffffffffff167fa9059cbb0000000000000000000000000000000000000000000000000000000017905261192f908490613e74565b61019480546001600160a01b038381166001600160a01b0319831681179093556040519116919082907f8be0079c531659141344cd1fd0a4f28419497f9722a3daafe3b4186f6b6457e090600090a35050565b600054610100900460ff16613a465760405162461bcd60e51b815260206004820152602b60248201527f496e697469616c697a61626c653a20636f6e7472616374206973206e6f74206960448201526a6e697469616c697a696e6760a81b6064820152608401610f9d565b61109e613f5c565b600054610100900460ff16613ab95760405162461bcd60e51b815260206004820152602b60248201527f496e697469616c697a61626c653a20636f6e7472616374206973206e6f74206960448201526a6e697469616c697a696e6760a81b6064820152608401610f9d565b61109e613fd0565b600054610100900460ff1661109e5760405162461bcd60e51b815260206004820152602b60248201527f496e697469616c697a61626c653a20636f6e7472616374206973206e6f74206960448201526a6e697469616c697a696e6760a81b6064820152608401610f9d565b6000613b3661362a565b60005b6101cb54811015613bc657826101cb8281548110613b5957613b59614d8c565b90600052602060002090600302016000015403613b9e576101cb8181548110613b8457613b84614d8c565b906000526020600020906003020160010154915050919050565b6101cb54613bae90600190614e3f565b8103613bbe575060001992915050565b600101613b39565b505b919050565b606060fd8054610c0790614b27565b606060fe8054610c0790614b27565b610162546001600160a01b0384166000908152610164602052604081205490918391613c179086614e6f565b613c219190614e86565b610f249190614e3f565b6001600160a01b038116600090815261012f60205260409020805460018101825590613bc6565b6000610c9e613c5f61367d565b836040517f19010000000000000000000000000000000000000000000000000000000000008152600281019290925260228201526042902090565b6000806000613cab87878787614047565b91509150613cb88161410b565b5095945050505050565b61146581614270565b60007f8b73c3c69bb8fe3d512ecc4cf759cc79239f7b179b0ffacaa9a75d522b39400f613cf6614291565b613cfe6142ea565b60408051602081019490945283019190915260608201524660808201523060a082015260c00160405160208183030381529060405280519060200120905090565b6001600160a01b0381163b613dbc5760405162461bcd60e51b815260206004820152602d60248201527f455243313936373a206e657720696d706c656d656e746174696f6e206973206e60448201527f6f74206120636f6e7472616374000000000000000000000000000000000000006064820152608401610f9d565b7f360894a13ba1a3210667c828492db98dca3e2076cc3735a920a3ca505d382bbc80546001600160a01b0319166001600160a01b0392909216919091179055565b613e068361431b565b600082511180613e135750805b1561192f5761306f838361435b565b60335460ff1661109e5760405162461bcd60e51b815260206004820152601460248201527f5061757361626c653a206e6f74207061757365640000000000000000000000006044820152606401610f9d565b6000613ec9826040518060400160405280602081526020017f5361666545524332303a206c6f772d6c6576656c2063616c6c206661696c6564815250856001600160a01b03166143809092919063ffffffff16565b9050805160001480613eea575080806020019051810190613eea9190614ebe565b61192f5760405162461bcd60e51b815260206004820152602a60248201527f5361666545524332303a204552433230206f7065726174696f6e20646964206e60448201527f6f742073756363656564000000000000000000000000000000000000000000006064820152608401610f9d565b600054610100900460ff16613fc75760405162461bcd60e51b815260206004820152602b60248201527f496e697469616c697a61626c653a20636f6e7472616374206973206e6f74206960448201526a6e697469616c697a696e6760a81b6064820152608401610f9d565b61109e33613988565b600054610100900460ff1661403b5760405162461bcd60e51b815260206004820152602b60248201527f496e697469616c697a61626c653a20636f6e7472616374206973206e6f74206960448201526a6e697469616c697a696e6760a81b6064820152608401610f9d565b6033805460ff19169055565b6000807f7fffffffffffffffffffffffffffffff5d576e7357a4501ddfe92f46681b20a083111561407e5750600090506003614102565b6040805160008082526020820180845289905260ff881692820192909252606081018690526080810185905260019060a0016020604051602081039080840390855afa1580156140d2573d6000803e3d6000fd5b5050604051601f1901519150506001600160a01b0381166140fb57600060019250925050614102565b9150600090505b94509492505050565b600081600481111561411f5761411f614ed9565b036141275750565b600181600481111561413b5761413b614ed9565b036141885760405162461bcd60e51b815260206004820152601860248201527f45434453413a20696e76616c6964207369676e617475726500000000000000006044820152606401610f9d565b600281600481111561419c5761419c614ed9565b036141e95760405162461bcd60e51b815260206004820152601f60248201527f45434453413a20696e76616c6964207369676e6174757265206c656e677468006044820152606401610f9d565b60038160048111156141fd576141fd614ed9565b036114655760405162461bcd60e51b815260206004820152602260248201527f45434453413a20696e76616c6964207369676e6174757265202773272076616c60448201527f75650000000000000000000000000000000000000000000000000000000000006064820152608401610f9d565b60006a636f6e736f6c652e6c6f679050600080835160208501845afa505050565b60008061429c613bcd565b8051909150156142b3578051602090910120919050565b60fb5480156142c25792915050565b7fc5d2460186f7233c927e7db2dcc703c0e500b653ca82273b7bfad8045d85a4709250505090565b6000806142f5613bdc565b80519091501561430c578051602090910120919050565b60fc5480156142c25792915050565b61432481613d3f565b6040516001600160a01b038216907fbc7cd75a20ee27fd9adebab32041f755214dbc6bffa90cc0225b39da2e5c2d3b90600090a250565b60606122328383604051806060016040528060278152602001614f0c6027913961438f565b6060610f248484600085614407565b6060600080856001600160a01b0316856040516143ac9190614eef565b600060405180830381855af49150503d80600081146143e7576040519150601f19603f3d011682016040523d82523d6000602084013e6143ec565b606091505b50915091506143fd868383876144f9565b9695505050505050565b60608247101561447f5760405162461bcd60e51b815260206004820152602660248201527f416464726573733a20696e73756666696369656e742062616c616e636520666f60448201527f722063616c6c00000000000000000000000000000000000000000000000000006064820152608401610f9d565b600080866001600160a01b0316858760405161449b9190614eef565b60006040518083038185875af1925050503d80600081146144d8576040519150601f19603f3d011682016040523d82523d6000602084013e6144dd565b606091505b50915091506144ee878383876144f9565b979650505050505050565b60608315614568578251600003614561576001600160a01b0385163b6145615760405162461bcd60e51b815260206004820152601d60248201527f416464726573733a2063616c6c20746f206e6f6e2d636f6e74726163740000006044820152606401610f9d565b5081610f24565b610f24838381511561457d5781518083602001fd5b8060405162461bcd60e51b8152600401610f9d9190614600565b6000602082840312156145a957600080fd5b5035919050565b60005b838110156145cb5781810151838201526020016145b3565b50506000910152565b600081518084526145ec8160208601602086016145b0565b601f01601f19169290920160200192915050565b60208152600061223260208301846145d4565b6001600160a01b038116811461146557600080fd5b6000806040838503121561463b57600080fd5b823561464681614613565b946020939093013593505050565b634e487b7160e01b600052604160045260246000fd5b604051610160810167ffffffffffffffff8111828210171561468e5761468e614654565b60405290565b604051601f8201601f1916810167ffffffffffffffff811182821017156146bd576146bd614654565b604052919050565b600082601f8301126146d657600080fd5b813567ffffffffffffffff8111156146f0576146f0614654565b614703601f8201601f1916602001614694565b81815284602083860101111561471857600080fd5b816020850160208301376000918101602001919091529392505050565b6000806000806080858703121561474b57600080fd5b843561475681614613565b9350602085013561476681614613565b925060408501359150606085013567ffffffffffffffff81111561478957600080fd5b614795878288016146c5565b91505092959194509250565b6000602082840312156147b357600080fd5b813561223281614613565b6000806000606084860312156147d357600080fd5b83356147de81614613565b925060208401356147ee81614613565b929592945050506040919091013590565b6000806040838503121561481257600080fd5b50508035926020909101359150565b602080825282518282018190526000919060409081850190868401855b82811015614883578151805185528681015187860152858101516001600160a01b0316868601526060908101511515908501526080909301929085019060010161483e565b5091979650505050505050565b600080604083850312156148a357600080fd5b8235915060208301356148b581614613565b809150509250929050565b600080604083850312156148d357600080fd5b82356148de81614613565b915060208301356148b581614613565b60008060006060848603121561490357600080fd5b833561490e81614613565b925060208401359150604084013561492581614613565b809150509250925092565b6000806040838503121561494357600080fd5b823561494e81614613565b9150602083013567ffffffffffffffff81111561496a57600080fd5b614976858286016146c5565b9150509250929050565b7fff00000000000000000000000000000000000000000000000000000000000000881681526000602060e060208401526149bd60e084018a6145d4565b83810360408501526149cf818a6145d4565b606085018990526001600160a01b038816608086015260a0850187905284810360c08601528551808252602080880193509091019060005b81811015614a2357835183529284019291840191600101614a07565b50909c9b505050505050505050505050565b602080825282518282018190526000919060409081850190868401855b8281101561488357815180516001600160a01b039081168652878201518887015286820151151587870152606080830151909116908601526080808201519086015260a0908101519085015260c09093019290850190600101614a52565b600080600080600080600060e0888a031215614acb57600080fd5b8735614ad681614613565b96506020880135614ae681614613565b95506040880135945060608801359350608088013560ff81168114614b0a57600080fd5b9699959850939692959460a0840135945060c09093013592915050565b600181811c90821680614b3b57607f821691505b602082108103613bc657634e487b7160e01b600052602260045260246000fd5b600060208284031215614b6d57600080fd5b5051919050565b60006001600160a01b03808716835280861660208401525083604083015260a06060830152614ba660a08301846145d4565b8281036080840152600e81527f6c697374696e6720706c616e657400000000000000000000000000000000000060208201526040810191505095945050505050565b600082601f830112614bf957600080fd5b8151602067ffffffffffffffff821115614c1557614c15614654565b8160051b614c24828201614694565b9283528481018201928281019087851115614c3e57600080fd5b83870192505b848310156144ee57825182529183019190830190614c44565b80518015158114613bc857600080fd5b60008060408385031215614c8057600080fd5b825167ffffffffffffffff80821115614c9857600080fd5b908401906101608287031215614cad57600080fd5b614cb561466a565b825181526020830151602082015260408301516040820152606083015160608201526080830151608082015260a083015160a082015260c083015160c082015260e083015160e08201526101008084015183811115614d1357600080fd5b614d1f89828701614be8565b8284015250506101208084015183811115614d3957600080fd5b614d4589828701614be8565b8284015250506101408084015183811115614d5f57600080fd5b614d6b89828701614be8565b828401525050809450505050614d8360208401614c5d565b90509250929050565b634e487b7160e01b600052603260045260246000fd5b60006001600160a01b03808716835280861660208401525083604083015260a06060830152614dd460a08301846145d4565b8281036080840152600a81527f6e657720706c616e65740000000000000000000000000000000000000000000060208201526040810191505095945050505050565b634e487b7160e01b600052601160045260246000fd5b80820180821115610c9e57610c9e614e16565b81810381811115610c9e57610c9e614e16565b600060208284031215614e6457600080fd5b815161223281614613565b8082028115828204841417610c9e57610c9e614e16565b600082614ea357634e487b7160e01b600052601260045260246000fd5b500490565b634e487b7160e01b600052603160045260246000fd5b600060208284031215614ed057600080fd5b61223282614c5d565b634e487b7160e01b600052602160045260246000fd5b60008251614f018184602087016145b0565b919091019291505056fe416464726573733a206c6f772d6c6576656c2064656c65676174652063616c6c206661696c6564a26469706673582212200e5422b706d9f487a5c27605f4c3ef71229255dee0ad4c4c25dee70736fdf69164736f6c63430008180033",
  "linkReferences": {},
  "deployedLinkReferences": {}
}