{
  "_format": "hh-sol-artifact-1",
  "contractName": "HatcherV2",
  "sourceName": "contracts/HatcherV2.sol",
  "abi": [
    {
      "inputs": [],
      "name": "Unauthorized",
      "type": "error"
    },
    {
      "anonymous": false,
      "inputs": [
        {
          "indexed": false,
          "internalType": "address",
          "name": "previousAdmin",
          "type": "address"
        },
        {
          "indexed": false,
          "internalType": "address",
          "name": "newAdmin",
          "type": "address"
        }
      ],
      "name": "AdminChanged",
      "type": "event"
    },
    {
      "anonymous": false,
      "inputs": [
        {
          "indexed": true,
          "internalType": "address",
          "name": "owner",
          "type": "address"
        },
        {
          "indexed": true,
          "internalType": "address",
          "name": "spender",
          "type": "address"
        },
        {
          "indexed": false,
          "internalType": "uint256",
          "name": "value",
          "type": "uint256"
        }
      ],
      "name": "Approval",
      "type": "event"
    },
    {
      "anonymous": false,
      "inputs": [
        {
          "indexed": true,
          "internalType": "address",
          "name": "beacon",
          "type": "address"
        }
      ],
      "name": "BeaconUpgraded",
      "type": "event"
    },
    {
      "anonymous": false,
      "inputs": [
        {
          "indexed": false,
          "internalType": "address",
          "name": "sentToUser",
          "type": "address"
        },
        {
          "indexed": false,
          "internalType": "address",
          "name": "token",
          "type": "address"
        },
        {
          "indexed": false,
          "internalType": "uint256",
          "name": "tokenId",
          "type": "uint256"
        }
      ],
      "name": "DeClaimedAPlanet",
      "type": "event"
    },
    {
      "anonymous": false,
      "inputs": [
        {
          "indexed": false,
          "internalType": "address",
          "name": "sentToUser",
          "type": "address"
        },
        {
          "indexed": false,
          "internalType": "address",
          "name": "token",
          "type": "address"
        },
        {
          "indexed": false,
          "internalType": "uint256",
          "name": "tokenId",
          "type": "uint256"
        }
      ],
      "name": "DeListedAPlanet",
      "type": "event"
    },
    {
      "anonymous": false,
      "inputs": [],
      "name": "EIP712DomainChanged",
      "type": "event"
    },
    {
      "anonymous": false,
      "inputs": [
        {
          "indexed": true,
          "internalType": "contract IERC20Upgradeable",
          "name": "token",
          "type": "address"
        },
        {
          "indexed": false,
          "internalType": "address",
          "name": "to",
          "type": "address"
        },
        {
          "indexed": false,
          "internalType": "uint256",
          "name": "amount",
          "type": "uint256"
        }
      ],
      "name": "ERC20PaymentReleased",
      "type": "event"
    },
    {
      "anonymous": false,
      "inputs": [
        {
          "indexed": false,
          "internalType": "uint8",
          "name": "version",
          "type": "uint8"
        }
      ],
      "name": "Initialized",
      "type": "event"
    },
    {
      "anonymous": false,
      "inputs": [
        {
          "indexed": false,
          "internalType": "address",
          "name": "sentFromUser",
          "type": "address"
        },
        {
          "indexed": false,
          "internalType": "address",
          "name": "token",
          "type": "address"
        },
        {
          "indexed": false,
          "internalType": "uint256",
          "name": "tokenId",
          "type": "uint256"
        },
        {
          "indexed": false,
          "internalType": "uint256",
          "name": "price",
          "type": "uint256"
        }
      ],
      "name": "ListedAPlanet",
      "type": "event"
    },
    {
      "anonymous": false,
      "inputs": [
        {
          "indexed": false,
          "internalType": "address",
          "name": "operator",
          "type": "address"
        },
        {
          "indexed": false,
          "internalType": "address",
          "name": "from",
          "type": "address"
        },
        {
          "indexed": false,
          "internalType": "uint256",
          "name": "tokenId",
          "type": "uint256"
        },
        {
          "indexed": false,
          "internalType": "bytes",
          "name": "data",
          "type": "bytes"
        },
        {
          "indexed": false,
          "internalType": "string",
          "name": "typeOfReceival",
          "type": "string"
        }
      ],
      "name": "NftReceived",
      "type": "event"
    },
    {
      "anonymous": false,
      "inputs": [
        {
          "indexed": true,
          "internalType": "address",
          "name": "previousOwner",
          "type": "address"
        },
        {
          "indexed": true,
          "internalType": "address",
          "name": "newOwner",
          "type": "address"
        }
      ],
      "name": "OwnershipTransferred",
      "type": "event"
    },
    {
      "anonymous": false,
      "inputs": [
        {
          "indexed": false,
          "internalType": "address",
          "name": "account",
          "type": "address"
        }
      ],
      "name": "Paused",
      "type": "event"
    },
    {
      "anonymous": false,
      "inputs": [
        {
          "indexed": false,
          "internalType": "address",
          "name": "account",
          "type": "address"
        },
        {
          "indexed": false,
          "internalType": "uint256",
          "name": "shares",
          "type": "uint256"
        }
      ],
      "name": "PayeeAdded",
      "type": "event"
    },
    {
      "anonymous": false,
      "inputs": [
        {
          "indexed": false,
          "internalType": "address",
          "name": "from",
          "type": "address"
        },
        {
          "indexed": false,
          "internalType": "uint256",
          "name": "amount",
          "type": "uint256"
        }
      ],
      "name": "PaymentReceived",
      "type": "event"
    },
    {
      "anonymous": false,
      "inputs": [
        {
          "indexed": false,
          "internalType": "address",
          "name": "to",
          "type": "address"
        },
        {
          "indexed": false,
          "internalType": "uint256",
          "name": "amount",
          "type": "uint256"
        }
      ],
      "name": "PaymentReleased",
      "type": "event"
    },
    {
      "anonymous": false,
      "inputs": [
        {
          "indexed": false,
          "internalType": "uint256",
          "name": "planetAsking",
          "type": "uint256"
        },
        {
          "indexed": false,
          "internalType": "address",
          "name": "askingUser",
          "type": "address"
        },
        {
          "indexed": false,
          "internalType": "uint256",
          "name": "planetJoining",
          "type": "uint256"
        },
        {
          "indexed": false,
          "internalType": "address",
          "name": "joiningUser",
          "type": "address"
        }
      ],
      "name": "PlanetsConjoining",
      "type": "event"
    },
    {
      "anonymous": false,
      "inputs": [
        {
          "indexed": true,
          "internalType": "address",
          "name": "from",
          "type": "address"
        },
        {
          "indexed": true,
          "internalType": "address",
          "name": "to",
          "type": "address"
        },
        {
          "indexed": false,
          "internalType": "uint256",
          "name": "value",
          "type": "uint256"
        }
      ],
      "name": "Transfer",
      "type": "event"
    },
    {
      "anonymous": false,
      "inputs": [
        {
          "indexed": false,
          "internalType": "address",
          "name": "account",
          "type": "address"
        }
      ],
      "name": "Unpaused",
      "type": "event"
    },
    {
      "anonymous": false,
      "inputs": [
        {
          "indexed": true,
          "internalType": "address",
          "name": "implementation",
          "type": "address"
        }
      ],
      "name": "Upgraded",
      "type": "event"
    },
    {
      "inputs": [],
      "name": "DOMAIN_SEPARATOR",
      "outputs": [
        {
          "internalType": "bytes32",
          "name": "",
          "type": "bytes32"
        }
      ],
      "stateMutability": "view",
      "type": "function"
    },
    {
      "inputs": [
        {
          "internalType": "address",
          "name": "owner",
          "type": "address"
        },
        {
          "internalType": "address",
          "name": "spender",
          "type": "address"
        }
      ],
      "name": "allowance",
      "outputs": [
        {
          "internalType": "uint256",
          "name": "",
          "type": "uint256"
        }
      ],
      "stateMutability": "view",
      "type": "function"
    },
    {
      "inputs": [
        {
          "internalType": "address",
          "name": "spender",
          "type": "address"
        },
        {
          "internalType": "uint256",
          "name": "amount",
          "type": "uint256"
        }
      ],
      "name": "approve",
      "outputs": [
        {
          "internalType": "bool",
          "name": "",
          "type": "bool"
        }
      ],
      "stateMutability": "nonpayable",
      "type": "function"
    },
    {
      "inputs": [
        {
          "internalType": "address",
          "name": "account",
          "type": "address"
        }
      ],
      "name": "balanceOf",
      "outputs": [
        {
          "internalType": "uint256",
          "name": "",
          "type": "uint256"
        }
      ],
      "stateMutability": "view",
      "type": "function"
    },
    {
      "inputs": [],
      "name": "breedContract",
      "outputs": [
        {
          "internalType": "contract IBreedContract",
          "name": "",
          "type": "address"
        }
      ],
      "stateMutability": "view",
      "type": "function"
    },
    {
      "inputs": [
        {
          "internalType": "uint256",
          "name": "newVRF",
          "type": "uint256"
        }
      ],
      "name": "changeVRFValue",
      "outputs": [],
      "stateMutability": "nonpayable",
      "type": "function"
    },
    {
      "inputs": [
        {
          "internalType": "address",
          "name": "owner",
          "type": "address"
        },
        {
          "internalType": "address",
          "name": "operator",
          "type": "address"
        }
      ],
      "name": "checkApprovalForAll",
      "outputs": [
        {
          "internalType": "bool",
          "name": "",
          "type": "bool"
        }
      ],
      "stateMutability": "view",
      "type": "function"
    },
    {
      "inputs": [
        {
          "internalType": "uint256",
          "name": "claimableTokenId",
          "type": "uint256"
        }
      ],
      "name": "claimPlanet",
      "outputs": [],
      "stateMutability": "nonpayable",
      "type": "function"
    },
    {
      "inputs": [
        {
          "internalType": "address",
          "name": "",
          "type": "address"
        },
        {
          "internalType": "uint256",
          "name": "",
          "type": "uint256"
        }
      ],
      "name": "claimablePlanets",
      "outputs": [
        {
          "internalType": "address",
          "name": "ownerParentAddress",
          "type": "address"
        },
        {
          "internalType": "uint256",
          "name": "ownerTokenId",
          "type": "uint256"
        },
        {
          "internalType": "bool",
          "name": "delivered",
          "type": "bool"
        },
        {
          "internalType": "bool",
          "name": "arrived",
          "type": "bool"
        },
        {
          "internalType": "address",
          "name": "otherParent",
          "type": "address"
        },
        {
          "internalType": "uint256",
          "name": "otherTokenId",
          "type": "uint256"
        },
        {
          "internalType": "uint256",
          "name": "claimsTokenId",
          "type": "uint256"
        }
      ],
      "stateMutability": "view",
      "type": "function"
    },
    {
      "inputs": [
        {
          "internalType": "uint256",
          "name": "",
          "type": "uint256"
        }
      ],
      "name": "claimantTokenIdToOwnerAddress",
      "outputs": [
        {
          "internalType": "address",
          "name": "",
          "type": "address"
        }
      ],
      "stateMutability": "view",
      "type": "function"
    },
    {
      "inputs": [
        {
          "internalType": "uint256",
          "name": "yourPlanet",
          "type": "uint256"
        },
        {
          "internalType": "uint256",
          "name": "withListedPlanet",
          "type": "uint256"
        }
      ],
      "name": "conjunct",
      "outputs": [],
      "stateMutability": "payable",
      "type": "function"
    },
    {
      "inputs": [
        {
          "internalType": "uint256",
          "name": "idIndex",
          "type": "uint256"
        },
        {
          "internalType": "uint256",
          "name": "tokenId",
          "type": "uint256"
        }
      ],
      "name": "deList",
      "outputs": [],
      "stateMutability": "nonpayable",
      "type": "function"
    },
    {
      "inputs": [],
      "name": "deListAllYourPlanets",
      "outputs": [],
      "stateMutability": "nonpayable",
      "type": "function"
    },
    {
      "inputs": [],
      "name": "decimals",
      "outputs": [
        {
          "internalType": "uint8",
          "name": "",
          "type": "uint8"
        }
      ],
      "stateMutability": "view",
      "type": "function"
    },
    {
      "inputs": [
        {
          "internalType": "address",
          "name": "spender",
          "type": "address"
        },
        {
          "internalType": "uint256",
          "name": "subtractedValue",
          "type": "uint256"
        }
      ],
      "name": "decreaseAllowance",
      "outputs": [
        {
          "internalType": "bool",
          "name": "",
          "type": "bool"
        }
      ],
      "stateMutability": "nonpayable",
      "type": "function"
    },
    {
      "inputs": [],
      "name": "eip712Domain",
      "outputs": [
        {
          "internalType": "bytes1",
          "name": "fields",
          "type": "bytes1"
        },
        {
          "internalType": "string",
          "name": "name",
          "type": "string"
        },
        {
          "internalType": "string",
          "name": "version",
          "type": "string"
        },
        {
          "internalType": "uint256",
          "name": "chainId",
          "type": "uint256"
        },
        {
          "internalType": "address",
          "name": "verifyingContract",
          "type": "address"
        },
        {
          "internalType": "bytes32",
          "name": "salt",
          "type": "bytes32"
        },
        {
          "internalType": "uint256[]",
          "name": "extensions",
          "type": "uint256[]"
        }
      ],
      "stateMutability": "view",
      "type": "function"
    },
    {
      "inputs": [],
      "name": "getAllPlanets",
      "outputs": [
        {
          "components": [
            {
              "internalType": "uint256",
              "name": "tokenId",
              "type": "uint256"
            },
            {
              "internalType": "uint256",
              "name": "price",
              "type": "uint256"
            },
            {
              "internalType": "address",
              "name": "ownerAddress",
              "type": "address"
            },
            {
              "internalType": "bool",
              "name": "active",
              "type": "bool"
            }
          ],
          "internalType": "struct ListedPlanet[]",
          "name": "",
          "type": "tuple[]"
        }
      ],
      "stateMutability": "view",
      "type": "function"
    },
    {
      "inputs": [
        {
          "internalType": "address",
          "name": "userAddr",
          "type": "address"
        }
      ],
      "name": "getClaimablePlanetsFor",
      "outputs": [
        {
          "components": [
            {
              "internalType": "address",
              "name": "ownerParentAddress",
              "type": "address"
            },
            {
              "internalType": "uint256",
              "name": "ownerTokenId",
              "type": "uint256"
            },
            {
              "internalType": "bool",
              "name": "delivered",
              "type": "bool"
            },
            {
              "internalType": "bool",
              "name": "arrived",
              "type": "bool"
            },
            {
              "internalType": "address",
              "name": "otherParent",
              "type": "address"
            },
            {
              "internalType": "uint256",
              "name": "otherTokenId",
              "type": "uint256"
            },
            {
              "internalType": "uint256",
              "name": "claimsTokenId",
              "type": "uint256"
            }
          ],
          "internalType": "struct ClaimablePlanet[]",
          "name": "",
          "type": "tuple[]"
        }
      ],
      "stateMutability": "view",
      "type": "function"
    },
    {
      "inputs": [
        {
          "internalType": "uint256",
          "name": "claimableTokenId",
          "type": "uint256"
        }
      ],
      "name": "getClaimantTokenIdToOwnerAddress",
      "outputs": [
        {
          "internalType": "address",
          "name": "",
          "type": "address"
        }
      ],
      "stateMutability": "view",
      "type": "function"
    },
    {
      "inputs": [
        {
          "internalType": "uint256",
          "name": "startIndex",
          "type": "uint256"
        },
        {
          "internalType": "uint256",
          "name": "endIndex",
          "type": "uint256"
        }
      ],
      "name": "getPlanetsPaginated",
      "outputs": [
        {
          "components": [
            {
              "internalType": "uint256",
              "name": "tokenId",
              "type": "uint256"
            },
            {
              "internalType": "uint256",
              "name": "price",
              "type": "uint256"
            },
            {
              "internalType": "address",
              "name": "ownerAddress",
              "type": "address"
            },
            {
              "internalType": "bool",
              "name": "active",
              "type": "bool"
            }
          ],
          "internalType": "struct ListedPlanet[]",
          "name": "",
          "type": "tuple[]"
        }
      ],
      "stateMutability": "view",
      "type": "function"
    },
    {
      "inputs": [
        {
          "internalType": "address",
          "name": "userAddr",
          "type": "address"
        }
      ],
      "name": "getuserToListedPlanets",
      "outputs": [
        {
          "components": [
            {
              "internalType": "uint256",
              "name": "tokenId",
              "type": "uint256"
            },
            {
              "internalType": "uint256",
              "name": "price",
              "type": "uint256"
            },
            {
              "internalType": "address",
              "name": "ownerAddress",
              "type": "address"
            },
            {
              "internalType": "bool",
              "name": "active",
              "type": "bool"
            }
          ],
          "internalType": "struct ListedPlanet[]",
          "name": "",
          "type": "tuple[]"
        }
      ],
      "stateMutability": "view",
      "type": "function"
    },
    {
      "inputs": [
        {
          "internalType": "address",
          "name": "spender",
          "type": "address"
        },
        {
          "internalType": "uint256",
          "name": "addedValue",
          "type": "uint256"
        }
      ],
      "name": "increaseAllowance",
      "outputs": [
        {
          "internalType": "bool",
          "name": "",
          "type": "bool"
        }
      ],
      "stateMutability": "nonpayable",
      "type": "function"
    },
    {
      "inputs": [],
      "name": "initialize",
      "outputs": [],
      "stateMutability": "nonpayable",
      "type": "function"
    },
    {
      "inputs": [],
      "name": "listAllYourPlanets",
      "outputs": [],
      "stateMutability": "nonpayable",
      "type": "function"
    },
    {
      "inputs": [],
      "name": "name",
      "outputs": [
        {
          "internalType": "string",
          "name": "",
          "type": "string"
        }
      ],
      "stateMutability": "view",
      "type": "function"
    },
    {
      "inputs": [
        {
          "internalType": "address",
          "name": "owner",
          "type": "address"
        }
      ],
      "name": "nonces",
      "outputs": [
        {
          "internalType": "uint256",
          "name": "",
          "type": "uint256"
        }
      ],
      "stateMutability": "view",
      "type": "function"
    },
    {
      "inputs": [
        {
          "internalType": "address",
          "name": "operator",
          "type": "address"
        },
        {
          "internalType": "address",
          "name": "from",
          "type": "address"
        },
        {
          "internalType": "uint256",
          "name": "tokenId",
          "type": "uint256"
        },
        {
          "internalType": "bytes",
          "name": "data",
          "type": "bytes"
        }
      ],
      "name": "onERC721Received",
      "outputs": [
        {
          "internalType": "bytes4",
          "name": "",
          "type": "bytes4"
        }
      ],
      "stateMutability": "nonpayable",
      "type": "function"
    },
    {
      "inputs": [],
      "name": "owner",
      "outputs": [
        {
          "internalType": "address",
          "name": "",
          "type": "address"
        }
      ],
      "stateMutability": "view",
      "type": "function"
    },
    {
      "inputs": [
        {
          "internalType": "uint256",
          "name": "claimableTokenId",
          "type": "uint256"
        },
        {
          "internalType": "address",
          "name": "sendToAddr",
          "type": "address"
        }
      ],
      "name": "ownerClaimPlanet",
      "outputs": [],
      "stateMutability": "nonpayable",
      "type": "function"
    },
    {
      "inputs": [
        {
          "internalType": "uint256",
          "name": "tokenId",
          "type": "uint256"
        },
        {
          "internalType": "address",
          "name": "destinationAddr",
          "type": "address"
        }
      ],
      "name": "ownerOverrideSendNFT",
      "outputs": [],
      "stateMutability": "nonpayable",
      "type": "function"
    },
    {
      "inputs": [],
      "name": "pause",
      "outputs": [],
      "stateMutability": "nonpayable",
      "type": "function"
    },
    {
      "inputs": [],
      "name": "paused",
      "outputs": [
        {
          "internalType": "bool",
          "name": "",
          "type": "bool"
        }
      ],
      "stateMutability": "view",
      "type": "function"
    },
    {
      "inputs": [
        {
          "internalType": "uint256",
          "name": "index",
          "type": "uint256"
        }
      ],
      "name": "payee",
      "outputs": [
        {
          "internalType": "address",
          "name": "",
          "type": "address"
        }
      ],
      "stateMutability": "view",
      "type": "function"
    },
    {
      "inputs": [
        {
          "internalType": "address",
          "name": "owner",
          "type": "address"
        },
        {
          "internalType": "address",
          "name": "spender",
          "type": "address"
        },
        {
          "internalType": "uint256",
          "name": "value",
          "type": "uint256"
        },
        {
          "internalType": "uint256",
          "name": "deadline",
          "type": "uint256"
        },
        {
          "internalType": "uint8",
          "name": "v",
          "type": "uint8"
        },
        {
          "internalType": "bytes32",
          "name": "r",
          "type": "bytes32"
        },
        {
          "internalType": "bytes32",
          "name": "s",
          "type": "bytes32"
        }
      ],
      "name": "permit",
      "outputs": [],
      "stateMutability": "nonpayable",
      "type": "function"
    },
    {
      "inputs": [],
      "name": "proxiableUUID",
      "outputs": [
        {
          "internalType": "bytes32",
          "name": "",
          "type": "bytes32"
        }
      ],
      "stateMutability": "view",
      "type": "function"
    },
    {
      "inputs": [
        {
          "internalType": "address",
          "name": "account",
          "type": "address"
        }
      ],
      "name": "releasable",
      "outputs": [
        {
          "internalType": "uint256",
          "name": "",
          "type": "uint256"
        }
      ],
      "stateMutability": "view",
      "type": "function"
    },
    {
      "inputs": [
        {
          "internalType": "contract IERC20Upgradeable",
          "name": "token",
          "type": "address"
        },
        {
          "internalType": "address",
          "name": "account",
          "type": "address"
        }
      ],
      "name": "releasable",
      "outputs": [
        {
          "internalType": "uint256",
          "name": "",
          "type": "uint256"
        }
      ],
      "stateMutability": "view",
      "type": "function"
    },
    {
      "inputs": [
        {
          "internalType": "address payable",
          "name": "account",
          "type": "address"
        }
      ],
      "name": "release",
      "outputs": [],
      "stateMutability": "nonpayable",
      "type": "function"
    },
    {
      "inputs": [
        {
          "internalType": "contract IERC20Upgradeable",
          "name": "token",
          "type": "address"
        },
        {
          "internalType": "address",
          "name": "account",
          "type": "address"
        }
      ],
      "name": "release",
      "outputs": [],
      "stateMutability": "nonpayable",
      "type": "function"
    },
    {
      "inputs": [
        {
          "internalType": "contract IERC20Upgradeable",
          "name": "token",
          "type": "address"
        },
        {
          "internalType": "address",
          "name": "account",
          "type": "address"
        }
      ],
      "name": "released",
      "outputs": [
        {
          "internalType": "uint256",
          "name": "",
          "type": "uint256"
        }
      ],
      "stateMutability": "view",
      "type": "function"
    },
    {
      "inputs": [
        {
          "internalType": "address",
          "name": "account",
          "type": "address"
        }
      ],
      "name": "released",
      "outputs": [
        {
          "internalType": "uint256",
          "name": "",
          "type": "uint256"
        }
      ],
      "stateMutability": "view",
      "type": "function"
    },
    {
      "inputs": [],
      "name": "renounceOwnership",
      "outputs": [],
      "stateMutability": "nonpayable",
      "type": "function"
    },
    {
      "inputs": [
        {
          "internalType": "address",
          "name": "_breederContractAddr",
          "type": "address"
        },
        {
          "internalType": "uint256",
          "name": "_vrfValue",
          "type": "uint256"
        },
        {
          "internalType": "address",
          "name": "_nftContractAddr",
          "type": "address"
        }
      ],
      "name": "setAllOf",
      "outputs": [],
      "stateMutability": "nonpayable",
      "type": "function"
    },
    {
      "inputs": [
        {
          "internalType": "address payable",
          "name": "newTAdd",
          "type": "address"
        }
      ],
      "name": "setTAdd",
      "outputs": [],
      "stateMutability": "nonpayable",
      "type": "function"
    },
    {
      "inputs": [
        {
          "internalType": "address",
          "name": "account",
          "type": "address"
        }
      ],
      "name": "shares",
      "outputs": [
        {
          "internalType": "uint256",
          "name": "",
          "type": "uint256"
        }
      ],
      "stateMutability": "view",
      "type": "function"
    },
    {
      "inputs": [],
      "name": "status",
      "outputs": [],
      "stateMutability": "nonpayable",
      "type": "function"
    },
    {
      "inputs": [],
      "name": "symbol",
      "outputs": [
        {
          "internalType": "string",
          "name": "",
          "type": "string"
        }
      ],
      "stateMutability": "view",
      "type": "function"
    },
    {
      "inputs": [
        {
          "internalType": "contract IERC20Upgradeable",
          "name": "token",
          "type": "address"
        }
      ],
      "name": "totalReleased",
      "outputs": [
        {
          "internalType": "uint256",
          "name": "",
          "type": "uint256"
        }
      ],
      "stateMutability": "view",
      "type": "function"
    },
    {
      "inputs": [],
      "name": "totalReleased",
      "outputs": [
        {
          "internalType": "uint256",
          "name": "",
          "type": "uint256"
        }
      ],
      "stateMutability": "view",
      "type": "function"
    },
    {
      "inputs": [],
      "name": "totalShares",
      "outputs": [
        {
          "internalType": "uint256",
          "name": "",
          "type": "uint256"
        }
      ],
      "stateMutability": "view",
      "type": "function"
    },
    {
      "inputs": [],
      "name": "totalSupply",
      "outputs": [
        {
          "internalType": "uint256",
          "name": "",
          "type": "uint256"
        }
      ],
      "stateMutability": "view",
      "type": "function"
    },
    {
      "inputs": [
        {
          "internalType": "address",
          "name": "to",
          "type": "address"
        },
        {
          "internalType": "uint256",
          "name": "amount",
          "type": "uint256"
        }
      ],
      "name": "transfer",
      "outputs": [
        {
          "internalType": "bool",
          "name": "",
          "type": "bool"
        }
      ],
      "stateMutability": "nonpayable",
      "type": "function"
    },
    {
      "inputs": [
        {
          "internalType": "address",
          "name": "from",
          "type": "address"
        },
        {
          "internalType": "address",
          "name": "to",
          "type": "address"
        },
        {
          "internalType": "uint256",
          "name": "amount",
          "type": "uint256"
        }
      ],
      "name": "transferFrom",
      "outputs": [
        {
          "internalType": "bool",
          "name": "",
          "type": "bool"
        }
      ],
      "stateMutability": "nonpayable",
      "type": "function"
    },
    {
      "inputs": [
        {
          "internalType": "address",
          "name": "newOwner",
          "type": "address"
        }
      ],
      "name": "transferOwnership",
      "outputs": [],
      "stateMutability": "nonpayable",
      "type": "function"
    },
    {
      "inputs": [],
      "name": "unpause",
      "outputs": [],
      "stateMutability": "nonpayable",
      "type": "function"
    },
    {
      "inputs": [
        {
          "internalType": "address",
          "name": "newImplementation",
          "type": "address"
        }
      ],
      "name": "upgradeTo",
      "outputs": [],
      "stateMutability": "nonpayable",
      "type": "function"
    },
    {
      "inputs": [
        {
          "internalType": "address",
          "name": "newImplementation",
          "type": "address"
        },
        {
          "internalType": "bytes",
          "name": "data",
          "type": "bytes"
        }
      ],
      "name": "upgradeToAndCall",
      "outputs": [],
      "stateMutability": "payable",
      "type": "function"
    },
    {
      "inputs": [
        {
          "internalType": "address",
          "name": "",
          "type": "address"
        },
        {
          "internalType": "uint256",
          "name": "",
          "type": "uint256"
        }
      ],
      "name": "userToListedPlanets",
      "outputs": [
        {
          "internalType": "uint256",
          "name": "tokenId",
          "type": "uint256"
        },
        {
          "internalType": "uint256",
          "name": "price",
          "type": "uint256"
        },
        {
          "internalType": "address",
          "name": "ownerAddress",
          "type": "address"
        },
        {
          "internalType": "bool",
          "name": "active",
          "type": "bool"
        }
      ],
      "stateMutability": "view",
      "type": "function"
    },
    {
      "inputs": [
        {
          "internalType": "address",
          "name": "userAddress",
          "type": "address"
        }
      ],
      "name": "usersClaims",
      "outputs": [
        {
          "components": [
            {
              "internalType": "address",
              "name": "ownerParentAddress",
              "type": "address"
            },
            {
              "internalType": "uint256",
              "name": "ownerTokenId",
              "type": "uint256"
            },
            {
              "internalType": "bool",
              "name": "delivered",
              "type": "bool"
            },
            {
              "internalType": "bool",
              "name": "arrived",
              "type": "bool"
            },
            {
              "internalType": "address",
              "name": "otherParent",
              "type": "address"
            },
            {
              "internalType": "uint256",
              "name": "otherTokenId",
              "type": "uint256"
            },
            {
              "internalType": "uint256",
              "name": "claimsTokenId",
              "type": "uint256"
            }
          ],
          "internalType": "struct ClaimablePlanet[]",
          "name": "",
          "type": "tuple[]"
        }
      ],
      "stateMutability": "view",
      "type": "function"
    },
    {
      "inputs": [],
      "name": "withdrawFunds",
      "outputs": [],
      "stateMutability": "nonpayable",
      "type": "function"
    },
    {
      "stateMutability": "payable",
      "type": "receive"
    }
  ],
  "bytecode": "0x60a06040523060805234801561001457600080fd5b5060805161541661004c60003960008181611337015281816113bc01528181611770015281816117f50152611ab501526154166000f3fe60806040526004361061039b5760003560e01c80638129fc1c116101dc578063cbdf1b5a11610102578063dd62ed3e116100a0578063f2fde38b1161006f578063f2fde38b14610bd1578063fdb4087514610bf1578063fde4976714610c11578063fe79222914610a9c57600080fd5b8063dd62ed3e14610ae9578063e22aecb414610b2f578063e33b7de314610b9a578063ee6e3a2314610bb057600080fd5b8063d505accf116100dc578063d505accf14610a45578063d79779b214610a65578063dbb774d814610a9c578063dd22a9c714610ac957600080fd5b8063cbdf1b5a146109ce578063cdb82a37146109ee578063ce7c2ac214610a0e57600080fd5b806395d89b411161017a578063a9059cbb11610149578063a9059cbb14610937578063bd83dc0514610957578063c45ac0501461098e578063c7c0e6b1146109ae57600080fd5b806395d89b41146108ab5780639852595c146108c0578063a3f8eace146108f7578063a457c2d71461091757600080fd5b806384b0196e116101b657806384b0196e146107f357806385fe72431461081b5780638b83209b1461086c5780638da5cb5b1461088c57600080fd5b80638129fc1c146107cb5780638230a784146107e05780638456cb59146104e257600080fd5b80633a7fb03d116102c157806350842cf31161025f5780636a23befb1161022e5780636a23befb1461074b57806370a0823114610760578063715018a6146107965780637ecebe00146107ab57600080fd5b806350842cf3146104d65780635270ad6c146106fe57806352d1902d1461071e5780635c975abb1461073357600080fd5b8063406072a91161029b578063406072a91461066457806348b75044146106ab5780634a02099b146106cb5780634f1ef286146106eb57600080fd5b80633a7fb03d146106195780633a98ef39146106395780633f4ba83a1461064f57600080fd5b806323b872dd1161033957806334ae54e91161030857806334ae54e9146105755780633644e515146105c45780633659cfe6146105d957806339509351146105f957600080fd5b806323b872dd146104f757806324600fc314610517578063259478181461052c578063313ce5671461055957600080fd5b806318160ddd1161037557806318160ddd1461049557806319165587146104b45780631ac9a91e146104d6578063200d2ed2146104e257600080fd5b806306fdde03146103e9578063095ea7b314610414578063150b7a021461044457600080fd5b366103e4577f6ef95f06320e7a25a04a175ca677b7052bdd97131872c2192525a629f51be77033604080516001600160a01b0390921682523460208301520160405180910390a1005b600080fd5b3480156103f557600080fd5b506103fe610c31565b60405161040b9190614a89565b60405180910390f35b34801561042057600080fd5b5061043461042f366004614ab1565b610cc3565b604051901515815260200161040b565b34801561045057600080fd5b5061046461045f366004614bbe565b610cdd565b6040517fffffffff00000000000000000000000000000000000000000000000000000000909116815260200161040b565b3480156104a157600080fd5b5060cb545b60405190815260200161040b565b3480156104c057600080fd5b506104d46104cf366004614c2a565b610f6c565b005b3480156104d457600080fd5b3480156104ee57600080fd5b506104d46110e0565b34801561050357600080fd5b50610434610512366004614c47565b6110f0565b34801561052357600080fd5b506104d4611114565b34801561053857600080fd5b5061054c610547366004614c88565b611156565b60405161040b9190614caa565b34801561056557600080fd5b506040516012815260200161040b565b34801561058157600080fd5b506105ac610590366004614d19565b6101cc602052600090815260409020546001600160a01b031681565b6040516001600160a01b03909116815260200161040b565b3480156105d057600080fd5b506104a661131e565b3480156105e557600080fd5b506104d46105f4366004614c2a565b61132d565b34801561060557600080fd5b50610434610614366004614ab1565b6114a8565b34801561062557600080fd5b506104d4610634366004614d32565b6114e7565b34801561064557600080fd5b50610162546104a6565b34801561065b57600080fd5b506104d4611578565b34801561067057600080fd5b506104a661067f366004614d62565b6001600160a01b0391821660009081526101686020908152604080832093909416825291909152205490565b3480156106b757600080fd5b506104d46106c6366004614d62565b611588565b3480156106d757600080fd5b506104d46106e6366004614d90565b61171f565b6104d46106f9366004614dd2565b611766565b34801561070a57600080fd5b506104d4610719366004614d19565b6118ce565b34801561072a57600080fd5b506104a6611aa8565b34801561073f57600080fd5b5060335460ff16610434565b34801561075757600080fd5b5061054c611b6d565b34801561076c57600080fd5b506104a661077b366004614c2a565b6001600160a01b0316600090815260c9602052604090205490565b3480156107a257600080fd5b506104d4611c03565b3480156107b757600080fd5b506104a66107c6366004614c2a565b611c15565b3480156107d757600080fd5b506104d4611c34565b6104d46107ee366004614c88565b611d63565b3480156107ff57600080fd5b50610808612349565b60405161040b9796959493929190614e22565b34801561082757600080fd5b5061083b610836366004614ab1565b61240b565b60405161040b949392919093845260208401929092526001600160a01b031660408301521515606082015260800190565b34801561087857600080fd5b506105ac610887366004614d19565b612463565b34801561089857600080fd5b50610194546001600160a01b03166105ac565b3480156108b757600080fd5b506103fe612494565b3480156108cc57600080fd5b506104a66108db366004614c2a565b6001600160a01b03166000908152610165602052604090205490565b34801561090357600080fd5b506104a6610912366004614c2a565b6124a3565b34801561092357600080fd5b50610434610932366004614ab1565b6124ed565b34801561094357600080fd5b50610434610952366004614ab1565b612597565b34801561096357600080fd5b506105ac610972366004614d19565b60009081526101cc60205260409020546001600160a01b031690565b34801561099a57600080fd5b506104a66109a9366004614d62565b6125a5565b3480156109ba57600080fd5b506104d46109c9366004614d19565b612683565b3480156109da57600080fd5b506104d46109e9366004614c88565b612699565b3480156109fa57600080fd5b506104d4610a09366004614c2a565b6129c4565b348015610a1a57600080fd5b506104a6610a29366004614c2a565b6001600160a01b03166000908152610164602052604090205490565b348015610a5157600080fd5b506104d4610a60366004614ed7565b6129f7565b348015610a7157600080fd5b506104a6610a80366004614c2a565b6001600160a01b03166000908152610167602052604090205490565b348015610aa857600080fd5b50610abc610ab7366004614c2a565b612b5b565b60405161040b9190614f4e565b348015610ad557600080fd5b50610434610ae4366004614d62565b612c2b565b348015610af557600080fd5b506104a6610b04366004614d62565b6001600160a01b03918216600090815260ca6020908152604080832093909416825291909152205490565b348015610b3b57600080fd5b50610b4f610b4a366004614ab1565b612cbc565b604080516001600160a01b0398891681526020810197909752941515948601949094529115156060850152909316608083015260a082019290925260c081019190915260e00161040b565b348015610ba657600080fd5b50610163546104a6565b348015610bbc57600080fd5b506101c6546105ac906001600160a01b031681565b348015610bdd57600080fd5b506104d4610bec366004614c2a565b612d2d565b348015610bfd57600080fd5b506104d4610c0c366004614d32565b612dba565b348015610c1d57600080fd5b5061054c610c2c366004614c2a565b612e4c565b606060cc8054610c4090614fd5565b80601f0160208091040260200160405190810160405280929190818152602001828054610c6c90614fd5565b8015610cb95780601f10610c8e57610100808354040283529160200191610cb9565b820191906000526020600020905b815481529060010190602001808311610c9c57829003601f168201915b5050505050905090565b600033610cd1818585612eed565b60019150505b92915050565b6000610d1d6040518060400160405280600881526020017f7265636569766572000000000000000000000000000000000000000000000000815250613045565b815115610d8a57600082806020019051810190610d3a9190615009565b9050610d478482876130a1565b7f13c6ec2a463a35f898a457814a782f1f567808293fa783a31fa4dac8868e601186868686604051610d7c9493929190615022565b60405180910390a150610f41565b6101c6546001600160a01b038681169116148015610db357506101c8546001600160a01b031633145b15610f41576101c8546040517fdc9ce7a5000000000000000000000000000000000000000000000000000000008152600481018590526000916001600160a01b03169063dc9ce7a590602401600060405180830381865afa158015610e1c573d6000803e3d6000fd5b505050506040513d6000823e601f3d908101601f19168201604052610e44919081019061511b565b50905060008161012001519050600085905060006101cc600084600081518110610e7057610e7061523a565b6020026020010151815260200190815260200160002060009054906101000a90046001600160a01b0316905060006101cc600085600181518110610eb657610eb661523a565b60209081029190910181015182528181019290925260409081016000205481518083019092526001600160a01b03858116835216918101829052909150610efd8185613223565b7f13c6ec2a463a35f898a457814a782f1f567808293fa783a31fa4dac8868e60118b8b8b8b604051610f329493929190615250565b60405180910390a15050505050505b507f150b7a02000000000000000000000000000000000000000000000000000000005b949350505050565b6001600160a01b03811660009081526101646020526040902054610fe65760405162461bcd60e51b815260206004820152602660248201527f5061796d656e7453706c69747465723a206163636f756e7420686173206e6f2060448201526573686172657360d01b60648201526084015b60405180910390fd5b6000610ff1826124a3565b9050806000036110575760405162461bcd60e51b815260206004820152602b60248201527f5061796d656e7453706c69747465723a206163636f756e74206973206e6f742060448201526a191d59481c185e5b595b9d60aa1b6064820152608401610fdd565b80610163600082825461106a91906152da565b90915550506001600160a01b038216600090815261016560205260409020805482019055611098828261353b565b604080516001600160a01b0384168152602081018390527fdf20fd1e76bc69d672e4814fafb2c449bba3a5369d8359adf9e05e6fde87b056910160405180910390a15050565b565b6110e8613659565b6110de6136b4565b6000336110fe85828561370e565b61110985858561379a565b506001949350505050565b61111c613659565b61112461398e565b604051339081904780156108fc02916000818181858888f19350505050158015611152573d6000803e3d6000fd5b5050565b60608282116111a75760405162461bcd60e51b815260206004820152600d60248201527f496e76616c696420696e646578000000000000000000000000000000000000006044820152606401610fdd565b6101cb548211156111fa5760405162461bcd60e51b815260206004820152601360248201527f496e646578206f7574206f6620626f756e6473000000000000000000000000006044820152606401610fdd565b600061120684846152ed565b67ffffffffffffffff81111561121e5761121e614add565b60405190808252806020026020018201604052801561127057816020015b60408051608081018252600080825260208083018290529282018190526060820152825260001990920191018161123c5790505b509050835b83811015611316576101cb81815481106112915761129161523a565b600091825260209182902060408051608081018252600393909302909101805483526001810154938301939093526002909201546001600160a01b03811692820192909252600160a01b90910460ff1615156060820152826112f387846152ed565b815181106113035761130361523a565b6020908102919091010152600101611275565b509392505050565b60006113286139e1565b905090565b6001600160a01b037f00000000000000000000000000000000000000000000000000000000000000001630036113ba5760405162461bcd60e51b815260206004820152602c60248201527f46756e6374696f6e206d7573742062652063616c6c6564207468726f7567682060448201526b19195b1959d85d1958d85b1b60a21b6064820152608401610fdd565b7f00000000000000000000000000000000000000000000000000000000000000006001600160a01b03166114157f360894a13ba1a3210667c828492db98dca3e2076cc3735a920a3ca505d382bbc546001600160a01b031690565b6001600160a01b0316146114805760405162461bcd60e51b815260206004820152602c60248201527f46756e6374696f6e206d7573742062652063616c6c6564207468726f7567682060448201526b6163746976652070726f787960a01b6064820152608401610fdd565b611489816139eb565b604080516000808252602082019092526114a5918391906139f3565b50565b33600081815260ca602090815260408083206001600160a01b0387168452909152812054909190610cd190829086906114e29087906152da565b612eed565b6114ef613659565b6114f761398e565b60008281526101cc60205260409020546001600160a01b031661151a8382613b93565b5061152483613c27565b6101c854604080516001600160a01b038086168252909216602083015281018490527ffbabfabc293b9daf3d9f8a42d485f10715027db90fd73abbe4ae4b4424decd049060600160405180910390a1505050565b611580613659565b6110de613cc7565b6001600160a01b038116600090815261016460205260409020546115fd5760405162461bcd60e51b815260206004820152602660248201527f5061796d656e7453706c69747465723a206163636f756e7420686173206e6f2060448201526573686172657360d01b6064820152608401610fdd565b600061160983836125a5565b90508060000361166f5760405162461bcd60e51b815260206004820152602b60248201527f5061796d656e7453706c69747465723a206163636f756e74206973206e6f742060448201526a191d59481c185e5b595b9d60aa1b6064820152608401610fdd565b6001600160a01b03831660009081526101676020526040812080548392906116989084906152da565b90915550506001600160a01b038084166000908152610168602090815260408083209386168352929052208054820190556116d4838383613d00565b604080516001600160a01b038481168252602082018490528516917f3be5b7a71e84ed12875d241991c70855ac5817d847039e17a9d895c1ceb0f18a910160405180910390a2505050565b611727613659565b61172f61398e565b6101c9919091556101c680546001600160a01b039384166001600160a01b0319918216179091556101c88054929093169116179055565b6001600160a01b037f00000000000000000000000000000000000000000000000000000000000000001630036117f35760405162461bcd60e51b815260206004820152602c60248201527f46756e6374696f6e206d7573742062652063616c6c6564207468726f7567682060448201526b19195b1959d85d1958d85b1b60a21b6064820152608401610fdd565b7f00000000000000000000000000000000000000000000000000000000000000006001600160a01b031661184e7f360894a13ba1a3210667c828492db98dca3e2076cc3735a920a3ca505d382bbc546001600160a01b031690565b6001600160a01b0316146118b95760405162461bcd60e51b815260206004820152602c60248201527f46756e6374696f6e206d7573742062652063616c6c6564207468726f7567682060448201526b6163746976652070726f787960a01b6064820152608401610fdd565b6118c2826139eb565b611152828260016139f3565b6118d661398e565b60008181526101cc602052604090205433906001600160a01b03168082146119785761190181613d6b565b61190a82613d6b565b60405162461bcd60e51b815260206004820152603260248201527f636c61696d206d7573742062652066726f6d20636c61696d616e74732061646460448201527f726573732d2d20646973616c6c6f7765642e00000000000000000000000000006064820152608401610fdd565b6119b66040518060400160405280601781526020017f2d2d4e46542d2d20437469642c207468656e2075736572000000000000000000815250613045565b6119bf83613dcc565b6119c882613d6b565b60006119d48484613b93565b905080611a495760405162461bcd60e51b815260206004820152602f60248201527f4661696c656420746f2073656e64204e46542e20436865636b20436c61696d6160448201527f6e7420546f6b656e49642073656e7400000000000000000000000000000000006064820152608401610fdd565b611a5284613c27565b6101c854604080516001600160a01b038087168252909216602083015281018590527ffbabfabc293b9daf3d9f8a42d485f10715027db90fd73abbe4ae4b4424decd04906060015b60405180910390a150505050565b6000306001600160a01b037f00000000000000000000000000000000000000000000000000000000000000001614611b485760405162461bcd60e51b815260206004820152603860248201527f555550535570677261646561626c653a206d757374206e6f742062652063616c60448201527f6c6564207468726f7567682064656c656761746563616c6c00000000000000006064820152608401610fdd565b507f360894a13ba1a3210667c828492db98dca3e2076cc3735a920a3ca505d382bbc90565b60606101cb805480602002602001604051908101604052809291908181526020016000905b82821015611bfa576000848152602090819020604080516080810182526003860290920180548352600180820154848601526002909101546001600160a01b03811692840192909252600160a01b90910460ff16151560608301529083529092019101611b92565b50505050905090565b611c0b613659565b6110de6000613e2a565b6001600160a01b038116600090815261012f6020526040812054610cd7565b600054610100900460ff1615808015611c545750600054600160ff909116105b80611c6e5750303b158015611c6e575060005460ff166001145b611ce05760405162461bcd60e51b815260206004820152602e60248201527f496e697469616c697a61626c653a20636f6e747261637420697320616c72656160448201527f647920696e697469616c697a65640000000000000000000000000000000000006064820152608401610fdd565b6000805460ff191660011790558015611d03576000805461ff0019166101001790555b611d0b613e7d565b611d13613ef0565b611d1b613f63565b80156114a5576000805461ff0019169055604051600181527f7f26b83ff96e1f2b6a682f133852f6798a09c465da95921460cefb38474024989060200160405180910390a150565b611d6b61398e565b6000611d7682613fce565b6101c8546040517f6352211e000000000000000000000000000000000000000000000000000000008152600481018690529192506000916001600160a01b0390911690636352211e90602401602060405180830381865afa158015611ddf573d6000803e3d6000fd5b505050506040513d601f19601f82011682018060405250810190611e039190615300565b90506001600160a01b0381163314611e835760405162461bcd60e51b815260206004820152603260248201527f596f7520646f206e6f74206f776e2074686520706c616e657420796f7520617260448201527f6520747279696e6720746f2062726565642e00000000000000000000000000006064820152608401610fdd565b816101c954611e9291906152da565b341015611f075760405162461bcd60e51b815260206004820152602a60248201527f496e73756666696369656e742066756e647320746f20636f766572205652462060448201527f616e642070726963652e000000000000000000000000000000000000000000006064820152608401610fdd565b33600080805b6101cb54811015611fb457866101cb8281548110611f2d57611f2d61523a565b90600052602060002090600302016000015403611fac576101cb8181548110611f5857611f5861523a565b906000526020600020906003020160020160009054906101000a90046001600160a01b031692506101cb8181548110611f9357611f9361523a565b9060005260206000209060030201600001549150611fb4565b600101611f0d565b5060006064611fc487605f61531d565b611fce9190615334565b90506000836001600160a01b03168260405160006040518083038185875af1925050503d806000811461201d576040519150601f19603f3d011682016040523d82523d6000602084013e612022565b606091505b50509050806120735760405162461bcd60e51b815260206004820152601460248201527f4661696c656420746f2073656e642045746865720000000000000000000000006044820152606401610fdd565b6101c6546101c9546040517f4e9e6a07000000000000000000000000000000000000000000000000000000008152600481018c9052602481018b9052600060448201526001600160a01b0390921691634e9e6a07919060640160206040518083038185885af11580156120ea573d6000803e3d6000fd5b50505050506040513d601f19601f8201168201806040525081019061210f9190615009565b506040805160e0810182526001600160a01b0380881680835260208084018e81526000858701818152606087018281528c87166080890190815260a089018d815260c08a018581528886526101cd88528b86208054600181810183559188528988208d516005909202018054918d166001600160a01b0319928316178155985191890191909155945160028801805495519451909b1662010000027fffffffffffffffffffff0000000000000000000000000000000000000000ffff9415156101000261ff00199215159290921661ffff199096169590951717929092169290921790975551600384015594516004909201919091558e81526101cc9091529390932080549091169092179091556101c95461222c9084906152da565b3411156122ed576000336001600160a01b0316846101c9543461224f91906152ed565b61225991906152ed565b604051600081818185875af1925050503d8060008114612295576040519150601f19603f3d011682016040523d82523d6000602084013e61229a565b606091505b50509050806122eb5760405162461bcd60e51b815260206004820152601d60248201527f4661696c656420746f20726566756e64206578636573732045746865720000006044820152606401610fdd565b505b604080518b81526001600160a01b0388811660208301528183018c90528716606082015290517f8557df6951fbdd47fe9027516fc896be40f285ed55a6acac460352adbab730cd9181900360800190a150505050505050505050565b60006060806000806000606060fb546000801b148015612369575060fc54155b6123b55760405162461bcd60e51b815260206004820152601560248201527f4549503731323a20556e696e697469616c697a656400000000000000000000006044820152606401610fdd565b6123bd61406f565b6123c561407e565b604080516000808252602082019092527f0f000000000000000000000000000000000000000000000000000000000000009b939a50919850469750309650945092509050565b6101ca602052816000526040600020818154811061242857600080fd5b60009182526020909120600390910201805460018201546002909201549093509091506001600160a01b03811690600160a01b900460ff1684565b600061016682815481106124795761247961523a565b6000918252602090912001546001600160a01b031692915050565b606060cd8054610c4090614fd5565b6000806124b06101635490565b6124ba90476152da565b90506124e683826124e1866001600160a01b03166000908152610165602052604090205490565b61408d565b9392505050565b33600081815260ca602090815260408083206001600160a01b03871684529091528120549091908381101561258a5760405162461bcd60e51b815260206004820152602560248201527f45524332303a2064656372656173656420616c6c6f77616e63652062656c6f7760448201527f207a65726f0000000000000000000000000000000000000000000000000000006064820152608401610fdd565b6111098286868403612eed565b600033610cd181858561379a565b6001600160a01b0382166000908152610167602052604081205481906040517f70a082310000000000000000000000000000000000000000000000000000000081523060048201526001600160a01b038616906370a0823190602401602060405180830381865afa15801561261e573d6000803e3d6000fd5b505050506040513d601f19601f820116820180604052508101906126429190615009565b61264c91906152da565b6001600160a01b0380861660009081526101686020908152604080832093881683529290522054909150610f64908490839061408d565b61268b613659565b61269361398e565b6101c955565b6126a161398e565b6101cb5482106126f35760405162461bcd60e51b815260206004820152601360248201527f496e646578206f7574206f6620626f756e6473000000000000000000000000006044820152606401610fdd565b600033905060006101cb848154811061270e5761270e61523a565b6000918252602091829020604080516080810182526003909302909101805483526001810154938301939093526002909201546001600160a01b03811692820183905260ff600160a01b90910416151560608201529150331461277057600080fd5b6040518060800160405280826000015181526020016000815260200182604001516001600160a01b03168152602001600015158152506101cb85815481106127ba576127ba61523a565b60009182526020808320845160039093020191825583810151600180840191909155604080860151600290940180546060909701511515600160a01b0274ffffffffffffffffffffffffffffffffffffffffff199097166001600160a01b0390951694909417959095179092553383526101ca90529190208054909161283f916152ed565b8154811061284f5761284f61523a565b90600052602060002090600302016101ca6000336001600160a01b03166001600160a01b0316815260200190815260200160002085815481106128945761289461523a565b60009182526020808320845460039093020191825560018085015490830155600293840180549490920180546001600160a01b031981166001600160a01b039096169586178255925460ff600160a01b918290041615150274ffffffffffffffffffffffffffffffffffffffffff19909316909417919091179092553381526101ca9091526040902080548061292c5761292c615356565b6000828152602081206003600019909301928302018181556001810191909155600201805474ffffffffffffffffffffffffffffffffffffffffff1916905590556129778383613b93565b506101c8548151604080516001600160a01b03808716825290931660208401528201527f0ece05e698e9e143fb75b2ad0aba7f141238c27b6d3e9728898183ee0d68498b90606001611a9a565b6129cc613659565b6129d461398e565b6101c780546001600160a01b0319166001600160a01b0392909216919091179055565b83421115612a475760405162461bcd60e51b815260206004820152601d60248201527f45524332305065726d69743a206578706972656420646561646c696e650000006044820152606401610fdd565b60007f6e71edae12b1b97f4d1f60370fef10105fa2faae0126114a169c64845d6126c9888888612a768c6140cd565b6040805160208101969096526001600160a01b0394851690860152929091166060840152608083015260a082015260c0810186905260e0016040516020818303038152906040528051906020012090506000612ad1826140f4565b90506000612ae18287878761413c565b9050896001600160a01b0316816001600160a01b031614612b445760405162461bcd60e51b815260206004820152601e60248201527f45524332305065726d69743a20696e76616c6964207369676e617475726500006044820152606401610fdd565b612b4f8a8a8a612eed565b50505050505050505050565b6001600160a01b03811660009081526101cd60209081526040808320805482518185028101850190935280835260609492939192909184015b82821015612c205760008481526020908190206040805160e0810182526005860290920180546001600160a01b03908116845260018083015485870152600283015460ff80821615159587019590955261010081049094161515606086015262010000909304166080840152600381015460a08401526004015460c08301529083529092019101612b94565b505050509050919050565b6101c8546040517fe985e9c50000000000000000000000000000000000000000000000000000000081526001600160a01b0384811660048301528381166024830152600092169063e985e9c590604401602060405180830381865afa158015612c98573d6000803e3d6000fd5b505050506040513d601f19601f820116820180604052508101906124e6919061536c565b6101cd6020528160005260406000208181548110612cd957600080fd5b6000918252602090912060059091020180546001820154600283015460038401546004909401546001600160a01b03938416965091945060ff80821694610100830490911693620100009092049091169187565b612d35613659565b6001600160a01b038116612db15760405162461bcd60e51b815260206004820152602660248201527f4f776e61626c653a206e6577206f776e657220697320746865207a65726f206160448201527f64647265737300000000000000000000000000000000000000000000000000006064820152608401610fdd565b6114a581613e2a565b612dc2613659565b6101c8546040517f23b872dd0000000000000000000000000000000000000000000000000000000081523060048201526001600160a01b03838116602483015260448201859052909116906323b872dd90606401600060405180830381600087803b158015612e3057600080fd5b505af1158015612e44573d6000803e3d6000fd5b505050505050565b6001600160a01b03811660009081526101ca60209081526040808320805482518185028101850190935280835260609492939192909184015b82821015612c20576000848152602090819020604080516080810182526003860290920180548352600180820154848601526002909101546001600160a01b03811692840192909252600160a01b90910460ff16151560608301529083529092019101612e85565b6001600160a01b038316612f685760405162461bcd60e51b8152602060048201526024808201527f45524332303a20617070726f76652066726f6d20746865207a65726f2061646460448201527f72657373000000000000000000000000000000000000000000000000000000006064820152608401610fdd565b6001600160a01b038216612fe45760405162461bcd60e51b815260206004820152602260248201527f45524332303a20617070726f766520746f20746865207a65726f20616464726560448201527f73730000000000000000000000000000000000000000000000000000000000006064820152608401610fdd565b6001600160a01b03838116600081815260ca602090815260408083209487168084529482529182902085905590518481527f8c5be1e5ebec7d5bd14f71427d1e84f3dd0314c0f7b2291e5b200ac8c7c3b925910160405180910390a3505050565b6114a5816040516024016130599190614a89565b60408051601f198184030181529190526020810180516001600160e01b03167f41304fac00000000000000000000000000000000000000000000000000000000179052614164565b604080516080808201835285825260208083018681526001600160a01b03868116858701818152600160608089018281526101cb8054808501825560009182528b5160039182027fe8bbfecd380c4167d6a1f763a233ec73e73f534b1970c4e1683f437ec23c1f4481019190915589517fe8bbfecd380c4167d6a1f763a233ec73e73f534b1970c4e1683f437ec23c1f4582015586517fe8bbfecd380c4167d6a1f763a233ec73e73f534b1970c4e1683f437ec23c1f46909101805485511515600160a01b90810274ffffffffffffffffffffffffffffffffffffffffff19928316948d1694909417939093179091559783526101ca8b528d832080548088018255908452928b90208d5193909202909101918255975193810193909355925160029092018054935115159096029290931690841617179092556101c854865133815291169281019290925293810187905292830185905290917fb30319a217488a3ed441c348e935a48d16091e33109bab0c79a353b9797528839101611a9a565b81516020808401516001600160a01b03831660009081526101cd9092526040909120541561337a5760005b6001600160a01b03831660009081526101cd6020526040902054811015613374576001600160a01b0383811660009081526101cd602052604090208054918416918390811061329f5761329f61523a565b60009182526020909120600590910201600201546201000090046001600160a01b03160361336c576001600160a01b03831660009081526101cd60205260409020805460019190839081106132f6576132f661523a565b906000526020600020906005020160020160016101000a81548160ff021916908315150217905550836101cd6000856001600160a01b03166001600160a01b0316815260200190815260200160002082815481106133565761335661523a565b9060005260206000209060050201600401819055505b60010161324e565b50613535565b6020808501516001600160a01b031660009081526101cd9091526040902054156134c75760005b6001600160a01b03821660009081526101cd6020526040902054811015613374576001600160a01b0382811660009081526101cd60205260409020805491851691839081106133f2576133f261523a565b60009182526020909120600590910201600201546201000090046001600160a01b0316036134bf576001600160a01b03821660009081526101cd60205260409020805460019190839081106134495761344961523a565b906000526020600020906005020160020160016101000a81548160ff021916908315150217905550836101cd6000846001600160a01b03166001600160a01b0316815260200190815260200160002082815481106134a9576134a961523a565b9060005260206000209060050201600401819055505b6001016133a1565b60405162461bcd60e51b815260206004820152602560248201527f706c616e65742073656e7420657272616e746c792c206e6f206f6e6520746f2060448201527f636c61696d0000000000000000000000000000000000000000000000000000006064820152608401610fdd565b50505050565b8047101561358b5760405162461bcd60e51b815260206004820152601d60248201527f416464726573733a20696e73756666696369656e742062616c616e63650000006044820152606401610fdd565b6000826001600160a01b03168260405160006040518083038185875af1925050503d80600081146135d8576040519150601f19603f3d011682016040523d82523d6000602084013e6135dd565b606091505b50509050806136545760405162461bcd60e51b815260206004820152603a60248201527f416464726573733a20756e61626c6520746f2073656e642076616c75652c207260448201527f6563697069656e74206d617920686176652072657665727465640000000000006064820152608401610fdd565b505050565b610194546001600160a01b031633146110de5760405162461bcd60e51b815260206004820181905260248201527f4f776e61626c653a2063616c6c6572206973206e6f7420746865206f776e65726044820152606401610fdd565b6136bc61398e565b6033805460ff191660011790557f62e78cea01bee320cd4e420270b5ea74000d11b0c9f74754ebdbfc544b05a2586136f13390565b6040516001600160a01b03909116815260200160405180910390a1565b6001600160a01b03838116600090815260ca60209081526040808320938616835292905220546000198114613535578181101561378d5760405162461bcd60e51b815260206004820152601d60248201527f45524332303a20696e73756666696369656e7420616c6c6f77616e63650000006044820152606401610fdd565b6135358484848403612eed565b6001600160a01b0383166138165760405162461bcd60e51b815260206004820152602560248201527f45524332303a207472616e736665722066726f6d20746865207a65726f20616460448201527f64726573730000000000000000000000000000000000000000000000000000006064820152608401610fdd565b6001600160a01b0382166138925760405162461bcd60e51b815260206004820152602360248201527f45524332303a207472616e7366657220746f20746865207a65726f206164647260448201527f65737300000000000000000000000000000000000000000000000000000000006064820152608401610fdd565b6001600160a01b038316600090815260c96020526040902054818110156139215760405162461bcd60e51b815260206004820152602660248201527f45524332303a207472616e7366657220616d6f756e742065786365656473206260448201527f616c616e636500000000000000000000000000000000000000000000000000006064820152608401610fdd565b6001600160a01b03808516600081815260c9602052604080822086860390559286168082529083902080548601905591517fddf252ad1be2c89b69c2b068fc378daa952ba7f163c4a11628f55a4df523b3ef906139819086815260200190565b60405180910390a3613535565b60335460ff16156110de5760405162461bcd60e51b815260206004820152601060248201527f5061757361626c653a20706175736564000000000000000000000000000000006044820152606401610fdd565b600061132861416d565b6114a5613659565b7f4910fdfa16fed3260ed0e7147f7cc6da11a60208b5b9406d12a635614ffd91435460ff1615613a2657613654836141e1565b826001600160a01b03166352d1902d6040518163ffffffff1660e01b8152600401602060405180830381865afa925050508015613a80575060408051601f3d908101601f19168201909252613a7d91810190615009565b60015b613af25760405162461bcd60e51b815260206004820152602e60248201527f45524331393637557067726164653a206e657720696d706c656d656e7461746960448201527f6f6e206973206e6f7420555550530000000000000000000000000000000000006064820152608401610fdd565b7f360894a13ba1a3210667c828492db98dca3e2076cc3735a920a3ca505d382bbc8114613b875760405162461bcd60e51b815260206004820152602960248201527f45524331393637557067726164653a20756e737570706f727465642070726f7860448201527f6961626c655555494400000000000000000000000000000000000000000000006064820152608401610fdd565b5061365483838361429f565b6101c8546040517f42842e0e0000000000000000000000000000000000000000000000000000000081523060048201526001600160a01b0383811660248301526044820185905260009216906342842e0e90606401600060405180830381600087803b158015613c0257600080fd5b505af1925050508015613c13575060015b613c1f57506000610cd7565b506001610cd7565b60008181526101cc60209081526040808320546001600160a01b03168084526101cd909252822090915b81548110156135355783828281548110613c6d57613c6d61523a565b90600052602060002090600502016004015403613cbf576001828281548110613c9857613c9861523a565b60009182526020909120600590910201600201805460ff1916911515919091179055613535565b600101613c51565b613ccf6142c4565b6033805460ff191690557f5db9ee0a495bf2e6ff9c91a7834c1ba4fdd244a5e8aa4e537bd38aeae4b073aa336136f1565b604080516001600160a01b038416602482015260448082018490528251808303909101815260649091019091526020810180516001600160e01b03167fa9059cbb00000000000000000000000000000000000000000000000000000000179052613654908490614316565b6040516001600160a01b03821660248201526114a59060440160408051601f198184030181529190526020810180516001600160e01b03167f2c2ecbc200000000000000000000000000000000000000000000000000000000179052614164565b6114a581604051602401613de291815260200190565b60408051601f198184030181529190526020810180516001600160e01b03167ff82c50f100000000000000000000000000000000000000000000000000000000179052614164565b61019480546001600160a01b038381166001600160a01b0319831681179093556040519116919082907f8be0079c531659141344cd1fd0a4f28419497f9722a3daafe3b4186f6b6457e090600090a35050565b600054610100900460ff16613ee85760405162461bcd60e51b815260206004820152602b60248201527f496e697469616c697a61626c653a20636f6e7472616374206973206e6f74206960448201526a6e697469616c697a696e6760a81b6064820152608401610fdd565b6110de6143fe565b600054610100900460ff16613f5b5760405162461bcd60e51b815260206004820152602b60248201527f496e697469616c697a61626c653a20636f6e7472616374206973206e6f74206960448201526a6e697469616c697a696e6760a81b6064820152608401610fdd565b6110de614472565b600054610100900460ff166110de5760405162461bcd60e51b815260206004820152602b60248201527f496e697469616c697a61626c653a20636f6e7472616374206973206e6f74206960448201526a6e697469616c697a696e6760a81b6064820152608401610fdd565b6000613fd861398e565b60005b6101cb5481101561406857826101cb8281548110613ffb57613ffb61523a565b90600052602060002090600302016000015403614040576101cb81815481106140265761402661523a565b906000526020600020906003020160010154915050919050565b6101cb54614050906001906152ed565b8103614060575060001992915050565b600101613fdb565b505b919050565b606060fd8054610c4090614fd5565b606060fe8054610c4090614fd5565b610162546001600160a01b03841660009081526101646020526040812054909183916140b9908661531d565b6140c39190615334565b610f6491906152ed565b6001600160a01b038116600090815261012f60205260409020805460018101825590614068565b6000610cd76141016139e1565b836040517f19010000000000000000000000000000000000000000000000000000000000008152600281019290925260228201526042902090565b600080600061414d878787876144e9565b9150915061415a816145ad565b5095945050505050565b6114a581614712565b60007f8b73c3c69bb8fe3d512ecc4cf759cc79239f7b179b0ffacaa9a75d522b39400f614198614733565b6141a061478c565b60408051602081019490945283019190915260608201524660808201523060a082015260c00160405160208183030381529060405280519060200120905090565b6001600160a01b0381163b61425e5760405162461bcd60e51b815260206004820152602d60248201527f455243313936373a206e657720696d706c656d656e746174696f6e206973206e60448201527f6f74206120636f6e7472616374000000000000000000000000000000000000006064820152608401610fdd565b7f360894a13ba1a3210667c828492db98dca3e2076cc3735a920a3ca505d382bbc80546001600160a01b0319166001600160a01b0392909216919091179055565b6142a8836147bd565b6000825111806142b55750805b156136545761353583836147fd565b60335460ff166110de5760405162461bcd60e51b815260206004820152601460248201527f5061757361626c653a206e6f74207061757365640000000000000000000000006044820152606401610fdd565b600061436b826040518060400160405280602081526020017f5361666545524332303a206c6f772d6c6576656c2063616c6c206661696c6564815250856001600160a01b03166148229092919063ffffffff16565b905080516000148061438c57508080602001905181019061438c919061536c565b6136545760405162461bcd60e51b815260206004820152602a60248201527f5361666545524332303a204552433230206f7065726174696f6e20646964206e60448201527f6f742073756363656564000000000000000000000000000000000000000000006064820152608401610fdd565b600054610100900460ff166144695760405162461bcd60e51b815260206004820152602b60248201527f496e697469616c697a61626c653a20636f6e7472616374206973206e6f74206960448201526a6e697469616c697a696e6760a81b6064820152608401610fdd565b6110de33613e2a565b600054610100900460ff166144dd5760405162461bcd60e51b815260206004820152602b60248201527f496e697469616c697a61626c653a20636f6e7472616374206973206e6f74206960448201526a6e697469616c697a696e6760a81b6064820152608401610fdd565b6033805460ff19169055565b6000807f7fffffffffffffffffffffffffffffff5d576e7357a4501ddfe92f46681b20a083111561452057506000905060036145a4565b6040805160008082526020820180845289905260ff881692820192909252606081018690526080810185905260019060a0016020604051602081039080840390855afa158015614574573d6000803e3d6000fd5b5050604051601f1901519150506001600160a01b03811661459d576000600192509250506145a4565b9150600090505b94509492505050565b60008160048111156145c1576145c1615387565b036145c95750565b60018160048111156145dd576145dd615387565b0361462a5760405162461bcd60e51b815260206004820152601860248201527f45434453413a20696e76616c6964207369676e617475726500000000000000006044820152606401610fdd565b600281600481111561463e5761463e615387565b0361468b5760405162461bcd60e51b815260206004820152601f60248201527f45434453413a20696e76616c6964207369676e6174757265206c656e677468006044820152606401610fdd565b600381600481111561469f5761469f615387565b036114a55760405162461bcd60e51b815260206004820152602260248201527f45434453413a20696e76616c6964207369676e6174757265202773272076616c60448201527f75650000000000000000000000000000000000000000000000000000000000006064820152608401610fdd565b60006a636f6e736f6c652e6c6f679050600080835160208501845afa505050565b60008061473e61406f565b805190915015614755578051602090910120919050565b60fb5480156147645792915050565b7fc5d2460186f7233c927e7db2dcc703c0e500b653ca82273b7bfad8045d85a4709250505090565b60008061479761407e565b8051909150156147ae578051602090910120919050565b60fc5480156147645792915050565b6147c6816141e1565b6040516001600160a01b038216907fbc7cd75a20ee27fd9adebab32041f755214dbc6bffa90cc0225b39da2e5c2d3b90600090a250565b60606124e683836040518060600160405280602781526020016153ba60279139614831565b6060610f6484846000856148a9565b6060600080856001600160a01b03168560405161484e919061539d565b600060405180830381855af49150503d8060008114614889576040519150601f19603f3d011682016040523d82523d6000602084013e61488e565b606091505b509150915061489f8683838761499b565b9695505050505050565b6060824710156149215760405162461bcd60e51b815260206004820152602660248201527f416464726573733a20696e73756666696369656e742062616c616e636520666f60448201527f722063616c6c00000000000000000000000000000000000000000000000000006064820152608401610fdd565b600080866001600160a01b0316858760405161493d919061539d565b60006040518083038185875af1925050503d806000811461497a576040519150601f19603f3d011682016040523d82523d6000602084013e61497f565b606091505b50915091506149908783838761499b565b979650505050505050565b60608315614a0a578251600003614a03576001600160a01b0385163b614a035760405162461bcd60e51b815260206004820152601d60248201527f416464726573733a2063616c6c20746f206e6f6e2d636f6e74726163740000006044820152606401610fdd565b5081610f64565b610f648383815115614a1f5781518083602001fd5b8060405162461bcd60e51b8152600401610fdd9190614a89565b60005b83811015614a54578181015183820152602001614a3c565b50506000910152565b60008151808452614a75816020860160208601614a39565b601f01601f19169290920160200192915050565b6020815260006124e66020830184614a5d565b6001600160a01b03811681146114a557600080fd5b60008060408385031215614ac457600080fd5b8235614acf81614a9c565b946020939093013593505050565b634e487b7160e01b600052604160045260246000fd5b604051610160810167ffffffffffffffff81118282101715614b1757614b17614add565b60405290565b604051601f8201601f1916810167ffffffffffffffff81118282101715614b4657614b46614add565b604052919050565b600082601f830112614b5f57600080fd5b813567ffffffffffffffff811115614b7957614b79614add565b614b8c601f8201601f1916602001614b1d565b818152846020838601011115614ba157600080fd5b816020850160208301376000918101602001919091529392505050565b60008060008060808587031215614bd457600080fd5b8435614bdf81614a9c565b93506020850135614bef81614a9c565b925060408501359150606085013567ffffffffffffffff811115614c1257600080fd5b614c1e87828801614b4e565b91505092959194509250565b600060208284031215614c3c57600080fd5b81356124e681614a9c565b600080600060608486031215614c5c57600080fd5b8335614c6781614a9c565b92506020840135614c7781614a9c565b929592945050506040919091013590565b60008060408385031215614c9b57600080fd5b50508035926020909101359150565b602080825282518282018190526000919060409081850190868401855b82811015614d0c578151805185528681015187860152858101516001600160a01b03168686015260609081015115159085015260809093019290850190600101614cc7565b5091979650505050505050565b600060208284031215614d2b57600080fd5b5035919050565b60008060408385031215614d4557600080fd5b823591506020830135614d5781614a9c565b809150509250929050565b60008060408385031215614d7557600080fd5b8235614d8081614a9c565b91506020830135614d5781614a9c565b600080600060608486031215614da557600080fd5b8335614db081614a9c565b9250602084013591506040840135614dc781614a9c565b809150509250925092565b60008060408385031215614de557600080fd5b8235614df081614a9c565b9150602083013567ffffffffffffffff811115614e0c57600080fd5b614e1885828601614b4e565b9150509250929050565b7fff00000000000000000000000000000000000000000000000000000000000000881681526000602060e06020840152614e5f60e084018a614a5d565b8381036040850152614e71818a614a5d565b606085018990526001600160a01b038816608086015260a0850187905284810360c08601528551808252602080880193509091019060005b81811015614ec557835183529284019291840191600101614ea9565b50909c9b505050505050505050505050565b600080600080600080600060e0888a031215614ef257600080fd5b8735614efd81614a9c565b96506020880135614f0d81614a9c565b95506040880135945060608801359350608088013560ff81168114614f3157600080fd5b9699959850939692959460a0840135945060c09093013592915050565b602080825282518282018190526000919060409081850190868401855b82811015614d0c57815180516001600160a01b0390811686528782015188870152868201511515878701526060808301511515908701526080808301519091169086015260a0808201519086015260c0908101519085015260e09093019290850190600101614f6b565b600181811c90821680614fe957607f821691505b60208210810361406857634e487b7160e01b600052602260045260246000fd5b60006020828403121561501b57600080fd5b5051919050565b60006001600160a01b03808716835280861660208401525083604083015260a0606083015261505460a0830184614a5d565b8281036080840152600e81527f6c697374696e6720706c616e657400000000000000000000000000000000000060208201526040810191505095945050505050565b600082601f8301126150a757600080fd5b8151602067ffffffffffffffff8211156150c3576150c3614add565b8160051b6150d2828201614b1d565b92835284810182019282810190878511156150ec57600080fd5b83870192505b84831015614990578251825291830191908301906150f2565b8051801515811461406a57600080fd5b6000806040838503121561512e57600080fd5b825167ffffffffffffffff8082111561514657600080fd5b90840190610160828703121561515b57600080fd5b615163614af3565b825181526020830151602082015260408301516040820152606083015160608201526080830151608082015260a083015160a082015260c083015160c082015260e083015160e082015261010080840151838111156151c157600080fd5b6151cd89828701615096565b82840152505061012080840151838111156151e757600080fd5b6151f389828701615096565b828401525050610140808401518381111561520d57600080fd5b61521989828701615096565b8284015250508094505050506152316020840161510b565b90509250929050565b634e487b7160e01b600052603260045260246000fd5b60006001600160a01b03808716835280861660208401525083604083015260a0606083015261528260a0830184614a5d565b8281036080840152600a81527f6e657720706c616e65740000000000000000000000000000000000000000000060208201526040810191505095945050505050565b634e487b7160e01b600052601160045260246000fd5b80820180821115610cd757610cd76152c4565b81810381811115610cd757610cd76152c4565b60006020828403121561531257600080fd5b81516124e681614a9c565b8082028115828204841417610cd757610cd76152c4565b60008261535157634e487b7160e01b600052601260045260246000fd5b500490565b634e487b7160e01b600052603160045260246000fd5b60006020828403121561537e57600080fd5b6124e68261510b565b634e487b7160e01b600052602160045260246000fd5b600082516153af818460208701614a39565b919091019291505056fe416464726573733a206c6f772d6c6576656c2064656c65676174652063616c6c206661696c6564a2646970667358221220802986f155598b08d70bb9f6380cc00b2c2a28c3714c779f29b2aa8c92014dc864736f6c63430008180033",
  "linkReferences": {},
  "deployedLinkReferences": {}
}