{
  "_format": "hh-sol-artifact-1",
  "contractName": "HatcherV2",
  "sourceName": "contracts/HatcherV2.sol",
  "abi": [
    {
      "inputs": [],
      "name": "Unauthorized",
      "type": "error"
    },
    {
      "anonymous": false,
      "inputs": [
        {
          "indexed": false,
          "internalType": "address",
          "name": "previousAdmin",
          "type": "address"
        },
        {
          "indexed": false,
          "internalType": "address",
          "name": "newAdmin",
          "type": "address"
        }
      ],
      "name": "AdminChanged",
      "type": "event"
    },
    {
      "anonymous": false,
      "inputs": [
        {
          "indexed": true,
          "internalType": "address",
          "name": "owner",
          "type": "address"
        },
        {
          "indexed": true,
          "internalType": "address",
          "name": "spender",
          "type": "address"
        },
        {
          "indexed": false,
          "internalType": "uint256",
          "name": "value",
          "type": "uint256"
        }
      ],
      "name": "Approval",
      "type": "event"
    },
    {
      "anonymous": false,
      "inputs": [
        {
          "indexed": true,
          "internalType": "address",
          "name": "beacon",
          "type": "address"
        }
      ],
      "name": "BeaconUpgraded",
      "type": "event"
    },
    {
      "anonymous": false,
      "inputs": [
        {
          "indexed": false,
          "internalType": "address",
          "name": "sentToUser",
          "type": "address"
        },
        {
          "indexed": false,
          "internalType": "address",
          "name": "token",
          "type": "address"
        },
        {
          "indexed": false,
          "internalType": "uint256",
          "name": "tokenId",
          "type": "uint256"
        }
      ],
      "name": "DeClaimedAPlanet",
      "type": "event"
    },
    {
      "anonymous": false,
      "inputs": [
        {
          "indexed": false,
          "internalType": "address",
          "name": "sentToUser",
          "type": "address"
        },
        {
          "indexed": false,
          "internalType": "address",
          "name": "token",
          "type": "address"
        },
        {
          "indexed": false,
          "internalType": "uint256",
          "name": "tokenId",
          "type": "uint256"
        }
      ],
      "name": "DeListedAPlanet",
      "type": "event"
    },
    {
      "anonymous": false,
      "inputs": [],
      "name": "EIP712DomainChanged",
      "type": "event"
    },
    {
      "anonymous": false,
      "inputs": [
        {
          "indexed": true,
          "internalType": "contract IERC20Upgradeable",
          "name": "token",
          "type": "address"
        },
        {
          "indexed": false,
          "internalType": "address",
          "name": "to",
          "type": "address"
        },
        {
          "indexed": false,
          "internalType": "uint256",
          "name": "amount",
          "type": "uint256"
        }
      ],
      "name": "ERC20PaymentReleased",
      "type": "event"
    },
    {
      "anonymous": false,
      "inputs": [
        {
          "indexed": false,
          "internalType": "uint8",
          "name": "version",
          "type": "uint8"
        }
      ],
      "name": "Initialized",
      "type": "event"
    },
    {
      "anonymous": false,
      "inputs": [
        {
          "indexed": false,
          "internalType": "address",
          "name": "sentFromUser",
          "type": "address"
        },
        {
          "indexed": false,
          "internalType": "address",
          "name": "token",
          "type": "address"
        },
        {
          "indexed": false,
          "internalType": "uint256",
          "name": "tokenId",
          "type": "uint256"
        },
        {
          "indexed": false,
          "internalType": "uint256",
          "name": "price",
          "type": "uint256"
        }
      ],
      "name": "ListedAPlanet",
      "type": "event"
    },
    {
      "anonymous": false,
      "inputs": [
        {
          "indexed": false,
          "internalType": "address",
          "name": "operator",
          "type": "address"
        },
        {
          "indexed": false,
          "internalType": "address",
          "name": "from",
          "type": "address"
        },
        {
          "indexed": false,
          "internalType": "uint256",
          "name": "tokenId",
          "type": "uint256"
        },
        {
          "indexed": false,
          "internalType": "bytes",
          "name": "data",
          "type": "bytes"
        },
        {
          "indexed": false,
          "internalType": "string",
          "name": "typeOfReceival",
          "type": "string"
        }
      ],
      "name": "NftReceived",
      "type": "event"
    },
    {
      "anonymous": false,
      "inputs": [
        {
          "indexed": true,
          "internalType": "address",
          "name": "previousOwner",
          "type": "address"
        },
        {
          "indexed": true,
          "internalType": "address",
          "name": "newOwner",
          "type": "address"
        }
      ],
      "name": "OwnershipTransferred",
      "type": "event"
    },
    {
      "anonymous": false,
      "inputs": [
        {
          "indexed": false,
          "internalType": "address",
          "name": "account",
          "type": "address"
        }
      ],
      "name": "Paused",
      "type": "event"
    },
    {
      "anonymous": false,
      "inputs": [
        {
          "indexed": false,
          "internalType": "address",
          "name": "account",
          "type": "address"
        },
        {
          "indexed": false,
          "internalType": "uint256",
          "name": "shares",
          "type": "uint256"
        }
      ],
      "name": "PayeeAdded",
      "type": "event"
    },
    {
      "anonymous": false,
      "inputs": [
        {
          "indexed": false,
          "internalType": "address",
          "name": "from",
          "type": "address"
        },
        {
          "indexed": false,
          "internalType": "uint256",
          "name": "amount",
          "type": "uint256"
        }
      ],
      "name": "PaymentReceived",
      "type": "event"
    },
    {
      "anonymous": false,
      "inputs": [
        {
          "indexed": false,
          "internalType": "address",
          "name": "to",
          "type": "address"
        },
        {
          "indexed": false,
          "internalType": "uint256",
          "name": "amount",
          "type": "uint256"
        }
      ],
      "name": "PaymentReleased",
      "type": "event"
    },
    {
      "anonymous": false,
      "inputs": [
        {
          "indexed": false,
          "internalType": "uint256",
          "name": "planetAsking",
          "type": "uint256"
        },
        {
          "indexed": false,
          "internalType": "address",
          "name": "askingUser",
          "type": "address"
        },
        {
          "indexed": false,
          "internalType": "uint256",
          "name": "planetJoining",
          "type": "uint256"
        },
        {
          "indexed": false,
          "internalType": "address",
          "name": "joiningUser",
          "type": "address"
        }
      ],
      "name": "PlanetsConjoining",
      "type": "event"
    },
    {
      "anonymous": false,
      "inputs": [
        {
          "indexed": true,
          "internalType": "address",
          "name": "from",
          "type": "address"
        },
        {
          "indexed": true,
          "internalType": "address",
          "name": "to",
          "type": "address"
        },
        {
          "indexed": false,
          "internalType": "uint256",
          "name": "value",
          "type": "uint256"
        }
      ],
      "name": "Transfer",
      "type": "event"
    },
    {
      "anonymous": false,
      "inputs": [
        {
          "indexed": false,
          "internalType": "address",
          "name": "account",
          "type": "address"
        }
      ],
      "name": "Unpaused",
      "type": "event"
    },
    {
      "anonymous": false,
      "inputs": [
        {
          "indexed": true,
          "internalType": "address",
          "name": "implementation",
          "type": "address"
        }
      ],
      "name": "Upgraded",
      "type": "event"
    },
    {
      "stateMutability": "payable",
      "type": "fallback"
    },
    {
      "inputs": [],
      "name": "DOMAIN_SEPARATOR",
      "outputs": [
        {
          "internalType": "bytes32",
          "name": "",
          "type": "bytes32"
        }
      ],
      "stateMutability": "view",
      "type": "function"
    },
    {
      "inputs": [
        {
          "internalType": "address",
          "name": "owner",
          "type": "address"
        },
        {
          "internalType": "address",
          "name": "spender",
          "type": "address"
        }
      ],
      "name": "allowance",
      "outputs": [
        {
          "internalType": "uint256",
          "name": "",
          "type": "uint256"
        }
      ],
      "stateMutability": "view",
      "type": "function"
    },
    {
      "inputs": [
        {
          "internalType": "address",
          "name": "spender",
          "type": "address"
        },
        {
          "internalType": "uint256",
          "name": "amount",
          "type": "uint256"
        }
      ],
      "name": "approve",
      "outputs": [
        {
          "internalType": "bool",
          "name": "",
          "type": "bool"
        }
      ],
      "stateMutability": "nonpayable",
      "type": "function"
    },
    {
      "inputs": [
        {
          "internalType": "address",
          "name": "operator",
          "type": "address"
        },
        {
          "internalType": "bool",
          "name": "approved",
          "type": "bool"
        }
      ],
      "name": "approveForAllAsOwner",
      "outputs": [],
      "stateMutability": "nonpayable",
      "type": "function"
    },
    {
      "inputs": [
        {
          "internalType": "address",
          "name": "account",
          "type": "address"
        }
      ],
      "name": "balanceOf",
      "outputs": [
        {
          "internalType": "uint256",
          "name": "",
          "type": "uint256"
        }
      ],
      "stateMutability": "view",
      "type": "function"
    },
    {
      "inputs": [],
      "name": "breedContract",
      "outputs": [
        {
          "internalType": "contract IBreedContract",
          "name": "",
          "type": "address"
        }
      ],
      "stateMutability": "view",
      "type": "function"
    },
    {
      "inputs": [
        {
          "internalType": "uint256",
          "name": "newVRF",
          "type": "uint256"
        }
      ],
      "name": "changeVRFValue",
      "outputs": [],
      "stateMutability": "nonpayable",
      "type": "function"
    },
    {
      "inputs": [
        {
          "internalType": "address",
          "name": "owner",
          "type": "address"
        },
        {
          "internalType": "address",
          "name": "operator",
          "type": "address"
        }
      ],
      "name": "checkApprovalForAll",
      "outputs": [
        {
          "internalType": "bool",
          "name": "",
          "type": "bool"
        }
      ],
      "stateMutability": "view",
      "type": "function"
    },
    {
      "inputs": [
        {
          "internalType": "uint256",
          "name": "claimableTokenId",
          "type": "uint256"
        }
      ],
      "name": "claimPlanet",
      "outputs": [],
      "stateMutability": "nonpayable",
      "type": "function"
    },
    {
      "inputs": [
        {
          "internalType": "address",
          "name": "",
          "type": "address"
        },
        {
          "internalType": "uint256",
          "name": "",
          "type": "uint256"
        }
      ],
      "name": "claimablePlanets",
      "outputs": [
        {
          "internalType": "address",
          "name": "ownerParentAddress",
          "type": "address"
        },
        {
          "internalType": "uint256",
          "name": "ownerTokenId",
          "type": "uint256"
        },
        {
          "internalType": "bool",
          "name": "delivered",
          "type": "bool"
        },
        {
          "internalType": "bool",
          "name": "arrived",
          "type": "bool"
        },
        {
          "internalType": "address",
          "name": "otherParent",
          "type": "address"
        },
        {
          "internalType": "uint256",
          "name": "otherTokenId",
          "type": "uint256"
        },
        {
          "internalType": "uint256",
          "name": "claimsTokenId",
          "type": "uint256"
        }
      ],
      "stateMutability": "view",
      "type": "function"
    },
    {
      "inputs": [
        {
          "internalType": "uint256",
          "name": "",
          "type": "uint256"
        }
      ],
      "name": "claimantTokenIdToOwnerAddress",
      "outputs": [
        {
          "internalType": "address",
          "name": "",
          "type": "address"
        }
      ],
      "stateMutability": "view",
      "type": "function"
    },
    {
      "inputs": [
        {
          "internalType": "uint256",
          "name": "yourPlanet",
          "type": "uint256"
        },
        {
          "internalType": "uint256",
          "name": "withListedPlanet",
          "type": "uint256"
        }
      ],
      "name": "conjunct",
      "outputs": [],
      "stateMutability": "payable",
      "type": "function"
    },
    {
      "inputs": [
        {
          "internalType": "uint256",
          "name": "idIndex",
          "type": "uint256"
        },
        {
          "internalType": "uint256",
          "name": "tokenId",
          "type": "uint256"
        }
      ],
      "name": "deList",
      "outputs": [],
      "stateMutability": "nonpayable",
      "type": "function"
    },
    {
      "inputs": [],
      "name": "deListAllYourPlanets",
      "outputs": [],
      "stateMutability": "nonpayable",
      "type": "function"
    },
    {
      "inputs": [],
      "name": "decimals",
      "outputs": [
        {
          "internalType": "uint8",
          "name": "",
          "type": "uint8"
        }
      ],
      "stateMutability": "view",
      "type": "function"
    },
    {
      "inputs": [
        {
          "internalType": "address",
          "name": "spender",
          "type": "address"
        },
        {
          "internalType": "uint256",
          "name": "subtractedValue",
          "type": "uint256"
        }
      ],
      "name": "decreaseAllowance",
      "outputs": [
        {
          "internalType": "bool",
          "name": "",
          "type": "bool"
        }
      ],
      "stateMutability": "nonpayable",
      "type": "function"
    },
    {
      "inputs": [],
      "name": "eip712Domain",
      "outputs": [
        {
          "internalType": "bytes1",
          "name": "fields",
          "type": "bytes1"
        },
        {
          "internalType": "string",
          "name": "name",
          "type": "string"
        },
        {
          "internalType": "string",
          "name": "version",
          "type": "string"
        },
        {
          "internalType": "uint256",
          "name": "chainId",
          "type": "uint256"
        },
        {
          "internalType": "address",
          "name": "verifyingContract",
          "type": "address"
        },
        {
          "internalType": "bytes32",
          "name": "salt",
          "type": "bytes32"
        },
        {
          "internalType": "uint256[]",
          "name": "extensions",
          "type": "uint256[]"
        }
      ],
      "stateMutability": "view",
      "type": "function"
    },
    {
      "inputs": [],
      "name": "getAllPlanets",
      "outputs": [
        {
          "components": [
            {
              "internalType": "uint256",
              "name": "tokenId",
              "type": "uint256"
            },
            {
              "internalType": "uint256",
              "name": "price",
              "type": "uint256"
            },
            {
              "internalType": "address",
              "name": "ownerAddress",
              "type": "address"
            },
            {
              "internalType": "bool",
              "name": "active",
              "type": "bool"
            }
          ],
          "internalType": "struct ListedPlanet[]",
          "name": "",
          "type": "tuple[]"
        }
      ],
      "stateMutability": "view",
      "type": "function"
    },
    {
      "inputs": [
        {
          "internalType": "address",
          "name": "userAddr",
          "type": "address"
        }
      ],
      "name": "getClaimablePlanetsFor",
      "outputs": [
        {
          "components": [
            {
              "internalType": "address",
              "name": "ownerParentAddress",
              "type": "address"
            },
            {
              "internalType": "uint256",
              "name": "ownerTokenId",
              "type": "uint256"
            },
            {
              "internalType": "bool",
              "name": "delivered",
              "type": "bool"
            },
            {
              "internalType": "bool",
              "name": "arrived",
              "type": "bool"
            },
            {
              "internalType": "address",
              "name": "otherParent",
              "type": "address"
            },
            {
              "internalType": "uint256",
              "name": "otherTokenId",
              "type": "uint256"
            },
            {
              "internalType": "uint256",
              "name": "claimsTokenId",
              "type": "uint256"
            }
          ],
          "internalType": "struct ClaimablePlanet[]",
          "name": "",
          "type": "tuple[]"
        }
      ],
      "stateMutability": "view",
      "type": "function"
    },
    {
      "inputs": [
        {
          "internalType": "uint256",
          "name": "claimableTokenId",
          "type": "uint256"
        }
      ],
      "name": "getClaimantTokenIdToOwnerAddress",
      "outputs": [
        {
          "internalType": "address",
          "name": "",
          "type": "address"
        }
      ],
      "stateMutability": "view",
      "type": "function"
    },
    {
      "inputs": [
        {
          "internalType": "uint256",
          "name": "startIndex",
          "type": "uint256"
        },
        {
          "internalType": "uint256",
          "name": "endIndex",
          "type": "uint256"
        }
      ],
      "name": "getPlanetsPaginated",
      "outputs": [
        {
          "components": [
            {
              "internalType": "uint256",
              "name": "tokenId",
              "type": "uint256"
            },
            {
              "internalType": "uint256",
              "name": "price",
              "type": "uint256"
            },
            {
              "internalType": "address",
              "name": "ownerAddress",
              "type": "address"
            },
            {
              "internalType": "bool",
              "name": "active",
              "type": "bool"
            }
          ],
          "internalType": "struct ListedPlanet[]",
          "name": "",
          "type": "tuple[]"
        }
      ],
      "stateMutability": "view",
      "type": "function"
    },
    {
      "inputs": [
        {
          "internalType": "address",
          "name": "userAddr",
          "type": "address"
        }
      ],
      "name": "getuserToListedPlanets",
      "outputs": [
        {
          "components": [
            {
              "internalType": "uint256",
              "name": "tokenId",
              "type": "uint256"
            },
            {
              "internalType": "uint256",
              "name": "price",
              "type": "uint256"
            },
            {
              "internalType": "address",
              "name": "ownerAddress",
              "type": "address"
            },
            {
              "internalType": "bool",
              "name": "active",
              "type": "bool"
            }
          ],
          "internalType": "struct ListedPlanet[]",
          "name": "",
          "type": "tuple[]"
        }
      ],
      "stateMutability": "view",
      "type": "function"
    },
    {
      "inputs": [
        {
          "internalType": "address",
          "name": "owner",
          "type": "address"
        },
        {
          "internalType": "uint256",
          "name": "tokenId",
          "type": "uint256"
        }
      ],
      "name": "hasPlanetArrived",
      "outputs": [
        {
          "internalType": "bool",
          "name": "arrived",
          "type": "bool"
        }
      ],
      "stateMutability": "view",
      "type": "function"
    },
    {
      "inputs": [
        {
          "internalType": "address",
          "name": "owner",
          "type": "address"
        },
        {
          "internalType": "uint256",
          "name": "tokenId",
          "type": "uint256"
        }
      ],
      "name": "hasPlanetBeenDelivered",
      "outputs": [
        {
          "internalType": "bool",
          "name": "delivered",
          "type": "bool"
        }
      ],
      "stateMutability": "view",
      "type": "function"
    },
    {
      "inputs": [
        {
          "internalType": "address",
          "name": "spender",
          "type": "address"
        },
        {
          "internalType": "uint256",
          "name": "addedValue",
          "type": "uint256"
        }
      ],
      "name": "increaseAllowance",
      "outputs": [
        {
          "internalType": "bool",
          "name": "",
          "type": "bool"
        }
      ],
      "stateMutability": "nonpayable",
      "type": "function"
    },
    {
      "inputs": [
        {
          "internalType": "address",
          "name": "initialOwner",
          "type": "address"
        }
      ],
      "name": "initialize",
      "outputs": [],
      "stateMutability": "nonpayable",
      "type": "function"
    },
    {
      "inputs": [],
      "name": "listAllYourPlanets",
      "outputs": [],
      "stateMutability": "nonpayable",
      "type": "function"
    },
    {
      "inputs": [],
      "name": "name",
      "outputs": [
        {
          "internalType": "string",
          "name": "",
          "type": "string"
        }
      ],
      "stateMutability": "view",
      "type": "function"
    },
    {
      "inputs": [
        {
          "internalType": "address",
          "name": "owner",
          "type": "address"
        }
      ],
      "name": "nonces",
      "outputs": [
        {
          "internalType": "uint256",
          "name": "",
          "type": "uint256"
        }
      ],
      "stateMutability": "view",
      "type": "function"
    },
    {
      "inputs": [
        {
          "internalType": "address",
          "name": "operator",
          "type": "address"
        },
        {
          "internalType": "address",
          "name": "from",
          "type": "address"
        },
        {
          "internalType": "uint256",
          "name": "tokenId",
          "type": "uint256"
        },
        {
          "internalType": "bytes",
          "name": "data",
          "type": "bytes"
        }
      ],
      "name": "onERC721Received",
      "outputs": [
        {
          "internalType": "bytes4",
          "name": "",
          "type": "bytes4"
        }
      ],
      "stateMutability": "nonpayable",
      "type": "function"
    },
    {
      "inputs": [],
      "name": "owner",
      "outputs": [
        {
          "internalType": "address",
          "name": "",
          "type": "address"
        }
      ],
      "stateMutability": "view",
      "type": "function"
    },
    {
      "inputs": [
        {
          "internalType": "uint256",
          "name": "claimableTokenId",
          "type": "uint256"
        },
        {
          "internalType": "address",
          "name": "sendToAddr",
          "type": "address"
        }
      ],
      "name": "ownerClaimPlanet",
      "outputs": [],
      "stateMutability": "nonpayable",
      "type": "function"
    },
    {
      "inputs": [
        {
          "internalType": "uint256",
          "name": "tokenId",
          "type": "uint256"
        },
        {
          "internalType": "address",
          "name": "destinationAddr",
          "type": "address"
        }
      ],
      "name": "ownerOverrideSendNFT",
      "outputs": [],
      "stateMutability": "nonpayable",
      "type": "function"
    },
    {
      "inputs": [],
      "name": "pause",
      "outputs": [],
      "stateMutability": "nonpayable",
      "type": "function"
    },
    {
      "inputs": [],
      "name": "paused",
      "outputs": [
        {
          "internalType": "bool",
          "name": "",
          "type": "bool"
        }
      ],
      "stateMutability": "view",
      "type": "function"
    },
    {
      "inputs": [
        {
          "internalType": "uint256",
          "name": "index",
          "type": "uint256"
        }
      ],
      "name": "payee",
      "outputs": [
        {
          "internalType": "address",
          "name": "",
          "type": "address"
        }
      ],
      "stateMutability": "view",
      "type": "function"
    },
    {
      "inputs": [
        {
          "internalType": "address",
          "name": "owner",
          "type": "address"
        },
        {
          "internalType": "address",
          "name": "spender",
          "type": "address"
        },
        {
          "internalType": "uint256",
          "name": "value",
          "type": "uint256"
        },
        {
          "internalType": "uint256",
          "name": "deadline",
          "type": "uint256"
        },
        {
          "internalType": "uint8",
          "name": "v",
          "type": "uint8"
        },
        {
          "internalType": "bytes32",
          "name": "r",
          "type": "bytes32"
        },
        {
          "internalType": "bytes32",
          "name": "s",
          "type": "bytes32"
        }
      ],
      "name": "permit",
      "outputs": [],
      "stateMutability": "nonpayable",
      "type": "function"
    },
    {
      "inputs": [],
      "name": "proxiableUUID",
      "outputs": [
        {
          "internalType": "bytes32",
          "name": "",
          "type": "bytes32"
        }
      ],
      "stateMutability": "view",
      "type": "function"
    },
    {
      "inputs": [
        {
          "internalType": "address",
          "name": "account",
          "type": "address"
        }
      ],
      "name": "releasable",
      "outputs": [
        {
          "internalType": "uint256",
          "name": "",
          "type": "uint256"
        }
      ],
      "stateMutability": "view",
      "type": "function"
    },
    {
      "inputs": [
        {
          "internalType": "contract IERC20Upgradeable",
          "name": "token",
          "type": "address"
        },
        {
          "internalType": "address",
          "name": "account",
          "type": "address"
        }
      ],
      "name": "releasable",
      "outputs": [
        {
          "internalType": "uint256",
          "name": "",
          "type": "uint256"
        }
      ],
      "stateMutability": "view",
      "type": "function"
    },
    {
      "inputs": [
        {
          "internalType": "address payable",
          "name": "account",
          "type": "address"
        }
      ],
      "name": "release",
      "outputs": [],
      "stateMutability": "nonpayable",
      "type": "function"
    },
    {
      "inputs": [
        {
          "internalType": "contract IERC20Upgradeable",
          "name": "token",
          "type": "address"
        },
        {
          "internalType": "address",
          "name": "account",
          "type": "address"
        }
      ],
      "name": "release",
      "outputs": [],
      "stateMutability": "nonpayable",
      "type": "function"
    },
    {
      "inputs": [
        {
          "internalType": "contract IERC20Upgradeable",
          "name": "token",
          "type": "address"
        },
        {
          "internalType": "address",
          "name": "account",
          "type": "address"
        }
      ],
      "name": "released",
      "outputs": [
        {
          "internalType": "uint256",
          "name": "",
          "type": "uint256"
        }
      ],
      "stateMutability": "view",
      "type": "function"
    },
    {
      "inputs": [
        {
          "internalType": "address",
          "name": "account",
          "type": "address"
        }
      ],
      "name": "released",
      "outputs": [
        {
          "internalType": "uint256",
          "name": "",
          "type": "uint256"
        }
      ],
      "stateMutability": "view",
      "type": "function"
    },
    {
      "inputs": [],
      "name": "renounceOwnership",
      "outputs": [],
      "stateMutability": "nonpayable",
      "type": "function"
    },
    {
      "inputs": [
        {
          "internalType": "address",
          "name": "_breederContractAddr",
          "type": "address"
        },
        {
          "internalType": "uint256",
          "name": "_vrfValue",
          "type": "uint256"
        },
        {
          "internalType": "address",
          "name": "_nftContractAddr",
          "type": "address"
        }
      ],
      "name": "setAllOf",
      "outputs": [],
      "stateMutability": "nonpayable",
      "type": "function"
    },
    {
      "inputs": [
        {
          "internalType": "uint256",
          "name": "_toThisPercentage",
          "type": "uint256"
        }
      ],
      "name": "setMktFee",
      "outputs": [],
      "stateMutability": "nonpayable",
      "type": "function"
    },
    {
      "inputs": [
        {
          "internalType": "address payable",
          "name": "newTAdd",
          "type": "address"
        }
      ],
      "name": "setTAdd",
      "outputs": [],
      "stateMutability": "nonpayable",
      "type": "function"
    },
    {
      "inputs": [
        {
          "internalType": "address",
          "name": "account",
          "type": "address"
        }
      ],
      "name": "shares",
      "outputs": [
        {
          "internalType": "uint256",
          "name": "",
          "type": "uint256"
        }
      ],
      "stateMutability": "view",
      "type": "function"
    },
    {
      "inputs": [],
      "name": "status",
      "outputs": [],
      "stateMutability": "nonpayable",
      "type": "function"
    },
    {
      "inputs": [],
      "name": "symbol",
      "outputs": [
        {
          "internalType": "string",
          "name": "",
          "type": "string"
        }
      ],
      "stateMutability": "view",
      "type": "function"
    },
    {
      "inputs": [
        {
          "internalType": "contract IERC20Upgradeable",
          "name": "token",
          "type": "address"
        }
      ],
      "name": "totalReleased",
      "outputs": [
        {
          "internalType": "uint256",
          "name": "",
          "type": "uint256"
        }
      ],
      "stateMutability": "view",
      "type": "function"
    },
    {
      "inputs": [],
      "name": "totalReleased",
      "outputs": [
        {
          "internalType": "uint256",
          "name": "",
          "type": "uint256"
        }
      ],
      "stateMutability": "view",
      "type": "function"
    },
    {
      "inputs": [],
      "name": "totalShares",
      "outputs": [
        {
          "internalType": "uint256",
          "name": "",
          "type": "uint256"
        }
      ],
      "stateMutability": "view",
      "type": "function"
    },
    {
      "inputs": [],
      "name": "totalSupply",
      "outputs": [
        {
          "internalType": "uint256",
          "name": "",
          "type": "uint256"
        }
      ],
      "stateMutability": "view",
      "type": "function"
    },
    {
      "inputs": [
        {
          "internalType": "address",
          "name": "to",
          "type": "address"
        },
        {
          "internalType": "uint256",
          "name": "amount",
          "type": "uint256"
        }
      ],
      "name": "transfer",
      "outputs": [
        {
          "internalType": "bool",
          "name": "",
          "type": "bool"
        }
      ],
      "stateMutability": "nonpayable",
      "type": "function"
    },
    {
      "inputs": [
        {
          "internalType": "address",
          "name": "from",
          "type": "address"
        },
        {
          "internalType": "address",
          "name": "to",
          "type": "address"
        },
        {
          "internalType": "uint256",
          "name": "amount",
          "type": "uint256"
        }
      ],
      "name": "transferFrom",
      "outputs": [
        {
          "internalType": "bool",
          "name": "",
          "type": "bool"
        }
      ],
      "stateMutability": "nonpayable",
      "type": "function"
    },
    {
      "inputs": [
        {
          "internalType": "address",
          "name": "newOwner",
          "type": "address"
        }
      ],
      "name": "transferOwnership",
      "outputs": [],
      "stateMutability": "nonpayable",
      "type": "function"
    },
    {
      "inputs": [],
      "name": "unpause",
      "outputs": [],
      "stateMutability": "nonpayable",
      "type": "function"
    },
    {
      "inputs": [
        {
          "internalType": "address",
          "name": "newImplementation",
          "type": "address"
        }
      ],
      "name": "upgradeTo",
      "outputs": [],
      "stateMutability": "nonpayable",
      "type": "function"
    },
    {
      "inputs": [
        {
          "internalType": "address",
          "name": "newImplementation",
          "type": "address"
        },
        {
          "internalType": "bytes",
          "name": "data",
          "type": "bytes"
        }
      ],
      "name": "upgradeToAndCall",
      "outputs": [],
      "stateMutability": "payable",
      "type": "function"
    },
    {
      "inputs": [
        {
          "internalType": "address",
          "name": "",
          "type": "address"
        },
        {
          "internalType": "uint256",
          "name": "",
          "type": "uint256"
        }
      ],
      "name": "userToListedPlanets",
      "outputs": [
        {
          "internalType": "uint256",
          "name": "tokenId",
          "type": "uint256"
        },
        {
          "internalType": "uint256",
          "name": "price",
          "type": "uint256"
        },
        {
          "internalType": "address",
          "name": "ownerAddress",
          "type": "address"
        },
        {
          "internalType": "bool",
          "name": "active",
          "type": "bool"
        }
      ],
      "stateMutability": "view",
      "type": "function"
    },
    {
      "inputs": [
        {
          "internalType": "address",
          "name": "userAddress",
          "type": "address"
        }
      ],
      "name": "usersClaims",
      "outputs": [
        {
          "components": [
            {
              "internalType": "address",
              "name": "ownerParentAddress",
              "type": "address"
            },
            {
              "internalType": "uint256",
              "name": "ownerTokenId",
              "type": "uint256"
            },
            {
              "internalType": "bool",
              "name": "delivered",
              "type": "bool"
            },
            {
              "internalType": "bool",
              "name": "arrived",
              "type": "bool"
            },
            {
              "internalType": "address",
              "name": "otherParent",
              "type": "address"
            },
            {
              "internalType": "uint256",
              "name": "otherTokenId",
              "type": "uint256"
            },
            {
              "internalType": "uint256",
              "name": "claimsTokenId",
              "type": "uint256"
            }
          ],
          "internalType": "struct ClaimablePlanet[]",
          "name": "",
          "type": "tuple[]"
        }
      ],
      "stateMutability": "view",
      "type": "function"
    },
    {
      "inputs": [],
      "name": "withdrawFunds",
      "outputs": [],
      "stateMutability": "nonpayable",
      "type": "function"
    },
    {
      "stateMutability": "payable",
      "type": "receive"
    }
  ],
  "bytecode": "0x60a06040523060805234801561001457600080fd5b5060805161599b6200004d6000396000818161144c015281816114d101528181611893015281816119180152611bd8015261599b6000f3fe6080604052600436106103975760003560e01c80638230a784116101da578063cdb82a3711610101578063e22aecb41161009a578063f4c149431161006c578063f4c1494314610c11578063fdb4087514610c31578063fde4976714610c51578063fe79222914610abc57005b8063e22aecb414610b4f578063e33b7de314610bba578063ee6e3a2314610bd0578063f2fde38b14610bf157005b8063d79779b2116100d3578063d79779b214610a85578063dbb774d814610abc578063dd22a9c714610ae9578063dd62ed3e14610b0957005b8063cdb82a37146109ee578063ce7c2ac214610a0e578063d28eb2dc14610a45578063d505accf14610a6557005b8063a3f8eace11610173578063c45ac05011610145578063c45ac0501461096e578063c4d66de81461098e578063c7c0e6b1146109ae578063cbdf1b5a146109ce57005b8063a3f8eace146108d7578063a457c2d7146108f7578063a9059cbb14610917578063bd83dc051461093757005b80638b83209b116101ac5780638b83209b1461084c5780638da5cb5b1461086c57806395d89b411461088b5780639852595c146108a057005b80638230a784146107c05780638456cb59146104b757806384b0196e146107d357806385fe7243146107fb57005b80633a7fb03d116102be57806350842cf3116102575780636a23befb116102295780636a23befb1461074057806370a0823114610755578063715018a61461078b5780637ecebe00146107a057005b806350842cf31461048b5780635270ad6c146106f357806352d1902d146107135780635c975abb1461072857005b806348b750441161029057806348b75044146106805780634a02099b146106a05780634d950449146106c05780634f1ef286146106e057005b80633a7fb03d146105ee5780633a98ef391461060e5780633f4ba83a14610624578063406072a91461063957005b806323b872dd1161033057806334ae54e91161030257806334ae54e91461054a5780633644e515146105995780633659cfe6146105ae57806339509351146105ce57005b806323b872dd146104cc57806324600fc3146104ec5780632594781814610501578063313ce5671461052e57005b80631916558711610369578063191655871461046b5780631ac9a91e1461048b5780631dd320ea14610497578063200d2ed2146104b757005b806306fdde03146103a0578063095ea7b3146103cb578063150b7a02146103fb57806318160ddd1461044c57005b3661039e57005b005b3480156103ac57600080fd5b506103b5610c71565b6040516103c29190614f61565b60405180910390f35b3480156103d757600080fd5b506103eb6103e6366004614f89565b610d03565b60405190151581526020016103c2565b34801561040757600080fd5b5061041b610416366004615096565b610d1d565b6040517fffffffff0000000000000000000000000000000000000000000000000000000090911681526020016103c2565b34801561045857600080fd5b5060cb545b6040519081526020016103c2565b34801561047757600080fd5b5061039e610486366004615102565b610fae565b34801561039e57600080fd5b3480156104a357600080fd5b506103eb6104b2366004614f89565b611123565b3480156104c357600080fd5b5061039e6111f5565b3480156104d857600080fd5b506103eb6104e736600461511f565b611205565b3480156104f857600080fd5b5061039e611229565b34801561050d57600080fd5b5061052161051c366004615160565b61126b565b6040516103c29190615182565b34801561053a57600080fd5b50604051601281526020016103c2565b34801561055657600080fd5b506105816105653660046151f1565b6101cc602052600090815260409020546001600160a01b031681565b6040516001600160a01b0390911681526020016103c2565b3480156105a557600080fd5b5061045d611433565b3480156105ba57600080fd5b5061039e6105c9366004615102565b611442565b3480156105da57600080fd5b506103eb6105e9366004614f89565b6115bd565b3480156105fa57600080fd5b5061039e61060936600461520a565b6115fc565b34801561061a57600080fd5b506101625461045d565b34801561063057600080fd5b5061039e61168d565b34801561064557600080fd5b5061045d61065436600461523a565b6001600160a01b0391821660009081526101686020908152604080832093909416825291909152205490565b34801561068c57600080fd5b5061039e61069b36600461523a565b61169d565b3480156106ac57600080fd5b5061039e6106bb366004615268565b611834565b3480156106cc57600080fd5b5061039e6106db3660046151f1565b61187b565b61039e6106ee3660046152aa565b611889565b3480156106ff57600080fd5b5061039e61070e3660046151f1565b6119f1565b34801561071f57600080fd5b5061045d611bcb565b34801561073457600080fd5b5060335460ff166103eb565b34801561074c57600080fd5b50610521611c90565b34801561076157600080fd5b5061045d610770366004615102565b6001600160a01b0316600090815260c9602052604090205490565b34801561079757600080fd5b5061039e611d26565b3480156107ac57600080fd5b5061045d6107bb366004615102565b611d38565b61039e6107ce366004615160565b611d57565b3480156107df57600080fd5b506107e8612602565b6040516103c297969594939291906152fa565b34801561080757600080fd5b5061081b610816366004614f89565b6126c4565b6040516103c2949392919093845260208401929092526001600160a01b031660408301521515606082015260800190565b34801561085857600080fd5b506105816108673660046151f1565b61271c565b34801561087857600080fd5b50610194546001600160a01b0316610581565b34801561089757600080fd5b506103b561274d565b3480156108ac57600080fd5b5061045d6108bb366004615102565b6001600160a01b03166000908152610165602052604090205490565b3480156108e357600080fd5b5061045d6108f2366004615102565b61275c565b34801561090357600080fd5b506103eb610912366004614f89565b6127a6565b34801561092357600080fd5b506103eb610932366004614f89565b612850565b34801561094357600080fd5b506105816109523660046151f1565b60009081526101cc60205260409020546001600160a01b031690565b34801561097a57600080fd5b5061045d61098936600461523a565b61285e565b34801561099a57600080fd5b5061039e6109a9366004615102565b61293c565b3480156109ba57600080fd5b5061039e6109c93660046151f1565b612a6e565b3480156109da57600080fd5b5061039e6109e9366004615160565b612a84565b3480156109fa57600080fd5b5061039e610a09366004615102565b612daf565b348015610a1a57600080fd5b5061045d610a29366004615102565b6001600160a01b03166000908152610164602052604090205490565b348015610a5157600080fd5b5061039e610a603660046153bd565b612de2565b348015610a7157600080fd5b5061039e610a803660046153eb565b612e70565b348015610a9157600080fd5b5061045d610aa0366004615102565b6001600160a01b03166000908152610167602052604090205490565b348015610ac857600080fd5b50610adc610ad7366004615102565b612fd4565b6040516103c29190615462565b348015610af557600080fd5b506103eb610b0436600461523a565b6130a4565b348015610b1557600080fd5b5061045d610b2436600461523a565b6001600160a01b03918216600090815260ca6020908152604080832093909416825291909152205490565b348015610b5b57600080fd5b50610b6f610b6a366004614f89565b613135565b604080516001600160a01b0398891681526020810197909752941515948601949094529115156060850152909316608083015260a082019290925260c081019190915260e0016103c2565b348015610bc657600080fd5b506101635461045d565b348015610bdc57600080fd5b506101c654610581906001600160a01b031681565b348015610bfd57600080fd5b5061039e610c0c366004615102565b6131a6565b348015610c1d57600080fd5b506103eb610c2c366004614f89565b613233565b348015610c3d57600080fd5b5061039e610c4c36600461520a565b6132c3565b348015610c5d57600080fd5b50610521610c6c366004615102565b613324565b606060cc8054610c80906154e9565b80601f0160208091040260200160405190810160405280929190818152602001828054610cac906154e9565b8015610cf95780601f10610cce57610100808354040283529160200191610cf9565b820191906000526020600020905b815481529060010190602001808311610cdc57829003601f168201915b5050505050905090565b600033610d118185856133c5565b60019150505b92915050565b6000808251118015610d3a57506101c8546001600160a01b031633145b15610da557600082806020019051810190610d55919061551d565b9050610d6284828761351d565b7f13c6ec2a463a35f898a457814a782f1f567808293fa783a31fa4dac8868e601186868686604051610d979493929190615536565b60405180910390a150610f83565b6101c8546001600160a01b03163303610f45576101c8546040517fdc9ce7a5000000000000000000000000000000000000000000000000000000008152600481018590526000916001600160a01b03169063dc9ce7a590602401600060405180830381865afa158015610e1c573d6000803e3d6000fd5b505050506040513d6000823e601f3d908101601f19168201604052610e44919081019061562a565b50905060008161012001519050600085905060006101cc600084600081518110610e7057610e70615749565b6020026020010151815260200190815260200160002060009054906101000a90046001600160a01b0316905060006101cc600085600181518110610eb657610eb6615749565b60209081029190910181015182528181019290925260409081016000205481518083019092526001600160a01b03858116835216918101829052909150610efd818561369f565b7f13c6ec2a463a35f898a457814a782f1f567808293fa783a31fa4dac8868e60118b8b8b8b604051610f32949392919061575f565b60405180910390a1505050505050610f83565b7f13c6ec2a463a35f898a457814a782f1f567808293fa783a31fa4dac8868e601185858585604051610f7a94939291906157d3565b60405180910390a15b507f150b7a02000000000000000000000000000000000000000000000000000000005b949350505050565b6001600160a01b038116600090815261016460205260409020546110285760405162461bcd60e51b815260206004820152602660248201527f5061796d656e7453706c69747465723a206163636f756e7420686173206e6f2060448201526573686172657360d01b60648201526084015b60405180910390fd5b60006110338261275c565b9050806000036110995760405162461bcd60e51b815260206004820152602b60248201527f5061796d656e7453706c69747465723a206163636f756e74206973206e6f742060448201526a191d59481c185e5b595b9d60aa1b606482015260840161101f565b8061016360008282546110ac919061585d565b90915550506001600160a01b0382166000908152610165602052604090208054820190556110da82826139b7565b604080516001600160a01b0384168152602081018390527fdf20fd1e76bc69d672e4814fafb2c449bba3a5369d8359adf9e05e6fde87b05691015b60405180910390a15050565b565b6001600160a01b03821660009081526101cd60205260408120815b81548110156111ac578382828154811061115a5761115a615749565b906000526020600020906005020160040154036111a45781818154811061118357611183615749565b600091825260209091206002600590920201015460ff169250610d17915050565b60010161113e565b5060405162461bcd60e51b815260206004820152601060248201527f506c616e6574206e6f7420666f756e6400000000000000000000000000000000604482015260640161101f565b6111fd613ad5565b611121613b30565b600033611213858285613b8a565b61121e858585613c16565b506001949350505050565b611231613ad5565b611239613e0a565b604051339081904780156108fc02916000818181858888f19350505050158015611267573d6000803e3d6000fd5b5050565b60608282116112bc5760405162461bcd60e51b815260206004820152600d60248201527f496e76616c696420696e64657800000000000000000000000000000000000000604482015260640161101f565b6101cb5482111561130f5760405162461bcd60e51b815260206004820152601360248201527f496e646578206f7574206f6620626f756e647300000000000000000000000000604482015260640161101f565b600061131b8484615870565b67ffffffffffffffff81111561133357611333614fb5565b60405190808252806020026020018201604052801561138557816020015b6040805160808101825260008082526020808301829052928201819052606082015282526000199092019101816113515790505b509050835b8381101561142b576101cb81815481106113a6576113a6615749565b600091825260209182902060408051608081018252600393909302909101805483526001810154938301939093526002909201546001600160a01b03811692820192909252600160a01b90910460ff1615156060820152826114088784615870565b8151811061141857611418615749565b602090810291909101015260010161138a565b509392505050565b600061143d613e5d565b905090565b6001600160a01b037f00000000000000000000000000000000000000000000000000000000000000001630036114cf5760405162461bcd60e51b815260206004820152602c60248201527f46756e6374696f6e206d7573742062652063616c6c6564207468726f7567682060448201526b19195b1959d85d1958d85b1b60a21b606482015260840161101f565b7f00000000000000000000000000000000000000000000000000000000000000006001600160a01b031661152a7f360894a13ba1a3210667c828492db98dca3e2076cc3735a920a3ca505d382bbc546001600160a01b031690565b6001600160a01b0316146115955760405162461bcd60e51b815260206004820152602c60248201527f46756e6374696f6e206d7573742062652063616c6c6564207468726f7567682060448201526b6163746976652070726f787960a01b606482015260840161101f565b61159e81613e67565b604080516000808252602082019092526115ba91839190613e6f565b50565b33600081815260ca602090815260408083206001600160a01b0387168452909152812054909190610d1190829086906115f790879061585d565b6133c5565b611604613ad5565b61160c613e0a565b60008281526101cc60205260409020546001600160a01b031661162f838261400f565b50611639836140a3565b6101c854604080516001600160a01b038086168252909216602083015281018490527ffbabfabc293b9daf3d9f8a42d485f10715027db90fd73abbe4ae4b4424decd049060600160405180910390a1505050565b611695613ad5565b611121614143565b6001600160a01b038116600090815261016460205260409020546117125760405162461bcd60e51b815260206004820152602660248201527f5061796d656e7453706c69747465723a206163636f756e7420686173206e6f2060448201526573686172657360d01b606482015260840161101f565b600061171e838361285e565b9050806000036117845760405162461bcd60e51b815260206004820152602b60248201527f5061796d656e7453706c69747465723a206163636f756e74206973206e6f742060448201526a191d59481c185e5b595b9d60aa1b606482015260840161101f565b6001600160a01b03831660009081526101676020526040812080548392906117ad90849061585d565b90915550506001600160a01b038084166000908152610168602090815260408083209386168352929052208054820190556117e983838361417c565b604080516001600160a01b038481168252602082018490528516917f3be5b7a71e84ed12875d241991c70855ac5817d847039e17a9d895c1ceb0f18a910160405180910390a2505050565b61183c613ad5565b611844613e0a565b6101c9919091556101c680546001600160a01b039384166001600160a01b0319918216179091556101c88054929093169116179055565b611883613ad5565b6101ce55565b6001600160a01b037f00000000000000000000000000000000000000000000000000000000000000001630036119165760405162461bcd60e51b815260206004820152602c60248201527f46756e6374696f6e206d7573742062652063616c6c6564207468726f7567682060448201526b19195b1959d85d1958d85b1b60a21b606482015260840161101f565b7f00000000000000000000000000000000000000000000000000000000000000006001600160a01b03166119717f360894a13ba1a3210667c828492db98dca3e2076cc3735a920a3ca505d382bbc546001600160a01b031690565b6001600160a01b0316146119dc5760405162461bcd60e51b815260206004820152602c60248201527f46756e6374696f6e206d7573742062652063616c6c6564207468726f7567682060448201526b6163746976652070726f787960a01b606482015260840161101f565b6119e582613e67565b61126782826001613e6f565b6119f9613e0a565b60008181526101cc602052604090205433906001600160a01b0316808214611a9b57611a24816141e7565b611a2d826141e7565b60405162461bcd60e51b815260206004820152603260248201527f636c61696d206d7573742062652066726f6d20636c61696d616e74732061646460448201527f726573732d2d20646973616c6c6f7765642e0000000000000000000000000000606482015260840161101f565b611ad96040518060400160405280601781526020017f2d2d4e46542d2d20437469642c207468656e2075736572000000000000000000815250614248565b611ae2836142a4565b611aeb826141e7565b6000611af7848461400f565b905080611b6c5760405162461bcd60e51b815260206004820152602f60248201527f4661696c656420746f2073656e64204e46542e20436865636b20436c61696d6160448201527f6e7420546f6b656e49642073656e740000000000000000000000000000000000606482015260840161101f565b611b75846140a3565b6101c854604080516001600160a01b038087168252909216602083015281018590527ffbabfabc293b9daf3d9f8a42d485f10715027db90fd73abbe4ae4b4424decd04906060015b60405180910390a150505050565b6000306001600160a01b037f00000000000000000000000000000000000000000000000000000000000000001614611c6b5760405162461bcd60e51b815260206004820152603860248201527f555550535570677261646561626c653a206d757374206e6f742062652063616c60448201527f6c6564207468726f7567682064656c656761746563616c6c0000000000000000606482015260840161101f565b507f360894a13ba1a3210667c828492db98dca3e2076cc3735a920a3ca505d382bbc90565b60606101cb805480602002602001604051908101604052809291908181526020016000905b82821015611d1d576000848152602090819020604080516080810182526003860290920180548352600180820154848601526002909101546001600160a01b03811692840192909252600160a01b90910460ff16151560608301529083529092019101611cb5565b50505050905090565b611d2e613ad5565b6111216000614302565b6001600160a01b038116600090815261012f6020526040812054610d17565b611d5f613e0a565b808203611dd45760405162461bcd60e51b815260206004820152602360248201527f4173657875616c20726570726f64756374696f6e206973206e6f7420616c6c6f60448201527f7765640000000000000000000000000000000000000000000000000000000000606482015260840161101f565b6000611ddf82614355565b6101c8546040517f6352211e000000000000000000000000000000000000000000000000000000008152600481018690529192506000916001600160a01b0390911690636352211e90602401602060405180830381865afa158015611e48573d6000803e3d6000fd5b505050506040513d601f19601f82011682018060405250810190611e6c9190615883565b90506001600160a01b0381163014611f125760405162461bcd60e51b815260206004820152604160248201527f596f75206e65656420746f206c6973742f6465706f7369742074686520706c6160448201527f6e657420796f752061726520747279696e6720746f206272656564207769746860648201527f2e00000000000000000000000000000000000000000000000000000000000000608482015260a40161101f565b60008060005b6101cb54811015611fbf57866101cb8281548110611f3857611f38615749565b90600052602060002090600302016000015403611fb7576101cb8181548110611f6357611f63615749565b906000526020600020906003020160020160009054906101000a90046001600160a01b031692506101cb8181548110611f9e57611f9e615749565b9060005260206000209060030201600001549150611fbf565b600101611f18565b506001600160a01b038216331461203e5760405162461bcd60e51b815260206004820152603260248201527f596f7520646f206e6f74206f776e2074686520706c616e657420796f7520617260448201527f6520747279696e6720746f2062726565642e0000000000000000000000000000606482015260840161101f565b600060646101ce548661205191906158a0565b61205b91906158b7565b905080856101c95461206d919061585d565b612077919061585d565b3410156120ec5760405162461bcd60e51b815260206004820152603760248201527f496e73756666696369656e742066756e647320746f20636f766572205652462060448201527f636f737420616e6420707269636520616e64206665652e000000000000000000606482015260840161101f565b33600080805b6101cb5481101561219957896101cb828154811061211257612112615749565b90600052602060002090600302016000015403612191576101cb818154811061213d5761213d615749565b906000526020600020906003020160020160009054906101000a90046001600160a01b031692506101cb818154811061217857612178615749565b9060005260206000209060030201600001549150612199565b6001016120f2565b506706f05b59d3b200004710156122185760405162461bcd60e51b815260206004820152603560248201527f436f6e74726163742068617320496e73756666696369656e742062616c616e6360448201527f652c20636f6e7461637420686174636865722068710000000000000000000000606482015260840161101f565b6040516000906001600160a01b038416908a156108fc02908b9084818181858888f1935050505090508061228e5760405162461bcd60e51b815260206004820152601460248201527f4661696c656420746f2073656e64204574686572000000000000000000000000604482015260640161101f565b6101c6546101c9546040517f4e9e6a07000000000000000000000000000000000000000000000000000000008152600481018e9052602481018d9052600060448201526001600160a01b0390921691634e9e6a07919060640160206040518083038185885af1158015612305573d6000803e3d6000fd5b50505050506040513d601f19601f8201168201806040525081019061232a919061551d565b5060006040518060e00160405280866001600160a01b031681526020018d8152602001600015158152602001600015158152602001856001600160a01b03168152602001848152602001600081525090506101cd6000866001600160a01b03166001600160a01b0316815260200190815260200160002081908060018154018082558091505060019003906000526020600020906005020160009091909190915060008201518160000160006101000a8154816001600160a01b0302191690836001600160a01b031602179055506020820151816001015560408201518160020160006101000a81548160ff02191690831515021790555060608201518160020160016101000a81548160ff02191690831515021790555060808201518160020160026101000a8154816001600160a01b0302191690836001600160a01b0316021790555060a0820151816003015560c082015181600401555050846101cc60008e815260200190815260200160002060006101000a8154816001600160a01b0302191690836001600160a01b03160217905550858a6101c9546124ce919061585d565b6124d8919061585d565b3411156125a4576000336001600160a01b0316878c6101c954346124fc9190615870565b6125069190615870565b6125109190615870565b604051600081818185875af1925050503d806000811461254c576040519150601f19603f3d011682016040523d82523d6000602084013e612551565b606091505b50509050806125a25760405162461bcd60e51b815260206004820152601d60248201527f4661696c656420746f20726566756e6420657863657373204574686572000000604482015260640161101f565b505b604080518d81526001600160a01b0387811660208301528183018e90528616606082015290517f8557df6951fbdd47fe9027516fc896be40f285ed55a6acac460352adbab730cd9181900360800190a1505050505050505050505050565b60006060806000806000606060fb546000801b148015612622575060fc54155b61266e5760405162461bcd60e51b815260206004820152601560248201527f4549503731323a20556e696e697469616c697a65640000000000000000000000604482015260640161101f565b6126766143f6565b61267e614405565b604080516000808252602082019092527f0f000000000000000000000000000000000000000000000000000000000000009b939a50919850469750309650945092509050565b6101ca60205281600052604060002081815481106126e157600080fd5b60009182526020909120600390910201805460018201546002909201549093509091506001600160a01b03811690600160a01b900460ff1684565b6000610166828154811061273257612732615749565b6000918252602090912001546001600160a01b031692915050565b606060cd8054610c80906154e9565b6000806127696101635490565b612773904761585d565b905061279f838261279a866001600160a01b03166000908152610165602052604090205490565b614414565b9392505050565b33600081815260ca602090815260408083206001600160a01b0387168452909152812054909190838110156128435760405162461bcd60e51b815260206004820152602560248201527f45524332303a2064656372656173656420616c6c6f77616e63652062656c6f7760448201527f207a65726f000000000000000000000000000000000000000000000000000000606482015260840161101f565b61121e82868684036133c5565b600033610d11818585613c16565b6001600160a01b0382166000908152610167602052604081205481906040517f70a082310000000000000000000000000000000000000000000000000000000081523060048201526001600160a01b038616906370a0823190602401602060405180830381865afa1580156128d7573d6000803e3d6000fd5b505050506040513d601f19601f820116820180604052508101906128fb919061551d565b612905919061585d565b6001600160a01b0380861660009081526101686020908152604080832093881683529290522054909150610fa69084908390614414565b600054610100900460ff161580801561295c5750600054600160ff909116105b806129765750303b158015612976575060005460ff166001145b6129e85760405162461bcd60e51b815260206004820152602e60248201527f496e697469616c697a61626c653a20636f6e747261637420697320616c72656160448201527f647920696e697469616c697a6564000000000000000000000000000000000000606482015260840161101f565b6000805460ff191660011790558015612a0b576000805461ff0019166101001790555b612a13614454565b612a1b6144c7565b612a2361453a565b612a2c826131a6565b8015611267576000805461ff0019169055604051600181527f7f26b83ff96e1f2b6a682f133852f6798a09c465da95921460cefb384740249890602001611115565b612a76613ad5565b612a7e613e0a565b6101c955565b612a8c613e0a565b6101cb548210612ade5760405162461bcd60e51b815260206004820152601360248201527f496e646578206f7574206f6620626f756e647300000000000000000000000000604482015260640161101f565b600033905060006101cb8481548110612af957612af9615749565b6000918252602091829020604080516080810182526003909302909101805483526001810154938301939093526002909201546001600160a01b03811692820183905260ff600160a01b909104161515606082015291503314612b5b57600080fd5b6040518060800160405280826000015181526020016000815260200182604001516001600160a01b03168152602001600015158152506101cb8581548110612ba557612ba5615749565b60009182526020808320845160039093020191825583810151600180840191909155604080860151600290940180546060909701511515600160a01b0274ffffffffffffffffffffffffffffffffffffffffff199097166001600160a01b0390951694909417959095179092553383526101ca905291902080549091612c2a91615870565b81548110612c3a57612c3a615749565b90600052602060002090600302016101ca6000336001600160a01b03166001600160a01b031681526020019081526020016000208581548110612c7f57612c7f615749565b60009182526020808320845460039093020191825560018085015490830155600293840180549490920180546001600160a01b031981166001600160a01b039096169586178255925460ff600160a01b918290041615150274ffffffffffffffffffffffffffffffffffffffffff19909316909417919091179092553381526101ca90915260409020805480612d1757612d176158d9565b6000828152602081206003600019909301928302018181556001810191909155600201805474ffffffffffffffffffffffffffffffffffffffffff191690559055612d62838361400f565b506101c8548151604080516001600160a01b03808716825290931660208401528201527f0ece05e698e9e143fb75b2ad0aba7f141238c27b6d3e9728898183ee0d68498b90606001611bbd565b612db7613ad5565b612dbf613e0a565b6101c780546001600160a01b0319166001600160a01b0392909216919091179055565b612dea613ad5565b6101c8546040517fa22cb4650000000000000000000000000000000000000000000000000000000081526001600160a01b03848116600483015283151560248301529091169063a22cb465906044015b600060405180830381600087803b158015612e5457600080fd5b505af1158015612e68573d6000803e3d6000fd5b505050505050565b83421115612ec05760405162461bcd60e51b815260206004820152601d60248201527f45524332305065726d69743a206578706972656420646561646c696e65000000604482015260640161101f565b60007f6e71edae12b1b97f4d1f60370fef10105fa2faae0126114a169c64845d6126c9888888612eef8c6145a5565b6040805160208101969096526001600160a01b0394851690860152929091166060840152608083015260a082015260c0810186905260e0016040516020818303038152906040528051906020012090506000612f4a826145cc565b90506000612f5a82878787614614565b9050896001600160a01b0316816001600160a01b031614612fbd5760405162461bcd60e51b815260206004820152601e60248201527f45524332305065726d69743a20696e76616c6964207369676e61747572650000604482015260640161101f565b612fc88a8a8a6133c5565b50505050505050505050565b6001600160a01b03811660009081526101cd60209081526040808320805482518185028101850190935280835260609492939192909184015b828210156130995760008481526020908190206040805160e0810182526005860290920180546001600160a01b03908116845260018083015485870152600283015460ff80821615159587019590955261010081049094161515606086015262010000909304166080840152600381015460a08401526004015460c0830152908352909201910161300d565b505050509050919050565b6101c8546040517fe985e9c50000000000000000000000000000000000000000000000000000000081526001600160a01b0384811660048301528381166024830152600092169063e985e9c590604401602060405180830381865afa158015613111573d6000803e3d6000fd5b505050506040513d601f19601f8201168201806040525081019061279f91906158ef565b6101cd602052816000526040600020818154811061315257600080fd5b6000918252602090912060059091020180546001820154600283015460038401546004909401546001600160a01b03938416965091945060ff80821694610100830490911693620100009092049091169187565b6131ae613ad5565b6001600160a01b03811661322a5760405162461bcd60e51b815260206004820152602660248201527f4f776e61626c653a206e6577206f776e657220697320746865207a65726f206160448201527f6464726573730000000000000000000000000000000000000000000000000000606482015260840161101f565b6115ba81614302565b6001600160a01b03821660009081526101cd60205260408120815b81548110156111ac578382828154811061326a5761326a615749565b906000526020600020906005020160040154036132bb5781818154811061329357613293615749565b906000526020600020906005020160020160019054906101000a900460ff1692505050610d17565b60010161324e565b6132cb613ad5565b6101c8546040517f23b872dd0000000000000000000000000000000000000000000000000000000081523060048201526001600160a01b03838116602483015260448201859052909116906323b872dd90606401612e3a565b6001600160a01b03811660009081526101ca60209081526040808320805482518185028101850190935280835260609492939192909184015b82821015613099576000848152602090819020604080516080810182526003860290920180548352600180820154848601526002909101546001600160a01b03811692840192909252600160a01b90910460ff1615156060830152908352909201910161335d565b6001600160a01b0383166134405760405162461bcd60e51b8152602060048201526024808201527f45524332303a20617070726f76652066726f6d20746865207a65726f2061646460448201527f7265737300000000000000000000000000000000000000000000000000000000606482015260840161101f565b6001600160a01b0382166134bc5760405162461bcd60e51b815260206004820152602260248201527f45524332303a20617070726f766520746f20746865207a65726f20616464726560448201527f7373000000000000000000000000000000000000000000000000000000000000606482015260840161101f565b6001600160a01b03838116600081815260ca602090815260408083209487168084529482529182902085905590518481527f8c5be1e5ebec7d5bd14f71427d1e84f3dd0314c0f7b2291e5b200ac8c7c3b925910160405180910390a3505050565b604080516080808201835285825260208083018681526001600160a01b03868116858701818152600160608089018281526101cb8054808501825560009182528b5160039182027fe8bbfecd380c4167d6a1f763a233ec73e73f534b1970c4e1683f437ec23c1f4481019190915589517fe8bbfecd380c4167d6a1f763a233ec73e73f534b1970c4e1683f437ec23c1f4582015586517fe8bbfecd380c4167d6a1f763a233ec73e73f534b1970c4e1683f437ec23c1f46909101805485511515600160a01b90810274ffffffffffffffffffffffffffffffffffffffffff19928316948d1694909417939093179091559783526101ca8b528d832080548088018255908452928b90208d5193909202909101918255975193810193909355925160029092018054935115159096029290931690841617179092556101c854865133815291169281019290925293810187905292830185905290917fb30319a217488a3ed441c348e935a48d16091e33109bab0c79a353b9797528839101611bbd565b81516020808401516001600160a01b03831660009081526101cd909252604090912054156137f65760005b6001600160a01b03831660009081526101cd60205260409020548110156137f0576001600160a01b0383811660009081526101cd602052604090208054918416918390811061371b5761371b615749565b60009182526020909120600590910201600201546201000090046001600160a01b0316036137e8576001600160a01b03831660009081526101cd602052604090208054600191908390811061377257613772615749565b906000526020600020906005020160020160016101000a81548160ff021916908315150217905550836101cd6000856001600160a01b03166001600160a01b0316815260200190815260200160002082815481106137d2576137d2615749565b9060005260206000209060050201600401819055505b6001016136ca565b506139b1565b6020808501516001600160a01b031660009081526101cd9091526040902054156139435760005b6001600160a01b03821660009081526101cd60205260409020548110156137f0576001600160a01b0382811660009081526101cd602052604090208054918516918390811061386e5761386e615749565b60009182526020909120600590910201600201546201000090046001600160a01b03160361393b576001600160a01b03821660009081526101cd60205260409020805460019190839081106138c5576138c5615749565b906000526020600020906005020160020160016101000a81548160ff021916908315150217905550836101cd6000846001600160a01b03166001600160a01b03168152602001908152602001600020828154811061392557613925615749565b9060005260206000209060050201600401819055505b60010161381d565b60405162461bcd60e51b815260206004820152602560248201527f706c616e65742073656e7420657272616e746c792c206e6f206f6e6520746f2060448201527f636c61696d000000000000000000000000000000000000000000000000000000606482015260840161101f565b50505050565b80471015613a075760405162461bcd60e51b815260206004820152601d60248201527f416464726573733a20696e73756666696369656e742062616c616e6365000000604482015260640161101f565b6000826001600160a01b03168260405160006040518083038185875af1925050503d8060008114613a54576040519150601f19603f3d011682016040523d82523d6000602084013e613a59565b606091505b5050905080613ad05760405162461bcd60e51b815260206004820152603a60248201527f416464726573733a20756e61626c6520746f2073656e642076616c75652c207260448201527f6563697069656e74206d61792068617665207265766572746564000000000000606482015260840161101f565b505050565b610194546001600160a01b031633146111215760405162461bcd60e51b815260206004820181905260248201527f4f776e61626c653a2063616c6c6572206973206e6f7420746865206f776e6572604482015260640161101f565b613b38613e0a565b6033805460ff191660011790557f62e78cea01bee320cd4e420270b5ea74000d11b0c9f74754ebdbfc544b05a258613b6d3390565b6040516001600160a01b03909116815260200160405180910390a1565b6001600160a01b03838116600090815260ca602090815260408083209386168352929052205460001981146139b15781811015613c095760405162461bcd60e51b815260206004820152601d60248201527f45524332303a20696e73756666696369656e7420616c6c6f77616e6365000000604482015260640161101f565b6139b184848484036133c5565b6001600160a01b038316613c925760405162461bcd60e51b815260206004820152602560248201527f45524332303a207472616e736665722066726f6d20746865207a65726f20616460448201527f6472657373000000000000000000000000000000000000000000000000000000606482015260840161101f565b6001600160a01b038216613d0e5760405162461bcd60e51b815260206004820152602360248201527f45524332303a207472616e7366657220746f20746865207a65726f206164647260448201527f6573730000000000000000000000000000000000000000000000000000000000606482015260840161101f565b6001600160a01b038316600090815260c9602052604090205481811015613d9d5760405162461bcd60e51b815260206004820152602660248201527f45524332303a207472616e7366657220616d6f756e742065786365656473206260448201527f616c616e63650000000000000000000000000000000000000000000000000000606482015260840161101f565b6001600160a01b03808516600081815260c9602052604080822086860390559286168082529083902080548601905591517fddf252ad1be2c89b69c2b068fc378daa952ba7f163c4a11628f55a4df523b3ef90613dfd9086815260200190565b60405180910390a36139b1565b60335460ff16156111215760405162461bcd60e51b815260206004820152601060248201527f5061757361626c653a2070617573656400000000000000000000000000000000604482015260640161101f565b600061143d61463c565b6115ba613ad5565b7f4910fdfa16fed3260ed0e7147f7cc6da11a60208b5b9406d12a635614ffd91435460ff1615613ea257613ad0836146b0565b826001600160a01b03166352d1902d6040518163ffffffff1660e01b8152600401602060405180830381865afa925050508015613efc575060408051601f3d908101601f19168201909252613ef99181019061551d565b60015b613f6e5760405162461bcd60e51b815260206004820152602e60248201527f45524331393637557067726164653a206e657720696d706c656d656e7461746960448201527f6f6e206973206e6f742055555053000000000000000000000000000000000000606482015260840161101f565b7f360894a13ba1a3210667c828492db98dca3e2076cc3735a920a3ca505d382bbc81146140035760405162461bcd60e51b815260206004820152602960248201527f45524331393637557067726164653a20756e737570706f727465642070726f7860448201527f6961626c65555549440000000000000000000000000000000000000000000000606482015260840161101f565b50613ad083838361476e565b6101c8546040517f42842e0e0000000000000000000000000000000000000000000000000000000081523060048201526001600160a01b0383811660248301526044820185905260009216906342842e0e90606401600060405180830381600087803b15801561407e57600080fd5b505af192505050801561408f575060015b61409b57506000610d17565b506001610d17565b60008181526101cc60209081526040808320546001600160a01b03168084526101cd909252822090915b81548110156139b157838282815481106140e9576140e9615749565b9060005260206000209060050201600401540361413b57600182828154811061411457614114615749565b60009182526020909120600590910201600201805460ff19169115159190911790556139b1565b6001016140cd565b61414b614793565b6033805460ff191690557f5db9ee0a495bf2e6ff9c91a7834c1ba4fdd244a5e8aa4e537bd38aeae4b073aa33613b6d565b604080516001600160a01b038416602482015260448082018490528251808303909101815260649091019091526020810180516001600160e01b03167fa9059cbb00000000000000000000000000000000000000000000000000000000179052613ad09084906147e5565b6040516001600160a01b03821660248201526115ba9060440160408051601f198184030181529190526020810180516001600160e01b03167f2c2ecbc2000000000000000000000000000000000000000000000000000000001790526148cd565b6115ba8160405160240161425c9190614f61565b60408051601f198184030181529190526020810180516001600160e01b03167f41304fac000000000000000000000000000000000000000000000000000000001790526148cd565b6115ba816040516024016142ba91815260200190565b60408051601f198184030181529190526020810180516001600160e01b03167ff82c50f1000000000000000000000000000000000000000000000000000000001790526148cd565b61019480546001600160a01b038381166001600160a01b0319831681179093556040519116919082907f8be0079c531659141344cd1fd0a4f28419497f9722a3daafe3b4186f6b6457e090600090a35050565b600061435f613e0a565b60005b6101cb548110156143ef57826101cb828154811061438257614382615749565b906000526020600020906003020160000154036143c7576101cb81815481106143ad576143ad615749565b906000526020600020906003020160010154915050919050565b6101cb546143d790600190615870565b81036143e7575060001992915050565b600101614362565b505b919050565b606060fd8054610c80906154e9565b606060fe8054610c80906154e9565b610162546001600160a01b038416600090815261016460205260408120549091839161444090866158a0565b61444a91906158b7565b610fa69190615870565b600054610100900460ff166144bf5760405162461bcd60e51b815260206004820152602b60248201527f496e697469616c697a61626c653a20636f6e7472616374206973206e6f74206960448201526a6e697469616c697a696e6760a81b606482015260840161101f565b6111216148d6565b600054610100900460ff166145325760405162461bcd60e51b815260206004820152602b60248201527f496e697469616c697a61626c653a20636f6e7472616374206973206e6f74206960448201526a6e697469616c697a696e6760a81b606482015260840161101f565b61112161494a565b600054610100900460ff166111215760405162461bcd60e51b815260206004820152602b60248201527f496e697469616c697a61626c653a20636f6e7472616374206973206e6f74206960448201526a6e697469616c697a696e6760a81b606482015260840161101f565b6001600160a01b038116600090815261012f602052604090208054600181018255906143ef565b6000610d176145d9613e5d565b836040517f19010000000000000000000000000000000000000000000000000000000000008152600281019290925260228201526042902090565b6000806000614625878787876149c1565b9150915061463281614a85565b5095945050505050565b60007f8b73c3c69bb8fe3d512ecc4cf759cc79239f7b179b0ffacaa9a75d522b39400f614667614bea565b61466f614c43565b60408051602081019490945283019190915260608201524660808201523060a082015260c00160405160208183030381529060405280519060200120905090565b6001600160a01b0381163b61472d5760405162461bcd60e51b815260206004820152602d60248201527f455243313936373a206e657720696d706c656d656e746174696f6e206973206e60448201527f6f74206120636f6e747261637400000000000000000000000000000000000000606482015260840161101f565b7f360894a13ba1a3210667c828492db98dca3e2076cc3735a920a3ca505d382bbc80546001600160a01b0319166001600160a01b0392909216919091179055565b61477783614c74565b6000825111806147845750805b15613ad0576139b18383614cb4565b60335460ff166111215760405162461bcd60e51b815260206004820152601460248201527f5061757361626c653a206e6f7420706175736564000000000000000000000000604482015260640161101f565b600061483a826040518060400160405280602081526020017f5361666545524332303a206c6f772d6c6576656c2063616c6c206661696c6564815250856001600160a01b0316614cd99092919063ffffffff16565b905080516000148061485b57508080602001905181019061485b91906158ef565b613ad05760405162461bcd60e51b815260206004820152602a60248201527f5361666545524332303a204552433230206f7065726174696f6e20646964206e60448201527f6f74207375636365656400000000000000000000000000000000000000000000606482015260840161101f565b6115ba81614ce8565b600054610100900460ff166149415760405162461bcd60e51b815260206004820152602b60248201527f496e697469616c697a61626c653a20636f6e7472616374206973206e6f74206960448201526a6e697469616c697a696e6760a81b606482015260840161101f565b61112133614302565b600054610100900460ff166149b55760405162461bcd60e51b815260206004820152602b60248201527f496e697469616c697a61626c653a20636f6e7472616374206973206e6f74206960448201526a6e697469616c697a696e6760a81b606482015260840161101f565b6033805460ff19169055565b6000807f7fffffffffffffffffffffffffffffff5d576e7357a4501ddfe92f46681b20a08311156149f85750600090506003614a7c565b6040805160008082526020820180845289905260ff881692820192909252606081018690526080810185905260019060a0016020604051602081039080840390855afa158015614a4c573d6000803e3d6000fd5b5050604051601f1901519150506001600160a01b038116614a7557600060019250925050614a7c565b9150600090505b94509492505050565b6000816004811115614a9957614a9961590c565b03614aa15750565b6001816004811115614ab557614ab561590c565b03614b025760405162461bcd60e51b815260206004820152601860248201527f45434453413a20696e76616c6964207369676e61747572650000000000000000604482015260640161101f565b6002816004811115614b1657614b1661590c565b03614b635760405162461bcd60e51b815260206004820152601f60248201527f45434453413a20696e76616c6964207369676e6174757265206c656e67746800604482015260640161101f565b6003816004811115614b7757614b7761590c565b036115ba5760405162461bcd60e51b815260206004820152602260248201527f45434453413a20696e76616c6964207369676e6174757265202773272076616c60448201527f7565000000000000000000000000000000000000000000000000000000000000606482015260840161101f565b600080614bf56143f6565b805190915015614c0c578051602090910120919050565b60fb548015614c1b5792915050565b7fc5d2460186f7233c927e7db2dcc703c0e500b653ca82273b7bfad8045d85a4709250505090565b600080614c4e614405565b805190915015614c65578051602090910120919050565b60fc548015614c1b5792915050565b614c7d816146b0565b6040516001600160a01b038216907fbc7cd75a20ee27fd9adebab32041f755214dbc6bffa90cc0225b39da2e5c2d3b90600090a250565b606061279f838360405180606001604052806027815260200161593f60279139614d09565b6060610fa68484600085614d81565b60006a636f6e736f6c652e6c6f679050600080835160208501845afa505050565b6060600080856001600160a01b031685604051614d269190615922565b600060405180830381855af49150503d8060008114614d61576040519150601f19603f3d011682016040523d82523d6000602084013e614d66565b606091505b5091509150614d7786838387614e73565b9695505050505050565b606082471015614df95760405162461bcd60e51b815260206004820152602660248201527f416464726573733a20696e73756666696369656e742062616c616e636520666f60448201527f722063616c6c0000000000000000000000000000000000000000000000000000606482015260840161101f565b600080866001600160a01b03168587604051614e159190615922565b60006040518083038185875af1925050503d8060008114614e52576040519150601f19603f3d011682016040523d82523d6000602084013e614e57565b606091505b5091509150614e6887838387614e73565b979650505050505050565b60608315614ee2578251600003614edb576001600160a01b0385163b614edb5760405162461bcd60e51b815260206004820152601d60248201527f416464726573733a2063616c6c20746f206e6f6e2d636f6e7472616374000000604482015260640161101f565b5081610fa6565b610fa68383815115614ef75781518083602001fd5b8060405162461bcd60e51b815260040161101f9190614f61565b60005b83811015614f2c578181015183820152602001614f14565b50506000910152565b60008151808452614f4d816020860160208601614f11565b601f01601f19169290920160200192915050565b60208152600061279f6020830184614f35565b6001600160a01b03811681146115ba57600080fd5b60008060408385031215614f9c57600080fd5b8235614fa781614f74565b946020939093013593505050565b634e487b7160e01b600052604160045260246000fd5b604051610160810167ffffffffffffffff81118282101715614fef57614fef614fb5565b60405290565b604051601f8201601f1916810167ffffffffffffffff8111828210171561501e5761501e614fb5565b604052919050565b600082601f83011261503757600080fd5b813567ffffffffffffffff81111561505157615051614fb5565b615064601f8201601f1916602001614ff5565b81815284602083860101111561507957600080fd5b816020850160208301376000918101602001919091529392505050565b600080600080608085870312156150ac57600080fd5b84356150b781614f74565b935060208501356150c781614f74565b925060408501359150606085013567ffffffffffffffff8111156150ea57600080fd5b6150f687828801615026565b91505092959194509250565b60006020828403121561511457600080fd5b813561279f81614f74565b60008060006060848603121561513457600080fd5b833561513f81614f74565b9250602084013561514f81614f74565b929592945050506040919091013590565b6000806040838503121561517357600080fd5b50508035926020909101359150565b602080825282518282018190526000919060409081850190868401855b828110156151e4578151805185528681015187860152858101516001600160a01b0316868601526060908101511515908501526080909301929085019060010161519f565b5091979650505050505050565b60006020828403121561520357600080fd5b5035919050565b6000806040838503121561521d57600080fd5b82359150602083013561522f81614f74565b809150509250929050565b6000806040838503121561524d57600080fd5b823561525881614f74565b9150602083013561522f81614f74565b60008060006060848603121561527d57600080fd5b833561528881614f74565b925060208401359150604084013561529f81614f74565b809150509250925092565b600080604083850312156152bd57600080fd5b82356152c881614f74565b9150602083013567ffffffffffffffff8111156152e457600080fd5b6152f085828601615026565b9150509250929050565b7fff00000000000000000000000000000000000000000000000000000000000000881681526000602060e0602084015261533760e084018a614f35565b8381036040850152615349818a614f35565b606085018990526001600160a01b038816608086015260a0850187905284810360c08601528551808252602080880193509091019060005b8181101561539d57835183529284019291840191600101615381565b50909c9b505050505050505050505050565b80151581146115ba57600080fd5b600080604083850312156153d057600080fd5b82356153db81614f74565b9150602083013561522f816153af565b600080600080600080600060e0888a03121561540657600080fd5b873561541181614f74565b9650602088013561542181614f74565b95506040880135945060608801359350608088013560ff8116811461544557600080fd5b9699959850939692959460a0840135945060c09093013592915050565b602080825282518282018190526000919060409081850190868401855b828110156151e457815180516001600160a01b0390811686528782015188870152868201511515878701526060808301511515908701526080808301519091169086015260a0808201519086015260c0908101519085015260e0909301929085019060010161547f565b600181811c908216806154fd57607f821691505b6020821081036143ef57634e487b7160e01b600052602260045260246000fd5b60006020828403121561552f57600080fd5b5051919050565b60006001600160a01b03808716835280861660208401525083604083015260a0606083015261556860a0830184614f35565b8281036080840152600e81527f6c697374696e6720706c616e657400000000000000000000000000000000000060208201526040810191505095945050505050565b600082601f8301126155bb57600080fd5b8151602067ffffffffffffffff8211156155d7576155d7614fb5565b8160051b6155e6828201614ff5565b928352848101820192828101908785111561560057600080fd5b83870192505b84831015614e6857825182529183019190830190615606565b80516143f1816153af565b6000806040838503121561563d57600080fd5b825167ffffffffffffffff8082111561565557600080fd5b90840190610160828703121561566a57600080fd5b615672614fcb565b825181526020830151602082015260408301516040820152606083015160608201526080830151608082015260a083015160a082015260c083015160c082015260e083015160e082015261010080840151838111156156d057600080fd5b6156dc898287016155aa565b82840152505061012080840151838111156156f657600080fd5b615702898287016155aa565b828401525050610140808401518381111561571c57600080fd5b615728898287016155aa565b8284015250508094505050506157406020840161561f565b90509250929050565b634e487b7160e01b600052603260045260246000fd5b60006001600160a01b03808716835280861660208401525083604083015260a0606083015261579160a0830184614f35565b8281036080840152600a81527f6e657720706c616e65740000000000000000000000000000000000000000000060208201526040810191505095945050505050565b60006001600160a01b03808716835280861660208401525083604083015260a0606083015261580560a0830184614f35565b8281036080840152600d81527f756e63617465676f72697a65640000000000000000000000000000000000000060208201526040810191505095945050505050565b634e487b7160e01b600052601160045260246000fd5b80820180821115610d1757610d17615847565b81810381811115610d1757610d17615847565b60006020828403121561589557600080fd5b815161279f81614f74565b8082028115828204841417610d1757610d17615847565b6000826158d457634e487b7160e01b600052601260045260246000fd5b500490565b634e487b7160e01b600052603160045260246000fd5b60006020828403121561590157600080fd5b815161279f816153af565b634e487b7160e01b600052602160045260246000fd5b60008251615934818460208701614f11565b919091019291505056fe416464726573733a206c6f772d6c6576656c2064656c65676174652063616c6c206661696c6564a264697066735822122088eafea9866a112bb5113a01741b4a611e13b44a17094a9e7692d104353f269c64736f6c63430008180033",
  "linkReferences": {},
  "deployedLinkReferences": {}
}