{
  "_format": "hh-sol-artifact-1",
  "contractName": "HatcherV2",
  "sourceName": "contracts/HatcherV2.sol",
  "abi": [
    {
      "inputs": [],
      "name": "Unauthorized",
      "type": "error"
    },
    {
      "anonymous": false,
      "inputs": [
        {
          "indexed": false,
          "internalType": "address",
          "name": "previousAdmin",
          "type": "address"
        },
        {
          "indexed": false,
          "internalType": "address",
          "name": "newAdmin",
          "type": "address"
        }
      ],
      "name": "AdminChanged",
      "type": "event"
    },
    {
      "anonymous": false,
      "inputs": [
        {
          "indexed": true,
          "internalType": "address",
          "name": "owner",
          "type": "address"
        },
        {
          "indexed": true,
          "internalType": "address",
          "name": "spender",
          "type": "address"
        },
        {
          "indexed": false,
          "internalType": "uint256",
          "name": "value",
          "type": "uint256"
        }
      ],
      "name": "Approval",
      "type": "event"
    },
    {
      "anonymous": false,
      "inputs": [
        {
          "indexed": true,
          "internalType": "address",
          "name": "beacon",
          "type": "address"
        }
      ],
      "name": "BeaconUpgraded",
      "type": "event"
    },
    {
      "anonymous": false,
      "inputs": [
        {
          "indexed": false,
          "internalType": "address",
          "name": "sentToUser",
          "type": "address"
        },
        {
          "indexed": false,
          "internalType": "address",
          "name": "token",
          "type": "address"
        },
        {
          "indexed": false,
          "internalType": "uint256",
          "name": "tokenId",
          "type": "uint256"
        }
      ],
      "name": "DeClaimedAPlanet",
      "type": "event"
    },
    {
      "anonymous": false,
      "inputs": [
        {
          "indexed": false,
          "internalType": "address",
          "name": "sentToUser",
          "type": "address"
        },
        {
          "indexed": false,
          "internalType": "address",
          "name": "token",
          "type": "address"
        },
        {
          "indexed": false,
          "internalType": "uint256",
          "name": "tokenId",
          "type": "uint256"
        }
      ],
      "name": "DeListedAPlanet",
      "type": "event"
    },
    {
      "anonymous": false,
      "inputs": [],
      "name": "EIP712DomainChanged",
      "type": "event"
    },
    {
      "anonymous": false,
      "inputs": [
        {
          "indexed": true,
          "internalType": "contract IERC20Upgradeable",
          "name": "token",
          "type": "address"
        },
        {
          "indexed": false,
          "internalType": "address",
          "name": "to",
          "type": "address"
        },
        {
          "indexed": false,
          "internalType": "uint256",
          "name": "amount",
          "type": "uint256"
        }
      ],
      "name": "ERC20PaymentReleased",
      "type": "event"
    },
    {
      "anonymous": false,
      "inputs": [
        {
          "indexed": false,
          "internalType": "uint8",
          "name": "version",
          "type": "uint8"
        }
      ],
      "name": "Initialized",
      "type": "event"
    },
    {
      "anonymous": false,
      "inputs": [
        {
          "indexed": false,
          "internalType": "address",
          "name": "sentFromUser",
          "type": "address"
        },
        {
          "indexed": false,
          "internalType": "address",
          "name": "token",
          "type": "address"
        },
        {
          "indexed": false,
          "internalType": "uint256",
          "name": "tokenId",
          "type": "uint256"
        },
        {
          "indexed": false,
          "internalType": "uint256",
          "name": "price",
          "type": "uint256"
        }
      ],
      "name": "ListedAPlanet",
      "type": "event"
    },
    {
      "anonymous": false,
      "inputs": [
        {
          "indexed": false,
          "internalType": "address",
          "name": "operator",
          "type": "address"
        },
        {
          "indexed": false,
          "internalType": "address",
          "name": "from",
          "type": "address"
        },
        {
          "indexed": false,
          "internalType": "uint256",
          "name": "tokenId",
          "type": "uint256"
        },
        {
          "indexed": false,
          "internalType": "bytes",
          "name": "data",
          "type": "bytes"
        },
        {
          "indexed": false,
          "internalType": "string",
          "name": "typeOfReceival",
          "type": "string"
        }
      ],
      "name": "NftReceived",
      "type": "event"
    },
    {
      "anonymous": false,
      "inputs": [
        {
          "indexed": true,
          "internalType": "address",
          "name": "previousOwner",
          "type": "address"
        },
        {
          "indexed": true,
          "internalType": "address",
          "name": "newOwner",
          "type": "address"
        }
      ],
      "name": "OwnershipTransferred",
      "type": "event"
    },
    {
      "anonymous": false,
      "inputs": [
        {
          "indexed": false,
          "internalType": "address",
          "name": "account",
          "type": "address"
        }
      ],
      "name": "Paused",
      "type": "event"
    },
    {
      "anonymous": false,
      "inputs": [
        {
          "indexed": false,
          "internalType": "address",
          "name": "account",
          "type": "address"
        },
        {
          "indexed": false,
          "internalType": "uint256",
          "name": "shares",
          "type": "uint256"
        }
      ],
      "name": "PayeeAdded",
      "type": "event"
    },
    {
      "anonymous": false,
      "inputs": [
        {
          "indexed": false,
          "internalType": "address",
          "name": "from",
          "type": "address"
        },
        {
          "indexed": false,
          "internalType": "uint256",
          "name": "amount",
          "type": "uint256"
        }
      ],
      "name": "PaymentReceived",
      "type": "event"
    },
    {
      "anonymous": false,
      "inputs": [
        {
          "indexed": false,
          "internalType": "address",
          "name": "to",
          "type": "address"
        },
        {
          "indexed": false,
          "internalType": "uint256",
          "name": "amount",
          "type": "uint256"
        }
      ],
      "name": "PaymentReleased",
      "type": "event"
    },
    {
      "anonymous": false,
      "inputs": [
        {
          "indexed": false,
          "internalType": "uint256",
          "name": "planetAsking",
          "type": "uint256"
        },
        {
          "indexed": false,
          "internalType": "address",
          "name": "askingUser",
          "type": "address"
        },
        {
          "indexed": false,
          "internalType": "uint256",
          "name": "planetJoining",
          "type": "uint256"
        },
        {
          "indexed": false,
          "internalType": "address",
          "name": "joiningUser",
          "type": "address"
        }
      ],
      "name": "PlanetsConjoining",
      "type": "event"
    },
    {
      "anonymous": false,
      "inputs": [
        {
          "indexed": true,
          "internalType": "address",
          "name": "from",
          "type": "address"
        },
        {
          "indexed": true,
          "internalType": "address",
          "name": "to",
          "type": "address"
        },
        {
          "indexed": false,
          "internalType": "uint256",
          "name": "value",
          "type": "uint256"
        }
      ],
      "name": "Transfer",
      "type": "event"
    },
    {
      "anonymous": false,
      "inputs": [
        {
          "indexed": false,
          "internalType": "address",
          "name": "account",
          "type": "address"
        }
      ],
      "name": "Unpaused",
      "type": "event"
    },
    {
      "anonymous": false,
      "inputs": [
        {
          "indexed": true,
          "internalType": "address",
          "name": "implementation",
          "type": "address"
        }
      ],
      "name": "Upgraded",
      "type": "event"
    },
    {
      "inputs": [],
      "name": "DOMAIN_SEPARATOR",
      "outputs": [
        {
          "internalType": "bytes32",
          "name": "",
          "type": "bytes32"
        }
      ],
      "stateMutability": "view",
      "type": "function"
    },
    {
      "inputs": [
        {
          "internalType": "address",
          "name": "owner",
          "type": "address"
        },
        {
          "internalType": "address",
          "name": "spender",
          "type": "address"
        }
      ],
      "name": "allowance",
      "outputs": [
        {
          "internalType": "uint256",
          "name": "",
          "type": "uint256"
        }
      ],
      "stateMutability": "view",
      "type": "function"
    },
    {
      "inputs": [
        {
          "internalType": "address",
          "name": "spender",
          "type": "address"
        },
        {
          "internalType": "uint256",
          "name": "amount",
          "type": "uint256"
        }
      ],
      "name": "approve",
      "outputs": [
        {
          "internalType": "bool",
          "name": "",
          "type": "bool"
        }
      ],
      "stateMutability": "nonpayable",
      "type": "function"
    },
    {
      "inputs": [
        {
          "internalType": "address",
          "name": "account",
          "type": "address"
        }
      ],
      "name": "balanceOf",
      "outputs": [
        {
          "internalType": "uint256",
          "name": "",
          "type": "uint256"
        }
      ],
      "stateMutability": "view",
      "type": "function"
    },
    {
      "inputs": [
        {
          "internalType": "uint256",
          "name": "newVRF",
          "type": "uint256"
        }
      ],
      "name": "changeVRFValue",
      "outputs": [],
      "stateMutability": "nonpayable",
      "type": "function"
    },
    {
      "inputs": [
        {
          "internalType": "address",
          "name": "owner",
          "type": "address"
        },
        {
          "internalType": "address",
          "name": "operator",
          "type": "address"
        }
      ],
      "name": "checkApprovalForAll",
      "outputs": [
        {
          "internalType": "bool",
          "name": "",
          "type": "bool"
        }
      ],
      "stateMutability": "view",
      "type": "function"
    },
    {
      "inputs": [
        {
          "internalType": "uint256",
          "name": "claimableTokenId",
          "type": "uint256"
        }
      ],
      "name": "claimPlanet",
      "outputs": [],
      "stateMutability": "nonpayable",
      "type": "function"
    },
    {
      "inputs": [
        {
          "internalType": "address",
          "name": "",
          "type": "address"
        },
        {
          "internalType": "uint256",
          "name": "",
          "type": "uint256"
        }
      ],
      "name": "claimablePlanets",
      "outputs": [
        {
          "internalType": "address",
          "name": "ownerParentAddress",
          "type": "address"
        },
        {
          "internalType": "uint256",
          "name": "ownerTokenId",
          "type": "uint256"
        },
        {
          "internalType": "bool",
          "name": "delivered",
          "type": "bool"
        },
        {
          "internalType": "address",
          "name": "otherParent",
          "type": "address"
        },
        {
          "internalType": "uint256",
          "name": "otherTokenId",
          "type": "uint256"
        },
        {
          "internalType": "uint256",
          "name": "claimsTokenId",
          "type": "uint256"
        }
      ],
      "stateMutability": "view",
      "type": "function"
    },
    {
      "inputs": [
        {
          "internalType": "uint256",
          "name": "",
          "type": "uint256"
        }
      ],
      "name": "claimableTokenIdToOwnerAddress",
      "outputs": [
        {
          "internalType": "address",
          "name": "",
          "type": "address"
        }
      ],
      "stateMutability": "view",
      "type": "function"
    },
    {
      "inputs": [
        {
          "internalType": "uint256",
          "name": "yourPlanet",
          "type": "uint256"
        },
        {
          "internalType": "uint256",
          "name": "withListedPlanet",
          "type": "uint256"
        }
      ],
      "name": "conjunct",
      "outputs": [],
      "stateMutability": "payable",
      "type": "function"
    },
    {
      "inputs": [
        {
          "internalType": "uint256",
          "name": "idIndex",
          "type": "uint256"
        },
        {
          "internalType": "uint256",
          "name": "tokenId",
          "type": "uint256"
        }
      ],
      "name": "deList",
      "outputs": [],
      "stateMutability": "nonpayable",
      "type": "function"
    },
    {
      "inputs": [],
      "name": "deListAllYourPlanets",
      "outputs": [],
      "stateMutability": "nonpayable",
      "type": "function"
    },
    {
      "inputs": [],
      "name": "decimals",
      "outputs": [
        {
          "internalType": "uint8",
          "name": "",
          "type": "uint8"
        }
      ],
      "stateMutability": "view",
      "type": "function"
    },
    {
      "inputs": [
        {
          "internalType": "address",
          "name": "spender",
          "type": "address"
        },
        {
          "internalType": "uint256",
          "name": "subtractedValue",
          "type": "uint256"
        }
      ],
      "name": "decreaseAllowance",
      "outputs": [
        {
          "internalType": "bool",
          "name": "",
          "type": "bool"
        }
      ],
      "stateMutability": "nonpayable",
      "type": "function"
    },
    {
      "inputs": [],
      "name": "eip712Domain",
      "outputs": [
        {
          "internalType": "bytes1",
          "name": "fields",
          "type": "bytes1"
        },
        {
          "internalType": "string",
          "name": "name",
          "type": "string"
        },
        {
          "internalType": "string",
          "name": "version",
          "type": "string"
        },
        {
          "internalType": "uint256",
          "name": "chainId",
          "type": "uint256"
        },
        {
          "internalType": "address",
          "name": "verifyingContract",
          "type": "address"
        },
        {
          "internalType": "bytes32",
          "name": "salt",
          "type": "bytes32"
        },
        {
          "internalType": "uint256[]",
          "name": "extensions",
          "type": "uint256[]"
        }
      ],
      "stateMutability": "view",
      "type": "function"
    },
    {
      "inputs": [],
      "name": "getAllPlanets",
      "outputs": [
        {
          "components": [
            {
              "internalType": "uint256",
              "name": "planet",
              "type": "uint256"
            },
            {
              "internalType": "uint256",
              "name": "price",
              "type": "uint256"
            },
            {
              "internalType": "address",
              "name": "ownerAddress",
              "type": "address"
            }
          ],
          "internalType": "struct ListedPlanet[]",
          "name": "",
          "type": "tuple[]"
        }
      ],
      "stateMutability": "view",
      "type": "function"
    },
    {
      "inputs": [
        {
          "internalType": "uint256",
          "name": "startIndex",
          "type": "uint256"
        },
        {
          "internalType": "uint256",
          "name": "endIndex",
          "type": "uint256"
        }
      ],
      "name": "getPlanetsPaginated",
      "outputs": [
        {
          "components": [
            {
              "internalType": "uint256",
              "name": "planet",
              "type": "uint256"
            },
            {
              "internalType": "uint256",
              "name": "price",
              "type": "uint256"
            },
            {
              "internalType": "address",
              "name": "ownerAddress",
              "type": "address"
            }
          ],
          "internalType": "struct ListedPlanet[]",
          "name": "",
          "type": "tuple[]"
        }
      ],
      "stateMutability": "view",
      "type": "function"
    },
    {
      "inputs": [
        {
          "internalType": "address",
          "name": "spender",
          "type": "address"
        },
        {
          "internalType": "uint256",
          "name": "addedValue",
          "type": "uint256"
        }
      ],
      "name": "increaseAllowance",
      "outputs": [
        {
          "internalType": "bool",
          "name": "",
          "type": "bool"
        }
      ],
      "stateMutability": "nonpayable",
      "type": "function"
    },
    {
      "inputs": [],
      "name": "initialize",
      "outputs": [],
      "stateMutability": "nonpayable",
      "type": "function"
    },
    {
      "inputs": [],
      "name": "listAllYourPlanets",
      "outputs": [],
      "stateMutability": "nonpayable",
      "type": "function"
    },
    {
      "inputs": [],
      "name": "name",
      "outputs": [
        {
          "internalType": "string",
          "name": "",
          "type": "string"
        }
      ],
      "stateMutability": "view",
      "type": "function"
    },
    {
      "inputs": [
        {
          "internalType": "address",
          "name": "owner",
          "type": "address"
        }
      ],
      "name": "nonces",
      "outputs": [
        {
          "internalType": "uint256",
          "name": "",
          "type": "uint256"
        }
      ],
      "stateMutability": "view",
      "type": "function"
    },
    {
      "inputs": [
        {
          "internalType": "address",
          "name": "operator",
          "type": "address"
        },
        {
          "internalType": "address",
          "name": "from",
          "type": "address"
        },
        {
          "internalType": "uint256",
          "name": "tokenId",
          "type": "uint256"
        },
        {
          "internalType": "bytes",
          "name": "data",
          "type": "bytes"
        }
      ],
      "name": "onERC721Received",
      "outputs": [
        {
          "internalType": "bytes4",
          "name": "",
          "type": "bytes4"
        }
      ],
      "stateMutability": "nonpayable",
      "type": "function"
    },
    {
      "inputs": [],
      "name": "owner",
      "outputs": [
        {
          "internalType": "address",
          "name": "",
          "type": "address"
        }
      ],
      "stateMutability": "view",
      "type": "function"
    },
    {
      "inputs": [
        {
          "internalType": "uint256",
          "name": "claimableTokenId",
          "type": "uint256"
        },
        {
          "internalType": "address",
          "name": "sendToAddr",
          "type": "address"
        }
      ],
      "name": "ownerClaimPlanet",
      "outputs": [],
      "stateMutability": "nonpayable",
      "type": "function"
    },
    {
      "inputs": [
        {
          "internalType": "uint256",
          "name": "tokenId",
          "type": "uint256"
        },
        {
          "internalType": "address",
          "name": "destinationAddr",
          "type": "address"
        }
      ],
      "name": "ownerOverrideSendNFT",
      "outputs": [],
      "stateMutability": "nonpayable",
      "type": "function"
    },
    {
      "inputs": [],
      "name": "pause",
      "outputs": [],
      "stateMutability": "nonpayable",
      "type": "function"
    },
    {
      "inputs": [],
      "name": "paused",
      "outputs": [
        {
          "internalType": "bool",
          "name": "",
          "type": "bool"
        }
      ],
      "stateMutability": "view",
      "type": "function"
    },
    {
      "inputs": [
        {
          "internalType": "uint256",
          "name": "index",
          "type": "uint256"
        }
      ],
      "name": "payee",
      "outputs": [
        {
          "internalType": "address",
          "name": "",
          "type": "address"
        }
      ],
      "stateMutability": "view",
      "type": "function"
    },
    {
      "inputs": [
        {
          "internalType": "address",
          "name": "owner",
          "type": "address"
        },
        {
          "internalType": "address",
          "name": "spender",
          "type": "address"
        },
        {
          "internalType": "uint256",
          "name": "value",
          "type": "uint256"
        },
        {
          "internalType": "uint256",
          "name": "deadline",
          "type": "uint256"
        },
        {
          "internalType": "uint8",
          "name": "v",
          "type": "uint8"
        },
        {
          "internalType": "bytes32",
          "name": "r",
          "type": "bytes32"
        },
        {
          "internalType": "bytes32",
          "name": "s",
          "type": "bytes32"
        }
      ],
      "name": "permit",
      "outputs": [],
      "stateMutability": "nonpayable",
      "type": "function"
    },
    {
      "inputs": [],
      "name": "proxiableUUID",
      "outputs": [
        {
          "internalType": "bytes32",
          "name": "",
          "type": "bytes32"
        }
      ],
      "stateMutability": "view",
      "type": "function"
    },
    {
      "inputs": [
        {
          "internalType": "address",
          "name": "account",
          "type": "address"
        }
      ],
      "name": "releasable",
      "outputs": [
        {
          "internalType": "uint256",
          "name": "",
          "type": "uint256"
        }
      ],
      "stateMutability": "view",
      "type": "function"
    },
    {
      "inputs": [
        {
          "internalType": "contract IERC20Upgradeable",
          "name": "token",
          "type": "address"
        },
        {
          "internalType": "address",
          "name": "account",
          "type": "address"
        }
      ],
      "name": "releasable",
      "outputs": [
        {
          "internalType": "uint256",
          "name": "",
          "type": "uint256"
        }
      ],
      "stateMutability": "view",
      "type": "function"
    },
    {
      "inputs": [
        {
          "internalType": "address payable",
          "name": "account",
          "type": "address"
        }
      ],
      "name": "release",
      "outputs": [],
      "stateMutability": "nonpayable",
      "type": "function"
    },
    {
      "inputs": [
        {
          "internalType": "contract IERC20Upgradeable",
          "name": "token",
          "type": "address"
        },
        {
          "internalType": "address",
          "name": "account",
          "type": "address"
        }
      ],
      "name": "release",
      "outputs": [],
      "stateMutability": "nonpayable",
      "type": "function"
    },
    {
      "inputs": [
        {
          "internalType": "contract IERC20Upgradeable",
          "name": "token",
          "type": "address"
        },
        {
          "internalType": "address",
          "name": "account",
          "type": "address"
        }
      ],
      "name": "released",
      "outputs": [
        {
          "internalType": "uint256",
          "name": "",
          "type": "uint256"
        }
      ],
      "stateMutability": "view",
      "type": "function"
    },
    {
      "inputs": [
        {
          "internalType": "address",
          "name": "account",
          "type": "address"
        }
      ],
      "name": "released",
      "outputs": [
        {
          "internalType": "uint256",
          "name": "",
          "type": "uint256"
        }
      ],
      "stateMutability": "view",
      "type": "function"
    },
    {
      "inputs": [],
      "name": "renounceOwnership",
      "outputs": [],
      "stateMutability": "nonpayable",
      "type": "function"
    },
    {
      "inputs": [
        {
          "internalType": "address",
          "name": "_breederContractAddr",
          "type": "address"
        },
        {
          "internalType": "uint256",
          "name": "_vrfValue",
          "type": "uint256"
        },
        {
          "internalType": "address",
          "name": "_nftContractAddr",
          "type": "address"
        }
      ],
      "name": "setAllOf",
      "outputs": [],
      "stateMutability": "nonpayable",
      "type": "function"
    },
    {
      "inputs": [
        {
          "internalType": "address payable",
          "name": "newTAdd",
          "type": "address"
        }
      ],
      "name": "setTAdd",
      "outputs": [],
      "stateMutability": "nonpayable",
      "type": "function"
    },
    {
      "inputs": [
        {
          "internalType": "address",
          "name": "account",
          "type": "address"
        }
      ],
      "name": "shares",
      "outputs": [
        {
          "internalType": "uint256",
          "name": "",
          "type": "uint256"
        }
      ],
      "stateMutability": "view",
      "type": "function"
    },
    {
      "inputs": [],
      "name": "status",
      "outputs": [],
      "stateMutability": "nonpayable",
      "type": "function"
    },
    {
      "inputs": [],
      "name": "symbol",
      "outputs": [
        {
          "internalType": "string",
          "name": "",
          "type": "string"
        }
      ],
      "stateMutability": "view",
      "type": "function"
    },
    {
      "inputs": [
        {
          "internalType": "contract IERC20Upgradeable",
          "name": "token",
          "type": "address"
        }
      ],
      "name": "totalReleased",
      "outputs": [
        {
          "internalType": "uint256",
          "name": "",
          "type": "uint256"
        }
      ],
      "stateMutability": "view",
      "type": "function"
    },
    {
      "inputs": [],
      "name": "totalReleased",
      "outputs": [
        {
          "internalType": "uint256",
          "name": "",
          "type": "uint256"
        }
      ],
      "stateMutability": "view",
      "type": "function"
    },
    {
      "inputs": [],
      "name": "totalShares",
      "outputs": [
        {
          "internalType": "uint256",
          "name": "",
          "type": "uint256"
        }
      ],
      "stateMutability": "view",
      "type": "function"
    },
    {
      "inputs": [],
      "name": "totalSupply",
      "outputs": [
        {
          "internalType": "uint256",
          "name": "",
          "type": "uint256"
        }
      ],
      "stateMutability": "view",
      "type": "function"
    },
    {
      "inputs": [
        {
          "internalType": "address",
          "name": "to",
          "type": "address"
        },
        {
          "internalType": "uint256",
          "name": "amount",
          "type": "uint256"
        }
      ],
      "name": "transfer",
      "outputs": [
        {
          "internalType": "bool",
          "name": "",
          "type": "bool"
        }
      ],
      "stateMutability": "nonpayable",
      "type": "function"
    },
    {
      "inputs": [
        {
          "internalType": "address",
          "name": "from",
          "type": "address"
        },
        {
          "internalType": "address",
          "name": "to",
          "type": "address"
        },
        {
          "internalType": "uint256",
          "name": "amount",
          "type": "uint256"
        }
      ],
      "name": "transferFrom",
      "outputs": [
        {
          "internalType": "bool",
          "name": "",
          "type": "bool"
        }
      ],
      "stateMutability": "nonpayable",
      "type": "function"
    },
    {
      "inputs": [
        {
          "internalType": "address",
          "name": "newOwner",
          "type": "address"
        }
      ],
      "name": "transferOwnership",
      "outputs": [],
      "stateMutability": "nonpayable",
      "type": "function"
    },
    {
      "inputs": [],
      "name": "unpause",
      "outputs": [],
      "stateMutability": "nonpayable",
      "type": "function"
    },
    {
      "inputs": [
        {
          "internalType": "address",
          "name": "newImplementation",
          "type": "address"
        }
      ],
      "name": "upgradeTo",
      "outputs": [],
      "stateMutability": "nonpayable",
      "type": "function"
    },
    {
      "inputs": [
        {
          "internalType": "address",
          "name": "newImplementation",
          "type": "address"
        },
        {
          "internalType": "bytes",
          "name": "data",
          "type": "bytes"
        }
      ],
      "name": "upgradeToAndCall",
      "outputs": [],
      "stateMutability": "payable",
      "type": "function"
    },
    {
      "inputs": [
        {
          "internalType": "address",
          "name": "",
          "type": "address"
        },
        {
          "internalType": "uint256",
          "name": "",
          "type": "uint256"
        }
      ],
      "name": "userToListedPlanets",
      "outputs": [
        {
          "internalType": "uint256",
          "name": "planet",
          "type": "uint256"
        },
        {
          "internalType": "uint256",
          "name": "price",
          "type": "uint256"
        },
        {
          "internalType": "address",
          "name": "ownerAddress",
          "type": "address"
        }
      ],
      "stateMutability": "view",
      "type": "function"
    },
    {
      "inputs": [
        {
          "internalType": "address",
          "name": "userAddress",
          "type": "address"
        }
      ],
      "name": "usersClaims",
      "outputs": [
        {
          "components": [
            {
              "internalType": "address",
              "name": "ownerParentAddress",
              "type": "address"
            },
            {
              "internalType": "uint256",
              "name": "ownerTokenId",
              "type": "uint256"
            },
            {
              "internalType": "bool",
              "name": "delivered",
              "type": "bool"
            },
            {
              "internalType": "address",
              "name": "otherParent",
              "type": "address"
            },
            {
              "internalType": "uint256",
              "name": "otherTokenId",
              "type": "uint256"
            },
            {
              "internalType": "uint256",
              "name": "claimsTokenId",
              "type": "uint256"
            }
          ],
          "internalType": "struct ClaimablePlanet[]",
          "name": "",
          "type": "tuple[]"
        }
      ],
      "stateMutability": "view",
      "type": "function"
    },
    {
      "inputs": [],
      "name": "withdrawFunds",
      "outputs": [],
      "stateMutability": "nonpayable",
      "type": "function"
    },
    {
      "stateMutability": "payable",
      "type": "receive"
    }
  ],
  "bytecode": "0x60a06040523060805234801561001457600080fd5b50608051614af661004c600039600081816112f00152818161137501528181611728015281816117ad015261193a0152614af66000f3fe60806040526004361061036f5760003560e01c8063715018a6116101c6578063c45ac050116100f7578063dbb774d811610095578063e22aecb41161006f578063e22aecb414610abb578063e33b7de314610b1d578063f2fde38b14610b33578063fdb4087514610b5357600080fd5b8063dbb774d814610a28578063dd22a9c714610a55578063dd62ed3e14610a7557600080fd5b8063cdb82a37116100d1578063cdb82a371461097a578063ce7c2ac21461099a578063d505accf146109d1578063d79779b2146109f157600080fd5b8063c45ac0501461091a578063c7c0e6b11461093a578063cbdf1b5a1461095a57600080fd5b80638b83209b116101645780639852595c1161013e5780639852595c14610883578063a3f8eace146108ba578063a457c2d7146108da578063a9059cbb146108fa57600080fd5b80638b83209b1461082f5780638da5cb5b1461084f57806395d89b411461086e57600080fd5b80638230a784116101a05780638230a784146107b05780638456cb591461050157806384b0196e146107c357806385fe7243146107eb57600080fd5b8063715018a6146107665780637ecebe001461077b5780638129fc1c1461079b57600080fd5b806339509351116102a05780634f1ef2861161023e57806352d1902d1161021857806352d1902d146106ee5780635c975abb146107035780636a23befb1461071b57806370a082311461073057600080fd5b80634f1ef286146106bb57806350842cf3146104f55780635270ad6c146106ce57600080fd5b80633f4ba83a1161027a5780633f4ba83a1461061f578063406072a91461063457806348b750441461067b5780634a02099b1461069b57600080fd5b806339509351146105c95780633a7fb03d146105e95780633a98ef391461060957600080fd5b8063200d2ed21161030d57806325947818116102e7578063259478181461054b578063313ce567146105785780633644e515146105945780633659cfe6146105a957600080fd5b8063200d2ed21461050157806323b872dd1461051657806324600fc31461053657600080fd5b8063150b7a0211610349578063150b7a021461046357806318160ddd146104b457806319165587146104d35780631ac9a91e146104f557600080fd5b8063064db874146103bd57806306fdde0314610411578063095ea7b31461043357600080fd5b366103b8577f6ef95f06320e7a25a04a175ca677b7052bdd97131872c2192525a629f51be77033604080516001600160a01b0390921682523460208301520160405180910390a1005b600080fd5b3480156103c957600080fd5b506103f46103d8366004614165565b6101cc602052600090815260409020546001600160a01b031681565b6040516001600160a01b0390911681526020015b60405180910390f35b34801561041d57600080fd5b50610426610b73565b60405161040891906141ce565b34801561043f57600080fd5b5061045361044e3660046141f6565b610c05565b6040519015158152602001610408565b34801561046f57600080fd5b5061048361047e366004614303565b610c1f565b6040517fffffffff000000000000000000000000000000000000000000000000000000009091168152602001610408565b3480156104c057600080fd5b5060cb545b604051908152602001610408565b3480156104df57600080fd5b506104f36104ee36600461436f565b610f2d565b005b3480156104f357600080fd5b34801561050d57600080fd5b506104f36110a1565b34801561052257600080fd5b5061045361053136600461438c565b6110b1565b34801561054257600080fd5b506104f36110d5565b34801561055757600080fd5b5061056b6105663660046143cd565b611117565b60405161040891906143ef565b34801561058457600080fd5b5060405160128152602001610408565b3480156105a057600080fd5b506104c56112d7565b3480156105b557600080fd5b506104f36105c436600461436f565b6112e6565b3480156105d557600080fd5b506104536105e43660046141f6565b611461565b3480156105f557600080fd5b506104f3610604366004614451565b6114a0565b34801561061557600080fd5b50610162546104c5565b34801561062b57600080fd5b506104f3611530565b34801561064057600080fd5b506104c561064f366004614481565b6001600160a01b0391821660009081526101686020908152604080832093909416825291909152205490565b34801561068757600080fd5b506104f3610696366004614481565b611540565b3480156106a757600080fd5b506104f36106b63660046144af565b6116d7565b6104f36106c93660046144f1565b61171e565b3480156106da57600080fd5b506104f36106e9366004614165565b611886565b3480156106fa57600080fd5b506104c561192d565b34801561070f57600080fd5b5060335460ff16610453565b34801561072757600080fd5b5061056b6119f2565b34801561073c57600080fd5b506104c561074b36600461436f565b6001600160a01b0316600090815260c9602052604090205490565b34801561077257600080fd5b506104f3611a75565b34801561078757600080fd5b506104c561079636600461436f565b611a87565b3480156107a757600080fd5b506104f3611aa6565b6104f36107be3660046143cd565b611bd5565b3480156107cf57600080fd5b506107d8611ef0565b6040516104089796959493929190614541565b3480156107f757600080fd5b5061080b6108063660046141f6565b611fb2565b6040805193845260208401929092526001600160a01b031690820152606001610408565b34801561083b57600080fd5b506103f461084a366004614165565b611ffe565b34801561085b57600080fd5b50610194546001600160a01b03166103f4565b34801561087a57600080fd5b5061042661202f565b34801561088f57600080fd5b506104c561089e36600461436f565b6001600160a01b03166000908152610165602052604090205490565b3480156108c657600080fd5b506104c56108d536600461436f565b61203e565b3480156108e657600080fd5b506104536108f53660046141f6565b612088565b34801561090657600080fd5b506104536109153660046141f6565b612132565b34801561092657600080fd5b506104c5610935366004614481565b612140565b34801561094657600080fd5b506104f3610955366004614165565b61221e565b34801561096657600080fd5b506104f36109753660046143cd565b612234565b34801561098657600080fd5b506104f361099536600461436f565b6123db565b3480156109a657600080fd5b506104c56109b536600461436f565b6001600160a01b03166000908152610164602052604090205490565b3480156109dd57600080fd5b506104f36109ec3660046145f6565b61240e565b3480156109fd57600080fd5b506104c5610a0c36600461436f565b6001600160a01b03166000908152610167602052604090205490565b348015610a3457600080fd5b50610a48610a4336600461436f565b612572565b604051610408919061466d565b348015610a6157600080fd5b50610453610a70366004614481565b612631565b348015610a8157600080fd5b506104c5610a90366004614481565b6001600160a01b03918216600090815260ca6020908152604080832093909416825291909152205490565b348015610ac757600080fd5b50610adb610ad63660046141f6565b6126c2565b604080516001600160a01b03978816815260208101969096529315159385019390935293166060830152608082019290925260a081019190915260c001610408565b348015610b2957600080fd5b50610163546104c5565b348015610b3f57600080fd5b506104f3610b4e36600461436f565b612729565b348015610b5f57600080fd5b506104f3610b6e366004614451565b6127b6565b606060cc8054610b82906146e8565b80601f0160208091040260200160405190810160405280929190818152602001828054610bae906146e8565b8015610bfb5780601f10610bd057610100808354040283529160200191610bfb565b820191906000526020600020905b815481529060010190602001808311610bde57829003601f168201915b5050505050905090565b600033610c13818585612848565b60019150505b92915050565b6000610c5f6040518060400160405280600881526020017f72656365697665720000000000000000000000000000000000000000000000008152506129a0565b610c6982516129fc565b815115610d1457610cae6040518060400160405280600981526020017f646174656e6774686500000000000000000000000000000000000000000000008152506129a0565b600082806020019051810190610cc4919061471c565b9050610cd1848287612a5a565b7f13c6ec2a463a35f898a457814a782f1f567808293fa783a31fa4dac8868e601186868686604051610d069493929190614735565b60405180910390a150610ec4565b6101c6546001600160a01b038681169116148015610d3d57506101c8546001600160a01b031633145b15610ec4576101c8546040517fdc9ce7a5000000000000000000000000000000000000000000000000000000008152600481018590526000916001600160a01b03169063dc9ce7a590602401600060405180830381865afa158015610da6573d6000803e3d6000fd5b505050506040513d6000823e601f3d908101601f19168201604052610dce919081019061482e565b5090506000816101200151905060006101cc600083600081518110610df557610df561494d565b6020026020010151815260200190815260200160002060009054906101000a90046001600160a01b0316905060006101cc600084600181518110610e3b57610e3b61494d565b60209081029190910181015182528181019290925260409081016000205481518083019092526001600160a01b03858116835216918101829052909150610e8181612b55565b7f13c6ec2a463a35f898a457814a782f1f567808293fa783a31fa4dac8868e60118a8a8a8a604051610eb69493929190614963565b60405180910390a150505050505b610f026040518060400160405280601981526020017f726563656976696e6720636f6d706c657465212a2a2a2a2a2a000000000000008152506129a0565b507f150b7a02000000000000000000000000000000000000000000000000000000005b949350505050565b6001600160a01b03811660009081526101646020526040902054610fa75760405162461bcd60e51b815260206004820152602660248201527f5061796d656e7453706c69747465723a206163636f756e7420686173206e6f2060448201526573686172657360d01b60648201526084015b60405180910390fd5b6000610fb28261203e565b9050806000036110185760405162461bcd60e51b815260206004820152602b60248201527f5061796d656e7453706c69747465723a206163636f756e74206973206e6f742060448201526a191d59481c185e5b595b9d60aa1b6064820152608401610f9e565b80610163600082825461102b91906149ed565b90915550506001600160a01b0382166000908152610165602052604090208054820190556110598282612dbf565b604080516001600160a01b0384168152602081018390527fdf20fd1e76bc69d672e4814fafb2c449bba3a5369d8359adf9e05e6fde87b056910160405180910390a15050565b565b6110a9612ed8565b61109f612f33565b6000336110bf858285612f8d565b6110ca858585613019565b506001949350505050565b6110dd612ed8565b6110e561320d565b604051339081904780156108fc02916000818181858888f19350505050158015611113573d6000803e3d6000fd5b5050565b60608282116111685760405162461bcd60e51b815260206004820152600d60248201527f496e76616c696420696e646578000000000000000000000000000000000000006044820152606401610f9e565b6101cb548211156111bb5760405162461bcd60e51b815260206004820152601360248201527f496e646578206f7574206f6620626f756e6473000000000000000000000000006044820152606401610f9e565b60006111c78484614a00565b67ffffffffffffffff8111156111df576111df614222565b60405190808252806020026020018201604052801561123d57816020015b61122a6040518060600160405280600081526020016000815260200160006001600160a01b031681525090565b8152602001906001900390816111fd5790505b509050835b838110156112cf576101cb818154811061125e5761125e61494d565b6000918252602091829020604080516060810182526003909302909101805483526001810154938301939093526002909201546001600160a01b031691810191909152826112ac8784614a00565b815181106112bc576112bc61494d565b6020908102919091010152600101611242565b509392505050565b60006112e1613260565b905090565b6001600160a01b037f00000000000000000000000000000000000000000000000000000000000000001630036113735760405162461bcd60e51b815260206004820152602c60248201527f46756e6374696f6e206d7573742062652063616c6c6564207468726f7567682060448201526b19195b1959d85d1958d85b1b60a21b6064820152608401610f9e565b7f00000000000000000000000000000000000000000000000000000000000000006001600160a01b03166113ce7f360894a13ba1a3210667c828492db98dca3e2076cc3735a920a3ca505d382bbc546001600160a01b031690565b6001600160a01b0316146114395760405162461bcd60e51b815260206004820152602c60248201527f46756e6374696f6e206d7573742062652063616c6c6564207468726f7567682060448201526b6163746976652070726f787960a01b6064820152608401610f9e565b6114428161326a565b6040805160008082526020820190925261145e91839190613272565b50565b33600081815260ca602090815260408083206001600160a01b0387168452909152812054909190610c13908290869061149b9087906149ed565b612848565b6114a8612ed8565b6114b061320d565b60008281526101cc60205260409020546001600160a01b03166114d383826127be565b6114dc83613412565b6101c854604080516001600160a01b038086168252909216602083015281018490527ffbabfabc293b9daf3d9f8a42d485f10715027db90fd73abbe4ae4b4424decd049060600160405180910390a1505050565b611538612ed8565b61109f6134b2565b6001600160a01b038116600090815261016460205260409020546115b55760405162461bcd60e51b815260206004820152602660248201527f5061796d656e7453706c69747465723a206163636f756e7420686173206e6f2060448201526573686172657360d01b6064820152608401610f9e565b60006115c18383612140565b9050806000036116275760405162461bcd60e51b815260206004820152602b60248201527f5061796d656e7453706c69747465723a206163636f756e74206973206e6f742060448201526a191d59481c185e5b595b9d60aa1b6064820152608401610f9e565b6001600160a01b03831660009081526101676020526040812080548392906116509084906149ed565b90915550506001600160a01b0380841660009081526101686020908152604080832093861683529290522080548201905561168c8383836134eb565b604080516001600160a01b038481168252602082018490528516917f3be5b7a71e84ed12875d241991c70855ac5817d847039e17a9d895c1ceb0f18a910160405180910390a2505050565b6116df612ed8565b6116e761320d565b6101c9919091556101c680546001600160a01b039384166001600160a01b0319918216179091556101c88054929093169116179055565b6001600160a01b037f00000000000000000000000000000000000000000000000000000000000000001630036117ab5760405162461bcd60e51b815260206004820152602c60248201527f46756e6374696f6e206d7573742062652063616c6c6564207468726f7567682060448201526b19195b1959d85d1958d85b1b60a21b6064820152608401610f9e565b7f00000000000000000000000000000000000000000000000000000000000000006001600160a01b03166118067f360894a13ba1a3210667c828492db98dca3e2076cc3735a920a3ca505d382bbc546001600160a01b031690565b6001600160a01b0316146118715760405162461bcd60e51b815260206004820152602c60248201527f46756e6374696f6e206d7573742062652063616c6c6564207468726f7567682060448201526b6163746976652070726f787960a01b6064820152608401610f9e565b61187a8261326a565b61111382826001613272565b61188e61320d565b60008181526101cc602052604090205433906001600160a01b03168181036118ba576114d383836127be565b60405162461bcd60e51b815260206004820152603260248201527f636c61696d206d7573742062652066726f6d20636c61696d616e74732061646460448201527f726573732d2d20646973616c6c6f7765642e00000000000000000000000000006064820152608401610f9e565b505050565b6000306001600160a01b037f000000000000000000000000000000000000000000000000000000000000000016146119cd5760405162461bcd60e51b815260206004820152603860248201527f555550535570677261646561626c653a206d757374206e6f742062652063616c60448201527f6c6564207468726f7567682064656c656761746563616c6c00000000000000006064820152608401610f9e565b507f360894a13ba1a3210667c828492db98dca3e2076cc3735a920a3ca505d382bbc90565b60606101cb805480602002602001604051908101604052809291908181526020016000905b82821015611a6c576000848152602090819020604080516060810182526003860290920180548352600180820154848601526002909101546001600160a01b0316918301919091529083529092019101611a17565b50505050905090565b611a7d612ed8565b61109f6000613556565b6001600160a01b038116600090815261012f6020526040812054610c19565b600054610100900460ff1615808015611ac65750600054600160ff909116105b80611ae05750303b158015611ae0575060005460ff166001145b611b525760405162461bcd60e51b815260206004820152602e60248201527f496e697469616c697a61626c653a20636f6e747261637420697320616c72656160448201527f647920696e697469616c697a65640000000000000000000000000000000000006064820152608401610f9e565b6000805460ff191660011790558015611b75576000805461ff0019166101001790555b611b7d6135a9565b611b8561361c565b611b8d61368f565b801561145e576000805461ff0019169055604051600181527f7f26b83ff96e1f2b6a682f133852f6798a09c465da95921460cefb38474024989060200160405180910390a150565b611bdd61320d565b6000806000611beb846136fa565b9050806101c954611bfc91906149ed565b341015611c0857600080fd5b6000805b6101cb54811015611c8357856101cb8281548110611c2c57611c2c61494d565b90600052602060002090600302016000015403611c7b576101cb8181548110611c5757611c5761494d565b60009182526020909120600260039092020101546001600160a01b03169150611c83565b600101611c0c565b50604051600b906000906001600160a01b0384169083908381818185875af1925050503d8060008114611cd2576040519150601f19603f3d011682016040523d82523d6000602084013e611cd7565b606091505b5050905080611d285760405162461bcd60e51b815260206004820152601460248201527f4661696c656420746f2073656e642045746865720000000000000000000000006044820152606401610f9e565b6101c6546040517fbf0e57a3000000000000000000000000000000000000000000000000000000008152600481018a905260248101899052600060448201523460648201526001600160a01b039091169063bf0e57a3906084016020604051808303816000875af1158015611da1573d6000803e3d6000fd5b505050506040513d601f19601f82011682018060405250810190611dc5919061471c565b50816101c954611dd591906149ed565b341115611e96576000336001600160a01b0316836101c95434611df89190614a00565b611e029190614a00565b604051600081818185875af1925050503d8060008114611e3e576040519150601f19603f3d011682016040523d82523d6000602084013e611e43565b606091505b5050905080611e945760405162461bcd60e51b815260206004820152601d60248201527f4661696c656420746f20726566756e64206578636573732045746865720000006044820152606401610f9e565b505b604080518981526001600160a01b0388811660208301528183018a90528716606082015290517f8557df6951fbdd47fe9027516fc896be40f285ed55a6acac460352adbab730cd9181900360800190a15050505050505050565b60006060806000806000606060fb546000801b148015611f10575060fc54155b611f5c5760405162461bcd60e51b815260206004820152601560248201527f4549503731323a20556e696e697469616c697a656400000000000000000000006044820152606401610f9e565b611f6461379b565b611f6c6137aa565b604080516000808252602082019092527f0f000000000000000000000000000000000000000000000000000000000000009b939a50919850469750309650945092509050565b6101ca6020528160005260406000208181548110611fcf57600080fd5b60009182526020909120600390910201805460018201546002909201549093509091506001600160a01b031683565b600061016682815481106120145761201461494d565b6000918252602090912001546001600160a01b031692915050565b606060cd8054610b82906146e8565b60008061204b6101635490565b61205590476149ed565b9050612081838261207c866001600160a01b03166000908152610165602052604090205490565b6137b9565b9392505050565b33600081815260ca602090815260408083206001600160a01b0387168452909152812054909190838110156121255760405162461bcd60e51b815260206004820152602560248201527f45524332303a2064656372656173656420616c6c6f77616e63652062656c6f7760448201527f207a65726f0000000000000000000000000000000000000000000000000000006064820152608401610f9e565b6110ca8286868403612848565b600033610c13818585613019565b6001600160a01b0382166000908152610167602052604081205481906040517f70a082310000000000000000000000000000000000000000000000000000000081523060048201526001600160a01b038616906370a0823190602401602060405180830381865afa1580156121b9573d6000803e3d6000fd5b505050506040513d601f19601f820116820180604052508101906121dd919061471c565b6121e791906149ed565b6001600160a01b0380861660009081526101686020908152604080832093881683529290522054909150610f2590849083906137b9565b612226612ed8565b61222e61320d565b6101c955565b61223c61320d565b6101cb54821061228e5760405162461bcd60e51b815260206004820152601360248201527f496e646578206f7574206f6620626f756e6473000000000000000000000000006044820152606401610f9e565b600033905060006101cb84815481106122a9576122a961494d565b6000918252602091829020604080516060810182526003909302909101805483526001810154938301939093526002909201546001600160a01b0316918101829052915033146122f857600080fd5b6040518060600160405280600081526020016000815260200160006001600160a01b03168152506101cb85815481106123335761233361494d565b6000918252602091829020835160039290920201908155908201516001820155604090910151600290910180546001600160a01b0319166001600160a01b0390921691909117905561238583836127be565b6101c8548151604080516001600160a01b03808716825290931660208401528201527f0ece05e698e9e143fb75b2ad0aba7f141238c27b6d3e9728898183ee0d68498b906060015b60405180910390a150505050565b6123e3612ed8565b6123eb61320d565b6101c780546001600160a01b0319166001600160a01b0392909216919091179055565b8342111561245e5760405162461bcd60e51b815260206004820152601d60248201527f45524332305065726d69743a206578706972656420646561646c696e650000006044820152606401610f9e565b60007f6e71edae12b1b97f4d1f60370fef10105fa2faae0126114a169c64845d6126c988888861248d8c6137f9565b6040805160208101969096526001600160a01b0394851690860152929091166060840152608083015260a082015260c0810186905260e00160405160208183030381529060405280519060200120905060006124e882613820565b905060006124f882878787613868565b9050896001600160a01b0316816001600160a01b03161461255b5760405162461bcd60e51b815260206004820152601e60248201527f45524332305065726d69743a20696e76616c6964207369676e617475726500006044820152606401610f9e565b6125668a8a8a612848565b50505050505050505050565b6001600160a01b03811660009081526101cd60209081526040808320805482518185028101850190935280835260609492939192909184015b828210156126265760008481526020908190206040805160c0810182526005860290920180546001600160a01b03908116845260018083015485870152600283015460ff8116151594860194909452610100909304166060840152600381015460808401526004015460a083015290835290920191016125ab565b505050509050919050565b6101c8546040517fe985e9c50000000000000000000000000000000000000000000000000000000081526001600160a01b0384811660048301528381166024830152600092169063e985e9c590604401602060405180830381865afa15801561269e573d6000803e3d6000fd5b505050506040513d601f19601f820116820180604052508101906120819190614a13565b6101cd60205281600052604060002081815481106126df57600080fd5b6000918252602090912060059091020180546001820154600283015460038401546004909401546001600160a01b03938416965091945060ff811693610100909104909216919086565b612731612ed8565b6001600160a01b0381166127ad5760405162461bcd60e51b815260206004820152602660248201527f4f776e61626c653a206e6577206f776e657220697320746865207a65726f206160448201527f64647265737300000000000000000000000000000000000000000000000000006064820152608401610f9e565b61145e81613556565b6127be612ed8565b6101c8546040517f23b872dd0000000000000000000000000000000000000000000000000000000081523060048201526001600160a01b03838116602483015260448201859052909116906323b872dd90606401600060405180830381600087803b15801561282c57600080fd5b505af1158015612840573d6000803e3d6000fd5b505050505050565b6001600160a01b0383166128c35760405162461bcd60e51b8152602060048201526024808201527f45524332303a20617070726f76652066726f6d20746865207a65726f2061646460448201527f72657373000000000000000000000000000000000000000000000000000000006064820152608401610f9e565b6001600160a01b03821661293f5760405162461bcd60e51b815260206004820152602260248201527f45524332303a20617070726f766520746f20746865207a65726f20616464726560448201527f73730000000000000000000000000000000000000000000000000000000000006064820152608401610f9e565b6001600160a01b03838116600081815260ca602090815260408083209487168084529482529182902085905590518481527f8c5be1e5ebec7d5bd14f71427d1e84f3dd0314c0f7b2291e5b200ac8c7c3b925910160405180910390a3505050565b61145e816040516024016129b491906141ce565b60408051601f198184030181529190526020810180516001600160e01b03167f41304fac00000000000000000000000000000000000000000000000000000000179052613890565b61145e81604051602401612a1291815260200190565b60408051601f198184030181529190526020810180516001600160e01b03167ff82c50f100000000000000000000000000000000000000000000000000000000179052613890565b612a986040518060400160405280601881526020017f6c697374696e672e2e2e2e2e2e2e2e2e2e2e2e2e2e2e2e3a00000000000000008152506129a0565b604080516060808201835285825260208083018681526001600160a01b0386811685870181815260009182526101ca85528782208054600180820183559184529286902088516003909402019283559351938201939093559151600290920180546001600160a01b031916928216929092179091556101c85485513381529116918101919091529283018690528201849052907fb30319a217488a3ed441c348e935a48d16091e33109bab0c79a353b979752883906080016123cd565b80516020808301516001600160a01b03831660009081526101cd90925260409091205415612c585760005b6001600160a01b03831660009081526101cd6020526040902054811015612c52576001600160a01b0383811660009081526101cd6020526040902080549184169183908110612bd157612bd161494d565b600091825260209091206005909102016002015461010090046001600160a01b031603612c4a576001600160a01b03831660009081526101cd6020526040902080546001919083908110612c2757612c2761494d565b60009182526020909120600590910201600201805460ff19169115159190911790555b600101612b80565b50505050565b6020808401516001600160a01b031660009081526101cd909152604090205415612d515760005b6001600160a01b03821660009081526101cd6020526040902054811015612c52576001600160a01b0382811660009081526101cd6020526040902080549185169183908110612cd057612cd061494d565b600091825260209091206005909102016002015461010090046001600160a01b031603612d49576001600160a01b03821660009081526101cd6020526040902080546001919083908110612d2657612d2661494d565b60009182526020909120600590910201600201805460ff19169115159190911790555b600101612c7f565b60405162461bcd60e51b815260206004820152602560248201527f706c616e65742073656e7420657272616e746c792c206e6f206f6e6520746f2060448201527f636c61696d0000000000000000000000000000000000000000000000000000006064820152608401610f9e565b80471015612e0f5760405162461bcd60e51b815260206004820152601d60248201527f416464726573733a20696e73756666696369656e742062616c616e63650000006044820152606401610f9e565b6000826001600160a01b03168260405160006040518083038185875af1925050503d8060008114612e5c576040519150601f19603f3d011682016040523d82523d6000602084013e612e61565b606091505b50509050806119285760405162461bcd60e51b815260206004820152603a60248201527f416464726573733a20756e61626c6520746f2073656e642076616c75652c207260448201527f6563697069656e74206d617920686176652072657665727465640000000000006064820152608401610f9e565b610194546001600160a01b0316331461109f5760405162461bcd60e51b815260206004820181905260248201527f4f776e61626c653a2063616c6c6572206973206e6f7420746865206f776e65726044820152606401610f9e565b612f3b61320d565b6033805460ff191660011790557f62e78cea01bee320cd4e420270b5ea74000d11b0c9f74754ebdbfc544b05a258612f703390565b6040516001600160a01b03909116815260200160405180910390a1565b6001600160a01b03838116600090815260ca60209081526040808320938616835292905220546000198114612c52578181101561300c5760405162461bcd60e51b815260206004820152601d60248201527f45524332303a20696e73756666696369656e7420616c6c6f77616e63650000006044820152606401610f9e565b612c528484848403612848565b6001600160a01b0383166130955760405162461bcd60e51b815260206004820152602560248201527f45524332303a207472616e736665722066726f6d20746865207a65726f20616460448201527f64726573730000000000000000000000000000000000000000000000000000006064820152608401610f9e565b6001600160a01b0382166131115760405162461bcd60e51b815260206004820152602360248201527f45524332303a207472616e7366657220746f20746865207a65726f206164647260448201527f65737300000000000000000000000000000000000000000000000000000000006064820152608401610f9e565b6001600160a01b038316600090815260c96020526040902054818110156131a05760405162461bcd60e51b815260206004820152602660248201527f45524332303a207472616e7366657220616d6f756e742065786365656473206260448201527f616c616e636500000000000000000000000000000000000000000000000000006064820152608401610f9e565b6001600160a01b03808516600081815260c9602052604080822086860390559286168082529083902080548601905591517fddf252ad1be2c89b69c2b068fc378daa952ba7f163c4a11628f55a4df523b3ef906132009086815260200190565b60405180910390a3612c52565b60335460ff161561109f5760405162461bcd60e51b815260206004820152601060248201527f5061757361626c653a20706175736564000000000000000000000000000000006044820152606401610f9e565b60006112e1613899565b61145e612ed8565b7f4910fdfa16fed3260ed0e7147f7cc6da11a60208b5b9406d12a635614ffd91435460ff16156132a5576119288361390d565b826001600160a01b03166352d1902d6040518163ffffffff1660e01b8152600401602060405180830381865afa9250505080156132ff575060408051601f3d908101601f191682019092526132fc9181019061471c565b60015b6133715760405162461bcd60e51b815260206004820152602e60248201527f45524331393637557067726164653a206e657720696d706c656d656e7461746960448201527f6f6e206973206e6f7420555550530000000000000000000000000000000000006064820152608401610f9e565b7f360894a13ba1a3210667c828492db98dca3e2076cc3735a920a3ca505d382bbc81146134065760405162461bcd60e51b815260206004820152602960248201527f45524331393637557067726164653a20756e737570706f727465642070726f7860448201527f6961626c655555494400000000000000000000000000000000000000000000006064820152608401610f9e565b506119288383836139cb565b60008181526101cc60209081526040808320546001600160a01b03168084526101cd909252822090915b8154811015612c5257838282815481106134585761345861494d565b906000526020600020906005020160040154036134aa5760018282815481106134835761348361494d565b60009182526020909120600590910201600201805460ff1916911515919091179055612c52565b60010161343c565b6134ba6139f0565b6033805460ff191690557f5db9ee0a495bf2e6ff9c91a7834c1ba4fdd244a5e8aa4e537bd38aeae4b073aa33612f70565b604080516001600160a01b038416602482015260448082018490528251808303909101815260649091019091526020810180516001600160e01b03167fa9059cbb00000000000000000000000000000000000000000000000000000000179052611928908490613a42565b61019480546001600160a01b038381166001600160a01b0319831681179093556040519116919082907f8be0079c531659141344cd1fd0a4f28419497f9722a3daafe3b4186f6b6457e090600090a35050565b600054610100900460ff166136145760405162461bcd60e51b815260206004820152602b60248201527f496e697469616c697a61626c653a20636f6e7472616374206973206e6f74206960448201526a6e697469616c697a696e6760a81b6064820152608401610f9e565b61109f613b2a565b600054610100900460ff166136875760405162461bcd60e51b815260206004820152602b60248201527f496e697469616c697a61626c653a20636f6e7472616374206973206e6f74206960448201526a6e697469616c697a696e6760a81b6064820152608401610f9e565b61109f613b9e565b600054610100900460ff1661109f5760405162461bcd60e51b815260206004820152602b60248201527f496e697469616c697a61626c653a20636f6e7472616374206973206e6f74206960448201526a6e697469616c697a696e6760a81b6064820152608401610f9e565b600061370461320d565b60005b6101cb5481101561379457826101cb82815481106137275761372761494d565b9060005260206000209060030201600001540361376c576101cb81815481106137525761375261494d565b906000526020600020906003020160010154915050919050565b6101cb5461377c90600190614a00565b810361378c575060001992915050565b600101613707565b505b919050565b606060fd8054610b82906146e8565b606060fe8054610b82906146e8565b610162546001600160a01b03841660009081526101646020526040812054909183916137e59086614a2e565b6137ef9190614a45565b610f259190614a00565b6001600160a01b038116600090815261012f60205260409020805460018101825590613794565b6000610c1961382d613260565b836040517f19010000000000000000000000000000000000000000000000000000000000008152600281019290925260228201526042902090565b600080600061387987878787613c15565b9150915061388681613cd9565b5095945050505050565b61145e81613e3e565b60007f8b73c3c69bb8fe3d512ecc4cf759cc79239f7b179b0ffacaa9a75d522b39400f6138c4613e5f565b6138cc613eb8565b60408051602081019490945283019190915260608201524660808201523060a082015260c00160405160208183030381529060405280519060200120905090565b6001600160a01b0381163b61398a5760405162461bcd60e51b815260206004820152602d60248201527f455243313936373a206e657720696d706c656d656e746174696f6e206973206e60448201527f6f74206120636f6e7472616374000000000000000000000000000000000000006064820152608401610f9e565b7f360894a13ba1a3210667c828492db98dca3e2076cc3735a920a3ca505d382bbc80546001600160a01b0319166001600160a01b0392909216919091179055565b6139d483613ee9565b6000825111806139e15750805b1561192857612c528383613f29565b60335460ff1661109f5760405162461bcd60e51b815260206004820152601460248201527f5061757361626c653a206e6f74207061757365640000000000000000000000006044820152606401610f9e565b6000613a97826040518060400160405280602081526020017f5361666545524332303a206c6f772d6c6576656c2063616c6c206661696c6564815250856001600160a01b0316613f4e9092919063ffffffff16565b9050805160001480613ab8575080806020019051810190613ab89190614a13565b6119285760405162461bcd60e51b815260206004820152602a60248201527f5361666545524332303a204552433230206f7065726174696f6e20646964206e60448201527f6f742073756363656564000000000000000000000000000000000000000000006064820152608401610f9e565b600054610100900460ff16613b955760405162461bcd60e51b815260206004820152602b60248201527f496e697469616c697a61626c653a20636f6e7472616374206973206e6f74206960448201526a6e697469616c697a696e6760a81b6064820152608401610f9e565b61109f33613556565b600054610100900460ff16613c095760405162461bcd60e51b815260206004820152602b60248201527f496e697469616c697a61626c653a20636f6e7472616374206973206e6f74206960448201526a6e697469616c697a696e6760a81b6064820152608401610f9e565b6033805460ff19169055565b6000807f7fffffffffffffffffffffffffffffff5d576e7357a4501ddfe92f46681b20a0831115613c4c5750600090506003613cd0565b6040805160008082526020820180845289905260ff881692820192909252606081018690526080810185905260019060a0016020604051602081039080840390855afa158015613ca0573d6000803e3d6000fd5b5050604051601f1901519150506001600160a01b038116613cc957600060019250925050613cd0565b9150600090505b94509492505050565b6000816004811115613ced57613ced614a67565b03613cf55750565b6001816004811115613d0957613d09614a67565b03613d565760405162461bcd60e51b815260206004820152601860248201527f45434453413a20696e76616c6964207369676e617475726500000000000000006044820152606401610f9e565b6002816004811115613d6a57613d6a614a67565b03613db75760405162461bcd60e51b815260206004820152601f60248201527f45434453413a20696e76616c6964207369676e6174757265206c656e677468006044820152606401610f9e565b6003816004811115613dcb57613dcb614a67565b0361145e5760405162461bcd60e51b815260206004820152602260248201527f45434453413a20696e76616c6964207369676e6174757265202773272076616c60448201527f75650000000000000000000000000000000000000000000000000000000000006064820152608401610f9e565b60006a636f6e736f6c652e6c6f679050600080835160208501845afa505050565b600080613e6a61379b565b805190915015613e81578051602090910120919050565b60fb548015613e905792915050565b7fc5d2460186f7233c927e7db2dcc703c0e500b653ca82273b7bfad8045d85a4709250505090565b600080613ec36137aa565b805190915015613eda578051602090910120919050565b60fc548015613e905792915050565b613ef28161390d565b6040516001600160a01b038216907fbc7cd75a20ee27fd9adebab32041f755214dbc6bffa90cc0225b39da2e5c2d3b90600090a250565b60606120818383604051806060016040528060278152602001614a9a60279139613f5d565b6060610f258484600085613fd5565b6060600080856001600160a01b031685604051613f7a9190614a7d565b600060405180830381855af49150503d8060008114613fb5576040519150601f19603f3d011682016040523d82523d6000602084013e613fba565b606091505b5091509150613fcb868383876140c7565b9695505050505050565b60608247101561404d5760405162461bcd60e51b815260206004820152602660248201527f416464726573733a20696e73756666696369656e742062616c616e636520666f60448201527f722063616c6c00000000000000000000000000000000000000000000000000006064820152608401610f9e565b600080866001600160a01b031685876040516140699190614a7d565b60006040518083038185875af1925050503d80600081146140a6576040519150601f19603f3d011682016040523d82523d6000602084013e6140ab565b606091505b50915091506140bc878383876140c7565b979650505050505050565b6060831561413657825160000361412f576001600160a01b0385163b61412f5760405162461bcd60e51b815260206004820152601d60248201527f416464726573733a2063616c6c20746f206e6f6e2d636f6e74726163740000006044820152606401610f9e565b5081610f25565b610f25838381511561414b5781518083602001fd5b8060405162461bcd60e51b8152600401610f9e91906141ce565b60006020828403121561417757600080fd5b5035919050565b60005b83811015614199578181015183820152602001614181565b50506000910152565b600081518084526141ba81602086016020860161417e565b601f01601f19169290920160200192915050565b60208152600061208160208301846141a2565b6001600160a01b038116811461145e57600080fd5b6000806040838503121561420957600080fd5b8235614214816141e1565b946020939093013593505050565b634e487b7160e01b600052604160045260246000fd5b604051610160810167ffffffffffffffff8111828210171561425c5761425c614222565b60405290565b604051601f8201601f1916810167ffffffffffffffff8111828210171561428b5761428b614222565b604052919050565b600082601f8301126142a457600080fd5b813567ffffffffffffffff8111156142be576142be614222565b6142d1601f8201601f1916602001614262565b8181528460208386010111156142e657600080fd5b816020850160208301376000918101602001919091529392505050565b6000806000806080858703121561431957600080fd5b8435614324816141e1565b93506020850135614334816141e1565b925060408501359150606085013567ffffffffffffffff81111561435757600080fd5b61436387828801614293565b91505092959194509250565b60006020828403121561438157600080fd5b8135612081816141e1565b6000806000606084860312156143a157600080fd5b83356143ac816141e1565b925060208401356143bc816141e1565b929592945050506040919091013590565b600080604083850312156143e057600080fd5b50508035926020909101359150565b602080825282518282018190526000919060409081850190868401855b828110156144445781518051855286810151878601528501516001600160a01b0316858501526060909301929085019060010161440c565b5091979650505050505050565b6000806040838503121561446457600080fd5b823591506020830135614476816141e1565b809150509250929050565b6000806040838503121561449457600080fd5b823561449f816141e1565b91506020830135614476816141e1565b6000806000606084860312156144c457600080fd5b83356144cf816141e1565b92506020840135915060408401356144e6816141e1565b809150509250925092565b6000806040838503121561450457600080fd5b823561450f816141e1565b9150602083013567ffffffffffffffff81111561452b57600080fd5b61453785828601614293565b9150509250929050565b7fff00000000000000000000000000000000000000000000000000000000000000881681526000602060e0602084015261457e60e084018a6141a2565b8381036040850152614590818a6141a2565b606085018990526001600160a01b038816608086015260a0850187905284810360c08601528551808252602080880193509091019060005b818110156145e4578351835292840192918401916001016145c8565b50909c9b505050505050505050505050565b600080600080600080600060e0888a03121561461157600080fd5b873561461c816141e1565b9650602088013561462c816141e1565b95506040880135945060608801359350608088013560ff8116811461465057600080fd5b9699959850939692959460a0840135945060c09093013592915050565b602080825282518282018190526000919060409081850190868401855b8281101561444457815180516001600160a01b039081168652878201518887015286820151151587870152606080830151909116908601526080808201519086015260a0908101519085015260c0909301929085019060010161468a565b600181811c908216806146fc57607f821691505b60208210810361379457634e487b7160e01b600052602260045260246000fd5b60006020828403121561472e57600080fd5b5051919050565b60006001600160a01b03808716835280861660208401525083604083015260a0606083015261476760a08301846141a2565b8281036080840152600e81527f6c697374696e6720706c616e657400000000000000000000000000000000000060208201526040810191505095945050505050565b600082601f8301126147ba57600080fd5b8151602067ffffffffffffffff8211156147d6576147d6614222565b8160051b6147e5828201614262565b92835284810182019282810190878511156147ff57600080fd5b83870192505b848310156140bc57825182529183019190830190614805565b8051801515811461379657600080fd5b6000806040838503121561484157600080fd5b825167ffffffffffffffff8082111561485957600080fd5b90840190610160828703121561486e57600080fd5b614876614238565b825181526020830151602082015260408301516040820152606083015160608201526080830151608082015260a083015160a082015260c083015160c082015260e083015160e082015261010080840151838111156148d457600080fd5b6148e0898287016147a9565b82840152505061012080840151838111156148fa57600080fd5b614906898287016147a9565b828401525050610140808401518381111561492057600080fd5b61492c898287016147a9565b8284015250508094505050506149446020840161481e565b90509250929050565b634e487b7160e01b600052603260045260246000fd5b60006001600160a01b03808716835280861660208401525083604083015260a0606083015261499560a08301846141a2565b8281036080840152600a81527f6e657720706c616e65740000000000000000000000000000000000000000000060208201526040810191505095945050505050565b634e487b7160e01b600052601160045260246000fd5b80820180821115610c1957610c196149d7565b81810381811115610c1957610c196149d7565b600060208284031215614a2557600080fd5b6120818261481e565b8082028115828204841417610c1957610c196149d7565b600082614a6257634e487b7160e01b600052601260045260246000fd5b500490565b634e487b7160e01b600052602160045260246000fd5b60008251614a8f81846020870161417e565b919091019291505056fe416464726573733a206c6f772d6c6576656c2064656c65676174652063616c6c206661696c6564a2646970667358221220083b767f76cf242269c08ce452d544fb3f24706eff21f0ab0ba737b316ac284364736f6c63430008180033",
  "linkReferences": {},
  "deployedLinkReferences": {}
}