{
  "_format": "hh-sol-artifact-1",
  "contractName": "HatcherV2",
  "sourceName": "contracts/HatcherV2.sol",
  "abi": [
    {
      "inputs": [],
      "name": "Unauthorized",
      "type": "error"
    },
    {
      "anonymous": false,
      "inputs": [
        {
          "indexed": false,
          "internalType": "address",
          "name": "previousAdmin",
          "type": "address"
        },
        {
          "indexed": false,
          "internalType": "address",
          "name": "newAdmin",
          "type": "address"
        }
      ],
      "name": "AdminChanged",
      "type": "event"
    },
    {
      "anonymous": false,
      "inputs": [
        {
          "indexed": true,
          "internalType": "address",
          "name": "owner",
          "type": "address"
        },
        {
          "indexed": true,
          "internalType": "address",
          "name": "spender",
          "type": "address"
        },
        {
          "indexed": false,
          "internalType": "uint256",
          "name": "value",
          "type": "uint256"
        }
      ],
      "name": "Approval",
      "type": "event"
    },
    {
      "anonymous": false,
      "inputs": [
        {
          "indexed": true,
          "internalType": "address",
          "name": "beacon",
          "type": "address"
        }
      ],
      "name": "BeaconUpgraded",
      "type": "event"
    },
    {
      "anonymous": false,
      "inputs": [
        {
          "indexed": false,
          "internalType": "address",
          "name": "sentToUser",
          "type": "address"
        },
        {
          "indexed": false,
          "internalType": "address",
          "name": "token",
          "type": "address"
        },
        {
          "indexed": false,
          "internalType": "uint256",
          "name": "tokenId",
          "type": "uint256"
        }
      ],
      "name": "DeClaimedAPlanet",
      "type": "event"
    },
    {
      "anonymous": false,
      "inputs": [
        {
          "indexed": false,
          "internalType": "address",
          "name": "sentToUser",
          "type": "address"
        },
        {
          "indexed": false,
          "internalType": "address",
          "name": "token",
          "type": "address"
        },
        {
          "indexed": false,
          "internalType": "uint256",
          "name": "tokenId",
          "type": "uint256"
        }
      ],
      "name": "DeListedAPlanet",
      "type": "event"
    },
    {
      "anonymous": false,
      "inputs": [],
      "name": "EIP712DomainChanged",
      "type": "event"
    },
    {
      "anonymous": false,
      "inputs": [
        {
          "indexed": true,
          "internalType": "contract IERC20Upgradeable",
          "name": "token",
          "type": "address"
        },
        {
          "indexed": false,
          "internalType": "address",
          "name": "to",
          "type": "address"
        },
        {
          "indexed": false,
          "internalType": "uint256",
          "name": "amount",
          "type": "uint256"
        }
      ],
      "name": "ERC20PaymentReleased",
      "type": "event"
    },
    {
      "anonymous": false,
      "inputs": [
        {
          "indexed": false,
          "internalType": "uint8",
          "name": "version",
          "type": "uint8"
        }
      ],
      "name": "Initialized",
      "type": "event"
    },
    {
      "anonymous": false,
      "inputs": [
        {
          "indexed": false,
          "internalType": "address",
          "name": "sentFromUser",
          "type": "address"
        },
        {
          "indexed": false,
          "internalType": "address",
          "name": "token",
          "type": "address"
        },
        {
          "indexed": false,
          "internalType": "uint256",
          "name": "tokenId",
          "type": "uint256"
        },
        {
          "indexed": false,
          "internalType": "uint256",
          "name": "price",
          "type": "uint256"
        }
      ],
      "name": "ListedAPlanet",
      "type": "event"
    },
    {
      "anonymous": false,
      "inputs": [
        {
          "indexed": false,
          "internalType": "address",
          "name": "operator",
          "type": "address"
        },
        {
          "indexed": false,
          "internalType": "address",
          "name": "from",
          "type": "address"
        },
        {
          "indexed": false,
          "internalType": "uint256",
          "name": "tokenId",
          "type": "uint256"
        },
        {
          "indexed": false,
          "internalType": "bytes",
          "name": "data",
          "type": "bytes"
        },
        {
          "indexed": false,
          "internalType": "string",
          "name": "typeOfReceival",
          "type": "string"
        }
      ],
      "name": "NftReceived",
      "type": "event"
    },
    {
      "anonymous": false,
      "inputs": [
        {
          "indexed": true,
          "internalType": "address",
          "name": "previousOwner",
          "type": "address"
        },
        {
          "indexed": true,
          "internalType": "address",
          "name": "newOwner",
          "type": "address"
        }
      ],
      "name": "OwnershipTransferred",
      "type": "event"
    },
    {
      "anonymous": false,
      "inputs": [
        {
          "indexed": false,
          "internalType": "address",
          "name": "account",
          "type": "address"
        }
      ],
      "name": "Paused",
      "type": "event"
    },
    {
      "anonymous": false,
      "inputs": [
        {
          "indexed": false,
          "internalType": "address",
          "name": "account",
          "type": "address"
        },
        {
          "indexed": false,
          "internalType": "uint256",
          "name": "shares",
          "type": "uint256"
        }
      ],
      "name": "PayeeAdded",
      "type": "event"
    },
    {
      "anonymous": false,
      "inputs": [
        {
          "indexed": false,
          "internalType": "address",
          "name": "from",
          "type": "address"
        },
        {
          "indexed": false,
          "internalType": "uint256",
          "name": "amount",
          "type": "uint256"
        }
      ],
      "name": "PaymentReceived",
      "type": "event"
    },
    {
      "anonymous": false,
      "inputs": [
        {
          "indexed": false,
          "internalType": "address",
          "name": "to",
          "type": "address"
        },
        {
          "indexed": false,
          "internalType": "uint256",
          "name": "amount",
          "type": "uint256"
        }
      ],
      "name": "PaymentReleased",
      "type": "event"
    },
    {
      "anonymous": false,
      "inputs": [
        {
          "indexed": false,
          "internalType": "uint256",
          "name": "planetAsking",
          "type": "uint256"
        },
        {
          "indexed": false,
          "internalType": "address",
          "name": "askingUser",
          "type": "address"
        },
        {
          "indexed": false,
          "internalType": "uint256",
          "name": "planetJoining",
          "type": "uint256"
        },
        {
          "indexed": false,
          "internalType": "address",
          "name": "joiningUser",
          "type": "address"
        }
      ],
      "name": "PlanetsConjoining",
      "type": "event"
    },
    {
      "anonymous": false,
      "inputs": [
        {
          "indexed": true,
          "internalType": "address",
          "name": "from",
          "type": "address"
        },
        {
          "indexed": true,
          "internalType": "address",
          "name": "to",
          "type": "address"
        },
        {
          "indexed": false,
          "internalType": "uint256",
          "name": "value",
          "type": "uint256"
        }
      ],
      "name": "Transfer",
      "type": "event"
    },
    {
      "anonymous": false,
      "inputs": [
        {
          "indexed": false,
          "internalType": "address",
          "name": "account",
          "type": "address"
        }
      ],
      "name": "Unpaused",
      "type": "event"
    },
    {
      "anonymous": false,
      "inputs": [
        {
          "indexed": true,
          "internalType": "address",
          "name": "implementation",
          "type": "address"
        }
      ],
      "name": "Upgraded",
      "type": "event"
    },
    {
      "inputs": [],
      "name": "DOMAIN_SEPARATOR",
      "outputs": [
        {
          "internalType": "bytes32",
          "name": "",
          "type": "bytes32"
        }
      ],
      "stateMutability": "view",
      "type": "function"
    },
    {
      "inputs": [
        {
          "internalType": "address",
          "name": "owner",
          "type": "address"
        },
        {
          "internalType": "address",
          "name": "spender",
          "type": "address"
        }
      ],
      "name": "allowance",
      "outputs": [
        {
          "internalType": "uint256",
          "name": "",
          "type": "uint256"
        }
      ],
      "stateMutability": "view",
      "type": "function"
    },
    {
      "inputs": [
        {
          "internalType": "address",
          "name": "spender",
          "type": "address"
        },
        {
          "internalType": "uint256",
          "name": "amount",
          "type": "uint256"
        }
      ],
      "name": "approve",
      "outputs": [
        {
          "internalType": "bool",
          "name": "",
          "type": "bool"
        }
      ],
      "stateMutability": "nonpayable",
      "type": "function"
    },
    {
      "inputs": [
        {
          "internalType": "address",
          "name": "account",
          "type": "address"
        }
      ],
      "name": "balanceOf",
      "outputs": [
        {
          "internalType": "uint256",
          "name": "",
          "type": "uint256"
        }
      ],
      "stateMutability": "view",
      "type": "function"
    },
    {
      "inputs": [],
      "name": "breedContract",
      "outputs": [
        {
          "internalType": "contract IBreedContract",
          "name": "",
          "type": "address"
        }
      ],
      "stateMutability": "view",
      "type": "function"
    },
    {
      "inputs": [
        {
          "internalType": "uint256",
          "name": "newVRF",
          "type": "uint256"
        }
      ],
      "name": "changeVRFValue",
      "outputs": [],
      "stateMutability": "nonpayable",
      "type": "function"
    },
    {
      "inputs": [
        {
          "internalType": "address",
          "name": "owner",
          "type": "address"
        },
        {
          "internalType": "address",
          "name": "operator",
          "type": "address"
        }
      ],
      "name": "checkApprovalForAll",
      "outputs": [
        {
          "internalType": "bool",
          "name": "",
          "type": "bool"
        }
      ],
      "stateMutability": "view",
      "type": "function"
    },
    {
      "inputs": [
        {
          "internalType": "uint256",
          "name": "claimableTokenId",
          "type": "uint256"
        }
      ],
      "name": "claimPlanet",
      "outputs": [],
      "stateMutability": "nonpayable",
      "type": "function"
    },
    {
      "inputs": [
        {
          "internalType": "address",
          "name": "",
          "type": "address"
        },
        {
          "internalType": "uint256",
          "name": "",
          "type": "uint256"
        }
      ],
      "name": "claimablePlanets",
      "outputs": [
        {
          "internalType": "address",
          "name": "ownerParentAddress",
          "type": "address"
        },
        {
          "internalType": "uint256",
          "name": "ownerTokenId",
          "type": "uint256"
        },
        {
          "internalType": "bool",
          "name": "delivered",
          "type": "bool"
        },
        {
          "internalType": "address",
          "name": "otherParent",
          "type": "address"
        },
        {
          "internalType": "uint256",
          "name": "otherTokenId",
          "type": "uint256"
        },
        {
          "internalType": "uint256",
          "name": "claimsTokenId",
          "type": "uint256"
        }
      ],
      "stateMutability": "view",
      "type": "function"
    },
    {
      "inputs": [
        {
          "internalType": "uint256",
          "name": "",
          "type": "uint256"
        }
      ],
      "name": "claimableTokenIdToOwnerAddress",
      "outputs": [
        {
          "internalType": "address",
          "name": "",
          "type": "address"
        }
      ],
      "stateMutability": "view",
      "type": "function"
    },
    {
      "inputs": [
        {
          "internalType": "uint256",
          "name": "yourPlanet",
          "type": "uint256"
        },
        {
          "internalType": "uint256",
          "name": "withListedPlanet",
          "type": "uint256"
        }
      ],
      "name": "conjunct",
      "outputs": [],
      "stateMutability": "payable",
      "type": "function"
    },
    {
      "inputs": [
        {
          "internalType": "uint256",
          "name": "idIndex",
          "type": "uint256"
        },
        {
          "internalType": "uint256",
          "name": "tokenId",
          "type": "uint256"
        }
      ],
      "name": "deList",
      "outputs": [],
      "stateMutability": "nonpayable",
      "type": "function"
    },
    {
      "inputs": [],
      "name": "deListAllYourPlanets",
      "outputs": [],
      "stateMutability": "nonpayable",
      "type": "function"
    },
    {
      "inputs": [],
      "name": "decimals",
      "outputs": [
        {
          "internalType": "uint8",
          "name": "",
          "type": "uint8"
        }
      ],
      "stateMutability": "view",
      "type": "function"
    },
    {
      "inputs": [
        {
          "internalType": "address",
          "name": "spender",
          "type": "address"
        },
        {
          "internalType": "uint256",
          "name": "subtractedValue",
          "type": "uint256"
        }
      ],
      "name": "decreaseAllowance",
      "outputs": [
        {
          "internalType": "bool",
          "name": "",
          "type": "bool"
        }
      ],
      "stateMutability": "nonpayable",
      "type": "function"
    },
    {
      "inputs": [],
      "name": "eip712Domain",
      "outputs": [
        {
          "internalType": "bytes1",
          "name": "fields",
          "type": "bytes1"
        },
        {
          "internalType": "string",
          "name": "name",
          "type": "string"
        },
        {
          "internalType": "string",
          "name": "version",
          "type": "string"
        },
        {
          "internalType": "uint256",
          "name": "chainId",
          "type": "uint256"
        },
        {
          "internalType": "address",
          "name": "verifyingContract",
          "type": "address"
        },
        {
          "internalType": "bytes32",
          "name": "salt",
          "type": "bytes32"
        },
        {
          "internalType": "uint256[]",
          "name": "extensions",
          "type": "uint256[]"
        }
      ],
      "stateMutability": "view",
      "type": "function"
    },
    {
      "inputs": [],
      "name": "getAllPlanets",
      "outputs": [
        {
          "components": [
            {
              "internalType": "uint256",
              "name": "tokenId",
              "type": "uint256"
            },
            {
              "internalType": "uint256",
              "name": "price",
              "type": "uint256"
            },
            {
              "internalType": "address",
              "name": "ownerAddress",
              "type": "address"
            },
            {
              "internalType": "bool",
              "name": "active",
              "type": "bool"
            }
          ],
          "internalType": "struct ListedPlanet[]",
          "name": "",
          "type": "tuple[]"
        }
      ],
      "stateMutability": "view",
      "type": "function"
    },
    {
      "inputs": [
        {
          "internalType": "address",
          "name": "userAddr",
          "type": "address"
        }
      ],
      "name": "getClaimablePlanet",
      "outputs": [
        {
          "components": [
            {
              "internalType": "address",
              "name": "ownerParentAddress",
              "type": "address"
            },
            {
              "internalType": "uint256",
              "name": "ownerTokenId",
              "type": "uint256"
            },
            {
              "internalType": "bool",
              "name": "delivered",
              "type": "bool"
            },
            {
              "internalType": "address",
              "name": "otherParent",
              "type": "address"
            },
            {
              "internalType": "uint256",
              "name": "otherTokenId",
              "type": "uint256"
            },
            {
              "internalType": "uint256",
              "name": "claimsTokenId",
              "type": "uint256"
            }
          ],
          "internalType": "struct ClaimablePlanet[]",
          "name": "",
          "type": "tuple[]"
        }
      ],
      "stateMutability": "view",
      "type": "function"
    },
    {
      "inputs": [
        {
          "internalType": "uint256",
          "name": "claimableTokenId",
          "type": "uint256"
        }
      ],
      "name": "getClaimableTokenIdToOwnerAddress",
      "outputs": [
        {
          "internalType": "address",
          "name": "",
          "type": "address"
        }
      ],
      "stateMutability": "view",
      "type": "function"
    },
    {
      "inputs": [
        {
          "internalType": "uint256",
          "name": "startIndex",
          "type": "uint256"
        },
        {
          "internalType": "uint256",
          "name": "endIndex",
          "type": "uint256"
        }
      ],
      "name": "getPlanetsPaginated",
      "outputs": [
        {
          "components": [
            {
              "internalType": "uint256",
              "name": "tokenId",
              "type": "uint256"
            },
            {
              "internalType": "uint256",
              "name": "price",
              "type": "uint256"
            },
            {
              "internalType": "address",
              "name": "ownerAddress",
              "type": "address"
            },
            {
              "internalType": "bool",
              "name": "active",
              "type": "bool"
            }
          ],
          "internalType": "struct ListedPlanet[]",
          "name": "",
          "type": "tuple[]"
        }
      ],
      "stateMutability": "view",
      "type": "function"
    },
    {
      "inputs": [
        {
          "internalType": "address",
          "name": "userAddr",
          "type": "address"
        }
      ],
      "name": "getuserToListedPlanets",
      "outputs": [
        {
          "components": [
            {
              "internalType": "uint256",
              "name": "tokenId",
              "type": "uint256"
            },
            {
              "internalType": "uint256",
              "name": "price",
              "type": "uint256"
            },
            {
              "internalType": "address",
              "name": "ownerAddress",
              "type": "address"
            },
            {
              "internalType": "bool",
              "name": "active",
              "type": "bool"
            }
          ],
          "internalType": "struct ListedPlanet[]",
          "name": "",
          "type": "tuple[]"
        }
      ],
      "stateMutability": "view",
      "type": "function"
    },
    {
      "inputs": [
        {
          "internalType": "address",
          "name": "spender",
          "type": "address"
        },
        {
          "internalType": "uint256",
          "name": "addedValue",
          "type": "uint256"
        }
      ],
      "name": "increaseAllowance",
      "outputs": [
        {
          "internalType": "bool",
          "name": "",
          "type": "bool"
        }
      ],
      "stateMutability": "nonpayable",
      "type": "function"
    },
    {
      "inputs": [],
      "name": "initialize",
      "outputs": [],
      "stateMutability": "nonpayable",
      "type": "function"
    },
    {
      "inputs": [],
      "name": "listAllYourPlanets",
      "outputs": [],
      "stateMutability": "nonpayable",
      "type": "function"
    },
    {
      "inputs": [],
      "name": "name",
      "outputs": [
        {
          "internalType": "string",
          "name": "",
          "type": "string"
        }
      ],
      "stateMutability": "view",
      "type": "function"
    },
    {
      "inputs": [
        {
          "internalType": "address",
          "name": "owner",
          "type": "address"
        }
      ],
      "name": "nonces",
      "outputs": [
        {
          "internalType": "uint256",
          "name": "",
          "type": "uint256"
        }
      ],
      "stateMutability": "view",
      "type": "function"
    },
    {
      "inputs": [
        {
          "internalType": "address",
          "name": "operator",
          "type": "address"
        },
        {
          "internalType": "address",
          "name": "from",
          "type": "address"
        },
        {
          "internalType": "uint256",
          "name": "tokenId",
          "type": "uint256"
        },
        {
          "internalType": "bytes",
          "name": "data",
          "type": "bytes"
        }
      ],
      "name": "onERC721Received",
      "outputs": [
        {
          "internalType": "bytes4",
          "name": "",
          "type": "bytes4"
        }
      ],
      "stateMutability": "nonpayable",
      "type": "function"
    },
    {
      "inputs": [],
      "name": "owner",
      "outputs": [
        {
          "internalType": "address",
          "name": "",
          "type": "address"
        }
      ],
      "stateMutability": "view",
      "type": "function"
    },
    {
      "inputs": [
        {
          "internalType": "uint256",
          "name": "claimableTokenId",
          "type": "uint256"
        },
        {
          "internalType": "address",
          "name": "sendToAddr",
          "type": "address"
        }
      ],
      "name": "ownerClaimPlanet",
      "outputs": [],
      "stateMutability": "nonpayable",
      "type": "function"
    },
    {
      "inputs": [
        {
          "internalType": "uint256",
          "name": "tokenId",
          "type": "uint256"
        },
        {
          "internalType": "address",
          "name": "destinationAddr",
          "type": "address"
        }
      ],
      "name": "ownerOverrideSendNFT",
      "outputs": [],
      "stateMutability": "nonpayable",
      "type": "function"
    },
    {
      "inputs": [],
      "name": "pause",
      "outputs": [],
      "stateMutability": "nonpayable",
      "type": "function"
    },
    {
      "inputs": [],
      "name": "paused",
      "outputs": [
        {
          "internalType": "bool",
          "name": "",
          "type": "bool"
        }
      ],
      "stateMutability": "view",
      "type": "function"
    },
    {
      "inputs": [
        {
          "internalType": "uint256",
          "name": "index",
          "type": "uint256"
        }
      ],
      "name": "payee",
      "outputs": [
        {
          "internalType": "address",
          "name": "",
          "type": "address"
        }
      ],
      "stateMutability": "view",
      "type": "function"
    },
    {
      "inputs": [
        {
          "internalType": "address",
          "name": "owner",
          "type": "address"
        },
        {
          "internalType": "address",
          "name": "spender",
          "type": "address"
        },
        {
          "internalType": "uint256",
          "name": "value",
          "type": "uint256"
        },
        {
          "internalType": "uint256",
          "name": "deadline",
          "type": "uint256"
        },
        {
          "internalType": "uint8",
          "name": "v",
          "type": "uint8"
        },
        {
          "internalType": "bytes32",
          "name": "r",
          "type": "bytes32"
        },
        {
          "internalType": "bytes32",
          "name": "s",
          "type": "bytes32"
        }
      ],
      "name": "permit",
      "outputs": [],
      "stateMutability": "nonpayable",
      "type": "function"
    },
    {
      "inputs": [],
      "name": "proxiableUUID",
      "outputs": [
        {
          "internalType": "bytes32",
          "name": "",
          "type": "bytes32"
        }
      ],
      "stateMutability": "view",
      "type": "function"
    },
    {
      "inputs": [
        {
          "internalType": "address",
          "name": "account",
          "type": "address"
        }
      ],
      "name": "releasable",
      "outputs": [
        {
          "internalType": "uint256",
          "name": "",
          "type": "uint256"
        }
      ],
      "stateMutability": "view",
      "type": "function"
    },
    {
      "inputs": [
        {
          "internalType": "contract IERC20Upgradeable",
          "name": "token",
          "type": "address"
        },
        {
          "internalType": "address",
          "name": "account",
          "type": "address"
        }
      ],
      "name": "releasable",
      "outputs": [
        {
          "internalType": "uint256",
          "name": "",
          "type": "uint256"
        }
      ],
      "stateMutability": "view",
      "type": "function"
    },
    {
      "inputs": [
        {
          "internalType": "address payable",
          "name": "account",
          "type": "address"
        }
      ],
      "name": "release",
      "outputs": [],
      "stateMutability": "nonpayable",
      "type": "function"
    },
    {
      "inputs": [
        {
          "internalType": "contract IERC20Upgradeable",
          "name": "token",
          "type": "address"
        },
        {
          "internalType": "address",
          "name": "account",
          "type": "address"
        }
      ],
      "name": "release",
      "outputs": [],
      "stateMutability": "nonpayable",
      "type": "function"
    },
    {
      "inputs": [
        {
          "internalType": "contract IERC20Upgradeable",
          "name": "token",
          "type": "address"
        },
        {
          "internalType": "address",
          "name": "account",
          "type": "address"
        }
      ],
      "name": "released",
      "outputs": [
        {
          "internalType": "uint256",
          "name": "",
          "type": "uint256"
        }
      ],
      "stateMutability": "view",
      "type": "function"
    },
    {
      "inputs": [
        {
          "internalType": "address",
          "name": "account",
          "type": "address"
        }
      ],
      "name": "released",
      "outputs": [
        {
          "internalType": "uint256",
          "name": "",
          "type": "uint256"
        }
      ],
      "stateMutability": "view",
      "type": "function"
    },
    {
      "inputs": [],
      "name": "renounceOwnership",
      "outputs": [],
      "stateMutability": "nonpayable",
      "type": "function"
    },
    {
      "inputs": [
        {
          "internalType": "address",
          "name": "_breederContractAddr",
          "type": "address"
        },
        {
          "internalType": "uint256",
          "name": "_vrfValue",
          "type": "uint256"
        },
        {
          "internalType": "address",
          "name": "_nftContractAddr",
          "type": "address"
        }
      ],
      "name": "setAllOf",
      "outputs": [],
      "stateMutability": "nonpayable",
      "type": "function"
    },
    {
      "inputs": [
        {
          "internalType": "address payable",
          "name": "newTAdd",
          "type": "address"
        }
      ],
      "name": "setTAdd",
      "outputs": [],
      "stateMutability": "nonpayable",
      "type": "function"
    },
    {
      "inputs": [
        {
          "internalType": "address",
          "name": "account",
          "type": "address"
        }
      ],
      "name": "shares",
      "outputs": [
        {
          "internalType": "uint256",
          "name": "",
          "type": "uint256"
        }
      ],
      "stateMutability": "view",
      "type": "function"
    },
    {
      "inputs": [],
      "name": "status",
      "outputs": [],
      "stateMutability": "nonpayable",
      "type": "function"
    },
    {
      "inputs": [],
      "name": "symbol",
      "outputs": [
        {
          "internalType": "string",
          "name": "",
          "type": "string"
        }
      ],
      "stateMutability": "view",
      "type": "function"
    },
    {
      "inputs": [
        {
          "internalType": "contract IERC20Upgradeable",
          "name": "token",
          "type": "address"
        }
      ],
      "name": "totalReleased",
      "outputs": [
        {
          "internalType": "uint256",
          "name": "",
          "type": "uint256"
        }
      ],
      "stateMutability": "view",
      "type": "function"
    },
    {
      "inputs": [],
      "name": "totalReleased",
      "outputs": [
        {
          "internalType": "uint256",
          "name": "",
          "type": "uint256"
        }
      ],
      "stateMutability": "view",
      "type": "function"
    },
    {
      "inputs": [],
      "name": "totalShares",
      "outputs": [
        {
          "internalType": "uint256",
          "name": "",
          "type": "uint256"
        }
      ],
      "stateMutability": "view",
      "type": "function"
    },
    {
      "inputs": [],
      "name": "totalSupply",
      "outputs": [
        {
          "internalType": "uint256",
          "name": "",
          "type": "uint256"
        }
      ],
      "stateMutability": "view",
      "type": "function"
    },
    {
      "inputs": [
        {
          "internalType": "address",
          "name": "to",
          "type": "address"
        },
        {
          "internalType": "uint256",
          "name": "amount",
          "type": "uint256"
        }
      ],
      "name": "transfer",
      "outputs": [
        {
          "internalType": "bool",
          "name": "",
          "type": "bool"
        }
      ],
      "stateMutability": "nonpayable",
      "type": "function"
    },
    {
      "inputs": [
        {
          "internalType": "address",
          "name": "from",
          "type": "address"
        },
        {
          "internalType": "address",
          "name": "to",
          "type": "address"
        },
        {
          "internalType": "uint256",
          "name": "amount",
          "type": "uint256"
        }
      ],
      "name": "transferFrom",
      "outputs": [
        {
          "internalType": "bool",
          "name": "",
          "type": "bool"
        }
      ],
      "stateMutability": "nonpayable",
      "type": "function"
    },
    {
      "inputs": [
        {
          "internalType": "address",
          "name": "newOwner",
          "type": "address"
        }
      ],
      "name": "transferOwnership",
      "outputs": [],
      "stateMutability": "nonpayable",
      "type": "function"
    },
    {
      "inputs": [],
      "name": "unpause",
      "outputs": [],
      "stateMutability": "nonpayable",
      "type": "function"
    },
    {
      "inputs": [
        {
          "internalType": "address",
          "name": "newImplementation",
          "type": "address"
        }
      ],
      "name": "upgradeTo",
      "outputs": [],
      "stateMutability": "nonpayable",
      "type": "function"
    },
    {
      "inputs": [
        {
          "internalType": "address",
          "name": "newImplementation",
          "type": "address"
        },
        {
          "internalType": "bytes",
          "name": "data",
          "type": "bytes"
        }
      ],
      "name": "upgradeToAndCall",
      "outputs": [],
      "stateMutability": "payable",
      "type": "function"
    },
    {
      "inputs": [
        {
          "internalType": "address",
          "name": "",
          "type": "address"
        },
        {
          "internalType": "uint256",
          "name": "",
          "type": "uint256"
        }
      ],
      "name": "userToListedPlanets",
      "outputs": [
        {
          "internalType": "uint256",
          "name": "tokenId",
          "type": "uint256"
        },
        {
          "internalType": "uint256",
          "name": "price",
          "type": "uint256"
        },
        {
          "internalType": "address",
          "name": "ownerAddress",
          "type": "address"
        },
        {
          "internalType": "bool",
          "name": "active",
          "type": "bool"
        }
      ],
      "stateMutability": "view",
      "type": "function"
    },
    {
      "inputs": [
        {
          "internalType": "address",
          "name": "userAddress",
          "type": "address"
        }
      ],
      "name": "usersClaims",
      "outputs": [
        {
          "components": [
            {
              "internalType": "address",
              "name": "ownerParentAddress",
              "type": "address"
            },
            {
              "internalType": "uint256",
              "name": "ownerTokenId",
              "type": "uint256"
            },
            {
              "internalType": "bool",
              "name": "delivered",
              "type": "bool"
            },
            {
              "internalType": "address",
              "name": "otherParent",
              "type": "address"
            },
            {
              "internalType": "uint256",
              "name": "otherTokenId",
              "type": "uint256"
            },
            {
              "internalType": "uint256",
              "name": "claimsTokenId",
              "type": "uint256"
            }
          ],
          "internalType": "struct ClaimablePlanet[]",
          "name": "",
          "type": "tuple[]"
        }
      ],
      "stateMutability": "view",
      "type": "function"
    },
    {
      "inputs": [],
      "name": "withdrawFunds",
      "outputs": [],
      "stateMutability": "nonpayable",
      "type": "function"
    },
    {
      "stateMutability": "payable",
      "type": "receive"
    }
  ],
  "bytecode": "0x60a06040523060805234801561001457600080fd5b50608051614f9461004c60003960008181611323015281816113a80152818161175b015281816117e0015261196d0152614f946000f3fe60806040526004361061039b5760003560e01c80637ecebe00116101dc578063cbdf1b5a11610102578063dd22a9c7116100a0578063ee6e3a231161006f578063ee6e3a2314610ba3578063f2fde38b14610bc4578063fdb4087514610be4578063fde4976714610c0457600080fd5b8063dd22a9c714610ac5578063dd62ed3e14610ae5578063e22aecb414610b2b578063e33b7de314610b8d57600080fd5b8063d2f6d0ac116100dc578063d2f6d0ac14610a41578063d505accf14610a6e578063d79779b214610a8e578063dbb774d814610a4157600080fd5b8063cbdf1b5a146109ca578063cdb82a37146109ea578063ce7c2ac214610a0a57600080fd5b80638da5cb5b1161017a578063a457c2d711610149578063a457c2d71461094a578063a9059cbb1461096a578063c45ac0501461098a578063c7c0e6b1146109aa57600080fd5b80638da5cb5b146108bf57806395d89b41146108de5780639852595c146108f3578063a3f8eace1461092a57600080fd5b80638456cb59116101b65780638456cb591461056457806384b0196e1461082657806385fe72431461084e5780638b83209b1461089f57600080fd5b80637ecebe00146107de5780638129fc1c146107fe5780638230a7841461081357600080fd5b806339509351116102c15780634f1ef2861161025f5780635c975abb1161022e5780635c975abb146107665780636a23befb1461077e57806370a0823114610793578063715018a6146107c957600080fd5b80634f1ef2861461071e57806350842cf3146105585780635270ad6c1461073157806352d1902d1461075157600080fd5b80633f4ba83a1161029b5780633f4ba83a14610682578063406072a91461069757806348b75044146106de5780634a02099b146106fe57600080fd5b8063395093511461062c5780633a7fb03d1461064c5780633a98ef391461066c57600080fd5b80631ac9a91e11610339578063259478181161030857806325947818146105ae578063313ce567146105db5780633644e515146105f75780633659cfe61461060c57600080fd5b80631ac9a91e14610558578063200d2ed21461056457806323b872dd1461057957806324600fc31461059957600080fd5b8063095ea7b311610375578063095ea7b314610496578063150b7a02146104c657806318160ddd14610517578063191655871461053657600080fd5b8063064db874146103e957806306fdde031461043d578063076619391461045f57600080fd5b366103e4577f6ef95f06320e7a25a04a175ca677b7052bdd97131872c2192525a629f51be77033604080516001600160a01b0390921682523460208301520160405180910390a1005b600080fd5b3480156103f557600080fd5b506104206104043660046145c3565b6101cc602052600090815260409020546001600160a01b031681565b6040516001600160a01b0390911681526020015b60405180910390f35b34801561044957600080fd5b50610452610c24565b604051610434919061462c565b34801561046b57600080fd5b5061042061047a3660046145c3565b60009081526101cc60205260409020546001600160a01b031690565b3480156104a257600080fd5b506104b66104b1366004614654565b610cb6565b6040519015158152602001610434565b3480156104d257600080fd5b506104e66104e1366004614761565b610cd0565b6040517fffffffff000000000000000000000000000000000000000000000000000000009091168152602001610434565b34801561052357600080fd5b5060cb545b604051908152602001610434565b34801561054257600080fd5b506105566105513660046147cd565b610f58565b005b34801561055657600080fd5b34801561057057600080fd5b506105566110cc565b34801561058557600080fd5b506104b66105943660046147ea565b6110dc565b3480156105a557600080fd5b50610556611100565b3480156105ba57600080fd5b506105ce6105c936600461482b565b611142565b604051610434919061484d565b3480156105e757600080fd5b5060405160128152602001610434565b34801561060357600080fd5b5061052861130a565b34801561061857600080fd5b506105566106273660046147cd565b611319565b34801561063857600080fd5b506104b6610647366004614654565b611494565b34801561065857600080fd5b506105566106673660046148bc565b6114d3565b34801561067857600080fd5b5061016254610528565b34801561068e57600080fd5b50610556611563565b3480156106a357600080fd5b506105286106b23660046148ec565b6001600160a01b0391821660009081526101686020908152604080832093909416825291909152205490565b3480156106ea57600080fd5b506105566106f93660046148ec565b611573565b34801561070a57600080fd5b5061055661071936600461491a565b61170a565b61055661072c36600461495c565b611751565b34801561073d57600080fd5b5061055661074c3660046145c3565b6118b9565b34801561075d57600080fd5b50610528611960565b34801561077257600080fd5b5060335460ff166104b6565b34801561078a57600080fd5b506105ce611a25565b34801561079f57600080fd5b506105286107ae3660046147cd565b6001600160a01b0316600090815260c9602052604090205490565b3480156107d557600080fd5b50610556611abb565b3480156107ea57600080fd5b506105286107f93660046147cd565b611acd565b34801561080a57600080fd5b50610556611aec565b61055661082136600461482b565b611c1b565b34801561083257600080fd5b5061083b6120c1565b60405161043497969594939291906149ac565b34801561085a57600080fd5b5061086e610869366004614654565b612183565b604051610434949392919093845260208401929092526001600160a01b031660408301521515606082015260800190565b3480156108ab57600080fd5b506104206108ba3660046145c3565b6121db565b3480156108cb57600080fd5b50610194546001600160a01b0316610420565b3480156108ea57600080fd5b5061045261220c565b3480156108ff57600080fd5b5061052861090e3660046147cd565b6001600160a01b03166000908152610165602052604090205490565b34801561093657600080fd5b506105286109453660046147cd565b61221b565b34801561095657600080fd5b506104b6610965366004614654565b612265565b34801561097657600080fd5b506104b6610985366004614654565b61230f565b34801561099657600080fd5b506105286109a53660046148ec565b61231d565b3480156109b657600080fd5b506105566109c53660046145c3565b6123fb565b3480156109d657600080fd5b506105566109e536600461482b565b612411565b3480156109f657600080fd5b50610556610a053660046147cd565b612745565b348015610a1657600080fd5b50610528610a253660046147cd565b6001600160a01b03166000908152610164602052604090205490565b348015610a4d57600080fd5b50610a61610a5c3660046147cd565b612778565b6040516104349190614a61565b348015610a7a57600080fd5b50610556610a89366004614adc565b612837565b348015610a9a57600080fd5b50610528610aa93660046147cd565b6001600160a01b03166000908152610167602052604090205490565b348015610ad157600080fd5b506104b6610ae03660046148ec565b61299b565b348015610af157600080fd5b50610528610b003660046148ec565b6001600160a01b03918216600090815260ca6020908152604080832093909416825291909152205490565b348015610b3757600080fd5b50610b4b610b46366004614654565b612a2c565b604080516001600160a01b03978816815260208101969096529315159385019390935293166060830152608082019290925260a081019190915260c001610434565b348015610b9957600080fd5b5061016354610528565b348015610baf57600080fd5b506101c654610420906001600160a01b031681565b348015610bd057600080fd5b50610556610bdf3660046147cd565b612a93565b348015610bf057600080fd5b50610556610bff3660046148bc565b612b20565b348015610c1057600080fd5b506105ce610c1f3660046147cd565b612bb2565b606060cc8054610c3390614b53565b80601f0160208091040260200160405190810160405280929190818152602001828054610c5f90614b53565b8015610cac5780601f10610c8157610100808354040283529160200191610cac565b820191906000526020600020905b815481529060010190602001808311610c8f57829003601f168201915b5050505050905090565b600033610cc4818585612c53565b60019150505b92915050565b6000610d106040518060400160405280600881526020017f7265636569766572000000000000000000000000000000000000000000000000815250612dab565b815115610d7d57600082806020019051810190610d2d9190614b87565b9050610d3a848287612e1c565b7f13c6ec2a463a35f898a457814a782f1f567808293fa783a31fa4dac8868e601186868686604051610d6f9493929190614ba0565b60405180910390a150610f2d565b6101c6546001600160a01b038681169116148015610da657506101c8546001600160a01b031633145b15610f2d576101c8546040517fdc9ce7a5000000000000000000000000000000000000000000000000000000008152600481018590526000916001600160a01b03169063dc9ce7a590602401600060405180830381865afa158015610e0f573d6000803e3d6000fd5b505050506040513d6000823e601f3d908101601f19168201604052610e379190810190614c99565b5090506000816101200151905060006101cc600083600081518110610e5e57610e5e614db8565b6020026020010151815260200190815260200160002060009054906101000a90046001600160a01b0316905060006101cc600084600181518110610ea457610ea4614db8565b60209081029190910181015182528181019290925260409081016000205481518083019092526001600160a01b03858116835216918101829052909150610eea81612f9e565b7f13c6ec2a463a35f898a457814a782f1f567808293fa783a31fa4dac8868e60118a8a8a8a604051610f1f9493929190614dce565b60405180910390a150505050505b507f150b7a02000000000000000000000000000000000000000000000000000000005b949350505050565b6001600160a01b03811660009081526101646020526040902054610fd25760405162461bcd60e51b815260206004820152602660248201527f5061796d656e7453706c69747465723a206163636f756e7420686173206e6f2060448201526573686172657360d01b60648201526084015b60405180910390fd5b6000610fdd8261221b565b9050806000036110435760405162461bcd60e51b815260206004820152602b60248201527f5061796d656e7453706c69747465723a206163636f756e74206973206e6f742060448201526a191d59481c185e5b595b9d60aa1b6064820152608401610fc9565b8061016360008282546110569190614e58565b90915550506001600160a01b0382166000908152610165602052604090208054820190556110848282613208565b604080516001600160a01b0384168152602081018390527fdf20fd1e76bc69d672e4814fafb2c449bba3a5369d8359adf9e05e6fde87b056910160405180910390a15050565b565b6110d4613321565b6110ca61337c565b6000336110ea8582856133d6565b6110f5858585613462565b506001949350505050565b611108613321565b611110613656565b604051339081904780156108fc02916000818181858888f1935050505015801561113e573d6000803e3d6000fd5b5050565b60608282116111935760405162461bcd60e51b815260206004820152600d60248201527f496e76616c696420696e646578000000000000000000000000000000000000006044820152606401610fc9565b6101cb548211156111e65760405162461bcd60e51b815260206004820152601360248201527f496e646578206f7574206f6620626f756e6473000000000000000000000000006044820152606401610fc9565b60006111f28484614e6b565b67ffffffffffffffff81111561120a5761120a614680565b60405190808252806020026020018201604052801561125c57816020015b6040805160808101825260008082526020808301829052928201819052606082015282526000199092019101816112285790505b509050835b83811015611302576101cb818154811061127d5761127d614db8565b600091825260209182902060408051608081018252600393909302909101805483526001810154938301939093526002909201546001600160a01b03811692820192909252600160a01b90910460ff1615156060820152826112df8784614e6b565b815181106112ef576112ef614db8565b6020908102919091010152600101611261565b509392505050565b60006113146136a9565b905090565b6001600160a01b037f00000000000000000000000000000000000000000000000000000000000000001630036113a65760405162461bcd60e51b815260206004820152602c60248201527f46756e6374696f6e206d7573742062652063616c6c6564207468726f7567682060448201526b19195b1959d85d1958d85b1b60a21b6064820152608401610fc9565b7f00000000000000000000000000000000000000000000000000000000000000006001600160a01b03166114017f360894a13ba1a3210667c828492db98dca3e2076cc3735a920a3ca505d382bbc546001600160a01b031690565b6001600160a01b03161461146c5760405162461bcd60e51b815260206004820152602c60248201527f46756e6374696f6e206d7573742062652063616c6c6564207468726f7567682060448201526b6163746976652070726f787960a01b6064820152608401610fc9565b611475816136b3565b60408051600080825260208201909252611491918391906136bb565b50565b33600081815260ca602090815260408083206001600160a01b0387168452909152812054909190610cc490829086906114ce908790614e58565b612c53565b6114db613321565b6114e3613656565b60008281526101cc60205260409020546001600160a01b03166115068382612b28565b61150f8361385b565b6101c854604080516001600160a01b038086168252909216602083015281018490527ffbabfabc293b9daf3d9f8a42d485f10715027db90fd73abbe4ae4b4424decd049060600160405180910390a1505050565b61156b613321565b6110ca6138fb565b6001600160a01b038116600090815261016460205260409020546115e85760405162461bcd60e51b815260206004820152602660248201527f5061796d656e7453706c69747465723a206163636f756e7420686173206e6f2060448201526573686172657360d01b6064820152608401610fc9565b60006115f4838361231d565b90508060000361165a5760405162461bcd60e51b815260206004820152602b60248201527f5061796d656e7453706c69747465723a206163636f756e74206973206e6f742060448201526a191d59481c185e5b595b9d60aa1b6064820152608401610fc9565b6001600160a01b0383166000908152610167602052604081208054839290611683908490614e58565b90915550506001600160a01b038084166000908152610168602090815260408083209386168352929052208054820190556116bf838383613934565b604080516001600160a01b038481168252602082018490528516917f3be5b7a71e84ed12875d241991c70855ac5817d847039e17a9d895c1ceb0f18a910160405180910390a2505050565b611712613321565b61171a613656565b6101c9919091556101c680546001600160a01b039384166001600160a01b0319918216179091556101c88054929093169116179055565b6001600160a01b037f00000000000000000000000000000000000000000000000000000000000000001630036117de5760405162461bcd60e51b815260206004820152602c60248201527f46756e6374696f6e206d7573742062652063616c6c6564207468726f7567682060448201526b19195b1959d85d1958d85b1b60a21b6064820152608401610fc9565b7f00000000000000000000000000000000000000000000000000000000000000006001600160a01b03166118397f360894a13ba1a3210667c828492db98dca3e2076cc3735a920a3ca505d382bbc546001600160a01b031690565b6001600160a01b0316146118a45760405162461bcd60e51b815260206004820152602c60248201527f46756e6374696f6e206d7573742062652063616c6c6564207468726f7567682060448201526b6163746976652070726f787960a01b6064820152608401610fc9565b6118ad826136b3565b61113e828260016136bb565b6118c1613656565b60008181526101cc602052604090205433906001600160a01b03168181036118ed576115068383612b28565b60405162461bcd60e51b815260206004820152603260248201527f636c61696d206d7573742062652066726f6d20636c61696d616e74732061646460448201527f726573732d2d20646973616c6c6f7765642e00000000000000000000000000006064820152608401610fc9565b505050565b6000306001600160a01b037f00000000000000000000000000000000000000000000000000000000000000001614611a005760405162461bcd60e51b815260206004820152603860248201527f555550535570677261646561626c653a206d757374206e6f742062652063616c60448201527f6c6564207468726f7567682064656c656761746563616c6c00000000000000006064820152608401610fc9565b507f360894a13ba1a3210667c828492db98dca3e2076cc3735a920a3ca505d382bbc90565b60606101cb805480602002602001604051908101604052809291908181526020016000905b82821015611ab2576000848152602090819020604080516080810182526003860290920180548352600180820154848601526002909101546001600160a01b03811692840192909252600160a01b90910460ff16151560608301529083529092019101611a4a565b50505050905090565b611ac3613321565b6110ca60006139b4565b6001600160a01b038116600090815261012f6020526040812054610cca565b600054610100900460ff1615808015611b0c5750600054600160ff909116105b80611b265750303b158015611b26575060005460ff166001145b611b985760405162461bcd60e51b815260206004820152602e60248201527f496e697469616c697a61626c653a20636f6e747261637420697320616c72656160448201527f647920696e697469616c697a65640000000000000000000000000000000000006064820152608401610fc9565b6000805460ff191660011790558015611bbb576000805461ff0019166101001790555b611bc3613a07565b611bcb613a7a565b611bd3613aed565b8015611491576000805461ff0019169055604051600181527f7f26b83ff96e1f2b6a682f133852f6798a09c465da95921460cefb38474024989060200160405180910390a150565b611c23613656565b6000611c2e82613b58565b6101c8546040517f6352211e000000000000000000000000000000000000000000000000000000008152600481018690529192506000916001600160a01b0390911690636352211e90602401602060405180830381865afa158015611c97573d6000803e3d6000fd5b505050506040513d601f19601f82011682018060405250810190611cbb9190614e7e565b90506001600160a01b0381163314611d3b5760405162461bcd60e51b815260206004820152603260248201527f596f7520646f206e6f74206f776e2074686520706c616e657420796f7520617260448201527f6520747279696e6720746f2062726565642e00000000000000000000000000006064820152608401610fc9565b816101c954611d4a9190614e58565b341015611dbf5760405162461bcd60e51b815260206004820152602a60248201527f496e73756666696369656e742066756e647320746f20636f766572205652462060448201527f616e642070726963652e000000000000000000000000000000000000000000006064820152608401610fc9565b336000805b6101cb54811015611e3b57856101cb8281548110611de457611de4614db8565b90600052602060002090600302016000015403611e33576101cb8181548110611e0f57611e0f614db8565b60009182526020909120600260039092020101546001600160a01b03169150611e3b565b600101611dc4565b5060006064611e4b86605f614e9b565b611e559190614eb2565b90506000826001600160a01b03168260405160006040518083038185875af1925050503d8060008114611ea4576040519150601f19603f3d011682016040523d82523d6000602084013e611ea9565b606091505b5050905080611efa5760405162461bcd60e51b815260206004820152601460248201527f4661696c656420746f2073656e642045746865720000000000000000000000006044820152606401610fc9565b6101c6546101c9546040517f4e9e6a07000000000000000000000000000000000000000000000000000000008152600481018b9052602481018a9052600060448201526001600160a01b0390921691634e9e6a07919060640160206040518083038185885af1158015611f71573d6000803e3d6000fd5b50505050506040513d601f19601f82011682018060405250810190611f969190614b87565b50816101c954611fa69190614e58565b341115612067576000336001600160a01b0316836101c95434611fc99190614e6b565b611fd39190614e6b565b604051600081818185875af1925050503d806000811461200f576040519150601f19603f3d011682016040523d82523d6000602084013e612014565b606091505b50509050806120655760405162461bcd60e51b815260206004820152601d60248201527f4661696c656420746f20726566756e64206578636573732045746865720000006044820152606401610fc9565b505b604080518981526001600160a01b0386811660208301528183018a90528516606082015290517f8557df6951fbdd47fe9027516fc896be40f285ed55a6acac460352adbab730cd9181900360800190a15050505050505050565b60006060806000806000606060fb546000801b1480156120e1575060fc54155b61212d5760405162461bcd60e51b815260206004820152601560248201527f4549503731323a20556e696e697469616c697a656400000000000000000000006044820152606401610fc9565b612135613bf9565b61213d613c08565b604080516000808252602082019092527f0f000000000000000000000000000000000000000000000000000000000000009b939a50919850469750309650945092509050565b6101ca60205281600052604060002081815481106121a057600080fd5b60009182526020909120600390910201805460018201546002909201549093509091506001600160a01b03811690600160a01b900460ff1684565b600061016682815481106121f1576121f1614db8565b6000918252602090912001546001600160a01b031692915050565b606060cd8054610c3390614b53565b6000806122286101635490565b6122329047614e58565b905061225e8382612259866001600160a01b03166000908152610165602052604090205490565b613c17565b9392505050565b33600081815260ca602090815260408083206001600160a01b0387168452909152812054909190838110156123025760405162461bcd60e51b815260206004820152602560248201527f45524332303a2064656372656173656420616c6c6f77616e63652062656c6f7760448201527f207a65726f0000000000000000000000000000000000000000000000000000006064820152608401610fc9565b6110f58286868403612c53565b600033610cc4818585613462565b6001600160a01b0382166000908152610167602052604081205481906040517f70a082310000000000000000000000000000000000000000000000000000000081523060048201526001600160a01b038616906370a0823190602401602060405180830381865afa158015612396573d6000803e3d6000fd5b505050506040513d601f19601f820116820180604052508101906123ba9190614b87565b6123c49190614e58565b6001600160a01b0380861660009081526101686020908152604080832093881683529290522054909150610f509084908390613c17565b612403613321565b61240b613656565b6101c955565b612419613656565b6101cb54821061246b5760405162461bcd60e51b815260206004820152601360248201527f496e646578206f7574206f6620626f756e6473000000000000000000000000006044820152606401610fc9565b600033905060006101cb848154811061248657612486614db8565b6000918252602091829020604080516080810182526003909302909101805483526001810154938301939093526002909201546001600160a01b03811692820183905260ff600160a01b9091041615156060820152915033146124e857600080fd5b6040518060800160405280826000015181526020016000815260200182604001516001600160a01b03168152602001600015158152506101cb858154811061253257612532614db8565b60009182526020808320845160039093020191825583810151600180840191909155604080860151600290940180546060909701511515600160a01b0274ffffffffffffffffffffffffffffffffffffffffff199097166001600160a01b0390951694909417959095179092553383526101ca9052919020805490916125b791614e6b565b815481106125c7576125c7614db8565b90600052602060002090600302016101ca6000336001600160a01b03166001600160a01b03168152602001908152602001600020858154811061260c5761260c614db8565b60009182526020808320845460039093020191825560018085015490830155600293840180549490920180546001600160a01b031981166001600160a01b039096169586178255925460ff600160a01b918290041615150274ffffffffffffffffffffffffffffffffffffffffff19909316909417919091179092553381526101ca909152604090208054806126a4576126a4614ed4565b6000828152602081206003600019909301928302018181556001810191909155600201805474ffffffffffffffffffffffffffffffffffffffffff1916905590556126ef8383612b28565b6101c8548151604080516001600160a01b03808716825290931660208401528201527f0ece05e698e9e143fb75b2ad0aba7f141238c27b6d3e9728898183ee0d68498b906060015b60405180910390a150505050565b61274d613321565b612755613656565b6101c780546001600160a01b0319166001600160a01b0392909216919091179055565b6001600160a01b03811660009081526101cd60209081526040808320805482518185028101850190935280835260609492939192909184015b8282101561282c5760008481526020908190206040805160c0810182526005860290920180546001600160a01b03908116845260018083015485870152600283015460ff8116151594860194909452610100909304166060840152600381015460808401526004015460a083015290835290920191016127b1565b505050509050919050565b834211156128875760405162461bcd60e51b815260206004820152601d60248201527f45524332305065726d69743a206578706972656420646561646c696e650000006044820152606401610fc9565b60007f6e71edae12b1b97f4d1f60370fef10105fa2faae0126114a169c64845d6126c98888886128b68c613c57565b6040805160208101969096526001600160a01b0394851690860152929091166060840152608083015260a082015260c0810186905260e001604051602081830303815290604052805190602001209050600061291182613c7e565b9050600061292182878787613cc6565b9050896001600160a01b0316816001600160a01b0316146129845760405162461bcd60e51b815260206004820152601e60248201527f45524332305065726d69743a20696e76616c6964207369676e617475726500006044820152606401610fc9565b61298f8a8a8a612c53565b50505050505050505050565b6101c8546040517fe985e9c50000000000000000000000000000000000000000000000000000000081526001600160a01b0384811660048301528381166024830152600092169063e985e9c590604401602060405180830381865afa158015612a08573d6000803e3d6000fd5b505050506040513d601f19601f8201168201806040525081019061225e9190614eea565b6101cd6020528160005260406000208181548110612a4957600080fd5b6000918252602090912060059091020180546001820154600283015460038401546004909401546001600160a01b03938416965091945060ff811693610100909104909216919086565b612a9b613321565b6001600160a01b038116612b175760405162461bcd60e51b815260206004820152602660248201527f4f776e61626c653a206e6577206f776e657220697320746865207a65726f206160448201527f64647265737300000000000000000000000000000000000000000000000000006064820152608401610fc9565b611491816139b4565b612b28613321565b6101c8546040517f23b872dd0000000000000000000000000000000000000000000000000000000081523060048201526001600160a01b03838116602483015260448201859052909116906323b872dd90606401600060405180830381600087803b158015612b9657600080fd5b505af1158015612baa573d6000803e3d6000fd5b505050505050565b6001600160a01b03811660009081526101ca60209081526040808320805482518185028101850190935280835260609492939192909184015b8282101561282c576000848152602090819020604080516080810182526003860290920180548352600180820154848601526002909101546001600160a01b03811692840192909252600160a01b90910460ff16151560608301529083529092019101612beb565b6001600160a01b038316612cce5760405162461bcd60e51b8152602060048201526024808201527f45524332303a20617070726f76652066726f6d20746865207a65726f2061646460448201527f72657373000000000000000000000000000000000000000000000000000000006064820152608401610fc9565b6001600160a01b038216612d4a5760405162461bcd60e51b815260206004820152602260248201527f45524332303a20617070726f766520746f20746865207a65726f20616464726560448201527f73730000000000000000000000000000000000000000000000000000000000006064820152608401610fc9565b6001600160a01b03838116600081815260ca602090815260408083209487168084529482529182902085905590518481527f8c5be1e5ebec7d5bd14f71427d1e84f3dd0314c0f7b2291e5b200ac8c7c3b925910160405180910390a3505050565b61149181604051602401612dbf919061462c565b60408051601f198184030181529190526020810180517bffffffffffffffffffffffffffffffffffffffffffffffffffffffff167f41304fac00000000000000000000000000000000000000000000000000000000179052613cee565b604080516080808201835285825260208083018681526001600160a01b03868116858701818152600160608089018281526101cb8054808501825560009182528b5160039182027fe8bbfecd380c4167d6a1f763a233ec73e73f534b1970c4e1683f437ec23c1f4481019190915589517fe8bbfecd380c4167d6a1f763a233ec73e73f534b1970c4e1683f437ec23c1f4582015586517fe8bbfecd380c4167d6a1f763a233ec73e73f534b1970c4e1683f437ec23c1f46909101805485511515600160a01b90810274ffffffffffffffffffffffffffffffffffffffffff19928316948d1694909417939093179091559783526101ca8b528d832080548088018255908452928b90208d5193909202909101918255975193810193909355925160029092018054935115159096029290931690841617179092556101c854865133815291169281019290925293810187905292830185905290917fb30319a217488a3ed441c348e935a48d16091e33109bab0c79a353b9797528839101612737565b80516020808301516001600160a01b03831660009081526101cd909252604090912054156130a15760005b6001600160a01b03831660009081526101cd602052604090205481101561309b576001600160a01b0383811660009081526101cd602052604090208054918416918390811061301a5761301a614db8565b600091825260209091206005909102016002015461010090046001600160a01b031603613093576001600160a01b03831660009081526101cd602052604090208054600191908390811061307057613070614db8565b60009182526020909120600590910201600201805460ff19169115159190911790555b600101612fc9565b50505050565b6020808401516001600160a01b031660009081526101cd90915260409020541561319a5760005b6001600160a01b03821660009081526101cd602052604090205481101561309b576001600160a01b0382811660009081526101cd602052604090208054918516918390811061311957613119614db8565b600091825260209091206005909102016002015461010090046001600160a01b031603613192576001600160a01b03821660009081526101cd602052604090208054600191908390811061316f5761316f614db8565b60009182526020909120600590910201600201805460ff19169115159190911790555b6001016130c8565b60405162461bcd60e51b815260206004820152602560248201527f706c616e65742073656e7420657272616e746c792c206e6f206f6e6520746f2060448201527f636c61696d0000000000000000000000000000000000000000000000000000006064820152608401610fc9565b804710156132585760405162461bcd60e51b815260206004820152601d60248201527f416464726573733a20696e73756666696369656e742062616c616e63650000006044820152606401610fc9565b6000826001600160a01b03168260405160006040518083038185875af1925050503d80600081146132a5576040519150601f19603f3d011682016040523d82523d6000602084013e6132aa565b606091505b505090508061195b5760405162461bcd60e51b815260206004820152603a60248201527f416464726573733a20756e61626c6520746f2073656e642076616c75652c207260448201527f6563697069656e74206d617920686176652072657665727465640000000000006064820152608401610fc9565b610194546001600160a01b031633146110ca5760405162461bcd60e51b815260206004820181905260248201527f4f776e61626c653a2063616c6c6572206973206e6f7420746865206f776e65726044820152606401610fc9565b613384613656565b6033805460ff191660011790557f62e78cea01bee320cd4e420270b5ea74000d11b0c9f74754ebdbfc544b05a2586133b93390565b6040516001600160a01b03909116815260200160405180910390a1565b6001600160a01b03838116600090815260ca6020908152604080832093861683529290522054600019811461309b57818110156134555760405162461bcd60e51b815260206004820152601d60248201527f45524332303a20696e73756666696369656e7420616c6c6f77616e63650000006044820152606401610fc9565b61309b8484848403612c53565b6001600160a01b0383166134de5760405162461bcd60e51b815260206004820152602560248201527f45524332303a207472616e736665722066726f6d20746865207a65726f20616460448201527f64726573730000000000000000000000000000000000000000000000000000006064820152608401610fc9565b6001600160a01b03821661355a5760405162461bcd60e51b815260206004820152602360248201527f45524332303a207472616e7366657220746f20746865207a65726f206164647260448201527f65737300000000000000000000000000000000000000000000000000000000006064820152608401610fc9565b6001600160a01b038316600090815260c96020526040902054818110156135e95760405162461bcd60e51b815260206004820152602660248201527f45524332303a207472616e7366657220616d6f756e742065786365656473206260448201527f616c616e636500000000000000000000000000000000000000000000000000006064820152608401610fc9565b6001600160a01b03808516600081815260c9602052604080822086860390559286168082529083902080548601905591517fddf252ad1be2c89b69c2b068fc378daa952ba7f163c4a11628f55a4df523b3ef906136499086815260200190565b60405180910390a361309b565b60335460ff16156110ca5760405162461bcd60e51b815260206004820152601060248201527f5061757361626c653a20706175736564000000000000000000000000000000006044820152606401610fc9565b6000611314613cf7565b611491613321565b7f4910fdfa16fed3260ed0e7147f7cc6da11a60208b5b9406d12a635614ffd91435460ff16156136ee5761195b83613d6b565b826001600160a01b03166352d1902d6040518163ffffffff1660e01b8152600401602060405180830381865afa925050508015613748575060408051601f3d908101601f1916820190925261374591810190614b87565b60015b6137ba5760405162461bcd60e51b815260206004820152602e60248201527f45524331393637557067726164653a206e657720696d706c656d656e7461746960448201527f6f6e206973206e6f7420555550530000000000000000000000000000000000006064820152608401610fc9565b7f360894a13ba1a3210667c828492db98dca3e2076cc3735a920a3ca505d382bbc811461384f5760405162461bcd60e51b815260206004820152602960248201527f45524331393637557067726164653a20756e737570706f727465642070726f7860448201527f6961626c655555494400000000000000000000000000000000000000000000006064820152608401610fc9565b5061195b838383613e29565b60008181526101cc60209081526040808320546001600160a01b03168084526101cd909252822090915b815481101561309b57838282815481106138a1576138a1614db8565b906000526020600020906005020160040154036138f35760018282815481106138cc576138cc614db8565b60009182526020909120600590910201600201805460ff191691151591909117905561309b565b600101613885565b613903613e4e565b6033805460ff191690557f5db9ee0a495bf2e6ff9c91a7834c1ba4fdd244a5e8aa4e537bd38aeae4b073aa336133b9565b604080516001600160a01b038416602482015260448082018490528251808303909101815260649091019091526020810180517bffffffffffffffffffffffffffffffffffffffffffffffffffffffff167fa9059cbb0000000000000000000000000000000000000000000000000000000017905261195b908490613ea0565b61019480546001600160a01b038381166001600160a01b0319831681179093556040519116919082907f8be0079c531659141344cd1fd0a4f28419497f9722a3daafe3b4186f6b6457e090600090a35050565b600054610100900460ff16613a725760405162461bcd60e51b815260206004820152602b60248201527f496e697469616c697a61626c653a20636f6e7472616374206973206e6f74206960448201526a6e697469616c697a696e6760a81b6064820152608401610fc9565b6110ca613f88565b600054610100900460ff16613ae55760405162461bcd60e51b815260206004820152602b60248201527f496e697469616c697a61626c653a20636f6e7472616374206973206e6f74206960448201526a6e697469616c697a696e6760a81b6064820152608401610fc9565b6110ca613ffc565b600054610100900460ff166110ca5760405162461bcd60e51b815260206004820152602b60248201527f496e697469616c697a61626c653a20636f6e7472616374206973206e6f74206960448201526a6e697469616c697a696e6760a81b6064820152608401610fc9565b6000613b62613656565b60005b6101cb54811015613bf257826101cb8281548110613b8557613b85614db8565b90600052602060002090600302016000015403613bca576101cb8181548110613bb057613bb0614db8565b906000526020600020906003020160010154915050919050565b6101cb54613bda90600190614e6b565b8103613bea575060001992915050565b600101613b65565b505b919050565b606060fd8054610c3390614b53565b606060fe8054610c3390614b53565b610162546001600160a01b0384166000908152610164602052604081205490918391613c439086614e9b565b613c4d9190614eb2565b610f509190614e6b565b6001600160a01b038116600090815261012f60205260409020805460018101825590613bf2565b6000610cca613c8b6136a9565b836040517f19010000000000000000000000000000000000000000000000000000000000008152600281019290925260228201526042902090565b6000806000613cd787878787614073565b91509150613ce481614137565b5095945050505050565b6114918161429c565b60007f8b73c3c69bb8fe3d512ecc4cf759cc79239f7b179b0ffacaa9a75d522b39400f613d226142bd565b613d2a614316565b60408051602081019490945283019190915260608201524660808201523060a082015260c00160405160208183030381529060405280519060200120905090565b6001600160a01b0381163b613de85760405162461bcd60e51b815260206004820152602d60248201527f455243313936373a206e657720696d706c656d656e746174696f6e206973206e60448201527f6f74206120636f6e7472616374000000000000000000000000000000000000006064820152608401610fc9565b7f360894a13ba1a3210667c828492db98dca3e2076cc3735a920a3ca505d382bbc80546001600160a01b0319166001600160a01b0392909216919091179055565b613e3283614347565b600082511180613e3f5750805b1561195b5761309b8383614387565b60335460ff166110ca5760405162461bcd60e51b815260206004820152601460248201527f5061757361626c653a206e6f74207061757365640000000000000000000000006044820152606401610fc9565b6000613ef5826040518060400160405280602081526020017f5361666545524332303a206c6f772d6c6576656c2063616c6c206661696c6564815250856001600160a01b03166143ac9092919063ffffffff16565b9050805160001480613f16575080806020019051810190613f169190614eea565b61195b5760405162461bcd60e51b815260206004820152602a60248201527f5361666545524332303a204552433230206f7065726174696f6e20646964206e60448201527f6f742073756363656564000000000000000000000000000000000000000000006064820152608401610fc9565b600054610100900460ff16613ff35760405162461bcd60e51b815260206004820152602b60248201527f496e697469616c697a61626c653a20636f6e7472616374206973206e6f74206960448201526a6e697469616c697a696e6760a81b6064820152608401610fc9565b6110ca336139b4565b600054610100900460ff166140675760405162461bcd60e51b815260206004820152602b60248201527f496e697469616c697a61626c653a20636f6e7472616374206973206e6f74206960448201526a6e697469616c697a696e6760a81b6064820152608401610fc9565b6033805460ff19169055565b6000807f7fffffffffffffffffffffffffffffff5d576e7357a4501ddfe92f46681b20a08311156140aa575060009050600361412e565b6040805160008082526020820180845289905260ff881692820192909252606081018690526080810185905260019060a0016020604051602081039080840390855afa1580156140fe573d6000803e3d6000fd5b5050604051601f1901519150506001600160a01b0381166141275760006001925092505061412e565b9150600090505b94509492505050565b600081600481111561414b5761414b614f05565b036141535750565b600181600481111561416757614167614f05565b036141b45760405162461bcd60e51b815260206004820152601860248201527f45434453413a20696e76616c6964207369676e617475726500000000000000006044820152606401610fc9565b60028160048111156141c8576141c8614f05565b036142155760405162461bcd60e51b815260206004820152601f60248201527f45434453413a20696e76616c6964207369676e6174757265206c656e677468006044820152606401610fc9565b600381600481111561422957614229614f05565b036114915760405162461bcd60e51b815260206004820152602260248201527f45434453413a20696e76616c6964207369676e6174757265202773272076616c60448201527f75650000000000000000000000000000000000000000000000000000000000006064820152608401610fc9565b60006a636f6e736f6c652e6c6f679050600080835160208501845afa505050565b6000806142c8613bf9565b8051909150156142df578051602090910120919050565b60fb5480156142ee5792915050565b7fc5d2460186f7233c927e7db2dcc703c0e500b653ca82273b7bfad8045d85a4709250505090565b600080614321613c08565b805190915015614338578051602090910120919050565b60fc5480156142ee5792915050565b61435081613d6b565b6040516001600160a01b038216907fbc7cd75a20ee27fd9adebab32041f755214dbc6bffa90cc0225b39da2e5c2d3b90600090a250565b606061225e8383604051806060016040528060278152602001614f38602791396143bb565b6060610f508484600085614433565b6060600080856001600160a01b0316856040516143d89190614f1b565b600060405180830381855af49150503d8060008114614413576040519150601f19603f3d011682016040523d82523d6000602084013e614418565b606091505b509150915061442986838387614525565b9695505050505050565b6060824710156144ab5760405162461bcd60e51b815260206004820152602660248201527f416464726573733a20696e73756666696369656e742062616c616e636520666f60448201527f722063616c6c00000000000000000000000000000000000000000000000000006064820152608401610fc9565b600080866001600160a01b031685876040516144c79190614f1b565b60006040518083038185875af1925050503d8060008114614504576040519150601f19603f3d011682016040523d82523d6000602084013e614509565b606091505b509150915061451a87838387614525565b979650505050505050565b6060831561459457825160000361458d576001600160a01b0385163b61458d5760405162461bcd60e51b815260206004820152601d60248201527f416464726573733a2063616c6c20746f206e6f6e2d636f6e74726163740000006044820152606401610fc9565b5081610f50565b610f5083838151156145a95781518083602001fd5b8060405162461bcd60e51b8152600401610fc9919061462c565b6000602082840312156145d557600080fd5b5035919050565b60005b838110156145f75781810151838201526020016145df565b50506000910152565b600081518084526146188160208601602086016145dc565b601f01601f19169290920160200192915050565b60208152600061225e6020830184614600565b6001600160a01b038116811461149157600080fd5b6000806040838503121561466757600080fd5b82356146728161463f565b946020939093013593505050565b634e487b7160e01b600052604160045260246000fd5b604051610160810167ffffffffffffffff811182821017156146ba576146ba614680565b60405290565b604051601f8201601f1916810167ffffffffffffffff811182821017156146e9576146e9614680565b604052919050565b600082601f83011261470257600080fd5b813567ffffffffffffffff81111561471c5761471c614680565b61472f601f8201601f19166020016146c0565b81815284602083860101111561474457600080fd5b816020850160208301376000918101602001919091529392505050565b6000806000806080858703121561477757600080fd5b84356147828161463f565b935060208501356147928161463f565b925060408501359150606085013567ffffffffffffffff8111156147b557600080fd5b6147c1878288016146f1565b91505092959194509250565b6000602082840312156147df57600080fd5b813561225e8161463f565b6000806000606084860312156147ff57600080fd5b833561480a8161463f565b9250602084013561481a8161463f565b929592945050506040919091013590565b6000806040838503121561483e57600080fd5b50508035926020909101359150565b602080825282518282018190526000919060409081850190868401855b828110156148af578151805185528681015187860152858101516001600160a01b0316868601526060908101511515908501526080909301929085019060010161486a565b5091979650505050505050565b600080604083850312156148cf57600080fd5b8235915060208301356148e18161463f565b809150509250929050565b600080604083850312156148ff57600080fd5b823561490a8161463f565b915060208301356148e18161463f565b60008060006060848603121561492f57600080fd5b833561493a8161463f565b92506020840135915060408401356149518161463f565b809150509250925092565b6000806040838503121561496f57600080fd5b823561497a8161463f565b9150602083013567ffffffffffffffff81111561499657600080fd5b6149a2858286016146f1565b9150509250929050565b7fff00000000000000000000000000000000000000000000000000000000000000881681526000602060e060208401526149e960e084018a614600565b83810360408501526149fb818a614600565b606085018990526001600160a01b038816608086015260a0850187905284810360c08601528551808252602080880193509091019060005b81811015614a4f57835183529284019291840191600101614a33565b50909c9b505050505050505050505050565b602080825282518282018190526000919060409081850190868401855b828110156148af57815180516001600160a01b039081168652878201518887015286820151151587870152606080830151909116908601526080808201519086015260a0908101519085015260c09093019290850190600101614a7e565b600080600080600080600060e0888a031215614af757600080fd5b8735614b028161463f565b96506020880135614b128161463f565b95506040880135945060608801359350608088013560ff81168114614b3657600080fd5b9699959850939692959460a0840135945060c09093013592915050565b600181811c90821680614b6757607f821691505b602082108103613bf257634e487b7160e01b600052602260045260246000fd5b600060208284031215614b9957600080fd5b5051919050565b60006001600160a01b03808716835280861660208401525083604083015260a06060830152614bd260a0830184614600565b8281036080840152600e81527f6c697374696e6720706c616e657400000000000000000000000000000000000060208201526040810191505095945050505050565b600082601f830112614c2557600080fd5b8151602067ffffffffffffffff821115614c4157614c41614680565b8160051b614c508282016146c0565b9283528481018201928281019087851115614c6a57600080fd5b83870192505b8483101561451a57825182529183019190830190614c70565b80518015158114613bf457600080fd5b60008060408385031215614cac57600080fd5b825167ffffffffffffffff80821115614cc457600080fd5b908401906101608287031215614cd957600080fd5b614ce1614696565b825181526020830151602082015260408301516040820152606083015160608201526080830151608082015260a083015160a082015260c083015160c082015260e083015160e08201526101008084015183811115614d3f57600080fd5b614d4b89828701614c14565b8284015250506101208084015183811115614d6557600080fd5b614d7189828701614c14565b8284015250506101408084015183811115614d8b57600080fd5b614d9789828701614c14565b828401525050809450505050614daf60208401614c89565b90509250929050565b634e487b7160e01b600052603260045260246000fd5b60006001600160a01b03808716835280861660208401525083604083015260a06060830152614e0060a0830184614600565b8281036080840152600a81527f6e657720706c616e65740000000000000000000000000000000000000000000060208201526040810191505095945050505050565b634e487b7160e01b600052601160045260246000fd5b80820180821115610cca57610cca614e42565b81810381811115610cca57610cca614e42565b600060208284031215614e9057600080fd5b815161225e8161463f565b8082028115828204841417610cca57610cca614e42565b600082614ecf57634e487b7160e01b600052601260045260246000fd5b500490565b634e487b7160e01b600052603160045260246000fd5b600060208284031215614efc57600080fd5b61225e82614c89565b634e487b7160e01b600052602160045260246000fd5b60008251614f2d8184602087016145dc565b919091019291505056fe416464726573733a206c6f772d6c6576656c2064656c65676174652063616c6c206661696c6564a26469706673582212206eaacd423c2519db5aa894fd9140b805b15948a73f8730cd15462e4dc10e53fd64736f6c63430008180033",
  "linkReferences": {},
  "deployedLinkReferences": {}
}