{
  "_format": "hh-sol-artifact-1",
  "contractName": "HatcherV2",
  "sourceName": "contracts/HatcherV2.sol",
  "abi": [
    {
      "inputs": [],
      "name": "Unauthorized",
      "type": "error"
    },
    {
      "anonymous": false,
      "inputs": [
        {
          "indexed": false,
          "internalType": "address",
          "name": "previousAdmin",
          "type": "address"
        },
        {
          "indexed": false,
          "internalType": "address",
          "name": "newAdmin",
          "type": "address"
        }
      ],
      "name": "AdminChanged",
      "type": "event"
    },
    {
      "anonymous": false,
      "inputs": [
        {
          "indexed": true,
          "internalType": "address",
          "name": "owner",
          "type": "address"
        },
        {
          "indexed": true,
          "internalType": "address",
          "name": "spender",
          "type": "address"
        },
        {
          "indexed": false,
          "internalType": "uint256",
          "name": "value",
          "type": "uint256"
        }
      ],
      "name": "Approval",
      "type": "event"
    },
    {
      "anonymous": false,
      "inputs": [
        {
          "indexed": true,
          "internalType": "address",
          "name": "beacon",
          "type": "address"
        }
      ],
      "name": "BeaconUpgraded",
      "type": "event"
    },
    {
      "anonymous": false,
      "inputs": [
        {
          "indexed": false,
          "internalType": "address",
          "name": "sentToUser",
          "type": "address"
        },
        {
          "indexed": false,
          "internalType": "address",
          "name": "token",
          "type": "address"
        },
        {
          "indexed": false,
          "internalType": "uint256",
          "name": "tokenId",
          "type": "uint256"
        }
      ],
      "name": "DeClaimedAPlanet",
      "type": "event"
    },
    {
      "anonymous": false,
      "inputs": [
        {
          "indexed": false,
          "internalType": "address",
          "name": "sentToUser",
          "type": "address"
        },
        {
          "indexed": false,
          "internalType": "address",
          "name": "token",
          "type": "address"
        },
        {
          "indexed": false,
          "internalType": "uint256",
          "name": "tokenId",
          "type": "uint256"
        }
      ],
      "name": "DeListedAPlanet",
      "type": "event"
    },
    {
      "anonymous": false,
      "inputs": [],
      "name": "EIP712DomainChanged",
      "type": "event"
    },
    {
      "anonymous": false,
      "inputs": [
        {
          "indexed": true,
          "internalType": "contract IERC20Upgradeable",
          "name": "token",
          "type": "address"
        },
        {
          "indexed": false,
          "internalType": "address",
          "name": "to",
          "type": "address"
        },
        {
          "indexed": false,
          "internalType": "uint256",
          "name": "amount",
          "type": "uint256"
        }
      ],
      "name": "ERC20PaymentReleased",
      "type": "event"
    },
    {
      "anonymous": false,
      "inputs": [
        {
          "indexed": false,
          "internalType": "uint8",
          "name": "version",
          "type": "uint8"
        }
      ],
      "name": "Initialized",
      "type": "event"
    },
    {
      "anonymous": false,
      "inputs": [
        {
          "indexed": false,
          "internalType": "address",
          "name": "sentFromUser",
          "type": "address"
        },
        {
          "indexed": false,
          "internalType": "address",
          "name": "token",
          "type": "address"
        },
        {
          "indexed": false,
          "internalType": "uint256",
          "name": "tokenId",
          "type": "uint256"
        },
        {
          "indexed": false,
          "internalType": "uint256",
          "name": "price",
          "type": "uint256"
        }
      ],
      "name": "ListedAPlanet",
      "type": "event"
    },
    {
      "anonymous": false,
      "inputs": [
        {
          "indexed": false,
          "internalType": "address",
          "name": "operator",
          "type": "address"
        },
        {
          "indexed": false,
          "internalType": "address",
          "name": "from",
          "type": "address"
        },
        {
          "indexed": false,
          "internalType": "uint256",
          "name": "tokenId",
          "type": "uint256"
        },
        {
          "indexed": false,
          "internalType": "bytes",
          "name": "data",
          "type": "bytes"
        },
        {
          "indexed": false,
          "internalType": "string",
          "name": "typeOfReceival",
          "type": "string"
        }
      ],
      "name": "NftReceived",
      "type": "event"
    },
    {
      "anonymous": false,
      "inputs": [
        {
          "indexed": true,
          "internalType": "address",
          "name": "previousOwner",
          "type": "address"
        },
        {
          "indexed": true,
          "internalType": "address",
          "name": "newOwner",
          "type": "address"
        }
      ],
      "name": "OwnershipTransferred",
      "type": "event"
    },
    {
      "anonymous": false,
      "inputs": [
        {
          "indexed": false,
          "internalType": "address",
          "name": "account",
          "type": "address"
        }
      ],
      "name": "Paused",
      "type": "event"
    },
    {
      "anonymous": false,
      "inputs": [
        {
          "indexed": false,
          "internalType": "address",
          "name": "account",
          "type": "address"
        },
        {
          "indexed": false,
          "internalType": "uint256",
          "name": "shares",
          "type": "uint256"
        }
      ],
      "name": "PayeeAdded",
      "type": "event"
    },
    {
      "anonymous": false,
      "inputs": [
        {
          "indexed": false,
          "internalType": "address",
          "name": "from",
          "type": "address"
        },
        {
          "indexed": false,
          "internalType": "uint256",
          "name": "amount",
          "type": "uint256"
        }
      ],
      "name": "PaymentReceived",
      "type": "event"
    },
    {
      "anonymous": false,
      "inputs": [
        {
          "indexed": false,
          "internalType": "address",
          "name": "to",
          "type": "address"
        },
        {
          "indexed": false,
          "internalType": "uint256",
          "name": "amount",
          "type": "uint256"
        }
      ],
      "name": "PaymentReleased",
      "type": "event"
    },
    {
      "anonymous": false,
      "inputs": [
        {
          "indexed": false,
          "internalType": "uint256",
          "name": "planetAsking",
          "type": "uint256"
        },
        {
          "indexed": false,
          "internalType": "address",
          "name": "askingUser",
          "type": "address"
        },
        {
          "indexed": false,
          "internalType": "uint256",
          "name": "planetJoining",
          "type": "uint256"
        },
        {
          "indexed": false,
          "internalType": "address",
          "name": "joiningUser",
          "type": "address"
        }
      ],
      "name": "PlanetsConjoining",
      "type": "event"
    },
    {
      "anonymous": false,
      "inputs": [
        {
          "indexed": true,
          "internalType": "address",
          "name": "from",
          "type": "address"
        },
        {
          "indexed": true,
          "internalType": "address",
          "name": "to",
          "type": "address"
        },
        {
          "indexed": false,
          "internalType": "uint256",
          "name": "value",
          "type": "uint256"
        }
      ],
      "name": "Transfer",
      "type": "event"
    },
    {
      "anonymous": false,
      "inputs": [
        {
          "indexed": false,
          "internalType": "address",
          "name": "account",
          "type": "address"
        }
      ],
      "name": "Unpaused",
      "type": "event"
    },
    {
      "anonymous": false,
      "inputs": [
        {
          "indexed": true,
          "internalType": "address",
          "name": "implementation",
          "type": "address"
        }
      ],
      "name": "Upgraded",
      "type": "event"
    },
    {
      "inputs": [],
      "name": "DOMAIN_SEPARATOR",
      "outputs": [
        {
          "internalType": "bytes32",
          "name": "",
          "type": "bytes32"
        }
      ],
      "stateMutability": "view",
      "type": "function"
    },
    {
      "inputs": [
        {
          "internalType": "address",
          "name": "owner",
          "type": "address"
        },
        {
          "internalType": "address",
          "name": "spender",
          "type": "address"
        }
      ],
      "name": "allowance",
      "outputs": [
        {
          "internalType": "uint256",
          "name": "",
          "type": "uint256"
        }
      ],
      "stateMutability": "view",
      "type": "function"
    },
    {
      "inputs": [
        {
          "internalType": "address",
          "name": "spender",
          "type": "address"
        },
        {
          "internalType": "uint256",
          "name": "amount",
          "type": "uint256"
        }
      ],
      "name": "approve",
      "outputs": [
        {
          "internalType": "bool",
          "name": "",
          "type": "bool"
        }
      ],
      "stateMutability": "nonpayable",
      "type": "function"
    },
    {
      "inputs": [
        {
          "internalType": "address",
          "name": "operator",
          "type": "address"
        },
        {
          "internalType": "bool",
          "name": "approved",
          "type": "bool"
        }
      ],
      "name": "approveForAllAsOwner",
      "outputs": [],
      "stateMutability": "nonpayable",
      "type": "function"
    },
    {
      "inputs": [
        {
          "internalType": "address",
          "name": "account",
          "type": "address"
        }
      ],
      "name": "balanceOf",
      "outputs": [
        {
          "internalType": "uint256",
          "name": "",
          "type": "uint256"
        }
      ],
      "stateMutability": "view",
      "type": "function"
    },
    {
      "inputs": [
        {
          "internalType": "uint256",
          "name": "newVRF",
          "type": "uint256"
        }
      ],
      "name": "changeVRFValue",
      "outputs": [],
      "stateMutability": "nonpayable",
      "type": "function"
    },
    {
      "inputs": [
        {
          "internalType": "address",
          "name": "owner",
          "type": "address"
        },
        {
          "internalType": "address",
          "name": "operator",
          "type": "address"
        }
      ],
      "name": "checkApprovalForAll",
      "outputs": [
        {
          "internalType": "bool",
          "name": "",
          "type": "bool"
        }
      ],
      "stateMutability": "view",
      "type": "function"
    },
    {
      "inputs": [
        {
          "internalType": "uint256",
          "name": "claimableTokenId",
          "type": "uint256"
        }
      ],
      "name": "claimPlanet",
      "outputs": [],
      "stateMutability": "nonpayable",
      "type": "function"
    },
    {
      "inputs": [
        {
          "internalType": "address",
          "name": "",
          "type": "address"
        },
        {
          "internalType": "uint256",
          "name": "",
          "type": "uint256"
        }
      ],
      "name": "claimablePlanets",
      "outputs": [
        {
          "internalType": "address",
          "name": "ownerParentAddress",
          "type": "address"
        },
        {
          "internalType": "uint256",
          "name": "ownerTokenId",
          "type": "uint256"
        },
        {
          "internalType": "bool",
          "name": "delivered",
          "type": "bool"
        },
        {
          "internalType": "address",
          "name": "otherParent",
          "type": "address"
        },
        {
          "internalType": "uint256",
          "name": "otherTokenId",
          "type": "uint256"
        },
        {
          "internalType": "uint256",
          "name": "claimsTokenId",
          "type": "uint256"
        }
      ],
      "stateMutability": "view",
      "type": "function"
    },
    {
      "inputs": [
        {
          "internalType": "uint256",
          "name": "",
          "type": "uint256"
        }
      ],
      "name": "claimableTokenIdToOwnerAddress",
      "outputs": [
        {
          "internalType": "address",
          "name": "",
          "type": "address"
        }
      ],
      "stateMutability": "view",
      "type": "function"
    },
    {
      "inputs": [
        {
          "internalType": "uint256",
          "name": "yourPlanet",
          "type": "uint256"
        },
        {
          "internalType": "uint256",
          "name": "withListedPlanet",
          "type": "uint256"
        }
      ],
      "name": "conjunct",
      "outputs": [],
      "stateMutability": "payable",
      "type": "function"
    },
    {
      "inputs": [
        {
          "internalType": "uint256",
          "name": "idIndex",
          "type": "uint256"
        },
        {
          "internalType": "uint256",
          "name": "tokenId",
          "type": "uint256"
        }
      ],
      "name": "deList",
      "outputs": [],
      "stateMutability": "nonpayable",
      "type": "function"
    },
    {
      "inputs": [],
      "name": "deListAllYourPlanets",
      "outputs": [],
      "stateMutability": "nonpayable",
      "type": "function"
    },
    {
      "inputs": [],
      "name": "decimals",
      "outputs": [
        {
          "internalType": "uint8",
          "name": "",
          "type": "uint8"
        }
      ],
      "stateMutability": "view",
      "type": "function"
    },
    {
      "inputs": [
        {
          "internalType": "address",
          "name": "spender",
          "type": "address"
        },
        {
          "internalType": "uint256",
          "name": "subtractedValue",
          "type": "uint256"
        }
      ],
      "name": "decreaseAllowance",
      "outputs": [
        {
          "internalType": "bool",
          "name": "",
          "type": "bool"
        }
      ],
      "stateMutability": "nonpayable",
      "type": "function"
    },
    {
      "inputs": [],
      "name": "eip712Domain",
      "outputs": [
        {
          "internalType": "bytes1",
          "name": "fields",
          "type": "bytes1"
        },
        {
          "internalType": "string",
          "name": "name",
          "type": "string"
        },
        {
          "internalType": "string",
          "name": "version",
          "type": "string"
        },
        {
          "internalType": "uint256",
          "name": "chainId",
          "type": "uint256"
        },
        {
          "internalType": "address",
          "name": "verifyingContract",
          "type": "address"
        },
        {
          "internalType": "bytes32",
          "name": "salt",
          "type": "bytes32"
        },
        {
          "internalType": "uint256[]",
          "name": "extensions",
          "type": "uint256[]"
        }
      ],
      "stateMutability": "view",
      "type": "function"
    },
    {
      "inputs": [],
      "name": "getAllPlanets",
      "outputs": [
        {
          "components": [
            {
              "internalType": "uint256",
              "name": "planet",
              "type": "uint256"
            },
            {
              "internalType": "uint256",
              "name": "price",
              "type": "uint256"
            },
            {
              "internalType": "address",
              "name": "ownerAddress",
              "type": "address"
            }
          ],
          "internalType": "struct ListedPlanet[]",
          "name": "",
          "type": "tuple[]"
        }
      ],
      "stateMutability": "view",
      "type": "function"
    },
    {
      "inputs": [
        {
          "internalType": "uint256",
          "name": "startIndex",
          "type": "uint256"
        },
        {
          "internalType": "uint256",
          "name": "endIndex",
          "type": "uint256"
        }
      ],
      "name": "getPlanetsPaginated",
      "outputs": [
        {
          "components": [
            {
              "internalType": "uint256",
              "name": "planet",
              "type": "uint256"
            },
            {
              "internalType": "uint256",
              "name": "price",
              "type": "uint256"
            },
            {
              "internalType": "address",
              "name": "ownerAddress",
              "type": "address"
            }
          ],
          "internalType": "struct ListedPlanet[]",
          "name": "",
          "type": "tuple[]"
        }
      ],
      "stateMutability": "view",
      "type": "function"
    },
    {
      "inputs": [
        {
          "internalType": "address",
          "name": "spender",
          "type": "address"
        },
        {
          "internalType": "uint256",
          "name": "addedValue",
          "type": "uint256"
        }
      ],
      "name": "increaseAllowance",
      "outputs": [
        {
          "internalType": "bool",
          "name": "",
          "type": "bool"
        }
      ],
      "stateMutability": "nonpayable",
      "type": "function"
    },
    {
      "inputs": [],
      "name": "initialize",
      "outputs": [],
      "stateMutability": "nonpayable",
      "type": "function"
    },
    {
      "inputs": [],
      "name": "listAllYourPlanets",
      "outputs": [],
      "stateMutability": "nonpayable",
      "type": "function"
    },
    {
      "inputs": [],
      "name": "name",
      "outputs": [
        {
          "internalType": "string",
          "name": "",
          "type": "string"
        }
      ],
      "stateMutability": "view",
      "type": "function"
    },
    {
      "inputs": [
        {
          "internalType": "address",
          "name": "owner",
          "type": "address"
        }
      ],
      "name": "nonces",
      "outputs": [
        {
          "internalType": "uint256",
          "name": "",
          "type": "uint256"
        }
      ],
      "stateMutability": "view",
      "type": "function"
    },
    {
      "inputs": [
        {
          "internalType": "address",
          "name": "operator",
          "type": "address"
        },
        {
          "internalType": "address",
          "name": "from",
          "type": "address"
        },
        {
          "internalType": "uint256",
          "name": "tokenId",
          "type": "uint256"
        },
        {
          "internalType": "bytes",
          "name": "data",
          "type": "bytes"
        }
      ],
      "name": "onERC721Received",
      "outputs": [
        {
          "internalType": "bytes4",
          "name": "",
          "type": "bytes4"
        }
      ],
      "stateMutability": "nonpayable",
      "type": "function"
    },
    {
      "inputs": [],
      "name": "owner",
      "outputs": [
        {
          "internalType": "address",
          "name": "",
          "type": "address"
        }
      ],
      "stateMutability": "view",
      "type": "function"
    },
    {
      "inputs": [
        {
          "internalType": "uint256",
          "name": "claimableTokenId",
          "type": "uint256"
        },
        {
          "internalType": "address",
          "name": "sendToAddr",
          "type": "address"
        }
      ],
      "name": "ownerClaimPlanet",
      "outputs": [],
      "stateMutability": "nonpayable",
      "type": "function"
    },
    {
      "inputs": [
        {
          "internalType": "uint256",
          "name": "tokenId",
          "type": "uint256"
        },
        {
          "internalType": "address",
          "name": "destinationAddr",
          "type": "address"
        }
      ],
      "name": "ownerOverrideSendNFT",
      "outputs": [],
      "stateMutability": "nonpayable",
      "type": "function"
    },
    {
      "inputs": [],
      "name": "pause",
      "outputs": [],
      "stateMutability": "nonpayable",
      "type": "function"
    },
    {
      "inputs": [],
      "name": "paused",
      "outputs": [
        {
          "internalType": "bool",
          "name": "",
          "type": "bool"
        }
      ],
      "stateMutability": "view",
      "type": "function"
    },
    {
      "inputs": [
        {
          "internalType": "uint256",
          "name": "index",
          "type": "uint256"
        }
      ],
      "name": "payee",
      "outputs": [
        {
          "internalType": "address",
          "name": "",
          "type": "address"
        }
      ],
      "stateMutability": "view",
      "type": "function"
    },
    {
      "inputs": [
        {
          "internalType": "address",
          "name": "owner",
          "type": "address"
        },
        {
          "internalType": "address",
          "name": "spender",
          "type": "address"
        },
        {
          "internalType": "uint256",
          "name": "value",
          "type": "uint256"
        },
        {
          "internalType": "uint256",
          "name": "deadline",
          "type": "uint256"
        },
        {
          "internalType": "uint8",
          "name": "v",
          "type": "uint8"
        },
        {
          "internalType": "bytes32",
          "name": "r",
          "type": "bytes32"
        },
        {
          "internalType": "bytes32",
          "name": "s",
          "type": "bytes32"
        }
      ],
      "name": "permit",
      "outputs": [],
      "stateMutability": "nonpayable",
      "type": "function"
    },
    {
      "inputs": [],
      "name": "proxiableUUID",
      "outputs": [
        {
          "internalType": "bytes32",
          "name": "",
          "type": "bytes32"
        }
      ],
      "stateMutability": "view",
      "type": "function"
    },
    {
      "inputs": [
        {
          "internalType": "address",
          "name": "account",
          "type": "address"
        }
      ],
      "name": "releasable",
      "outputs": [
        {
          "internalType": "uint256",
          "name": "",
          "type": "uint256"
        }
      ],
      "stateMutability": "view",
      "type": "function"
    },
    {
      "inputs": [
        {
          "internalType": "contract IERC20Upgradeable",
          "name": "token",
          "type": "address"
        },
        {
          "internalType": "address",
          "name": "account",
          "type": "address"
        }
      ],
      "name": "releasable",
      "outputs": [
        {
          "internalType": "uint256",
          "name": "",
          "type": "uint256"
        }
      ],
      "stateMutability": "view",
      "type": "function"
    },
    {
      "inputs": [
        {
          "internalType": "address payable",
          "name": "account",
          "type": "address"
        }
      ],
      "name": "release",
      "outputs": [],
      "stateMutability": "nonpayable",
      "type": "function"
    },
    {
      "inputs": [
        {
          "internalType": "contract IERC20Upgradeable",
          "name": "token",
          "type": "address"
        },
        {
          "internalType": "address",
          "name": "account",
          "type": "address"
        }
      ],
      "name": "release",
      "outputs": [],
      "stateMutability": "nonpayable",
      "type": "function"
    },
    {
      "inputs": [
        {
          "internalType": "contract IERC20Upgradeable",
          "name": "token",
          "type": "address"
        },
        {
          "internalType": "address",
          "name": "account",
          "type": "address"
        }
      ],
      "name": "released",
      "outputs": [
        {
          "internalType": "uint256",
          "name": "",
          "type": "uint256"
        }
      ],
      "stateMutability": "view",
      "type": "function"
    },
    {
      "inputs": [
        {
          "internalType": "address",
          "name": "account",
          "type": "address"
        }
      ],
      "name": "released",
      "outputs": [
        {
          "internalType": "uint256",
          "name": "",
          "type": "uint256"
        }
      ],
      "stateMutability": "view",
      "type": "function"
    },
    {
      "inputs": [],
      "name": "renounceOwnership",
      "outputs": [],
      "stateMutability": "nonpayable",
      "type": "function"
    },
    {
      "inputs": [
        {
          "internalType": "address",
          "name": "_breederContractAddr",
          "type": "address"
        },
        {
          "internalType": "uint256",
          "name": "_vrfValue",
          "type": "uint256"
        },
        {
          "internalType": "address",
          "name": "_nftContractAddr",
          "type": "address"
        }
      ],
      "name": "setAllOf",
      "outputs": [],
      "stateMutability": "nonpayable",
      "type": "function"
    },
    {
      "inputs": [
        {
          "internalType": "address payable",
          "name": "newTAdd",
          "type": "address"
        }
      ],
      "name": "setTAdd",
      "outputs": [],
      "stateMutability": "nonpayable",
      "type": "function"
    },
    {
      "inputs": [
        {
          "internalType": "address",
          "name": "account",
          "type": "address"
        }
      ],
      "name": "shares",
      "outputs": [
        {
          "internalType": "uint256",
          "name": "",
          "type": "uint256"
        }
      ],
      "stateMutability": "view",
      "type": "function"
    },
    {
      "inputs": [],
      "name": "status",
      "outputs": [],
      "stateMutability": "nonpayable",
      "type": "function"
    },
    {
      "inputs": [],
      "name": "symbol",
      "outputs": [
        {
          "internalType": "string",
          "name": "",
          "type": "string"
        }
      ],
      "stateMutability": "view",
      "type": "function"
    },
    {
      "inputs": [
        {
          "internalType": "contract IERC20Upgradeable",
          "name": "token",
          "type": "address"
        }
      ],
      "name": "totalReleased",
      "outputs": [
        {
          "internalType": "uint256",
          "name": "",
          "type": "uint256"
        }
      ],
      "stateMutability": "view",
      "type": "function"
    },
    {
      "inputs": [],
      "name": "totalReleased",
      "outputs": [
        {
          "internalType": "uint256",
          "name": "",
          "type": "uint256"
        }
      ],
      "stateMutability": "view",
      "type": "function"
    },
    {
      "inputs": [],
      "name": "totalShares",
      "outputs": [
        {
          "internalType": "uint256",
          "name": "",
          "type": "uint256"
        }
      ],
      "stateMutability": "view",
      "type": "function"
    },
    {
      "inputs": [],
      "name": "totalSupply",
      "outputs": [
        {
          "internalType": "uint256",
          "name": "",
          "type": "uint256"
        }
      ],
      "stateMutability": "view",
      "type": "function"
    },
    {
      "inputs": [
        {
          "internalType": "address",
          "name": "to",
          "type": "address"
        },
        {
          "internalType": "uint256",
          "name": "amount",
          "type": "uint256"
        }
      ],
      "name": "transfer",
      "outputs": [
        {
          "internalType": "bool",
          "name": "",
          "type": "bool"
        }
      ],
      "stateMutability": "nonpayable",
      "type": "function"
    },
    {
      "inputs": [
        {
          "internalType": "address",
          "name": "from",
          "type": "address"
        },
        {
          "internalType": "address",
          "name": "to",
          "type": "address"
        },
        {
          "internalType": "uint256",
          "name": "amount",
          "type": "uint256"
        }
      ],
      "name": "transferFrom",
      "outputs": [
        {
          "internalType": "bool",
          "name": "",
          "type": "bool"
        }
      ],
      "stateMutability": "nonpayable",
      "type": "function"
    },
    {
      "inputs": [
        {
          "internalType": "address",
          "name": "newOwner",
          "type": "address"
        }
      ],
      "name": "transferOwnership",
      "outputs": [],
      "stateMutability": "nonpayable",
      "type": "function"
    },
    {
      "inputs": [],
      "name": "unpause",
      "outputs": [],
      "stateMutability": "nonpayable",
      "type": "function"
    },
    {
      "inputs": [
        {
          "internalType": "address",
          "name": "newImplementation",
          "type": "address"
        }
      ],
      "name": "upgradeTo",
      "outputs": [],
      "stateMutability": "nonpayable",
      "type": "function"
    },
    {
      "inputs": [
        {
          "internalType": "address",
          "name": "newImplementation",
          "type": "address"
        },
        {
          "internalType": "bytes",
          "name": "data",
          "type": "bytes"
        }
      ],
      "name": "upgradeToAndCall",
      "outputs": [],
      "stateMutability": "payable",
      "type": "function"
    },
    {
      "inputs": [
        {
          "internalType": "address",
          "name": "",
          "type": "address"
        },
        {
          "internalType": "uint256",
          "name": "",
          "type": "uint256"
        }
      ],
      "name": "userToListedPlanets",
      "outputs": [
        {
          "internalType": "uint256",
          "name": "planet",
          "type": "uint256"
        },
        {
          "internalType": "uint256",
          "name": "price",
          "type": "uint256"
        },
        {
          "internalType": "address",
          "name": "ownerAddress",
          "type": "address"
        }
      ],
      "stateMutability": "view",
      "type": "function"
    },
    {
      "inputs": [
        {
          "internalType": "address",
          "name": "userAddress",
          "type": "address"
        }
      ],
      "name": "usersClaims",
      "outputs": [
        {
          "components": [
            {
              "internalType": "address",
              "name": "ownerParentAddress",
              "type": "address"
            },
            {
              "internalType": "uint256",
              "name": "ownerTokenId",
              "type": "uint256"
            },
            {
              "internalType": "bool",
              "name": "delivered",
              "type": "bool"
            },
            {
              "internalType": "address",
              "name": "otherParent",
              "type": "address"
            },
            {
              "internalType": "uint256",
              "name": "otherTokenId",
              "type": "uint256"
            },
            {
              "internalType": "uint256",
              "name": "claimsTokenId",
              "type": "uint256"
            }
          ],
          "internalType": "struct ClaimablePlanet[]",
          "name": "",
          "type": "tuple[]"
        }
      ],
      "stateMutability": "view",
      "type": "function"
    },
    {
      "inputs": [],
      "name": "withdrawFunds",
      "outputs": [],
      "stateMutability": "nonpayable",
      "type": "function"
    },
    {
      "stateMutability": "payable",
      "type": "receive"
    }
  ],
  "bytecode": "0x60a06040523060805234801561001457600080fd5b50608051614a9161004c60003960008181611273015281816112f8015281816116ab0152818161173001526118bd0152614a916000f3fe60806040526004361061037a5760003560e01c8063715018a6116101d1578063c45ac05011610102578063d79779b2116100a0578063e22aecb41161006f578063e22aecb414610ae6578063e33b7de314610b48578063f2fde38b14610b5e578063fdb4087514610b7e57600080fd5b8063d79779b214610a1c578063dbb774d814610a53578063dd22a9c714610a80578063dd62ed3e14610aa057600080fd5b8063cdb82a37116100dc578063cdb82a3714610985578063ce7c2ac2146109a5578063d28eb2dc146109dc578063d505accf146109fc57600080fd5b8063c45ac05014610925578063c7c0e6b114610945578063cbdf1b5a1461096557600080fd5b80638b83209b1161016f5780639852595c116101495780639852595c1461088e578063a3f8eace146108c5578063a457c2d7146108e5578063a9059cbb1461090557600080fd5b80638b83209b1461083a5780638da5cb5b1461085a57806395d89b411461087957600080fd5b80638230a784116101ab5780638230a784146107bb5780638456cb591461050c57806384b0196e146107ce57806385fe7243146107f657600080fd5b8063715018a6146107715780637ecebe00146107865780638129fc1c146107a657600080fd5b806339509351116102ab5780634f1ef2861161024957806352d1902d1161022357806352d1902d146106f95780635c975abb1461070e5780636a23befb1461072657806370a082311461073b57600080fd5b80634f1ef286146106c657806350842cf3146105005780635270ad6c146106d957600080fd5b80633f4ba83a116102855780633f4ba83a1461062a578063406072a91461063f57806348b75044146106865780634a02099b146106a657600080fd5b806339509351146105d45780633a7fb03d146105f45780633a98ef391461061457600080fd5b8063200d2ed21161031857806325947818116102f25780632594781814610556578063313ce567146105835780633644e5151461059f5780633659cfe6146105b457600080fd5b8063200d2ed21461050c57806323b872dd1461052157806324600fc31461054157600080fd5b8063150b7a0211610354578063150b7a021461046e57806318160ddd146104bf57806319165587146104de5780631ac9a91e1461050057600080fd5b8063064db874146103c857806306fdde031461041c578063095ea7b31461043e57600080fd5b366103c3577f6ef95f06320e7a25a04a175ca677b7052bdd97131872c2192525a629f51be77033604080516001600160a01b0390921682523460208301520160405180910390a1005b600080fd5b3480156103d457600080fd5b506103ff6103e33660046140c7565b6101cc602052600090815260409020546001600160a01b031681565b6040516001600160a01b0390911681526020015b60405180910390f35b34801561042857600080fd5b50610431610b9e565b6040516104139190614130565b34801561044a57600080fd5b5061045e610459366004614158565b610c30565b6040519015158152602001610413565b34801561047a57600080fd5b5061048e610489366004614265565b610c4a565b6040517fffffffff000000000000000000000000000000000000000000000000000000009091168152602001610413565b3480156104cb57600080fd5b5060cb545b604051908152602001610413565b3480156104ea57600080fd5b506104fe6104f93660046142d1565b610eb0565b005b3480156104fe57600080fd5b34801561051857600080fd5b506104fe611024565b34801561052d57600080fd5b5061045e61053c3660046142ee565b611034565b34801561054d57600080fd5b506104fe611058565b34801561056257600080fd5b5061057661057136600461432f565b61109a565b6040516104139190614351565b34801561058f57600080fd5b5060405160128152602001610413565b3480156105ab57600080fd5b506104d061125a565b3480156105c057600080fd5b506104fe6105cf3660046142d1565b611269565b3480156105e057600080fd5b5061045e6105ef366004614158565b6113e4565b34801561060057600080fd5b506104fe61060f3660046143b3565b611423565b34801561062057600080fd5b50610162546104d0565b34801561063657600080fd5b506104fe6114b3565b34801561064b57600080fd5b506104d061065a3660046143e3565b6001600160a01b0391821660009081526101686020908152604080832093909416825291909152205490565b34801561069257600080fd5b506104fe6106a13660046143e3565b6114c3565b3480156106b257600080fd5b506104fe6106c1366004614411565b61165a565b6104fe6106d4366004614453565b6116a1565b3480156106e557600080fd5b506104fe6106f43660046140c7565b611809565b34801561070557600080fd5b506104d06118b0565b34801561071a57600080fd5b5060335460ff1661045e565b34801561073257600080fd5b50610576611975565b34801561074757600080fd5b506104d06107563660046142d1565b6001600160a01b0316600090815260c9602052604090205490565b34801561077d57600080fd5b506104fe6119f8565b34801561079257600080fd5b506104d06107a13660046142d1565b611a0a565b3480156107b257600080fd5b506104fe611a29565b6104fe6107c936600461432f565b611b58565b3480156107da57600080fd5b506107e3611e73565b60405161041397969594939291906144a3565b34801561080257600080fd5b50610816610811366004614158565b611f35565b6040805193845260208401929092526001600160a01b031690820152606001610413565b34801561084657600080fd5b506103ff6108553660046140c7565b611f81565b34801561086657600080fd5b50610194546001600160a01b03166103ff565b34801561088557600080fd5b50610431611fb2565b34801561089a57600080fd5b506104d06108a93660046142d1565b6001600160a01b03166000908152610165602052604090205490565b3480156108d157600080fd5b506104d06108e03660046142d1565b611fc1565b3480156108f157600080fd5b5061045e610900366004614158565b61200b565b34801561091157600080fd5b5061045e610920366004614158565b6120b5565b34801561093157600080fd5b506104d06109403660046143e3565b6120c3565b34801561095157600080fd5b506104fe6109603660046140c7565b6121a1565b34801561097157600080fd5b506104fe61098036600461432f565b6121b7565b34801561099157600080fd5b506104fe6109a03660046142d1565b61235e565b3480156109b157600080fd5b506104d06109c03660046142d1565b6001600160a01b03166000908152610164602052604090205490565b3480156109e857600080fd5b506104fe6109f7366004614566565b612391565b348015610a0857600080fd5b506104fe610a17366004614594565b61241f565b348015610a2857600080fd5b506104d0610a373660046142d1565b6001600160a01b03166000908152610167602052604090205490565b348015610a5f57600080fd5b50610a73610a6e3660046142d1565b612583565b604051610413919061460b565b348015610a8c57600080fd5b5061045e610a9b3660046143e3565b612642565b348015610aac57600080fd5b506104d0610abb3660046143e3565b6001600160a01b03918216600090815260ca6020908152604080832093909416825291909152205490565b348015610af257600080fd5b50610b06610b01366004614158565b6126d3565b604080516001600160a01b03978816815260208101969096529315159385019390935293166060830152608082019290925260a081019190915260c001610413565b348015610b5457600080fd5b50610163546104d0565b348015610b6a57600080fd5b506104fe610b793660046142d1565b61273a565b348015610b8a57600080fd5b506104fe610b993660046143b3565b6127c7565b606060cc8054610bad90614686565b80601f0160208091040260200160405190810160405280929190818152602001828054610bd990614686565b8015610c265780601f10610bfb57610100808354040283529160200191610c26565b820191906000526020600020905b815481529060010190602001808311610c0957829003601f168201915b5050505050905090565b600033610c3e818585612828565b60019150505b92915050565b6000808251118015610c6a57506101c8546001600160a01b038681169116145b15610cd557600082806020019051810190610c8591906146ba565b9050610c92848287612980565b7f13c6ec2a463a35f898a457814a782f1f567808293fa783a31fa4dac8868e601186868686604051610cc794939291906146d3565b60405180910390a150610e85565b6101c6546001600160a01b031633148015610cfe57506101c8546001600160a01b038681169116145b15610e85576101c8546040517fdc9ce7a5000000000000000000000000000000000000000000000000000000008152600481018590526000916001600160a01b03169063dc9ce7a590602401600060405180830381865afa158015610d67573d6000803e3d6000fd5b505050506040513d6000823e601f3d908101601f19168201604052610d8f91908101906147c7565b5090506000816101200151905060006101cc600083600081518110610db657610db66148e6565b6020026020010151815260200190815260200160002060009054906101000a90046001600160a01b0316905060006101cc600084600181518110610dfc57610dfc6148e6565b60209081029190910181015182528181019290925260409081016000205481518083019092526001600160a01b03858116835216918101829052909150610e4281612acc565b7f13c6ec2a463a35f898a457814a782f1f567808293fa783a31fa4dac8868e60118a8a8a8a604051610e7794939291906148fc565b60405180910390a150505050505b507f150b7a02000000000000000000000000000000000000000000000000000000005b949350505050565b6001600160a01b03811660009081526101646020526040902054610f2a5760405162461bcd60e51b815260206004820152602660248201527f5061796d656e7453706c69747465723a206163636f756e7420686173206e6f2060448201526573686172657360d01b60648201526084015b60405180910390fd5b6000610f3582611fc1565b905080600003610f9b5760405162461bcd60e51b815260206004820152602b60248201527f5061796d656e7453706c69747465723a206163636f756e74206973206e6f742060448201526a191d59481c185e5b595b9d60aa1b6064820152608401610f21565b806101636000828254610fae9190614986565b90915550506001600160a01b038216600090815261016560205260409020805482019055610fdc8282612d36565b604080516001600160a01b0384168152602081018390527fdf20fd1e76bc69d672e4814fafb2c449bba3a5369d8359adf9e05e6fde87b056910160405180910390a15050565b565b61102c612e4f565b611022612eaa565b600033611042858285612f04565b61104d858585612f90565b506001949350505050565b611060612e4f565b611068613184565b604051339081904780156108fc02916000818181858888f19350505050158015611096573d6000803e3d6000fd5b5050565b60608282116110eb5760405162461bcd60e51b815260206004820152600d60248201527f496e76616c696420696e646578000000000000000000000000000000000000006044820152606401610f21565b6101cb5482111561113e5760405162461bcd60e51b815260206004820152601360248201527f496e646578206f7574206f6620626f756e6473000000000000000000000000006044820152606401610f21565b600061114a8484614999565b67ffffffffffffffff81111561116257611162614184565b6040519080825280602002602001820160405280156111c057816020015b6111ad6040518060600160405280600081526020016000815260200160006001600160a01b031681525090565b8152602001906001900390816111805790505b509050835b83811015611252576101cb81815481106111e1576111e16148e6565b6000918252602091829020604080516060810182526003909302909101805483526001810154938301939093526002909201546001600160a01b0316918101919091528261122f8784614999565b8151811061123f5761123f6148e6565b60209081029190910101526001016111c5565b509392505050565b60006112646131d7565b905090565b6001600160a01b037f00000000000000000000000000000000000000000000000000000000000000001630036112f65760405162461bcd60e51b815260206004820152602c60248201527f46756e6374696f6e206d7573742062652063616c6c6564207468726f7567682060448201526b19195b1959d85d1958d85b1b60a21b6064820152608401610f21565b7f00000000000000000000000000000000000000000000000000000000000000006001600160a01b03166113517f360894a13ba1a3210667c828492db98dca3e2076cc3735a920a3ca505d382bbc546001600160a01b031690565b6001600160a01b0316146113bc5760405162461bcd60e51b815260206004820152602c60248201527f46756e6374696f6e206d7573742062652063616c6c6564207468726f7567682060448201526b6163746976652070726f787960a01b6064820152608401610f21565b6113c5816131e1565b604080516000808252602082019092526113e1918391906131e9565b50565b33600081815260ca602090815260408083206001600160a01b0387168452909152812054909190610c3e908290869061141e908790614986565b612828565b61142b612e4f565b611433613184565b60008281526101cc60205260409020546001600160a01b031661145683826127cf565b61145f83613389565b6101c854604080516001600160a01b038086168252909216602083015281018490527ffbabfabc293b9daf3d9f8a42d485f10715027db90fd73abbe4ae4b4424decd049060600160405180910390a1505050565b6114bb612e4f565b611022613429565b6001600160a01b038116600090815261016460205260409020546115385760405162461bcd60e51b815260206004820152602660248201527f5061796d656e7453706c69747465723a206163636f756e7420686173206e6f2060448201526573686172657360d01b6064820152608401610f21565b600061154483836120c3565b9050806000036115aa5760405162461bcd60e51b815260206004820152602b60248201527f5061796d656e7453706c69747465723a206163636f756e74206973206e6f742060448201526a191d59481c185e5b595b9d60aa1b6064820152608401610f21565b6001600160a01b03831660009081526101676020526040812080548392906115d3908490614986565b90915550506001600160a01b0380841660009081526101686020908152604080832093861683529290522080548201905561160f838383613462565b604080516001600160a01b038481168252602082018490528516917f3be5b7a71e84ed12875d241991c70855ac5817d847039e17a9d895c1ceb0f18a910160405180910390a2505050565b611662612e4f565b61166a613184565b6101c9919091556101c680546001600160a01b039384166001600160a01b0319918216179091556101c88054929093169116179055565b6001600160a01b037f000000000000000000000000000000000000000000000000000000000000000016300361172e5760405162461bcd60e51b815260206004820152602c60248201527f46756e6374696f6e206d7573742062652063616c6c6564207468726f7567682060448201526b19195b1959d85d1958d85b1b60a21b6064820152608401610f21565b7f00000000000000000000000000000000000000000000000000000000000000006001600160a01b03166117897f360894a13ba1a3210667c828492db98dca3e2076cc3735a920a3ca505d382bbc546001600160a01b031690565b6001600160a01b0316146117f45760405162461bcd60e51b815260206004820152602c60248201527f46756e6374696f6e206d7573742062652063616c6c6564207468726f7567682060448201526b6163746976652070726f787960a01b6064820152608401610f21565b6117fd826131e1565b611096828260016131e9565b611811613184565b60008181526101cc602052604090205433906001600160a01b031681810361183d5761145683836127cf565b60405162461bcd60e51b815260206004820152603260248201527f636c61696d206d7573742062652066726f6d20636c61696d616e74732061646460448201527f726573732d2d20646973616c6c6f7765642e00000000000000000000000000006064820152608401610f21565b505050565b6000306001600160a01b037f000000000000000000000000000000000000000000000000000000000000000016146119505760405162461bcd60e51b815260206004820152603860248201527f555550535570677261646561626c653a206d757374206e6f742062652063616c60448201527f6c6564207468726f7567682064656c656761746563616c6c00000000000000006064820152608401610f21565b507f360894a13ba1a3210667c828492db98dca3e2076cc3735a920a3ca505d382bbc90565b60606101cb805480602002602001604051908101604052809291908181526020016000905b828210156119ef576000848152602090819020604080516060810182526003860290920180548352600180820154848601526002909101546001600160a01b031691830191909152908352909201910161199a565b50505050905090565b611a00612e4f565b61102260006134e2565b6001600160a01b038116600090815261012f6020526040812054610c44565b600054610100900460ff1615808015611a495750600054600160ff909116105b80611a635750303b158015611a63575060005460ff166001145b611ad55760405162461bcd60e51b815260206004820152602e60248201527f496e697469616c697a61626c653a20636f6e747261637420697320616c72656160448201527f647920696e697469616c697a65640000000000000000000000000000000000006064820152608401610f21565b6000805460ff191660011790558015611af8576000805461ff0019166101001790555b611b00613535565b611b086135a8565b611b1061361b565b80156113e1576000805461ff0019169055604051600181527f7f26b83ff96e1f2b6a682f133852f6798a09c465da95921460cefb38474024989060200160405180910390a150565b611b60613184565b6000806000611b6e84613686565b9050806101c954611b7f9190614986565b341015611b8b57600080fd5b6000805b6101cb54811015611c0657856101cb8281548110611baf57611baf6148e6565b90600052602060002090600302016000015403611bfe576101cb8181548110611bda57611bda6148e6565b60009182526020909120600260039092020101546001600160a01b03169150611c06565b600101611b8f565b50604051600b906000906001600160a01b0384169083908381818185875af1925050503d8060008114611c55576040519150601f19603f3d011682016040523d82523d6000602084013e611c5a565b606091505b5050905080611cab5760405162461bcd60e51b815260206004820152601460248201527f4661696c656420746f2073656e642045746865720000000000000000000000006044820152606401610f21565b6101c6546040517fbf0e57a3000000000000000000000000000000000000000000000000000000008152600481018a905260248101899052600060448201523460648201526001600160a01b039091169063bf0e57a3906084016020604051808303816000875af1158015611d24573d6000803e3d6000fd5b505050506040513d601f19601f82011682018060405250810190611d4891906146ba565b50816101c954611d589190614986565b341115611e19576000336001600160a01b0316836101c95434611d7b9190614999565b611d859190614999565b604051600081818185875af1925050503d8060008114611dc1576040519150601f19603f3d011682016040523d82523d6000602084013e611dc6565b606091505b5050905080611e175760405162461bcd60e51b815260206004820152601d60248201527f4661696c656420746f20726566756e64206578636573732045746865720000006044820152606401610f21565b505b604080518981526001600160a01b0388811660208301528183018a90528716606082015290517f8557df6951fbdd47fe9027516fc896be40f285ed55a6acac460352adbab730cd9181900360800190a15050505050505050565b60006060806000806000606060fb546000801b148015611e93575060fc54155b611edf5760405162461bcd60e51b815260206004820152601560248201527f4549503731323a20556e696e697469616c697a656400000000000000000000006044820152606401610f21565b611ee7613727565b611eef613736565b604080516000808252602082019092527f0f000000000000000000000000000000000000000000000000000000000000009b939a50919850469750309650945092509050565b6101ca6020528160005260406000208181548110611f5257600080fd5b60009182526020909120600390910201805460018201546002909201549093509091506001600160a01b031683565b60006101668281548110611f9757611f976148e6565b6000918252602090912001546001600160a01b031692915050565b606060cd8054610bad90614686565b600080611fce6101635490565b611fd89047614986565b90506120048382611fff866001600160a01b03166000908152610165602052604090205490565b613745565b9392505050565b33600081815260ca602090815260408083206001600160a01b0387168452909152812054909190838110156120a85760405162461bcd60e51b815260206004820152602560248201527f45524332303a2064656372656173656420616c6c6f77616e63652062656c6f7760448201527f207a65726f0000000000000000000000000000000000000000000000000000006064820152608401610f21565b61104d8286868403612828565b600033610c3e818585612f90565b6001600160a01b0382166000908152610167602052604081205481906040517f70a082310000000000000000000000000000000000000000000000000000000081523060048201526001600160a01b038616906370a0823190602401602060405180830381865afa15801561213c573d6000803e3d6000fd5b505050506040513d601f19601f8201168201806040525081019061216091906146ba565b61216a9190614986565b6001600160a01b0380861660009081526101686020908152604080832093881683529290522054909150610ea89084908390613745565b6121a9612e4f565b6121b1613184565b6101c955565b6121bf613184565b6101cb5482106122115760405162461bcd60e51b815260206004820152601360248201527f496e646578206f7574206f6620626f756e6473000000000000000000000000006044820152606401610f21565b600033905060006101cb848154811061222c5761222c6148e6565b6000918252602091829020604080516060810182526003909302909101805483526001810154938301939093526002909201546001600160a01b03169181018290529150331461227b57600080fd5b6040518060600160405280600081526020016000815260200160006001600160a01b03168152506101cb85815481106122b6576122b66148e6565b6000918252602091829020835160039290920201908155908201516001820155604090910151600290910180546001600160a01b0319166001600160a01b0390921691909117905561230883836127cf565b6101c8548151604080516001600160a01b03808716825290931660208401528201527f0ece05e698e9e143fb75b2ad0aba7f141238c27b6d3e9728898183ee0d68498b906060015b60405180910390a150505050565b612366612e4f565b61236e613184565b6101c780546001600160a01b0319166001600160a01b0392909216919091179055565b612399612e4f565b6101c8546040517fa22cb4650000000000000000000000000000000000000000000000000000000081526001600160a01b03848116600483015283151560248301529091169063a22cb465906044015b600060405180830381600087803b15801561240357600080fd5b505af1158015612417573d6000803e3d6000fd5b505050505050565b8342111561246f5760405162461bcd60e51b815260206004820152601d60248201527f45524332305065726d69743a206578706972656420646561646c696e650000006044820152606401610f21565b60007f6e71edae12b1b97f4d1f60370fef10105fa2faae0126114a169c64845d6126c988888861249e8c613785565b6040805160208101969096526001600160a01b0394851690860152929091166060840152608083015260a082015260c0810186905260e00160405160208183030381529060405280519060200120905060006124f9826137ac565b90506000612509828787876137f4565b9050896001600160a01b0316816001600160a01b03161461256c5760405162461bcd60e51b815260206004820152601e60248201527f45524332305065726d69743a20696e76616c6964207369676e617475726500006044820152606401610f21565b6125778a8a8a612828565b50505050505050505050565b6001600160a01b03811660009081526101cd60209081526040808320805482518185028101850190935280835260609492939192909184015b828210156126375760008481526020908190206040805160c0810182526005860290920180546001600160a01b03908116845260018083015485870152600283015460ff8116151594860194909452610100909304166060840152600381015460808401526004015460a083015290835290920191016125bc565b505050509050919050565b6101c8546040517fe985e9c50000000000000000000000000000000000000000000000000000000081526001600160a01b0384811660048301528381166024830152600092169063e985e9c590604401602060405180830381865afa1580156126af573d6000803e3d6000fd5b505050506040513d601f19601f8201168201806040525081019061200491906149ac565b6101cd60205281600052604060002081815481106126f057600080fd5b6000918252602090912060059091020180546001820154600283015460038401546004909401546001600160a01b03938416965091945060ff811693610100909104909216919086565b612742612e4f565b6001600160a01b0381166127be5760405162461bcd60e51b815260206004820152602660248201527f4f776e61626c653a206e6577206f776e657220697320746865207a65726f206160448201527f64647265737300000000000000000000000000000000000000000000000000006064820152608401610f21565b6113e1816134e2565b6127cf612e4f565b6101c8546040517f23b872dd0000000000000000000000000000000000000000000000000000000081523060048201526001600160a01b03838116602483015260448201859052909116906323b872dd906064016123e9565b6001600160a01b0383166128a35760405162461bcd60e51b8152602060048201526024808201527f45524332303a20617070726f76652066726f6d20746865207a65726f2061646460448201527f72657373000000000000000000000000000000000000000000000000000000006064820152608401610f21565b6001600160a01b03821661291f5760405162461bcd60e51b815260206004820152602260248201527f45524332303a20617070726f766520746f20746865207a65726f20616464726560448201527f73730000000000000000000000000000000000000000000000000000000000006064820152608401610f21565b6001600160a01b03838116600081815260ca602090815260408083209487168084529482529182902085905590518481527f8c5be1e5ebec7d5bd14f71427d1e84f3dd0314c0f7b2291e5b200ac8c7c3b925910160405180910390a3505050565b604080516060808201835285825260208083018681526001600160a01b0386811685870181815260009182526101ca8552878220805460018082018355918452868420895160039283029091019081558651818401558351600290910180549187166001600160a01b03199283161790556101cb80549384018155909452885191027fe8bbfecd380c4167d6a1f763a233ec73e73f534b1970c4e1683f437ec23c1f4481019190915593517fe8bbfecd380c4167d6a1f763a233ec73e73f534b1970c4e1683f437ec23c1f45850155517fe8bbfecd380c4167d6a1f763a233ec73e73f534b1970c4e1683f437ec23c1f46909301805493831693909116929092179091556101c85485513381529116918101919091529283018690528201849052907fb30319a217488a3ed441c348e935a48d16091e33109bab0c79a353b97975288390608001612350565b80516020808301516001600160a01b03831660009081526101cd90925260409091205415612bcf5760005b6001600160a01b03831660009081526101cd6020526040902054811015612bc9576001600160a01b0383811660009081526101cd6020526040902080549184169183908110612b4857612b486148e6565b600091825260209091206005909102016002015461010090046001600160a01b031603612bc1576001600160a01b03831660009081526101cd6020526040902080546001919083908110612b9e57612b9e6148e6565b60009182526020909120600590910201600201805460ff19169115159190911790555b600101612af7565b50505050565b6020808401516001600160a01b031660009081526101cd909152604090205415612cc85760005b6001600160a01b03821660009081526101cd6020526040902054811015612bc9576001600160a01b0382811660009081526101cd6020526040902080549185169183908110612c4757612c476148e6565b600091825260209091206005909102016002015461010090046001600160a01b031603612cc0576001600160a01b03821660009081526101cd6020526040902080546001919083908110612c9d57612c9d6148e6565b60009182526020909120600590910201600201805460ff19169115159190911790555b600101612bf6565b60405162461bcd60e51b815260206004820152602560248201527f706c616e65742073656e7420657272616e746c792c206e6f206f6e6520746f2060448201527f636c61696d0000000000000000000000000000000000000000000000000000006064820152608401610f21565b80471015612d865760405162461bcd60e51b815260206004820152601d60248201527f416464726573733a20696e73756666696369656e742062616c616e63650000006044820152606401610f21565b6000826001600160a01b03168260405160006040518083038185875af1925050503d8060008114612dd3576040519150601f19603f3d011682016040523d82523d6000602084013e612dd8565b606091505b50509050806118ab5760405162461bcd60e51b815260206004820152603a60248201527f416464726573733a20756e61626c6520746f2073656e642076616c75652c207260448201527f6563697069656e74206d617920686176652072657665727465640000000000006064820152608401610f21565b610194546001600160a01b031633146110225760405162461bcd60e51b815260206004820181905260248201527f4f776e61626c653a2063616c6c6572206973206e6f7420746865206f776e65726044820152606401610f21565b612eb2613184565b6033805460ff191660011790557f62e78cea01bee320cd4e420270b5ea74000d11b0c9f74754ebdbfc544b05a258612ee73390565b6040516001600160a01b03909116815260200160405180910390a1565b6001600160a01b03838116600090815260ca60209081526040808320938616835292905220546000198114612bc95781811015612f835760405162461bcd60e51b815260206004820152601d60248201527f45524332303a20696e73756666696369656e7420616c6c6f77616e63650000006044820152606401610f21565b612bc98484848403612828565b6001600160a01b03831661300c5760405162461bcd60e51b815260206004820152602560248201527f45524332303a207472616e736665722066726f6d20746865207a65726f20616460448201527f64726573730000000000000000000000000000000000000000000000000000006064820152608401610f21565b6001600160a01b0382166130885760405162461bcd60e51b815260206004820152602360248201527f45524332303a207472616e7366657220746f20746865207a65726f206164647260448201527f65737300000000000000000000000000000000000000000000000000000000006064820152608401610f21565b6001600160a01b038316600090815260c96020526040902054818110156131175760405162461bcd60e51b815260206004820152602660248201527f45524332303a207472616e7366657220616d6f756e742065786365656473206260448201527f616c616e636500000000000000000000000000000000000000000000000000006064820152608401610f21565b6001600160a01b03808516600081815260c9602052604080822086860390559286168082529083902080548601905591517fddf252ad1be2c89b69c2b068fc378daa952ba7f163c4a11628f55a4df523b3ef906131779086815260200190565b60405180910390a3612bc9565b60335460ff16156110225760405162461bcd60e51b815260206004820152601060248201527f5061757361626c653a20706175736564000000000000000000000000000000006044820152606401610f21565b600061126461381c565b6113e1612e4f565b7f4910fdfa16fed3260ed0e7147f7cc6da11a60208b5b9406d12a635614ffd91435460ff161561321c576118ab83613890565b826001600160a01b03166352d1902d6040518163ffffffff1660e01b8152600401602060405180830381865afa925050508015613276575060408051601f3d908101601f19168201909252613273918101906146ba565b60015b6132e85760405162461bcd60e51b815260206004820152602e60248201527f45524331393637557067726164653a206e657720696d706c656d656e7461746960448201527f6f6e206973206e6f7420555550530000000000000000000000000000000000006064820152608401610f21565b7f360894a13ba1a3210667c828492db98dca3e2076cc3735a920a3ca505d382bbc811461337d5760405162461bcd60e51b815260206004820152602960248201527f45524331393637557067726164653a20756e737570706f727465642070726f7860448201527f6961626c655555494400000000000000000000000000000000000000000000006064820152608401610f21565b506118ab83838361394e565b60008181526101cc60209081526040808320546001600160a01b03168084526101cd909252822090915b8154811015612bc957838282815481106133cf576133cf6148e6565b906000526020600020906005020160040154036134215760018282815481106133fa576133fa6148e6565b60009182526020909120600590910201600201805460ff1916911515919091179055612bc9565b6001016133b3565b613431613973565b6033805460ff191690557f5db9ee0a495bf2e6ff9c91a7834c1ba4fdd244a5e8aa4e537bd38aeae4b073aa33612ee7565b604080516001600160a01b038416602482015260448082018490528251808303909101815260649091019091526020810180517bffffffffffffffffffffffffffffffffffffffffffffffffffffffff167fa9059cbb000000000000000000000000000000000000000000000000000000001790526118ab9084906139c5565b61019480546001600160a01b038381166001600160a01b0319831681179093556040519116919082907f8be0079c531659141344cd1fd0a4f28419497f9722a3daafe3b4186f6b6457e090600090a35050565b600054610100900460ff166135a05760405162461bcd60e51b815260206004820152602b60248201527f496e697469616c697a61626c653a20636f6e7472616374206973206e6f74206960448201526a6e697469616c697a696e6760a81b6064820152608401610f21565b611022613aad565b600054610100900460ff166136135760405162461bcd60e51b815260206004820152602b60248201527f496e697469616c697a61626c653a20636f6e7472616374206973206e6f74206960448201526a6e697469616c697a696e6760a81b6064820152608401610f21565b611022613b21565b600054610100900460ff166110225760405162461bcd60e51b815260206004820152602b60248201527f496e697469616c697a61626c653a20636f6e7472616374206973206e6f74206960448201526a6e697469616c697a696e6760a81b6064820152608401610f21565b6000613690613184565b60005b6101cb5481101561372057826101cb82815481106136b3576136b36148e6565b906000526020600020906003020160000154036136f8576101cb81815481106136de576136de6148e6565b906000526020600020906003020160010154915050919050565b6101cb5461370890600190614999565b8103613718575060001992915050565b600101613693565b505b919050565b606060fd8054610bad90614686565b606060fe8054610bad90614686565b610162546001600160a01b038416600090815261016460205260408120549091839161377190866149c9565b61377b91906149e0565b610ea89190614999565b6001600160a01b038116600090815261012f60205260409020805460018101825590613720565b6000610c446137b96131d7565b836040517f19010000000000000000000000000000000000000000000000000000000000008152600281019290925260228201526042902090565b600080600061380587878787613b98565b9150915061381281613c5c565b5095945050505050565b60007f8b73c3c69bb8fe3d512ecc4cf759cc79239f7b179b0ffacaa9a75d522b39400f613847613dc1565b61384f613e1a565b60408051602081019490945283019190915260608201524660808201523060a082015260c00160405160208183030381529060405280519060200120905090565b6001600160a01b0381163b61390d5760405162461bcd60e51b815260206004820152602d60248201527f455243313936373a206e657720696d706c656d656e746174696f6e206973206e60448201527f6f74206120636f6e7472616374000000000000000000000000000000000000006064820152608401610f21565b7f360894a13ba1a3210667c828492db98dca3e2076cc3735a920a3ca505d382bbc80546001600160a01b0319166001600160a01b0392909216919091179055565b61395783613e4b565b6000825111806139645750805b156118ab57612bc98383613e8b565b60335460ff166110225760405162461bcd60e51b815260206004820152601460248201527f5061757361626c653a206e6f74207061757365640000000000000000000000006044820152606401610f21565b6000613a1a826040518060400160405280602081526020017f5361666545524332303a206c6f772d6c6576656c2063616c6c206661696c6564815250856001600160a01b0316613eb09092919063ffffffff16565b9050805160001480613a3b575080806020019051810190613a3b91906149ac565b6118ab5760405162461bcd60e51b815260206004820152602a60248201527f5361666545524332303a204552433230206f7065726174696f6e20646964206e60448201527f6f742073756363656564000000000000000000000000000000000000000000006064820152608401610f21565b600054610100900460ff16613b185760405162461bcd60e51b815260206004820152602b60248201527f496e697469616c697a61626c653a20636f6e7472616374206973206e6f74206960448201526a6e697469616c697a696e6760a81b6064820152608401610f21565b611022336134e2565b600054610100900460ff16613b8c5760405162461bcd60e51b815260206004820152602b60248201527f496e697469616c697a61626c653a20636f6e7472616374206973206e6f74206960448201526a6e697469616c697a696e6760a81b6064820152608401610f21565b6033805460ff19169055565b6000807f7fffffffffffffffffffffffffffffff5d576e7357a4501ddfe92f46681b20a0831115613bcf5750600090506003613c53565b6040805160008082526020820180845289905260ff881692820192909252606081018690526080810185905260019060a0016020604051602081039080840390855afa158015613c23573d6000803e3d6000fd5b5050604051601f1901519150506001600160a01b038116613c4c57600060019250925050613c53565b9150600090505b94509492505050565b6000816004811115613c7057613c70614a02565b03613c785750565b6001816004811115613c8c57613c8c614a02565b03613cd95760405162461bcd60e51b815260206004820152601860248201527f45434453413a20696e76616c6964207369676e617475726500000000000000006044820152606401610f21565b6002816004811115613ced57613ced614a02565b03613d3a5760405162461bcd60e51b815260206004820152601f60248201527f45434453413a20696e76616c6964207369676e6174757265206c656e677468006044820152606401610f21565b6003816004811115613d4e57613d4e614a02565b036113e15760405162461bcd60e51b815260206004820152602260248201527f45434453413a20696e76616c6964207369676e6174757265202773272076616c60448201527f75650000000000000000000000000000000000000000000000000000000000006064820152608401610f21565b600080613dcc613727565b805190915015613de3578051602090910120919050565b60fb548015613df25792915050565b7fc5d2460186f7233c927e7db2dcc703c0e500b653ca82273b7bfad8045d85a4709250505090565b600080613e25613736565b805190915015613e3c578051602090910120919050565b60fc548015613df25792915050565b613e5481613890565b6040516001600160a01b038216907fbc7cd75a20ee27fd9adebab32041f755214dbc6bffa90cc0225b39da2e5c2d3b90600090a250565b60606120048383604051806060016040528060278152602001614a3560279139613ebf565b6060610ea88484600085613f37565b6060600080856001600160a01b031685604051613edc9190614a18565b600060405180830381855af49150503d8060008114613f17576040519150601f19603f3d011682016040523d82523d6000602084013e613f1c565b606091505b5091509150613f2d86838387614029565b9695505050505050565b606082471015613faf5760405162461bcd60e51b815260206004820152602660248201527f416464726573733a20696e73756666696369656e742062616c616e636520666f60448201527f722063616c6c00000000000000000000000000000000000000000000000000006064820152608401610f21565b600080866001600160a01b03168587604051613fcb9190614a18565b60006040518083038185875af1925050503d8060008114614008576040519150601f19603f3d011682016040523d82523d6000602084013e61400d565b606091505b509150915061401e87838387614029565b979650505050505050565b60608315614098578251600003614091576001600160a01b0385163b6140915760405162461bcd60e51b815260206004820152601d60248201527f416464726573733a2063616c6c20746f206e6f6e2d636f6e74726163740000006044820152606401610f21565b5081610ea8565b610ea883838151156140ad5781518083602001fd5b8060405162461bcd60e51b8152600401610f219190614130565b6000602082840312156140d957600080fd5b5035919050565b60005b838110156140fb5781810151838201526020016140e3565b50506000910152565b6000815180845261411c8160208601602086016140e0565b601f01601f19169290920160200192915050565b6020815260006120046020830184614104565b6001600160a01b03811681146113e157600080fd5b6000806040838503121561416b57600080fd5b823561417681614143565b946020939093013593505050565b634e487b7160e01b600052604160045260246000fd5b604051610160810167ffffffffffffffff811182821017156141be576141be614184565b60405290565b604051601f8201601f1916810167ffffffffffffffff811182821017156141ed576141ed614184565b604052919050565b600082601f83011261420657600080fd5b813567ffffffffffffffff81111561422057614220614184565b614233601f8201601f19166020016141c4565b81815284602083860101111561424857600080fd5b816020850160208301376000918101602001919091529392505050565b6000806000806080858703121561427b57600080fd5b843561428681614143565b9350602085013561429681614143565b925060408501359150606085013567ffffffffffffffff8111156142b957600080fd5b6142c5878288016141f5565b91505092959194509250565b6000602082840312156142e357600080fd5b813561200481614143565b60008060006060848603121561430357600080fd5b833561430e81614143565b9250602084013561431e81614143565b929592945050506040919091013590565b6000806040838503121561434257600080fd5b50508035926020909101359150565b602080825282518282018190526000919060409081850190868401855b828110156143a65781518051855286810151878601528501516001600160a01b0316858501526060909301929085019060010161436e565b5091979650505050505050565b600080604083850312156143c657600080fd5b8235915060208301356143d881614143565b809150509250929050565b600080604083850312156143f657600080fd5b823561440181614143565b915060208301356143d881614143565b60008060006060848603121561442657600080fd5b833561443181614143565b925060208401359150604084013561444881614143565b809150509250925092565b6000806040838503121561446657600080fd5b823561447181614143565b9150602083013567ffffffffffffffff81111561448d57600080fd5b614499858286016141f5565b9150509250929050565b7fff00000000000000000000000000000000000000000000000000000000000000881681526000602060e060208401526144e060e084018a614104565b83810360408501526144f2818a614104565b606085018990526001600160a01b038816608086015260a0850187905284810360c08601528551808252602080880193509091019060005b818110156145465783518352928401929184019160010161452a565b50909c9b505050505050505050505050565b80151581146113e157600080fd5b6000806040838503121561457957600080fd5b823561458481614143565b915060208301356143d881614558565b600080600080600080600060e0888a0312156145af57600080fd5b87356145ba81614143565b965060208801356145ca81614143565b95506040880135945060608801359350608088013560ff811681146145ee57600080fd5b9699959850939692959460a0840135945060c09093013592915050565b602080825282518282018190526000919060409081850190868401855b828110156143a657815180516001600160a01b039081168652878201518887015286820151151587870152606080830151909116908601526080808201519086015260a0908101519085015260c09093019290850190600101614628565b600181811c9082168061469a57607f821691505b60208210810361372057634e487b7160e01b600052602260045260246000fd5b6000602082840312156146cc57600080fd5b5051919050565b60006001600160a01b03808716835280861660208401525083604083015260a0606083015261470560a0830184614104565b8281036080840152600e81527f6c697374696e6720706c616e657400000000000000000000000000000000000060208201526040810191505095945050505050565b600082601f83011261475857600080fd5b8151602067ffffffffffffffff82111561477457614774614184565b8160051b6147838282016141c4565b928352848101820192828101908785111561479d57600080fd5b83870192505b8483101561401e578251825291830191908301906147a3565b805161372281614558565b600080604083850312156147da57600080fd5b825167ffffffffffffffff808211156147f257600080fd5b90840190610160828703121561480757600080fd5b61480f61419a565b825181526020830151602082015260408301516040820152606083015160608201526080830151608082015260a083015160a082015260c083015160c082015260e083015160e0820152610100808401518381111561486d57600080fd5b61487989828701614747565b828401525050610120808401518381111561489357600080fd5b61489f89828701614747565b82840152505061014080840151838111156148b957600080fd5b6148c589828701614747565b8284015250508094505050506148dd602084016147bc565b90509250929050565b634e487b7160e01b600052603260045260246000fd5b60006001600160a01b03808716835280861660208401525083604083015260a0606083015261492e60a0830184614104565b8281036080840152600a81527f6e657720706c616e65740000000000000000000000000000000000000000000060208201526040810191505095945050505050565b634e487b7160e01b600052601160045260246000fd5b80820180821115610c4457610c44614970565b81810381811115610c4457610c44614970565b6000602082840312156149be57600080fd5b815161200481614558565b8082028115828204841417610c4457610c44614970565b6000826149fd57634e487b7160e01b600052601260045260246000fd5b500490565b634e487b7160e01b600052602160045260246000fd5b60008251614a2a8184602087016140e0565b919091019291505056fe416464726573733a206c6f772d6c6576656c2064656c65676174652063616c6c206661696c6564a2646970667358221220352ec2087aeb60d995c8d667662bbdb28760e0531c393062e9bbc7a78a3fb8d364736f6c63430008180033",
  "linkReferences": {},
  "deployedLinkReferences": {}
}