{
  "_format": "hh-sol-artifact-1",
  "contractName": "HatcherV2",
  "sourceName": "contracts/HatcherV2.sol",
  "abi": [
    {
      "inputs": [],
      "name": "Unauthorized",
      "type": "error"
    },
    {
      "anonymous": false,
      "inputs": [
        {
          "indexed": false,
          "internalType": "address",
          "name": "previousAdmin",
          "type": "address"
        },
        {
          "indexed": false,
          "internalType": "address",
          "name": "newAdmin",
          "type": "address"
        }
      ],
      "name": "AdminChanged",
      "type": "event"
    },
    {
      "anonymous": false,
      "inputs": [
        {
          "indexed": true,
          "internalType": "address",
          "name": "owner",
          "type": "address"
        },
        {
          "indexed": true,
          "internalType": "address",
          "name": "spender",
          "type": "address"
        },
        {
          "indexed": false,
          "internalType": "uint256",
          "name": "value",
          "type": "uint256"
        }
      ],
      "name": "Approval",
      "type": "event"
    },
    {
      "anonymous": false,
      "inputs": [
        {
          "indexed": true,
          "internalType": "address",
          "name": "beacon",
          "type": "address"
        }
      ],
      "name": "BeaconUpgraded",
      "type": "event"
    },
    {
      "anonymous": false,
      "inputs": [
        {
          "indexed": false,
          "internalType": "address",
          "name": "sentToUser",
          "type": "address"
        },
        {
          "indexed": false,
          "internalType": "address",
          "name": "token",
          "type": "address"
        },
        {
          "indexed": false,
          "internalType": "uint256",
          "name": "tokenId",
          "type": "uint256"
        }
      ],
      "name": "DeClaimedAPlanet",
      "type": "event"
    },
    {
      "anonymous": false,
      "inputs": [
        {
          "indexed": false,
          "internalType": "address",
          "name": "sentToUser",
          "type": "address"
        },
        {
          "indexed": false,
          "internalType": "address",
          "name": "token",
          "type": "address"
        },
        {
          "indexed": false,
          "internalType": "uint256",
          "name": "tokenId",
          "type": "uint256"
        }
      ],
      "name": "DeListedAPlanet",
      "type": "event"
    },
    {
      "anonymous": false,
      "inputs": [],
      "name": "EIP712DomainChanged",
      "type": "event"
    },
    {
      "anonymous": false,
      "inputs": [
        {
          "indexed": true,
          "internalType": "contract IERC20Upgradeable",
          "name": "token",
          "type": "address"
        },
        {
          "indexed": false,
          "internalType": "address",
          "name": "to",
          "type": "address"
        },
        {
          "indexed": false,
          "internalType": "uint256",
          "name": "amount",
          "type": "uint256"
        }
      ],
      "name": "ERC20PaymentReleased",
      "type": "event"
    },
    {
      "anonymous": false,
      "inputs": [
        {
          "indexed": false,
          "internalType": "uint8",
          "name": "version",
          "type": "uint8"
        }
      ],
      "name": "Initialized",
      "type": "event"
    },
    {
      "anonymous": false,
      "inputs": [
        {
          "indexed": false,
          "internalType": "address",
          "name": "sentFromUser",
          "type": "address"
        },
        {
          "indexed": false,
          "internalType": "address",
          "name": "token",
          "type": "address"
        },
        {
          "indexed": false,
          "internalType": "uint256",
          "name": "tokenId",
          "type": "uint256"
        },
        {
          "indexed": false,
          "internalType": "uint256",
          "name": "price",
          "type": "uint256"
        }
      ],
      "name": "ListedAPlanet",
      "type": "event"
    },
    {
      "anonymous": false,
      "inputs": [
        {
          "indexed": false,
          "internalType": "address",
          "name": "operator",
          "type": "address"
        },
        {
          "indexed": false,
          "internalType": "address",
          "name": "from",
          "type": "address"
        },
        {
          "indexed": false,
          "internalType": "uint256",
          "name": "tokenId",
          "type": "uint256"
        },
        {
          "indexed": false,
          "internalType": "bytes",
          "name": "data",
          "type": "bytes"
        },
        {
          "indexed": false,
          "internalType": "string",
          "name": "typeOfReceival",
          "type": "string"
        }
      ],
      "name": "NftReceived",
      "type": "event"
    },
    {
      "anonymous": false,
      "inputs": [
        {
          "indexed": true,
          "internalType": "address",
          "name": "previousOwner",
          "type": "address"
        },
        {
          "indexed": true,
          "internalType": "address",
          "name": "newOwner",
          "type": "address"
        }
      ],
      "name": "OwnershipTransferred",
      "type": "event"
    },
    {
      "anonymous": false,
      "inputs": [
        {
          "indexed": false,
          "internalType": "address",
          "name": "account",
          "type": "address"
        }
      ],
      "name": "Paused",
      "type": "event"
    },
    {
      "anonymous": false,
      "inputs": [
        {
          "indexed": false,
          "internalType": "address",
          "name": "account",
          "type": "address"
        },
        {
          "indexed": false,
          "internalType": "uint256",
          "name": "shares",
          "type": "uint256"
        }
      ],
      "name": "PayeeAdded",
      "type": "event"
    },
    {
      "anonymous": false,
      "inputs": [
        {
          "indexed": false,
          "internalType": "address",
          "name": "from",
          "type": "address"
        },
        {
          "indexed": false,
          "internalType": "uint256",
          "name": "amount",
          "type": "uint256"
        }
      ],
      "name": "PaymentReceived",
      "type": "event"
    },
    {
      "anonymous": false,
      "inputs": [
        {
          "indexed": false,
          "internalType": "address",
          "name": "to",
          "type": "address"
        },
        {
          "indexed": false,
          "internalType": "uint256",
          "name": "amount",
          "type": "uint256"
        }
      ],
      "name": "PaymentReleased",
      "type": "event"
    },
    {
      "anonymous": false,
      "inputs": [
        {
          "indexed": false,
          "internalType": "uint256",
          "name": "planetAsking",
          "type": "uint256"
        },
        {
          "indexed": false,
          "internalType": "address",
          "name": "askingUser",
          "type": "address"
        },
        {
          "indexed": false,
          "internalType": "uint256",
          "name": "planetJoining",
          "type": "uint256"
        },
        {
          "indexed": false,
          "internalType": "address",
          "name": "joiningUser",
          "type": "address"
        }
      ],
      "name": "PlanetsConjoining",
      "type": "event"
    },
    {
      "anonymous": false,
      "inputs": [
        {
          "indexed": true,
          "internalType": "address",
          "name": "from",
          "type": "address"
        },
        {
          "indexed": true,
          "internalType": "address",
          "name": "to",
          "type": "address"
        },
        {
          "indexed": false,
          "internalType": "uint256",
          "name": "value",
          "type": "uint256"
        }
      ],
      "name": "Transfer",
      "type": "event"
    },
    {
      "anonymous": false,
      "inputs": [
        {
          "indexed": false,
          "internalType": "address",
          "name": "account",
          "type": "address"
        }
      ],
      "name": "Unpaused",
      "type": "event"
    },
    {
      "anonymous": false,
      "inputs": [
        {
          "indexed": true,
          "internalType": "address",
          "name": "implementation",
          "type": "address"
        }
      ],
      "name": "Upgraded",
      "type": "event"
    },
    {
      "stateMutability": "payable",
      "type": "fallback"
    },
    {
      "inputs": [],
      "name": "DOMAIN_SEPARATOR",
      "outputs": [
        {
          "internalType": "bytes32",
          "name": "",
          "type": "bytes32"
        }
      ],
      "stateMutability": "view",
      "type": "function"
    },
    {
      "inputs": [
        {
          "internalType": "address",
          "name": "owner",
          "type": "address"
        },
        {
          "internalType": "address",
          "name": "spender",
          "type": "address"
        }
      ],
      "name": "allowance",
      "outputs": [
        {
          "internalType": "uint256",
          "name": "",
          "type": "uint256"
        }
      ],
      "stateMutability": "view",
      "type": "function"
    },
    {
      "inputs": [
        {
          "internalType": "address",
          "name": "spender",
          "type": "address"
        },
        {
          "internalType": "uint256",
          "name": "amount",
          "type": "uint256"
        }
      ],
      "name": "approve",
      "outputs": [
        {
          "internalType": "bool",
          "name": "",
          "type": "bool"
        }
      ],
      "stateMutability": "nonpayable",
      "type": "function"
    },
    {
      "inputs": [
        {
          "internalType": "contract IERC721",
          "name": "token",
          "type": "address"
        },
        {
          "internalType": "address",
          "name": "operator",
          "type": "address"
        }
      ],
      "name": "approveAllERC721Tokens",
      "outputs": [],
      "stateMutability": "nonpayable",
      "type": "function"
    },
    {
      "inputs": [
        {
          "internalType": "contract IERC20",
          "name": "token",
          "type": "address"
        },
        {
          "internalType": "address",
          "name": "spender",
          "type": "address"
        },
        {
          "internalType": "uint256",
          "name": "amount",
          "type": "uint256"
        }
      ],
      "name": "approveERC20",
      "outputs": [],
      "stateMutability": "nonpayable",
      "type": "function"
    },
    {
      "inputs": [
        {
          "internalType": "address",
          "name": "account",
          "type": "address"
        }
      ],
      "name": "balanceOf",
      "outputs": [
        {
          "internalType": "uint256",
          "name": "",
          "type": "uint256"
        }
      ],
      "stateMutability": "view",
      "type": "function"
    },
    {
      "inputs": [],
      "name": "breedContract",
      "outputs": [
        {
          "internalType": "contract IBreedContract",
          "name": "",
          "type": "address"
        }
      ],
      "stateMutability": "view",
      "type": "function"
    },
    {
      "inputs": [
        {
          "internalType": "uint256",
          "name": "newVRF",
          "type": "uint256"
        }
      ],
      "name": "changeVRFValue",
      "outputs": [],
      "stateMutability": "nonpayable",
      "type": "function"
    },
    {
      "inputs": [
        {
          "internalType": "address",
          "name": "owner",
          "type": "address"
        },
        {
          "internalType": "address",
          "name": "operator",
          "type": "address"
        }
      ],
      "name": "checkApprovalForAll",
      "outputs": [
        {
          "internalType": "bool",
          "name": "",
          "type": "bool"
        }
      ],
      "stateMutability": "view",
      "type": "function"
    },
    {
      "inputs": [
        {
          "internalType": "uint256",
          "name": "claimableTokenId",
          "type": "uint256"
        }
      ],
      "name": "claimPlanet",
      "outputs": [],
      "stateMutability": "nonpayable",
      "type": "function"
    },
    {
      "inputs": [
        {
          "internalType": "address",
          "name": "",
          "type": "address"
        },
        {
          "internalType": "uint256",
          "name": "",
          "type": "uint256"
        }
      ],
      "name": "claimablePlanets",
      "outputs": [
        {
          "internalType": "address",
          "name": "ownerParentAddress",
          "type": "address"
        },
        {
          "internalType": "uint256",
          "name": "ownerTokenId",
          "type": "uint256"
        },
        {
          "internalType": "bool",
          "name": "delivered",
          "type": "bool"
        },
        {
          "internalType": "bool",
          "name": "arrived",
          "type": "bool"
        },
        {
          "internalType": "address",
          "name": "otherParent",
          "type": "address"
        },
        {
          "internalType": "uint256",
          "name": "otherTokenId",
          "type": "uint256"
        },
        {
          "internalType": "uint256",
          "name": "claimsTokenId",
          "type": "uint256"
        }
      ],
      "stateMutability": "view",
      "type": "function"
    },
    {
      "inputs": [
        {
          "internalType": "uint256",
          "name": "",
          "type": "uint256"
        }
      ],
      "name": "claimantTokenIdToOwnerAddress",
      "outputs": [
        {
          "internalType": "address",
          "name": "",
          "type": "address"
        }
      ],
      "stateMutability": "view",
      "type": "function"
    },
    {
      "inputs": [
        {
          "internalType": "uint256",
          "name": "yourPlanet",
          "type": "uint256"
        },
        {
          "internalType": "uint256",
          "name": "withListedPlanet",
          "type": "uint256"
        }
      ],
      "name": "conjunct",
      "outputs": [],
      "stateMutability": "payable",
      "type": "function"
    },
    {
      "inputs": [
        {
          "internalType": "uint256",
          "name": "idIndex",
          "type": "uint256"
        },
        {
          "internalType": "uint256",
          "name": "tokenId",
          "type": "uint256"
        }
      ],
      "name": "deList",
      "outputs": [],
      "stateMutability": "nonpayable",
      "type": "function"
    },
    {
      "inputs": [],
      "name": "deListAllYourPlanets",
      "outputs": [],
      "stateMutability": "nonpayable",
      "type": "function"
    },
    {
      "inputs": [],
      "name": "decimals",
      "outputs": [
        {
          "internalType": "uint8",
          "name": "",
          "type": "uint8"
        }
      ],
      "stateMutability": "view",
      "type": "function"
    },
    {
      "inputs": [
        {
          "internalType": "address",
          "name": "spender",
          "type": "address"
        },
        {
          "internalType": "uint256",
          "name": "subtractedValue",
          "type": "uint256"
        }
      ],
      "name": "decreaseAllowance",
      "outputs": [
        {
          "internalType": "bool",
          "name": "",
          "type": "bool"
        }
      ],
      "stateMutability": "nonpayable",
      "type": "function"
    },
    {
      "inputs": [],
      "name": "eip712Domain",
      "outputs": [
        {
          "internalType": "bytes1",
          "name": "fields",
          "type": "bytes1"
        },
        {
          "internalType": "string",
          "name": "name",
          "type": "string"
        },
        {
          "internalType": "string",
          "name": "version",
          "type": "string"
        },
        {
          "internalType": "uint256",
          "name": "chainId",
          "type": "uint256"
        },
        {
          "internalType": "address",
          "name": "verifyingContract",
          "type": "address"
        },
        {
          "internalType": "bytes32",
          "name": "salt",
          "type": "bytes32"
        },
        {
          "internalType": "uint256[]",
          "name": "extensions",
          "type": "uint256[]"
        }
      ],
      "stateMutability": "view",
      "type": "function"
    },
    {
      "inputs": [],
      "name": "getAllPlanets",
      "outputs": [
        {
          "components": [
            {
              "internalType": "uint256",
              "name": "tokenId",
              "type": "uint256"
            },
            {
              "internalType": "uint256",
              "name": "price",
              "type": "uint256"
            },
            {
              "internalType": "address",
              "name": "ownerAddress",
              "type": "address"
            },
            {
              "internalType": "bool",
              "name": "active",
              "type": "bool"
            }
          ],
          "internalType": "struct ListedPlanet[]",
          "name": "",
          "type": "tuple[]"
        }
      ],
      "stateMutability": "view",
      "type": "function"
    },
    {
      "inputs": [
        {
          "internalType": "address",
          "name": "userAddr",
          "type": "address"
        }
      ],
      "name": "getClaimablePlanetsFor",
      "outputs": [
        {
          "components": [
            {
              "internalType": "address",
              "name": "ownerParentAddress",
              "type": "address"
            },
            {
              "internalType": "uint256",
              "name": "ownerTokenId",
              "type": "uint256"
            },
            {
              "internalType": "bool",
              "name": "delivered",
              "type": "bool"
            },
            {
              "internalType": "bool",
              "name": "arrived",
              "type": "bool"
            },
            {
              "internalType": "address",
              "name": "otherParent",
              "type": "address"
            },
            {
              "internalType": "uint256",
              "name": "otherTokenId",
              "type": "uint256"
            },
            {
              "internalType": "uint256",
              "name": "claimsTokenId",
              "type": "uint256"
            }
          ],
          "internalType": "struct ClaimablePlanet[]",
          "name": "",
          "type": "tuple[]"
        }
      ],
      "stateMutability": "view",
      "type": "function"
    },
    {
      "inputs": [
        {
          "internalType": "uint256",
          "name": "claimableTokenId",
          "type": "uint256"
        }
      ],
      "name": "getClaimantTokenIdToOwnerAddress",
      "outputs": [
        {
          "internalType": "address",
          "name": "",
          "type": "address"
        }
      ],
      "stateMutability": "view",
      "type": "function"
    },
    {
      "inputs": [
        {
          "internalType": "uint256",
          "name": "startIndex",
          "type": "uint256"
        },
        {
          "internalType": "uint256",
          "name": "endIndex",
          "type": "uint256"
        }
      ],
      "name": "getPlanetsPaginated",
      "outputs": [
        {
          "components": [
            {
              "internalType": "uint256",
              "name": "tokenId",
              "type": "uint256"
            },
            {
              "internalType": "uint256",
              "name": "price",
              "type": "uint256"
            },
            {
              "internalType": "address",
              "name": "ownerAddress",
              "type": "address"
            },
            {
              "internalType": "bool",
              "name": "active",
              "type": "bool"
            }
          ],
          "internalType": "struct ListedPlanet[]",
          "name": "",
          "type": "tuple[]"
        }
      ],
      "stateMutability": "view",
      "type": "function"
    },
    {
      "inputs": [
        {
          "internalType": "address",
          "name": "userAddr",
          "type": "address"
        }
      ],
      "name": "getuserToListedPlanets",
      "outputs": [
        {
          "components": [
            {
              "internalType": "uint256",
              "name": "tokenId",
              "type": "uint256"
            },
            {
              "internalType": "uint256",
              "name": "price",
              "type": "uint256"
            },
            {
              "internalType": "address",
              "name": "ownerAddress",
              "type": "address"
            },
            {
              "internalType": "bool",
              "name": "active",
              "type": "bool"
            }
          ],
          "internalType": "struct ListedPlanet[]",
          "name": "",
          "type": "tuple[]"
        }
      ],
      "stateMutability": "view",
      "type": "function"
    },
    {
      "inputs": [
        {
          "internalType": "address",
          "name": "owner",
          "type": "address"
        },
        {
          "internalType": "uint256",
          "name": "tokenId",
          "type": "uint256"
        }
      ],
      "name": "hasPlanetArrived",
      "outputs": [
        {
          "internalType": "bool",
          "name": "arrived",
          "type": "bool"
        }
      ],
      "stateMutability": "view",
      "type": "function"
    },
    {
      "inputs": [
        {
          "internalType": "address",
          "name": "owner",
          "type": "address"
        },
        {
          "internalType": "uint256",
          "name": "tokenId",
          "type": "uint256"
        }
      ],
      "name": "hasPlanetBeenDelivered",
      "outputs": [
        {
          "internalType": "bool",
          "name": "delivered",
          "type": "bool"
        }
      ],
      "stateMutability": "view",
      "type": "function"
    },
    {
      "inputs": [
        {
          "internalType": "address",
          "name": "spender",
          "type": "address"
        },
        {
          "internalType": "uint256",
          "name": "addedValue",
          "type": "uint256"
        }
      ],
      "name": "increaseAllowance",
      "outputs": [
        {
          "internalType": "bool",
          "name": "",
          "type": "bool"
        }
      ],
      "stateMutability": "nonpayable",
      "type": "function"
    },
    {
      "inputs": [
        {
          "internalType": "address",
          "name": "initialOwner",
          "type": "address"
        }
      ],
      "name": "initialize",
      "outputs": [],
      "stateMutability": "nonpayable",
      "type": "function"
    },
    {
      "inputs": [],
      "name": "listAllYourPlanets",
      "outputs": [],
      "stateMutability": "nonpayable",
      "type": "function"
    },
    {
      "inputs": [],
      "name": "name",
      "outputs": [
        {
          "internalType": "string",
          "name": "",
          "type": "string"
        }
      ],
      "stateMutability": "view",
      "type": "function"
    },
    {
      "inputs": [
        {
          "internalType": "address",
          "name": "owner",
          "type": "address"
        }
      ],
      "name": "nonces",
      "outputs": [
        {
          "internalType": "uint256",
          "name": "",
          "type": "uint256"
        }
      ],
      "stateMutability": "view",
      "type": "function"
    },
    {
      "inputs": [
        {
          "internalType": "address",
          "name": "operator",
          "type": "address"
        },
        {
          "internalType": "address",
          "name": "from",
          "type": "address"
        },
        {
          "internalType": "uint256",
          "name": "tokenId",
          "type": "uint256"
        },
        {
          "internalType": "bytes",
          "name": "data",
          "type": "bytes"
        }
      ],
      "name": "onERC721Received",
      "outputs": [
        {
          "internalType": "bytes4",
          "name": "",
          "type": "bytes4"
        }
      ],
      "stateMutability": "nonpayable",
      "type": "function"
    },
    {
      "inputs": [],
      "name": "owner",
      "outputs": [
        {
          "internalType": "address",
          "name": "",
          "type": "address"
        }
      ],
      "stateMutability": "view",
      "type": "function"
    },
    {
      "inputs": [
        {
          "internalType": "uint256",
          "name": "claimableTokenId",
          "type": "uint256"
        },
        {
          "internalType": "address",
          "name": "sendToAddr",
          "type": "address"
        }
      ],
      "name": "ownerClaimPlanet",
      "outputs": [],
      "stateMutability": "nonpayable",
      "type": "function"
    },
    {
      "inputs": [
        {
          "internalType": "uint256",
          "name": "tokenId",
          "type": "uint256"
        },
        {
          "internalType": "address",
          "name": "destinationAddr",
          "type": "address"
        }
      ],
      "name": "ownerOverrideSendNFT",
      "outputs": [],
      "stateMutability": "nonpayable",
      "type": "function"
    },
    {
      "inputs": [],
      "name": "pause",
      "outputs": [],
      "stateMutability": "nonpayable",
      "type": "function"
    },
    {
      "inputs": [],
      "name": "paused",
      "outputs": [
        {
          "internalType": "bool",
          "name": "",
          "type": "bool"
        }
      ],
      "stateMutability": "view",
      "type": "function"
    },
    {
      "inputs": [
        {
          "internalType": "uint256",
          "name": "index",
          "type": "uint256"
        }
      ],
      "name": "payee",
      "outputs": [
        {
          "internalType": "address",
          "name": "",
          "type": "address"
        }
      ],
      "stateMutability": "view",
      "type": "function"
    },
    {
      "inputs": [
        {
          "internalType": "address",
          "name": "owner",
          "type": "address"
        },
        {
          "internalType": "address",
          "name": "spender",
          "type": "address"
        },
        {
          "internalType": "uint256",
          "name": "value",
          "type": "uint256"
        },
        {
          "internalType": "uint256",
          "name": "deadline",
          "type": "uint256"
        },
        {
          "internalType": "uint8",
          "name": "v",
          "type": "uint8"
        },
        {
          "internalType": "bytes32",
          "name": "r",
          "type": "bytes32"
        },
        {
          "internalType": "bytes32",
          "name": "s",
          "type": "bytes32"
        }
      ],
      "name": "permit",
      "outputs": [],
      "stateMutability": "nonpayable",
      "type": "function"
    },
    {
      "inputs": [],
      "name": "proxiableUUID",
      "outputs": [
        {
          "internalType": "bytes32",
          "name": "",
          "type": "bytes32"
        }
      ],
      "stateMutability": "view",
      "type": "function"
    },
    {
      "inputs": [
        {
          "internalType": "address",
          "name": "account",
          "type": "address"
        }
      ],
      "name": "releasable",
      "outputs": [
        {
          "internalType": "uint256",
          "name": "",
          "type": "uint256"
        }
      ],
      "stateMutability": "view",
      "type": "function"
    },
    {
      "inputs": [
        {
          "internalType": "contract IERC20Upgradeable",
          "name": "token",
          "type": "address"
        },
        {
          "internalType": "address",
          "name": "account",
          "type": "address"
        }
      ],
      "name": "releasable",
      "outputs": [
        {
          "internalType": "uint256",
          "name": "",
          "type": "uint256"
        }
      ],
      "stateMutability": "view",
      "type": "function"
    },
    {
      "inputs": [
        {
          "internalType": "address payable",
          "name": "account",
          "type": "address"
        }
      ],
      "name": "release",
      "outputs": [],
      "stateMutability": "nonpayable",
      "type": "function"
    },
    {
      "inputs": [
        {
          "internalType": "contract IERC20Upgradeable",
          "name": "token",
          "type": "address"
        },
        {
          "internalType": "address",
          "name": "account",
          "type": "address"
        }
      ],
      "name": "release",
      "outputs": [],
      "stateMutability": "nonpayable",
      "type": "function"
    },
    {
      "inputs": [
        {
          "internalType": "contract IERC20Upgradeable",
          "name": "token",
          "type": "address"
        },
        {
          "internalType": "address",
          "name": "account",
          "type": "address"
        }
      ],
      "name": "released",
      "outputs": [
        {
          "internalType": "uint256",
          "name": "",
          "type": "uint256"
        }
      ],
      "stateMutability": "view",
      "type": "function"
    },
    {
      "inputs": [
        {
          "internalType": "address",
          "name": "account",
          "type": "address"
        }
      ],
      "name": "released",
      "outputs": [
        {
          "internalType": "uint256",
          "name": "",
          "type": "uint256"
        }
      ],
      "stateMutability": "view",
      "type": "function"
    },
    {
      "inputs": [],
      "name": "renounceOwnership",
      "outputs": [],
      "stateMutability": "nonpayable",
      "type": "function"
    },
    {
      "inputs": [
        {
          "internalType": "address",
          "name": "_breederContractAddr",
          "type": "address"
        },
        {
          "internalType": "uint256",
          "name": "_vrfValue",
          "type": "uint256"
        },
        {
          "internalType": "address",
          "name": "_nftContractAddr",
          "type": "address"
        }
      ],
      "name": "setAllOf",
      "outputs": [],
      "stateMutability": "nonpayable",
      "type": "function"
    },
    {
      "inputs": [
        {
          "internalType": "uint256",
          "name": "_toThisPercentage",
          "type": "uint256"
        }
      ],
      "name": "setMktFee",
      "outputs": [],
      "stateMutability": "nonpayable",
      "type": "function"
    },
    {
      "inputs": [
        {
          "internalType": "address payable",
          "name": "newTAdd",
          "type": "address"
        }
      ],
      "name": "setTAdd",
      "outputs": [],
      "stateMutability": "nonpayable",
      "type": "function"
    },
    {
      "inputs": [
        {
          "internalType": "address",
          "name": "account",
          "type": "address"
        }
      ],
      "name": "shares",
      "outputs": [
        {
          "internalType": "uint256",
          "name": "",
          "type": "uint256"
        }
      ],
      "stateMutability": "view",
      "type": "function"
    },
    {
      "inputs": [],
      "name": "status",
      "outputs": [],
      "stateMutability": "nonpayable",
      "type": "function"
    },
    {
      "inputs": [],
      "name": "symbol",
      "outputs": [
        {
          "internalType": "string",
          "name": "",
          "type": "string"
        }
      ],
      "stateMutability": "view",
      "type": "function"
    },
    {
      "inputs": [
        {
          "internalType": "contract IERC20Upgradeable",
          "name": "token",
          "type": "address"
        }
      ],
      "name": "totalReleased",
      "outputs": [
        {
          "internalType": "uint256",
          "name": "",
          "type": "uint256"
        }
      ],
      "stateMutability": "view",
      "type": "function"
    },
    {
      "inputs": [],
      "name": "totalReleased",
      "outputs": [
        {
          "internalType": "uint256",
          "name": "",
          "type": "uint256"
        }
      ],
      "stateMutability": "view",
      "type": "function"
    },
    {
      "inputs": [],
      "name": "totalShares",
      "outputs": [
        {
          "internalType": "uint256",
          "name": "",
          "type": "uint256"
        }
      ],
      "stateMutability": "view",
      "type": "function"
    },
    {
      "inputs": [],
      "name": "totalSupply",
      "outputs": [
        {
          "internalType": "uint256",
          "name": "",
          "type": "uint256"
        }
      ],
      "stateMutability": "view",
      "type": "function"
    },
    {
      "inputs": [
        {
          "internalType": "address",
          "name": "to",
          "type": "address"
        },
        {
          "internalType": "uint256",
          "name": "amount",
          "type": "uint256"
        }
      ],
      "name": "transfer",
      "outputs": [
        {
          "internalType": "bool",
          "name": "",
          "type": "bool"
        }
      ],
      "stateMutability": "nonpayable",
      "type": "function"
    },
    {
      "inputs": [
        {
          "internalType": "address",
          "name": "from",
          "type": "address"
        },
        {
          "internalType": "address",
          "name": "to",
          "type": "address"
        },
        {
          "internalType": "uint256",
          "name": "amount",
          "type": "uint256"
        }
      ],
      "name": "transferFrom",
      "outputs": [
        {
          "internalType": "bool",
          "name": "",
          "type": "bool"
        }
      ],
      "stateMutability": "nonpayable",
      "type": "function"
    },
    {
      "inputs": [
        {
          "internalType": "address",
          "name": "newOwner",
          "type": "address"
        }
      ],
      "name": "transferOwnership",
      "outputs": [],
      "stateMutability": "nonpayable",
      "type": "function"
    },
    {
      "inputs": [],
      "name": "unpause",
      "outputs": [],
      "stateMutability": "nonpayable",
      "type": "function"
    },
    {
      "inputs": [
        {
          "internalType": "address",
          "name": "newImplementation",
          "type": "address"
        }
      ],
      "name": "upgradeTo",
      "outputs": [],
      "stateMutability": "nonpayable",
      "type": "function"
    },
    {
      "inputs": [
        {
          "internalType": "address",
          "name": "newImplementation",
          "type": "address"
        },
        {
          "internalType": "bytes",
          "name": "data",
          "type": "bytes"
        }
      ],
      "name": "upgradeToAndCall",
      "outputs": [],
      "stateMutability": "payable",
      "type": "function"
    },
    {
      "inputs": [
        {
          "internalType": "address",
          "name": "",
          "type": "address"
        },
        {
          "internalType": "uint256",
          "name": "",
          "type": "uint256"
        }
      ],
      "name": "userToListedPlanets",
      "outputs": [
        {
          "internalType": "uint256",
          "name": "tokenId",
          "type": "uint256"
        },
        {
          "internalType": "uint256",
          "name": "price",
          "type": "uint256"
        },
        {
          "internalType": "address",
          "name": "ownerAddress",
          "type": "address"
        },
        {
          "internalType": "bool",
          "name": "active",
          "type": "bool"
        }
      ],
      "stateMutability": "view",
      "type": "function"
    },
    {
      "inputs": [
        {
          "internalType": "address",
          "name": "userAddress",
          "type": "address"
        }
      ],
      "name": "usersClaims",
      "outputs": [
        {
          "components": [
            {
              "internalType": "address",
              "name": "ownerParentAddress",
              "type": "address"
            },
            {
              "internalType": "uint256",
              "name": "ownerTokenId",
              "type": "uint256"
            },
            {
              "internalType": "bool",
              "name": "delivered",
              "type": "bool"
            },
            {
              "internalType": "bool",
              "name": "arrived",
              "type": "bool"
            },
            {
              "internalType": "address",
              "name": "otherParent",
              "type": "address"
            },
            {
              "internalType": "uint256",
              "name": "otherTokenId",
              "type": "uint256"
            },
            {
              "internalType": "uint256",
              "name": "claimsTokenId",
              "type": "uint256"
            }
          ],
          "internalType": "struct ClaimablePlanet[]",
          "name": "",
          "type": "tuple[]"
        }
      ],
      "stateMutability": "view",
      "type": "function"
    },
    {
      "inputs": [],
      "name": "withdrawFunds",
      "outputs": [],
      "stateMutability": "nonpayable",
      "type": "function"
    },
    {
      "stateMutability": "payable",
      "type": "receive"
    }
  ],
  "bytecode": "0x60a06040523060805234801561001457600080fd5b5060805161528061004c600039600081816111e701528181611227015281816114fd0152818161153d015261176801526152806000f3fe6080604052600436106102f95760003560e01c80638230a78411610197578063cbdf1b5a116100e5578063cbdf1b5a146108e5578063cdb82a3714610905578063ce7c2ac214610925578063d505accf1461095c578063d79779b21461097c578063dbb774d81461099c578063dd22a9c7146109c9578063dd62ed3e146109e9578063e22aecb414610a09578063e33b7de314610a74578063ee6e3a2314610a8a578063f2fde38b14610aab578063f4c1494314610acb578063f837894714610aeb578063fdb4087514610b0b578063fde4976714610b2b578063fe7922291461099c57005b80638230a784146106d85780638456cb591461040157806384b0196e146106eb57806385fe7243146107135780638b83209b146107645780638da5cb5b1461078457806395d89b41146107995780639852595c146107ae578063a3f8eace146107ce578063a457c2d7146107ee578063a8e5e4aa1461080e578063a9059cbb1461082e578063bd83dc051461084e578063c45ac05014610885578063c4d66de8146108a5578063c7c0e6b1146108c557005b806306fdde0314610302578063095ea7b31461032d578063150b7a021461035d57806318160ddd1461039657806319165587146103b55780631ac9a91e146103d55780631dd320ea146103e1578063200d2ed21461040157806323b872dd1461041657806324600fc314610436578063259478181461044b578063313ce5671461047857806334ae54e9146104945780633644e515146104d85780633659cfe6146104ed578063395093511461050d5780633a7fb03d1461052d5780633a98ef391461054d5780633f4ba83a14610563578063406072a91461057857806348b75044146105985780634a02099b146105b85780634d950449146105d85780634f1ef286146105f857806350842cf3146103d55780635270ad6c1461060b57806352d1902d1461062b5780635c975abb146106405780636a23befb1461065857806370a082311461066d578063715018a6146106a35780637ecebe00146106b857005b3661030057005b005b34801561030e57600080fd5b50610317610b4b565b604051610324919061469f565b60405180910390f35b34801561033957600080fd5b5061034d6103483660046146c7565b610bdd565b6040519015158152602001610324565b34801561036957600080fd5b5061037d6103783660046147d1565b610bf7565b6040516001600160e01b03199091168152602001610324565b3480156103a257600080fd5b5060cb545b604051908152602001610324565b3480156103c157600080fd5b506103006103d036600461483c565b610e20565b34801561030057600080fd5b3480156103ed57600080fd5b5061034d6103fc3660046146c7565b610f0c565b34801561040d57600080fd5b50610300610fd1565b34801561042257600080fd5b5061034d610431366004614859565b610fe1565b34801561044257600080fd5b50610300611005565b34801561045757600080fd5b5061046b61046636600461489a565b611047565b60405161032491906148bc565b34801561048457600080fd5b5060405160128152602001610324565b3480156104a057600080fd5b506104cb6104af36600461492b565b6101cc602052600090815260409020546001600160a01b031681565b6040516103249190614944565b3480156104e457600080fd5b506103a76111ce565b3480156104f957600080fd5b5061030061050836600461483c565b6111dd565b34801561051957600080fd5b5061034d6105283660046146c7565b6112a5565b34801561053957600080fd5b50610300610548366004614958565b6112c7565b34801561055957600080fd5b50610162546103a7565b34801561056f57600080fd5b50610300611351565b34801561058457600080fd5b506103a7610593366004614988565b611361565b3480156105a457600080fd5b506103006105b3366004614988565b61138d565b3480156105c457600080fd5b506103006105d33660046149b6565b61149e565b3480156105e457600080fd5b506103006105f336600461492b565b6114e5565b6103006106063660046149f8565b6114f3565b34801561061757600080fd5b5061030061062636600461492b565b6115a8565b34801561063757600080fd5b506103a761175b565b34801561064c57600080fd5b5060335460ff1661034d565b34801561066457600080fd5b5061046b611809565b34801561067957600080fd5b506103a761068836600461483c565b6001600160a01b0316600090815260c9602052604090205490565b3480156106af57600080fd5b5061030061189f565b3480156106c457600080fd5b506103a76106d336600461483c565b6118b1565b6103006106e636600461489a565b6118d0565b3480156106f757600080fd5b506107006120f1565b6040516103249796959493929190614a47565b34801561071f57600080fd5b5061073361072e3660046146c7565b61218f565b604051610324949392919093845260208401929092526001600160a01b031660408301521515606082015260800190565b34801561077057600080fd5b506104cb61077f36600461492b565b6121e7565b34801561079057600080fd5b506104cb612218565b3480156107a557600080fd5b50610317612228565b3480156107ba57600080fd5b506103a76107c936600461483c565b612237565b3480156107da57600080fd5b506103a76107e936600461483c565b612253565b3480156107fa57600080fd5b5061034d6108093660046146c7565b612286565b34801561081a57600080fd5b50610300610829366004614859565b612301565b34801561083a57600080fd5b5061034d6108493660046146c7565b6123ba565b34801561085a57600080fd5b506104cb61086936600461492b565b60009081526101cc60205260409020546001600160a01b031690565b34801561089157600080fd5b506103a76108a0366004614988565b6123c8565b3480156108b157600080fd5b506103006108c036600461483c565b61245c565b3480156108d157600080fd5b506103006108e036600461492b565b612586565b3480156108f157600080fd5b5061030061090036600461489a565b61259c565b34801561091157600080fd5b5061030061092036600461483c565b612863565b34801561093157600080fd5b506103a761094036600461483c565b6001600160a01b03166000908152610164602052604090205490565b34801561096857600080fd5b50610300610977366004614ae0565b612896565b34801561098857600080fd5b506103a761099736600461483c565b6129fa565b3480156109a857600080fd5b506109bc6109b736600461483c565b612a16565b6040516103249190614b57565b3480156109d557600080fd5b5061034d6109e4366004614988565b612ae6565b3480156109f557600080fd5b506103a7610a04366004614988565b612b5e565b348015610a1557600080fd5b50610a29610a243660046146c7565b612b89565b604080516001600160a01b0398891681526020810197909752941515948601949094529115156060850152909316608083015260a082019290925260c081019190915260e001610324565b348015610a8057600080fd5b50610163546103a7565b348015610a9657600080fd5b506101c6546104cb906001600160a01b031681565b348015610ab757600080fd5b50610300610ac636600461483c565b612bfa565b348015610ad757600080fd5b5061034d610ae63660046146c7565b612c70565b348015610af757600080fd5b50610300610b06366004614988565b612d00565b348015610b1757600080fd5b50610300610b26366004614958565b612d77565b348015610b3757600080fd5b5061046b610b4636600461483c565b612db4565b606060cc8054610b5a90614bde565b80601f0160208091040260200160405190810160405280929190818152602001828054610b8690614bde565b8015610bd35780601f10610ba857610100808354040283529160200191610bd3565b820191906000526020600020905b815481529060010190602001808311610bb657829003601f168201915b5050505050905090565b600033610beb818585612e55565b60019150505b92915050565b6000808251118015610c1457506101c8546001600160a01b031633145b15610c6d57600082806020019051810190610c2f9190614c12565b9050610c3c848287612f79565b6000805160206151e483398151915286868686604051610c5f9493929190614c2b565b60405180910390a150610e0e565b6101c8546001600160a01b03163303610de2576101c85460405163dc9ce7a560e01b8152600481018590526000916001600160a01b03169063dc9ce7a590602401600060405180830381865afa158015610ccb573d6000803e3d6000fd5b505050506040513d6000823e601f3d908101601f19168201604052610cf39190810190614d15565b50905060008161012001519050600085905060006101cc600084600081518110610d1f57610d1f614e33565b6020026020010151815260200190815260200160002060009054906101000a90046001600160a01b0316905060006101cc600085600181518110610d6557610d65614e33565b60209081029190910181015182528181019290925260409081016000205481518083019092526001600160a01b03858116835216918101829052909150610dac81856130ed565b6000805160206151e48339815191528b8b8b8b604051610dcf9493929190614e49565b60405180910390a1505050505050610e0e565b6000805160206151e483398151915285858585604051610e059493929190614eab565b60405180910390a15b50630a85bd0160e11b5b949350505050565b6001600160a01b03811660009081526101646020526040902054610e5f5760405162461bcd60e51b8152600401610e5690614f10565b60405180910390fd5b6000610e6a82612253565b905080600003610e8c5760405162461bcd60e51b8152600401610e5690614f56565b806101636000828254610e9f9190614fb7565b90915550506001600160a01b038216600090815261016560205260409020805482019055610ecd82826133ed565b7fdf20fd1e76bc69d672e4814fafb2c449bba3a5369d8359adf9e05e6fde87b0568282604051610efe929190614fca565b60405180910390a15050565b565b6001600160a01b03821660009081526101cd60205260408120815b8154811015610f955783828281548110610f4357610f43614e33565b90600052602060002090600502016004015403610f8d57818181548110610f6c57610f6c614e33565b600091825260209091206002600590920201015460ff169250610bf1915050565b600101610f27565b5060405162461bcd60e51b815260206004820152601060248201526f141b185b995d081b9bdd08199bdd5b9960821b6044820152606401610e56565b610fd9613503565b610f0a613562565b600033610fef8582856135b6565b610ffa85858561362a565b506001949350505050565b61100d613503565b6110156137d5565b604051339081904780156108fc02916000818181858888f19350505050158015611043573d6000803e3d6000fd5b5050565b60608282116110885760405162461bcd60e51b815260206004820152600d60248201526c092dcecc2d8d2c840d2dcc8caf609b1b6044820152606401610e56565b6101cb548211156110ab5760405162461bcd60e51b8152600401610e5690614fe3565b60006110b78484615010565b6001600160401b038111156110ce576110ce6146f3565b60405190808252806020026020018201604052801561112057816020015b6040805160808101825260008082526020808301829052928201819052606082015282526000199092019101816110ec5790505b509050835b838110156111c6576101cb818154811061114157611141614e33565b600091825260209182902060408051608081018252600393909302909101805483526001810154938301939093526002909201546001600160a01b03811692820192909252600160a01b90910460ff1615156060820152826111a38784615010565b815181106111b3576111b3614e33565b6020908102919091010152600101611125565b509392505050565b60006111d861381b565b905090565b6001600160a01b037f00000000000000000000000000000000000000000000000000000000000000001630036112255760405162461bcd60e51b8152600401610e5690615023565b7f00000000000000000000000000000000000000000000000000000000000000006001600160a01b0316611257613825565b6001600160a01b03161461127d5760405162461bcd60e51b8152600401610e569061506f565b61128681613841565b604080516000808252602082019092526112a291839190613849565b50565b600033610beb8185856112b88383612b5e565b6112c29190614fb7565b612e55565b6112cf613503565b6112d76137d5565b60008281526101cc60205260409020546001600160a01b03166112fa83826139b4565b5061130483613a29565b6101c8546040517ffbabfabc293b9daf3d9f8a42d485f10715027db90fd73abbe4ae4b4424decd04916113449185916001600160a01b03169087906150bb565b60405180910390a1505050565b611359613503565b610f0a613ac9565b6001600160a01b0391821660009081526101686020908152604080832093909416825291909152205490565b6001600160a01b038116600090815261016460205260409020546113c35760405162461bcd60e51b8152600401610e5690614f10565b60006113cf83836123c8565b9050806000036113f15760405162461bcd60e51b8152600401610e5690614f56565b6001600160a01b038316600090815261016760205260408120805483929061141a908490614fb7565b90915550506001600160a01b03808416600090815261016860209081526040808320938616835292905220805482019055611456838383613b02565b826001600160a01b03167f3be5b7a71e84ed12875d241991c70855ac5817d847039e17a9d895c1ceb0f18a8383604051611491929190614fca565b60405180910390a2505050565b6114a6613503565b6114ae6137d5565b6101c9919091556101c680546001600160a01b039384166001600160a01b0319918216179091556101c88054929093169116179055565b6114ed613503565b6101ce55565b6001600160a01b037f000000000000000000000000000000000000000000000000000000000000000016300361153b5760405162461bcd60e51b8152600401610e5690615023565b7f00000000000000000000000000000000000000000000000000000000000000006001600160a01b031661156d613825565b6001600160a01b0316146115935760405162461bcd60e51b8152600401610e569061506f565b61159c82613841565b61104382826001613849565b6115b06137d5565b60008181526101cc602052604090205433906001600160a01b0316808214611647576115db81613b58565b6115e482613b58565b60405162461bcd60e51b815260206004820152603260248201527f636c61696d206d7573742062652066726f6d20636c61696d616e7473206164646044820152713932b9b99696903234b9b0b63637bbb2b21760711b6064820152608401610e56565b61167f604051806040016040528060178152602001761696a7232a16969021ba34b216103a3432b7103ab9b2b960491b815250613b9b565b61168883613bde565b61169182613b58565b600061169d84846139b4565b9050806117045760405162461bcd60e51b815260206004820152602f60248201527f4661696c656420746f2073656e64204e46542e20436865636b20436c61696d6160448201526e1b9d08151bdad95b9259081cd95b9d608a1b6064820152608401610e56565b61170d84613a29565b6101c8546040517ffbabfabc293b9daf3d9f8a42d485f10715027db90fd73abbe4ae4b4424decd049161174d9186916001600160a01b03169088906150bb565b60405180910390a150505050565b6000306001600160a01b037f000000000000000000000000000000000000000000000000000000000000000016146117f65760405162461bcd60e51b815260206004820152603860248201527f555550535570677261646561626c653a206d757374206e6f742062652063616c6044820152771b1959081d1a1c9bdd59da0819195b1959d85d1958d85b1b60421b6064820152608401610e56565b5060008051602061520483398151915290565b60606101cb805480602002602001604051908101604052809291908181526020016000905b82821015611896576000848152602090819020604080516080810182526003860290920180548352600180820154848601526002909101546001600160a01b03811692840192909252600160a01b90910460ff1615156060830152908352909201910161182e565b50505050905090565b6118a7613503565b610f0a6000613c23565b6001600160a01b038116600090815261012f6020526040812054610bf1565b6118d86137d5565b8082036119335760405162461bcd60e51b815260206004820152602360248201527f4173657875616c20726570726f64756374696f6e206973206e6f7420616c6c6f6044820152621dd95960ea1b6064820152608401610e56565b600061193e82613c76565b6101c8546040516331a9108f60e11b8152600481018690529192506000916001600160a01b0390911690636352211e90602401602060405180830381865afa15801561198e573d6000803e3d6000fd5b505050506040513d601f19601f820116820180604052508101906119b291906150df565b90506001600160a01b0381163014611a3c5760405162461bcd60e51b815260206004820152604160248201527f596f75206e65656420746f206c6973742f6465706f7369742074686520706c6160448201527f6e657420796f752061726520747279696e6720746f20627265656420776974686064820152601760f91b608482015260a401610e56565b60008060005b6101cb54811015611ae957866101cb8281548110611a6257611a62614e33565b90600052602060002090600302016000015403611ae1576101cb8181548110611a8d57611a8d614e33565b906000526020600020906003020160020160009054906101000a90046001600160a01b031692506101cb8181548110611ac857611ac8614e33565b9060005260206000209060030201600001549150611ae9565b600101611a42565b506001600160a01b0382163314611b5d5760405162461bcd60e51b815260206004820152603260248201527f596f7520646f206e6f74206f776e2074686520706c616e657420796f7520617260448201527132903a393cb4b733903a3790313932b2b21760711b6064820152608401610e56565b600060646101ce5486611b7091906150fc565b611b7a9190615113565b905080856101c954611b8c9190614fb7565b611b969190614fb7565b341015611c055760405162461bcd60e51b815260206004820152603760248201527f496e73756666696369656e742066756e647320746f20636f766572205652462060448201527631b7b9ba1030b73210383934b1b29030b732103332b29760491b6064820152608401610e56565b33600080805b6101cb54811015611cb257896101cb8281548110611c2b57611c2b614e33565b90600052602060002090600302016000015403611caa576101cb8181548110611c5657611c56614e33565b906000526020600020906003020160020160009054906101000a90046001600160a01b031692506101cb8181548110611c9157611c91614e33565b9060005260206000209060030201600001549150611cb2565b600101611c0b565b506706f05b59d3b20000471015611d295760405162461bcd60e51b815260206004820152603560248201527f436f6e74726163742068617320496e73756666696369656e742062616c616e63604482015274652c20636f6e74616374206861746368657220687160581b6064820152608401610e56565b6040516000906001600160a01b038416908a156108fc02908b9084818181858888f19350505050905080611d965760405162461bcd60e51b81526020600482015260146024820152732330b4b632b2103a379039b2b7321022ba3432b960611b6044820152606401610e56565b6101c6546101c954604051634e9e6a0760e01b8152600481018e9052602481018d9052600060448201526001600160a01b0390921691634e9e6a07919060640160206040518083038185885af1158015611df4573d6000803e3d6000fd5b50505050506040513d601f19601f82011682018060405250810190611e199190614c12565b5060006040518060e00160405280866001600160a01b031681526020018d8152602001600015158152602001600015158152602001856001600160a01b03168152602001848152602001600081525090506101cd6000866001600160a01b03166001600160a01b0316815260200190815260200160002081908060018154018082558091505060019003906000526020600020906005020160009091909190915060008201518160000160006101000a8154816001600160a01b0302191690836001600160a01b031602179055506020820151816001015560408201518160020160006101000a81548160ff02191690831515021790555060608201518160020160016101000a81548160ff02191690831515021790555060808201518160020160026101000a8154816001600160a01b0302191690836001600160a01b0316021790555060a0820151816003015560c082015181600401555050846101cc60008e815260200190815260200160002060006101000a8154816001600160a01b0302191690836001600160a01b03160217905550858a6101c954611fbd9190614fb7565b611fc79190614fb7565b341115612093576000336001600160a01b0316878c6101c95434611feb9190615010565b611ff59190615010565b611fff9190615010565b604051600081818185875af1925050503d806000811461203b576040519150601f19603f3d011682016040523d82523d6000602084013e612040565b606091505b50509050806120915760405162461bcd60e51b815260206004820152601d60248201527f4661696c656420746f20726566756e64206578636573732045746865720000006044820152606401610e56565b505b604080518d81526001600160a01b0387811660208301528183018e90528616606082015290517f8557df6951fbdd47fe9027516fc896be40f285ed55a6acac460352adbab730cd9181900360800190a1505050505050505050505050565b60006060806000806000606060fb546000801b148015612111575060fc54155b6121555760405162461bcd60e51b81526020600482015260156024820152741152540dcc4c8e88155b9a5b9a5d1a585b1a5e9959605a1b6044820152606401610e56565b61215d613d17565b612165613d26565b60408051600080825260208201909252600f60f81b9b939a50919850469750309650945092509050565b6101ca60205281600052604060002081815481106121ac57600080fd5b60009182526020909120600390910201805460018201546002909201549093509091506001600160a01b03811690600160a01b900460ff1684565b600061016682815481106121fd576121fd614e33565b6000918252602090912001546001600160a01b031692915050565b610194546001600160a01b031690565b606060cd8054610b5a90614bde565b6001600160a01b03166000908152610165602052604090205490565b6000806122606101635490565b61226a9047614fb7565b905061227f838261227a86612237565b613d35565b9392505050565b600033816122948286612b5e565b9050838110156122f45760405162461bcd60e51b815260206004820152602560248201527f45524332303a2064656372656173656420616c6c6f77616e63652062656c6f77604482015264207a65726f60d81b6064820152608401610e56565b610ffa8286868403612e55565b60405163095ea7b360e01b81526001600160a01b0384169063095ea7b39061232f9085908590600401614fca565b6020604051808303816000875af115801561234e573d6000803e3d6000fd5b505050506040513d601f19601f820116820180604052508101906123729190615135565b6123b55760405162461bcd60e51b8152602060048201526014602482015273115490cc8c08185c1c1c9bdd994819985a5b195960621b6044820152606401610e56565b505050565b600033610beb81858561362a565b6000806123d4846129fa565b6040516370a0823160e01b81526001600160a01b038616906370a0823190612400903090600401614944565b602060405180830381865afa15801561241d573d6000803e3d6000fd5b505050506040513d601f19601f820116820180604052508101906124419190614c12565b61244b9190614fb7565b9050610e18838261227a8787611361565b600054610100900460ff161580801561247c5750600054600160ff909116105b8061249d575061248b30613d75565b15801561249d575060005460ff166001145b6125005760405162461bcd60e51b815260206004820152602e60248201527f496e697469616c697a61626c653a20636f6e747261637420697320616c72656160448201526d191e481a5b9a5d1a585b1a5e995960921b6064820152608401610e56565b6000805460ff191660011790558015612523576000805461ff0019166101001790555b61252b613d84565b612533613db3565b61253b613de2565b61254482612bfa565b8015611043576000805461ff0019169055604051600181527f7f26b83ff96e1f2b6a682f133852f6798a09c465da95921460cefb384740249890602001610efe565b61258e613503565b6125966137d5565b6101c955565b6125a46137d5565b6101cb5482106125c65760405162461bcd60e51b8152600401610e5690614fe3565b600033905060006101cb84815481106125e1576125e1614e33565b6000918252602091829020604080516080810182526003909302909101805483526001810154938301939093526002909201546001600160a01b03811692820183905260ff600160a01b90910416151560608201529150331461264357600080fd5b6040518060800160405280826000015181526020016000815260200182604001516001600160a01b03168152602001600015158152506101cb858154811061268d5761268d614e33565b60009182526020808320845160039093020191825583810151600180840191909155604080860151600290940180546060909701511515600160a01b026001600160a81b03199097166001600160a01b0390951694909417959095179092553383526101ca90529190208054909161270491615010565b8154811061271457612714614e33565b90600052602060002090600302016101ca6000336001600160a01b03166001600160a01b03168152602001908152602001600020858154811061275957612759614e33565b60009182526020808320845460039093020191825560018085015490830155600293840180549490920180546001600160a01b031981166001600160a01b039096169586178255925460ff600160a01b91829004161515026001600160a81b0319909316909417919091179092553381526101ca909152604090208054806127e3576127e3615150565b600082815260208120600360001990930192830201818155600181019190915560020180546001600160a81b0319169055905561282083836139b4565b506101c85481516040517f0ece05e698e9e143fb75b2ad0aba7f141238c27b6d3e9728898183ee0d68498b9261174d9286926001600160a01b03909216916150bb565b61286b613503565b6128736137d5565b6101c780546001600160a01b0319166001600160a01b0392909216919091179055565b834211156128e65760405162461bcd60e51b815260206004820152601d60248201527f45524332305065726d69743a206578706972656420646561646c696e650000006044820152606401610e56565b60007f6e71edae12b1b97f4d1f60370fef10105fa2faae0126114a169c64845d6126c98888886129158c613e09565b6040805160208101969096526001600160a01b0394851690860152929091166060840152608083015260a082015260c0810186905260e001604051602081830303815290604052805190602001209050600061297082613e30565b9050600061298082878787613e5d565b9050896001600160a01b0316816001600160a01b0316146129e35760405162461bcd60e51b815260206004820152601e60248201527f45524332305065726d69743a20696e76616c6964207369676e617475726500006044820152606401610e56565b6129ee8a8a8a612e55565b50505050505050505050565b6001600160a01b03166000908152610167602052604090205490565b6001600160a01b03811660009081526101cd60209081526040808320805482518185028101850190935280835260609492939192909184015b82821015612adb5760008481526020908190206040805160e0810182526005860290920180546001600160a01b03908116845260018083015485870152600283015460ff80821615159587019590955261010081049094161515606086015262010000909304166080840152600381015460a08401526004015460c08301529083529092019101612a4f565b505050509050919050565b6101c85460405163e985e9c560e01b81526001600160a01b0384811660048301528381166024830152600092169063e985e9c590604401602060405180830381865afa158015612b3a573d6000803e3d6000fd5b505050506040513d601f19601f8201168201806040525081019061227f9190615135565b6001600160a01b03918216600090815260ca6020908152604080832093909416825291909152205490565b6101cd6020528160005260406000208181548110612ba657600080fd5b6000918252602090912060059091020180546001820154600283015460038401546004909401546001600160a01b03938416965091945060ff80821694610100830490911693620100009092049091169187565b612c02613503565b6001600160a01b038116612c675760405162461bcd60e51b815260206004820152602660248201527f4f776e61626c653a206e6577206f776e657220697320746865207a65726f206160448201526564647265737360d01b6064820152608401610e56565b6112a281613c23565b6001600160a01b03821660009081526101cd60205260408120815b8154811015610f955783828281548110612ca757612ca7614e33565b90600052602060002090600502016004015403612cf857818181548110612cd057612cd0614e33565b906000526020600020906005020160020160019054906101000a900460ff1692505050610bf1565b600101612c8b565b612d08613503565b612d106137d5565b60405163a22cb46560e01b81526001600160a01b0382811660048301526001602483015283169063a22cb465906044015b600060405180830381600087803b158015612d5b57600080fd5b505af1158015612d6f573d6000803e3d6000fd5b505050505050565b612d7f613503565b6101c8546040516323b872dd60e01b81526001600160a01b03909116906323b872dd90612d41903090859087906004016150bb565b6001600160a01b03811660009081526101ca60209081526040808320805482518185028101850190935280835260609492939192909184015b82821015612adb576000848152602090819020604080516080810182526003860290920180548352600180820154848601526002909101546001600160a01b03811692840192909252600160a01b90910460ff16151560608301529083529092019101612ded565b6001600160a01b038316612eb75760405162461bcd60e51b8152602060048201526024808201527f45524332303a20617070726f76652066726f6d20746865207a65726f206164646044820152637265737360e01b6064820152608401610e56565b6001600160a01b038216612f185760405162461bcd60e51b815260206004820152602260248201527f45524332303a20617070726f766520746f20746865207a65726f206164647265604482015261737360f01b6064820152608401610e56565b6001600160a01b03838116600081815260ca602090815260408083209487168084529482529182902085905590518481527f8c5be1e5ebec7d5bd14f71427d1e84f3dd0314c0f7b2291e5b200ac8c7c3b925910160405180910390a3505050565b604080516080808201835285825260208083018681526001600160a01b03868116858701818152600160608089018281526101cb8054808501825560009182528b5160039182027fe8bbfecd380c4167d6a1f763a233ec73e73f534b1970c4e1683f437ec23c1f4481019190915589517fe8bbfecd380c4167d6a1f763a233ec73e73f534b1970c4e1683f437ec23c1f4582015586517fe8bbfecd380c4167d6a1f763a233ec73e73f534b1970c4e1683f437ec23c1f46909101805485511515600160a01b9081026001600160a81b0319928316948d1694909417939093179091559783526101ca8b528d832080548088018255908452928b90208d5193909202909101918255975193810193909355925160029092018054935115159096029290931690841617179092556101c854865133815291169281019290925293810187905292830185905290917fb30319a217488a3ed441c348e935a48d16091e33109bab0c79a353b979752883910161174d565b81516020808401516001600160a01b03831660009081526101cd909252604090912054156132445760005b6001600160a01b03831660009081526101cd602052604090205481101561323e576001600160a01b0383811660009081526101cd602052604090208054918416918390811061316957613169614e33565b60009182526020909120600590910201600201546201000090046001600160a01b031603613236576001600160a01b03831660009081526101cd60205260409020805460019190839081106131c0576131c0614e33565b906000526020600020906005020160020160016101000a81548160ff021916908315150217905550836101cd6000856001600160a01b03166001600160a01b03168152602001908152602001600020828154811061322057613220614e33565b9060005260206000209060050201600401819055505b600101613118565b506133e7565b6020808501516001600160a01b031660009081526101cd9091526040902054156133915760005b6001600160a01b03821660009081526101cd602052604090205481101561323e576001600160a01b0382811660009081526101cd60205260409020805491851691839081106132bc576132bc614e33565b60009182526020909120600590910201600201546201000090046001600160a01b031603613389576001600160a01b03821660009081526101cd602052604090208054600191908390811061331357613313614e33565b906000526020600020906005020160020160016101000a81548160ff021916908315150217905550836101cd6000846001600160a01b03166001600160a01b03168152602001908152602001600020828154811061337357613373614e33565b9060005260206000209060050201600401819055505b60010161326b565b60405162461bcd60e51b815260206004820152602560248201527f706c616e65742073656e7420657272616e746c792c206e6f206f6e6520746f20604482015264636c61696d60d81b6064820152608401610e56565b50505050565b8047101561343d5760405162461bcd60e51b815260206004820152601d60248201527f416464726573733a20696e73756666696369656e742062616c616e63650000006044820152606401610e56565b6000826001600160a01b03168260405160006040518083038185875af1925050503d806000811461348a576040519150601f19603f3d011682016040523d82523d6000602084013e61348f565b606091505b50509050806123b55760405162461bcd60e51b815260206004820152603a60248201527f416464726573733a20756e61626c6520746f2073656e642076616c75652c20726044820152791958da5c1a595b9d081b585e481a185d99481c995d995c9d195960321b6064820152608401610e56565b3361350c612218565b6001600160a01b031614610f0a5760405162461bcd60e51b815260206004820181905260248201527f4f776e61626c653a2063616c6c6572206973206e6f7420746865206f776e65726044820152606401610e56565b61356a6137d5565b6033805460ff191660011790557f62e78cea01bee320cd4e420270b5ea74000d11b0c9f74754ebdbfc544b05a25861359f3390565b6040516135ac9190614944565b60405180910390a1565b60006135c28484612b5e565b905060001981146133e7578181101561361d5760405162461bcd60e51b815260206004820152601d60248201527f45524332303a20696e73756666696369656e7420616c6c6f77616e63650000006044820152606401610e56565b6133e78484848403612e55565b6001600160a01b03831661368e5760405162461bcd60e51b815260206004820152602560248201527f45524332303a207472616e736665722066726f6d20746865207a65726f206164604482015264647265737360d81b6064820152608401610e56565b6001600160a01b0382166136f05760405162461bcd60e51b815260206004820152602360248201527f45524332303a207472616e7366657220746f20746865207a65726f206164647260448201526265737360e81b6064820152608401610e56565b6001600160a01b038316600090815260c96020526040902054818110156137685760405162461bcd60e51b815260206004820152602660248201527f45524332303a207472616e7366657220616d6f756e7420657863656564732062604482015265616c616e636560d01b6064820152608401610e56565b6001600160a01b03808516600081815260c9602052604080822086860390559286168082529083902080548601905591517fddf252ad1be2c89b69c2b068fc378daa952ba7f163c4a11628f55a4df523b3ef906137c89086815260200190565b60405180910390a36133e7565b60335460ff1615610f0a5760405162461bcd60e51b815260206004820152601060248201526f14185d5cd8589b194e881c185d5cd95960821b6044820152606401610e56565b60006111d8613e85565b600080516020615204833981519152546001600160a01b031690565b6112a2613503565b7f4910fdfa16fed3260ed0e7147f7cc6da11a60208b5b9406d12a635614ffd91435460ff161561387c576123b583613ef9565b826001600160a01b03166352d1902d6040518163ffffffff1660e01b8152600401602060405180830381865afa9250505080156138d6575060408051601f3d908101601f191682019092526138d391810190614c12565b60015b6139395760405162461bcd60e51b815260206004820152602e60248201527f45524331393637557067726164653a206e657720696d706c656d656e7461746960448201526d6f6e206973206e6f74205555505360901b6064820152608401610e56565b60008051602061520483398151915281146139a85760405162461bcd60e51b815260206004820152602960248201527f45524331393637557067726164653a20756e737570706f727465642070726f786044820152681a58589b195555525160ba1b6064820152608401610e56565b506123b5838383613f93565b6101c854604051632142170760e11b81526000916001600160a01b0316906342842e0e906139ea903090869088906004016150bb565b600060405180830381600087803b158015613a0457600080fd5b505af1925050508015613a15575060015b613a2157506000610bf1565b506001610bf1565b60008181526101cc60209081526040808320546001600160a01b03168084526101cd909252822090915b81548110156133e75783828281548110613a6f57613a6f614e33565b90600052602060002090600502016004015403613ac1576001828281548110613a9a57613a9a614e33565b60009182526020909120600590910201600201805460ff19169115159190911790556133e7565b600101613a53565b613ad1613fb8565b6033805460ff191690557f5db9ee0a495bf2e6ff9c91a7834c1ba4fdd244a5e8aa4e537bd38aeae4b073aa3361359f565b6123b58363a9059cbb60e01b8484604051602401613b21929190614fca565b60408051601f198184030181529190526020810180516001600160e01b03166001600160e01b031990931692909217909152614001565b6112a281604051602401613b6c9190614944565b60408051601f198184030181529190526020810180516001600160e01b031663161765e160e11b1790526140d6565b6112a281604051602401613baf919061469f565b60408051601f198184030181529190526020810180516001600160e01b031663104c13eb60e21b1790526140d6565b6112a281604051602401613bf491815260200190565b60408051601f198184030181529190526020810180516001600160e01b031663f82c50f160e01b1790526140d6565b61019480546001600160a01b038381166001600160a01b0319831681179093556040519116919082907f8be0079c531659141344cd1fd0a4f28419497f9722a3daafe3b4186f6b6457e090600090a35050565b6000613c806137d5565b60005b6101cb54811015613d1057826101cb8281548110613ca357613ca3614e33565b90600052602060002090600302016000015403613ce8576101cb8181548110613cce57613cce614e33565b906000526020600020906003020160010154915050919050565b6101cb54613cf890600190615010565b8103613d08575060001992915050565b600101613c83565b505b919050565b606060fd8054610b5a90614bde565b606060fe8054610b5a90614bde565b610162546001600160a01b0384166000908152610164602052604081205490918391613d6190866150fc565b613d6b9190615113565b610e189190615010565b6001600160a01b03163b151590565b600054610100900460ff16613dab5760405162461bcd60e51b8152600401610e5690615166565b610f0a6140df565b600054610100900460ff16613dda5760405162461bcd60e51b8152600401610e5690615166565b610f0a61410f565b600054610100900460ff16610f0a5760405162461bcd60e51b8152600401610e5690615166565b6001600160a01b038116600090815261012f60205260409020805460018101825590613d10565b6000610bf1613e3d61381b565b8360405161190160f01b8152600281019290925260228201526042902090565b6000806000613e6e87878787614142565b91509150613e7b816141fc565b5095945050505050565b60007f8b73c3c69bb8fe3d512ecc4cf759cc79239f7b179b0ffacaa9a75d522b39400f613eb0614341565b613eb861439a565b60408051602081019490945283019190915260608201524660808201523060a082015260c00160405160208183030381529060405280519060200120905090565b613f0281613d75565b613f645760405162461bcd60e51b815260206004820152602d60248201527f455243313936373a206e657720696d706c656d656e746174696f6e206973206e60448201526c1bdd08184818dbdb9d1c9858dd609a1b6064820152608401610e56565b60008051602061520483398151915280546001600160a01b0319166001600160a01b0392909216919091179055565b613f9c836143cb565b600082511180613fa95750805b156123b5576133e7838361440b565b60335460ff16610f0a5760405162461bcd60e51b815260206004820152601460248201527314185d5cd8589b194e881b9bdd081c185d5cd95960621b6044820152606401610e56565b6000614056826040518060400160405280602081526020017f5361666545524332303a206c6f772d6c6576656c2063616c6c206661696c6564815250856001600160a01b03166144309092919063ffffffff16565b90508051600014806140775750808060200190518101906140779190615135565b6123b55760405162461bcd60e51b815260206004820152602a60248201527f5361666545524332303a204552433230206f7065726174696f6e20646964206e6044820152691bdd081cdd58d8d9595960b21b6064820152608401610e56565b6112a28161443f565b600054610100900460ff166141065760405162461bcd60e51b8152600401610e5690615166565b610f0a33613c23565b600054610100900460ff166141365760405162461bcd60e51b8152600401610e5690615166565b6033805460ff19169055565b6000806fa2a8918ca85bafe22016d0b997e4df60600160ff1b0383111561416f57506000905060036141f3565b6040805160008082526020820180845289905260ff881692820192909252606081018690526080810185905260019060a0016020604051602081039080840390855afa1580156141c3573d6000803e3d6000fd5b5050604051601f1901519150506001600160a01b0381166141ec576000600192509250506141f3565b9150600090505b94509492505050565b6000816004811115614210576142106151b1565b036142185750565b600181600481111561422c5761422c6151b1565b036142745760405162461bcd60e51b815260206004820152601860248201527745434453413a20696e76616c6964207369676e617475726560401b6044820152606401610e56565b6002816004811115614288576142886151b1565b036142d55760405162461bcd60e51b815260206004820152601f60248201527f45434453413a20696e76616c6964207369676e6174757265206c656e677468006044820152606401610e56565b60038160048111156142e9576142e96151b1565b036112a25760405162461bcd60e51b815260206004820152602260248201527f45434453413a20696e76616c6964207369676e6174757265202773272076616c604482015261756560f01b6064820152608401610e56565b60008061434c613d17565b805190915015614363578051602090910120919050565b60fb5480156143725792915050565b7fc5d2460186f7233c927e7db2dcc703c0e500b653ca82273b7bfad8045d85a4709250505090565b6000806143a5613d26565b8051909150156143bc578051602090910120919050565b60fc5480156143725792915050565b6143d481613ef9565b6040516001600160a01b038216907fbc7cd75a20ee27fd9adebab32041f755214dbc6bffa90cc0225b39da2e5c2d3b90600090a250565b606061227f838360405180606001604052806027815260200161522460279139614460565b6060610e1884846000856144d8565b60006a636f6e736f6c652e6c6f679050600080835160208501845afa505050565b6060600080856001600160a01b03168560405161447d91906151c7565b600060405180830381855af49150503d80600081146144b8576040519150601f19603f3d011682016040523d82523d6000602084013e6144bd565b606091505b50915091506144ce868383876145b3565b9695505050505050565b6060824710156145395760405162461bcd60e51b815260206004820152602660248201527f416464726573733a20696e73756666696369656e742062616c616e636520666f6044820152651c8818d85b1b60d21b6064820152608401610e56565b600080866001600160a01b0316858760405161455591906151c7565b60006040518083038185875af1925050503d8060008114614592576040519150601f19603f3d011682016040523d82523d6000602084013e614597565b606091505b50915091506145a8878383876145b3565b979650505050505050565b60608315614620578251600003614619576145cd85613d75565b6146195760405162461bcd60e51b815260206004820152601d60248201527f416464726573733a2063616c6c20746f206e6f6e2d636f6e74726163740000006044820152606401610e56565b5081610e18565b610e1883838151156146355781518083602001fd5b8060405162461bcd60e51b8152600401610e56919061469f565b60005b8381101561466a578181015183820152602001614652565b50506000910152565b6000815180845261468b81602086016020860161464f565b601f01601f19169290920160200192915050565b60208152600061227f6020830184614673565b6001600160a01b03811681146112a257600080fd5b600080604083850312156146da57600080fd5b82356146e5816146b2565b946020939093013593505050565b634e487b7160e01b600052604160045260246000fd5b60405161016081016001600160401b038111828210171561472c5761472c6146f3565b60405290565b604051601f8201601f191681016001600160401b038111828210171561475a5761475a6146f3565b604052919050565b600082601f83011261477357600080fd5b81356001600160401b0381111561478c5761478c6146f3565b61479f601f8201601f1916602001614732565b8181528460208386010111156147b457600080fd5b816020850160208301376000918101602001919091529392505050565b600080600080608085870312156147e757600080fd5b84356147f2816146b2565b93506020850135614802816146b2565b92506040850135915060608501356001600160401b0381111561482457600080fd5b61483087828801614762565b91505092959194509250565b60006020828403121561484e57600080fd5b813561227f816146b2565b60008060006060848603121561486e57600080fd5b8335614879816146b2565b92506020840135614889816146b2565b929592945050506040919091013590565b600080604083850312156148ad57600080fd5b50508035926020909101359150565b602080825282518282018190526000919060409081850190868401855b8281101561491e578151805185528681015187860152858101516001600160a01b031686860152606090810151151590850152608090930192908501906001016148d9565b5091979650505050505050565b60006020828403121561493d57600080fd5b5035919050565b6001600160a01b0391909116815260200190565b6000806040838503121561496b57600080fd5b82359150602083013561497d816146b2565b809150509250929050565b6000806040838503121561499b57600080fd5b82356149a6816146b2565b9150602083013561497d816146b2565b6000806000606084860312156149cb57600080fd5b83356149d6816146b2565b92506020840135915060408401356149ed816146b2565b809150509250925092565b60008060408385031215614a0b57600080fd5b8235614a16816146b2565b915060208301356001600160401b03811115614a3157600080fd5b614a3d85828601614762565b9150509250929050565b60ff60f81b881681526000602060e06020840152614a6860e084018a614673565b8381036040850152614a7a818a614673565b606085018990526001600160a01b038816608086015260a0850187905284810360c08601528551808252602080880193509091019060005b81811015614ace57835183529284019291840191600101614ab2565b50909c9b505050505050505050505050565b600080600080600080600060e0888a031215614afb57600080fd5b8735614b06816146b2565b96506020880135614b16816146b2565b95506040880135945060608801359350608088013560ff81168114614b3a57600080fd5b9699959850939692959460a0840135945060c09093013592915050565b602080825282518282018190526000919060409081850190868401855b8281101561491e57815180516001600160a01b0390811686528782015188870152868201511515878701526060808301511515908701526080808301519091169086015260a0808201519086015260c0908101519085015260e09093019290850190600101614b74565b600181811c90821680614bf257607f821691505b602082108103613d1057634e487b7160e01b600052602260045260246000fd5b600060208284031215614c2457600080fd5b5051919050565b6001600160a01b038581168252841660208201526040810183905260a060608201819052600090614c5e90830184614673565b8281036080840152600e81526d1b1a5cdd1a5b99c81c1b185b995d60921b60208201526040810191505095945050505050565b600082601f830112614ca257600080fd5b815160206001600160401b03821115614cbd57614cbd6146f3565b8160051b614ccc828201614732565b9283528481018201928281019087851115614ce657600080fd5b83870192505b848310156145a857825182529183019190830190614cec565b80518015158114613d1257600080fd5b60008060408385031215614d2857600080fd5b82516001600160401b0380821115614d3f57600080fd5b908401906101608287031215614d5457600080fd5b614d5c614709565b825181526020830151602082015260408301516040820152606083015160608201526080830151608082015260a083015160a082015260c083015160c082015260e083015160e08201526101008084015183811115614dba57600080fd5b614dc689828701614c91565b8284015250506101208084015183811115614de057600080fd5b614dec89828701614c91565b8284015250506101408084015183811115614e0657600080fd5b614e1289828701614c91565b828401525050809450505050614e2a60208401614d05565b90509250929050565b634e487b7160e01b600052603260045260246000fd5b6001600160a01b038581168252841660208201526040810183905260a060608201819052600090614e7c90830184614673565b8281036080840152600a8152691b995dc81c1b185b995d60b21b60208201526040810191505095945050505050565b6001600160a01b038581168252841660208201526040810183905260a060608201819052600090614ede90830184614673565b8281036080840152600d81526c1d5b98d85d1959dbdc9a5e9959609a1b60208201526040810191505095945050505050565b60208082526026908201527f5061796d656e7453706c69747465723a206163636f756e7420686173206e6f2060408201526573686172657360d01b606082015260800190565b6020808252602b908201527f5061796d656e7453706c69747465723a206163636f756e74206973206e6f742060408201526a191d59481c185e5b595b9d60aa1b606082015260800190565b634e487b7160e01b600052601160045260246000fd5b80820180821115610bf157610bf1614fa1565b6001600160a01b03929092168252602082015260400190565b602080825260139082015272496e646578206f7574206f6620626f756e647360681b604082015260600190565b81810381811115610bf157610bf1614fa1565b6020808252602c908201527f46756e6374696f6e206d7573742062652063616c6c6564207468726f7567682060408201526b19195b1959d85d1958d85b1b60a21b606082015260800190565b6020808252602c908201527f46756e6374696f6e206d7573742062652063616c6c6564207468726f7567682060408201526b6163746976652070726f787960a01b606082015260800190565b6001600160a01b039384168152919092166020820152604081019190915260600190565b6000602082840312156150f157600080fd5b815161227f816146b2565b8082028115828204841417610bf157610bf1614fa1565b60008261513057634e487b7160e01b600052601260045260246000fd5b500490565b60006020828403121561514757600080fd5b61227f82614d05565b634e487b7160e01b600052603160045260246000fd5b6020808252602b908201527f496e697469616c697a61626c653a20636f6e7472616374206973206e6f74206960408201526a6e697469616c697a696e6760a81b606082015260800190565b634e487b7160e01b600052602160045260246000fd5b600082516151d981846020870161464f565b919091019291505056fe13c6ec2a463a35f898a457814a782f1f567808293fa783a31fa4dac8868e6011360894a13ba1a3210667c828492db98dca3e2076cc3735a920a3ca505d382bbc416464726573733a206c6f772d6c6576656c2064656c65676174652063616c6c206661696c6564a26469706673582212209782c2416d6dc7ed7a88890fb312e067127f45ce5317b109da880fe53e0edce764736f6c63430008180033",
  "linkReferences": {},
  "deployedLinkReferences": {}
}