{
  "_format": "hh-sol-artifact-1",
  "contractName": "HatcherV2",
  "sourceName": "contracts/HatcherV2.sol",
  "abi": [
    {
      "inputs": [],
      "name": "Unauthorized",
      "type": "error"
    },
    {
      "anonymous": false,
      "inputs": [
        {
          "indexed": false,
          "internalType": "address",
          "name": "previousAdmin",
          "type": "address"
        },
        {
          "indexed": false,
          "internalType": "address",
          "name": "newAdmin",
          "type": "address"
        }
      ],
      "name": "AdminChanged",
      "type": "event"
    },
    {
      "anonymous": false,
      "inputs": [
        {
          "indexed": true,
          "internalType": "address",
          "name": "owner",
          "type": "address"
        },
        {
          "indexed": true,
          "internalType": "address",
          "name": "spender",
          "type": "address"
        },
        {
          "indexed": false,
          "internalType": "uint256",
          "name": "value",
          "type": "uint256"
        }
      ],
      "name": "Approval",
      "type": "event"
    },
    {
      "anonymous": false,
      "inputs": [
        {
          "indexed": true,
          "internalType": "address",
          "name": "beacon",
          "type": "address"
        }
      ],
      "name": "BeaconUpgraded",
      "type": "event"
    },
    {
      "anonymous": false,
      "inputs": [
        {
          "indexed": false,
          "internalType": "address",
          "name": "sentToUser",
          "type": "address"
        },
        {
          "indexed": false,
          "internalType": "address",
          "name": "token",
          "type": "address"
        },
        {
          "indexed": false,
          "internalType": "uint256",
          "name": "tokenId",
          "type": "uint256"
        }
      ],
      "name": "DeListedAPlanet",
      "type": "event"
    },
    {
      "anonymous": false,
      "inputs": [],
      "name": "EIP712DomainChanged",
      "type": "event"
    },
    {
      "anonymous": false,
      "inputs": [
        {
          "indexed": true,
          "internalType": "contract IERC20Upgradeable",
          "name": "token",
          "type": "address"
        },
        {
          "indexed": false,
          "internalType": "address",
          "name": "to",
          "type": "address"
        },
        {
          "indexed": false,
          "internalType": "uint256",
          "name": "amount",
          "type": "uint256"
        }
      ],
      "name": "ERC20PaymentReleased",
      "type": "event"
    },
    {
      "anonymous": false,
      "inputs": [
        {
          "indexed": false,
          "internalType": "uint8",
          "name": "version",
          "type": "uint8"
        }
      ],
      "name": "Initialized",
      "type": "event"
    },
    {
      "anonymous": false,
      "inputs": [
        {
          "indexed": false,
          "internalType": "address",
          "name": "sentFromUser",
          "type": "address"
        },
        {
          "indexed": false,
          "internalType": "address",
          "name": "token",
          "type": "address"
        },
        {
          "indexed": false,
          "internalType": "uint256",
          "name": "tokenId",
          "type": "uint256"
        },
        {
          "indexed": false,
          "internalType": "uint256",
          "name": "price",
          "type": "uint256"
        }
      ],
      "name": "ListedAPlanet",
      "type": "event"
    },
    {
      "anonymous": false,
      "inputs": [
        {
          "indexed": false,
          "internalType": "address",
          "name": "operator",
          "type": "address"
        },
        {
          "indexed": false,
          "internalType": "address",
          "name": "from",
          "type": "address"
        },
        {
          "indexed": false,
          "internalType": "uint256",
          "name": "tokenId",
          "type": "uint256"
        },
        {
          "indexed": false,
          "internalType": "bytes",
          "name": "data",
          "type": "bytes"
        },
        {
          "indexed": false,
          "internalType": "string",
          "name": "typeOfReceival",
          "type": "string"
        }
      ],
      "name": "NftReceived",
      "type": "event"
    },
    {
      "anonymous": false,
      "inputs": [
        {
          "indexed": true,
          "internalType": "address",
          "name": "previousOwner",
          "type": "address"
        },
        {
          "indexed": true,
          "internalType": "address",
          "name": "newOwner",
          "type": "address"
        }
      ],
      "name": "OwnershipTransferred",
      "type": "event"
    },
    {
      "anonymous": false,
      "inputs": [
        {
          "indexed": false,
          "internalType": "address",
          "name": "account",
          "type": "address"
        }
      ],
      "name": "Paused",
      "type": "event"
    },
    {
      "anonymous": false,
      "inputs": [
        {
          "indexed": false,
          "internalType": "address",
          "name": "account",
          "type": "address"
        },
        {
          "indexed": false,
          "internalType": "uint256",
          "name": "shares",
          "type": "uint256"
        }
      ],
      "name": "PayeeAdded",
      "type": "event"
    },
    {
      "anonymous": false,
      "inputs": [
        {
          "indexed": false,
          "internalType": "address",
          "name": "from",
          "type": "address"
        },
        {
          "indexed": false,
          "internalType": "uint256",
          "name": "amount",
          "type": "uint256"
        }
      ],
      "name": "PaymentReceived",
      "type": "event"
    },
    {
      "anonymous": false,
      "inputs": [
        {
          "indexed": false,
          "internalType": "address",
          "name": "to",
          "type": "address"
        },
        {
          "indexed": false,
          "internalType": "uint256",
          "name": "amount",
          "type": "uint256"
        }
      ],
      "name": "PaymentReleased",
      "type": "event"
    },
    {
      "anonymous": false,
      "inputs": [
        {
          "indexed": false,
          "internalType": "uint256",
          "name": "planetAsking",
          "type": "uint256"
        },
        {
          "indexed": false,
          "internalType": "address",
          "name": "askingUser",
          "type": "address"
        },
        {
          "indexed": false,
          "internalType": "uint256",
          "name": "planetJoining",
          "type": "uint256"
        },
        {
          "indexed": false,
          "internalType": "address",
          "name": "joiningUser",
          "type": "address"
        }
      ],
      "name": "PlanetsConjoining",
      "type": "event"
    },
    {
      "anonymous": false,
      "inputs": [
        {
          "indexed": true,
          "internalType": "address",
          "name": "from",
          "type": "address"
        },
        {
          "indexed": true,
          "internalType": "address",
          "name": "to",
          "type": "address"
        },
        {
          "indexed": false,
          "internalType": "uint256",
          "name": "value",
          "type": "uint256"
        }
      ],
      "name": "Transfer",
      "type": "event"
    },
    {
      "anonymous": false,
      "inputs": [
        {
          "indexed": false,
          "internalType": "address",
          "name": "account",
          "type": "address"
        }
      ],
      "name": "Unpaused",
      "type": "event"
    },
    {
      "anonymous": false,
      "inputs": [
        {
          "indexed": true,
          "internalType": "address",
          "name": "implementation",
          "type": "address"
        }
      ],
      "name": "Upgraded",
      "type": "event"
    },
    {
      "inputs": [],
      "name": "DOMAIN_SEPARATOR",
      "outputs": [
        {
          "internalType": "bytes32",
          "name": "",
          "type": "bytes32"
        }
      ],
      "stateMutability": "view",
      "type": "function"
    },
    {
      "inputs": [
        {
          "internalType": "address",
          "name": "owner",
          "type": "address"
        },
        {
          "internalType": "address",
          "name": "spender",
          "type": "address"
        }
      ],
      "name": "allowance",
      "outputs": [
        {
          "internalType": "uint256",
          "name": "",
          "type": "uint256"
        }
      ],
      "stateMutability": "view",
      "type": "function"
    },
    {
      "inputs": [
        {
          "internalType": "address",
          "name": "spender",
          "type": "address"
        },
        {
          "internalType": "uint256",
          "name": "amount",
          "type": "uint256"
        }
      ],
      "name": "approve",
      "outputs": [
        {
          "internalType": "bool",
          "name": "",
          "type": "bool"
        }
      ],
      "stateMutability": "nonpayable",
      "type": "function"
    },
    {
      "inputs": [
        {
          "internalType": "address",
          "name": "operator",
          "type": "address"
        },
        {
          "internalType": "bool",
          "name": "approved",
          "type": "bool"
        }
      ],
      "name": "approveForAllAsOwner",
      "outputs": [],
      "stateMutability": "nonpayable",
      "type": "function"
    },
    {
      "inputs": [
        {
          "internalType": "address",
          "name": "account",
          "type": "address"
        }
      ],
      "name": "balanceOf",
      "outputs": [
        {
          "internalType": "uint256",
          "name": "",
          "type": "uint256"
        }
      ],
      "stateMutability": "view",
      "type": "function"
    },
    {
      "inputs": [
        {
          "internalType": "uint256",
          "name": "newVRF",
          "type": "uint256"
        }
      ],
      "name": "changeVRFValue",
      "outputs": [],
      "stateMutability": "nonpayable",
      "type": "function"
    },
    {
      "inputs": [
        {
          "internalType": "address",
          "name": "owner",
          "type": "address"
        },
        {
          "internalType": "address",
          "name": "operator",
          "type": "address"
        }
      ],
      "name": "checkApprovalForAll",
      "outputs": [
        {
          "internalType": "bool",
          "name": "",
          "type": "bool"
        }
      ],
      "stateMutability": "view",
      "type": "function"
    },
    {
      "inputs": [
        {
          "internalType": "address",
          "name": "",
          "type": "address"
        },
        {
          "internalType": "uint256",
          "name": "",
          "type": "uint256"
        }
      ],
      "name": "claimablePlanets",
      "outputs": [
        {
          "internalType": "address",
          "name": "ownerParentAddress",
          "type": "address"
        },
        {
          "internalType": "uint256",
          "name": "ownerTokenId",
          "type": "uint256"
        },
        {
          "internalType": "bool",
          "name": "delivered",
          "type": "bool"
        },
        {
          "internalType": "address",
          "name": "otherParent",
          "type": "address"
        },
        {
          "internalType": "uint256",
          "name": "otherTokenId",
          "type": "uint256"
        }
      ],
      "stateMutability": "view",
      "type": "function"
    },
    {
      "inputs": [
        {
          "internalType": "uint256",
          "name": "",
          "type": "uint256"
        }
      ],
      "name": "claimableTokenIdToOwnerAddress",
      "outputs": [
        {
          "internalType": "address",
          "name": "",
          "type": "address"
        }
      ],
      "stateMutability": "view",
      "type": "function"
    },
    {
      "inputs": [
        {
          "internalType": "uint256",
          "name": "yourPlanet",
          "type": "uint256"
        },
        {
          "internalType": "uint256",
          "name": "withListedPlanet",
          "type": "uint256"
        }
      ],
      "name": "conjunct",
      "outputs": [],
      "stateMutability": "payable",
      "type": "function"
    },
    {
      "inputs": [
        {
          "internalType": "uint256",
          "name": "idIndex",
          "type": "uint256"
        },
        {
          "internalType": "uint256",
          "name": "tokenId",
          "type": "uint256"
        }
      ],
      "name": "deList",
      "outputs": [],
      "stateMutability": "nonpayable",
      "type": "function"
    },
    {
      "inputs": [],
      "name": "deListAllYourPlanets",
      "outputs": [],
      "stateMutability": "nonpayable",
      "type": "function"
    },
    {
      "inputs": [],
      "name": "decimals",
      "outputs": [
        {
          "internalType": "uint8",
          "name": "",
          "type": "uint8"
        }
      ],
      "stateMutability": "view",
      "type": "function"
    },
    {
      "inputs": [
        {
          "internalType": "address",
          "name": "spender",
          "type": "address"
        },
        {
          "internalType": "uint256",
          "name": "subtractedValue",
          "type": "uint256"
        }
      ],
      "name": "decreaseAllowance",
      "outputs": [
        {
          "internalType": "bool",
          "name": "",
          "type": "bool"
        }
      ],
      "stateMutability": "nonpayable",
      "type": "function"
    },
    {
      "inputs": [],
      "name": "eip712Domain",
      "outputs": [
        {
          "internalType": "bytes1",
          "name": "fields",
          "type": "bytes1"
        },
        {
          "internalType": "string",
          "name": "name",
          "type": "string"
        },
        {
          "internalType": "string",
          "name": "version",
          "type": "string"
        },
        {
          "internalType": "uint256",
          "name": "chainId",
          "type": "uint256"
        },
        {
          "internalType": "address",
          "name": "verifyingContract",
          "type": "address"
        },
        {
          "internalType": "bytes32",
          "name": "salt",
          "type": "bytes32"
        },
        {
          "internalType": "uint256[]",
          "name": "extensions",
          "type": "uint256[]"
        }
      ],
      "stateMutability": "view",
      "type": "function"
    },
    {
      "inputs": [],
      "name": "getAllPlanets",
      "outputs": [
        {
          "components": [
            {
              "internalType": "uint256",
              "name": "planet",
              "type": "uint256"
            },
            {
              "internalType": "uint256",
              "name": "price",
              "type": "uint256"
            },
            {
              "internalType": "address",
              "name": "ownerAddress",
              "type": "address"
            }
          ],
          "internalType": "struct ListedPlanet[]",
          "name": "",
          "type": "tuple[]"
        }
      ],
      "stateMutability": "view",
      "type": "function"
    },
    {
      "inputs": [
        {
          "internalType": "uint256",
          "name": "startIndex",
          "type": "uint256"
        },
        {
          "internalType": "uint256",
          "name": "endIndex",
          "type": "uint256"
        }
      ],
      "name": "getPlanetsPaginated",
      "outputs": [
        {
          "components": [
            {
              "internalType": "uint256",
              "name": "planet",
              "type": "uint256"
            },
            {
              "internalType": "uint256",
              "name": "price",
              "type": "uint256"
            },
            {
              "internalType": "address",
              "name": "ownerAddress",
              "type": "address"
            }
          ],
          "internalType": "struct ListedPlanet[]",
          "name": "",
          "type": "tuple[]"
        }
      ],
      "stateMutability": "view",
      "type": "function"
    },
    {
      "inputs": [
        {
          "internalType": "address",
          "name": "spender",
          "type": "address"
        },
        {
          "internalType": "uint256",
          "name": "addedValue",
          "type": "uint256"
        }
      ],
      "name": "increaseAllowance",
      "outputs": [
        {
          "internalType": "bool",
          "name": "",
          "type": "bool"
        }
      ],
      "stateMutability": "nonpayable",
      "type": "function"
    },
    {
      "inputs": [],
      "name": "initialize",
      "outputs": [],
      "stateMutability": "nonpayable",
      "type": "function"
    },
    {
      "inputs": [],
      "name": "listAllYourPlanets",
      "outputs": [],
      "stateMutability": "nonpayable",
      "type": "function"
    },
    {
      "inputs": [],
      "name": "name",
      "outputs": [
        {
          "internalType": "string",
          "name": "",
          "type": "string"
        }
      ],
      "stateMutability": "view",
      "type": "function"
    },
    {
      "inputs": [
        {
          "internalType": "address",
          "name": "owner",
          "type": "address"
        }
      ],
      "name": "nonces",
      "outputs": [
        {
          "internalType": "uint256",
          "name": "",
          "type": "uint256"
        }
      ],
      "stateMutability": "view",
      "type": "function"
    },
    {
      "inputs": [
        {
          "internalType": "address",
          "name": "operator",
          "type": "address"
        },
        {
          "internalType": "address",
          "name": "from",
          "type": "address"
        },
        {
          "internalType": "uint256",
          "name": "tokenId",
          "type": "uint256"
        },
        {
          "internalType": "bytes",
          "name": "data",
          "type": "bytes"
        }
      ],
      "name": "onERC721Received",
      "outputs": [
        {
          "internalType": "bytes4",
          "name": "",
          "type": "bytes4"
        }
      ],
      "stateMutability": "nonpayable",
      "type": "function"
    },
    {
      "inputs": [],
      "name": "owner",
      "outputs": [
        {
          "internalType": "address",
          "name": "",
          "type": "address"
        }
      ],
      "stateMutability": "view",
      "type": "function"
    },
    {
      "inputs": [
        {
          "internalType": "uint256",
          "name": "tokenId",
          "type": "uint256"
        },
        {
          "internalType": "address",
          "name": "destinationAddr",
          "type": "address"
        }
      ],
      "name": "ownerOverrideSendNFT",
      "outputs": [],
      "stateMutability": "nonpayable",
      "type": "function"
    },
    {
      "inputs": [],
      "name": "pause",
      "outputs": [],
      "stateMutability": "nonpayable",
      "type": "function"
    },
    {
      "inputs": [],
      "name": "paused",
      "outputs": [
        {
          "internalType": "bool",
          "name": "",
          "type": "bool"
        }
      ],
      "stateMutability": "view",
      "type": "function"
    },
    {
      "inputs": [
        {
          "internalType": "uint256",
          "name": "index",
          "type": "uint256"
        }
      ],
      "name": "payee",
      "outputs": [
        {
          "internalType": "address",
          "name": "",
          "type": "address"
        }
      ],
      "stateMutability": "view",
      "type": "function"
    },
    {
      "inputs": [
        {
          "internalType": "address",
          "name": "owner",
          "type": "address"
        },
        {
          "internalType": "address",
          "name": "spender",
          "type": "address"
        },
        {
          "internalType": "uint256",
          "name": "value",
          "type": "uint256"
        },
        {
          "internalType": "uint256",
          "name": "deadline",
          "type": "uint256"
        },
        {
          "internalType": "uint8",
          "name": "v",
          "type": "uint8"
        },
        {
          "internalType": "bytes32",
          "name": "r",
          "type": "bytes32"
        },
        {
          "internalType": "bytes32",
          "name": "s",
          "type": "bytes32"
        }
      ],
      "name": "permit",
      "outputs": [],
      "stateMutability": "nonpayable",
      "type": "function"
    },
    {
      "inputs": [],
      "name": "proxiableUUID",
      "outputs": [
        {
          "internalType": "bytes32",
          "name": "",
          "type": "bytes32"
        }
      ],
      "stateMutability": "view",
      "type": "function"
    },
    {
      "inputs": [
        {
          "internalType": "address",
          "name": "account",
          "type": "address"
        }
      ],
      "name": "releasable",
      "outputs": [
        {
          "internalType": "uint256",
          "name": "",
          "type": "uint256"
        }
      ],
      "stateMutability": "view",
      "type": "function"
    },
    {
      "inputs": [
        {
          "internalType": "contract IERC20Upgradeable",
          "name": "token",
          "type": "address"
        },
        {
          "internalType": "address",
          "name": "account",
          "type": "address"
        }
      ],
      "name": "releasable",
      "outputs": [
        {
          "internalType": "uint256",
          "name": "",
          "type": "uint256"
        }
      ],
      "stateMutability": "view",
      "type": "function"
    },
    {
      "inputs": [
        {
          "internalType": "address payable",
          "name": "account",
          "type": "address"
        }
      ],
      "name": "release",
      "outputs": [],
      "stateMutability": "nonpayable",
      "type": "function"
    },
    {
      "inputs": [
        {
          "internalType": "contract IERC20Upgradeable",
          "name": "token",
          "type": "address"
        },
        {
          "internalType": "address",
          "name": "account",
          "type": "address"
        }
      ],
      "name": "release",
      "outputs": [],
      "stateMutability": "nonpayable",
      "type": "function"
    },
    {
      "inputs": [
        {
          "internalType": "contract IERC20Upgradeable",
          "name": "token",
          "type": "address"
        },
        {
          "internalType": "address",
          "name": "account",
          "type": "address"
        }
      ],
      "name": "released",
      "outputs": [
        {
          "internalType": "uint256",
          "name": "",
          "type": "uint256"
        }
      ],
      "stateMutability": "view",
      "type": "function"
    },
    {
      "inputs": [
        {
          "internalType": "address",
          "name": "account",
          "type": "address"
        }
      ],
      "name": "released",
      "outputs": [
        {
          "internalType": "uint256",
          "name": "",
          "type": "uint256"
        }
      ],
      "stateMutability": "view",
      "type": "function"
    },
    {
      "inputs": [],
      "name": "renounceOwnership",
      "outputs": [],
      "stateMutability": "nonpayable",
      "type": "function"
    },
    {
      "inputs": [
        {
          "internalType": "address",
          "name": "_breederContractAddr",
          "type": "address"
        },
        {
          "internalType": "uint256",
          "name": "_vrfValue",
          "type": "uint256"
        },
        {
          "internalType": "address",
          "name": "_nftContractAddr",
          "type": "address"
        }
      ],
      "name": "setAllOf",
      "outputs": [],
      "stateMutability": "nonpayable",
      "type": "function"
    },
    {
      "inputs": [
        {
          "internalType": "address payable",
          "name": "newTAdd",
          "type": "address"
        }
      ],
      "name": "setTAdd",
      "outputs": [],
      "stateMutability": "nonpayable",
      "type": "function"
    },
    {
      "inputs": [
        {
          "internalType": "address",
          "name": "account",
          "type": "address"
        }
      ],
      "name": "shares",
      "outputs": [
        {
          "internalType": "uint256",
          "name": "",
          "type": "uint256"
        }
      ],
      "stateMutability": "view",
      "type": "function"
    },
    {
      "inputs": [],
      "name": "status",
      "outputs": [],
      "stateMutability": "nonpayable",
      "type": "function"
    },
    {
      "inputs": [],
      "name": "symbol",
      "outputs": [
        {
          "internalType": "string",
          "name": "",
          "type": "string"
        }
      ],
      "stateMutability": "view",
      "type": "function"
    },
    {
      "inputs": [
        {
          "internalType": "contract IERC20Upgradeable",
          "name": "token",
          "type": "address"
        }
      ],
      "name": "totalReleased",
      "outputs": [
        {
          "internalType": "uint256",
          "name": "",
          "type": "uint256"
        }
      ],
      "stateMutability": "view",
      "type": "function"
    },
    {
      "inputs": [],
      "name": "totalReleased",
      "outputs": [
        {
          "internalType": "uint256",
          "name": "",
          "type": "uint256"
        }
      ],
      "stateMutability": "view",
      "type": "function"
    },
    {
      "inputs": [],
      "name": "totalShares",
      "outputs": [
        {
          "internalType": "uint256",
          "name": "",
          "type": "uint256"
        }
      ],
      "stateMutability": "view",
      "type": "function"
    },
    {
      "inputs": [],
      "name": "totalSupply",
      "outputs": [
        {
          "internalType": "uint256",
          "name": "",
          "type": "uint256"
        }
      ],
      "stateMutability": "view",
      "type": "function"
    },
    {
      "inputs": [
        {
          "internalType": "address",
          "name": "to",
          "type": "address"
        },
        {
          "internalType": "uint256",
          "name": "amount",
          "type": "uint256"
        }
      ],
      "name": "transfer",
      "outputs": [
        {
          "internalType": "bool",
          "name": "",
          "type": "bool"
        }
      ],
      "stateMutability": "nonpayable",
      "type": "function"
    },
    {
      "inputs": [
        {
          "internalType": "address",
          "name": "from",
          "type": "address"
        },
        {
          "internalType": "address",
          "name": "to",
          "type": "address"
        },
        {
          "internalType": "uint256",
          "name": "amount",
          "type": "uint256"
        }
      ],
      "name": "transferFrom",
      "outputs": [
        {
          "internalType": "bool",
          "name": "",
          "type": "bool"
        }
      ],
      "stateMutability": "nonpayable",
      "type": "function"
    },
    {
      "inputs": [
        {
          "internalType": "address",
          "name": "newOwner",
          "type": "address"
        }
      ],
      "name": "transferOwnership",
      "outputs": [],
      "stateMutability": "nonpayable",
      "type": "function"
    },
    {
      "inputs": [],
      "name": "unpause",
      "outputs": [],
      "stateMutability": "nonpayable",
      "type": "function"
    },
    {
      "inputs": [
        {
          "internalType": "address",
          "name": "newImplementation",
          "type": "address"
        }
      ],
      "name": "upgradeTo",
      "outputs": [],
      "stateMutability": "nonpayable",
      "type": "function"
    },
    {
      "inputs": [
        {
          "internalType": "address",
          "name": "newImplementation",
          "type": "address"
        },
        {
          "internalType": "bytes",
          "name": "data",
          "type": "bytes"
        }
      ],
      "name": "upgradeToAndCall",
      "outputs": [],
      "stateMutability": "payable",
      "type": "function"
    },
    {
      "inputs": [
        {
          "internalType": "address",
          "name": "",
          "type": "address"
        },
        {
          "internalType": "uint256",
          "name": "",
          "type": "uint256"
        }
      ],
      "name": "userToListedPlanets",
      "outputs": [
        {
          "internalType": "uint256",
          "name": "planet",
          "type": "uint256"
        },
        {
          "internalType": "uint256",
          "name": "price",
          "type": "uint256"
        },
        {
          "internalType": "address",
          "name": "ownerAddress",
          "type": "address"
        }
      ],
      "stateMutability": "view",
      "type": "function"
    },
    {
      "inputs": [],
      "name": "withdrawFunds",
      "outputs": [],
      "stateMutability": "nonpayable",
      "type": "function"
    },
    {
      "stateMutability": "payable",
      "type": "receive"
    }
  ],
  "bytecode": "0x60a06040523060805234801561001457600080fd5b5060805161479361004c6000396000818161121401528181611299015281816115bc01528181611641015261172701526147936000f3fe6080604052600436106103595760003560e01c80637ecebe00116101bb578063c45ac050116100f7578063d79779b211610095578063e22aecb41161006f578063e22aecb414610a58578063e33b7de314610ab3578063f2fde38b14610ac9578063fdb4087514610ae957600080fd5b8063d79779b2146109bb578063dd22a9c7146109f2578063dd62ed3e14610a1257600080fd5b8063cdb82a37116100d1578063cdb82a3714610924578063ce7c2ac214610944578063d28eb2dc1461097b578063d505accf1461099b57600080fd5b8063c45ac050146108c4578063c7c0e6b1146108e4578063cbdf1b5a1461090457600080fd5b80638b83209b116101645780639852595c1161013e5780639852595c1461082d578063a3f8eace14610864578063a457c2d714610884578063a9059cbb146108a457600080fd5b80638b83209b146107d95780638da5cb5b146107f957806395d89b411461081857600080fd5b80638456cb59116101955780638456cb59146104eb57806384b0196e1461076d57806385fe72431461079557600080fd5b80637ecebe00146107255780638129fc1c146107455780638230a7841461075a57600080fd5b80633659cfe6116102955780634f1ef286116102335780635c975abb1161020d5780635c975abb146106ad5780636a23befb146106c557806370a08231146106da578063715018a61461071057600080fd5b80634f1ef2861461068557806350842cf3146104df57806352d1902d1461069857600080fd5b80633f4ba83a1161026f5780633f4ba83a146105e9578063406072a9146105fe57806348b75044146106455780634a02099b1461066557600080fd5b80633659cfe61461059357806339509351146105b35780633a98ef39146105d357600080fd5b80631ac9a91e1161030257806324600fc3116102dc57806324600fc3146105205780632594781814610535578063313ce567146105625780633644e5151461057e57600080fd5b80631ac9a91e146104df578063200d2ed2146104eb57806323b872dd1461050057600080fd5b8063150b7a0211610333578063150b7a021461044d57806318160ddd1461049e57806319165587146104bd57600080fd5b8063064db874146103a757806306fdde03146103fb578063095ea7b31461041d57600080fd5b366103a2577f6ef95f06320e7a25a04a175ca677b7052bdd97131872c2192525a629f51be77033604080516001600160a01b0390921682523460208301520160405180910390a1005b600080fd5b3480156103b357600080fd5b506103de6103c2366004613dd0565b6101cc602052600090815260409020546001600160a01b031681565b6040516001600160a01b0390911681526020015b60405180910390f35b34801561040757600080fd5b50610410610b09565b6040516103f29190613e39565b34801561042957600080fd5b5061043d610438366004613e61565b610b9b565b60405190151581526020016103f2565b34801561045957600080fd5b5061046d610468366004613f6e565b610bb5565b6040517fffffffff0000000000000000000000000000000000000000000000000000000090911681526020016103f2565b3480156104aa57600080fd5b5060cb545b6040519081526020016103f2565b3480156104c957600080fd5b506104dd6104d8366004613fda565b610e51565b005b3480156104dd57600080fd5b3480156104f757600080fd5b506104dd610fc5565b34801561050c57600080fd5b5061043d61051b366004613ff7565b610fd5565b34801561052c57600080fd5b506104dd610ff9565b34801561054157600080fd5b50610555610550366004614038565b61103b565b6040516103f2919061405a565b34801561056e57600080fd5b50604051601281526020016103f2565b34801561058a57600080fd5b506104af6111fb565b34801561059f57600080fd5b506104dd6105ae366004613fda565b61120a565b3480156105bf57600080fd5b5061043d6105ce366004613e61565b611385565b3480156105df57600080fd5b50610162546104af565b3480156105f557600080fd5b506104dd6113c4565b34801561060a57600080fd5b506104af6106193660046140bc565b6001600160a01b0391821660009081526101686020908152604080832093909416825291909152205490565b34801561065157600080fd5b506104dd6106603660046140bc565b6113d4565b34801561067157600080fd5b506104dd6106803660046140f5565b61156b565b6104dd610693366004614137565b6115b2565b3480156106a457600080fd5b506104af61171a565b3480156106b957600080fd5b5060335460ff1661043d565b3480156106d157600080fd5b506105556117df565b3480156106e657600080fd5b506104af6106f5366004613fda565b6001600160a01b0316600090815260c9602052604090205490565b34801561071c57600080fd5b506104dd611862565b34801561073157600080fd5b506104af610740366004613fda565b611874565b34801561075157600080fd5b506104dd611893565b6104dd610768366004614038565b6119c2565b34801561077957600080fd5b50610782611cdd565b6040516103f29796959493929190614187565b3480156107a157600080fd5b506107b56107b0366004613e61565b611d9f565b6040805193845260208401929092526001600160a01b0316908201526060016103f2565b3480156107e557600080fd5b506103de6107f4366004613dd0565b611deb565b34801561080557600080fd5b50610194546001600160a01b03166103de565b34801561082457600080fd5b50610410611e1c565b34801561083957600080fd5b506104af610848366004613fda565b6001600160a01b03166000908152610165602052604090205490565b34801561087057600080fd5b506104af61087f366004613fda565b611e2b565b34801561089057600080fd5b5061043d61089f366004613e61565b611e75565b3480156108b057600080fd5b5061043d6108bf366004613e61565b611f1f565b3480156108d057600080fd5b506104af6108df3660046140bc565b611f2d565b3480156108f057600080fd5b506104dd6108ff366004613dd0565b61200b565b34801561091057600080fd5b506104dd61091f366004614038565b612021565b34801561093057600080fd5b506104dd61093f366004613fda565b6121c8565b34801561095057600080fd5b506104af61095f366004613fda565b6001600160a01b03166000908152610164602052604090205490565b34801561098757600080fd5b506104dd61099636600461424a565b6121fb565b3480156109a757600080fd5b506104dd6109b6366004614278565b612289565b3480156109c757600080fd5b506104af6109d6366004613fda565b6001600160a01b03166000908152610167602052604090205490565b3480156109fe57600080fd5b5061043d610a0d3660046140bc565b6123ed565b348015610a1e57600080fd5b506104af610a2d3660046140bc565b6001600160a01b03918216600090815260ca6020908152604080832093909416825291909152205490565b348015610a6457600080fd5b50610a78610a73366004613e61565b61247e565b604080516001600160a01b0396871681526020810195909552921515928401929092529092166060820152608081019190915260a0016103f2565b348015610abf57600080fd5b50610163546104af565b348015610ad557600080fd5b506104dd610ae4366004613fda565b6124de565b348015610af557600080fd5b506104dd610b043660046142ef565b61256b565b606060cc8054610b1890614314565b80601f0160208091040260200160405190810160405280929190818152602001828054610b4490614314565b8015610b915780601f10610b6657610100808354040283529160200191610b91565b820191906000526020600020905b815481529060010190602001808311610b7457829003601f168201915b5050505050905090565b600033610ba98185856125cc565b60019150505b92915050565b600033158015610bd357506101c8546001600160a01b038681169116145b15610d5e576101c8546040517fdc9ce7a5000000000000000000000000000000000000000000000000000000008152600481018590526000916001600160a01b03169063dc9ce7a590602401600060405180830381865afa158015610c3c573d6000803e3d6000fd5b505050506040513d6000823e601f3d908101601f19168201604052610c6491908101906143c8565b5090506000816101200151905060006101cc600083600081518110610c8b57610c8b6144e7565b6020026020010151815260200190815260200160002060009054906101000a90046001600160a01b0316905060006101cc600084600181518110610cd157610cd16144e7565b60209081029190910181015182528181019290925260409081016000205481518083019092526001600160a01b03858116835216918101829052909150610d1781612724565b7f13c6ec2a463a35f898a457814a782f1f567808293fa783a31fa4dac8868e60118a8a8a8a604051610d4c94939291906144fd565b60405180910390a15050505050610e26565b60008251118015610d7d57506101c8546001600160a01b038681169116145b15610de857600082806020019051810190610d989190614571565b9050610da5848287612993565b7f13c6ec2a463a35f898a457814a782f1f567808293fa783a31fa4dac8868e601186868686604051610dda949392919061458a565b60405180910390a150610e26565b7f13c6ec2a463a35f898a457814a782f1f567808293fa783a31fa4dac8868e601185858585604051610e1d94939291906145fe565b60405180910390a15b507f150b7a02000000000000000000000000000000000000000000000000000000005b949350505050565b6001600160a01b03811660009081526101646020526040902054610ecb5760405162461bcd60e51b815260206004820152602660248201527f5061796d656e7453706c69747465723a206163636f756e7420686173206e6f2060448201526573686172657360d01b60648201526084015b60405180910390fd5b6000610ed682611e2b565b905080600003610f3c5760405162461bcd60e51b815260206004820152602b60248201527f5061796d656e7453706c69747465723a206163636f756e74206973206e6f742060448201526a191d59481c185e5b595b9d60aa1b6064820152608401610ec2565b806101636000828254610f4f9190614688565b90915550506001600160a01b038216600090815261016560205260409020805482019055610f7d8282612adf565b604080516001600160a01b0384168152602081018390527fdf20fd1e76bc69d672e4814fafb2c449bba3a5369d8359adf9e05e6fde87b056910160405180910390a15050565b565b610fcd612bf8565b610fc3612c53565b600033610fe3858285612cad565b610fee858585612d39565b506001949350505050565b611001612bf8565b611009612f2d565b604051339081904780156108fc02916000818181858888f19350505050158015611037573d6000803e3d6000fd5b5050565b606082821161108c5760405162461bcd60e51b815260206004820152600d60248201527f496e76616c696420696e646578000000000000000000000000000000000000006044820152606401610ec2565b6101cb548211156110df5760405162461bcd60e51b815260206004820152601360248201527f496e646578206f7574206f6620626f756e6473000000000000000000000000006044820152606401610ec2565b60006110eb848461469b565b67ffffffffffffffff81111561110357611103613e8d565b60405190808252806020026020018201604052801561116157816020015b61114e6040518060600160405280600081526020016000815260200160006001600160a01b031681525090565b8152602001906001900390816111215790505b509050835b838110156111f3576101cb8181548110611182576111826144e7565b6000918252602091829020604080516060810182526003909302909101805483526001810154938301939093526002909201546001600160a01b031691810191909152826111d0878461469b565b815181106111e0576111e06144e7565b6020908102919091010152600101611166565b509392505050565b6000611205612f80565b905090565b6001600160a01b037f00000000000000000000000000000000000000000000000000000000000000001630036112975760405162461bcd60e51b815260206004820152602c60248201527f46756e6374696f6e206d7573742062652063616c6c6564207468726f7567682060448201526b19195b1959d85d1958d85b1b60a21b6064820152608401610ec2565b7f00000000000000000000000000000000000000000000000000000000000000006001600160a01b03166112f27f360894a13ba1a3210667c828492db98dca3e2076cc3735a920a3ca505d382bbc546001600160a01b031690565b6001600160a01b03161461135d5760405162461bcd60e51b815260206004820152602c60248201527f46756e6374696f6e206d7573742062652063616c6c6564207468726f7567682060448201526b6163746976652070726f787960a01b6064820152608401610ec2565b61136681612f8a565b6040805160008082526020820190925261138291839190612f92565b50565b33600081815260ca602090815260408083206001600160a01b0387168452909152812054909190610ba990829086906113bf908790614688565b6125cc565b6113cc612bf8565b610fc3613132565b6001600160a01b038116600090815261016460205260409020546114495760405162461bcd60e51b815260206004820152602660248201527f5061796d656e7453706c69747465723a206163636f756e7420686173206e6f2060448201526573686172657360d01b6064820152608401610ec2565b60006114558383611f2d565b9050806000036114bb5760405162461bcd60e51b815260206004820152602b60248201527f5061796d656e7453706c69747465723a206163636f756e74206973206e6f742060448201526a191d59481c185e5b595b9d60aa1b6064820152608401610ec2565b6001600160a01b03831660009081526101676020526040812080548392906114e4908490614688565b90915550506001600160a01b0380841660009081526101686020908152604080832093861683529290522080548201905561152083838361316b565b604080516001600160a01b038481168252602082018490528516917f3be5b7a71e84ed12875d241991c70855ac5817d847039e17a9d895c1ceb0f18a910160405180910390a2505050565b611573612bf8565b61157b612f2d565b6101c9919091556101c680546001600160a01b039384166001600160a01b0319918216179091556101c88054929093169116179055565b6001600160a01b037f000000000000000000000000000000000000000000000000000000000000000016300361163f5760405162461bcd60e51b815260206004820152602c60248201527f46756e6374696f6e206d7573742062652063616c6c6564207468726f7567682060448201526b19195b1959d85d1958d85b1b60a21b6064820152608401610ec2565b7f00000000000000000000000000000000000000000000000000000000000000006001600160a01b031661169a7f360894a13ba1a3210667c828492db98dca3e2076cc3735a920a3ca505d382bbc546001600160a01b031690565b6001600160a01b0316146117055760405162461bcd60e51b815260206004820152602c60248201527f46756e6374696f6e206d7573742062652063616c6c6564207468726f7567682060448201526b6163746976652070726f787960a01b6064820152608401610ec2565b61170e82612f8a565b61103782826001612f92565b6000306001600160a01b037f000000000000000000000000000000000000000000000000000000000000000016146117ba5760405162461bcd60e51b815260206004820152603860248201527f555550535570677261646561626c653a206d757374206e6f742062652063616c60448201527f6c6564207468726f7567682064656c656761746563616c6c00000000000000006064820152608401610ec2565b507f360894a13ba1a3210667c828492db98dca3e2076cc3735a920a3ca505d382bbc90565b60606101cb805480602002602001604051908101604052809291908181526020016000905b82821015611859576000848152602090819020604080516060810182526003860290920180548352600180820154848601526002909101546001600160a01b0316918301919091529083529092019101611804565b50505050905090565b61186a612bf8565b610fc360006131eb565b6001600160a01b038116600090815261012f6020526040812054610baf565b600054610100900460ff16158080156118b35750600054600160ff909116105b806118cd5750303b1580156118cd575060005460ff166001145b61193f5760405162461bcd60e51b815260206004820152602e60248201527f496e697469616c697a61626c653a20636f6e747261637420697320616c72656160448201527f647920696e697469616c697a65640000000000000000000000000000000000006064820152608401610ec2565b6000805460ff191660011790558015611962576000805461ff0019166101001790555b61196a61323e565b6119726132b1565b61197a613324565b8015611382576000805461ff0019169055604051600181527f7f26b83ff96e1f2b6a682f133852f6798a09c465da95921460cefb38474024989060200160405180910390a150565b6119ca612f2d565b60008060006119d88461338f565b9050806101c9546119e99190614688565b3410156119f557600080fd5b6000805b6101cb54811015611a7057856101cb8281548110611a1957611a196144e7565b90600052602060002090600302016000015403611a68576101cb8181548110611a4457611a446144e7565b60009182526020909120600260039092020101546001600160a01b03169150611a70565b6001016119f9565b50604051600b906000906001600160a01b0384169083908381818185875af1925050503d8060008114611abf576040519150601f19603f3d011682016040523d82523d6000602084013e611ac4565b606091505b5050905080611b155760405162461bcd60e51b815260206004820152601460248201527f4661696c656420746f2073656e642045746865720000000000000000000000006044820152606401610ec2565b6101c6546040517fbf0e57a3000000000000000000000000000000000000000000000000000000008152600481018a905260248101899052600060448201523460648201526001600160a01b039091169063bf0e57a3906084016020604051808303816000875af1158015611b8e573d6000803e3d6000fd5b505050506040513d601f19601f82011682018060405250810190611bb29190614571565b50816101c954611bc29190614688565b341115611c83576000336001600160a01b0316836101c95434611be5919061469b565b611bef919061469b565b604051600081818185875af1925050503d8060008114611c2b576040519150601f19603f3d011682016040523d82523d6000602084013e611c30565b606091505b5050905080611c815760405162461bcd60e51b815260206004820152601d60248201527f4661696c656420746f20726566756e64206578636573732045746865720000006044820152606401610ec2565b505b604080518981526001600160a01b0388811660208301528183018a90528716606082015290517f8557df6951fbdd47fe9027516fc896be40f285ed55a6acac460352adbab730cd9181900360800190a15050505050505050565b60006060806000806000606060fb546000801b148015611cfd575060fc54155b611d495760405162461bcd60e51b815260206004820152601560248201527f4549503731323a20556e696e697469616c697a656400000000000000000000006044820152606401610ec2565b611d51613430565b611d5961343f565b604080516000808252602082019092527f0f000000000000000000000000000000000000000000000000000000000000009b939a50919850469750309650945092509050565b6101ca6020528160005260406000208181548110611dbc57600080fd5b60009182526020909120600390910201805460018201546002909201549093509091506001600160a01b031683565b60006101668281548110611e0157611e016144e7565b6000918252602090912001546001600160a01b031692915050565b606060cd8054610b1890614314565b600080611e386101635490565b611e429047614688565b9050611e6e8382611e69866001600160a01b03166000908152610165602052604090205490565b61344e565b9392505050565b33600081815260ca602090815260408083206001600160a01b038716845290915281205490919083811015611f125760405162461bcd60e51b815260206004820152602560248201527f45524332303a2064656372656173656420616c6c6f77616e63652062656c6f7760448201527f207a65726f0000000000000000000000000000000000000000000000000000006064820152608401610ec2565b610fee82868684036125cc565b600033610ba9818585612d39565b6001600160a01b0382166000908152610167602052604081205481906040517f70a082310000000000000000000000000000000000000000000000000000000081523060048201526001600160a01b038616906370a0823190602401602060405180830381865afa158015611fa6573d6000803e3d6000fd5b505050506040513d601f19601f82011682018060405250810190611fca9190614571565b611fd49190614688565b6001600160a01b0380861660009081526101686020908152604080832093881683529290522054909150610e49908490839061344e565b612013612bf8565b61201b612f2d565b6101c955565b612029612f2d565b6101cb54821061207b5760405162461bcd60e51b815260206004820152601360248201527f496e646578206f7574206f6620626f756e6473000000000000000000000000006044820152606401610ec2565b600033905060006101cb8481548110612096576120966144e7565b6000918252602091829020604080516060810182526003909302909101805483526001810154938301939093526002909201546001600160a01b0316918101829052915033146120e557600080fd5b6040518060600160405280600081526020016000815260200160006001600160a01b03168152506101cb8581548110612120576121206144e7565b6000918252602091829020835160039290920201908155908201516001820155604090910151600290910180546001600160a01b0319166001600160a01b039092169190911790556121728383612573565b6101c8548151604080516001600160a01b03808716825290931660208401528201527f0ece05e698e9e143fb75b2ad0aba7f141238c27b6d3e9728898183ee0d68498b906060015b60405180910390a150505050565b6121d0612bf8565b6121d8612f2d565b6101c780546001600160a01b0319166001600160a01b0392909216919091179055565b612203612bf8565b6101c8546040517fa22cb4650000000000000000000000000000000000000000000000000000000081526001600160a01b03848116600483015283151560248301529091169063a22cb465906044015b600060405180830381600087803b15801561226d57600080fd5b505af1158015612281573d6000803e3d6000fd5b505050505050565b834211156122d95760405162461bcd60e51b815260206004820152601d60248201527f45524332305065726d69743a206578706972656420646561646c696e650000006044820152606401610ec2565b60007f6e71edae12b1b97f4d1f60370fef10105fa2faae0126114a169c64845d6126c98888886123088c61348e565b6040805160208101969096526001600160a01b0394851690860152929091166060840152608083015260a082015260c0810186905260e0016040516020818303038152906040528051906020012090506000612363826134b5565b90506000612373828787876134fd565b9050896001600160a01b0316816001600160a01b0316146123d65760405162461bcd60e51b815260206004820152601e60248201527f45524332305065726d69743a20696e76616c6964207369676e617475726500006044820152606401610ec2565b6123e18a8a8a6125cc565b50505050505050505050565b6101c8546040517fe985e9c50000000000000000000000000000000000000000000000000000000081526001600160a01b0384811660048301528381166024830152600092169063e985e9c590604401602060405180830381865afa15801561245a573d6000803e3d6000fd5b505050506040513d601f19601f82011682018060405250810190611e6e91906146ae565b6101cd602052816000526040600020818154811061249b57600080fd5b600091825260209091206004909102018054600182015460028301546003909301546001600160a01b03928316955090935060ff83169261010090049091169085565b6124e6612bf8565b6001600160a01b0381166125625760405162461bcd60e51b815260206004820152602660248201527f4f776e61626c653a206e6577206f776e657220697320746865207a65726f206160448201527f64647265737300000000000000000000000000000000000000000000000000006064820152608401610ec2565b611382816131eb565b612573612bf8565b6101c8546040517f23b872dd0000000000000000000000000000000000000000000000000000000081523060048201526001600160a01b03838116602483015260448201859052909116906323b872dd90606401612253565b6001600160a01b0383166126475760405162461bcd60e51b8152602060048201526024808201527f45524332303a20617070726f76652066726f6d20746865207a65726f2061646460448201527f72657373000000000000000000000000000000000000000000000000000000006064820152608401610ec2565b6001600160a01b0382166126c35760405162461bcd60e51b815260206004820152602260248201527f45524332303a20617070726f766520746f20746865207a65726f20616464726560448201527f73730000000000000000000000000000000000000000000000000000000000006064820152608401610ec2565b6001600160a01b03838116600081815260ca602090815260408083209487168084529482529182902085905590518481527f8c5be1e5ebec7d5bd14f71427d1e84f3dd0314c0f7b2291e5b200ac8c7c3b925910160405180910390a3505050565b80516020808301516001600160a01b03831660009081526101cd909252604090912054156128275760005b6001600160a01b03831660009081526101cd6020526040902054811015612821576001600160a01b0383811660009081526101cd60205260409020805491841691839081106127a0576127a06144e7565b600091825260209091206004909102016002015461010090046001600160a01b031603612819576001600160a01b03831660009081526101cd60205260409020805460019190839081106127f6576127f66144e7565b60009182526020909120600490910201600201805460ff19169115159190911790555b60010161274f565b50505050565b6020808401516001600160a01b031660009081526101cd9091526040902054156129205760005b6001600160a01b03821660009081526101cd6020526040902054811015612821576001600160a01b0382811660009081526101cd602052604090208054918516918390811061289f5761289f6144e7565b600091825260209091206004909102016002015461010090046001600160a01b031603612918576001600160a01b03821660009081526101cd60205260409020805460019190839081106128f5576128f56144e7565b60009182526020909120600490910201600201805460ff19169115159190911790555b60010161284e565b60405162461bcd60e51b815260206004820152602560248201527f706c616e65742073656e7420657272616e746c792c206e6f206f6e6520746f2060448201527f636c61696d0000000000000000000000000000000000000000000000000000006064820152608401610ec2565b505050565b604080516060808201835285825260208083018681526001600160a01b0386811685870181815260009182526101ca8552878220805460018082018355918452868420895160039283029091019081558651818401558351600290910180549187166001600160a01b03199283161790556101cb80549384018155909452885191027fe8bbfecd380c4167d6a1f763a233ec73e73f534b1970c4e1683f437ec23c1f4481019190915593517fe8bbfecd380c4167d6a1f763a233ec73e73f534b1970c4e1683f437ec23c1f45850155517fe8bbfecd380c4167d6a1f763a233ec73e73f534b1970c4e1683f437ec23c1f46909301805493831693909116929092179091556101c85485513381529116918101919091529283018690528201849052907fb30319a217488a3ed441c348e935a48d16091e33109bab0c79a353b979752883906080016121ba565b80471015612b2f5760405162461bcd60e51b815260206004820152601d60248201527f416464726573733a20696e73756666696369656e742062616c616e63650000006044820152606401610ec2565b6000826001600160a01b03168260405160006040518083038185875af1925050503d8060008114612b7c576040519150601f19603f3d011682016040523d82523d6000602084013e612b81565b606091505b505090508061298e5760405162461bcd60e51b815260206004820152603a60248201527f416464726573733a20756e61626c6520746f2073656e642076616c75652c207260448201527f6563697069656e74206d617920686176652072657665727465640000000000006064820152608401610ec2565b610194546001600160a01b03163314610fc35760405162461bcd60e51b815260206004820181905260248201527f4f776e61626c653a2063616c6c6572206973206e6f7420746865206f776e65726044820152606401610ec2565b612c5b612f2d565b6033805460ff191660011790557f62e78cea01bee320cd4e420270b5ea74000d11b0c9f74754ebdbfc544b05a258612c903390565b6040516001600160a01b03909116815260200160405180910390a1565b6001600160a01b03838116600090815260ca602090815260408083209386168352929052205460001981146128215781811015612d2c5760405162461bcd60e51b815260206004820152601d60248201527f45524332303a20696e73756666696369656e7420616c6c6f77616e63650000006044820152606401610ec2565b61282184848484036125cc565b6001600160a01b038316612db55760405162461bcd60e51b815260206004820152602560248201527f45524332303a207472616e736665722066726f6d20746865207a65726f20616460448201527f64726573730000000000000000000000000000000000000000000000000000006064820152608401610ec2565b6001600160a01b038216612e315760405162461bcd60e51b815260206004820152602360248201527f45524332303a207472616e7366657220746f20746865207a65726f206164647260448201527f65737300000000000000000000000000000000000000000000000000000000006064820152608401610ec2565b6001600160a01b038316600090815260c9602052604090205481811015612ec05760405162461bcd60e51b815260206004820152602660248201527f45524332303a207472616e7366657220616d6f756e742065786365656473206260448201527f616c616e636500000000000000000000000000000000000000000000000000006064820152608401610ec2565b6001600160a01b03808516600081815260c9602052604080822086860390559286168082529083902080548601905591517fddf252ad1be2c89b69c2b068fc378daa952ba7f163c4a11628f55a4df523b3ef90612f209086815260200190565b60405180910390a3612821565b60335460ff1615610fc35760405162461bcd60e51b815260206004820152601060248201527f5061757361626c653a20706175736564000000000000000000000000000000006044820152606401610ec2565b6000611205613525565b611382612bf8565b7f4910fdfa16fed3260ed0e7147f7cc6da11a60208b5b9406d12a635614ffd91435460ff1615612fc55761298e83613599565b826001600160a01b03166352d1902d6040518163ffffffff1660e01b8152600401602060405180830381865afa92505050801561301f575060408051601f3d908101601f1916820190925261301c91810190614571565b60015b6130915760405162461bcd60e51b815260206004820152602e60248201527f45524331393637557067726164653a206e657720696d706c656d656e7461746960448201527f6f6e206973206e6f7420555550530000000000000000000000000000000000006064820152608401610ec2565b7f360894a13ba1a3210667c828492db98dca3e2076cc3735a920a3ca505d382bbc81146131265760405162461bcd60e51b815260206004820152602960248201527f45524331393637557067726164653a20756e737570706f727465642070726f7860448201527f6961626c655555494400000000000000000000000000000000000000000000006064820152608401610ec2565b5061298e838383613657565b61313a61367c565b6033805460ff191690557f5db9ee0a495bf2e6ff9c91a7834c1ba4fdd244a5e8aa4e537bd38aeae4b073aa33612c90565b604080516001600160a01b038416602482015260448082018490528251808303909101815260649091019091526020810180517bffffffffffffffffffffffffffffffffffffffffffffffffffffffff167fa9059cbb0000000000000000000000000000000000000000000000000000000017905261298e9084906136ce565b61019480546001600160a01b038381166001600160a01b0319831681179093556040519116919082907f8be0079c531659141344cd1fd0a4f28419497f9722a3daafe3b4186f6b6457e090600090a35050565b600054610100900460ff166132a95760405162461bcd60e51b815260206004820152602b60248201527f496e697469616c697a61626c653a20636f6e7472616374206973206e6f74206960448201526a6e697469616c697a696e6760a81b6064820152608401610ec2565b610fc36137b6565b600054610100900460ff1661331c5760405162461bcd60e51b815260206004820152602b60248201527f496e697469616c697a61626c653a20636f6e7472616374206973206e6f74206960448201526a6e697469616c697a696e6760a81b6064820152608401610ec2565b610fc361382a565b600054610100900460ff16610fc35760405162461bcd60e51b815260206004820152602b60248201527f496e697469616c697a61626c653a20636f6e7472616374206973206e6f74206960448201526a6e697469616c697a696e6760a81b6064820152608401610ec2565b6000613399612f2d565b60005b6101cb5481101561342957826101cb82815481106133bc576133bc6144e7565b90600052602060002090600302016000015403613401576101cb81815481106133e7576133e76144e7565b906000526020600020906003020160010154915050919050565b6101cb546134119060019061469b565b8103613421575060001992915050565b60010161339c565b505b919050565b606060fd8054610b1890614314565b606060fe8054610b1890614314565b610162546001600160a01b038416600090815261016460205260408120549091839161347a90866146cb565b61348491906146e2565b610e49919061469b565b6001600160a01b038116600090815261012f60205260409020805460018101825590613429565b6000610baf6134c2612f80565b836040517f19010000000000000000000000000000000000000000000000000000000000008152600281019290925260228201526042902090565b600080600061350e878787876138a1565b9150915061351b81613965565b5095945050505050565b60007f8b73c3c69bb8fe3d512ecc4cf759cc79239f7b179b0ffacaa9a75d522b39400f613550613aca565b613558613b23565b60408051602081019490945283019190915260608201524660808201523060a082015260c00160405160208183030381529060405280519060200120905090565b6001600160a01b0381163b6136165760405162461bcd60e51b815260206004820152602d60248201527f455243313936373a206e657720696d706c656d656e746174696f6e206973206e60448201527f6f74206120636f6e7472616374000000000000000000000000000000000000006064820152608401610ec2565b7f360894a13ba1a3210667c828492db98dca3e2076cc3735a920a3ca505d382bbc80546001600160a01b0319166001600160a01b0392909216919091179055565b61366083613b54565b60008251118061366d5750805b1561298e576128218383613b94565b60335460ff16610fc35760405162461bcd60e51b815260206004820152601460248201527f5061757361626c653a206e6f74207061757365640000000000000000000000006044820152606401610ec2565b6000613723826040518060400160405280602081526020017f5361666545524332303a206c6f772d6c6576656c2063616c6c206661696c6564815250856001600160a01b0316613bb99092919063ffffffff16565b905080516000148061374457508080602001905181019061374491906146ae565b61298e5760405162461bcd60e51b815260206004820152602a60248201527f5361666545524332303a204552433230206f7065726174696f6e20646964206e60448201527f6f742073756363656564000000000000000000000000000000000000000000006064820152608401610ec2565b600054610100900460ff166138215760405162461bcd60e51b815260206004820152602b60248201527f496e697469616c697a61626c653a20636f6e7472616374206973206e6f74206960448201526a6e697469616c697a696e6760a81b6064820152608401610ec2565b610fc3336131eb565b600054610100900460ff166138955760405162461bcd60e51b815260206004820152602b60248201527f496e697469616c697a61626c653a20636f6e7472616374206973206e6f74206960448201526a6e697469616c697a696e6760a81b6064820152608401610ec2565b6033805460ff19169055565b6000807f7fffffffffffffffffffffffffffffff5d576e7357a4501ddfe92f46681b20a08311156138d8575060009050600361395c565b6040805160008082526020820180845289905260ff881692820192909252606081018690526080810185905260019060a0016020604051602081039080840390855afa15801561392c573d6000803e3d6000fd5b5050604051601f1901519150506001600160a01b0381166139555760006001925092505061395c565b9150600090505b94509492505050565b600081600481111561397957613979614704565b036139815750565b600181600481111561399557613995614704565b036139e25760405162461bcd60e51b815260206004820152601860248201527f45434453413a20696e76616c6964207369676e617475726500000000000000006044820152606401610ec2565b60028160048111156139f6576139f6614704565b03613a435760405162461bcd60e51b815260206004820152601f60248201527f45434453413a20696e76616c6964207369676e6174757265206c656e677468006044820152606401610ec2565b6003816004811115613a5757613a57614704565b036113825760405162461bcd60e51b815260206004820152602260248201527f45434453413a20696e76616c6964207369676e6174757265202773272076616c60448201527f75650000000000000000000000000000000000000000000000000000000000006064820152608401610ec2565b600080613ad5613430565b805190915015613aec578051602090910120919050565b60fb548015613afb5792915050565b7fc5d2460186f7233c927e7db2dcc703c0e500b653ca82273b7bfad8045d85a4709250505090565b600080613b2e61343f565b805190915015613b45578051602090910120919050565b60fc548015613afb5792915050565b613b5d81613599565b6040516001600160a01b038216907fbc7cd75a20ee27fd9adebab32041f755214dbc6bffa90cc0225b39da2e5c2d3b90600090a250565b6060611e6e838360405180606001604052806027815260200161473760279139613bc8565b6060610e498484600085613c40565b6060600080856001600160a01b031685604051613be5919061471a565b600060405180830381855af49150503d8060008114613c20576040519150601f19603f3d011682016040523d82523d6000602084013e613c25565b606091505b5091509150613c3686838387613d32565b9695505050505050565b606082471015613cb85760405162461bcd60e51b815260206004820152602660248201527f416464726573733a20696e73756666696369656e742062616c616e636520666f60448201527f722063616c6c00000000000000000000000000000000000000000000000000006064820152608401610ec2565b600080866001600160a01b03168587604051613cd4919061471a565b60006040518083038185875af1925050503d8060008114613d11576040519150601f19603f3d011682016040523d82523d6000602084013e613d16565b606091505b5091509150613d2787838387613d32565b979650505050505050565b60608315613da1578251600003613d9a576001600160a01b0385163b613d9a5760405162461bcd60e51b815260206004820152601d60248201527f416464726573733a2063616c6c20746f206e6f6e2d636f6e74726163740000006044820152606401610ec2565b5081610e49565b610e498383815115613db65781518083602001fd5b8060405162461bcd60e51b8152600401610ec29190613e39565b600060208284031215613de257600080fd5b5035919050565b60005b83811015613e04578181015183820152602001613dec565b50506000910152565b60008151808452613e25816020860160208601613de9565b601f01601f19169290920160200192915050565b602081526000611e6e6020830184613e0d565b6001600160a01b038116811461138257600080fd5b60008060408385031215613e7457600080fd5b8235613e7f81613e4c565b946020939093013593505050565b634e487b7160e01b600052604160045260246000fd5b604051610160810167ffffffffffffffff81118282101715613ec757613ec7613e8d565b60405290565b604051601f8201601f1916810167ffffffffffffffff81118282101715613ef657613ef6613e8d565b604052919050565b600082601f830112613f0f57600080fd5b813567ffffffffffffffff811115613f2957613f29613e8d565b613f3c601f8201601f1916602001613ecd565b818152846020838601011115613f5157600080fd5b816020850160208301376000918101602001919091529392505050565b60008060008060808587031215613f8457600080fd5b8435613f8f81613e4c565b93506020850135613f9f81613e4c565b925060408501359150606085013567ffffffffffffffff811115613fc257600080fd5b613fce87828801613efe565b91505092959194509250565b600060208284031215613fec57600080fd5b8135611e6e81613e4c565b60008060006060848603121561400c57600080fd5b833561401781613e4c565b9250602084013561402781613e4c565b929592945050506040919091013590565b6000806040838503121561404b57600080fd5b50508035926020909101359150565b602080825282518282018190526000919060409081850190868401855b828110156140af5781518051855286810151878601528501516001600160a01b03168585015260609093019290850190600101614077565b5091979650505050505050565b600080604083850312156140cf57600080fd5b82356140da81613e4c565b915060208301356140ea81613e4c565b809150509250929050565b60008060006060848603121561410a57600080fd5b833561411581613e4c565b925060208401359150604084013561412c81613e4c565b809150509250925092565b6000806040838503121561414a57600080fd5b823561415581613e4c565b9150602083013567ffffffffffffffff81111561417157600080fd5b61417d85828601613efe565b9150509250929050565b7fff00000000000000000000000000000000000000000000000000000000000000881681526000602060e060208401526141c460e084018a613e0d565b83810360408501526141d6818a613e0d565b606085018990526001600160a01b038816608086015260a0850187905284810360c08601528551808252602080880193509091019060005b8181101561422a5783518352928401929184019160010161420e565b50909c9b505050505050505050505050565b801515811461138257600080fd5b6000806040838503121561425d57600080fd5b823561426881613e4c565b915060208301356140ea8161423c565b600080600080600080600060e0888a03121561429357600080fd5b873561429e81613e4c565b965060208801356142ae81613e4c565b95506040880135945060608801359350608088013560ff811681146142d257600080fd5b9699959850939692959460a0840135945060c09093013592915050565b6000806040838503121561430257600080fd5b8235915060208301356140ea81613e4c565b600181811c9082168061432857607f821691505b60208210810361342957634e487b7160e01b600052602260045260246000fd5b600082601f83011261435957600080fd5b8151602067ffffffffffffffff82111561437557614375613e8d565b8160051b614384828201613ecd565b928352848101820192828101908785111561439e57600080fd5b83870192505b84831015613d27578251825291830191908301906143a4565b805161342b8161423c565b600080604083850312156143db57600080fd5b825167ffffffffffffffff808211156143f357600080fd5b90840190610160828703121561440857600080fd5b614410613ea3565b825181526020830151602082015260408301516040820152606083015160608201526080830151608082015260a083015160a082015260c083015160c082015260e083015160e0820152610100808401518381111561446e57600080fd5b61447a89828701614348565b828401525050610120808401518381111561449457600080fd5b6144a089828701614348565b82840152505061014080840151838111156144ba57600080fd5b6144c689828701614348565b8284015250508094505050506144de602084016143bd565b90509250929050565b634e487b7160e01b600052603260045260246000fd5b60006001600160a01b03808716835280861660208401525083604083015260a0606083015261452f60a0830184613e0d565b8281036080840152600a81527f6e657720706c616e65740000000000000000000000000000000000000000000060208201526040810191505095945050505050565b60006020828403121561458357600080fd5b5051919050565b60006001600160a01b03808716835280861660208401525083604083015260a060608301526145bc60a0830184613e0d565b8281036080840152600e81527f6c697374696e6720706c616e657400000000000000000000000000000000000060208201526040810191505095945050505050565b60006001600160a01b03808716835280861660208401525083604083015260a0606083015261463060a0830184613e0d565b8281036080840152600d81527f756e63617465676f72697a65640000000000000000000000000000000000000060208201526040810191505095945050505050565b634e487b7160e01b600052601160045260246000fd5b80820180821115610baf57610baf614672565b81810381811115610baf57610baf614672565b6000602082840312156146c057600080fd5b8151611e6e8161423c565b8082028115828204841417610baf57610baf614672565b6000826146ff57634e487b7160e01b600052601260045260246000fd5b500490565b634e487b7160e01b600052602160045260246000fd5b6000825161472c818460208701613de9565b919091019291505056fe416464726573733a206c6f772d6c6576656c2064656c65676174652063616c6c206661696c6564a26469706673582212206434fa8f93bd8a7bfcb7fc02022bcaa58d926f8677c00ed554425db31c831f6e64736f6c63430008180033",
  "linkReferences": {},
  "deployedLinkReferences": {}
}