{
  "_format": "hh-sol-artifact-1",
  "contractName": "MockERC721",
  "sourceName": "contracts/test/MockERC721.sol",
  "abi": [
    {
      "inputs": [
        {
          "internalType": "string",
          "name": "name",
          "type": "string"
        },
        {
          "internalType": "string",
          "name": "symbol",
          "type": "string"
        }
      ],
      "stateMutability": "nonpayable",
      "type": "constructor"
    },
    {
      "anonymous": false,
      "inputs": [
        {
          "indexed": true,
          "internalType": "address",
          "name": "owner",
          "type": "address"
        },
        {
          "indexed": true,
          "internalType": "address",
          "name": "approved",
          "type": "address"
        },
        {
          "indexed": true,
          "internalType": "uint256",
          "name": "tokenId",
          "type": "uint256"
        }
      ],
      "name": "Approval",
      "type": "event"
    },
    {
      "anonymous": false,
      "inputs": [
        {
          "indexed": true,
          "internalType": "address",
          "name": "owner",
          "type": "address"
        },
        {
          "indexed": true,
          "internalType": "address",
          "name": "operator",
          "type": "address"
        },
        {
          "indexed": false,
          "internalType": "bool",
          "name": "approved",
          "type": "bool"
        }
      ],
      "name": "ApprovalForAll",
      "type": "event"
    },
    {
      "anonymous": false,
      "inputs": [
        {
          "indexed": false,
          "internalType": "string",
          "name": "message",
          "type": "string"
        },
        {
          "indexed": true,
          "internalType": "address",
          "name": "from",
          "type": "address"
        },
        {
          "indexed": false,
          "internalType": "uint256",
          "name": "value",
          "type": "uint256"
        }
      ],
      "name": "DebugLog",
      "type": "event"
    },
    {
      "anonymous": false,
      "inputs": [
        {
          "indexed": true,
          "internalType": "address",
          "name": "previousOwner",
          "type": "address"
        },
        {
          "indexed": true,
          "internalType": "address",
          "name": "newOwner",
          "type": "address"
        }
      ],
      "name": "OwnershipTransferred",
      "type": "event"
    },
    {
      "anonymous": false,
      "inputs": [
        {
          "indexed": true,
          "internalType": "address",
          "name": "from",
          "type": "address"
        },
        {
          "indexed": true,
          "internalType": "address",
          "name": "to",
          "type": "address"
        },
        {
          "indexed": true,
          "internalType": "uint256",
          "name": "tokenId",
          "type": "uint256"
        }
      ],
      "name": "Transfer",
      "type": "event"
    },
    {
      "inputs": [
        {
          "internalType": "address",
          "name": "to",
          "type": "address"
        },
        {
          "internalType": "uint256",
          "name": "tokenId",
          "type": "uint256"
        }
      ],
      "name": "approve",
      "outputs": [],
      "stateMutability": "nonpayable",
      "type": "function"
    },
    {
      "inputs": [
        {
          "internalType": "address",
          "name": "owner",
          "type": "address"
        }
      ],
      "name": "balanceOf",
      "outputs": [
        {
          "internalType": "uint256",
          "name": "",
          "type": "uint256"
        }
      ],
      "stateMutability": "view",
      "type": "function"
    },
    {
      "inputs": [
        {
          "internalType": "uint256",
          "name": "tokenId",
          "type": "uint256"
        }
      ],
      "name": "getApproved",
      "outputs": [
        {
          "internalType": "address",
          "name": "",
          "type": "address"
        }
      ],
      "stateMutability": "view",
      "type": "function"
    },
    {
      "inputs": [],
      "name": "getCurrentTokenId",
      "outputs": [
        {
          "internalType": "uint256",
          "name": "",
          "type": "uint256"
        }
      ],
      "stateMutability": "view",
      "type": "function"
    },
    {
      "inputs": [
        {
          "internalType": "uint256",
          "name": "tokenId",
          "type": "uint256"
        }
      ],
      "name": "getPlanetData",
      "outputs": [
        {
          "components": [
            {
              "internalType": "uint256",
              "name": "gene",
              "type": "uint256"
            },
            {
              "internalType": "uint256",
              "name": "baseAge",
              "type": "uint256"
            },
            {
              "internalType": "uint256",
              "name": "evolve",
              "type": "uint256"
            },
            {
              "internalType": "uint256",
              "name": "breedCount",
              "type": "uint256"
            },
            {
              "internalType": "uint256",
              "name": "breedCountMax",
              "type": "uint256"
            },
            {
              "internalType": "uint256",
              "name": "createTime",
              "type": "uint256"
            },
            {
              "internalType": "uint256",
              "name": "bornTime",
              "type": "uint256"
            },
            {
              "internalType": "uint256",
              "name": "lastBreedTime",
              "type": "uint256"
            },
            {
              "internalType": "uint256[]",
              "name": "relicsTokenIDs",
              "type": "uint256[]"
            },
            {
              "internalType": "uint256[]",
              "name": "parents",
              "type": "uint256[]"
            },
            {
              "internalType": "uint256[]",
              "name": "children",
              "type": "uint256[]"
            }
          ],
          "internalType": "struct PlanetData",
          "name": "",
          "type": "tuple"
        },
        {
          "internalType": "bool",
          "name": "",
          "type": "bool"
        }
      ],
      "stateMutability": "nonpayable",
      "type": "function"
    },
    {
      "inputs": [
        {
          "internalType": "address",
          "name": "owner",
          "type": "address"
        },
        {
          "internalType": "address",
          "name": "operator",
          "type": "address"
        }
      ],
      "name": "isApprovedForAll",
      "outputs": [
        {
          "internalType": "bool",
          "name": "",
          "type": "bool"
        }
      ],
      "stateMutability": "view",
      "type": "function"
    },
    {
      "inputs": [
        {
          "internalType": "address",
          "name": "to",
          "type": "address"
        }
      ],
      "name": "mint",
      "outputs": [],
      "stateMutability": "nonpayable",
      "type": "function"
    },
    {
      "inputs": [],
      "name": "name",
      "outputs": [
        {
          "internalType": "string",
          "name": "",
          "type": "string"
        }
      ],
      "stateMutability": "view",
      "type": "function"
    },
    {
      "inputs": [],
      "name": "owner",
      "outputs": [
        {
          "internalType": "address",
          "name": "",
          "type": "address"
        }
      ],
      "stateMutability": "view",
      "type": "function"
    },
    {
      "inputs": [
        {
          "internalType": "uint256",
          "name": "tokenId",
          "type": "uint256"
        }
      ],
      "name": "ownerOf",
      "outputs": [
        {
          "internalType": "address",
          "name": "",
          "type": "address"
        }
      ],
      "stateMutability": "view",
      "type": "function"
    },
    {
      "inputs": [],
      "name": "renounceOwnership",
      "outputs": [],
      "stateMutability": "nonpayable",
      "type": "function"
    },
    {
      "inputs": [
        {
          "internalType": "address",
          "name": "from",
          "type": "address"
        },
        {
          "internalType": "address",
          "name": "to",
          "type": "address"
        },
        {
          "internalType": "uint256",
          "name": "tokenId",
          "type": "uint256"
        }
      ],
      "name": "safeTransferFrom",
      "outputs": [],
      "stateMutability": "nonpayable",
      "type": "function"
    },
    {
      "inputs": [
        {
          "internalType": "address",
          "name": "from",
          "type": "address"
        },
        {
          "internalType": "address",
          "name": "to",
          "type": "address"
        },
        {
          "internalType": "uint256",
          "name": "tokenId",
          "type": "uint256"
        },
        {
          "internalType": "bytes",
          "name": "data",
          "type": "bytes"
        }
      ],
      "name": "safeTransferFrom",
      "outputs": [],
      "stateMutability": "nonpayable",
      "type": "function"
    },
    {
      "inputs": [
        {
          "internalType": "address",
          "name": "operator",
          "type": "address"
        },
        {
          "internalType": "bool",
          "name": "approved",
          "type": "bool"
        }
      ],
      "name": "setApprovalForAll",
      "outputs": [],
      "stateMutability": "nonpayable",
      "type": "function"
    },
    {
      "inputs": [
        {
          "internalType": "bytes4",
          "name": "interfaceId",
          "type": "bytes4"
        }
      ],
      "name": "supportsInterface",
      "outputs": [
        {
          "internalType": "bool",
          "name": "",
          "type": "bool"
        }
      ],
      "stateMutability": "view",
      "type": "function"
    },
    {
      "inputs": [],
      "name": "symbol",
      "outputs": [
        {
          "internalType": "string",
          "name": "",
          "type": "string"
        }
      ],
      "stateMutability": "view",
      "type": "function"
    },
    {
      "inputs": [
        {
          "internalType": "uint256",
          "name": "tokenId",
          "type": "uint256"
        }
      ],
      "name": "tokenURI",
      "outputs": [
        {
          "internalType": "string",
          "name": "",
          "type": "string"
        }
      ],
      "stateMutability": "view",
      "type": "function"
    },
    {
      "inputs": [
        {
          "internalType": "address",
          "name": "from",
          "type": "address"
        },
        {
          "internalType": "address",
          "name": "to",
          "type": "address"
        },
        {
          "internalType": "uint256",
          "name": "tokenId",
          "type": "uint256"
        }
      ],
      "name": "transferFrom",
      "outputs": [],
      "stateMutability": "nonpayable",
      "type": "function"
    },
    {
      "inputs": [
        {
          "internalType": "address",
          "name": "newOwner",
          "type": "address"
        }
      ],
      "name": "transferOwnership",
      "outputs": [],
      "stateMutability": "nonpayable",
      "type": "function"
    }
  ],
  "bytecode": "0x6000600781905563075bcd156080908152606460a052600160c05260e082905260056101005267112210f47de98115610120526101408290526101608290526101e091825261018091909152600261020081815261026060409081526101a092906102209080368337505050815260408051600081526020808201835292830152825160089081558383015160095590830151600a556060830151600b556080830151600c5560a0830151600d5560c0830151600e5560e0830151600f5561010083015180519192620000d99260109290910190620002d0565b506101208201518051620000f8916009840191602090910190620002d0565b5061014082015180516200011791600a840191602090910190620002d0565b5050503480156200012757600080fd5b5060405162001eed38038062001eed8339810160408190526200014a91620003ff565b818160006200015a8382620004fa565b506001620001698282620004fa565b50505062000186620001806200019960201b60201c565b6200019d565b6200019133620001ef565b5050620005c6565b3390565b600680546001600160a01b038381166001600160a01b0319831681179093556040519116919082907f8be0079c531659141344cd1fd0a4f28419497f9722a3daafe3b4186f6b6457e090600090a35050565b620001f962000272565b6001600160a01b038116620002645760405162461bcd60e51b815260206004820152602660248201527f4f776e61626c653a206e6577206f776e657220697320746865207a65726f206160448201526564647265737360d01b60648201526084015b60405180910390fd5b6200026f816200019d565b50565b6006546001600160a01b03163314620002ce5760405162461bcd60e51b815260206004820181905260248201527f4f776e61626c653a2063616c6c6572206973206e6f7420746865206f776e657260448201526064016200025b565b565b8280548282559060005260206000209081019282156200030e579160200282015b828111156200030e578251825591602001919060010190620002f1565b506200031c92915062000320565b5090565b5b808211156200031c576000815560010162000321565b634e487b7160e01b600052604160045260246000fd5b600082601f8301126200035f57600080fd5b81516001600160401b03808211156200037c576200037c62000337565b604051601f8301601f19908116603f01168101908282118183101715620003a757620003a762000337565b8160405283815260209250866020858801011115620003c557600080fd5b600091505b83821015620003e95785820183015181830184015290820190620003ca565b6000602085830101528094505050505092915050565b600080604083850312156200041357600080fd5b82516001600160401b03808211156200042b57600080fd5b62000439868387016200034d565b935060208501519150808211156200045057600080fd5b506200045f858286016200034d565b9150509250929050565b600181811c908216806200047e57607f821691505b6020821081036200049f57634e487b7160e01b600052602260045260246000fd5b50919050565b601f821115620004f5576000816000526020600020601f850160051c81016020861015620004d05750805b601f850160051c820191505b81811015620004f157828155600101620004dc565b5050505b505050565b81516001600160401b0381111562000516576200051662000337565b6200052e8162000527845462000469565b84620004a5565b602080601f8311600181146200056657600084156200054d5750858301515b600019600386901b1c1916600185901b178555620004f1565b600085815260208120601f198616915b82811015620005975788860151825594840194600190910190840162000576565b5085821015620005b65787850151600019600388901b60f8161c191681555b5050505050600190811b01905550565b61191780620005d66000396000f3fe608060405234801561001057600080fd5b50600436106101015760003560e01c806370a082311161009d57806370a08231146101e1578063715018a6146101f45780638da5cb5b146101fc57806395d89b411461020d578063a22cb46514610215578063b88d4fde14610228578063c87b56dd1461023b578063dc9ce7a51461024e578063e985e9c51461026f578063f2fde38b1461028257600080fd5b806301ffc9a71461010657806306fdde031461012e578063081812fc14610143578063095ea7b31461016e57806323b872dd1461018357806342842e0e1461019657806356189236146101a95780636352211e146101bb5780636a627842146101ce575b600080fd5b6101196101143660046112c8565b610295565b60405190151581526020015b60405180910390f35b6101366102e7565b6040516101259190611335565b610156610151366004611348565b610379565b6040516001600160a01b039091168152602001610125565b61018161017c36600461137d565b6103a0565b005b6101816101913660046113a7565b6104b7565b6101816101a43660046113a7565b6104ed565b6007545b604051908152602001610125565b6101566101c9366004611348565b610508565b6101816101dc3660046113e3565b61053c565b6101ad6101ef3660046113e3565b610567565b6101816105ed565b6006546001600160a01b0316610156565b610136610601565b6101816102233660046113fe565b610610565b610181610236366004611450565b610642565b610136610249366004611348565b6106bd565b61026161025c366004611348565b610731565b604051610125929190611568565b61011961027d366004611634565b61093c565b6101816102903660046113e3565b61096a565b60006001600160e01b031982166380ac58cd60e01b14806102c657506001600160e01b03198216635b5e139f60e01b145b806102e157506301ffc9a760e01b6001600160e01b03198316145b92915050565b6060600080546102f690611667565b80601f016020809104026020016040519081016040528092919081815260200182805461032290611667565b801561036f5780601f106103445761010080835404028352916020019161036f565b820191906000526020600020905b81548152906001019060200180831161035257829003601f168201915b5050505050905090565b6000610384826109e3565b506000908152600460205260409020546001600160a01b031690565b6103a981610a08565b61040f5760405162461bcd60e51b815260206004820152602c60248201527f4552433732313a20617070726f76616c20717565727920666f72206e6f6e657860448201526b34b9ba32b73a103a37b5b2b760a11b60648201526084015b60405180910390fd5b3361041982610508565b6001600160a01b0316148061043b575061043b61043582610508565b3361093c565b6104a95760405162461bcd60e51b815260206004820152603960248201527f4552433732313a20617070726f76652063616c6c6572206973206e6f74206f776044820152786e6572206e6f7220617070726f76656420666f7220616c6c2160381b6064820152608401610406565b6104b38282610a25565b5050565b6104c13382610b35565b6104dd5760405162461bcd60e51b8152600401610406906116a1565b6104e8838383610b94565b505050565b6104e883838360405180602001604052806000815250610642565b60008061051483610cf8565b90506001600160a01b0381166102e15760405162461bcd60e51b8152600401610406906116ee565b610544610d13565b600060075460016105559190611720565b90506105618282610d6d565b60075550565b60006001600160a01b0382166105d15760405162461bcd60e51b815260206004820152602960248201527f4552433732313a2061646472657373207a65726f206973206e6f7420612076616044820152683634b21037bbb732b960b91b6064820152608401610406565b506001600160a01b031660009081526003602052604090205490565b6105f5610d13565b6105ff6000610e7a565b565b6060600180546102f690611667565b336001600160a01b038316036106385760405162461bcd60e51b815260040161040690611741565b6104b38282610ecc565b826001600160a01b03167fb515f8464a2e9f92f223836cb4d97889b194249a3f5a6bae6b346c6b0ac8fd55836040516106a391906040808252600b908201526a39b2b73a103a37b5b2b71d60a91b6060820152602081019190915260800190565b60405180910390a26106b784848484610ed7565b50505050565b60606106c8826109e3565b60006106df60408051602081019091526000815290565b905060008151116106ff576040518060200160405280600081525061072a565b8061070984610f09565b60405160200161071a929190611774565b6040516020818303038152906040525b9392505050565b61078e60405180610160016040528060008152602001600081526020016000815260200160008152602001600081526020016000815260200160008152602001600081526020016060815260200160608152602001606081525090565b6000600b60086009016000815481106107a9576107a96117a3565b9060005260206000200181905550600c60086009016001815481106107d0576107d06117a3565b60009182526020918290200191909155604080516101608101825260088054825260095482850152600a5482840152600b546060830152600c546080830152600d5460a0830152600e5460c0830152600f5460e08301526010805484518187028101870190955280855291946001948693610100860193919283018282801561087857602002820191906000526020600020905b815481526020019060010190808311610864575b50505050508152602001600982018054806020026020016040519081016040528092919081815260200182805480156108d057602002820191906000526020600020905b8154815260200190600101908083116108bc575b50505050508152602001600a820180548060200260200160405190810160405280929190818152602001828054801561092857602002820191906000526020600020905b815481526020019060010190808311610914575b505050505081525050915091509150915091565b6001600160a01b03918216600090815260056020908152604080832093909416825291909152205460ff1690565b610972610d13565b6001600160a01b0381166109d75760405162461bcd60e51b815260206004820152602660248201527f4f776e61626c653a206e6577206f776e657220697320746865207a65726f206160448201526564647265737360d01b6064820152608401610406565b6109e081610e7a565b50565b6109ec81610a08565b6109e05760405162461bcd60e51b8152600401610406906116ee565b600080610a1483610cf8565b6001600160a01b0316141592915050565b6000610a3082610508565b9050806001600160a01b0316836001600160a01b031603610a9d5760405162461bcd60e51b815260206004820152602160248201527f4552433732313a20617070726f76616c20746f2063757272656e74206f776e656044820152603960f91b6064820152608401610406565b336001600160a01b0382161480610ab95750610ab9813361093c565b610b2b5760405162461bcd60e51b815260206004820152603d60248201527f4552433732313a20617070726f76652063616c6c6572206973206e6f7420746f60448201527f6b656e206f776e6572206f7220617070726f76656420666f7220616c6c0000006064820152608401610406565b6104e88383610f9c565b600080610b4183610508565b9050806001600160a01b0316846001600160a01b03161480610b685750610b68818561093c565b80610b8c5750836001600160a01b0316610b8184610379565b6001600160a01b0316145b949350505050565b826001600160a01b0316610ba782610508565b6001600160a01b031614610bcd5760405162461bcd60e51b8152600401610406906117b9565b6001600160a01b038216610c2f5760405162461bcd60e51b8152602060048201526024808201527f4552433732313a207472616e7366657220746f20746865207a65726f206164646044820152637265737360e01b6064820152608401610406565b826001600160a01b0316610c4282610508565b6001600160a01b031614610c685760405162461bcd60e51b8152600401610406906117b9565b600081815260046020908152604080832080546001600160a01b03199081169091556001600160a01b0387811680865260038552838620805460001901905590871680865283862080546001019055868652600290945282852080549092168417909155905184937fddf252ad1be2c89b69c2b068fc378daa952ba7f163c4a11628f55a4df523b3ef91a4505050565b6000908152600260205260409020546001600160a01b031690565b6006546001600160a01b031633146105ff5760405162461bcd60e51b815260206004820181905260248201527f4f776e61626c653a2063616c6c6572206973206e6f7420746865206f776e65726044820152606401610406565b6001600160a01b038216610dc35760405162461bcd60e51b815260206004820181905260248201527f4552433732313a206d696e7420746f20746865207a65726f20616464726573736044820152606401610406565b610dcc81610a08565b15610de95760405162461bcd60e51b8152600401610406906117fe565b610df281610a08565b15610e0f5760405162461bcd60e51b8152600401610406906117fe565b6001600160a01b038216600081815260036020908152604080832080546001019055848352600290915280822080546001600160a01b0319168417905551839291907fddf252ad1be2c89b69c2b068fc378daa952ba7f163c4a11628f55a4df523b3ef908290a45050565b600680546001600160a01b038381166001600160a01b0319831681179093556040519116919082907f8be0079c531659141344cd1fd0a4f28419497f9722a3daafe3b4186f6b6457e090600090a35050565b6104b333838361100a565b610ee13383610b35565b610efd5760405162461bcd60e51b8152600401610406906116a1565b6106b7848484846110a8565b60606000610f16836110db565b600101905060008167ffffffffffffffff811115610f3657610f3661143a565b6040519080825280601f01601f191660200182016040528015610f60576020820181803683370190505b5090508181016020015b600019016f181899199a1a9b1b9c1cb0b131b232b360811b600a86061a8153600a8504945084610f6a57509392505050565b600081815260046020526040902080546001600160a01b0319166001600160a01b0384169081179091558190610fd182610508565b6001600160a01b03167f8c5be1e5ebec7d5bd14f71427d1e84f3dd0314c0f7b2291e5b200ac8c7c3b92560405160405180910390a45050565b816001600160a01b0316836001600160a01b03160361103b5760405162461bcd60e51b815260040161040690611741565b6001600160a01b03838116600081815260056020908152604080832094871680845294825291829020805460ff191686151590811790915591519182527f17307eab39ab6107e8899845ad3d59bd9653f200f220920489ca2b5937696c31910160405180910390a3505050565b6110b3848484610b94565b6110bf848484846111b1565b6106b75760405162461bcd60e51b815260040161040690611835565b60008072184f03e93ff9f4daa797ed6e38ed64bf6a1f0160401b831061111a5772184f03e93ff9f4daa797ed6e38ed64bf6a1f0160401b830492506040015b6904ee2d6d415b85acef8160201b8310611144576904ee2d6d415b85acef8160201b830492506020015b662386f26fc10000831061116257662386f26fc10000830492506010015b6305f5e100831061117a576305f5e100830492506008015b612710831061118e57612710830492506004015b606483106111a0576064830492506002015b600a83106102e15760010192915050565b60006001600160a01b0384163b156112a757604051630a85bd0160e11b81526001600160a01b0385169063150b7a02906111f5903390899088908890600401611887565b6020604051808303816000875af1925050508015611230575060408051601f3d908101601f1916820190925261122d918101906118c4565b60015b61128d573d80801561125e576040519150601f19603f3d011682016040523d82523d6000602084013e611263565b606091505b5080516000036112855760405162461bcd60e51b815260040161040690611835565b805181602001fd5b6001600160e01b031916630a85bd0160e11b149050610b8c565b506001949350505050565b6001600160e01b0319811681146109e057600080fd5b6000602082840312156112da57600080fd5b813561072a816112b2565b60005b838110156113005781810151838201526020016112e8565b50506000910152565b600081518084526113218160208601602086016112e5565b601f01601f19169290920160200192915050565b60208152600061072a6020830184611309565b60006020828403121561135a57600080fd5b5035919050565b80356001600160a01b038116811461137857600080fd5b919050565b6000806040838503121561139057600080fd5b61139983611361565b946020939093013593505050565b6000806000606084860312156113bc57600080fd5b6113c584611361565b92506113d360208501611361565b9150604084013590509250925092565b6000602082840312156113f557600080fd5b61072a82611361565b6000806040838503121561141157600080fd5b61141a83611361565b91506020830135801515811461142f57600080fd5b809150509250929050565b634e487b7160e01b600052604160045260246000fd5b6000806000806080858703121561146657600080fd5b61146f85611361565b935061147d60208601611361565b925060408501359150606085013567ffffffffffffffff808211156114a157600080fd5b818701915087601f8301126114b557600080fd5b8135818111156114c7576114c761143a565b604051601f8201601f19908116603f011681019083821181831017156114ef576114ef61143a565b816040528281528a602084870101111561150857600080fd5b82602086016020830137600060208483010152809550505050505092959194509250565b60008151808452602080850194506020840160005b8381101561155d57815187529582019590820190600101611541565b509495945050505050565b60408152825160408201526020830151606082015260408301516080820152606083015160a0820152608083015160c082015260a083015160e0820152600060c0840151610100818185015260e086015191506101208281860152818701519250610160915061014082818701526115e46101a087018561152c565b9350818801519150603f19808786030184880152611602858461152c565b94508189015193508087860301610180880152505050611622828261152c565b9250505061072a602083018415159052565b6000806040838503121561164757600080fd5b61165083611361565b915061165e60208401611361565b90509250929050565b600181811c9082168061167b57607f821691505b60208210810361169b57634e487b7160e01b600052602260045260246000fd5b50919050565b6020808252602d908201527f4552433732313a2063616c6c6572206973206e6f7420746f6b656e206f776e6560408201526c1c881bdc88185c1c1c9bdd9959609a1b606082015260800190565b602080825260189082015277115490cdcc8c4e881a5b9d985b1a59081d1bdad95b88125160421b604082015260600190565b808201808211156102e157634e487b7160e01b600052601160045260246000fd5b60208082526019908201527822a9219b99189d1030b8383937bb32903a379031b0b63632b960391b604082015260600190565b600083516117868184602088016112e5565b83519083019061179a8183602088016112e5565b01949350505050565b634e487b7160e01b600052603260045260246000fd5b60208082526025908201527f4552433732313a207472616e736665722066726f6d20696e636f72726563742060408201526437bbb732b960d91b606082015260800190565b6020808252601c908201527f4552433732313a20746f6b656e20616c7265616479206d696e74656400000000604082015260600190565b60208082526032908201527f4552433732313a207472616e7366657220746f206e6f6e20455243373231526560408201527131b2b4bb32b91034b6b83632b6b2b73a32b960711b606082015260800190565b6001600160a01b03858116825284166020820152604081018390526080606082018190526000906118ba90830184611309565b9695505050505050565b6000602082840312156118d657600080fd5b815161072a816112b256fea2646970667358221220e4cb9c85a6e58827a6ec91919c8825fb9ac15573fcc0731bc90bcf197ddf563264736f6c63430008180033",
  "linkReferences": {},
  "deployedLinkReferences": {}
}