{
  "address": "0x5bF8fFfDdDFF91603b59b4033C3bBD923195088d",
  "abi": [
    {
      "inputs": [],
      "name": "Unauthorized",
      "type": "error"
    },
    {
      "anonymous": false,
      "inputs": [
        {
          "indexed": false,
          "internalType": "address",
          "name": "previousAdmin",
          "type": "address"
        },
        {
          "indexed": false,
          "internalType": "address",
          "name": "newAdmin",
          "type": "address"
        }
      ],
      "name": "AdminChanged",
      "type": "event"
    },
    {
      "anonymous": false,
      "inputs": [
        {
          "indexed": true,
          "internalType": "address",
          "name": "owner",
          "type": "address"
        },
        {
          "indexed": true,
          "internalType": "address",
          "name": "spender",
          "type": "address"
        },
        {
          "indexed": false,
          "internalType": "uint256",
          "name": "value",
          "type": "uint256"
        }
      ],
      "name": "Approval",
      "type": "event"
    },
    {
      "anonymous": false,
      "inputs": [
        {
          "indexed": true,
          "internalType": "address",
          "name": "beacon",
          "type": "address"
        }
      ],
      "name": "BeaconUpgraded",
      "type": "event"
    },
    {
      "anonymous": false,
      "inputs": [
        {
          "indexed": false,
          "internalType": "address",
          "name": "sentToUser",
          "type": "address"
        },
        {
          "indexed": false,
          "internalType": "address",
          "name": "token",
          "type": "address"
        },
        {
          "indexed": false,
          "internalType": "uint256",
          "name": "tokenId",
          "type": "uint256"
        },
        {
          "indexed": false,
          "internalType": "bool",
          "name": "success",
          "type": "bool"
        }
      ],
      "name": "DeClaimedAPlanet",
      "type": "event"
    },
    {
      "anonymous": false,
      "inputs": [
        {
          "indexed": false,
          "internalType": "address",
          "name": "sentToUser",
          "type": "address"
        },
        {
          "indexed": false,
          "internalType": "address",
          "name": "token",
          "type": "address"
        },
        {
          "indexed": false,
          "internalType": "uint256",
          "name": "tokenId",
          "type": "uint256"
        },
        {
          "indexed": false,
          "internalType": "bool",
          "name": "success",
          "type": "bool"
        }
      ],
      "name": "DeListedAPlanet",
      "type": "event"
    },
    {
      "anonymous": false,
      "inputs": [],
      "name": "EIP712DomainChanged",
      "type": "event"
    },
    {
      "anonymous": false,
      "inputs": [
        {
          "indexed": true,
          "internalType": "contract IERC20Upgradeable",
          "name": "token",
          "type": "address"
        },
        {
          "indexed": false,
          "internalType": "address",
          "name": "to",
          "type": "address"
        },
        {
          "indexed": false,
          "internalType": "uint256",
          "name": "amount",
          "type": "uint256"
        }
      ],
      "name": "ERC20PaymentReleased",
      "type": "event"
    },
    {
      "anonymous": false,
      "inputs": [
        {
          "indexed": false,
          "internalType": "uint8",
          "name": "version",
          "type": "uint8"
        }
      ],
      "name": "Initialized",
      "type": "event"
    },
    {
      "anonymous": false,
      "inputs": [
        {
          "indexed": false,
          "internalType": "address",
          "name": "sentFromUser",
          "type": "address"
        },
        {
          "indexed": false,
          "internalType": "address",
          "name": "token",
          "type": "address"
        },
        {
          "indexed": false,
          "internalType": "uint256",
          "name": "tokenId",
          "type": "uint256"
        },
        {
          "indexed": false,
          "internalType": "uint256",
          "name": "price",
          "type": "uint256"
        }
      ],
      "name": "ListedAPlanet",
      "type": "event"
    },
    {
      "anonymous": false,
      "inputs": [
        {
          "indexed": false,
          "internalType": "address",
          "name": "operator",
          "type": "address"
        },
        {
          "indexed": false,
          "internalType": "address",
          "name": "from",
          "type": "address"
        },
        {
          "indexed": false,
          "internalType": "uint256",
          "name": "tokenId",
          "type": "uint256"
        },
        {
          "indexed": false,
          "internalType": "bytes",
          "name": "data",
          "type": "bytes"
        },
        {
          "indexed": false,
          "internalType": "string",
          "name": "typeOfReceival",
          "type": "string"
        }
      ],
      "name": "NftReceived",
      "type": "event"
    },
    {
      "anonymous": false,
      "inputs": [
        {
          "indexed": false,
          "internalType": "address",
          "name": "parentA",
          "type": "address"
        },
        {
          "indexed": false,
          "internalType": "address",
          "name": "parentB",
          "type": "address"
        },
        {
          "indexed": false,
          "internalType": "uint256",
          "name": "tokenIdA",
          "type": "uint256"
        },
        {
          "indexed": false,
          "internalType": "uint256",
          "name": "tokenIdB",
          "type": "uint256"
        },
        {
          "indexed": false,
          "internalType": "uint256",
          "name": "newTokenId",
          "type": "uint256"
        },
        {
          "indexed": false,
          "internalType": "bool",
          "name": "found",
          "type": "bool"
        }
      ],
      "name": "Orphaning",
      "type": "event"
    },
    {
      "anonymous": false,
      "inputs": [
        {
          "indexed": true,
          "internalType": "address",
          "name": "previousOwner",
          "type": "address"
        },
        {
          "indexed": true,
          "internalType": "address",
          "name": "newOwner",
          "type": "address"
        }
      ],
      "name": "OwnershipTransferred",
      "type": "event"
    },
    {
      "anonymous": false,
      "inputs": [
        {
          "indexed": false,
          "internalType": "address",
          "name": "account",
          "type": "address"
        }
      ],
      "name": "Paused",
      "type": "event"
    },
    {
      "anonymous": false,
      "inputs": [
        {
          "indexed": false,
          "internalType": "address",
          "name": "account",
          "type": "address"
        },
        {
          "indexed": false,
          "internalType": "uint256",
          "name": "shares",
          "type": "uint256"
        }
      ],
      "name": "PayeeAdded",
      "type": "event"
    },
    {
      "anonymous": false,
      "inputs": [
        {
          "indexed": false,
          "internalType": "address",
          "name": "from",
          "type": "address"
        },
        {
          "indexed": false,
          "internalType": "uint256",
          "name": "amount",
          "type": "uint256"
        }
      ],
      "name": "PaymentReceived",
      "type": "event"
    },
    {
      "anonymous": false,
      "inputs": [
        {
          "indexed": false,
          "internalType": "address",
          "name": "to",
          "type": "address"
        },
        {
          "indexed": false,
          "internalType": "uint256",
          "name": "amount",
          "type": "uint256"
        }
      ],
      "name": "PaymentReleased",
      "type": "event"
    },
    {
      "anonymous": false,
      "inputs": [
        {
          "indexed": false,
          "internalType": "uint256",
          "name": "planetAsking",
          "type": "uint256"
        },
        {
          "indexed": false,
          "internalType": "address",
          "name": "askingUser",
          "type": "address"
        },
        {
          "indexed": false,
          "internalType": "uint256",
          "name": "planetJoining",
          "type": "uint256"
        },
        {
          "indexed": false,
          "internalType": "address",
          "name": "joiningUser",
          "type": "address"
        }
      ],
      "name": "PlanetsConjoining",
      "type": "event"
    },
    {
      "anonymous": false,
      "inputs": [
        {
          "indexed": true,
          "internalType": "address",
          "name": "from",
          "type": "address"
        },
        {
          "indexed": true,
          "internalType": "address",
          "name": "to",
          "type": "address"
        },
        {
          "indexed": false,
          "internalType": "uint256",
          "name": "value",
          "type": "uint256"
        }
      ],
      "name": "Transfer",
      "type": "event"
    },
    {
      "anonymous": false,
      "inputs": [
        {
          "indexed": false,
          "internalType": "address",
          "name": "account",
          "type": "address"
        }
      ],
      "name": "Unpaused",
      "type": "event"
    },
    {
      "anonymous": false,
      "inputs": [
        {
          "indexed": true,
          "internalType": "address",
          "name": "implementation",
          "type": "address"
        }
      ],
      "name": "Upgraded",
      "type": "event"
    },
    {
      "stateMutability": "payable",
      "type": "fallback"
    },
    {
      "inputs": [],
      "name": "DOMAIN_SEPARATOR",
      "outputs": [
        {
          "internalType": "bytes32",
          "name": "",
          "type": "bytes32"
        }
      ],
      "stateMutability": "view",
      "type": "function"
    },
    {
      "inputs": [
        {
          "internalType": "address",
          "name": "owner",
          "type": "address"
        },
        {
          "internalType": "address",
          "name": "spender",
          "type": "address"
        }
      ],
      "name": "allowance",
      "outputs": [
        {
          "internalType": "uint256",
          "name": "",
          "type": "uint256"
        }
      ],
      "stateMutability": "view",
      "type": "function"
    },
    {
      "inputs": [
        {
          "internalType": "address",
          "name": "spender",
          "type": "address"
        },
        {
          "internalType": "uint256",
          "name": "amount",
          "type": "uint256"
        }
      ],
      "name": "approve",
      "outputs": [
        {
          "internalType": "bool",
          "name": "",
          "type": "bool"
        }
      ],
      "stateMutability": "nonpayable",
      "type": "function"
    },
    {
      "inputs": [
        {
          "internalType": "contract IERC721",
          "name": "token",
          "type": "address"
        },
        {
          "internalType": "address",
          "name": "operator",
          "type": "address"
        }
      ],
      "name": "approveAllERC721Tokens",
      "outputs": [],
      "stateMutability": "nonpayable",
      "type": "function"
    },
    {
      "inputs": [
        {
          "internalType": "contract IERC20",
          "name": "token",
          "type": "address"
        },
        {
          "internalType": "address",
          "name": "spender",
          "type": "address"
        },
        {
          "internalType": "uint256",
          "name": "amount",
          "type": "uint256"
        }
      ],
      "name": "approveERC20",
      "outputs": [],
      "stateMutability": "nonpayable",
      "type": "function"
    },
    {
      "inputs": [
        {
          "internalType": "address",
          "name": "account",
          "type": "address"
        }
      ],
      "name": "balanceOf",
      "outputs": [
        {
          "internalType": "uint256",
          "name": "",
          "type": "uint256"
        }
      ],
      "stateMutability": "view",
      "type": "function"
    },
    {
      "inputs": [],
      "name": "breedContract",
      "outputs": [
        {
          "internalType": "contract IBreedContract",
          "name": "",
          "type": "address"
        }
      ],
      "stateMutability": "view",
      "type": "function"
    },
    {
      "inputs": [
        {
          "internalType": "uint256",
          "name": "newVRF",
          "type": "uint256"
        }
      ],
      "name": "changeVRFValue",
      "outputs": [],
      "stateMutability": "nonpayable",
      "type": "function"
    },
    {
      "inputs": [
        {
          "internalType": "address",
          "name": "owner",
          "type": "address"
        },
        {
          "internalType": "address",
          "name": "operator",
          "type": "address"
        }
      ],
      "name": "checkApprovalForAll",
      "outputs": [
        {
          "internalType": "bool",
          "name": "",
          "type": "bool"
        }
      ],
      "stateMutability": "view",
      "type": "function"
    },
    {
      "inputs": [
        {
          "internalType": "uint256",
          "name": "claimableTokenId",
          "type": "uint256"
        }
      ],
      "name": "claimPlanet",
      "outputs": [],
      "stateMutability": "nonpayable",
      "type": "function"
    },
    {
      "inputs": [
        {
          "internalType": "address",
          "name": "",
          "type": "address"
        },
        {
          "internalType": "uint256",
          "name": "",
          "type": "uint256"
        }
      ],
      "name": "claimablePlanets",
      "outputs": [
        {
          "internalType": "address",
          "name": "ownerParentAddress",
          "type": "address"
        },
        {
          "internalType": "uint256",
          "name": "ownerTokenId",
          "type": "uint256"
        },
        {
          "internalType": "bool",
          "name": "delivered",
          "type": "bool"
        },
        {
          "internalType": "bool",
          "name": "arrived",
          "type": "bool"
        },
        {
          "internalType": "address",
          "name": "otherParent",
          "type": "address"
        },
        {
          "internalType": "uint256",
          "name": "otherTokenId",
          "type": "uint256"
        },
        {
          "internalType": "uint256",
          "name": "claimsTokenId",
          "type": "uint256"
        }
      ],
      "stateMutability": "view",
      "type": "function"
    },
    {
      "inputs": [
        {
          "internalType": "uint256",
          "name": "yourPlanet",
          "type": "uint256"
        },
        {
          "internalType": "uint256",
          "name": "withListedPlanet",
          "type": "uint256"
        }
      ],
      "name": "conjunct",
      "outputs": [],
      "stateMutability": "payable",
      "type": "function"
    },
    {
      "inputs": [
        {
          "internalType": "uint256",
          "name": "",
          "type": "uint256"
        }
      ],
      "name": "conjunctingTokenIdToOwnerAddr",
      "outputs": [
        {
          "internalType": "address",
          "name": "",
          "type": "address"
        }
      ],
      "stateMutability": "view",
      "type": "function"
    },
    {
      "inputs": [
        {
          "internalType": "uint256",
          "name": "idIndex",
          "type": "uint256"
        },
        {
          "internalType": "uint256",
          "name": "tokenId",
          "type": "uint256"
        }
      ],
      "name": "deList",
      "outputs": [],
      "stateMutability": "nonpayable",
      "type": "function"
    },
    {
      "inputs": [],
      "name": "deListAllYourPlanets",
      "outputs": [],
      "stateMutability": "nonpayable",
      "type": "function"
    },
    {
      "inputs": [],
      "name": "decimals",
      "outputs": [
        {
          "internalType": "uint8",
          "name": "",
          "type": "uint8"
        }
      ],
      "stateMutability": "view",
      "type": "function"
    },
    {
      "inputs": [
        {
          "internalType": "address",
          "name": "spender",
          "type": "address"
        },
        {
          "internalType": "uint256",
          "name": "subtractedValue",
          "type": "uint256"
        }
      ],
      "name": "decreaseAllowance",
      "outputs": [
        {
          "internalType": "bool",
          "name": "",
          "type": "bool"
        }
      ],
      "stateMutability": "nonpayable",
      "type": "function"
    },
    {
      "inputs": [],
      "name": "eip712Domain",
      "outputs": [
        {
          "internalType": "bytes1",
          "name": "fields",
          "type": "bytes1"
        },
        {
          "internalType": "string",
          "name": "name",
          "type": "string"
        },
        {
          "internalType": "string",
          "name": "version",
          "type": "string"
        },
        {
          "internalType": "uint256",
          "name": "chainId",
          "type": "uint256"
        },
        {
          "internalType": "address",
          "name": "verifyingContract",
          "type": "address"
        },
        {
          "internalType": "bytes32",
          "name": "salt",
          "type": "bytes32"
        },
        {
          "internalType": "uint256[]",
          "name": "extensions",
          "type": "uint256[]"
        }
      ],
      "stateMutability": "view",
      "type": "function"
    },
    {
      "inputs": [],
      "name": "getAllPlanets",
      "outputs": [
        {
          "components": [
            {
              "internalType": "uint256",
              "name": "tokenId",
              "type": "uint256"
            },
            {
              "internalType": "uint256",
              "name": "price",
              "type": "uint256"
            },
            {
              "internalType": "address",
              "name": "ownerAddress",
              "type": "address"
            },
            {
              "internalType": "bool",
              "name": "active",
              "type": "bool"
            }
          ],
          "internalType": "struct ListedPlanet[]",
          "name": "",
          "type": "tuple[]"
        }
      ],
      "stateMutability": "view",
      "type": "function"
    },
    {
      "inputs": [
        {
          "internalType": "address",
          "name": "userAddr",
          "type": "address"
        }
      ],
      "name": "getClaimablePlanetsFor",
      "outputs": [
        {
          "components": [
            {
              "internalType": "address",
              "name": "ownerParentAddress",
              "type": "address"
            },
            {
              "internalType": "uint256",
              "name": "ownerTokenId",
              "type": "uint256"
            },
            {
              "internalType": "bool",
              "name": "delivered",
              "type": "bool"
            },
            {
              "internalType": "bool",
              "name": "arrived",
              "type": "bool"
            },
            {
              "internalType": "address",
              "name": "otherParent",
              "type": "address"
            },
            {
              "internalType": "uint256",
              "name": "otherTokenId",
              "type": "uint256"
            },
            {
              "internalType": "uint256",
              "name": "claimsTokenId",
              "type": "uint256"
            }
          ],
          "internalType": "struct ClaimablePlanet[]",
          "name": "",
          "type": "tuple[]"
        }
      ],
      "stateMutability": "view",
      "type": "function"
    },
    {
      "inputs": [
        {
          "internalType": "uint256",
          "name": "claimableTokenId",
          "type": "uint256"
        }
      ],
      "name": "getConjunctingTokenIdToOwnerAddr",
      "outputs": [
        {
          "internalType": "address",
          "name": "",
          "type": "address"
        }
      ],
      "stateMutability": "view",
      "type": "function"
    },
    {
      "inputs": [
        {
          "internalType": "uint256",
          "name": "listedTokenId",
          "type": "uint256"
        }
      ],
      "name": "getListedTokenIdToOwnerAddr",
      "outputs": [
        {
          "internalType": "address",
          "name": "",
          "type": "address"
        }
      ],
      "stateMutability": "view",
      "type": "function"
    },
    {
      "inputs": [
        {
          "internalType": "uint256",
          "name": "startIndex",
          "type": "uint256"
        },
        {
          "internalType": "uint256",
          "name": "endIndex",
          "type": "uint256"
        }
      ],
      "name": "getPlanetsPaginated",
      "outputs": [
        {
          "components": [
            {
              "internalType": "uint256",
              "name": "tokenId",
              "type": "uint256"
            },
            {
              "internalType": "uint256",
              "name": "price",
              "type": "uint256"
            },
            {
              "internalType": "address",
              "name": "ownerAddress",
              "type": "address"
            },
            {
              "internalType": "bool",
              "name": "active",
              "type": "bool"
            }
          ],
          "internalType": "struct ListedPlanet[]",
          "name": "",
          "type": "tuple[]"
        }
      ],
      "stateMutability": "view",
      "type": "function"
    },
    {
      "inputs": [
        {
          "internalType": "address",
          "name": "userAddr",
          "type": "address"
        }
      ],
      "name": "getuserToListedPlanets",
      "outputs": [
        {
          "components": [
            {
              "internalType": "uint256",
              "name": "tokenId",
              "type": "uint256"
            },
            {
              "internalType": "uint256",
              "name": "price",
              "type": "uint256"
            },
            {
              "internalType": "address",
              "name": "ownerAddress",
              "type": "address"
            },
            {
              "internalType": "bool",
              "name": "active",
              "type": "bool"
            }
          ],
          "internalType": "struct ListedPlanet[]",
          "name": "",
          "type": "tuple[]"
        }
      ],
      "stateMutability": "view",
      "type": "function"
    },
    {
      "inputs": [
        {
          "internalType": "address",
          "name": "owner",
          "type": "address"
        },
        {
          "internalType": "uint256",
          "name": "tokenId",
          "type": "uint256"
        }
      ],
      "name": "hasPlanetArrived",
      "outputs": [
        {
          "internalType": "bool",
          "name": "arrived",
          "type": "bool"
        }
      ],
      "stateMutability": "view",
      "type": "function"
    },
    {
      "inputs": [
        {
          "internalType": "address",
          "name": "owner",
          "type": "address"
        },
        {
          "internalType": "uint256",
          "name": "tokenId",
          "type": "uint256"
        }
      ],
      "name": "hasPlanetBeenDelivered",
      "outputs": [
        {
          "internalType": "bool",
          "name": "delivered",
          "type": "bool"
        }
      ],
      "stateMutability": "view",
      "type": "function"
    },
    {
      "inputs": [
        {
          "internalType": "address",
          "name": "spender",
          "type": "address"
        },
        {
          "internalType": "uint256",
          "name": "addedValue",
          "type": "uint256"
        }
      ],
      "name": "increaseAllowance",
      "outputs": [
        {
          "internalType": "bool",
          "name": "",
          "type": "bool"
        }
      ],
      "stateMutability": "nonpayable",
      "type": "function"
    },
    {
      "inputs": [
        {
          "internalType": "address",
          "name": "initialOwner",
          "type": "address"
        }
      ],
      "name": "initialize",
      "outputs": [],
      "stateMutability": "nonpayable",
      "type": "function"
    },
    {
      "inputs": [],
      "name": "listAllYourPlanets",
      "outputs": [],
      "stateMutability": "nonpayable",
      "type": "function"
    },
    {
      "inputs": [
        {
          "internalType": "uint256",
          "name": "",
          "type": "uint256"
        }
      ],
      "name": "listedTokenIdToOwnerAddr",
      "outputs": [
        {
          "internalType": "address",
          "name": "",
          "type": "address"
        }
      ],
      "stateMutability": "view",
      "type": "function"
    },
    {
      "inputs": [],
      "name": "name",
      "outputs": [
        {
          "internalType": "string",
          "name": "",
          "type": "string"
        }
      ],
      "stateMutability": "view",
      "type": "function"
    },
    {
      "inputs": [
        {
          "internalType": "address",
          "name": "owner",
          "type": "address"
        }
      ],
      "name": "nonces",
      "outputs": [
        {
          "internalType": "uint256",
          "name": "",
          "type": "uint256"
        }
      ],
      "stateMutability": "view",
      "type": "function"
    },
    {
      "inputs": [
        {
          "internalType": "address",
          "name": "operator",
          "type": "address"
        },
        {
          "internalType": "address",
          "name": "from",
          "type": "address"
        },
        {
          "internalType": "uint256",
          "name": "tokenId",
          "type": "uint256"
        },
        {
          "internalType": "bytes",
          "name": "data",
          "type": "bytes"
        }
      ],
      "name": "onERC721Received",
      "outputs": [
        {
          "internalType": "bytes4",
          "name": "",
          "type": "bytes4"
        }
      ],
      "stateMutability": "nonpayable",
      "type": "function"
    },
    {
      "inputs": [
        {
          "internalType": "uint256",
          "name": "",
          "type": "uint256"
        },
        {
          "internalType": "uint256",
          "name": "",
          "type": "uint256"
        }
      ],
      "name": "orphanClaims",
      "outputs": [
        {
          "internalType": "address",
          "name": "ownerParentAddress",
          "type": "address"
        },
        {
          "internalType": "uint256",
          "name": "ownerTokenId",
          "type": "uint256"
        },
        {
          "internalType": "bool",
          "name": "delivered",
          "type": "bool"
        },
        {
          "internalType": "bool",
          "name": "arrived",
          "type": "bool"
        },
        {
          "internalType": "address",
          "name": "otherParent",
          "type": "address"
        },
        {
          "internalType": "uint256",
          "name": "otherTokenId",
          "type": "uint256"
        },
        {
          "internalType": "uint256",
          "name": "claimsTokenId",
          "type": "uint256"
        }
      ],
      "stateMutability": "view",
      "type": "function"
    },
    {
      "inputs": [],
      "name": "owner",
      "outputs": [
        {
          "internalType": "address",
          "name": "",
          "type": "address"
        }
      ],
      "stateMutability": "view",
      "type": "function"
    },
    {
      "inputs": [
        {
          "internalType": "uint256",
          "name": "claimableTokenId",
          "type": "uint256"
        },
        {
          "internalType": "address",
          "name": "sendToAddr",
          "type": "address"
        }
      ],
      "name": "ownerClaimPlanet",
      "outputs": [],
      "stateMutability": "nonpayable",
      "type": "function"
    },
    {
      "inputs": [
        {
          "internalType": "uint256",
          "name": "tokenId",
          "type": "uint256"
        },
        {
          "internalType": "address",
          "name": "destinationAddr",
          "type": "address"
        }
      ],
      "name": "ownerOverrideSendNFT",
      "outputs": [],
      "stateMutability": "nonpayable",
      "type": "function"
    },
    {
      "inputs": [],
      "name": "pause",
      "outputs": [],
      "stateMutability": "nonpayable",
      "type": "function"
    },
    {
      "inputs": [],
      "name": "paused",
      "outputs": [
        {
          "internalType": "bool",
          "name": "",
          "type": "bool"
        }
      ],
      "stateMutability": "view",
      "type": "function"
    },
    {
      "inputs": [
        {
          "internalType": "uint256",
          "name": "index",
          "type": "uint256"
        }
      ],
      "name": "payee",
      "outputs": [
        {
          "internalType": "address",
          "name": "",
          "type": "address"
        }
      ],
      "stateMutability": "view",
      "type": "function"
    },
    {
      "inputs": [
        {
          "internalType": "address",
          "name": "owner",
          "type": "address"
        },
        {
          "internalType": "address",
          "name": "spender",
          "type": "address"
        },
        {
          "internalType": "uint256",
          "name": "value",
          "type": "uint256"
        },
        {
          "internalType": "uint256",
          "name": "deadline",
          "type": "uint256"
        },
        {
          "internalType": "uint8",
          "name": "v",
          "type": "uint8"
        },
        {
          "internalType": "bytes32",
          "name": "r",
          "type": "bytes32"
        },
        {
          "internalType": "bytes32",
          "name": "s",
          "type": "bytes32"
        }
      ],
      "name": "permit",
      "outputs": [],
      "stateMutability": "nonpayable",
      "type": "function"
    },
    {
      "inputs": [],
      "name": "proxiableUUID",
      "outputs": [
        {
          "internalType": "bytes32",
          "name": "",
          "type": "bytes32"
        }
      ],
      "stateMutability": "view",
      "type": "function"
    },
    {
      "inputs": [
        {
          "internalType": "address",
          "name": "account",
          "type": "address"
        }
      ],
      "name": "releasable",
      "outputs": [
        {
          "internalType": "uint256",
          "name": "",
          "type": "uint256"
        }
      ],
      "stateMutability": "view",
      "type": "function"
    },
    {
      "inputs": [
        {
          "internalType": "contract IERC20Upgradeable",
          "name": "token",
          "type": "address"
        },
        {
          "internalType": "address",
          "name": "account",
          "type": "address"
        }
      ],
      "name": "releasable",
      "outputs": [
        {
          "internalType": "uint256",
          "name": "",
          "type": "uint256"
        }
      ],
      "stateMutability": "view",
      "type": "function"
    },
    {
      "inputs": [
        {
          "internalType": "address payable",
          "name": "account",
          "type": "address"
        }
      ],
      "name": "release",
      "outputs": [],
      "stateMutability": "nonpayable",
      "type": "function"
    },
    {
      "inputs": [
        {
          "internalType": "contract IERC20Upgradeable",
          "name": "token",
          "type": "address"
        },
        {
          "internalType": "address",
          "name": "account",
          "type": "address"
        }
      ],
      "name": "release",
      "outputs": [],
      "stateMutability": "nonpayable",
      "type": "function"
    },
    {
      "inputs": [
        {
          "internalType": "contract IERC20Upgradeable",
          "name": "token",
          "type": "address"
        },
        {
          "internalType": "address",
          "name": "account",
          "type": "address"
        }
      ],
      "name": "released",
      "outputs": [
        {
          "internalType": "uint256",
          "name": "",
          "type": "uint256"
        }
      ],
      "stateMutability": "view",
      "type": "function"
    },
    {
      "inputs": [
        {
          "internalType": "address",
          "name": "account",
          "type": "address"
        }
      ],
      "name": "released",
      "outputs": [
        {
          "internalType": "uint256",
          "name": "",
          "type": "uint256"
        }
      ],
      "stateMutability": "view",
      "type": "function"
    },
    {
      "inputs": [],
      "name": "renounceOwnership",
      "outputs": [],
      "stateMutability": "nonpayable",
      "type": "function"
    },
    {
      "inputs": [
        {
          "internalType": "address",
          "name": "_breederContractAddr",
          "type": "address"
        },
        {
          "internalType": "uint256",
          "name": "_vrfValue",
          "type": "uint256"
        },
        {
          "internalType": "address",
          "name": "_nftContractAddr",
          "type": "address"
        },
        {
          "internalType": "address",
          "name": "_aprsContract",
          "type": "address"
        },
        {
          "internalType": "address",
          "name": "_animaContract",
          "type": "address"
        },
        {
          "internalType": "address",
          "name": "_mgrContract",
          "type": "address"
        }
      ],
      "name": "setAllOf",
      "outputs": [],
      "stateMutability": "nonpayable",
      "type": "function"
    },
    {
      "inputs": [
        {
          "internalType": "address[2]",
          "name": "parents",
          "type": "address[2]"
        },
        {
          "internalType": "uint256",
          "name": "newTokenId",
          "type": "uint256"
        },
        {
          "internalType": "uint256[2]",
          "name": "parentTokenIds",
          "type": "uint256[2]"
        }
      ],
      "name": "setArrivedOwner",
      "outputs": [],
      "stateMutability": "nonpayable",
      "type": "function"
    },
    {
      "inputs": [
        {
          "internalType": "uint256",
          "name": "_toThisPercentage",
          "type": "uint256"
        }
      ],
      "name": "setMktFee",
      "outputs": [],
      "stateMutability": "nonpayable",
      "type": "function"
    },
    {
      "inputs": [
        {
          "internalType": "address payable",
          "name": "newTAdd",
          "type": "address"
        }
      ],
      "name": "setTAdd",
      "outputs": [],
      "stateMutability": "nonpayable",
      "type": "function"
    },
    {
      "inputs": [
        {
          "internalType": "address",
          "name": "account",
          "type": "address"
        }
      ],
      "name": "shares",
      "outputs": [
        {
          "internalType": "uint256",
          "name": "",
          "type": "uint256"
        }
      ],
      "stateMutability": "view",
      "type": "function"
    },
    {
      "inputs": [],
      "name": "status",
      "outputs": [],
      "stateMutability": "nonpayable",
      "type": "function"
    },
    {
      "inputs": [],
      "name": "symbol",
      "outputs": [
        {
          "internalType": "string",
          "name": "",
          "type": "string"
        }
      ],
      "stateMutability": "view",
      "type": "function"
    },
    {
      "inputs": [
        {
          "internalType": "uint256",
          "name": "",
          "type": "uint256"
        }
      ],
      "name": "tokenIdClaimableToOwnerAddr",
      "outputs": [
        {
          "internalType": "address",
          "name": "",
          "type": "address"
        }
      ],
      "stateMutability": "view",
      "type": "function"
    },
    {
      "inputs": [
        {
          "internalType": "contract IERC20Upgradeable",
          "name": "token",
          "type": "address"
        }
      ],
      "name": "totalReleased",
      "outputs": [
        {
          "internalType": "uint256",
          "name": "",
          "type": "uint256"
        }
      ],
      "stateMutability": "view",
      "type": "function"
    },
    {
      "inputs": [],
      "name": "totalReleased",
      "outputs": [
        {
          "internalType": "uint256",
          "name": "",
          "type": "uint256"
        }
      ],
      "stateMutability": "view",
      "type": "function"
    },
    {
      "inputs": [],
      "name": "totalShares",
      "outputs": [
        {
          "internalType": "uint256",
          "name": "",
          "type": "uint256"
        }
      ],
      "stateMutability": "view",
      "type": "function"
    },
    {
      "inputs": [],
      "name": "totalSupply",
      "outputs": [
        {
          "internalType": "uint256",
          "name": "",
          "type": "uint256"
        }
      ],
      "stateMutability": "view",
      "type": "function"
    },
    {
      "inputs": [
        {
          "internalType": "address",
          "name": "to",
          "type": "address"
        },
        {
          "internalType": "uint256",
          "name": "amount",
          "type": "uint256"
        }
      ],
      "name": "transfer",
      "outputs": [
        {
          "internalType": "bool",
          "name": "",
          "type": "bool"
        }
      ],
      "stateMutability": "nonpayable",
      "type": "function"
    },
    {
      "inputs": [
        {
          "internalType": "address",
          "name": "from",
          "type": "address"
        },
        {
          "internalType": "address",
          "name": "to",
          "type": "address"
        },
        {
          "internalType": "uint256",
          "name": "amount",
          "type": "uint256"
        }
      ],
      "name": "transferFrom",
      "outputs": [
        {
          "internalType": "bool",
          "name": "",
          "type": "bool"
        }
      ],
      "stateMutability": "nonpayable",
      "type": "function"
    },
    {
      "inputs": [
        {
          "internalType": "address",
          "name": "newOwner",
          "type": "address"
        }
      ],
      "name": "transferOwnership",
      "outputs": [],
      "stateMutability": "nonpayable",
      "type": "function"
    },
    {
      "inputs": [],
      "name": "unpause",
      "outputs": [],
      "stateMutability": "nonpayable",
      "type": "function"
    },
    {
      "inputs": [
        {
          "internalType": "address",
          "name": "newImplementation",
          "type": "address"
        }
      ],
      "name": "upgradeTo",
      "outputs": [],
      "stateMutability": "nonpayable",
      "type": "function"
    },
    {
      "inputs": [
        {
          "internalType": "address",
          "name": "newImplementation",
          "type": "address"
        },
        {
          "internalType": "bytes",
          "name": "data",
          "type": "bytes"
        }
      ],
      "name": "upgradeToAndCall",
      "outputs": [],
      "stateMutability": "payable",
      "type": "function"
    },
    {
      "inputs": [
        {
          "internalType": "address",
          "name": "",
          "type": "address"
        },
        {
          "internalType": "uint256",
          "name": "",
          "type": "uint256"
        }
      ],
      "name": "userToListedPlanets",
      "outputs": [
        {
          "internalType": "uint256",
          "name": "tokenId",
          "type": "uint256"
        },
        {
          "internalType": "uint256",
          "name": "price",
          "type": "uint256"
        },
        {
          "internalType": "address",
          "name": "ownerAddress",
          "type": "address"
        },
        {
          "internalType": "bool",
          "name": "active",
          "type": "bool"
        }
      ],
      "stateMutability": "view",
      "type": "function"
    },
    {
      "inputs": [
        {
          "internalType": "address",
          "name": "userAddress",
          "type": "address"
        }
      ],
      "name": "usersClaims",
      "outputs": [
        {
          "components": [
            {
              "internalType": "address",
              "name": "ownerParentAddress",
              "type": "address"
            },
            {
              "internalType": "uint256",
              "name": "ownerTokenId",
              "type": "uint256"
            },
            {
              "internalType": "bool",
              "name": "delivered",
              "type": "bool"
            },
            {
              "internalType": "bool",
              "name": "arrived",
              "type": "bool"
            },
            {
              "internalType": "address",
              "name": "otherParent",
              "type": "address"
            },
            {
              "internalType": "uint256",
              "name": "otherTokenId",
              "type": "uint256"
            },
            {
              "internalType": "uint256",
              "name": "claimsTokenId",
              "type": "uint256"
            }
          ],
          "internalType": "struct ClaimablePlanet[]",
          "name": "",
          "type": "tuple[]"
        }
      ],
      "stateMutability": "view",
      "type": "function"
    },
    {
      "inputs": [
        {
          "internalType": "address",
          "name": "tokenAddress",
          "type": "address"
        },
        {
          "internalType": "address",
          "name": "address1",
          "type": "address"
        },
        {
          "internalType": "address",
          "name": "address2",
          "type": "address"
        },
        {
          "internalType": "uint256",
          "name": "withdrawalAmount",
          "type": "uint256"
        }
      ],
      "name": "withdrawAndSplitERC20",
      "outputs": [],
      "stateMutability": "nonpayable",
      "type": "function"
    },
    {
      "inputs": [
        {
          "internalType": "address",
          "name": "address1",
          "type": "address"
        },
        {
          "internalType": "address",
          "name": "address2",
          "type": "address"
        },
        {
          "internalType": "uint256",
          "name": "withdrawalAmount",
          "type": "uint256"
        }
      ],
      "name": "withdrawAndSplitHalfsies",
      "outputs": [],
      "stateMutability": "nonpayable",
      "type": "function"
    },
    {
      "inputs": [],
      "name": "withdrawFunds",
      "outputs": [],
      "stateMutability": "nonpayable",
      "type": "function"
    },
    {
      "stateMutability": "payable",
      "type": "receive"
    }
  ],
  "transactionHash": "0x96aaa2b2febc5c5e8c7b85268dcf798db86d248c64702f9ae1c7e1ce1be83fd1",
  "args": [],
  "numDeployments": 1,
  "solcInputHash": "448434933573ec214f60f552dc2e5834",
  "bytecode": "0x60a06040523060805234801561001457600080fd5b50608051615f106200004d600039600081816114f301528181611533015281816117ae015281816117ee0152611aa30152615f106000f3fe6080604052600436106103875760003560e01c80638456cb59116101d2578063d28c9334116100fd578063ee6e3a2311610098578063ee6e3a2314610bd9578063f2fde38b14610bfa578063f4c1494314610c1a578063f658159a14610c3a578063f837894714610c71578063fdb4087514610c91578063fde4976714610cb1578063fe79222914610b36578063fe825b2614610cd157005b8063d28c933414610a54578063d4b5b8d614610abf578063d505accf14610af6578063d79779b214610b16578063dbb774d814610b36578063dd22a9c714610b63578063dd62ed3e14610b83578063e22aecb414610ba3578063e33b7de314610bc357005b8063a457c2d71161016d578063a457c2d71461091d578063a8e5e4aa1461093d578063a9059cbb1461095d578063c45ac0501461097d578063c4d66de81461099d578063c7c0e6b1146109bd578063cbdf1b5a146109dd578063cdb82a37146109fd578063ce7c2ac214610a1d57005b80638456cb59146104af57806384b0196e146107f057806385fe7243146108185780638b83209b146108695780638da5cb5b1461088957806395d89b41146108a85780639852595c146108bd5780639e024710146108dd578063a3f8eace146108fd57005b80633a7fb03d116102b257806352d1902d1161024d57806352d1902d146106d95780635b634b6a146106ee5780635c975abb146107255780636a23befb1461073d57806370a0823114610752578063715018a6146107885780637ecebe001461079d5780638230a784146107bd57806384290591146107d057005b80633a7fb03d146105fb5780633a98ef391461061b5780633f4ba83a14610631578063406072a91461064657806348b75044146106665780634d950449146106865780634f1ef286146106a657806350842cf3146104835780635270ad6c146106b957005b8063229c23cc11610322578063229c23cc146104c457806323b872dd146104e457806324600fc31461050457806325947818146105195780632b48a8e414610546578063313ce5671461058a5780633644e515146105a65780633659cfe6146105bb57806339509351146105db57005b806306fdde0314610390578063095ea7b3146103bb5780630f33c7c2146103eb578063150b7a021461040b57806318160ddd1461044457806319165587146104635780631ac9a91e146104835780631dd320ea1461048f578063200d2ed2146104af57005b3661038e57005b005b34801561039c57600080fd5b506103a5610d08565b6040516103b291906150d4565b60405180910390f35b3480156103c757600080fd5b506103db6103d63660046150fc565b610d9a565b60405190151581526020016103b2565b3480156103f757600080fd5b5061038e6104063660046151b9565b610db4565b34801561041757600080fd5b5061042b6104263660046152e5565b610dcc565b6040516001600160e01b031990911681526020016103b2565b34801561045057600080fd5b5060cb545b6040519081526020016103b2565b34801561046f57600080fd5b5061038e61047e366004615350565b611078565b34801561038e57600080fd5b34801561049b57600080fd5b506103db6104aa3660046150fc565b611164565b3480156104bb57600080fd5b5061038e611229565b3480156104d057600080fd5b5061038e6104df36600461536d565b611239565b3480156104f057600080fd5b506103db6104ff36600461536d565b6112ed565b34801561051057600080fd5b5061038e611311565b34801561052557600080fd5b506105396105343660046153ae565b611353565b6040516103b291906153d0565b34801561055257600080fd5b5061057d61056136600461543f565b60009081526101cc60205260409020546001600160a01b031690565b6040516103b29190615458565b34801561059657600080fd5b50604051601281526020016103b2565b3480156105b257600080fd5b506104556114da565b3480156105c757600080fd5b5061038e6105d6366004615350565b6114e9565b3480156105e757600080fd5b506103db6105f63660046150fc565b6115b1565b34801561060757600080fd5b5061038e61061636600461546c565b6115d3565b34801561062757600080fd5b5061016254610455565b34801561063d57600080fd5b5061038e611649565b34801561065257600080fd5b5061045561066136600461549c565b611659565b34801561067257600080fd5b5061038e61068136600461549c565b611685565b34801561069257600080fd5b5061038e6106a136600461543f565b611796565b61038e6106b43660046154ca565b6117a4565b3480156106c557600080fd5b5061038e6106d436600461543f565b611859565b3480156106e557600080fd5b50610455611a96565b3480156106fa57600080fd5b5061057d61070936600461543f565b6101cf602052600090815260409020546001600160a01b031681565b34801561073157600080fd5b5060335460ff166103db565b34801561074957600080fd5b50610539611b44565b34801561075e57600080fd5b5061045561076d366004615350565b6001600160a01b0316600090815260c9602052604090205490565b34801561079457600080fd5b5061038e611bda565b3480156107a957600080fd5b506104556107b8366004615350565b611bec565b61038e6107cb3660046153ae565b611c0b565b3480156107dc57600080fd5b5061038e6107eb366004615519565b612463565b3480156107fc57600080fd5b50610805612696565b6040516103b2979695949392919061556a565b34801561082457600080fd5b506108386108333660046150fc565b612734565b6040516103b2949392919093845260208401929092526001600160a01b031660408301521515606082015260800190565b34801561087557600080fd5b5061057d61088436600461543f565b61278c565b34801561089557600080fd5b50610194546001600160a01b031661057d565b3480156108b457600080fd5b506103a56127bd565b3480156108c957600080fd5b506104556108d8366004615350565b6127cc565b3480156108e957600080fd5b5061038e6108f8366004615603565b6127e8565b34801561090957600080fd5b50610455610918366004615350565b612864565b34801561092957600080fd5b506103db6109383660046150fc565b612897565b34801561094957600080fd5b5061038e61095836600461536d565b612912565b34801561096957600080fd5b506103db6109783660046150fc565b6129c6565b34801561098957600080fd5b5061045561099836600461549c565b6129d4565b3480156109a957600080fd5b5061038e6109b8366004615350565b612a68565b3480156109c957600080fd5b5061038e6109d836600461543f565b612b92565b3480156109e957600080fd5b5061038e6109f83660046153ae565b612ba8565b348015610a0957600080fd5b5061038e610a18366004615350565b612ef4565b348015610a2957600080fd5b50610455610a38366004615350565b6001600160a01b03166000908152610164602052604090205490565b348015610a6057600080fd5b50610a74610a6f3660046153ae565b612f27565b604080516001600160a01b0398891681526020810197909752941515948601949094529115156060850152909316608083015260a082019290925260c081019190915260e0016103b2565b348015610acb57600080fd5b5061057d610ada36600461543f565b6101d0602052600090815260409020546001600160a01b031681565b348015610b0257600080fd5b5061038e610b1136600461567c565b612f98565b348015610b2257600080fd5b50610455610b31366004615350565b6130fc565b348015610b4257600080fd5b50610b56610b51366004615350565b613118565b6040516103b291906156f3565b348015610b6f57600080fd5b506103db610b7e36600461549c565b6131e8565b348015610b8f57600080fd5b50610455610b9e36600461549c565b613260565b348015610baf57600080fd5b50610a74610bbe3660046150fc565b61328b565b348015610bcf57600080fd5b5061016354610455565b348015610be557600080fd5b506101c65461057d906001600160a01b031681565b348015610c0657600080fd5b5061038e610c15366004615350565b6132a8565b348015610c2657600080fd5b506103db610c353660046150fc565b61331e565b348015610c4657600080fd5b5061057d610c5536600461543f565b60009081526101d060205260409020546001600160a01b031690565b348015610c7d57600080fd5b5061038e610c8c36600461549c565b6133ae565b348015610c9d57600080fd5b5061038e610cac36600461546c565b613425565b348015610cbd57600080fd5b50610539610ccc366004615350565b613462565b348015610cdd57600080fd5b5061057d610cec36600461543f565b6101cc602052600090815260409020546001600160a01b031681565b606060cc8054610d179061577a565b80601f0160208091040260200160405190810160405280929190818152602001828054610d439061577a565b8015610d905780601f10610d6557610100808354040283529160200191610d90565b820191906000526020600020905b815481529060010190602001808311610d7357829003601f168201915b5050505050905090565b600033610da8818585613503565b60019150505b92915050565b610dbc613627565b610dc7838383613682565b505050565b6000808251118015610de957506101c8546001600160a01b031633145b15610e4257600082806020019051810190610e0491906157ae565b9050610e11848287613c09565b600080516020615e7483398151915286868686604051610e3494939291906157c7565b60405180910390a150611066565b6101d4546001600160a01b039081169086160361103a576101c85460405163dc9ce7a560e01b8152600481018590526000916001600160a01b03169063dc9ce7a590602401600060405180830381865afa158015610ea4573d6000803e3d6000fd5b505050506040513d6000823e601f3d908101601f19168201604052610ecc91908101906158b1565b5090506000816101200151905060006101cc600083600081518110610ef357610ef36159cf565b6020026020010151815260200190815260200160002060009054906101000a90046001600160a01b0316905060006101cc600084600181518110610f3957610f396159cf565b6020026020010151815260200190815260200160002060009054906101000a90046001600160a01b0316905060006040518060400160405280846001600160a01b03166001600160a01b03168152602001836001600160a01b03166001600160a01b0316815250905060006040518060400160405280876101200151600081518110610fc757610fc76159cf565b60200260200101518152602001876101200151600181518110610fec57610fec6159cf565b60200260200101518152509050600080516020615e748339815191528b8b8b8b60405161101c94939291906159e5565b60405180910390a161102f828a83613682565b505050505050611066565b600080516020615e748339815191528585858560405161105d9493929190615a47565b60405180910390a15b50630a85bd0160e11b5b949350505050565b6001600160a01b038116600090815261016460205260409020546110b75760405162461bcd60e51b81526004016110ae90615aac565b60405180910390fd5b60006110c282612864565b9050806000036110e45760405162461bcd60e51b81526004016110ae90615af2565b8061016360008282546110f79190615b53565b90915550506001600160a01b0382166000908152610165602052604090208054820190556111258282613d9b565b7fdf20fd1e76bc69d672e4814fafb2c449bba3a5369d8359adf9e05e6fde87b0568282604051611156929190615b66565b60405180910390a15050565b565b6001600160a01b03821660009081526101cd60205260408120815b81548110156111ed578382828154811061119b5761119b6159cf565b906000526020600020906005020160040154036111e5578181815481106111c4576111c46159cf565b600091825260209091206002600590920201015460ff169250610dae915050565b60010161117f565b5060405162461bcd60e51b815260206004820152601060248201526f141b185b995d081b9bdd08199bdd5b9960821b60448201526064016110ae565b611231613627565b611162613eb1565b611241613627565b611249613f05565b478111156112695760405162461bcd60e51b81526004016110ae90615b7f565b6000611276600283615bad565b6040519091506001600160a01b0385169082156108fc029083906000818181858888f193505050501580156112af573d6000803e3d6000fd5b506040516001600160a01b0384169082156108fc029083906000818181858888f193505050501580156112e6573d6000803e3d6000fd5b5050505050565b6000336112fb858285613f4b565b611306858585613fc5565b506001949350505050565b611319613627565b611321613f05565b604051339081904780156108fc02916000818181858888f1935050505015801561134f573d6000803e3d6000fd5b5050565b60608282116113945760405162461bcd60e51b815260206004820152600d60248201526c092dcecc2d8d2c840d2dcc8caf609b1b60448201526064016110ae565b6101cb548211156113b75760405162461bcd60e51b81526004016110ae90615bcf565b60006113c38484615bfc565b6001600160401b038111156113da576113da615128565b60405190808252806020026020018201604052801561142c57816020015b6040805160808101825260008082526020808301829052928201819052606082015282526000199092019101816113f85790505b509050835b838110156114d2576101cb818154811061144d5761144d6159cf565b600091825260209182902060408051608081018252600393909302909101805483526001810154938301939093526002909201546001600160a01b03811692820192909252600160a01b90910460ff1615156060820152826114af8784615bfc565b815181106114bf576114bf6159cf565b6020908102919091010152600101611431565b509392505050565b60006114e4614170565b905090565b6001600160a01b037f00000000000000000000000000000000000000000000000000000000000000001630036115315760405162461bcd60e51b81526004016110ae90615c0f565b7f00000000000000000000000000000000000000000000000000000000000000006001600160a01b031661156361417a565b6001600160a01b0316146115895760405162461bcd60e51b81526004016110ae90615c5b565b61159281614196565b604080516000808252602082019092526115ae9183919061419e565b50565b600033610da88185856115c48383613260565b6115ce9190615b53565b613503565b6115db613627565b6115e3613f05565b60006115ef8383614309565b90506115fa8361437e565b6101c8546040517f3e47efa91d5d329f50f04f0b9784b40b63d441ca130a5ddca1865d16e4d612a39161163c9185916001600160a01b03169087908690615ca7565b60405180910390a1505050565b611651613627565b61116261441e565b6001600160a01b0391821660009081526101686020908152604080832093909416825291909152205490565b6001600160a01b038116600090815261016460205260409020546116bb5760405162461bcd60e51b81526004016110ae90615aac565b60006116c783836129d4565b9050806000036116e95760405162461bcd60e51b81526004016110ae90615af2565b6001600160a01b0383166000908152610167602052604081208054839290611712908490615b53565b90915550506001600160a01b0380841660009081526101686020908152604080832093861683529290522080548201905561174e838383614457565b826001600160a01b03167f3be5b7a71e84ed12875d241991c70855ac5817d847039e17a9d895c1ceb0f18a8383604051611789929190615b66565b60405180910390a2505050565b61179e613627565b6101ce55565b6001600160a01b037f00000000000000000000000000000000000000000000000000000000000000001630036117ec5760405162461bcd60e51b81526004016110ae90615c0f565b7f00000000000000000000000000000000000000000000000000000000000000006001600160a01b031661181e61417a565b6001600160a01b0316146118445760405162461bcd60e51b81526004016110ae90615c5b565b61184d82614196565b61134f8282600161419e565b611861613f05565b60008181526101cf602052604090205433906001600160a01b0316806118e65760405162461bcd60e51b815260206004820152603460248201527f6164647265737320686173206e6f74206265656e207365742e2020436c61696d604482015273206e6f6e6578697374656e6365206c696b656c7960601b60648201526084016110ae565b6000196001600160a01b0382160161193c5760405162461bcd60e51b8152602060048201526019602482015278383630b732ba103430b9903132b2b71037b9383430b732b21760391b60448201526064016110ae565b816001600160a01b0316816001600160a01b0316146119ca5761195e816144ad565b611967826144ad565b60405162461bcd60e51b815260206004820152603260248201527f636c61696d206d7573742062652066726f6d20636c61696d616e7473206164646044820152713932b9b99696903234b9b0b63637bbb2b21760711b60648201526084016110ae565b60006119d68484614309565b905080611a3d5760405162461bcd60e51b815260206004820152602f60248201527f4661696c656420746f2073656e64204e46542e20436865636b20436c61696d6160448201526e1b9d08151bdad95b9259081cd95b9d608a1b60648201526084016110ae565b611a468461437e565b6101c8546040517f3e47efa91d5d329f50f04f0b9784b40b63d441ca130a5ddca1865d16e4d612a391611a889186916001600160a01b03169088908690615ca7565b60405180910390a150505050565b6000306001600160a01b037f00000000000000000000000000000000000000000000000000000000000000001614611b315760405162461bcd60e51b815260206004820152603860248201527f555550535570677261646561626c653a206d757374206e6f742062652063616c6044820152771b1959081d1a1c9bdd59da0819195b1959d85d1958d85b1b60421b60648201526084016110ae565b50600080516020615e9483398151915290565b60606101cb805480602002602001604051908101604052809291908181526020016000905b82821015611bd1576000848152602090819020604080516080810182526003860290920180548352600180820154848601526002909101546001600160a01b03811692840192909252600160a01b90910460ff16151560608301529083529092019101611b69565b50505050905090565b611be2613627565b61116260006144f0565b6001600160a01b038116600090815261012f6020526040812054610dae565b611c13613f05565b808203611c6e5760405162461bcd60e51b815260206004820152602360248201527f4173657875616c20726570726f64756374696f6e206973206e6f7420616c6c6f6044820152621dd95960ea1b60648201526084016110ae565b6000611c7982614543565b6101c8546040516331a9108f60e11b8152600481018690529192506000916001600160a01b0390911690636352211e90602401602060405180830381865afa158015611cc9573d6000803e3d6000fd5b505050506040513d601f19601f82011682018060405250810190611ced9190615cd0565b90506001600160a01b0381163014611d775760405162461bcd60e51b815260206004820152604160248201527f596f75206e65656420746f206c6973742f6465706f7369742074686520706c6160448201527f6e657420796f752061726520747279696e6720746f20627265656420776974686064820152601760f91b608482015260a4016110ae565b60008060005b6101cb54811015611e2457866101cb8281548110611d9d57611d9d6159cf565b90600052602060002090600302016000015403611e1c576101cb8181548110611dc857611dc86159cf565b906000526020600020906003020160020160009054906101000a90046001600160a01b031692506101cb8181548110611e0357611e036159cf565b9060005260206000209060030201600001549150611e24565b600101611d7d565b506001600160a01b0382163314611e985760405162461bcd60e51b815260206004820152603260248201527f596f7520646f206e6f74206f776e2074686520706c616e657420796f7520617260448201527132903a393cb4b733903a3790313932b2b21760711b60648201526084016110ae565b600060646101ce5486611eab9190615ced565b611eb59190615bad565b905080856101c954611ec79190615b53565b611ed19190615b53565b341015611ef682876101c954611ee79190615b53565b611ef19190615b53565b6145e4565b611eff346145e4565b604051602001611f10929190615d04565b60405160208183030381529060405290611f3d5760405162461bcd60e51b81526004016110ae91906150d4565b5033600080805b6101cb54811015611feb57896101cb8281548110611f6457611f646159cf565b90600052602060002090600302016000015403611fe3576101cb8181548110611f8f57611f8f6159cf565b906000526020600020906003020160020160009054906101000a90046001600160a01b031692506101cb8181548110611fca57611fca6159cf565b9060005260206000209060030201600001549150611feb565b600101611f44565b506706f05b59d3b200004710156120625760405162461bcd60e51b815260206004820152603560248201527f436f6e74726163742068617320496e73756666696369656e742062616c616e63604482015274652c20636f6e74616374206861746368657220687160581b60648201526084016110ae565b6040516000906001600160a01b038416908a156108fc02908b9084818181858888f193505050509050806120cf5760405162461bcd60e51b81526020600482015260146024820152732330b4b632b2103a379039b2b7321022ba3432b960611b60448201526064016110ae565b6101c6546101c954604051634e9e6a0760e01b8152600481018e9052602481018d9052600060448201526001600160a01b0390921691634e9e6a07919060640160206040518083038185885af115801561212d573d6000803e3d6000fd5b50505050506040513d601f19601f8201168201806040525081019061215291906157ae565b5060006040518060e00160405280866001600160a01b031681526020018d8152602001600015158152602001600015158152602001856001600160a01b03168152602001848152602001600081525090506101cd6000866001600160a01b03166001600160a01b0316815260200190815260200160002081908060018154018082558091505060019003906000526020600020906005020160009091909190915060008201518160000160006101000a8154816001600160a01b0302191690836001600160a01b031602179055506020820151816001015560408201518160020160006101000a81548160ff02191690831515021790555060608201518160020160016101000a81548160ff02191690831515021790555060808201518160020160026101000a8154816001600160a01b0302191690836001600160a01b0316021790555060a0820151816003015560c082015181600401555050846101cc60008e815260200190815260200160002060006101000a8154816001600160a01b0302191690836001600160a01b03160217905550836101cc600085815260200190815260200160002060006101000a8154816001600160a01b0302191690836001600160a01b03160217905550858a6101c95461232f9190615b53565b6123399190615b53565b341115612405576000336001600160a01b0316878c6101c9543461235d9190615bfc565b6123679190615bfc565b6123719190615bfc565b604051600081818185875af1925050503d80600081146123ad576040519150601f19603f3d011682016040523d82523d6000602084013e6123b2565b606091505b50509050806124035760405162461bcd60e51b815260206004820152601d60248201527f4661696c656420746f20726566756e642065786365737320457468657200000060448201526064016110ae565b505b604080518d81526001600160a01b0387811660208301528183018e90528616606082015290517f8557df6951fbdd47fe9027516fc896be40f285ed55a6acac460352adbab730cd9181900360800190a1505050505050505050505050565b61246b613627565b612473613f05565b6040516370a0823160e01b815284906000906001600160a01b038316906370a08231906124a4903090600401615458565b602060405180830381865afa1580156124c1573d6000803e3d6000fd5b505050506040513d601f19601f820116820180604052508101906124e591906157ae565b9050808311156125075760405162461bcd60e51b81526004016110ae90615b7f565b6000612514600285615bad565b60405163a9059cbb60e01b81529091506001600160a01b0384169063a9059cbb906125459089908590600401615b66565b6020604051808303816000875af1158015612564573d6000803e3d6000fd5b505050506040513d601f19601f820116820180604052508101906125889190615da1565b6125d25760405162461bcd60e51b815260206004820152601b60248201527a151c985b9cd9995c881d1bc81859191c995cdccc4819985a5b1959602a1b60448201526064016110ae565b60405163a9059cbb60e01b81526001600160a01b0384169063a9059cbb906126009088908590600401615b66565b6020604051808303816000875af115801561261f573d6000803e3d6000fd5b505050506040513d601f19601f820116820180604052508101906126439190615da1565b61268d5760405162461bcd60e51b815260206004820152601b60248201527a151c985b9cd9995c881d1bc81859191c995cdccc8819985a5b1959602a1b60448201526064016110ae565b50505050505050565b60006060806000806000606060fb546000801b1480156126b6575060fc54155b6126fa5760405162461bcd60e51b81526020600482015260156024820152741152540dcc4c8e88155b9a5b9a5d1a585b1a5e9959605a1b60448201526064016110ae565b612702614676565b61270a614685565b60408051600080825260208201909252600f60f81b9b939a50919850469750309650945092509050565b6101ca602052816000526040600020818154811061275157600080fd5b60009182526020909120600390910201805460018201546002909201549093509091506001600160a01b03811690600160a01b900460ff1684565b600061016682815481106127a2576127a26159cf565b6000918252602090912001546001600160a01b031692915050565b606060cd8054610d179061577a565b6001600160a01b03166000908152610165602052604090205490565b6127f0613627565b6127f8613f05565b6101c9949094556101c680546001600160a01b039687166001600160a01b0319918216179091556101c88054948716948216949094179093556101d18054928616928416929092179091556101d280549185169183169190911790556101d48054929093169116179055565b6000806128716101635490565b61287b9047615b53565b9050612890838261288b866127cc565b614694565b9392505050565b600033816128a58286613260565b9050838110156129055760405162461bcd60e51b815260206004820152602560248201527f45524332303a2064656372656173656420616c6c6f77616e63652062656c6f77604482015264207a65726f60d81b60648201526084016110ae565b6113068286868403613503565b60405163095ea7b360e01b81526001600160a01b0384169063095ea7b3906129409085908590600401615b66565b6020604051808303816000875af115801561295f573d6000803e3d6000fd5b505050506040513d601f19601f820116820180604052508101906129839190615da1565b610dc75760405162461bcd60e51b8152602060048201526014602482015273115490cc8c08185c1c1c9bdd994819985a5b195960621b60448201526064016110ae565b600033610da8818585613fc5565b6000806129e0846130fc565b6040516370a0823160e01b81526001600160a01b038616906370a0823190612a0c903090600401615458565b602060405180830381865afa158015612a29573d6000803e3d6000fd5b505050506040513d601f19601f82011682018060405250810190612a4d91906157ae565b612a579190615b53565b9050611070838261288b8787611659565b600054610100900460ff1615808015612a885750600054600160ff909116105b80612aa95750612a97306146d4565b158015612aa9575060005460ff166001145b612b0c5760405162461bcd60e51b815260206004820152602e60248201527f496e697469616c697a61626c653a20636f6e747261637420697320616c72656160448201526d191e481a5b9a5d1a585b1a5e995960921b60648201526084016110ae565b6000805460ff191660011790558015612b2f576000805461ff0019166101001790555b612b376146e3565b612b3f614712565b612b47614741565b612b50826132a8565b801561134f576000805461ff0019169055604051600181527f7f26b83ff96e1f2b6a682f133852f6798a09c465da95921460cefb384740249890602001611156565b612b9a613627565b612ba2613f05565b6101c955565b612bb0613f05565b6101cb548210612bd25760405162461bcd60e51b81526004016110ae90615bcf565b600033905060006101cb8481548110612bed57612bed6159cf565b6000918252602091829020604080516080810182526003909302909101805483526001810154938301939093526002909201546001600160a01b03811692820183905260ff600160a01b909104161515606082015291503314612c4f57600080fd5b6040518060800160405280826000015181526020016000815260200182604001516001600160a01b03168152602001600015158152506101cb8581548110612c9957612c996159cf565b60009182526020808320845160039093020191825583015160018201556040830151600290910180546060909401511515600160a01b026001600160a81b03199094166001600160a01b039092169190911792909217909155612cfc8484614309565b905080612d555760405162461bcd60e51b815260206004820152602160248201527f64654c697374696e67204661696c65642073656e64204e46542070726f6365736044820152607360f81b60648201526084016110ae565b3360009081526101ca602052604090208054612d7390600190615bfc565b81548110612d8357612d836159cf565b90600052602060002090600302016101ca6000336001600160a01b03166001600160a01b031681526020019081526020016000208681548110612dc857612dc86159cf565b60009182526020808320845460039093020191825560018085015490830155600293840180549490920180546001600160a01b031981166001600160a01b039096169586178255925460ff600160a01b91829004161515026001600160a81b0319909316909417919091179092553381526101ca90915260409020805480612e5257612e52615dbc565b600082815260208082206003600019909401938402018281556001810183905560020180546001600160a81b0319169055919092558582526101d090526040902080546001600160a01b03191690556101c85482516040517fc6d479c3ed7081a22666733326104ccbbbaccec81902d39e12430505ee2993bd92612ee59287926001600160a01b03909216918690615ca7565b60405180910390a15050505050565b612efc613627565b612f04613f05565b6101c780546001600160a01b0319166001600160a01b0392909216919091179055565b6101d36020528160005260406000208181548110612f4457600080fd5b6000918252602090912060059091020180546001820154600283015460038401546004909401546001600160a01b03938416965091945060ff80821694610100830490911693620100009092049091169187565b83421115612fe85760405162461bcd60e51b815260206004820152601d60248201527f45524332305065726d69743a206578706972656420646561646c696e6500000060448201526064016110ae565b60007f6e71edae12b1b97f4d1f60370fef10105fa2faae0126114a169c64845d6126c98888886130178c614768565b6040805160208101969096526001600160a01b0394851690860152929091166060840152608083015260a082015260c0810186905260e00160405160208183030381529060405280519060200120905060006130728261478f565b90506000613082828787876147bc565b9050896001600160a01b0316816001600160a01b0316146130e55760405162461bcd60e51b815260206004820152601e60248201527f45524332305065726d69743a20696e76616c6964207369676e6174757265000060448201526064016110ae565b6130f08a8a8a613503565b50505050505050505050565b6001600160a01b03166000908152610167602052604090205490565b6001600160a01b03811660009081526101cd60209081526040808320805482518185028101850190935280835260609492939192909184015b828210156131dd5760008481526020908190206040805160e0810182526005860290920180546001600160a01b03908116845260018083015485870152600283015460ff80821615159587019590955261010081049094161515606086015262010000909304166080840152600381015460a08401526004015460c08301529083529092019101613151565b505050509050919050565b6101c85460405163e985e9c560e01b81526001600160a01b0384811660048301528381166024830152600092169063e985e9c590604401602060405180830381865afa15801561323c573d6000803e3d6000fd5b505050506040513d601f19601f820116820180604052508101906128909190615da1565b6001600160a01b03918216600090815260ca6020908152604080832093909416825291909152205490565b6101cd6020528160005260406000208181548110612f4457600080fd5b6132b0613627565b6001600160a01b0381166133155760405162461bcd60e51b815260206004820152602660248201527f4f776e61626c653a206e6577206f776e657220697320746865207a65726f206160448201526564647265737360d01b60648201526084016110ae565b6115ae816144f0565b6001600160a01b03821660009081526101cd60205260408120815b81548110156111ed5783828281548110613355576133556159cf565b906000526020600020906005020160040154036133a65781818154811061337e5761337e6159cf565b906000526020600020906005020160020160019054906101000a900460ff1692505050610dae565b600101613339565b6133b6613627565b6133be613f05565b60405163a22cb46560e01b81526001600160a01b0382811660048301526001602483015283169063a22cb465906044015b600060405180830381600087803b15801561340957600080fd5b505af115801561341d573d6000803e3d6000fd5b505050505050565b61342d613627565b6101c8546040516323b872dd60e01b81526001600160a01b03909116906323b872dd906133ef90309085908790600401615dd2565b6001600160a01b03811660009081526101ca60209081526040808320805482518185028101850190935280835260609492939192909184015b828210156131dd576000848152602090819020604080516080810182526003860290920180548352600180820154848601526002909101546001600160a01b03811692840192909252600160a01b90910460ff1615156060830152908352909201910161349b565b6001600160a01b0383166135655760405162461bcd60e51b8152602060048201526024808201527f45524332303a20617070726f76652066726f6d20746865207a65726f206164646044820152637265737360e01b60648201526084016110ae565b6001600160a01b0382166135c65760405162461bcd60e51b815260206004820152602260248201527f45524332303a20617070726f766520746f20746865207a65726f206164647265604482015261737360f01b60648201526084016110ae565b6001600160a01b03838116600081815260ca602090815260408083209487168084529482529182902085905590518481527f8c5be1e5ebec7d5bd14f71427d1e84f3dd0314c0f7b2291e5b200ac8c7c3b925910160405180910390a3505050565b610194546001600160a01b031633146111625760405162461bcd60e51b815260206004820181905260248201527f4f776e61626c653a2063616c6c6572206973206e6f7420746865206f776e657260448201526064016110ae565b82516020808501518351918401519091906000805b6001600160a01b03861660009081526101cd6020526040902054811015613912576001600160a01b0386811660009081526101cd60205260409020805491871691839081106136e8576136e86159cf565b60009182526020909120600590910201600201546201000090046001600160a01b031614801561379d57506001600160a01b03861660009081526101cd60205260409020805485919083908110613741576137416159cf565b90600052602060002090600502016001015414801561379d57506001600160a01b03861660009081526101cd60205260409020805484919083908110613789576137896159cf565b906000526020600020906005020160030154145b8061382d57506001600160a01b03861660009081526101cd602052604090208054849190839081106137d1576137d16159cf565b90600052602060002090600502016001015414801561382d57506001600160a01b03861660009081526101cd60205260409020805485919083908110613819576138196159cf565b906000526020600020906005020160030154145b1561390a576001600160a01b03861660009081526101cd6020526040902080546001919083908110613861576138616159cf565b906000526020600020906005020160020160016101000a81548160ff021916908315150217905550876101cd6000886001600160a01b03166001600160a01b0316815260200190815260200160002082815481106138c1576138c16159cf565b60009182526020808320600592909202909101600401929092558981526101cf9091526040902080546001600160a01b0319166001600160a01b03881617905560019150613912565b600101613697565b5080613b985760005b6001600160a01b03851660009081526101cd6020526040902054811015613b96576001600160a01b0385811660009081526101cd602052604090208054918816918390811061396c5761396c6159cf565b60009182526020909120600590910201600201546201000090046001600160a01b0316148015613a2157506001600160a01b03851660009081526101cd602052604090208054849190839081106139c5576139c56159cf565b906000526020600020906005020160010154148015613a2157506001600160a01b03851660009081526101cd60205260409020805485919083908110613a0d57613a0d6159cf565b906000526020600020906005020160030154145b80613ab157506001600160a01b03851660009081526101cd60205260409020805485919083908110613a5557613a556159cf565b906000526020600020906005020160010154148015613ab157506001600160a01b03851660009081526101cd60205260409020805484919083908110613a9d57613a9d6159cf565b906000526020600020906005020160030154145b15613b8e576001600160a01b03851660009081526101cd6020526040902080546001919083908110613ae557613ae56159cf565b906000526020600020906005020160020160016101000a81548160ff021916908315150217905550876101cd6000876001600160a01b03166001600160a01b031681526020019081526020016000208281548110613b4557613b456159cf565b60009182526020808320600592909202909101600401929092558981526101cf9091526040902080546001600160a01b0319166001600160a01b03871617905560019150613b96565b60010161391b565b505b80613bff57604080516001600160a01b03808816825286166020820152908101849052606081018390526080810188905281151560a08201527f4250173a81ef84e08a25e027b766e822138dcdecfc85993357ca2605ee258b589060c00160405180910390a15b5050505050505050565b604080516080808201835285825260208083018681526001600160a01b03868116858701818152600160608089018281526101cb8054808501825560009182528b517fe8bbfecd380c4167d6a1f763a233ec73e73f534b1970c4e1683f437ec23c1f4460039283029081019190915589517fe8bbfecd380c4167d6a1f763a233ec73e73f534b1970c4e1683f437ec23c1f4582015586517fe8bbfecd380c4167d6a1f763a233ec73e73f534b1970c4e1683f437ec23c1f4690910180548551928b166001600160a81b031991821617600160a01b9315158402179091558884526101ca8c528e8420805480890182559085528c85208f519190940290930192835599519582019590955594516002909501805492519588169290981691909117931515909202929092179094558a84526101d085529287902080546001600160a01b03191690911790556101c854865133815291169281019290925293810187905292830185905290917fb30319a217488a3ed441c348e935a48d16091e33109bab0c79a353b9797528839101611a88565b80471015613deb5760405162461bcd60e51b815260206004820152601d60248201527f416464726573733a20696e73756666696369656e742062616c616e636500000060448201526064016110ae565b6000826001600160a01b03168260405160006040518083038185875af1925050503d8060008114613e38576040519150601f19603f3d011682016040523d82523d6000602084013e613e3d565b606091505b5050905080610dc75760405162461bcd60e51b815260206004820152603a60248201527f416464726573733a20756e61626c6520746f2073656e642076616c75652c20726044820152791958da5c1a595b9d081b585e481a185d99481c995d995c9d195960321b60648201526084016110ae565b613eb9613f05565b6033805460ff191660011790557f62e78cea01bee320cd4e420270b5ea74000d11b0c9f74754ebdbfc544b05a258613eee3390565b604051613efb9190615458565b60405180910390a1565b60335460ff16156111625760405162461bcd60e51b815260206004820152601060248201526f14185d5cd8589b194e881c185d5cd95960821b60448201526064016110ae565b6000613f578484613260565b90506000198114613fbf5781811015613fb25760405162461bcd60e51b815260206004820152601d60248201527f45524332303a20696e73756666696369656e7420616c6c6f77616e636500000060448201526064016110ae565b613fbf8484848403613503565b50505050565b6001600160a01b0383166140295760405162461bcd60e51b815260206004820152602560248201527f45524332303a207472616e736665722066726f6d20746865207a65726f206164604482015264647265737360d81b60648201526084016110ae565b6001600160a01b03821661408b5760405162461bcd60e51b815260206004820152602360248201527f45524332303a207472616e7366657220746f20746865207a65726f206164647260448201526265737360e81b60648201526084016110ae565b6001600160a01b038316600090815260c96020526040902054818110156141035760405162461bcd60e51b815260206004820152602660248201527f45524332303a207472616e7366657220616d6f756e7420657863656564732062604482015265616c616e636560d01b60648201526084016110ae565b6001600160a01b03808516600081815260c9602052604080822086860390559286168082529083902080548601905591517fddf252ad1be2c89b69c2b068fc378daa952ba7f163c4a11628f55a4df523b3ef906141639086815260200190565b60405180910390a3613fbf565b60006114e46147e4565b600080516020615e94833981519152546001600160a01b031690565b6115ae613627565b7f4910fdfa16fed3260ed0e7147f7cc6da11a60208b5b9406d12a635614ffd91435460ff16156141d157610dc783614858565b826001600160a01b03166352d1902d6040518163ffffffff1660e01b8152600401602060405180830381865afa92505050801561422b575060408051601f3d908101601f19168201909252614228918101906157ae565b60015b61428e5760405162461bcd60e51b815260206004820152602e60248201527f45524331393637557067726164653a206e657720696d706c656d656e7461746960448201526d6f6e206973206e6f74205555505360901b60648201526084016110ae565b600080516020615e9483398151915281146142fd5760405162461bcd60e51b815260206004820152602960248201527f45524331393637557067726164653a20756e737570706f727465642070726f786044820152681a58589b195555525160ba1b60648201526084016110ae565b50610dc78383836148f2565b6101c854604051632142170760e11b81526000916001600160a01b0316906342842e0e9061433f90309086908890600401615dd2565b600060405180830381600087803b15801561435957600080fd5b505af192505050801561436a575060015b61437657506000610dae565b506001610dae565b60008181526101cf60209081526040808320546001600160a01b03168084526101cd909252822090915b8154811015613fbf57838282815481106143c4576143c46159cf565b906000526020600020906005020160040154036144165760018282815481106143ef576143ef6159cf565b60009182526020909120600590910201600201805460ff1916911515919091179055613fbf565b6001016143a8565b614426614917565b6033805460ff191690557f5db9ee0a495bf2e6ff9c91a7834c1ba4fdd244a5e8aa4e537bd38aeae4b073aa33613eee565b610dc78363a9059cbb60e01b8484604051602401614476929190615b66565b60408051601f198184030181529190526020810180516001600160e01b03166001600160e01b031990931692909217909152614960565b6115ae816040516024016144c19190615458565b60408051601f198184030181529190526020810180516001600160e01b031663161765e160e11b179052614a35565b61019480546001600160a01b038381166001600160a01b0319831681179093556040519116919082907f8be0079c531659141344cd1fd0a4f28419497f9722a3daafe3b4186f6b6457e090600090a35050565b600061454d613f05565b60005b6101cb548110156145dd57826101cb8281548110614570576145706159cf565b906000526020600020906003020160000154036145b5576101cb818154811061459b5761459b6159cf565b906000526020600020906003020160010154915050919050565b6101cb546145c590600190615bfc565b81036145d5575060001992915050565b600101614550565b505b919050565b606060006145f183614a3e565b60010190506000816001600160401b0381111561461057614610615128565b6040519080825280601f01601f19166020018201604052801561463a576020820181803683370190505b5090508181016020015b600019016f181899199a1a9b1b9c1cb0b131b232b360811b600a86061a8153600a850494508461464457509392505050565b606060fd8054610d179061577a565b606060fe8054610d179061577a565b610162546001600160a01b03841660009081526101646020526040812054909183916146c09086615ced565b6146ca9190615bad565b6110709190615bfc565b6001600160a01b03163b151590565b600054610100900460ff1661470a5760405162461bcd60e51b81526004016110ae90615df6565b611162614b14565b600054610100900460ff166147395760405162461bcd60e51b81526004016110ae90615df6565b611162614b44565b600054610100900460ff166111625760405162461bcd60e51b81526004016110ae90615df6565b6001600160a01b038116600090815261012f602052604090208054600181018255906145dd565b6000610dae61479c614170565b8360405161190160f01b8152600281019290925260228201526042902090565b60008060006147cd87878787614b77565b915091506147da81614c31565b5095945050505050565b60007f8b73c3c69bb8fe3d512ecc4cf759cc79239f7b179b0ffacaa9a75d522b39400f61480f614d76565b614817614dcf565b60408051602081019490945283019190915260608201524660808201523060a082015260c00160405160208183030381529060405280519060200120905090565b614861816146d4565b6148c35760405162461bcd60e51b815260206004820152602d60248201527f455243313936373a206e657720696d706c656d656e746174696f6e206973206e60448201526c1bdd08184818dbdb9d1c9858dd609a1b60648201526084016110ae565b600080516020615e9483398151915280546001600160a01b0319166001600160a01b0392909216919091179055565b6148fb83614e00565b6000825111806149085750805b15610dc757613fbf8383614e40565b60335460ff166111625760405162461bcd60e51b815260206004820152601460248201527314185d5cd8589b194e881b9bdd081c185d5cd95960621b60448201526064016110ae565b60006149b5826040518060400160405280602081526020017f5361666545524332303a206c6f772d6c6576656c2063616c6c206661696c6564815250856001600160a01b0316614e659092919063ffffffff16565b90508051600014806149d65750808060200190518101906149d69190615da1565b610dc75760405162461bcd60e51b815260206004820152602a60248201527f5361666545524332303a204552433230206f7065726174696f6e20646964206e6044820152691bdd081cdd58d8d9595960b21b60648201526084016110ae565b6115ae81614e74565b60008072184f03e93ff9f4daa797ed6e38ed64bf6a1f0160401b8310614a7d5772184f03e93ff9f4daa797ed6e38ed64bf6a1f0160401b830492506040015b6904ee2d6d415b85acef8160201b8310614aa7576904ee2d6d415b85acef8160201b830492506020015b662386f26fc100008310614ac557662386f26fc10000830492506010015b6305f5e1008310614add576305f5e100830492506008015b6127108310614af157612710830492506004015b60648310614b03576064830492506002015b600a8310610dae5760010192915050565b600054610100900460ff16614b3b5760405162461bcd60e51b81526004016110ae90615df6565b611162336144f0565b600054610100900460ff16614b6b5760405162461bcd60e51b81526004016110ae90615df6565b6033805460ff19169055565b6000806fa2a8918ca85bafe22016d0b997e4df60600160ff1b03831115614ba45750600090506003614c28565b6040805160008082526020820180845289905260ff881692820192909252606081018690526080810185905260019060a0016020604051602081039080840390855afa158015614bf8573d6000803e3d6000fd5b5050604051601f1901519150506001600160a01b038116614c2157600060019250925050614c28565b9150600090505b94509492505050565b6000816004811115614c4557614c45615e41565b03614c4d5750565b6001816004811115614c6157614c61615e41565b03614ca95760405162461bcd60e51b815260206004820152601860248201527745434453413a20696e76616c6964207369676e617475726560401b60448201526064016110ae565b6002816004811115614cbd57614cbd615e41565b03614d0a5760405162461bcd60e51b815260206004820152601f60248201527f45434453413a20696e76616c6964207369676e6174757265206c656e6774680060448201526064016110ae565b6003816004811115614d1e57614d1e615e41565b036115ae5760405162461bcd60e51b815260206004820152602260248201527f45434453413a20696e76616c6964207369676e6174757265202773272076616c604482015261756560f01b60648201526084016110ae565b600080614d81614676565b805190915015614d98578051602090910120919050565b60fb548015614da75792915050565b7fc5d2460186f7233c927e7db2dcc703c0e500b653ca82273b7bfad8045d85a4709250505090565b600080614dda614685565b805190915015614df1578051602090910120919050565b60fc548015614da75792915050565b614e0981614858565b6040516001600160a01b038216907fbc7cd75a20ee27fd9adebab32041f755214dbc6bffa90cc0225b39da2e5c2d3b90600090a250565b60606128908383604051806060016040528060278152602001615eb460279139614e95565b60606110708484600085614f0d565b60006a636f6e736f6c652e6c6f679050600080835160208501845afa505050565b6060600080856001600160a01b031685604051614eb29190615e57565b600060405180830381855af49150503d8060008114614eed576040519150601f19603f3d011682016040523d82523d6000602084013e614ef2565b606091505b5091509150614f0386838387614fe8565b9695505050505050565b606082471015614f6e5760405162461bcd60e51b815260206004820152602660248201527f416464726573733a20696e73756666696369656e742062616c616e636520666f6044820152651c8818d85b1b60d21b60648201526084016110ae565b600080866001600160a01b03168587604051614f8a9190615e57565b60006040518083038185875af1925050503d8060008114614fc7576040519150601f19603f3d011682016040523d82523d6000602084013e614fcc565b606091505b5091509150614fdd87838387614fe8565b979650505050505050565b6060831561505557825160000361504e57615002856146d4565b61504e5760405162461bcd60e51b815260206004820152601d60248201527f416464726573733a2063616c6c20746f206e6f6e2d636f6e747261637400000060448201526064016110ae565b5081611070565b611070838381511561506a5781518083602001fd5b8060405162461bcd60e51b81526004016110ae91906150d4565b60005b8381101561509f578181015183820152602001615087565b50506000910152565b600081518084526150c0816020860160208601615084565b601f01601f19169290920160200192915050565b60208152600061289060208301846150a8565b6001600160a01b03811681146115ae57600080fd5b6000806040838503121561510f57600080fd5b823561511a816150e7565b946020939093013593505050565b634e487b7160e01b600052604160045260246000fd5b60405161016081016001600160401b038111828210171561516157615161615128565b60405290565b604080519081016001600160401b038111828210171561516157615161615128565b604051601f8201601f191681016001600160401b03811182821017156151b1576151b1615128565b604052919050565b600080600060a084860312156151ce57600080fd5b84601f8501126151dd57600080fd5b6151e5615167565b8060408601878111156151f757600080fd5b865b8181101561521a57803561520c816150e7565b8452602093840193016151f9565b5090945035925050607f8401851361523157600080fd5b615239615167565b8060a086018781111561524b57600080fd5b606087015b81811015615268578035845260209384019301615250565b505080925050509250925092565b600082601f83011261528757600080fd5b81356001600160401b038111156152a0576152a0615128565b6152b3601f8201601f1916602001615189565b8181528460208386010111156152c857600080fd5b816020850160208301376000918101602001919091529392505050565b600080600080608085870312156152fb57600080fd5b8435615306816150e7565b93506020850135615316816150e7565b92506040850135915060608501356001600160401b0381111561533857600080fd5b61534487828801615276565b91505092959194509250565b60006020828403121561536257600080fd5b8135612890816150e7565b60008060006060848603121561538257600080fd5b833561538d816150e7565b9250602084013561539d816150e7565b929592945050506040919091013590565b600080604083850312156153c157600080fd5b50508035926020909101359150565b602080825282518282018190526000919060409081850190868401855b82811015615432578151805185528681015187860152858101516001600160a01b031686860152606090810151151590850152608090930192908501906001016153ed565b5091979650505050505050565b60006020828403121561545157600080fd5b5035919050565b6001600160a01b0391909116815260200190565b6000806040838503121561547f57600080fd5b823591506020830135615491816150e7565b809150509250929050565b600080604083850312156154af57600080fd5b82356154ba816150e7565b91506020830135615491816150e7565b600080604083850312156154dd57600080fd5b82356154e8816150e7565b915060208301356001600160401b0381111561550357600080fd5b61550f85828601615276565b9150509250929050565b6000806000806080858703121561552f57600080fd5b843561553a816150e7565b9350602085013561554a816150e7565b9250604085013561555a816150e7565b9396929550929360600135925050565b60ff60f81b881681526000602060e0602084015261558b60e084018a6150a8565b838103604085015261559d818a6150a8565b606085018990526001600160a01b038816608086015260a0850187905284810360c08601528551808252602080880193509091019060005b818110156155f1578351835292840192918401916001016155d5565b50909c9b505050505050505050505050565b60008060008060008060c0878903121561561c57600080fd5b8635615627816150e7565b955060208701359450604087013561563e816150e7565b9350606087013561564e816150e7565b9250608087013561565e816150e7565b915060a087013561566e816150e7565b809150509295509295509295565b600080600080600080600060e0888a03121561569757600080fd5b87356156a2816150e7565b965060208801356156b2816150e7565b95506040880135945060608801359350608088013560ff811681146156d657600080fd5b9699959850939692959460a0840135945060c09093013592915050565b602080825282518282018190526000919060409081850190868401855b8281101561543257815180516001600160a01b0390811686528782015188870152868201511515878701526060808301511515908701526080808301519091169086015260a0808201519086015260c0908101519085015260e09093019290850190600101615710565b600181811c9082168061578e57607f821691505b6020821081036145dd57634e487b7160e01b600052602260045260246000fd5b6000602082840312156157c057600080fd5b5051919050565b6001600160a01b038581168252841660208201526040810183905260a0606082018190526000906157fa908301846150a8565b8281036080840152600e81526d1b1a5cdd1a5b99c81c1b185b995d60921b60208201526040810191505095945050505050565b600082601f83011261583e57600080fd5b815160206001600160401b0382111561585957615859615128565b8160051b615868828201615189565b928352848101820192828101908785111561588257600080fd5b83870192505b84831015614fdd57825182529183019190830190615888565b805180151581146145df57600080fd5b600080604083850312156158c457600080fd5b82516001600160401b03808211156158db57600080fd5b9084019061016082870312156158f057600080fd5b6158f861513e565b825181526020830151602082015260408301516040820152606083015160608201526080830151608082015260a083015160a082015260c083015160c082015260e083015160e0820152610100808401518381111561595657600080fd5b6159628982870161582d565b828401525050610120808401518381111561597c57600080fd5b6159888982870161582d565b82840152505061014080840151838111156159a257600080fd5b6159ae8982870161582d565b8284015250508094505050506159c6602084016158a1565b90509250929050565b634e487b7160e01b600052603260045260246000fd5b6001600160a01b038581168252841660208201526040810183905260a060608201819052600090615a18908301846150a8565b8281036080840152600a8152691b995dc81c1b185b995d60b21b60208201526040810191505095945050505050565b6001600160a01b038581168252841660208201526040810183905260a060608201819052600090615a7a908301846150a8565b8281036080840152600d81526c1d5b98d85d1959dbdc9a5e9959609a1b60208201526040810191505095945050505050565b60208082526026908201527f5061796d656e7453706c69747465723a206163636f756e7420686173206e6f2060408201526573686172657360d01b606082015260800190565b6020808252602b908201527f5061796d656e7453706c69747465723a206163636f756e74206973206e6f742060408201526a191d59481c185e5b595b9d60aa1b606082015260800190565b634e487b7160e01b600052601160045260246000fd5b80820180821115610dae57610dae615b3d565b6001600160a01b03929092168252602082015260400190565b602080825260149082015273496e73756666696369656e742062616c616e636560601b604082015260600190565b600082615bca57634e487b7160e01b600052601260045260246000fd5b500490565b602080825260139082015272496e646578206f7574206f6620626f756e647360681b604082015260600190565b81810381811115610dae57610dae615b3d565b6020808252602c908201527f46756e6374696f6e206d7573742062652063616c6c6564207468726f7567682060408201526b19195b1959d85d1958d85b1b60a21b606082015260800190565b6020808252602c908201527f46756e6374696f6e206d7573742062652063616c6c6564207468726f7567682060408201526b6163746976652070726f787960a01b606082015260800190565b6001600160a01b0394851681529290931660208301526040820152901515606082015260800190565b600060208284031215615ce257600080fd5b8151612890816150e7565b8082028115828204841417610dae57610dae615b3d565b7f496e73756666696369656e742066756e647320746f20636f766572205652462081527f636f737420616e6420707269636520616e64206665652e20526571756972656460208201526101d160f51b604082015260008351615d6d816042850160208801615084565b670161029b2b73a1d160c51b6042918401918201528351615d9581604a840160208801615084565b01604a01949350505050565b600060208284031215615db357600080fd5b612890826158a1565b634e487b7160e01b600052603160045260246000fd5b6001600160a01b039384168152919092166020820152604081019190915260600190565b6020808252602b908201527f496e697469616c697a61626c653a20636f6e7472616374206973206e6f74206960408201526a6e697469616c697a696e6760a81b606082015260800190565b634e487b7160e01b600052602160045260246000fd5b60008251615e69818460208701615084565b919091019291505056fe13c6ec2a463a35f898a457814a782f1f567808293fa783a31fa4dac8868e6011360894a13ba1a3210667c828492db98dca3e2076cc3735a920a3ca505d382bbc416464726573733a206c6f772d6c6576656c2064656c65676174652063616c6c206661696c6564a264697066735822122085f01eeb06a2ca4e72b1da9584f788d5078b5b901eccc34b0118500b442c366a64736f6c63430008180033",
  "devdoc": {
    "author": "Caecus",
    "custom:security-contact": "security@earnalliance.com",
    "details": "Contract is liable to be updated without warningHomo faber suae quisque fortunae",
    "events": {
      "AdminChanged(address,address)": {
        "details": "Emitted when the admin account has changed."
      },
      "Approval(address,address,uint256)": {
        "details": "Emitted when the allowance of a `spender` for an `owner` is set by a call to {approve}. `value` is the new allowance."
      },
      "BeaconUpgraded(address)": {
        "details": "Emitted when the beacon is changed."
      },
      "EIP712DomainChanged()": {
        "details": "MAY be emitted to signal that the domain could have changed."
      },
      "Initialized(uint8)": {
        "details": "Triggered when the contract has been initialized or reinitialized."
      },
      "Paused(address)": {
        "details": "Emitted when the pause is triggered by `account`."
      },
      "Transfer(address,address,uint256)": {
        "details": "Emitted when `value` tokens are moved from one account (`from`) to another (`to`). Note that `value` may be zero."
      },
      "Unpaused(address)": {
        "details": "Emitted when the pause is lifted by `account`."
      },
      "Upgraded(address)": {
        "details": "Emitted when the implementation is upgraded."
      }
    },
    "kind": "dev",
    "methods": {
      "DOMAIN_SEPARATOR()": {
        "details": "Returns the domain separator used in the encoding of the signature for {permit}, as defined by {EIP712}."
      },
      "allowance(address,address)": {
        "details": "See {IERC20-allowance}."
      },
      "approve(address,uint256)": {
        "details": "See {IERC20-approve}. NOTE: If `amount` is the maximum `uint256`, the allowance is not updated on `transferFrom`. This is semantically equivalent to an infinite approval. Requirements: - `spender` cannot be the zero address."
      },
      "balanceOf(address)": {
        "details": "See {IERC20-balanceOf}."
      },
      "decimals()": {
        "details": "Returns the number of decimals used to get its user representation. For example, if `decimals` equals `2`, a balance of `505` tokens should be displayed to a user as `5.05` (`505 / 10 ** 2`). Tokens usually opt for a value of 18, imitating the relationship between Ether and Wei. This is the default value returned by this function, unless it's overridden. NOTE: This information is only used for _display_ purposes: it in no way affects any of the arithmetic of the contract, including {IERC20-balanceOf} and {IERC20-transfer}."
      },
      "decreaseAllowance(address,uint256)": {
        "details": "Atomically decreases the allowance granted to `spender` by the caller. This is an alternative to {approve} that can be used as a mitigation for problems described in {IERC20-approve}. Emits an {Approval} event indicating the updated allowance. Requirements: - `spender` cannot be the zero address. - `spender` must have allowance for the caller of at least `subtractedValue`."
      },
      "eip712Domain()": {
        "details": "See {EIP-5267}. _Available since v4.9._"
      },
      "hasPlanetArrived(address,uint256)": {
        "params": {
          "owner": "The address of the owner of the claimable planet",
          "tokenId": "The token ID of the claimable planet"
        },
        "returns": {
          "arrived": "A boolean indicating if the planet has arrived"
        }
      },
      "hasPlanetBeenDelivered(address,uint256)": {
        "params": {
          "owner": "The address of the owner of the claimable planet",
          "tokenId": "The token ID of the claimable planet"
        },
        "returns": {
          "delivered": "A boolean indicating if the planet has been delivered"
        }
      },
      "increaseAllowance(address,uint256)": {
        "details": "Atomically increases the allowance granted to `spender` by the caller. This is an alternative to {approve} that can be used as a mitigation for problems described in {IERC20-approve}. Emits an {Approval} event indicating the updated allowance. Requirements: - `spender` cannot be the zero address."
      },
      "initialize(address)": {
        "details": "implements EIP712, is upgradeable, pausable, burn function is custom to save space"
      },
      "name()": {
        "details": "Returns the name of the token."
      },
      "nonces(address)": {
        "details": "Returns the current nonce for `owner`. This value must be included whenever a signature is generated for {permit}. Every successful call to {permit} increases ``owner``'s nonce by one. This prevents a signature from being used multiple times."
      },
      "onERC721Received(address,address,uint256,bytes)": {
        "details": "Whenever an {IERC721} `tokenId` token is transferred to this contract via {IERC721-safeTransferFrom} by `operator` from `from`, this function is called. It must return its Solidity selector to confirm the token transfer. If any other value is returned or the interface is not implemented by the recipient, the transfer will be reverted. The selector can be obtained in Solidity with `IERC721Receiver.onERC721Received.selector`."
      },
      "owner()": {
        "details": "Returns the address of the current owner."
      },
      "pause()": {
        "details": "can only be called by owner"
      },
      "paused()": {
        "details": "Returns true if the contract is paused, and false otherwise."
      },
      "payee(uint256)": {
        "details": "Getter for the address of the payee number `index`."
      },
      "permit(address,address,uint256,uint256,uint8,bytes32,bytes32)": {
        "details": "Sets `value` as the allowance of `spender` over ``owner``'s tokens, given ``owner``'s signed approval. IMPORTANT: The same issues {IERC20-approve} has related to transaction ordering also apply here. Emits an {Approval} event. Requirements: - `spender` cannot be the zero address. - `deadline` must be a timestamp in the future. - `v`, `r` and `s` must be a valid `secp256k1` signature from `owner` over the EIP712-formatted function arguments. - the signature must use ``owner``'s current nonce (see {nonces}). For more information on the signature format, see the https://eips.ethereum.org/EIPS/eip-2612#specification[relevant EIP section]. CAUTION: See Security Considerations above."
      },
      "proxiableUUID()": {
        "details": "Implementation of the ERC1822 {proxiableUUID} function. This returns the storage slot used by the implementation. It is used to validate the implementation's compatibility when performing an upgrade. IMPORTANT: A proxy pointing at a proxiable contract should not be considered proxiable itself, because this risks bricking a proxy that upgrades to it, by delegating to itself until out of gas. Thus it is critical that this function revert if invoked through a proxy. This is guaranteed by the `notDelegated` modifier."
      },
      "releasable(address)": {
        "details": "Getter for the amount of payee's releasable Ether."
      },
      "releasable(address,address)": {
        "details": "Getter for the amount of payee's releasable `token` tokens. `token` should be the address of an IERC20 contract."
      },
      "release(address)": {
        "details": "Triggers a transfer to `account` of the amount of Ether they are owed, according to their percentage of the total shares and their previous withdrawals."
      },
      "release(address,address)": {
        "details": "Triggers a transfer to `account` of the amount of `token` tokens they are owed, according to their percentage of the total shares and their previous withdrawals. `token` must be the address of an IERC20 contract."
      },
      "released(address)": {
        "details": "Getter for the amount of Ether already released to a payee."
      },
      "released(address,address)": {
        "details": "Getter for the amount of `token` tokens already released to a payee. `token` should be the address of an IERC20 contract."
      },
      "renounceOwnership()": {
        "details": "Leaves the contract without owner. It will not be possible to call `onlyOwner` functions. Can only be called by the current owner. NOTE: Renouncing ownership will leave the contract without an owner, thereby disabling any functionality that is only available to the owner."
      },
      "setTAdd(address)": {
        "params": {
          "newTAdd": "the address that the owner would like the new URI to be"
        }
      },
      "shares(address)": {
        "details": "Getter for the amount of shares held by an account."
      },
      "symbol()": {
        "details": "Returns the symbol of the token, usually a shorter version of the name."
      },
      "totalReleased()": {
        "details": "Getter for the total amount of Ether already released."
      },
      "totalReleased(address)": {
        "details": "Getter for the total amount of `token` already released. `token` should be the address of an IERC20 contract."
      },
      "totalShares()": {
        "details": "Getter for the total shares held by payees."
      },
      "totalSupply()": {
        "details": "See {IERC20-totalSupply}."
      },
      "transfer(address,uint256)": {
        "details": "See {IERC20-transfer}. Requirements: - `to` cannot be the zero address. - the caller must have a balance of at least `amount`."
      },
      "transferFrom(address,address,uint256)": {
        "details": "See {IERC20-transferFrom}. Emits an {Approval} event indicating the updated allowance. This is not required by the EIP. See the note at the beginning of {ERC20}. NOTE: Does not update the allowance if the current allowance is the maximum `uint256`. Requirements: - `from` and `to` cannot be the zero address. - `from` must have a balance of at least `amount`. - the caller must have allowance for ``from``'s tokens of at least `amount`."
      },
      "transferOwnership(address)": {
        "details": "Transfers ownership of the contract to a new account (`newOwner`). Can only be called by the current owner."
      },
      "unpause()": {
        "details": "can only be called by owner"
      },
      "upgradeTo(address)": {
        "custom:oz-upgrades-unsafe-allow-reachable": "delegatecall",
        "details": "Upgrade the implementation of the proxy to `newImplementation`. Calls {_authorizeUpgrade}. Emits an {Upgraded} event."
      },
      "upgradeToAndCall(address,bytes)": {
        "custom:oz-upgrades-unsafe-allow-reachable": "delegatecall",
        "details": "Upgrade the implementation of the proxy to `newImplementation`, and subsequently execute the function call encoded in `data`. Calls {_authorizeUpgrade}. Emits an {Upgraded} event."
      },
      "withdrawFunds()": {
        "details": "utility function only, shouldn't need to be used."
      }
    },
    "title": "HatcherGG",
    "version": 1
  },
  "userdoc": {
    "errors": {
      "Unauthorized()": [
        {
          "notice": "error given if user other than minter tries to use forbidden funcs"
        }
      ]
    },
    "kind": "user",
    "methods": {
      "hasPlanetArrived(address,uint256)": {
        "notice": "Checks if a specific claimable planet has arrived"
      },
      "hasPlanetBeenDelivered(address,uint256)": {
        "notice": "Checks if a specific claimable planet has been delivered"
      },
      "initialize(address)": {
        "notice": "Initialization of contract, called upon deployment"
      },
      "pause()": {
        "notice": "pause any token transfers including mints and burns"
      },
      "setAllOf(address,uint256,address,address,address,address)": {
        "notice": "function should be run after deployment to set up defaults"
      },
      "unpause()": {
        "notice": "unpause any token transfers including mints and burns"
      },
      "withdrawFunds()": {
        "notice": "Allow Owner to withdraw of MATIC from the contract"
      }
    },
    "notice": "This contract allows for escrowed NFT breeding",
    "version": 1
  },
  "storageLayout": {
    "storage": [
      {
        "astId": 1031,
        "contract": "contracts/HatcherV3.sol:HatcherV3",
        "label": "_initialized",
        "offset": 0,
        "slot": "0",
        "type": "t_uint8"
      },
      {
        "astId": 1034,
        "contract": "contracts/HatcherV3.sol:HatcherV3",
        "label": "_initializing",
        "offset": 1,
        "slot": "0",
        "type": "t_bool"
      },
      {
        "astId": 3176,
        "contract": "contracts/HatcherV3.sol:HatcherV3",
        "label": "__gap",
        "offset": 0,
        "slot": "1",
        "type": "t_array(t_uint256)50_storage"
      },
      {
        "astId": 1352,
        "contract": "contracts/HatcherV3.sol:HatcherV3",
        "label": "_paused",
        "offset": 0,
        "slot": "51",
        "type": "t_bool"
      },
      {
        "astId": 1457,
        "contract": "contracts/HatcherV3.sol:HatcherV3",
        "label": "__gap",
        "offset": 0,
        "slot": "52",
        "type": "t_array(t_uint256)49_storage"
      },
      {
        "astId": 1013,
        "contract": "contracts/HatcherV3.sol:HatcherV3",
        "label": "__gap",
        "offset": 0,
        "slot": "101",
        "type": "t_array(t_uint256)50_storage"
      },
      {
        "astId": 1329,
        "contract": "contracts/HatcherV3.sol:HatcherV3",
        "label": "__gap",
        "offset": 0,
        "slot": "151",
        "type": "t_array(t_uint256)50_storage"
      },
      {
        "astId": 1478,
        "contract": "contracts/HatcherV3.sol:HatcherV3",
        "label": "_balances",
        "offset": 0,
        "slot": "201",
        "type": "t_mapping(t_address,t_uint256)"
      },
      {
        "astId": 1484,
        "contract": "contracts/HatcherV3.sol:HatcherV3",
        "label": "_allowances",
        "offset": 0,
        "slot": "202",
        "type": "t_mapping(t_address,t_mapping(t_address,t_uint256))"
      },
      {
        "astId": 1486,
        "contract": "contracts/HatcherV3.sol:HatcherV3",
        "label": "_totalSupply",
        "offset": 0,
        "slot": "203",
        "type": "t_uint256"
      },
      {
        "astId": 1488,
        "contract": "contracts/HatcherV3.sol:HatcherV3",
        "label": "_name",
        "offset": 0,
        "slot": "204",
        "type": "t_string_storage"
      },
      {
        "astId": 1490,
        "contract": "contracts/HatcherV3.sol:HatcherV3",
        "label": "_symbol",
        "offset": 0,
        "slot": "205",
        "type": "t_string_storage"
      },
      {
        "astId": 2070,
        "contract": "contracts/HatcherV3.sol:HatcherV3",
        "label": "__gap",
        "offset": 0,
        "slot": "206",
        "type": "t_array(t_uint256)45_storage"
      },
      {
        "astId": 3975,
        "contract": "contracts/HatcherV3.sol:HatcherV3",
        "label": "_hashedName",
        "offset": 0,
        "slot": "251",
        "type": "t_bytes32"
      },
      {
        "astId": 3978,
        "contract": "contracts/HatcherV3.sol:HatcherV3",
        "label": "_hashedVersion",
        "offset": 0,
        "slot": "252",
        "type": "t_bytes32"
      },
      {
        "astId": 3980,
        "contract": "contracts/HatcherV3.sol:HatcherV3",
        "label": "_name",
        "offset": 0,
        "slot": "253",
        "type": "t_string_storage"
      },
      {
        "astId": 3982,
        "contract": "contracts/HatcherV3.sol:HatcherV3",
        "label": "_version",
        "offset": 0,
        "slot": "254",
        "type": "t_string_storage"
      },
      {
        "astId": 4240,
        "contract": "contracts/HatcherV3.sol:HatcherV3",
        "label": "__gap",
        "offset": 0,
        "slot": "255",
        "type": "t_array(t_uint256)48_storage"
      },
      {
        "astId": 2176,
        "contract": "contracts/HatcherV3.sol:HatcherV3",
        "label": "_nonces",
        "offset": 0,
        "slot": "303",
        "type": "t_mapping(t_address,t_struct(Counter)3183_storage)"
      },
      {
        "astId": 2184,
        "contract": "contracts/HatcherV3.sol:HatcherV3",
        "label": "_PERMIT_TYPEHASH_DEPRECATED_SLOT",
        "offset": 0,
        "slot": "304",
        "type": "t_bytes32"
      },
      {
        "astId": 2340,
        "contract": "contracts/HatcherV3.sol:HatcherV3",
        "label": "__gap",
        "offset": 0,
        "slot": "305",
        "type": "t_array(t_uint256)49_storage"
      },
      {
        "astId": 173,
        "contract": "contracts/HatcherV3.sol:HatcherV3",
        "label": "_totalShares",
        "offset": 0,
        "slot": "354",
        "type": "t_uint256"
      },
      {
        "astId": 175,
        "contract": "contracts/HatcherV3.sol:HatcherV3",
        "label": "_totalReleased",
        "offset": 0,
        "slot": "355",
        "type": "t_uint256"
      },
      {
        "astId": 179,
        "contract": "contracts/HatcherV3.sol:HatcherV3",
        "label": "_shares",
        "offset": 0,
        "slot": "356",
        "type": "t_mapping(t_address,t_uint256)"
      },
      {
        "astId": 183,
        "contract": "contracts/HatcherV3.sol:HatcherV3",
        "label": "_released",
        "offset": 0,
        "slot": "357",
        "type": "t_mapping(t_address,t_uint256)"
      },
      {
        "astId": 186,
        "contract": "contracts/HatcherV3.sol:HatcherV3",
        "label": "_payees",
        "offset": 0,
        "slot": "358",
        "type": "t_array(t_address)dyn_storage"
      },
      {
        "astId": 191,
        "contract": "contracts/HatcherV3.sol:HatcherV3",
        "label": "_erc20TotalReleased",
        "offset": 0,
        "slot": "359",
        "type": "t_mapping(t_contract(IERC20Upgradeable)2149,t_uint256)"
      },
      {
        "astId": 198,
        "contract": "contracts/HatcherV3.sol:HatcherV3",
        "label": "_erc20Released",
        "offset": 0,
        "slot": "360",
        "type": "t_mapping(t_contract(IERC20Upgradeable)2149,t_mapping(t_address,t_uint256))"
      },
      {
        "astId": 632,
        "contract": "contracts/HatcherV3.sol:HatcherV3",
        "label": "__gap",
        "offset": 0,
        "slot": "361",
        "type": "t_array(t_uint256)43_storage"
      },
      {
        "astId": 11,
        "contract": "contracts/HatcherV3.sol:HatcherV3",
        "label": "_owner",
        "offset": 0,
        "slot": "404",
        "type": "t_address"
      },
      {
        "astId": 131,
        "contract": "contracts/HatcherV3.sol:HatcherV3",
        "label": "__gap",
        "offset": 0,
        "slot": "405",
        "type": "t_array(t_uint256)49_storage"
      },
      {
        "astId": 11348,
        "contract": "contracts/HatcherV3.sol:HatcherV3",
        "label": "breedContract",
        "offset": 0,
        "slot": "454",
        "type": "t_contract(IBreedContract)11209"
      },
      {
        "astId": 11350,
        "contract": "contracts/HatcherV3.sol:HatcherV3",
        "label": "treasuryAddr",
        "offset": 0,
        "slot": "455",
        "type": "t_address_payable"
      },
      {
        "astId": 11353,
        "contract": "contracts/HatcherV3.sol:HatcherV3",
        "label": "nftPlanetContract",
        "offset": 0,
        "slot": "456",
        "type": "t_contract(IERC721)11197"
      },
      {
        "astId": 11355,
        "contract": "contracts/HatcherV3.sol:HatcherV3",
        "label": "vrfValue",
        "offset": 0,
        "slot": "457",
        "type": "t_uint256"
      },
      {
        "astId": 11361,
        "contract": "contracts/HatcherV3.sol:HatcherV3",
        "label": "userToListedPlanets",
        "offset": 0,
        "slot": "458",
        "type": "t_mapping(t_address,t_array(t_struct(ListedPlanet)11218_storage)dyn_storage)"
      },
      {
        "astId": 11365,
        "contract": "contracts/HatcherV3.sol:HatcherV3",
        "label": "planetsListed",
        "offset": 0,
        "slot": "459",
        "type": "t_array(t_struct(ListedPlanet)11218_storage)dyn_storage"
      },
      {
        "astId": 11372,
        "contract": "contracts/HatcherV3.sol:HatcherV3",
        "label": "conjunctingTokenIdToOwnerAddr",
        "offset": 0,
        "slot": "460",
        "type": "t_mapping(t_uint256,t_address)"
      },
      {
        "astId": 11378,
        "contract": "contracts/HatcherV3.sol:HatcherV3",
        "label": "claimablePlanets",
        "offset": 0,
        "slot": "461",
        "type": "t_mapping(t_address,t_array(t_struct(ClaimablePlanet)11233_storage)dyn_storage)"
      },
      {
        "astId": 11380,
        "contract": "contracts/HatcherV3.sol:HatcherV3",
        "label": "mktFee",
        "offset": 0,
        "slot": "462",
        "type": "t_uint256"
      },
      {
        "astId": 11384,
        "contract": "contracts/HatcherV3.sol:HatcherV3",
        "label": "tokenIdClaimableToOwnerAddr",
        "offset": 0,
        "slot": "463",
        "type": "t_mapping(t_uint256,t_address)"
      },
      {
        "astId": 11388,
        "contract": "contracts/HatcherV3.sol:HatcherV3",
        "label": "listedTokenIdToOwnerAddr",
        "offset": 0,
        "slot": "464",
        "type": "t_mapping(t_uint256,t_address)"
      },
      {
        "astId": 11391,
        "contract": "contracts/HatcherV3.sol:HatcherV3",
        "label": "aprsContract",
        "offset": 0,
        "slot": "465",
        "type": "t_contract(IERC20)5715"
      },
      {
        "astId": 11394,
        "contract": "contracts/HatcherV3.sol:HatcherV3",
        "label": "animaContract",
        "offset": 0,
        "slot": "466",
        "type": "t_contract(IERC20)5715"
      },
      {
        "astId": 11400,
        "contract": "contracts/HatcherV3.sol:HatcherV3",
        "label": "orphanClaims",
        "offset": 0,
        "slot": "467",
        "type": "t_mapping(t_uint256,t_array(t_struct(ClaimablePlanet)11233_storage)dyn_storage)"
      },
      {
        "astId": 11403,
        "contract": "contracts/HatcherV3.sol:HatcherV3",
        "label": "managerPlanetContract",
        "offset": 0,
        "slot": "468",
        "type": "t_contract(IERC721)11197"
      }
    ],
    "types": {
      "t_address": {
        "encoding": "inplace",
        "label": "address",
        "numberOfBytes": "20"
      },
      "t_address_payable": {
        "encoding": "inplace",
        "label": "address payable",
        "numberOfBytes": "20"
      },
      "t_array(t_address)dyn_storage": {
        "base": "t_address",
        "encoding": "dynamic_array",
        "label": "address[]",
        "numberOfBytes": "32"
      },
      "t_array(t_struct(ClaimablePlanet)11233_storage)dyn_storage": {
        "base": "t_struct(ClaimablePlanet)11233_storage",
        "encoding": "dynamic_array",
        "label": "struct ClaimablePlanet[]",
        "numberOfBytes": "32"
      },
      "t_array(t_struct(ListedPlanet)11218_storage)dyn_storage": {
        "base": "t_struct(ListedPlanet)11218_storage",
        "encoding": "dynamic_array",
        "label": "struct ListedPlanet[]",
        "numberOfBytes": "32"
      },
      "t_array(t_uint256)43_storage": {
        "base": "t_uint256",
        "encoding": "inplace",
        "label": "uint256[43]",
        "numberOfBytes": "1376"
      },
      "t_array(t_uint256)45_storage": {
        "base": "t_uint256",
        "encoding": "inplace",
        "label": "uint256[45]",
        "numberOfBytes": "1440"
      },
      "t_array(t_uint256)48_storage": {
        "base": "t_uint256",
        "encoding": "inplace",
        "label": "uint256[48]",
        "numberOfBytes": "1536"
      },
      "t_array(t_uint256)49_storage": {
        "base": "t_uint256",
        "encoding": "inplace",
        "label": "uint256[49]",
        "numberOfBytes": "1568"
      },
      "t_array(t_uint256)50_storage": {
        "base": "t_uint256",
        "encoding": "inplace",
        "label": "uint256[50]",
        "numberOfBytes": "1600"
      },
      "t_bool": {
        "encoding": "inplace",
        "label": "bool",
        "numberOfBytes": "1"
      },
      "t_bytes32": {
        "encoding": "inplace",
        "label": "bytes32",
        "numberOfBytes": "32"
      },
      "t_contract(IBreedContract)11209": {
        "encoding": "inplace",
        "label": "contract IBreedContract",
        "numberOfBytes": "20"
      },
      "t_contract(IERC20)5715": {
        "encoding": "inplace",
        "label": "contract IERC20",
        "numberOfBytes": "20"
      },
      "t_contract(IERC20Upgradeable)2149": {
        "encoding": "inplace",
        "label": "contract IERC20Upgradeable",
        "numberOfBytes": "20"
      },
      "t_contract(IERC721)11197": {
        "encoding": "inplace",
        "label": "contract IERC721",
        "numberOfBytes": "20"
      },
      "t_mapping(t_address,t_array(t_struct(ClaimablePlanet)11233_storage)dyn_storage)": {
        "encoding": "mapping",
        "key": "t_address",
        "label": "mapping(address => struct ClaimablePlanet[])",
        "numberOfBytes": "32",
        "value": "t_array(t_struct(ClaimablePlanet)11233_storage)dyn_storage"
      },
      "t_mapping(t_address,t_array(t_struct(ListedPlanet)11218_storage)dyn_storage)": {
        "encoding": "mapping",
        "key": "t_address",
        "label": "mapping(address => struct ListedPlanet[])",
        "numberOfBytes": "32",
        "value": "t_array(t_struct(ListedPlanet)11218_storage)dyn_storage"
      },
      "t_mapping(t_address,t_mapping(t_address,t_uint256))": {
        "encoding": "mapping",
        "key": "t_address",
        "label": "mapping(address => mapping(address => uint256))",
        "numberOfBytes": "32",
        "value": "t_mapping(t_address,t_uint256)"
      },
      "t_mapping(t_address,t_struct(Counter)3183_storage)": {
        "encoding": "mapping",
        "key": "t_address",
        "label": "mapping(address => struct CountersUpgradeable.Counter)",
        "numberOfBytes": "32",
        "value": "t_struct(Counter)3183_storage"
      },
      "t_mapping(t_address,t_uint256)": {
        "encoding": "mapping",
        "key": "t_address",
        "label": "mapping(address => uint256)",
        "numberOfBytes": "32",
        "value": "t_uint256"
      },
      "t_mapping(t_contract(IERC20Upgradeable)2149,t_mapping(t_address,t_uint256))": {
        "encoding": "mapping",
        "key": "t_contract(IERC20Upgradeable)2149",
        "label": "mapping(contract IERC20Upgradeable => mapping(address => uint256))",
        "numberOfBytes": "32",
        "value": "t_mapping(t_address,t_uint256)"
      },
      "t_mapping(t_contract(IERC20Upgradeable)2149,t_uint256)": {
        "encoding": "mapping",
        "key": "t_contract(IERC20Upgradeable)2149",
        "label": "mapping(contract IERC20Upgradeable => uint256)",
        "numberOfBytes": "32",
        "value": "t_uint256"
      },
      "t_mapping(t_uint256,t_address)": {
        "encoding": "mapping",
        "key": "t_uint256",
        "label": "mapping(uint256 => address)",
        "numberOfBytes": "32",
        "value": "t_address"
      },
      "t_mapping(t_uint256,t_array(t_struct(ClaimablePlanet)11233_storage)dyn_storage)": {
        "encoding": "mapping",
        "key": "t_uint256",
        "label": "mapping(uint256 => struct ClaimablePlanet[])",
        "numberOfBytes": "32",
        "value": "t_array(t_struct(ClaimablePlanet)11233_storage)dyn_storage"
      },
      "t_string_storage": {
        "encoding": "bytes",
        "label": "string",
        "numberOfBytes": "32"
      },
      "t_struct(ClaimablePlanet)11233_storage": {
        "encoding": "inplace",
        "label": "struct ClaimablePlanet",
        "members": [
          {
            "astId": 11220,
            "contract": "contracts/HatcherV3.sol:HatcherV3",
            "label": "ownerParentAddress",
            "offset": 0,
            "slot": "0",
            "type": "t_address"
          },
          {
            "astId": 11222,
            "contract": "contracts/HatcherV3.sol:HatcherV3",
            "label": "ownerTokenId",
            "offset": 0,
            "slot": "1",
            "type": "t_uint256"
          },
          {
            "astId": 11224,
            "contract": "contracts/HatcherV3.sol:HatcherV3",
            "label": "delivered",
            "offset": 0,
            "slot": "2",
            "type": "t_bool"
          },
          {
            "astId": 11226,
            "contract": "contracts/HatcherV3.sol:HatcherV3",
            "label": "arrived",
            "offset": 1,
            "slot": "2",
            "type": "t_bool"
          },
          {
            "astId": 11228,
            "contract": "contracts/HatcherV3.sol:HatcherV3",
            "label": "otherParent",
            "offset": 2,
            "slot": "2",
            "type": "t_address"
          },
          {
            "astId": 11230,
            "contract": "contracts/HatcherV3.sol:HatcherV3",
            "label": "otherTokenId",
            "offset": 0,
            "slot": "3",
            "type": "t_uint256"
          },
          {
            "astId": 11232,
            "contract": "contracts/HatcherV3.sol:HatcherV3",
            "label": "claimsTokenId",
            "offset": 0,
            "slot": "4",
            "type": "t_uint256"
          }
        ],
        "numberOfBytes": "160"
      },
      "t_struct(Counter)3183_storage": {
        "encoding": "inplace",
        "label": "struct CountersUpgradeable.Counter",
        "members": [
          {
            "astId": 3182,
            "contract": "contracts/HatcherV3.sol:HatcherV3",
            "label": "_value",
            "offset": 0,
            "slot": "0",
            "type": "t_uint256"
          }
        ],
        "numberOfBytes": "32"
      },
      "t_struct(ListedPlanet)11218_storage": {
        "encoding": "inplace",
        "label": "struct ListedPlanet",
        "members": [
          {
            "astId": 11211,
            "contract": "contracts/HatcherV3.sol:HatcherV3",
            "label": "tokenId",
            "offset": 0,
            "slot": "0",
            "type": "t_uint256"
          },
          {
            "astId": 11213,
            "contract": "contracts/HatcherV3.sol:HatcherV3",
            "label": "price",
            "offset": 0,
            "slot": "1",
            "type": "t_uint256"
          },
          {
            "astId": 11215,
            "contract": "contracts/HatcherV3.sol:HatcherV3",
            "label": "ownerAddress",
            "offset": 0,
            "slot": "2",
            "type": "t_address"
          },
          {
            "astId": 11217,
            "contract": "contracts/HatcherV3.sol:HatcherV3",
            "label": "active",
            "offset": 20,
            "slot": "2",
            "type": "t_bool"
          }
        ],
        "numberOfBytes": "96"
      },
      "t_uint256": {
        "encoding": "inplace",
        "label": "uint256",
        "numberOfBytes": "32"
      },
      "t_uint8": {
        "encoding": "inplace",
        "label": "uint8",
        "numberOfBytes": "1"
      }
    }
  }
}