{
  "address": "0xeaE46FBa7D57C783456eA9680d89Fd7Ab7032B81",
  "abi": [
    {
      "inputs": [],
      "name": "Unauthorized",
      "type": "error"
    },
    {
      "anonymous": false,
      "inputs": [
        {
          "indexed": false,
          "internalType": "address",
          "name": "previousAdmin",
          "type": "address"
        },
        {
          "indexed": false,
          "internalType": "address",
          "name": "newAdmin",
          "type": "address"
        }
      ],
      "name": "AdminChanged",
      "type": "event"
    },
    {
      "anonymous": false,
      "inputs": [
        {
          "indexed": true,
          "internalType": "address",
          "name": "owner",
          "type": "address"
        },
        {
          "indexed": true,
          "internalType": "address",
          "name": "spender",
          "type": "address"
        },
        {
          "indexed": false,
          "internalType": "uint256",
          "name": "value",
          "type": "uint256"
        }
      ],
      "name": "Approval",
      "type": "event"
    },
    {
      "anonymous": false,
      "inputs": [
        {
          "indexed": true,
          "internalType": "address",
          "name": "beacon",
          "type": "address"
        }
      ],
      "name": "BeaconUpgraded",
      "type": "event"
    },
    {
      "anonymous": false,
      "inputs": [
        {
          "indexed": false,
          "internalType": "address",
          "name": "sentToUser",
          "type": "address"
        },
        {
          "indexed": false,
          "internalType": "address",
          "name": "token",
          "type": "address"
        },
        {
          "indexed": false,
          "internalType": "uint256",
          "name": "tokenId",
          "type": "uint256"
        }
      ],
      "name": "DeClaimedAPlanet",
      "type": "event"
    },
    {
      "anonymous": false,
      "inputs": [
        {
          "indexed": false,
          "internalType": "address",
          "name": "sentToUser",
          "type": "address"
        },
        {
          "indexed": false,
          "internalType": "address",
          "name": "token",
          "type": "address"
        },
        {
          "indexed": false,
          "internalType": "uint256",
          "name": "tokenId",
          "type": "uint256"
        }
      ],
      "name": "DeListedAPlanet",
      "type": "event"
    },
    {
      "anonymous": false,
      "inputs": [],
      "name": "EIP712DomainChanged",
      "type": "event"
    },
    {
      "anonymous": false,
      "inputs": [
        {
          "indexed": true,
          "internalType": "contract IERC20Upgradeable",
          "name": "token",
          "type": "address"
        },
        {
          "indexed": false,
          "internalType": "address",
          "name": "to",
          "type": "address"
        },
        {
          "indexed": false,
          "internalType": "uint256",
          "name": "amount",
          "type": "uint256"
        }
      ],
      "name": "ERC20PaymentReleased",
      "type": "event"
    },
    {
      "anonymous": false,
      "inputs": [
        {
          "indexed": false,
          "internalType": "uint8",
          "name": "version",
          "type": "uint8"
        }
      ],
      "name": "Initialized",
      "type": "event"
    },
    {
      "anonymous": false,
      "inputs": [
        {
          "indexed": false,
          "internalType": "address",
          "name": "sentFromUser",
          "type": "address"
        },
        {
          "indexed": false,
          "internalType": "address",
          "name": "token",
          "type": "address"
        },
        {
          "indexed": false,
          "internalType": "uint256",
          "name": "tokenId",
          "type": "uint256"
        },
        {
          "indexed": false,
          "internalType": "uint256",
          "name": "price",
          "type": "uint256"
        }
      ],
      "name": "ListedAPlanet",
      "type": "event"
    },
    {
      "anonymous": false,
      "inputs": [
        {
          "indexed": false,
          "internalType": "address",
          "name": "operator",
          "type": "address"
        },
        {
          "indexed": false,
          "internalType": "address",
          "name": "from",
          "type": "address"
        },
        {
          "indexed": false,
          "internalType": "uint256",
          "name": "tokenId",
          "type": "uint256"
        },
        {
          "indexed": false,
          "internalType": "bytes",
          "name": "data",
          "type": "bytes"
        },
        {
          "indexed": false,
          "internalType": "string",
          "name": "typeOfReceival",
          "type": "string"
        }
      ],
      "name": "NftReceived",
      "type": "event"
    },
    {
      "anonymous": false,
      "inputs": [
        {
          "indexed": true,
          "internalType": "address",
          "name": "previousOwner",
          "type": "address"
        },
        {
          "indexed": true,
          "internalType": "address",
          "name": "newOwner",
          "type": "address"
        }
      ],
      "name": "OwnershipTransferred",
      "type": "event"
    },
    {
      "anonymous": false,
      "inputs": [
        {
          "indexed": false,
          "internalType": "address",
          "name": "account",
          "type": "address"
        }
      ],
      "name": "Paused",
      "type": "event"
    },
    {
      "anonymous": false,
      "inputs": [
        {
          "indexed": false,
          "internalType": "address",
          "name": "account",
          "type": "address"
        },
        {
          "indexed": false,
          "internalType": "uint256",
          "name": "shares",
          "type": "uint256"
        }
      ],
      "name": "PayeeAdded",
      "type": "event"
    },
    {
      "anonymous": false,
      "inputs": [
        {
          "indexed": false,
          "internalType": "address",
          "name": "from",
          "type": "address"
        },
        {
          "indexed": false,
          "internalType": "uint256",
          "name": "amount",
          "type": "uint256"
        }
      ],
      "name": "PaymentReceived",
      "type": "event"
    },
    {
      "anonymous": false,
      "inputs": [
        {
          "indexed": false,
          "internalType": "address",
          "name": "to",
          "type": "address"
        },
        {
          "indexed": false,
          "internalType": "uint256",
          "name": "amount",
          "type": "uint256"
        }
      ],
      "name": "PaymentReleased",
      "type": "event"
    },
    {
      "anonymous": false,
      "inputs": [
        {
          "indexed": false,
          "internalType": "uint256",
          "name": "planetAsking",
          "type": "uint256"
        },
        {
          "indexed": false,
          "internalType": "address",
          "name": "askingUser",
          "type": "address"
        },
        {
          "indexed": false,
          "internalType": "uint256",
          "name": "planetJoining",
          "type": "uint256"
        },
        {
          "indexed": false,
          "internalType": "address",
          "name": "joiningUser",
          "type": "address"
        }
      ],
      "name": "PlanetsConjoining",
      "type": "event"
    },
    {
      "anonymous": false,
      "inputs": [
        {
          "indexed": true,
          "internalType": "address",
          "name": "from",
          "type": "address"
        },
        {
          "indexed": true,
          "internalType": "address",
          "name": "to",
          "type": "address"
        },
        {
          "indexed": false,
          "internalType": "uint256",
          "name": "value",
          "type": "uint256"
        }
      ],
      "name": "Transfer",
      "type": "event"
    },
    {
      "anonymous": false,
      "inputs": [
        {
          "indexed": false,
          "internalType": "address",
          "name": "account",
          "type": "address"
        }
      ],
      "name": "Unpaused",
      "type": "event"
    },
    {
      "anonymous": false,
      "inputs": [
        {
          "indexed": true,
          "internalType": "address",
          "name": "implementation",
          "type": "address"
        }
      ],
      "name": "Upgraded",
      "type": "event"
    },
    {
      "stateMutability": "payable",
      "type": "fallback"
    },
    {
      "inputs": [],
      "name": "DOMAIN_SEPARATOR",
      "outputs": [
        {
          "internalType": "bytes32",
          "name": "",
          "type": "bytes32"
        }
      ],
      "stateMutability": "view",
      "type": "function"
    },
    {
      "inputs": [
        {
          "internalType": "address",
          "name": "owner",
          "type": "address"
        },
        {
          "internalType": "address",
          "name": "spender",
          "type": "address"
        }
      ],
      "name": "allowance",
      "outputs": [
        {
          "internalType": "uint256",
          "name": "",
          "type": "uint256"
        }
      ],
      "stateMutability": "view",
      "type": "function"
    },
    {
      "inputs": [
        {
          "internalType": "address",
          "name": "spender",
          "type": "address"
        },
        {
          "internalType": "uint256",
          "name": "amount",
          "type": "uint256"
        }
      ],
      "name": "approve",
      "outputs": [
        {
          "internalType": "bool",
          "name": "",
          "type": "bool"
        }
      ],
      "stateMutability": "nonpayable",
      "type": "function"
    },
    {
      "inputs": [
        {
          "internalType": "address",
          "name": "account",
          "type": "address"
        }
      ],
      "name": "balanceOf",
      "outputs": [
        {
          "internalType": "uint256",
          "name": "",
          "type": "uint256"
        }
      ],
      "stateMutability": "view",
      "type": "function"
    },
    {
      "inputs": [],
      "name": "breedContract",
      "outputs": [
        {
          "internalType": "contract IBreedContract",
          "name": "",
          "type": "address"
        }
      ],
      "stateMutability": "view",
      "type": "function"
    },
    {
      "inputs": [
        {
          "internalType": "uint256",
          "name": "newVRF",
          "type": "uint256"
        }
      ],
      "name": "changeVRFValue",
      "outputs": [],
      "stateMutability": "nonpayable",
      "type": "function"
    },
    {
      "inputs": [
        {
          "internalType": "address",
          "name": "owner",
          "type": "address"
        },
        {
          "internalType": "address",
          "name": "operator",
          "type": "address"
        }
      ],
      "name": "checkApprovalForAll",
      "outputs": [
        {
          "internalType": "bool",
          "name": "",
          "type": "bool"
        }
      ],
      "stateMutability": "view",
      "type": "function"
    },
    {
      "inputs": [
        {
          "internalType": "uint256",
          "name": "claimableTokenId",
          "type": "uint256"
        }
      ],
      "name": "claimPlanet",
      "outputs": [],
      "stateMutability": "nonpayable",
      "type": "function"
    },
    {
      "inputs": [
        {
          "internalType": "address",
          "name": "",
          "type": "address"
        },
        {
          "internalType": "uint256",
          "name": "",
          "type": "uint256"
        }
      ],
      "name": "claimablePlanets",
      "outputs": [
        {
          "internalType": "address",
          "name": "ownerParentAddress",
          "type": "address"
        },
        {
          "internalType": "uint256",
          "name": "ownerTokenId",
          "type": "uint256"
        },
        {
          "internalType": "bool",
          "name": "delivered",
          "type": "bool"
        },
        {
          "internalType": "bool",
          "name": "arrived",
          "type": "bool"
        },
        {
          "internalType": "address",
          "name": "otherParent",
          "type": "address"
        },
        {
          "internalType": "uint256",
          "name": "otherTokenId",
          "type": "uint256"
        },
        {
          "internalType": "uint256",
          "name": "claimsTokenId",
          "type": "uint256"
        }
      ],
      "stateMutability": "view",
      "type": "function"
    },
    {
      "inputs": [
        {
          "internalType": "uint256",
          "name": "",
          "type": "uint256"
        }
      ],
      "name": "claimantTokenIdToOwnerAddress",
      "outputs": [
        {
          "internalType": "address",
          "name": "",
          "type": "address"
        }
      ],
      "stateMutability": "view",
      "type": "function"
    },
    {
      "inputs": [
        {
          "internalType": "uint256",
          "name": "yourPlanet",
          "type": "uint256"
        },
        {
          "internalType": "uint256",
          "name": "withListedPlanet",
          "type": "uint256"
        }
      ],
      "name": "conjunct",
      "outputs": [],
      "stateMutability": "payable",
      "type": "function"
    },
    {
      "inputs": [
        {
          "internalType": "uint256",
          "name": "idIndex",
          "type": "uint256"
        },
        {
          "internalType": "uint256",
          "name": "tokenId",
          "type": "uint256"
        }
      ],
      "name": "deList",
      "outputs": [],
      "stateMutability": "nonpayable",
      "type": "function"
    },
    {
      "inputs": [],
      "name": "deListAllYourPlanets",
      "outputs": [],
      "stateMutability": "nonpayable",
      "type": "function"
    },
    {
      "inputs": [],
      "name": "decimals",
      "outputs": [
        {
          "internalType": "uint8",
          "name": "",
          "type": "uint8"
        }
      ],
      "stateMutability": "view",
      "type": "function"
    },
    {
      "inputs": [
        {
          "internalType": "address",
          "name": "spender",
          "type": "address"
        },
        {
          "internalType": "uint256",
          "name": "subtractedValue",
          "type": "uint256"
        }
      ],
      "name": "decreaseAllowance",
      "outputs": [
        {
          "internalType": "bool",
          "name": "",
          "type": "bool"
        }
      ],
      "stateMutability": "nonpayable",
      "type": "function"
    },
    {
      "inputs": [],
      "name": "eip712Domain",
      "outputs": [
        {
          "internalType": "bytes1",
          "name": "fields",
          "type": "bytes1"
        },
        {
          "internalType": "string",
          "name": "name",
          "type": "string"
        },
        {
          "internalType": "string",
          "name": "version",
          "type": "string"
        },
        {
          "internalType": "uint256",
          "name": "chainId",
          "type": "uint256"
        },
        {
          "internalType": "address",
          "name": "verifyingContract",
          "type": "address"
        },
        {
          "internalType": "bytes32",
          "name": "salt",
          "type": "bytes32"
        },
        {
          "internalType": "uint256[]",
          "name": "extensions",
          "type": "uint256[]"
        }
      ],
      "stateMutability": "view",
      "type": "function"
    },
    {
      "inputs": [],
      "name": "getAllPlanets",
      "outputs": [
        {
          "components": [
            {
              "internalType": "uint256",
              "name": "tokenId",
              "type": "uint256"
            },
            {
              "internalType": "uint256",
              "name": "price",
              "type": "uint256"
            },
            {
              "internalType": "address",
              "name": "ownerAddress",
              "type": "address"
            },
            {
              "internalType": "bool",
              "name": "active",
              "type": "bool"
            }
          ],
          "internalType": "struct ListedPlanet[]",
          "name": "",
          "type": "tuple[]"
        }
      ],
      "stateMutability": "view",
      "type": "function"
    },
    {
      "inputs": [
        {
          "internalType": "address",
          "name": "userAddr",
          "type": "address"
        }
      ],
      "name": "getClaimablePlanetsFor",
      "outputs": [
        {
          "components": [
            {
              "internalType": "address",
              "name": "ownerParentAddress",
              "type": "address"
            },
            {
              "internalType": "uint256",
              "name": "ownerTokenId",
              "type": "uint256"
            },
            {
              "internalType": "bool",
              "name": "delivered",
              "type": "bool"
            },
            {
              "internalType": "bool",
              "name": "arrived",
              "type": "bool"
            },
            {
              "internalType": "address",
              "name": "otherParent",
              "type": "address"
            },
            {
              "internalType": "uint256",
              "name": "otherTokenId",
              "type": "uint256"
            },
            {
              "internalType": "uint256",
              "name": "claimsTokenId",
              "type": "uint256"
            }
          ],
          "internalType": "struct ClaimablePlanet[]",
          "name": "",
          "type": "tuple[]"
        }
      ],
      "stateMutability": "view",
      "type": "function"
    },
    {
      "inputs": [
        {
          "internalType": "uint256",
          "name": "claimableTokenId",
          "type": "uint256"
        }
      ],
      "name": "getClaimantTokenIdToOwnerAddress",
      "outputs": [
        {
          "internalType": "address",
          "name": "",
          "type": "address"
        }
      ],
      "stateMutability": "view",
      "type": "function"
    },
    {
      "inputs": [
        {
          "internalType": "uint256",
          "name": "startIndex",
          "type": "uint256"
        },
        {
          "internalType": "uint256",
          "name": "endIndex",
          "type": "uint256"
        }
      ],
      "name": "getPlanetsPaginated",
      "outputs": [
        {
          "components": [
            {
              "internalType": "uint256",
              "name": "tokenId",
              "type": "uint256"
            },
            {
              "internalType": "uint256",
              "name": "price",
              "type": "uint256"
            },
            {
              "internalType": "address",
              "name": "ownerAddress",
              "type": "address"
            },
            {
              "internalType": "bool",
              "name": "active",
              "type": "bool"
            }
          ],
          "internalType": "struct ListedPlanet[]",
          "name": "",
          "type": "tuple[]"
        }
      ],
      "stateMutability": "view",
      "type": "function"
    },
    {
      "inputs": [
        {
          "internalType": "address",
          "name": "userAddr",
          "type": "address"
        }
      ],
      "name": "getuserToListedPlanets",
      "outputs": [
        {
          "components": [
            {
              "internalType": "uint256",
              "name": "tokenId",
              "type": "uint256"
            },
            {
              "internalType": "uint256",
              "name": "price",
              "type": "uint256"
            },
            {
              "internalType": "address",
              "name": "ownerAddress",
              "type": "address"
            },
            {
              "internalType": "bool",
              "name": "active",
              "type": "bool"
            }
          ],
          "internalType": "struct ListedPlanet[]",
          "name": "",
          "type": "tuple[]"
        }
      ],
      "stateMutability": "view",
      "type": "function"
    },
    {
      "inputs": [
        {
          "internalType": "address",
          "name": "owner",
          "type": "address"
        },
        {
          "internalType": "uint256",
          "name": "tokenId",
          "type": "uint256"
        }
      ],
      "name": "hasPlanetArrived",
      "outputs": [
        {
          "internalType": "bool",
          "name": "arrived",
          "type": "bool"
        }
      ],
      "stateMutability": "view",
      "type": "function"
    },
    {
      "inputs": [
        {
          "internalType": "address",
          "name": "owner",
          "type": "address"
        },
        {
          "internalType": "uint256",
          "name": "tokenId",
          "type": "uint256"
        }
      ],
      "name": "hasPlanetBeenDelivered",
      "outputs": [
        {
          "internalType": "bool",
          "name": "delivered",
          "type": "bool"
        }
      ],
      "stateMutability": "view",
      "type": "function"
    },
    {
      "inputs": [
        {
          "internalType": "address",
          "name": "spender",
          "type": "address"
        },
        {
          "internalType": "uint256",
          "name": "addedValue",
          "type": "uint256"
        }
      ],
      "name": "increaseAllowance",
      "outputs": [
        {
          "internalType": "bool",
          "name": "",
          "type": "bool"
        }
      ],
      "stateMutability": "nonpayable",
      "type": "function"
    },
    {
      "inputs": [
        {
          "internalType": "address",
          "name": "initialOwner",
          "type": "address"
        }
      ],
      "name": "initialize",
      "outputs": [],
      "stateMutability": "nonpayable",
      "type": "function"
    },
    {
      "inputs": [],
      "name": "listAllYourPlanets",
      "outputs": [],
      "stateMutability": "nonpayable",
      "type": "function"
    },
    {
      "inputs": [],
      "name": "name",
      "outputs": [
        {
          "internalType": "string",
          "name": "",
          "type": "string"
        }
      ],
      "stateMutability": "view",
      "type": "function"
    },
    {
      "inputs": [
        {
          "internalType": "address",
          "name": "owner",
          "type": "address"
        }
      ],
      "name": "nonces",
      "outputs": [
        {
          "internalType": "uint256",
          "name": "",
          "type": "uint256"
        }
      ],
      "stateMutability": "view",
      "type": "function"
    },
    {
      "inputs": [
        {
          "internalType": "address",
          "name": "operator",
          "type": "address"
        },
        {
          "internalType": "address",
          "name": "from",
          "type": "address"
        },
        {
          "internalType": "uint256",
          "name": "tokenId",
          "type": "uint256"
        },
        {
          "internalType": "bytes",
          "name": "data",
          "type": "bytes"
        }
      ],
      "name": "onERC721Received",
      "outputs": [
        {
          "internalType": "bytes4",
          "name": "",
          "type": "bytes4"
        }
      ],
      "stateMutability": "nonpayable",
      "type": "function"
    },
    {
      "inputs": [],
      "name": "owner",
      "outputs": [
        {
          "internalType": "address",
          "name": "",
          "type": "address"
        }
      ],
      "stateMutability": "view",
      "type": "function"
    },
    {
      "inputs": [
        {
          "internalType": "uint256",
          "name": "claimableTokenId",
          "type": "uint256"
        },
        {
          "internalType": "address",
          "name": "sendToAddr",
          "type": "address"
        }
      ],
      "name": "ownerClaimPlanet",
      "outputs": [],
      "stateMutability": "nonpayable",
      "type": "function"
    },
    {
      "inputs": [
        {
          "internalType": "uint256",
          "name": "tokenId",
          "type": "uint256"
        },
        {
          "internalType": "address",
          "name": "destinationAddr",
          "type": "address"
        }
      ],
      "name": "ownerOverrideSendNFT",
      "outputs": [],
      "stateMutability": "nonpayable",
      "type": "function"
    },
    {
      "inputs": [],
      "name": "pause",
      "outputs": [],
      "stateMutability": "nonpayable",
      "type": "function"
    },
    {
      "inputs": [],
      "name": "paused",
      "outputs": [
        {
          "internalType": "bool",
          "name": "",
          "type": "bool"
        }
      ],
      "stateMutability": "view",
      "type": "function"
    },
    {
      "inputs": [
        {
          "internalType": "uint256",
          "name": "index",
          "type": "uint256"
        }
      ],
      "name": "payee",
      "outputs": [
        {
          "internalType": "address",
          "name": "",
          "type": "address"
        }
      ],
      "stateMutability": "view",
      "type": "function"
    },
    {
      "inputs": [
        {
          "internalType": "address",
          "name": "owner",
          "type": "address"
        },
        {
          "internalType": "address",
          "name": "spender",
          "type": "address"
        },
        {
          "internalType": "uint256",
          "name": "value",
          "type": "uint256"
        },
        {
          "internalType": "uint256",
          "name": "deadline",
          "type": "uint256"
        },
        {
          "internalType": "uint8",
          "name": "v",
          "type": "uint8"
        },
        {
          "internalType": "bytes32",
          "name": "r",
          "type": "bytes32"
        },
        {
          "internalType": "bytes32",
          "name": "s",
          "type": "bytes32"
        }
      ],
      "name": "permit",
      "outputs": [],
      "stateMutability": "nonpayable",
      "type": "function"
    },
    {
      "inputs": [],
      "name": "proxiableUUID",
      "outputs": [
        {
          "internalType": "bytes32",
          "name": "",
          "type": "bytes32"
        }
      ],
      "stateMutability": "view",
      "type": "function"
    },
    {
      "inputs": [
        {
          "internalType": "address",
          "name": "account",
          "type": "address"
        }
      ],
      "name": "releasable",
      "outputs": [
        {
          "internalType": "uint256",
          "name": "",
          "type": "uint256"
        }
      ],
      "stateMutability": "view",
      "type": "function"
    },
    {
      "inputs": [
        {
          "internalType": "contract IERC20Upgradeable",
          "name": "token",
          "type": "address"
        },
        {
          "internalType": "address",
          "name": "account",
          "type": "address"
        }
      ],
      "name": "releasable",
      "outputs": [
        {
          "internalType": "uint256",
          "name": "",
          "type": "uint256"
        }
      ],
      "stateMutability": "view",
      "type": "function"
    },
    {
      "inputs": [
        {
          "internalType": "address payable",
          "name": "account",
          "type": "address"
        }
      ],
      "name": "release",
      "outputs": [],
      "stateMutability": "nonpayable",
      "type": "function"
    },
    {
      "inputs": [
        {
          "internalType": "contract IERC20Upgradeable",
          "name": "token",
          "type": "address"
        },
        {
          "internalType": "address",
          "name": "account",
          "type": "address"
        }
      ],
      "name": "release",
      "outputs": [],
      "stateMutability": "nonpayable",
      "type": "function"
    },
    {
      "inputs": [
        {
          "internalType": "contract IERC20Upgradeable",
          "name": "token",
          "type": "address"
        },
        {
          "internalType": "address",
          "name": "account",
          "type": "address"
        }
      ],
      "name": "released",
      "outputs": [
        {
          "internalType": "uint256",
          "name": "",
          "type": "uint256"
        }
      ],
      "stateMutability": "view",
      "type": "function"
    },
    {
      "inputs": [
        {
          "internalType": "address",
          "name": "account",
          "type": "address"
        }
      ],
      "name": "released",
      "outputs": [
        {
          "internalType": "uint256",
          "name": "",
          "type": "uint256"
        }
      ],
      "stateMutability": "view",
      "type": "function"
    },
    {
      "inputs": [],
      "name": "renounceOwnership",
      "outputs": [],
      "stateMutability": "nonpayable",
      "type": "function"
    },
    {
      "inputs": [
        {
          "internalType": "address",
          "name": "_breederContractAddr",
          "type": "address"
        },
        {
          "internalType": "uint256",
          "name": "_vrfValue",
          "type": "uint256"
        },
        {
          "internalType": "address",
          "name": "_nftContractAddr",
          "type": "address"
        }
      ],
      "name": "setAllOf",
      "outputs": [],
      "stateMutability": "nonpayable",
      "type": "function"
    },
    {
      "inputs": [
        {
          "internalType": "uint256",
          "name": "_toThisPercentage",
          "type": "uint256"
        }
      ],
      "name": "setMktFee",
      "outputs": [],
      "stateMutability": "nonpayable",
      "type": "function"
    },
    {
      "inputs": [
        {
          "internalType": "address payable",
          "name": "newTAdd",
          "type": "address"
        }
      ],
      "name": "setTAdd",
      "outputs": [],
      "stateMutability": "nonpayable",
      "type": "function"
    },
    {
      "inputs": [
        {
          "internalType": "address",
          "name": "account",
          "type": "address"
        }
      ],
      "name": "shares",
      "outputs": [
        {
          "internalType": "uint256",
          "name": "",
          "type": "uint256"
        }
      ],
      "stateMutability": "view",
      "type": "function"
    },
    {
      "inputs": [],
      "name": "status",
      "outputs": [],
      "stateMutability": "nonpayable",
      "type": "function"
    },
    {
      "inputs": [],
      "name": "symbol",
      "outputs": [
        {
          "internalType": "string",
          "name": "",
          "type": "string"
        }
      ],
      "stateMutability": "view",
      "type": "function"
    },
    {
      "inputs": [
        {
          "internalType": "contract IERC20Upgradeable",
          "name": "token",
          "type": "address"
        }
      ],
      "name": "totalReleased",
      "outputs": [
        {
          "internalType": "uint256",
          "name": "",
          "type": "uint256"
        }
      ],
      "stateMutability": "view",
      "type": "function"
    },
    {
      "inputs": [],
      "name": "totalReleased",
      "outputs": [
        {
          "internalType": "uint256",
          "name": "",
          "type": "uint256"
        }
      ],
      "stateMutability": "view",
      "type": "function"
    },
    {
      "inputs": [],
      "name": "totalShares",
      "outputs": [
        {
          "internalType": "uint256",
          "name": "",
          "type": "uint256"
        }
      ],
      "stateMutability": "view",
      "type": "function"
    },
    {
      "inputs": [],
      "name": "totalSupply",
      "outputs": [
        {
          "internalType": "uint256",
          "name": "",
          "type": "uint256"
        }
      ],
      "stateMutability": "view",
      "type": "function"
    },
    {
      "inputs": [
        {
          "internalType": "address",
          "name": "to",
          "type": "address"
        },
        {
          "internalType": "uint256",
          "name": "amount",
          "type": "uint256"
        }
      ],
      "name": "transfer",
      "outputs": [
        {
          "internalType": "bool",
          "name": "",
          "type": "bool"
        }
      ],
      "stateMutability": "nonpayable",
      "type": "function"
    },
    {
      "inputs": [
        {
          "internalType": "address",
          "name": "from",
          "type": "address"
        },
        {
          "internalType": "address",
          "name": "to",
          "type": "address"
        },
        {
          "internalType": "uint256",
          "name": "amount",
          "type": "uint256"
        }
      ],
      "name": "transferFrom",
      "outputs": [
        {
          "internalType": "bool",
          "name": "",
          "type": "bool"
        }
      ],
      "stateMutability": "nonpayable",
      "type": "function"
    },
    {
      "inputs": [
        {
          "internalType": "address",
          "name": "newOwner",
          "type": "address"
        }
      ],
      "name": "transferOwnership",
      "outputs": [],
      "stateMutability": "nonpayable",
      "type": "function"
    },
    {
      "inputs": [],
      "name": "unpause",
      "outputs": [],
      "stateMutability": "nonpayable",
      "type": "function"
    },
    {
      "inputs": [
        {
          "internalType": "address",
          "name": "newImplementation",
          "type": "address"
        }
      ],
      "name": "upgradeTo",
      "outputs": [],
      "stateMutability": "nonpayable",
      "type": "function"
    },
    {
      "inputs": [
        {
          "internalType": "address",
          "name": "newImplementation",
          "type": "address"
        },
        {
          "internalType": "bytes",
          "name": "data",
          "type": "bytes"
        }
      ],
      "name": "upgradeToAndCall",
      "outputs": [],
      "stateMutability": "payable",
      "type": "function"
    },
    {
      "inputs": [
        {
          "internalType": "address",
          "name": "",
          "type": "address"
        },
        {
          "internalType": "uint256",
          "name": "",
          "type": "uint256"
        }
      ],
      "name": "userToListedPlanets",
      "outputs": [
        {
          "internalType": "uint256",
          "name": "tokenId",
          "type": "uint256"
        },
        {
          "internalType": "uint256",
          "name": "price",
          "type": "uint256"
        },
        {
          "internalType": "address",
          "name": "ownerAddress",
          "type": "address"
        },
        {
          "internalType": "bool",
          "name": "active",
          "type": "bool"
        }
      ],
      "stateMutability": "view",
      "type": "function"
    },
    {
      "inputs": [
        {
          "internalType": "address",
          "name": "userAddress",
          "type": "address"
        }
      ],
      "name": "usersClaims",
      "outputs": [
        {
          "components": [
            {
              "internalType": "address",
              "name": "ownerParentAddress",
              "type": "address"
            },
            {
              "internalType": "uint256",
              "name": "ownerTokenId",
              "type": "uint256"
            },
            {
              "internalType": "bool",
              "name": "delivered",
              "type": "bool"
            },
            {
              "internalType": "bool",
              "name": "arrived",
              "type": "bool"
            },
            {
              "internalType": "address",
              "name": "otherParent",
              "type": "address"
            },
            {
              "internalType": "uint256",
              "name": "otherTokenId",
              "type": "uint256"
            },
            {
              "internalType": "uint256",
              "name": "claimsTokenId",
              "type": "uint256"
            }
          ],
          "internalType": "struct ClaimablePlanet[]",
          "name": "",
          "type": "tuple[]"
        }
      ],
      "stateMutability": "view",
      "type": "function"
    },
    {
      "inputs": [],
      "name": "withdrawFunds",
      "outputs": [],
      "stateMutability": "nonpayable",
      "type": "function"
    },
    {
      "stateMutability": "payable",
      "type": "receive"
    }
  ],
  "transactionHash": "0xaf44078c31cc9b2c7635592d901b535d6eff7dc59029fd2653e440e5cbd01177",
  "args": [],
  "numDeployments": 1,
  "solcInputHash": "7c66beb9f52f7ca4aba97a4535b85e3c",
  "bytecode": "0x60a06040523060805234801561001457600080fd5b506080516158da6200004d60003960008181611421015281816114a601528181611868015281816118ed0152611bad01526158da6000f3fe60806040526004361061038c5760003560e01c80637ecebe00116101da578063cbdf1b5a11610101578063e22aecb41161009a578063f4c149431161006c578063f4c1494314610be6578063fdb4087514610c06578063fde4976714610c26578063fe79222914610a9157005b8063e22aecb414610b24578063e33b7de314610b8f578063ee6e3a2314610ba5578063f2fde38b14610bc657005b8063d79779b2116100d3578063d79779b214610a5a578063dbb774d814610a91578063dd22a9c714610abe578063dd62ed3e14610ade57005b8063cbdf1b5a146109c3578063cdb82a37146109e3578063ce7c2ac214610a03578063d505accf14610a3a57005b80639852595c11610173578063bd83dc0511610145578063bd83dc051461092c578063c45ac05014610963578063c4d66de814610983578063c7c0e6b1146109a357005b80639852595c14610895578063a3f8eace146108cc578063a457c2d7146108ec578063a9059cbb1461090c57005b806385fe7243116101ac57806385fe7243146107f05780638b83209b146108415780638da5cb5b1461086157806395d89b411461088057005b80637ecebe00146107955780638230a784146107b55780638456cb59146104ac57806384b0196e146107c857005b806339509351116102be5780634f1ef286116102575780635c975abb116102295780635c975abb1461071d5780636a23befb1461073557806370a082311461074a578063715018a61461078057005b80634f1ef286146106d557806350842cf3146104805780635270ad6c146106e857806352d1902d1461070857005b8063406072a911610290578063406072a91461062e57806348b75044146106755780634a02099b146106955780634d950449146106b557005b806339509351146105c35780633a7fb03d146105e35780633a98ef39146106035780633f4ba83a1461061957005b8063200d2ed211610330578063313ce56711610302578063313ce5671461052357806334ae54e91461053f5780633644e5151461058e5780633659cfe6146105a357005b8063200d2ed2146104ac57806323b872dd146104c157806324600fc3146104e157806325947818146104f657005b806318160ddd1161036957806318160ddd1461044157806319165587146104605780631ac9a91e146104805780631dd320ea1461048c57005b806306fdde0314610395578063095ea7b3146103c0578063150b7a02146103f057005b3661039357005b005b3480156103a157600080fd5b506103aa610c46565b6040516103b79190614ed9565b60405180910390f35b3480156103cc57600080fd5b506103e06103db366004614f01565b610cd8565b60405190151581526020016103b7565b3480156103fc57600080fd5b5061041061040b36600461500e565b610cf2565b6040517fffffffff0000000000000000000000000000000000000000000000000000000090911681526020016103b7565b34801561044d57600080fd5b5060cb545b6040519081526020016103b7565b34801561046c57600080fd5b5061039361047b36600461507a565b610f83565b34801561039357600080fd5b34801561049857600080fd5b506103e06104a7366004614f01565b6110f8565b3480156104b857600080fd5b506103936111ca565b3480156104cd57600080fd5b506103e06104dc366004615097565b6111da565b3480156104ed57600080fd5b506103936111fe565b34801561050257600080fd5b506105166105113660046150d8565b611240565b6040516103b791906150fa565b34801561052f57600080fd5b50604051601281526020016103b7565b34801561054b57600080fd5b5061057661055a366004615169565b6101cc602052600090815260409020546001600160a01b031681565b6040516001600160a01b0390911681526020016103b7565b34801561059a57600080fd5b50610452611408565b3480156105af57600080fd5b506103936105be36600461507a565b611417565b3480156105cf57600080fd5b506103e06105de366004614f01565b611592565b3480156105ef57600080fd5b506103936105fe366004615182565b6115d1565b34801561060f57600080fd5b5061016254610452565b34801561062557600080fd5b50610393611662565b34801561063a57600080fd5b506104526106493660046151b2565b6001600160a01b0391821660009081526101686020908152604080832093909416825291909152205490565b34801561068157600080fd5b506103936106903660046151b2565b611672565b3480156106a157600080fd5b506103936106b03660046151e0565b611809565b3480156106c157600080fd5b506103936106d0366004615169565b611850565b6103936106e3366004615222565b61185e565b3480156106f457600080fd5b50610393610703366004615169565b6119c6565b34801561071457600080fd5b50610452611ba0565b34801561072957600080fd5b5060335460ff166103e0565b34801561074157600080fd5b50610516611c65565b34801561075657600080fd5b5061045261076536600461507a565b6001600160a01b0316600090815260c9602052604090205490565b34801561078c57600080fd5b50610393611cfb565b3480156107a157600080fd5b506104526107b036600461507a565b611d0d565b6103936107c33660046150d8565b611d2c565b3480156107d457600080fd5b506107dd6125d7565b6040516103b79796959493929190615272565b3480156107fc57600080fd5b5061081061080b366004614f01565b612699565b6040516103b7949392919093845260208401929092526001600160a01b031660408301521515606082015260800190565b34801561084d57600080fd5b5061057661085c366004615169565b6126f1565b34801561086d57600080fd5b50610194546001600160a01b0316610576565b34801561088c57600080fd5b506103aa612722565b3480156108a157600080fd5b506104526108b036600461507a565b6001600160a01b03166000908152610165602052604090205490565b3480156108d857600080fd5b506104526108e736600461507a565b612731565b3480156108f857600080fd5b506103e0610907366004614f01565b61277b565b34801561091857600080fd5b506103e0610927366004614f01565b612825565b34801561093857600080fd5b50610576610947366004615169565b60009081526101cc60205260409020546001600160a01b031690565b34801561096f57600080fd5b5061045261097e3660046151b2565b612833565b34801561098f57600080fd5b5061039361099e36600461507a565b612911565b3480156109af57600080fd5b506103936109be366004615169565b612a43565b3480156109cf57600080fd5b506103936109de3660046150d8565b612a59565b3480156109ef57600080fd5b506103936109fe36600461507a565b612d84565b348015610a0f57600080fd5b50610452610a1e36600461507a565b6001600160a01b03166000908152610164602052604090205490565b348015610a4657600080fd5b50610393610a55366004615327565b612db7565b348015610a6657600080fd5b50610452610a7536600461507a565b6001600160a01b03166000908152610167602052604090205490565b348015610a9d57600080fd5b50610ab1610aac36600461507a565b612f1b565b6040516103b7919061539e565b348015610aca57600080fd5b506103e0610ad93660046151b2565b612feb565b348015610aea57600080fd5b50610452610af93660046151b2565b6001600160a01b03918216600090815260ca6020908152604080832093909416825291909152205490565b348015610b3057600080fd5b50610b44610b3f366004614f01565b61307c565b604080516001600160a01b0398891681526020810197909752941515948601949094529115156060850152909316608083015260a082019290925260c081019190915260e0016103b7565b348015610b9b57600080fd5b5061016354610452565b348015610bb157600080fd5b506101c654610576906001600160a01b031681565b348015610bd257600080fd5b50610393610be136600461507a565b6130ed565b348015610bf257600080fd5b506103e0610c01366004614f01565b61317a565b348015610c1257600080fd5b50610393610c21366004615182565b61320a565b348015610c3257600080fd5b50610516610c4136600461507a565b61329c565b606060cc8054610c5590615425565b80601f0160208091040260200160405190810160405280929190818152602001828054610c8190615425565b8015610cce5780601f10610ca357610100808354040283529160200191610cce565b820191906000526020600020905b815481529060010190602001808311610cb157829003601f168201915b5050505050905090565b600033610ce681858561333d565b60019150505b92915050565b6000808251118015610d0f57506101c8546001600160a01b031633145b15610d7a57600082806020019051810190610d2a9190615459565b9050610d37848287613495565b7f13c6ec2a463a35f898a457814a782f1f567808293fa783a31fa4dac8868e601186868686604051610d6c9493929190615472565b60405180910390a150610f58565b6101c8546001600160a01b03163303610f1a576101c8546040517fdc9ce7a5000000000000000000000000000000000000000000000000000000008152600481018590526000916001600160a01b03169063dc9ce7a590602401600060405180830381865afa158015610df1573d6000803e3d6000fd5b505050506040513d6000823e601f3d908101601f19168201604052610e19919081019061556b565b50905060008161012001519050600085905060006101cc600084600081518110610e4557610e4561568a565b6020026020010151815260200190815260200160002060009054906101000a90046001600160a01b0316905060006101cc600085600181518110610e8b57610e8b61568a565b60209081029190910181015182528181019290925260409081016000205481518083019092526001600160a01b03858116835216918101829052909150610ed28185613617565b7f13c6ec2a463a35f898a457814a782f1f567808293fa783a31fa4dac8868e60118b8b8b8b604051610f0794939291906156a0565b60405180910390a1505050505050610f58565b7f13c6ec2a463a35f898a457814a782f1f567808293fa783a31fa4dac8868e601185858585604051610f4f9493929190615714565b60405180910390a15b507f150b7a02000000000000000000000000000000000000000000000000000000005b949350505050565b6001600160a01b03811660009081526101646020526040902054610ffd5760405162461bcd60e51b815260206004820152602660248201527f5061796d656e7453706c69747465723a206163636f756e7420686173206e6f2060448201526573686172657360d01b60648201526084015b60405180910390fd5b600061100882612731565b90508060000361106e5760405162461bcd60e51b815260206004820152602b60248201527f5061796d656e7453706c69747465723a206163636f756e74206973206e6f742060448201526a191d59481c185e5b595b9d60aa1b6064820152608401610ff4565b806101636000828254611081919061579e565b90915550506001600160a01b0382166000908152610165602052604090208054820190556110af828261392f565b604080516001600160a01b0384168152602081018390527fdf20fd1e76bc69d672e4814fafb2c449bba3a5369d8359adf9e05e6fde87b05691015b60405180910390a15050565b565b6001600160a01b03821660009081526101cd60205260408120815b8154811015611181578382828154811061112f5761112f61568a565b90600052602060002090600502016004015403611179578181815481106111585761115861568a565b600091825260209091206002600590920201015460ff169250610cec915050565b600101611113565b5060405162461bcd60e51b815260206004820152601060248201527f506c616e6574206e6f7420666f756e64000000000000000000000000000000006044820152606401610ff4565b6111d2613a4d565b6110f6613aa8565b6000336111e8858285613b02565b6111f3858585613b8e565b506001949350505050565b611206613a4d565b61120e613d82565b604051339081904780156108fc02916000818181858888f1935050505015801561123c573d6000803e3d6000fd5b5050565b60608282116112915760405162461bcd60e51b815260206004820152600d60248201527f496e76616c696420696e646578000000000000000000000000000000000000006044820152606401610ff4565b6101cb548211156112e45760405162461bcd60e51b815260206004820152601360248201527f496e646578206f7574206f6620626f756e6473000000000000000000000000006044820152606401610ff4565b60006112f084846157b1565b67ffffffffffffffff81111561130857611308614f2d565b60405190808252806020026020018201604052801561135a57816020015b6040805160808101825260008082526020808301829052928201819052606082015282526000199092019101816113265790505b509050835b83811015611400576101cb818154811061137b5761137b61568a565b600091825260209182902060408051608081018252600393909302909101805483526001810154938301939093526002909201546001600160a01b03811692820192909252600160a01b90910460ff1615156060820152826113dd87846157b1565b815181106113ed576113ed61568a565b602090810291909101015260010161135f565b509392505050565b6000611412613dd5565b905090565b6001600160a01b037f00000000000000000000000000000000000000000000000000000000000000001630036114a45760405162461bcd60e51b815260206004820152602c60248201527f46756e6374696f6e206d7573742062652063616c6c6564207468726f7567682060448201526b19195b1959d85d1958d85b1b60a21b6064820152608401610ff4565b7f00000000000000000000000000000000000000000000000000000000000000006001600160a01b03166114ff7f360894a13ba1a3210667c828492db98dca3e2076cc3735a920a3ca505d382bbc546001600160a01b031690565b6001600160a01b03161461156a5760405162461bcd60e51b815260206004820152602c60248201527f46756e6374696f6e206d7573742062652063616c6c6564207468726f7567682060448201526b6163746976652070726f787960a01b6064820152608401610ff4565b61157381613ddf565b6040805160008082526020820190925261158f91839190613de7565b50565b33600081815260ca602090815260408083206001600160a01b0387168452909152812054909190610ce690829086906115cc90879061579e565b61333d565b6115d9613a4d565b6115e1613d82565b60008281526101cc60205260409020546001600160a01b03166116048382613f87565b5061160e8361401b565b6101c854604080516001600160a01b038086168252909216602083015281018490527ffbabfabc293b9daf3d9f8a42d485f10715027db90fd73abbe4ae4b4424decd049060600160405180910390a1505050565b61166a613a4d565b6110f66140bb565b6001600160a01b038116600090815261016460205260409020546116e75760405162461bcd60e51b815260206004820152602660248201527f5061796d656e7453706c69747465723a206163636f756e7420686173206e6f2060448201526573686172657360d01b6064820152608401610ff4565b60006116f38383612833565b9050806000036117595760405162461bcd60e51b815260206004820152602b60248201527f5061796d656e7453706c69747465723a206163636f756e74206973206e6f742060448201526a191d59481c185e5b595b9d60aa1b6064820152608401610ff4565b6001600160a01b038316600090815261016760205260408120805483929061178290849061579e565b90915550506001600160a01b038084166000908152610168602090815260408083209386168352929052208054820190556117be8383836140f4565b604080516001600160a01b038481168252602082018490528516917f3be5b7a71e84ed12875d241991c70855ac5817d847039e17a9d895c1ceb0f18a910160405180910390a2505050565b611811613a4d565b611819613d82565b6101c9919091556101c680546001600160a01b039384166001600160a01b0319918216179091556101c88054929093169116179055565b611858613a4d565b6101ce55565b6001600160a01b037f00000000000000000000000000000000000000000000000000000000000000001630036118eb5760405162461bcd60e51b815260206004820152602c60248201527f46756e6374696f6e206d7573742062652063616c6c6564207468726f7567682060448201526b19195b1959d85d1958d85b1b60a21b6064820152608401610ff4565b7f00000000000000000000000000000000000000000000000000000000000000006001600160a01b03166119467f360894a13ba1a3210667c828492db98dca3e2076cc3735a920a3ca505d382bbc546001600160a01b031690565b6001600160a01b0316146119b15760405162461bcd60e51b815260206004820152602c60248201527f46756e6374696f6e206d7573742062652063616c6c6564207468726f7567682060448201526b6163746976652070726f787960a01b6064820152608401610ff4565b6119ba82613ddf565b61123c82826001613de7565b6119ce613d82565b60008181526101cc602052604090205433906001600160a01b0316808214611a70576119f98161415f565b611a028261415f565b60405162461bcd60e51b815260206004820152603260248201527f636c61696d206d7573742062652066726f6d20636c61696d616e74732061646460448201527f726573732d2d20646973616c6c6f7765642e00000000000000000000000000006064820152608401610ff4565b611aae6040518060400160405280601781526020017f2d2d4e46542d2d20437469642c207468656e20757365720000000000000000008152506141c0565b611ab78361421c565b611ac08261415f565b6000611acc8484613f87565b905080611b415760405162461bcd60e51b815260206004820152602f60248201527f4661696c656420746f2073656e64204e46542e20436865636b20436c61696d6160448201527f6e7420546f6b656e49642073656e7400000000000000000000000000000000006064820152608401610ff4565b611b4a8461401b565b6101c854604080516001600160a01b038087168252909216602083015281018590527ffbabfabc293b9daf3d9f8a42d485f10715027db90fd73abbe4ae4b4424decd04906060015b60405180910390a150505050565b6000306001600160a01b037f00000000000000000000000000000000000000000000000000000000000000001614611c405760405162461bcd60e51b815260206004820152603860248201527f555550535570677261646561626c653a206d757374206e6f742062652063616c60448201527f6c6564207468726f7567682064656c656761746563616c6c00000000000000006064820152608401610ff4565b507f360894a13ba1a3210667c828492db98dca3e2076cc3735a920a3ca505d382bbc90565b60606101cb805480602002602001604051908101604052809291908181526020016000905b82821015611cf2576000848152602090819020604080516080810182526003860290920180548352600180820154848601526002909101546001600160a01b03811692840192909252600160a01b90910460ff16151560608301529083529092019101611c8a565b50505050905090565b611d03613a4d565b6110f6600061427a565b6001600160a01b038116600090815261012f6020526040812054610cec565b611d34613d82565b808203611da95760405162461bcd60e51b815260206004820152602360248201527f4173657875616c20726570726f64756374696f6e206973206e6f7420616c6c6f60448201527f77656400000000000000000000000000000000000000000000000000000000006064820152608401610ff4565b6000611db4826142cd565b6101c8546040517f6352211e000000000000000000000000000000000000000000000000000000008152600481018690529192506000916001600160a01b0390911690636352211e90602401602060405180830381865afa158015611e1d573d6000803e3d6000fd5b505050506040513d601f19601f82011682018060405250810190611e4191906157c4565b90506001600160a01b0381163014611ee75760405162461bcd60e51b815260206004820152604160248201527f596f75206e65656420746f206c6973742f6465706f7369742074686520706c6160448201527f6e657420796f752061726520747279696e6720746f206272656564207769746860648201527f2e00000000000000000000000000000000000000000000000000000000000000608482015260a401610ff4565b60008060005b6101cb54811015611f9457866101cb8281548110611f0d57611f0d61568a565b90600052602060002090600302016000015403611f8c576101cb8181548110611f3857611f3861568a565b906000526020600020906003020160020160009054906101000a90046001600160a01b031692506101cb8181548110611f7357611f7361568a565b9060005260206000209060030201600001549150611f94565b600101611eed565b506001600160a01b03821633146120135760405162461bcd60e51b815260206004820152603260248201527f596f7520646f206e6f74206f776e2074686520706c616e657420796f7520617260448201527f6520747279696e6720746f2062726565642e00000000000000000000000000006064820152608401610ff4565b600060646101ce548661202691906157e1565b61203091906157f8565b905080856101c954612042919061579e565b61204c919061579e565b3410156120c15760405162461bcd60e51b815260206004820152603760248201527f496e73756666696369656e742066756e647320746f20636f766572205652462060448201527f636f737420616e6420707269636520616e64206665652e0000000000000000006064820152608401610ff4565b33600080805b6101cb5481101561216e57896101cb82815481106120e7576120e761568a565b90600052602060002090600302016000015403612166576101cb81815481106121125761211261568a565b906000526020600020906003020160020160009054906101000a90046001600160a01b031692506101cb818154811061214d5761214d61568a565b906000526020600020906003020160000154915061216e565b6001016120c7565b506706f05b59d3b200004710156121ed5760405162461bcd60e51b815260206004820152603560248201527f436f6e74726163742068617320496e73756666696369656e742062616c616e6360448201527f652c20636f6e74616374206861746368657220687100000000000000000000006064820152608401610ff4565b6040516000906001600160a01b038416908a156108fc02908b9084818181858888f193505050509050806122635760405162461bcd60e51b815260206004820152601460248201527f4661696c656420746f2073656e642045746865720000000000000000000000006044820152606401610ff4565b6101c6546101c9546040517f4e9e6a07000000000000000000000000000000000000000000000000000000008152600481018e9052602481018d9052600060448201526001600160a01b0390921691634e9e6a07919060640160206040518083038185885af11580156122da573d6000803e3d6000fd5b50505050506040513d601f19601f820116820180604052508101906122ff9190615459565b5060006040518060e00160405280866001600160a01b031681526020018d8152602001600015158152602001600015158152602001856001600160a01b03168152602001848152602001600081525090506101cd6000866001600160a01b03166001600160a01b0316815260200190815260200160002081908060018154018082558091505060019003906000526020600020906005020160009091909190915060008201518160000160006101000a8154816001600160a01b0302191690836001600160a01b031602179055506020820151816001015560408201518160020160006101000a81548160ff02191690831515021790555060608201518160020160016101000a81548160ff02191690831515021790555060808201518160020160026101000a8154816001600160a01b0302191690836001600160a01b0316021790555060a0820151816003015560c082015181600401555050846101cc60008e815260200190815260200160002060006101000a8154816001600160a01b0302191690836001600160a01b03160217905550858a6101c9546124a3919061579e565b6124ad919061579e565b341115612579576000336001600160a01b0316878c6101c954346124d191906157b1565b6124db91906157b1565b6124e591906157b1565b604051600081818185875af1925050503d8060008114612521576040519150601f19603f3d011682016040523d82523d6000602084013e612526565b606091505b50509050806125775760405162461bcd60e51b815260206004820152601d60248201527f4661696c656420746f20726566756e64206578636573732045746865720000006044820152606401610ff4565b505b604080518d81526001600160a01b0387811660208301528183018e90528616606082015290517f8557df6951fbdd47fe9027516fc896be40f285ed55a6acac460352adbab730cd9181900360800190a1505050505050505050505050565b60006060806000806000606060fb546000801b1480156125f7575060fc54155b6126435760405162461bcd60e51b815260206004820152601560248201527f4549503731323a20556e696e697469616c697a656400000000000000000000006044820152606401610ff4565b61264b61436e565b61265361437d565b604080516000808252602082019092527f0f000000000000000000000000000000000000000000000000000000000000009b939a50919850469750309650945092509050565b6101ca60205281600052604060002081815481106126b657600080fd5b60009182526020909120600390910201805460018201546002909201549093509091506001600160a01b03811690600160a01b900460ff1684565b600061016682815481106127075761270761568a565b6000918252602090912001546001600160a01b031692915050565b606060cd8054610c5590615425565b60008061273e6101635490565b612748904761579e565b9050612774838261276f866001600160a01b03166000908152610165602052604090205490565b61438c565b9392505050565b33600081815260ca602090815260408083206001600160a01b0387168452909152812054909190838110156128185760405162461bcd60e51b815260206004820152602560248201527f45524332303a2064656372656173656420616c6c6f77616e63652062656c6f7760448201527f207a65726f0000000000000000000000000000000000000000000000000000006064820152608401610ff4565b6111f3828686840361333d565b600033610ce6818585613b8e565b6001600160a01b0382166000908152610167602052604081205481906040517f70a082310000000000000000000000000000000000000000000000000000000081523060048201526001600160a01b038616906370a0823190602401602060405180830381865afa1580156128ac573d6000803e3d6000fd5b505050506040513d601f19601f820116820180604052508101906128d09190615459565b6128da919061579e565b6001600160a01b0380861660009081526101686020908152604080832093881683529290522054909150610f7b908490839061438c565b600054610100900460ff16158080156129315750600054600160ff909116105b8061294b5750303b15801561294b575060005460ff166001145b6129bd5760405162461bcd60e51b815260206004820152602e60248201527f496e697469616c697a61626c653a20636f6e747261637420697320616c72656160448201527f647920696e697469616c697a65640000000000000000000000000000000000006064820152608401610ff4565b6000805460ff1916600117905580156129e0576000805461ff0019166101001790555b6129e86143cc565b6129f061443f565b6129f86144b2565b612a01826130ed565b801561123c576000805461ff0019169055604051600181527f7f26b83ff96e1f2b6a682f133852f6798a09c465da95921460cefb3847402498906020016110ea565b612a4b613a4d565b612a53613d82565b6101c955565b612a61613d82565b6101cb548210612ab35760405162461bcd60e51b815260206004820152601360248201527f496e646578206f7574206f6620626f756e6473000000000000000000000000006044820152606401610ff4565b600033905060006101cb8481548110612ace57612ace61568a565b6000918252602091829020604080516080810182526003909302909101805483526001810154938301939093526002909201546001600160a01b03811692820183905260ff600160a01b909104161515606082015291503314612b3057600080fd5b6040518060800160405280826000015181526020016000815260200182604001516001600160a01b03168152602001600015158152506101cb8581548110612b7a57612b7a61568a565b60009182526020808320845160039093020191825583810151600180840191909155604080860151600290940180546060909701511515600160a01b0274ffffffffffffffffffffffffffffffffffffffffff199097166001600160a01b0390951694909417959095179092553383526101ca905291902080549091612bff916157b1565b81548110612c0f57612c0f61568a565b90600052602060002090600302016101ca6000336001600160a01b03166001600160a01b031681526020019081526020016000208581548110612c5457612c5461568a565b60009182526020808320845460039093020191825560018085015490830155600293840180549490920180546001600160a01b031981166001600160a01b039096169586178255925460ff600160a01b918290041615150274ffffffffffffffffffffffffffffffffffffffffff19909316909417919091179092553381526101ca90915260409020805480612cec57612cec61581a565b6000828152602081206003600019909301928302018181556001810191909155600201805474ffffffffffffffffffffffffffffffffffffffffff191690559055612d378383613f87565b506101c8548151604080516001600160a01b03808716825290931660208401528201527f0ece05e698e9e143fb75b2ad0aba7f141238c27b6d3e9728898183ee0d68498b90606001611b92565b612d8c613a4d565b612d94613d82565b6101c780546001600160a01b0319166001600160a01b0392909216919091179055565b83421115612e075760405162461bcd60e51b815260206004820152601d60248201527f45524332305065726d69743a206578706972656420646561646c696e650000006044820152606401610ff4565b60007f6e71edae12b1b97f4d1f60370fef10105fa2faae0126114a169c64845d6126c9888888612e368c61451d565b6040805160208101969096526001600160a01b0394851690860152929091166060840152608083015260a082015260c0810186905260e0016040516020818303038152906040528051906020012090506000612e9182614544565b90506000612ea18287878761458c565b9050896001600160a01b0316816001600160a01b031614612f045760405162461bcd60e51b815260206004820152601e60248201527f45524332305065726d69743a20696e76616c6964207369676e617475726500006044820152606401610ff4565b612f0f8a8a8a61333d565b50505050505050505050565b6001600160a01b03811660009081526101cd60209081526040808320805482518185028101850190935280835260609492939192909184015b82821015612fe05760008481526020908190206040805160e0810182526005860290920180546001600160a01b03908116845260018083015485870152600283015460ff80821615159587019590955261010081049094161515606086015262010000909304166080840152600381015460a08401526004015460c08301529083529092019101612f54565b505050509050919050565b6101c8546040517fe985e9c50000000000000000000000000000000000000000000000000000000081526001600160a01b0384811660048301528381166024830152600092169063e985e9c590604401602060405180830381865afa158015613058573d6000803e3d6000fd5b505050506040513d601f19601f820116820180604052508101906127749190615830565b6101cd602052816000526040600020818154811061309957600080fd5b6000918252602090912060059091020180546001820154600283015460038401546004909401546001600160a01b03938416965091945060ff80821694610100830490911693620100009092049091169187565b6130f5613a4d565b6001600160a01b0381166131715760405162461bcd60e51b815260206004820152602660248201527f4f776e61626c653a206e6577206f776e657220697320746865207a65726f206160448201527f64647265737300000000000000000000000000000000000000000000000000006064820152608401610ff4565b61158f8161427a565b6001600160a01b03821660009081526101cd60205260408120815b815481101561118157838282815481106131b1576131b161568a565b90600052602060002090600502016004015403613202578181815481106131da576131da61568a565b906000526020600020906005020160020160019054906101000a900460ff1692505050610cec565b600101613195565b613212613a4d565b6101c8546040517f23b872dd0000000000000000000000000000000000000000000000000000000081523060048201526001600160a01b03838116602483015260448201859052909116906323b872dd90606401600060405180830381600087803b15801561328057600080fd5b505af1158015613294573d6000803e3d6000fd5b505050505050565b6001600160a01b03811660009081526101ca60209081526040808320805482518185028101850190935280835260609492939192909184015b82821015612fe0576000848152602090819020604080516080810182526003860290920180548352600180820154848601526002909101546001600160a01b03811692840192909252600160a01b90910460ff161515606083015290835290920191016132d5565b6001600160a01b0383166133b85760405162461bcd60e51b8152602060048201526024808201527f45524332303a20617070726f76652066726f6d20746865207a65726f2061646460448201527f72657373000000000000000000000000000000000000000000000000000000006064820152608401610ff4565b6001600160a01b0382166134345760405162461bcd60e51b815260206004820152602260248201527f45524332303a20617070726f766520746f20746865207a65726f20616464726560448201527f73730000000000000000000000000000000000000000000000000000000000006064820152608401610ff4565b6001600160a01b03838116600081815260ca602090815260408083209487168084529482529182902085905590518481527f8c5be1e5ebec7d5bd14f71427d1e84f3dd0314c0f7b2291e5b200ac8c7c3b925910160405180910390a3505050565b604080516080808201835285825260208083018681526001600160a01b03868116858701818152600160608089018281526101cb8054808501825560009182528b5160039182027fe8bbfecd380c4167d6a1f763a233ec73e73f534b1970c4e1683f437ec23c1f4481019190915589517fe8bbfecd380c4167d6a1f763a233ec73e73f534b1970c4e1683f437ec23c1f4582015586517fe8bbfecd380c4167d6a1f763a233ec73e73f534b1970c4e1683f437ec23c1f46909101805485511515600160a01b90810274ffffffffffffffffffffffffffffffffffffffffff19928316948d1694909417939093179091559783526101ca8b528d832080548088018255908452928b90208d5193909202909101918255975193810193909355925160029092018054935115159096029290931690841617179092556101c854865133815291169281019290925293810187905292830185905290917fb30319a217488a3ed441c348e935a48d16091e33109bab0c79a353b9797528839101611b92565b81516020808401516001600160a01b03831660009081526101cd9092526040909120541561376e5760005b6001600160a01b03831660009081526101cd6020526040902054811015613768576001600160a01b0383811660009081526101cd60205260409020805491841691839081106136935761369361568a565b60009182526020909120600590910201600201546201000090046001600160a01b031603613760576001600160a01b03831660009081526101cd60205260409020805460019190839081106136ea576136ea61568a565b906000526020600020906005020160020160016101000a81548160ff021916908315150217905550836101cd6000856001600160a01b03166001600160a01b03168152602001908152602001600020828154811061374a5761374a61568a565b9060005260206000209060050201600401819055505b600101613642565b50613929565b6020808501516001600160a01b031660009081526101cd9091526040902054156138bb5760005b6001600160a01b03821660009081526101cd6020526040902054811015613768576001600160a01b0382811660009081526101cd60205260409020805491851691839081106137e6576137e661568a565b60009182526020909120600590910201600201546201000090046001600160a01b0316036138b3576001600160a01b03821660009081526101cd602052604090208054600191908390811061383d5761383d61568a565b906000526020600020906005020160020160016101000a81548160ff021916908315150217905550836101cd6000846001600160a01b03166001600160a01b03168152602001908152602001600020828154811061389d5761389d61568a565b9060005260206000209060050201600401819055505b600101613795565b60405162461bcd60e51b815260206004820152602560248201527f706c616e65742073656e7420657272616e746c792c206e6f206f6e6520746f2060448201527f636c61696d0000000000000000000000000000000000000000000000000000006064820152608401610ff4565b50505050565b8047101561397f5760405162461bcd60e51b815260206004820152601d60248201527f416464726573733a20696e73756666696369656e742062616c616e63650000006044820152606401610ff4565b6000826001600160a01b03168260405160006040518083038185875af1925050503d80600081146139cc576040519150601f19603f3d011682016040523d82523d6000602084013e6139d1565b606091505b5050905080613a485760405162461bcd60e51b815260206004820152603a60248201527f416464726573733a20756e61626c6520746f2073656e642076616c75652c207260448201527f6563697069656e74206d617920686176652072657665727465640000000000006064820152608401610ff4565b505050565b610194546001600160a01b031633146110f65760405162461bcd60e51b815260206004820181905260248201527f4f776e61626c653a2063616c6c6572206973206e6f7420746865206f776e65726044820152606401610ff4565b613ab0613d82565b6033805460ff191660011790557f62e78cea01bee320cd4e420270b5ea74000d11b0c9f74754ebdbfc544b05a258613ae53390565b6040516001600160a01b03909116815260200160405180910390a1565b6001600160a01b03838116600090815260ca602090815260408083209386168352929052205460001981146139295781811015613b815760405162461bcd60e51b815260206004820152601d60248201527f45524332303a20696e73756666696369656e7420616c6c6f77616e63650000006044820152606401610ff4565b613929848484840361333d565b6001600160a01b038316613c0a5760405162461bcd60e51b815260206004820152602560248201527f45524332303a207472616e736665722066726f6d20746865207a65726f20616460448201527f64726573730000000000000000000000000000000000000000000000000000006064820152608401610ff4565b6001600160a01b038216613c865760405162461bcd60e51b815260206004820152602360248201527f45524332303a207472616e7366657220746f20746865207a65726f206164647260448201527f65737300000000000000000000000000000000000000000000000000000000006064820152608401610ff4565b6001600160a01b038316600090815260c9602052604090205481811015613d155760405162461bcd60e51b815260206004820152602660248201527f45524332303a207472616e7366657220616d6f756e742065786365656473206260448201527f616c616e636500000000000000000000000000000000000000000000000000006064820152608401610ff4565b6001600160a01b03808516600081815260c9602052604080822086860390559286168082529083902080548601905591517fddf252ad1be2c89b69c2b068fc378daa952ba7f163c4a11628f55a4df523b3ef90613d759086815260200190565b60405180910390a3613929565b60335460ff16156110f65760405162461bcd60e51b815260206004820152601060248201527f5061757361626c653a20706175736564000000000000000000000000000000006044820152606401610ff4565b60006114126145b4565b61158f613a4d565b7f4910fdfa16fed3260ed0e7147f7cc6da11a60208b5b9406d12a635614ffd91435460ff1615613e1a57613a4883614628565b826001600160a01b03166352d1902d6040518163ffffffff1660e01b8152600401602060405180830381865afa925050508015613e74575060408051601f3d908101601f19168201909252613e7191810190615459565b60015b613ee65760405162461bcd60e51b815260206004820152602e60248201527f45524331393637557067726164653a206e657720696d706c656d656e7461746960448201527f6f6e206973206e6f7420555550530000000000000000000000000000000000006064820152608401610ff4565b7f360894a13ba1a3210667c828492db98dca3e2076cc3735a920a3ca505d382bbc8114613f7b5760405162461bcd60e51b815260206004820152602960248201527f45524331393637557067726164653a20756e737570706f727465642070726f7860448201527f6961626c655555494400000000000000000000000000000000000000000000006064820152608401610ff4565b50613a488383836146e6565b6101c8546040517f42842e0e0000000000000000000000000000000000000000000000000000000081523060048201526001600160a01b0383811660248301526044820185905260009216906342842e0e90606401600060405180830381600087803b158015613ff657600080fd5b505af1925050508015614007575060015b61401357506000610cec565b506001610cec565b60008181526101cc60209081526040808320546001600160a01b03168084526101cd909252822090915b815481101561392957838282815481106140615761406161568a565b906000526020600020906005020160040154036140b357600182828154811061408c5761408c61568a565b60009182526020909120600590910201600201805460ff1916911515919091179055613929565b600101614045565b6140c361470b565b6033805460ff191690557f5db9ee0a495bf2e6ff9c91a7834c1ba4fdd244a5e8aa4e537bd38aeae4b073aa33613ae5565b604080516001600160a01b038416602482015260448082018490528251808303909101815260649091019091526020810180516001600160e01b03167fa9059cbb00000000000000000000000000000000000000000000000000000000179052613a4890849061475d565b6040516001600160a01b038216602482015261158f9060440160408051601f198184030181529190526020810180516001600160e01b03167f2c2ecbc200000000000000000000000000000000000000000000000000000000179052614845565b61158f816040516024016141d49190614ed9565b60408051601f198184030181529190526020810180516001600160e01b03167f41304fac00000000000000000000000000000000000000000000000000000000179052614845565b61158f8160405160240161423291815260200190565b60408051601f198184030181529190526020810180516001600160e01b03167ff82c50f100000000000000000000000000000000000000000000000000000000179052614845565b61019480546001600160a01b038381166001600160a01b0319831681179093556040519116919082907f8be0079c531659141344cd1fd0a4f28419497f9722a3daafe3b4186f6b6457e090600090a35050565b60006142d7613d82565b60005b6101cb5481101561436757826101cb82815481106142fa576142fa61568a565b9060005260206000209060030201600001540361433f576101cb81815481106143255761432561568a565b906000526020600020906003020160010154915050919050565b6101cb5461434f906001906157b1565b810361435f575060001992915050565b6001016142da565b505b919050565b606060fd8054610c5590615425565b606060fe8054610c5590615425565b610162546001600160a01b03841660009081526101646020526040812054909183916143b890866157e1565b6143c291906157f8565b610f7b91906157b1565b600054610100900460ff166144375760405162461bcd60e51b815260206004820152602b60248201527f496e697469616c697a61626c653a20636f6e7472616374206973206e6f74206960448201526a6e697469616c697a696e6760a81b6064820152608401610ff4565b6110f661484e565b600054610100900460ff166144aa5760405162461bcd60e51b815260206004820152602b60248201527f496e697469616c697a61626c653a20636f6e7472616374206973206e6f74206960448201526a6e697469616c697a696e6760a81b6064820152608401610ff4565b6110f66148c2565b600054610100900460ff166110f65760405162461bcd60e51b815260206004820152602b60248201527f496e697469616c697a61626c653a20636f6e7472616374206973206e6f74206960448201526a6e697469616c697a696e6760a81b6064820152608401610ff4565b6001600160a01b038116600090815261012f60205260409020805460018101825590614367565b6000610cec614551613dd5565b836040517f19010000000000000000000000000000000000000000000000000000000000008152600281019290925260228201526042902090565b600080600061459d87878787614939565b915091506145aa816149fd565b5095945050505050565b60007f8b73c3c69bb8fe3d512ecc4cf759cc79239f7b179b0ffacaa9a75d522b39400f6145df614b62565b6145e7614bbb565b60408051602081019490945283019190915260608201524660808201523060a082015260c00160405160208183030381529060405280519060200120905090565b6001600160a01b0381163b6146a55760405162461bcd60e51b815260206004820152602d60248201527f455243313936373a206e657720696d706c656d656e746174696f6e206973206e60448201527f6f74206120636f6e7472616374000000000000000000000000000000000000006064820152608401610ff4565b7f360894a13ba1a3210667c828492db98dca3e2076cc3735a920a3ca505d382bbc80546001600160a01b0319166001600160a01b0392909216919091179055565b6146ef83614bec565b6000825111806146fc5750805b15613a48576139298383614c2c565b60335460ff166110f65760405162461bcd60e51b815260206004820152601460248201527f5061757361626c653a206e6f74207061757365640000000000000000000000006044820152606401610ff4565b60006147b2826040518060400160405280602081526020017f5361666545524332303a206c6f772d6c6576656c2063616c6c206661696c6564815250856001600160a01b0316614c519092919063ffffffff16565b90508051600014806147d35750808060200190518101906147d39190615830565b613a485760405162461bcd60e51b815260206004820152602a60248201527f5361666545524332303a204552433230206f7065726174696f6e20646964206e60448201527f6f742073756363656564000000000000000000000000000000000000000000006064820152608401610ff4565b61158f81614c60565b600054610100900460ff166148b95760405162461bcd60e51b815260206004820152602b60248201527f496e697469616c697a61626c653a20636f6e7472616374206973206e6f74206960448201526a6e697469616c697a696e6760a81b6064820152608401610ff4565b6110f63361427a565b600054610100900460ff1661492d5760405162461bcd60e51b815260206004820152602b60248201527f496e697469616c697a61626c653a20636f6e7472616374206973206e6f74206960448201526a6e697469616c697a696e6760a81b6064820152608401610ff4565b6033805460ff19169055565b6000807f7fffffffffffffffffffffffffffffff5d576e7357a4501ddfe92f46681b20a083111561497057506000905060036149f4565b6040805160008082526020820180845289905260ff881692820192909252606081018690526080810185905260019060a0016020604051602081039080840390855afa1580156149c4573d6000803e3d6000fd5b5050604051601f1901519150506001600160a01b0381166149ed576000600192509250506149f4565b9150600090505b94509492505050565b6000816004811115614a1157614a1161584b565b03614a195750565b6001816004811115614a2d57614a2d61584b565b03614a7a5760405162461bcd60e51b815260206004820152601860248201527f45434453413a20696e76616c6964207369676e617475726500000000000000006044820152606401610ff4565b6002816004811115614a8e57614a8e61584b565b03614adb5760405162461bcd60e51b815260206004820152601f60248201527f45434453413a20696e76616c6964207369676e6174757265206c656e677468006044820152606401610ff4565b6003816004811115614aef57614aef61584b565b0361158f5760405162461bcd60e51b815260206004820152602260248201527f45434453413a20696e76616c6964207369676e6174757265202773272076616c60448201527f75650000000000000000000000000000000000000000000000000000000000006064820152608401610ff4565b600080614b6d61436e565b805190915015614b84578051602090910120919050565b60fb548015614b935792915050565b7fc5d2460186f7233c927e7db2dcc703c0e500b653ca82273b7bfad8045d85a4709250505090565b600080614bc661437d565b805190915015614bdd578051602090910120919050565b60fc548015614b935792915050565b614bf581614628565b6040516001600160a01b038216907fbc7cd75a20ee27fd9adebab32041f755214dbc6bffa90cc0225b39da2e5c2d3b90600090a250565b6060612774838360405180606001604052806027815260200161587e60279139614c81565b6060610f7b8484600085614cf9565b60006a636f6e736f6c652e6c6f679050600080835160208501845afa505050565b6060600080856001600160a01b031685604051614c9e9190615861565b600060405180830381855af49150503d8060008114614cd9576040519150601f19603f3d011682016040523d82523d6000602084013e614cde565b606091505b5091509150614cef86838387614deb565b9695505050505050565b606082471015614d715760405162461bcd60e51b815260206004820152602660248201527f416464726573733a20696e73756666696369656e742062616c616e636520666f60448201527f722063616c6c00000000000000000000000000000000000000000000000000006064820152608401610ff4565b600080866001600160a01b03168587604051614d8d9190615861565b60006040518083038185875af1925050503d8060008114614dca576040519150601f19603f3d011682016040523d82523d6000602084013e614dcf565b606091505b5091509150614de087838387614deb565b979650505050505050565b60608315614e5a578251600003614e53576001600160a01b0385163b614e535760405162461bcd60e51b815260206004820152601d60248201527f416464726573733a2063616c6c20746f206e6f6e2d636f6e74726163740000006044820152606401610ff4565b5081610f7b565b610f7b8383815115614e6f5781518083602001fd5b8060405162461bcd60e51b8152600401610ff49190614ed9565b60005b83811015614ea4578181015183820152602001614e8c565b50506000910152565b60008151808452614ec5816020860160208601614e89565b601f01601f19169290920160200192915050565b6020815260006127746020830184614ead565b6001600160a01b038116811461158f57600080fd5b60008060408385031215614f1457600080fd5b8235614f1f81614eec565b946020939093013593505050565b634e487b7160e01b600052604160045260246000fd5b604051610160810167ffffffffffffffff81118282101715614f6757614f67614f2d565b60405290565b604051601f8201601f1916810167ffffffffffffffff81118282101715614f9657614f96614f2d565b604052919050565b600082601f830112614faf57600080fd5b813567ffffffffffffffff811115614fc957614fc9614f2d565b614fdc601f8201601f1916602001614f6d565b818152846020838601011115614ff157600080fd5b816020850160208301376000918101602001919091529392505050565b6000806000806080858703121561502457600080fd5b843561502f81614eec565b9350602085013561503f81614eec565b925060408501359150606085013567ffffffffffffffff81111561506257600080fd5b61506e87828801614f9e565b91505092959194509250565b60006020828403121561508c57600080fd5b813561277481614eec565b6000806000606084860312156150ac57600080fd5b83356150b781614eec565b925060208401356150c781614eec565b929592945050506040919091013590565b600080604083850312156150eb57600080fd5b50508035926020909101359150565b602080825282518282018190526000919060409081850190868401855b8281101561515c578151805185528681015187860152858101516001600160a01b03168686015260609081015115159085015260809093019290850190600101615117565b5091979650505050505050565b60006020828403121561517b57600080fd5b5035919050565b6000806040838503121561519557600080fd5b8235915060208301356151a781614eec565b809150509250929050565b600080604083850312156151c557600080fd5b82356151d081614eec565b915060208301356151a781614eec565b6000806000606084860312156151f557600080fd5b833561520081614eec565b925060208401359150604084013561521781614eec565b809150509250925092565b6000806040838503121561523557600080fd5b823561524081614eec565b9150602083013567ffffffffffffffff81111561525c57600080fd5b61526885828601614f9e565b9150509250929050565b7fff00000000000000000000000000000000000000000000000000000000000000881681526000602060e060208401526152af60e084018a614ead565b83810360408501526152c1818a614ead565b606085018990526001600160a01b038816608086015260a0850187905284810360c08601528551808252602080880193509091019060005b81811015615315578351835292840192918401916001016152f9565b50909c9b505050505050505050505050565b600080600080600080600060e0888a03121561534257600080fd5b873561534d81614eec565b9650602088013561535d81614eec565b95506040880135945060608801359350608088013560ff8116811461538157600080fd5b9699959850939692959460a0840135945060c09093013592915050565b602080825282518282018190526000919060409081850190868401855b8281101561515c57815180516001600160a01b0390811686528782015188870152868201511515878701526060808301511515908701526080808301519091169086015260a0808201519086015260c0908101519085015260e090930192908501906001016153bb565b600181811c9082168061543957607f821691505b60208210810361436757634e487b7160e01b600052602260045260246000fd5b60006020828403121561546b57600080fd5b5051919050565b60006001600160a01b03808716835280861660208401525083604083015260a060608301526154a460a0830184614ead565b8281036080840152600e81527f6c697374696e6720706c616e657400000000000000000000000000000000000060208201526040810191505095945050505050565b600082601f8301126154f757600080fd5b8151602067ffffffffffffffff82111561551357615513614f2d565b8160051b615522828201614f6d565b928352848101820192828101908785111561553c57600080fd5b83870192505b84831015614de057825182529183019190830190615542565b8051801515811461436957600080fd5b6000806040838503121561557e57600080fd5b825167ffffffffffffffff8082111561559657600080fd5b9084019061016082870312156155ab57600080fd5b6155b3614f43565b825181526020830151602082015260408301516040820152606083015160608201526080830151608082015260a083015160a082015260c083015160c082015260e083015160e0820152610100808401518381111561561157600080fd5b61561d898287016154e6565b828401525050610120808401518381111561563757600080fd5b615643898287016154e6565b828401525050610140808401518381111561565d57600080fd5b615669898287016154e6565b8284015250508094505050506156816020840161555b565b90509250929050565b634e487b7160e01b600052603260045260246000fd5b60006001600160a01b03808716835280861660208401525083604083015260a060608301526156d260a0830184614ead565b8281036080840152600a81527f6e657720706c616e65740000000000000000000000000000000000000000000060208201526040810191505095945050505050565b60006001600160a01b03808716835280861660208401525083604083015260a0606083015261574660a0830184614ead565b8281036080840152600d81527f756e63617465676f72697a65640000000000000000000000000000000000000060208201526040810191505095945050505050565b634e487b7160e01b600052601160045260246000fd5b80820180821115610cec57610cec615788565b81810381811115610cec57610cec615788565b6000602082840312156157d657600080fd5b815161277481614eec565b8082028115828204841417610cec57610cec615788565b60008261581557634e487b7160e01b600052601260045260246000fd5b500490565b634e487b7160e01b600052603160045260246000fd5b60006020828403121561584257600080fd5b6127748261555b565b634e487b7160e01b600052602160045260246000fd5b60008251615873818460208701614e89565b919091019291505056fe416464726573733a206c6f772d6c6576656c2064656c65676174652063616c6c206661696c6564a26469706673582212203d58619739c3ac2d31d9f462a60cc2b5a374d7b57a8cea4215e4fdf11359b83564736f6c63430008180033",
  "devdoc": {
    "author": "Caecus",
    "custom:security-contact": "security@earnalliance.com",
    "details": "Contract is liable to be updated without warningHomo faber suae quisque fortunae",
    "events": {
      "AdminChanged(address,address)": {
        "details": "Emitted when the admin account has changed."
      },
      "Approval(address,address,uint256)": {
        "details": "Emitted when the allowance of a `spender` for an `owner` is set by a call to {approve}. `value` is the new allowance."
      },
      "BeaconUpgraded(address)": {
        "details": "Emitted when the beacon is changed."
      },
      "EIP712DomainChanged()": {
        "details": "MAY be emitted to signal that the domain could have changed."
      },
      "Initialized(uint8)": {
        "details": "Triggered when the contract has been initialized or reinitialized."
      },
      "Paused(address)": {
        "details": "Emitted when the pause is triggered by `account`."
      },
      "Transfer(address,address,uint256)": {
        "details": "Emitted when `value` tokens are moved from one account (`from`) to another (`to`). Note that `value` may be zero."
      },
      "Unpaused(address)": {
        "details": "Emitted when the pause is lifted by `account`."
      },
      "Upgraded(address)": {
        "details": "Emitted when the implementation is upgraded."
      }
    },
    "kind": "dev",
    "methods": {
      "DOMAIN_SEPARATOR()": {
        "details": "Returns the domain separator used in the encoding of the signature for {permit}, as defined by {EIP712}."
      },
      "allowance(address,address)": {
        "details": "See {IERC20-allowance}."
      },
      "approve(address,uint256)": {
        "details": "See {IERC20-approve}. NOTE: If `amount` is the maximum `uint256`, the allowance is not updated on `transferFrom`. This is semantically equivalent to an infinite approval. Requirements: - `spender` cannot be the zero address."
      },
      "balanceOf(address)": {
        "details": "See {IERC20-balanceOf}."
      },
      "decimals()": {
        "details": "Returns the number of decimals used to get its user representation. For example, if `decimals` equals `2`, a balance of `505` tokens should be displayed to a user as `5.05` (`505 / 10 ** 2`). Tokens usually opt for a value of 18, imitating the relationship between Ether and Wei. This is the default value returned by this function, unless it's overridden. NOTE: This information is only used for _display_ purposes: it in no way affects any of the arithmetic of the contract, including {IERC20-balanceOf} and {IERC20-transfer}."
      },
      "decreaseAllowance(address,uint256)": {
        "details": "Atomically decreases the allowance granted to `spender` by the caller. This is an alternative to {approve} that can be used as a mitigation for problems described in {IERC20-approve}. Emits an {Approval} event indicating the updated allowance. Requirements: - `spender` cannot be the zero address. - `spender` must have allowance for the caller of at least `subtractedValue`."
      },
      "eip712Domain()": {
        "details": "See {EIP-5267}. _Available since v4.9._"
      },
      "hasPlanetArrived(address,uint256)": {
        "params": {
          "owner": "The address of the owner of the claimable planet",
          "tokenId": "The token ID of the claimable planet"
        },
        "returns": {
          "arrived": "A boolean indicating if the planet has arrived"
        }
      },
      "hasPlanetBeenDelivered(address,uint256)": {
        "params": {
          "owner": "The address of the owner of the claimable planet",
          "tokenId": "The token ID of the claimable planet"
        },
        "returns": {
          "delivered": "A boolean indicating if the planet has been delivered"
        }
      },
      "increaseAllowance(address,uint256)": {
        "details": "Atomically increases the allowance granted to `spender` by the caller. This is an alternative to {approve} that can be used as a mitigation for problems described in {IERC20-approve}. Emits an {Approval} event indicating the updated allowance. Requirements: - `spender` cannot be the zero address."
      },
      "initialize(address)": {
        "details": "implements EIP712, is upgradeable, pausable, burn function is custom to save space"
      },
      "name()": {
        "details": "Returns the name of the token."
      },
      "nonces(address)": {
        "details": "Returns the current nonce for `owner`. This value must be included whenever a signature is generated for {permit}. Every successful call to {permit} increases ``owner``'s nonce by one. This prevents a signature from being used multiple times."
      },
      "onERC721Received(address,address,uint256,bytes)": {
        "details": "Whenever an {IERC721} `tokenId` token is transferred to this contract via {IERC721-safeTransferFrom} by `operator` from `from`, this function is called. It must return its Solidity selector to confirm the token transfer. If any other value is returned or the interface is not implemented by the recipient, the transfer will be reverted. The selector can be obtained in Solidity with `IERC721Receiver.onERC721Received.selector`."
      },
      "owner()": {
        "details": "Returns the address of the current owner."
      },
      "pause()": {
        "details": "can only be called by owner"
      },
      "paused()": {
        "details": "Returns true if the contract is paused, and false otherwise."
      },
      "payee(uint256)": {
        "details": "Getter for the address of the payee number `index`."
      },
      "permit(address,address,uint256,uint256,uint8,bytes32,bytes32)": {
        "details": "Sets `value` as the allowance of `spender` over ``owner``'s tokens, given ``owner``'s signed approval. IMPORTANT: The same issues {IERC20-approve} has related to transaction ordering also apply here. Emits an {Approval} event. Requirements: - `spender` cannot be the zero address. - `deadline` must be a timestamp in the future. - `v`, `r` and `s` must be a valid `secp256k1` signature from `owner` over the EIP712-formatted function arguments. - the signature must use ``owner``'s current nonce (see {nonces}). For more information on the signature format, see the https://eips.ethereum.org/EIPS/eip-2612#specification[relevant EIP section]. CAUTION: See Security Considerations above."
      },
      "proxiableUUID()": {
        "details": "Implementation of the ERC1822 {proxiableUUID} function. This returns the storage slot used by the implementation. It is used to validate the implementation's compatibility when performing an upgrade. IMPORTANT: A proxy pointing at a proxiable contract should not be considered proxiable itself, because this risks bricking a proxy that upgrades to it, by delegating to itself until out of gas. Thus it is critical that this function revert if invoked through a proxy. This is guaranteed by the `notDelegated` modifier."
      },
      "releasable(address)": {
        "details": "Getter for the amount of payee's releasable Ether."
      },
      "releasable(address,address)": {
        "details": "Getter for the amount of payee's releasable `token` tokens. `token` should be the address of an IERC20 contract."
      },
      "release(address)": {
        "details": "Triggers a transfer to `account` of the amount of Ether they are owed, according to their percentage of the total shares and their previous withdrawals."
      },
      "release(address,address)": {
        "details": "Triggers a transfer to `account` of the amount of `token` tokens they are owed, according to their percentage of the total shares and their previous withdrawals. `token` must be the address of an IERC20 contract."
      },
      "released(address)": {
        "details": "Getter for the amount of Ether already released to a payee."
      },
      "released(address,address)": {
        "details": "Getter for the amount of `token` tokens already released to a payee. `token` should be the address of an IERC20 contract."
      },
      "renounceOwnership()": {
        "details": "Leaves the contract without owner. It will not be possible to call `onlyOwner` functions. Can only be called by the current owner. NOTE: Renouncing ownership will leave the contract without an owner, thereby disabling any functionality that is only available to the owner."
      },
      "setTAdd(address)": {
        "params": {
          "newTAdd": "the address that the owner would like the new URI to be"
        }
      },
      "shares(address)": {
        "details": "Getter for the amount of shares held by an account."
      },
      "symbol()": {
        "details": "Returns the symbol of the token, usually a shorter version of the name."
      },
      "totalReleased()": {
        "details": "Getter for the total amount of Ether already released."
      },
      "totalReleased(address)": {
        "details": "Getter for the total amount of `token` already released. `token` should be the address of an IERC20 contract."
      },
      "totalShares()": {
        "details": "Getter for the total shares held by payees."
      },
      "totalSupply()": {
        "details": "See {IERC20-totalSupply}."
      },
      "transfer(address,uint256)": {
        "details": "See {IERC20-transfer}. Requirements: - `to` cannot be the zero address. - the caller must have a balance of at least `amount`."
      },
      "transferFrom(address,address,uint256)": {
        "details": "See {IERC20-transferFrom}. Emits an {Approval} event indicating the updated allowance. This is not required by the EIP. See the note at the beginning of {ERC20}. NOTE: Does not update the allowance if the current allowance is the maximum `uint256`. Requirements: - `from` and `to` cannot be the zero address. - `from` must have a balance of at least `amount`. - the caller must have allowance for ``from``'s tokens of at least `amount`."
      },
      "transferOwnership(address)": {
        "details": "Transfers ownership of the contract to a new account (`newOwner`). Can only be called by the current owner."
      },
      "unpause()": {
        "details": "can only be called by owner"
      },
      "upgradeTo(address)": {
        "custom:oz-upgrades-unsafe-allow-reachable": "delegatecall",
        "details": "Upgrade the implementation of the proxy to `newImplementation`. Calls {_authorizeUpgrade}. Emits an {Upgraded} event."
      },
      "upgradeToAndCall(address,bytes)": {
        "custom:oz-upgrades-unsafe-allow-reachable": "delegatecall",
        "details": "Upgrade the implementation of the proxy to `newImplementation`, and subsequently execute the function call encoded in `data`. Calls {_authorizeUpgrade}. Emits an {Upgraded} event."
      },
      "withdrawFunds()": {
        "details": "utility function only, shouldn't need to be used."
      }
    },
    "title": "HatcherGG",
    "version": 1
  },
  "userdoc": {
    "errors": {
      "Unauthorized()": [
        {
          "notice": "error given if user other than minter tries to use forbidden funcs"
        }
      ]
    },
    "kind": "user",
    "methods": {
      "hasPlanetArrived(address,uint256)": {
        "notice": "Checks if a specific claimable planet has arrived"
      },
      "hasPlanetBeenDelivered(address,uint256)": {
        "notice": "Checks if a specific claimable planet has been delivered"
      },
      "initialize(address)": {
        "notice": "Initialization of contract, called upon deployment"
      },
      "pause()": {
        "notice": "pause any token transfers including mints and burns"
      },
      "setAllOf(address,uint256,address)": {
        "notice": "function should be run after deployment to set up defaults"
      },
      "unpause()": {
        "notice": "unpause any token transfers including mints and burns"
      },
      "withdrawFunds()": {
        "notice": "Allow Owner to withdraw of MATIC from the contract"
      }
    },
    "notice": "This contract allows for escrowed NFT breeding",
    "version": 1
  },
  "storageLayout": {
    "storage": [
      {
        "astId": 1031,
        "contract": "contracts/HatcherV2.sol:HatcherV2",
        "label": "_initialized",
        "offset": 0,
        "slot": "0",
        "type": "t_uint8"
      },
      {
        "astId": 1034,
        "contract": "contracts/HatcherV2.sol:HatcherV2",
        "label": "_initializing",
        "offset": 1,
        "slot": "0",
        "type": "t_bool"
      },
      {
        "astId": 3176,
        "contract": "contracts/HatcherV2.sol:HatcherV2",
        "label": "__gap",
        "offset": 0,
        "slot": "1",
        "type": "t_array(t_uint256)50_storage"
      },
      {
        "astId": 1352,
        "contract": "contracts/HatcherV2.sol:HatcherV2",
        "label": "_paused",
        "offset": 0,
        "slot": "51",
        "type": "t_bool"
      },
      {
        "astId": 1457,
        "contract": "contracts/HatcherV2.sol:HatcherV2",
        "label": "__gap",
        "offset": 0,
        "slot": "52",
        "type": "t_array(t_uint256)49_storage"
      },
      {
        "astId": 1013,
        "contract": "contracts/HatcherV2.sol:HatcherV2",
        "label": "__gap",
        "offset": 0,
        "slot": "101",
        "type": "t_array(t_uint256)50_storage"
      },
      {
        "astId": 1329,
        "contract": "contracts/HatcherV2.sol:HatcherV2",
        "label": "__gap",
        "offset": 0,
        "slot": "151",
        "type": "t_array(t_uint256)50_storage"
      },
      {
        "astId": 1478,
        "contract": "contracts/HatcherV2.sol:HatcherV2",
        "label": "_balances",
        "offset": 0,
        "slot": "201",
        "type": "t_mapping(t_address,t_uint256)"
      },
      {
        "astId": 1484,
        "contract": "contracts/HatcherV2.sol:HatcherV2",
        "label": "_allowances",
        "offset": 0,
        "slot": "202",
        "type": "t_mapping(t_address,t_mapping(t_address,t_uint256))"
      },
      {
        "astId": 1486,
        "contract": "contracts/HatcherV2.sol:HatcherV2",
        "label": "_totalSupply",
        "offset": 0,
        "slot": "203",
        "type": "t_uint256"
      },
      {
        "astId": 1488,
        "contract": "contracts/HatcherV2.sol:HatcherV2",
        "label": "_name",
        "offset": 0,
        "slot": "204",
        "type": "t_string_storage"
      },
      {
        "astId": 1490,
        "contract": "contracts/HatcherV2.sol:HatcherV2",
        "label": "_symbol",
        "offset": 0,
        "slot": "205",
        "type": "t_string_storage"
      },
      {
        "astId": 2070,
        "contract": "contracts/HatcherV2.sol:HatcherV2",
        "label": "__gap",
        "offset": 0,
        "slot": "206",
        "type": "t_array(t_uint256)45_storage"
      },
      {
        "astId": 3975,
        "contract": "contracts/HatcherV2.sol:HatcherV2",
        "label": "_hashedName",
        "offset": 0,
        "slot": "251",
        "type": "t_bytes32"
      },
      {
        "astId": 3978,
        "contract": "contracts/HatcherV2.sol:HatcherV2",
        "label": "_hashedVersion",
        "offset": 0,
        "slot": "252",
        "type": "t_bytes32"
      },
      {
        "astId": 3980,
        "contract": "contracts/HatcherV2.sol:HatcherV2",
        "label": "_name",
        "offset": 0,
        "slot": "253",
        "type": "t_string_storage"
      },
      {
        "astId": 3982,
        "contract": "contracts/HatcherV2.sol:HatcherV2",
        "label": "_version",
        "offset": 0,
        "slot": "254",
        "type": "t_string_storage"
      },
      {
        "astId": 4240,
        "contract": "contracts/HatcherV2.sol:HatcherV2",
        "label": "__gap",
        "offset": 0,
        "slot": "255",
        "type": "t_array(t_uint256)48_storage"
      },
      {
        "astId": 2176,
        "contract": "contracts/HatcherV2.sol:HatcherV2",
        "label": "_nonces",
        "offset": 0,
        "slot": "303",
        "type": "t_mapping(t_address,t_struct(Counter)3183_storage)"
      },
      {
        "astId": 2184,
        "contract": "contracts/HatcherV2.sol:HatcherV2",
        "label": "_PERMIT_TYPEHASH_DEPRECATED_SLOT",
        "offset": 0,
        "slot": "304",
        "type": "t_bytes32"
      },
      {
        "astId": 2340,
        "contract": "contracts/HatcherV2.sol:HatcherV2",
        "label": "__gap",
        "offset": 0,
        "slot": "305",
        "type": "t_array(t_uint256)49_storage"
      },
      {
        "astId": 173,
        "contract": "contracts/HatcherV2.sol:HatcherV2",
        "label": "_totalShares",
        "offset": 0,
        "slot": "354",
        "type": "t_uint256"
      },
      {
        "astId": 175,
        "contract": "contracts/HatcherV2.sol:HatcherV2",
        "label": "_totalReleased",
        "offset": 0,
        "slot": "355",
        "type": "t_uint256"
      },
      {
        "astId": 179,
        "contract": "contracts/HatcherV2.sol:HatcherV2",
        "label": "_shares",
        "offset": 0,
        "slot": "356",
        "type": "t_mapping(t_address,t_uint256)"
      },
      {
        "astId": 183,
        "contract": "contracts/HatcherV2.sol:HatcherV2",
        "label": "_released",
        "offset": 0,
        "slot": "357",
        "type": "t_mapping(t_address,t_uint256)"
      },
      {
        "astId": 186,
        "contract": "contracts/HatcherV2.sol:HatcherV2",
        "label": "_payees",
        "offset": 0,
        "slot": "358",
        "type": "t_array(t_address)dyn_storage"
      },
      {
        "astId": 191,
        "contract": "contracts/HatcherV2.sol:HatcherV2",
        "label": "_erc20TotalReleased",
        "offset": 0,
        "slot": "359",
        "type": "t_mapping(t_contract(IERC20Upgradeable)2149,t_uint256)"
      },
      {
        "astId": 198,
        "contract": "contracts/HatcherV2.sol:HatcherV2",
        "label": "_erc20Released",
        "offset": 0,
        "slot": "360",
        "type": "t_mapping(t_contract(IERC20Upgradeable)2149,t_mapping(t_address,t_uint256))"
      },
      {
        "astId": 632,
        "contract": "contracts/HatcherV2.sol:HatcherV2",
        "label": "__gap",
        "offset": 0,
        "slot": "361",
        "type": "t_array(t_uint256)43_storage"
      },
      {
        "astId": 11,
        "contract": "contracts/HatcherV2.sol:HatcherV2",
        "label": "_owner",
        "offset": 0,
        "slot": "404",
        "type": "t_address"
      },
      {
        "astId": 131,
        "contract": "contracts/HatcherV2.sol:HatcherV2",
        "label": "__gap",
        "offset": 0,
        "slot": "405",
        "type": "t_array(t_uint256)49_storage"
      },
      {
        "astId": 9572,
        "contract": "contracts/HatcherV2.sol:HatcherV2",
        "label": "breedContract",
        "offset": 0,
        "slot": "454",
        "type": "t_contract(IBreedContract)9451"
      },
      {
        "astId": 9574,
        "contract": "contracts/HatcherV2.sol:HatcherV2",
        "label": "treasuryAddr",
        "offset": 0,
        "slot": "455",
        "type": "t_address_payable"
      },
      {
        "astId": 9577,
        "contract": "contracts/HatcherV2.sol:HatcherV2",
        "label": "nftPlanetContract",
        "offset": 0,
        "slot": "456",
        "type": "t_contract(IERC721)9439"
      },
      {
        "astId": 9579,
        "contract": "contracts/HatcherV2.sol:HatcherV2",
        "label": "vrfValue",
        "offset": 0,
        "slot": "457",
        "type": "t_uint256"
      },
      {
        "astId": 9585,
        "contract": "contracts/HatcherV2.sol:HatcherV2",
        "label": "userToListedPlanets",
        "offset": 0,
        "slot": "458",
        "type": "t_mapping(t_address,t_array(t_struct(ListedPlanet)9460_storage)dyn_storage)"
      },
      {
        "astId": 9589,
        "contract": "contracts/HatcherV2.sol:HatcherV2",
        "label": "planetsListed",
        "offset": 0,
        "slot": "459",
        "type": "t_array(t_struct(ListedPlanet)9460_storage)dyn_storage"
      },
      {
        "astId": 9596,
        "contract": "contracts/HatcherV2.sol:HatcherV2",
        "label": "claimantTokenIdToOwnerAddress",
        "offset": 0,
        "slot": "460",
        "type": "t_mapping(t_uint256,t_address)"
      },
      {
        "astId": 9602,
        "contract": "contracts/HatcherV2.sol:HatcherV2",
        "label": "claimablePlanets",
        "offset": 0,
        "slot": "461",
        "type": "t_mapping(t_address,t_array(t_struct(ClaimablePlanet)9475_storage)dyn_storage)"
      },
      {
        "astId": 9604,
        "contract": "contracts/HatcherV2.sol:HatcherV2",
        "label": "mktFee",
        "offset": 0,
        "slot": "462",
        "type": "t_uint256"
      }
    ],
    "types": {
      "t_address": {
        "encoding": "inplace",
        "label": "address",
        "numberOfBytes": "20"
      },
      "t_address_payable": {
        "encoding": "inplace",
        "label": "address payable",
        "numberOfBytes": "20"
      },
      "t_array(t_address)dyn_storage": {
        "base": "t_address",
        "encoding": "dynamic_array",
        "label": "address[]",
        "numberOfBytes": "32"
      },
      "t_array(t_struct(ClaimablePlanet)9475_storage)dyn_storage": {
        "base": "t_struct(ClaimablePlanet)9475_storage",
        "encoding": "dynamic_array",
        "label": "struct ClaimablePlanet[]",
        "numberOfBytes": "32"
      },
      "t_array(t_struct(ListedPlanet)9460_storage)dyn_storage": {
        "base": "t_struct(ListedPlanet)9460_storage",
        "encoding": "dynamic_array",
        "label": "struct ListedPlanet[]",
        "numberOfBytes": "32"
      },
      "t_array(t_uint256)43_storage": {
        "base": "t_uint256",
        "encoding": "inplace",
        "label": "uint256[43]",
        "numberOfBytes": "1376"
      },
      "t_array(t_uint256)45_storage": {
        "base": "t_uint256",
        "encoding": "inplace",
        "label": "uint256[45]",
        "numberOfBytes": "1440"
      },
      "t_array(t_uint256)48_storage": {
        "base": "t_uint256",
        "encoding": "inplace",
        "label": "uint256[48]",
        "numberOfBytes": "1536"
      },
      "t_array(t_uint256)49_storage": {
        "base": "t_uint256",
        "encoding": "inplace",
        "label": "uint256[49]",
        "numberOfBytes": "1568"
      },
      "t_array(t_uint256)50_storage": {
        "base": "t_uint256",
        "encoding": "inplace",
        "label": "uint256[50]",
        "numberOfBytes": "1600"
      },
      "t_bool": {
        "encoding": "inplace",
        "label": "bool",
        "numberOfBytes": "1"
      },
      "t_bytes32": {
        "encoding": "inplace",
        "label": "bytes32",
        "numberOfBytes": "32"
      },
      "t_contract(IBreedContract)9451": {
        "encoding": "inplace",
        "label": "contract IBreedContract",
        "numberOfBytes": "20"
      },
      "t_contract(IERC20Upgradeable)2149": {
        "encoding": "inplace",
        "label": "contract IERC20Upgradeable",
        "numberOfBytes": "20"
      },
      "t_contract(IERC721)9439": {
        "encoding": "inplace",
        "label": "contract IERC721",
        "numberOfBytes": "20"
      },
      "t_mapping(t_address,t_array(t_struct(ClaimablePlanet)9475_storage)dyn_storage)": {
        "encoding": "mapping",
        "key": "t_address",
        "label": "mapping(address => struct ClaimablePlanet[])",
        "numberOfBytes": "32",
        "value": "t_array(t_struct(ClaimablePlanet)9475_storage)dyn_storage"
      },
      "t_mapping(t_address,t_array(t_struct(ListedPlanet)9460_storage)dyn_storage)": {
        "encoding": "mapping",
        "key": "t_address",
        "label": "mapping(address => struct ListedPlanet[])",
        "numberOfBytes": "32",
        "value": "t_array(t_struct(ListedPlanet)9460_storage)dyn_storage"
      },
      "t_mapping(t_address,t_mapping(t_address,t_uint256))": {
        "encoding": "mapping",
        "key": "t_address",
        "label": "mapping(address => mapping(address => uint256))",
        "numberOfBytes": "32",
        "value": "t_mapping(t_address,t_uint256)"
      },
      "t_mapping(t_address,t_struct(Counter)3183_storage)": {
        "encoding": "mapping",
        "key": "t_address",
        "label": "mapping(address => struct CountersUpgradeable.Counter)",
        "numberOfBytes": "32",
        "value": "t_struct(Counter)3183_storage"
      },
      "t_mapping(t_address,t_uint256)": {
        "encoding": "mapping",
        "key": "t_address",
        "label": "mapping(address => uint256)",
        "numberOfBytes": "32",
        "value": "t_uint256"
      },
      "t_mapping(t_contract(IERC20Upgradeable)2149,t_mapping(t_address,t_uint256))": {
        "encoding": "mapping",
        "key": "t_contract(IERC20Upgradeable)2149",
        "label": "mapping(contract IERC20Upgradeable => mapping(address => uint256))",
        "numberOfBytes": "32",
        "value": "t_mapping(t_address,t_uint256)"
      },
      "t_mapping(t_contract(IERC20Upgradeable)2149,t_uint256)": {
        "encoding": "mapping",
        "key": "t_contract(IERC20Upgradeable)2149",
        "label": "mapping(contract IERC20Upgradeable => uint256)",
        "numberOfBytes": "32",
        "value": "t_uint256"
      },
      "t_mapping(t_uint256,t_address)": {
        "encoding": "mapping",
        "key": "t_uint256",
        "label": "mapping(uint256 => address)",
        "numberOfBytes": "32",
        "value": "t_address"
      },
      "t_string_storage": {
        "encoding": "bytes",
        "label": "string",
        "numberOfBytes": "32"
      },
      "t_struct(ClaimablePlanet)9475_storage": {
        "encoding": "inplace",
        "label": "struct ClaimablePlanet",
        "members": [
          {
            "astId": 9462,
            "contract": "contracts/HatcherV2.sol:HatcherV2",
            "label": "ownerParentAddress",
            "offset": 0,
            "slot": "0",
            "type": "t_address"
          },
          {
            "astId": 9464,
            "contract": "contracts/HatcherV2.sol:HatcherV2",
            "label": "ownerTokenId",
            "offset": 0,
            "slot": "1",
            "type": "t_uint256"
          },
          {
            "astId": 9466,
            "contract": "contracts/HatcherV2.sol:HatcherV2",
            "label": "delivered",
            "offset": 0,
            "slot": "2",
            "type": "t_bool"
          },
          {
            "astId": 9468,
            "contract": "contracts/HatcherV2.sol:HatcherV2",
            "label": "arrived",
            "offset": 1,
            "slot": "2",
            "type": "t_bool"
          },
          {
            "astId": 9470,
            "contract": "contracts/HatcherV2.sol:HatcherV2",
            "label": "otherParent",
            "offset": 2,
            "slot": "2",
            "type": "t_address"
          },
          {
            "astId": 9472,
            "contract": "contracts/HatcherV2.sol:HatcherV2",
            "label": "otherTokenId",
            "offset": 0,
            "slot": "3",
            "type": "t_uint256"
          },
          {
            "astId": 9474,
            "contract": "contracts/HatcherV2.sol:HatcherV2",
            "label": "claimsTokenId",
            "offset": 0,
            "slot": "4",
            "type": "t_uint256"
          }
        ],
        "numberOfBytes": "160"
      },
      "t_struct(Counter)3183_storage": {
        "encoding": "inplace",
        "label": "struct CountersUpgradeable.Counter",
        "members": [
          {
            "astId": 3182,
            "contract": "contracts/HatcherV2.sol:HatcherV2",
            "label": "_value",
            "offset": 0,
            "slot": "0",
            "type": "t_uint256"
          }
        ],
        "numberOfBytes": "32"
      },
      "t_struct(ListedPlanet)9460_storage": {
        "encoding": "inplace",
        "label": "struct ListedPlanet",
        "members": [
          {
            "astId": 9453,
            "contract": "contracts/HatcherV2.sol:HatcherV2",
            "label": "tokenId",
            "offset": 0,
            "slot": "0",
            "type": "t_uint256"
          },
          {
            "astId": 9455,
            "contract": "contracts/HatcherV2.sol:HatcherV2",
            "label": "price",
            "offset": 0,
            "slot": "1",
            "type": "t_uint256"
          },
          {
            "astId": 9457,
            "contract": "contracts/HatcherV2.sol:HatcherV2",
            "label": "ownerAddress",
            "offset": 0,
            "slot": "2",
            "type": "t_address"
          },
          {
            "astId": 9459,
            "contract": "contracts/HatcherV2.sol:HatcherV2",
            "label": "active",
            "offset": 20,
            "slot": "2",
            "type": "t_bool"
          }
        ],
        "numberOfBytes": "96"
      },
      "t_uint256": {
        "encoding": "inplace",
        "label": "uint256",
        "numberOfBytes": "32"
      },
      "t_uint8": {
        "encoding": "inplace",
        "label": "uint8",
        "numberOfBytes": "1"
      }
    }
  }
}