{
  "address": "0x0eD3de273b1b1e430aFA2D38692e31FcB282bF12",
  "abi": [
    {
      "inputs": [],
      "name": "Unauthorized",
      "type": "error"
    },
    {
      "anonymous": false,
      "inputs": [
        {
          "indexed": false,
          "internalType": "address",
          "name": "previousAdmin",
          "type": "address"
        },
        {
          "indexed": false,
          "internalType": "address",
          "name": "newAdmin",
          "type": "address"
        }
      ],
      "name": "AdminChanged",
      "type": "event"
    },
    {
      "anonymous": false,
      "inputs": [
        {
          "indexed": true,
          "internalType": "address",
          "name": "owner",
          "type": "address"
        },
        {
          "indexed": true,
          "internalType": "address",
          "name": "spender",
          "type": "address"
        },
        {
          "indexed": false,
          "internalType": "uint256",
          "name": "value",
          "type": "uint256"
        }
      ],
      "name": "Approval",
      "type": "event"
    },
    {
      "anonymous": false,
      "inputs": [
        {
          "indexed": true,
          "internalType": "address",
          "name": "beacon",
          "type": "address"
        }
      ],
      "name": "BeaconUpgraded",
      "type": "event"
    },
    {
      "anonymous": false,
      "inputs": [
        {
          "indexed": false,
          "internalType": "address",
          "name": "sentToUser",
          "type": "address"
        },
        {
          "indexed": false,
          "internalType": "address",
          "name": "token",
          "type": "address"
        },
        {
          "indexed": false,
          "internalType": "uint256",
          "name": "tokenId",
          "type": "uint256"
        },
        {
          "indexed": false,
          "internalType": "bool",
          "name": "success",
          "type": "bool"
        }
      ],
      "name": "DeClaimedAPlanet",
      "type": "event"
    },
    {
      "anonymous": false,
      "inputs": [
        {
          "indexed": false,
          "internalType": "address",
          "name": "sentToUser",
          "type": "address"
        },
        {
          "indexed": false,
          "internalType": "address",
          "name": "token",
          "type": "address"
        },
        {
          "indexed": false,
          "internalType": "uint256",
          "name": "tokenId",
          "type": "uint256"
        },
        {
          "indexed": false,
          "internalType": "bool",
          "name": "success",
          "type": "bool"
        }
      ],
      "name": "DeListedAPlanet",
      "type": "event"
    },
    {
      "anonymous": false,
      "inputs": [],
      "name": "EIP712DomainChanged",
      "type": "event"
    },
    {
      "anonymous": false,
      "inputs": [
        {
          "indexed": true,
          "internalType": "contract IERC20Upgradeable",
          "name": "token",
          "type": "address"
        },
        {
          "indexed": false,
          "internalType": "address",
          "name": "to",
          "type": "address"
        },
        {
          "indexed": false,
          "internalType": "uint256",
          "name": "amount",
          "type": "uint256"
        }
      ],
      "name": "ERC20PaymentReleased",
      "type": "event"
    },
    {
      "anonymous": false,
      "inputs": [
        {
          "indexed": false,
          "internalType": "uint8",
          "name": "version",
          "type": "uint8"
        }
      ],
      "name": "Initialized",
      "type": "event"
    },
    {
      "anonymous": false,
      "inputs": [
        {
          "indexed": false,
          "internalType": "address",
          "name": "sentFromUser",
          "type": "address"
        },
        {
          "indexed": false,
          "internalType": "address",
          "name": "token",
          "type": "address"
        },
        {
          "indexed": false,
          "internalType": "uint256",
          "name": "tokenId",
          "type": "uint256"
        },
        {
          "indexed": false,
          "internalType": "uint256",
          "name": "price",
          "type": "uint256"
        }
      ],
      "name": "ListedAPlanet",
      "type": "event"
    },
    {
      "anonymous": false,
      "inputs": [
        {
          "indexed": false,
          "internalType": "address",
          "name": "operator",
          "type": "address"
        },
        {
          "indexed": false,
          "internalType": "address",
          "name": "from",
          "type": "address"
        },
        {
          "indexed": false,
          "internalType": "uint256",
          "name": "tokenId",
          "type": "uint256"
        },
        {
          "indexed": false,
          "internalType": "bytes",
          "name": "data",
          "type": "bytes"
        },
        {
          "indexed": false,
          "internalType": "string",
          "name": "typeOfReceival",
          "type": "string"
        }
      ],
      "name": "NftReceived",
      "type": "event"
    },
    {
      "anonymous": false,
      "inputs": [
        {
          "indexed": true,
          "internalType": "address",
          "name": "previousOwner",
          "type": "address"
        },
        {
          "indexed": true,
          "internalType": "address",
          "name": "newOwner",
          "type": "address"
        }
      ],
      "name": "OwnershipTransferred",
      "type": "event"
    },
    {
      "anonymous": false,
      "inputs": [
        {
          "indexed": false,
          "internalType": "address",
          "name": "account",
          "type": "address"
        }
      ],
      "name": "Paused",
      "type": "event"
    },
    {
      "anonymous": false,
      "inputs": [
        {
          "indexed": false,
          "internalType": "address",
          "name": "account",
          "type": "address"
        },
        {
          "indexed": false,
          "internalType": "uint256",
          "name": "shares",
          "type": "uint256"
        }
      ],
      "name": "PayeeAdded",
      "type": "event"
    },
    {
      "anonymous": false,
      "inputs": [
        {
          "indexed": false,
          "internalType": "address",
          "name": "from",
          "type": "address"
        },
        {
          "indexed": false,
          "internalType": "uint256",
          "name": "amount",
          "type": "uint256"
        }
      ],
      "name": "PaymentReceived",
      "type": "event"
    },
    {
      "anonymous": false,
      "inputs": [
        {
          "indexed": false,
          "internalType": "address",
          "name": "to",
          "type": "address"
        },
        {
          "indexed": false,
          "internalType": "uint256",
          "name": "amount",
          "type": "uint256"
        }
      ],
      "name": "PaymentReleased",
      "type": "event"
    },
    {
      "anonymous": false,
      "inputs": [
        {
          "indexed": false,
          "internalType": "uint256",
          "name": "planetAsking",
          "type": "uint256"
        },
        {
          "indexed": false,
          "internalType": "address",
          "name": "askingUser",
          "type": "address"
        },
        {
          "indexed": false,
          "internalType": "uint256",
          "name": "planetJoining",
          "type": "uint256"
        },
        {
          "indexed": false,
          "internalType": "address",
          "name": "joiningUser",
          "type": "address"
        }
      ],
      "name": "PlanetsConjoining",
      "type": "event"
    },
    {
      "anonymous": false,
      "inputs": [
        {
          "indexed": true,
          "internalType": "address",
          "name": "from",
          "type": "address"
        },
        {
          "indexed": true,
          "internalType": "address",
          "name": "to",
          "type": "address"
        },
        {
          "indexed": false,
          "internalType": "uint256",
          "name": "value",
          "type": "uint256"
        }
      ],
      "name": "Transfer",
      "type": "event"
    },
    {
      "anonymous": false,
      "inputs": [
        {
          "indexed": false,
          "internalType": "address",
          "name": "account",
          "type": "address"
        }
      ],
      "name": "Unpaused",
      "type": "event"
    },
    {
      "anonymous": false,
      "inputs": [
        {
          "indexed": true,
          "internalType": "address",
          "name": "implementation",
          "type": "address"
        }
      ],
      "name": "Upgraded",
      "type": "event"
    },
    {
      "stateMutability": "payable",
      "type": "fallback"
    },
    {
      "inputs": [],
      "name": "DOMAIN_SEPARATOR",
      "outputs": [
        {
          "internalType": "bytes32",
          "name": "",
          "type": "bytes32"
        }
      ],
      "stateMutability": "view",
      "type": "function"
    },
    {
      "inputs": [
        {
          "internalType": "address",
          "name": "owner",
          "type": "address"
        },
        {
          "internalType": "address",
          "name": "spender",
          "type": "address"
        }
      ],
      "name": "allowance",
      "outputs": [
        {
          "internalType": "uint256",
          "name": "",
          "type": "uint256"
        }
      ],
      "stateMutability": "view",
      "type": "function"
    },
    {
      "inputs": [
        {
          "internalType": "address",
          "name": "spender",
          "type": "address"
        },
        {
          "internalType": "uint256",
          "name": "amount",
          "type": "uint256"
        }
      ],
      "name": "approve",
      "outputs": [
        {
          "internalType": "bool",
          "name": "",
          "type": "bool"
        }
      ],
      "stateMutability": "nonpayable",
      "type": "function"
    },
    {
      "inputs": [
        {
          "internalType": "contract IERC721",
          "name": "token",
          "type": "address"
        },
        {
          "internalType": "address",
          "name": "operator",
          "type": "address"
        }
      ],
      "name": "approveAllERC721Tokens",
      "outputs": [],
      "stateMutability": "nonpayable",
      "type": "function"
    },
    {
      "inputs": [
        {
          "internalType": "contract IERC20",
          "name": "token",
          "type": "address"
        },
        {
          "internalType": "address",
          "name": "spender",
          "type": "address"
        },
        {
          "internalType": "uint256",
          "name": "amount",
          "type": "uint256"
        }
      ],
      "name": "approveERC20",
      "outputs": [],
      "stateMutability": "nonpayable",
      "type": "function"
    },
    {
      "inputs": [
        {
          "internalType": "address",
          "name": "account",
          "type": "address"
        }
      ],
      "name": "balanceOf",
      "outputs": [
        {
          "internalType": "uint256",
          "name": "",
          "type": "uint256"
        }
      ],
      "stateMutability": "view",
      "type": "function"
    },
    {
      "inputs": [],
      "name": "breedContract",
      "outputs": [
        {
          "internalType": "contract IBreedContract",
          "name": "",
          "type": "address"
        }
      ],
      "stateMutability": "view",
      "type": "function"
    },
    {
      "inputs": [
        {
          "internalType": "uint256",
          "name": "newVRF",
          "type": "uint256"
        }
      ],
      "name": "changeVRFValue",
      "outputs": [],
      "stateMutability": "nonpayable",
      "type": "function"
    },
    {
      "inputs": [
        {
          "internalType": "address",
          "name": "owner",
          "type": "address"
        },
        {
          "internalType": "address",
          "name": "operator",
          "type": "address"
        }
      ],
      "name": "checkApprovalForAll",
      "outputs": [
        {
          "internalType": "bool",
          "name": "",
          "type": "bool"
        }
      ],
      "stateMutability": "view",
      "type": "function"
    },
    {
      "inputs": [
        {
          "internalType": "uint256",
          "name": "claimableTokenId",
          "type": "uint256"
        }
      ],
      "name": "claimPlanet",
      "outputs": [],
      "stateMutability": "nonpayable",
      "type": "function"
    },
    {
      "inputs": [
        {
          "internalType": "address",
          "name": "",
          "type": "address"
        },
        {
          "internalType": "uint256",
          "name": "",
          "type": "uint256"
        }
      ],
      "name": "claimablePlanets",
      "outputs": [
        {
          "internalType": "address",
          "name": "ownerParentAddress",
          "type": "address"
        },
        {
          "internalType": "uint256",
          "name": "ownerTokenId",
          "type": "uint256"
        },
        {
          "internalType": "bool",
          "name": "delivered",
          "type": "bool"
        },
        {
          "internalType": "bool",
          "name": "arrived",
          "type": "bool"
        },
        {
          "internalType": "address",
          "name": "otherParent",
          "type": "address"
        },
        {
          "internalType": "uint256",
          "name": "otherTokenId",
          "type": "uint256"
        },
        {
          "internalType": "uint256",
          "name": "claimsTokenId",
          "type": "uint256"
        }
      ],
      "stateMutability": "view",
      "type": "function"
    },
    {
      "inputs": [
        {
          "internalType": "uint256",
          "name": "",
          "type": "uint256"
        }
      ],
      "name": "claimantTokenIdToOwnerAddress",
      "outputs": [
        {
          "internalType": "address",
          "name": "",
          "type": "address"
        }
      ],
      "stateMutability": "view",
      "type": "function"
    },
    {
      "inputs": [
        {
          "internalType": "uint256",
          "name": "yourPlanet",
          "type": "uint256"
        },
        {
          "internalType": "uint256",
          "name": "withListedPlanet",
          "type": "uint256"
        }
      ],
      "name": "conjunct",
      "outputs": [],
      "stateMutability": "payable",
      "type": "function"
    },
    {
      "inputs": [
        {
          "internalType": "uint256",
          "name": "idIndex",
          "type": "uint256"
        },
        {
          "internalType": "uint256",
          "name": "tokenId",
          "type": "uint256"
        }
      ],
      "name": "deList",
      "outputs": [],
      "stateMutability": "nonpayable",
      "type": "function"
    },
    {
      "inputs": [],
      "name": "deListAllYourPlanets",
      "outputs": [],
      "stateMutability": "nonpayable",
      "type": "function"
    },
    {
      "inputs": [],
      "name": "decimals",
      "outputs": [
        {
          "internalType": "uint8",
          "name": "",
          "type": "uint8"
        }
      ],
      "stateMutability": "view",
      "type": "function"
    },
    {
      "inputs": [
        {
          "internalType": "address",
          "name": "spender",
          "type": "address"
        },
        {
          "internalType": "uint256",
          "name": "subtractedValue",
          "type": "uint256"
        }
      ],
      "name": "decreaseAllowance",
      "outputs": [
        {
          "internalType": "bool",
          "name": "",
          "type": "bool"
        }
      ],
      "stateMutability": "nonpayable",
      "type": "function"
    },
    {
      "inputs": [],
      "name": "eip712Domain",
      "outputs": [
        {
          "internalType": "bytes1",
          "name": "fields",
          "type": "bytes1"
        },
        {
          "internalType": "string",
          "name": "name",
          "type": "string"
        },
        {
          "internalType": "string",
          "name": "version",
          "type": "string"
        },
        {
          "internalType": "uint256",
          "name": "chainId",
          "type": "uint256"
        },
        {
          "internalType": "address",
          "name": "verifyingContract",
          "type": "address"
        },
        {
          "internalType": "bytes32",
          "name": "salt",
          "type": "bytes32"
        },
        {
          "internalType": "uint256[]",
          "name": "extensions",
          "type": "uint256[]"
        }
      ],
      "stateMutability": "view",
      "type": "function"
    },
    {
      "inputs": [],
      "name": "getAllPlanets",
      "outputs": [
        {
          "components": [
            {
              "internalType": "uint256",
              "name": "tokenId",
              "type": "uint256"
            },
            {
              "internalType": "uint256",
              "name": "price",
              "type": "uint256"
            },
            {
              "internalType": "address",
              "name": "ownerAddress",
              "type": "address"
            },
            {
              "internalType": "bool",
              "name": "active",
              "type": "bool"
            }
          ],
          "internalType": "struct ListedPlanet[]",
          "name": "",
          "type": "tuple[]"
        }
      ],
      "stateMutability": "view",
      "type": "function"
    },
    {
      "inputs": [
        {
          "internalType": "address",
          "name": "userAddr",
          "type": "address"
        }
      ],
      "name": "getClaimablePlanetsFor",
      "outputs": [
        {
          "components": [
            {
              "internalType": "address",
              "name": "ownerParentAddress",
              "type": "address"
            },
            {
              "internalType": "uint256",
              "name": "ownerTokenId",
              "type": "uint256"
            },
            {
              "internalType": "bool",
              "name": "delivered",
              "type": "bool"
            },
            {
              "internalType": "bool",
              "name": "arrived",
              "type": "bool"
            },
            {
              "internalType": "address",
              "name": "otherParent",
              "type": "address"
            },
            {
              "internalType": "uint256",
              "name": "otherTokenId",
              "type": "uint256"
            },
            {
              "internalType": "uint256",
              "name": "claimsTokenId",
              "type": "uint256"
            }
          ],
          "internalType": "struct ClaimablePlanet[]",
          "name": "",
          "type": "tuple[]"
        }
      ],
      "stateMutability": "view",
      "type": "function"
    },
    {
      "inputs": [
        {
          "internalType": "uint256",
          "name": "claimableTokenId",
          "type": "uint256"
        }
      ],
      "name": "getClaimantTokenIdToOwnerAddress",
      "outputs": [
        {
          "internalType": "address",
          "name": "",
          "type": "address"
        }
      ],
      "stateMutability": "view",
      "type": "function"
    },
    {
      "inputs": [
        {
          "internalType": "uint256",
          "name": "listedTokenId",
          "type": "uint256"
        }
      ],
      "name": "getListedTokenIdToOwnerAddr",
      "outputs": [
        {
          "internalType": "address",
          "name": "",
          "type": "address"
        }
      ],
      "stateMutability": "view",
      "type": "function"
    },
    {
      "inputs": [
        {
          "internalType": "uint256",
          "name": "startIndex",
          "type": "uint256"
        },
        {
          "internalType": "uint256",
          "name": "endIndex",
          "type": "uint256"
        }
      ],
      "name": "getPlanetsPaginated",
      "outputs": [
        {
          "components": [
            {
              "internalType": "uint256",
              "name": "tokenId",
              "type": "uint256"
            },
            {
              "internalType": "uint256",
              "name": "price",
              "type": "uint256"
            },
            {
              "internalType": "address",
              "name": "ownerAddress",
              "type": "address"
            },
            {
              "internalType": "bool",
              "name": "active",
              "type": "bool"
            }
          ],
          "internalType": "struct ListedPlanet[]",
          "name": "",
          "type": "tuple[]"
        }
      ],
      "stateMutability": "view",
      "type": "function"
    },
    {
      "inputs": [
        {
          "internalType": "address",
          "name": "userAddr",
          "type": "address"
        }
      ],
      "name": "getuserToListedPlanets",
      "outputs": [
        {
          "components": [
            {
              "internalType": "uint256",
              "name": "tokenId",
              "type": "uint256"
            },
            {
              "internalType": "uint256",
              "name": "price",
              "type": "uint256"
            },
            {
              "internalType": "address",
              "name": "ownerAddress",
              "type": "address"
            },
            {
              "internalType": "bool",
              "name": "active",
              "type": "bool"
            }
          ],
          "internalType": "struct ListedPlanet[]",
          "name": "",
          "type": "tuple[]"
        }
      ],
      "stateMutability": "view",
      "type": "function"
    },
    {
      "inputs": [
        {
          "internalType": "address",
          "name": "owner",
          "type": "address"
        },
        {
          "internalType": "uint256",
          "name": "tokenId",
          "type": "uint256"
        }
      ],
      "name": "hasPlanetArrived",
      "outputs": [
        {
          "internalType": "bool",
          "name": "arrived",
          "type": "bool"
        }
      ],
      "stateMutability": "view",
      "type": "function"
    },
    {
      "inputs": [
        {
          "internalType": "address",
          "name": "owner",
          "type": "address"
        },
        {
          "internalType": "uint256",
          "name": "tokenId",
          "type": "uint256"
        }
      ],
      "name": "hasPlanetBeenDelivered",
      "outputs": [
        {
          "internalType": "bool",
          "name": "delivered",
          "type": "bool"
        }
      ],
      "stateMutability": "view",
      "type": "function"
    },
    {
      "inputs": [
        {
          "internalType": "address",
          "name": "spender",
          "type": "address"
        },
        {
          "internalType": "uint256",
          "name": "addedValue",
          "type": "uint256"
        }
      ],
      "name": "increaseAllowance",
      "outputs": [
        {
          "internalType": "bool",
          "name": "",
          "type": "bool"
        }
      ],
      "stateMutability": "nonpayable",
      "type": "function"
    },
    {
      "inputs": [
        {
          "internalType": "address",
          "name": "initialOwner",
          "type": "address"
        }
      ],
      "name": "initialize",
      "outputs": [],
      "stateMutability": "nonpayable",
      "type": "function"
    },
    {
      "inputs": [],
      "name": "listAllYourPlanets",
      "outputs": [],
      "stateMutability": "nonpayable",
      "type": "function"
    },
    {
      "inputs": [
        {
          "internalType": "uint256",
          "name": "",
          "type": "uint256"
        }
      ],
      "name": "listedTokenIdToOwnerAddr",
      "outputs": [
        {
          "internalType": "address",
          "name": "",
          "type": "address"
        }
      ],
      "stateMutability": "view",
      "type": "function"
    },
    {
      "inputs": [],
      "name": "name",
      "outputs": [
        {
          "internalType": "string",
          "name": "",
          "type": "string"
        }
      ],
      "stateMutability": "view",
      "type": "function"
    },
    {
      "inputs": [
        {
          "internalType": "address",
          "name": "owner",
          "type": "address"
        }
      ],
      "name": "nonces",
      "outputs": [
        {
          "internalType": "uint256",
          "name": "",
          "type": "uint256"
        }
      ],
      "stateMutability": "view",
      "type": "function"
    },
    {
      "inputs": [
        {
          "internalType": "address",
          "name": "operator",
          "type": "address"
        },
        {
          "internalType": "address",
          "name": "from",
          "type": "address"
        },
        {
          "internalType": "uint256",
          "name": "tokenId",
          "type": "uint256"
        },
        {
          "internalType": "bytes",
          "name": "data",
          "type": "bytes"
        }
      ],
      "name": "onERC721Received",
      "outputs": [
        {
          "internalType": "bytes4",
          "name": "",
          "type": "bytes4"
        }
      ],
      "stateMutability": "nonpayable",
      "type": "function"
    },
    {
      "inputs": [],
      "name": "owner",
      "outputs": [
        {
          "internalType": "address",
          "name": "",
          "type": "address"
        }
      ],
      "stateMutability": "view",
      "type": "function"
    },
    {
      "inputs": [
        {
          "internalType": "uint256",
          "name": "claimableTokenId",
          "type": "uint256"
        },
        {
          "internalType": "address",
          "name": "sendToAddr",
          "type": "address"
        }
      ],
      "name": "ownerClaimPlanet",
      "outputs": [],
      "stateMutability": "nonpayable",
      "type": "function"
    },
    {
      "inputs": [
        {
          "internalType": "uint256",
          "name": "tokenId",
          "type": "uint256"
        },
        {
          "internalType": "address",
          "name": "destinationAddr",
          "type": "address"
        }
      ],
      "name": "ownerOverrideSendNFT",
      "outputs": [],
      "stateMutability": "nonpayable",
      "type": "function"
    },
    {
      "inputs": [],
      "name": "pause",
      "outputs": [],
      "stateMutability": "nonpayable",
      "type": "function"
    },
    {
      "inputs": [],
      "name": "paused",
      "outputs": [
        {
          "internalType": "bool",
          "name": "",
          "type": "bool"
        }
      ],
      "stateMutability": "view",
      "type": "function"
    },
    {
      "inputs": [
        {
          "internalType": "uint256",
          "name": "index",
          "type": "uint256"
        }
      ],
      "name": "payee",
      "outputs": [
        {
          "internalType": "address",
          "name": "",
          "type": "address"
        }
      ],
      "stateMutability": "view",
      "type": "function"
    },
    {
      "inputs": [
        {
          "internalType": "address",
          "name": "owner",
          "type": "address"
        },
        {
          "internalType": "address",
          "name": "spender",
          "type": "address"
        },
        {
          "internalType": "uint256",
          "name": "value",
          "type": "uint256"
        },
        {
          "internalType": "uint256",
          "name": "deadline",
          "type": "uint256"
        },
        {
          "internalType": "uint8",
          "name": "v",
          "type": "uint8"
        },
        {
          "internalType": "bytes32",
          "name": "r",
          "type": "bytes32"
        },
        {
          "internalType": "bytes32",
          "name": "s",
          "type": "bytes32"
        }
      ],
      "name": "permit",
      "outputs": [],
      "stateMutability": "nonpayable",
      "type": "function"
    },
    {
      "inputs": [],
      "name": "proxiableUUID",
      "outputs": [
        {
          "internalType": "bytes32",
          "name": "",
          "type": "bytes32"
        }
      ],
      "stateMutability": "view",
      "type": "function"
    },
    {
      "inputs": [
        {
          "internalType": "address",
          "name": "account",
          "type": "address"
        }
      ],
      "name": "releasable",
      "outputs": [
        {
          "internalType": "uint256",
          "name": "",
          "type": "uint256"
        }
      ],
      "stateMutability": "view",
      "type": "function"
    },
    {
      "inputs": [
        {
          "internalType": "contract IERC20Upgradeable",
          "name": "token",
          "type": "address"
        },
        {
          "internalType": "address",
          "name": "account",
          "type": "address"
        }
      ],
      "name": "releasable",
      "outputs": [
        {
          "internalType": "uint256",
          "name": "",
          "type": "uint256"
        }
      ],
      "stateMutability": "view",
      "type": "function"
    },
    {
      "inputs": [
        {
          "internalType": "address payable",
          "name": "account",
          "type": "address"
        }
      ],
      "name": "release",
      "outputs": [],
      "stateMutability": "nonpayable",
      "type": "function"
    },
    {
      "inputs": [
        {
          "internalType": "contract IERC20Upgradeable",
          "name": "token",
          "type": "address"
        },
        {
          "internalType": "address",
          "name": "account",
          "type": "address"
        }
      ],
      "name": "release",
      "outputs": [],
      "stateMutability": "nonpayable",
      "type": "function"
    },
    {
      "inputs": [
        {
          "internalType": "contract IERC20Upgradeable",
          "name": "token",
          "type": "address"
        },
        {
          "internalType": "address",
          "name": "account",
          "type": "address"
        }
      ],
      "name": "released",
      "outputs": [
        {
          "internalType": "uint256",
          "name": "",
          "type": "uint256"
        }
      ],
      "stateMutability": "view",
      "type": "function"
    },
    {
      "inputs": [
        {
          "internalType": "address",
          "name": "account",
          "type": "address"
        }
      ],
      "name": "released",
      "outputs": [
        {
          "internalType": "uint256",
          "name": "",
          "type": "uint256"
        }
      ],
      "stateMutability": "view",
      "type": "function"
    },
    {
      "inputs": [],
      "name": "renounceOwnership",
      "outputs": [],
      "stateMutability": "nonpayable",
      "type": "function"
    },
    {
      "inputs": [
        {
          "internalType": "address",
          "name": "_breederContractAddr",
          "type": "address"
        },
        {
          "internalType": "uint256",
          "name": "_vrfValue",
          "type": "uint256"
        },
        {
          "internalType": "address",
          "name": "_nftContractAddr",
          "type": "address"
        }
      ],
      "name": "setAllOf",
      "outputs": [],
      "stateMutability": "nonpayable",
      "type": "function"
    },
    {
      "inputs": [
        {
          "internalType": "uint256",
          "name": "_toThisPercentage",
          "type": "uint256"
        }
      ],
      "name": "setMktFee",
      "outputs": [],
      "stateMutability": "nonpayable",
      "type": "function"
    },
    {
      "inputs": [
        {
          "internalType": "address payable",
          "name": "newTAdd",
          "type": "address"
        }
      ],
      "name": "setTAdd",
      "outputs": [],
      "stateMutability": "nonpayable",
      "type": "function"
    },
    {
      "inputs": [
        {
          "internalType": "address",
          "name": "account",
          "type": "address"
        }
      ],
      "name": "shares",
      "outputs": [
        {
          "internalType": "uint256",
          "name": "",
          "type": "uint256"
        }
      ],
      "stateMutability": "view",
      "type": "function"
    },
    {
      "inputs": [],
      "name": "status",
      "outputs": [],
      "stateMutability": "nonpayable",
      "type": "function"
    },
    {
      "inputs": [],
      "name": "symbol",
      "outputs": [
        {
          "internalType": "string",
          "name": "",
          "type": "string"
        }
      ],
      "stateMutability": "view",
      "type": "function"
    },
    {
      "inputs": [
        {
          "internalType": "uint256",
          "name": "",
          "type": "uint256"
        }
      ],
      "name": "tokenIdClaimableToOwnerAddr",
      "outputs": [
        {
          "internalType": "address",
          "name": "",
          "type": "address"
        }
      ],
      "stateMutability": "view",
      "type": "function"
    },
    {
      "inputs": [
        {
          "internalType": "contract IERC20Upgradeable",
          "name": "token",
          "type": "address"
        }
      ],
      "name": "totalReleased",
      "outputs": [
        {
          "internalType": "uint256",
          "name": "",
          "type": "uint256"
        }
      ],
      "stateMutability": "view",
      "type": "function"
    },
    {
      "inputs": [],
      "name": "totalReleased",
      "outputs": [
        {
          "internalType": "uint256",
          "name": "",
          "type": "uint256"
        }
      ],
      "stateMutability": "view",
      "type": "function"
    },
    {
      "inputs": [],
      "name": "totalShares",
      "outputs": [
        {
          "internalType": "uint256",
          "name": "",
          "type": "uint256"
        }
      ],
      "stateMutability": "view",
      "type": "function"
    },
    {
      "inputs": [],
      "name": "totalSupply",
      "outputs": [
        {
          "internalType": "uint256",
          "name": "",
          "type": "uint256"
        }
      ],
      "stateMutability": "view",
      "type": "function"
    },
    {
      "inputs": [
        {
          "internalType": "address",
          "name": "to",
          "type": "address"
        },
        {
          "internalType": "uint256",
          "name": "amount",
          "type": "uint256"
        }
      ],
      "name": "transfer",
      "outputs": [
        {
          "internalType": "bool",
          "name": "",
          "type": "bool"
        }
      ],
      "stateMutability": "nonpayable",
      "type": "function"
    },
    {
      "inputs": [
        {
          "internalType": "address",
          "name": "from",
          "type": "address"
        },
        {
          "internalType": "address",
          "name": "to",
          "type": "address"
        },
        {
          "internalType": "uint256",
          "name": "amount",
          "type": "uint256"
        }
      ],
      "name": "transferFrom",
      "outputs": [
        {
          "internalType": "bool",
          "name": "",
          "type": "bool"
        }
      ],
      "stateMutability": "nonpayable",
      "type": "function"
    },
    {
      "inputs": [
        {
          "internalType": "address",
          "name": "newOwner",
          "type": "address"
        }
      ],
      "name": "transferOwnership",
      "outputs": [],
      "stateMutability": "nonpayable",
      "type": "function"
    },
    {
      "inputs": [],
      "name": "unpause",
      "outputs": [],
      "stateMutability": "nonpayable",
      "type": "function"
    },
    {
      "inputs": [
        {
          "internalType": "address",
          "name": "newImplementation",
          "type": "address"
        }
      ],
      "name": "upgradeTo",
      "outputs": [],
      "stateMutability": "nonpayable",
      "type": "function"
    },
    {
      "inputs": [
        {
          "internalType": "address",
          "name": "newImplementation",
          "type": "address"
        },
        {
          "internalType": "bytes",
          "name": "data",
          "type": "bytes"
        }
      ],
      "name": "upgradeToAndCall",
      "outputs": [],
      "stateMutability": "payable",
      "type": "function"
    },
    {
      "inputs": [
        {
          "internalType": "address",
          "name": "",
          "type": "address"
        },
        {
          "internalType": "uint256",
          "name": "",
          "type": "uint256"
        }
      ],
      "name": "userToListedPlanets",
      "outputs": [
        {
          "internalType": "uint256",
          "name": "tokenId",
          "type": "uint256"
        },
        {
          "internalType": "uint256",
          "name": "price",
          "type": "uint256"
        },
        {
          "internalType": "address",
          "name": "ownerAddress",
          "type": "address"
        },
        {
          "internalType": "bool",
          "name": "active",
          "type": "bool"
        }
      ],
      "stateMutability": "view",
      "type": "function"
    },
    {
      "inputs": [
        {
          "internalType": "address",
          "name": "userAddress",
          "type": "address"
        }
      ],
      "name": "usersClaims",
      "outputs": [
        {
          "components": [
            {
              "internalType": "address",
              "name": "ownerParentAddress",
              "type": "address"
            },
            {
              "internalType": "uint256",
              "name": "ownerTokenId",
              "type": "uint256"
            },
            {
              "internalType": "bool",
              "name": "delivered",
              "type": "bool"
            },
            {
              "internalType": "bool",
              "name": "arrived",
              "type": "bool"
            },
            {
              "internalType": "address",
              "name": "otherParent",
              "type": "address"
            },
            {
              "internalType": "uint256",
              "name": "otherTokenId",
              "type": "uint256"
            },
            {
              "internalType": "uint256",
              "name": "claimsTokenId",
              "type": "uint256"
            }
          ],
          "internalType": "struct ClaimablePlanet[]",
          "name": "",
          "type": "tuple[]"
        }
      ],
      "stateMutability": "view",
      "type": "function"
    },
    {
      "inputs": [
        {
          "internalType": "address",
          "name": "address1",
          "type": "address"
        },
        {
          "internalType": "address",
          "name": "address2",
          "type": "address"
        }
      ],
      "name": "withdrawAndSplitHalfsies",
      "outputs": [],
      "stateMutability": "nonpayable",
      "type": "function"
    },
    {
      "inputs": [],
      "name": "withdrawFunds",
      "outputs": [],
      "stateMutability": "nonpayable",
      "type": "function"
    },
    {
      "stateMutability": "payable",
      "type": "receive"
    }
  ],
  "transactionHash": "0x378d5a3de4269d5f38178596b330deae527a6bc3fd6bd24f09948bd1947e5ed9",
  "args": [],
  "numDeployments": 2,
  "solcInputHash": "eb453d58b72d4daf9fde0835bd2d8989",
  "bytecode": "0x60a06040523060805234801561001457600080fd5b50608051615ece6200004d6000396000818161162e015281816116b301528181611b5201528181611bd70152611e9f0152615ece6000f3fe60806040526004361061040f5760003560e01c80638230a78411610222578063cdb82a3711610131578063e33b7de3116100b2578063f658159a11610084578063fdb408751161006c578063fdb4087514610d8e578063fde4976714610dae578063fe79222914610bc257005b8063f658159a14610d37578063f837894714610d6e57005b8063e33b7de314610cc0578063ee6e3a2314610cd6578063f2fde38b14610cf7578063f4c1494314610d1757005b8063d79779b211610103578063dd22a9c7116100eb578063dd22a9c714610bef578063dd62ed3e14610c0f578063e22aecb414610c5557005b8063d79779b214610b8b578063dbb774d814610bc257005b8063cdb82a3714610add578063ce7c2ac214610afd578063d4b5b8d614610b34578063d505accf14610b6b57005b8063a3f8eace116101bb578063bd83dc051161018d578063c4d66de811610175578063c4d66de814610a7d578063c7c0e6b114610a9d578063cbdf1b5a14610abd57005b8063bd83dc0514610a26578063c45ac05014610a5d57005b8063a3f8eace146109a6578063a457c2d7146109c6578063a8e5e4aa146109e6578063a9059cbb14610a0657005b80638b83209b116101f45780638b83209b1461091b5780638da5cb5b1461093b57806395d89b411461095a5780639852595c1461096f57005b80638230a7841461088f5780638456cb591461052f57806384b0196e146108a257806385fe7243146108ca57005b80633a98ef391161031e57806350842cf3116102b75780635c975abb1161028957806370a082311161027157806370a0823114610824578063715018a61461085a5780637ecebe001461086f57005b80635c975abb146107f75780636a23befb1461080f57005b806350842cf3146105035780635270ad6c1461078b57806352d1902d146107ab5780635b634b6a146107c057005b806348b75044116102f057806348b75044146107185780634a02099b146107385780634d950449146107585780634f1ef2861461077857005b80633a98ef39146106865780633f4ba83a1461069c578063406072a9146106b15780634594f047146106f857005b806323b872dd116103a857806334ae54e91161037a5780633659cfe6116103625780633659cfe61461062657806339509351146106465780633a7fb03d1461066657005b806334ae54e9146105c25780633644e5151461061157005b806323b872dd1461054457806324600fc3146105645780632594781814610579578063313ce567146105a657005b806319165587116103e157806319165587146104e35780631ac9a91e146105035780631dd320ea1461050f578063200d2ed21461052f57005b806306fdde0314610418578063095ea7b314610443578063150b7a021461047357806318160ddd146104c457005b3661041657005b005b34801561042457600080fd5b5061042d610dce565b60405161043a91906154cd565b60405180910390f35b34801561044f57600080fd5b5061046361045e3660046154f5565b610e60565b604051901515815260200161043a565b34801561047f57600080fd5b5061049361048e366004615602565b610e7a565b6040517fffffffff00000000000000000000000000000000000000000000000000000000909116815260200161043a565b3480156104d057600080fd5b5060cb545b60405190815260200161043a565b3480156104ef57600080fd5b506104166104fe36600461566e565b611190565b34801561041657600080fd5b34801561051b57600080fd5b5061046361052a3660046154f5565b611305565b34801561053b57600080fd5b506104166113d7565b34801561055057600080fd5b5061046361055f36600461568b565b6113e7565b34801561057057600080fd5b5061041661140b565b34801561058557600080fd5b506105996105943660046156cc565b61144d565b60405161043a91906156ee565b3480156105b257600080fd5b506040516012815260200161043a565b3480156105ce57600080fd5b506105f96105dd36600461575d565b6101cc602052600090815260409020546001600160a01b031681565b6040516001600160a01b03909116815260200161043a565b34801561061d57600080fd5b506104d5611615565b34801561063257600080fd5b5061041661064136600461566e565b611624565b34801561065257600080fd5b506104636106613660046154f5565b61179f565b34801561067257600080fd5b50610416610681366004615776565b6117de565b34801561069257600080fd5b50610162546104d5565b3480156106a857600080fd5b50610416611861565b3480156106bd57600080fd5b506104d56106cc3660046157a6565b6001600160a01b0391821660009081526101686020908152604080832093909416825291909152205490565b34801561070457600080fd5b506104166107133660046157a6565b611871565b34801561072457600080fd5b506104166107333660046157a6565b61195c565b34801561074457600080fd5b506104166107533660046157d4565b611af3565b34801561076457600080fd5b5061041661077336600461575d565b611b3a565b610416610786366004615816565b611b48565b34801561079757600080fd5b506104166107a636600461575d565b611cb0565b3480156107b757600080fd5b506104d5611e92565b3480156107cc57600080fd5b506105f96107db36600461575d565b6101cf602052600090815260409020546001600160a01b031681565b34801561080357600080fd5b5060335460ff16610463565b34801561081b57600080fd5b50610599611f57565b34801561083057600080fd5b506104d561083f36600461566e565b6001600160a01b0316600090815260c9602052604090205490565b34801561086657600080fd5b50610416611fed565b34801561087b57600080fd5b506104d561088a36600461566e565b611fff565b61041661089d3660046156cc565b61201e565b3480156108ae57600080fd5b506108b76128c9565b60405161043a9796959493929190615866565b3480156108d657600080fd5b506108ea6108e53660046154f5565b61298b565b60405161043a949392919093845260208401929092526001600160a01b031660408301521515606082015260800190565b34801561092757600080fd5b506105f961093636600461575d565b6129e3565b34801561094757600080fd5b50610194546001600160a01b03166105f9565b34801561096657600080fd5b5061042d612a14565b34801561097b57600080fd5b506104d561098a36600461566e565b6001600160a01b03166000908152610165602052604090205490565b3480156109b257600080fd5b506104d56109c136600461566e565b612a23565b3480156109d257600080fd5b506104636109e13660046154f5565b612a6d565b3480156109f257600080fd5b50610416610a0136600461568b565b612b17565b348015610a1257600080fd5b50610463610a213660046154f5565b612bf4565b348015610a3257600080fd5b506105f9610a4136600461575d565b60009081526101cc60205260409020546001600160a01b031690565b348015610a6957600080fd5b506104d5610a783660046157a6565b612c02565b348015610a8957600080fd5b50610416610a9836600461566e565b612ce0565b348015610aa957600080fd5b50610416610ab836600461575d565b612e12565b348015610ac957600080fd5b50610416610ad83660046156cc565b612e28565b348015610ae957600080fd5b50610416610af836600461566e565b6131f9565b348015610b0957600080fd5b506104d5610b1836600461566e565b6001600160a01b03166000908152610164602052604090205490565b348015610b4057600080fd5b506105f9610b4f36600461575d565b6101d0602052600090815260409020546001600160a01b031681565b348015610b7757600080fd5b50610416610b8636600461591b565b61322c565b348015610b9757600080fd5b506104d5610ba636600461566e565b6001600160a01b03166000908152610167602052604090205490565b348015610bce57600080fd5b50610be2610bdd36600461566e565b613390565b60405161043a9190615992565b348015610bfb57600080fd5b50610463610c0a3660046157a6565b613460565b348015610c1b57600080fd5b506104d5610c2a3660046157a6565b6001600160a01b03918216600090815260ca6020908152604080832093909416825291909152205490565b348015610c6157600080fd5b50610c75610c703660046154f5565b6134f1565b604080516001600160a01b0398891681526020810197909752941515948601949094529115156060850152909316608083015260a082019290925260c081019190915260e00161043a565b348015610ccc57600080fd5b50610163546104d5565b348015610ce257600080fd5b506101c6546105f9906001600160a01b031681565b348015610d0357600080fd5b50610416610d1236600461566e565b613562565b348015610d2357600080fd5b50610463610d323660046154f5565b6135ef565b348015610d4357600080fd5b506105f9610d5236600461575d565b60009081526101d060205260409020546001600160a01b031690565b348015610d7a57600080fd5b50610416610d893660046157a6565b61367f565b348015610d9a57600080fd5b50610416610da9366004615776565b61370f565b348015610dba57600080fd5b50610599610dc936600461566e565b613770565b606060cc8054610ddd90615a19565b80601f0160208091040260200160405190810160405280929190818152602001828054610e0990615a19565b8015610e565780601f10610e2b57610100808354040283529160200191610e56565b820191906000526020600020905b815481529060010190602001808311610e3957829003601f168201915b5050505050905090565b600033610e6e818585613811565b60019150505b92915050565b6000808251118015610e9757506101c8546001600160a01b031633145b15610f0257600082806020019051810190610eb29190615a4d565b9050610ebf848287613969565b7f13c6ec2a463a35f898a457814a782f1f567808293fa783a31fa4dac8868e601186868686604051610ef49493929190615a66565b60405180910390a150611165565b6101c8546001600160a01b03163303611127576101c8546040517fdc9ce7a5000000000000000000000000000000000000000000000000000000008152600481018590526000916001600160a01b03169063dc9ce7a590602401600060405180830381865afa158015610f79573d6000803e3d6000fd5b505050506040513d6000823e601f3d908101601f19168201604052610fa19190810190615b5f565b50905060008161012001519050600085905060006101cc600084600081518110610fcd57610fcd615c7e565b6020026020010151815260200190815260200160002060009054906101000a90046001600160a01b0316905060006101cc60008560018151811061101357611013615c7e565b6020026020010151815260200190815260200160002060009054906101000a90046001600160a01b0316905060006040518060400160405280846001600160a01b03166001600160a01b03168152602001836001600160a01b03166001600160a01b03168152509050600060405180604001604052808861012001516000815181106110a1576110a1615c7e565b602002602001015181526020018861012001516001815181106110c6576110c6615c7e565b602002602001015181525090506110de828683613b09565b7f13c6ec2a463a35f898a457814a782f1f567808293fa783a31fa4dac8868e60118c8c8c8c6040516111139493929190615c94565b60405180910390a150505050505050611165565b7f13c6ec2a463a35f898a457814a782f1f567808293fa783a31fa4dac8868e60118585858560405161115c9493929190615d08565b60405180910390a15b507f150b7a02000000000000000000000000000000000000000000000000000000005b949350505050565b6001600160a01b0381166000908152610164602052604090205461120a5760405162461bcd60e51b815260206004820152602660248201527f5061796d656e7453706c69747465723a206163636f756e7420686173206e6f2060448201526573686172657360d01b60648201526084015b60405180910390fd5b600061121582612a23565b90508060000361127b5760405162461bcd60e51b815260206004820152602b60248201527f5061796d656e7453706c69747465723a206163636f756e74206973206e6f742060448201526a191d59481c185e5b595b9d60aa1b6064820152608401611201565b80610163600082825461128e9190615d92565b90915550506001600160a01b0382166000908152610165602052604090208054820190556112bc8282613f28565b604080516001600160a01b0384168152602081018390527fdf20fd1e76bc69d672e4814fafb2c449bba3a5369d8359adf9e05e6fde87b05691015b60405180910390a15050565b565b6001600160a01b03821660009081526101cd60205260408120815b815481101561138e578382828154811061133c5761133c615c7e565b906000526020600020906005020160040154036113865781818154811061136557611365615c7e565b600091825260209091206002600590920201015460ff169250610e74915050565b600101611320565b5060405162461bcd60e51b815260206004820152601060248201527f506c616e6574206e6f7420666f756e64000000000000000000000000000000006044820152606401611201565b6113df614041565b61130361409c565b6000336113f58582856140f6565b611400858585614182565b506001949350505050565b611413614041565b61141b614376565b604051339081904780156108fc02916000818181858888f19350505050158015611449573d6000803e3d6000fd5b5050565b606082821161149e5760405162461bcd60e51b815260206004820152600d60248201527f496e76616c696420696e646578000000000000000000000000000000000000006044820152606401611201565b6101cb548211156114f15760405162461bcd60e51b815260206004820152601360248201527f496e646578206f7574206f6620626f756e6473000000000000000000000000006044820152606401611201565b60006114fd8484615da5565b67ffffffffffffffff81111561151557611515615521565b60405190808252806020026020018201604052801561156757816020015b6040805160808101825260008082526020808301829052928201819052606082015282526000199092019101816115335790505b509050835b8381101561160d576101cb818154811061158857611588615c7e565b600091825260209182902060408051608081018252600393909302909101805483526001810154938301939093526002909201546001600160a01b03811692820192909252600160a01b90910460ff1615156060820152826115ea8784615da5565b815181106115fa576115fa615c7e565b602090810291909101015260010161156c565b509392505050565b600061161f6143c9565b905090565b6001600160a01b037f00000000000000000000000000000000000000000000000000000000000000001630036116b15760405162461bcd60e51b815260206004820152602c60248201527f46756e6374696f6e206d7573742062652063616c6c6564207468726f7567682060448201526b19195b1959d85d1958d85b1b60a21b6064820152608401611201565b7f00000000000000000000000000000000000000000000000000000000000000006001600160a01b031661170c7f360894a13ba1a3210667c828492db98dca3e2076cc3735a920a3ca505d382bbc546001600160a01b031690565b6001600160a01b0316146117775760405162461bcd60e51b815260206004820152602c60248201527f46756e6374696f6e206d7573742062652063616c6c6564207468726f7567682060448201526b6163746976652070726f787960a01b6064820152608401611201565b611780816143d3565b6040805160008082526020820190925261179c918391906143db565b50565b33600081815260ca602090815260408083206001600160a01b0387168452909152812054909190610e6e90829086906117d9908790615d92565b613811565b6117e6614041565b6117ee614376565b60006117fa838361457b565b90506118058361460f565b6101c854604080516001600160a01b0380861682529092166020830152810184905281151560608201527f3e47efa91d5d329f50f04f0b9784b40b63d441ca130a5ddca1865d16e4d612a39060800160405180910390a1505050565b611869614041565b6113036146af565b611879614041565b611881614376565b600061188e600247615db8565b9050600061189d826002615dda565b6118a79047615da5565b6040519091506001600160a01b0385169083156108fc029084906000818181858888f193505050501580156118e0573d6000803e3d6000fd5b506040516001600160a01b0384169083156108fc029084906000818181858888f19350505050158015611917573d6000803e3d6000fd5b508015611956576040516001600160a01b0385169082156108fc029083906000818181858888f19350505050158015611954573d6000803e3d6000fd5b505b50505050565b6001600160a01b038116600090815261016460205260409020546119d15760405162461bcd60e51b815260206004820152602660248201527f5061796d656e7453706c69747465723a206163636f756e7420686173206e6f2060448201526573686172657360d01b6064820152608401611201565b60006119dd8383612c02565b905080600003611a435760405162461bcd60e51b815260206004820152602b60248201527f5061796d656e7453706c69747465723a206163636f756e74206973206e6f742060448201526a191d59481c185e5b595b9d60aa1b6064820152608401611201565b6001600160a01b0383166000908152610167602052604081208054839290611a6c908490615d92565b90915550506001600160a01b03808416600090815261016860209081526040808320938616835292905220805482019055611aa88383836146e8565b604080516001600160a01b038481168252602082018490528516917f3be5b7a71e84ed12875d241991c70855ac5817d847039e17a9d895c1ceb0f18a910160405180910390a2505050565b611afb614041565b611b03614376565b6101c9919091556101c680546001600160a01b039384166001600160a01b0319918216179091556101c88054929093169116179055565b611b42614041565b6101ce55565b6001600160a01b037f0000000000000000000000000000000000000000000000000000000000000000163003611bd55760405162461bcd60e51b815260206004820152602c60248201527f46756e6374696f6e206d7573742062652063616c6c6564207468726f7567682060448201526b19195b1959d85d1958d85b1b60a21b6064820152608401611201565b7f00000000000000000000000000000000000000000000000000000000000000006001600160a01b0316611c307f360894a13ba1a3210667c828492db98dca3e2076cc3735a920a3ca505d382bbc546001600160a01b031690565b6001600160a01b031614611c9b5760405162461bcd60e51b815260206004820152602c60248201527f46756e6374696f6e206d7573742062652063616c6c6564207468726f7567682060448201526b6163746976652070726f787960a01b6064820152608401611201565b611ca4826143d3565b611449828260016143db565b611cb8614376565b60008181526101cf602052604090205433906001600160a01b0316808214611d5a57611ce381614753565b611cec82614753565b60405162461bcd60e51b815260206004820152603260248201527f636c61696d206d7573742062652066726f6d20636c61696d616e74732061646460448201527f726573732d2d20646973616c6c6f7765642e00000000000000000000000000006064820152608401611201565b611d986040518060400160405280601781526020017f2d2d4e46542d2d20437469642c207468656e20757365720000000000000000008152506147b4565b611da183614810565b611daa82614753565b6000611db6848461457b565b905080611e2b5760405162461bcd60e51b815260206004820152602f60248201527f4661696c656420746f2073656e64204e46542e20436865636b20436c61696d6160448201527f6e7420546f6b656e49642073656e7400000000000000000000000000000000006064820152608401611201565b611e348461460f565b6101c854604080516001600160a01b0380871682529092166020830152810185905281151560608201527f3e47efa91d5d329f50f04f0b9784b40b63d441ca130a5ddca1865d16e4d612a3906080015b60405180910390a150505050565b6000306001600160a01b037f00000000000000000000000000000000000000000000000000000000000000001614611f325760405162461bcd60e51b815260206004820152603860248201527f555550535570677261646561626c653a206d757374206e6f742062652063616c60448201527f6c6564207468726f7567682064656c656761746563616c6c00000000000000006064820152608401611201565b507f360894a13ba1a3210667c828492db98dca3e2076cc3735a920a3ca505d382bbc90565b60606101cb805480602002602001604051908101604052809291908181526020016000905b82821015611fe4576000848152602090819020604080516080810182526003860290920180548352600180820154848601526002909101546001600160a01b03811692840192909252600160a01b90910460ff16151560608301529083529092019101611f7c565b50505050905090565b611ff5614041565b611303600061486e565b6001600160a01b038116600090815261012f6020526040812054610e74565b612026614376565b80820361209b5760405162461bcd60e51b815260206004820152602360248201527f4173657875616c20726570726f64756374696f6e206973206e6f7420616c6c6f60448201527f77656400000000000000000000000000000000000000000000000000000000006064820152608401611201565b60006120a6826148c1565b6101c8546040517f6352211e000000000000000000000000000000000000000000000000000000008152600481018690529192506000916001600160a01b0390911690636352211e90602401602060405180830381865afa15801561210f573d6000803e3d6000fd5b505050506040513d601f19601f820116820180604052508101906121339190615df1565b90506001600160a01b03811630146121d95760405162461bcd60e51b815260206004820152604160248201527f596f75206e65656420746f206c6973742f6465706f7369742074686520706c6160448201527f6e657420796f752061726520747279696e6720746f206272656564207769746860648201527f2e00000000000000000000000000000000000000000000000000000000000000608482015260a401611201565b60008060005b6101cb5481101561228657866101cb82815481106121ff576121ff615c7e565b9060005260206000209060030201600001540361227e576101cb818154811061222a5761222a615c7e565b906000526020600020906003020160020160009054906101000a90046001600160a01b031692506101cb818154811061226557612265615c7e565b9060005260206000209060030201600001549150612286565b6001016121df565b506001600160a01b03821633146123055760405162461bcd60e51b815260206004820152603260248201527f596f7520646f206e6f74206f776e2074686520706c616e657420796f7520617260448201527f6520747279696e6720746f2062726565642e00000000000000000000000000006064820152608401611201565b600060646101ce54866123189190615dda565b6123229190615db8565b905080856101c9546123349190615d92565b61233e9190615d92565b3410156123b35760405162461bcd60e51b815260206004820152603760248201527f496e73756666696369656e742066756e647320746f20636f766572205652462060448201527f636f737420616e6420707269636520616e64206665652e0000000000000000006064820152608401611201565b33600080805b6101cb5481101561246057896101cb82815481106123d9576123d9615c7e565b90600052602060002090600302016000015403612458576101cb818154811061240457612404615c7e565b906000526020600020906003020160020160009054906101000a90046001600160a01b031692506101cb818154811061243f5761243f615c7e565b9060005260206000209060030201600001549150612460565b6001016123b9565b506706f05b59d3b200004710156124df5760405162461bcd60e51b815260206004820152603560248201527f436f6e74726163742068617320496e73756666696369656e742062616c616e6360448201527f652c20636f6e74616374206861746368657220687100000000000000000000006064820152608401611201565b6040516000906001600160a01b038416908a156108fc02908b9084818181858888f193505050509050806125555760405162461bcd60e51b815260206004820152601460248201527f4661696c656420746f2073656e642045746865720000000000000000000000006044820152606401611201565b6101c6546101c9546040517f4e9e6a07000000000000000000000000000000000000000000000000000000008152600481018e9052602481018d9052600060448201526001600160a01b0390921691634e9e6a07919060640160206040518083038185885af11580156125cc573d6000803e3d6000fd5b50505050506040513d601f19601f820116820180604052508101906125f19190615a4d565b5060006040518060e00160405280866001600160a01b031681526020018d8152602001600015158152602001600015158152602001856001600160a01b03168152602001848152602001600081525090506101cd6000866001600160a01b03166001600160a01b0316815260200190815260200160002081908060018154018082558091505060019003906000526020600020906005020160009091909190915060008201518160000160006101000a8154816001600160a01b0302191690836001600160a01b031602179055506020820151816001015560408201518160020160006101000a81548160ff02191690831515021790555060608201518160020160016101000a81548160ff02191690831515021790555060808201518160020160026101000a8154816001600160a01b0302191690836001600160a01b0316021790555060a0820151816003015560c082015181600401555050846101cc60008e815260200190815260200160002060006101000a8154816001600160a01b0302191690836001600160a01b03160217905550858a6101c9546127959190615d92565b61279f9190615d92565b34111561286b576000336001600160a01b0316878c6101c954346127c39190615da5565b6127cd9190615da5565b6127d79190615da5565b604051600081818185875af1925050503d8060008114612813576040519150601f19603f3d011682016040523d82523d6000602084013e612818565b606091505b50509050806128695760405162461bcd60e51b815260206004820152601d60248201527f4661696c656420746f20726566756e64206578636573732045746865720000006044820152606401611201565b505b604080518d81526001600160a01b0387811660208301528183018e90528616606082015290517f8557df6951fbdd47fe9027516fc896be40f285ed55a6acac460352adbab730cd9181900360800190a1505050505050505050505050565b60006060806000806000606060fb546000801b1480156128e9575060fc54155b6129355760405162461bcd60e51b815260206004820152601560248201527f4549503731323a20556e696e697469616c697a656400000000000000000000006044820152606401611201565b61293d614962565b612945614971565b604080516000808252602082019092527f0f000000000000000000000000000000000000000000000000000000000000009b939a50919850469750309650945092509050565b6101ca60205281600052604060002081815481106129a857600080fd5b60009182526020909120600390910201805460018201546002909201549093509091506001600160a01b03811690600160a01b900460ff1684565b600061016682815481106129f9576129f9615c7e565b6000918252602090912001546001600160a01b031692915050565b606060cd8054610ddd90615a19565b600080612a306101635490565b612a3a9047615d92565b9050612a668382612a61866001600160a01b03166000908152610165602052604090205490565b614980565b9392505050565b33600081815260ca602090815260408083206001600160a01b038716845290915281205490919083811015612b0a5760405162461bcd60e51b815260206004820152602560248201527f45524332303a2064656372656173656420616c6c6f77616e63652062656c6f7760448201527f207a65726f0000000000000000000000000000000000000000000000000000006064820152608401611201565b6114008286868403613811565b6040517f095ea7b30000000000000000000000000000000000000000000000000000000081526001600160a01b0383811660048301526024820183905284169063095ea7b3906044016020604051808303816000875af1158015612b7f573d6000803e3d6000fd5b505050506040513d601f19601f82011682018060405250810190612ba39190615e0e565b612bef5760405162461bcd60e51b815260206004820152601460248201527f455243323020617070726f7665206661696c65640000000000000000000000006044820152606401611201565b505050565b600033610e6e818585614182565b6001600160a01b0382166000908152610167602052604081205481906040517f70a082310000000000000000000000000000000000000000000000000000000081523060048201526001600160a01b038616906370a0823190602401602060405180830381865afa158015612c7b573d6000803e3d6000fd5b505050506040513d601f19601f82011682018060405250810190612c9f9190615a4d565b612ca99190615d92565b6001600160a01b03808616600090815261016860209081526040808320938816835292905220549091506111889084908390614980565b600054610100900460ff1615808015612d005750600054600160ff909116105b80612d1a5750303b158015612d1a575060005460ff166001145b612d8c5760405162461bcd60e51b815260206004820152602e60248201527f496e697469616c697a61626c653a20636f6e747261637420697320616c72656160448201527f647920696e697469616c697a65640000000000000000000000000000000000006064820152608401611201565b6000805460ff191660011790558015612daf576000805461ff0019166101001790555b612db76149c0565b612dbf614a33565b612dc7614aa6565b612dd082613562565b8015611449576000805461ff0019169055604051600181527f7f26b83ff96e1f2b6a682f133852f6798a09c465da95921460cefb3847402498906020016112f7565b612e1a614041565b612e22614376565b6101c955565b612e30614376565b6101cb548210612e825760405162461bcd60e51b815260206004820152601360248201527f496e646578206f7574206f6620626f756e6473000000000000000000000000006044820152606401611201565b600033905060006101cb8481548110612e9d57612e9d615c7e565b6000918252602091829020604080516080810182526003909302909101805483526001810154938301939093526002909201546001600160a01b03811692820183905260ff600160a01b909104161515606082015291503314612eff57600080fd5b6040518060800160405280826000015181526020016000815260200182604001516001600160a01b03168152602001600015158152506101cb8581548110612f4957612f49615c7e565b60009182526020808320845160039093020191825583015160018201556040830151600290910180546060909401511515600160a01b0274ffffffffffffffffffffffffffffffffffffffffff199094166001600160a01b039092169190911792909217909155612fba848461457b565b90508061302f5760405162461bcd60e51b815260206004820152602160248201527f64654c697374696e67204661696c65642073656e64204e46542070726f63657360448201527f73000000000000000000000000000000000000000000000000000000000000006064820152608401611201565b3360009081526101ca60205260409020805461304d90600190615da5565b8154811061305d5761305d615c7e565b90600052602060002090600302016101ca6000336001600160a01b03166001600160a01b0316815260200190815260200160002086815481106130a2576130a2615c7e565b60009182526020808320845460039093020191825560018085015490830155600293840180549490920180546001600160a01b031981166001600160a01b039096169586178255925460ff600160a01b918290041615150274ffffffffffffffffffffffffffffffffffffffffff19909316909417919091179092553381526101ca9091526040902080548061313a5761313a615e29565b600082815260208082206003600019949094019384020182815560018101839055600201805474ffffffffffffffffffffffffffffffffffffffffff19169055919092558582526101d0815260409182902080546001600160a01b03191690556101c854845183516001600160a01b038881168252909216928201929092529182015281151560608201527fc6d479c3ed7081a22666733326104ccbbbaccec81902d39e12430505ee2993bd9060800160405180910390a15050505050565b613201614041565b613209614376565b6101c780546001600160a01b0319166001600160a01b0392909216919091179055565b8342111561327c5760405162461bcd60e51b815260206004820152601d60248201527f45524332305065726d69743a206578706972656420646561646c696e650000006044820152606401611201565b60007f6e71edae12b1b97f4d1f60370fef10105fa2faae0126114a169c64845d6126c98888886132ab8c614b11565b6040805160208101969096526001600160a01b0394851690860152929091166060840152608083015260a082015260c0810186905260e001604051602081830303815290604052805190602001209050600061330682614b38565b9050600061331682878787614b80565b9050896001600160a01b0316816001600160a01b0316146133795760405162461bcd60e51b815260206004820152601e60248201527f45524332305065726d69743a20696e76616c6964207369676e617475726500006044820152606401611201565b6133848a8a8a613811565b50505050505050505050565b6001600160a01b03811660009081526101cd60209081526040808320805482518185028101850190935280835260609492939192909184015b828210156134555760008481526020908190206040805160e0810182526005860290920180546001600160a01b03908116845260018083015485870152600283015460ff80821615159587019590955261010081049094161515606086015262010000909304166080840152600381015460a08401526004015460c083015290835290920191016133c9565b505050509050919050565b6101c8546040517fe985e9c50000000000000000000000000000000000000000000000000000000081526001600160a01b0384811660048301528381166024830152600092169063e985e9c590604401602060405180830381865afa1580156134cd573d6000803e3d6000fd5b505050506040513d601f19601f82011682018060405250810190612a669190615e0e565b6101cd602052816000526040600020818154811061350e57600080fd5b6000918252602090912060059091020180546001820154600283015460038401546004909401546001600160a01b03938416965091945060ff80821694610100830490911693620100009092049091169187565b61356a614041565b6001600160a01b0381166135e65760405162461bcd60e51b815260206004820152602660248201527f4f776e61626c653a206e6577206f776e657220697320746865207a65726f206160448201527f64647265737300000000000000000000000000000000000000000000000000006064820152608401611201565b61179c8161486e565b6001600160a01b03821660009081526101cd60205260408120815b815481101561138e578382828154811061362657613626615c7e565b906000526020600020906005020160040154036136775781818154811061364f5761364f615c7e565b906000526020600020906005020160020160019054906101000a900460ff1692505050610e74565b60010161360a565b613687614041565b61368f614376565b6040517fa22cb4650000000000000000000000000000000000000000000000000000000081526001600160a01b0382811660048301526001602483015283169063a22cb465906044015b600060405180830381600087803b1580156136f357600080fd5b505af1158015613707573d6000803e3d6000fd5b505050505050565b613717614041565b6101c8546040517f23b872dd0000000000000000000000000000000000000000000000000000000081523060048201526001600160a01b03838116602483015260448201859052909116906323b872dd906064016136d9565b6001600160a01b03811660009081526101ca60209081526040808320805482518185028101850190935280835260609492939192909184015b82821015613455576000848152602090819020604080516080810182526003860290920180548352600180820154848601526002909101546001600160a01b03811692840192909252600160a01b90910460ff161515606083015290835290920191016137a9565b6001600160a01b03831661388c5760405162461bcd60e51b8152602060048201526024808201527f45524332303a20617070726f76652066726f6d20746865207a65726f2061646460448201527f72657373000000000000000000000000000000000000000000000000000000006064820152608401611201565b6001600160a01b0382166139085760405162461bcd60e51b815260206004820152602260248201527f45524332303a20617070726f766520746f20746865207a65726f20616464726560448201527f73730000000000000000000000000000000000000000000000000000000000006064820152608401611201565b6001600160a01b03838116600081815260ca602090815260408083209487168084529482529182902085905590518481527f8c5be1e5ebec7d5bd14f71427d1e84f3dd0314c0f7b2291e5b200ac8c7c3b925910160405180910390a3505050565b604080516080808201835285825260208083018681526001600160a01b03868116858701818152600160608089018281526101cb8054808501825560009182528b517fe8bbfecd380c4167d6a1f763a233ec73e73f534b1970c4e1683f437ec23c1f4460039283029081019190915589517fe8bbfecd380c4167d6a1f763a233ec73e73f534b1970c4e1683f437ec23c1f4582015586517fe8bbfecd380c4167d6a1f763a233ec73e73f534b1970c4e1683f437ec23c1f4690910180548551928b1674ffffffffffffffffffffffffffffffffffffffffff1991821617600160a01b9315158402179091558884526101ca8c528e8420805480890182559085528c85208f519190940290930192835599519582019590955594516002909501805492519588169290981691909117931515909202929092179094558a84526101d085529287902080546001600160a01b03191690911790556101c854865133815291169281019290925293810187905292830185905290917fb30319a217488a3ed441c348e935a48d16091e33109bab0c79a353b9797528839101611e84565b82516020808501518351918401519091906000805b6001600160a01b03861660009081526101cd6020526040902054811015613cdf576001600160a01b0386811660009081526101cd6020526040902080549187169183908110613b6f57613b6f615c7e565b60009182526020909120600590910201600201546201000090046001600160a01b0316148015613bdc57506001600160a01b03861660009081526101cd60205260409020805485919083908110613bc857613bc8615c7e565b906000526020600020906005020160010154145b8015613c2557506001600160a01b03861660009081526101cd60205260409020805484919083908110613c1157613c11615c7e565b906000526020600020906005020160030154145b15613cd7576001600160a01b03861660009081526101cd6020526040902080546001919083908110613c5957613c59615c7e565b906000526020600020906005020160020160016101000a81548160ff021916908315150217905550876101cd6000886001600160a01b03166001600160a01b031681526020019081526020016000208281548110613cb957613cb9615c7e565b90600052602060002090600502016004018190555060019150613cdf565b600101613b1e565b5080613eab5760005b6001600160a01b03851660009081526101cd6020526040902054811015613ea9576001600160a01b0385811660009081526101cd6020526040902080549188169183908110613d3957613d39615c7e565b60009182526020909120600590910201600201546201000090046001600160a01b0316148015613da657506001600160a01b03851660009081526101cd60205260409020805484919083908110613d9257613d92615c7e565b906000526020600020906005020160010154145b8015613def57506001600160a01b03851660009081526101cd60205260409020805485919083908110613ddb57613ddb615c7e565b906000526020600020906005020160030154145b15613ea1576001600160a01b03851660009081526101cd6020526040902080546001919083908110613e2357613e23615c7e565b906000526020600020906005020160020160016101000a81548160ff021916908315150217905550876101cd6000876001600160a01b03166001600160a01b031681526020019081526020016000208281548110613e8357613e83615c7e565b90600052602060002090600502016004018190555060019150613ea9565b600101613ce8565b505b80613f1e5760405162461bcd60e51b815260206004820152602d60248201527f506c616e65742073656e7420657272616e746c792c206e6f206d61746368696e60448201527f6720636c61696d20666f756e64000000000000000000000000000000000000006064820152608401611201565b5050505050505050565b80471015613f785760405162461bcd60e51b815260206004820152601d60248201527f416464726573733a20696e73756666696369656e742062616c616e63650000006044820152606401611201565b6000826001600160a01b03168260405160006040518083038185875af1925050503d8060008114613fc5576040519150601f19603f3d011682016040523d82523d6000602084013e613fca565b606091505b5050905080612bef5760405162461bcd60e51b815260206004820152603a60248201527f416464726573733a20756e61626c6520746f2073656e642076616c75652c207260448201527f6563697069656e74206d617920686176652072657665727465640000000000006064820152608401611201565b610194546001600160a01b031633146113035760405162461bcd60e51b815260206004820181905260248201527f4f776e61626c653a2063616c6c6572206973206e6f7420746865206f776e65726044820152606401611201565b6140a4614376565b6033805460ff191660011790557f62e78cea01bee320cd4e420270b5ea74000d11b0c9f74754ebdbfc544b05a2586140d93390565b6040516001600160a01b03909116815260200160405180910390a1565b6001600160a01b03838116600090815260ca6020908152604080832093861683529290522054600019811461195657818110156141755760405162461bcd60e51b815260206004820152601d60248201527f45524332303a20696e73756666696369656e7420616c6c6f77616e63650000006044820152606401611201565b6119568484848403613811565b6001600160a01b0383166141fe5760405162461bcd60e51b815260206004820152602560248201527f45524332303a207472616e736665722066726f6d20746865207a65726f20616460448201527f64726573730000000000000000000000000000000000000000000000000000006064820152608401611201565b6001600160a01b03821661427a5760405162461bcd60e51b815260206004820152602360248201527f45524332303a207472616e7366657220746f20746865207a65726f206164647260448201527f65737300000000000000000000000000000000000000000000000000000000006064820152608401611201565b6001600160a01b038316600090815260c96020526040902054818110156143095760405162461bcd60e51b815260206004820152602660248201527f45524332303a207472616e7366657220616d6f756e742065786365656473206260448201527f616c616e636500000000000000000000000000000000000000000000000000006064820152608401611201565b6001600160a01b03808516600081815260c9602052604080822086860390559286168082529083902080548601905591517fddf252ad1be2c89b69c2b068fc378daa952ba7f163c4a11628f55a4df523b3ef906143699086815260200190565b60405180910390a3611956565b60335460ff16156113035760405162461bcd60e51b815260206004820152601060248201527f5061757361626c653a20706175736564000000000000000000000000000000006044820152606401611201565b600061161f614ba8565b61179c614041565b7f4910fdfa16fed3260ed0e7147f7cc6da11a60208b5b9406d12a635614ffd91435460ff161561440e57612bef83614c1c565b826001600160a01b03166352d1902d6040518163ffffffff1660e01b8152600401602060405180830381865afa925050508015614468575060408051601f3d908101601f1916820190925261446591810190615a4d565b60015b6144da5760405162461bcd60e51b815260206004820152602e60248201527f45524331393637557067726164653a206e657720696d706c656d656e7461746960448201527f6f6e206973206e6f7420555550530000000000000000000000000000000000006064820152608401611201565b7f360894a13ba1a3210667c828492db98dca3e2076cc3735a920a3ca505d382bbc811461456f5760405162461bcd60e51b815260206004820152602960248201527f45524331393637557067726164653a20756e737570706f727465642070726f7860448201527f6961626c655555494400000000000000000000000000000000000000000000006064820152608401611201565b50612bef838383614cda565b6101c8546040517f42842e0e0000000000000000000000000000000000000000000000000000000081523060048201526001600160a01b0383811660248301526044820185905260009216906342842e0e90606401600060405180830381600087803b1580156145ea57600080fd5b505af19250505080156145fb575060015b61460757506000610e74565b506001610e74565b60008181526101cc60209081526040808320546001600160a01b03168084526101cd909252822090915b8154811015611956578382828154811061465557614655615c7e565b906000526020600020906005020160040154036146a757600182828154811061468057614680615c7e565b60009182526020909120600590910201600201805460ff1916911515919091179055611956565b600101614639565b6146b7614cff565b6033805460ff191690557f5db9ee0a495bf2e6ff9c91a7834c1ba4fdd244a5e8aa4e537bd38aeae4b073aa336140d9565b604080516001600160a01b038416602482015260448082018490528251808303909101815260649091019091526020810180516001600160e01b03167fa9059cbb00000000000000000000000000000000000000000000000000000000179052612bef908490614d51565b6040516001600160a01b038216602482015261179c9060440160408051601f198184030181529190526020810180516001600160e01b03167f2c2ecbc200000000000000000000000000000000000000000000000000000000179052614e39565b61179c816040516024016147c891906154cd565b60408051601f198184030181529190526020810180516001600160e01b03167f41304fac00000000000000000000000000000000000000000000000000000000179052614e39565b61179c8160405160240161482691815260200190565b60408051601f198184030181529190526020810180516001600160e01b03167ff82c50f100000000000000000000000000000000000000000000000000000000179052614e39565b61019480546001600160a01b038381166001600160a01b0319831681179093556040519116919082907f8be0079c531659141344cd1fd0a4f28419497f9722a3daafe3b4186f6b6457e090600090a35050565b60006148cb614376565b60005b6101cb5481101561495b57826101cb82815481106148ee576148ee615c7e565b90600052602060002090600302016000015403614933576101cb818154811061491957614919615c7e565b906000526020600020906003020160010154915050919050565b6101cb5461494390600190615da5565b8103614953575060001992915050565b6001016148ce565b505b919050565b606060fd8054610ddd90615a19565b606060fe8054610ddd90615a19565b610162546001600160a01b03841660009081526101646020526040812054909183916149ac9086615dda565b6149b69190615db8565b6111889190615da5565b600054610100900460ff16614a2b5760405162461bcd60e51b815260206004820152602b60248201527f496e697469616c697a61626c653a20636f6e7472616374206973206e6f74206960448201526a6e697469616c697a696e6760a81b6064820152608401611201565b611303614e42565b600054610100900460ff16614a9e5760405162461bcd60e51b815260206004820152602b60248201527f496e697469616c697a61626c653a20636f6e7472616374206973206e6f74206960448201526a6e697469616c697a696e6760a81b6064820152608401611201565b611303614eb6565b600054610100900460ff166113035760405162461bcd60e51b815260206004820152602b60248201527f496e697469616c697a61626c653a20636f6e7472616374206973206e6f74206960448201526a6e697469616c697a696e6760a81b6064820152608401611201565b6001600160a01b038116600090815261012f6020526040902080546001810182559061495b565b6000610e74614b456143c9565b836040517f19010000000000000000000000000000000000000000000000000000000000008152600281019290925260228201526042902090565b6000806000614b9187878787614f2d565b91509150614b9e81614ff1565b5095945050505050565b60007f8b73c3c69bb8fe3d512ecc4cf759cc79239f7b179b0ffacaa9a75d522b39400f614bd3615156565b614bdb6151af565b60408051602081019490945283019190915260608201524660808201523060a082015260c00160405160208183030381529060405280519060200120905090565b6001600160a01b0381163b614c995760405162461bcd60e51b815260206004820152602d60248201527f455243313936373a206e657720696d706c656d656e746174696f6e206973206e60448201527f6f74206120636f6e7472616374000000000000000000000000000000000000006064820152608401611201565b7f360894a13ba1a3210667c828492db98dca3e2076cc3735a920a3ca505d382bbc80546001600160a01b0319166001600160a01b0392909216919091179055565b614ce3836151e0565b600082511180614cf05750805b15612bef576119568383615220565b60335460ff166113035760405162461bcd60e51b815260206004820152601460248201527f5061757361626c653a206e6f74207061757365640000000000000000000000006044820152606401611201565b6000614da6826040518060400160405280602081526020017f5361666545524332303a206c6f772d6c6576656c2063616c6c206661696c6564815250856001600160a01b03166152459092919063ffffffff16565b9050805160001480614dc7575080806020019051810190614dc79190615e0e565b612bef5760405162461bcd60e51b815260206004820152602a60248201527f5361666545524332303a204552433230206f7065726174696f6e20646964206e60448201527f6f742073756363656564000000000000000000000000000000000000000000006064820152608401611201565b61179c81615254565b600054610100900460ff16614ead5760405162461bcd60e51b815260206004820152602b60248201527f496e697469616c697a61626c653a20636f6e7472616374206973206e6f74206960448201526a6e697469616c697a696e6760a81b6064820152608401611201565b6113033361486e565b600054610100900460ff16614f215760405162461bcd60e51b815260206004820152602b60248201527f496e697469616c697a61626c653a20636f6e7472616374206973206e6f74206960448201526a6e697469616c697a696e6760a81b6064820152608401611201565b6033805460ff19169055565b6000807f7fffffffffffffffffffffffffffffff5d576e7357a4501ddfe92f46681b20a0831115614f645750600090506003614fe8565b6040805160008082526020820180845289905260ff881692820192909252606081018690526080810185905260019060a0016020604051602081039080840390855afa158015614fb8573d6000803e3d6000fd5b5050604051601f1901519150506001600160a01b038116614fe157600060019250925050614fe8565b9150600090505b94509492505050565b600081600481111561500557615005615e3f565b0361500d5750565b600181600481111561502157615021615e3f565b0361506e5760405162461bcd60e51b815260206004820152601860248201527f45434453413a20696e76616c6964207369676e617475726500000000000000006044820152606401611201565b600281600481111561508257615082615e3f565b036150cf5760405162461bcd60e51b815260206004820152601f60248201527f45434453413a20696e76616c6964207369676e6174757265206c656e677468006044820152606401611201565b60038160048111156150e3576150e3615e3f565b0361179c5760405162461bcd60e51b815260206004820152602260248201527f45434453413a20696e76616c6964207369676e6174757265202773272076616c60448201527f75650000000000000000000000000000000000000000000000000000000000006064820152608401611201565b600080615161614962565b805190915015615178578051602090910120919050565b60fb5480156151875792915050565b7fc5d2460186f7233c927e7db2dcc703c0e500b653ca82273b7bfad8045d85a4709250505090565b6000806151ba614971565b8051909150156151d1578051602090910120919050565b60fc5480156151875792915050565b6151e981614c1c565b6040516001600160a01b038216907fbc7cd75a20ee27fd9adebab32041f755214dbc6bffa90cc0225b39da2e5c2d3b90600090a250565b6060612a668383604051806060016040528060278152602001615e7260279139615275565b606061118884846000856152ed565b60006a636f6e736f6c652e6c6f679050600080835160208501845afa505050565b6060600080856001600160a01b0316856040516152929190615e55565b600060405180830381855af49150503d80600081146152cd576040519150601f19603f3d011682016040523d82523d6000602084013e6152d2565b606091505b50915091506152e3868383876153df565b9695505050505050565b6060824710156153655760405162461bcd60e51b815260206004820152602660248201527f416464726573733a20696e73756666696369656e742062616c616e636520666f60448201527f722063616c6c00000000000000000000000000000000000000000000000000006064820152608401611201565b600080866001600160a01b031685876040516153819190615e55565b60006040518083038185875af1925050503d80600081146153be576040519150601f19603f3d011682016040523d82523d6000602084013e6153c3565b606091505b50915091506153d4878383876153df565b979650505050505050565b6060831561544e578251600003615447576001600160a01b0385163b6154475760405162461bcd60e51b815260206004820152601d60248201527f416464726573733a2063616c6c20746f206e6f6e2d636f6e74726163740000006044820152606401611201565b5081611188565b61118883838151156154635781518083602001fd5b8060405162461bcd60e51b815260040161120191906154cd565b60005b83811015615498578181015183820152602001615480565b50506000910152565b600081518084526154b981602086016020860161547d565b601f01601f19169290920160200192915050565b602081526000612a6660208301846154a1565b6001600160a01b038116811461179c57600080fd5b6000806040838503121561550857600080fd5b8235615513816154e0565b946020939093013593505050565b634e487b7160e01b600052604160045260246000fd5b604051610160810167ffffffffffffffff8111828210171561555b5761555b615521565b60405290565b604051601f8201601f1916810167ffffffffffffffff8111828210171561558a5761558a615521565b604052919050565b600082601f8301126155a357600080fd5b813567ffffffffffffffff8111156155bd576155bd615521565b6155d0601f8201601f1916602001615561565b8181528460208386010111156155e557600080fd5b816020850160208301376000918101602001919091529392505050565b6000806000806080858703121561561857600080fd5b8435615623816154e0565b93506020850135615633816154e0565b925060408501359150606085013567ffffffffffffffff81111561565657600080fd5b61566287828801615592565b91505092959194509250565b60006020828403121561568057600080fd5b8135612a66816154e0565b6000806000606084860312156156a057600080fd5b83356156ab816154e0565b925060208401356156bb816154e0565b929592945050506040919091013590565b600080604083850312156156df57600080fd5b50508035926020909101359150565b602080825282518282018190526000919060409081850190868401855b82811015615750578151805185528681015187860152858101516001600160a01b0316868601526060908101511515908501526080909301929085019060010161570b565b5091979650505050505050565b60006020828403121561576f57600080fd5b5035919050565b6000806040838503121561578957600080fd5b82359150602083013561579b816154e0565b809150509250929050565b600080604083850312156157b957600080fd5b82356157c4816154e0565b9150602083013561579b816154e0565b6000806000606084860312156157e957600080fd5b83356157f4816154e0565b925060208401359150604084013561580b816154e0565b809150509250925092565b6000806040838503121561582957600080fd5b8235615834816154e0565b9150602083013567ffffffffffffffff81111561585057600080fd5b61585c85828601615592565b9150509250929050565b7fff00000000000000000000000000000000000000000000000000000000000000881681526000602060e060208401526158a360e084018a6154a1565b83810360408501526158b5818a6154a1565b606085018990526001600160a01b038816608086015260a0850187905284810360c08601528551808252602080880193509091019060005b81811015615909578351835292840192918401916001016158ed565b50909c9b505050505050505050505050565b600080600080600080600060e0888a03121561593657600080fd5b8735615941816154e0565b96506020880135615951816154e0565b95506040880135945060608801359350608088013560ff8116811461597557600080fd5b9699959850939692959460a0840135945060c09093013592915050565b602080825282518282018190526000919060409081850190868401855b8281101561575057815180516001600160a01b0390811686528782015188870152868201511515878701526060808301511515908701526080808301519091169086015260a0808201519086015260c0908101519085015260e090930192908501906001016159af565b600181811c90821680615a2d57607f821691505b60208210810361495b57634e487b7160e01b600052602260045260246000fd5b600060208284031215615a5f57600080fd5b5051919050565b60006001600160a01b03808716835280861660208401525083604083015260a06060830152615a9860a08301846154a1565b8281036080840152600e81527f6c697374696e6720706c616e657400000000000000000000000000000000000060208201526040810191505095945050505050565b600082601f830112615aeb57600080fd5b8151602067ffffffffffffffff821115615b0757615b07615521565b8160051b615b16828201615561565b9283528481018201928281019087851115615b3057600080fd5b83870192505b848310156153d457825182529183019190830190615b36565b8051801515811461495d57600080fd5b60008060408385031215615b7257600080fd5b825167ffffffffffffffff80821115615b8a57600080fd5b908401906101608287031215615b9f57600080fd5b615ba7615537565b825181526020830151602082015260408301516040820152606083015160608201526080830151608082015260a083015160a082015260c083015160c082015260e083015160e08201526101008084015183811115615c0557600080fd5b615c1189828701615ada565b8284015250506101208084015183811115615c2b57600080fd5b615c3789828701615ada565b8284015250506101408084015183811115615c5157600080fd5b615c5d89828701615ada565b828401525050809450505050615c7560208401615b4f565b90509250929050565b634e487b7160e01b600052603260045260246000fd5b60006001600160a01b03808716835280861660208401525083604083015260a06060830152615cc660a08301846154a1565b8281036080840152600a81527f6e657720706c616e65740000000000000000000000000000000000000000000060208201526040810191505095945050505050565b60006001600160a01b03808716835280861660208401525083604083015260a06060830152615d3a60a08301846154a1565b8281036080840152600d81527f756e63617465676f72697a65640000000000000000000000000000000000000060208201526040810191505095945050505050565b634e487b7160e01b600052601160045260246000fd5b80820180821115610e7457610e74615d7c565b81810381811115610e7457610e74615d7c565b600082615dd557634e487b7160e01b600052601260045260246000fd5b500490565b8082028115828204841417610e7457610e74615d7c565b600060208284031215615e0357600080fd5b8151612a66816154e0565b600060208284031215615e2057600080fd5b612a6682615b4f565b634e487b7160e01b600052603160045260246000fd5b634e487b7160e01b600052602160045260246000fd5b60008251615e6781846020870161547d565b919091019291505056fe416464726573733a206c6f772d6c6576656c2064656c65676174652063616c6c206661696c6564a264697066735822122099bf15704154cce5c754cf98717906cff454bb5ceaca4f08b1ffd337965a37ef64736f6c63430008180033",
  "devdoc": {
    "author": "Caecus",
    "custom:security-contact": "security@earnalliance.com",
    "details": "Contract is liable to be updated without warningHomo faber suae quisque fortunae",
    "events": {
      "AdminChanged(address,address)": {
        "details": "Emitted when the admin account has changed."
      },
      "Approval(address,address,uint256)": {
        "details": "Emitted when the allowance of a `spender` for an `owner` is set by a call to {approve}. `value` is the new allowance."
      },
      "BeaconUpgraded(address)": {
        "details": "Emitted when the beacon is changed."
      },
      "EIP712DomainChanged()": {
        "details": "MAY be emitted to signal that the domain could have changed."
      },
      "Initialized(uint8)": {
        "details": "Triggered when the contract has been initialized or reinitialized."
      },
      "Paused(address)": {
        "details": "Emitted when the pause is triggered by `account`."
      },
      "Transfer(address,address,uint256)": {
        "details": "Emitted when `value` tokens are moved from one account (`from`) to another (`to`). Note that `value` may be zero."
      },
      "Unpaused(address)": {
        "details": "Emitted when the pause is lifted by `account`."
      },
      "Upgraded(address)": {
        "details": "Emitted when the implementation is upgraded."
      }
    },
    "kind": "dev",
    "methods": {
      "DOMAIN_SEPARATOR()": {
        "details": "Returns the domain separator used in the encoding of the signature for {permit}, as defined by {EIP712}."
      },
      "allowance(address,address)": {
        "details": "See {IERC20-allowance}."
      },
      "approve(address,uint256)": {
        "details": "See {IERC20-approve}. NOTE: If `amount` is the maximum `uint256`, the allowance is not updated on `transferFrom`. This is semantically equivalent to an infinite approval. Requirements: - `spender` cannot be the zero address."
      },
      "balanceOf(address)": {
        "details": "See {IERC20-balanceOf}."
      },
      "decimals()": {
        "details": "Returns the number of decimals used to get its user representation. For example, if `decimals` equals `2`, a balance of `505` tokens should be displayed to a user as `5.05` (`505 / 10 ** 2`). Tokens usually opt for a value of 18, imitating the relationship between Ether and Wei. This is the default value returned by this function, unless it's overridden. NOTE: This information is only used for _display_ purposes: it in no way affects any of the arithmetic of the contract, including {IERC20-balanceOf} and {IERC20-transfer}."
      },
      "decreaseAllowance(address,uint256)": {
        "details": "Atomically decreases the allowance granted to `spender` by the caller. This is an alternative to {approve} that can be used as a mitigation for problems described in {IERC20-approve}. Emits an {Approval} event indicating the updated allowance. Requirements: - `spender` cannot be the zero address. - `spender` must have allowance for the caller of at least `subtractedValue`."
      },
      "eip712Domain()": {
        "details": "See {EIP-5267}. _Available since v4.9._"
      },
      "hasPlanetArrived(address,uint256)": {
        "params": {
          "owner": "The address of the owner of the claimable planet",
          "tokenId": "The token ID of the claimable planet"
        },
        "returns": {
          "arrived": "A boolean indicating if the planet has arrived"
        }
      },
      "hasPlanetBeenDelivered(address,uint256)": {
        "params": {
          "owner": "The address of the owner of the claimable planet",
          "tokenId": "The token ID of the claimable planet"
        },
        "returns": {
          "delivered": "A boolean indicating if the planet has been delivered"
        }
      },
      "increaseAllowance(address,uint256)": {
        "details": "Atomically increases the allowance granted to `spender` by the caller. This is an alternative to {approve} that can be used as a mitigation for problems described in {IERC20-approve}. Emits an {Approval} event indicating the updated allowance. Requirements: - `spender` cannot be the zero address."
      },
      "initialize(address)": {
        "details": "implements EIP712, is upgradeable, pausable, burn function is custom to save space"
      },
      "name()": {
        "details": "Returns the name of the token."
      },
      "nonces(address)": {
        "details": "Returns the current nonce for `owner`. This value must be included whenever a signature is generated for {permit}. Every successful call to {permit} increases ``owner``'s nonce by one. This prevents a signature from being used multiple times."
      },
      "onERC721Received(address,address,uint256,bytes)": {
        "details": "Whenever an {IERC721} `tokenId` token is transferred to this contract via {IERC721-safeTransferFrom} by `operator` from `from`, this function is called. It must return its Solidity selector to confirm the token transfer. If any other value is returned or the interface is not implemented by the recipient, the transfer will be reverted. The selector can be obtained in Solidity with `IERC721Receiver.onERC721Received.selector`."
      },
      "owner()": {
        "details": "Returns the address of the current owner."
      },
      "pause()": {
        "details": "can only be called by owner"
      },
      "paused()": {
        "details": "Returns true if the contract is paused, and false otherwise."
      },
      "payee(uint256)": {
        "details": "Getter for the address of the payee number `index`."
      },
      "permit(address,address,uint256,uint256,uint8,bytes32,bytes32)": {
        "details": "Sets `value` as the allowance of `spender` over ``owner``'s tokens, given ``owner``'s signed approval. IMPORTANT: The same issues {IERC20-approve} has related to transaction ordering also apply here. Emits an {Approval} event. Requirements: - `spender` cannot be the zero address. - `deadline` must be a timestamp in the future. - `v`, `r` and `s` must be a valid `secp256k1` signature from `owner` over the EIP712-formatted function arguments. - the signature must use ``owner``'s current nonce (see {nonces}). For more information on the signature format, see the https://eips.ethereum.org/EIPS/eip-2612#specification[relevant EIP section]. CAUTION: See Security Considerations above."
      },
      "proxiableUUID()": {
        "details": "Implementation of the ERC1822 {proxiableUUID} function. This returns the storage slot used by the implementation. It is used to validate the implementation's compatibility when performing an upgrade. IMPORTANT: A proxy pointing at a proxiable contract should not be considered proxiable itself, because this risks bricking a proxy that upgrades to it, by delegating to itself until out of gas. Thus it is critical that this function revert if invoked through a proxy. This is guaranteed by the `notDelegated` modifier."
      },
      "releasable(address)": {
        "details": "Getter for the amount of payee's releasable Ether."
      },
      "releasable(address,address)": {
        "details": "Getter for the amount of payee's releasable `token` tokens. `token` should be the address of an IERC20 contract."
      },
      "release(address)": {
        "details": "Triggers a transfer to `account` of the amount of Ether they are owed, according to their percentage of the total shares and their previous withdrawals."
      },
      "release(address,address)": {
        "details": "Triggers a transfer to `account` of the amount of `token` tokens they are owed, according to their percentage of the total shares and their previous withdrawals. `token` must be the address of an IERC20 contract."
      },
      "released(address)": {
        "details": "Getter for the amount of Ether already released to a payee."
      },
      "released(address,address)": {
        "details": "Getter for the amount of `token` tokens already released to a payee. `token` should be the address of an IERC20 contract."
      },
      "renounceOwnership()": {
        "details": "Leaves the contract without owner. It will not be possible to call `onlyOwner` functions. Can only be called by the current owner. NOTE: Renouncing ownership will leave the contract without an owner, thereby disabling any functionality that is only available to the owner."
      },
      "setTAdd(address)": {
        "params": {
          "newTAdd": "the address that the owner would like the new URI to be"
        }
      },
      "shares(address)": {
        "details": "Getter for the amount of shares held by an account."
      },
      "symbol()": {
        "details": "Returns the symbol of the token, usually a shorter version of the name."
      },
      "totalReleased()": {
        "details": "Getter for the total amount of Ether already released."
      },
      "totalReleased(address)": {
        "details": "Getter for the total amount of `token` already released. `token` should be the address of an IERC20 contract."
      },
      "totalShares()": {
        "details": "Getter for the total shares held by payees."
      },
      "totalSupply()": {
        "details": "See {IERC20-totalSupply}."
      },
      "transfer(address,uint256)": {
        "details": "See {IERC20-transfer}. Requirements: - `to` cannot be the zero address. - the caller must have a balance of at least `amount`."
      },
      "transferFrom(address,address,uint256)": {
        "details": "See {IERC20-transferFrom}. Emits an {Approval} event indicating the updated allowance. This is not required by the EIP. See the note at the beginning of {ERC20}. NOTE: Does not update the allowance if the current allowance is the maximum `uint256`. Requirements: - `from` and `to` cannot be the zero address. - `from` must have a balance of at least `amount`. - the caller must have allowance for ``from``'s tokens of at least `amount`."
      },
      "transferOwnership(address)": {
        "details": "Transfers ownership of the contract to a new account (`newOwner`). Can only be called by the current owner."
      },
      "unpause()": {
        "details": "can only be called by owner"
      },
      "upgradeTo(address)": {
        "custom:oz-upgrades-unsafe-allow-reachable": "delegatecall",
        "details": "Upgrade the implementation of the proxy to `newImplementation`. Calls {_authorizeUpgrade}. Emits an {Upgraded} event."
      },
      "upgradeToAndCall(address,bytes)": {
        "custom:oz-upgrades-unsafe-allow-reachable": "delegatecall",
        "details": "Upgrade the implementation of the proxy to `newImplementation`, and subsequently execute the function call encoded in `data`. Calls {_authorizeUpgrade}. Emits an {Upgraded} event."
      },
      "withdrawFunds()": {
        "details": "utility function only, shouldn't need to be used."
      }
    },
    "title": "HatcherGG",
    "version": 1
  },
  "userdoc": {
    "errors": {
      "Unauthorized()": [
        {
          "notice": "error given if user other than minter tries to use forbidden funcs"
        }
      ]
    },
    "kind": "user",
    "methods": {
      "hasPlanetArrived(address,uint256)": {
        "notice": "Checks if a specific claimable planet has arrived"
      },
      "hasPlanetBeenDelivered(address,uint256)": {
        "notice": "Checks if a specific claimable planet has been delivered"
      },
      "initialize(address)": {
        "notice": "Initialization of contract, called upon deployment"
      },
      "pause()": {
        "notice": "pause any token transfers including mints and burns"
      },
      "setAllOf(address,uint256,address)": {
        "notice": "function should be run after deployment to set up defaults"
      },
      "unpause()": {
        "notice": "unpause any token transfers including mints and burns"
      },
      "withdrawFunds()": {
        "notice": "Allow Owner to withdraw of MATIC from the contract"
      }
    },
    "notice": "This contract allows for escrowed NFT breeding",
    "version": 1
  },
  "storageLayout": {
    "storage": [
      {
        "astId": 1031,
        "contract": "contracts/HatcherV3.sol:HatcherV3",
        "label": "_initialized",
        "offset": 0,
        "slot": "0",
        "type": "t_uint8"
      },
      {
        "astId": 1034,
        "contract": "contracts/HatcherV3.sol:HatcherV3",
        "label": "_initializing",
        "offset": 1,
        "slot": "0",
        "type": "t_bool"
      },
      {
        "astId": 3176,
        "contract": "contracts/HatcherV3.sol:HatcherV3",
        "label": "__gap",
        "offset": 0,
        "slot": "1",
        "type": "t_array(t_uint256)50_storage"
      },
      {
        "astId": 1352,
        "contract": "contracts/HatcherV3.sol:HatcherV3",
        "label": "_paused",
        "offset": 0,
        "slot": "51",
        "type": "t_bool"
      },
      {
        "astId": 1457,
        "contract": "contracts/HatcherV3.sol:HatcherV3",
        "label": "__gap",
        "offset": 0,
        "slot": "52",
        "type": "t_array(t_uint256)49_storage"
      },
      {
        "astId": 1013,
        "contract": "contracts/HatcherV3.sol:HatcherV3",
        "label": "__gap",
        "offset": 0,
        "slot": "101",
        "type": "t_array(t_uint256)50_storage"
      },
      {
        "astId": 1329,
        "contract": "contracts/HatcherV3.sol:HatcherV3",
        "label": "__gap",
        "offset": 0,
        "slot": "151",
        "type": "t_array(t_uint256)50_storage"
      },
      {
        "astId": 1478,
        "contract": "contracts/HatcherV3.sol:HatcherV3",
        "label": "_balances",
        "offset": 0,
        "slot": "201",
        "type": "t_mapping(t_address,t_uint256)"
      },
      {
        "astId": 1484,
        "contract": "contracts/HatcherV3.sol:HatcherV3",
        "label": "_allowances",
        "offset": 0,
        "slot": "202",
        "type": "t_mapping(t_address,t_mapping(t_address,t_uint256))"
      },
      {
        "astId": 1486,
        "contract": "contracts/HatcherV3.sol:HatcherV3",
        "label": "_totalSupply",
        "offset": 0,
        "slot": "203",
        "type": "t_uint256"
      },
      {
        "astId": 1488,
        "contract": "contracts/HatcherV3.sol:HatcherV3",
        "label": "_name",
        "offset": 0,
        "slot": "204",
        "type": "t_string_storage"
      },
      {
        "astId": 1490,
        "contract": "contracts/HatcherV3.sol:HatcherV3",
        "label": "_symbol",
        "offset": 0,
        "slot": "205",
        "type": "t_string_storage"
      },
      {
        "astId": 2070,
        "contract": "contracts/HatcherV3.sol:HatcherV3",
        "label": "__gap",
        "offset": 0,
        "slot": "206",
        "type": "t_array(t_uint256)45_storage"
      },
      {
        "astId": 3975,
        "contract": "contracts/HatcherV3.sol:HatcherV3",
        "label": "_hashedName",
        "offset": 0,
        "slot": "251",
        "type": "t_bytes32"
      },
      {
        "astId": 3978,
        "contract": "contracts/HatcherV3.sol:HatcherV3",
        "label": "_hashedVersion",
        "offset": 0,
        "slot": "252",
        "type": "t_bytes32"
      },
      {
        "astId": 3980,
        "contract": "contracts/HatcherV3.sol:HatcherV3",
        "label": "_name",
        "offset": 0,
        "slot": "253",
        "type": "t_string_storage"
      },
      {
        "astId": 3982,
        "contract": "contracts/HatcherV3.sol:HatcherV3",
        "label": "_version",
        "offset": 0,
        "slot": "254",
        "type": "t_string_storage"
      },
      {
        "astId": 4240,
        "contract": "contracts/HatcherV3.sol:HatcherV3",
        "label": "__gap",
        "offset": 0,
        "slot": "255",
        "type": "t_array(t_uint256)48_storage"
      },
      {
        "astId": 2176,
        "contract": "contracts/HatcherV3.sol:HatcherV3",
        "label": "_nonces",
        "offset": 0,
        "slot": "303",
        "type": "t_mapping(t_address,t_struct(Counter)3183_storage)"
      },
      {
        "astId": 2184,
        "contract": "contracts/HatcherV3.sol:HatcherV3",
        "label": "_PERMIT_TYPEHASH_DEPRECATED_SLOT",
        "offset": 0,
        "slot": "304",
        "type": "t_bytes32"
      },
      {
        "astId": 2340,
        "contract": "contracts/HatcherV3.sol:HatcherV3",
        "label": "__gap",
        "offset": 0,
        "slot": "305",
        "type": "t_array(t_uint256)49_storage"
      },
      {
        "astId": 173,
        "contract": "contracts/HatcherV3.sol:HatcherV3",
        "label": "_totalShares",
        "offset": 0,
        "slot": "354",
        "type": "t_uint256"
      },
      {
        "astId": 175,
        "contract": "contracts/HatcherV3.sol:HatcherV3",
        "label": "_totalReleased",
        "offset": 0,
        "slot": "355",
        "type": "t_uint256"
      },
      {
        "astId": 179,
        "contract": "contracts/HatcherV3.sol:HatcherV3",
        "label": "_shares",
        "offset": 0,
        "slot": "356",
        "type": "t_mapping(t_address,t_uint256)"
      },
      {
        "astId": 183,
        "contract": "contracts/HatcherV3.sol:HatcherV3",
        "label": "_released",
        "offset": 0,
        "slot": "357",
        "type": "t_mapping(t_address,t_uint256)"
      },
      {
        "astId": 186,
        "contract": "contracts/HatcherV3.sol:HatcherV3",
        "label": "_payees",
        "offset": 0,
        "slot": "358",
        "type": "t_array(t_address)dyn_storage"
      },
      {
        "astId": 191,
        "contract": "contracts/HatcherV3.sol:HatcherV3",
        "label": "_erc20TotalReleased",
        "offset": 0,
        "slot": "359",
        "type": "t_mapping(t_contract(IERC20Upgradeable)2149,t_uint256)"
      },
      {
        "astId": 198,
        "contract": "contracts/HatcherV3.sol:HatcherV3",
        "label": "_erc20Released",
        "offset": 0,
        "slot": "360",
        "type": "t_mapping(t_contract(IERC20Upgradeable)2149,t_mapping(t_address,t_uint256))"
      },
      {
        "astId": 632,
        "contract": "contracts/HatcherV3.sol:HatcherV3",
        "label": "__gap",
        "offset": 0,
        "slot": "361",
        "type": "t_array(t_uint256)43_storage"
      },
      {
        "astId": 11,
        "contract": "contracts/HatcherV3.sol:HatcherV3",
        "label": "_owner",
        "offset": 0,
        "slot": "404",
        "type": "t_address"
      },
      {
        "astId": 131,
        "contract": "contracts/HatcherV3.sol:HatcherV3",
        "label": "__gap",
        "offset": 0,
        "slot": "405",
        "type": "t_array(t_uint256)49_storage"
      },
      {
        "astId": 5861,
        "contract": "contracts/HatcherV3.sol:HatcherV3",
        "label": "breedContract",
        "offset": 0,
        "slot": "454",
        "type": "t_contract(IBreedContract)5736"
      },
      {
        "astId": 5863,
        "contract": "contracts/HatcherV3.sol:HatcherV3",
        "label": "treasuryAddr",
        "offset": 0,
        "slot": "455",
        "type": "t_address_payable"
      },
      {
        "astId": 5866,
        "contract": "contracts/HatcherV3.sol:HatcherV3",
        "label": "nftPlanetContract",
        "offset": 0,
        "slot": "456",
        "type": "t_contract(IERC721)5724"
      },
      {
        "astId": 5868,
        "contract": "contracts/HatcherV3.sol:HatcherV3",
        "label": "vrfValue",
        "offset": 0,
        "slot": "457",
        "type": "t_uint256"
      },
      {
        "astId": 5874,
        "contract": "contracts/HatcherV3.sol:HatcherV3",
        "label": "userToListedPlanets",
        "offset": 0,
        "slot": "458",
        "type": "t_mapping(t_address,t_array(t_struct(ListedPlanet)5745_storage)dyn_storage)"
      },
      {
        "astId": 5878,
        "contract": "contracts/HatcherV3.sol:HatcherV3",
        "label": "planetsListed",
        "offset": 0,
        "slot": "459",
        "type": "t_array(t_struct(ListedPlanet)5745_storage)dyn_storage"
      },
      {
        "astId": 5885,
        "contract": "contracts/HatcherV3.sol:HatcherV3",
        "label": "claimantTokenIdToOwnerAddress",
        "offset": 0,
        "slot": "460",
        "type": "t_mapping(t_uint256,t_address)"
      },
      {
        "astId": 5891,
        "contract": "contracts/HatcherV3.sol:HatcherV3",
        "label": "claimablePlanets",
        "offset": 0,
        "slot": "461",
        "type": "t_mapping(t_address,t_array(t_struct(ClaimablePlanet)5760_storage)dyn_storage)"
      },
      {
        "astId": 5893,
        "contract": "contracts/HatcherV3.sol:HatcherV3",
        "label": "mktFee",
        "offset": 0,
        "slot": "462",
        "type": "t_uint256"
      },
      {
        "astId": 5897,
        "contract": "contracts/HatcherV3.sol:HatcherV3",
        "label": "tokenIdClaimableToOwnerAddr",
        "offset": 0,
        "slot": "463",
        "type": "t_mapping(t_uint256,t_address)"
      },
      {
        "astId": 5901,
        "contract": "contracts/HatcherV3.sol:HatcherV3",
        "label": "listedTokenIdToOwnerAddr",
        "offset": 0,
        "slot": "464",
        "type": "t_mapping(t_uint256,t_address)"
      }
    ],
    "types": {
      "t_address": {
        "encoding": "inplace",
        "label": "address",
        "numberOfBytes": "20"
      },
      "t_address_payable": {
        "encoding": "inplace",
        "label": "address payable",
        "numberOfBytes": "20"
      },
      "t_array(t_address)dyn_storage": {
        "base": "t_address",
        "encoding": "dynamic_array",
        "label": "address[]",
        "numberOfBytes": "32"
      },
      "t_array(t_struct(ClaimablePlanet)5760_storage)dyn_storage": {
        "base": "t_struct(ClaimablePlanet)5760_storage",
        "encoding": "dynamic_array",
        "label": "struct ClaimablePlanet[]",
        "numberOfBytes": "32"
      },
      "t_array(t_struct(ListedPlanet)5745_storage)dyn_storage": {
        "base": "t_struct(ListedPlanet)5745_storage",
        "encoding": "dynamic_array",
        "label": "struct ListedPlanet[]",
        "numberOfBytes": "32"
      },
      "t_array(t_uint256)43_storage": {
        "base": "t_uint256",
        "encoding": "inplace",
        "label": "uint256[43]",
        "numberOfBytes": "1376"
      },
      "t_array(t_uint256)45_storage": {
        "base": "t_uint256",
        "encoding": "inplace",
        "label": "uint256[45]",
        "numberOfBytes": "1440"
      },
      "t_array(t_uint256)48_storage": {
        "base": "t_uint256",
        "encoding": "inplace",
        "label": "uint256[48]",
        "numberOfBytes": "1536"
      },
      "t_array(t_uint256)49_storage": {
        "base": "t_uint256",
        "encoding": "inplace",
        "label": "uint256[49]",
        "numberOfBytes": "1568"
      },
      "t_array(t_uint256)50_storage": {
        "base": "t_uint256",
        "encoding": "inplace",
        "label": "uint256[50]",
        "numberOfBytes": "1600"
      },
      "t_bool": {
        "encoding": "inplace",
        "label": "bool",
        "numberOfBytes": "1"
      },
      "t_bytes32": {
        "encoding": "inplace",
        "label": "bytes32",
        "numberOfBytes": "32"
      },
      "t_contract(IBreedContract)5736": {
        "encoding": "inplace",
        "label": "contract IBreedContract",
        "numberOfBytes": "20"
      },
      "t_contract(IERC20Upgradeable)2149": {
        "encoding": "inplace",
        "label": "contract IERC20Upgradeable",
        "numberOfBytes": "20"
      },
      "t_contract(IERC721)5724": {
        "encoding": "inplace",
        "label": "contract IERC721",
        "numberOfBytes": "20"
      },
      "t_mapping(t_address,t_array(t_struct(ClaimablePlanet)5760_storage)dyn_storage)": {
        "encoding": "mapping",
        "key": "t_address",
        "label": "mapping(address => struct ClaimablePlanet[])",
        "numberOfBytes": "32",
        "value": "t_array(t_struct(ClaimablePlanet)5760_storage)dyn_storage"
      },
      "t_mapping(t_address,t_array(t_struct(ListedPlanet)5745_storage)dyn_storage)": {
        "encoding": "mapping",
        "key": "t_address",
        "label": "mapping(address => struct ListedPlanet[])",
        "numberOfBytes": "32",
        "value": "t_array(t_struct(ListedPlanet)5745_storage)dyn_storage"
      },
      "t_mapping(t_address,t_mapping(t_address,t_uint256))": {
        "encoding": "mapping",
        "key": "t_address",
        "label": "mapping(address => mapping(address => uint256))",
        "numberOfBytes": "32",
        "value": "t_mapping(t_address,t_uint256)"
      },
      "t_mapping(t_address,t_struct(Counter)3183_storage)": {
        "encoding": "mapping",
        "key": "t_address",
        "label": "mapping(address => struct CountersUpgradeable.Counter)",
        "numberOfBytes": "32",
        "value": "t_struct(Counter)3183_storage"
      },
      "t_mapping(t_address,t_uint256)": {
        "encoding": "mapping",
        "key": "t_address",
        "label": "mapping(address => uint256)",
        "numberOfBytes": "32",
        "value": "t_uint256"
      },
      "t_mapping(t_contract(IERC20Upgradeable)2149,t_mapping(t_address,t_uint256))": {
        "encoding": "mapping",
        "key": "t_contract(IERC20Upgradeable)2149",
        "label": "mapping(contract IERC20Upgradeable => mapping(address => uint256))",
        "numberOfBytes": "32",
        "value": "t_mapping(t_address,t_uint256)"
      },
      "t_mapping(t_contract(IERC20Upgradeable)2149,t_uint256)": {
        "encoding": "mapping",
        "key": "t_contract(IERC20Upgradeable)2149",
        "label": "mapping(contract IERC20Upgradeable => uint256)",
        "numberOfBytes": "32",
        "value": "t_uint256"
      },
      "t_mapping(t_uint256,t_address)": {
        "encoding": "mapping",
        "key": "t_uint256",
        "label": "mapping(uint256 => address)",
        "numberOfBytes": "32",
        "value": "t_address"
      },
      "t_string_storage": {
        "encoding": "bytes",
        "label": "string",
        "numberOfBytes": "32"
      },
      "t_struct(ClaimablePlanet)5760_storage": {
        "encoding": "inplace",
        "label": "struct ClaimablePlanet",
        "members": [
          {
            "astId": 5747,
            "contract": "contracts/HatcherV3.sol:HatcherV3",
            "label": "ownerParentAddress",
            "offset": 0,
            "slot": "0",
            "type": "t_address"
          },
          {
            "astId": 5749,
            "contract": "contracts/HatcherV3.sol:HatcherV3",
            "label": "ownerTokenId",
            "offset": 0,
            "slot": "1",
            "type": "t_uint256"
          },
          {
            "astId": 5751,
            "contract": "contracts/HatcherV3.sol:HatcherV3",
            "label": "delivered",
            "offset": 0,
            "slot": "2",
            "type": "t_bool"
          },
          {
            "astId": 5753,
            "contract": "contracts/HatcherV3.sol:HatcherV3",
            "label": "arrived",
            "offset": 1,
            "slot": "2",
            "type": "t_bool"
          },
          {
            "astId": 5755,
            "contract": "contracts/HatcherV3.sol:HatcherV3",
            "label": "otherParent",
            "offset": 2,
            "slot": "2",
            "type": "t_address"
          },
          {
            "astId": 5757,
            "contract": "contracts/HatcherV3.sol:HatcherV3",
            "label": "otherTokenId",
            "offset": 0,
            "slot": "3",
            "type": "t_uint256"
          },
          {
            "astId": 5759,
            "contract": "contracts/HatcherV3.sol:HatcherV3",
            "label": "claimsTokenId",
            "offset": 0,
            "slot": "4",
            "type": "t_uint256"
          }
        ],
        "numberOfBytes": "160"
      },
      "t_struct(Counter)3183_storage": {
        "encoding": "inplace",
        "label": "struct CountersUpgradeable.Counter",
        "members": [
          {
            "astId": 3182,
            "contract": "contracts/HatcherV3.sol:HatcherV3",
            "label": "_value",
            "offset": 0,
            "slot": "0",
            "type": "t_uint256"
          }
        ],
        "numberOfBytes": "32"
      },
      "t_struct(ListedPlanet)5745_storage": {
        "encoding": "inplace",
        "label": "struct ListedPlanet",
        "members": [
          {
            "astId": 5738,
            "contract": "contracts/HatcherV3.sol:HatcherV3",
            "label": "tokenId",
            "offset": 0,
            "slot": "0",
            "type": "t_uint256"
          },
          {
            "astId": 5740,
            "contract": "contracts/HatcherV3.sol:HatcherV3",
            "label": "price",
            "offset": 0,
            "slot": "1",
            "type": "t_uint256"
          },
          {
            "astId": 5742,
            "contract": "contracts/HatcherV3.sol:HatcherV3",
            "label": "ownerAddress",
            "offset": 0,
            "slot": "2",
            "type": "t_address"
          },
          {
            "astId": 5744,
            "contract": "contracts/HatcherV3.sol:HatcherV3",
            "label": "active",
            "offset": 20,
            "slot": "2",
            "type": "t_bool"
          }
        ],
        "numberOfBytes": "96"
      },
      "t_uint256": {
        "encoding": "inplace",
        "label": "uint256",
        "numberOfBytes": "32"
      },
      "t_uint8": {
        "encoding": "inplace",
        "label": "uint8",
        "numberOfBytes": "1"
      }
    }
  }
}