{
  "address": "0xc89d59A51247cF0859A05319f5dabdb4cD7aCB3d",
  "abi": [
    {
      "inputs": [],
      "name": "Unauthorized",
      "type": "error"
    },
    {
      "anonymous": false,
      "inputs": [
        {
          "indexed": false,
          "internalType": "address",
          "name": "previousAdmin",
          "type": "address"
        },
        {
          "indexed": false,
          "internalType": "address",
          "name": "newAdmin",
          "type": "address"
        }
      ],
      "name": "AdminChanged",
      "type": "event"
    },
    {
      "anonymous": false,
      "inputs": [
        {
          "indexed": true,
          "internalType": "address",
          "name": "owner",
          "type": "address"
        },
        {
          "indexed": true,
          "internalType": "address",
          "name": "spender",
          "type": "address"
        },
        {
          "indexed": false,
          "internalType": "uint256",
          "name": "value",
          "type": "uint256"
        }
      ],
      "name": "Approval",
      "type": "event"
    },
    {
      "anonymous": false,
      "inputs": [
        {
          "indexed": true,
          "internalType": "address",
          "name": "beacon",
          "type": "address"
        }
      ],
      "name": "BeaconUpgraded",
      "type": "event"
    },
    {
      "anonymous": false,
      "inputs": [
        {
          "indexed": false,
          "internalType": "address",
          "name": "sentToUser",
          "type": "address"
        },
        {
          "indexed": false,
          "internalType": "address",
          "name": "token",
          "type": "address"
        },
        {
          "indexed": false,
          "internalType": "uint256",
          "name": "tokenId",
          "type": "uint256"
        }
      ],
      "name": "DeListedAPlanet",
      "type": "event"
    },
    {
      "anonymous": false,
      "inputs": [],
      "name": "EIP712DomainChanged",
      "type": "event"
    },
    {
      "anonymous": false,
      "inputs": [
        {
          "indexed": true,
          "internalType": "contract IERC20Upgradeable",
          "name": "token",
          "type": "address"
        },
        {
          "indexed": false,
          "internalType": "address",
          "name": "to",
          "type": "address"
        },
        {
          "indexed": false,
          "internalType": "uint256",
          "name": "amount",
          "type": "uint256"
        }
      ],
      "name": "ERC20PaymentReleased",
      "type": "event"
    },
    {
      "anonymous": false,
      "inputs": [
        {
          "indexed": false,
          "internalType": "uint8",
          "name": "version",
          "type": "uint8"
        }
      ],
      "name": "Initialized",
      "type": "event"
    },
    {
      "anonymous": false,
      "inputs": [
        {
          "indexed": false,
          "internalType": "address",
          "name": "sentFromUser",
          "type": "address"
        },
        {
          "indexed": false,
          "internalType": "address",
          "name": "token",
          "type": "address"
        },
        {
          "indexed": false,
          "internalType": "uint256",
          "name": "tokenId",
          "type": "uint256"
        },
        {
          "indexed": false,
          "internalType": "uint256",
          "name": "price",
          "type": "uint256"
        }
      ],
      "name": "ListedAPlanet",
      "type": "event"
    },
    {
      "anonymous": false,
      "inputs": [
        {
          "indexed": false,
          "internalType": "address",
          "name": "operator",
          "type": "address"
        },
        {
          "indexed": false,
          "internalType": "address",
          "name": "from",
          "type": "address"
        },
        {
          "indexed": false,
          "internalType": "uint256",
          "name": "tokenId",
          "type": "uint256"
        },
        {
          "indexed": false,
          "internalType": "bytes",
          "name": "data",
          "type": "bytes"
        },
        {
          "indexed": false,
          "internalType": "string",
          "name": "typeOfReceival",
          "type": "string"
        }
      ],
      "name": "NftReceived",
      "type": "event"
    },
    {
      "anonymous": false,
      "inputs": [
        {
          "indexed": true,
          "internalType": "address",
          "name": "previousOwner",
          "type": "address"
        },
        {
          "indexed": true,
          "internalType": "address",
          "name": "newOwner",
          "type": "address"
        }
      ],
      "name": "OwnershipTransferred",
      "type": "event"
    },
    {
      "anonymous": false,
      "inputs": [
        {
          "indexed": false,
          "internalType": "address",
          "name": "account",
          "type": "address"
        }
      ],
      "name": "Paused",
      "type": "event"
    },
    {
      "anonymous": false,
      "inputs": [
        {
          "indexed": false,
          "internalType": "address",
          "name": "account",
          "type": "address"
        },
        {
          "indexed": false,
          "internalType": "uint256",
          "name": "shares",
          "type": "uint256"
        }
      ],
      "name": "PayeeAdded",
      "type": "event"
    },
    {
      "anonymous": false,
      "inputs": [
        {
          "indexed": false,
          "internalType": "address",
          "name": "from",
          "type": "address"
        },
        {
          "indexed": false,
          "internalType": "uint256",
          "name": "amount",
          "type": "uint256"
        }
      ],
      "name": "PaymentReceived",
      "type": "event"
    },
    {
      "anonymous": false,
      "inputs": [
        {
          "indexed": false,
          "internalType": "address",
          "name": "to",
          "type": "address"
        },
        {
          "indexed": false,
          "internalType": "uint256",
          "name": "amount",
          "type": "uint256"
        }
      ],
      "name": "PaymentReleased",
      "type": "event"
    },
    {
      "anonymous": false,
      "inputs": [
        {
          "indexed": false,
          "internalType": "uint256",
          "name": "planetAsking",
          "type": "uint256"
        },
        {
          "indexed": false,
          "internalType": "address",
          "name": "askingUser",
          "type": "address"
        },
        {
          "indexed": false,
          "internalType": "uint256",
          "name": "planetJoining",
          "type": "uint256"
        },
        {
          "indexed": false,
          "internalType": "address",
          "name": "joiningUser",
          "type": "address"
        }
      ],
      "name": "PlanetsConjoining",
      "type": "event"
    },
    {
      "anonymous": false,
      "inputs": [
        {
          "indexed": true,
          "internalType": "address",
          "name": "from",
          "type": "address"
        },
        {
          "indexed": true,
          "internalType": "address",
          "name": "to",
          "type": "address"
        },
        {
          "indexed": false,
          "internalType": "uint256",
          "name": "value",
          "type": "uint256"
        }
      ],
      "name": "Transfer",
      "type": "event"
    },
    {
      "anonymous": false,
      "inputs": [
        {
          "indexed": false,
          "internalType": "address",
          "name": "account",
          "type": "address"
        }
      ],
      "name": "Unpaused",
      "type": "event"
    },
    {
      "anonymous": false,
      "inputs": [
        {
          "indexed": true,
          "internalType": "address",
          "name": "implementation",
          "type": "address"
        }
      ],
      "name": "Upgraded",
      "type": "event"
    },
    {
      "inputs": [],
      "name": "DOMAIN_SEPARATOR",
      "outputs": [
        {
          "internalType": "bytes32",
          "name": "",
          "type": "bytes32"
        }
      ],
      "stateMutability": "view",
      "type": "function"
    },
    {
      "inputs": [
        {
          "internalType": "address",
          "name": "owner",
          "type": "address"
        },
        {
          "internalType": "address",
          "name": "spender",
          "type": "address"
        }
      ],
      "name": "allowance",
      "outputs": [
        {
          "internalType": "uint256",
          "name": "",
          "type": "uint256"
        }
      ],
      "stateMutability": "view",
      "type": "function"
    },
    {
      "inputs": [
        {
          "internalType": "address",
          "name": "spender",
          "type": "address"
        },
        {
          "internalType": "uint256",
          "name": "amount",
          "type": "uint256"
        }
      ],
      "name": "approve",
      "outputs": [
        {
          "internalType": "bool",
          "name": "",
          "type": "bool"
        }
      ],
      "stateMutability": "nonpayable",
      "type": "function"
    },
    {
      "inputs": [
        {
          "internalType": "address",
          "name": "operator",
          "type": "address"
        },
        {
          "internalType": "bool",
          "name": "approved",
          "type": "bool"
        }
      ],
      "name": "approveForAllAsOwner",
      "outputs": [],
      "stateMutability": "nonpayable",
      "type": "function"
    },
    {
      "inputs": [
        {
          "internalType": "address",
          "name": "account",
          "type": "address"
        }
      ],
      "name": "balanceOf",
      "outputs": [
        {
          "internalType": "uint256",
          "name": "",
          "type": "uint256"
        }
      ],
      "stateMutability": "view",
      "type": "function"
    },
    {
      "inputs": [
        {
          "internalType": "uint256",
          "name": "newVRF",
          "type": "uint256"
        }
      ],
      "name": "changeVRFValue",
      "outputs": [],
      "stateMutability": "nonpayable",
      "type": "function"
    },
    {
      "inputs": [
        {
          "internalType": "address",
          "name": "",
          "type": "address"
        },
        {
          "internalType": "uint256",
          "name": "",
          "type": "uint256"
        }
      ],
      "name": "claimablePlanets",
      "outputs": [
        {
          "internalType": "address",
          "name": "ownerParentAddress",
          "type": "address"
        },
        {
          "internalType": "uint256",
          "name": "ownerTokenId",
          "type": "uint256"
        },
        {
          "internalType": "bool",
          "name": "delivered",
          "type": "bool"
        },
        {
          "internalType": "address",
          "name": "otherParent",
          "type": "address"
        },
        {
          "internalType": "uint256",
          "name": "otherTokenId",
          "type": "uint256"
        }
      ],
      "stateMutability": "view",
      "type": "function"
    },
    {
      "inputs": [
        {
          "internalType": "uint256",
          "name": "",
          "type": "uint256"
        }
      ],
      "name": "claimableTokenIdToOwnerAddress",
      "outputs": [
        {
          "internalType": "address",
          "name": "",
          "type": "address"
        }
      ],
      "stateMutability": "view",
      "type": "function"
    },
    {
      "inputs": [
        {
          "internalType": "uint256",
          "name": "yourPlanet",
          "type": "uint256"
        },
        {
          "internalType": "uint256",
          "name": "withListedPlanet",
          "type": "uint256"
        }
      ],
      "name": "conjunct",
      "outputs": [],
      "stateMutability": "payable",
      "type": "function"
    },
    {
      "inputs": [
        {
          "internalType": "uint256",
          "name": "idIndex",
          "type": "uint256"
        },
        {
          "internalType": "uint256",
          "name": "tokenId",
          "type": "uint256"
        }
      ],
      "name": "deList",
      "outputs": [],
      "stateMutability": "nonpayable",
      "type": "function"
    },
    {
      "inputs": [],
      "name": "deListAllYourPlanets",
      "outputs": [],
      "stateMutability": "nonpayable",
      "type": "function"
    },
    {
      "inputs": [],
      "name": "decimals",
      "outputs": [
        {
          "internalType": "uint8",
          "name": "",
          "type": "uint8"
        }
      ],
      "stateMutability": "view",
      "type": "function"
    },
    {
      "inputs": [
        {
          "internalType": "address",
          "name": "spender",
          "type": "address"
        },
        {
          "internalType": "uint256",
          "name": "subtractedValue",
          "type": "uint256"
        }
      ],
      "name": "decreaseAllowance",
      "outputs": [
        {
          "internalType": "bool",
          "name": "",
          "type": "bool"
        }
      ],
      "stateMutability": "nonpayable",
      "type": "function"
    },
    {
      "inputs": [],
      "name": "eip712Domain",
      "outputs": [
        {
          "internalType": "bytes1",
          "name": "fields",
          "type": "bytes1"
        },
        {
          "internalType": "string",
          "name": "name",
          "type": "string"
        },
        {
          "internalType": "string",
          "name": "version",
          "type": "string"
        },
        {
          "internalType": "uint256",
          "name": "chainId",
          "type": "uint256"
        },
        {
          "internalType": "address",
          "name": "verifyingContract",
          "type": "address"
        },
        {
          "internalType": "bytes32",
          "name": "salt",
          "type": "bytes32"
        },
        {
          "internalType": "uint256[]",
          "name": "extensions",
          "type": "uint256[]"
        }
      ],
      "stateMutability": "view",
      "type": "function"
    },
    {
      "inputs": [],
      "name": "getAllPlanets",
      "outputs": [
        {
          "components": [
            {
              "internalType": "uint256",
              "name": "planet",
              "type": "uint256"
            },
            {
              "internalType": "uint256",
              "name": "price",
              "type": "uint256"
            },
            {
              "internalType": "address",
              "name": "ownerAddress",
              "type": "address"
            }
          ],
          "internalType": "struct ListedPlanet[]",
          "name": "",
          "type": "tuple[]"
        }
      ],
      "stateMutability": "view",
      "type": "function"
    },
    {
      "inputs": [
        {
          "internalType": "uint256",
          "name": "startIndex",
          "type": "uint256"
        },
        {
          "internalType": "uint256",
          "name": "endIndex",
          "type": "uint256"
        }
      ],
      "name": "getPlanetsPaginated",
      "outputs": [
        {
          "components": [
            {
              "internalType": "uint256",
              "name": "planet",
              "type": "uint256"
            },
            {
              "internalType": "uint256",
              "name": "price",
              "type": "uint256"
            },
            {
              "internalType": "address",
              "name": "ownerAddress",
              "type": "address"
            }
          ],
          "internalType": "struct ListedPlanet[]",
          "name": "",
          "type": "tuple[]"
        }
      ],
      "stateMutability": "view",
      "type": "function"
    },
    {
      "inputs": [
        {
          "internalType": "address",
          "name": "spender",
          "type": "address"
        },
        {
          "internalType": "uint256",
          "name": "addedValue",
          "type": "uint256"
        }
      ],
      "name": "increaseAllowance",
      "outputs": [
        {
          "internalType": "bool",
          "name": "",
          "type": "bool"
        }
      ],
      "stateMutability": "nonpayable",
      "type": "function"
    },
    {
      "inputs": [],
      "name": "initialize",
      "outputs": [],
      "stateMutability": "nonpayable",
      "type": "function"
    },
    {
      "inputs": [],
      "name": "listAllYourPlanets",
      "outputs": [],
      "stateMutability": "nonpayable",
      "type": "function"
    },
    {
      "inputs": [],
      "name": "name",
      "outputs": [
        {
          "internalType": "string",
          "name": "",
          "type": "string"
        }
      ],
      "stateMutability": "view",
      "type": "function"
    },
    {
      "inputs": [
        {
          "internalType": "address",
          "name": "owner",
          "type": "address"
        }
      ],
      "name": "nonces",
      "outputs": [
        {
          "internalType": "uint256",
          "name": "",
          "type": "uint256"
        }
      ],
      "stateMutability": "view",
      "type": "function"
    },
    {
      "inputs": [
        {
          "internalType": "address",
          "name": "operator",
          "type": "address"
        },
        {
          "internalType": "address",
          "name": "from",
          "type": "address"
        },
        {
          "internalType": "uint256",
          "name": "tokenId",
          "type": "uint256"
        },
        {
          "internalType": "bytes",
          "name": "data",
          "type": "bytes"
        }
      ],
      "name": "onERC721Received",
      "outputs": [
        {
          "internalType": "bytes4",
          "name": "",
          "type": "bytes4"
        }
      ],
      "stateMutability": "nonpayable",
      "type": "function"
    },
    {
      "inputs": [],
      "name": "owner",
      "outputs": [
        {
          "internalType": "address",
          "name": "",
          "type": "address"
        }
      ],
      "stateMutability": "view",
      "type": "function"
    },
    {
      "inputs": [],
      "name": "pause",
      "outputs": [],
      "stateMutability": "nonpayable",
      "type": "function"
    },
    {
      "inputs": [],
      "name": "paused",
      "outputs": [
        {
          "internalType": "bool",
          "name": "",
          "type": "bool"
        }
      ],
      "stateMutability": "view",
      "type": "function"
    },
    {
      "inputs": [
        {
          "internalType": "uint256",
          "name": "index",
          "type": "uint256"
        }
      ],
      "name": "payee",
      "outputs": [
        {
          "internalType": "address",
          "name": "",
          "type": "address"
        }
      ],
      "stateMutability": "view",
      "type": "function"
    },
    {
      "inputs": [
        {
          "internalType": "address",
          "name": "owner",
          "type": "address"
        },
        {
          "internalType": "address",
          "name": "spender",
          "type": "address"
        },
        {
          "internalType": "uint256",
          "name": "value",
          "type": "uint256"
        },
        {
          "internalType": "uint256",
          "name": "deadline",
          "type": "uint256"
        },
        {
          "internalType": "uint8",
          "name": "v",
          "type": "uint8"
        },
        {
          "internalType": "bytes32",
          "name": "r",
          "type": "bytes32"
        },
        {
          "internalType": "bytes32",
          "name": "s",
          "type": "bytes32"
        }
      ],
      "name": "permit",
      "outputs": [],
      "stateMutability": "nonpayable",
      "type": "function"
    },
    {
      "inputs": [],
      "name": "proxiableUUID",
      "outputs": [
        {
          "internalType": "bytes32",
          "name": "",
          "type": "bytes32"
        }
      ],
      "stateMutability": "view",
      "type": "function"
    },
    {
      "inputs": [
        {
          "internalType": "address",
          "name": "account",
          "type": "address"
        }
      ],
      "name": "releasable",
      "outputs": [
        {
          "internalType": "uint256",
          "name": "",
          "type": "uint256"
        }
      ],
      "stateMutability": "view",
      "type": "function"
    },
    {
      "inputs": [
        {
          "internalType": "contract IERC20Upgradeable",
          "name": "token",
          "type": "address"
        },
        {
          "internalType": "address",
          "name": "account",
          "type": "address"
        }
      ],
      "name": "releasable",
      "outputs": [
        {
          "internalType": "uint256",
          "name": "",
          "type": "uint256"
        }
      ],
      "stateMutability": "view",
      "type": "function"
    },
    {
      "inputs": [
        {
          "internalType": "address payable",
          "name": "account",
          "type": "address"
        }
      ],
      "name": "release",
      "outputs": [],
      "stateMutability": "nonpayable",
      "type": "function"
    },
    {
      "inputs": [
        {
          "internalType": "contract IERC20Upgradeable",
          "name": "token",
          "type": "address"
        },
        {
          "internalType": "address",
          "name": "account",
          "type": "address"
        }
      ],
      "name": "release",
      "outputs": [],
      "stateMutability": "nonpayable",
      "type": "function"
    },
    {
      "inputs": [
        {
          "internalType": "contract IERC20Upgradeable",
          "name": "token",
          "type": "address"
        },
        {
          "internalType": "address",
          "name": "account",
          "type": "address"
        }
      ],
      "name": "released",
      "outputs": [
        {
          "internalType": "uint256",
          "name": "",
          "type": "uint256"
        }
      ],
      "stateMutability": "view",
      "type": "function"
    },
    {
      "inputs": [
        {
          "internalType": "address",
          "name": "account",
          "type": "address"
        }
      ],
      "name": "released",
      "outputs": [
        {
          "internalType": "uint256",
          "name": "",
          "type": "uint256"
        }
      ],
      "stateMutability": "view",
      "type": "function"
    },
    {
      "inputs": [],
      "name": "renounceOwnership",
      "outputs": [],
      "stateMutability": "nonpayable",
      "type": "function"
    },
    {
      "inputs": [
        {
          "internalType": "address",
          "name": "_breederContractAddr",
          "type": "address"
        },
        {
          "internalType": "uint256",
          "name": "_vrfValue",
          "type": "uint256"
        },
        {
          "internalType": "address",
          "name": "_nftContractAddr",
          "type": "address"
        }
      ],
      "name": "setAllOf",
      "outputs": [],
      "stateMutability": "nonpayable",
      "type": "function"
    },
    {
      "inputs": [
        {
          "internalType": "address payable",
          "name": "newTAdd",
          "type": "address"
        }
      ],
      "name": "setTAdd",
      "outputs": [],
      "stateMutability": "nonpayable",
      "type": "function"
    },
    {
      "inputs": [
        {
          "internalType": "address",
          "name": "account",
          "type": "address"
        }
      ],
      "name": "shares",
      "outputs": [
        {
          "internalType": "uint256",
          "name": "",
          "type": "uint256"
        }
      ],
      "stateMutability": "view",
      "type": "function"
    },
    {
      "inputs": [],
      "name": "status",
      "outputs": [],
      "stateMutability": "nonpayable",
      "type": "function"
    },
    {
      "inputs": [],
      "name": "symbol",
      "outputs": [
        {
          "internalType": "string",
          "name": "",
          "type": "string"
        }
      ],
      "stateMutability": "view",
      "type": "function"
    },
    {
      "inputs": [
        {
          "internalType": "contract IERC20Upgradeable",
          "name": "token",
          "type": "address"
        }
      ],
      "name": "totalReleased",
      "outputs": [
        {
          "internalType": "uint256",
          "name": "",
          "type": "uint256"
        }
      ],
      "stateMutability": "view",
      "type": "function"
    },
    {
      "inputs": [],
      "name": "totalReleased",
      "outputs": [
        {
          "internalType": "uint256",
          "name": "",
          "type": "uint256"
        }
      ],
      "stateMutability": "view",
      "type": "function"
    },
    {
      "inputs": [],
      "name": "totalShares",
      "outputs": [
        {
          "internalType": "uint256",
          "name": "",
          "type": "uint256"
        }
      ],
      "stateMutability": "view",
      "type": "function"
    },
    {
      "inputs": [],
      "name": "totalSupply",
      "outputs": [
        {
          "internalType": "uint256",
          "name": "",
          "type": "uint256"
        }
      ],
      "stateMutability": "view",
      "type": "function"
    },
    {
      "inputs": [
        {
          "internalType": "address",
          "name": "to",
          "type": "address"
        },
        {
          "internalType": "uint256",
          "name": "amount",
          "type": "uint256"
        }
      ],
      "name": "transfer",
      "outputs": [
        {
          "internalType": "bool",
          "name": "",
          "type": "bool"
        }
      ],
      "stateMutability": "nonpayable",
      "type": "function"
    },
    {
      "inputs": [
        {
          "internalType": "address",
          "name": "from",
          "type": "address"
        },
        {
          "internalType": "address",
          "name": "to",
          "type": "address"
        },
        {
          "internalType": "uint256",
          "name": "amount",
          "type": "uint256"
        }
      ],
      "name": "transferFrom",
      "outputs": [
        {
          "internalType": "bool",
          "name": "",
          "type": "bool"
        }
      ],
      "stateMutability": "nonpayable",
      "type": "function"
    },
    {
      "inputs": [
        {
          "internalType": "address",
          "name": "newOwner",
          "type": "address"
        }
      ],
      "name": "transferOwnership",
      "outputs": [],
      "stateMutability": "nonpayable",
      "type": "function"
    },
    {
      "inputs": [],
      "name": "unpause",
      "outputs": [],
      "stateMutability": "nonpayable",
      "type": "function"
    },
    {
      "inputs": [
        {
          "internalType": "address",
          "name": "newImplementation",
          "type": "address"
        }
      ],
      "name": "upgradeTo",
      "outputs": [],
      "stateMutability": "nonpayable",
      "type": "function"
    },
    {
      "inputs": [
        {
          "internalType": "address",
          "name": "newImplementation",
          "type": "address"
        },
        {
          "internalType": "bytes",
          "name": "data",
          "type": "bytes"
        }
      ],
      "name": "upgradeToAndCall",
      "outputs": [],
      "stateMutability": "payable",
      "type": "function"
    },
    {
      "inputs": [
        {
          "internalType": "address",
          "name": "",
          "type": "address"
        },
        {
          "internalType": "uint256",
          "name": "",
          "type": "uint256"
        }
      ],
      "name": "userToListedPlanets",
      "outputs": [
        {
          "internalType": "uint256",
          "name": "planet",
          "type": "uint256"
        },
        {
          "internalType": "uint256",
          "name": "price",
          "type": "uint256"
        },
        {
          "internalType": "address",
          "name": "ownerAddress",
          "type": "address"
        }
      ],
      "stateMutability": "view",
      "type": "function"
    },
    {
      "inputs": [],
      "name": "withdrawFunds",
      "outputs": [],
      "stateMutability": "nonpayable",
      "type": "function"
    },
    {
      "stateMutability": "payable",
      "type": "receive"
    }
  ],
  "transactionHash": "0x390727784f33247caee0dc3cf5c5992e78a525122b218c0e2e94fe421db3a9f8",
  "args": [],
  "numDeployments": 1,
  "solcInputHash": "1d6969fe80ed21c2665e8a400c24162a",
  "bytecode": "0x60a06040523060805234801561001457600080fd5b50608051613d9d61004c60003960008181610f840152818161100901528181611324015281816113a9015261148f0152613d9d6000f3fe6080604052600436106103435760003560e01c8063715018a6116101b0578063a9059cbb116100ec578063d28eb2dc11610095578063dd62ed3e1161006f578063dd62ed3e146109dc578063e22aecb414610a22578063e33b7de314610a7d578063f2fde38b14610a9357600080fd5b8063d28eb2dc14610965578063d505accf14610985578063d79779b2146109a557600080fd5b8063cbdf1b5a116100c6578063cbdf1b5a146108ee578063cdb82a371461090e578063ce7c2ac21461092e57600080fd5b8063a9059cbb1461088e578063c45ac050146108ae578063c7c0e6b1146108ce57600080fd5b806385fe72431161015957806395d89b411161013357806395d89b41146108025780639852595c14610817578063a3f8eace1461084e578063a457c2d71461086e57600080fd5b806385fe72431461077f5780638b83209b146107c35780638da5cb5b146107e357600080fd5b80638230a7841161018a5780638230a784146107445780638456cb59146104d557806384b0196e1461075757600080fd5b8063715018a6146106fa5780637ecebe001461070f5780638129fc1c1461072f57600080fd5b80633659cfe61161027f5780634a02099b1161022857806352d1902d1161020257806352d1902d146106825780635c975abb146106975780636a23befb146106af57806370a08231146106c457600080fd5b80634a02099b1461064f5780634f1ef2861461066f57806350842cf3146104c957600080fd5b80633f4ba83a116102595780633f4ba83a146105d3578063406072a9146105e857806348b750441461062f57600080fd5b80633659cfe61461057d578063395093511461059d5780633a98ef39146105bd57600080fd5b80631ac9a91e116102ec57806324600fc3116102c657806324600fc31461050a578063259478181461051f578063313ce5671461054c5780633644e5151461056857600080fd5b80631ac9a91e146104c9578063200d2ed2146104d557806323b872dd146104ea57600080fd5b8063150b7a021161031d578063150b7a021461043757806318160ddd1461048857806319165587146104a757600080fd5b8063064db8741461039157806306fdde03146103e5578063095ea7b31461040757600080fd5b3661038c577f6ef95f06320e7a25a04a175ca677b7052bdd97131872c2192525a629f51be77033604080516001600160a01b0390921682523460208301520160405180910390a1005b600080fd5b34801561039d57600080fd5b506103c86103ac3660046136c4565b6101cc602052600090815260409020546001600160a01b031681565b6040516001600160a01b0390911681526020015b60405180910390f35b3480156103f157600080fd5b506103fa610ab3565b6040516103dc919061372d565b34801561041357600080fd5b50610427610422366004613755565b610b45565b60405190151581526020016103dc565b34801561044357600080fd5b50610457610452366004613824565b610b5f565b6040517fffffffff0000000000000000000000000000000000000000000000000000000090911681526020016103dc565b34801561049457600080fd5b5060cb545b6040519081526020016103dc565b3480156104b357600080fd5b506104c76104c2366004613890565b610bc9565b005b3480156104c757600080fd5b3480156104e157600080fd5b506104c7610d3d565b3480156104f657600080fd5b506104276105053660046138ad565b610d4d565b34801561051657600080fd5b506104c7610d71565b34801561052b57600080fd5b5061053f61053a3660046138ee565b610dab565b6040516103dc9190613910565b34801561055857600080fd5b50604051601281526020016103dc565b34801561057457600080fd5b50610499610f6b565b34801561058957600080fd5b506104c7610598366004613890565b610f7a565b3480156105a957600080fd5b506104276105b8366004613755565b6110f5565b3480156105c957600080fd5b5061016254610499565b3480156105df57600080fd5b506104c7611134565b3480156105f457600080fd5b50610499610603366004613972565b6001600160a01b0391821660009081526101686020908152604080832093909416825291909152205490565b34801561063b57600080fd5b506104c761064a366004613972565b611144565b34801561065b57600080fd5b506104c761066a3660046139ab565b6112db565b6104c761067d3660046139ed565b61131a565b34801561068e57600080fd5b50610499611482565b3480156106a357600080fd5b5060335460ff16610427565b3480156106bb57600080fd5b5061053f611547565b3480156106d057600080fd5b506104996106df366004613890565b6001600160a01b0316600090815260c9602052604090205490565b34801561070657600080fd5b506104c76115ca565b34801561071b57600080fd5b5061049961072a366004613890565b6115dc565b34801561073b57600080fd5b506104c76115fb565b6104c76107523660046138ee565b61172a565b34801561076357600080fd5b5061076c611a3d565b6040516103dc9796959493929190613a3d565b34801561078b57600080fd5b5061079f61079a366004613755565b611aff565b6040805193845260208401929092526001600160a01b0316908201526060016103dc565b3480156107cf57600080fd5b506103c86107de3660046136c4565b611b4b565b3480156107ef57600080fd5b50610194546001600160a01b03166103c8565b34801561080e57600080fd5b506103fa611b7c565b34801561082357600080fd5b50610499610832366004613890565b6001600160a01b03166000908152610165602052604090205490565b34801561085a57600080fd5b50610499610869366004613890565b611b8b565b34801561087a57600080fd5b50610427610889366004613755565b611bd5565b34801561089a57600080fd5b506104276108a9366004613755565b611c7f565b3480156108ba57600080fd5b506104996108c9366004613972565b611c8d565b3480156108da57600080fd5b506104c76108e93660046136c4565b611d6b565b3480156108fa57600080fd5b506104c76109093660046138ee565b611d79565b34801561091a57600080fd5b506104c7610929366004613890565b611f17565b34801561093a57600080fd5b50610499610949366004613890565b6001600160a01b03166000908152610164602052604090205490565b34801561097157600080fd5b506104c7610980366004613b00565b611f42565b34801561099157600080fd5b506104c76109a0366004613b2e565b611fd0565b3480156109b157600080fd5b506104996109c0366004613890565b6001600160a01b03166000908152610167602052604090205490565b3480156109e857600080fd5b506104996109f7366004613972565b6001600160a01b03918216600090815260ca6020908152604080832093909416825291909152205490565b348015610a2e57600080fd5b50610a42610a3d366004613755565b612134565b604080516001600160a01b0396871681526020810195909552921515928401929092529092166060820152608081019190915260a0016103dc565b348015610a8957600080fd5b5061016354610499565b348015610a9f57600080fd5b506104c7610aae366004613890565b612194565b606060cc8054610ac290613ba5565b80601f0160208091040260200160405190810160405280929190818152602001828054610aee90613ba5565b8015610b3b5780601f10610b1057610100808354040283529160200191610b3b565b820191906000526020600020905b815481529060010190602001808311610b1e57829003601f168201915b5050505050905090565b600033610b53818585612221565b60019150505b92915050565b60007f13c6ec2a463a35f898a457814a782f1f567808293fa783a31fa4dac8868e601185858585604051610b969493929190613bd9565b60405180910390a1507f150b7a02000000000000000000000000000000000000000000000000000000005b949350505050565b6001600160a01b03811660009081526101646020526040902054610c435760405162461bcd60e51b815260206004820152602660248201527f5061796d656e7453706c69747465723a206163636f756e7420686173206e6f2060448201526573686172657360d01b60648201526084015b60405180910390fd5b6000610c4e82611b8b565b905080600003610cb45760405162461bcd60e51b815260206004820152602b60248201527f5061796d656e7453706c69747465723a206163636f756e74206973206e6f742060448201526a191d59481c185e5b595b9d60aa1b6064820152608401610c3a565b806101636000828254610cc79190613c63565b90915550506001600160a01b038216600090815261016560205260409020805482019055610cf58282612379565b604080516001600160a01b0384168152602081018390527fdf20fd1e76bc69d672e4814fafb2c449bba3a5369d8359adf9e05e6fde87b056910160405180910390a15050565b565b610d45612497565b610d3b6124f2565b600033610d5b85828561254c565b610d668585856125de565b506001949350505050565b610d79612497565b604051339081904780156108fc02916000818181858888f19350505050158015610da7573d6000803e3d6000fd5b5050565b6060828211610dfc5760405162461bcd60e51b815260206004820152600d60248201527f496e76616c696420696e646578000000000000000000000000000000000000006044820152606401610c3a565b6101cb54821115610e4f5760405162461bcd60e51b815260206004820152601360248201527f496e646578206f7574206f6620626f756e6473000000000000000000000000006044820152606401610c3a565b6000610e5b8484613c76565b67ffffffffffffffff811115610e7357610e73613781565b604051908082528060200260200182016040528015610ed157816020015b610ebe6040518060600160405280600081526020016000815260200160006001600160a01b031681525090565b815260200190600190039081610e915790505b509050835b83811015610f63576101cb8181548110610ef257610ef2613c89565b6000918252602091829020604080516060810182526003909302909101805483526001810154938301939093526002909201546001600160a01b03169181019190915282610f408784613c76565b81518110610f5057610f50613c89565b6020908102919091010152600101610ed6565b509392505050565b6000610f756127d2565b905090565b6001600160a01b037f00000000000000000000000000000000000000000000000000000000000000001630036110075760405162461bcd60e51b815260206004820152602c60248201527f46756e6374696f6e206d7573742062652063616c6c6564207468726f7567682060448201526b19195b1959d85d1958d85b1b60a21b6064820152608401610c3a565b7f00000000000000000000000000000000000000000000000000000000000000006001600160a01b03166110627f360894a13ba1a3210667c828492db98dca3e2076cc3735a920a3ca505d382bbc546001600160a01b031690565b6001600160a01b0316146110cd5760405162461bcd60e51b815260206004820152602c60248201527f46756e6374696f6e206d7573742062652063616c6c6564207468726f7567682060448201526b6163746976652070726f787960a01b6064820152608401610c3a565b6110d6816127dc565b604080516000808252602082019092526110f2918391906127e4565b50565b33600081815260ca602090815260408083206001600160a01b0387168452909152812054909190610b53908290869061112f908790613c63565b612221565b61113c612497565b610d3b612984565b6001600160a01b038116600090815261016460205260409020546111b95760405162461bcd60e51b815260206004820152602660248201527f5061796d656e7453706c69747465723a206163636f756e7420686173206e6f2060448201526573686172657360d01b6064820152608401610c3a565b60006111c58383611c8d565b90508060000361122b5760405162461bcd60e51b815260206004820152602b60248201527f5061796d656e7453706c69747465723a206163636f756e74206973206e6f742060448201526a191d59481c185e5b595b9d60aa1b6064820152608401610c3a565b6001600160a01b0383166000908152610167602052604081208054839290611254908490613c63565b90915550506001600160a01b038084166000908152610168602090815260408083209386168352929052208054820190556112908383836129bd565b604080516001600160a01b038481168252602082018490528516917f3be5b7a71e84ed12875d241991c70855ac5817d847039e17a9d895c1ceb0f18a910160405180910390a2505050565b6112e3612497565b6101c9919091556101c680546001600160a01b039384166001600160a01b0319918216179091556101c88054929093169116179055565b6001600160a01b037f00000000000000000000000000000000000000000000000000000000000000001630036113a75760405162461bcd60e51b815260206004820152602c60248201527f46756e6374696f6e206d7573742062652063616c6c6564207468726f7567682060448201526b19195b1959d85d1958d85b1b60a21b6064820152608401610c3a565b7f00000000000000000000000000000000000000000000000000000000000000006001600160a01b03166114027f360894a13ba1a3210667c828492db98dca3e2076cc3735a920a3ca505d382bbc546001600160a01b031690565b6001600160a01b03161461146d5760405162461bcd60e51b815260206004820152602c60248201527f46756e6374696f6e206d7573742062652063616c6c6564207468726f7567682060448201526b6163746976652070726f787960a01b6064820152608401610c3a565b611476826127dc565b610da7828260016127e4565b6000306001600160a01b037f000000000000000000000000000000000000000000000000000000000000000016146115225760405162461bcd60e51b815260206004820152603860248201527f555550535570677261646561626c653a206d757374206e6f742062652063616c60448201527f6c6564207468726f7567682064656c656761746563616c6c00000000000000006064820152608401610c3a565b507f360894a13ba1a3210667c828492db98dca3e2076cc3735a920a3ca505d382bbc90565b60606101cb805480602002602001604051908101604052809291908181526020016000905b828210156115c1576000848152602090819020604080516060810182526003860290920180548352600180820154848601526002909101546001600160a01b031691830191909152908352909201910161156c565b50505050905090565b6115d2612497565b610d3b6000612a3d565b6001600160a01b038116600090815261012f6020526040812054610b59565b600054610100900460ff161580801561161b5750600054600160ff909116105b806116355750303b158015611635575060005460ff166001145b6116a75760405162461bcd60e51b815260206004820152602e60248201527f496e697469616c697a61626c653a20636f6e747261637420697320616c72656160448201527f647920696e697469616c697a65640000000000000000000000000000000000006064820152608401610c3a565b6000805460ff1916600117905580156116ca576000805461ff0019166101001790555b6116d2612a90565b6116da612b03565b6116e2612b76565b80156110f2576000805461ff0019169055604051600181527f7f26b83ff96e1f2b6a682f133852f6798a09c465da95921460cefb38474024989060200160405180910390a150565b600080600061173884612be1565b9050806101c9546117499190613c63565b34101561175557600080fd5b6000805b6101cb548110156117d057856101cb828154811061177957611779613c89565b906000526020600020906003020160000154036117c8576101cb81815481106117a4576117a4613c89565b60009182526020909120600260039092020101546001600160a01b031691506117d0565b600101611759565b50604051600b906000906001600160a01b0384169083908381818185875af1925050503d806000811461181f576040519150601f19603f3d011682016040523d82523d6000602084013e611824565b606091505b50509050806118755760405162461bcd60e51b815260206004820152601460248201527f4661696c656420746f2073656e642045746865720000000000000000000000006044820152606401610c3a565b6101c6546040517fbf0e57a3000000000000000000000000000000000000000000000000000000008152600481018a905260248101899052600060448201523460648201526001600160a01b039091169063bf0e57a3906084016020604051808303816000875af11580156118ee573d6000803e3d6000fd5b505050506040513d601f19601f820116820180604052508101906119129190613c9f565b50816101c9546119229190613c63565b3411156119e3576000336001600160a01b0316836101c954346119459190613c76565b61194f9190613c76565b604051600081818185875af1925050503d806000811461198b576040519150601f19603f3d011682016040523d82523d6000602084013e611990565b606091505b50509050806119e15760405162461bcd60e51b815260206004820152601d60248201527f4661696c656420746f20726566756e64206578636573732045746865720000006044820152606401610c3a565b505b604080518981526001600160a01b0388811660208301528183018a90528716606082015290517f8557df6951fbdd47fe9027516fc896be40f285ed55a6acac460352adbab730cd9181900360800190a15050505050505050565b60006060806000806000606060fb546000801b148015611a5d575060fc54155b611aa95760405162461bcd60e51b815260206004820152601560248201527f4549503731323a20556e696e697469616c697a656400000000000000000000006044820152606401610c3a565b611ab1612c78565b611ab9612c87565b604080516000808252602082019092527f0f000000000000000000000000000000000000000000000000000000000000009b939a50919850469750309650945092509050565b6101ca6020528160005260406000208181548110611b1c57600080fd5b60009182526020909120600390910201805460018201546002909201549093509091506001600160a01b031683565b60006101668281548110611b6157611b61613c89565b6000918252602090912001546001600160a01b031692915050565b606060cd8054610ac290613ba5565b600080611b986101635490565b611ba29047613c63565b9050611bce8382611bc9866001600160a01b03166000908152610165602052604090205490565b612c96565b9392505050565b33600081815260ca602090815260408083206001600160a01b038716845290915281205490919083811015611c725760405162461bcd60e51b815260206004820152602560248201527f45524332303a2064656372656173656420616c6c6f77616e63652062656c6f7760448201527f207a65726f0000000000000000000000000000000000000000000000000000006064820152608401610c3a565b610d668286868403612221565b600033610b538185856125de565b6001600160a01b0382166000908152610167602052604081205481906040517f70a082310000000000000000000000000000000000000000000000000000000081523060048201526001600160a01b038616906370a0823190602401602060405180830381865afa158015611d06573d6000803e3d6000fd5b505050506040513d601f19601f82011682018060405250810190611d2a9190613c9f565b611d349190613c63565b6001600160a01b0380861660009081526101686020908152604080832093881683529290522054909150610bc19084908390612c96565b611d73612497565b6101c955565b6101cb548210611dcb5760405162461bcd60e51b815260206004820152601360248201527f496e646578206f7574206f6620626f756e6473000000000000000000000000006044820152606401610c3a565b600033905060006101cb8481548110611de657611de6613c89565b6000918252602091829020604080516060810182526003909302909101805483526001810154938301939093526002909201546001600160a01b031691810182905291503314611e3557600080fd5b6040518060600160405280600081526020016000815260200160006001600160a01b03168152506101cb8581548110611e7057611e70613c89565b6000918252602091829020835160039290920201908155908201516001820155604090910151600290910180546001600160a01b0319166001600160a01b03909216919091179055611ec28383612cd6565b6101c8548151604080516001600160a01b03808716825290931660208401528201527f0ece05e698e9e143fb75b2ad0aba7f141238c27b6d3e9728898183ee0d68498b9060600160405180910390a150505050565b611f1f612497565b6101c780546001600160a01b0319166001600160a01b0392909216919091179055565b611f4a612497565b6101c8546040517fa22cb4650000000000000000000000000000000000000000000000000000000081526001600160a01b03848116600483015283151560248301529091169063a22cb465906044015b600060405180830381600087803b158015611fb457600080fd5b505af1158015611fc8573d6000803e3d6000fd5b505050505050565b834211156120205760405162461bcd60e51b815260206004820152601d60248201527f45524332305065726d69743a206578706972656420646561646c696e650000006044820152606401610c3a565b60007f6e71edae12b1b97f4d1f60370fef10105fa2faae0126114a169c64845d6126c988888861204f8c612d2f565b6040805160208101969096526001600160a01b0394851690860152929091166060840152608083015260a082015260c0810186905260e00160405160208183030381529060405280519060200120905060006120aa82612d56565b905060006120ba82878787612d9e565b9050896001600160a01b0316816001600160a01b03161461211d5760405162461bcd60e51b815260206004820152601e60248201527f45524332305065726d69743a20696e76616c6964207369676e617475726500006044820152606401610c3a565b6121288a8a8a612221565b50505050505050505050565b6101cd602052816000526040600020818154811061215157600080fd5b600091825260209091206004909102018054600182015460028301546003909301546001600160a01b03928316955090935060ff83169261010090049091169085565b61219c612497565b6001600160a01b0381166122185760405162461bcd60e51b815260206004820152602660248201527f4f776e61626c653a206e6577206f776e657220697320746865207a65726f206160448201527f64647265737300000000000000000000000000000000000000000000000000006064820152608401610c3a565b6110f281612a3d565b6001600160a01b03831661229c5760405162461bcd60e51b8152602060048201526024808201527f45524332303a20617070726f76652066726f6d20746865207a65726f2061646460448201527f72657373000000000000000000000000000000000000000000000000000000006064820152608401610c3a565b6001600160a01b0382166123185760405162461bcd60e51b815260206004820152602260248201527f45524332303a20617070726f766520746f20746865207a65726f20616464726560448201527f73730000000000000000000000000000000000000000000000000000000000006064820152608401610c3a565b6001600160a01b03838116600081815260ca602090815260408083209487168084529482529182902085905590518481527f8c5be1e5ebec7d5bd14f71427d1e84f3dd0314c0f7b2291e5b200ac8c7c3b925910160405180910390a3505050565b804710156123c95760405162461bcd60e51b815260206004820152601d60248201527f416464726573733a20696e73756666696369656e742062616c616e63650000006044820152606401610c3a565b6000826001600160a01b03168260405160006040518083038185875af1925050503d8060008114612416576040519150601f19603f3d011682016040523d82523d6000602084013e61241b565b606091505b50509050806124925760405162461bcd60e51b815260206004820152603a60248201527f416464726573733a20756e61626c6520746f2073656e642076616c75652c207260448201527f6563697069656e74206d617920686176652072657665727465640000000000006064820152608401610c3a565b505050565b610194546001600160a01b03163314610d3b5760405162461bcd60e51b815260206004820181905260248201527f4f776e61626c653a2063616c6c6572206973206e6f7420746865206f776e65726044820152606401610c3a565b6124fa612dc6565b6033805460ff191660011790557f62e78cea01bee320cd4e420270b5ea74000d11b0c9f74754ebdbfc544b05a25861252f3390565b6040516001600160a01b03909116815260200160405180910390a1565b6001600160a01b03838116600090815260ca602090815260408083209386168352929052205460001981146125d857818110156125cb5760405162461bcd60e51b815260206004820152601d60248201527f45524332303a20696e73756666696369656e7420616c6c6f77616e63650000006044820152606401610c3a565b6125d88484848403612221565b50505050565b6001600160a01b03831661265a5760405162461bcd60e51b815260206004820152602560248201527f45524332303a207472616e736665722066726f6d20746865207a65726f20616460448201527f64726573730000000000000000000000000000000000000000000000000000006064820152608401610c3a565b6001600160a01b0382166126d65760405162461bcd60e51b815260206004820152602360248201527f45524332303a207472616e7366657220746f20746865207a65726f206164647260448201527f65737300000000000000000000000000000000000000000000000000000000006064820152608401610c3a565b6001600160a01b038316600090815260c96020526040902054818110156127655760405162461bcd60e51b815260206004820152602660248201527f45524332303a207472616e7366657220616d6f756e742065786365656473206260448201527f616c616e636500000000000000000000000000000000000000000000000000006064820152608401610c3a565b6001600160a01b03808516600081815260c9602052604080822086860390559286168082529083902080548601905591517fddf252ad1be2c89b69c2b068fc378daa952ba7f163c4a11628f55a4df523b3ef906127c59086815260200190565b60405180910390a36125d8565b6000610f75612e19565b6110f2612497565b7f4910fdfa16fed3260ed0e7147f7cc6da11a60208b5b9406d12a635614ffd91435460ff16156128175761249283612e8d565b826001600160a01b03166352d1902d6040518163ffffffff1660e01b8152600401602060405180830381865afa925050508015612871575060408051601f3d908101601f1916820190925261286e91810190613c9f565b60015b6128e35760405162461bcd60e51b815260206004820152602e60248201527f45524331393637557067726164653a206e657720696d706c656d656e7461746960448201527f6f6e206973206e6f7420555550530000000000000000000000000000000000006064820152608401610c3a565b7f360894a13ba1a3210667c828492db98dca3e2076cc3735a920a3ca505d382bbc81146129785760405162461bcd60e51b815260206004820152602960248201527f45524331393637557067726164653a20756e737570706f727465642070726f7860448201527f6961626c655555494400000000000000000000000000000000000000000000006064820152608401610c3a565b50612492838383612f4b565b61298c612f70565b6033805460ff191690557f5db9ee0a495bf2e6ff9c91a7834c1ba4fdd244a5e8aa4e537bd38aeae4b073aa3361252f565b604080516001600160a01b038416602482015260448082018490528251808303909101815260649091019091526020810180517bffffffffffffffffffffffffffffffffffffffffffffffffffffffff167fa9059cbb00000000000000000000000000000000000000000000000000000000179052612492908490612fc2565b61019480546001600160a01b038381166001600160a01b0319831681179093556040519116919082907f8be0079c531659141344cd1fd0a4f28419497f9722a3daafe3b4186f6b6457e090600090a35050565b600054610100900460ff16612afb5760405162461bcd60e51b815260206004820152602b60248201527f496e697469616c697a61626c653a20636f6e7472616374206973206e6f74206960448201526a6e697469616c697a696e6760a81b6064820152608401610c3a565b610d3b6130aa565b600054610100900460ff16612b6e5760405162461bcd60e51b815260206004820152602b60248201527f496e697469616c697a61626c653a20636f6e7472616374206973206e6f74206960448201526a6e697469616c697a696e6760a81b6064820152608401610c3a565b610d3b61311e565b600054610100900460ff16610d3b5760405162461bcd60e51b815260206004820152602b60248201527f496e697469616c697a61626c653a20636f6e7472616374206973206e6f74206960448201526a6e697469616c697a696e6760a81b6064820152608401610c3a565b6000805b6101cb54811015612c7257826101cb8281548110612c0557612c05613c89565b90600052602060002090600302016000015403612c4a576101cb8181548110612c3057612c30613c89565b906000526020600020906003020160010154915050919050565b6101cb54612c5a90600190613c76565b8103612c6a575060001992915050565b600101612be5565b50919050565b606060fd8054610ac290613ba5565b606060fe8054610ac290613ba5565b610162546001600160a01b0384166000908152610164602052604081205490918391612cc29086613cb8565b612ccc9190613ccf565b610bc19190613c76565b6101c8546040517f23b872dd0000000000000000000000000000000000000000000000000000000081523060048201526001600160a01b03838116602483015260448201859052909116906323b872dd90606401611f9a565b6001600160a01b038116600090815261012f60205260409020805460018101825590612c72565b6000610b59612d636127d2565b836040517f19010000000000000000000000000000000000000000000000000000000000008152600281019290925260228201526042902090565b6000806000612daf87878787613195565b91509150612dbc81613259565b5095945050505050565b60335460ff1615610d3b5760405162461bcd60e51b815260206004820152601060248201527f5061757361626c653a20706175736564000000000000000000000000000000006044820152606401610c3a565b60007f8b73c3c69bb8fe3d512ecc4cf759cc79239f7b179b0ffacaa9a75d522b39400f612e446133be565b612e4c613417565b60408051602081019490945283019190915260608201524660808201523060a082015260c00160405160208183030381529060405280519060200120905090565b6001600160a01b0381163b612f0a5760405162461bcd60e51b815260206004820152602d60248201527f455243313936373a206e657720696d706c656d656e746174696f6e206973206e60448201527f6f74206120636f6e7472616374000000000000000000000000000000000000006064820152608401610c3a565b7f360894a13ba1a3210667c828492db98dca3e2076cc3735a920a3ca505d382bbc80546001600160a01b0319166001600160a01b0392909216919091179055565b612f5483613448565b600082511180612f615750805b15612492576125d88383613488565b60335460ff16610d3b5760405162461bcd60e51b815260206004820152601460248201527f5061757361626c653a206e6f74207061757365640000000000000000000000006044820152606401610c3a565b6000613017826040518060400160405280602081526020017f5361666545524332303a206c6f772d6c6576656c2063616c6c206661696c6564815250856001600160a01b03166134ad9092919063ffffffff16565b90508051600014806130385750808060200190518101906130389190613cf1565b6124925760405162461bcd60e51b815260206004820152602a60248201527f5361666545524332303a204552433230206f7065726174696f6e20646964206e60448201527f6f742073756363656564000000000000000000000000000000000000000000006064820152608401610c3a565b600054610100900460ff166131155760405162461bcd60e51b815260206004820152602b60248201527f496e697469616c697a61626c653a20636f6e7472616374206973206e6f74206960448201526a6e697469616c697a696e6760a81b6064820152608401610c3a565b610d3b33612a3d565b600054610100900460ff166131895760405162461bcd60e51b815260206004820152602b60248201527f496e697469616c697a61626c653a20636f6e7472616374206973206e6f74206960448201526a6e697469616c697a696e6760a81b6064820152608401610c3a565b6033805460ff19169055565b6000807f7fffffffffffffffffffffffffffffff5d576e7357a4501ddfe92f46681b20a08311156131cc5750600090506003613250565b6040805160008082526020820180845289905260ff881692820192909252606081018690526080810185905260019060a0016020604051602081039080840390855afa158015613220573d6000803e3d6000fd5b5050604051601f1901519150506001600160a01b03811661324957600060019250925050613250565b9150600090505b94509492505050565b600081600481111561326d5761326d613d0e565b036132755750565b600181600481111561328957613289613d0e565b036132d65760405162461bcd60e51b815260206004820152601860248201527f45434453413a20696e76616c6964207369676e617475726500000000000000006044820152606401610c3a565b60028160048111156132ea576132ea613d0e565b036133375760405162461bcd60e51b815260206004820152601f60248201527f45434453413a20696e76616c6964207369676e6174757265206c656e677468006044820152606401610c3a565b600381600481111561334b5761334b613d0e565b036110f25760405162461bcd60e51b815260206004820152602260248201527f45434453413a20696e76616c6964207369676e6174757265202773272076616c60448201527f75650000000000000000000000000000000000000000000000000000000000006064820152608401610c3a565b6000806133c9612c78565b8051909150156133e0578051602090910120919050565b60fb5480156133ef5792915050565b7fc5d2460186f7233c927e7db2dcc703c0e500b653ca82273b7bfad8045d85a4709250505090565b600080613422612c87565b805190915015613439578051602090910120919050565b60fc5480156133ef5792915050565b61345181612e8d565b6040516001600160a01b038216907fbc7cd75a20ee27fd9adebab32041f755214dbc6bffa90cc0225b39da2e5c2d3b90600090a250565b6060611bce8383604051806060016040528060278152602001613d41602791396134bc565b6060610bc18484600085613534565b6060600080856001600160a01b0316856040516134d99190613d24565b600060405180830381855af49150503d8060008114613514576040519150601f19603f3d011682016040523d82523d6000602084013e613519565b606091505b509150915061352a86838387613626565b9695505050505050565b6060824710156135ac5760405162461bcd60e51b815260206004820152602660248201527f416464726573733a20696e73756666696369656e742062616c616e636520666f60448201527f722063616c6c00000000000000000000000000000000000000000000000000006064820152608401610c3a565b600080866001600160a01b031685876040516135c89190613d24565b60006040518083038185875af1925050503d8060008114613605576040519150601f19603f3d011682016040523d82523d6000602084013e61360a565b606091505b509150915061361b87838387613626565b979650505050505050565b6060831561369557825160000361368e576001600160a01b0385163b61368e5760405162461bcd60e51b815260206004820152601d60248201527f416464726573733a2063616c6c20746f206e6f6e2d636f6e74726163740000006044820152606401610c3a565b5081610bc1565b610bc183838151156136aa5781518083602001fd5b8060405162461bcd60e51b8152600401610c3a919061372d565b6000602082840312156136d657600080fd5b5035919050565b60005b838110156136f85781810151838201526020016136e0565b50506000910152565b600081518084526137198160208601602086016136dd565b601f01601f19169290920160200192915050565b602081526000611bce6020830184613701565b6001600160a01b03811681146110f257600080fd5b6000806040838503121561376857600080fd5b823561377381613740565b946020939093013593505050565b634e487b7160e01b600052604160045260246000fd5b600082601f8301126137a857600080fd5b813567ffffffffffffffff808211156137c3576137c3613781565b604051601f8301601f19908116603f011681019082821181831017156137eb576137eb613781565b8160405283815286602085880101111561380457600080fd5b836020870160208301376000602085830101528094505050505092915050565b6000806000806080858703121561383a57600080fd5b843561384581613740565b9350602085013561385581613740565b925060408501359150606085013567ffffffffffffffff81111561387857600080fd5b61388487828801613797565b91505092959194509250565b6000602082840312156138a257600080fd5b8135611bce81613740565b6000806000606084860312156138c257600080fd5b83356138cd81613740565b925060208401356138dd81613740565b929592945050506040919091013590565b6000806040838503121561390157600080fd5b50508035926020909101359150565b602080825282518282018190526000919060409081850190868401855b828110156139655781518051855286810151878601528501516001600160a01b0316858501526060909301929085019060010161392d565b5091979650505050505050565b6000806040838503121561398557600080fd5b823561399081613740565b915060208301356139a081613740565b809150509250929050565b6000806000606084860312156139c057600080fd5b83356139cb81613740565b92506020840135915060408401356139e281613740565b809150509250925092565b60008060408385031215613a0057600080fd5b8235613a0b81613740565b9150602083013567ffffffffffffffff811115613a2757600080fd5b613a3385828601613797565b9150509250929050565b7fff00000000000000000000000000000000000000000000000000000000000000881681526000602060e06020840152613a7a60e084018a613701565b8381036040850152613a8c818a613701565b606085018990526001600160a01b038816608086015260a0850187905284810360c08601528551808252602080880193509091019060005b81811015613ae057835183529284019291840191600101613ac4565b50909c9b505050505050505050505050565b80151581146110f257600080fd5b60008060408385031215613b1357600080fd5b8235613b1e81613740565b915060208301356139a081613af2565b600080600080600080600060e0888a031215613b4957600080fd5b8735613b5481613740565b96506020880135613b6481613740565b95506040880135945060608801359350608088013560ff81168114613b8857600080fd5b9699959850939692959460a0840135945060c09093013592915050565b600181811c90821680613bb957607f821691505b602082108103612c7257634e487b7160e01b600052602260045260246000fd5b60006001600160a01b03808716835280861660208401525083604083015260a06060830152613c0b60a0830184613701565b8281036080840152600e81527f6c697374696e6720706c616e657400000000000000000000000000000000000060208201526040810191505095945050505050565b634e487b7160e01b600052601160045260246000fd5b80820180821115610b5957610b59613c4d565b81810381811115610b5957610b59613c4d565b634e487b7160e01b600052603260045260246000fd5b600060208284031215613cb157600080fd5b5051919050565b8082028115828204841417610b5957610b59613c4d565b600082613cec57634e487b7160e01b600052601260045260246000fd5b500490565b600060208284031215613d0357600080fd5b8151611bce81613af2565b634e487b7160e01b600052602160045260246000fd5b60008251613d368184602087016136dd565b919091019291505056fe416464726573733a206c6f772d6c6576656c2064656c65676174652063616c6c206661696c6564a2646970667358221220cf88e27ff682aac03d81a643450ae71c12c6c94d12f1d323023536e16192587564736f6c63430008180033",
  "devdoc": {
    "author": "Caecus",
    "custom:security-contact": "security@earnalliance.com",
    "details": "Contract is liable to be updated without warningHomo faber suae quisque fortunae",
    "events": {
      "AdminChanged(address,address)": {
        "details": "Emitted when the admin account has changed."
      },
      "Approval(address,address,uint256)": {
        "details": "Emitted when the allowance of a `spender` for an `owner` is set by a call to {approve}. `value` is the new allowance."
      },
      "BeaconUpgraded(address)": {
        "details": "Emitted when the beacon is changed."
      },
      "EIP712DomainChanged()": {
        "details": "MAY be emitted to signal that the domain could have changed."
      },
      "Initialized(uint8)": {
        "details": "Triggered when the contract has been initialized or reinitialized."
      },
      "Paused(address)": {
        "details": "Emitted when the pause is triggered by `account`."
      },
      "Transfer(address,address,uint256)": {
        "details": "Emitted when `value` tokens are moved from one account (`from`) to another (`to`). Note that `value` may be zero."
      },
      "Unpaused(address)": {
        "details": "Emitted when the pause is lifted by `account`."
      },
      "Upgraded(address)": {
        "details": "Emitted when the implementation is upgraded."
      }
    },
    "kind": "dev",
    "methods": {
      "DOMAIN_SEPARATOR()": {
        "details": "Returns the domain separator used in the encoding of the signature for {permit}, as defined by {EIP712}."
      },
      "allowance(address,address)": {
        "details": "See {IERC20-allowance}."
      },
      "approve(address,uint256)": {
        "details": "See {IERC20-approve}. NOTE: If `amount` is the maximum `uint256`, the allowance is not updated on `transferFrom`. This is semantically equivalent to an infinite approval. Requirements: - `spender` cannot be the zero address."
      },
      "balanceOf(address)": {
        "details": "See {IERC20-balanceOf}."
      },
      "decimals()": {
        "details": "Returns the number of decimals used to get its user representation. For example, if `decimals` equals `2`, a balance of `505` tokens should be displayed to a user as `5.05` (`505 / 10 ** 2`). Tokens usually opt for a value of 18, imitating the relationship between Ether and Wei. This is the default value returned by this function, unless it's overridden. NOTE: This information is only used for _display_ purposes: it in no way affects any of the arithmetic of the contract, including {IERC20-balanceOf} and {IERC20-transfer}."
      },
      "decreaseAllowance(address,uint256)": {
        "details": "Atomically decreases the allowance granted to `spender` by the caller. This is an alternative to {approve} that can be used as a mitigation for problems described in {IERC20-approve}. Emits an {Approval} event indicating the updated allowance. Requirements: - `spender` cannot be the zero address. - `spender` must have allowance for the caller of at least `subtractedValue`."
      },
      "eip712Domain()": {
        "details": "See {EIP-5267}. _Available since v4.9._"
      },
      "increaseAllowance(address,uint256)": {
        "details": "Atomically increases the allowance granted to `spender` by the caller. This is an alternative to {approve} that can be used as a mitigation for problems described in {IERC20-approve}. Emits an {Approval} event indicating the updated allowance. Requirements: - `spender` cannot be the zero address."
      },
      "initialize()": {
        "details": "implements EIP712, is upgradeable, pausable, burn function is custom to save space"
      },
      "name()": {
        "details": "Returns the name of the token."
      },
      "nonces(address)": {
        "details": "Returns the current nonce for `owner`. This value must be included whenever a signature is generated for {permit}. Every successful call to {permit} increases ``owner``'s nonce by one. This prevents a signature from being used multiple times."
      },
      "onERC721Received(address,address,uint256,bytes)": {
        "details": "Whenever an {IERC721} `tokenId` token is transferred to this contract via {IERC721-safeTransferFrom} by `operator` from `from`, this function is called. It must return its Solidity selector to confirm the token transfer. If any other value is returned or the interface is not implemented by the recipient, the transfer will be reverted. The selector can be obtained in Solidity with `IERC721Receiver.onERC721Received.selector`."
      },
      "owner()": {
        "details": "Returns the address of the current owner."
      },
      "pause()": {
        "details": "can only be called by owner"
      },
      "paused()": {
        "details": "Returns true if the contract is paused, and false otherwise."
      },
      "payee(uint256)": {
        "details": "Getter for the address of the payee number `index`."
      },
      "permit(address,address,uint256,uint256,uint8,bytes32,bytes32)": {
        "details": "Sets `value` as the allowance of `spender` over ``owner``'s tokens, given ``owner``'s signed approval. IMPORTANT: The same issues {IERC20-approve} has related to transaction ordering also apply here. Emits an {Approval} event. Requirements: - `spender` cannot be the zero address. - `deadline` must be a timestamp in the future. - `v`, `r` and `s` must be a valid `secp256k1` signature from `owner` over the EIP712-formatted function arguments. - the signature must use ``owner``'s current nonce (see {nonces}). For more information on the signature format, see the https://eips.ethereum.org/EIPS/eip-2612#specification[relevant EIP section]. CAUTION: See Security Considerations above."
      },
      "proxiableUUID()": {
        "details": "Implementation of the ERC1822 {proxiableUUID} function. This returns the storage slot used by the implementation. It is used to validate the implementation's compatibility when performing an upgrade. IMPORTANT: A proxy pointing at a proxiable contract should not be considered proxiable itself, because this risks bricking a proxy that upgrades to it, by delegating to itself until out of gas. Thus it is critical that this function revert if invoked through a proxy. This is guaranteed by the `notDelegated` modifier."
      },
      "releasable(address)": {
        "details": "Getter for the amount of payee's releasable Ether."
      },
      "releasable(address,address)": {
        "details": "Getter for the amount of payee's releasable `token` tokens. `token` should be the address of an IERC20 contract."
      },
      "release(address)": {
        "details": "Triggers a transfer to `account` of the amount of Ether they are owed, according to their percentage of the total shares and their previous withdrawals."
      },
      "release(address,address)": {
        "details": "Triggers a transfer to `account` of the amount of `token` tokens they are owed, according to their percentage of the total shares and their previous withdrawals. `token` must be the address of an IERC20 contract."
      },
      "released(address)": {
        "details": "Getter for the amount of Ether already released to a payee."
      },
      "released(address,address)": {
        "details": "Getter for the amount of `token` tokens already released to a payee. `token` should be the address of an IERC20 contract."
      },
      "renounceOwnership()": {
        "details": "Leaves the contract without owner. It will not be possible to call `onlyOwner` functions. Can only be called by the current owner. NOTE: Renouncing ownership will leave the contract without an owner, thereby disabling any functionality that is only available to the owner."
      },
      "setTAdd(address)": {
        "params": {
          "newTAdd": "the address that the owner would like the new URI to be"
        }
      },
      "shares(address)": {
        "details": "Getter for the amount of shares held by an account."
      },
      "symbol()": {
        "details": "Returns the symbol of the token, usually a shorter version of the name."
      },
      "totalReleased()": {
        "details": "Getter for the total amount of Ether already released."
      },
      "totalReleased(address)": {
        "details": "Getter for the total amount of `token` already released. `token` should be the address of an IERC20 contract."
      },
      "totalShares()": {
        "details": "Getter for the total shares held by payees."
      },
      "totalSupply()": {
        "details": "See {IERC20-totalSupply}."
      },
      "transfer(address,uint256)": {
        "details": "See {IERC20-transfer}. Requirements: - `to` cannot be the zero address. - the caller must have a balance of at least `amount`."
      },
      "transferFrom(address,address,uint256)": {
        "details": "See {IERC20-transferFrom}. Emits an {Approval} event indicating the updated allowance. This is not required by the EIP. See the note at the beginning of {ERC20}. NOTE: Does not update the allowance if the current allowance is the maximum `uint256`. Requirements: - `from` and `to` cannot be the zero address. - `from` must have a balance of at least `amount`. - the caller must have allowance for ``from``'s tokens of at least `amount`."
      },
      "transferOwnership(address)": {
        "details": "Transfers ownership of the contract to a new account (`newOwner`). Can only be called by the current owner."
      },
      "unpause()": {
        "details": "can only be called by owner"
      },
      "upgradeTo(address)": {
        "custom:oz-upgrades-unsafe-allow-reachable": "delegatecall",
        "details": "Upgrade the implementation of the proxy to `newImplementation`. Calls {_authorizeUpgrade}. Emits an {Upgraded} event."
      },
      "upgradeToAndCall(address,bytes)": {
        "custom:oz-upgrades-unsafe-allow-reachable": "delegatecall",
        "details": "Upgrade the implementation of the proxy to `newImplementation`, and subsequently execute the function call encoded in `data`. Calls {_authorizeUpgrade}. Emits an {Upgraded} event."
      },
      "withdrawFunds()": {
        "details": "utility function only, shouldn't need to be used."
      }
    },
    "title": "HatcherGG",
    "version": 1
  },
  "userdoc": {
    "errors": {
      "Unauthorized()": [
        {
          "notice": "error given if user other than minter tries to use forbidden funcs"
        }
      ]
    },
    "kind": "user",
    "methods": {
      "initialize()": {
        "notice": "Initialization of contract, called upon deployment"
      },
      "pause()": {
        "notice": "pause any token transfers including mints and burns"
      },
      "setAllOf(address,uint256,address)": {
        "notice": "function should be run after deployment to set up defaults"
      },
      "setTAdd(address)": {
        "notice": "set URI.  Where metadata and images will come from per tokenId"
      },
      "unpause()": {
        "notice": "unpause any token transfers including mints and burns"
      },
      "withdrawFunds()": {
        "notice": "Allow Owner to withdraw of MATIC from the contract"
      }
    },
    "notice": "This contract allows for escrowed NFT breeding",
    "version": 1
  },
  "storageLayout": {
    "storage": [
      {
        "astId": 1031,
        "contract": "contracts/HatcherV1.sol:HatcherV1",
        "label": "_initialized",
        "offset": 0,
        "slot": "0",
        "type": "t_uint8"
      },
      {
        "astId": 1034,
        "contract": "contracts/HatcherV1.sol:HatcherV1",
        "label": "_initializing",
        "offset": 1,
        "slot": "0",
        "type": "t_bool"
      },
      {
        "astId": 3176,
        "contract": "contracts/HatcherV1.sol:HatcherV1",
        "label": "__gap",
        "offset": 0,
        "slot": "1",
        "type": "t_array(t_uint256)50_storage"
      },
      {
        "astId": 1352,
        "contract": "contracts/HatcherV1.sol:HatcherV1",
        "label": "_paused",
        "offset": 0,
        "slot": "51",
        "type": "t_bool"
      },
      {
        "astId": 1457,
        "contract": "contracts/HatcherV1.sol:HatcherV1",
        "label": "__gap",
        "offset": 0,
        "slot": "52",
        "type": "t_array(t_uint256)49_storage"
      },
      {
        "astId": 1013,
        "contract": "contracts/HatcherV1.sol:HatcherV1",
        "label": "__gap",
        "offset": 0,
        "slot": "101",
        "type": "t_array(t_uint256)50_storage"
      },
      {
        "astId": 1329,
        "contract": "contracts/HatcherV1.sol:HatcherV1",
        "label": "__gap",
        "offset": 0,
        "slot": "151",
        "type": "t_array(t_uint256)50_storage"
      },
      {
        "astId": 1478,
        "contract": "contracts/HatcherV1.sol:HatcherV1",
        "label": "_balances",
        "offset": 0,
        "slot": "201",
        "type": "t_mapping(t_address,t_uint256)"
      },
      {
        "astId": 1484,
        "contract": "contracts/HatcherV1.sol:HatcherV1",
        "label": "_allowances",
        "offset": 0,
        "slot": "202",
        "type": "t_mapping(t_address,t_mapping(t_address,t_uint256))"
      },
      {
        "astId": 1486,
        "contract": "contracts/HatcherV1.sol:HatcherV1",
        "label": "_totalSupply",
        "offset": 0,
        "slot": "203",
        "type": "t_uint256"
      },
      {
        "astId": 1488,
        "contract": "contracts/HatcherV1.sol:HatcherV1",
        "label": "_name",
        "offset": 0,
        "slot": "204",
        "type": "t_string_storage"
      },
      {
        "astId": 1490,
        "contract": "contracts/HatcherV1.sol:HatcherV1",
        "label": "_symbol",
        "offset": 0,
        "slot": "205",
        "type": "t_string_storage"
      },
      {
        "astId": 2070,
        "contract": "contracts/HatcherV1.sol:HatcherV1",
        "label": "__gap",
        "offset": 0,
        "slot": "206",
        "type": "t_array(t_uint256)45_storage"
      },
      {
        "astId": 3975,
        "contract": "contracts/HatcherV1.sol:HatcherV1",
        "label": "_hashedName",
        "offset": 0,
        "slot": "251",
        "type": "t_bytes32"
      },
      {
        "astId": 3978,
        "contract": "contracts/HatcherV1.sol:HatcherV1",
        "label": "_hashedVersion",
        "offset": 0,
        "slot": "252",
        "type": "t_bytes32"
      },
      {
        "astId": 3980,
        "contract": "contracts/HatcherV1.sol:HatcherV1",
        "label": "_name",
        "offset": 0,
        "slot": "253",
        "type": "t_string_storage"
      },
      {
        "astId": 3982,
        "contract": "contracts/HatcherV1.sol:HatcherV1",
        "label": "_version",
        "offset": 0,
        "slot": "254",
        "type": "t_string_storage"
      },
      {
        "astId": 4240,
        "contract": "contracts/HatcherV1.sol:HatcherV1",
        "label": "__gap",
        "offset": 0,
        "slot": "255",
        "type": "t_array(t_uint256)48_storage"
      },
      {
        "astId": 2176,
        "contract": "contracts/HatcherV1.sol:HatcherV1",
        "label": "_nonces",
        "offset": 0,
        "slot": "303",
        "type": "t_mapping(t_address,t_struct(Counter)3183_storage)"
      },
      {
        "astId": 2184,
        "contract": "contracts/HatcherV1.sol:HatcherV1",
        "label": "_PERMIT_TYPEHASH_DEPRECATED_SLOT",
        "offset": 0,
        "slot": "304",
        "type": "t_bytes32"
      },
      {
        "astId": 2340,
        "contract": "contracts/HatcherV1.sol:HatcherV1",
        "label": "__gap",
        "offset": 0,
        "slot": "305",
        "type": "t_array(t_uint256)49_storage"
      },
      {
        "astId": 173,
        "contract": "contracts/HatcherV1.sol:HatcherV1",
        "label": "_totalShares",
        "offset": 0,
        "slot": "354",
        "type": "t_uint256"
      },
      {
        "astId": 175,
        "contract": "contracts/HatcherV1.sol:HatcherV1",
        "label": "_totalReleased",
        "offset": 0,
        "slot": "355",
        "type": "t_uint256"
      },
      {
        "astId": 179,
        "contract": "contracts/HatcherV1.sol:HatcherV1",
        "label": "_shares",
        "offset": 0,
        "slot": "356",
        "type": "t_mapping(t_address,t_uint256)"
      },
      {
        "astId": 183,
        "contract": "contracts/HatcherV1.sol:HatcherV1",
        "label": "_released",
        "offset": 0,
        "slot": "357",
        "type": "t_mapping(t_address,t_uint256)"
      },
      {
        "astId": 186,
        "contract": "contracts/HatcherV1.sol:HatcherV1",
        "label": "_payees",
        "offset": 0,
        "slot": "358",
        "type": "t_array(t_address)dyn_storage"
      },
      {
        "astId": 191,
        "contract": "contracts/HatcherV1.sol:HatcherV1",
        "label": "_erc20TotalReleased",
        "offset": 0,
        "slot": "359",
        "type": "t_mapping(t_contract(IERC20Upgradeable)2149,t_uint256)"
      },
      {
        "astId": 198,
        "contract": "contracts/HatcherV1.sol:HatcherV1",
        "label": "_erc20Released",
        "offset": 0,
        "slot": "360",
        "type": "t_mapping(t_contract(IERC20Upgradeable)2149,t_mapping(t_address,t_uint256))"
      },
      {
        "astId": 632,
        "contract": "contracts/HatcherV1.sol:HatcherV1",
        "label": "__gap",
        "offset": 0,
        "slot": "361",
        "type": "t_array(t_uint256)43_storage"
      },
      {
        "astId": 11,
        "contract": "contracts/HatcherV1.sol:HatcherV1",
        "label": "_owner",
        "offset": 0,
        "slot": "404",
        "type": "t_address"
      },
      {
        "astId": 131,
        "contract": "contracts/HatcherV1.sol:HatcherV1",
        "label": "__gap",
        "offset": 0,
        "slot": "405",
        "type": "t_array(t_uint256)49_storage"
      },
      {
        "astId": 8500,
        "contract": "contracts/HatcherV1.sol:HatcherV1",
        "label": "breedContract",
        "offset": 0,
        "slot": "454",
        "type": "t_contract(IBreedContract)8393"
      },
      {
        "astId": 8502,
        "contract": "contracts/HatcherV1.sol:HatcherV1",
        "label": "treasuryAddr",
        "offset": 0,
        "slot": "455",
        "type": "t_address_payable"
      },
      {
        "astId": 8505,
        "contract": "contracts/HatcherV1.sol:HatcherV1",
        "label": "nftPlanetContract",
        "offset": 0,
        "slot": "456",
        "type": "t_contract(IERC721)8379"
      },
      {
        "astId": 8507,
        "contract": "contracts/HatcherV1.sol:HatcherV1",
        "label": "vrfValue",
        "offset": 0,
        "slot": "457",
        "type": "t_uint256"
      },
      {
        "astId": 8513,
        "contract": "contracts/HatcherV1.sol:HatcherV1",
        "label": "userToListedPlanets",
        "offset": 0,
        "slot": "458",
        "type": "t_mapping(t_address,t_array(t_struct(ListedPlanet)8400_storage)dyn_storage)"
      },
      {
        "astId": 8517,
        "contract": "contracts/HatcherV1.sol:HatcherV1",
        "label": "planetsListed",
        "offset": 0,
        "slot": "459",
        "type": "t_array(t_struct(ListedPlanet)8400_storage)dyn_storage"
      },
      {
        "astId": 8521,
        "contract": "contracts/HatcherV1.sol:HatcherV1",
        "label": "claimableTokenIdToOwnerAddress",
        "offset": 0,
        "slot": "460",
        "type": "t_mapping(t_uint256,t_address)"
      },
      {
        "astId": 8527,
        "contract": "contracts/HatcherV1.sol:HatcherV1",
        "label": "claimablePlanets",
        "offset": 0,
        "slot": "461",
        "type": "t_mapping(t_address,t_array(t_struct(ClaimablePlanet)8411_storage)dyn_storage)"
      }
    ],
    "types": {
      "t_address": {
        "encoding": "inplace",
        "label": "address",
        "numberOfBytes": "20"
      },
      "t_address_payable": {
        "encoding": "inplace",
        "label": "address payable",
        "numberOfBytes": "20"
      },
      "t_array(t_address)dyn_storage": {
        "base": "t_address",
        "encoding": "dynamic_array",
        "label": "address[]",
        "numberOfBytes": "32"
      },
      "t_array(t_struct(ClaimablePlanet)8411_storage)dyn_storage": {
        "base": "t_struct(ClaimablePlanet)8411_storage",
        "encoding": "dynamic_array",
        "label": "struct ClaimablePlanet[]",
        "numberOfBytes": "32"
      },
      "t_array(t_struct(ListedPlanet)8400_storage)dyn_storage": {
        "base": "t_struct(ListedPlanet)8400_storage",
        "encoding": "dynamic_array",
        "label": "struct ListedPlanet[]",
        "numberOfBytes": "32"
      },
      "t_array(t_uint256)43_storage": {
        "base": "t_uint256",
        "encoding": "inplace",
        "label": "uint256[43]",
        "numberOfBytes": "1376"
      },
      "t_array(t_uint256)45_storage": {
        "base": "t_uint256",
        "encoding": "inplace",
        "label": "uint256[45]",
        "numberOfBytes": "1440"
      },
      "t_array(t_uint256)48_storage": {
        "base": "t_uint256",
        "encoding": "inplace",
        "label": "uint256[48]",
        "numberOfBytes": "1536"
      },
      "t_array(t_uint256)49_storage": {
        "base": "t_uint256",
        "encoding": "inplace",
        "label": "uint256[49]",
        "numberOfBytes": "1568"
      },
      "t_array(t_uint256)50_storage": {
        "base": "t_uint256",
        "encoding": "inplace",
        "label": "uint256[50]",
        "numberOfBytes": "1600"
      },
      "t_bool": {
        "encoding": "inplace",
        "label": "bool",
        "numberOfBytes": "1"
      },
      "t_bytes32": {
        "encoding": "inplace",
        "label": "bytes32",
        "numberOfBytes": "32"
      },
      "t_contract(IBreedContract)8393": {
        "encoding": "inplace",
        "label": "contract IBreedContract",
        "numberOfBytes": "20"
      },
      "t_contract(IERC20Upgradeable)2149": {
        "encoding": "inplace",
        "label": "contract IERC20Upgradeable",
        "numberOfBytes": "20"
      },
      "t_contract(IERC721)8379": {
        "encoding": "inplace",
        "label": "contract IERC721",
        "numberOfBytes": "20"
      },
      "t_mapping(t_address,t_array(t_struct(ClaimablePlanet)8411_storage)dyn_storage)": {
        "encoding": "mapping",
        "key": "t_address",
        "label": "mapping(address => struct ClaimablePlanet[])",
        "numberOfBytes": "32",
        "value": "t_array(t_struct(ClaimablePlanet)8411_storage)dyn_storage"
      },
      "t_mapping(t_address,t_array(t_struct(ListedPlanet)8400_storage)dyn_storage)": {
        "encoding": "mapping",
        "key": "t_address",
        "label": "mapping(address => struct ListedPlanet[])",
        "numberOfBytes": "32",
        "value": "t_array(t_struct(ListedPlanet)8400_storage)dyn_storage"
      },
      "t_mapping(t_address,t_mapping(t_address,t_uint256))": {
        "encoding": "mapping",
        "key": "t_address",
        "label": "mapping(address => mapping(address => uint256))",
        "numberOfBytes": "32",
        "value": "t_mapping(t_address,t_uint256)"
      },
      "t_mapping(t_address,t_struct(Counter)3183_storage)": {
        "encoding": "mapping",
        "key": "t_address",
        "label": "mapping(address => struct CountersUpgradeable.Counter)",
        "numberOfBytes": "32",
        "value": "t_struct(Counter)3183_storage"
      },
      "t_mapping(t_address,t_uint256)": {
        "encoding": "mapping",
        "key": "t_address",
        "label": "mapping(address => uint256)",
        "numberOfBytes": "32",
        "value": "t_uint256"
      },
      "t_mapping(t_contract(IERC20Upgradeable)2149,t_mapping(t_address,t_uint256))": {
        "encoding": "mapping",
        "key": "t_contract(IERC20Upgradeable)2149",
        "label": "mapping(contract IERC20Upgradeable => mapping(address => uint256))",
        "numberOfBytes": "32",
        "value": "t_mapping(t_address,t_uint256)"
      },
      "t_mapping(t_contract(IERC20Upgradeable)2149,t_uint256)": {
        "encoding": "mapping",
        "key": "t_contract(IERC20Upgradeable)2149",
        "label": "mapping(contract IERC20Upgradeable => uint256)",
        "numberOfBytes": "32",
        "value": "t_uint256"
      },
      "t_mapping(t_uint256,t_address)": {
        "encoding": "mapping",
        "key": "t_uint256",
        "label": "mapping(uint256 => address)",
        "numberOfBytes": "32",
        "value": "t_address"
      },
      "t_string_storage": {
        "encoding": "bytes",
        "label": "string",
        "numberOfBytes": "32"
      },
      "t_struct(ClaimablePlanet)8411_storage": {
        "encoding": "inplace",
        "label": "struct ClaimablePlanet",
        "members": [
          {
            "astId": 8402,
            "contract": "contracts/HatcherV1.sol:HatcherV1",
            "label": "ownerParentAddress",
            "offset": 0,
            "slot": "0",
            "type": "t_address"
          },
          {
            "astId": 8404,
            "contract": "contracts/HatcherV1.sol:HatcherV1",
            "label": "ownerTokenId",
            "offset": 0,
            "slot": "1",
            "type": "t_uint256"
          },
          {
            "astId": 8406,
            "contract": "contracts/HatcherV1.sol:HatcherV1",
            "label": "delivered",
            "offset": 0,
            "slot": "2",
            "type": "t_bool"
          },
          {
            "astId": 8408,
            "contract": "contracts/HatcherV1.sol:HatcherV1",
            "label": "otherParent",
            "offset": 1,
            "slot": "2",
            "type": "t_address"
          },
          {
            "astId": 8410,
            "contract": "contracts/HatcherV1.sol:HatcherV1",
            "label": "otherTokenId",
            "offset": 0,
            "slot": "3",
            "type": "t_uint256"
          }
        ],
        "numberOfBytes": "128"
      },
      "t_struct(Counter)3183_storage": {
        "encoding": "inplace",
        "label": "struct CountersUpgradeable.Counter",
        "members": [
          {
            "astId": 3182,
            "contract": "contracts/HatcherV1.sol:HatcherV1",
            "label": "_value",
            "offset": 0,
            "slot": "0",
            "type": "t_uint256"
          }
        ],
        "numberOfBytes": "32"
      },
      "t_struct(ListedPlanet)8400_storage": {
        "encoding": "inplace",
        "label": "struct ListedPlanet",
        "members": [
          {
            "astId": 8395,
            "contract": "contracts/HatcherV1.sol:HatcherV1",
            "label": "planet",
            "offset": 0,
            "slot": "0",
            "type": "t_uint256"
          },
          {
            "astId": 8397,
            "contract": "contracts/HatcherV1.sol:HatcherV1",
            "label": "price",
            "offset": 0,
            "slot": "1",
            "type": "t_uint256"
          },
          {
            "astId": 8399,
            "contract": "contracts/HatcherV1.sol:HatcherV1",
            "label": "ownerAddress",
            "offset": 0,
            "slot": "2",
            "type": "t_address"
          }
        ],
        "numberOfBytes": "96"
      },
      "t_uint256": {
        "encoding": "inplace",
        "label": "uint256",
        "numberOfBytes": "32"
      },
      "t_uint8": {
        "encoding": "inplace",
        "label": "uint8",
        "numberOfBytes": "1"
      }
    }
  }
}