{
  "_format": "hh-sol-artifact-1",
  "contractName": "HatcherV3",
  "sourceName": "contracts/HatcherV3.sol",
  "abi": [
    {
      "inputs": [],
      "name": "Unauthorized",
      "type": "error"
    },
    {
      "anonymous": false,
      "inputs": [
        {
          "indexed": false,
          "internalType": "address",
          "name": "previousAdmin",
          "type": "address"
        },
        {
          "indexed": false,
          "internalType": "address",
          "name": "newAdmin",
          "type": "address"
        }
      ],
      "name": "AdminChanged",
      "type": "event"
    },
    {
      "anonymous": false,
      "inputs": [
        {
          "indexed": true,
          "internalType": "address",
          "name": "owner",
          "type": "address"
        },
        {
          "indexed": true,
          "internalType": "address",
          "name": "spender",
          "type": "address"
        },
        {
          "indexed": false,
          "internalType": "uint256",
          "name": "value",
          "type": "uint256"
        }
      ],
      "name": "Approval",
      "type": "event"
    },
    {
      "anonymous": false,
      "inputs": [
        {
          "indexed": true,
          "internalType": "address",
          "name": "beacon",
          "type": "address"
        }
      ],
      "name": "BeaconUpgraded",
      "type": "event"
    },
    {
      "anonymous": false,
      "inputs": [
        {
          "indexed": false,
          "internalType": "address",
          "name": "sentToUser",
          "type": "address"
        },
        {
          "indexed": false,
          "internalType": "address",
          "name": "token",
          "type": "address"
        },
        {
          "indexed": false,
          "internalType": "uint256",
          "name": "tokenId",
          "type": "uint256"
        },
        {
          "indexed": false,
          "internalType": "bool",
          "name": "success",
          "type": "bool"
        }
      ],
      "name": "DeClaimedAPlanet",
      "type": "event"
    },
    {
      "anonymous": false,
      "inputs": [
        {
          "indexed": false,
          "internalType": "address",
          "name": "sentToUser",
          "type": "address"
        },
        {
          "indexed": false,
          "internalType": "address",
          "name": "token",
          "type": "address"
        },
        {
          "indexed": false,
          "internalType": "uint256",
          "name": "tokenId",
          "type": "uint256"
        },
        {
          "indexed": false,
          "internalType": "bool",
          "name": "success",
          "type": "bool"
        }
      ],
      "name": "DeListedAPlanet",
      "type": "event"
    },
    {
      "anonymous": false,
      "inputs": [],
      "name": "EIP712DomainChanged",
      "type": "event"
    },
    {
      "anonymous": false,
      "inputs": [
        {
          "indexed": true,
          "internalType": "contract IERC20Upgradeable",
          "name": "token",
          "type": "address"
        },
        {
          "indexed": false,
          "internalType": "address",
          "name": "to",
          "type": "address"
        },
        {
          "indexed": false,
          "internalType": "uint256",
          "name": "amount",
          "type": "uint256"
        }
      ],
      "name": "ERC20PaymentReleased",
      "type": "event"
    },
    {
      "anonymous": false,
      "inputs": [
        {
          "indexed": false,
          "internalType": "uint8",
          "name": "version",
          "type": "uint8"
        }
      ],
      "name": "Initialized",
      "type": "event"
    },
    {
      "anonymous": false,
      "inputs": [
        {
          "indexed": false,
          "internalType": "address",
          "name": "sentFromUser",
          "type": "address"
        },
        {
          "indexed": false,
          "internalType": "address",
          "name": "token",
          "type": "address"
        },
        {
          "indexed": false,
          "internalType": "uint256",
          "name": "tokenId",
          "type": "uint256"
        },
        {
          "indexed": false,
          "internalType": "uint256",
          "name": "price",
          "type": "uint256"
        }
      ],
      "name": "ListedAPlanet",
      "type": "event"
    },
    {
      "anonymous": false,
      "inputs": [
        {
          "indexed": false,
          "internalType": "address",
          "name": "operator",
          "type": "address"
        },
        {
          "indexed": false,
          "internalType": "address",
          "name": "from",
          "type": "address"
        },
        {
          "indexed": false,
          "internalType": "uint256",
          "name": "tokenId",
          "type": "uint256"
        },
        {
          "indexed": false,
          "internalType": "bytes",
          "name": "data",
          "type": "bytes"
        },
        {
          "indexed": false,
          "internalType": "string",
          "name": "typeOfReceival",
          "type": "string"
        }
      ],
      "name": "NftReceived",
      "type": "event"
    },
    {
      "anonymous": false,
      "inputs": [
        {
          "indexed": true,
          "internalType": "address",
          "name": "previousOwner",
          "type": "address"
        },
        {
          "indexed": true,
          "internalType": "address",
          "name": "newOwner",
          "type": "address"
        }
      ],
      "name": "OwnershipTransferred",
      "type": "event"
    },
    {
      "anonymous": false,
      "inputs": [
        {
          "indexed": false,
          "internalType": "address",
          "name": "account",
          "type": "address"
        }
      ],
      "name": "Paused",
      "type": "event"
    },
    {
      "anonymous": false,
      "inputs": [
        {
          "indexed": false,
          "internalType": "address",
          "name": "account",
          "type": "address"
        },
        {
          "indexed": false,
          "internalType": "uint256",
          "name": "shares",
          "type": "uint256"
        }
      ],
      "name": "PayeeAdded",
      "type": "event"
    },
    {
      "anonymous": false,
      "inputs": [
        {
          "indexed": false,
          "internalType": "address",
          "name": "from",
          "type": "address"
        },
        {
          "indexed": false,
          "internalType": "uint256",
          "name": "amount",
          "type": "uint256"
        }
      ],
      "name": "PaymentReceived",
      "type": "event"
    },
    {
      "anonymous": false,
      "inputs": [
        {
          "indexed": false,
          "internalType": "address",
          "name": "to",
          "type": "address"
        },
        {
          "indexed": false,
          "internalType": "uint256",
          "name": "amount",
          "type": "uint256"
        }
      ],
      "name": "PaymentReleased",
      "type": "event"
    },
    {
      "anonymous": false,
      "inputs": [
        {
          "indexed": false,
          "internalType": "uint256",
          "name": "planetAsking",
          "type": "uint256"
        },
        {
          "indexed": false,
          "internalType": "address",
          "name": "askingUser",
          "type": "address"
        },
        {
          "indexed": false,
          "internalType": "uint256",
          "name": "planetJoining",
          "type": "uint256"
        },
        {
          "indexed": false,
          "internalType": "address",
          "name": "joiningUser",
          "type": "address"
        }
      ],
      "name": "PlanetsConjoining",
      "type": "event"
    },
    {
      "anonymous": false,
      "inputs": [
        {
          "indexed": true,
          "internalType": "address",
          "name": "from",
          "type": "address"
        },
        {
          "indexed": true,
          "internalType": "address",
          "name": "to",
          "type": "address"
        },
        {
          "indexed": false,
          "internalType": "uint256",
          "name": "value",
          "type": "uint256"
        }
      ],
      "name": "Transfer",
      "type": "event"
    },
    {
      "anonymous": false,
      "inputs": [
        {
          "indexed": false,
          "internalType": "address",
          "name": "account",
          "type": "address"
        }
      ],
      "name": "Unpaused",
      "type": "event"
    },
    {
      "anonymous": false,
      "inputs": [
        {
          "indexed": true,
          "internalType": "address",
          "name": "implementation",
          "type": "address"
        }
      ],
      "name": "Upgraded",
      "type": "event"
    },
    {
      "stateMutability": "payable",
      "type": "fallback"
    },
    {
      "inputs": [],
      "name": "DOMAIN_SEPARATOR",
      "outputs": [
        {
          "internalType": "bytes32",
          "name": "",
          "type": "bytes32"
        }
      ],
      "stateMutability": "view",
      "type": "function"
    },
    {
      "inputs": [
        {
          "internalType": "address",
          "name": "owner",
          "type": "address"
        },
        {
          "internalType": "address",
          "name": "spender",
          "type": "address"
        }
      ],
      "name": "allowance",
      "outputs": [
        {
          "internalType": "uint256",
          "name": "",
          "type": "uint256"
        }
      ],
      "stateMutability": "view",
      "type": "function"
    },
    {
      "inputs": [
        {
          "internalType": "address",
          "name": "spender",
          "type": "address"
        },
        {
          "internalType": "uint256",
          "name": "amount",
          "type": "uint256"
        }
      ],
      "name": "approve",
      "outputs": [
        {
          "internalType": "bool",
          "name": "",
          "type": "bool"
        }
      ],
      "stateMutability": "nonpayable",
      "type": "function"
    },
    {
      "inputs": [
        {
          "internalType": "contract IERC721",
          "name": "token",
          "type": "address"
        },
        {
          "internalType": "address",
          "name": "operator",
          "type": "address"
        }
      ],
      "name": "approveAllERC721Tokens",
      "outputs": [],
      "stateMutability": "nonpayable",
      "type": "function"
    },
    {
      "inputs": [
        {
          "internalType": "contract IERC20",
          "name": "token",
          "type": "address"
        },
        {
          "internalType": "address",
          "name": "spender",
          "type": "address"
        },
        {
          "internalType": "uint256",
          "name": "amount",
          "type": "uint256"
        }
      ],
      "name": "approveERC20",
      "outputs": [],
      "stateMutability": "nonpayable",
      "type": "function"
    },
    {
      "inputs": [
        {
          "internalType": "address",
          "name": "account",
          "type": "address"
        }
      ],
      "name": "balanceOf",
      "outputs": [
        {
          "internalType": "uint256",
          "name": "",
          "type": "uint256"
        }
      ],
      "stateMutability": "view",
      "type": "function"
    },
    {
      "inputs": [],
      "name": "breedContract",
      "outputs": [
        {
          "internalType": "contract IBreedContract",
          "name": "",
          "type": "address"
        }
      ],
      "stateMutability": "view",
      "type": "function"
    },
    {
      "inputs": [
        {
          "internalType": "uint256",
          "name": "newVRF",
          "type": "uint256"
        }
      ],
      "name": "changeVRFValue",
      "outputs": [],
      "stateMutability": "nonpayable",
      "type": "function"
    },
    {
      "inputs": [
        {
          "internalType": "address",
          "name": "owner",
          "type": "address"
        },
        {
          "internalType": "address",
          "name": "operator",
          "type": "address"
        }
      ],
      "name": "checkApprovalForAll",
      "outputs": [
        {
          "internalType": "bool",
          "name": "",
          "type": "bool"
        }
      ],
      "stateMutability": "view",
      "type": "function"
    },
    {
      "inputs": [
        {
          "internalType": "uint256",
          "name": "claimableTokenId",
          "type": "uint256"
        }
      ],
      "name": "claimPlanet",
      "outputs": [],
      "stateMutability": "nonpayable",
      "type": "function"
    },
    {
      "inputs": [
        {
          "internalType": "address",
          "name": "",
          "type": "address"
        },
        {
          "internalType": "uint256",
          "name": "",
          "type": "uint256"
        }
      ],
      "name": "claimablePlanets",
      "outputs": [
        {
          "internalType": "address",
          "name": "ownerParentAddress",
          "type": "address"
        },
        {
          "internalType": "uint256",
          "name": "ownerTokenId",
          "type": "uint256"
        },
        {
          "internalType": "bool",
          "name": "delivered",
          "type": "bool"
        },
        {
          "internalType": "bool",
          "name": "arrived",
          "type": "bool"
        },
        {
          "internalType": "address",
          "name": "otherParent",
          "type": "address"
        },
        {
          "internalType": "uint256",
          "name": "otherTokenId",
          "type": "uint256"
        },
        {
          "internalType": "uint256",
          "name": "claimsTokenId",
          "type": "uint256"
        }
      ],
      "stateMutability": "view",
      "type": "function"
    },
    {
      "inputs": [
        {
          "internalType": "uint256",
          "name": "",
          "type": "uint256"
        }
      ],
      "name": "claimantTokenIdToOwnerAddress",
      "outputs": [
        {
          "internalType": "address",
          "name": "",
          "type": "address"
        }
      ],
      "stateMutability": "view",
      "type": "function"
    },
    {
      "inputs": [
        {
          "internalType": "uint256",
          "name": "yourPlanet",
          "type": "uint256"
        },
        {
          "internalType": "uint256",
          "name": "withListedPlanet",
          "type": "uint256"
        }
      ],
      "name": "conjunct",
      "outputs": [],
      "stateMutability": "payable",
      "type": "function"
    },
    {
      "inputs": [
        {
          "internalType": "uint256",
          "name": "idIndex",
          "type": "uint256"
        },
        {
          "internalType": "uint256",
          "name": "tokenId",
          "type": "uint256"
        }
      ],
      "name": "deList",
      "outputs": [],
      "stateMutability": "nonpayable",
      "type": "function"
    },
    {
      "inputs": [],
      "name": "deListAllYourPlanets",
      "outputs": [],
      "stateMutability": "nonpayable",
      "type": "function"
    },
    {
      "inputs": [],
      "name": "decimals",
      "outputs": [
        {
          "internalType": "uint8",
          "name": "",
          "type": "uint8"
        }
      ],
      "stateMutability": "view",
      "type": "function"
    },
    {
      "inputs": [
        {
          "internalType": "address",
          "name": "spender",
          "type": "address"
        },
        {
          "internalType": "uint256",
          "name": "subtractedValue",
          "type": "uint256"
        }
      ],
      "name": "decreaseAllowance",
      "outputs": [
        {
          "internalType": "bool",
          "name": "",
          "type": "bool"
        }
      ],
      "stateMutability": "nonpayable",
      "type": "function"
    },
    {
      "inputs": [],
      "name": "eip712Domain",
      "outputs": [
        {
          "internalType": "bytes1",
          "name": "fields",
          "type": "bytes1"
        },
        {
          "internalType": "string",
          "name": "name",
          "type": "string"
        },
        {
          "internalType": "string",
          "name": "version",
          "type": "string"
        },
        {
          "internalType": "uint256",
          "name": "chainId",
          "type": "uint256"
        },
        {
          "internalType": "address",
          "name": "verifyingContract",
          "type": "address"
        },
        {
          "internalType": "bytes32",
          "name": "salt",
          "type": "bytes32"
        },
        {
          "internalType": "uint256[]",
          "name": "extensions",
          "type": "uint256[]"
        }
      ],
      "stateMutability": "view",
      "type": "function"
    },
    {
      "inputs": [],
      "name": "getAllPlanets",
      "outputs": [
        {
          "components": [
            {
              "internalType": "uint256",
              "name": "tokenId",
              "type": "uint256"
            },
            {
              "internalType": "uint256",
              "name": "price",
              "type": "uint256"
            },
            {
              "internalType": "address",
              "name": "ownerAddress",
              "type": "address"
            },
            {
              "internalType": "bool",
              "name": "active",
              "type": "bool"
            }
          ],
          "internalType": "struct ListedPlanet[]",
          "name": "",
          "type": "tuple[]"
        }
      ],
      "stateMutability": "view",
      "type": "function"
    },
    {
      "inputs": [
        {
          "internalType": "address",
          "name": "userAddr",
          "type": "address"
        }
      ],
      "name": "getClaimablePlanetsFor",
      "outputs": [
        {
          "components": [
            {
              "internalType": "address",
              "name": "ownerParentAddress",
              "type": "address"
            },
            {
              "internalType": "uint256",
              "name": "ownerTokenId",
              "type": "uint256"
            },
            {
              "internalType": "bool",
              "name": "delivered",
              "type": "bool"
            },
            {
              "internalType": "bool",
              "name": "arrived",
              "type": "bool"
            },
            {
              "internalType": "address",
              "name": "otherParent",
              "type": "address"
            },
            {
              "internalType": "uint256",
              "name": "otherTokenId",
              "type": "uint256"
            },
            {
              "internalType": "uint256",
              "name": "claimsTokenId",
              "type": "uint256"
            }
          ],
          "internalType": "struct ClaimablePlanet[]",
          "name": "",
          "type": "tuple[]"
        }
      ],
      "stateMutability": "view",
      "type": "function"
    },
    {
      "inputs": [
        {
          "internalType": "uint256",
          "name": "claimableTokenId",
          "type": "uint256"
        }
      ],
      "name": "getClaimantTokenIdToOwnerAddress",
      "outputs": [
        {
          "internalType": "address",
          "name": "",
          "type": "address"
        }
      ],
      "stateMutability": "view",
      "type": "function"
    },
    {
      "inputs": [
        {
          "internalType": "uint256",
          "name": "listedTokenId",
          "type": "uint256"
        }
      ],
      "name": "getListedTokenIdToOwnerAddr",
      "outputs": [
        {
          "internalType": "address",
          "name": "",
          "type": "address"
        }
      ],
      "stateMutability": "view",
      "type": "function"
    },
    {
      "inputs": [
        {
          "internalType": "uint256",
          "name": "startIndex",
          "type": "uint256"
        },
        {
          "internalType": "uint256",
          "name": "endIndex",
          "type": "uint256"
        }
      ],
      "name": "getPlanetsPaginated",
      "outputs": [
        {
          "components": [
            {
              "internalType": "uint256",
              "name": "tokenId",
              "type": "uint256"
            },
            {
              "internalType": "uint256",
              "name": "price",
              "type": "uint256"
            },
            {
              "internalType": "address",
              "name": "ownerAddress",
              "type": "address"
            },
            {
              "internalType": "bool",
              "name": "active",
              "type": "bool"
            }
          ],
          "internalType": "struct ListedPlanet[]",
          "name": "",
          "type": "tuple[]"
        }
      ],
      "stateMutability": "view",
      "type": "function"
    },
    {
      "inputs": [
        {
          "internalType": "address",
          "name": "userAddr",
          "type": "address"
        }
      ],
      "name": "getuserToListedPlanets",
      "outputs": [
        {
          "components": [
            {
              "internalType": "uint256",
              "name": "tokenId",
              "type": "uint256"
            },
            {
              "internalType": "uint256",
              "name": "price",
              "type": "uint256"
            },
            {
              "internalType": "address",
              "name": "ownerAddress",
              "type": "address"
            },
            {
              "internalType": "bool",
              "name": "active",
              "type": "bool"
            }
          ],
          "internalType": "struct ListedPlanet[]",
          "name": "",
          "type": "tuple[]"
        }
      ],
      "stateMutability": "view",
      "type": "function"
    },
    {
      "inputs": [
        {
          "internalType": "address",
          "name": "owner",
          "type": "address"
        },
        {
          "internalType": "uint256",
          "name": "tokenId",
          "type": "uint256"
        }
      ],
      "name": "hasPlanetArrived",
      "outputs": [
        {
          "internalType": "bool",
          "name": "arrived",
          "type": "bool"
        }
      ],
      "stateMutability": "view",
      "type": "function"
    },
    {
      "inputs": [
        {
          "internalType": "address",
          "name": "owner",
          "type": "address"
        },
        {
          "internalType": "uint256",
          "name": "tokenId",
          "type": "uint256"
        }
      ],
      "name": "hasPlanetBeenDelivered",
      "outputs": [
        {
          "internalType": "bool",
          "name": "delivered",
          "type": "bool"
        }
      ],
      "stateMutability": "view",
      "type": "function"
    },
    {
      "inputs": [
        {
          "internalType": "address",
          "name": "spender",
          "type": "address"
        },
        {
          "internalType": "uint256",
          "name": "addedValue",
          "type": "uint256"
        }
      ],
      "name": "increaseAllowance",
      "outputs": [
        {
          "internalType": "bool",
          "name": "",
          "type": "bool"
        }
      ],
      "stateMutability": "nonpayable",
      "type": "function"
    },
    {
      "inputs": [
        {
          "internalType": "address",
          "name": "initialOwner",
          "type": "address"
        }
      ],
      "name": "initialize",
      "outputs": [],
      "stateMutability": "nonpayable",
      "type": "function"
    },
    {
      "inputs": [],
      "name": "listAllYourPlanets",
      "outputs": [],
      "stateMutability": "nonpayable",
      "type": "function"
    },
    {
      "inputs": [
        {
          "internalType": "uint256",
          "name": "",
          "type": "uint256"
        }
      ],
      "name": "listedTokenIdToOwnerAddr",
      "outputs": [
        {
          "internalType": "address",
          "name": "",
          "type": "address"
        }
      ],
      "stateMutability": "view",
      "type": "function"
    },
    {
      "inputs": [],
      "name": "name",
      "outputs": [
        {
          "internalType": "string",
          "name": "",
          "type": "string"
        }
      ],
      "stateMutability": "view",
      "type": "function"
    },
    {
      "inputs": [
        {
          "internalType": "address",
          "name": "owner",
          "type": "address"
        }
      ],
      "name": "nonces",
      "outputs": [
        {
          "internalType": "uint256",
          "name": "",
          "type": "uint256"
        }
      ],
      "stateMutability": "view",
      "type": "function"
    },
    {
      "inputs": [
        {
          "internalType": "address",
          "name": "operator",
          "type": "address"
        },
        {
          "internalType": "address",
          "name": "from",
          "type": "address"
        },
        {
          "internalType": "uint256",
          "name": "tokenId",
          "type": "uint256"
        },
        {
          "internalType": "bytes",
          "name": "data",
          "type": "bytes"
        }
      ],
      "name": "onERC721Received",
      "outputs": [
        {
          "internalType": "bytes4",
          "name": "",
          "type": "bytes4"
        }
      ],
      "stateMutability": "nonpayable",
      "type": "function"
    },
    {
      "inputs": [
        {
          "internalType": "uint256",
          "name": "",
          "type": "uint256"
        },
        {
          "internalType": "uint256",
          "name": "",
          "type": "uint256"
        }
      ],
      "name": "orphanClaims",
      "outputs": [
        {
          "internalType": "address",
          "name": "ownerParentAddress",
          "type": "address"
        },
        {
          "internalType": "uint256",
          "name": "ownerTokenId",
          "type": "uint256"
        },
        {
          "internalType": "bool",
          "name": "delivered",
          "type": "bool"
        },
        {
          "internalType": "bool",
          "name": "arrived",
          "type": "bool"
        },
        {
          "internalType": "address",
          "name": "otherParent",
          "type": "address"
        },
        {
          "internalType": "uint256",
          "name": "otherTokenId",
          "type": "uint256"
        },
        {
          "internalType": "uint256",
          "name": "claimsTokenId",
          "type": "uint256"
        }
      ],
      "stateMutability": "view",
      "type": "function"
    },
    {
      "inputs": [],
      "name": "owner",
      "outputs": [
        {
          "internalType": "address",
          "name": "",
          "type": "address"
        }
      ],
      "stateMutability": "view",
      "type": "function"
    },
    {
      "inputs": [
        {
          "internalType": "uint256",
          "name": "claimableTokenId",
          "type": "uint256"
        },
        {
          "internalType": "address",
          "name": "sendToAddr",
          "type": "address"
        }
      ],
      "name": "ownerClaimPlanet",
      "outputs": [],
      "stateMutability": "nonpayable",
      "type": "function"
    },
    {
      "inputs": [
        {
          "internalType": "uint256",
          "name": "tokenId",
          "type": "uint256"
        },
        {
          "internalType": "address",
          "name": "destinationAddr",
          "type": "address"
        }
      ],
      "name": "ownerOverrideSendNFT",
      "outputs": [],
      "stateMutability": "nonpayable",
      "type": "function"
    },
    {
      "inputs": [],
      "name": "pause",
      "outputs": [],
      "stateMutability": "nonpayable",
      "type": "function"
    },
    {
      "inputs": [],
      "name": "paused",
      "outputs": [
        {
          "internalType": "bool",
          "name": "",
          "type": "bool"
        }
      ],
      "stateMutability": "view",
      "type": "function"
    },
    {
      "inputs": [
        {
          "internalType": "uint256",
          "name": "index",
          "type": "uint256"
        }
      ],
      "name": "payee",
      "outputs": [
        {
          "internalType": "address",
          "name": "",
          "type": "address"
        }
      ],
      "stateMutability": "view",
      "type": "function"
    },
    {
      "inputs": [
        {
          "internalType": "address",
          "name": "owner",
          "type": "address"
        },
        {
          "internalType": "address",
          "name": "spender",
          "type": "address"
        },
        {
          "internalType": "uint256",
          "name": "value",
          "type": "uint256"
        },
        {
          "internalType": "uint256",
          "name": "deadline",
          "type": "uint256"
        },
        {
          "internalType": "uint8",
          "name": "v",
          "type": "uint8"
        },
        {
          "internalType": "bytes32",
          "name": "r",
          "type": "bytes32"
        },
        {
          "internalType": "bytes32",
          "name": "s",
          "type": "bytes32"
        }
      ],
      "name": "permit",
      "outputs": [],
      "stateMutability": "nonpayable",
      "type": "function"
    },
    {
      "inputs": [],
      "name": "proxiableUUID",
      "outputs": [
        {
          "internalType": "bytes32",
          "name": "",
          "type": "bytes32"
        }
      ],
      "stateMutability": "view",
      "type": "function"
    },
    {
      "inputs": [
        {
          "internalType": "address",
          "name": "account",
          "type": "address"
        }
      ],
      "name": "releasable",
      "outputs": [
        {
          "internalType": "uint256",
          "name": "",
          "type": "uint256"
        }
      ],
      "stateMutability": "view",
      "type": "function"
    },
    {
      "inputs": [
        {
          "internalType": "contract IERC20Upgradeable",
          "name": "token",
          "type": "address"
        },
        {
          "internalType": "address",
          "name": "account",
          "type": "address"
        }
      ],
      "name": "releasable",
      "outputs": [
        {
          "internalType": "uint256",
          "name": "",
          "type": "uint256"
        }
      ],
      "stateMutability": "view",
      "type": "function"
    },
    {
      "inputs": [
        {
          "internalType": "address payable",
          "name": "account",
          "type": "address"
        }
      ],
      "name": "release",
      "outputs": [],
      "stateMutability": "nonpayable",
      "type": "function"
    },
    {
      "inputs": [
        {
          "internalType": "contract IERC20Upgradeable",
          "name": "token",
          "type": "address"
        },
        {
          "internalType": "address",
          "name": "account",
          "type": "address"
        }
      ],
      "name": "release",
      "outputs": [],
      "stateMutability": "nonpayable",
      "type": "function"
    },
    {
      "inputs": [
        {
          "internalType": "contract IERC20Upgradeable",
          "name": "token",
          "type": "address"
        },
        {
          "internalType": "address",
          "name": "account",
          "type": "address"
        }
      ],
      "name": "released",
      "outputs": [
        {
          "internalType": "uint256",
          "name": "",
          "type": "uint256"
        }
      ],
      "stateMutability": "view",
      "type": "function"
    },
    {
      "inputs": [
        {
          "internalType": "address",
          "name": "account",
          "type": "address"
        }
      ],
      "name": "released",
      "outputs": [
        {
          "internalType": "uint256",
          "name": "",
          "type": "uint256"
        }
      ],
      "stateMutability": "view",
      "type": "function"
    },
    {
      "inputs": [],
      "name": "renounceOwnership",
      "outputs": [],
      "stateMutability": "nonpayable",
      "type": "function"
    },
    {
      "inputs": [
        {
          "internalType": "address",
          "name": "_breederContractAddr",
          "type": "address"
        },
        {
          "internalType": "uint256",
          "name": "_vrfValue",
          "type": "uint256"
        },
        {
          "internalType": "address",
          "name": "_nftContractAddr",
          "type": "address"
        },
        {
          "internalType": "address",
          "name": "_aprsContract",
          "type": "address"
        },
        {
          "internalType": "address",
          "name": "_animaContract",
          "type": "address"
        }
      ],
      "name": "setAllOf",
      "outputs": [],
      "stateMutability": "nonpayable",
      "type": "function"
    },
    {
      "inputs": [
        {
          "internalType": "uint256",
          "name": "_toThisPercentage",
          "type": "uint256"
        }
      ],
      "name": "setMktFee",
      "outputs": [],
      "stateMutability": "nonpayable",
      "type": "function"
    },
    {
      "inputs": [
        {
          "internalType": "address payable",
          "name": "newTAdd",
          "type": "address"
        }
      ],
      "name": "setTAdd",
      "outputs": [],
      "stateMutability": "nonpayable",
      "type": "function"
    },
    {
      "inputs": [
        {
          "internalType": "address",
          "name": "account",
          "type": "address"
        }
      ],
      "name": "shares",
      "outputs": [
        {
          "internalType": "uint256",
          "name": "",
          "type": "uint256"
        }
      ],
      "stateMutability": "view",
      "type": "function"
    },
    {
      "inputs": [],
      "name": "status",
      "outputs": [],
      "stateMutability": "nonpayable",
      "type": "function"
    },
    {
      "inputs": [],
      "name": "symbol",
      "outputs": [
        {
          "internalType": "string",
          "name": "",
          "type": "string"
        }
      ],
      "stateMutability": "view",
      "type": "function"
    },
    {
      "inputs": [
        {
          "internalType": "uint256",
          "name": "",
          "type": "uint256"
        }
      ],
      "name": "tokenIdClaimableToOwnerAddr",
      "outputs": [
        {
          "internalType": "address",
          "name": "",
          "type": "address"
        }
      ],
      "stateMutability": "view",
      "type": "function"
    },
    {
      "inputs": [
        {
          "internalType": "contract IERC20Upgradeable",
          "name": "token",
          "type": "address"
        }
      ],
      "name": "totalReleased",
      "outputs": [
        {
          "internalType": "uint256",
          "name": "",
          "type": "uint256"
        }
      ],
      "stateMutability": "view",
      "type": "function"
    },
    {
      "inputs": [],
      "name": "totalReleased",
      "outputs": [
        {
          "internalType": "uint256",
          "name": "",
          "type": "uint256"
        }
      ],
      "stateMutability": "view",
      "type": "function"
    },
    {
      "inputs": [],
      "name": "totalShares",
      "outputs": [
        {
          "internalType": "uint256",
          "name": "",
          "type": "uint256"
        }
      ],
      "stateMutability": "view",
      "type": "function"
    },
    {
      "inputs": [],
      "name": "totalSupply",
      "outputs": [
        {
          "internalType": "uint256",
          "name": "",
          "type": "uint256"
        }
      ],
      "stateMutability": "view",
      "type": "function"
    },
    {
      "inputs": [
        {
          "internalType": "address",
          "name": "to",
          "type": "address"
        },
        {
          "internalType": "uint256",
          "name": "amount",
          "type": "uint256"
        }
      ],
      "name": "transfer",
      "outputs": [
        {
          "internalType": "bool",
          "name": "",
          "type": "bool"
        }
      ],
      "stateMutability": "nonpayable",
      "type": "function"
    },
    {
      "inputs": [
        {
          "internalType": "address",
          "name": "from",
          "type": "address"
        },
        {
          "internalType": "address",
          "name": "to",
          "type": "address"
        },
        {
          "internalType": "uint256",
          "name": "amount",
          "type": "uint256"
        }
      ],
      "name": "transferFrom",
      "outputs": [
        {
          "internalType": "bool",
          "name": "",
          "type": "bool"
        }
      ],
      "stateMutability": "nonpayable",
      "type": "function"
    },
    {
      "inputs": [
        {
          "internalType": "address",
          "name": "newOwner",
          "type": "address"
        }
      ],
      "name": "transferOwnership",
      "outputs": [],
      "stateMutability": "nonpayable",
      "type": "function"
    },
    {
      "inputs": [],
      "name": "unpause",
      "outputs": [],
      "stateMutability": "nonpayable",
      "type": "function"
    },
    {
      "inputs": [
        {
          "internalType": "address",
          "name": "newImplementation",
          "type": "address"
        }
      ],
      "name": "upgradeTo",
      "outputs": [],
      "stateMutability": "nonpayable",
      "type": "function"
    },
    {
      "inputs": [
        {
          "internalType": "address",
          "name": "newImplementation",
          "type": "address"
        },
        {
          "internalType": "bytes",
          "name": "data",
          "type": "bytes"
        }
      ],
      "name": "upgradeToAndCall",
      "outputs": [],
      "stateMutability": "payable",
      "type": "function"
    },
    {
      "inputs": [
        {
          "internalType": "address",
          "name": "",
          "type": "address"
        },
        {
          "internalType": "uint256",
          "name": "",
          "type": "uint256"
        }
      ],
      "name": "userToListedPlanets",
      "outputs": [
        {
          "internalType": "uint256",
          "name": "tokenId",
          "type": "uint256"
        },
        {
          "internalType": "uint256",
          "name": "price",
          "type": "uint256"
        },
        {
          "internalType": "address",
          "name": "ownerAddress",
          "type": "address"
        },
        {
          "internalType": "bool",
          "name": "active",
          "type": "bool"
        }
      ],
      "stateMutability": "view",
      "type": "function"
    },
    {
      "inputs": [
        {
          "internalType": "address",
          "name": "userAddress",
          "type": "address"
        }
      ],
      "name": "usersClaims",
      "outputs": [
        {
          "components": [
            {
              "internalType": "address",
              "name": "ownerParentAddress",
              "type": "address"
            },
            {
              "internalType": "uint256",
              "name": "ownerTokenId",
              "type": "uint256"
            },
            {
              "internalType": "bool",
              "name": "delivered",
              "type": "bool"
            },
            {
              "internalType": "bool",
              "name": "arrived",
              "type": "bool"
            },
            {
              "internalType": "address",
              "name": "otherParent",
              "type": "address"
            },
            {
              "internalType": "uint256",
              "name": "otherTokenId",
              "type": "uint256"
            },
            {
              "internalType": "uint256",
              "name": "claimsTokenId",
              "type": "uint256"
            }
          ],
          "internalType": "struct ClaimablePlanet[]",
          "name": "",
          "type": "tuple[]"
        }
      ],
      "stateMutability": "view",
      "type": "function"
    },
    {
      "inputs": [
        {
          "internalType": "address",
          "name": "tokenAddress",
          "type": "address"
        },
        {
          "internalType": "address",
          "name": "address1",
          "type": "address"
        },
        {
          "internalType": "address",
          "name": "address2",
          "type": "address"
        },
        {
          "internalType": "uint256",
          "name": "withdrawalAmount",
          "type": "uint256"
        }
      ],
      "name": "withdrawAndSplitERC20",
      "outputs": [],
      "stateMutability": "nonpayable",
      "type": "function"
    },
    {
      "inputs": [
        {
          "internalType": "address",
          "name": "address1",
          "type": "address"
        },
        {
          "internalType": "address",
          "name": "address2",
          "type": "address"
        },
        {
          "internalType": "uint256",
          "name": "withdrawalAmount",
          "type": "uint256"
        }
      ],
      "name": "withdrawAndSplitHalfsies",
      "outputs": [],
      "stateMutability": "nonpayable",
      "type": "function"
    },
    {
      "inputs": [],
      "name": "withdrawFunds",
      "outputs": [],
      "stateMutability": "nonpayable",
      "type": "function"
    },
    {
      "stateMutability": "payable",
      "type": "receive"
    }
  ],
  "bytecode": "0x60a06040523060805234801561001457600080fd5b50608051615c536200004d6000396000818161160801528181611648015281816118be015281816118fe0152611b060152615c536000f3fe6080604052600436106103e45760003560e01c80638456cb5911610206578063d28c933411610117578063e8cbd25c116100a5578063f658159a11610077578063f658159a14610d0e578063f837894714610d45578063fdb4087514610d65578063fde4976714610d85578063fe79222914610bea57005b8063e8cbd25c14610c8d578063ee6e3a2314610cad578063f2fde38b14610cce578063f4c1494314610cee57005b8063dbb774d8116100e9578063dbb774d814610bea578063dd22a9c714610c17578063dd62ed3e14610c37578063e22aecb414610c57578063e33b7de314610c7757005b8063d28c933414610af1578063d4b5b8d614610b5c578063d505accf14610b93578063d79779b214610bb357005b8063a8e5e4aa11610194578063c4d66de811610166578063c4d66de814610a3a578063c7c0e6b114610a5a578063cbdf1b5a14610a7a578063cdb82a3714610a9a578063ce7c2ac214610aba57005b8063a8e5e4aa146109a3578063a9059cbb146109c3578063bd83dc05146109e3578063c45ac05014610a1a57005b80638da5cb5b116101d85780638da5cb5b146108f857806395d89b41146109175780639852595c1461092c578063a3f8eace14610963578063a457c2d71461098357005b80638456cb59146104ec57806384b0196e1461085f57806385fe7243146108875780638b83209b146108d857005b80633a7fb03d1161030057806352d1902d1161028e57806370a082311161026057806370a08231146107c1578063715018a6146107f75780637ecebe001461080c5780638230a7841461082c578063842905911461083f57005b806352d1902d146107485780635b634b6a1461075d5780635c975abb146107945780636a23befb146107ac57005b806348b75044116102d257806348b75044146106d55780634d950449146106f55780634f1ef2861461071557806350842cf3146104c05780635270ad6c1461072857005b80633a7fb03d146106435780633a98ef39146106635780633f4ba83a14610679578063406072a91461068e57005b8063229c23cc1161037d578063313ce5671161034f578063313ce5671461058357806334ae54e91461059f5780633644e515146105ee5780633659cfe614610603578063395093511461062357005b8063229c23cc1461050157806323b872dd1461052157806324600fc314610541578063259478181461055657005b806319165587116103b657806319165587146104a05780631ac9a91e146104c05780631dd320ea146104cc578063200d2ed2146104ec57005b806306fdde03146103ed578063095ea7b314610418578063150b7a021461044857806318160ddd1461048157005b366103eb57005b005b3480156103f957600080fd5b50610402610da5565b60405161040f9190615095565b60405180910390f35b34801561042457600080fd5b506104386104333660046150bd565b610e37565b604051901515815260200161040f565b34801561045457600080fd5b506104686104633660046151ca565b610e51565b6040516001600160e01b0319909116815260200161040f565b34801561048d57600080fd5b5060cb545b60405190815260200161040f565b3480156104ac57600080fd5b506103eb6104bb366004615236565b611135565b3480156103eb57600080fd5b3480156104d857600080fd5b506104386104e73660046150bd565b61122b565b3480156104f857600080fd5b506103eb6112f0565b34801561050d57600080fd5b506103eb61051c366004615253565b611300565b34801561052d57600080fd5b5061043861053c366004615253565b6113db565b34801561054d57600080fd5b506103eb6113ff565b34801561056257600080fd5b50610576610571366004615294565b611441565b60405161040f91906152b6565b34801561058f57600080fd5b506040516012815260200161040f565b3480156105ab57600080fd5b506105d66105ba366004615325565b6101cc602052600090815260409020546001600160a01b031681565b6040516001600160a01b03909116815260200161040f565b3480156105fa57600080fd5b506104926115ef565b34801561060f57600080fd5b506103eb61061e366004615236565b6115fe565b34801561062f57600080fd5b5061043861063e3660046150bd565b6116dd565b34801561064f57600080fd5b506103eb61065e36600461533e565b6116ff565b34801561066f57600080fd5b5061016254610492565b34801561068557600080fd5b506103eb611782565b34801561069a57600080fd5b506104926106a936600461536e565b6001600160a01b0391821660009081526101686020908152604080832093909416825291909152205490565b3480156106e157600080fd5b506103eb6106f036600461536e565b611792565b34801561070157600080fd5b506103eb610710366004615325565b6118a6565b6103eb61072336600461539c565b6118b4565b34801561073457600080fd5b506103eb610743366004615325565b611980565b34801561075457600080fd5b50610492611af9565b34801561076957600080fd5b506105d6610778366004615325565b6101cf602052600090815260409020546001600160a01b031681565b3480156107a057600080fd5b5060335460ff16610438565b3480156107b857600080fd5b50610576611bac565b3480156107cd57600080fd5b506104926107dc366004615236565b6001600160a01b0316600090815260c9602052604090205490565b34801561080357600080fd5b506103eb611c42565b34801561081857600080fd5b50610492610827366004615236565b611c54565b6103eb61083a366004615294565b611c73565b34801561084b57600080fd5b506103eb61085a3660046153ec565b61249a565b34801561086b57600080fd5b506108746126f8565b60405161040f979695949392919061543d565b34801561089357600080fd5b506108a76108a23660046150bd565b612796565b60405161040f949392919093845260208401929092526001600160a01b031660408301521515606082015260800190565b3480156108e457600080fd5b506105d66108f3366004615325565b6127ee565b34801561090457600080fd5b50610194546001600160a01b03166105d6565b34801561092357600080fd5b5061040261281f565b34801561093857600080fd5b50610492610947366004615236565b6001600160a01b03166000908152610165602052604090205490565b34801561096f57600080fd5b5061049261097e366004615236565b61282e565b34801561098f57600080fd5b5061043861099e3660046150bd565b612878565b3480156109af57600080fd5b506103eb6109be366004615253565b6128f3565b3480156109cf57600080fd5b506104386109de3660046150bd565b6129ae565b3480156109ef57600080fd5b506105d66109fe366004615325565b60009081526101cc60205260409020546001600160a01b031690565b348015610a2657600080fd5b50610492610a3536600461536e565b6129bc565b348015610a4657600080fd5b506103eb610a55366004615236565b612a81565b348015610a6657600080fd5b506103eb610a75366004615325565b612ba4565b348015610a8657600080fd5b506103eb610a95366004615294565b612bba565b348015610aa657600080fd5b506103eb610ab5366004615236565b612f3b565b348015610ac657600080fd5b50610492610ad5366004615236565b6001600160a01b03166000908152610164602052604090205490565b348015610afd57600080fd5b50610b11610b0c366004615294565b612f6e565b604080516001600160a01b0398891681526020810197909752941515948601949094529115156060850152909316608083015260a082019290925260c081019190915260e00161040f565b348015610b6857600080fd5b506105d6610b77366004615325565b6101d0602052600090815260409020546001600160a01b031681565b348015610b9f57600080fd5b506103eb610bae3660046154d6565b612fdf565b348015610bbf57600080fd5b50610492610bce366004615236565b6001600160a01b03166000908152610167602052604090205490565b348015610bf657600080fd5b50610c0a610c05366004615236565b613143565b60405161040f919061554d565b348015610c2357600080fd5b50610438610c3236600461536e565b613213565b348015610c4357600080fd5b50610492610c5236600461536e565b61328b565b348015610c6357600080fd5b50610b11610c723660046150bd565b6132b6565b348015610c8357600080fd5b5061016354610492565b348015610c9957600080fd5b506103eb610ca83660046155d4565b6132d3565b348015610cb957600080fd5b506101c6546105d6906001600160a01b031681565b348015610cda57600080fd5b506103eb610ce9366004615236565b61333d565b348015610cfa57600080fd5b50610438610d093660046150bd565b6133b3565b348015610d1a57600080fd5b506105d6610d29366004615325565b60009081526101d060205260409020546001600160a01b031690565b348015610d5157600080fd5b506103eb610d6036600461536e565b613443565b348015610d7157600080fd5b506103eb610d8036600461533e565b6134ba565b348015610d9157600080fd5b50610576610da0366004615236565b613502565b606060cc8054610db49061563c565b80601f0160208091040260200160405190810160405280929190818152602001828054610de09061563c565b8015610e2d5780601f10610e0257610100808354040283529160200191610e2d565b820191906000526020600020905b815481529060010190602001808311610e1057829003601f168201915b5050505050905090565b600033610e458185856135a3565b60019150505b92915050565b6000808251118015610e6e57506101c8546001600160a01b031633145b15610ed957600082806020019051810190610e899190615670565b9050610e968482876136c7565b7f13c6ec2a463a35f898a457814a782f1f567808293fa783a31fa4dac8868e601186868686604051610ecb9493929190615689565b60405180910390a150611123565b6101c8546001600160a01b031633036110e5576101c85460405163dc9ce7a560e01b8152600481018590526000916001600160a01b03169063dc9ce7a590602401600060405180830381865afa158015610f37573d6000803e3d6000fd5b505050506040513d6000823e601f3d908101601f19168201604052610f5f9190810190615773565b50905060008161012001519050600085905060006101cc600084600081518110610f8b57610f8b615892565b6020026020010151815260200190815260200160002060009054906101000a90046001600160a01b0316905060006101cc600085600181518110610fd157610fd1615892565b6020026020010151815260200190815260200160002060009054906101000a90046001600160a01b0316905060006040518060400160405280846001600160a01b03166001600160a01b03168152602001836001600160a01b03166001600160a01b031681525090506000604051806040016040528088610120015160008151811061105f5761105f615892565b6020026020010151815260200188610120015160018151811061108457611084615892565b6020026020010151815250905061109c828683613859565b7f13c6ec2a463a35f898a457814a782f1f567808293fa783a31fa4dac8868e60118c8c8c8c6040516110d194939291906158a8565b60405180910390a150505050505050611123565b7f13c6ec2a463a35f898a457814a782f1f567808293fa783a31fa4dac8868e60118585858560405161111a9493929190615909565b60405180910390a15b50630a85bd0160e11b5b949350505050565b6001600160a01b038116600090815261016460205260409020546111745760405162461bcd60e51b815260040161116b9061596d565b60405180910390fd5b600061117f8261282e565b9050806000036111a15760405162461bcd60e51b815260040161116b906159b3565b8061016360008282546111b49190615a14565b90915550506001600160a01b0382166000908152610165602052604090208054820190556111e28282613e71565b604080516001600160a01b0384168152602081018390527fdf20fd1e76bc69d672e4814fafb2c449bba3a5369d8359adf9e05e6fde87b05691015b60405180910390a15050565b565b6001600160a01b03821660009081526101cd60205260408120815b81548110156112b4578382828154811061126257611262615892565b906000526020600020906005020160040154036112ac5781818154811061128b5761128b615892565b600091825260209091206002600590920201015460ff169250610e4b915050565b600101611246565b5060405162461bcd60e51b815260206004820152601060248201526f141b185b995d081b9bdd08199bdd5b9960821b604482015260640161116b565b6112f8613f8a565b611229613fe5565b611308613f8a565b61131061403f565b478111156113575760405162461bcd60e51b8152602060048201526014602482015273496e73756666696369656e742062616c616e636560601b604482015260640161116b565b6000611364600283615a27565b6040519091506001600160a01b0385169082156108fc029083906000818181858888f1935050505015801561139d573d6000803e3d6000fd5b506040516001600160a01b0384169082156108fc029083906000818181858888f193505050501580156113d4573d6000803e3d6000fd5b5050505050565b6000336113e9858285614085565b6113f48585856140ff565b506001949350505050565b611407613f8a565b61140f61403f565b604051339081904780156108fc02916000818181858888f1935050505015801561143d573d6000803e3d6000fd5b5050565b60608282116114825760405162461bcd60e51b815260206004820152600d60248201526c092dcecc2d8d2c840d2dcc8caf609b1b604482015260640161116b565b6101cb548211156114cb5760405162461bcd60e51b8152602060048201526013602482015272496e646578206f7574206f6620626f756e647360681b604482015260640161116b565b60006114d78484615a49565b67ffffffffffffffff8111156114ef576114ef6150e9565b60405190808252806020026020018201604052801561154157816020015b60408051608081018252600080825260208083018290529282018190526060820152825260001990920191018161150d5790505b509050835b838110156115e7576101cb818154811061156257611562615892565b600091825260209182902060408051608081018252600393909302909101805483526001810154938301939093526002909201546001600160a01b03811692820192909252600160a01b90910460ff1615156060820152826115c48784615a49565b815181106115d4576115d4615892565b6020908102919091010152600101611546565b509392505050565b60006115f96142aa565b905090565b6001600160a01b037f00000000000000000000000000000000000000000000000000000000000000001630036116465760405162461bcd60e51b815260040161116b90615a5c565b7f00000000000000000000000000000000000000000000000000000000000000006001600160a01b031661168f600080516020615bd7833981519152546001600160a01b031690565b6001600160a01b0316146116b55760405162461bcd60e51b815260040161116b90615aa8565b6116be816142b4565b604080516000808252602082019092526116da918391906142bc565b50565b600033610e458185856116f0838361328b565b6116fa9190615a14565b6135a3565b611707613f8a565b61170f61403f565b600061171b8383614427565b9050611726836144a2565b6101c854604080516001600160a01b0380861682529092166020830152810184905281151560608201527f3e47efa91d5d329f50f04f0b9784b40b63d441ca130a5ddca1865d16e4d612a39060800160405180910390a1505050565b61178a613f8a565b611229614542565b6001600160a01b038116600090815261016460205260409020546117c85760405162461bcd60e51b815260040161116b9061596d565b60006117d483836129bc565b9050806000036117f65760405162461bcd60e51b815260040161116b906159b3565b6001600160a01b038316600090815261016760205260408120805483929061181f908490615a14565b90915550506001600160a01b0380841660009081526101686020908152604080832093861683529290522080548201905561185b83838361457b565b604080516001600160a01b038481168252602082018490528516917f3be5b7a71e84ed12875d241991c70855ac5817d847039e17a9d895c1ceb0f18a910160405180910390a2505050565b6118ae613f8a565b6101ce55565b6001600160a01b037f00000000000000000000000000000000000000000000000000000000000000001630036118fc5760405162461bcd60e51b815260040161116b90615a5c565b7f00000000000000000000000000000000000000000000000000000000000000006001600160a01b0316611945600080516020615bd7833981519152546001600160a01b031690565b6001600160a01b03161461196b5760405162461bcd60e51b815260040161116b90615aa8565b611974826142b4565b61143d828260016142bc565b61198861403f565b60008181526101cf602052604090205433906001600160a01b0316808214611a1f576119b3816145cd565b6119bc826145cd565b60405162461bcd60e51b815260206004820152603260248201527f636c61696d206d7573742062652066726f6d20636c61696d616e7473206164646044820152713932b9b99696903234b9b0b63637bbb2b21760711b606482015260840161116b565b6000611a2b8484614427565b905080611a925760405162461bcd60e51b815260206004820152602f60248201527f4661696c656420746f2073656e64204e46542e20436865636b20436c61696d6160448201526e1b9d08151bdad95b9259081cd95b9d608a1b606482015260840161116b565b611a9b846144a2565b6101c854604080516001600160a01b0380871682529092166020830152810185905281151560608201527f3e47efa91d5d329f50f04f0b9784b40b63d441ca130a5ddca1865d16e4d612a3906080015b60405180910390a150505050565b6000306001600160a01b037f00000000000000000000000000000000000000000000000000000000000000001614611b995760405162461bcd60e51b815260206004820152603860248201527f555550535570677261646561626c653a206d757374206e6f742062652063616c60448201527f6c6564207468726f7567682064656c656761746563616c6c0000000000000000606482015260840161116b565b50600080516020615bd783398151915290565b60606101cb805480602002602001604051908101604052809291908181526020016000905b82821015611c39576000848152602090819020604080516080810182526003860290920180548352600180820154848601526002909101546001600160a01b03811692840192909252600160a01b90910460ff16151560608301529083529092019101611bd1565b50505050905090565b611c4a613f8a565b6112296000614615565b6001600160a01b038116600090815261012f6020526040812054610e4b565b611c7b61403f565b808203611cd65760405162461bcd60e51b815260206004820152602360248201527f4173657875616c20726570726f64756374696f6e206973206e6f7420616c6c6f6044820152621dd95960ea1b606482015260840161116b565b6000611ce182614668565b6101c8546040516331a9108f60e11b8152600481018690529192506000916001600160a01b0390911690636352211e90602401602060405180830381865afa158015611d31573d6000803e3d6000fd5b505050506040513d601f19601f82011682018060405250810190611d559190615af4565b90506001600160a01b0381163014611ddf5760405162461bcd60e51b815260206004820152604160248201527f596f75206e65656420746f206c6973742f6465706f7369742074686520706c6160448201527f6e657420796f752061726520747279696e6720746f20627265656420776974686064820152601760f91b608482015260a40161116b565b60008060005b6101cb54811015611e8c57866101cb8281548110611e0557611e05615892565b90600052602060002090600302016000015403611e84576101cb8181548110611e3057611e30615892565b906000526020600020906003020160020160009054906101000a90046001600160a01b031692506101cb8181548110611e6b57611e6b615892565b9060005260206000209060030201600001549150611e8c565b600101611de5565b506001600160a01b0382163314611f005760405162461bcd60e51b815260206004820152603260248201527f596f7520646f206e6f74206f776e2074686520706c616e657420796f7520617260448201527132903a393cb4b733903a3790313932b2b21760711b606482015260840161116b565b600060646101ce5486611f139190615b11565b611f1d9190615a27565b905080856101c954611f2f9190615a14565b611f399190615a14565b341015611fae5760405162461bcd60e51b815260206004820152603760248201527f496e73756666696369656e742066756e647320746f20636f766572205652462060448201527f636f737420616e6420707269636520616e64206665652e000000000000000000606482015260840161116b565b33600080805b6101cb5481101561205b57896101cb8281548110611fd457611fd4615892565b90600052602060002090600302016000015403612053576101cb8181548110611fff57611fff615892565b906000526020600020906003020160020160009054906101000a90046001600160a01b031692506101cb818154811061203a5761203a615892565b906000526020600020906003020160000154915061205b565b600101611fb4565b506706f05b59d3b200004710156120d25760405162461bcd60e51b815260206004820152603560248201527f436f6e74726163742068617320496e73756666696369656e742062616c616e63604482015274652c20636f6e74616374206861746368657220687160581b606482015260840161116b565b6040516000906001600160a01b038416908a156108fc02908b9084818181858888f1935050505090508061213f5760405162461bcd60e51b81526020600482015260146024820152732330b4b632b2103a379039b2b7321022ba3432b960611b604482015260640161116b565b6101c6546101c954604051634e9e6a0760e01b8152600481018e9052602481018d9052600060448201526001600160a01b0390921691634e9e6a07919060640160206040518083038185885af115801561219d573d6000803e3d6000fd5b50505050506040513d601f19601f820116820180604052508101906121c29190615670565b5060006040518060e00160405280866001600160a01b031681526020018d8152602001600015158152602001600015158152602001856001600160a01b03168152602001848152602001600081525090506101cd6000866001600160a01b03166001600160a01b0316815260200190815260200160002081908060018154018082558091505060019003906000526020600020906005020160009091909190915060008201518160000160006101000a8154816001600160a01b0302191690836001600160a01b031602179055506020820151816001015560408201518160020160006101000a81548160ff02191690831515021790555060608201518160020160016101000a81548160ff02191690831515021790555060808201518160020160026101000a8154816001600160a01b0302191690836001600160a01b0316021790555060a0820151816003015560c082015181600401555050846101cc60008e815260200190815260200160002060006101000a8154816001600160a01b0302191690836001600160a01b03160217905550858a6101c9546123669190615a14565b6123709190615a14565b34111561243c576000336001600160a01b0316878c6101c954346123949190615a49565b61239e9190615a49565b6123a89190615a49565b604051600081818185875af1925050503d80600081146123e4576040519150601f19603f3d011682016040523d82523d6000602084013e6123e9565b606091505b505090508061243a5760405162461bcd60e51b815260206004820152601d60248201527f4661696c656420746f20726566756e6420657863657373204574686572000000604482015260640161116b565b505b604080518d81526001600160a01b0387811660208301528183018e90528616606082015290517f8557df6951fbdd47fe9027516fc896be40f285ed55a6acac460352adbab730cd9181900360800190a1505050505050505050505050565b6124a2613f8a565b6124aa61403f565b6040516370a0823160e01b815230600482015284906000906001600160a01b038316906370a0823190602401602060405180830381865afa1580156124f3573d6000803e3d6000fd5b505050506040513d601f19601f820116820180604052508101906125179190615670565b9050808311156125605760405162461bcd60e51b8152602060048201526014602482015273496e73756666696369656e742062616c616e636560601b604482015260640161116b565b600061256d600285615a27565b60405163a9059cbb60e01b81526001600160a01b038881166004830152602482018390529192509084169063a9059cbb906044016020604051808303816000875af11580156125c0573d6000803e3d6000fd5b505050506040513d601f19601f820116820180604052508101906125e49190615b28565b6126305760405162461bcd60e51b815260206004820152601b60248201527f5472616e7366657220746f206164647265737331206661696c65640000000000604482015260640161116b565b60405163a9059cbb60e01b81526001600160a01b0386811660048301526024820183905284169063a9059cbb906044016020604051808303816000875af115801561267f573d6000803e3d6000fd5b505050506040513d601f19601f820116820180604052508101906126a39190615b28565b6126ef5760405162461bcd60e51b815260206004820152601b60248201527f5472616e7366657220746f206164647265737332206661696c65640000000000604482015260640161116b565b50505050505050565b60006060806000806000606060fb546000801b148015612718575060fc54155b61275c5760405162461bcd60e51b81526020600482015260156024820152741152540dcc4c8e88155b9a5b9a5d1a585b1a5e9959605a1b604482015260640161116b565b612764614709565b61276c614718565b60408051600080825260208201909252600f60f81b9b939a50919850469750309650945092509050565b6101ca60205281600052604060002081815481106127b357600080fd5b60009182526020909120600390910201805460018201546002909201549093509091506001600160a01b03811690600160a01b900460ff1684565b6000610166828154811061280457612804615892565b6000918252602090912001546001600160a01b031692915050565b606060cd8054610db49061563c565b60008061283b6101635490565b6128459047615a14565b9050612871838261286c866001600160a01b03166000908152610165602052604090205490565b614727565b9392505050565b60003381612886828661328b565b9050838110156128e65760405162461bcd60e51b815260206004820152602560248201527f45524332303a2064656372656173656420616c6c6f77616e63652062656c6f77604482015264207a65726f60d81b606482015260840161116b565b6113f482868684036135a3565b60405163095ea7b360e01b81526001600160a01b0383811660048301526024820183905284169063095ea7b3906044016020604051808303816000875af1158015612942573d6000803e3d6000fd5b505050506040513d601f19601f820116820180604052508101906129669190615b28565b6129a95760405162461bcd60e51b8152602060048201526014602482015273115490cc8c08185c1c1c9bdd994819985a5b195960621b604482015260640161116b565b505050565b600033610e458185856140ff565b6001600160a01b0382166000908152610167602052604081205481906040516370a0823160e01b81523060048201526001600160a01b038616906370a0823190602401602060405180830381865afa158015612a1c573d6000803e3d6000fd5b505050506040513d601f19601f82011682018060405250810190612a409190615670565b612a4a9190615a14565b6001600160a01b038086166000908152610168602090815260408083209388168352929052205490915061112d9084908390614727565b600054610100900460ff1615808015612aa15750600054600160ff909116105b80612abb5750303b158015612abb575060005460ff166001145b612b1e5760405162461bcd60e51b815260206004820152602e60248201527f496e697469616c697a61626c653a20636f6e747261637420697320616c72656160448201526d191e481a5b9a5d1a585b1a5e995960921b606482015260840161116b565b6000805460ff191660011790558015612b41576000805461ff0019166101001790555b612b49614767565b612b51614796565b612b596147c5565b612b628261333d565b801561143d576000805461ff0019169055604051600181527f7f26b83ff96e1f2b6a682f133852f6798a09c465da95921460cefb38474024989060200161121d565b612bac613f8a565b612bb461403f565b6101c955565b612bc261403f565b6101cb548210612c0a5760405162461bcd60e51b8152602060048201526013602482015272496e646578206f7574206f6620626f756e647360681b604482015260640161116b565b600033905060006101cb8481548110612c2557612c25615892565b6000918252602091829020604080516080810182526003909302909101805483526001810154938301939093526002909201546001600160a01b03811692820183905260ff600160a01b909104161515606082015291503314612c8757600080fd5b6040518060800160405280826000015181526020016000815260200182604001516001600160a01b03168152602001600015158152506101cb8581548110612cd157612cd1615892565b60009182526020808320845160039093020191825583015160018201556040830151600290910180546060909401511515600160a01b026001600160a81b03199094166001600160a01b039092169190911792909217909155612d348484614427565b905080612d8d5760405162461bcd60e51b815260206004820152602160248201527f64654c697374696e67204661696c65642073656e64204e46542070726f6365736044820152607360f81b606482015260840161116b565b3360009081526101ca602052604090208054612dab90600190615a49565b81548110612dbb57612dbb615892565b90600052602060002090600302016101ca6000336001600160a01b03166001600160a01b031681526020019081526020016000208681548110612e0057612e00615892565b60009182526020808320845460039093020191825560018085015490830155600293840180549490920180546001600160a01b031981166001600160a01b039096169586178255925460ff600160a01b91829004161515026001600160a81b0319909316909417919091179092553381526101ca90915260409020805480612e8a57612e8a615b43565b60008281526020808220600360001994909401938402018281556001810183905560020180546001600160a81b0319169055919092558582526101d0815260409182902080546001600160a01b03191690556101c854845183516001600160a01b038881168252909216928201929092529182015281151560608201527fc6d479c3ed7081a22666733326104ccbbbaccec81902d39e12430505ee2993bd9060800160405180910390a15050505050565b612f43613f8a565b612f4b61403f565b6101c780546001600160a01b0319166001600160a01b0392909216919091179055565b6101d36020528160005260406000208181548110612f8b57600080fd5b6000918252602090912060059091020180546001820154600283015460038401546004909401546001600160a01b03938416965091945060ff80821694610100830490911693620100009092049091169187565b8342111561302f5760405162461bcd60e51b815260206004820152601d60248201527f45524332305065726d69743a206578706972656420646561646c696e65000000604482015260640161116b565b60007f6e71edae12b1b97f4d1f60370fef10105fa2faae0126114a169c64845d6126c988888861305e8c6147ec565b6040805160208101969096526001600160a01b0394851690860152929091166060840152608083015260a082015260c0810186905260e00160405160208183030381529060405280519060200120905060006130b982614813565b905060006130c982878787614840565b9050896001600160a01b0316816001600160a01b03161461312c5760405162461bcd60e51b815260206004820152601e60248201527f45524332305065726d69743a20696e76616c6964207369676e61747572650000604482015260640161116b565b6131378a8a8a6135a3565b50505050505050505050565b6001600160a01b03811660009081526101cd60209081526040808320805482518185028101850190935280835260609492939192909184015b828210156132085760008481526020908190206040805160e0810182526005860290920180546001600160a01b03908116845260018083015485870152600283015460ff80821615159587019590955261010081049094161515606086015262010000909304166080840152600381015460a08401526004015460c0830152908352909201910161317c565b505050509050919050565b6101c85460405163e985e9c560e01b81526001600160a01b0384811660048301528381166024830152600092169063e985e9c590604401602060405180830381865afa158015613267573d6000803e3d6000fd5b505050506040513d601f19601f820116820180604052508101906128719190615b28565b6001600160a01b03918216600090815260ca6020908152604080832093909416825291909152205490565b6101cd6020528160005260406000208181548110612f8b57600080fd5b6132db613f8a565b6132e361403f565b6101c9939093556101c680546001600160a01b039586166001600160a01b0319918216179091556101c88054938616938216939093179092556101d180549185169183169190911790556101d28054929093169116179055565b613345613f8a565b6001600160a01b0381166133aa5760405162461bcd60e51b815260206004820152602660248201527f4f776e61626c653a206e6577206f776e657220697320746865207a65726f206160448201526564647265737360d01b606482015260840161116b565b6116da81614615565b6001600160a01b03821660009081526101cd60205260408120815b81548110156112b457838282815481106133ea576133ea615892565b9060005260206000209060050201600401540361343b5781818154811061341357613413615892565b906000526020600020906005020160020160019054906101000a900460ff1692505050610e4b565b6001016133ce565b61344b613f8a565b61345361403f565b60405163a22cb46560e01b81526001600160a01b0382811660048301526001602483015283169063a22cb465906044015b600060405180830381600087803b15801561349e57600080fd5b505af11580156134b2573d6000803e3d6000fd5b505050505050565b6134c2613f8a565b6101c8546040516323b872dd60e01b81523060048201526001600160a01b03838116602483015260448201859052909116906323b872dd90606401613484565b6001600160a01b03811660009081526101ca60209081526040808320805482518185028101850190935280835260609492939192909184015b82821015613208576000848152602090819020604080516080810182526003860290920180548352600180820154848601526002909101546001600160a01b03811692840192909252600160a01b90910460ff1615156060830152908352909201910161353b565b6001600160a01b0383166136055760405162461bcd60e51b8152602060048201526024808201527f45524332303a20617070726f76652066726f6d20746865207a65726f206164646044820152637265737360e01b606482015260840161116b565b6001600160a01b0382166136665760405162461bcd60e51b815260206004820152602260248201527f45524332303a20617070726f766520746f20746865207a65726f206164647265604482015261737360f01b606482015260840161116b565b6001600160a01b03838116600081815260ca602090815260408083209487168084529482529182902085905590518481527f8c5be1e5ebec7d5bd14f71427d1e84f3dd0314c0f7b2291e5b200ac8c7c3b925910160405180910390a3505050565b604080516080808201835285825260208083018681526001600160a01b03868116858701818152600160608089018281526101cb8054808501825560009182528b517fe8bbfecd380c4167d6a1f763a233ec73e73f534b1970c4e1683f437ec23c1f4460039283029081019190915589517fe8bbfecd380c4167d6a1f763a233ec73e73f534b1970c4e1683f437ec23c1f4582015586517fe8bbfecd380c4167d6a1f763a233ec73e73f534b1970c4e1683f437ec23c1f4690910180548551928b166001600160a81b031991821617600160a01b9315158402179091558884526101ca8c528e8420805480890182559085528c85208f519190940290930192835599519582019590955594516002909501805492519588169290981691909117931515909202929092179094558a84526101d085529287902080546001600160a01b03191690911790556101c854865133815291169281019290925293810187905292830185905290917fb30319a217488a3ed441c348e935a48d16091e33109bab0c79a353b9797528839101611aeb565b82516020808501518351918401519091906000805b6001600160a01b03861660009081526101cd6020526040902054811015613abe576001600160a01b0386811660009081526101cd60205260409020805491871691839081106138bf576138bf615892565b60009182526020909120600590910201600201546201000090046001600160a01b031614801561397457506001600160a01b03861660009081526101cd6020526040902080548591908390811061391857613918615892565b90600052602060002090600502016001015414801561397457506001600160a01b03861660009081526101cd6020526040902080548491908390811061396057613960615892565b906000526020600020906005020160030154145b80613a0457506001600160a01b03861660009081526101cd602052604090208054849190839081106139a8576139a8615892565b906000526020600020906005020160010154148015613a0457506001600160a01b03861660009081526101cd602052604090208054859190839081106139f0576139f0615892565b906000526020600020906005020160030154145b15613ab6576001600160a01b03861660009081526101cd6020526040902080546001919083908110613a3857613a38615892565b906000526020600020906005020160020160016101000a81548160ff021916908315150217905550876101cd6000886001600160a01b03166001600160a01b031681526020019081526020016000208281548110613a9857613a98615892565b90600052602060002090600502016004018190555060019150613abe565b60010161386e565b5080613d195760005b6001600160a01b03851660009081526101cd6020526040902054811015613d17576001600160a01b0385811660009081526101cd6020526040902080549188169183908110613b1857613b18615892565b60009182526020909120600590910201600201546201000090046001600160a01b0316148015613bcd57506001600160a01b03851660009081526101cd60205260409020805484919083908110613b7157613b71615892565b906000526020600020906005020160010154148015613bcd57506001600160a01b03851660009081526101cd60205260409020805485919083908110613bb957613bb9615892565b906000526020600020906005020160030154145b80613c5d57506001600160a01b03851660009081526101cd60205260409020805485919083908110613c0157613c01615892565b906000526020600020906005020160010154148015613c5d57506001600160a01b03851660009081526101cd60205260409020805484919083908110613c4957613c49615892565b906000526020600020906005020160030154145b15613d0f576001600160a01b03851660009081526101cd6020526040902080546001919083908110613c9157613c91615892565b906000526020600020906005020160020160016101000a81548160ff021916908315150217905550876101cd6000876001600160a01b03166001600160a01b031681526020019081526020016000208281548110613cf157613cf1615892565b90600052602060002090600502016004018190555060019150613d17565b600101613ac7565b505b80613e675760006040518060e00160405280876001600160a01b03168152602001858152602001600015158152602001600115158152602001866001600160a01b031681526020018481526020018981525090506101d3600089815260200190815260200160002081908060018154018082558091505060019003906000526020600020906005020160009091909190915060008201518160000160006101000a8154816001600160a01b0302191690836001600160a01b031602179055506020820151816001015560408201518160020160006101000a81548160ff02191690831515021790555060608201518160020160016101000a81548160ff02191690831515021790555060808201518160020160026101000a8154816001600160a01b0302191690836001600160a01b0316021790555060a0820151816003015560c082015181600401555050505b5050505050505050565b80471015613ec15760405162461bcd60e51b815260206004820152601d60248201527f416464726573733a20696e73756666696369656e742062616c616e6365000000604482015260640161116b565b6000826001600160a01b03168260405160006040518083038185875af1925050503d8060008114613f0e576040519150601f19603f3d011682016040523d82523d6000602084013e613f13565b606091505b50509050806129a95760405162461bcd60e51b815260206004820152603a60248201527f416464726573733a20756e61626c6520746f2073656e642076616c75652c207260448201527f6563697069656e74206d61792068617665207265766572746564000000000000606482015260840161116b565b610194546001600160a01b031633146112295760405162461bcd60e51b815260206004820181905260248201527f4f776e61626c653a2063616c6c6572206973206e6f7420746865206f776e6572604482015260640161116b565b613fed61403f565b6033805460ff191660011790557f62e78cea01bee320cd4e420270b5ea74000d11b0c9f74754ebdbfc544b05a2586140223390565b6040516001600160a01b03909116815260200160405180910390a1565b60335460ff16156112295760405162461bcd60e51b815260206004820152601060248201526f14185d5cd8589b194e881c185d5cd95960821b604482015260640161116b565b6000614091848461328b565b905060001981146140f957818110156140ec5760405162461bcd60e51b815260206004820152601d60248201527f45524332303a20696e73756666696369656e7420616c6c6f77616e6365000000604482015260640161116b565b6140f984848484036135a3565b50505050565b6001600160a01b0383166141635760405162461bcd60e51b815260206004820152602560248201527f45524332303a207472616e736665722066726f6d20746865207a65726f206164604482015264647265737360d81b606482015260840161116b565b6001600160a01b0382166141c55760405162461bcd60e51b815260206004820152602360248201527f45524332303a207472616e7366657220746f20746865207a65726f206164647260448201526265737360e81b606482015260840161116b565b6001600160a01b038316600090815260c960205260409020548181101561423d5760405162461bcd60e51b815260206004820152602660248201527f45524332303a207472616e7366657220616d6f756e7420657863656564732062604482015265616c616e636560d01b606482015260840161116b565b6001600160a01b03808516600081815260c9602052604080822086860390559286168082529083902080548601905591517fddf252ad1be2c89b69c2b068fc378daa952ba7f163c4a11628f55a4df523b3ef9061429d9086815260200190565b60405180910390a36140f9565b60006115f9614868565b6116da613f8a565b7f4910fdfa16fed3260ed0e7147f7cc6da11a60208b5b9406d12a635614ffd91435460ff16156142ef576129a9836148dc565b826001600160a01b03166352d1902d6040518163ffffffff1660e01b8152600401602060405180830381865afa925050508015614349575060408051601f3d908101601f1916820190925261434691810190615670565b60015b6143ac5760405162461bcd60e51b815260206004820152602e60248201527f45524331393637557067726164653a206e657720696d706c656d656e7461746960448201526d6f6e206973206e6f74205555505360901b606482015260840161116b565b600080516020615bd7833981519152811461441b5760405162461bcd60e51b815260206004820152602960248201527f45524331393637557067726164653a20756e737570706f727465642070726f786044820152681a58589b195555525160ba1b606482015260840161116b565b506129a9838383614978565b6101c854604051632142170760e11b81523060048201526001600160a01b0383811660248301526044820185905260009216906342842e0e90606401600060405180830381600087803b15801561447d57600080fd5b505af192505050801561448e575060015b61449a57506000610e4b565b506001610e4b565b60008181526101cc60209081526040808320546001600160a01b03168084526101cd909252822090915b81548110156140f957838282815481106144e8576144e8615892565b9060005260206000209060050201600401540361453a57600182828154811061451357614513615892565b60009182526020909120600590910201600201805460ff19169115159190911790556140f9565b6001016144cc565b61454a61499d565b6033805460ff191690557f5db9ee0a495bf2e6ff9c91a7834c1ba4fdd244a5e8aa4e537bd38aeae4b073aa33614022565b604080516001600160a01b038416602482015260448082018490528251808303909101815260649091019091526020810180516001600160e01b031663a9059cbb60e01b1790526129a99084906149e6565b6040516001600160a01b03821660248201526116da9060440160408051601f198184030181529190526020810180516001600160e01b031663161765e160e11b179052614abb565b61019480546001600160a01b038381166001600160a01b0319831681179093556040519116919082907f8be0079c531659141344cd1fd0a4f28419497f9722a3daafe3b4186f6b6457e090600090a35050565b600061467261403f565b60005b6101cb5481101561470257826101cb828154811061469557614695615892565b906000526020600020906003020160000154036146da576101cb81815481106146c0576146c0615892565b906000526020600020906003020160010154915050919050565b6101cb546146ea90600190615a49565b81036146fa575060001992915050565b600101614675565b505b919050565b606060fd8054610db49061563c565b606060fe8054610db49061563c565b610162546001600160a01b03841660009081526101646020526040812054909183916147539086615b11565b61475d9190615a27565b61112d9190615a49565b600054610100900460ff1661478e5760405162461bcd60e51b815260040161116b90615b59565b611229614ac4565b600054610100900460ff166147bd5760405162461bcd60e51b815260040161116b90615b59565b611229614af4565b600054610100900460ff166112295760405162461bcd60e51b815260040161116b90615b59565b6001600160a01b038116600090815261012f60205260409020805460018101825590614702565b6000610e4b6148206142aa565b8360405161190160f01b8152600281019290925260228201526042902090565b600080600061485187878787614b27565b9150915061485e81614beb565b5095945050505050565b60007f8b73c3c69bb8fe3d512ecc4cf759cc79239f7b179b0ffacaa9a75d522b39400f614893614d35565b61489b614d8e565b60408051602081019490945283019190915260608201524660808201523060a082015260c00160405160208183030381529060405280519060200120905090565b6001600160a01b0381163b6149495760405162461bcd60e51b815260206004820152602d60248201527f455243313936373a206e657720696d706c656d656e746174696f6e206973206e60448201526c1bdd08184818dbdb9d1c9858dd609a1b606482015260840161116b565b600080516020615bd783398151915280546001600160a01b0319166001600160a01b0392909216919091179055565b61498183614dbf565b60008251118061498e5750805b156129a9576140f98383614dff565b60335460ff166112295760405162461bcd60e51b815260206004820152601460248201527314185d5cd8589b194e881b9bdd081c185d5cd95960621b604482015260640161116b565b6000614a3b826040518060400160405280602081526020017f5361666545524332303a206c6f772d6c6576656c2063616c6c206661696c6564815250856001600160a01b0316614e249092919063ffffffff16565b9050805160001480614a5c575080806020019051810190614a5c9190615b28565b6129a95760405162461bcd60e51b815260206004820152602a60248201527f5361666545524332303a204552433230206f7065726174696f6e20646964206e6044820152691bdd081cdd58d8d9595960b21b606482015260840161116b565b6116da81614e33565b600054610100900460ff16614aeb5760405162461bcd60e51b815260040161116b90615b59565b61122933614615565b600054610100900460ff16614b1b5760405162461bcd60e51b815260040161116b90615b59565b6033805460ff19169055565b6000807f7fffffffffffffffffffffffffffffff5d576e7357a4501ddfe92f46681b20a0831115614b5e5750600090506003614be2565b6040805160008082526020820180845289905260ff881692820192909252606081018690526080810185905260019060a0016020604051602081039080840390855afa158015614bb2573d6000803e3d6000fd5b5050604051601f1901519150506001600160a01b038116614bdb57600060019250925050614be2565b9150600090505b94509492505050565b6000816004811115614bff57614bff615ba4565b03614c075750565b6001816004811115614c1b57614c1b615ba4565b03614c685760405162461bcd60e51b815260206004820152601860248201527f45434453413a20696e76616c6964207369676e61747572650000000000000000604482015260640161116b565b6002816004811115614c7c57614c7c615ba4565b03614cc95760405162461bcd60e51b815260206004820152601f60248201527f45434453413a20696e76616c6964207369676e6174757265206c656e67746800604482015260640161116b565b6003816004811115614cdd57614cdd615ba4565b036116da5760405162461bcd60e51b815260206004820152602260248201527f45434453413a20696e76616c6964207369676e6174757265202773272076616c604482015261756560f01b606482015260840161116b565b600080614d40614709565b805190915015614d57578051602090910120919050565b60fb548015614d665792915050565b7fc5d2460186f7233c927e7db2dcc703c0e500b653ca82273b7bfad8045d85a4709250505090565b600080614d99614718565b805190915015614db0578051602090910120919050565b60fc548015614d665792915050565b614dc8816148dc565b6040516001600160a01b038216907fbc7cd75a20ee27fd9adebab32041f755214dbc6bffa90cc0225b39da2e5c2d3b90600090a250565b60606128718383604051806060016040528060278152602001615bf760279139614e54565b606061112d8484600085614ecc565b60006a636f6e736f6c652e6c6f679050600080835160208501845afa505050565b6060600080856001600160a01b031685604051614e719190615bba565b600060405180830381855af49150503d8060008114614eac576040519150601f19603f3d011682016040523d82523d6000602084013e614eb1565b606091505b5091509150614ec286838387614fa7565b9695505050505050565b606082471015614f2d5760405162461bcd60e51b815260206004820152602660248201527f416464726573733a20696e73756666696369656e742062616c616e636520666f6044820152651c8818d85b1b60d21b606482015260840161116b565b600080866001600160a01b03168587604051614f499190615bba565b60006040518083038185875af1925050503d8060008114614f86576040519150601f19603f3d011682016040523d82523d6000602084013e614f8b565b606091505b5091509150614f9c87838387614fa7565b979650505050505050565b6060831561501657825160000361500f576001600160a01b0385163b61500f5760405162461bcd60e51b815260206004820152601d60248201527f416464726573733a2063616c6c20746f206e6f6e2d636f6e7472616374000000604482015260640161116b565b508161112d565b61112d838381511561502b5781518083602001fd5b8060405162461bcd60e51b815260040161116b9190615095565b60005b83811015615060578181015183820152602001615048565b50506000910152565b60008151808452615081816020860160208601615045565b601f01601f19169290920160200192915050565b6020815260006128716020830184615069565b6001600160a01b03811681146116da57600080fd5b600080604083850312156150d057600080fd5b82356150db816150a8565b946020939093013593505050565b634e487b7160e01b600052604160045260246000fd5b604051610160810167ffffffffffffffff81118282101715615123576151236150e9565b60405290565b604051601f8201601f1916810167ffffffffffffffff81118282101715615152576151526150e9565b604052919050565b600082601f83011261516b57600080fd5b813567ffffffffffffffff811115615185576151856150e9565b615198601f8201601f1916602001615129565b8181528460208386010111156151ad57600080fd5b816020850160208301376000918101602001919091529392505050565b600080600080608085870312156151e057600080fd5b84356151eb816150a8565b935060208501356151fb816150a8565b925060408501359150606085013567ffffffffffffffff81111561521e57600080fd5b61522a8782880161515a565b91505092959194509250565b60006020828403121561524857600080fd5b8135612871816150a8565b60008060006060848603121561526857600080fd5b8335615273816150a8565b92506020840135615283816150a8565b929592945050506040919091013590565b600080604083850312156152a757600080fd5b50508035926020909101359150565b602080825282518282018190526000919060409081850190868401855b82811015615318578151805185528681015187860152858101516001600160a01b031686860152606090810151151590850152608090930192908501906001016152d3565b5091979650505050505050565b60006020828403121561533757600080fd5b5035919050565b6000806040838503121561535157600080fd5b823591506020830135615363816150a8565b809150509250929050565b6000806040838503121561538157600080fd5b823561538c816150a8565b91506020830135615363816150a8565b600080604083850312156153af57600080fd5b82356153ba816150a8565b9150602083013567ffffffffffffffff8111156153d657600080fd5b6153e28582860161515a565b9150509250929050565b6000806000806080858703121561540257600080fd5b843561540d816150a8565b9350602085013561541d816150a8565b9250604085013561542d816150a8565b9396929550929360600135925050565b60ff60f81b881681526000602060e0602084015261545e60e084018a615069565b8381036040850152615470818a615069565b606085018990526001600160a01b038816608086015260a0850187905284810360c08601528551808252602080880193509091019060005b818110156154c4578351835292840192918401916001016154a8565b50909c9b505050505050505050505050565b600080600080600080600060e0888a0312156154f157600080fd5b87356154fc816150a8565b9650602088013561550c816150a8565b95506040880135945060608801359350608088013560ff8116811461553057600080fd5b9699959850939692959460a0840135945060c09093013592915050565b602080825282518282018190526000919060409081850190868401855b8281101561531857815180516001600160a01b0390811686528782015188870152868201511515878701526060808301511515908701526080808301519091169086015260a0808201519086015260c0908101519085015260e0909301929085019060010161556a565b600080600080600060a086880312156155ec57600080fd5b85356155f7816150a8565b945060208601359350604086013561560e816150a8565b9250606086013561561e816150a8565b9150608086013561562e816150a8565b809150509295509295909350565b600181811c9082168061565057607f821691505b60208210810361470257634e487b7160e01b600052602260045260246000fd5b60006020828403121561568257600080fd5b5051919050565b60006001600160a01b03808716835280861660208401525083604083015260a060608301526156bb60a0830184615069565b8281036080840152600e81526d1b1a5cdd1a5b99c81c1b185b995d60921b60208201526040810191505095945050505050565b600082601f8301126156ff57600080fd5b8151602067ffffffffffffffff82111561571b5761571b6150e9565b8160051b61572a828201615129565b928352848101820192828101908785111561574457600080fd5b83870192505b84831015614f9c5782518252918301919083019061574a565b8051801515811461470457600080fd5b6000806040838503121561578657600080fd5b825167ffffffffffffffff8082111561579e57600080fd5b9084019061016082870312156157b357600080fd5b6157bb6150ff565b825181526020830151602082015260408301516040820152606083015160608201526080830151608082015260a083015160a082015260c083015160c082015260e083015160e0820152610100808401518381111561581957600080fd5b615825898287016156ee565b828401525050610120808401518381111561583f57600080fd5b61584b898287016156ee565b828401525050610140808401518381111561586557600080fd5b615871898287016156ee565b82840152505080945050505061588960208401615763565b90509250929050565b634e487b7160e01b600052603260045260246000fd5b60006001600160a01b03808716835280861660208401525083604083015260a060608301526158da60a0830184615069565b8281036080840152600a8152691b995dc81c1b185b995d60b21b60208201526040810191505095945050505050565b60006001600160a01b03808716835280861660208401525083604083015260a0606083015261593b60a0830184615069565b8281036080840152600d81526c1d5b98d85d1959dbdc9a5e9959609a1b60208201526040810191505095945050505050565b60208082526026908201527f5061796d656e7453706c69747465723a206163636f756e7420686173206e6f2060408201526573686172657360d01b606082015260800190565b6020808252602b908201527f5061796d656e7453706c69747465723a206163636f756e74206973206e6f742060408201526a191d59481c185e5b595b9d60aa1b606082015260800190565b634e487b7160e01b600052601160045260246000fd5b80820180821115610e4b57610e4b6159fe565b600082615a4457634e487b7160e01b600052601260045260246000fd5b500490565b81810381811115610e4b57610e4b6159fe565b6020808252602c908201527f46756e6374696f6e206d7573742062652063616c6c6564207468726f7567682060408201526b19195b1959d85d1958d85b1b60a21b606082015260800190565b6020808252602c908201527f46756e6374696f6e206d7573742062652063616c6c6564207468726f7567682060408201526b6163746976652070726f787960a01b606082015260800190565b600060208284031215615b0657600080fd5b8151612871816150a8565b8082028115828204841417610e4b57610e4b6159fe565b600060208284031215615b3a57600080fd5b61287182615763565b634e487b7160e01b600052603160045260246000fd5b6020808252602b908201527f496e697469616c697a61626c653a20636f6e7472616374206973206e6f74206960408201526a6e697469616c697a696e6760a81b606082015260800190565b634e487b7160e01b600052602160045260246000fd5b60008251615bcc818460208701615045565b919091019291505056fe360894a13ba1a3210667c828492db98dca3e2076cc3735a920a3ca505d382bbc416464726573733a206c6f772d6c6576656c2064656c65676174652063616c6c206661696c6564a2646970667358221220a693a577d871c053e6cec60be1113bbd60b564642e3d2069c8b08cdf0de1b1ee64736f6c63430008180033",
  "linkReferences": {},
  "deployedLinkReferences": {}
}