{
  "_format": "hh-sol-artifact-1",
  "contractName": "HatcherV3",
  "sourceName": "contracts/HatcherV3.sol",
  "abi": [
    {
      "inputs": [],
      "name": "Unauthorized",
      "type": "error"
    },
    {
      "anonymous": false,
      "inputs": [
        {
          "indexed": false,
          "internalType": "address",
          "name": "previousAdmin",
          "type": "address"
        },
        {
          "indexed": false,
          "internalType": "address",
          "name": "newAdmin",
          "type": "address"
        }
      ],
      "name": "AdminChanged",
      "type": "event"
    },
    {
      "anonymous": false,
      "inputs": [
        {
          "indexed": true,
          "internalType": "address",
          "name": "owner",
          "type": "address"
        },
        {
          "indexed": true,
          "internalType": "address",
          "name": "spender",
          "type": "address"
        },
        {
          "indexed": false,
          "internalType": "uint256",
          "name": "value",
          "type": "uint256"
        }
      ],
      "name": "Approval",
      "type": "event"
    },
    {
      "anonymous": false,
      "inputs": [
        {
          "indexed": true,
          "internalType": "address",
          "name": "beacon",
          "type": "address"
        }
      ],
      "name": "BeaconUpgraded",
      "type": "event"
    },
    {
      "anonymous": false,
      "inputs": [
        {
          "indexed": false,
          "internalType": "address",
          "name": "sentToUser",
          "type": "address"
        },
        {
          "indexed": false,
          "internalType": "address",
          "name": "token",
          "type": "address"
        },
        {
          "indexed": false,
          "internalType": "uint256",
          "name": "tokenId",
          "type": "uint256"
        },
        {
          "indexed": false,
          "internalType": "bool",
          "name": "success",
          "type": "bool"
        }
      ],
      "name": "DeClaimedAPlanet",
      "type": "event"
    },
    {
      "anonymous": false,
      "inputs": [
        {
          "indexed": false,
          "internalType": "address",
          "name": "sentToUser",
          "type": "address"
        },
        {
          "indexed": false,
          "internalType": "address",
          "name": "token",
          "type": "address"
        },
        {
          "indexed": false,
          "internalType": "uint256",
          "name": "tokenId",
          "type": "uint256"
        },
        {
          "indexed": false,
          "internalType": "bool",
          "name": "success",
          "type": "bool"
        }
      ],
      "name": "DeListedAPlanet",
      "type": "event"
    },
    {
      "anonymous": false,
      "inputs": [],
      "name": "EIP712DomainChanged",
      "type": "event"
    },
    {
      "anonymous": false,
      "inputs": [
        {
          "indexed": true,
          "internalType": "contract IERC20Upgradeable",
          "name": "token",
          "type": "address"
        },
        {
          "indexed": false,
          "internalType": "address",
          "name": "to",
          "type": "address"
        },
        {
          "indexed": false,
          "internalType": "uint256",
          "name": "amount",
          "type": "uint256"
        }
      ],
      "name": "ERC20PaymentReleased",
      "type": "event"
    },
    {
      "anonymous": false,
      "inputs": [
        {
          "indexed": false,
          "internalType": "uint8",
          "name": "version",
          "type": "uint8"
        }
      ],
      "name": "Initialized",
      "type": "event"
    },
    {
      "anonymous": false,
      "inputs": [
        {
          "indexed": false,
          "internalType": "address",
          "name": "sentFromUser",
          "type": "address"
        },
        {
          "indexed": false,
          "internalType": "address",
          "name": "token",
          "type": "address"
        },
        {
          "indexed": false,
          "internalType": "uint256",
          "name": "tokenId",
          "type": "uint256"
        },
        {
          "indexed": false,
          "internalType": "uint256",
          "name": "price",
          "type": "uint256"
        }
      ],
      "name": "ListedAPlanet",
      "type": "event"
    },
    {
      "anonymous": false,
      "inputs": [
        {
          "indexed": false,
          "internalType": "address",
          "name": "operator",
          "type": "address"
        },
        {
          "indexed": false,
          "internalType": "address",
          "name": "from",
          "type": "address"
        },
        {
          "indexed": false,
          "internalType": "uint256",
          "name": "tokenId",
          "type": "uint256"
        },
        {
          "indexed": false,
          "internalType": "bytes",
          "name": "data",
          "type": "bytes"
        },
        {
          "indexed": false,
          "internalType": "string",
          "name": "typeOfReceival",
          "type": "string"
        }
      ],
      "name": "NftReceived",
      "type": "event"
    },
    {
      "anonymous": false,
      "inputs": [
        {
          "indexed": false,
          "internalType": "address",
          "name": "parentA",
          "type": "address"
        },
        {
          "indexed": false,
          "internalType": "address",
          "name": "parentB",
          "type": "address"
        },
        {
          "indexed": false,
          "internalType": "uint256",
          "name": "tokenIdA",
          "type": "uint256"
        },
        {
          "indexed": false,
          "internalType": "uint256",
          "name": "tokenIdB",
          "type": "uint256"
        },
        {
          "indexed": false,
          "internalType": "uint256",
          "name": "newTokenId",
          "type": "uint256"
        },
        {
          "indexed": false,
          "internalType": "bool",
          "name": "found",
          "type": "bool"
        }
      ],
      "name": "Orphaning",
      "type": "event"
    },
    {
      "anonymous": false,
      "inputs": [
        {
          "indexed": true,
          "internalType": "address",
          "name": "previousOwner",
          "type": "address"
        },
        {
          "indexed": true,
          "internalType": "address",
          "name": "newOwner",
          "type": "address"
        }
      ],
      "name": "OwnershipTransferred",
      "type": "event"
    },
    {
      "anonymous": false,
      "inputs": [
        {
          "indexed": false,
          "internalType": "address",
          "name": "account",
          "type": "address"
        }
      ],
      "name": "Paused",
      "type": "event"
    },
    {
      "anonymous": false,
      "inputs": [
        {
          "indexed": false,
          "internalType": "address",
          "name": "account",
          "type": "address"
        },
        {
          "indexed": false,
          "internalType": "uint256",
          "name": "shares",
          "type": "uint256"
        }
      ],
      "name": "PayeeAdded",
      "type": "event"
    },
    {
      "anonymous": false,
      "inputs": [
        {
          "indexed": false,
          "internalType": "address",
          "name": "from",
          "type": "address"
        },
        {
          "indexed": false,
          "internalType": "uint256",
          "name": "amount",
          "type": "uint256"
        }
      ],
      "name": "PaymentReceived",
      "type": "event"
    },
    {
      "anonymous": false,
      "inputs": [
        {
          "indexed": false,
          "internalType": "address",
          "name": "to",
          "type": "address"
        },
        {
          "indexed": false,
          "internalType": "uint256",
          "name": "amount",
          "type": "uint256"
        }
      ],
      "name": "PaymentReleased",
      "type": "event"
    },
    {
      "anonymous": false,
      "inputs": [
        {
          "indexed": false,
          "internalType": "uint256",
          "name": "planetAsking",
          "type": "uint256"
        },
        {
          "indexed": false,
          "internalType": "address",
          "name": "askingUser",
          "type": "address"
        },
        {
          "indexed": false,
          "internalType": "uint256",
          "name": "planetJoining",
          "type": "uint256"
        },
        {
          "indexed": false,
          "internalType": "address",
          "name": "joiningUser",
          "type": "address"
        }
      ],
      "name": "PlanetsConjoining",
      "type": "event"
    },
    {
      "anonymous": false,
      "inputs": [
        {
          "indexed": true,
          "internalType": "address",
          "name": "from",
          "type": "address"
        },
        {
          "indexed": true,
          "internalType": "address",
          "name": "to",
          "type": "address"
        },
        {
          "indexed": false,
          "internalType": "uint256",
          "name": "value",
          "type": "uint256"
        }
      ],
      "name": "Transfer",
      "type": "event"
    },
    {
      "anonymous": false,
      "inputs": [
        {
          "indexed": false,
          "internalType": "address",
          "name": "account",
          "type": "address"
        }
      ],
      "name": "Unpaused",
      "type": "event"
    },
    {
      "anonymous": false,
      "inputs": [
        {
          "indexed": true,
          "internalType": "address",
          "name": "implementation",
          "type": "address"
        }
      ],
      "name": "Upgraded",
      "type": "event"
    },
    {
      "stateMutability": "payable",
      "type": "fallback"
    },
    {
      "inputs": [],
      "name": "DOMAIN_SEPARATOR",
      "outputs": [
        {
          "internalType": "bytes32",
          "name": "",
          "type": "bytes32"
        }
      ],
      "stateMutability": "view",
      "type": "function"
    },
    {
      "inputs": [
        {
          "internalType": "address",
          "name": "owner",
          "type": "address"
        },
        {
          "internalType": "address",
          "name": "spender",
          "type": "address"
        }
      ],
      "name": "allowance",
      "outputs": [
        {
          "internalType": "uint256",
          "name": "",
          "type": "uint256"
        }
      ],
      "stateMutability": "view",
      "type": "function"
    },
    {
      "inputs": [
        {
          "internalType": "address",
          "name": "spender",
          "type": "address"
        },
        {
          "internalType": "uint256",
          "name": "amount",
          "type": "uint256"
        }
      ],
      "name": "approve",
      "outputs": [
        {
          "internalType": "bool",
          "name": "",
          "type": "bool"
        }
      ],
      "stateMutability": "nonpayable",
      "type": "function"
    },
    {
      "inputs": [
        {
          "internalType": "contract IERC721",
          "name": "token",
          "type": "address"
        },
        {
          "internalType": "address",
          "name": "operator",
          "type": "address"
        }
      ],
      "name": "approveAllERC721Tokens",
      "outputs": [],
      "stateMutability": "nonpayable",
      "type": "function"
    },
    {
      "inputs": [
        {
          "internalType": "contract IERC20",
          "name": "token",
          "type": "address"
        },
        {
          "internalType": "address",
          "name": "spender",
          "type": "address"
        },
        {
          "internalType": "uint256",
          "name": "amount",
          "type": "uint256"
        }
      ],
      "name": "approveERC20",
      "outputs": [],
      "stateMutability": "nonpayable",
      "type": "function"
    },
    {
      "inputs": [
        {
          "internalType": "address",
          "name": "account",
          "type": "address"
        }
      ],
      "name": "balanceOf",
      "outputs": [
        {
          "internalType": "uint256",
          "name": "",
          "type": "uint256"
        }
      ],
      "stateMutability": "view",
      "type": "function"
    },
    {
      "inputs": [],
      "name": "breedContract",
      "outputs": [
        {
          "internalType": "contract IBreedContract",
          "name": "",
          "type": "address"
        }
      ],
      "stateMutability": "view",
      "type": "function"
    },
    {
      "inputs": [
        {
          "internalType": "uint256",
          "name": "newVRF",
          "type": "uint256"
        }
      ],
      "name": "changeVRFValue",
      "outputs": [],
      "stateMutability": "nonpayable",
      "type": "function"
    },
    {
      "inputs": [
        {
          "internalType": "address",
          "name": "owner",
          "type": "address"
        },
        {
          "internalType": "address",
          "name": "operator",
          "type": "address"
        }
      ],
      "name": "checkApprovalForAll",
      "outputs": [
        {
          "internalType": "bool",
          "name": "",
          "type": "bool"
        }
      ],
      "stateMutability": "view",
      "type": "function"
    },
    {
      "inputs": [
        {
          "internalType": "uint256",
          "name": "claimableTokenId",
          "type": "uint256"
        }
      ],
      "name": "claimPlanet",
      "outputs": [],
      "stateMutability": "nonpayable",
      "type": "function"
    },
    {
      "inputs": [
        {
          "internalType": "address",
          "name": "",
          "type": "address"
        },
        {
          "internalType": "uint256",
          "name": "",
          "type": "uint256"
        }
      ],
      "name": "claimablePlanets",
      "outputs": [
        {
          "internalType": "address",
          "name": "ownerParentAddress",
          "type": "address"
        },
        {
          "internalType": "uint256",
          "name": "ownerTokenId",
          "type": "uint256"
        },
        {
          "internalType": "bool",
          "name": "delivered",
          "type": "bool"
        },
        {
          "internalType": "bool",
          "name": "arrived",
          "type": "bool"
        },
        {
          "internalType": "address",
          "name": "otherParent",
          "type": "address"
        },
        {
          "internalType": "uint256",
          "name": "otherTokenId",
          "type": "uint256"
        },
        {
          "internalType": "uint256",
          "name": "claimsTokenId",
          "type": "uint256"
        }
      ],
      "stateMutability": "view",
      "type": "function"
    },
    {
      "inputs": [
        {
          "internalType": "uint256",
          "name": "",
          "type": "uint256"
        }
      ],
      "name": "claimantTokenIdToOwnerAddress",
      "outputs": [
        {
          "internalType": "address",
          "name": "",
          "type": "address"
        }
      ],
      "stateMutability": "view",
      "type": "function"
    },
    {
      "inputs": [
        {
          "internalType": "uint256",
          "name": "yourPlanet",
          "type": "uint256"
        },
        {
          "internalType": "uint256",
          "name": "withListedPlanet",
          "type": "uint256"
        }
      ],
      "name": "conjunct",
      "outputs": [],
      "stateMutability": "payable",
      "type": "function"
    },
    {
      "inputs": [
        {
          "internalType": "uint256",
          "name": "idIndex",
          "type": "uint256"
        },
        {
          "internalType": "uint256",
          "name": "tokenId",
          "type": "uint256"
        }
      ],
      "name": "deList",
      "outputs": [],
      "stateMutability": "nonpayable",
      "type": "function"
    },
    {
      "inputs": [],
      "name": "deListAllYourPlanets",
      "outputs": [],
      "stateMutability": "nonpayable",
      "type": "function"
    },
    {
      "inputs": [],
      "name": "decimals",
      "outputs": [
        {
          "internalType": "uint8",
          "name": "",
          "type": "uint8"
        }
      ],
      "stateMutability": "view",
      "type": "function"
    },
    {
      "inputs": [
        {
          "internalType": "address",
          "name": "spender",
          "type": "address"
        },
        {
          "internalType": "uint256",
          "name": "subtractedValue",
          "type": "uint256"
        }
      ],
      "name": "decreaseAllowance",
      "outputs": [
        {
          "internalType": "bool",
          "name": "",
          "type": "bool"
        }
      ],
      "stateMutability": "nonpayable",
      "type": "function"
    },
    {
      "inputs": [],
      "name": "eip712Domain",
      "outputs": [
        {
          "internalType": "bytes1",
          "name": "fields",
          "type": "bytes1"
        },
        {
          "internalType": "string",
          "name": "name",
          "type": "string"
        },
        {
          "internalType": "string",
          "name": "version",
          "type": "string"
        },
        {
          "internalType": "uint256",
          "name": "chainId",
          "type": "uint256"
        },
        {
          "internalType": "address",
          "name": "verifyingContract",
          "type": "address"
        },
        {
          "internalType": "bytes32",
          "name": "salt",
          "type": "bytes32"
        },
        {
          "internalType": "uint256[]",
          "name": "extensions",
          "type": "uint256[]"
        }
      ],
      "stateMutability": "view",
      "type": "function"
    },
    {
      "inputs": [],
      "name": "getAllPlanets",
      "outputs": [
        {
          "components": [
            {
              "internalType": "uint256",
              "name": "tokenId",
              "type": "uint256"
            },
            {
              "internalType": "uint256",
              "name": "price",
              "type": "uint256"
            },
            {
              "internalType": "address",
              "name": "ownerAddress",
              "type": "address"
            },
            {
              "internalType": "bool",
              "name": "active",
              "type": "bool"
            }
          ],
          "internalType": "struct ListedPlanet[]",
          "name": "",
          "type": "tuple[]"
        }
      ],
      "stateMutability": "view",
      "type": "function"
    },
    {
      "inputs": [
        {
          "internalType": "address",
          "name": "userAddr",
          "type": "address"
        }
      ],
      "name": "getClaimablePlanetsFor",
      "outputs": [
        {
          "components": [
            {
              "internalType": "address",
              "name": "ownerParentAddress",
              "type": "address"
            },
            {
              "internalType": "uint256",
              "name": "ownerTokenId",
              "type": "uint256"
            },
            {
              "internalType": "bool",
              "name": "delivered",
              "type": "bool"
            },
            {
              "internalType": "bool",
              "name": "arrived",
              "type": "bool"
            },
            {
              "internalType": "address",
              "name": "otherParent",
              "type": "address"
            },
            {
              "internalType": "uint256",
              "name": "otherTokenId",
              "type": "uint256"
            },
            {
              "internalType": "uint256",
              "name": "claimsTokenId",
              "type": "uint256"
            }
          ],
          "internalType": "struct ClaimablePlanet[]",
          "name": "",
          "type": "tuple[]"
        }
      ],
      "stateMutability": "view",
      "type": "function"
    },
    {
      "inputs": [
        {
          "internalType": "uint256",
          "name": "claimableTokenId",
          "type": "uint256"
        }
      ],
      "name": "getClaimantTokenIdToOwnerAddress",
      "outputs": [
        {
          "internalType": "address",
          "name": "",
          "type": "address"
        }
      ],
      "stateMutability": "view",
      "type": "function"
    },
    {
      "inputs": [
        {
          "internalType": "uint256",
          "name": "listedTokenId",
          "type": "uint256"
        }
      ],
      "name": "getListedTokenIdToOwnerAddr",
      "outputs": [
        {
          "internalType": "address",
          "name": "",
          "type": "address"
        }
      ],
      "stateMutability": "view",
      "type": "function"
    },
    {
      "inputs": [
        {
          "internalType": "uint256",
          "name": "startIndex",
          "type": "uint256"
        },
        {
          "internalType": "uint256",
          "name": "endIndex",
          "type": "uint256"
        }
      ],
      "name": "getPlanetsPaginated",
      "outputs": [
        {
          "components": [
            {
              "internalType": "uint256",
              "name": "tokenId",
              "type": "uint256"
            },
            {
              "internalType": "uint256",
              "name": "price",
              "type": "uint256"
            },
            {
              "internalType": "address",
              "name": "ownerAddress",
              "type": "address"
            },
            {
              "internalType": "bool",
              "name": "active",
              "type": "bool"
            }
          ],
          "internalType": "struct ListedPlanet[]",
          "name": "",
          "type": "tuple[]"
        }
      ],
      "stateMutability": "view",
      "type": "function"
    },
    {
      "inputs": [
        {
          "internalType": "address",
          "name": "userAddr",
          "type": "address"
        }
      ],
      "name": "getuserToListedPlanets",
      "outputs": [
        {
          "components": [
            {
              "internalType": "uint256",
              "name": "tokenId",
              "type": "uint256"
            },
            {
              "internalType": "uint256",
              "name": "price",
              "type": "uint256"
            },
            {
              "internalType": "address",
              "name": "ownerAddress",
              "type": "address"
            },
            {
              "internalType": "bool",
              "name": "active",
              "type": "bool"
            }
          ],
          "internalType": "struct ListedPlanet[]",
          "name": "",
          "type": "tuple[]"
        }
      ],
      "stateMutability": "view",
      "type": "function"
    },
    {
      "inputs": [
        {
          "internalType": "address",
          "name": "owner",
          "type": "address"
        },
        {
          "internalType": "uint256",
          "name": "tokenId",
          "type": "uint256"
        }
      ],
      "name": "hasPlanetArrived",
      "outputs": [
        {
          "internalType": "bool",
          "name": "arrived",
          "type": "bool"
        }
      ],
      "stateMutability": "view",
      "type": "function"
    },
    {
      "inputs": [
        {
          "internalType": "address",
          "name": "owner",
          "type": "address"
        },
        {
          "internalType": "uint256",
          "name": "tokenId",
          "type": "uint256"
        }
      ],
      "name": "hasPlanetBeenDelivered",
      "outputs": [
        {
          "internalType": "bool",
          "name": "delivered",
          "type": "bool"
        }
      ],
      "stateMutability": "view",
      "type": "function"
    },
    {
      "inputs": [
        {
          "internalType": "address",
          "name": "spender",
          "type": "address"
        },
        {
          "internalType": "uint256",
          "name": "addedValue",
          "type": "uint256"
        }
      ],
      "name": "increaseAllowance",
      "outputs": [
        {
          "internalType": "bool",
          "name": "",
          "type": "bool"
        }
      ],
      "stateMutability": "nonpayable",
      "type": "function"
    },
    {
      "inputs": [
        {
          "internalType": "address",
          "name": "initialOwner",
          "type": "address"
        }
      ],
      "name": "initialize",
      "outputs": [],
      "stateMutability": "nonpayable",
      "type": "function"
    },
    {
      "inputs": [],
      "name": "listAllYourPlanets",
      "outputs": [],
      "stateMutability": "nonpayable",
      "type": "function"
    },
    {
      "inputs": [
        {
          "internalType": "uint256",
          "name": "",
          "type": "uint256"
        }
      ],
      "name": "listedTokenIdToOwnerAddr",
      "outputs": [
        {
          "internalType": "address",
          "name": "",
          "type": "address"
        }
      ],
      "stateMutability": "view",
      "type": "function"
    },
    {
      "inputs": [],
      "name": "name",
      "outputs": [
        {
          "internalType": "string",
          "name": "",
          "type": "string"
        }
      ],
      "stateMutability": "view",
      "type": "function"
    },
    {
      "inputs": [
        {
          "internalType": "address",
          "name": "owner",
          "type": "address"
        }
      ],
      "name": "nonces",
      "outputs": [
        {
          "internalType": "uint256",
          "name": "",
          "type": "uint256"
        }
      ],
      "stateMutability": "view",
      "type": "function"
    },
    {
      "inputs": [
        {
          "internalType": "address",
          "name": "operator",
          "type": "address"
        },
        {
          "internalType": "address",
          "name": "from",
          "type": "address"
        },
        {
          "internalType": "uint256",
          "name": "tokenId",
          "type": "uint256"
        },
        {
          "internalType": "bytes",
          "name": "data",
          "type": "bytes"
        }
      ],
      "name": "onERC721Received",
      "outputs": [
        {
          "internalType": "bytes4",
          "name": "",
          "type": "bytes4"
        }
      ],
      "stateMutability": "nonpayable",
      "type": "function"
    },
    {
      "inputs": [
        {
          "internalType": "uint256",
          "name": "",
          "type": "uint256"
        },
        {
          "internalType": "uint256",
          "name": "",
          "type": "uint256"
        }
      ],
      "name": "orphanClaims",
      "outputs": [
        {
          "internalType": "address",
          "name": "ownerParentAddress",
          "type": "address"
        },
        {
          "internalType": "uint256",
          "name": "ownerTokenId",
          "type": "uint256"
        },
        {
          "internalType": "bool",
          "name": "delivered",
          "type": "bool"
        },
        {
          "internalType": "bool",
          "name": "arrived",
          "type": "bool"
        },
        {
          "internalType": "address",
          "name": "otherParent",
          "type": "address"
        },
        {
          "internalType": "uint256",
          "name": "otherTokenId",
          "type": "uint256"
        },
        {
          "internalType": "uint256",
          "name": "claimsTokenId",
          "type": "uint256"
        }
      ],
      "stateMutability": "view",
      "type": "function"
    },
    {
      "inputs": [],
      "name": "owner",
      "outputs": [
        {
          "internalType": "address",
          "name": "",
          "type": "address"
        }
      ],
      "stateMutability": "view",
      "type": "function"
    },
    {
      "inputs": [
        {
          "internalType": "uint256",
          "name": "claimableTokenId",
          "type": "uint256"
        },
        {
          "internalType": "address",
          "name": "sendToAddr",
          "type": "address"
        }
      ],
      "name": "ownerClaimPlanet",
      "outputs": [],
      "stateMutability": "nonpayable",
      "type": "function"
    },
    {
      "inputs": [
        {
          "internalType": "uint256",
          "name": "tokenId",
          "type": "uint256"
        },
        {
          "internalType": "address",
          "name": "destinationAddr",
          "type": "address"
        }
      ],
      "name": "ownerOverrideSendNFT",
      "outputs": [],
      "stateMutability": "nonpayable",
      "type": "function"
    },
    {
      "inputs": [],
      "name": "pause",
      "outputs": [],
      "stateMutability": "nonpayable",
      "type": "function"
    },
    {
      "inputs": [],
      "name": "paused",
      "outputs": [
        {
          "internalType": "bool",
          "name": "",
          "type": "bool"
        }
      ],
      "stateMutability": "view",
      "type": "function"
    },
    {
      "inputs": [
        {
          "internalType": "uint256",
          "name": "index",
          "type": "uint256"
        }
      ],
      "name": "payee",
      "outputs": [
        {
          "internalType": "address",
          "name": "",
          "type": "address"
        }
      ],
      "stateMutability": "view",
      "type": "function"
    },
    {
      "inputs": [
        {
          "internalType": "address",
          "name": "owner",
          "type": "address"
        },
        {
          "internalType": "address",
          "name": "spender",
          "type": "address"
        },
        {
          "internalType": "uint256",
          "name": "value",
          "type": "uint256"
        },
        {
          "internalType": "uint256",
          "name": "deadline",
          "type": "uint256"
        },
        {
          "internalType": "uint8",
          "name": "v",
          "type": "uint8"
        },
        {
          "internalType": "bytes32",
          "name": "r",
          "type": "bytes32"
        },
        {
          "internalType": "bytes32",
          "name": "s",
          "type": "bytes32"
        }
      ],
      "name": "permit",
      "outputs": [],
      "stateMutability": "nonpayable",
      "type": "function"
    },
    {
      "inputs": [],
      "name": "proxiableUUID",
      "outputs": [
        {
          "internalType": "bytes32",
          "name": "",
          "type": "bytes32"
        }
      ],
      "stateMutability": "view",
      "type": "function"
    },
    {
      "inputs": [
        {
          "internalType": "address",
          "name": "account",
          "type": "address"
        }
      ],
      "name": "releasable",
      "outputs": [
        {
          "internalType": "uint256",
          "name": "",
          "type": "uint256"
        }
      ],
      "stateMutability": "view",
      "type": "function"
    },
    {
      "inputs": [
        {
          "internalType": "contract IERC20Upgradeable",
          "name": "token",
          "type": "address"
        },
        {
          "internalType": "address",
          "name": "account",
          "type": "address"
        }
      ],
      "name": "releasable",
      "outputs": [
        {
          "internalType": "uint256",
          "name": "",
          "type": "uint256"
        }
      ],
      "stateMutability": "view",
      "type": "function"
    },
    {
      "inputs": [
        {
          "internalType": "address payable",
          "name": "account",
          "type": "address"
        }
      ],
      "name": "release",
      "outputs": [],
      "stateMutability": "nonpayable",
      "type": "function"
    },
    {
      "inputs": [
        {
          "internalType": "contract IERC20Upgradeable",
          "name": "token",
          "type": "address"
        },
        {
          "internalType": "address",
          "name": "account",
          "type": "address"
        }
      ],
      "name": "release",
      "outputs": [],
      "stateMutability": "nonpayable",
      "type": "function"
    },
    {
      "inputs": [
        {
          "internalType": "contract IERC20Upgradeable",
          "name": "token",
          "type": "address"
        },
        {
          "internalType": "address",
          "name": "account",
          "type": "address"
        }
      ],
      "name": "released",
      "outputs": [
        {
          "internalType": "uint256",
          "name": "",
          "type": "uint256"
        }
      ],
      "stateMutability": "view",
      "type": "function"
    },
    {
      "inputs": [
        {
          "internalType": "address",
          "name": "account",
          "type": "address"
        }
      ],
      "name": "released",
      "outputs": [
        {
          "internalType": "uint256",
          "name": "",
          "type": "uint256"
        }
      ],
      "stateMutability": "view",
      "type": "function"
    },
    {
      "inputs": [],
      "name": "renounceOwnership",
      "outputs": [],
      "stateMutability": "nonpayable",
      "type": "function"
    },
    {
      "inputs": [
        {
          "internalType": "address",
          "name": "_breederContractAddr",
          "type": "address"
        },
        {
          "internalType": "uint256",
          "name": "_vrfValue",
          "type": "uint256"
        },
        {
          "internalType": "address",
          "name": "_nftContractAddr",
          "type": "address"
        },
        {
          "internalType": "address",
          "name": "_aprsContract",
          "type": "address"
        },
        {
          "internalType": "address",
          "name": "_animaContract",
          "type": "address"
        },
        {
          "internalType": "address",
          "name": "_mgrContract",
          "type": "address"
        }
      ],
      "name": "setAllOf",
      "outputs": [],
      "stateMutability": "nonpayable",
      "type": "function"
    },
    {
      "inputs": [
        {
          "internalType": "address[2]",
          "name": "parents",
          "type": "address[2]"
        },
        {
          "internalType": "uint256",
          "name": "newTokenId",
          "type": "uint256"
        },
        {
          "internalType": "uint256[2]",
          "name": "parentTokenIds",
          "type": "uint256[2]"
        }
      ],
      "name": "setArrivedOwner",
      "outputs": [],
      "stateMutability": "nonpayable",
      "type": "function"
    },
    {
      "inputs": [
        {
          "internalType": "uint256",
          "name": "_toThisPercentage",
          "type": "uint256"
        }
      ],
      "name": "setMktFee",
      "outputs": [],
      "stateMutability": "nonpayable",
      "type": "function"
    },
    {
      "inputs": [
        {
          "internalType": "address payable",
          "name": "newTAdd",
          "type": "address"
        }
      ],
      "name": "setTAdd",
      "outputs": [],
      "stateMutability": "nonpayable",
      "type": "function"
    },
    {
      "inputs": [
        {
          "internalType": "address",
          "name": "account",
          "type": "address"
        }
      ],
      "name": "shares",
      "outputs": [
        {
          "internalType": "uint256",
          "name": "",
          "type": "uint256"
        }
      ],
      "stateMutability": "view",
      "type": "function"
    },
    {
      "inputs": [],
      "name": "status",
      "outputs": [],
      "stateMutability": "nonpayable",
      "type": "function"
    },
    {
      "inputs": [],
      "name": "symbol",
      "outputs": [
        {
          "internalType": "string",
          "name": "",
          "type": "string"
        }
      ],
      "stateMutability": "view",
      "type": "function"
    },
    {
      "inputs": [
        {
          "internalType": "uint256",
          "name": "",
          "type": "uint256"
        }
      ],
      "name": "tokenIdClaimableToOwnerAddr",
      "outputs": [
        {
          "internalType": "address",
          "name": "",
          "type": "address"
        }
      ],
      "stateMutability": "view",
      "type": "function"
    },
    {
      "inputs": [
        {
          "internalType": "contract IERC20Upgradeable",
          "name": "token",
          "type": "address"
        }
      ],
      "name": "totalReleased",
      "outputs": [
        {
          "internalType": "uint256",
          "name": "",
          "type": "uint256"
        }
      ],
      "stateMutability": "view",
      "type": "function"
    },
    {
      "inputs": [],
      "name": "totalReleased",
      "outputs": [
        {
          "internalType": "uint256",
          "name": "",
          "type": "uint256"
        }
      ],
      "stateMutability": "view",
      "type": "function"
    },
    {
      "inputs": [],
      "name": "totalShares",
      "outputs": [
        {
          "internalType": "uint256",
          "name": "",
          "type": "uint256"
        }
      ],
      "stateMutability": "view",
      "type": "function"
    },
    {
      "inputs": [],
      "name": "totalSupply",
      "outputs": [
        {
          "internalType": "uint256",
          "name": "",
          "type": "uint256"
        }
      ],
      "stateMutability": "view",
      "type": "function"
    },
    {
      "inputs": [
        {
          "internalType": "address",
          "name": "to",
          "type": "address"
        },
        {
          "internalType": "uint256",
          "name": "amount",
          "type": "uint256"
        }
      ],
      "name": "transfer",
      "outputs": [
        {
          "internalType": "bool",
          "name": "",
          "type": "bool"
        }
      ],
      "stateMutability": "nonpayable",
      "type": "function"
    },
    {
      "inputs": [
        {
          "internalType": "address",
          "name": "from",
          "type": "address"
        },
        {
          "internalType": "address",
          "name": "to",
          "type": "address"
        },
        {
          "internalType": "uint256",
          "name": "amount",
          "type": "uint256"
        }
      ],
      "name": "transferFrom",
      "outputs": [
        {
          "internalType": "bool",
          "name": "",
          "type": "bool"
        }
      ],
      "stateMutability": "nonpayable",
      "type": "function"
    },
    {
      "inputs": [
        {
          "internalType": "address",
          "name": "newOwner",
          "type": "address"
        }
      ],
      "name": "transferOwnership",
      "outputs": [],
      "stateMutability": "nonpayable",
      "type": "function"
    },
    {
      "inputs": [],
      "name": "unpause",
      "outputs": [],
      "stateMutability": "nonpayable",
      "type": "function"
    },
    {
      "inputs": [
        {
          "internalType": "address",
          "name": "newImplementation",
          "type": "address"
        }
      ],
      "name": "upgradeTo",
      "outputs": [],
      "stateMutability": "nonpayable",
      "type": "function"
    },
    {
      "inputs": [
        {
          "internalType": "address",
          "name": "newImplementation",
          "type": "address"
        },
        {
          "internalType": "bytes",
          "name": "data",
          "type": "bytes"
        }
      ],
      "name": "upgradeToAndCall",
      "outputs": [],
      "stateMutability": "payable",
      "type": "function"
    },
    {
      "inputs": [
        {
          "internalType": "address",
          "name": "",
          "type": "address"
        },
        {
          "internalType": "uint256",
          "name": "",
          "type": "uint256"
        }
      ],
      "name": "userToListedPlanets",
      "outputs": [
        {
          "internalType": "uint256",
          "name": "tokenId",
          "type": "uint256"
        },
        {
          "internalType": "uint256",
          "name": "price",
          "type": "uint256"
        },
        {
          "internalType": "address",
          "name": "ownerAddress",
          "type": "address"
        },
        {
          "internalType": "bool",
          "name": "active",
          "type": "bool"
        }
      ],
      "stateMutability": "view",
      "type": "function"
    },
    {
      "inputs": [
        {
          "internalType": "address",
          "name": "userAddress",
          "type": "address"
        }
      ],
      "name": "usersClaims",
      "outputs": [
        {
          "components": [
            {
              "internalType": "address",
              "name": "ownerParentAddress",
              "type": "address"
            },
            {
              "internalType": "uint256",
              "name": "ownerTokenId",
              "type": "uint256"
            },
            {
              "internalType": "bool",
              "name": "delivered",
              "type": "bool"
            },
            {
              "internalType": "bool",
              "name": "arrived",
              "type": "bool"
            },
            {
              "internalType": "address",
              "name": "otherParent",
              "type": "address"
            },
            {
              "internalType": "uint256",
              "name": "otherTokenId",
              "type": "uint256"
            },
            {
              "internalType": "uint256",
              "name": "claimsTokenId",
              "type": "uint256"
            }
          ],
          "internalType": "struct ClaimablePlanet[]",
          "name": "",
          "type": "tuple[]"
        }
      ],
      "stateMutability": "view",
      "type": "function"
    },
    {
      "inputs": [
        {
          "internalType": "address",
          "name": "tokenAddress",
          "type": "address"
        },
        {
          "internalType": "address",
          "name": "address1",
          "type": "address"
        },
        {
          "internalType": "address",
          "name": "address2",
          "type": "address"
        },
        {
          "internalType": "uint256",
          "name": "withdrawalAmount",
          "type": "uint256"
        }
      ],
      "name": "withdrawAndSplitERC20",
      "outputs": [],
      "stateMutability": "nonpayable",
      "type": "function"
    },
    {
      "inputs": [
        {
          "internalType": "address",
          "name": "address1",
          "type": "address"
        },
        {
          "internalType": "address",
          "name": "address2",
          "type": "address"
        },
        {
          "internalType": "uint256",
          "name": "withdrawalAmount",
          "type": "uint256"
        }
      ],
      "name": "withdrawAndSplitHalfsies",
      "outputs": [],
      "stateMutability": "nonpayable",
      "type": "function"
    },
    {
      "inputs": [],
      "name": "withdrawFunds",
      "outputs": [],
      "stateMutability": "nonpayable",
      "type": "function"
    },
    {
      "stateMutability": "payable",
      "type": "receive"
    }
  ],
  "bytecode": "0x60a06040523060805234801561001457600080fd5b50608051615ed76200004d600039600081816114f301528181611533015281816117ae015281816117ee0152611aa30152615ed76000f3fe6080604052600436106103875760003560e01c80638456cb59116101d2578063ce7c2ac2116100fd578063e33b7de311610098578063e33b7de314610bfa578063ee6e3a2314610c10578063f2fde38b14610c31578063f4c1494314610c51578063f658159a14610c71578063f837894714610ca8578063fdb4087514610cc8578063fde4976714610ce8578063fe79222914610b6d57005b8063ce7c2ac214610a54578063d28c933414610a8b578063d4b5b8d614610af6578063d505accf14610b2d578063d79779b214610b4d578063dbb774d814610b6d578063dd22a9c714610b9a578063dd62ed3e14610bba578063e22aecb414610bda57005b8063a457c2d71161016d578063a457c2d71461091d578063a8e5e4aa1461093d578063a9059cbb1461095d578063bd83dc051461097d578063c45ac050146109b4578063c4d66de8146109d4578063c7c0e6b1146109f4578063cbdf1b5a14610a14578063cdb82a3714610a3457005b80638456cb59146104af57806384b0196e146107f057806385fe7243146108185780638b83209b146108695780638da5cb5b1461088957806395d89b41146108a85780639852595c146108bd5780639e024710146108dd578063a3f8eace146108fd57005b80633a7fb03d116102b257806352d1902d1161024d57806352d1902d146106d95780635b634b6a146106ee5780635c975abb146107255780636a23befb1461073d57806370a0823114610752578063715018a6146107885780637ecebe001461079d5780638230a784146107bd57806384290591146107d057005b80633a7fb03d146105fb5780633a98ef391461061b5780633f4ba83a14610631578063406072a91461064657806348b75044146106665780634d950449146106865780634f1ef286146106a657806350842cf3146104835780635270ad6c146106b957005b8063229c23cc11610322578063229c23cc146104c457806323b872dd146104e457806324600fc3146105045780632594781814610519578063313ce5671461054657806334ae54e9146105625780633644e515146105a65780633659cfe6146105bb57806339509351146105db57005b806306fdde0314610390578063095ea7b3146103bb5780630f33c7c2146103eb578063150b7a021461040b57806318160ddd1461044457806319165587146104635780631ac9a91e146104835780631dd320ea1461048f578063200d2ed2146104af57005b3661038e57005b005b34801561039c57600080fd5b506103a5610d08565b6040516103b2919061509b565b60405180910390f35b3480156103c757600080fd5b506103db6103d63660046150c3565b610d9a565b60405190151581526020016103b2565b3480156103f757600080fd5b5061038e610406366004615180565b610db4565b34801561041757600080fd5b5061042b6104263660046152ac565b610dcc565b6040516001600160e01b031990911681526020016103b2565b34801561045057600080fd5b5060cb545b6040519081526020016103b2565b34801561046f57600080fd5b5061038e61047e366004615317565b611078565b34801561038e57600080fd5b34801561049b57600080fd5b506103db6104aa3660046150c3565b611164565b3480156104bb57600080fd5b5061038e611229565b3480156104d057600080fd5b5061038e6104df366004615334565b611239565b3480156104f057600080fd5b506103db6104ff366004615334565b6112ed565b34801561051057600080fd5b5061038e611311565b34801561052557600080fd5b50610539610534366004615375565b611353565b6040516103b29190615397565b34801561055257600080fd5b50604051601281526020016103b2565b34801561056e57600080fd5b5061059961057d366004615406565b6101cc602052600090815260409020546001600160a01b031681565b6040516103b2919061541f565b3480156105b257600080fd5b506104556114da565b3480156105c757600080fd5b5061038e6105d6366004615317565b6114e9565b3480156105e757600080fd5b506103db6105f63660046150c3565b6115b1565b34801561060757600080fd5b5061038e610616366004615433565b6115d3565b34801561062757600080fd5b5061016254610455565b34801561063d57600080fd5b5061038e611649565b34801561065257600080fd5b50610455610661366004615463565b611659565b34801561067257600080fd5b5061038e610681366004615463565b611685565b34801561069257600080fd5b5061038e6106a1366004615406565b611796565b61038e6106b4366004615491565b6117a4565b3480156106c557600080fd5b5061038e6106d4366004615406565b611859565b3480156106e557600080fd5b50610455611a96565b3480156106fa57600080fd5b50610599610709366004615406565b6101cf602052600090815260409020546001600160a01b031681565b34801561073157600080fd5b5060335460ff166103db565b34801561074957600080fd5b50610539611b44565b34801561075e57600080fd5b5061045561076d366004615317565b6001600160a01b0316600090815260c9602052604090205490565b34801561079457600080fd5b5061038e611bda565b3480156107a957600080fd5b506104556107b8366004615317565b611bec565b61038e6107cb366004615375565b611c0b565b3480156107dc57600080fd5b5061038e6107eb3660046154e0565b61242a565b3480156107fc57600080fd5b5061080561265d565b6040516103b29796959493929190615531565b34801561082457600080fd5b506108386108333660046150c3565b6126fb565b6040516103b2949392919093845260208401929092526001600160a01b031660408301521515606082015260800190565b34801561087557600080fd5b50610599610884366004615406565b612753565b34801561089557600080fd5b50610194546001600160a01b0316610599565b3480156108b457600080fd5b506103a5612784565b3480156108c957600080fd5b506104556108d8366004615317565b612793565b3480156108e957600080fd5b5061038e6108f83660046155ca565b6127af565b34801561090957600080fd5b50610455610918366004615317565b61282b565b34801561092957600080fd5b506103db6109383660046150c3565b61285e565b34801561094957600080fd5b5061038e610958366004615334565b6128d9565b34801561096957600080fd5b506103db6109783660046150c3565b61298d565b34801561098957600080fd5b50610599610998366004615406565b60009081526101cc60205260409020546001600160a01b031690565b3480156109c057600080fd5b506104556109cf366004615463565b61299b565b3480156109e057600080fd5b5061038e6109ef366004615317565b612a2f565b348015610a0057600080fd5b5061038e610a0f366004615406565b612b59565b348015610a2057600080fd5b5061038e610a2f366004615375565b612b6f565b348015610a4057600080fd5b5061038e610a4f366004615317565b612ebb565b348015610a6057600080fd5b50610455610a6f366004615317565b6001600160a01b03166000908152610164602052604090205490565b348015610a9757600080fd5b50610aab610aa6366004615375565b612eee565b604080516001600160a01b0398891681526020810197909752941515948601949094529115156060850152909316608083015260a082019290925260c081019190915260e0016103b2565b348015610b0257600080fd5b50610599610b11366004615406565b6101d0602052600090815260409020546001600160a01b031681565b348015610b3957600080fd5b5061038e610b48366004615643565b612f5f565b348015610b5957600080fd5b50610455610b68366004615317565b6130c3565b348015610b7957600080fd5b50610b8d610b88366004615317565b6130df565b6040516103b291906156ba565b348015610ba657600080fd5b506103db610bb5366004615463565b6131af565b348015610bc657600080fd5b50610455610bd5366004615463565b613227565b348015610be657600080fd5b50610aab610bf53660046150c3565b613252565b348015610c0657600080fd5b5061016354610455565b348015610c1c57600080fd5b506101c654610599906001600160a01b031681565b348015610c3d57600080fd5b5061038e610c4c366004615317565b61326f565b348015610c5d57600080fd5b506103db610c6c3660046150c3565b6132e5565b348015610c7d57600080fd5b50610599610c8c366004615406565b60009081526101d060205260409020546001600160a01b031690565b348015610cb457600080fd5b5061038e610cc3366004615463565b613375565b348015610cd457600080fd5b5061038e610ce3366004615433565b6133ec565b348015610cf457600080fd5b50610539610d03366004615317565b613429565b606060cc8054610d1790615741565b80601f0160208091040260200160405190810160405280929190818152602001828054610d4390615741565b8015610d905780601f10610d6557610100808354040283529160200191610d90565b820191906000526020600020905b815481529060010190602001808311610d7357829003601f168201915b5050505050905090565b600033610da88185856134ca565b60019150505b92915050565b610dbc6135ee565b610dc7838383613649565b505050565b6000808251118015610de957506101c8546001600160a01b031633145b15610e4257600082806020019051810190610e049190615775565b9050610e11848287613bd0565b600080516020615e3b83398151915286868686604051610e34949392919061578e565b60405180910390a150611066565b6101d4546001600160a01b039081169086160361103a576101c85460405163dc9ce7a560e01b8152600481018590526000916001600160a01b03169063dc9ce7a590602401600060405180830381865afa158015610ea4573d6000803e3d6000fd5b505050506040513d6000823e601f3d908101601f19168201604052610ecc9190810190615878565b5090506000816101200151905060006101cc600083600081518110610ef357610ef3615996565b6020026020010151815260200190815260200160002060009054906101000a90046001600160a01b0316905060006101cc600084600181518110610f3957610f39615996565b6020026020010151815260200190815260200160002060009054906101000a90046001600160a01b0316905060006040518060400160405280846001600160a01b03166001600160a01b03168152602001836001600160a01b03166001600160a01b0316815250905060006040518060400160405280876101200151600081518110610fc757610fc7615996565b60200260200101518152602001876101200151600181518110610fec57610fec615996565b60200260200101518152509050600080516020615e3b8339815191528b8b8b8b60405161101c94939291906159ac565b60405180910390a161102f828a83613649565b505050505050611066565b600080516020615e3b8339815191528585858560405161105d9493929190615a0e565b60405180910390a15b50630a85bd0160e11b5b949350505050565b6001600160a01b038116600090815261016460205260409020546110b75760405162461bcd60e51b81526004016110ae90615a73565b60405180910390fd5b60006110c28261282b565b9050806000036110e45760405162461bcd60e51b81526004016110ae90615ab9565b8061016360008282546110f79190615b1a565b90915550506001600160a01b0382166000908152610165602052604090208054820190556111258282613d62565b7fdf20fd1e76bc69d672e4814fafb2c449bba3a5369d8359adf9e05e6fde87b0568282604051611156929190615b2d565b60405180910390a15050565b565b6001600160a01b03821660009081526101cd60205260408120815b81548110156111ed578382828154811061119b5761119b615996565b906000526020600020906005020160040154036111e5578181815481106111c4576111c4615996565b600091825260209091206002600590920201015460ff169250610dae915050565b60010161117f565b5060405162461bcd60e51b815260206004820152601060248201526f141b185b995d081b9bdd08199bdd5b9960821b60448201526064016110ae565b6112316135ee565b611162613e78565b6112416135ee565b611249613ecc565b478111156112695760405162461bcd60e51b81526004016110ae90615b46565b6000611276600283615b74565b6040519091506001600160a01b0385169082156108fc029083906000818181858888f193505050501580156112af573d6000803e3d6000fd5b506040516001600160a01b0384169082156108fc029083906000818181858888f193505050501580156112e6573d6000803e3d6000fd5b5050505050565b6000336112fb858285613f12565b611306858585613f8c565b506001949350505050565b6113196135ee565b611321613ecc565b604051339081904780156108fc02916000818181858888f1935050505015801561134f573d6000803e3d6000fd5b5050565b60608282116113945760405162461bcd60e51b815260206004820152600d60248201526c092dcecc2d8d2c840d2dcc8caf609b1b60448201526064016110ae565b6101cb548211156113b75760405162461bcd60e51b81526004016110ae90615b96565b60006113c38484615bc3565b6001600160401b038111156113da576113da6150ef565b60405190808252806020026020018201604052801561142c57816020015b6040805160808101825260008082526020808301829052928201819052606082015282526000199092019101816113f85790505b509050835b838110156114d2576101cb818154811061144d5761144d615996565b600091825260209182902060408051608081018252600393909302909101805483526001810154938301939093526002909201546001600160a01b03811692820192909252600160a01b90910460ff1615156060820152826114af8784615bc3565b815181106114bf576114bf615996565b6020908102919091010152600101611431565b509392505050565b60006114e4614137565b905090565b6001600160a01b037f00000000000000000000000000000000000000000000000000000000000000001630036115315760405162461bcd60e51b81526004016110ae90615bd6565b7f00000000000000000000000000000000000000000000000000000000000000006001600160a01b0316611563614141565b6001600160a01b0316146115895760405162461bcd60e51b81526004016110ae90615c22565b6115928161415d565b604080516000808252602082019092526115ae91839190614165565b50565b600033610da88185856115c48383613227565b6115ce9190615b1a565b6134ca565b6115db6135ee565b6115e3613ecc565b60006115ef83836142d0565b90506115fa83614345565b6101c8546040517f3e47efa91d5d329f50f04f0b9784b40b63d441ca130a5ddca1865d16e4d612a39161163c9185916001600160a01b03169087908690615c6e565b60405180910390a1505050565b6116516135ee565b6111626143e5565b6001600160a01b0391821660009081526101686020908152604080832093909416825291909152205490565b6001600160a01b038116600090815261016460205260409020546116bb5760405162461bcd60e51b81526004016110ae90615a73565b60006116c7838361299b565b9050806000036116e95760405162461bcd60e51b81526004016110ae90615ab9565b6001600160a01b0383166000908152610167602052604081208054839290611712908490615b1a565b90915550506001600160a01b0380841660009081526101686020908152604080832093861683529290522080548201905561174e83838361441e565b826001600160a01b03167f3be5b7a71e84ed12875d241991c70855ac5817d847039e17a9d895c1ceb0f18a8383604051611789929190615b2d565b60405180910390a2505050565b61179e6135ee565b6101ce55565b6001600160a01b037f00000000000000000000000000000000000000000000000000000000000000001630036117ec5760405162461bcd60e51b81526004016110ae90615bd6565b7f00000000000000000000000000000000000000000000000000000000000000006001600160a01b031661181e614141565b6001600160a01b0316146118445760405162461bcd60e51b81526004016110ae90615c22565b61184d8261415d565b61134f82826001614165565b611861613ecc565b60008181526101cf602052604090205433906001600160a01b0316806118e65760405162461bcd60e51b815260206004820152603460248201527f6164647265737320686173206e6f74206265656e207365742e2020436c61696d604482015273206e6f6e6578697374656e6365206c696b656c7960601b60648201526084016110ae565b6000196001600160a01b0382160161193c5760405162461bcd60e51b8152602060048201526019602482015278383630b732ba103430b9903132b2b71037b9383430b732b21760391b60448201526064016110ae565b816001600160a01b0316816001600160a01b0316146119ca5761195e81614474565b61196782614474565b60405162461bcd60e51b815260206004820152603260248201527f636c61696d206d7573742062652066726f6d20636c61696d616e7473206164646044820152713932b9b99696903234b9b0b63637bbb2b21760711b60648201526084016110ae565b60006119d684846142d0565b905080611a3d5760405162461bcd60e51b815260206004820152602f60248201527f4661696c656420746f2073656e64204e46542e20436865636b20436c61696d6160448201526e1b9d08151bdad95b9259081cd95b9d608a1b60648201526084016110ae565b611a4684614345565b6101c8546040517f3e47efa91d5d329f50f04f0b9784b40b63d441ca130a5ddca1865d16e4d612a391611a889186916001600160a01b03169088908690615c6e565b60405180910390a150505050565b6000306001600160a01b037f00000000000000000000000000000000000000000000000000000000000000001614611b315760405162461bcd60e51b815260206004820152603860248201527f555550535570677261646561626c653a206d757374206e6f742062652063616c6044820152771b1959081d1a1c9bdd59da0819195b1959d85d1958d85b1b60421b60648201526084016110ae565b50600080516020615e5b83398151915290565b60606101cb805480602002602001604051908101604052809291908181526020016000905b82821015611bd1576000848152602090819020604080516080810182526003860290920180548352600180820154848601526002909101546001600160a01b03811692840192909252600160a01b90910460ff16151560608301529083529092019101611b69565b50505050905090565b611be26135ee565b61116260006144b7565b6001600160a01b038116600090815261012f6020526040812054610dae565b611c13613ecc565b808203611c6e5760405162461bcd60e51b815260206004820152602360248201527f4173657875616c20726570726f64756374696f6e206973206e6f7420616c6c6f6044820152621dd95960ea1b60648201526084016110ae565b6000611c798261450a565b6101c8546040516331a9108f60e11b8152600481018690529192506000916001600160a01b0390911690636352211e90602401602060405180830381865afa158015611cc9573d6000803e3d6000fd5b505050506040513d601f19601f82011682018060405250810190611ced9190615c97565b90506001600160a01b0381163014611d775760405162461bcd60e51b815260206004820152604160248201527f596f75206e65656420746f206c6973742f6465706f7369742074686520706c6160448201527f6e657420796f752061726520747279696e6720746f20627265656420776974686064820152601760f91b608482015260a4016110ae565b60008060005b6101cb54811015611e2457866101cb8281548110611d9d57611d9d615996565b90600052602060002090600302016000015403611e1c576101cb8181548110611dc857611dc8615996565b906000526020600020906003020160020160009054906101000a90046001600160a01b031692506101cb8181548110611e0357611e03615996565b9060005260206000209060030201600001549150611e24565b600101611d7d565b506001600160a01b0382163314611e985760405162461bcd60e51b815260206004820152603260248201527f596f7520646f206e6f74206f776e2074686520706c616e657420796f7520617260448201527132903a393cb4b733903a3790313932b2b21760711b60648201526084016110ae565b600060646101ce5486611eab9190615cb4565b611eb59190615b74565b905080856101c954611ec79190615b1a565b611ed19190615b1a565b341015611ef682876101c954611ee79190615b1a565b611ef19190615b1a565b6145ab565b611eff346145ab565b604051602001611f10929190615ccb565b60405160208183030381529060405290611f3d5760405162461bcd60e51b81526004016110ae919061509b565b5033600080805b6101cb54811015611feb57896101cb8281548110611f6457611f64615996565b90600052602060002090600302016000015403611fe3576101cb8181548110611f8f57611f8f615996565b906000526020600020906003020160020160009054906101000a90046001600160a01b031692506101cb8181548110611fca57611fca615996565b9060005260206000209060030201600001549150611feb565b600101611f44565b506706f05b59d3b200004710156120625760405162461bcd60e51b815260206004820152603560248201527f436f6e74726163742068617320496e73756666696369656e742062616c616e63604482015274652c20636f6e74616374206861746368657220687160581b60648201526084016110ae565b6040516000906001600160a01b038416908a156108fc02908b9084818181858888f193505050509050806120cf5760405162461bcd60e51b81526020600482015260146024820152732330b4b632b2103a379039b2b7321022ba3432b960611b60448201526064016110ae565b6101c6546101c954604051634e9e6a0760e01b8152600481018e9052602481018d9052600060448201526001600160a01b0390921691634e9e6a07919060640160206040518083038185885af115801561212d573d6000803e3d6000fd5b50505050506040513d601f19601f820116820180604052508101906121529190615775565b5060006040518060e00160405280866001600160a01b031681526020018d8152602001600015158152602001600015158152602001856001600160a01b03168152602001848152602001600081525090506101cd6000866001600160a01b03166001600160a01b0316815260200190815260200160002081908060018154018082558091505060019003906000526020600020906005020160009091909190915060008201518160000160006101000a8154816001600160a01b0302191690836001600160a01b031602179055506020820151816001015560408201518160020160006101000a81548160ff02191690831515021790555060608201518160020160016101000a81548160ff02191690831515021790555060808201518160020160026101000a8154816001600160a01b0302191690836001600160a01b0316021790555060a0820151816003015560c082015181600401555050846101cc60008e815260200190815260200160002060006101000a8154816001600160a01b0302191690836001600160a01b03160217905550858a6101c9546122f69190615b1a565b6123009190615b1a565b3411156123cc576000336001600160a01b0316878c6101c954346123249190615bc3565b61232e9190615bc3565b6123389190615bc3565b604051600081818185875af1925050503d8060008114612374576040519150601f19603f3d011682016040523d82523d6000602084013e612379565b606091505b50509050806123ca5760405162461bcd60e51b815260206004820152601d60248201527f4661696c656420746f20726566756e642065786365737320457468657200000060448201526064016110ae565b505b604080518d81526001600160a01b0387811660208301528183018e90528616606082015290517f8557df6951fbdd47fe9027516fc896be40f285ed55a6acac460352adbab730cd9181900360800190a1505050505050505050505050565b6124326135ee565b61243a613ecc565b6040516370a0823160e01b815284906000906001600160a01b038316906370a082319061246b90309060040161541f565b602060405180830381865afa158015612488573d6000803e3d6000fd5b505050506040513d601f19601f820116820180604052508101906124ac9190615775565b9050808311156124ce5760405162461bcd60e51b81526004016110ae90615b46565b60006124db600285615b74565b60405163a9059cbb60e01b81529091506001600160a01b0384169063a9059cbb9061250c9089908590600401615b2d565b6020604051808303816000875af115801561252b573d6000803e3d6000fd5b505050506040513d601f19601f8201168201806040525081019061254f9190615d68565b6125995760405162461bcd60e51b815260206004820152601b60248201527a151c985b9cd9995c881d1bc81859191c995cdccc4819985a5b1959602a1b60448201526064016110ae565b60405163a9059cbb60e01b81526001600160a01b0384169063a9059cbb906125c79088908590600401615b2d565b6020604051808303816000875af11580156125e6573d6000803e3d6000fd5b505050506040513d601f19601f8201168201806040525081019061260a9190615d68565b6126545760405162461bcd60e51b815260206004820152601b60248201527a151c985b9cd9995c881d1bc81859191c995cdccc8819985a5b1959602a1b60448201526064016110ae565b50505050505050565b60006060806000806000606060fb546000801b14801561267d575060fc54155b6126c15760405162461bcd60e51b81526020600482015260156024820152741152540dcc4c8e88155b9a5b9a5d1a585b1a5e9959605a1b60448201526064016110ae565b6126c961463d565b6126d161464c565b60408051600080825260208201909252600f60f81b9b939a50919850469750309650945092509050565b6101ca602052816000526040600020818154811061271857600080fd5b60009182526020909120600390910201805460018201546002909201549093509091506001600160a01b03811690600160a01b900460ff1684565b6000610166828154811061276957612769615996565b6000918252602090912001546001600160a01b031692915050565b606060cd8054610d1790615741565b6001600160a01b03166000908152610165602052604090205490565b6127b76135ee565b6127bf613ecc565b6101c9949094556101c680546001600160a01b039687166001600160a01b0319918216179091556101c88054948716948216949094179093556101d18054928616928416929092179091556101d280549185169183169190911790556101d48054929093169116179055565b6000806128386101635490565b6128429047615b1a565b9050612857838261285286612793565b61465b565b9392505050565b6000338161286c8286613227565b9050838110156128cc5760405162461bcd60e51b815260206004820152602560248201527f45524332303a2064656372656173656420616c6c6f77616e63652062656c6f77604482015264207a65726f60d81b60648201526084016110ae565b61130682868684036134ca565b60405163095ea7b360e01b81526001600160a01b0384169063095ea7b3906129079085908590600401615b2d565b6020604051808303816000875af1158015612926573d6000803e3d6000fd5b505050506040513d601f19601f8201168201806040525081019061294a9190615d68565b610dc75760405162461bcd60e51b8152602060048201526014602482015273115490cc8c08185c1c1c9bdd994819985a5b195960621b60448201526064016110ae565b600033610da8818585613f8c565b6000806129a7846130c3565b6040516370a0823160e01b81526001600160a01b038616906370a08231906129d390309060040161541f565b602060405180830381865afa1580156129f0573d6000803e3d6000fd5b505050506040513d601f19601f82011682018060405250810190612a149190615775565b612a1e9190615b1a565b905061107083826128528787611659565b600054610100900460ff1615808015612a4f5750600054600160ff909116105b80612a705750612a5e3061469b565b158015612a70575060005460ff166001145b612ad35760405162461bcd60e51b815260206004820152602e60248201527f496e697469616c697a61626c653a20636f6e747261637420697320616c72656160448201526d191e481a5b9a5d1a585b1a5e995960921b60648201526084016110ae565b6000805460ff191660011790558015612af6576000805461ff0019166101001790555b612afe6146aa565b612b066146d9565b612b0e614708565b612b178261326f565b801561134f576000805461ff0019169055604051600181527f7f26b83ff96e1f2b6a682f133852f6798a09c465da95921460cefb384740249890602001611156565b612b616135ee565b612b69613ecc565b6101c955565b612b77613ecc565b6101cb548210612b995760405162461bcd60e51b81526004016110ae90615b96565b600033905060006101cb8481548110612bb457612bb4615996565b6000918252602091829020604080516080810182526003909302909101805483526001810154938301939093526002909201546001600160a01b03811692820183905260ff600160a01b909104161515606082015291503314612c1657600080fd5b6040518060800160405280826000015181526020016000815260200182604001516001600160a01b03168152602001600015158152506101cb8581548110612c6057612c60615996565b60009182526020808320845160039093020191825583015160018201556040830151600290910180546060909401511515600160a01b026001600160a81b03199094166001600160a01b039092169190911792909217909155612cc384846142d0565b905080612d1c5760405162461bcd60e51b815260206004820152602160248201527f64654c697374696e67204661696c65642073656e64204e46542070726f6365736044820152607360f81b60648201526084016110ae565b3360009081526101ca602052604090208054612d3a90600190615bc3565b81548110612d4a57612d4a615996565b90600052602060002090600302016101ca6000336001600160a01b03166001600160a01b031681526020019081526020016000208681548110612d8f57612d8f615996565b60009182526020808320845460039093020191825560018085015490830155600293840180549490920180546001600160a01b031981166001600160a01b039096169586178255925460ff600160a01b91829004161515026001600160a81b0319909316909417919091179092553381526101ca90915260409020805480612e1957612e19615d83565b600082815260208082206003600019909401938402018281556001810183905560020180546001600160a81b0319169055919092558582526101d090526040902080546001600160a01b03191690556101c85482516040517fc6d479c3ed7081a22666733326104ccbbbaccec81902d39e12430505ee2993bd92612eac9287926001600160a01b03909216918690615c6e565b60405180910390a15050505050565b612ec36135ee565b612ecb613ecc565b6101c780546001600160a01b0319166001600160a01b0392909216919091179055565b6101d36020528160005260406000208181548110612f0b57600080fd5b6000918252602090912060059091020180546001820154600283015460038401546004909401546001600160a01b03938416965091945060ff80821694610100830490911693620100009092049091169187565b83421115612faf5760405162461bcd60e51b815260206004820152601d60248201527f45524332305065726d69743a206578706972656420646561646c696e6500000060448201526064016110ae565b60007f6e71edae12b1b97f4d1f60370fef10105fa2faae0126114a169c64845d6126c9888888612fde8c61472f565b6040805160208101969096526001600160a01b0394851690860152929091166060840152608083015260a082015260c0810186905260e001604051602081830303815290604052805190602001209050600061303982614756565b9050600061304982878787614783565b9050896001600160a01b0316816001600160a01b0316146130ac5760405162461bcd60e51b815260206004820152601e60248201527f45524332305065726d69743a20696e76616c6964207369676e6174757265000060448201526064016110ae565b6130b78a8a8a6134ca565b50505050505050505050565b6001600160a01b03166000908152610167602052604090205490565b6001600160a01b03811660009081526101cd60209081526040808320805482518185028101850190935280835260609492939192909184015b828210156131a45760008481526020908190206040805160e0810182526005860290920180546001600160a01b03908116845260018083015485870152600283015460ff80821615159587019590955261010081049094161515606086015262010000909304166080840152600381015460a08401526004015460c08301529083529092019101613118565b505050509050919050565b6101c85460405163e985e9c560e01b81526001600160a01b0384811660048301528381166024830152600092169063e985e9c590604401602060405180830381865afa158015613203573d6000803e3d6000fd5b505050506040513d601f19601f820116820180604052508101906128579190615d68565b6001600160a01b03918216600090815260ca6020908152604080832093909416825291909152205490565b6101cd6020528160005260406000208181548110612f0b57600080fd5b6132776135ee565b6001600160a01b0381166132dc5760405162461bcd60e51b815260206004820152602660248201527f4f776e61626c653a206e6577206f776e657220697320746865207a65726f206160448201526564647265737360d01b60648201526084016110ae565b6115ae816144b7565b6001600160a01b03821660009081526101cd60205260408120815b81548110156111ed578382828154811061331c5761331c615996565b9060005260206000209060050201600401540361336d5781818154811061334557613345615996565b906000526020600020906005020160020160019054906101000a900460ff1692505050610dae565b600101613300565b61337d6135ee565b613385613ecc565b60405163a22cb46560e01b81526001600160a01b0382811660048301526001602483015283169063a22cb465906044015b600060405180830381600087803b1580156133d057600080fd5b505af11580156133e4573d6000803e3d6000fd5b505050505050565b6133f46135ee565b6101c8546040516323b872dd60e01b81526001600160a01b03909116906323b872dd906133b690309085908790600401615d99565b6001600160a01b03811660009081526101ca60209081526040808320805482518185028101850190935280835260609492939192909184015b828210156131a4576000848152602090819020604080516080810182526003860290920180548352600180820154848601526002909101546001600160a01b03811692840192909252600160a01b90910460ff16151560608301529083529092019101613462565b6001600160a01b03831661352c5760405162461bcd60e51b8152602060048201526024808201527f45524332303a20617070726f76652066726f6d20746865207a65726f206164646044820152637265737360e01b60648201526084016110ae565b6001600160a01b03821661358d5760405162461bcd60e51b815260206004820152602260248201527f45524332303a20617070726f766520746f20746865207a65726f206164647265604482015261737360f01b60648201526084016110ae565b6001600160a01b03838116600081815260ca602090815260408083209487168084529482529182902085905590518481527f8c5be1e5ebec7d5bd14f71427d1e84f3dd0314c0f7b2291e5b200ac8c7c3b925910160405180910390a3505050565b610194546001600160a01b031633146111625760405162461bcd60e51b815260206004820181905260248201527f4f776e61626c653a2063616c6c6572206973206e6f7420746865206f776e657260448201526064016110ae565b82516020808501518351918401519091906000805b6001600160a01b03861660009081526101cd60205260409020548110156138d9576001600160a01b0386811660009081526101cd60205260409020805491871691839081106136af576136af615996565b60009182526020909120600590910201600201546201000090046001600160a01b031614801561376457506001600160a01b03861660009081526101cd6020526040902080548591908390811061370857613708615996565b90600052602060002090600502016001015414801561376457506001600160a01b03861660009081526101cd6020526040902080548491908390811061375057613750615996565b906000526020600020906005020160030154145b806137f457506001600160a01b03861660009081526101cd6020526040902080548491908390811061379857613798615996565b9060005260206000209060050201600101541480156137f457506001600160a01b03861660009081526101cd602052604090208054859190839081106137e0576137e0615996565b906000526020600020906005020160030154145b156138d1576001600160a01b03861660009081526101cd602052604090208054600191908390811061382857613828615996565b906000526020600020906005020160020160016101000a81548160ff021916908315150217905550876101cd6000886001600160a01b03166001600160a01b03168152602001908152602001600020828154811061388857613888615996565b60009182526020808320600592909202909101600401929092558981526101cf9091526040902080546001600160a01b0319166001600160a01b038816179055600191506138d9565b60010161365e565b5080613b5f5760005b6001600160a01b03851660009081526101cd6020526040902054811015613b5d576001600160a01b0385811660009081526101cd602052604090208054918816918390811061393357613933615996565b60009182526020909120600590910201600201546201000090046001600160a01b03161480156139e857506001600160a01b03851660009081526101cd6020526040902080548491908390811061398c5761398c615996565b9060005260206000209060050201600101541480156139e857506001600160a01b03851660009081526101cd602052604090208054859190839081106139d4576139d4615996565b906000526020600020906005020160030154145b80613a7857506001600160a01b03851660009081526101cd60205260409020805485919083908110613a1c57613a1c615996565b906000526020600020906005020160010154148015613a7857506001600160a01b03851660009081526101cd60205260409020805484919083908110613a6457613a64615996565b906000526020600020906005020160030154145b15613b55576001600160a01b03851660009081526101cd6020526040902080546001919083908110613aac57613aac615996565b906000526020600020906005020160020160016101000a81548160ff021916908315150217905550876101cd6000876001600160a01b03166001600160a01b031681526020019081526020016000208281548110613b0c57613b0c615996565b60009182526020808320600592909202909101600401929092558981526101cf9091526040902080546001600160a01b0319166001600160a01b03871617905560019150613b5d565b6001016138e2565b505b80613bc657604080516001600160a01b03808816825286166020820152908101849052606081018390526080810188905281151560a08201527f4250173a81ef84e08a25e027b766e822138dcdecfc85993357ca2605ee258b589060c00160405180910390a15b5050505050505050565b604080516080808201835285825260208083018681526001600160a01b03868116858701818152600160608089018281526101cb8054808501825560009182528b517fe8bbfecd380c4167d6a1f763a233ec73e73f534b1970c4e1683f437ec23c1f4460039283029081019190915589517fe8bbfecd380c4167d6a1f763a233ec73e73f534b1970c4e1683f437ec23c1f4582015586517fe8bbfecd380c4167d6a1f763a233ec73e73f534b1970c4e1683f437ec23c1f4690910180548551928b166001600160a81b031991821617600160a01b9315158402179091558884526101ca8c528e8420805480890182559085528c85208f519190940290930192835599519582019590955594516002909501805492519588169290981691909117931515909202929092179094558a84526101d085529287902080546001600160a01b03191690911790556101c854865133815291169281019290925293810187905292830185905290917fb30319a217488a3ed441c348e935a48d16091e33109bab0c79a353b9797528839101611a88565b80471015613db25760405162461bcd60e51b815260206004820152601d60248201527f416464726573733a20696e73756666696369656e742062616c616e636500000060448201526064016110ae565b6000826001600160a01b03168260405160006040518083038185875af1925050503d8060008114613dff576040519150601f19603f3d011682016040523d82523d6000602084013e613e04565b606091505b5050905080610dc75760405162461bcd60e51b815260206004820152603a60248201527f416464726573733a20756e61626c6520746f2073656e642076616c75652c20726044820152791958da5c1a595b9d081b585e481a185d99481c995d995c9d195960321b60648201526084016110ae565b613e80613ecc565b6033805460ff191660011790557f62e78cea01bee320cd4e420270b5ea74000d11b0c9f74754ebdbfc544b05a258613eb53390565b604051613ec2919061541f565b60405180910390a1565b60335460ff16156111625760405162461bcd60e51b815260206004820152601060248201526f14185d5cd8589b194e881c185d5cd95960821b60448201526064016110ae565b6000613f1e8484613227565b90506000198114613f865781811015613f795760405162461bcd60e51b815260206004820152601d60248201527f45524332303a20696e73756666696369656e7420616c6c6f77616e636500000060448201526064016110ae565b613f8684848484036134ca565b50505050565b6001600160a01b038316613ff05760405162461bcd60e51b815260206004820152602560248201527f45524332303a207472616e736665722066726f6d20746865207a65726f206164604482015264647265737360d81b60648201526084016110ae565b6001600160a01b0382166140525760405162461bcd60e51b815260206004820152602360248201527f45524332303a207472616e7366657220746f20746865207a65726f206164647260448201526265737360e81b60648201526084016110ae565b6001600160a01b038316600090815260c96020526040902054818110156140ca5760405162461bcd60e51b815260206004820152602660248201527f45524332303a207472616e7366657220616d6f756e7420657863656564732062604482015265616c616e636560d01b60648201526084016110ae565b6001600160a01b03808516600081815260c9602052604080822086860390559286168082529083902080548601905591517fddf252ad1be2c89b69c2b068fc378daa952ba7f163c4a11628f55a4df523b3ef9061412a9086815260200190565b60405180910390a3613f86565b60006114e46147ab565b600080516020615e5b833981519152546001600160a01b031690565b6115ae6135ee565b7f4910fdfa16fed3260ed0e7147f7cc6da11a60208b5b9406d12a635614ffd91435460ff161561419857610dc78361481f565b826001600160a01b03166352d1902d6040518163ffffffff1660e01b8152600401602060405180830381865afa9250505080156141f2575060408051601f3d908101601f191682019092526141ef91810190615775565b60015b6142555760405162461bcd60e51b815260206004820152602e60248201527f45524331393637557067726164653a206e657720696d706c656d656e7461746960448201526d6f6e206973206e6f74205555505360901b60648201526084016110ae565b600080516020615e5b83398151915281146142c45760405162461bcd60e51b815260206004820152602960248201527f45524331393637557067726164653a20756e737570706f727465642070726f786044820152681a58589b195555525160ba1b60648201526084016110ae565b50610dc78383836148b9565b6101c854604051632142170760e11b81526000916001600160a01b0316906342842e0e9061430690309086908890600401615d99565b600060405180830381600087803b15801561432057600080fd5b505af1925050508015614331575060015b61433d57506000610dae565b506001610dae565b60008181526101cf60209081526040808320546001600160a01b03168084526101cd909252822090915b8154811015613f86578382828154811061438b5761438b615996565b906000526020600020906005020160040154036143dd5760018282815481106143b6576143b6615996565b60009182526020909120600590910201600201805460ff1916911515919091179055613f86565b60010161436f565b6143ed6148de565b6033805460ff191690557f5db9ee0a495bf2e6ff9c91a7834c1ba4fdd244a5e8aa4e537bd38aeae4b073aa33613eb5565b610dc78363a9059cbb60e01b848460405160240161443d929190615b2d565b60408051601f198184030181529190526020810180516001600160e01b03166001600160e01b031990931692909217909152614927565b6115ae81604051602401614488919061541f565b60408051601f198184030181529190526020810180516001600160e01b031663161765e160e11b1790526149fc565b61019480546001600160a01b038381166001600160a01b0319831681179093556040519116919082907f8be0079c531659141344cd1fd0a4f28419497f9722a3daafe3b4186f6b6457e090600090a35050565b6000614514613ecc565b60005b6101cb548110156145a457826101cb828154811061453757614537615996565b9060005260206000209060030201600001540361457c576101cb818154811061456257614562615996565b906000526020600020906003020160010154915050919050565b6101cb5461458c90600190615bc3565b810361459c575060001992915050565b600101614517565b505b919050565b606060006145b883614a05565b60010190506000816001600160401b038111156145d7576145d76150ef565b6040519080825280601f01601f191660200182016040528015614601576020820181803683370190505b5090508181016020015b600019016f181899199a1a9b1b9c1cb0b131b232b360811b600a86061a8153600a850494508461460b57509392505050565b606060fd8054610d1790615741565b606060fe8054610d1790615741565b610162546001600160a01b03841660009081526101646020526040812054909183916146879086615cb4565b6146919190615b74565b6110709190615bc3565b6001600160a01b03163b151590565b600054610100900460ff166146d15760405162461bcd60e51b81526004016110ae90615dbd565b611162614adb565b600054610100900460ff166147005760405162461bcd60e51b81526004016110ae90615dbd565b611162614b0b565b600054610100900460ff166111625760405162461bcd60e51b81526004016110ae90615dbd565b6001600160a01b038116600090815261012f602052604090208054600181018255906145a4565b6000610dae614763614137565b8360405161190160f01b8152600281019290925260228201526042902090565b600080600061479487878787614b3e565b915091506147a181614bf8565b5095945050505050565b60007f8b73c3c69bb8fe3d512ecc4cf759cc79239f7b179b0ffacaa9a75d522b39400f6147d6614d3d565b6147de614d96565b60408051602081019490945283019190915260608201524660808201523060a082015260c00160405160208183030381529060405280519060200120905090565b6148288161469b565b61488a5760405162461bcd60e51b815260206004820152602d60248201527f455243313936373a206e657720696d706c656d656e746174696f6e206973206e60448201526c1bdd08184818dbdb9d1c9858dd609a1b60648201526084016110ae565b600080516020615e5b83398151915280546001600160a01b0319166001600160a01b0392909216919091179055565b6148c283614dc7565b6000825111806148cf5750805b15610dc757613f868383614e07565b60335460ff166111625760405162461bcd60e51b815260206004820152601460248201527314185d5cd8589b194e881b9bdd081c185d5cd95960621b60448201526064016110ae565b600061497c826040518060400160405280602081526020017f5361666545524332303a206c6f772d6c6576656c2063616c6c206661696c6564815250856001600160a01b0316614e2c9092919063ffffffff16565b905080516000148061499d57508080602001905181019061499d9190615d68565b610dc75760405162461bcd60e51b815260206004820152602a60248201527f5361666545524332303a204552433230206f7065726174696f6e20646964206e6044820152691bdd081cdd58d8d9595960b21b60648201526084016110ae565b6115ae81614e3b565b60008072184f03e93ff9f4daa797ed6e38ed64bf6a1f0160401b8310614a445772184f03e93ff9f4daa797ed6e38ed64bf6a1f0160401b830492506040015b6904ee2d6d415b85acef8160201b8310614a6e576904ee2d6d415b85acef8160201b830492506020015b662386f26fc100008310614a8c57662386f26fc10000830492506010015b6305f5e1008310614aa4576305f5e100830492506008015b6127108310614ab857612710830492506004015b60648310614aca576064830492506002015b600a8310610dae5760010192915050565b600054610100900460ff16614b025760405162461bcd60e51b81526004016110ae90615dbd565b611162336144b7565b600054610100900460ff16614b325760405162461bcd60e51b81526004016110ae90615dbd565b6033805460ff19169055565b6000806fa2a8918ca85bafe22016d0b997e4df60600160ff1b03831115614b6b5750600090506003614bef565b6040805160008082526020820180845289905260ff881692820192909252606081018690526080810185905260019060a0016020604051602081039080840390855afa158015614bbf573d6000803e3d6000fd5b5050604051601f1901519150506001600160a01b038116614be857600060019250925050614bef565b9150600090505b94509492505050565b6000816004811115614c0c57614c0c615e08565b03614c145750565b6001816004811115614c2857614c28615e08565b03614c705760405162461bcd60e51b815260206004820152601860248201527745434453413a20696e76616c6964207369676e617475726560401b60448201526064016110ae565b6002816004811115614c8457614c84615e08565b03614cd15760405162461bcd60e51b815260206004820152601f60248201527f45434453413a20696e76616c6964207369676e6174757265206c656e6774680060448201526064016110ae565b6003816004811115614ce557614ce5615e08565b036115ae5760405162461bcd60e51b815260206004820152602260248201527f45434453413a20696e76616c6964207369676e6174757265202773272076616c604482015261756560f01b60648201526084016110ae565b600080614d4861463d565b805190915015614d5f578051602090910120919050565b60fb548015614d6e5792915050565b7fc5d2460186f7233c927e7db2dcc703c0e500b653ca82273b7bfad8045d85a4709250505090565b600080614da161464c565b805190915015614db8578051602090910120919050565b60fc548015614d6e5792915050565b614dd08161481f565b6040516001600160a01b038216907fbc7cd75a20ee27fd9adebab32041f755214dbc6bffa90cc0225b39da2e5c2d3b90600090a250565b60606128578383604051806060016040528060278152602001615e7b60279139614e5c565b60606110708484600085614ed4565b60006a636f6e736f6c652e6c6f679050600080835160208501845afa505050565b6060600080856001600160a01b031685604051614e799190615e1e565b600060405180830381855af49150503d8060008114614eb4576040519150601f19603f3d011682016040523d82523d6000602084013e614eb9565b606091505b5091509150614eca86838387614faf565b9695505050505050565b606082471015614f355760405162461bcd60e51b815260206004820152602660248201527f416464726573733a20696e73756666696369656e742062616c616e636520666f6044820152651c8818d85b1b60d21b60648201526084016110ae565b600080866001600160a01b03168587604051614f519190615e1e565b60006040518083038185875af1925050503d8060008114614f8e576040519150601f19603f3d011682016040523d82523d6000602084013e614f93565b606091505b5091509150614fa487838387614faf565b979650505050505050565b6060831561501c57825160000361501557614fc98561469b565b6150155760405162461bcd60e51b815260206004820152601d60248201527f416464726573733a2063616c6c20746f206e6f6e2d636f6e747261637400000060448201526064016110ae565b5081611070565b61107083838151156150315781518083602001fd5b8060405162461bcd60e51b81526004016110ae919061509b565b60005b8381101561506657818101518382015260200161504e565b50506000910152565b6000815180845261508781602086016020860161504b565b601f01601f19169290920160200192915050565b602081526000612857602083018461506f565b6001600160a01b03811681146115ae57600080fd5b600080604083850312156150d657600080fd5b82356150e1816150ae565b946020939093013593505050565b634e487b7160e01b600052604160045260246000fd5b60405161016081016001600160401b0381118282101715615128576151286150ef565b60405290565b604080519081016001600160401b0381118282101715615128576151286150ef565b604051601f8201601f191681016001600160401b0381118282101715615178576151786150ef565b604052919050565b600080600060a0848603121561519557600080fd5b84601f8501126151a457600080fd5b6151ac61512e565b8060408601878111156151be57600080fd5b865b818110156151e15780356151d3816150ae565b8452602093840193016151c0565b5090945035925050607f840185136151f857600080fd5b61520061512e565b8060a086018781111561521257600080fd5b606087015b8181101561522f578035845260209384019301615217565b505080925050509250925092565b600082601f83011261524e57600080fd5b81356001600160401b03811115615267576152676150ef565b61527a601f8201601f1916602001615150565b81815284602083860101111561528f57600080fd5b816020850160208301376000918101602001919091529392505050565b600080600080608085870312156152c257600080fd5b84356152cd816150ae565b935060208501356152dd816150ae565b92506040850135915060608501356001600160401b038111156152ff57600080fd5b61530b8782880161523d565b91505092959194509250565b60006020828403121561532957600080fd5b8135612857816150ae565b60008060006060848603121561534957600080fd5b8335615354816150ae565b92506020840135615364816150ae565b929592945050506040919091013590565b6000806040838503121561538857600080fd5b50508035926020909101359150565b602080825282518282018190526000919060409081850190868401855b828110156153f9578151805185528681015187860152858101516001600160a01b031686860152606090810151151590850152608090930192908501906001016153b4565b5091979650505050505050565b60006020828403121561541857600080fd5b5035919050565b6001600160a01b0391909116815260200190565b6000806040838503121561544657600080fd5b823591506020830135615458816150ae565b809150509250929050565b6000806040838503121561547657600080fd5b8235615481816150ae565b91506020830135615458816150ae565b600080604083850312156154a457600080fd5b82356154af816150ae565b915060208301356001600160401b038111156154ca57600080fd5b6154d68582860161523d565b9150509250929050565b600080600080608085870312156154f657600080fd5b8435615501816150ae565b93506020850135615511816150ae565b92506040850135615521816150ae565b9396929550929360600135925050565b60ff60f81b881681526000602060e0602084015261555260e084018a61506f565b8381036040850152615564818a61506f565b606085018990526001600160a01b038816608086015260a0850187905284810360c08601528551808252602080880193509091019060005b818110156155b85783518352928401929184019160010161559c565b50909c9b505050505050505050505050565b60008060008060008060c087890312156155e357600080fd5b86356155ee816150ae565b9550602087013594506040870135615605816150ae565b93506060870135615615816150ae565b92506080870135615625816150ae565b915060a0870135615635816150ae565b809150509295509295509295565b600080600080600080600060e0888a03121561565e57600080fd5b8735615669816150ae565b96506020880135615679816150ae565b95506040880135945060608801359350608088013560ff8116811461569d57600080fd5b9699959850939692959460a0840135945060c09093013592915050565b602080825282518282018190526000919060409081850190868401855b828110156153f957815180516001600160a01b0390811686528782015188870152868201511515878701526060808301511515908701526080808301519091169086015260a0808201519086015260c0908101519085015260e090930192908501906001016156d7565b600181811c9082168061575557607f821691505b6020821081036145a457634e487b7160e01b600052602260045260246000fd5b60006020828403121561578757600080fd5b5051919050565b6001600160a01b038581168252841660208201526040810183905260a0606082018190526000906157c19083018461506f565b8281036080840152600e81526d1b1a5cdd1a5b99c81c1b185b995d60921b60208201526040810191505095945050505050565b600082601f83011261580557600080fd5b815160206001600160401b03821115615820576158206150ef565b8160051b61582f828201615150565b928352848101820192828101908785111561584957600080fd5b83870192505b84831015614fa45782518252918301919083019061584f565b805180151581146145a657600080fd5b6000806040838503121561588b57600080fd5b82516001600160401b03808211156158a257600080fd5b9084019061016082870312156158b757600080fd5b6158bf615105565b825181526020830151602082015260408301516040820152606083015160608201526080830151608082015260a083015160a082015260c083015160c082015260e083015160e0820152610100808401518381111561591d57600080fd5b615929898287016157f4565b828401525050610120808401518381111561594357600080fd5b61594f898287016157f4565b828401525050610140808401518381111561596957600080fd5b615975898287016157f4565b82840152505080945050505061598d60208401615868565b90509250929050565b634e487b7160e01b600052603260045260246000fd5b6001600160a01b038581168252841660208201526040810183905260a0606082018190526000906159df9083018461506f565b8281036080840152600a8152691b995dc81c1b185b995d60b21b60208201526040810191505095945050505050565b6001600160a01b038581168252841660208201526040810183905260a060608201819052600090615a419083018461506f565b8281036080840152600d81526c1d5b98d85d1959dbdc9a5e9959609a1b60208201526040810191505095945050505050565b60208082526026908201527f5061796d656e7453706c69747465723a206163636f756e7420686173206e6f2060408201526573686172657360d01b606082015260800190565b6020808252602b908201527f5061796d656e7453706c69747465723a206163636f756e74206973206e6f742060408201526a191d59481c185e5b595b9d60aa1b606082015260800190565b634e487b7160e01b600052601160045260246000fd5b80820180821115610dae57610dae615b04565b6001600160a01b03929092168252602082015260400190565b602080825260149082015273496e73756666696369656e742062616c616e636560601b604082015260600190565b600082615b9157634e487b7160e01b600052601260045260246000fd5b500490565b602080825260139082015272496e646578206f7574206f6620626f756e647360681b604082015260600190565b81810381811115610dae57610dae615b04565b6020808252602c908201527f46756e6374696f6e206d7573742062652063616c6c6564207468726f7567682060408201526b19195b1959d85d1958d85b1b60a21b606082015260800190565b6020808252602c908201527f46756e6374696f6e206d7573742062652063616c6c6564207468726f7567682060408201526b6163746976652070726f787960a01b606082015260800190565b6001600160a01b0394851681529290931660208301526040820152901515606082015260800190565b600060208284031215615ca957600080fd5b8151612857816150ae565b8082028115828204841417610dae57610dae615b04565b7f496e73756666696369656e742066756e647320746f20636f766572205652462081527f636f737420616e6420707269636520616e64206665652e20526571756972656460208201526101d160f51b604082015260008351615d3481604285016020880161504b565b670161029b2b73a1d160c51b6042918401918201528351615d5c81604a84016020880161504b565b01604a01949350505050565b600060208284031215615d7a57600080fd5b61285782615868565b634e487b7160e01b600052603160045260246000fd5b6001600160a01b039384168152919092166020820152604081019190915260600190565b6020808252602b908201527f496e697469616c697a61626c653a20636f6e7472616374206973206e6f74206960408201526a6e697469616c697a696e6760a81b606082015260800190565b634e487b7160e01b600052602160045260246000fd5b60008251615e3081846020870161504b565b919091019291505056fe13c6ec2a463a35f898a457814a782f1f567808293fa783a31fa4dac8868e6011360894a13ba1a3210667c828492db98dca3e2076cc3735a920a3ca505d382bbc416464726573733a206c6f772d6c6576656c2064656c65676174652063616c6c206661696c6564a2646970667358221220b9bbeda483f0f70df9b3b67c3f6f16233762e192747c1f13571ddf7cb78f862d64736f6c63430008180033",
  "linkReferences": {},
  "deployedLinkReferences": {}
}