{
  "_format": "hh-sol-artifact-1",
  "contractName": "HatcherV3",
  "sourceName": "contracts/HatcherV3.sol",
  "abi": [
    {
      "inputs": [],
      "name": "Unauthorized",
      "type": "error"
    },
    {
      "anonymous": false,
      "inputs": [
        {
          "indexed": false,
          "internalType": "address",
          "name": "previousAdmin",
          "type": "address"
        },
        {
          "indexed": false,
          "internalType": "address",
          "name": "newAdmin",
          "type": "address"
        }
      ],
      "name": "AdminChanged",
      "type": "event"
    },
    {
      "anonymous": false,
      "inputs": [
        {
          "indexed": true,
          "internalType": "address",
          "name": "owner",
          "type": "address"
        },
        {
          "indexed": true,
          "internalType": "address",
          "name": "spender",
          "type": "address"
        },
        {
          "indexed": false,
          "internalType": "uint256",
          "name": "value",
          "type": "uint256"
        }
      ],
      "name": "Approval",
      "type": "event"
    },
    {
      "anonymous": false,
      "inputs": [
        {
          "indexed": true,
          "internalType": "address",
          "name": "beacon",
          "type": "address"
        }
      ],
      "name": "BeaconUpgraded",
      "type": "event"
    },
    {
      "anonymous": false,
      "inputs": [
        {
          "indexed": false,
          "internalType": "address",
          "name": "sentToUser",
          "type": "address"
        },
        {
          "indexed": false,
          "internalType": "address",
          "name": "token",
          "type": "address"
        },
        {
          "indexed": false,
          "internalType": "uint256",
          "name": "tokenId",
          "type": "uint256"
        },
        {
          "indexed": false,
          "internalType": "bool",
          "name": "success",
          "type": "bool"
        }
      ],
      "name": "DeClaimedAPlanet",
      "type": "event"
    },
    {
      "anonymous": false,
      "inputs": [
        {
          "indexed": false,
          "internalType": "address",
          "name": "sentToUser",
          "type": "address"
        },
        {
          "indexed": false,
          "internalType": "address",
          "name": "token",
          "type": "address"
        },
        {
          "indexed": false,
          "internalType": "uint256",
          "name": "tokenId",
          "type": "uint256"
        },
        {
          "indexed": false,
          "internalType": "bool",
          "name": "success",
          "type": "bool"
        }
      ],
      "name": "DeListedAPlanet",
      "type": "event"
    },
    {
      "anonymous": false,
      "inputs": [],
      "name": "EIP712DomainChanged",
      "type": "event"
    },
    {
      "anonymous": false,
      "inputs": [
        {
          "indexed": true,
          "internalType": "contract IERC20Upgradeable",
          "name": "token",
          "type": "address"
        },
        {
          "indexed": false,
          "internalType": "address",
          "name": "to",
          "type": "address"
        },
        {
          "indexed": false,
          "internalType": "uint256",
          "name": "amount",
          "type": "uint256"
        }
      ],
      "name": "ERC20PaymentReleased",
      "type": "event"
    },
    {
      "anonymous": false,
      "inputs": [
        {
          "indexed": false,
          "internalType": "uint8",
          "name": "version",
          "type": "uint8"
        }
      ],
      "name": "Initialized",
      "type": "event"
    },
    {
      "anonymous": false,
      "inputs": [
        {
          "indexed": false,
          "internalType": "address",
          "name": "sentFromUser",
          "type": "address"
        },
        {
          "indexed": false,
          "internalType": "address",
          "name": "token",
          "type": "address"
        },
        {
          "indexed": false,
          "internalType": "uint256",
          "name": "tokenId",
          "type": "uint256"
        },
        {
          "indexed": false,
          "internalType": "uint256",
          "name": "price",
          "type": "uint256"
        }
      ],
      "name": "ListedAPlanet",
      "type": "event"
    },
    {
      "anonymous": false,
      "inputs": [
        {
          "indexed": false,
          "internalType": "address",
          "name": "operator",
          "type": "address"
        },
        {
          "indexed": false,
          "internalType": "address",
          "name": "from",
          "type": "address"
        },
        {
          "indexed": false,
          "internalType": "uint256",
          "name": "tokenId",
          "type": "uint256"
        },
        {
          "indexed": false,
          "internalType": "bytes",
          "name": "data",
          "type": "bytes"
        },
        {
          "indexed": false,
          "internalType": "string",
          "name": "typeOfReceival",
          "type": "string"
        }
      ],
      "name": "NftReceived",
      "type": "event"
    },
    {
      "anonymous": false,
      "inputs": [
        {
          "indexed": true,
          "internalType": "address",
          "name": "previousOwner",
          "type": "address"
        },
        {
          "indexed": true,
          "internalType": "address",
          "name": "newOwner",
          "type": "address"
        }
      ],
      "name": "OwnershipTransferred",
      "type": "event"
    },
    {
      "anonymous": false,
      "inputs": [
        {
          "indexed": false,
          "internalType": "address",
          "name": "account",
          "type": "address"
        }
      ],
      "name": "Paused",
      "type": "event"
    },
    {
      "anonymous": false,
      "inputs": [
        {
          "indexed": false,
          "internalType": "address",
          "name": "account",
          "type": "address"
        },
        {
          "indexed": false,
          "internalType": "uint256",
          "name": "shares",
          "type": "uint256"
        }
      ],
      "name": "PayeeAdded",
      "type": "event"
    },
    {
      "anonymous": false,
      "inputs": [
        {
          "indexed": false,
          "internalType": "address",
          "name": "from",
          "type": "address"
        },
        {
          "indexed": false,
          "internalType": "uint256",
          "name": "amount",
          "type": "uint256"
        }
      ],
      "name": "PaymentReceived",
      "type": "event"
    },
    {
      "anonymous": false,
      "inputs": [
        {
          "indexed": false,
          "internalType": "address",
          "name": "to",
          "type": "address"
        },
        {
          "indexed": false,
          "internalType": "uint256",
          "name": "amount",
          "type": "uint256"
        }
      ],
      "name": "PaymentReleased",
      "type": "event"
    },
    {
      "anonymous": false,
      "inputs": [
        {
          "indexed": false,
          "internalType": "uint256",
          "name": "planetAsking",
          "type": "uint256"
        },
        {
          "indexed": false,
          "internalType": "address",
          "name": "askingUser",
          "type": "address"
        },
        {
          "indexed": false,
          "internalType": "uint256",
          "name": "planetJoining",
          "type": "uint256"
        },
        {
          "indexed": false,
          "internalType": "address",
          "name": "joiningUser",
          "type": "address"
        }
      ],
      "name": "PlanetsConjoining",
      "type": "event"
    },
    {
      "anonymous": false,
      "inputs": [
        {
          "indexed": true,
          "internalType": "address",
          "name": "from",
          "type": "address"
        },
        {
          "indexed": true,
          "internalType": "address",
          "name": "to",
          "type": "address"
        },
        {
          "indexed": false,
          "internalType": "uint256",
          "name": "value",
          "type": "uint256"
        }
      ],
      "name": "Transfer",
      "type": "event"
    },
    {
      "anonymous": false,
      "inputs": [
        {
          "indexed": false,
          "internalType": "address",
          "name": "account",
          "type": "address"
        }
      ],
      "name": "Unpaused",
      "type": "event"
    },
    {
      "anonymous": false,
      "inputs": [
        {
          "indexed": true,
          "internalType": "address",
          "name": "implementation",
          "type": "address"
        }
      ],
      "name": "Upgraded",
      "type": "event"
    },
    {
      "stateMutability": "payable",
      "type": "fallback"
    },
    {
      "inputs": [],
      "name": "DOMAIN_SEPARATOR",
      "outputs": [
        {
          "internalType": "bytes32",
          "name": "",
          "type": "bytes32"
        }
      ],
      "stateMutability": "view",
      "type": "function"
    },
    {
      "inputs": [
        {
          "internalType": "address",
          "name": "owner",
          "type": "address"
        },
        {
          "internalType": "address",
          "name": "spender",
          "type": "address"
        }
      ],
      "name": "allowance",
      "outputs": [
        {
          "internalType": "uint256",
          "name": "",
          "type": "uint256"
        }
      ],
      "stateMutability": "view",
      "type": "function"
    },
    {
      "inputs": [
        {
          "internalType": "address",
          "name": "spender",
          "type": "address"
        },
        {
          "internalType": "uint256",
          "name": "amount",
          "type": "uint256"
        }
      ],
      "name": "approve",
      "outputs": [
        {
          "internalType": "bool",
          "name": "",
          "type": "bool"
        }
      ],
      "stateMutability": "nonpayable",
      "type": "function"
    },
    {
      "inputs": [
        {
          "internalType": "contract IERC721",
          "name": "token",
          "type": "address"
        },
        {
          "internalType": "address",
          "name": "operator",
          "type": "address"
        }
      ],
      "name": "approveAllERC721Tokens",
      "outputs": [],
      "stateMutability": "nonpayable",
      "type": "function"
    },
    {
      "inputs": [
        {
          "internalType": "contract IERC20",
          "name": "token",
          "type": "address"
        },
        {
          "internalType": "address",
          "name": "spender",
          "type": "address"
        },
        {
          "internalType": "uint256",
          "name": "amount",
          "type": "uint256"
        }
      ],
      "name": "approveERC20",
      "outputs": [],
      "stateMutability": "nonpayable",
      "type": "function"
    },
    {
      "inputs": [
        {
          "internalType": "address",
          "name": "account",
          "type": "address"
        }
      ],
      "name": "balanceOf",
      "outputs": [
        {
          "internalType": "uint256",
          "name": "",
          "type": "uint256"
        }
      ],
      "stateMutability": "view",
      "type": "function"
    },
    {
      "inputs": [],
      "name": "breedContract",
      "outputs": [
        {
          "internalType": "contract IBreedContract",
          "name": "",
          "type": "address"
        }
      ],
      "stateMutability": "view",
      "type": "function"
    },
    {
      "inputs": [
        {
          "internalType": "uint256",
          "name": "newVRF",
          "type": "uint256"
        }
      ],
      "name": "changeVRFValue",
      "outputs": [],
      "stateMutability": "nonpayable",
      "type": "function"
    },
    {
      "inputs": [
        {
          "internalType": "address",
          "name": "owner",
          "type": "address"
        },
        {
          "internalType": "address",
          "name": "operator",
          "type": "address"
        }
      ],
      "name": "checkApprovalForAll",
      "outputs": [
        {
          "internalType": "bool",
          "name": "",
          "type": "bool"
        }
      ],
      "stateMutability": "view",
      "type": "function"
    },
    {
      "inputs": [
        {
          "internalType": "uint256",
          "name": "claimableTokenId",
          "type": "uint256"
        }
      ],
      "name": "claimPlanet",
      "outputs": [],
      "stateMutability": "nonpayable",
      "type": "function"
    },
    {
      "inputs": [
        {
          "internalType": "address",
          "name": "",
          "type": "address"
        },
        {
          "internalType": "uint256",
          "name": "",
          "type": "uint256"
        }
      ],
      "name": "claimablePlanets",
      "outputs": [
        {
          "internalType": "address",
          "name": "ownerParentAddress",
          "type": "address"
        },
        {
          "internalType": "uint256",
          "name": "ownerTokenId",
          "type": "uint256"
        },
        {
          "internalType": "bool",
          "name": "delivered",
          "type": "bool"
        },
        {
          "internalType": "bool",
          "name": "arrived",
          "type": "bool"
        },
        {
          "internalType": "address",
          "name": "otherParent",
          "type": "address"
        },
        {
          "internalType": "uint256",
          "name": "otherTokenId",
          "type": "uint256"
        },
        {
          "internalType": "uint256",
          "name": "claimsTokenId",
          "type": "uint256"
        }
      ],
      "stateMutability": "view",
      "type": "function"
    },
    {
      "inputs": [
        {
          "internalType": "uint256",
          "name": "",
          "type": "uint256"
        }
      ],
      "name": "claimantTokenIdToOwnerAddress",
      "outputs": [
        {
          "internalType": "address",
          "name": "",
          "type": "address"
        }
      ],
      "stateMutability": "view",
      "type": "function"
    },
    {
      "inputs": [
        {
          "internalType": "uint256",
          "name": "yourPlanet",
          "type": "uint256"
        },
        {
          "internalType": "uint256",
          "name": "withListedPlanet",
          "type": "uint256"
        }
      ],
      "name": "conjunct",
      "outputs": [],
      "stateMutability": "payable",
      "type": "function"
    },
    {
      "inputs": [
        {
          "internalType": "uint256",
          "name": "idIndex",
          "type": "uint256"
        },
        {
          "internalType": "uint256",
          "name": "tokenId",
          "type": "uint256"
        }
      ],
      "name": "deList",
      "outputs": [],
      "stateMutability": "nonpayable",
      "type": "function"
    },
    {
      "inputs": [],
      "name": "deListAllYourPlanets",
      "outputs": [],
      "stateMutability": "nonpayable",
      "type": "function"
    },
    {
      "inputs": [],
      "name": "decimals",
      "outputs": [
        {
          "internalType": "uint8",
          "name": "",
          "type": "uint8"
        }
      ],
      "stateMutability": "view",
      "type": "function"
    },
    {
      "inputs": [
        {
          "internalType": "address",
          "name": "spender",
          "type": "address"
        },
        {
          "internalType": "uint256",
          "name": "subtractedValue",
          "type": "uint256"
        }
      ],
      "name": "decreaseAllowance",
      "outputs": [
        {
          "internalType": "bool",
          "name": "",
          "type": "bool"
        }
      ],
      "stateMutability": "nonpayable",
      "type": "function"
    },
    {
      "inputs": [],
      "name": "eip712Domain",
      "outputs": [
        {
          "internalType": "bytes1",
          "name": "fields",
          "type": "bytes1"
        },
        {
          "internalType": "string",
          "name": "name",
          "type": "string"
        },
        {
          "internalType": "string",
          "name": "version",
          "type": "string"
        },
        {
          "internalType": "uint256",
          "name": "chainId",
          "type": "uint256"
        },
        {
          "internalType": "address",
          "name": "verifyingContract",
          "type": "address"
        },
        {
          "internalType": "bytes32",
          "name": "salt",
          "type": "bytes32"
        },
        {
          "internalType": "uint256[]",
          "name": "extensions",
          "type": "uint256[]"
        }
      ],
      "stateMutability": "view",
      "type": "function"
    },
    {
      "inputs": [],
      "name": "getAllPlanets",
      "outputs": [
        {
          "components": [
            {
              "internalType": "uint256",
              "name": "tokenId",
              "type": "uint256"
            },
            {
              "internalType": "uint256",
              "name": "price",
              "type": "uint256"
            },
            {
              "internalType": "address",
              "name": "ownerAddress",
              "type": "address"
            },
            {
              "internalType": "bool",
              "name": "active",
              "type": "bool"
            }
          ],
          "internalType": "struct ListedPlanet[]",
          "name": "",
          "type": "tuple[]"
        }
      ],
      "stateMutability": "view",
      "type": "function"
    },
    {
      "inputs": [
        {
          "internalType": "address",
          "name": "userAddr",
          "type": "address"
        }
      ],
      "name": "getClaimablePlanetsFor",
      "outputs": [
        {
          "components": [
            {
              "internalType": "address",
              "name": "ownerParentAddress",
              "type": "address"
            },
            {
              "internalType": "uint256",
              "name": "ownerTokenId",
              "type": "uint256"
            },
            {
              "internalType": "bool",
              "name": "delivered",
              "type": "bool"
            },
            {
              "internalType": "bool",
              "name": "arrived",
              "type": "bool"
            },
            {
              "internalType": "address",
              "name": "otherParent",
              "type": "address"
            },
            {
              "internalType": "uint256",
              "name": "otherTokenId",
              "type": "uint256"
            },
            {
              "internalType": "uint256",
              "name": "claimsTokenId",
              "type": "uint256"
            }
          ],
          "internalType": "struct ClaimablePlanet[]",
          "name": "",
          "type": "tuple[]"
        }
      ],
      "stateMutability": "view",
      "type": "function"
    },
    {
      "inputs": [
        {
          "internalType": "uint256",
          "name": "claimableTokenId",
          "type": "uint256"
        }
      ],
      "name": "getClaimantTokenIdToOwnerAddress",
      "outputs": [
        {
          "internalType": "address",
          "name": "",
          "type": "address"
        }
      ],
      "stateMutability": "view",
      "type": "function"
    },
    {
      "inputs": [
        {
          "internalType": "uint256",
          "name": "listedTokenId",
          "type": "uint256"
        }
      ],
      "name": "getListedTokenIdToOwnerAddr",
      "outputs": [
        {
          "internalType": "address",
          "name": "",
          "type": "address"
        }
      ],
      "stateMutability": "view",
      "type": "function"
    },
    {
      "inputs": [
        {
          "internalType": "uint256",
          "name": "startIndex",
          "type": "uint256"
        },
        {
          "internalType": "uint256",
          "name": "endIndex",
          "type": "uint256"
        }
      ],
      "name": "getPlanetsPaginated",
      "outputs": [
        {
          "components": [
            {
              "internalType": "uint256",
              "name": "tokenId",
              "type": "uint256"
            },
            {
              "internalType": "uint256",
              "name": "price",
              "type": "uint256"
            },
            {
              "internalType": "address",
              "name": "ownerAddress",
              "type": "address"
            },
            {
              "internalType": "bool",
              "name": "active",
              "type": "bool"
            }
          ],
          "internalType": "struct ListedPlanet[]",
          "name": "",
          "type": "tuple[]"
        }
      ],
      "stateMutability": "view",
      "type": "function"
    },
    {
      "inputs": [
        {
          "internalType": "address",
          "name": "userAddr",
          "type": "address"
        }
      ],
      "name": "getuserToListedPlanets",
      "outputs": [
        {
          "components": [
            {
              "internalType": "uint256",
              "name": "tokenId",
              "type": "uint256"
            },
            {
              "internalType": "uint256",
              "name": "price",
              "type": "uint256"
            },
            {
              "internalType": "address",
              "name": "ownerAddress",
              "type": "address"
            },
            {
              "internalType": "bool",
              "name": "active",
              "type": "bool"
            }
          ],
          "internalType": "struct ListedPlanet[]",
          "name": "",
          "type": "tuple[]"
        }
      ],
      "stateMutability": "view",
      "type": "function"
    },
    {
      "inputs": [
        {
          "internalType": "address",
          "name": "owner",
          "type": "address"
        },
        {
          "internalType": "uint256",
          "name": "tokenId",
          "type": "uint256"
        }
      ],
      "name": "hasPlanetArrived",
      "outputs": [
        {
          "internalType": "bool",
          "name": "arrived",
          "type": "bool"
        }
      ],
      "stateMutability": "view",
      "type": "function"
    },
    {
      "inputs": [
        {
          "internalType": "address",
          "name": "owner",
          "type": "address"
        },
        {
          "internalType": "uint256",
          "name": "tokenId",
          "type": "uint256"
        }
      ],
      "name": "hasPlanetBeenDelivered",
      "outputs": [
        {
          "internalType": "bool",
          "name": "delivered",
          "type": "bool"
        }
      ],
      "stateMutability": "view",
      "type": "function"
    },
    {
      "inputs": [
        {
          "internalType": "address",
          "name": "spender",
          "type": "address"
        },
        {
          "internalType": "uint256",
          "name": "addedValue",
          "type": "uint256"
        }
      ],
      "name": "increaseAllowance",
      "outputs": [
        {
          "internalType": "bool",
          "name": "",
          "type": "bool"
        }
      ],
      "stateMutability": "nonpayable",
      "type": "function"
    },
    {
      "inputs": [
        {
          "internalType": "address",
          "name": "initialOwner",
          "type": "address"
        }
      ],
      "name": "initialize",
      "outputs": [],
      "stateMutability": "nonpayable",
      "type": "function"
    },
    {
      "inputs": [],
      "name": "listAllYourPlanets",
      "outputs": [],
      "stateMutability": "nonpayable",
      "type": "function"
    },
    {
      "inputs": [
        {
          "internalType": "uint256",
          "name": "",
          "type": "uint256"
        }
      ],
      "name": "listedTokenIdToOwnerAddr",
      "outputs": [
        {
          "internalType": "address",
          "name": "",
          "type": "address"
        }
      ],
      "stateMutability": "view",
      "type": "function"
    },
    {
      "inputs": [],
      "name": "name",
      "outputs": [
        {
          "internalType": "string",
          "name": "",
          "type": "string"
        }
      ],
      "stateMutability": "view",
      "type": "function"
    },
    {
      "inputs": [
        {
          "internalType": "address",
          "name": "owner",
          "type": "address"
        }
      ],
      "name": "nonces",
      "outputs": [
        {
          "internalType": "uint256",
          "name": "",
          "type": "uint256"
        }
      ],
      "stateMutability": "view",
      "type": "function"
    },
    {
      "inputs": [
        {
          "internalType": "address",
          "name": "operator",
          "type": "address"
        },
        {
          "internalType": "address",
          "name": "from",
          "type": "address"
        },
        {
          "internalType": "uint256",
          "name": "tokenId",
          "type": "uint256"
        },
        {
          "internalType": "bytes",
          "name": "data",
          "type": "bytes"
        }
      ],
      "name": "onERC721Received",
      "outputs": [
        {
          "internalType": "bytes4",
          "name": "",
          "type": "bytes4"
        }
      ],
      "stateMutability": "nonpayable",
      "type": "function"
    },
    {
      "inputs": [
        {
          "internalType": "uint256",
          "name": "",
          "type": "uint256"
        },
        {
          "internalType": "uint256",
          "name": "",
          "type": "uint256"
        }
      ],
      "name": "orphanClaims",
      "outputs": [
        {
          "internalType": "address",
          "name": "ownerParentAddress",
          "type": "address"
        },
        {
          "internalType": "uint256",
          "name": "ownerTokenId",
          "type": "uint256"
        },
        {
          "internalType": "bool",
          "name": "delivered",
          "type": "bool"
        },
        {
          "internalType": "bool",
          "name": "arrived",
          "type": "bool"
        },
        {
          "internalType": "address",
          "name": "otherParent",
          "type": "address"
        },
        {
          "internalType": "uint256",
          "name": "otherTokenId",
          "type": "uint256"
        },
        {
          "internalType": "uint256",
          "name": "claimsTokenId",
          "type": "uint256"
        }
      ],
      "stateMutability": "view",
      "type": "function"
    },
    {
      "inputs": [],
      "name": "owner",
      "outputs": [
        {
          "internalType": "address",
          "name": "",
          "type": "address"
        }
      ],
      "stateMutability": "view",
      "type": "function"
    },
    {
      "inputs": [
        {
          "internalType": "uint256",
          "name": "claimableTokenId",
          "type": "uint256"
        },
        {
          "internalType": "address",
          "name": "sendToAddr",
          "type": "address"
        }
      ],
      "name": "ownerClaimPlanet",
      "outputs": [],
      "stateMutability": "nonpayable",
      "type": "function"
    },
    {
      "inputs": [
        {
          "internalType": "uint256",
          "name": "tokenId",
          "type": "uint256"
        },
        {
          "internalType": "address",
          "name": "destinationAddr",
          "type": "address"
        }
      ],
      "name": "ownerOverrideSendNFT",
      "outputs": [],
      "stateMutability": "nonpayable",
      "type": "function"
    },
    {
      "inputs": [],
      "name": "pause",
      "outputs": [],
      "stateMutability": "nonpayable",
      "type": "function"
    },
    {
      "inputs": [],
      "name": "paused",
      "outputs": [
        {
          "internalType": "bool",
          "name": "",
          "type": "bool"
        }
      ],
      "stateMutability": "view",
      "type": "function"
    },
    {
      "inputs": [
        {
          "internalType": "uint256",
          "name": "index",
          "type": "uint256"
        }
      ],
      "name": "payee",
      "outputs": [
        {
          "internalType": "address",
          "name": "",
          "type": "address"
        }
      ],
      "stateMutability": "view",
      "type": "function"
    },
    {
      "inputs": [
        {
          "internalType": "address",
          "name": "owner",
          "type": "address"
        },
        {
          "internalType": "address",
          "name": "spender",
          "type": "address"
        },
        {
          "internalType": "uint256",
          "name": "value",
          "type": "uint256"
        },
        {
          "internalType": "uint256",
          "name": "deadline",
          "type": "uint256"
        },
        {
          "internalType": "uint8",
          "name": "v",
          "type": "uint8"
        },
        {
          "internalType": "bytes32",
          "name": "r",
          "type": "bytes32"
        },
        {
          "internalType": "bytes32",
          "name": "s",
          "type": "bytes32"
        }
      ],
      "name": "permit",
      "outputs": [],
      "stateMutability": "nonpayable",
      "type": "function"
    },
    {
      "inputs": [],
      "name": "proxiableUUID",
      "outputs": [
        {
          "internalType": "bytes32",
          "name": "",
          "type": "bytes32"
        }
      ],
      "stateMutability": "view",
      "type": "function"
    },
    {
      "inputs": [
        {
          "internalType": "address",
          "name": "account",
          "type": "address"
        }
      ],
      "name": "releasable",
      "outputs": [
        {
          "internalType": "uint256",
          "name": "",
          "type": "uint256"
        }
      ],
      "stateMutability": "view",
      "type": "function"
    },
    {
      "inputs": [
        {
          "internalType": "contract IERC20Upgradeable",
          "name": "token",
          "type": "address"
        },
        {
          "internalType": "address",
          "name": "account",
          "type": "address"
        }
      ],
      "name": "releasable",
      "outputs": [
        {
          "internalType": "uint256",
          "name": "",
          "type": "uint256"
        }
      ],
      "stateMutability": "view",
      "type": "function"
    },
    {
      "inputs": [
        {
          "internalType": "address payable",
          "name": "account",
          "type": "address"
        }
      ],
      "name": "release",
      "outputs": [],
      "stateMutability": "nonpayable",
      "type": "function"
    },
    {
      "inputs": [
        {
          "internalType": "contract IERC20Upgradeable",
          "name": "token",
          "type": "address"
        },
        {
          "internalType": "address",
          "name": "account",
          "type": "address"
        }
      ],
      "name": "release",
      "outputs": [],
      "stateMutability": "nonpayable",
      "type": "function"
    },
    {
      "inputs": [
        {
          "internalType": "contract IERC20Upgradeable",
          "name": "token",
          "type": "address"
        },
        {
          "internalType": "address",
          "name": "account",
          "type": "address"
        }
      ],
      "name": "released",
      "outputs": [
        {
          "internalType": "uint256",
          "name": "",
          "type": "uint256"
        }
      ],
      "stateMutability": "view",
      "type": "function"
    },
    {
      "inputs": [
        {
          "internalType": "address",
          "name": "account",
          "type": "address"
        }
      ],
      "name": "released",
      "outputs": [
        {
          "internalType": "uint256",
          "name": "",
          "type": "uint256"
        }
      ],
      "stateMutability": "view",
      "type": "function"
    },
    {
      "inputs": [],
      "name": "renounceOwnership",
      "outputs": [],
      "stateMutability": "nonpayable",
      "type": "function"
    },
    {
      "inputs": [
        {
          "internalType": "address",
          "name": "_breederContractAddr",
          "type": "address"
        },
        {
          "internalType": "uint256",
          "name": "_vrfValue",
          "type": "uint256"
        },
        {
          "internalType": "address",
          "name": "_nftContractAddr",
          "type": "address"
        },
        {
          "internalType": "address",
          "name": "_aprsContract",
          "type": "address"
        },
        {
          "internalType": "address",
          "name": "_animaContract",
          "type": "address"
        }
      ],
      "name": "setAllOf",
      "outputs": [],
      "stateMutability": "nonpayable",
      "type": "function"
    },
    {
      "inputs": [
        {
          "internalType": "address[2]",
          "name": "parents",
          "type": "address[2]"
        },
        {
          "internalType": "uint256",
          "name": "newTokenId",
          "type": "uint256"
        },
        {
          "internalType": "uint256[2]",
          "name": "parentTokenIds",
          "type": "uint256[2]"
        }
      ],
      "name": "setArrivedOwner",
      "outputs": [],
      "stateMutability": "nonpayable",
      "type": "function"
    },
    {
      "inputs": [
        {
          "internalType": "uint256",
          "name": "_toThisPercentage",
          "type": "uint256"
        }
      ],
      "name": "setMktFee",
      "outputs": [],
      "stateMutability": "nonpayable",
      "type": "function"
    },
    {
      "inputs": [
        {
          "internalType": "address payable",
          "name": "newTAdd",
          "type": "address"
        }
      ],
      "name": "setTAdd",
      "outputs": [],
      "stateMutability": "nonpayable",
      "type": "function"
    },
    {
      "inputs": [
        {
          "internalType": "address",
          "name": "account",
          "type": "address"
        }
      ],
      "name": "shares",
      "outputs": [
        {
          "internalType": "uint256",
          "name": "",
          "type": "uint256"
        }
      ],
      "stateMutability": "view",
      "type": "function"
    },
    {
      "inputs": [],
      "name": "status",
      "outputs": [],
      "stateMutability": "nonpayable",
      "type": "function"
    },
    {
      "inputs": [],
      "name": "symbol",
      "outputs": [
        {
          "internalType": "string",
          "name": "",
          "type": "string"
        }
      ],
      "stateMutability": "view",
      "type": "function"
    },
    {
      "inputs": [
        {
          "internalType": "uint256",
          "name": "",
          "type": "uint256"
        }
      ],
      "name": "tokenIdClaimableToOwnerAddr",
      "outputs": [
        {
          "internalType": "address",
          "name": "",
          "type": "address"
        }
      ],
      "stateMutability": "view",
      "type": "function"
    },
    {
      "inputs": [
        {
          "internalType": "contract IERC20Upgradeable",
          "name": "token",
          "type": "address"
        }
      ],
      "name": "totalReleased",
      "outputs": [
        {
          "internalType": "uint256",
          "name": "",
          "type": "uint256"
        }
      ],
      "stateMutability": "view",
      "type": "function"
    },
    {
      "inputs": [],
      "name": "totalReleased",
      "outputs": [
        {
          "internalType": "uint256",
          "name": "",
          "type": "uint256"
        }
      ],
      "stateMutability": "view",
      "type": "function"
    },
    {
      "inputs": [],
      "name": "totalShares",
      "outputs": [
        {
          "internalType": "uint256",
          "name": "",
          "type": "uint256"
        }
      ],
      "stateMutability": "view",
      "type": "function"
    },
    {
      "inputs": [],
      "name": "totalSupply",
      "outputs": [
        {
          "internalType": "uint256",
          "name": "",
          "type": "uint256"
        }
      ],
      "stateMutability": "view",
      "type": "function"
    },
    {
      "inputs": [
        {
          "internalType": "address",
          "name": "to",
          "type": "address"
        },
        {
          "internalType": "uint256",
          "name": "amount",
          "type": "uint256"
        }
      ],
      "name": "transfer",
      "outputs": [
        {
          "internalType": "bool",
          "name": "",
          "type": "bool"
        }
      ],
      "stateMutability": "nonpayable",
      "type": "function"
    },
    {
      "inputs": [
        {
          "internalType": "address",
          "name": "from",
          "type": "address"
        },
        {
          "internalType": "address",
          "name": "to",
          "type": "address"
        },
        {
          "internalType": "uint256",
          "name": "amount",
          "type": "uint256"
        }
      ],
      "name": "transferFrom",
      "outputs": [
        {
          "internalType": "bool",
          "name": "",
          "type": "bool"
        }
      ],
      "stateMutability": "nonpayable",
      "type": "function"
    },
    {
      "inputs": [
        {
          "internalType": "address",
          "name": "newOwner",
          "type": "address"
        }
      ],
      "name": "transferOwnership",
      "outputs": [],
      "stateMutability": "nonpayable",
      "type": "function"
    },
    {
      "inputs": [],
      "name": "unpause",
      "outputs": [],
      "stateMutability": "nonpayable",
      "type": "function"
    },
    {
      "inputs": [
        {
          "internalType": "address",
          "name": "newImplementation",
          "type": "address"
        }
      ],
      "name": "upgradeTo",
      "outputs": [],
      "stateMutability": "nonpayable",
      "type": "function"
    },
    {
      "inputs": [
        {
          "internalType": "address",
          "name": "newImplementation",
          "type": "address"
        },
        {
          "internalType": "bytes",
          "name": "data",
          "type": "bytes"
        }
      ],
      "name": "upgradeToAndCall",
      "outputs": [],
      "stateMutability": "payable",
      "type": "function"
    },
    {
      "inputs": [
        {
          "internalType": "address",
          "name": "",
          "type": "address"
        },
        {
          "internalType": "uint256",
          "name": "",
          "type": "uint256"
        }
      ],
      "name": "userToListedPlanets",
      "outputs": [
        {
          "internalType": "uint256",
          "name": "tokenId",
          "type": "uint256"
        },
        {
          "internalType": "uint256",
          "name": "price",
          "type": "uint256"
        },
        {
          "internalType": "address",
          "name": "ownerAddress",
          "type": "address"
        },
        {
          "internalType": "bool",
          "name": "active",
          "type": "bool"
        }
      ],
      "stateMutability": "view",
      "type": "function"
    },
    {
      "inputs": [
        {
          "internalType": "address",
          "name": "userAddress",
          "type": "address"
        }
      ],
      "name": "usersClaims",
      "outputs": [
        {
          "components": [
            {
              "internalType": "address",
              "name": "ownerParentAddress",
              "type": "address"
            },
            {
              "internalType": "uint256",
              "name": "ownerTokenId",
              "type": "uint256"
            },
            {
              "internalType": "bool",
              "name": "delivered",
              "type": "bool"
            },
            {
              "internalType": "bool",
              "name": "arrived",
              "type": "bool"
            },
            {
              "internalType": "address",
              "name": "otherParent",
              "type": "address"
            },
            {
              "internalType": "uint256",
              "name": "otherTokenId",
              "type": "uint256"
            },
            {
              "internalType": "uint256",
              "name": "claimsTokenId",
              "type": "uint256"
            }
          ],
          "internalType": "struct ClaimablePlanet[]",
          "name": "",
          "type": "tuple[]"
        }
      ],
      "stateMutability": "view",
      "type": "function"
    },
    {
      "inputs": [
        {
          "internalType": "address",
          "name": "tokenAddress",
          "type": "address"
        },
        {
          "internalType": "address",
          "name": "address1",
          "type": "address"
        },
        {
          "internalType": "address",
          "name": "address2",
          "type": "address"
        },
        {
          "internalType": "uint256",
          "name": "withdrawalAmount",
          "type": "uint256"
        }
      ],
      "name": "withdrawAndSplitERC20",
      "outputs": [],
      "stateMutability": "nonpayable",
      "type": "function"
    },
    {
      "inputs": [
        {
          "internalType": "address",
          "name": "address1",
          "type": "address"
        },
        {
          "internalType": "address",
          "name": "address2",
          "type": "address"
        },
        {
          "internalType": "uint256",
          "name": "withdrawalAmount",
          "type": "uint256"
        }
      ],
      "name": "withdrawAndSplitHalfsies",
      "outputs": [],
      "stateMutability": "nonpayable",
      "type": "function"
    },
    {
      "inputs": [],
      "name": "withdrawFunds",
      "outputs": [],
      "stateMutability": "nonpayable",
      "type": "function"
    },
    {
      "stateMutability": "payable",
      "type": "receive"
    }
  ],
  "bytecode": "0x60a06040523060805234801561001457600080fd5b50608051615d6b6200004d6000396000818161164501528181611685015281816118fb0152818161193b0152611b430152615d6b6000f3fe6080604052600436106103ef5760003560e01c80638456cb5911610206578063d28c933411610117578063e8cbd25c116100a5578063f658159a11610077578063f658159a14610d39578063f837894714610d70578063fdb4087514610d90578063fde4976714610db0578063fe79222914610c1557005b8063e8cbd25c14610cb8578063ee6e3a2314610cd8578063f2fde38b14610cf9578063f4c1494314610d1957005b8063dbb774d8116100e9578063dbb774d814610c15578063dd22a9c714610c42578063dd62ed3e14610c62578063e22aecb414610c82578063e33b7de314610ca257005b8063d28c933414610b1c578063d4b5b8d614610b87578063d505accf14610bbe578063d79779b214610bde57005b8063a8e5e4aa11610194578063c4d66de811610166578063c4d66de814610a65578063c7c0e6b114610a85578063cbdf1b5a14610aa5578063cdb82a3714610ac5578063ce7c2ac214610ae557005b8063a8e5e4aa146109ce578063a9059cbb146109ee578063bd83dc0514610a0e578063c45ac05014610a4557005b80638da5cb5b116101d85780638da5cb5b1461092357806395d89b41146109425780639852595c14610957578063a3f8eace1461098e578063a457c2d7146109ae57005b80638456cb591461051757806384b0196e1461088a57806385fe7243146108b25780638b83209b1461090357005b80633a7fb03d1161030057806352d1902d1161028e57806370a082311161026057806370a08231146107ec578063715018a6146108225780637ecebe00146108375780638230a78414610857578063842905911461086a57005b806352d1902d146107735780635b634b6a146107885780635c975abb146107bf5780636a23befb146107d757005b806348b75044116102d257806348b75044146107005780634d950449146107205780634f1ef2861461074057806350842cf3146104eb5780635270ad6c1461075357005b80633a7fb03d1461066e5780633a98ef391461068e5780633f4ba83a146106a4578063406072a9146106b957005b8063229c23cc1161037d578063313ce5671161034f578063313ce567146105ae57806334ae54e9146105ca5780633644e515146106195780633659cfe61461062e578063395093511461064e57005b8063229c23cc1461052c57806323b872dd1461054c57806324600fc31461056c578063259478181461058157005b806318160ddd116103c157806318160ddd146104ac57806319165587146104cb5780631ac9a91e146104eb5780631dd320ea146104f7578063200d2ed21461051757005b806306fdde03146103f8578063095ea7b3146104235780630f33c7c214610453578063150b7a021461047357005b366103f657005b005b34801561040457600080fd5b5061040d610dd0565b60405161041a91906150cd565b60405180910390f35b34801561042f57600080fd5b5061044361043e3660046150f5565b610e62565b604051901515815260200161041a565b34801561045f57600080fd5b506103f661046e3660046151b5565b610e7c565b34801561047f57600080fd5b5061049361048e3660046152e2565b610e94565b6040516001600160e01b0319909116815260200161041a565b3480156104b857600080fd5b5060cb545b60405190815260200161041a565b3480156104d757600080fd5b506103f66104e636600461534e565b611172565b3480156103f657600080fd5b34801561050357600080fd5b506104436105123660046150f5565b611268565b34801561052357600080fd5b506103f661132d565b34801561053857600080fd5b506103f661054736600461536b565b61133d565b34801561055857600080fd5b5061044361056736600461536b565b611418565b34801561057857600080fd5b506103f661143c565b34801561058d57600080fd5b506105a161059c3660046153ac565b61147e565b60405161041a91906153ce565b3480156105ba57600080fd5b506040516012815260200161041a565b3480156105d657600080fd5b506106016105e536600461543d565b6101cc602052600090815260409020546001600160a01b031681565b6040516001600160a01b03909116815260200161041a565b34801561062557600080fd5b506104bd61162c565b34801561063a57600080fd5b506103f661064936600461534e565b61163b565b34801561065a57600080fd5b506104436106693660046150f5565b61171a565b34801561067a57600080fd5b506103f6610689366004615456565b61173c565b34801561069a57600080fd5b50610162546104bd565b3480156106b057600080fd5b506103f66117bf565b3480156106c557600080fd5b506104bd6106d4366004615486565b6001600160a01b0391821660009081526101686020908152604080832093909416825291909152205490565b34801561070c57600080fd5b506103f661071b366004615486565b6117cf565b34801561072c57600080fd5b506103f661073b36600461543d565b6118e3565b6103f661074e3660046154b4565b6118f1565b34801561075f57600080fd5b506103f661076e36600461543d565b6119bd565b34801561077f57600080fd5b506104bd611b36565b34801561079457600080fd5b506106016107a336600461543d565b6101cf602052600090815260409020546001600160a01b031681565b3480156107cb57600080fd5b5060335460ff16610443565b3480156107e357600080fd5b506105a1611be9565b3480156107f857600080fd5b506104bd61080736600461534e565b6001600160a01b0316600090815260c9602052604090205490565b34801561082e57600080fd5b506103f6611c7f565b34801561084357600080fd5b506104bd61085236600461534e565b611c91565b6103f66108653660046153ac565b611cb0565b34801561087657600080fd5b506103f6610885366004615504565b6124d7565b34801561089657600080fd5b5061089f612735565b60405161041a9796959493929190615555565b3480156108be57600080fd5b506108d26108cd3660046150f5565b6127d3565b60405161041a949392919093845260208401929092526001600160a01b031660408301521515606082015260800190565b34801561090f57600080fd5b5061060161091e36600461543d565b61282b565b34801561092f57600080fd5b50610194546001600160a01b0316610601565b34801561094e57600080fd5b5061040d61285c565b34801561096357600080fd5b506104bd61097236600461534e565b6001600160a01b03166000908152610165602052604090205490565b34801561099a57600080fd5b506104bd6109a936600461534e565b61286b565b3480156109ba57600080fd5b506104436109c93660046150f5565b6128b5565b3480156109da57600080fd5b506103f66109e936600461536b565b612930565b3480156109fa57600080fd5b50610443610a093660046150f5565b6129e6565b348015610a1a57600080fd5b50610601610a2936600461543d565b60009081526101cc60205260409020546001600160a01b031690565b348015610a5157600080fd5b506104bd610a60366004615486565b6129f4565b348015610a7157600080fd5b506103f6610a8036600461534e565b612ab9565b348015610a9157600080fd5b506103f6610aa036600461543d565b612bdc565b348015610ab157600080fd5b506103f6610ac03660046153ac565b612bf2565b348015610ad157600080fd5b506103f6610ae036600461534e565b612f73565b348015610af157600080fd5b506104bd610b0036600461534e565b6001600160a01b03166000908152610164602052604090205490565b348015610b2857600080fd5b50610b3c610b373660046153ac565b612fa6565b604080516001600160a01b0398891681526020810197909752941515948601949094529115156060850152909316608083015260a082019290925260c081019190915260e00161041a565b348015610b9357600080fd5b50610601610ba236600461543d565b6101d0602052600090815260409020546001600160a01b031681565b348015610bca57600080fd5b506103f6610bd93660046155ee565b613017565b348015610bea57600080fd5b506104bd610bf936600461534e565b6001600160a01b03166000908152610167602052604090205490565b348015610c2157600080fd5b50610c35610c3036600461534e565b61317b565b60405161041a9190615665565b348015610c4e57600080fd5b50610443610c5d366004615486565b61324b565b348015610c6e57600080fd5b506104bd610c7d366004615486565b6132c3565b348015610c8e57600080fd5b50610b3c610c9d3660046150f5565b6132ee565b348015610cae57600080fd5b50610163546104bd565b348015610cc457600080fd5b506103f6610cd33660046156ec565b61330b565b348015610ce457600080fd5b506101c654610601906001600160a01b031681565b348015610d0557600080fd5b506103f6610d1436600461534e565b613375565b348015610d2557600080fd5b50610443610d343660046150f5565b6133eb565b348015610d4557600080fd5b50610601610d5436600461543d565b60009081526101d060205260409020546001600160a01b031690565b348015610d7c57600080fd5b506103f6610d8b366004615486565b61347b565b348015610d9c57600080fd5b506103f6610dab366004615456565b6134f2565b348015610dbc57600080fd5b506105a1610dcb36600461534e565b61353a565b606060cc8054610ddf90615754565b80601f0160208091040260200160405190810160405280929190818152602001828054610e0b90615754565b8015610e585780601f10610e2d57610100808354040283529160200191610e58565b820191906000526020600020905b815481529060010190602001808311610e3b57829003601f168201915b5050505050905090565b600033610e708185856135db565b60019150505b92915050565b610e846136ff565b610e8f83838361375a565b505050565b6000808251118015610eb157506101c8546001600160a01b031633145b15610f1c57600082806020019051810190610ecc9190615788565b9050610ed9848287613d72565b7f13c6ec2a463a35f898a457814a782f1f567808293fa783a31fa4dac8868e601186868686604051610f0e94939291906157a1565b60405180910390a150611160565b6101c8546001600160a01b03163303611122576101c85460405163dc9ce7a560e01b8152600481018590526000916001600160a01b03169063dc9ce7a590602401600060405180830381865afa158015610f7a573d6000803e3d6000fd5b505050506040513d6000823e601f3d908101601f19168201604052610fa2919081019061588b565b5090506000816101200151905060006101cc600083600081518110610fc957610fc96159aa565b6020026020010151815260200190815260200160002060009054906101000a90046001600160a01b0316905060006101cc60008460018151811061100f5761100f6159aa565b6020026020010151815260200190815260200160002060009054906101000a90046001600160a01b0316905060006040518060400160405280846001600160a01b03166001600160a01b03168152602001836001600160a01b03166001600160a01b031681525090506000604051806040016040528087610120015160008151811061109d5761109d6159aa565b602002602001015181526020018761012001516001815181106110c2576110c26159aa565b602002602001015181525090507f13c6ec2a463a35f898a457814a782f1f567808293fa783a31fa4dac8868e60118b8b8b8b60405161110494939291906159c0565b60405180910390a1611117828a8361375a565b505050505050611160565b7f13c6ec2a463a35f898a457814a782f1f567808293fa783a31fa4dac8868e6011858585856040516111579493929190615a21565b60405180910390a15b50630a85bd0160e11b5b949350505050565b6001600160a01b038116600090815261016460205260409020546111b15760405162461bcd60e51b81526004016111a890615a85565b60405180910390fd5b60006111bc8261286b565b9050806000036111de5760405162461bcd60e51b81526004016111a890615acb565b8061016360008282546111f19190615b2c565b90915550506001600160a01b03821660009081526101656020526040902080548201905561121f8282613f04565b604080516001600160a01b0384168152602081018390527fdf20fd1e76bc69d672e4814fafb2c449bba3a5369d8359adf9e05e6fde87b05691015b60405180910390a15050565b565b6001600160a01b03821660009081526101cd60205260408120815b81548110156112f1578382828154811061129f5761129f6159aa565b906000526020600020906005020160040154036112e9578181815481106112c8576112c86159aa565b600091825260209091206002600590920201015460ff169250610e76915050565b600101611283565b5060405162461bcd60e51b815260206004820152601060248201526f141b185b995d081b9bdd08199bdd5b9960821b60448201526064016111a8565b6113356136ff565b61126661401d565b6113456136ff565b61134d614077565b478111156113945760405162461bcd60e51b8152602060048201526014602482015273496e73756666696369656e742062616c616e636560601b60448201526064016111a8565b60006113a1600283615b3f565b6040519091506001600160a01b0385169082156108fc029083906000818181858888f193505050501580156113da573d6000803e3d6000fd5b506040516001600160a01b0384169082156108fc029083906000818181858888f19350505050158015611411573d6000803e3d6000fd5b5050505050565b6000336114268582856140bd565b611431858585614137565b506001949350505050565b6114446136ff565b61144c614077565b604051339081904780156108fc02916000818181858888f1935050505015801561147a573d6000803e3d6000fd5b5050565b60608282116114bf5760405162461bcd60e51b815260206004820152600d60248201526c092dcecc2d8d2c840d2dcc8caf609b1b60448201526064016111a8565b6101cb548211156115085760405162461bcd60e51b8152602060048201526013602482015272496e646578206f7574206f6620626f756e647360681b60448201526064016111a8565b60006115148484615b61565b67ffffffffffffffff81111561152c5761152c615121565b60405190808252806020026020018201604052801561157e57816020015b60408051608081018252600080825260208083018290529282018190526060820152825260001990920191018161154a5790505b509050835b83811015611624576101cb818154811061159f5761159f6159aa565b600091825260209182902060408051608081018252600393909302909101805483526001810154938301939093526002909201546001600160a01b03811692820192909252600160a01b90910460ff1615156060820152826116018784615b61565b81518110611611576116116159aa565b6020908102919091010152600101611583565b509392505050565b60006116366142e2565b905090565b6001600160a01b037f00000000000000000000000000000000000000000000000000000000000000001630036116835760405162461bcd60e51b81526004016111a890615b74565b7f00000000000000000000000000000000000000000000000000000000000000006001600160a01b03166116cc600080516020615cef833981519152546001600160a01b031690565b6001600160a01b0316146116f25760405162461bcd60e51b81526004016111a890615bc0565b6116fb816142ec565b60408051600080825260208201909252611717918391906142f4565b50565b600033610e7081858561172d83836132c3565b6117379190615b2c565b6135db565b6117446136ff565b61174c614077565b6000611758838361445f565b9050611763836144da565b6101c854604080516001600160a01b0380861682529092166020830152810184905281151560608201527f3e47efa91d5d329f50f04f0b9784b40b63d441ca130a5ddca1865d16e4d612a39060800160405180910390a1505050565b6117c76136ff565b61126661457a565b6001600160a01b038116600090815261016460205260409020546118055760405162461bcd60e51b81526004016111a890615a85565b600061181183836129f4565b9050806000036118335760405162461bcd60e51b81526004016111a890615acb565b6001600160a01b038316600090815261016760205260408120805483929061185c908490615b2c565b90915550506001600160a01b038084166000908152610168602090815260408083209386168352929052208054820190556118988383836145b3565b604080516001600160a01b038481168252602082018490528516917f3be5b7a71e84ed12875d241991c70855ac5817d847039e17a9d895c1ceb0f18a910160405180910390a2505050565b6118eb6136ff565b6101ce55565b6001600160a01b037f00000000000000000000000000000000000000000000000000000000000000001630036119395760405162461bcd60e51b81526004016111a890615b74565b7f00000000000000000000000000000000000000000000000000000000000000006001600160a01b0316611982600080516020615cef833981519152546001600160a01b031690565b6001600160a01b0316146119a85760405162461bcd60e51b81526004016111a890615bc0565b6119b1826142ec565b61147a828260016142f4565b6119c5614077565b60008181526101cf602052604090205433906001600160a01b0316808214611a5c576119f081614605565b6119f982614605565b60405162461bcd60e51b815260206004820152603260248201527f636c61696d206d7573742062652066726f6d20636c61696d616e7473206164646044820152713932b9b99696903234b9b0b63637bbb2b21760711b60648201526084016111a8565b6000611a68848461445f565b905080611acf5760405162461bcd60e51b815260206004820152602f60248201527f4661696c656420746f2073656e64204e46542e20436865636b20436c61696d6160448201526e1b9d08151bdad95b9259081cd95b9d608a1b60648201526084016111a8565b611ad8846144da565b6101c854604080516001600160a01b0380871682529092166020830152810185905281151560608201527f3e47efa91d5d329f50f04f0b9784b40b63d441ca130a5ddca1865d16e4d612a3906080015b60405180910390a150505050565b6000306001600160a01b037f00000000000000000000000000000000000000000000000000000000000000001614611bd65760405162461bcd60e51b815260206004820152603860248201527f555550535570677261646561626c653a206d757374206e6f742062652063616c60448201527f6c6564207468726f7567682064656c656761746563616c6c000000000000000060648201526084016111a8565b50600080516020615cef83398151915290565b60606101cb805480602002602001604051908101604052809291908181526020016000905b82821015611c76576000848152602090819020604080516080810182526003860290920180548352600180820154848601526002909101546001600160a01b03811692840192909252600160a01b90910460ff16151560608301529083529092019101611c0e565b50505050905090565b611c876136ff565b611266600061464d565b6001600160a01b038116600090815261012f6020526040812054610e76565b611cb8614077565b808203611d135760405162461bcd60e51b815260206004820152602360248201527f4173657875616c20726570726f64756374696f6e206973206e6f7420616c6c6f6044820152621dd95960ea1b60648201526084016111a8565b6000611d1e826146a0565b6101c8546040516331a9108f60e11b8152600481018690529192506000916001600160a01b0390911690636352211e90602401602060405180830381865afa158015611d6e573d6000803e3d6000fd5b505050506040513d601f19601f82011682018060405250810190611d929190615c0c565b90506001600160a01b0381163014611e1c5760405162461bcd60e51b815260206004820152604160248201527f596f75206e65656420746f206c6973742f6465706f7369742074686520706c6160448201527f6e657420796f752061726520747279696e6720746f20627265656420776974686064820152601760f91b608482015260a4016111a8565b60008060005b6101cb54811015611ec957866101cb8281548110611e4257611e426159aa565b90600052602060002090600302016000015403611ec1576101cb8181548110611e6d57611e6d6159aa565b906000526020600020906003020160020160009054906101000a90046001600160a01b031692506101cb8181548110611ea857611ea86159aa565b9060005260206000209060030201600001549150611ec9565b600101611e22565b506001600160a01b0382163314611f3d5760405162461bcd60e51b815260206004820152603260248201527f596f7520646f206e6f74206f776e2074686520706c616e657420796f7520617260448201527132903a393cb4b733903a3790313932b2b21760711b60648201526084016111a8565b600060646101ce5486611f509190615c29565b611f5a9190615b3f565b905080856101c954611f6c9190615b2c565b611f769190615b2c565b341015611feb5760405162461bcd60e51b815260206004820152603760248201527f496e73756666696369656e742066756e647320746f20636f766572205652462060448201527f636f737420616e6420707269636520616e64206665652e00000000000000000060648201526084016111a8565b33600080805b6101cb5481101561209857896101cb8281548110612011576120116159aa565b90600052602060002090600302016000015403612090576101cb818154811061203c5761203c6159aa565b906000526020600020906003020160020160009054906101000a90046001600160a01b031692506101cb8181548110612077576120776159aa565b9060005260206000209060030201600001549150612098565b600101611ff1565b506706f05b59d3b2000047101561210f5760405162461bcd60e51b815260206004820152603560248201527f436f6e74726163742068617320496e73756666696369656e742062616c616e63604482015274652c20636f6e74616374206861746368657220687160581b60648201526084016111a8565b6040516000906001600160a01b038416908a156108fc02908b9084818181858888f1935050505090508061217c5760405162461bcd60e51b81526020600482015260146024820152732330b4b632b2103a379039b2b7321022ba3432b960611b60448201526064016111a8565b6101c6546101c954604051634e9e6a0760e01b8152600481018e9052602481018d9052600060448201526001600160a01b0390921691634e9e6a07919060640160206040518083038185885af11580156121da573d6000803e3d6000fd5b50505050506040513d601f19601f820116820180604052508101906121ff9190615788565b5060006040518060e00160405280866001600160a01b031681526020018d8152602001600015158152602001600015158152602001856001600160a01b03168152602001848152602001600081525090506101cd6000866001600160a01b03166001600160a01b0316815260200190815260200160002081908060018154018082558091505060019003906000526020600020906005020160009091909190915060008201518160000160006101000a8154816001600160a01b0302191690836001600160a01b031602179055506020820151816001015560408201518160020160006101000a81548160ff02191690831515021790555060608201518160020160016101000a81548160ff02191690831515021790555060808201518160020160026101000a8154816001600160a01b0302191690836001600160a01b0316021790555060a0820151816003015560c082015181600401555050846101cc60008e815260200190815260200160002060006101000a8154816001600160a01b0302191690836001600160a01b03160217905550858a6101c9546123a39190615b2c565b6123ad9190615b2c565b341115612479576000336001600160a01b0316878c6101c954346123d19190615b61565b6123db9190615b61565b6123e59190615b61565b604051600081818185875af1925050503d8060008114612421576040519150601f19603f3d011682016040523d82523d6000602084013e612426565b606091505b50509050806124775760405162461bcd60e51b815260206004820152601d60248201527f4661696c656420746f20726566756e642065786365737320457468657200000060448201526064016111a8565b505b604080518d81526001600160a01b0387811660208301528183018e90528616606082015290517f8557df6951fbdd47fe9027516fc896be40f285ed55a6acac460352adbab730cd9181900360800190a1505050505050505050505050565b6124df6136ff565b6124e7614077565b6040516370a0823160e01b815230600482015284906000906001600160a01b038316906370a0823190602401602060405180830381865afa158015612530573d6000803e3d6000fd5b505050506040513d601f19601f820116820180604052508101906125549190615788565b90508083111561259d5760405162461bcd60e51b8152602060048201526014602482015273496e73756666696369656e742062616c616e636560601b60448201526064016111a8565b60006125aa600285615b3f565b60405163a9059cbb60e01b81526001600160a01b038881166004830152602482018390529192509084169063a9059cbb906044016020604051808303816000875af11580156125fd573d6000803e3d6000fd5b505050506040513d601f19601f820116820180604052508101906126219190615c40565b61266d5760405162461bcd60e51b815260206004820152601b60248201527f5472616e7366657220746f206164647265737331206661696c6564000000000060448201526064016111a8565b60405163a9059cbb60e01b81526001600160a01b0386811660048301526024820183905284169063a9059cbb906044016020604051808303816000875af11580156126bc573d6000803e3d6000fd5b505050506040513d601f19601f820116820180604052508101906126e09190615c40565b61272c5760405162461bcd60e51b815260206004820152601b60248201527f5472616e7366657220746f206164647265737332206661696c6564000000000060448201526064016111a8565b50505050505050565b60006060806000806000606060fb546000801b148015612755575060fc54155b6127995760405162461bcd60e51b81526020600482015260156024820152741152540dcc4c8e88155b9a5b9a5d1a585b1a5e9959605a1b60448201526064016111a8565b6127a1614741565b6127a9614750565b60408051600080825260208201909252600f60f81b9b939a50919850469750309650945092509050565b6101ca60205281600052604060002081815481106127f057600080fd5b60009182526020909120600390910201805460018201546002909201549093509091506001600160a01b03811690600160a01b900460ff1684565b60006101668281548110612841576128416159aa565b6000918252602090912001546001600160a01b031692915050565b606060cd8054610ddf90615754565b6000806128786101635490565b6128829047615b2c565b90506128ae83826128a9866001600160a01b03166000908152610165602052604090205490565b61475f565b9392505050565b600033816128c382866132c3565b9050838110156129235760405162461bcd60e51b815260206004820152602560248201527f45524332303a2064656372656173656420616c6c6f77616e63652062656c6f77604482015264207a65726f60d81b60648201526084016111a8565b61143182868684036135db565b60405163095ea7b360e01b81526001600160a01b0383811660048301526024820183905284169063095ea7b3906044016020604051808303816000875af115801561297f573d6000803e3d6000fd5b505050506040513d601f19601f820116820180604052508101906129a39190615c40565b610e8f5760405162461bcd60e51b8152602060048201526014602482015273115490cc8c08185c1c1c9bdd994819985a5b195960621b60448201526064016111a8565b600033610e70818585614137565b6001600160a01b0382166000908152610167602052604081205481906040516370a0823160e01b81523060048201526001600160a01b038616906370a0823190602401602060405180830381865afa158015612a54573d6000803e3d6000fd5b505050506040513d601f19601f82011682018060405250810190612a789190615788565b612a829190615b2c565b6001600160a01b038086166000908152610168602090815260408083209388168352929052205490915061116a908490839061475f565b600054610100900460ff1615808015612ad95750600054600160ff909116105b80612af35750303b158015612af3575060005460ff166001145b612b565760405162461bcd60e51b815260206004820152602e60248201527f496e697469616c697a61626c653a20636f6e747261637420697320616c72656160448201526d191e481a5b9a5d1a585b1a5e995960921b60648201526084016111a8565b6000805460ff191660011790558015612b79576000805461ff0019166101001790555b612b8161479f565b612b896147ce565b612b916147fd565b612b9a82613375565b801561147a576000805461ff0019169055604051600181527f7f26b83ff96e1f2b6a682f133852f6798a09c465da95921460cefb38474024989060200161125a565b612be46136ff565b612bec614077565b6101c955565b612bfa614077565b6101cb548210612c425760405162461bcd60e51b8152602060048201526013602482015272496e646578206f7574206f6620626f756e647360681b60448201526064016111a8565b600033905060006101cb8481548110612c5d57612c5d6159aa565b6000918252602091829020604080516080810182526003909302909101805483526001810154938301939093526002909201546001600160a01b03811692820183905260ff600160a01b909104161515606082015291503314612cbf57600080fd5b6040518060800160405280826000015181526020016000815260200182604001516001600160a01b03168152602001600015158152506101cb8581548110612d0957612d096159aa565b60009182526020808320845160039093020191825583015160018201556040830151600290910180546060909401511515600160a01b026001600160a81b03199094166001600160a01b039092169190911792909217909155612d6c848461445f565b905080612dc55760405162461bcd60e51b815260206004820152602160248201527f64654c697374696e67204661696c65642073656e64204e46542070726f6365736044820152607360f81b60648201526084016111a8565b3360009081526101ca602052604090208054612de390600190615b61565b81548110612df357612df36159aa565b90600052602060002090600302016101ca6000336001600160a01b03166001600160a01b031681526020019081526020016000208681548110612e3857612e386159aa565b60009182526020808320845460039093020191825560018085015490830155600293840180549490920180546001600160a01b031981166001600160a01b039096169586178255925460ff600160a01b91829004161515026001600160a81b0319909316909417919091179092553381526101ca90915260409020805480612ec257612ec2615c5b565b60008281526020808220600360001994909401938402018281556001810183905560020180546001600160a81b0319169055919092558582526101d0815260409182902080546001600160a01b03191690556101c854845183516001600160a01b038881168252909216928201929092529182015281151560608201527fc6d479c3ed7081a22666733326104ccbbbaccec81902d39e12430505ee2993bd9060800160405180910390a15050505050565b612f7b6136ff565b612f83614077565b6101c780546001600160a01b0319166001600160a01b0392909216919091179055565b6101d36020528160005260406000208181548110612fc357600080fd5b6000918252602090912060059091020180546001820154600283015460038401546004909401546001600160a01b03938416965091945060ff80821694610100830490911693620100009092049091169187565b834211156130675760405162461bcd60e51b815260206004820152601d60248201527f45524332305065726d69743a206578706972656420646561646c696e6500000060448201526064016111a8565b60007f6e71edae12b1b97f4d1f60370fef10105fa2faae0126114a169c64845d6126c98888886130968c614824565b6040805160208101969096526001600160a01b0394851690860152929091166060840152608083015260a082015260c0810186905260e00160405160208183030381529060405280519060200120905060006130f18261484b565b9050600061310182878787614878565b9050896001600160a01b0316816001600160a01b0316146131645760405162461bcd60e51b815260206004820152601e60248201527f45524332305065726d69743a20696e76616c6964207369676e6174757265000060448201526064016111a8565b61316f8a8a8a6135db565b50505050505050505050565b6001600160a01b03811660009081526101cd60209081526040808320805482518185028101850190935280835260609492939192909184015b828210156132405760008481526020908190206040805160e0810182526005860290920180546001600160a01b03908116845260018083015485870152600283015460ff80821615159587019590955261010081049094161515606086015262010000909304166080840152600381015460a08401526004015460c083015290835290920191016131b4565b505050509050919050565b6101c85460405163e985e9c560e01b81526001600160a01b0384811660048301528381166024830152600092169063e985e9c590604401602060405180830381865afa15801561329f573d6000803e3d6000fd5b505050506040513d601f19601f820116820180604052508101906128ae9190615c40565b6001600160a01b03918216600090815260ca6020908152604080832093909416825291909152205490565b6101cd6020528160005260406000208181548110612fc357600080fd5b6133136136ff565b61331b614077565b6101c9939093556101c680546001600160a01b039586166001600160a01b0319918216179091556101c88054938616938216939093179092556101d180549185169183169190911790556101d28054929093169116179055565b61337d6136ff565b6001600160a01b0381166133e25760405162461bcd60e51b815260206004820152602660248201527f4f776e61626c653a206e6577206f776e657220697320746865207a65726f206160448201526564647265737360d01b60648201526084016111a8565b6117178161464d565b6001600160a01b03821660009081526101cd60205260408120815b81548110156112f15783828281548110613422576134226159aa565b906000526020600020906005020160040154036134735781818154811061344b5761344b6159aa565b906000526020600020906005020160020160019054906101000a900460ff1692505050610e76565b600101613406565b6134836136ff565b61348b614077565b60405163a22cb46560e01b81526001600160a01b0382811660048301526001602483015283169063a22cb465906044015b600060405180830381600087803b1580156134d657600080fd5b505af11580156134ea573d6000803e3d6000fd5b505050505050565b6134fa6136ff565b6101c8546040516323b872dd60e01b81523060048201526001600160a01b03838116602483015260448201859052909116906323b872dd906064016134bc565b6001600160a01b03811660009081526101ca60209081526040808320805482518185028101850190935280835260609492939192909184015b82821015613240576000848152602090819020604080516080810182526003860290920180548352600180820154848601526002909101546001600160a01b03811692840192909252600160a01b90910460ff16151560608301529083529092019101613573565b6001600160a01b03831661363d5760405162461bcd60e51b8152602060048201526024808201527f45524332303a20617070726f76652066726f6d20746865207a65726f206164646044820152637265737360e01b60648201526084016111a8565b6001600160a01b03821661369e5760405162461bcd60e51b815260206004820152602260248201527f45524332303a20617070726f766520746f20746865207a65726f206164647265604482015261737360f01b60648201526084016111a8565b6001600160a01b03838116600081815260ca602090815260408083209487168084529482529182902085905590518481527f8c5be1e5ebec7d5bd14f71427d1e84f3dd0314c0f7b2291e5b200ac8c7c3b925910160405180910390a3505050565b610194546001600160a01b031633146112665760405162461bcd60e51b815260206004820181905260248201527f4f776e61626c653a2063616c6c6572206973206e6f7420746865206f776e657260448201526064016111a8565b82516020808501518351918401519091906000805b6001600160a01b03861660009081526101cd60205260409020548110156139bf576001600160a01b0386811660009081526101cd60205260409020805491871691839081106137c0576137c06159aa565b60009182526020909120600590910201600201546201000090046001600160a01b031614801561387557506001600160a01b03861660009081526101cd60205260409020805485919083908110613819576138196159aa565b90600052602060002090600502016001015414801561387557506001600160a01b03861660009081526101cd60205260409020805484919083908110613861576138616159aa565b906000526020600020906005020160030154145b8061390557506001600160a01b03861660009081526101cd602052604090208054849190839081106138a9576138a96159aa565b90600052602060002090600502016001015414801561390557506001600160a01b03861660009081526101cd602052604090208054859190839081106138f1576138f16159aa565b906000526020600020906005020160030154145b156139b7576001600160a01b03861660009081526101cd6020526040902080546001919083908110613939576139396159aa565b906000526020600020906005020160020160016101000a81548160ff021916908315150217905550876101cd6000886001600160a01b03166001600160a01b031681526020019081526020016000208281548110613999576139996159aa565b906000526020600020906005020160040181905550600191506139bf565b60010161376f565b5080613c1a5760005b6001600160a01b03851660009081526101cd6020526040902054811015613c18576001600160a01b0385811660009081526101cd6020526040902080549188169183908110613a1957613a196159aa565b60009182526020909120600590910201600201546201000090046001600160a01b0316148015613ace57506001600160a01b03851660009081526101cd60205260409020805484919083908110613a7257613a726159aa565b906000526020600020906005020160010154148015613ace57506001600160a01b03851660009081526101cd60205260409020805485919083908110613aba57613aba6159aa565b906000526020600020906005020160030154145b80613b5e57506001600160a01b03851660009081526101cd60205260409020805485919083908110613b0257613b026159aa565b906000526020600020906005020160010154148015613b5e57506001600160a01b03851660009081526101cd60205260409020805484919083908110613b4a57613b4a6159aa565b906000526020600020906005020160030154145b15613c10576001600160a01b03851660009081526101cd6020526040902080546001919083908110613b9257613b926159aa565b906000526020600020906005020160020160016101000a81548160ff021916908315150217905550876101cd6000876001600160a01b03166001600160a01b031681526020019081526020016000208281548110613bf257613bf26159aa565b90600052602060002090600502016004018190555060019150613c18565b6001016139c8565b505b80613d685760006040518060e00160405280876001600160a01b03168152602001858152602001600015158152602001600115158152602001866001600160a01b031681526020018481526020018981525090506101d3600089815260200190815260200160002081908060018154018082558091505060019003906000526020600020906005020160009091909190915060008201518160000160006101000a8154816001600160a01b0302191690836001600160a01b031602179055506020820151816001015560408201518160020160006101000a81548160ff02191690831515021790555060608201518160020160016101000a81548160ff02191690831515021790555060808201518160020160026101000a8154816001600160a01b0302191690836001600160a01b0316021790555060a0820151816003015560c082015181600401555050505b5050505050505050565b604080516080808201835285825260208083018681526001600160a01b03868116858701818152600160608089018281526101cb8054808501825560009182528b517fe8bbfecd380c4167d6a1f763a233ec73e73f534b1970c4e1683f437ec23c1f4460039283029081019190915589517fe8bbfecd380c4167d6a1f763a233ec73e73f534b1970c4e1683f437ec23c1f4582015586517fe8bbfecd380c4167d6a1f763a233ec73e73f534b1970c4e1683f437ec23c1f4690910180548551928b166001600160a81b031991821617600160a01b9315158402179091558884526101ca8c528e8420805480890182559085528c85208f519190940290930192835599519582019590955594516002909501805492519588169290981691909117931515909202929092179094558a84526101d085529287902080546001600160a01b03191690911790556101c854865133815291169281019290925293810187905292830185905290917fb30319a217488a3ed441c348e935a48d16091e33109bab0c79a353b9797528839101611b28565b80471015613f545760405162461bcd60e51b815260206004820152601d60248201527f416464726573733a20696e73756666696369656e742062616c616e636500000060448201526064016111a8565b6000826001600160a01b03168260405160006040518083038185875af1925050503d8060008114613fa1576040519150601f19603f3d011682016040523d82523d6000602084013e613fa6565b606091505b5050905080610e8f5760405162461bcd60e51b815260206004820152603a60248201527f416464726573733a20756e61626c6520746f2073656e642076616c75652c207260448201527f6563697069656e74206d6179206861766520726576657274656400000000000060648201526084016111a8565b614025614077565b6033805460ff191660011790557f62e78cea01bee320cd4e420270b5ea74000d11b0c9f74754ebdbfc544b05a25861405a3390565b6040516001600160a01b03909116815260200160405180910390a1565b60335460ff16156112665760405162461bcd60e51b815260206004820152601060248201526f14185d5cd8589b194e881c185d5cd95960821b60448201526064016111a8565b60006140c984846132c3565b9050600019811461413157818110156141245760405162461bcd60e51b815260206004820152601d60248201527f45524332303a20696e73756666696369656e7420616c6c6f77616e636500000060448201526064016111a8565b61413184848484036135db565b50505050565b6001600160a01b03831661419b5760405162461bcd60e51b815260206004820152602560248201527f45524332303a207472616e736665722066726f6d20746865207a65726f206164604482015264647265737360d81b60648201526084016111a8565b6001600160a01b0382166141fd5760405162461bcd60e51b815260206004820152602360248201527f45524332303a207472616e7366657220746f20746865207a65726f206164647260448201526265737360e81b60648201526084016111a8565b6001600160a01b038316600090815260c96020526040902054818110156142755760405162461bcd60e51b815260206004820152602660248201527f45524332303a207472616e7366657220616d6f756e7420657863656564732062604482015265616c616e636560d01b60648201526084016111a8565b6001600160a01b03808516600081815260c9602052604080822086860390559286168082529083902080548601905591517fddf252ad1be2c89b69c2b068fc378daa952ba7f163c4a11628f55a4df523b3ef906142d59086815260200190565b60405180910390a3614131565b60006116366148a0565b6117176136ff565b7f4910fdfa16fed3260ed0e7147f7cc6da11a60208b5b9406d12a635614ffd91435460ff161561432757610e8f83614914565b826001600160a01b03166352d1902d6040518163ffffffff1660e01b8152600401602060405180830381865afa925050508015614381575060408051601f3d908101601f1916820190925261437e91810190615788565b60015b6143e45760405162461bcd60e51b815260206004820152602e60248201527f45524331393637557067726164653a206e657720696d706c656d656e7461746960448201526d6f6e206973206e6f74205555505360901b60648201526084016111a8565b600080516020615cef83398151915281146144535760405162461bcd60e51b815260206004820152602960248201527f45524331393637557067726164653a20756e737570706f727465642070726f786044820152681a58589b195555525160ba1b60648201526084016111a8565b50610e8f8383836149b0565b6101c854604051632142170760e11b81523060048201526001600160a01b0383811660248301526044820185905260009216906342842e0e90606401600060405180830381600087803b1580156144b557600080fd5b505af19250505080156144c6575060015b6144d257506000610e76565b506001610e76565b60008181526101cc60209081526040808320546001600160a01b03168084526101cd909252822090915b81548110156141315783828281548110614520576145206159aa565b9060005260206000209060050201600401540361457257600182828154811061454b5761454b6159aa565b60009182526020909120600590910201600201805460ff1916911515919091179055614131565b600101614504565b6145826149d5565b6033805460ff191690557f5db9ee0a495bf2e6ff9c91a7834c1ba4fdd244a5e8aa4e537bd38aeae4b073aa3361405a565b604080516001600160a01b038416602482015260448082018490528251808303909101815260649091019091526020810180516001600160e01b031663a9059cbb60e01b179052610e8f908490614a1e565b6040516001600160a01b03821660248201526117179060440160408051601f198184030181529190526020810180516001600160e01b031663161765e160e11b179052614af3565b61019480546001600160a01b038381166001600160a01b0319831681179093556040519116919082907f8be0079c531659141344cd1fd0a4f28419497f9722a3daafe3b4186f6b6457e090600090a35050565b60006146aa614077565b60005b6101cb5481101561473a57826101cb82815481106146cd576146cd6159aa565b90600052602060002090600302016000015403614712576101cb81815481106146f8576146f86159aa565b906000526020600020906003020160010154915050919050565b6101cb5461472290600190615b61565b8103614732575060001992915050565b6001016146ad565b505b919050565b606060fd8054610ddf90615754565b606060fe8054610ddf90615754565b610162546001600160a01b038416600090815261016460205260408120549091839161478b9086615c29565b6147959190615b3f565b61116a9190615b61565b600054610100900460ff166147c65760405162461bcd60e51b81526004016111a890615c71565b611266614afc565b600054610100900460ff166147f55760405162461bcd60e51b81526004016111a890615c71565b611266614b2c565b600054610100900460ff166112665760405162461bcd60e51b81526004016111a890615c71565b6001600160a01b038116600090815261012f6020526040902080546001810182559061473a565b6000610e766148586142e2565b8360405161190160f01b8152600281019290925260228201526042902090565b600080600061488987878787614b5f565b9150915061489681614c23565b5095945050505050565b60007f8b73c3c69bb8fe3d512ecc4cf759cc79239f7b179b0ffacaa9a75d522b39400f6148cb614d6d565b6148d3614dc6565b60408051602081019490945283019190915260608201524660808201523060a082015260c00160405160208183030381529060405280519060200120905090565b6001600160a01b0381163b6149815760405162461bcd60e51b815260206004820152602d60248201527f455243313936373a206e657720696d706c656d656e746174696f6e206973206e60448201526c1bdd08184818dbdb9d1c9858dd609a1b60648201526084016111a8565b600080516020615cef83398151915280546001600160a01b0319166001600160a01b0392909216919091179055565b6149b983614df7565b6000825111806149c65750805b15610e8f576141318383614e37565b60335460ff166112665760405162461bcd60e51b815260206004820152601460248201527314185d5cd8589b194e881b9bdd081c185d5cd95960621b60448201526064016111a8565b6000614a73826040518060400160405280602081526020017f5361666545524332303a206c6f772d6c6576656c2063616c6c206661696c6564815250856001600160a01b0316614e5c9092919063ffffffff16565b9050805160001480614a94575080806020019051810190614a949190615c40565b610e8f5760405162461bcd60e51b815260206004820152602a60248201527f5361666545524332303a204552433230206f7065726174696f6e20646964206e6044820152691bdd081cdd58d8d9595960b21b60648201526084016111a8565b61171781614e6b565b600054610100900460ff16614b235760405162461bcd60e51b81526004016111a890615c71565b6112663361464d565b600054610100900460ff16614b535760405162461bcd60e51b81526004016111a890615c71565b6033805460ff19169055565b6000807f7fffffffffffffffffffffffffffffff5d576e7357a4501ddfe92f46681b20a0831115614b965750600090506003614c1a565b6040805160008082526020820180845289905260ff881692820192909252606081018690526080810185905260019060a0016020604051602081039080840390855afa158015614bea573d6000803e3d6000fd5b5050604051601f1901519150506001600160a01b038116614c1357600060019250925050614c1a565b9150600090505b94509492505050565b6000816004811115614c3757614c37615cbc565b03614c3f5750565b6001816004811115614c5357614c53615cbc565b03614ca05760405162461bcd60e51b815260206004820152601860248201527f45434453413a20696e76616c6964207369676e6174757265000000000000000060448201526064016111a8565b6002816004811115614cb457614cb4615cbc565b03614d015760405162461bcd60e51b815260206004820152601f60248201527f45434453413a20696e76616c6964207369676e6174757265206c656e6774680060448201526064016111a8565b6003816004811115614d1557614d15615cbc565b036117175760405162461bcd60e51b815260206004820152602260248201527f45434453413a20696e76616c6964207369676e6174757265202773272076616c604482015261756560f01b60648201526084016111a8565b600080614d78614741565b805190915015614d8f578051602090910120919050565b60fb548015614d9e5792915050565b7fc5d2460186f7233c927e7db2dcc703c0e500b653ca82273b7bfad8045d85a4709250505090565b600080614dd1614750565b805190915015614de8578051602090910120919050565b60fc548015614d9e5792915050565b614e0081614914565b6040516001600160a01b038216907fbc7cd75a20ee27fd9adebab32041f755214dbc6bffa90cc0225b39da2e5c2d3b90600090a250565b60606128ae8383604051806060016040528060278152602001615d0f60279139614e8c565b606061116a8484600085614f04565b60006a636f6e736f6c652e6c6f679050600080835160208501845afa505050565b6060600080856001600160a01b031685604051614ea99190615cd2565b600060405180830381855af49150503d8060008114614ee4576040519150601f19603f3d011682016040523d82523d6000602084013e614ee9565b606091505b5091509150614efa86838387614fdf565b9695505050505050565b606082471015614f655760405162461bcd60e51b815260206004820152602660248201527f416464726573733a20696e73756666696369656e742062616c616e636520666f6044820152651c8818d85b1b60d21b60648201526084016111a8565b600080866001600160a01b03168587604051614f819190615cd2565b60006040518083038185875af1925050503d8060008114614fbe576040519150601f19603f3d011682016040523d82523d6000602084013e614fc3565b606091505b5091509150614fd487838387614fdf565b979650505050505050565b6060831561504e578251600003615047576001600160a01b0385163b6150475760405162461bcd60e51b815260206004820152601d60248201527f416464726573733a2063616c6c20746f206e6f6e2d636f6e747261637400000060448201526064016111a8565b508161116a565b61116a83838151156150635781518083602001fd5b8060405162461bcd60e51b81526004016111a891906150cd565b60005b83811015615098578181015183820152602001615080565b50506000910152565b600081518084526150b981602086016020860161507d565b601f01601f19169290920160200192915050565b6020815260006128ae60208301846150a1565b6001600160a01b038116811461171757600080fd5b6000806040838503121561510857600080fd5b8235615113816150e0565b946020939093013593505050565b634e487b7160e01b600052604160045260246000fd5b604051610160810167ffffffffffffffff8111828210171561515b5761515b615121565b60405290565b6040805190810167ffffffffffffffff8111828210171561515b5761515b615121565b604051601f8201601f1916810167ffffffffffffffff811182821017156151ad576151ad615121565b604052919050565b600080600060a084860312156151ca57600080fd5b84601f8501126151d957600080fd5b6151e1615161565b8060408601878111156151f357600080fd5b865b81811015615216578035615208816150e0565b8452602093840193016151f5565b5090945035925050607f8401851361522d57600080fd5b615235615161565b8060a086018781111561524757600080fd5b606087015b8181101561526457803584526020938401930161524c565b505080925050509250925092565b600082601f83011261528357600080fd5b813567ffffffffffffffff81111561529d5761529d615121565b6152b0601f8201601f1916602001615184565b8181528460208386010111156152c557600080fd5b816020850160208301376000918101602001919091529392505050565b600080600080608085870312156152f857600080fd5b8435615303816150e0565b93506020850135615313816150e0565b925060408501359150606085013567ffffffffffffffff81111561533657600080fd5b61534287828801615272565b91505092959194509250565b60006020828403121561536057600080fd5b81356128ae816150e0565b60008060006060848603121561538057600080fd5b833561538b816150e0565b9250602084013561539b816150e0565b929592945050506040919091013590565b600080604083850312156153bf57600080fd5b50508035926020909101359150565b602080825282518282018190526000919060409081850190868401855b82811015615430578151805185528681015187860152858101516001600160a01b031686860152606090810151151590850152608090930192908501906001016153eb565b5091979650505050505050565b60006020828403121561544f57600080fd5b5035919050565b6000806040838503121561546957600080fd5b82359150602083013561547b816150e0565b809150509250929050565b6000806040838503121561549957600080fd5b82356154a4816150e0565b9150602083013561547b816150e0565b600080604083850312156154c757600080fd5b82356154d2816150e0565b9150602083013567ffffffffffffffff8111156154ee57600080fd5b6154fa85828601615272565b9150509250929050565b6000806000806080858703121561551a57600080fd5b8435615525816150e0565b93506020850135615535816150e0565b92506040850135615545816150e0565b9396929550929360600135925050565b60ff60f81b881681526000602060e0602084015261557660e084018a6150a1565b8381036040850152615588818a6150a1565b606085018990526001600160a01b038816608086015260a0850187905284810360c08601528551808252602080880193509091019060005b818110156155dc578351835292840192918401916001016155c0565b50909c9b505050505050505050505050565b600080600080600080600060e0888a03121561560957600080fd5b8735615614816150e0565b96506020880135615624816150e0565b95506040880135945060608801359350608088013560ff8116811461564857600080fd5b9699959850939692959460a0840135945060c09093013592915050565b602080825282518282018190526000919060409081850190868401855b8281101561543057815180516001600160a01b0390811686528782015188870152868201511515878701526060808301511515908701526080808301519091169086015260a0808201519086015260c0908101519085015260e09093019290850190600101615682565b600080600080600060a0868803121561570457600080fd5b853561570f816150e0565b9450602086013593506040860135615726816150e0565b92506060860135615736816150e0565b91506080860135615746816150e0565b809150509295509295909350565b600181811c9082168061576857607f821691505b60208210810361473a57634e487b7160e01b600052602260045260246000fd5b60006020828403121561579a57600080fd5b5051919050565b60006001600160a01b03808716835280861660208401525083604083015260a060608301526157d360a08301846150a1565b8281036080840152600e81526d1b1a5cdd1a5b99c81c1b185b995d60921b60208201526040810191505095945050505050565b600082601f83011261581757600080fd5b8151602067ffffffffffffffff82111561583357615833615121565b8160051b615842828201615184565b928352848101820192828101908785111561585c57600080fd5b83870192505b84831015614fd457825182529183019190830190615862565b8051801515811461473c57600080fd5b6000806040838503121561589e57600080fd5b825167ffffffffffffffff808211156158b657600080fd5b9084019061016082870312156158cb57600080fd5b6158d3615137565b825181526020830151602082015260408301516040820152606083015160608201526080830151608082015260a083015160a082015260c083015160c082015260e083015160e0820152610100808401518381111561593157600080fd5b61593d89828701615806565b828401525050610120808401518381111561595757600080fd5b61596389828701615806565b828401525050610140808401518381111561597d57600080fd5b61598989828701615806565b8284015250508094505050506159a16020840161587b565b90509250929050565b634e487b7160e01b600052603260045260246000fd5b60006001600160a01b03808716835280861660208401525083604083015260a060608301526159f260a08301846150a1565b8281036080840152600a8152691b995dc81c1b185b995d60b21b60208201526040810191505095945050505050565b60006001600160a01b03808716835280861660208401525083604083015260a06060830152615a5360a08301846150a1565b8281036080840152600d81526c1d5b98d85d1959dbdc9a5e9959609a1b60208201526040810191505095945050505050565b60208082526026908201527f5061796d656e7453706c69747465723a206163636f756e7420686173206e6f2060408201526573686172657360d01b606082015260800190565b6020808252602b908201527f5061796d656e7453706c69747465723a206163636f756e74206973206e6f742060408201526a191d59481c185e5b595b9d60aa1b606082015260800190565b634e487b7160e01b600052601160045260246000fd5b80820180821115610e7657610e76615b16565b600082615b5c57634e487b7160e01b600052601260045260246000fd5b500490565b81810381811115610e7657610e76615b16565b6020808252602c908201527f46756e6374696f6e206d7573742062652063616c6c6564207468726f7567682060408201526b19195b1959d85d1958d85b1b60a21b606082015260800190565b6020808252602c908201527f46756e6374696f6e206d7573742062652063616c6c6564207468726f7567682060408201526b6163746976652070726f787960a01b606082015260800190565b600060208284031215615c1e57600080fd5b81516128ae816150e0565b8082028115828204841417610e7657610e76615b16565b600060208284031215615c5257600080fd5b6128ae8261587b565b634e487b7160e01b600052603160045260246000fd5b6020808252602b908201527f496e697469616c697a61626c653a20636f6e7472616374206973206e6f74206960408201526a6e697469616c697a696e6760a81b606082015260800190565b634e487b7160e01b600052602160045260246000fd5b60008251615ce481846020870161507d565b919091019291505056fe360894a13ba1a3210667c828492db98dca3e2076cc3735a920a3ca505d382bbc416464726573733a206c6f772d6c6576656c2064656c65676174652063616c6c206661696c6564a264697066735822122087d53ed9178f36bcb3987cc8bc280ae9aa6b3fd17dd5c18fe441001dfbc1e85264736f6c63430008180033",
  "linkReferences": {},
  "deployedLinkReferences": {}
}