{
  "_format": "hh-sol-artifact-1",
  "contractName": "HatcherV3",
  "sourceName": "contracts/HatcherV3.sol",
  "abi": [
    {
      "inputs": [],
      "name": "Unauthorized",
      "type": "error"
    },
    {
      "anonymous": false,
      "inputs": [
        {
          "indexed": false,
          "internalType": "address",
          "name": "previousAdmin",
          "type": "address"
        },
        {
          "indexed": false,
          "internalType": "address",
          "name": "newAdmin",
          "type": "address"
        }
      ],
      "name": "AdminChanged",
      "type": "event"
    },
    {
      "anonymous": false,
      "inputs": [
        {
          "indexed": true,
          "internalType": "address",
          "name": "owner",
          "type": "address"
        },
        {
          "indexed": true,
          "internalType": "address",
          "name": "spender",
          "type": "address"
        },
        {
          "indexed": false,
          "internalType": "uint256",
          "name": "value",
          "type": "uint256"
        }
      ],
      "name": "Approval",
      "type": "event"
    },
    {
      "anonymous": false,
      "inputs": [
        {
          "indexed": true,
          "internalType": "address",
          "name": "beacon",
          "type": "address"
        }
      ],
      "name": "BeaconUpgraded",
      "type": "event"
    },
    {
      "anonymous": false,
      "inputs": [
        {
          "indexed": false,
          "internalType": "address",
          "name": "sentToUser",
          "type": "address"
        },
        {
          "indexed": false,
          "internalType": "address",
          "name": "token",
          "type": "address"
        },
        {
          "indexed": false,
          "internalType": "uint256",
          "name": "tokenId",
          "type": "uint256"
        },
        {
          "indexed": false,
          "internalType": "bool",
          "name": "success",
          "type": "bool"
        }
      ],
      "name": "DeClaimedAPlanet",
      "type": "event"
    },
    {
      "anonymous": false,
      "inputs": [
        {
          "indexed": false,
          "internalType": "address",
          "name": "sentToUser",
          "type": "address"
        },
        {
          "indexed": false,
          "internalType": "address",
          "name": "token",
          "type": "address"
        },
        {
          "indexed": false,
          "internalType": "uint256",
          "name": "tokenId",
          "type": "uint256"
        },
        {
          "indexed": false,
          "internalType": "bool",
          "name": "success",
          "type": "bool"
        }
      ],
      "name": "DeListedAPlanet",
      "type": "event"
    },
    {
      "anonymous": false,
      "inputs": [],
      "name": "EIP712DomainChanged",
      "type": "event"
    },
    {
      "anonymous": false,
      "inputs": [
        {
          "indexed": true,
          "internalType": "contract IERC20Upgradeable",
          "name": "token",
          "type": "address"
        },
        {
          "indexed": false,
          "internalType": "address",
          "name": "to",
          "type": "address"
        },
        {
          "indexed": false,
          "internalType": "uint256",
          "name": "amount",
          "type": "uint256"
        }
      ],
      "name": "ERC20PaymentReleased",
      "type": "event"
    },
    {
      "anonymous": false,
      "inputs": [
        {
          "indexed": false,
          "internalType": "uint8",
          "name": "version",
          "type": "uint8"
        }
      ],
      "name": "Initialized",
      "type": "event"
    },
    {
      "anonymous": false,
      "inputs": [
        {
          "indexed": false,
          "internalType": "address",
          "name": "sentFromUser",
          "type": "address"
        },
        {
          "indexed": false,
          "internalType": "address",
          "name": "token",
          "type": "address"
        },
        {
          "indexed": false,
          "internalType": "uint256",
          "name": "tokenId",
          "type": "uint256"
        },
        {
          "indexed": false,
          "internalType": "uint256",
          "name": "price",
          "type": "uint256"
        }
      ],
      "name": "ListedAPlanet",
      "type": "event"
    },
    {
      "anonymous": false,
      "inputs": [
        {
          "indexed": false,
          "internalType": "address",
          "name": "operator",
          "type": "address"
        },
        {
          "indexed": false,
          "internalType": "address",
          "name": "from",
          "type": "address"
        },
        {
          "indexed": false,
          "internalType": "uint256",
          "name": "tokenId",
          "type": "uint256"
        },
        {
          "indexed": false,
          "internalType": "bytes",
          "name": "data",
          "type": "bytes"
        },
        {
          "indexed": false,
          "internalType": "string",
          "name": "typeOfReceival",
          "type": "string"
        }
      ],
      "name": "NftReceived",
      "type": "event"
    },
    {
      "anonymous": false,
      "inputs": [
        {
          "indexed": false,
          "internalType": "address",
          "name": "parentA",
          "type": "address"
        },
        {
          "indexed": false,
          "internalType": "address",
          "name": "parentB",
          "type": "address"
        },
        {
          "indexed": false,
          "internalType": "uint256",
          "name": "tokenIdA",
          "type": "uint256"
        },
        {
          "indexed": false,
          "internalType": "uint256",
          "name": "tokenIdB",
          "type": "uint256"
        },
        {
          "indexed": false,
          "internalType": "uint256",
          "name": "newTokenId",
          "type": "uint256"
        },
        {
          "indexed": false,
          "internalType": "bool",
          "name": "found",
          "type": "bool"
        }
      ],
      "name": "Orphaning",
      "type": "event"
    },
    {
      "anonymous": false,
      "inputs": [
        {
          "indexed": true,
          "internalType": "address",
          "name": "previousOwner",
          "type": "address"
        },
        {
          "indexed": true,
          "internalType": "address",
          "name": "newOwner",
          "type": "address"
        }
      ],
      "name": "OwnershipTransferred",
      "type": "event"
    },
    {
      "anonymous": false,
      "inputs": [
        {
          "indexed": false,
          "internalType": "address",
          "name": "account",
          "type": "address"
        }
      ],
      "name": "Paused",
      "type": "event"
    },
    {
      "anonymous": false,
      "inputs": [
        {
          "indexed": false,
          "internalType": "address",
          "name": "account",
          "type": "address"
        },
        {
          "indexed": false,
          "internalType": "uint256",
          "name": "shares",
          "type": "uint256"
        }
      ],
      "name": "PayeeAdded",
      "type": "event"
    },
    {
      "anonymous": false,
      "inputs": [
        {
          "indexed": false,
          "internalType": "address",
          "name": "from",
          "type": "address"
        },
        {
          "indexed": false,
          "internalType": "uint256",
          "name": "amount",
          "type": "uint256"
        }
      ],
      "name": "PaymentReceived",
      "type": "event"
    },
    {
      "anonymous": false,
      "inputs": [
        {
          "indexed": false,
          "internalType": "address",
          "name": "to",
          "type": "address"
        },
        {
          "indexed": false,
          "internalType": "uint256",
          "name": "amount",
          "type": "uint256"
        }
      ],
      "name": "PaymentReleased",
      "type": "event"
    },
    {
      "anonymous": false,
      "inputs": [
        {
          "indexed": false,
          "internalType": "uint256",
          "name": "planetAsking",
          "type": "uint256"
        },
        {
          "indexed": false,
          "internalType": "address",
          "name": "askingUser",
          "type": "address"
        },
        {
          "indexed": false,
          "internalType": "uint256",
          "name": "planetJoining",
          "type": "uint256"
        },
        {
          "indexed": false,
          "internalType": "address",
          "name": "joiningUser",
          "type": "address"
        }
      ],
      "name": "PlanetsConjoining",
      "type": "event"
    },
    {
      "anonymous": false,
      "inputs": [
        {
          "indexed": true,
          "internalType": "address",
          "name": "from",
          "type": "address"
        },
        {
          "indexed": true,
          "internalType": "address",
          "name": "to",
          "type": "address"
        },
        {
          "indexed": false,
          "internalType": "uint256",
          "name": "value",
          "type": "uint256"
        }
      ],
      "name": "Transfer",
      "type": "event"
    },
    {
      "anonymous": false,
      "inputs": [
        {
          "indexed": false,
          "internalType": "address",
          "name": "account",
          "type": "address"
        }
      ],
      "name": "Unpaused",
      "type": "event"
    },
    {
      "anonymous": false,
      "inputs": [
        {
          "indexed": true,
          "internalType": "address",
          "name": "implementation",
          "type": "address"
        }
      ],
      "name": "Upgraded",
      "type": "event"
    },
    {
      "stateMutability": "payable",
      "type": "fallback"
    },
    {
      "inputs": [],
      "name": "DOMAIN_SEPARATOR",
      "outputs": [
        {
          "internalType": "bytes32",
          "name": "",
          "type": "bytes32"
        }
      ],
      "stateMutability": "view",
      "type": "function"
    },
    {
      "inputs": [
        {
          "internalType": "address",
          "name": "owner",
          "type": "address"
        },
        {
          "internalType": "address",
          "name": "spender",
          "type": "address"
        }
      ],
      "name": "allowance",
      "outputs": [
        {
          "internalType": "uint256",
          "name": "",
          "type": "uint256"
        }
      ],
      "stateMutability": "view",
      "type": "function"
    },
    {
      "inputs": [
        {
          "internalType": "address",
          "name": "spender",
          "type": "address"
        },
        {
          "internalType": "uint256",
          "name": "amount",
          "type": "uint256"
        }
      ],
      "name": "approve",
      "outputs": [
        {
          "internalType": "bool",
          "name": "",
          "type": "bool"
        }
      ],
      "stateMutability": "nonpayable",
      "type": "function"
    },
    {
      "inputs": [
        {
          "internalType": "contract IERC721",
          "name": "token",
          "type": "address"
        },
        {
          "internalType": "address",
          "name": "operator",
          "type": "address"
        }
      ],
      "name": "approveAllERC721Tokens",
      "outputs": [],
      "stateMutability": "nonpayable",
      "type": "function"
    },
    {
      "inputs": [
        {
          "internalType": "contract IERC20",
          "name": "token",
          "type": "address"
        },
        {
          "internalType": "address",
          "name": "spender",
          "type": "address"
        },
        {
          "internalType": "uint256",
          "name": "amount",
          "type": "uint256"
        }
      ],
      "name": "approveERC20",
      "outputs": [],
      "stateMutability": "nonpayable",
      "type": "function"
    },
    {
      "inputs": [
        {
          "internalType": "address",
          "name": "account",
          "type": "address"
        }
      ],
      "name": "balanceOf",
      "outputs": [
        {
          "internalType": "uint256",
          "name": "",
          "type": "uint256"
        }
      ],
      "stateMutability": "view",
      "type": "function"
    },
    {
      "inputs": [],
      "name": "breedContract",
      "outputs": [
        {
          "internalType": "contract IBreedContract",
          "name": "",
          "type": "address"
        }
      ],
      "stateMutability": "view",
      "type": "function"
    },
    {
      "inputs": [
        {
          "internalType": "uint256",
          "name": "newVRF",
          "type": "uint256"
        }
      ],
      "name": "changeVRFValue",
      "outputs": [],
      "stateMutability": "nonpayable",
      "type": "function"
    },
    {
      "inputs": [
        {
          "internalType": "address",
          "name": "owner",
          "type": "address"
        },
        {
          "internalType": "address",
          "name": "operator",
          "type": "address"
        }
      ],
      "name": "checkApprovalForAll",
      "outputs": [
        {
          "internalType": "bool",
          "name": "",
          "type": "bool"
        }
      ],
      "stateMutability": "view",
      "type": "function"
    },
    {
      "inputs": [
        {
          "internalType": "uint256",
          "name": "claimableTokenId",
          "type": "uint256"
        }
      ],
      "name": "claimPlanet",
      "outputs": [],
      "stateMutability": "nonpayable",
      "type": "function"
    },
    {
      "inputs": [
        {
          "internalType": "address",
          "name": "",
          "type": "address"
        },
        {
          "internalType": "uint256",
          "name": "",
          "type": "uint256"
        }
      ],
      "name": "claimablePlanets",
      "outputs": [
        {
          "internalType": "address",
          "name": "ownerParentAddress",
          "type": "address"
        },
        {
          "internalType": "uint256",
          "name": "ownerTokenId",
          "type": "uint256"
        },
        {
          "internalType": "bool",
          "name": "delivered",
          "type": "bool"
        },
        {
          "internalType": "bool",
          "name": "arrived",
          "type": "bool"
        },
        {
          "internalType": "address",
          "name": "otherParent",
          "type": "address"
        },
        {
          "internalType": "uint256",
          "name": "otherTokenId",
          "type": "uint256"
        },
        {
          "internalType": "uint256",
          "name": "claimsTokenId",
          "type": "uint256"
        }
      ],
      "stateMutability": "view",
      "type": "function"
    },
    {
      "inputs": [
        {
          "internalType": "uint256",
          "name": "yourPlanet",
          "type": "uint256"
        },
        {
          "internalType": "uint256",
          "name": "withListedPlanet",
          "type": "uint256"
        }
      ],
      "name": "conjunct",
      "outputs": [],
      "stateMutability": "payable",
      "type": "function"
    },
    {
      "inputs": [
        {
          "internalType": "uint256",
          "name": "",
          "type": "uint256"
        }
      ],
      "name": "conjunctingTokenIdToOwnerAddr",
      "outputs": [
        {
          "internalType": "address",
          "name": "",
          "type": "address"
        }
      ],
      "stateMutability": "view",
      "type": "function"
    },
    {
      "inputs": [
        {
          "internalType": "uint256",
          "name": "idIndex",
          "type": "uint256"
        },
        {
          "internalType": "uint256",
          "name": "tokenId",
          "type": "uint256"
        }
      ],
      "name": "deList",
      "outputs": [],
      "stateMutability": "nonpayable",
      "type": "function"
    },
    {
      "inputs": [],
      "name": "deListAllYourPlanets",
      "outputs": [],
      "stateMutability": "nonpayable",
      "type": "function"
    },
    {
      "inputs": [],
      "name": "decimals",
      "outputs": [
        {
          "internalType": "uint8",
          "name": "",
          "type": "uint8"
        }
      ],
      "stateMutability": "view",
      "type": "function"
    },
    {
      "inputs": [
        {
          "internalType": "address",
          "name": "spender",
          "type": "address"
        },
        {
          "internalType": "uint256",
          "name": "subtractedValue",
          "type": "uint256"
        }
      ],
      "name": "decreaseAllowance",
      "outputs": [
        {
          "internalType": "bool",
          "name": "",
          "type": "bool"
        }
      ],
      "stateMutability": "nonpayable",
      "type": "function"
    },
    {
      "inputs": [],
      "name": "eip712Domain",
      "outputs": [
        {
          "internalType": "bytes1",
          "name": "fields",
          "type": "bytes1"
        },
        {
          "internalType": "string",
          "name": "name",
          "type": "string"
        },
        {
          "internalType": "string",
          "name": "version",
          "type": "string"
        },
        {
          "internalType": "uint256",
          "name": "chainId",
          "type": "uint256"
        },
        {
          "internalType": "address",
          "name": "verifyingContract",
          "type": "address"
        },
        {
          "internalType": "bytes32",
          "name": "salt",
          "type": "bytes32"
        },
        {
          "internalType": "uint256[]",
          "name": "extensions",
          "type": "uint256[]"
        }
      ],
      "stateMutability": "view",
      "type": "function"
    },
    {
      "inputs": [],
      "name": "getAllPlanets",
      "outputs": [
        {
          "components": [
            {
              "internalType": "uint256",
              "name": "tokenId",
              "type": "uint256"
            },
            {
              "internalType": "uint256",
              "name": "price",
              "type": "uint256"
            },
            {
              "internalType": "address",
              "name": "ownerAddress",
              "type": "address"
            },
            {
              "internalType": "bool",
              "name": "active",
              "type": "bool"
            }
          ],
          "internalType": "struct ListedPlanet[]",
          "name": "",
          "type": "tuple[]"
        }
      ],
      "stateMutability": "view",
      "type": "function"
    },
    {
      "inputs": [
        {
          "internalType": "address",
          "name": "userAddr",
          "type": "address"
        }
      ],
      "name": "getClaimablePlanetsFor",
      "outputs": [
        {
          "components": [
            {
              "internalType": "address",
              "name": "ownerParentAddress",
              "type": "address"
            },
            {
              "internalType": "uint256",
              "name": "ownerTokenId",
              "type": "uint256"
            },
            {
              "internalType": "bool",
              "name": "delivered",
              "type": "bool"
            },
            {
              "internalType": "bool",
              "name": "arrived",
              "type": "bool"
            },
            {
              "internalType": "address",
              "name": "otherParent",
              "type": "address"
            },
            {
              "internalType": "uint256",
              "name": "otherTokenId",
              "type": "uint256"
            },
            {
              "internalType": "uint256",
              "name": "claimsTokenId",
              "type": "uint256"
            }
          ],
          "internalType": "struct ClaimablePlanet[]",
          "name": "",
          "type": "tuple[]"
        }
      ],
      "stateMutability": "view",
      "type": "function"
    },
    {
      "inputs": [
        {
          "internalType": "uint256",
          "name": "claimableTokenId",
          "type": "uint256"
        }
      ],
      "name": "getConjunctingTokenIdToOwnerAddr",
      "outputs": [
        {
          "internalType": "address",
          "name": "",
          "type": "address"
        }
      ],
      "stateMutability": "view",
      "type": "function"
    },
    {
      "inputs": [
        {
          "internalType": "uint256",
          "name": "listedTokenId",
          "type": "uint256"
        }
      ],
      "name": "getListedTokenIdToOwnerAddr",
      "outputs": [
        {
          "internalType": "address",
          "name": "",
          "type": "address"
        }
      ],
      "stateMutability": "view",
      "type": "function"
    },
    {
      "inputs": [
        {
          "internalType": "uint256",
          "name": "startIndex",
          "type": "uint256"
        },
        {
          "internalType": "uint256",
          "name": "endIndex",
          "type": "uint256"
        }
      ],
      "name": "getPlanetsPaginated",
      "outputs": [
        {
          "components": [
            {
              "internalType": "uint256",
              "name": "tokenId",
              "type": "uint256"
            },
            {
              "internalType": "uint256",
              "name": "price",
              "type": "uint256"
            },
            {
              "internalType": "address",
              "name": "ownerAddress",
              "type": "address"
            },
            {
              "internalType": "bool",
              "name": "active",
              "type": "bool"
            }
          ],
          "internalType": "struct ListedPlanet[]",
          "name": "",
          "type": "tuple[]"
        }
      ],
      "stateMutability": "view",
      "type": "function"
    },
    {
      "inputs": [
        {
          "internalType": "uint256",
          "name": "tokenId",
          "type": "uint256"
        }
      ],
      "name": "getPriceFor",
      "outputs": [
        {
          "internalType": "uint256",
          "name": "",
          "type": "uint256"
        }
      ],
      "stateMutability": "view",
      "type": "function"
    },
    {
      "inputs": [
        {
          "internalType": "address",
          "name": "userAddr",
          "type": "address"
        }
      ],
      "name": "getuserToListedPlanets",
      "outputs": [
        {
          "components": [
            {
              "internalType": "uint256",
              "name": "tokenId",
              "type": "uint256"
            },
            {
              "internalType": "uint256",
              "name": "price",
              "type": "uint256"
            },
            {
              "internalType": "address",
              "name": "ownerAddress",
              "type": "address"
            },
            {
              "internalType": "bool",
              "name": "active",
              "type": "bool"
            }
          ],
          "internalType": "struct ListedPlanet[]",
          "name": "",
          "type": "tuple[]"
        }
      ],
      "stateMutability": "view",
      "type": "function"
    },
    {
      "inputs": [
        {
          "internalType": "address",
          "name": "owner",
          "type": "address"
        },
        {
          "internalType": "uint256",
          "name": "tokenId",
          "type": "uint256"
        }
      ],
      "name": "hasPlanetArrived",
      "outputs": [
        {
          "internalType": "bool",
          "name": "arrived",
          "type": "bool"
        }
      ],
      "stateMutability": "view",
      "type": "function"
    },
    {
      "inputs": [
        {
          "internalType": "address",
          "name": "owner",
          "type": "address"
        },
        {
          "internalType": "uint256",
          "name": "tokenId",
          "type": "uint256"
        }
      ],
      "name": "hasPlanetBeenDelivered",
      "outputs": [
        {
          "internalType": "bool",
          "name": "delivered",
          "type": "bool"
        }
      ],
      "stateMutability": "view",
      "type": "function"
    },
    {
      "inputs": [
        {
          "internalType": "address",
          "name": "spender",
          "type": "address"
        },
        {
          "internalType": "uint256",
          "name": "addedValue",
          "type": "uint256"
        }
      ],
      "name": "increaseAllowance",
      "outputs": [
        {
          "internalType": "bool",
          "name": "",
          "type": "bool"
        }
      ],
      "stateMutability": "nonpayable",
      "type": "function"
    },
    {
      "inputs": [
        {
          "internalType": "address",
          "name": "initialOwner",
          "type": "address"
        }
      ],
      "name": "initialize",
      "outputs": [],
      "stateMutability": "nonpayable",
      "type": "function"
    },
    {
      "inputs": [],
      "name": "listAllYourPlanets",
      "outputs": [],
      "stateMutability": "nonpayable",
      "type": "function"
    },
    {
      "inputs": [
        {
          "internalType": "uint256",
          "name": "",
          "type": "uint256"
        }
      ],
      "name": "listedTokenIdToOwnerAddr",
      "outputs": [
        {
          "internalType": "address",
          "name": "",
          "type": "address"
        }
      ],
      "stateMutability": "view",
      "type": "function"
    },
    {
      "inputs": [],
      "name": "name",
      "outputs": [
        {
          "internalType": "string",
          "name": "",
          "type": "string"
        }
      ],
      "stateMutability": "view",
      "type": "function"
    },
    {
      "inputs": [
        {
          "internalType": "address",
          "name": "owner",
          "type": "address"
        }
      ],
      "name": "nonces",
      "outputs": [
        {
          "internalType": "uint256",
          "name": "",
          "type": "uint256"
        }
      ],
      "stateMutability": "view",
      "type": "function"
    },
    {
      "inputs": [
        {
          "internalType": "address",
          "name": "operator",
          "type": "address"
        },
        {
          "internalType": "address",
          "name": "from",
          "type": "address"
        },
        {
          "internalType": "uint256",
          "name": "tokenId",
          "type": "uint256"
        },
        {
          "internalType": "bytes",
          "name": "data",
          "type": "bytes"
        }
      ],
      "name": "onERC721Received",
      "outputs": [
        {
          "internalType": "bytes4",
          "name": "",
          "type": "bytes4"
        }
      ],
      "stateMutability": "nonpayable",
      "type": "function"
    },
    {
      "inputs": [
        {
          "internalType": "uint256",
          "name": "",
          "type": "uint256"
        },
        {
          "internalType": "uint256",
          "name": "",
          "type": "uint256"
        }
      ],
      "name": "orphanClaims",
      "outputs": [
        {
          "internalType": "address",
          "name": "ownerParentAddress",
          "type": "address"
        },
        {
          "internalType": "uint256",
          "name": "ownerTokenId",
          "type": "uint256"
        },
        {
          "internalType": "bool",
          "name": "delivered",
          "type": "bool"
        },
        {
          "internalType": "bool",
          "name": "arrived",
          "type": "bool"
        },
        {
          "internalType": "address",
          "name": "otherParent",
          "type": "address"
        },
        {
          "internalType": "uint256",
          "name": "otherTokenId",
          "type": "uint256"
        },
        {
          "internalType": "uint256",
          "name": "claimsTokenId",
          "type": "uint256"
        }
      ],
      "stateMutability": "view",
      "type": "function"
    },
    {
      "inputs": [],
      "name": "owner",
      "outputs": [
        {
          "internalType": "address",
          "name": "",
          "type": "address"
        }
      ],
      "stateMutability": "view",
      "type": "function"
    },
    {
      "inputs": [
        {
          "internalType": "uint256",
          "name": "claimableTokenId",
          "type": "uint256"
        },
        {
          "internalType": "address",
          "name": "sendToAddr",
          "type": "address"
        }
      ],
      "name": "ownerClaimPlanet",
      "outputs": [],
      "stateMutability": "nonpayable",
      "type": "function"
    },
    {
      "inputs": [
        {
          "internalType": "uint256",
          "name": "tokenId",
          "type": "uint256"
        },
        {
          "internalType": "address",
          "name": "destinationAddr",
          "type": "address"
        }
      ],
      "name": "ownerOverrideSendNFT",
      "outputs": [],
      "stateMutability": "nonpayable",
      "type": "function"
    },
    {
      "inputs": [],
      "name": "pause",
      "outputs": [],
      "stateMutability": "nonpayable",
      "type": "function"
    },
    {
      "inputs": [],
      "name": "paused",
      "outputs": [
        {
          "internalType": "bool",
          "name": "",
          "type": "bool"
        }
      ],
      "stateMutability": "view",
      "type": "function"
    },
    {
      "inputs": [
        {
          "internalType": "uint256",
          "name": "index",
          "type": "uint256"
        }
      ],
      "name": "payee",
      "outputs": [
        {
          "internalType": "address",
          "name": "",
          "type": "address"
        }
      ],
      "stateMutability": "view",
      "type": "function"
    },
    {
      "inputs": [
        {
          "internalType": "address",
          "name": "owner",
          "type": "address"
        },
        {
          "internalType": "address",
          "name": "spender",
          "type": "address"
        },
        {
          "internalType": "uint256",
          "name": "value",
          "type": "uint256"
        },
        {
          "internalType": "uint256",
          "name": "deadline",
          "type": "uint256"
        },
        {
          "internalType": "uint8",
          "name": "v",
          "type": "uint8"
        },
        {
          "internalType": "bytes32",
          "name": "r",
          "type": "bytes32"
        },
        {
          "internalType": "bytes32",
          "name": "s",
          "type": "bytes32"
        }
      ],
      "name": "permit",
      "outputs": [],
      "stateMutability": "nonpayable",
      "type": "function"
    },
    {
      "inputs": [],
      "name": "proxiableUUID",
      "outputs": [
        {
          "internalType": "bytes32",
          "name": "",
          "type": "bytes32"
        }
      ],
      "stateMutability": "view",
      "type": "function"
    },
    {
      "inputs": [
        {
          "internalType": "address",
          "name": "account",
          "type": "address"
        }
      ],
      "name": "releasable",
      "outputs": [
        {
          "internalType": "uint256",
          "name": "",
          "type": "uint256"
        }
      ],
      "stateMutability": "view",
      "type": "function"
    },
    {
      "inputs": [
        {
          "internalType": "contract IERC20Upgradeable",
          "name": "token",
          "type": "address"
        },
        {
          "internalType": "address",
          "name": "account",
          "type": "address"
        }
      ],
      "name": "releasable",
      "outputs": [
        {
          "internalType": "uint256",
          "name": "",
          "type": "uint256"
        }
      ],
      "stateMutability": "view",
      "type": "function"
    },
    {
      "inputs": [
        {
          "internalType": "address payable",
          "name": "account",
          "type": "address"
        }
      ],
      "name": "release",
      "outputs": [],
      "stateMutability": "nonpayable",
      "type": "function"
    },
    {
      "inputs": [
        {
          "internalType": "contract IERC20Upgradeable",
          "name": "token",
          "type": "address"
        },
        {
          "internalType": "address",
          "name": "account",
          "type": "address"
        }
      ],
      "name": "release",
      "outputs": [],
      "stateMutability": "nonpayable",
      "type": "function"
    },
    {
      "inputs": [
        {
          "internalType": "contract IERC20Upgradeable",
          "name": "token",
          "type": "address"
        },
        {
          "internalType": "address",
          "name": "account",
          "type": "address"
        }
      ],
      "name": "released",
      "outputs": [
        {
          "internalType": "uint256",
          "name": "",
          "type": "uint256"
        }
      ],
      "stateMutability": "view",
      "type": "function"
    },
    {
      "inputs": [
        {
          "internalType": "address",
          "name": "account",
          "type": "address"
        }
      ],
      "name": "released",
      "outputs": [
        {
          "internalType": "uint256",
          "name": "",
          "type": "uint256"
        }
      ],
      "stateMutability": "view",
      "type": "function"
    },
    {
      "inputs": [],
      "name": "renounceOwnership",
      "outputs": [],
      "stateMutability": "nonpayable",
      "type": "function"
    },
    {
      "inputs": [
        {
          "internalType": "address",
          "name": "_breederContractAddr",
          "type": "address"
        },
        {
          "internalType": "uint256",
          "name": "_vrfValue",
          "type": "uint256"
        },
        {
          "internalType": "address",
          "name": "_nftContractAddr",
          "type": "address"
        },
        {
          "internalType": "address",
          "name": "_aprsContract",
          "type": "address"
        },
        {
          "internalType": "address",
          "name": "_animaContract",
          "type": "address"
        },
        {
          "internalType": "address",
          "name": "_mgrContract",
          "type": "address"
        }
      ],
      "name": "setAllOf",
      "outputs": [],
      "stateMutability": "nonpayable",
      "type": "function"
    },
    {
      "inputs": [
        {
          "internalType": "address[2]",
          "name": "parents",
          "type": "address[2]"
        },
        {
          "internalType": "uint256",
          "name": "newTokenId",
          "type": "uint256"
        },
        {
          "internalType": "uint256[2]",
          "name": "parentTokenIds",
          "type": "uint256[2]"
        }
      ],
      "name": "setArrivedOwner",
      "outputs": [],
      "stateMutability": "nonpayable",
      "type": "function"
    },
    {
      "inputs": [
        {
          "internalType": "uint256",
          "name": "_toThisPercentage",
          "type": "uint256"
        }
      ],
      "name": "setMktFee",
      "outputs": [],
      "stateMutability": "nonpayable",
      "type": "function"
    },
    {
      "inputs": [
        {
          "internalType": "address payable",
          "name": "newTAdd",
          "type": "address"
        }
      ],
      "name": "setTAdd",
      "outputs": [],
      "stateMutability": "nonpayable",
      "type": "function"
    },
    {
      "inputs": [
        {
          "internalType": "address",
          "name": "account",
          "type": "address"
        }
      ],
      "name": "shares",
      "outputs": [
        {
          "internalType": "uint256",
          "name": "",
          "type": "uint256"
        }
      ],
      "stateMutability": "view",
      "type": "function"
    },
    {
      "inputs": [],
      "name": "status",
      "outputs": [],
      "stateMutability": "nonpayable",
      "type": "function"
    },
    {
      "inputs": [],
      "name": "symbol",
      "outputs": [
        {
          "internalType": "string",
          "name": "",
          "type": "string"
        }
      ],
      "stateMutability": "view",
      "type": "function"
    },
    {
      "inputs": [
        {
          "internalType": "uint256",
          "name": "",
          "type": "uint256"
        }
      ],
      "name": "tokenIdClaimableToOwnerAddr",
      "outputs": [
        {
          "internalType": "address",
          "name": "",
          "type": "address"
        }
      ],
      "stateMutability": "view",
      "type": "function"
    },
    {
      "inputs": [
        {
          "internalType": "uint256",
          "name": "",
          "type": "uint256"
        }
      ],
      "name": "tokenIdToPrice",
      "outputs": [
        {
          "internalType": "uint256",
          "name": "",
          "type": "uint256"
        }
      ],
      "stateMutability": "view",
      "type": "function"
    },
    {
      "inputs": [
        {
          "internalType": "contract IERC20Upgradeable",
          "name": "token",
          "type": "address"
        }
      ],
      "name": "totalReleased",
      "outputs": [
        {
          "internalType": "uint256",
          "name": "",
          "type": "uint256"
        }
      ],
      "stateMutability": "view",
      "type": "function"
    },
    {
      "inputs": [],
      "name": "totalReleased",
      "outputs": [
        {
          "internalType": "uint256",
          "name": "",
          "type": "uint256"
        }
      ],
      "stateMutability": "view",
      "type": "function"
    },
    {
      "inputs": [],
      "name": "totalShares",
      "outputs": [
        {
          "internalType": "uint256",
          "name": "",
          "type": "uint256"
        }
      ],
      "stateMutability": "view",
      "type": "function"
    },
    {
      "inputs": [],
      "name": "totalSupply",
      "outputs": [
        {
          "internalType": "uint256",
          "name": "",
          "type": "uint256"
        }
      ],
      "stateMutability": "view",
      "type": "function"
    },
    {
      "inputs": [
        {
          "internalType": "address",
          "name": "to",
          "type": "address"
        },
        {
          "internalType": "uint256",
          "name": "amount",
          "type": "uint256"
        }
      ],
      "name": "transfer",
      "outputs": [
        {
          "internalType": "bool",
          "name": "",
          "type": "bool"
        }
      ],
      "stateMutability": "nonpayable",
      "type": "function"
    },
    {
      "inputs": [
        {
          "internalType": "address",
          "name": "from",
          "type": "address"
        },
        {
          "internalType": "address",
          "name": "to",
          "type": "address"
        },
        {
          "internalType": "uint256",
          "name": "amount",
          "type": "uint256"
        }
      ],
      "name": "transferFrom",
      "outputs": [
        {
          "internalType": "bool",
          "name": "",
          "type": "bool"
        }
      ],
      "stateMutability": "nonpayable",
      "type": "function"
    },
    {
      "inputs": [
        {
          "internalType": "address",
          "name": "newOwner",
          "type": "address"
        }
      ],
      "name": "transferOwnership",
      "outputs": [],
      "stateMutability": "nonpayable",
      "type": "function"
    },
    {
      "inputs": [],
      "name": "unpause",
      "outputs": [],
      "stateMutability": "nonpayable",
      "type": "function"
    },
    {
      "inputs": [
        {
          "internalType": "address",
          "name": "newImplementation",
          "type": "address"
        }
      ],
      "name": "upgradeTo",
      "outputs": [],
      "stateMutability": "nonpayable",
      "type": "function"
    },
    {
      "inputs": [
        {
          "internalType": "address",
          "name": "newImplementation",
          "type": "address"
        },
        {
          "internalType": "bytes",
          "name": "data",
          "type": "bytes"
        }
      ],
      "name": "upgradeToAndCall",
      "outputs": [],
      "stateMutability": "payable",
      "type": "function"
    },
    {
      "inputs": [
        {
          "internalType": "address",
          "name": "",
          "type": "address"
        },
        {
          "internalType": "uint256",
          "name": "",
          "type": "uint256"
        }
      ],
      "name": "userToListedPlanets",
      "outputs": [
        {
          "internalType": "uint256",
          "name": "tokenId",
          "type": "uint256"
        },
        {
          "internalType": "uint256",
          "name": "price",
          "type": "uint256"
        },
        {
          "internalType": "address",
          "name": "ownerAddress",
          "type": "address"
        },
        {
          "internalType": "bool",
          "name": "active",
          "type": "bool"
        }
      ],
      "stateMutability": "view",
      "type": "function"
    },
    {
      "inputs": [
        {
          "internalType": "address",
          "name": "userAddress",
          "type": "address"
        }
      ],
      "name": "usersClaims",
      "outputs": [
        {
          "components": [
            {
              "internalType": "address",
              "name": "ownerParentAddress",
              "type": "address"
            },
            {
              "internalType": "uint256",
              "name": "ownerTokenId",
              "type": "uint256"
            },
            {
              "internalType": "bool",
              "name": "delivered",
              "type": "bool"
            },
            {
              "internalType": "bool",
              "name": "arrived",
              "type": "bool"
            },
            {
              "internalType": "address",
              "name": "otherParent",
              "type": "address"
            },
            {
              "internalType": "uint256",
              "name": "otherTokenId",
              "type": "uint256"
            },
            {
              "internalType": "uint256",
              "name": "claimsTokenId",
              "type": "uint256"
            }
          ],
          "internalType": "struct ClaimablePlanet[]",
          "name": "",
          "type": "tuple[]"
        }
      ],
      "stateMutability": "view",
      "type": "function"
    },
    {
      "inputs": [
        {
          "internalType": "address",
          "name": "tokenAddress",
          "type": "address"
        },
        {
          "internalType": "address",
          "name": "address1",
          "type": "address"
        },
        {
          "internalType": "address",
          "name": "address2",
          "type": "address"
        },
        {
          "internalType": "uint256",
          "name": "withdrawalAmount",
          "type": "uint256"
        }
      ],
      "name": "withdrawAndSplitERC20",
      "outputs": [],
      "stateMutability": "nonpayable",
      "type": "function"
    },
    {
      "inputs": [
        {
          "internalType": "address",
          "name": "address1",
          "type": "address"
        },
        {
          "internalType": "address",
          "name": "address2",
          "type": "address"
        },
        {
          "internalType": "uint256",
          "name": "withdrawalAmount",
          "type": "uint256"
        }
      ],
      "name": "withdrawAndSplitHalfsies",
      "outputs": [],
      "stateMutability": "nonpayable",
      "type": "function"
    },
    {
      "inputs": [],
      "name": "withdrawFunds",
      "outputs": [],
      "stateMutability": "nonpayable",
      "type": "function"
    },
    {
      "stateMutability": "payable",
      "type": "receive"
    }
  ],
  "bytecode": "0x60a0604052306080526000196101d65534801561001b57600080fd5b50608051615fa16200005460003960008181611565015281816115a501528181611820015281816118600152611b150152615fa16000f3fe60806040526004361061039d5760003560e01c80638456cb59116101dd578063d28c933411610108578063ee6e3a23116100a3578063ee6e3a2314610c1d578063f2fde38b14610c3e578063f4812eb914610c5e578063f4c1494314610c8c578063f658159a14610cac578063f837894714610ce3578063fdb4087514610d03578063fde4976714610d23578063fe79222914610b7a578063fe825b2614610d4357005b8063d28c933414610a98578063d4b5b8d614610b03578063d505accf14610b3a578063d79779b214610b5a578063dbb774d814610b7a578063dd22a9c714610ba7578063dd62ed3e14610bc7578063e22aecb414610be7578063e33b7de314610c0757005b8063a457c2d711610178578063a457c2d714610961578063a8e5e4aa14610981578063a9059cbb146109a1578063c45ac050146109c1578063c4d66de8146109e1578063c7c0e6b114610a01578063cbdf1b5a14610a21578063cdb82a3714610a41578063ce7c2ac214610a6157005b80638456cb59146104c557806384b0196e1461083457806385fe72431461085c5780638b83209b146108ad5780638da5cb5b146108cd57806395d89b41146108ec5780639852595c146109015780639e02471014610921578063a3f8eace1461094157005b80633a7fb03d116102c85780635270ad6c116102635780635270ad6c146106fd57806352d1902d1461071d5780635b634b6a146107325780635c975abb146107695780636a23befb1461078157806370a0823114610796578063715018a6146107cc5780637ecebe00146107e15780638230a78414610801578063842905911461081457005b80633a7fb03d146106115780633a98ef39146106315780633f4ba83a14610647578063406072a91461065c5780634534cd9c1461067c57806348b75044146106aa5780634d950449146106ca5780634f1ef286146106ea57806350842cf31461049957005b8063229c23cc11610338578063229c23cc146104da57806323b872dd146104fa57806324600fc31461051a578063259478181461052f5780632b48a8e41461055c578063313ce567146105a05780633644e515146105bc5780633659cfe6146105d157806339509351146105f157005b806306fdde03146103a6578063095ea7b3146103d15780630f33c7c214610401578063150b7a021461042157806318160ddd1461045a57806319165587146104795780631ac9a91e146104995780631dd320ea146104a5578063200d2ed2146104c557005b366103a457005b005b3480156103b257600080fd5b506103bb610d7a565b6040516103c89190615165565b60405180910390f35b3480156103dd57600080fd5b506103f16103ec36600461518d565b610e0c565b60405190151581526020016103c8565b34801561040d57600080fd5b506103a461041c36600461524a565b610e26565b34801561042d57600080fd5b5061044161043c366004615376565b610e3e565b6040516001600160e01b031990911681526020016103c8565b34801561046657600080fd5b5060cb545b6040519081526020016103c8565b34801561048557600080fd5b506103a46104943660046153e1565b6110ea565b3480156103a457600080fd5b3480156104b157600080fd5b506103f16104c036600461518d565b6111d6565b3480156104d157600080fd5b506103a461129b565b3480156104e657600080fd5b506103a46104f53660046153fe565b6112ab565b34801561050657600080fd5b506103f16105153660046153fe565b61135f565b34801561052657600080fd5b506103a4611383565b34801561053b57600080fd5b5061054f61054a36600461543f565b6113c5565b6040516103c89190615461565b34801561056857600080fd5b506105936105773660046154d0565b60009081526101cc60205260409020546001600160a01b031690565b6040516103c891906154e9565b3480156105ac57600080fd5b50604051601281526020016103c8565b3480156105c857600080fd5b5061046b61154c565b3480156105dd57600080fd5b506103a46105ec3660046153e1565b61155b565b3480156105fd57600080fd5b506103f161060c36600461518d565b611623565b34801561061d57600080fd5b506103a461062c3660046154fd565b611645565b34801561063d57600080fd5b506101625461046b565b34801561065357600080fd5b506103a46116bb565b34801561066857600080fd5b5061046b61067736600461552d565b6116cb565b34801561068857600080fd5b5061046b6106973660046154d0565b60009081526101d5602052604090205490565b3480156106b657600080fd5b506103a46106c536600461552d565b6116f7565b3480156106d657600080fd5b506103a46106e53660046154d0565b611808565b6103a46106f836600461555b565b611816565b34801561070957600080fd5b506103a46107183660046154d0565b6118cb565b34801561072957600080fd5b5061046b611b08565b34801561073e57600080fd5b5061059361074d3660046154d0565b6101cf602052600090815260409020546001600160a01b031681565b34801561077557600080fd5b5060335460ff166103f1565b34801561078d57600080fd5b5061054f611bb6565b3480156107a257600080fd5b5061046b6107b13660046153e1565b6001600160a01b0316600090815260c9602052604090205490565b3480156107d857600080fd5b506103a4611c4c565b3480156107ed57600080fd5b5061046b6107fc3660046153e1565b611c5e565b6103a461080f36600461543f565b611c7d565b34801561082057600080fd5b506103a461082f3660046155aa565b6124d5565b34801561084057600080fd5b50610849612708565b6040516103c897969594939291906155fb565b34801561086857600080fd5b5061087c61087736600461518d565b6127a6565b6040516103c8949392919093845260208401929092526001600160a01b031660408301521515606082015260800190565b3480156108b957600080fd5b506105936108c83660046154d0565b6127fe565b3480156108d957600080fd5b50610194546001600160a01b0316610593565b3480156108f857600080fd5b506103bb61282f565b34801561090d57600080fd5b5061046b61091c3660046153e1565b61283e565b34801561092d57600080fd5b506103a461093c366004615694565b61285a565b34801561094d57600080fd5b5061046b61095c3660046153e1565b6128d6565b34801561096d57600080fd5b506103f161097c36600461518d565b612909565b34801561098d57600080fd5b506103a461099c3660046153fe565b612984565b3480156109ad57600080fd5b506103f16109bc36600461518d565b612a38565b3480156109cd57600080fd5b5061046b6109dc36600461552d565b612a46565b3480156109ed57600080fd5b506103a46109fc3660046153e1565b612ada565b348015610a0d57600080fd5b506103a4610a1c3660046154d0565b612c04565b348015610a2d57600080fd5b506103a4610a3c36600461543f565b612c1a565b348015610a4d57600080fd5b506103a4610a5c3660046153e1565b612f79565b348015610a6d57600080fd5b5061046b610a7c3660046153e1565b6001600160a01b03166000908152610164602052604090205490565b348015610aa457600080fd5b50610ab8610ab336600461543f565b612fac565b604080516001600160a01b0398891681526020810197909752941515948601949094529115156060850152909316608083015260a082019290925260c081019190915260e0016103c8565b348015610b0f57600080fd5b50610593610b1e3660046154d0565b6101d0602052600090815260409020546001600160a01b031681565b348015610b4657600080fd5b506103a4610b5536600461570d565b61301d565b348015610b6657600080fd5b5061046b610b753660046153e1565b613181565b348015610b8657600080fd5b50610b9a610b953660046153e1565b61319d565b6040516103c89190615784565b348015610bb357600080fd5b506103f1610bc236600461552d565b61326d565b348015610bd357600080fd5b5061046b610be236600461552d565b6132e5565b348015610bf357600080fd5b50610ab8610c0236600461518d565b613310565b348015610c1357600080fd5b506101635461046b565b348015610c2957600080fd5b506101c654610593906001600160a01b031681565b348015610c4a57600080fd5b506103a4610c593660046153e1565b61332d565b348015610c6a57600080fd5b5061046b610c793660046154d0565b6101d56020526000908152604090205481565b348015610c9857600080fd5b506103f1610ca736600461518d565b6133a3565b348015610cb857600080fd5b50610593610cc73660046154d0565b60009081526101d060205260409020546001600160a01b031690565b348015610cef57600080fd5b506103a4610cfe36600461552d565b613433565b348015610d0f57600080fd5b506103a4610d1e3660046154fd565b6134aa565b348015610d2f57600080fd5b5061054f610d3e3660046153e1565b6134e7565b348015610d4f57600080fd5b50610593610d5e3660046154d0565b6101cc602052600090815260409020546001600160a01b031681565b606060cc8054610d899061580b565b80601f0160208091040260200160405190810160405280929190818152602001828054610db59061580b565b8015610e025780601f10610dd757610100808354040283529160200191610e02565b820191906000526020600020905b815481529060010190602001808311610de557829003601f168201915b5050505050905090565b600033610e1a818585613588565b60019150505b92915050565b610e2e6136ac565b610e39838383613707565b505050565b6000808251118015610e5b57506101c8546001600160a01b031633145b15610eb457600082806020019051810190610e76919061583f565b9050610e83848287613c8e565b600080516020615f0583398151915286868686604051610ea69493929190615858565b60405180910390a1506110d8565b6101d4546001600160a01b03908116908616036110ac576101c85460405163dc9ce7a560e01b8152600481018590526000916001600160a01b03169063dc9ce7a590602401600060405180830381865afa158015610f16573d6000803e3d6000fd5b505050506040513d6000823e601f3d908101601f19168201604052610f3e9190810190615942565b5090506000816101200151905060006101cc600083600081518110610f6557610f65615a60565b6020026020010151815260200190815260200160002060009054906101000a90046001600160a01b0316905060006101cc600084600181518110610fab57610fab615a60565b6020026020010151815260200190815260200160002060009054906101000a90046001600160a01b0316905060006040518060400160405280846001600160a01b03166001600160a01b03168152602001836001600160a01b03166001600160a01b031681525090506000604051806040016040528087610120015160008151811061103957611039615a60565b6020026020010151815260200187610120015160018151811061105e5761105e615a60565b60200260200101518152509050600080516020615f058339815191528b8b8b8b60405161108e9493929190615a76565b60405180910390a16110a1828a83613707565b5050505050506110d8565b600080516020615f05833981519152858585856040516110cf9493929190615ad8565b60405180910390a15b50630a85bd0160e11b5b949350505050565b6001600160a01b038116600090815261016460205260409020546111295760405162461bcd60e51b815260040161112090615b3d565b60405180910390fd5b6000611134826128d6565b9050806000036111565760405162461bcd60e51b815260040161112090615b83565b8061016360008282546111699190615be4565b90915550506001600160a01b0382166000908152610165602052604090208054820190556111978282613e2c565b7fdf20fd1e76bc69d672e4814fafb2c449bba3a5369d8359adf9e05e6fde87b05682826040516111c8929190615bf7565b60405180910390a15050565b565b6001600160a01b03821660009081526101cd60205260408120815b815481101561125f578382828154811061120d5761120d615a60565b906000526020600020906005020160040154036112575781818154811061123657611236615a60565b600091825260209091206002600590920201015460ff169250610e20915050565b6001016111f1565b5060405162461bcd60e51b815260206004820152601060248201526f141b185b995d081b9bdd08199bdd5b9960821b6044820152606401611120565b6112a36136ac565b6111d4613f42565b6112b36136ac565b6112bb613f96565b478111156112db5760405162461bcd60e51b815260040161112090615c10565b60006112e8600283615c3e565b6040519091506001600160a01b0385169082156108fc029083906000818181858888f19350505050158015611321573d6000803e3d6000fd5b506040516001600160a01b0384169082156108fc029083906000818181858888f19350505050158015611358573d6000803e3d6000fd5b5050505050565b60003361136d858285613fdc565b611378858585614056565b506001949350505050565b61138b6136ac565b611393613f96565b604051339081904780156108fc02916000818181858888f193505050501580156113c1573d6000803e3d6000fd5b5050565b60608282116114065760405162461bcd60e51b815260206004820152600d60248201526c092dcecc2d8d2c840d2dcc8caf609b1b6044820152606401611120565b6101cb548211156114295760405162461bcd60e51b815260040161112090615c60565b60006114358484615c8d565b6001600160401b0381111561144c5761144c6151b9565b60405190808252806020026020018201604052801561149e57816020015b60408051608081018252600080825260208083018290529282018190526060820152825260001990920191018161146a5790505b509050835b83811015611544576101cb81815481106114bf576114bf615a60565b600091825260209182902060408051608081018252600393909302909101805483526001810154938301939093526002909201546001600160a01b03811692820192909252600160a01b90910460ff1615156060820152826115218784615c8d565b8151811061153157611531615a60565b60209081029190910101526001016114a3565b509392505050565b6000611556614201565b905090565b6001600160a01b037f00000000000000000000000000000000000000000000000000000000000000001630036115a35760405162461bcd60e51b815260040161112090615ca0565b7f00000000000000000000000000000000000000000000000000000000000000006001600160a01b03166115d561420b565b6001600160a01b0316146115fb5760405162461bcd60e51b815260040161112090615cec565b61160481614227565b604080516000808252602082019092526116209183919061422f565b50565b600033610e1a81858561163683836132e5565b6116409190615be4565b613588565b61164d6136ac565b611655613f96565b6000611661838361439a565b905061166c8361440f565b6101c8546040517f3e47efa91d5d329f50f04f0b9784b40b63d441ca130a5ddca1865d16e4d612a3916116ae9185916001600160a01b03169087908690615d38565b60405180910390a1505050565b6116c36136ac565b6111d46144af565b6001600160a01b0391821660009081526101686020908152604080832093909416825291909152205490565b6001600160a01b0381166000908152610164602052604090205461172d5760405162461bcd60e51b815260040161112090615b3d565b60006117398383612a46565b90508060000361175b5760405162461bcd60e51b815260040161112090615b83565b6001600160a01b0383166000908152610167602052604081208054839290611784908490615be4565b90915550506001600160a01b038084166000908152610168602090815260408083209386168352929052208054820190556117c08383836144e8565b826001600160a01b03167f3be5b7a71e84ed12875d241991c70855ac5817d847039e17a9d895c1ceb0f18a83836040516117fb929190615bf7565b60405180910390a2505050565b6118106136ac565b6101ce55565b6001600160a01b037f000000000000000000000000000000000000000000000000000000000000000016300361185e5760405162461bcd60e51b815260040161112090615ca0565b7f00000000000000000000000000000000000000000000000000000000000000006001600160a01b031661189061420b565b6001600160a01b0316146118b65760405162461bcd60e51b815260040161112090615cec565b6118bf82614227565b6113c18282600161422f565b6118d3613f96565b60008181526101cf602052604090205433906001600160a01b0316806119585760405162461bcd60e51b815260206004820152603460248201527f6164647265737320686173206e6f74206265656e207365742e2020436c61696d604482015273206e6f6e6578697374656e6365206c696b656c7960601b6064820152608401611120565b6000196001600160a01b038216016119ae5760405162461bcd60e51b8152602060048201526019602482015278383630b732ba103430b9903132b2b71037b9383430b732b21760391b6044820152606401611120565b816001600160a01b0316816001600160a01b031614611a3c576119d08161453e565b6119d98261453e565b60405162461bcd60e51b815260206004820152603260248201527f636c61696d206d7573742062652066726f6d20636c61696d616e7473206164646044820152713932b9b99696903234b9b0b63637bbb2b21760711b6064820152608401611120565b6000611a48848461439a565b905080611aaf5760405162461bcd60e51b815260206004820152602f60248201527f4661696c656420746f2073656e64204e46542e20436865636b20436c61696d6160448201526e1b9d08151bdad95b9259081cd95b9d608a1b6064820152608401611120565b611ab88461440f565b6101c8546040517f3e47efa91d5d329f50f04f0b9784b40b63d441ca130a5ddca1865d16e4d612a391611afa9186916001600160a01b03169088908690615d38565b60405180910390a150505050565b6000306001600160a01b037f00000000000000000000000000000000000000000000000000000000000000001614611ba35760405162461bcd60e51b815260206004820152603860248201527f555550535570677261646561626c653a206d757374206e6f742062652063616c6044820152771b1959081d1a1c9bdd59da0819195b1959d85d1958d85b1b60421b6064820152608401611120565b50600080516020615f2583398151915290565b60606101cb805480602002602001604051908101604052809291908181526020016000905b82821015611c43576000848152602090819020604080516080810182526003860290920180548352600180820154848601526002909101546001600160a01b03811692840192909252600160a01b90910460ff16151560608301529083529092019101611bdb565b50505050905090565b611c546136ac565b6111d46000614581565b6001600160a01b038116600090815261012f6020526040812054610e20565b611c85613f96565b808203611ce05760405162461bcd60e51b815260206004820152602360248201527f4173657875616c20726570726f64756374696f6e206973206e6f7420616c6c6f6044820152621dd95960ea1b6064820152608401611120565b6000611ceb826145d4565b6101c8546040516331a9108f60e11b8152600481018690529192506000916001600160a01b0390911690636352211e90602401602060405180830381865afa158015611d3b573d6000803e3d6000fd5b505050506040513d601f19601f82011682018060405250810190611d5f9190615d61565b90506001600160a01b0381163014611de95760405162461bcd60e51b815260206004820152604160248201527f596f75206e65656420746f206c6973742f6465706f7369742074686520706c6160448201527f6e657420796f752061726520747279696e6720746f20627265656420776974686064820152601760f91b608482015260a401611120565b60008060005b6101cb54811015611e9657866101cb8281548110611e0f57611e0f615a60565b90600052602060002090600302016000015403611e8e576101cb8181548110611e3a57611e3a615a60565b906000526020600020906003020160020160009054906101000a90046001600160a01b031692506101cb8181548110611e7557611e75615a60565b9060005260206000209060030201600001549150611e96565b600101611def565b506001600160a01b0382163314611f0a5760405162461bcd60e51b815260206004820152603260248201527f596f7520646f206e6f74206f776e2074686520706c616e657420796f7520617260448201527132903a393cb4b733903a3790313932b2b21760711b6064820152608401611120565b600060646101ce5486611f1d9190615d7e565b611f279190615c3e565b905080856101c954611f399190615be4565b611f439190615be4565b341015611f6882876101c954611f599190615be4565b611f639190615be4565b614675565b611f7134614675565b604051602001611f82929190615d95565b60405160208183030381529060405290611faf5760405162461bcd60e51b81526004016111209190615165565b5033600080805b6101cb5481101561205d57896101cb8281548110611fd657611fd6615a60565b90600052602060002090600302016000015403612055576101cb818154811061200157612001615a60565b906000526020600020906003020160020160009054906101000a90046001600160a01b031692506101cb818154811061203c5761203c615a60565b906000526020600020906003020160000154915061205d565b600101611fb6565b506706f05b59d3b200004710156120d45760405162461bcd60e51b815260206004820152603560248201527f436f6e74726163742068617320496e73756666696369656e742062616c616e63604482015274652c20636f6e74616374206861746368657220687160581b6064820152608401611120565b6040516000906001600160a01b038416908a156108fc02908b9084818181858888f193505050509050806121415760405162461bcd60e51b81526020600482015260146024820152732330b4b632b2103a379039b2b7321022ba3432b960611b6044820152606401611120565b6101c6546101c954604051634e9e6a0760e01b8152600481018e9052602481018d9052600060448201526001600160a01b0390921691634e9e6a07919060640160206040518083038185885af115801561219f573d6000803e3d6000fd5b50505050506040513d601f19601f820116820180604052508101906121c4919061583f565b5060006040518060e00160405280866001600160a01b031681526020018d8152602001600015158152602001600015158152602001856001600160a01b03168152602001848152602001600081525090506101cd6000866001600160a01b03166001600160a01b0316815260200190815260200160002081908060018154018082558091505060019003906000526020600020906005020160009091909190915060008201518160000160006101000a8154816001600160a01b0302191690836001600160a01b031602179055506020820151816001015560408201518160020160006101000a81548160ff02191690831515021790555060608201518160020160016101000a81548160ff02191690831515021790555060808201518160020160026101000a8154816001600160a01b0302191690836001600160a01b0316021790555060a0820151816003015560c082015181600401555050846101cc60008e815260200190815260200160002060006101000a8154816001600160a01b0302191690836001600160a01b03160217905550836101cc600085815260200190815260200160002060006101000a8154816001600160a01b0302191690836001600160a01b03160217905550858a6101c9546123a19190615be4565b6123ab9190615be4565b341115612477576000336001600160a01b0316878c6101c954346123cf9190615c8d565b6123d99190615c8d565b6123e39190615c8d565b604051600081818185875af1925050503d806000811461241f576040519150601f19603f3d011682016040523d82523d6000602084013e612424565b606091505b50509050806124755760405162461bcd60e51b815260206004820152601d60248201527f4661696c656420746f20726566756e64206578636573732045746865720000006044820152606401611120565b505b604080518d81526001600160a01b0387811660208301528183018e90528616606082015290517f8557df6951fbdd47fe9027516fc896be40f285ed55a6acac460352adbab730cd9181900360800190a1505050505050505050505050565b6124dd6136ac565b6124e5613f96565b6040516370a0823160e01b815284906000906001600160a01b038316906370a08231906125169030906004016154e9565b602060405180830381865afa158015612533573d6000803e3d6000fd5b505050506040513d601f19601f82011682018060405250810190612557919061583f565b9050808311156125795760405162461bcd60e51b815260040161112090615c10565b6000612586600285615c3e565b60405163a9059cbb60e01b81529091506001600160a01b0384169063a9059cbb906125b79089908590600401615bf7565b6020604051808303816000875af11580156125d6573d6000803e3d6000fd5b505050506040513d601f19601f820116820180604052508101906125fa9190615e32565b6126445760405162461bcd60e51b815260206004820152601b60248201527a151c985b9cd9995c881d1bc81859191c995cdccc4819985a5b1959602a1b6044820152606401611120565b60405163a9059cbb60e01b81526001600160a01b0384169063a9059cbb906126729088908590600401615bf7565b6020604051808303816000875af1158015612691573d6000803e3d6000fd5b505050506040513d601f19601f820116820180604052508101906126b59190615e32565b6126ff5760405162461bcd60e51b815260206004820152601b60248201527a151c985b9cd9995c881d1bc81859191c995cdccc8819985a5b1959602a1b6044820152606401611120565b50505050505050565b60006060806000806000606060fb546000801b148015612728575060fc54155b61276c5760405162461bcd60e51b81526020600482015260156024820152741152540dcc4c8e88155b9a5b9a5d1a585b1a5e9959605a1b6044820152606401611120565b612774614707565b61277c614716565b60408051600080825260208201909252600f60f81b9b939a50919850469750309650945092509050565b6101ca60205281600052604060002081815481106127c357600080fd5b60009182526020909120600390910201805460018201546002909201549093509091506001600160a01b03811690600160a01b900460ff1684565b6000610166828154811061281457612814615a60565b6000918252602090912001546001600160a01b031692915050565b606060cd8054610d899061580b565b6001600160a01b03166000908152610165602052604090205490565b6128626136ac565b61286a613f96565b6101c9949094556101c680546001600160a01b039687166001600160a01b0319918216179091556101c88054948716948216949094179093556101d18054928616928416929092179091556101d280549185169183169190911790556101d48054929093169116179055565b6000806128e36101635490565b6128ed9047615be4565b905061290283826128fd8661283e565b614725565b9392505050565b6000338161291782866132e5565b9050838110156129775760405162461bcd60e51b815260206004820152602560248201527f45524332303a2064656372656173656420616c6c6f77616e63652062656c6f77604482015264207a65726f60d81b6064820152608401611120565b6113788286868403613588565b60405163095ea7b360e01b81526001600160a01b0384169063095ea7b3906129b29085908590600401615bf7565b6020604051808303816000875af11580156129d1573d6000803e3d6000fd5b505050506040513d601f19601f820116820180604052508101906129f59190615e32565b610e395760405162461bcd60e51b8152602060048201526014602482015273115490cc8c08185c1c1c9bdd994819985a5b195960621b6044820152606401611120565b600033610e1a818585614056565b600080612a5284613181565b6040516370a0823160e01b81526001600160a01b038616906370a0823190612a7e9030906004016154e9565b602060405180830381865afa158015612a9b573d6000803e3d6000fd5b505050506040513d601f19601f82011682018060405250810190612abf919061583f565b612ac99190615be4565b90506110e283826128fd87876116cb565b600054610100900460ff1615808015612afa5750600054600160ff909116105b80612b1b5750612b0930614765565b158015612b1b575060005460ff166001145b612b7e5760405162461bcd60e51b815260206004820152602e60248201527f496e697469616c697a61626c653a20636f6e747261637420697320616c72656160448201526d191e481a5b9a5d1a585b1a5e995960921b6064820152608401611120565b6000805460ff191660011790558015612ba1576000805461ff0019166101001790555b612ba9614774565b612bb16147a3565b612bb96147d2565b612bc28261332d565b80156113c1576000805461ff0019169055604051600181527f7f26b83ff96e1f2b6a682f133852f6798a09c465da95921460cefb3847402498906020016111c8565b612c0c6136ac565b612c14613f96565b6101c955565b612c22613f96565b6101cb548210612c445760405162461bcd60e51b815260040161112090615c60565b600033905060006101cb8481548110612c5f57612c5f615a60565b6000918252602091829020604080516080810182526003909302909101805483526001810154938301939093526002909201546001600160a01b03811692820183905260ff600160a01b909104161515606082015291503314612cc157600080fd5b60408051608081018252825181526101d6546020820152828201516001600160a01b031691810191909152600060608201526101cb805486908110612d0857612d08615a60565b600091825260208083208451600390930201918255838101516001830155604080850151600290930180546060909601511515600160a01b026001600160a81b03199096166001600160a01b0390941693909317949094179091556101d6548683526101d590915291812091909155612d81848461439a565b905080612dda5760405162461bcd60e51b815260206004820152602160248201527f64654c697374696e67204661696c65642073656e64204e46542070726f6365736044820152607360f81b6064820152608401611120565b3360009081526101ca602052604090208054612df890600190615c8d565b81548110612e0857612e08615a60565b90600052602060002090600302016101ca6000336001600160a01b03166001600160a01b031681526020019081526020016000208681548110612e4d57612e4d615a60565b60009182526020808320845460039093020191825560018085015490830155600293840180549490920180546001600160a01b031981166001600160a01b039096169586178255925460ff600160a01b91829004161515026001600160a81b0319909316909417919091179092553381526101ca90915260409020805480612ed757612ed7615e4d565b600082815260208082206003600019909401938402018281556001810183905560020180546001600160a81b0319169055919092558582526101d090526040902080546001600160a01b03191690556101c85482516040517fc6d479c3ed7081a22666733326104ccbbbaccec81902d39e12430505ee2993bd92612f6a9287926001600160a01b03909216918690615d38565b60405180910390a15050505050565b612f816136ac565b612f89613f96565b6101c780546001600160a01b0319166001600160a01b0392909216919091179055565b6101d36020528160005260406000208181548110612fc957600080fd5b6000918252602090912060059091020180546001820154600283015460038401546004909401546001600160a01b03938416965091945060ff80821694610100830490911693620100009092049091169187565b8342111561306d5760405162461bcd60e51b815260206004820152601d60248201527f45524332305065726d69743a206578706972656420646561646c696e650000006044820152606401611120565b60007f6e71edae12b1b97f4d1f60370fef10105fa2faae0126114a169c64845d6126c988888861309c8c6147f9565b6040805160208101969096526001600160a01b0394851690860152929091166060840152608083015260a082015260c0810186905260e00160405160208183030381529060405280519060200120905060006130f782614820565b905060006131078287878761484d565b9050896001600160a01b0316816001600160a01b03161461316a5760405162461bcd60e51b815260206004820152601e60248201527f45524332305065726d69743a20696e76616c6964207369676e617475726500006044820152606401611120565b6131758a8a8a613588565b50505050505050505050565b6001600160a01b03166000908152610167602052604090205490565b6001600160a01b03811660009081526101cd60209081526040808320805482518185028101850190935280835260609492939192909184015b828210156132625760008481526020908190206040805160e0810182526005860290920180546001600160a01b03908116845260018083015485870152600283015460ff80821615159587019590955261010081049094161515606086015262010000909304166080840152600381015460a08401526004015460c083015290835290920191016131d6565b505050509050919050565b6101c85460405163e985e9c560e01b81526001600160a01b0384811660048301528381166024830152600092169063e985e9c590604401602060405180830381865afa1580156132c1573d6000803e3d6000fd5b505050506040513d601f19601f820116820180604052508101906129029190615e32565b6001600160a01b03918216600090815260ca6020908152604080832093909416825291909152205490565b6101cd6020528160005260406000208181548110612fc957600080fd5b6133356136ac565b6001600160a01b03811661339a5760405162461bcd60e51b815260206004820152602660248201527f4f776e61626c653a206e6577206f776e657220697320746865207a65726f206160448201526564647265737360d01b6064820152608401611120565b61162081614581565b6001600160a01b03821660009081526101cd60205260408120815b815481101561125f57838282815481106133da576133da615a60565b9060005260206000209060050201600401540361342b5781818154811061340357613403615a60565b906000526020600020906005020160020160019054906101000a900460ff1692505050610e20565b6001016133be565b61343b6136ac565b613443613f96565b60405163a22cb46560e01b81526001600160a01b0382811660048301526001602483015283169063a22cb465906044015b600060405180830381600087803b15801561348e57600080fd5b505af11580156134a2573d6000803e3d6000fd5b505050505050565b6134b26136ac565b6101c8546040516323b872dd60e01b81526001600160a01b03909116906323b872dd9061347490309085908790600401615e63565b6001600160a01b03811660009081526101ca60209081526040808320805482518185028101850190935280835260609492939192909184015b82821015613262576000848152602090819020604080516080810182526003860290920180548352600180820154848601526002909101546001600160a01b03811692840192909252600160a01b90910460ff16151560608301529083529092019101613520565b6001600160a01b0383166135ea5760405162461bcd60e51b8152602060048201526024808201527f45524332303a20617070726f76652066726f6d20746865207a65726f206164646044820152637265737360e01b6064820152608401611120565b6001600160a01b03821661364b5760405162461bcd60e51b815260206004820152602260248201527f45524332303a20617070726f766520746f20746865207a65726f206164647265604482015261737360f01b6064820152608401611120565b6001600160a01b03838116600081815260ca602090815260408083209487168084529482529182902085905590518481527f8c5be1e5ebec7d5bd14f71427d1e84f3dd0314c0f7b2291e5b200ac8c7c3b925910160405180910390a3505050565b610194546001600160a01b031633146111d45760405162461bcd60e51b815260206004820181905260248201527f4f776e61626c653a2063616c6c6572206973206e6f7420746865206f776e65726044820152606401611120565b82516020808501518351918401519091906000805b6001600160a01b03861660009081526101cd6020526040902054811015613997576001600160a01b0386811660009081526101cd602052604090208054918716918390811061376d5761376d615a60565b60009182526020909120600590910201600201546201000090046001600160a01b031614801561382257506001600160a01b03861660009081526101cd602052604090208054859190839081106137c6576137c6615a60565b90600052602060002090600502016001015414801561382257506001600160a01b03861660009081526101cd6020526040902080548491908390811061380e5761380e615a60565b906000526020600020906005020160030154145b806138b257506001600160a01b03861660009081526101cd6020526040902080548491908390811061385657613856615a60565b9060005260206000209060050201600101541480156138b257506001600160a01b03861660009081526101cd6020526040902080548591908390811061389e5761389e615a60565b906000526020600020906005020160030154145b1561398f576001600160a01b03861660009081526101cd60205260409020805460019190839081106138e6576138e6615a60565b906000526020600020906005020160020160016101000a81548160ff021916908315150217905550876101cd6000886001600160a01b03166001600160a01b03168152602001908152602001600020828154811061394657613946615a60565b60009182526020808320600592909202909101600401929092558981526101cf9091526040902080546001600160a01b0319166001600160a01b03881617905560019150613997565b60010161371c565b5080613c1d5760005b6001600160a01b03851660009081526101cd6020526040902054811015613c1b576001600160a01b0385811660009081526101cd60205260409020805491881691839081106139f1576139f1615a60565b60009182526020909120600590910201600201546201000090046001600160a01b0316148015613aa657506001600160a01b03851660009081526101cd60205260409020805484919083908110613a4a57613a4a615a60565b906000526020600020906005020160010154148015613aa657506001600160a01b03851660009081526101cd60205260409020805485919083908110613a9257613a92615a60565b906000526020600020906005020160030154145b80613b3657506001600160a01b03851660009081526101cd60205260409020805485919083908110613ada57613ada615a60565b906000526020600020906005020160010154148015613b3657506001600160a01b03851660009081526101cd60205260409020805484919083908110613b2257613b22615a60565b906000526020600020906005020160030154145b15613c13576001600160a01b03851660009081526101cd6020526040902080546001919083908110613b6a57613b6a615a60565b906000526020600020906005020160020160016101000a81548160ff021916908315150217905550876101cd6000876001600160a01b03166001600160a01b031681526020019081526020016000208281548110613bca57613bca615a60565b60009182526020808320600592909202909101600401929092558981526101cf9091526040902080546001600160a01b0319166001600160a01b03871617905560019150613c1b565b6001016139a0565b505b80613c8457604080516001600160a01b03808816825286166020820152908101849052606081018390526080810188905281151560a08201527f4250173a81ef84e08a25e027b766e822138dcdecfc85993357ca2605ee258b589060c00160405180910390a15b5050505050505050565b604080516080808201835285825260208083018681526001600160a01b03868116858701818152600160608089018281526101cb8054808501825560009182528b517fe8bbfecd380c4167d6a1f763a233ec73e73f534b1970c4e1683f437ec23c1f4460039283029081019190915589517fe8bbfecd380c4167d6a1f763a233ec73e73f534b1970c4e1683f437ec23c1f4582015586517fe8bbfecd380c4167d6a1f763a233ec73e73f534b1970c4e1683f437ec23c1f4690910180548551928b166001600160a81b031991821617600160a01b9315158402179091558884526101ca8c528e8420805480890182559085528c85208f519190940290930192835599519582019590955594516002909501805492519588169290981691909117931515909202929092179094558a84526101d0855287842080546001600160a01b0319169092179091556101d58452918690208890556101c854865133815291169281019290925293810187905292830185905290917fb30319a217488a3ed441c348e935a48d16091e33109bab0c79a353b9797528839101611afa565b80471015613e7c5760405162461bcd60e51b815260206004820152601d60248201527f416464726573733a20696e73756666696369656e742062616c616e63650000006044820152606401611120565b6000826001600160a01b03168260405160006040518083038185875af1925050503d8060008114613ec9576040519150601f19603f3d011682016040523d82523d6000602084013e613ece565b606091505b5050905080610e395760405162461bcd60e51b815260206004820152603a60248201527f416464726573733a20756e61626c6520746f2073656e642076616c75652c20726044820152791958da5c1a595b9d081b585e481a185d99481c995d995c9d195960321b6064820152608401611120565b613f4a613f96565b6033805460ff191660011790557f62e78cea01bee320cd4e420270b5ea74000d11b0c9f74754ebdbfc544b05a258613f7f3390565b604051613f8c91906154e9565b60405180910390a1565b60335460ff16156111d45760405162461bcd60e51b815260206004820152601060248201526f14185d5cd8589b194e881c185d5cd95960821b6044820152606401611120565b6000613fe884846132e5565b9050600019811461405057818110156140435760405162461bcd60e51b815260206004820152601d60248201527f45524332303a20696e73756666696369656e7420616c6c6f77616e63650000006044820152606401611120565b6140508484848403613588565b50505050565b6001600160a01b0383166140ba5760405162461bcd60e51b815260206004820152602560248201527f45524332303a207472616e736665722066726f6d20746865207a65726f206164604482015264647265737360d81b6064820152608401611120565b6001600160a01b03821661411c5760405162461bcd60e51b815260206004820152602360248201527f45524332303a207472616e7366657220746f20746865207a65726f206164647260448201526265737360e81b6064820152608401611120565b6001600160a01b038316600090815260c96020526040902054818110156141945760405162461bcd60e51b815260206004820152602660248201527f45524332303a207472616e7366657220616d6f756e7420657863656564732062604482015265616c616e636560d01b6064820152608401611120565b6001600160a01b03808516600081815260c9602052604080822086860390559286168082529083902080548601905591517fddf252ad1be2c89b69c2b068fc378daa952ba7f163c4a11628f55a4df523b3ef906141f49086815260200190565b60405180910390a3614050565b6000611556614875565b600080516020615f25833981519152546001600160a01b031690565b6116206136ac565b7f4910fdfa16fed3260ed0e7147f7cc6da11a60208b5b9406d12a635614ffd91435460ff161561426257610e39836148e9565b826001600160a01b03166352d1902d6040518163ffffffff1660e01b8152600401602060405180830381865afa9250505080156142bc575060408051601f3d908101601f191682019092526142b99181019061583f565b60015b61431f5760405162461bcd60e51b815260206004820152602e60248201527f45524331393637557067726164653a206e657720696d706c656d656e7461746960448201526d6f6e206973206e6f74205555505360901b6064820152608401611120565b600080516020615f25833981519152811461438e5760405162461bcd60e51b815260206004820152602960248201527f45524331393637557067726164653a20756e737570706f727465642070726f786044820152681a58589b195555525160ba1b6064820152608401611120565b50610e39838383614983565b6101c854604051632142170760e11b81526000916001600160a01b0316906342842e0e906143d090309086908890600401615e63565b600060405180830381600087803b1580156143ea57600080fd5b505af19250505080156143fb575060015b61440757506000610e20565b506001610e20565b60008181526101cf60209081526040808320546001600160a01b03168084526101cd909252822090915b8154811015614050578382828154811061445557614455615a60565b906000526020600020906005020160040154036144a757600182828154811061448057614480615a60565b60009182526020909120600590910201600201805460ff1916911515919091179055614050565b600101614439565b6144b76149a8565b6033805460ff191690557f5db9ee0a495bf2e6ff9c91a7834c1ba4fdd244a5e8aa4e537bd38aeae4b073aa33613f7f565b610e398363a9059cbb60e01b8484604051602401614507929190615bf7565b60408051601f198184030181529190526020810180516001600160e01b03166001600160e01b0319909316929092179091526149f1565b6116208160405160240161455291906154e9565b60408051601f198184030181529190526020810180516001600160e01b031663161765e160e11b179052614ac6565b61019480546001600160a01b038381166001600160a01b0319831681179093556040519116919082907f8be0079c531659141344cd1fd0a4f28419497f9722a3daafe3b4186f6b6457e090600090a35050565b60006145de613f96565b60005b6101cb5481101561466e57826101cb828154811061460157614601615a60565b90600052602060002090600302016000015403614646576101cb818154811061462c5761462c615a60565b906000526020600020906003020160010154915050919050565b6101cb5461465690600190615c8d565b8103614666575060001992915050565b6001016145e1565b505b919050565b6060600061468283614acf565b60010190506000816001600160401b038111156146a1576146a16151b9565b6040519080825280601f01601f1916602001820160405280156146cb576020820181803683370190505b5090508181016020015b600019016f181899199a1a9b1b9c1cb0b131b232b360811b600a86061a8153600a85049450846146d557509392505050565b606060fd8054610d899061580b565b606060fe8054610d899061580b565b610162546001600160a01b03841660009081526101646020526040812054909183916147519086615d7e565b61475b9190615c3e565b6110e29190615c8d565b6001600160a01b03163b151590565b600054610100900460ff1661479b5760405162461bcd60e51b815260040161112090615e87565b6111d4614ba5565b600054610100900460ff166147ca5760405162461bcd60e51b815260040161112090615e87565b6111d4614bd5565b600054610100900460ff166111d45760405162461bcd60e51b815260040161112090615e87565b6001600160a01b038116600090815261012f6020526040902080546001810182559061466e565b6000610e2061482d614201565b8360405161190160f01b8152600281019290925260228201526042902090565b600080600061485e87878787614c08565b9150915061486b81614cc2565b5095945050505050565b60007f8b73c3c69bb8fe3d512ecc4cf759cc79239f7b179b0ffacaa9a75d522b39400f6148a0614e07565b6148a8614e60565b60408051602081019490945283019190915260608201524660808201523060a082015260c00160405160208183030381529060405280519060200120905090565b6148f281614765565b6149545760405162461bcd60e51b815260206004820152602d60248201527f455243313936373a206e657720696d706c656d656e746174696f6e206973206e60448201526c1bdd08184818dbdb9d1c9858dd609a1b6064820152608401611120565b600080516020615f2583398151915280546001600160a01b0319166001600160a01b0392909216919091179055565b61498c83614e91565b6000825111806149995750805b15610e39576140508383614ed1565b60335460ff166111d45760405162461bcd60e51b815260206004820152601460248201527314185d5cd8589b194e881b9bdd081c185d5cd95960621b6044820152606401611120565b6000614a46826040518060400160405280602081526020017f5361666545524332303a206c6f772d6c6576656c2063616c6c206661696c6564815250856001600160a01b0316614ef69092919063ffffffff16565b9050805160001480614a67575080806020019051810190614a679190615e32565b610e395760405162461bcd60e51b815260206004820152602a60248201527f5361666545524332303a204552433230206f7065726174696f6e20646964206e6044820152691bdd081cdd58d8d9595960b21b6064820152608401611120565b61162081614f05565b60008072184f03e93ff9f4daa797ed6e38ed64bf6a1f0160401b8310614b0e5772184f03e93ff9f4daa797ed6e38ed64bf6a1f0160401b830492506040015b6904ee2d6d415b85acef8160201b8310614b38576904ee2d6d415b85acef8160201b830492506020015b662386f26fc100008310614b5657662386f26fc10000830492506010015b6305f5e1008310614b6e576305f5e100830492506008015b6127108310614b8257612710830492506004015b60648310614b94576064830492506002015b600a8310610e205760010192915050565b600054610100900460ff16614bcc5760405162461bcd60e51b815260040161112090615e87565b6111d433614581565b600054610100900460ff16614bfc5760405162461bcd60e51b815260040161112090615e87565b6033805460ff19169055565b6000806fa2a8918ca85bafe22016d0b997e4df60600160ff1b03831115614c355750600090506003614cb9565b6040805160008082526020820180845289905260ff881692820192909252606081018690526080810185905260019060a0016020604051602081039080840390855afa158015614c89573d6000803e3d6000fd5b5050604051601f1901519150506001600160a01b038116614cb257600060019250925050614cb9565b9150600090505b94509492505050565b6000816004811115614cd657614cd6615ed2565b03614cde5750565b6001816004811115614cf257614cf2615ed2565b03614d3a5760405162461bcd60e51b815260206004820152601860248201527745434453413a20696e76616c6964207369676e617475726560401b6044820152606401611120565b6002816004811115614d4e57614d4e615ed2565b03614d9b5760405162461bcd60e51b815260206004820152601f60248201527f45434453413a20696e76616c6964207369676e6174757265206c656e677468006044820152606401611120565b6003816004811115614daf57614daf615ed2565b036116205760405162461bcd60e51b815260206004820152602260248201527f45434453413a20696e76616c6964207369676e6174757265202773272076616c604482015261756560f01b6064820152608401611120565b600080614e12614707565b805190915015614e29578051602090910120919050565b60fb548015614e385792915050565b7fc5d2460186f7233c927e7db2dcc703c0e500b653ca82273b7bfad8045d85a4709250505090565b600080614e6b614716565b805190915015614e82578051602090910120919050565b60fc548015614e385792915050565b614e9a816148e9565b6040516001600160a01b038216907fbc7cd75a20ee27fd9adebab32041f755214dbc6bffa90cc0225b39da2e5c2d3b90600090a250565b60606129028383604051806060016040528060278152602001615f4560279139614f26565b60606110e28484600085614f9e565b60006a636f6e736f6c652e6c6f679050600080835160208501845afa505050565b6060600080856001600160a01b031685604051614f439190615ee8565b600060405180830381855af49150503d8060008114614f7e576040519150601f19603f3d011682016040523d82523d6000602084013e614f83565b606091505b5091509150614f9486838387615079565b9695505050505050565b606082471015614fff5760405162461bcd60e51b815260206004820152602660248201527f416464726573733a20696e73756666696369656e742062616c616e636520666f6044820152651c8818d85b1b60d21b6064820152608401611120565b600080866001600160a01b0316858760405161501b9190615ee8565b60006040518083038185875af1925050503d8060008114615058576040519150601f19603f3d011682016040523d82523d6000602084013e61505d565b606091505b509150915061506e87838387615079565b979650505050505050565b606083156150e65782516000036150df5761509385614765565b6150df5760405162461bcd60e51b815260206004820152601d60248201527f416464726573733a2063616c6c20746f206e6f6e2d636f6e74726163740000006044820152606401611120565b50816110e2565b6110e283838151156150fb5781518083602001fd5b8060405162461bcd60e51b81526004016111209190615165565b60005b83811015615130578181015183820152602001615118565b50506000910152565b60008151808452615151816020860160208601615115565b601f01601f19169290920160200192915050565b6020815260006129026020830184615139565b6001600160a01b038116811461162057600080fd5b600080604083850312156151a057600080fd5b82356151ab81615178565b946020939093013593505050565b634e487b7160e01b600052604160045260246000fd5b60405161016081016001600160401b03811182821017156151f2576151f26151b9565b60405290565b604080519081016001600160401b03811182821017156151f2576151f26151b9565b604051601f8201601f191681016001600160401b0381118282101715615242576152426151b9565b604052919050565b600080600060a0848603121561525f57600080fd5b84601f85011261526e57600080fd5b6152766151f8565b80604086018781111561528857600080fd5b865b818110156152ab57803561529d81615178565b84526020938401930161528a565b5090945035925050607f840185136152c257600080fd5b6152ca6151f8565b8060a08601878111156152dc57600080fd5b606087015b818110156152f95780358452602093840193016152e1565b505080925050509250925092565b600082601f83011261531857600080fd5b81356001600160401b03811115615331576153316151b9565b615344601f8201601f191660200161521a565b81815284602083860101111561535957600080fd5b816020850160208301376000918101602001919091529392505050565b6000806000806080858703121561538c57600080fd5b843561539781615178565b935060208501356153a781615178565b92506040850135915060608501356001600160401b038111156153c957600080fd5b6153d587828801615307565b91505092959194509250565b6000602082840312156153f357600080fd5b813561290281615178565b60008060006060848603121561541357600080fd5b833561541e81615178565b9250602084013561542e81615178565b929592945050506040919091013590565b6000806040838503121561545257600080fd5b50508035926020909101359150565b602080825282518282018190526000919060409081850190868401855b828110156154c3578151805185528681015187860152858101516001600160a01b0316868601526060908101511515908501526080909301929085019060010161547e565b5091979650505050505050565b6000602082840312156154e257600080fd5b5035919050565b6001600160a01b0391909116815260200190565b6000806040838503121561551057600080fd5b82359150602083013561552281615178565b809150509250929050565b6000806040838503121561554057600080fd5b823561554b81615178565b9150602083013561552281615178565b6000806040838503121561556e57600080fd5b823561557981615178565b915060208301356001600160401b0381111561559457600080fd5b6155a085828601615307565b9150509250929050565b600080600080608085870312156155c057600080fd5b84356155cb81615178565b935060208501356155db81615178565b925060408501356155eb81615178565b9396929550929360600135925050565b60ff60f81b881681526000602060e0602084015261561c60e084018a615139565b838103604085015261562e818a615139565b606085018990526001600160a01b038816608086015260a0850187905284810360c08601528551808252602080880193509091019060005b8181101561568257835183529284019291840191600101615666565b50909c9b505050505050505050505050565b60008060008060008060c087890312156156ad57600080fd5b86356156b881615178565b95506020870135945060408701356156cf81615178565b935060608701356156df81615178565b925060808701356156ef81615178565b915060a08701356156ff81615178565b809150509295509295509295565b600080600080600080600060e0888a03121561572857600080fd5b873561573381615178565b9650602088013561574381615178565b95506040880135945060608801359350608088013560ff8116811461576757600080fd5b9699959850939692959460a0840135945060c09093013592915050565b602080825282518282018190526000919060409081850190868401855b828110156154c357815180516001600160a01b0390811686528782015188870152868201511515878701526060808301511515908701526080808301519091169086015260a0808201519086015260c0908101519085015260e090930192908501906001016157a1565b600181811c9082168061581f57607f821691505b60208210810361466e57634e487b7160e01b600052602260045260246000fd5b60006020828403121561585157600080fd5b5051919050565b6001600160a01b038581168252841660208201526040810183905260a06060820181905260009061588b90830184615139565b8281036080840152600e81526d1b1a5cdd1a5b99c81c1b185b995d60921b60208201526040810191505095945050505050565b600082601f8301126158cf57600080fd5b815160206001600160401b038211156158ea576158ea6151b9565b8160051b6158f982820161521a565b928352848101820192828101908785111561591357600080fd5b83870192505b8483101561506e57825182529183019190830190615919565b8051801515811461467057600080fd5b6000806040838503121561595557600080fd5b82516001600160401b038082111561596c57600080fd5b90840190610160828703121561598157600080fd5b6159896151cf565b825181526020830151602082015260408301516040820152606083015160608201526080830151608082015260a083015160a082015260c083015160c082015260e083015160e082015261010080840151838111156159e757600080fd5b6159f3898287016158be565b8284015250506101208084015183811115615a0d57600080fd5b615a19898287016158be565b8284015250506101408084015183811115615a3357600080fd5b615a3f898287016158be565b828401525050809450505050615a5760208401615932565b90509250929050565b634e487b7160e01b600052603260045260246000fd5b6001600160a01b038581168252841660208201526040810183905260a060608201819052600090615aa990830184615139565b8281036080840152600a8152691b995dc81c1b185b995d60b21b60208201526040810191505095945050505050565b6001600160a01b038581168252841660208201526040810183905260a060608201819052600090615b0b90830184615139565b8281036080840152600d81526c1d5b98d85d1959dbdc9a5e9959609a1b60208201526040810191505095945050505050565b60208082526026908201527f5061796d656e7453706c69747465723a206163636f756e7420686173206e6f2060408201526573686172657360d01b606082015260800190565b6020808252602b908201527f5061796d656e7453706c69747465723a206163636f756e74206973206e6f742060408201526a191d59481c185e5b595b9d60aa1b606082015260800190565b634e487b7160e01b600052601160045260246000fd5b80820180821115610e2057610e20615bce565b6001600160a01b03929092168252602082015260400190565b602080825260149082015273496e73756666696369656e742062616c616e636560601b604082015260600190565b600082615c5b57634e487b7160e01b600052601260045260246000fd5b500490565b602080825260139082015272496e646578206f7574206f6620626f756e647360681b604082015260600190565b81810381811115610e2057610e20615bce565b6020808252602c908201527f46756e6374696f6e206d7573742062652063616c6c6564207468726f7567682060408201526b19195b1959d85d1958d85b1b60a21b606082015260800190565b6020808252602c908201527f46756e6374696f6e206d7573742062652063616c6c6564207468726f7567682060408201526b6163746976652070726f787960a01b606082015260800190565b6001600160a01b0394851681529290931660208301526040820152901515606082015260800190565b600060208284031215615d7357600080fd5b815161290281615178565b8082028115828204841417610e2057610e20615bce565b7f496e73756666696369656e742066756e647320746f20636f766572205652462081527f636f737420616e6420707269636520616e64206665652e20526571756972656460208201526101d160f51b604082015260008351615dfe816042850160208801615115565b670161029b2b73a1d160c51b6042918401918201528351615e2681604a840160208801615115565b01604a01949350505050565b600060208284031215615e4457600080fd5b61290282615932565b634e487b7160e01b600052603160045260246000fd5b6001600160a01b039384168152919092166020820152604081019190915260600190565b6020808252602b908201527f496e697469616c697a61626c653a20636f6e7472616374206973206e6f74206960408201526a6e697469616c697a696e6760a81b606082015260800190565b634e487b7160e01b600052602160045260246000fd5b60008251615efa818460208701615115565b919091019291505056fe13c6ec2a463a35f898a457814a782f1f567808293fa783a31fa4dac8868e6011360894a13ba1a3210667c828492db98dca3e2076cc3735a920a3ca505d382bbc416464726573733a206c6f772d6c6576656c2064656c65676174652063616c6c206661696c6564a26469706673582212205aab253fa19c3cc5cf89f7f90effbf9b7639b5cf1194b70ab634ad6f0d03ee5f64736f6c63430008180033",
  "linkReferences": {},
  "deployedLinkReferences": {}
}