{
  "_format": "hh-sol-artifact-1",
  "contractName": "HatcherV3",
  "sourceName": "contracts/HatcherV3.sol",
  "abi": [
    {
      "inputs": [],
      "name": "Unauthorized",
      "type": "error"
    },
    {
      "anonymous": false,
      "inputs": [
        {
          "indexed": false,
          "internalType": "address",
          "name": "previousAdmin",
          "type": "address"
        },
        {
          "indexed": false,
          "internalType": "address",
          "name": "newAdmin",
          "type": "address"
        }
      ],
      "name": "AdminChanged",
      "type": "event"
    },
    {
      "anonymous": false,
      "inputs": [
        {
          "indexed": true,
          "internalType": "address",
          "name": "owner",
          "type": "address"
        },
        {
          "indexed": true,
          "internalType": "address",
          "name": "spender",
          "type": "address"
        },
        {
          "indexed": false,
          "internalType": "uint256",
          "name": "value",
          "type": "uint256"
        }
      ],
      "name": "Approval",
      "type": "event"
    },
    {
      "anonymous": false,
      "inputs": [
        {
          "indexed": true,
          "internalType": "address",
          "name": "beacon",
          "type": "address"
        }
      ],
      "name": "BeaconUpgraded",
      "type": "event"
    },
    {
      "anonymous": false,
      "inputs": [
        {
          "indexed": false,
          "internalType": "address",
          "name": "sentToUser",
          "type": "address"
        },
        {
          "indexed": false,
          "internalType": "address",
          "name": "token",
          "type": "address"
        },
        {
          "indexed": false,
          "internalType": "uint256",
          "name": "tokenId",
          "type": "uint256"
        },
        {
          "indexed": false,
          "internalType": "bool",
          "name": "success",
          "type": "bool"
        }
      ],
      "name": "DeClaimedAPlanet",
      "type": "event"
    },
    {
      "anonymous": false,
      "inputs": [
        {
          "indexed": false,
          "internalType": "address",
          "name": "sentToUser",
          "type": "address"
        },
        {
          "indexed": false,
          "internalType": "address",
          "name": "token",
          "type": "address"
        },
        {
          "indexed": false,
          "internalType": "uint256",
          "name": "tokenId",
          "type": "uint256"
        },
        {
          "indexed": false,
          "internalType": "bool",
          "name": "success",
          "type": "bool"
        }
      ],
      "name": "DeListedAPlanet",
      "type": "event"
    },
    {
      "anonymous": false,
      "inputs": [],
      "name": "EIP712DomainChanged",
      "type": "event"
    },
    {
      "anonymous": false,
      "inputs": [
        {
          "indexed": true,
          "internalType": "contract IERC20Upgradeable",
          "name": "token",
          "type": "address"
        },
        {
          "indexed": false,
          "internalType": "address",
          "name": "to",
          "type": "address"
        },
        {
          "indexed": false,
          "internalType": "uint256",
          "name": "amount",
          "type": "uint256"
        }
      ],
      "name": "ERC20PaymentReleased",
      "type": "event"
    },
    {
      "anonymous": false,
      "inputs": [
        {
          "indexed": false,
          "internalType": "uint8",
          "name": "version",
          "type": "uint8"
        }
      ],
      "name": "Initialized",
      "type": "event"
    },
    {
      "anonymous": false,
      "inputs": [
        {
          "indexed": false,
          "internalType": "address",
          "name": "sentFromUser",
          "type": "address"
        },
        {
          "indexed": false,
          "internalType": "address",
          "name": "token",
          "type": "address"
        },
        {
          "indexed": false,
          "internalType": "uint256",
          "name": "tokenId",
          "type": "uint256"
        },
        {
          "indexed": false,
          "internalType": "uint256",
          "name": "price",
          "type": "uint256"
        }
      ],
      "name": "ListedAPlanet",
      "type": "event"
    },
    {
      "anonymous": false,
      "inputs": [
        {
          "indexed": false,
          "internalType": "address",
          "name": "operator",
          "type": "address"
        },
        {
          "indexed": false,
          "internalType": "address",
          "name": "from",
          "type": "address"
        },
        {
          "indexed": false,
          "internalType": "uint256",
          "name": "tokenId",
          "type": "uint256"
        },
        {
          "indexed": false,
          "internalType": "bytes",
          "name": "data",
          "type": "bytes"
        },
        {
          "indexed": false,
          "internalType": "string",
          "name": "typeOfReceival",
          "type": "string"
        }
      ],
      "name": "NftReceived",
      "type": "event"
    },
    {
      "anonymous": false,
      "inputs": [
        {
          "indexed": false,
          "internalType": "address",
          "name": "parentA",
          "type": "address"
        },
        {
          "indexed": false,
          "internalType": "address",
          "name": "parentB",
          "type": "address"
        },
        {
          "indexed": false,
          "internalType": "uint256",
          "name": "tokenIdA",
          "type": "uint256"
        },
        {
          "indexed": false,
          "internalType": "uint256",
          "name": "tokenIdB",
          "type": "uint256"
        },
        {
          "indexed": false,
          "internalType": "uint256",
          "name": "newTokenId",
          "type": "uint256"
        },
        {
          "indexed": false,
          "internalType": "bool",
          "name": "found",
          "type": "bool"
        }
      ],
      "name": "Orphaning",
      "type": "event"
    },
    {
      "anonymous": false,
      "inputs": [
        {
          "indexed": true,
          "internalType": "address",
          "name": "previousOwner",
          "type": "address"
        },
        {
          "indexed": true,
          "internalType": "address",
          "name": "newOwner",
          "type": "address"
        }
      ],
      "name": "OwnershipTransferred",
      "type": "event"
    },
    {
      "anonymous": false,
      "inputs": [
        {
          "indexed": false,
          "internalType": "address",
          "name": "account",
          "type": "address"
        }
      ],
      "name": "Paused",
      "type": "event"
    },
    {
      "anonymous": false,
      "inputs": [
        {
          "indexed": false,
          "internalType": "address",
          "name": "account",
          "type": "address"
        },
        {
          "indexed": false,
          "internalType": "uint256",
          "name": "shares",
          "type": "uint256"
        }
      ],
      "name": "PayeeAdded",
      "type": "event"
    },
    {
      "anonymous": false,
      "inputs": [
        {
          "indexed": false,
          "internalType": "address",
          "name": "from",
          "type": "address"
        },
        {
          "indexed": false,
          "internalType": "uint256",
          "name": "amount",
          "type": "uint256"
        }
      ],
      "name": "PaymentReceived",
      "type": "event"
    },
    {
      "anonymous": false,
      "inputs": [
        {
          "indexed": false,
          "internalType": "address",
          "name": "to",
          "type": "address"
        },
        {
          "indexed": false,
          "internalType": "uint256",
          "name": "amount",
          "type": "uint256"
        }
      ],
      "name": "PaymentReleased",
      "type": "event"
    },
    {
      "anonymous": false,
      "inputs": [
        {
          "indexed": false,
          "internalType": "uint256",
          "name": "planetAsking",
          "type": "uint256"
        },
        {
          "indexed": false,
          "internalType": "address",
          "name": "askingUser",
          "type": "address"
        },
        {
          "indexed": false,
          "internalType": "uint256",
          "name": "planetJoining",
          "type": "uint256"
        },
        {
          "indexed": false,
          "internalType": "address",
          "name": "joiningUser",
          "type": "address"
        }
      ],
      "name": "PlanetsConjoining",
      "type": "event"
    },
    {
      "anonymous": false,
      "inputs": [
        {
          "indexed": true,
          "internalType": "address",
          "name": "from",
          "type": "address"
        },
        {
          "indexed": true,
          "internalType": "address",
          "name": "to",
          "type": "address"
        },
        {
          "indexed": false,
          "internalType": "uint256",
          "name": "value",
          "type": "uint256"
        }
      ],
      "name": "Transfer",
      "type": "event"
    },
    {
      "anonymous": false,
      "inputs": [
        {
          "indexed": false,
          "internalType": "address",
          "name": "account",
          "type": "address"
        }
      ],
      "name": "Unpaused",
      "type": "event"
    },
    {
      "anonymous": false,
      "inputs": [
        {
          "indexed": true,
          "internalType": "address",
          "name": "implementation",
          "type": "address"
        }
      ],
      "name": "Upgraded",
      "type": "event"
    },
    {
      "stateMutability": "payable",
      "type": "fallback"
    },
    {
      "inputs": [],
      "name": "DOMAIN_SEPARATOR",
      "outputs": [
        {
          "internalType": "bytes32",
          "name": "",
          "type": "bytes32"
        }
      ],
      "stateMutability": "view",
      "type": "function"
    },
    {
      "inputs": [
        {
          "internalType": "address",
          "name": "owner",
          "type": "address"
        },
        {
          "internalType": "address",
          "name": "spender",
          "type": "address"
        }
      ],
      "name": "allowance",
      "outputs": [
        {
          "internalType": "uint256",
          "name": "",
          "type": "uint256"
        }
      ],
      "stateMutability": "view",
      "type": "function"
    },
    {
      "inputs": [
        {
          "internalType": "address",
          "name": "spender",
          "type": "address"
        },
        {
          "internalType": "uint256",
          "name": "amount",
          "type": "uint256"
        }
      ],
      "name": "approve",
      "outputs": [
        {
          "internalType": "bool",
          "name": "",
          "type": "bool"
        }
      ],
      "stateMutability": "nonpayable",
      "type": "function"
    },
    {
      "inputs": [
        {
          "internalType": "contract IERC721",
          "name": "token",
          "type": "address"
        },
        {
          "internalType": "address",
          "name": "operator",
          "type": "address"
        }
      ],
      "name": "approveAllERC721Tokens",
      "outputs": [],
      "stateMutability": "nonpayable",
      "type": "function"
    },
    {
      "inputs": [
        {
          "internalType": "contract IERC20",
          "name": "token",
          "type": "address"
        },
        {
          "internalType": "address",
          "name": "spender",
          "type": "address"
        },
        {
          "internalType": "uint256",
          "name": "amount",
          "type": "uint256"
        }
      ],
      "name": "approveERC20",
      "outputs": [],
      "stateMutability": "nonpayable",
      "type": "function"
    },
    {
      "inputs": [
        {
          "internalType": "address",
          "name": "account",
          "type": "address"
        }
      ],
      "name": "balanceOf",
      "outputs": [
        {
          "internalType": "uint256",
          "name": "",
          "type": "uint256"
        }
      ],
      "stateMutability": "view",
      "type": "function"
    },
    {
      "inputs": [],
      "name": "breedContract",
      "outputs": [
        {
          "internalType": "contract IBreedContract",
          "name": "",
          "type": "address"
        }
      ],
      "stateMutability": "view",
      "type": "function"
    },
    {
      "inputs": [
        {
          "internalType": "uint256",
          "name": "newVRF",
          "type": "uint256"
        }
      ],
      "name": "changeVRFValue",
      "outputs": [],
      "stateMutability": "nonpayable",
      "type": "function"
    },
    {
      "inputs": [
        {
          "internalType": "address",
          "name": "owner",
          "type": "address"
        },
        {
          "internalType": "address",
          "name": "operator",
          "type": "address"
        }
      ],
      "name": "checkApprovalForAll",
      "outputs": [
        {
          "internalType": "bool",
          "name": "",
          "type": "bool"
        }
      ],
      "stateMutability": "view",
      "type": "function"
    },
    {
      "inputs": [
        {
          "internalType": "uint256",
          "name": "claimableTokenId",
          "type": "uint256"
        }
      ],
      "name": "claimPlanet",
      "outputs": [],
      "stateMutability": "nonpayable",
      "type": "function"
    },
    {
      "inputs": [
        {
          "internalType": "address",
          "name": "",
          "type": "address"
        },
        {
          "internalType": "uint256",
          "name": "",
          "type": "uint256"
        }
      ],
      "name": "claimablePlanets",
      "outputs": [
        {
          "internalType": "address",
          "name": "ownerParentAddress",
          "type": "address"
        },
        {
          "internalType": "uint256",
          "name": "ownerTokenId",
          "type": "uint256"
        },
        {
          "internalType": "bool",
          "name": "delivered",
          "type": "bool"
        },
        {
          "internalType": "bool",
          "name": "arrived",
          "type": "bool"
        },
        {
          "internalType": "address",
          "name": "otherParent",
          "type": "address"
        },
        {
          "internalType": "uint256",
          "name": "otherTokenId",
          "type": "uint256"
        },
        {
          "internalType": "uint256",
          "name": "claimsTokenId",
          "type": "uint256"
        }
      ],
      "stateMutability": "view",
      "type": "function"
    },
    {
      "inputs": [
        {
          "internalType": "uint256",
          "name": "yourPlanet",
          "type": "uint256"
        },
        {
          "internalType": "uint256",
          "name": "withListedPlanet",
          "type": "uint256"
        }
      ],
      "name": "conjunct",
      "outputs": [],
      "stateMutability": "payable",
      "type": "function"
    },
    {
      "inputs": [
        {
          "internalType": "uint256",
          "name": "",
          "type": "uint256"
        }
      ],
      "name": "conjunctingTokenIdToOwnerAddr",
      "outputs": [
        {
          "internalType": "address",
          "name": "",
          "type": "address"
        }
      ],
      "stateMutability": "view",
      "type": "function"
    },
    {
      "inputs": [
        {
          "internalType": "uint256",
          "name": "idIndex",
          "type": "uint256"
        },
        {
          "internalType": "uint256",
          "name": "tokenId",
          "type": "uint256"
        }
      ],
      "name": "deList",
      "outputs": [],
      "stateMutability": "nonpayable",
      "type": "function"
    },
    {
      "inputs": [],
      "name": "deListAllYourPlanets",
      "outputs": [],
      "stateMutability": "nonpayable",
      "type": "function"
    },
    {
      "inputs": [],
      "name": "decimals",
      "outputs": [
        {
          "internalType": "uint8",
          "name": "",
          "type": "uint8"
        }
      ],
      "stateMutability": "view",
      "type": "function"
    },
    {
      "inputs": [
        {
          "internalType": "address",
          "name": "spender",
          "type": "address"
        },
        {
          "internalType": "uint256",
          "name": "subtractedValue",
          "type": "uint256"
        }
      ],
      "name": "decreaseAllowance",
      "outputs": [
        {
          "internalType": "bool",
          "name": "",
          "type": "bool"
        }
      ],
      "stateMutability": "nonpayable",
      "type": "function"
    },
    {
      "inputs": [],
      "name": "eip712Domain",
      "outputs": [
        {
          "internalType": "bytes1",
          "name": "fields",
          "type": "bytes1"
        },
        {
          "internalType": "string",
          "name": "name",
          "type": "string"
        },
        {
          "internalType": "string",
          "name": "version",
          "type": "string"
        },
        {
          "internalType": "uint256",
          "name": "chainId",
          "type": "uint256"
        },
        {
          "internalType": "address",
          "name": "verifyingContract",
          "type": "address"
        },
        {
          "internalType": "bytes32",
          "name": "salt",
          "type": "bytes32"
        },
        {
          "internalType": "uint256[]",
          "name": "extensions",
          "type": "uint256[]"
        }
      ],
      "stateMutability": "view",
      "type": "function"
    },
    {
      "inputs": [],
      "name": "getAllPlanets",
      "outputs": [
        {
          "components": [
            {
              "internalType": "uint256",
              "name": "tokenId",
              "type": "uint256"
            },
            {
              "internalType": "uint256",
              "name": "price",
              "type": "uint256"
            },
            {
              "internalType": "address",
              "name": "ownerAddress",
              "type": "address"
            },
            {
              "internalType": "bool",
              "name": "active",
              "type": "bool"
            }
          ],
          "internalType": "struct ListedPlanet[]",
          "name": "",
          "type": "tuple[]"
        }
      ],
      "stateMutability": "view",
      "type": "function"
    },
    {
      "inputs": [
        {
          "internalType": "address",
          "name": "userAddr",
          "type": "address"
        }
      ],
      "name": "getClaimablePlanetsFor",
      "outputs": [
        {
          "components": [
            {
              "internalType": "address",
              "name": "ownerParentAddress",
              "type": "address"
            },
            {
              "internalType": "uint256",
              "name": "ownerTokenId",
              "type": "uint256"
            },
            {
              "internalType": "bool",
              "name": "delivered",
              "type": "bool"
            },
            {
              "internalType": "bool",
              "name": "arrived",
              "type": "bool"
            },
            {
              "internalType": "address",
              "name": "otherParent",
              "type": "address"
            },
            {
              "internalType": "uint256",
              "name": "otherTokenId",
              "type": "uint256"
            },
            {
              "internalType": "uint256",
              "name": "claimsTokenId",
              "type": "uint256"
            }
          ],
          "internalType": "struct ClaimablePlanet[]",
          "name": "",
          "type": "tuple[]"
        }
      ],
      "stateMutability": "view",
      "type": "function"
    },
    {
      "inputs": [
        {
          "internalType": "uint256",
          "name": "claimableTokenId",
          "type": "uint256"
        }
      ],
      "name": "getConjunctingTokenIdToOwnerAddr",
      "outputs": [
        {
          "internalType": "address",
          "name": "",
          "type": "address"
        }
      ],
      "stateMutability": "view",
      "type": "function"
    },
    {
      "inputs": [
        {
          "internalType": "uint256",
          "name": "listedTokenId",
          "type": "uint256"
        }
      ],
      "name": "getListedTokenIdToOwnerAddr",
      "outputs": [
        {
          "internalType": "address",
          "name": "",
          "type": "address"
        }
      ],
      "stateMutability": "view",
      "type": "function"
    },
    {
      "inputs": [
        {
          "internalType": "uint256",
          "name": "startIndex",
          "type": "uint256"
        },
        {
          "internalType": "uint256",
          "name": "endIndex",
          "type": "uint256"
        }
      ],
      "name": "getPlanetsPaginated",
      "outputs": [
        {
          "components": [
            {
              "internalType": "uint256",
              "name": "tokenId",
              "type": "uint256"
            },
            {
              "internalType": "uint256",
              "name": "price",
              "type": "uint256"
            },
            {
              "internalType": "address",
              "name": "ownerAddress",
              "type": "address"
            },
            {
              "internalType": "bool",
              "name": "active",
              "type": "bool"
            }
          ],
          "internalType": "struct ListedPlanet[]",
          "name": "",
          "type": "tuple[]"
        }
      ],
      "stateMutability": "view",
      "type": "function"
    },
    {
      "inputs": [
        {
          "internalType": "uint256",
          "name": "tokenId",
          "type": "uint256"
        }
      ],
      "name": "getPriceFor",
      "outputs": [
        {
          "internalType": "uint256",
          "name": "",
          "type": "uint256"
        }
      ],
      "stateMutability": "view",
      "type": "function"
    },
    {
      "inputs": [
        {
          "internalType": "address",
          "name": "userAddr",
          "type": "address"
        }
      ],
      "name": "getuserToListedPlanets",
      "outputs": [
        {
          "components": [
            {
              "internalType": "uint256",
              "name": "tokenId",
              "type": "uint256"
            },
            {
              "internalType": "uint256",
              "name": "price",
              "type": "uint256"
            },
            {
              "internalType": "address",
              "name": "ownerAddress",
              "type": "address"
            },
            {
              "internalType": "bool",
              "name": "active",
              "type": "bool"
            }
          ],
          "internalType": "struct ListedPlanet[]",
          "name": "",
          "type": "tuple[]"
        }
      ],
      "stateMutability": "view",
      "type": "function"
    },
    {
      "inputs": [
        {
          "internalType": "address",
          "name": "owner",
          "type": "address"
        },
        {
          "internalType": "uint256",
          "name": "tokenId",
          "type": "uint256"
        }
      ],
      "name": "hasPlanetArrived",
      "outputs": [
        {
          "internalType": "bool",
          "name": "arrived",
          "type": "bool"
        }
      ],
      "stateMutability": "view",
      "type": "function"
    },
    {
      "inputs": [
        {
          "internalType": "address",
          "name": "owner",
          "type": "address"
        },
        {
          "internalType": "uint256",
          "name": "tokenId",
          "type": "uint256"
        }
      ],
      "name": "hasPlanetBeenDelivered",
      "outputs": [
        {
          "internalType": "bool",
          "name": "delivered",
          "type": "bool"
        }
      ],
      "stateMutability": "view",
      "type": "function"
    },
    {
      "inputs": [
        {
          "internalType": "address",
          "name": "spender",
          "type": "address"
        },
        {
          "internalType": "uint256",
          "name": "addedValue",
          "type": "uint256"
        }
      ],
      "name": "increaseAllowance",
      "outputs": [
        {
          "internalType": "bool",
          "name": "",
          "type": "bool"
        }
      ],
      "stateMutability": "nonpayable",
      "type": "function"
    },
    {
      "inputs": [
        {
          "internalType": "address",
          "name": "initialOwner",
          "type": "address"
        }
      ],
      "name": "initialize",
      "outputs": [],
      "stateMutability": "nonpayable",
      "type": "function"
    },
    {
      "inputs": [],
      "name": "listAllYourPlanets",
      "outputs": [],
      "stateMutability": "nonpayable",
      "type": "function"
    },
    {
      "inputs": [
        {
          "internalType": "uint256",
          "name": "",
          "type": "uint256"
        }
      ],
      "name": "listedTokenIdToOwnerAddr",
      "outputs": [
        {
          "internalType": "address",
          "name": "",
          "type": "address"
        }
      ],
      "stateMutability": "view",
      "type": "function"
    },
    {
      "inputs": [],
      "name": "name",
      "outputs": [
        {
          "internalType": "string",
          "name": "",
          "type": "string"
        }
      ],
      "stateMutability": "view",
      "type": "function"
    },
    {
      "inputs": [
        {
          "internalType": "address",
          "name": "owner",
          "type": "address"
        }
      ],
      "name": "nonces",
      "outputs": [
        {
          "internalType": "uint256",
          "name": "",
          "type": "uint256"
        }
      ],
      "stateMutability": "view",
      "type": "function"
    },
    {
      "inputs": [
        {
          "internalType": "address",
          "name": "operator",
          "type": "address"
        },
        {
          "internalType": "address",
          "name": "from",
          "type": "address"
        },
        {
          "internalType": "uint256",
          "name": "tokenId",
          "type": "uint256"
        },
        {
          "internalType": "bytes",
          "name": "data",
          "type": "bytes"
        }
      ],
      "name": "onERC721Received",
      "outputs": [
        {
          "internalType": "bytes4",
          "name": "",
          "type": "bytes4"
        }
      ],
      "stateMutability": "nonpayable",
      "type": "function"
    },
    {
      "inputs": [
        {
          "internalType": "uint256",
          "name": "",
          "type": "uint256"
        },
        {
          "internalType": "uint256",
          "name": "",
          "type": "uint256"
        }
      ],
      "name": "orphanClaims",
      "outputs": [
        {
          "internalType": "address",
          "name": "ownerParentAddress",
          "type": "address"
        },
        {
          "internalType": "uint256",
          "name": "ownerTokenId",
          "type": "uint256"
        },
        {
          "internalType": "bool",
          "name": "delivered",
          "type": "bool"
        },
        {
          "internalType": "bool",
          "name": "arrived",
          "type": "bool"
        },
        {
          "internalType": "address",
          "name": "otherParent",
          "type": "address"
        },
        {
          "internalType": "uint256",
          "name": "otherTokenId",
          "type": "uint256"
        },
        {
          "internalType": "uint256",
          "name": "claimsTokenId",
          "type": "uint256"
        }
      ],
      "stateMutability": "view",
      "type": "function"
    },
    {
      "inputs": [],
      "name": "owner",
      "outputs": [
        {
          "internalType": "address",
          "name": "",
          "type": "address"
        }
      ],
      "stateMutability": "view",
      "type": "function"
    },
    {
      "inputs": [
        {
          "internalType": "uint256",
          "name": "claimableTokenId",
          "type": "uint256"
        },
        {
          "internalType": "address",
          "name": "sendToAddr",
          "type": "address"
        }
      ],
      "name": "ownerClaimPlanet",
      "outputs": [],
      "stateMutability": "nonpayable",
      "type": "function"
    },
    {
      "inputs": [
        {
          "internalType": "uint256",
          "name": "tokenId",
          "type": "uint256"
        },
        {
          "internalType": "address",
          "name": "destinationAddr",
          "type": "address"
        }
      ],
      "name": "ownerOverrideSendNFT",
      "outputs": [],
      "stateMutability": "nonpayable",
      "type": "function"
    },
    {
      "inputs": [],
      "name": "pause",
      "outputs": [],
      "stateMutability": "nonpayable",
      "type": "function"
    },
    {
      "inputs": [],
      "name": "paused",
      "outputs": [
        {
          "internalType": "bool",
          "name": "",
          "type": "bool"
        }
      ],
      "stateMutability": "view",
      "type": "function"
    },
    {
      "inputs": [
        {
          "internalType": "uint256",
          "name": "index",
          "type": "uint256"
        }
      ],
      "name": "payee",
      "outputs": [
        {
          "internalType": "address",
          "name": "",
          "type": "address"
        }
      ],
      "stateMutability": "view",
      "type": "function"
    },
    {
      "inputs": [
        {
          "internalType": "address",
          "name": "owner",
          "type": "address"
        },
        {
          "internalType": "address",
          "name": "spender",
          "type": "address"
        },
        {
          "internalType": "uint256",
          "name": "value",
          "type": "uint256"
        },
        {
          "internalType": "uint256",
          "name": "deadline",
          "type": "uint256"
        },
        {
          "internalType": "uint8",
          "name": "v",
          "type": "uint8"
        },
        {
          "internalType": "bytes32",
          "name": "r",
          "type": "bytes32"
        },
        {
          "internalType": "bytes32",
          "name": "s",
          "type": "bytes32"
        }
      ],
      "name": "permit",
      "outputs": [],
      "stateMutability": "nonpayable",
      "type": "function"
    },
    {
      "inputs": [],
      "name": "proxiableUUID",
      "outputs": [
        {
          "internalType": "bytes32",
          "name": "",
          "type": "bytes32"
        }
      ],
      "stateMutability": "view",
      "type": "function"
    },
    {
      "inputs": [
        {
          "internalType": "address",
          "name": "account",
          "type": "address"
        }
      ],
      "name": "releasable",
      "outputs": [
        {
          "internalType": "uint256",
          "name": "",
          "type": "uint256"
        }
      ],
      "stateMutability": "view",
      "type": "function"
    },
    {
      "inputs": [
        {
          "internalType": "contract IERC20Upgradeable",
          "name": "token",
          "type": "address"
        },
        {
          "internalType": "address",
          "name": "account",
          "type": "address"
        }
      ],
      "name": "releasable",
      "outputs": [
        {
          "internalType": "uint256",
          "name": "",
          "type": "uint256"
        }
      ],
      "stateMutability": "view",
      "type": "function"
    },
    {
      "inputs": [
        {
          "internalType": "address payable",
          "name": "account",
          "type": "address"
        }
      ],
      "name": "release",
      "outputs": [],
      "stateMutability": "nonpayable",
      "type": "function"
    },
    {
      "inputs": [
        {
          "internalType": "contract IERC20Upgradeable",
          "name": "token",
          "type": "address"
        },
        {
          "internalType": "address",
          "name": "account",
          "type": "address"
        }
      ],
      "name": "release",
      "outputs": [],
      "stateMutability": "nonpayable",
      "type": "function"
    },
    {
      "inputs": [
        {
          "internalType": "contract IERC20Upgradeable",
          "name": "token",
          "type": "address"
        },
        {
          "internalType": "address",
          "name": "account",
          "type": "address"
        }
      ],
      "name": "released",
      "outputs": [
        {
          "internalType": "uint256",
          "name": "",
          "type": "uint256"
        }
      ],
      "stateMutability": "view",
      "type": "function"
    },
    {
      "inputs": [
        {
          "internalType": "address",
          "name": "account",
          "type": "address"
        }
      ],
      "name": "released",
      "outputs": [
        {
          "internalType": "uint256",
          "name": "",
          "type": "uint256"
        }
      ],
      "stateMutability": "view",
      "type": "function"
    },
    {
      "inputs": [],
      "name": "renounceOwnership",
      "outputs": [],
      "stateMutability": "nonpayable",
      "type": "function"
    },
    {
      "inputs": [
        {
          "internalType": "address",
          "name": "_breederContractAddr",
          "type": "address"
        },
        {
          "internalType": "uint256",
          "name": "_vrfValue",
          "type": "uint256"
        },
        {
          "internalType": "address",
          "name": "_nftContractAddr",
          "type": "address"
        },
        {
          "internalType": "address",
          "name": "_aprsContract",
          "type": "address"
        },
        {
          "internalType": "address",
          "name": "_animaContract",
          "type": "address"
        },
        {
          "internalType": "address",
          "name": "_mgrContract",
          "type": "address"
        }
      ],
      "name": "setAllOf",
      "outputs": [],
      "stateMutability": "nonpayable",
      "type": "function"
    },
    {
      "inputs": [
        {
          "internalType": "address[2]",
          "name": "parents",
          "type": "address[2]"
        },
        {
          "internalType": "uint256",
          "name": "newTokenId",
          "type": "uint256"
        },
        {
          "internalType": "uint256[2]",
          "name": "parentTokenIds",
          "type": "uint256[2]"
        }
      ],
      "name": "setArrivedOwner",
      "outputs": [],
      "stateMutability": "nonpayable",
      "type": "function"
    },
    {
      "inputs": [
        {
          "internalType": "uint256",
          "name": "_toThisPercentage",
          "type": "uint256"
        }
      ],
      "name": "setMktFee",
      "outputs": [],
      "stateMutability": "nonpayable",
      "type": "function"
    },
    {
      "inputs": [
        {
          "internalType": "address payable",
          "name": "newTAdd",
          "type": "address"
        }
      ],
      "name": "setTAdd",
      "outputs": [],
      "stateMutability": "nonpayable",
      "type": "function"
    },
    {
      "inputs": [
        {
          "internalType": "address",
          "name": "account",
          "type": "address"
        }
      ],
      "name": "shares",
      "outputs": [
        {
          "internalType": "uint256",
          "name": "",
          "type": "uint256"
        }
      ],
      "stateMutability": "view",
      "type": "function"
    },
    {
      "inputs": [],
      "name": "status",
      "outputs": [],
      "stateMutability": "nonpayable",
      "type": "function"
    },
    {
      "inputs": [],
      "name": "symbol",
      "outputs": [
        {
          "internalType": "string",
          "name": "",
          "type": "string"
        }
      ],
      "stateMutability": "view",
      "type": "function"
    },
    {
      "inputs": [
        {
          "internalType": "uint256",
          "name": "",
          "type": "uint256"
        }
      ],
      "name": "tokenIdClaimableToOwnerAddr",
      "outputs": [
        {
          "internalType": "address",
          "name": "",
          "type": "address"
        }
      ],
      "stateMutability": "view",
      "type": "function"
    },
    {
      "inputs": [
        {
          "internalType": "uint256",
          "name": "",
          "type": "uint256"
        }
      ],
      "name": "tokenIdToPrice",
      "outputs": [
        {
          "internalType": "uint256",
          "name": "",
          "type": "uint256"
        }
      ],
      "stateMutability": "view",
      "type": "function"
    },
    {
      "inputs": [
        {
          "internalType": "contract IERC20Upgradeable",
          "name": "token",
          "type": "address"
        }
      ],
      "name": "totalReleased",
      "outputs": [
        {
          "internalType": "uint256",
          "name": "",
          "type": "uint256"
        }
      ],
      "stateMutability": "view",
      "type": "function"
    },
    {
      "inputs": [],
      "name": "totalReleased",
      "outputs": [
        {
          "internalType": "uint256",
          "name": "",
          "type": "uint256"
        }
      ],
      "stateMutability": "view",
      "type": "function"
    },
    {
      "inputs": [],
      "name": "totalShares",
      "outputs": [
        {
          "internalType": "uint256",
          "name": "",
          "type": "uint256"
        }
      ],
      "stateMutability": "view",
      "type": "function"
    },
    {
      "inputs": [],
      "name": "totalSupply",
      "outputs": [
        {
          "internalType": "uint256",
          "name": "",
          "type": "uint256"
        }
      ],
      "stateMutability": "view",
      "type": "function"
    },
    {
      "inputs": [
        {
          "internalType": "address",
          "name": "to",
          "type": "address"
        },
        {
          "internalType": "uint256",
          "name": "amount",
          "type": "uint256"
        }
      ],
      "name": "transfer",
      "outputs": [
        {
          "internalType": "bool",
          "name": "",
          "type": "bool"
        }
      ],
      "stateMutability": "nonpayable",
      "type": "function"
    },
    {
      "inputs": [
        {
          "internalType": "address",
          "name": "from",
          "type": "address"
        },
        {
          "internalType": "address",
          "name": "to",
          "type": "address"
        },
        {
          "internalType": "uint256",
          "name": "amount",
          "type": "uint256"
        }
      ],
      "name": "transferFrom",
      "outputs": [
        {
          "internalType": "bool",
          "name": "",
          "type": "bool"
        }
      ],
      "stateMutability": "nonpayable",
      "type": "function"
    },
    {
      "inputs": [
        {
          "internalType": "address",
          "name": "newOwner",
          "type": "address"
        }
      ],
      "name": "transferOwnership",
      "outputs": [],
      "stateMutability": "nonpayable",
      "type": "function"
    },
    {
      "inputs": [],
      "name": "unpause",
      "outputs": [],
      "stateMutability": "nonpayable",
      "type": "function"
    },
    {
      "inputs": [
        {
          "internalType": "address",
          "name": "newImplementation",
          "type": "address"
        }
      ],
      "name": "upgradeTo",
      "outputs": [],
      "stateMutability": "nonpayable",
      "type": "function"
    },
    {
      "inputs": [
        {
          "internalType": "address",
          "name": "newImplementation",
          "type": "address"
        },
        {
          "internalType": "bytes",
          "name": "data",
          "type": "bytes"
        }
      ],
      "name": "upgradeToAndCall",
      "outputs": [],
      "stateMutability": "payable",
      "type": "function"
    },
    {
      "inputs": [
        {
          "internalType": "address",
          "name": "",
          "type": "address"
        },
        {
          "internalType": "uint256",
          "name": "",
          "type": "uint256"
        }
      ],
      "name": "userToListedPlanets",
      "outputs": [
        {
          "internalType": "uint256",
          "name": "tokenId",
          "type": "uint256"
        },
        {
          "internalType": "uint256",
          "name": "price",
          "type": "uint256"
        },
        {
          "internalType": "address",
          "name": "ownerAddress",
          "type": "address"
        },
        {
          "internalType": "bool",
          "name": "active",
          "type": "bool"
        }
      ],
      "stateMutability": "view",
      "type": "function"
    },
    {
      "inputs": [
        {
          "internalType": "address",
          "name": "userAddress",
          "type": "address"
        }
      ],
      "name": "usersClaims",
      "outputs": [
        {
          "components": [
            {
              "internalType": "address",
              "name": "ownerParentAddress",
              "type": "address"
            },
            {
              "internalType": "uint256",
              "name": "ownerTokenId",
              "type": "uint256"
            },
            {
              "internalType": "bool",
              "name": "delivered",
              "type": "bool"
            },
            {
              "internalType": "bool",
              "name": "arrived",
              "type": "bool"
            },
            {
              "internalType": "address",
              "name": "otherParent",
              "type": "address"
            },
            {
              "internalType": "uint256",
              "name": "otherTokenId",
              "type": "uint256"
            },
            {
              "internalType": "uint256",
              "name": "claimsTokenId",
              "type": "uint256"
            }
          ],
          "internalType": "struct ClaimablePlanet[]",
          "name": "",
          "type": "tuple[]"
        }
      ],
      "stateMutability": "view",
      "type": "function"
    },
    {
      "inputs": [
        {
          "internalType": "address",
          "name": "tokenAddress",
          "type": "address"
        },
        {
          "internalType": "address",
          "name": "address1",
          "type": "address"
        },
        {
          "internalType": "address",
          "name": "address2",
          "type": "address"
        },
        {
          "internalType": "uint256",
          "name": "withdrawalAmount",
          "type": "uint256"
        }
      ],
      "name": "withdrawAndSplitERC20",
      "outputs": [],
      "stateMutability": "nonpayable",
      "type": "function"
    },
    {
      "inputs": [
        {
          "internalType": "address",
          "name": "address1",
          "type": "address"
        },
        {
          "internalType": "address",
          "name": "address2",
          "type": "address"
        },
        {
          "internalType": "uint256",
          "name": "withdrawalAmount",
          "type": "uint256"
        }
      ],
      "name": "withdrawAndSplitHalfsies",
      "outputs": [],
      "stateMutability": "nonpayable",
      "type": "function"
    },
    {
      "inputs": [],
      "name": "withdrawFunds",
      "outputs": [],
      "stateMutability": "nonpayable",
      "type": "function"
    },
    {
      "stateMutability": "payable",
      "type": "receive"
    }
  ],
  "bytecode": "0x60a0604052306080526000196101d65534801561001b57600080fd5b50608051615f62620000546000396000818161153e0152818161157e015281816117f9015281816118390152611adc0152615f626000f3fe6080604052600436106103695760003560e01c80638456cb59116101c3578063d28c9334116100fb578063d28c933414610a5a578063d4b5b8d614610ac5578063d505accf14610afc578063d79779b214610b1c578063dbb774d814610b3c578063dd22a9c714610b69578063dd62ed3e14610b89578063e22aecb414610ba9578063e33b7de314610bc9578063ee6e3a2314610bdf578063f2fde38b14610c00578063f4812eb914610c20578063f4c1494314610c4e578063f658159a14610c6e578063f837894714610ca5578063fdb4087514610cc5578063fde4976714610ce5578063fe79222914610b3c578063fe825b2614610d0557005b80638456cb591461049157806384b0196e1461080057806385fe7243146108285780638b83209b146108795780638da5cb5b1461089957806395d89b41146108ae5780639852595c146108c35780639e024710146108e3578063a3f8eace14610903578063a457c2d714610923578063a8e5e4aa14610943578063a9059cbb14610963578063c45ac05014610983578063c4d66de8146109a3578063c7c0e6b1146109c3578063cbdf1b5a146109e3578063cdb82a3714610a03578063ce7c2ac214610a2357005b80633a7fb03d116102a15780633a7fb03d146105dd5780633a98ef39146105fd5780633f4ba83a14610613578063406072a9146106285780634534cd9c1461064857806348b75044146106765780634d950449146106965780634f1ef286146106b657806350842cf3146104655780635270ad6c146106c957806352d1902d146106e95780635b634b6a146106fe5780635c975abb146107355780636a23befb1461074d57806370a0823114610762578063715018a6146107985780637ecebe00146107ad5780638230a784146107cd57806384290591146107e057005b806306fdde0314610372578063095ea7b31461039d5780630f33c7c2146103cd578063150b7a02146103ed57806318160ddd1461042657806319165587146104455780631ac9a91e146104655780631dd320ea14610471578063200d2ed214610491578063229c23cc146104a657806323b872dd146104c657806324600fc3146104e657806325947818146104fb5780632b48a8e414610528578063313ce5671461056c5780633644e515146105885780633659cfe61461059d57806339509351146105bd57005b3661037057005b005b34801561037e57600080fd5b50610387610d3c565b604051610394919061513e565b60405180910390f35b3480156103a957600080fd5b506103bd6103b8366004615166565b610dce565b6040519015158152602001610394565b3480156103d957600080fd5b506103706103e8366004615223565b610de8565b3480156103f957600080fd5b5061040d61040836600461534f565b610e00565b6040516001600160e01b03199091168152602001610394565b34801561043257600080fd5b5060cb545b604051908152602001610394565b34801561045157600080fd5b506103706104603660046153ba565b6110c3565b34801561037057600080fd5b34801561047d57600080fd5b506103bd61048c366004615166565b6111af565b34801561049d57600080fd5b50610370611274565b3480156104b257600080fd5b506103706104c13660046153d7565b611284565b3480156104d257600080fd5b506103bd6104e13660046153d7565b611338565b3480156104f257600080fd5b5061037061135c565b34801561050757600080fd5b5061051b610516366004615418565b61139e565b604051610394919061543a565b34801561053457600080fd5b5061055f6105433660046154a9565b60009081526101cc60205260409020546001600160a01b031690565b60405161039491906154c2565b34801561057857600080fd5b5060405160128152602001610394565b34801561059457600080fd5b50610437611525565b3480156105a957600080fd5b506103706105b83660046153ba565b611534565b3480156105c957600080fd5b506103bd6105d8366004615166565b6115fc565b3480156105e957600080fd5b506103706105f83660046154d6565b61161e565b34801561060957600080fd5b5061016254610437565b34801561061f57600080fd5b50610370611694565b34801561063457600080fd5b50610437610643366004615506565b6116a4565b34801561065457600080fd5b506104376106633660046154a9565b60009081526101d5602052604090205490565b34801561068257600080fd5b50610370610691366004615506565b6116d0565b3480156106a257600080fd5b506103706106b13660046154a9565b6117e1565b6103706106c4366004615534565b6117ef565b3480156106d557600080fd5b506103706106e43660046154a9565b6118a4565b3480156106f557600080fd5b50610437611acf565b34801561070a57600080fd5b5061055f6107193660046154a9565b6101cf602052600090815260409020546001600160a01b031681565b34801561074157600080fd5b5060335460ff166103bd565b34801561075957600080fd5b5061051b611b7d565b34801561076e57600080fd5b5061043761077d3660046153ba565b6001600160a01b0316600090815260c9602052604090205490565b3480156107a457600080fd5b50610370611c13565b3480156107b957600080fd5b506104376107c83660046153ba565b611c25565b6103706107db366004615418565b611c44565b3480156107ec57600080fd5b506103706107fb366004615583565b612507565b34801561080c57600080fd5b5061081561273a565b60405161039497969594939291906155d4565b34801561083457600080fd5b50610848610843366004615166565b6127d8565b604051610394949392919093845260208401929092526001600160a01b031660408301521515606082015260800190565b34801561088557600080fd5b5061055f6108943660046154a9565b612830565b3480156108a557600080fd5b5061055f612861565b3480156108ba57600080fd5b50610387612871565b3480156108cf57600080fd5b506104376108de3660046153ba565b612880565b3480156108ef57600080fd5b506103706108fe36600461566d565b61289c565b34801561090f57600080fd5b5061043761091e3660046153ba565b612918565b34801561092f57600080fd5b506103bd61093e366004615166565b61294b565b34801561094f57600080fd5b5061037061095e3660046153d7565b6129c6565b34801561096f57600080fd5b506103bd61097e366004615166565b612a7a565b34801561098f57600080fd5b5061043761099e366004615506565b612a88565b3480156109af57600080fd5b506103706109be3660046153ba565b612b1c565b3480156109cf57600080fd5b506103706109de3660046154a9565b612c46565b3480156109ef57600080fd5b506103706109fe366004615418565b612c5c565b348015610a0f57600080fd5b50610370610a1e3660046153ba565b612fbb565b348015610a2f57600080fd5b50610437610a3e3660046153ba565b6001600160a01b03166000908152610164602052604090205490565b348015610a6657600080fd5b50610a7a610a75366004615418565b612fee565b604080516001600160a01b0398891681526020810197909752941515948601949094529115156060850152909316608083015260a082019290925260c081019190915260e001610394565b348015610ad157600080fd5b5061055f610ae03660046154a9565b6101d0602052600090815260409020546001600160a01b031681565b348015610b0857600080fd5b50610370610b173660046156e6565b61305f565b348015610b2857600080fd5b50610437610b373660046153ba565b6131c3565b348015610b4857600080fd5b50610b5c610b573660046153ba565b6131df565b604051610394919061575d565b348015610b7557600080fd5b506103bd610b84366004615506565b6132af565b348015610b9557600080fd5b50610437610ba4366004615506565b613327565b348015610bb557600080fd5b50610a7a610bc4366004615166565b613352565b348015610bd557600080fd5b5061016354610437565b348015610beb57600080fd5b506101c65461055f906001600160a01b031681565b348015610c0c57600080fd5b50610370610c1b3660046153ba565b61336f565b348015610c2c57600080fd5b50610437610c3b3660046154a9565b6101d56020526000908152604090205481565b348015610c5a57600080fd5b506103bd610c69366004615166565b6133e5565b348015610c7a57600080fd5b5061055f610c893660046154a9565b60009081526101d060205260409020546001600160a01b031690565b348015610cb157600080fd5b50610370610cc0366004615506565b613475565b348015610cd157600080fd5b50610370610ce03660046154d6565b6134ec565b348015610cf157600080fd5b5061051b610d003660046153ba565b613529565b348015610d1157600080fd5b5061055f610d203660046154a9565b6101cc602052600090815260409020546001600160a01b031681565b606060cc8054610d4b906157e4565b80601f0160208091040260200160405190810160405280929190818152602001828054610d77906157e4565b8015610dc45780601f10610d9957610100808354040283529160200191610dc4565b820191906000526020600020905b815481529060010190602001808311610da757829003601f168201915b5050505050905090565b600033610ddc8185856135ca565b60019150505b92915050565b610df06136ee565b610dfb83838361374d565b505050565b6000808251118015610e1d57506101c8546001600160a01b031633145b15610e7657600082806020019051810190610e389190615818565b9050610e45848287613cd4565b600080516020615ec683398151915286868686604051610e689493929190615831565b60405180910390a1506110b1565b6101d4546001600160a01b038681169116148015610e9f57506101c6546001600160a01b031633145b15611085576101c85460405163dc9ce7a560e01b8152600481018590526000916001600160a01b03169063dc9ce7a590602401600060405180830381865afa158015610eef573d6000803e3d6000fd5b505050506040513d6000823e601f3d908101601f19168201604052610f17919081019061591b565b5090506000816101200151905060006101cc600083600081518110610f3e57610f3e615a39565b6020026020010151815260200190815260200160002060009054906101000a90046001600160a01b0316905060006101cc600084600181518110610f8457610f84615a39565b6020026020010151815260200190815260200160002060009054906101000a90046001600160a01b0316905060006040518060400160405280846001600160a01b03166001600160a01b03168152602001836001600160a01b03166001600160a01b031681525090506000604051806040016040528087610120015160008151811061101257611012615a39565b6020026020010151815260200187610120015160018151811061103757611037615a39565b60200260200101518152509050600080516020615ec68339815191528b8b8b8b6040516110679493929190615a4f565b60405180910390a161107a828a8361374d565b5050505050506110b1565b600080516020615ec6833981519152858585856040516110a89493929190615ab1565b60405180910390a15b50630a85bd0160e11b5b949350505050565b6001600160a01b038116600090815261016460205260409020546111025760405162461bcd60e51b81526004016110f990615b16565b60405180910390fd5b600061110d82612918565b90508060000361112f5760405162461bcd60e51b81526004016110f990615b5c565b8061016360008282546111429190615bbd565b90915550506001600160a01b0382166000908152610165602052604090208054820190556111708282613e72565b7fdf20fd1e76bc69d672e4814fafb2c449bba3a5369d8359adf9e05e6fde87b05682826040516111a1929190615bd0565b60405180910390a15050565b565b6001600160a01b03821660009081526101cd60205260408120815b815481101561123857838282815481106111e6576111e6615a39565b906000526020600020906005020160040154036112305781818154811061120f5761120f615a39565b600091825260209091206002600590920201015460ff169250610de2915050565b6001016111ca565b5060405162461bcd60e51b815260206004820152601060248201526f141b185b995d081b9bdd08199bdd5b9960821b60448201526064016110f9565b61127c6136ee565b6111ad613f88565b61128c6136ee565b611294613fdc565b478111156112b45760405162461bcd60e51b81526004016110f990615be9565b60006112c1600283615c17565b6040519091506001600160a01b0385169082156108fc029083906000818181858888f193505050501580156112fa573d6000803e3d6000fd5b506040516001600160a01b0384169082156108fc029083906000818181858888f19350505050158015611331573d6000803e3d6000fd5b5050505050565b600033611346858285614022565b61135185858561409c565b506001949350505050565b6113646136ee565b61136c613fdc565b604051339081904780156108fc02916000818181858888f1935050505015801561139a573d6000803e3d6000fd5b5050565b60608282116113df5760405162461bcd60e51b815260206004820152600d60248201526c092dcecc2d8d2c840d2dcc8caf609b1b60448201526064016110f9565b6101cb548211156114025760405162461bcd60e51b81526004016110f990615c39565b600061140e8484615c66565b6001600160401b0381111561142557611425615192565b60405190808252806020026020018201604052801561147757816020015b6040805160808101825260008082526020808301829052928201819052606082015282526000199092019101816114435790505b509050835b8381101561151d576101cb818154811061149857611498615a39565b600091825260209182902060408051608081018252600393909302909101805483526001810154938301939093526002909201546001600160a01b03811692820192909252600160a01b90910460ff1615156060820152826114fa8784615c66565b8151811061150a5761150a615a39565b602090810291909101015260010161147c565b509392505050565b600061152f614247565b905090565b6001600160a01b037f000000000000000000000000000000000000000000000000000000000000000016300361157c5760405162461bcd60e51b81526004016110f990615c79565b7f00000000000000000000000000000000000000000000000000000000000000006001600160a01b03166115ae614251565b6001600160a01b0316146115d45760405162461bcd60e51b81526004016110f990615cc5565b6115dd8161426d565b604080516000808252602082019092526115f991839190614275565b50565b600033610ddc81858561160f8383613327565b6116199190615bbd565b6135ca565b6116266136ee565b61162e613fdc565b600061163a83836143e0565b905061164583614455565b6101c8546040517f3e47efa91d5d329f50f04f0b9784b40b63d441ca130a5ddca1865d16e4d612a3916116879185916001600160a01b03169087908690615d11565b60405180910390a1505050565b61169c6136ee565b6111ad6144f5565b6001600160a01b0391821660009081526101686020908152604080832093909416825291909152205490565b6001600160a01b038116600090815261016460205260409020546117065760405162461bcd60e51b81526004016110f990615b16565b60006117128383612a88565b9050806000036117345760405162461bcd60e51b81526004016110f990615b5c565b6001600160a01b038316600090815261016760205260408120805483929061175d908490615bbd565b90915550506001600160a01b0380841660009081526101686020908152604080832093861683529290522080548201905561179983838361452e565b826001600160a01b03167f3be5b7a71e84ed12875d241991c70855ac5817d847039e17a9d895c1ceb0f18a83836040516117d4929190615bd0565b60405180910390a2505050565b6117e96136ee565b6101ce55565b6001600160a01b037f00000000000000000000000000000000000000000000000000000000000000001630036118375760405162461bcd60e51b81526004016110f990615c79565b7f00000000000000000000000000000000000000000000000000000000000000006001600160a01b0316611869614251565b6001600160a01b03161461188f5760405162461bcd60e51b81526004016110f990615cc5565b6118988261426d565b61139a82826001614275565b6118ac613fdc565b60008181526101cf602052604090205433906001600160a01b0316806119315760405162461bcd60e51b815260206004820152603460248201527f6164647265737320686173206e6f74206265656e207365742e2020436c61696d604482015273206e6f6e6578697374656e6365206c696b656c7960601b60648201526084016110f9565b6000196001600160a01b038216016119875760405162461bcd60e51b8152602060048201526019602482015278383630b732ba103430b9903132b2b71037b9383430b732b21760391b60448201526064016110f9565b816001600160a01b0316816001600160a01b031614611a035760405162461bcd60e51b815260206004820152603260248201527f636c61696d206d7573742062652066726f6d20636c61696d616e7473206164646044820152713932b9b99696903234b9b0b63637bbb2b21760711b60648201526084016110f9565b6000611a0f84846143e0565b905080611a765760405162461bcd60e51b815260206004820152602f60248201527f4661696c656420746f2073656e64204e46542e20436865636b20436c61696d6160448201526e1b9d08151bdad95b9259081cd95b9d608a1b60648201526084016110f9565b611a7f84614455565b6101c8546040517f3e47efa91d5d329f50f04f0b9784b40b63d441ca130a5ddca1865d16e4d612a391611ac19186916001600160a01b03169088908690615d11565b60405180910390a150505050565b6000306001600160a01b037f00000000000000000000000000000000000000000000000000000000000000001614611b6a5760405162461bcd60e51b815260206004820152603860248201527f555550535570677261646561626c653a206d757374206e6f742062652063616c6044820152771b1959081d1a1c9bdd59da0819195b1959d85d1958d85b1b60421b60648201526084016110f9565b50600080516020615ee683398151915290565b60606101cb805480602002602001604051908101604052809291908181526020016000905b82821015611c0a576000848152602090819020604080516080810182526003860290920180548352600180820154848601526002909101546001600160a01b03811692840192909252600160a01b90910460ff16151560608301529083529092019101611ba2565b50505050905090565b611c1b6136ee565b6111ad6000614584565b6001600160a01b038116600090815261012f6020526040812054610de2565b611c4c613fdc565b808203611ca75760405162461bcd60e51b815260206004820152602360248201527f4173657875616c20726570726f64756374696f6e206973206e6f7420616c6c6f6044820152621dd95960ea1b60648201526084016110f9565b6000611cb2826145d7565b6101c8546040516331a9108f60e11b8152600481018690529192506000916001600160a01b0390911690636352211e90602401602060405180830381865afa158015611d02573d6000803e3d6000fd5b505050506040513d601f19601f82011682018060405250810190611d269190615d3a565b90506001600160a01b0381163014611db05760405162461bcd60e51b815260206004820152604160248201527f596f75206e65656420746f206c6973742f6465706f7369742074686520706c6160448201527f6e657420796f752061726520747279696e6720746f20627265656420776974686064820152601760f91b608482015260a4016110f9565b60008060005b6101cb54811015611e5d57866101cb8281548110611dd657611dd6615a39565b90600052602060002090600302016000015403611e55576101cb8181548110611e0157611e01615a39565b906000526020600020906003020160020160009054906101000a90046001600160a01b031692506101cb8181548110611e3c57611e3c615a39565b9060005260206000209060030201600001549150611e5d565b600101611db6565b506001600160a01b0382163314611ed15760405162461bcd60e51b815260206004820152603260248201527f596f7520646f206e6f74206f776e2074686520706c616e657420796f7520617260448201527132903a393cb4b733903a3790313932b2b21760711b60648201526084016110f9565b600060646101ce5486611ee49190615d57565b611eee9190615c17565b90506000611efc8287615bbd565b6101d1546040516370a0823160e01b815291925082916001600160a01b03909116906370a0823190611f329033906004016154c2565b602060405180830381865afa158015611f4f573d6000803e3d6000fd5b505050506040513d601f19601f82011682018060405250810190611f739190615818565b1015611fda5760405162461bcd60e51b815260206004820152603060248201527f496e73756666696369656e7420415052532062616c616e636520746f20636f7660448201526f657220707269636520616e642066656560801b60648201526084016110f9565b6101c954341015611fed6101c954614678565b611ff634614678565b604051602001612007929190615d6e565b604051602081830303815290604052906120345760405162461bcd60e51b81526004016110f9919061513e565b5033600080805b6101cb548110156120e2578a6101cb828154811061205b5761205b615a39565b906000526020600020906003020160000154036120da576101cb818154811061208657612086615a39565b906000526020600020906003020160020160009054906101000a90046001600160a01b031692506101cb81815481106120c1576120c1615a39565b90600052602060002090600302016000015491506120e2565b60010161203b565b506101d1546040516323b872dd60e01b81526001600160a01b03909116906323b872dd9061211890339086908e90600401615df3565b6020604051808303816000875af1158015612137573d6000803e3d6000fd5b505050506040513d601f19601f8201168201806040525081019061215b9190615e17565b6121a75760405162461bcd60e51b815260206004820152601e60248201527f4661696c656420746f207472616e73666572204150525320746f6b656e73000060448201526064016110f9565b6101c6546101c954604051634e9e6a0760e01b8152600481018e9052602481018d9052600060448201526001600160a01b0390921691634e9e6a07919060640160206040518083038185885af1158015612205573d6000803e3d6000fd5b50505050506040513d601f19601f8201168201806040525081019061222a9190615818565b5060006040518060e00160405280856001600160a01b031681526020018d8152602001600015158152602001600015158152602001846001600160a01b03168152602001838152602001600081525090506101cd6000856001600160a01b03166001600160a01b0316815260200190815260200160002081908060018154018082558091505060019003906000526020600020906005020160009091909190915060008201518160000160006101000a8154816001600160a01b0302191690836001600160a01b031602179055506020820151816001015560408201518160020160006101000a81548160ff02191690831515021790555060608201518160020160016101000a81548160ff02191690831515021790555060808201518160020160026101000a8154816001600160a01b0302191690836001600160a01b0316021790555060a0820151816003015560c082015181600401555050836101cc60008e815260200190815260200160002060006101000a8154816001600160a01b0302191690836001600160a01b03160217905550826101cc600084815260200190815260200160002060006101000a8154816001600160a01b0302191690836001600160a01b031602179055506101c9543411156124a9576101c95460009033906124159034615c66565b604051600081818185875af1925050503d8060008114612451576040519150601f19603f3d011682016040523d82523d6000602084013e612456565b606091505b50509050806124a75760405162461bcd60e51b815260206004820152601d60248201527f4661696c656420746f20726566756e642065786365737320457468657200000060448201526064016110f9565b505b604080518d81526001600160a01b0386811660208301528183018e90528516606082015290517f8557df6951fbdd47fe9027516fc896be40f285ed55a6acac460352adbab730cd9181900360800190a1505050505050505050505050565b61250f6136ee565b612517613fdc565b6040516370a0823160e01b815284906000906001600160a01b038316906370a08231906125489030906004016154c2565b602060405180830381865afa158015612565573d6000803e3d6000fd5b505050506040513d601f19601f820116820180604052508101906125899190615818565b9050808311156125ab5760405162461bcd60e51b81526004016110f990615be9565b60006125b8600285615c17565b60405163a9059cbb60e01b81529091506001600160a01b0384169063a9059cbb906125e99089908590600401615bd0565b6020604051808303816000875af1158015612608573d6000803e3d6000fd5b505050506040513d601f19601f8201168201806040525081019061262c9190615e17565b6126765760405162461bcd60e51b815260206004820152601b60248201527a151c985b9cd9995c881d1bc81859191c995cdccc4819985a5b1959602a1b60448201526064016110f9565b60405163a9059cbb60e01b81526001600160a01b0384169063a9059cbb906126a49088908590600401615bd0565b6020604051808303816000875af11580156126c3573d6000803e3d6000fd5b505050506040513d601f19601f820116820180604052508101906126e79190615e17565b6127315760405162461bcd60e51b815260206004820152601b60248201527a151c985b9cd9995c881d1bc81859191c995cdccc8819985a5b1959602a1b60448201526064016110f9565b50505050505050565b60006060806000806000606060fb546000801b14801561275a575060fc54155b61279e5760405162461bcd60e51b81526020600482015260156024820152741152540dcc4c8e88155b9a5b9a5d1a585b1a5e9959605a1b60448201526064016110f9565b6127a661470a565b6127ae614719565b60408051600080825260208201909252600f60f81b9b939a50919850469750309650945092509050565b6101ca60205281600052604060002081815481106127f557600080fd5b60009182526020909120600390910201805460018201546002909201549093509091506001600160a01b03811690600160a01b900460ff1684565b6000610166828154811061284657612846615a39565b6000918252602090912001546001600160a01b031692915050565b610194546001600160a01b031690565b606060cd8054610d4b906157e4565b6001600160a01b03166000908152610165602052604090205490565b6128a46136ee565b6128ac613fdc565b6101c9949094556101c680546001600160a01b039687166001600160a01b0319918216179091556101c88054948716948216949094179093556101d18054928616928416929092179091556101d280549185169183169190911790556101d48054929093169116179055565b6000806129256101635490565b61292f9047615bbd565b9050612944838261293f86612880565b614728565b9392505050565b600033816129598286613327565b9050838110156129b95760405162461bcd60e51b815260206004820152602560248201527f45524332303a2064656372656173656420616c6c6f77616e63652062656c6f77604482015264207a65726f60d81b60648201526084016110f9565b61135182868684036135ca565b60405163095ea7b360e01b81526001600160a01b0384169063095ea7b3906129f49085908590600401615bd0565b6020604051808303816000875af1158015612a13573d6000803e3d6000fd5b505050506040513d601f19601f82011682018060405250810190612a379190615e17565b610dfb5760405162461bcd60e51b8152602060048201526014602482015273115490cc8c08185c1c1c9bdd994819985a5b195960621b60448201526064016110f9565b600033610ddc81858561409c565b600080612a94846131c3565b6040516370a0823160e01b81526001600160a01b038616906370a0823190612ac09030906004016154c2565b602060405180830381865afa158015612add573d6000803e3d6000fd5b505050506040513d601f19601f82011682018060405250810190612b019190615818565b612b0b9190615bbd565b90506110bb838261293f87876116a4565b600054610100900460ff1615808015612b3c5750600054600160ff909116105b80612b5d5750612b4b30614768565b158015612b5d575060005460ff166001145b612bc05760405162461bcd60e51b815260206004820152602e60248201527f496e697469616c697a61626c653a20636f6e747261637420697320616c72656160448201526d191e481a5b9a5d1a585b1a5e995960921b60648201526084016110f9565b6000805460ff191660011790558015612be3576000805461ff0019166101001790555b612beb614777565b612bf36147a6565b612bfb6147d5565b612c048261336f565b801561139a576000805461ff0019169055604051600181527f7f26b83ff96e1f2b6a682f133852f6798a09c465da95921460cefb3847402498906020016111a1565b612c4e6136ee565b612c56613fdc565b6101c955565b612c64613fdc565b6101cb548210612c865760405162461bcd60e51b81526004016110f990615c39565b600033905060006101cb8481548110612ca157612ca1615a39565b6000918252602091829020604080516080810182526003909302909101805483526001810154938301939093526002909201546001600160a01b03811692820183905260ff600160a01b909104161515606082015291503314612d0357600080fd5b60408051608081018252825181526101d6546020820152828201516001600160a01b031691810191909152600060608201526101cb805486908110612d4a57612d4a615a39565b600091825260208083208451600390930201918255838101516001830155604080850151600290930180546060909601511515600160a01b026001600160a81b03199096166001600160a01b0390941693909317949094179091556101d6548683526101d590915291812091909155612dc384846143e0565b905080612e1c5760405162461bcd60e51b815260206004820152602160248201527f64654c697374696e67204661696c65642073656e64204e46542070726f6365736044820152607360f81b60648201526084016110f9565b3360009081526101ca602052604090208054612e3a90600190615c66565b81548110612e4a57612e4a615a39565b90600052602060002090600302016101ca6000336001600160a01b03166001600160a01b031681526020019081526020016000208681548110612e8f57612e8f615a39565b60009182526020808320845460039093020191825560018085015490830155600293840180549490920180546001600160a01b031981166001600160a01b039096169586178255925460ff600160a01b91829004161515026001600160a81b0319909316909417919091179092553381526101ca90915260409020805480612f1957612f19615e32565b600082815260208082206003600019909401938402018281556001810183905560020180546001600160a81b0319169055919092558582526101d090526040902080546001600160a01b03191690556101c85482516040517fc6d479c3ed7081a22666733326104ccbbbaccec81902d39e12430505ee2993bd92612fac9287926001600160a01b03909216918690615d11565b60405180910390a15050505050565b612fc36136ee565b612fcb613fdc565b6101c780546001600160a01b0319166001600160a01b0392909216919091179055565b6101d3602052816000526040600020818154811061300b57600080fd5b6000918252602090912060059091020180546001820154600283015460038401546004909401546001600160a01b03938416965091945060ff80821694610100830490911693620100009092049091169187565b834211156130af5760405162461bcd60e51b815260206004820152601d60248201527f45524332305065726d69743a206578706972656420646561646c696e6500000060448201526064016110f9565b60007f6e71edae12b1b97f4d1f60370fef10105fa2faae0126114a169c64845d6126c98888886130de8c6147fc565b6040805160208101969096526001600160a01b0394851690860152929091166060840152608083015260a082015260c0810186905260e001604051602081830303815290604052805190602001209050600061313982614823565b9050600061314982878787614850565b9050896001600160a01b0316816001600160a01b0316146131ac5760405162461bcd60e51b815260206004820152601e60248201527f45524332305065726d69743a20696e76616c6964207369676e6174757265000060448201526064016110f9565b6131b78a8a8a6135ca565b50505050505050505050565b6001600160a01b03166000908152610167602052604090205490565b6001600160a01b03811660009081526101cd60209081526040808320805482518185028101850190935280835260609492939192909184015b828210156132a45760008481526020908190206040805160e0810182526005860290920180546001600160a01b03908116845260018083015485870152600283015460ff80821615159587019590955261010081049094161515606086015262010000909304166080840152600381015460a08401526004015460c08301529083529092019101613218565b505050509050919050565b6101c85460405163e985e9c560e01b81526001600160a01b0384811660048301528381166024830152600092169063e985e9c590604401602060405180830381865afa158015613303573d6000803e3d6000fd5b505050506040513d601f19601f820116820180604052508101906129449190615e17565b6001600160a01b03918216600090815260ca6020908152604080832093909416825291909152205490565b6101cd602052816000526040600020818154811061300b57600080fd5b6133776136ee565b6001600160a01b0381166133dc5760405162461bcd60e51b815260206004820152602660248201527f4f776e61626c653a206e6577206f776e657220697320746865207a65726f206160448201526564647265737360d01b60648201526084016110f9565b6115f981614584565b6001600160a01b03821660009081526101cd60205260408120815b8154811015611238578382828154811061341c5761341c615a39565b9060005260206000209060050201600401540361346d5781818154811061344557613445615a39565b906000526020600020906005020160020160019054906101000a900460ff1692505050610de2565b600101613400565b61347d6136ee565b613485613fdc565b60405163a22cb46560e01b81526001600160a01b0382811660048301526001602483015283169063a22cb465906044015b600060405180830381600087803b1580156134d057600080fd5b505af11580156134e4573d6000803e3d6000fd5b505050505050565b6134f46136ee565b6101c8546040516323b872dd60e01b81526001600160a01b03909116906323b872dd906134b690309085908790600401615df3565b6001600160a01b03811660009081526101ca60209081526040808320805482518185028101850190935280835260609492939192909184015b828210156132a4576000848152602090819020604080516080810182526003860290920180548352600180820154848601526002909101546001600160a01b03811692840192909252600160a01b90910460ff16151560608301529083529092019101613562565b6001600160a01b03831661362c5760405162461bcd60e51b8152602060048201526024808201527f45524332303a20617070726f76652066726f6d20746865207a65726f206164646044820152637265737360e01b60648201526084016110f9565b6001600160a01b03821661368d5760405162461bcd60e51b815260206004820152602260248201527f45524332303a20617070726f766520746f20746865207a65726f206164647265604482015261737360f01b60648201526084016110f9565b6001600160a01b03838116600081815260ca602090815260408083209487168084529482529182902085905590518481527f8c5be1e5ebec7d5bd14f71427d1e84f3dd0314c0f7b2291e5b200ac8c7c3b925910160405180910390a3505050565b336136f7612861565b6001600160a01b0316146111ad5760405162461bcd60e51b815260206004820181905260248201527f4f776e61626c653a2063616c6c6572206973206e6f7420746865206f776e657260448201526064016110f9565b82516020808501518351918401519091906000805b6001600160a01b03861660009081526101cd60205260409020548110156139dd576001600160a01b0386811660009081526101cd60205260409020805491871691839081106137b3576137b3615a39565b60009182526020909120600590910201600201546201000090046001600160a01b031614801561386857506001600160a01b03861660009081526101cd6020526040902080548591908390811061380c5761380c615a39565b90600052602060002090600502016001015414801561386857506001600160a01b03861660009081526101cd6020526040902080548491908390811061385457613854615a39565b906000526020600020906005020160030154145b806138f857506001600160a01b03861660009081526101cd6020526040902080548491908390811061389c5761389c615a39565b9060005260206000209060050201600101541480156138f857506001600160a01b03861660009081526101cd602052604090208054859190839081106138e4576138e4615a39565b906000526020600020906005020160030154145b156139d5576001600160a01b03861660009081526101cd602052604090208054600191908390811061392c5761392c615a39565b906000526020600020906005020160020160016101000a81548160ff021916908315150217905550876101cd6000886001600160a01b03166001600160a01b03168152602001908152602001600020828154811061398c5761398c615a39565b60009182526020808320600592909202909101600401929092558981526101cf9091526040902080546001600160a01b0319166001600160a01b038816179055600191506139dd565b600101613762565b5080613c635760005b6001600160a01b03851660009081526101cd6020526040902054811015613c61576001600160a01b0385811660009081526101cd6020526040902080549188169183908110613a3757613a37615a39565b60009182526020909120600590910201600201546201000090046001600160a01b0316148015613aec57506001600160a01b03851660009081526101cd60205260409020805484919083908110613a9057613a90615a39565b906000526020600020906005020160010154148015613aec57506001600160a01b03851660009081526101cd60205260409020805485919083908110613ad857613ad8615a39565b906000526020600020906005020160030154145b80613b7c57506001600160a01b03851660009081526101cd60205260409020805485919083908110613b2057613b20615a39565b906000526020600020906005020160010154148015613b7c57506001600160a01b03851660009081526101cd60205260409020805484919083908110613b6857613b68615a39565b906000526020600020906005020160030154145b15613c59576001600160a01b03851660009081526101cd6020526040902080546001919083908110613bb057613bb0615a39565b906000526020600020906005020160020160016101000a81548160ff021916908315150217905550876101cd6000876001600160a01b03166001600160a01b031681526020019081526020016000208281548110613c1057613c10615a39565b60009182526020808320600592909202909101600401929092558981526101cf9091526040902080546001600160a01b0319166001600160a01b03871617905560019150613c61565b6001016139e6565b505b80613cca57604080516001600160a01b03808816825286166020820152908101849052606081018390526080810188905281151560a08201527f4250173a81ef84e08a25e027b766e822138dcdecfc85993357ca2605ee258b589060c00160405180910390a15b5050505050505050565b604080516080808201835285825260208083018681526001600160a01b03868116858701818152600160608089018281526101cb8054808501825560009182528b517fe8bbfecd380c4167d6a1f763a233ec73e73f534b1970c4e1683f437ec23c1f4460039283029081019190915589517fe8bbfecd380c4167d6a1f763a233ec73e73f534b1970c4e1683f437ec23c1f4582015586517fe8bbfecd380c4167d6a1f763a233ec73e73f534b1970c4e1683f437ec23c1f4690910180548551928b166001600160a81b031991821617600160a01b9315158402179091558884526101ca8c528e8420805480890182559085528c85208f519190940290930192835599519582019590955594516002909501805492519588169290981691909117931515909202929092179094558a84526101d0855287842080546001600160a01b0319169092179091556101d58452918690208890556101c854865133815291169281019290925293810187905292830185905290917fb30319a217488a3ed441c348e935a48d16091e33109bab0c79a353b9797528839101611ac1565b80471015613ec25760405162461bcd60e51b815260206004820152601d60248201527f416464726573733a20696e73756666696369656e742062616c616e636500000060448201526064016110f9565b6000826001600160a01b03168260405160006040518083038185875af1925050503d8060008114613f0f576040519150601f19603f3d011682016040523d82523d6000602084013e613f14565b606091505b5050905080610dfb5760405162461bcd60e51b815260206004820152603a60248201527f416464726573733a20756e61626c6520746f2073656e642076616c75652c20726044820152791958da5c1a595b9d081b585e481a185d99481c995d995c9d195960321b60648201526084016110f9565b613f90613fdc565b6033805460ff191660011790557f62e78cea01bee320cd4e420270b5ea74000d11b0c9f74754ebdbfc544b05a258613fc53390565b604051613fd291906154c2565b60405180910390a1565b60335460ff16156111ad5760405162461bcd60e51b815260206004820152601060248201526f14185d5cd8589b194e881c185d5cd95960821b60448201526064016110f9565b600061402e8484613327565b9050600019811461409657818110156140895760405162461bcd60e51b815260206004820152601d60248201527f45524332303a20696e73756666696369656e7420616c6c6f77616e636500000060448201526064016110f9565b61409684848484036135ca565b50505050565b6001600160a01b0383166141005760405162461bcd60e51b815260206004820152602560248201527f45524332303a207472616e736665722066726f6d20746865207a65726f206164604482015264647265737360d81b60648201526084016110f9565b6001600160a01b0382166141625760405162461bcd60e51b815260206004820152602360248201527f45524332303a207472616e7366657220746f20746865207a65726f206164647260448201526265737360e81b60648201526084016110f9565b6001600160a01b038316600090815260c96020526040902054818110156141da5760405162461bcd60e51b815260206004820152602660248201527f45524332303a207472616e7366657220616d6f756e7420657863656564732062604482015265616c616e636560d01b60648201526084016110f9565b6001600160a01b03808516600081815260c9602052604080822086860390559286168082529083902080548601905591517fddf252ad1be2c89b69c2b068fc378daa952ba7f163c4a11628f55a4df523b3ef9061423a9086815260200190565b60405180910390a3614096565b600061152f614878565b600080516020615ee6833981519152546001600160a01b031690565b6115f96136ee565b7f4910fdfa16fed3260ed0e7147f7cc6da11a60208b5b9406d12a635614ffd91435460ff16156142a857610dfb836148ec565b826001600160a01b03166352d1902d6040518163ffffffff1660e01b8152600401602060405180830381865afa925050508015614302575060408051601f3d908101601f191682019092526142ff91810190615818565b60015b6143655760405162461bcd60e51b815260206004820152602e60248201527f45524331393637557067726164653a206e657720696d706c656d656e7461746960448201526d6f6e206973206e6f74205555505360901b60648201526084016110f9565b600080516020615ee683398151915281146143d45760405162461bcd60e51b815260206004820152602960248201527f45524331393637557067726164653a20756e737570706f727465642070726f786044820152681a58589b195555525160ba1b60648201526084016110f9565b50610dfb838383614986565b6101c854604051632142170760e11b81526000916001600160a01b0316906342842e0e9061441690309086908890600401615df3565b600060405180830381600087803b15801561443057600080fd5b505af1925050508015614441575060015b61444d57506000610de2565b506001610de2565b60008181526101cf60209081526040808320546001600160a01b03168084526101cd909252822090915b8154811015614096578382828154811061449b5761449b615a39565b906000526020600020906005020160040154036144ed5760018282815481106144c6576144c6615a39565b60009182526020909120600590910201600201805460ff1916911515919091179055614096565b60010161447f565b6144fd6149ab565b6033805460ff191690557f5db9ee0a495bf2e6ff9c91a7834c1ba4fdd244a5e8aa4e537bd38aeae4b073aa33613fc5565b610dfb8363a9059cbb60e01b848460405160240161454d929190615bd0565b60408051601f198184030181529190526020810180516001600160e01b03166001600160e01b0319909316929092179091526149f4565b61019480546001600160a01b038381166001600160a01b0319831681179093556040519116919082907f8be0079c531659141344cd1fd0a4f28419497f9722a3daafe3b4186f6b6457e090600090a35050565b60006145e1613fdc565b60005b6101cb5481101561467157826101cb828154811061460457614604615a39565b90600052602060002090600302016000015403614649576101cb818154811061462f5761462f615a39565b906000526020600020906003020160010154915050919050565b6101cb5461465990600190615c66565b8103614669575060001992915050565b6001016145e4565b505b919050565b6060600061468583614ac9565b60010190506000816001600160401b038111156146a4576146a4615192565b6040519080825280601f01601f1916602001820160405280156146ce576020820181803683370190505b5090508181016020015b600019016f181899199a1a9b1b9c1cb0b131b232b360811b600a86061a8153600a85049450846146d857509392505050565b606060fd8054610d4b906157e4565b606060fe8054610d4b906157e4565b610162546001600160a01b03841660009081526101646020526040812054909183916147549086615d57565b61475e9190615c17565b6110bb9190615c66565b6001600160a01b03163b151590565b600054610100900460ff1661479e5760405162461bcd60e51b81526004016110f990615e48565b6111ad614b9f565b600054610100900460ff166147cd5760405162461bcd60e51b81526004016110f990615e48565b6111ad614bcf565b600054610100900460ff166111ad5760405162461bcd60e51b81526004016110f990615e48565b6001600160a01b038116600090815261012f60205260409020805460018101825590614671565b6000610de2614830614247565b8360405161190160f01b8152600281019290925260228201526042902090565b600080600061486187878787614c02565b9150915061486e81614cbc565b5095945050505050565b60007f8b73c3c69bb8fe3d512ecc4cf759cc79239f7b179b0ffacaa9a75d522b39400f6148a3614e01565b6148ab614e5a565b60408051602081019490945283019190915260608201524660808201523060a082015260c00160405160208183030381529060405280519060200120905090565b6148f581614768565b6149575760405162461bcd60e51b815260206004820152602d60248201527f455243313936373a206e657720696d706c656d656e746174696f6e206973206e60448201526c1bdd08184818dbdb9d1c9858dd609a1b60648201526084016110f9565b600080516020615ee683398151915280546001600160a01b0319166001600160a01b0392909216919091179055565b61498f83614e8b565b60008251118061499c5750805b15610dfb576140968383614ecb565b60335460ff166111ad5760405162461bcd60e51b815260206004820152601460248201527314185d5cd8589b194e881b9bdd081c185d5cd95960621b60448201526064016110f9565b6000614a49826040518060400160405280602081526020017f5361666545524332303a206c6f772d6c6576656c2063616c6c206661696c6564815250856001600160a01b0316614ef09092919063ffffffff16565b9050805160001480614a6a575080806020019051810190614a6a9190615e17565b610dfb5760405162461bcd60e51b815260206004820152602a60248201527f5361666545524332303a204552433230206f7065726174696f6e20646964206e6044820152691bdd081cdd58d8d9595960b21b60648201526084016110f9565b60008072184f03e93ff9f4daa797ed6e38ed64bf6a1f0160401b8310614b085772184f03e93ff9f4daa797ed6e38ed64bf6a1f0160401b830492506040015b6904ee2d6d415b85acef8160201b8310614b32576904ee2d6d415b85acef8160201b830492506020015b662386f26fc100008310614b5057662386f26fc10000830492506010015b6305f5e1008310614b68576305f5e100830492506008015b6127108310614b7c57612710830492506004015b60648310614b8e576064830492506002015b600a8310610de25760010192915050565b600054610100900460ff16614bc65760405162461bcd60e51b81526004016110f990615e48565b6111ad33614584565b600054610100900460ff16614bf65760405162461bcd60e51b81526004016110f990615e48565b6033805460ff19169055565b6000806fa2a8918ca85bafe22016d0b997e4df60600160ff1b03831115614c2f5750600090506003614cb3565b6040805160008082526020820180845289905260ff881692820192909252606081018690526080810185905260019060a0016020604051602081039080840390855afa158015614c83573d6000803e3d6000fd5b5050604051601f1901519150506001600160a01b038116614cac57600060019250925050614cb3565b9150600090505b94509492505050565b6000816004811115614cd057614cd0615e93565b03614cd85750565b6001816004811115614cec57614cec615e93565b03614d345760405162461bcd60e51b815260206004820152601860248201527745434453413a20696e76616c6964207369676e617475726560401b60448201526064016110f9565b6002816004811115614d4857614d48615e93565b03614d955760405162461bcd60e51b815260206004820152601f60248201527f45434453413a20696e76616c6964207369676e6174757265206c656e6774680060448201526064016110f9565b6003816004811115614da957614da9615e93565b036115f95760405162461bcd60e51b815260206004820152602260248201527f45434453413a20696e76616c6964207369676e6174757265202773272076616c604482015261756560f01b60648201526084016110f9565b600080614e0c61470a565b805190915015614e23578051602090910120919050565b60fb548015614e325792915050565b7fc5d2460186f7233c927e7db2dcc703c0e500b653ca82273b7bfad8045d85a4709250505090565b600080614e65614719565b805190915015614e7c578051602090910120919050565b60fc548015614e325792915050565b614e94816148ec565b6040516001600160a01b038216907fbc7cd75a20ee27fd9adebab32041f755214dbc6bffa90cc0225b39da2e5c2d3b90600090a250565b60606129448383604051806060016040528060278152602001615f0660279139614eff565b60606110bb8484600085614f77565b6060600080856001600160a01b031685604051614f1c9190615ea9565b600060405180830381855af49150503d8060008114614f57576040519150601f19603f3d011682016040523d82523d6000602084013e614f5c565b606091505b5091509150614f6d86838387615052565b9695505050505050565b606082471015614fd85760405162461bcd60e51b815260206004820152602660248201527f416464726573733a20696e73756666696369656e742062616c616e636520666f6044820152651c8818d85b1b60d21b60648201526084016110f9565b600080866001600160a01b03168587604051614ff49190615ea9565b60006040518083038185875af1925050503d8060008114615031576040519150601f19603f3d011682016040523d82523d6000602084013e615036565b606091505b509150915061504787838387615052565b979650505050505050565b606083156150bf5782516000036150b85761506c85614768565b6150b85760405162461bcd60e51b815260206004820152601d60248201527f416464726573733a2063616c6c20746f206e6f6e2d636f6e747261637400000060448201526064016110f9565b50816110bb565b6110bb83838151156150d45781518083602001fd5b8060405162461bcd60e51b81526004016110f9919061513e565b60005b838110156151095781810151838201526020016150f1565b50506000910152565b6000815180845261512a8160208601602086016150ee565b601f01601f19169290920160200192915050565b6020815260006129446020830184615112565b6001600160a01b03811681146115f957600080fd5b6000806040838503121561517957600080fd5b823561518481615151565b946020939093013593505050565b634e487b7160e01b600052604160045260246000fd5b60405161016081016001600160401b03811182821017156151cb576151cb615192565b60405290565b604080519081016001600160401b03811182821017156151cb576151cb615192565b604051601f8201601f191681016001600160401b038111828210171561521b5761521b615192565b604052919050565b600080600060a0848603121561523857600080fd5b84601f85011261524757600080fd5b61524f6151d1565b80604086018781111561526157600080fd5b865b8181101561528457803561527681615151565b845260209384019301615263565b5090945035925050607f8401851361529b57600080fd5b6152a36151d1565b8060a08601878111156152b557600080fd5b606087015b818110156152d25780358452602093840193016152ba565b505080925050509250925092565b600082601f8301126152f157600080fd5b81356001600160401b0381111561530a5761530a615192565b61531d601f8201601f19166020016151f3565b81815284602083860101111561533257600080fd5b816020850160208301376000918101602001919091529392505050565b6000806000806080858703121561536557600080fd5b843561537081615151565b9350602085013561538081615151565b92506040850135915060608501356001600160401b038111156153a257600080fd5b6153ae878288016152e0565b91505092959194509250565b6000602082840312156153cc57600080fd5b813561294481615151565b6000806000606084860312156153ec57600080fd5b83356153f781615151565b9250602084013561540781615151565b929592945050506040919091013590565b6000806040838503121561542b57600080fd5b50508035926020909101359150565b602080825282518282018190526000919060409081850190868401855b8281101561549c578151805185528681015187860152858101516001600160a01b03168686015260609081015115159085015260809093019290850190600101615457565b5091979650505050505050565b6000602082840312156154bb57600080fd5b5035919050565b6001600160a01b0391909116815260200190565b600080604083850312156154e957600080fd5b8235915060208301356154fb81615151565b809150509250929050565b6000806040838503121561551957600080fd5b823561552481615151565b915060208301356154fb81615151565b6000806040838503121561554757600080fd5b823561555281615151565b915060208301356001600160401b0381111561556d57600080fd5b615579858286016152e0565b9150509250929050565b6000806000806080858703121561559957600080fd5b84356155a481615151565b935060208501356155b481615151565b925060408501356155c481615151565b9396929550929360600135925050565b60ff60f81b881681526000602060e060208401526155f560e084018a615112565b8381036040850152615607818a615112565b606085018990526001600160a01b038816608086015260a0850187905284810360c08601528551808252602080880193509091019060005b8181101561565b5783518352928401929184019160010161563f565b50909c9b505050505050505050505050565b60008060008060008060c0878903121561568657600080fd5b863561569181615151565b95506020870135945060408701356156a881615151565b935060608701356156b881615151565b925060808701356156c881615151565b915060a08701356156d881615151565b809150509295509295509295565b600080600080600080600060e0888a03121561570157600080fd5b873561570c81615151565b9650602088013561571c81615151565b95506040880135945060608801359350608088013560ff8116811461574057600080fd5b9699959850939692959460a0840135945060c09093013592915050565b602080825282518282018190526000919060409081850190868401855b8281101561549c57815180516001600160a01b0390811686528782015188870152868201511515878701526060808301511515908701526080808301519091169086015260a0808201519086015260c0908101519085015260e0909301929085019060010161577a565b600181811c908216806157f857607f821691505b60208210810361467157634e487b7160e01b600052602260045260246000fd5b60006020828403121561582a57600080fd5b5051919050565b6001600160a01b038581168252841660208201526040810183905260a06060820181905260009061586490830184615112565b8281036080840152600e81526d1b1a5cdd1a5b99c81c1b185b995d60921b60208201526040810191505095945050505050565b600082601f8301126158a857600080fd5b815160206001600160401b038211156158c3576158c3615192565b8160051b6158d28282016151f3565b92835284810182019282810190878511156158ec57600080fd5b83870192505b84831015615047578251825291830191908301906158f2565b8051801515811461467357600080fd5b6000806040838503121561592e57600080fd5b82516001600160401b038082111561594557600080fd5b90840190610160828703121561595a57600080fd5b6159626151a8565b825181526020830151602082015260408301516040820152606083015160608201526080830151608082015260a083015160a082015260c083015160c082015260e083015160e082015261010080840151838111156159c057600080fd5b6159cc89828701615897565b82840152505061012080840151838111156159e657600080fd5b6159f289828701615897565b8284015250506101408084015183811115615a0c57600080fd5b615a1889828701615897565b828401525050809450505050615a306020840161590b565b90509250929050565b634e487b7160e01b600052603260045260246000fd5b6001600160a01b038581168252841660208201526040810183905260a060608201819052600090615a8290830184615112565b8281036080840152600a8152691b995dc81c1b185b995d60b21b60208201526040810191505095945050505050565b6001600160a01b038581168252841660208201526040810183905260a060608201819052600090615ae490830184615112565b8281036080840152600d81526c1d5b98d85d1959dbdc9a5e9959609a1b60208201526040810191505095945050505050565b60208082526026908201527f5061796d656e7453706c69747465723a206163636f756e7420686173206e6f2060408201526573686172657360d01b606082015260800190565b6020808252602b908201527f5061796d656e7453706c69747465723a206163636f756e74206973206e6f742060408201526a191d59481c185e5b595b9d60aa1b606082015260800190565b634e487b7160e01b600052601160045260246000fd5b80820180821115610de257610de2615ba7565b6001600160a01b03929092168252602082015260400190565b602080825260149082015273496e73756666696369656e742062616c616e636560601b604082015260600190565b600082615c3457634e487b7160e01b600052601260045260246000fd5b500490565b602080825260139082015272496e646578206f7574206f6620626f756e647360681b604082015260600190565b81810381811115610de257610de2615ba7565b6020808252602c908201527f46756e6374696f6e206d7573742062652063616c6c6564207468726f7567682060408201526b19195b1959d85d1958d85b1b60a21b606082015260800190565b6020808252602c908201527f46756e6374696f6e206d7573742062652063616c6c6564207468726f7567682060408201526b6163746976652070726f787960a01b606082015260800190565b6001600160a01b0394851681529290931660208301526040820152901515606082015260800190565b600060208284031215615d4c57600080fd5b815161294481615151565b8082028115828204841417610de257610de2615ba7565b7f496e73756666696369656e742066756e647320746f20636f766572205652462081526f031b7b9ba17102932b8bab4b932b21d160851b602082015260008351615dbf8160308501602088016150ee565b670161029b2b73a1d160c51b6030918401918201528351615de78160388401602088016150ee565b01603801949350505050565b6001600160a01b039384168152919092166020820152604081019190915260600190565b600060208284031215615e2957600080fd5b6129448261590b565b634e487b7160e01b600052603160045260246000fd5b6020808252602b908201527f496e697469616c697a61626c653a20636f6e7472616374206973206e6f74206960408201526a6e697469616c697a696e6760a81b606082015260800190565b634e487b7160e01b600052602160045260246000fd5b60008251615ebb8184602087016150ee565b919091019291505056fe13c6ec2a463a35f898a457814a782f1f567808293fa783a31fa4dac8868e6011360894a13ba1a3210667c828492db98dca3e2076cc3735a920a3ca505d382bbc416464726573733a206c6f772d6c6576656c2064656c65676174652063616c6c206661696c6564a264697066735822122040655929f633771fc6c1abca0d3410dd9a22a4ba1db630ceb337f07564cf8ca464736f6c63430008180033",
  "linkReferences": {},
  "deployedLinkReferences": {}
}