{
  "_format": "hh-sol-artifact-1",
  "contractName": "HatcherV2",
  "sourceName": "contracts/HatcherV2.sol",
  "abi": [
    {
      "inputs": [],
      "name": "Unauthorized",
      "type": "error"
    },
    {
      "anonymous": false,
      "inputs": [
        {
          "indexed": false,
          "internalType": "address",
          "name": "previousAdmin",
          "type": "address"
        },
        {
          "indexed": false,
          "internalType": "address",
          "name": "newAdmin",
          "type": "address"
        }
      ],
      "name": "AdminChanged",
      "type": "event"
    },
    {
      "anonymous": false,
      "inputs": [
        {
          "indexed": true,
          "internalType": "address",
          "name": "owner",
          "type": "address"
        },
        {
          "indexed": true,
          "internalType": "address",
          "name": "spender",
          "type": "address"
        },
        {
          "indexed": false,
          "internalType": "uint256",
          "name": "value",
          "type": "uint256"
        }
      ],
      "name": "Approval",
      "type": "event"
    },
    {
      "anonymous": false,
      "inputs": [
        {
          "indexed": true,
          "internalType": "address",
          "name": "beacon",
          "type": "address"
        }
      ],
      "name": "BeaconUpgraded",
      "type": "event"
    },
    {
      "anonymous": false,
      "inputs": [
        {
          "indexed": false,
          "internalType": "address",
          "name": "sentToUser",
          "type": "address"
        },
        {
          "indexed": false,
          "internalType": "address",
          "name": "token",
          "type": "address"
        },
        {
          "indexed": false,
          "internalType": "uint256",
          "name": "tokenId",
          "type": "uint256"
        }
      ],
      "name": "DeClaimedAPlanet",
      "type": "event"
    },
    {
      "anonymous": false,
      "inputs": [
        {
          "indexed": false,
          "internalType": "address",
          "name": "sentToUser",
          "type": "address"
        },
        {
          "indexed": false,
          "internalType": "address",
          "name": "token",
          "type": "address"
        },
        {
          "indexed": false,
          "internalType": "uint256",
          "name": "tokenId",
          "type": "uint256"
        }
      ],
      "name": "DeListedAPlanet",
      "type": "event"
    },
    {
      "anonymous": false,
      "inputs": [],
      "name": "EIP712DomainChanged",
      "type": "event"
    },
    {
      "anonymous": false,
      "inputs": [
        {
          "indexed": true,
          "internalType": "contract IERC20Upgradeable",
          "name": "token",
          "type": "address"
        },
        {
          "indexed": false,
          "internalType": "address",
          "name": "to",
          "type": "address"
        },
        {
          "indexed": false,
          "internalType": "uint256",
          "name": "amount",
          "type": "uint256"
        }
      ],
      "name": "ERC20PaymentReleased",
      "type": "event"
    },
    {
      "anonymous": false,
      "inputs": [
        {
          "indexed": false,
          "internalType": "uint8",
          "name": "version",
          "type": "uint8"
        }
      ],
      "name": "Initialized",
      "type": "event"
    },
    {
      "anonymous": false,
      "inputs": [
        {
          "indexed": false,
          "internalType": "address",
          "name": "sentFromUser",
          "type": "address"
        },
        {
          "indexed": false,
          "internalType": "address",
          "name": "token",
          "type": "address"
        },
        {
          "indexed": false,
          "internalType": "uint256",
          "name": "tokenId",
          "type": "uint256"
        },
        {
          "indexed": false,
          "internalType": "uint256",
          "name": "price",
          "type": "uint256"
        }
      ],
      "name": "ListedAPlanet",
      "type": "event"
    },
    {
      "anonymous": false,
      "inputs": [
        {
          "indexed": false,
          "internalType": "address",
          "name": "operator",
          "type": "address"
        },
        {
          "indexed": false,
          "internalType": "address",
          "name": "from",
          "type": "address"
        },
        {
          "indexed": false,
          "internalType": "uint256",
          "name": "tokenId",
          "type": "uint256"
        },
        {
          "indexed": false,
          "internalType": "bytes",
          "name": "data",
          "type": "bytes"
        },
        {
          "indexed": false,
          "internalType": "string",
          "name": "typeOfReceival",
          "type": "string"
        }
      ],
      "name": "NftReceived",
      "type": "event"
    },
    {
      "anonymous": false,
      "inputs": [
        {
          "indexed": true,
          "internalType": "address",
          "name": "previousOwner",
          "type": "address"
        },
        {
          "indexed": true,
          "internalType": "address",
          "name": "newOwner",
          "type": "address"
        }
      ],
      "name": "OwnershipTransferred",
      "type": "event"
    },
    {
      "anonymous": false,
      "inputs": [
        {
          "indexed": false,
          "internalType": "address",
          "name": "account",
          "type": "address"
        }
      ],
      "name": "Paused",
      "type": "event"
    },
    {
      "anonymous": false,
      "inputs": [
        {
          "indexed": false,
          "internalType": "address",
          "name": "account",
          "type": "address"
        },
        {
          "indexed": false,
          "internalType": "uint256",
          "name": "shares",
          "type": "uint256"
        }
      ],
      "name": "PayeeAdded",
      "type": "event"
    },
    {
      "anonymous": false,
      "inputs": [
        {
          "indexed": false,
          "internalType": "address",
          "name": "from",
          "type": "address"
        },
        {
          "indexed": false,
          "internalType": "uint256",
          "name": "amount",
          "type": "uint256"
        }
      ],
      "name": "PaymentReceived",
      "type": "event"
    },
    {
      "anonymous": false,
      "inputs": [
        {
          "indexed": false,
          "internalType": "address",
          "name": "to",
          "type": "address"
        },
        {
          "indexed": false,
          "internalType": "uint256",
          "name": "amount",
          "type": "uint256"
        }
      ],
      "name": "PaymentReleased",
      "type": "event"
    },
    {
      "anonymous": false,
      "inputs": [
        {
          "indexed": false,
          "internalType": "uint256",
          "name": "planetAsking",
          "type": "uint256"
        },
        {
          "indexed": false,
          "internalType": "address",
          "name": "askingUser",
          "type": "address"
        },
        {
          "indexed": false,
          "internalType": "uint256",
          "name": "planetJoining",
          "type": "uint256"
        },
        {
          "indexed": false,
          "internalType": "address",
          "name": "joiningUser",
          "type": "address"
        }
      ],
      "name": "PlanetsConjoining",
      "type": "event"
    },
    {
      "anonymous": false,
      "inputs": [
        {
          "indexed": true,
          "internalType": "address",
          "name": "from",
          "type": "address"
        },
        {
          "indexed": true,
          "internalType": "address",
          "name": "to",
          "type": "address"
        },
        {
          "indexed": false,
          "internalType": "uint256",
          "name": "value",
          "type": "uint256"
        }
      ],
      "name": "Transfer",
      "type": "event"
    },
    {
      "anonymous": false,
      "inputs": [
        {
          "indexed": false,
          "internalType": "address",
          "name": "account",
          "type": "address"
        }
      ],
      "name": "Unpaused",
      "type": "event"
    },
    {
      "anonymous": false,
      "inputs": [
        {
          "indexed": true,
          "internalType": "address",
          "name": "implementation",
          "type": "address"
        }
      ],
      "name": "Upgraded",
      "type": "event"
    },
    {
      "stateMutability": "payable",
      "type": "fallback"
    },
    {
      "inputs": [],
      "name": "DOMAIN_SEPARATOR",
      "outputs": [
        {
          "internalType": "bytes32",
          "name": "",
          "type": "bytes32"
        }
      ],
      "stateMutability": "view",
      "type": "function"
    },
    {
      "inputs": [
        {
          "internalType": "address",
          "name": "owner",
          "type": "address"
        },
        {
          "internalType": "address",
          "name": "spender",
          "type": "address"
        }
      ],
      "name": "allowance",
      "outputs": [
        {
          "internalType": "uint256",
          "name": "",
          "type": "uint256"
        }
      ],
      "stateMutability": "view",
      "type": "function"
    },
    {
      "inputs": [
        {
          "internalType": "address",
          "name": "spender",
          "type": "address"
        },
        {
          "internalType": "uint256",
          "name": "amount",
          "type": "uint256"
        }
      ],
      "name": "approve",
      "outputs": [
        {
          "internalType": "bool",
          "name": "",
          "type": "bool"
        }
      ],
      "stateMutability": "nonpayable",
      "type": "function"
    },
    {
      "inputs": [
        {
          "internalType": "contract IERC721",
          "name": "token",
          "type": "address"
        },
        {
          "internalType": "address",
          "name": "operator",
          "type": "address"
        }
      ],
      "name": "approveAllERC721Tokens",
      "outputs": [],
      "stateMutability": "nonpayable",
      "type": "function"
    },
    {
      "inputs": [
        {
          "internalType": "contract IERC20",
          "name": "token",
          "type": "address"
        },
        {
          "internalType": "address",
          "name": "spender",
          "type": "address"
        },
        {
          "internalType": "uint256",
          "name": "amount",
          "type": "uint256"
        }
      ],
      "name": "approveERC20",
      "outputs": [],
      "stateMutability": "nonpayable",
      "type": "function"
    },
    {
      "inputs": [
        {
          "internalType": "address",
          "name": "account",
          "type": "address"
        }
      ],
      "name": "balanceOf",
      "outputs": [
        {
          "internalType": "uint256",
          "name": "",
          "type": "uint256"
        }
      ],
      "stateMutability": "view",
      "type": "function"
    },
    {
      "inputs": [],
      "name": "breedContract",
      "outputs": [
        {
          "internalType": "contract IBreedContract",
          "name": "",
          "type": "address"
        }
      ],
      "stateMutability": "view",
      "type": "function"
    },
    {
      "inputs": [
        {
          "internalType": "uint256",
          "name": "newVRF",
          "type": "uint256"
        }
      ],
      "name": "changeVRFValue",
      "outputs": [],
      "stateMutability": "nonpayable",
      "type": "function"
    },
    {
      "inputs": [
        {
          "internalType": "address",
          "name": "owner",
          "type": "address"
        },
        {
          "internalType": "address",
          "name": "operator",
          "type": "address"
        }
      ],
      "name": "checkApprovalForAll",
      "outputs": [
        {
          "internalType": "bool",
          "name": "",
          "type": "bool"
        }
      ],
      "stateMutability": "view",
      "type": "function"
    },
    {
      "inputs": [
        {
          "internalType": "uint256",
          "name": "claimableTokenId",
          "type": "uint256"
        }
      ],
      "name": "claimPlanet",
      "outputs": [],
      "stateMutability": "nonpayable",
      "type": "function"
    },
    {
      "inputs": [
        {
          "internalType": "address",
          "name": "",
          "type": "address"
        },
        {
          "internalType": "uint256",
          "name": "",
          "type": "uint256"
        }
      ],
      "name": "claimablePlanets",
      "outputs": [
        {
          "internalType": "address",
          "name": "ownerParentAddress",
          "type": "address"
        },
        {
          "internalType": "uint256",
          "name": "ownerTokenId",
          "type": "uint256"
        },
        {
          "internalType": "bool",
          "name": "delivered",
          "type": "bool"
        },
        {
          "internalType": "bool",
          "name": "arrived",
          "type": "bool"
        },
        {
          "internalType": "address",
          "name": "otherParent",
          "type": "address"
        },
        {
          "internalType": "uint256",
          "name": "otherTokenId",
          "type": "uint256"
        },
        {
          "internalType": "uint256",
          "name": "claimsTokenId",
          "type": "uint256"
        }
      ],
      "stateMutability": "view",
      "type": "function"
    },
    {
      "inputs": [
        {
          "internalType": "uint256",
          "name": "",
          "type": "uint256"
        }
      ],
      "name": "claimantTokenIdToOwnerAddress",
      "outputs": [
        {
          "internalType": "address",
          "name": "",
          "type": "address"
        }
      ],
      "stateMutability": "view",
      "type": "function"
    },
    {
      "inputs": [
        {
          "internalType": "uint256",
          "name": "yourPlanet",
          "type": "uint256"
        },
        {
          "internalType": "uint256",
          "name": "withListedPlanet",
          "type": "uint256"
        }
      ],
      "name": "conjunct",
      "outputs": [],
      "stateMutability": "payable",
      "type": "function"
    },
    {
      "inputs": [
        {
          "internalType": "uint256",
          "name": "idIndex",
          "type": "uint256"
        },
        {
          "internalType": "uint256",
          "name": "tokenId",
          "type": "uint256"
        }
      ],
      "name": "deList",
      "outputs": [],
      "stateMutability": "nonpayable",
      "type": "function"
    },
    {
      "inputs": [],
      "name": "deListAllYourPlanets",
      "outputs": [],
      "stateMutability": "nonpayable",
      "type": "function"
    },
    {
      "inputs": [],
      "name": "decimals",
      "outputs": [
        {
          "internalType": "uint8",
          "name": "",
          "type": "uint8"
        }
      ],
      "stateMutability": "view",
      "type": "function"
    },
    {
      "inputs": [
        {
          "internalType": "address",
          "name": "spender",
          "type": "address"
        },
        {
          "internalType": "uint256",
          "name": "subtractedValue",
          "type": "uint256"
        }
      ],
      "name": "decreaseAllowance",
      "outputs": [
        {
          "internalType": "bool",
          "name": "",
          "type": "bool"
        }
      ],
      "stateMutability": "nonpayable",
      "type": "function"
    },
    {
      "inputs": [],
      "name": "eip712Domain",
      "outputs": [
        {
          "internalType": "bytes1",
          "name": "fields",
          "type": "bytes1"
        },
        {
          "internalType": "string",
          "name": "name",
          "type": "string"
        },
        {
          "internalType": "string",
          "name": "version",
          "type": "string"
        },
        {
          "internalType": "uint256",
          "name": "chainId",
          "type": "uint256"
        },
        {
          "internalType": "address",
          "name": "verifyingContract",
          "type": "address"
        },
        {
          "internalType": "bytes32",
          "name": "salt",
          "type": "bytes32"
        },
        {
          "internalType": "uint256[]",
          "name": "extensions",
          "type": "uint256[]"
        }
      ],
      "stateMutability": "view",
      "type": "function"
    },
    {
      "inputs": [],
      "name": "getAllPlanets",
      "outputs": [
        {
          "components": [
            {
              "internalType": "uint256",
              "name": "tokenId",
              "type": "uint256"
            },
            {
              "internalType": "uint256",
              "name": "price",
              "type": "uint256"
            },
            {
              "internalType": "address",
              "name": "ownerAddress",
              "type": "address"
            },
            {
              "internalType": "bool",
              "name": "active",
              "type": "bool"
            }
          ],
          "internalType": "struct ListedPlanet[]",
          "name": "",
          "type": "tuple[]"
        }
      ],
      "stateMutability": "view",
      "type": "function"
    },
    {
      "inputs": [
        {
          "internalType": "address",
          "name": "userAddr",
          "type": "address"
        }
      ],
      "name": "getClaimablePlanetsFor",
      "outputs": [
        {
          "components": [
            {
              "internalType": "address",
              "name": "ownerParentAddress",
              "type": "address"
            },
            {
              "internalType": "uint256",
              "name": "ownerTokenId",
              "type": "uint256"
            },
            {
              "internalType": "bool",
              "name": "delivered",
              "type": "bool"
            },
            {
              "internalType": "bool",
              "name": "arrived",
              "type": "bool"
            },
            {
              "internalType": "address",
              "name": "otherParent",
              "type": "address"
            },
            {
              "internalType": "uint256",
              "name": "otherTokenId",
              "type": "uint256"
            },
            {
              "internalType": "uint256",
              "name": "claimsTokenId",
              "type": "uint256"
            }
          ],
          "internalType": "struct ClaimablePlanet[]",
          "name": "",
          "type": "tuple[]"
        }
      ],
      "stateMutability": "view",
      "type": "function"
    },
    {
      "inputs": [
        {
          "internalType": "uint256",
          "name": "claimableTokenId",
          "type": "uint256"
        }
      ],
      "name": "getClaimantTokenIdToOwnerAddress",
      "outputs": [
        {
          "internalType": "address",
          "name": "",
          "type": "address"
        }
      ],
      "stateMutability": "view",
      "type": "function"
    },
    {
      "inputs": [
        {
          "internalType": "uint256",
          "name": "startIndex",
          "type": "uint256"
        },
        {
          "internalType": "uint256",
          "name": "endIndex",
          "type": "uint256"
        }
      ],
      "name": "getPlanetsPaginated",
      "outputs": [
        {
          "components": [
            {
              "internalType": "uint256",
              "name": "tokenId",
              "type": "uint256"
            },
            {
              "internalType": "uint256",
              "name": "price",
              "type": "uint256"
            },
            {
              "internalType": "address",
              "name": "ownerAddress",
              "type": "address"
            },
            {
              "internalType": "bool",
              "name": "active",
              "type": "bool"
            }
          ],
          "internalType": "struct ListedPlanet[]",
          "name": "",
          "type": "tuple[]"
        }
      ],
      "stateMutability": "view",
      "type": "function"
    },
    {
      "inputs": [
        {
          "internalType": "address",
          "name": "userAddr",
          "type": "address"
        }
      ],
      "name": "getuserToListedPlanets",
      "outputs": [
        {
          "components": [
            {
              "internalType": "uint256",
              "name": "tokenId",
              "type": "uint256"
            },
            {
              "internalType": "uint256",
              "name": "price",
              "type": "uint256"
            },
            {
              "internalType": "address",
              "name": "ownerAddress",
              "type": "address"
            },
            {
              "internalType": "bool",
              "name": "active",
              "type": "bool"
            }
          ],
          "internalType": "struct ListedPlanet[]",
          "name": "",
          "type": "tuple[]"
        }
      ],
      "stateMutability": "view",
      "type": "function"
    },
    {
      "inputs": [
        {
          "internalType": "address",
          "name": "owner",
          "type": "address"
        },
        {
          "internalType": "uint256",
          "name": "tokenId",
          "type": "uint256"
        }
      ],
      "name": "hasPlanetArrived",
      "outputs": [
        {
          "internalType": "bool",
          "name": "arrived",
          "type": "bool"
        }
      ],
      "stateMutability": "view",
      "type": "function"
    },
    {
      "inputs": [
        {
          "internalType": "address",
          "name": "owner",
          "type": "address"
        },
        {
          "internalType": "uint256",
          "name": "tokenId",
          "type": "uint256"
        }
      ],
      "name": "hasPlanetBeenDelivered",
      "outputs": [
        {
          "internalType": "bool",
          "name": "delivered",
          "type": "bool"
        }
      ],
      "stateMutability": "view",
      "type": "function"
    },
    {
      "inputs": [
        {
          "internalType": "address",
          "name": "spender",
          "type": "address"
        },
        {
          "internalType": "uint256",
          "name": "addedValue",
          "type": "uint256"
        }
      ],
      "name": "increaseAllowance",
      "outputs": [
        {
          "internalType": "bool",
          "name": "",
          "type": "bool"
        }
      ],
      "stateMutability": "nonpayable",
      "type": "function"
    },
    {
      "inputs": [
        {
          "internalType": "address",
          "name": "initialOwner",
          "type": "address"
        }
      ],
      "name": "initialize",
      "outputs": [],
      "stateMutability": "nonpayable",
      "type": "function"
    },
    {
      "inputs": [],
      "name": "listAllYourPlanets",
      "outputs": [],
      "stateMutability": "nonpayable",
      "type": "function"
    },
    {
      "inputs": [],
      "name": "name",
      "outputs": [
        {
          "internalType": "string",
          "name": "",
          "type": "string"
        }
      ],
      "stateMutability": "view",
      "type": "function"
    },
    {
      "inputs": [
        {
          "internalType": "address",
          "name": "owner",
          "type": "address"
        }
      ],
      "name": "nonces",
      "outputs": [
        {
          "internalType": "uint256",
          "name": "",
          "type": "uint256"
        }
      ],
      "stateMutability": "view",
      "type": "function"
    },
    {
      "inputs": [
        {
          "internalType": "address",
          "name": "operator",
          "type": "address"
        },
        {
          "internalType": "address",
          "name": "from",
          "type": "address"
        },
        {
          "internalType": "uint256",
          "name": "tokenId",
          "type": "uint256"
        },
        {
          "internalType": "bytes",
          "name": "data",
          "type": "bytes"
        }
      ],
      "name": "onERC721Received",
      "outputs": [
        {
          "internalType": "bytes4",
          "name": "",
          "type": "bytes4"
        }
      ],
      "stateMutability": "nonpayable",
      "type": "function"
    },
    {
      "inputs": [],
      "name": "owner",
      "outputs": [
        {
          "internalType": "address",
          "name": "",
          "type": "address"
        }
      ],
      "stateMutability": "view",
      "type": "function"
    },
    {
      "inputs": [
        {
          "internalType": "uint256",
          "name": "claimableTokenId",
          "type": "uint256"
        },
        {
          "internalType": "address",
          "name": "sendToAddr",
          "type": "address"
        }
      ],
      "name": "ownerClaimPlanet",
      "outputs": [],
      "stateMutability": "nonpayable",
      "type": "function"
    },
    {
      "inputs": [
        {
          "internalType": "uint256",
          "name": "tokenId",
          "type": "uint256"
        },
        {
          "internalType": "address",
          "name": "destinationAddr",
          "type": "address"
        }
      ],
      "name": "ownerOverrideSendNFT",
      "outputs": [],
      "stateMutability": "nonpayable",
      "type": "function"
    },
    {
      "inputs": [],
      "name": "pause",
      "outputs": [],
      "stateMutability": "nonpayable",
      "type": "function"
    },
    {
      "inputs": [],
      "name": "paused",
      "outputs": [
        {
          "internalType": "bool",
          "name": "",
          "type": "bool"
        }
      ],
      "stateMutability": "view",
      "type": "function"
    },
    {
      "inputs": [
        {
          "internalType": "uint256",
          "name": "index",
          "type": "uint256"
        }
      ],
      "name": "payee",
      "outputs": [
        {
          "internalType": "address",
          "name": "",
          "type": "address"
        }
      ],
      "stateMutability": "view",
      "type": "function"
    },
    {
      "inputs": [
        {
          "internalType": "address",
          "name": "owner",
          "type": "address"
        },
        {
          "internalType": "address",
          "name": "spender",
          "type": "address"
        },
        {
          "internalType": "uint256",
          "name": "value",
          "type": "uint256"
        },
        {
          "internalType": "uint256",
          "name": "deadline",
          "type": "uint256"
        },
        {
          "internalType": "uint8",
          "name": "v",
          "type": "uint8"
        },
        {
          "internalType": "bytes32",
          "name": "r",
          "type": "bytes32"
        },
        {
          "internalType": "bytes32",
          "name": "s",
          "type": "bytes32"
        }
      ],
      "name": "permit",
      "outputs": [],
      "stateMutability": "nonpayable",
      "type": "function"
    },
    {
      "inputs": [],
      "name": "proxiableUUID",
      "outputs": [
        {
          "internalType": "bytes32",
          "name": "",
          "type": "bytes32"
        }
      ],
      "stateMutability": "view",
      "type": "function"
    },
    {
      "inputs": [
        {
          "internalType": "address",
          "name": "account",
          "type": "address"
        }
      ],
      "name": "releasable",
      "outputs": [
        {
          "internalType": "uint256",
          "name": "",
          "type": "uint256"
        }
      ],
      "stateMutability": "view",
      "type": "function"
    },
    {
      "inputs": [
        {
          "internalType": "contract IERC20Upgradeable",
          "name": "token",
          "type": "address"
        },
        {
          "internalType": "address",
          "name": "account",
          "type": "address"
        }
      ],
      "name": "releasable",
      "outputs": [
        {
          "internalType": "uint256",
          "name": "",
          "type": "uint256"
        }
      ],
      "stateMutability": "view",
      "type": "function"
    },
    {
      "inputs": [
        {
          "internalType": "address payable",
          "name": "account",
          "type": "address"
        }
      ],
      "name": "release",
      "outputs": [],
      "stateMutability": "nonpayable",
      "type": "function"
    },
    {
      "inputs": [
        {
          "internalType": "contract IERC20Upgradeable",
          "name": "token",
          "type": "address"
        },
        {
          "internalType": "address",
          "name": "account",
          "type": "address"
        }
      ],
      "name": "release",
      "outputs": [],
      "stateMutability": "nonpayable",
      "type": "function"
    },
    {
      "inputs": [
        {
          "internalType": "contract IERC20Upgradeable",
          "name": "token",
          "type": "address"
        },
        {
          "internalType": "address",
          "name": "account",
          "type": "address"
        }
      ],
      "name": "released",
      "outputs": [
        {
          "internalType": "uint256",
          "name": "",
          "type": "uint256"
        }
      ],
      "stateMutability": "view",
      "type": "function"
    },
    {
      "inputs": [
        {
          "internalType": "address",
          "name": "account",
          "type": "address"
        }
      ],
      "name": "released",
      "outputs": [
        {
          "internalType": "uint256",
          "name": "",
          "type": "uint256"
        }
      ],
      "stateMutability": "view",
      "type": "function"
    },
    {
      "inputs": [],
      "name": "renounceOwnership",
      "outputs": [],
      "stateMutability": "nonpayable",
      "type": "function"
    },
    {
      "inputs": [
        {
          "internalType": "address",
          "name": "_breederContractAddr",
          "type": "address"
        },
        {
          "internalType": "uint256",
          "name": "_vrfValue",
          "type": "uint256"
        },
        {
          "internalType": "address",
          "name": "_nftContractAddr",
          "type": "address"
        }
      ],
      "name": "setAllOf",
      "outputs": [],
      "stateMutability": "nonpayable",
      "type": "function"
    },
    {
      "inputs": [
        {
          "internalType": "uint256",
          "name": "_toThisPercentage",
          "type": "uint256"
        }
      ],
      "name": "setMktFee",
      "outputs": [],
      "stateMutability": "nonpayable",
      "type": "function"
    },
    {
      "inputs": [
        {
          "internalType": "address payable",
          "name": "newTAdd",
          "type": "address"
        }
      ],
      "name": "setTAdd",
      "outputs": [],
      "stateMutability": "nonpayable",
      "type": "function"
    },
    {
      "inputs": [
        {
          "internalType": "address",
          "name": "account",
          "type": "address"
        }
      ],
      "name": "shares",
      "outputs": [
        {
          "internalType": "uint256",
          "name": "",
          "type": "uint256"
        }
      ],
      "stateMutability": "view",
      "type": "function"
    },
    {
      "inputs": [],
      "name": "status",
      "outputs": [],
      "stateMutability": "nonpayable",
      "type": "function"
    },
    {
      "inputs": [],
      "name": "symbol",
      "outputs": [
        {
          "internalType": "string",
          "name": "",
          "type": "string"
        }
      ],
      "stateMutability": "view",
      "type": "function"
    },
    {
      "inputs": [
        {
          "internalType": "contract IERC20Upgradeable",
          "name": "token",
          "type": "address"
        }
      ],
      "name": "totalReleased",
      "outputs": [
        {
          "internalType": "uint256",
          "name": "",
          "type": "uint256"
        }
      ],
      "stateMutability": "view",
      "type": "function"
    },
    {
      "inputs": [],
      "name": "totalReleased",
      "outputs": [
        {
          "internalType": "uint256",
          "name": "",
          "type": "uint256"
        }
      ],
      "stateMutability": "view",
      "type": "function"
    },
    {
      "inputs": [],
      "name": "totalShares",
      "outputs": [
        {
          "internalType": "uint256",
          "name": "",
          "type": "uint256"
        }
      ],
      "stateMutability": "view",
      "type": "function"
    },
    {
      "inputs": [],
      "name": "totalSupply",
      "outputs": [
        {
          "internalType": "uint256",
          "name": "",
          "type": "uint256"
        }
      ],
      "stateMutability": "view",
      "type": "function"
    },
    {
      "inputs": [
        {
          "internalType": "address",
          "name": "to",
          "type": "address"
        },
        {
          "internalType": "uint256",
          "name": "amount",
          "type": "uint256"
        }
      ],
      "name": "transfer",
      "outputs": [
        {
          "internalType": "bool",
          "name": "",
          "type": "bool"
        }
      ],
      "stateMutability": "nonpayable",
      "type": "function"
    },
    {
      "inputs": [
        {
          "internalType": "address",
          "name": "from",
          "type": "address"
        },
        {
          "internalType": "address",
          "name": "to",
          "type": "address"
        },
        {
          "internalType": "uint256",
          "name": "amount",
          "type": "uint256"
        }
      ],
      "name": "transferFrom",
      "outputs": [
        {
          "internalType": "bool",
          "name": "",
          "type": "bool"
        }
      ],
      "stateMutability": "nonpayable",
      "type": "function"
    },
    {
      "inputs": [
        {
          "internalType": "address",
          "name": "newOwner",
          "type": "address"
        }
      ],
      "name": "transferOwnership",
      "outputs": [],
      "stateMutability": "nonpayable",
      "type": "function"
    },
    {
      "inputs": [],
      "name": "unpause",
      "outputs": [],
      "stateMutability": "nonpayable",
      "type": "function"
    },
    {
      "inputs": [
        {
          "internalType": "address",
          "name": "newImplementation",
          "type": "address"
        }
      ],
      "name": "upgradeTo",
      "outputs": [],
      "stateMutability": "nonpayable",
      "type": "function"
    },
    {
      "inputs": [
        {
          "internalType": "address",
          "name": "newImplementation",
          "type": "address"
        },
        {
          "internalType": "bytes",
          "name": "data",
          "type": "bytes"
        }
      ],
      "name": "upgradeToAndCall",
      "outputs": [],
      "stateMutability": "payable",
      "type": "function"
    },
    {
      "inputs": [
        {
          "internalType": "address",
          "name": "",
          "type": "address"
        },
        {
          "internalType": "uint256",
          "name": "",
          "type": "uint256"
        }
      ],
      "name": "userToListedPlanets",
      "outputs": [
        {
          "internalType": "uint256",
          "name": "tokenId",
          "type": "uint256"
        },
        {
          "internalType": "uint256",
          "name": "price",
          "type": "uint256"
        },
        {
          "internalType": "address",
          "name": "ownerAddress",
          "type": "address"
        },
        {
          "internalType": "bool",
          "name": "active",
          "type": "bool"
        }
      ],
      "stateMutability": "view",
      "type": "function"
    },
    {
      "inputs": [
        {
          "internalType": "address",
          "name": "userAddress",
          "type": "address"
        }
      ],
      "name": "usersClaims",
      "outputs": [
        {
          "components": [
            {
              "internalType": "address",
              "name": "ownerParentAddress",
              "type": "address"
            },
            {
              "internalType": "uint256",
              "name": "ownerTokenId",
              "type": "uint256"
            },
            {
              "internalType": "bool",
              "name": "delivered",
              "type": "bool"
            },
            {
              "internalType": "bool",
              "name": "arrived",
              "type": "bool"
            },
            {
              "internalType": "address",
              "name": "otherParent",
              "type": "address"
            },
            {
              "internalType": "uint256",
              "name": "otherTokenId",
              "type": "uint256"
            },
            {
              "internalType": "uint256",
              "name": "claimsTokenId",
              "type": "uint256"
            }
          ],
          "internalType": "struct ClaimablePlanet[]",
          "name": "",
          "type": "tuple[]"
        }
      ],
      "stateMutability": "view",
      "type": "function"
    },
    {
      "inputs": [],
      "name": "withdrawFunds",
      "outputs": [],
      "stateMutability": "nonpayable",
      "type": "function"
    },
    {
      "stateMutability": "payable",
      "type": "receive"
    }
  ],
  "bytecode": "0x60a06040523060805234801561001457600080fd5b506080516152b761004c6000396000818161123201528181611272015281816115480152818161158801526117b301526152b76000f3fe60806040526004361061033a5760003560e01c80638230a784116101b1578063cbdf1b5a116100f2578063e22aecb411610098578063e22aecb414610a54578063e33b7de314610abf578063ee6e3a2314610ad5578063f2fde38b14610af6578063f4c1494314610b16578063f837894714610b36578063fdb4087514610b56578063fde4976714610b76578063fe792229146109e757005b8063cbdf1b5a14610930578063cdb82a3714610950578063ce7c2ac214610970578063d505accf146109a7578063d79779b2146109c7578063dbb774d8146109e7578063dd22a9c714610a14578063dd62ed3e14610a3457005b8063a3f8eace11610157578063a3f8eace14610819578063a457c2d714610839578063a8e5e4aa14610859578063a9059cbb14610879578063bd83dc0514610899578063c45ac050146108d0578063c4d66de8146108f0578063c7c0e6b11461091057005b80638230a784146107195780638456cb591461044257806384b0196e1461072c57806385fe7243146107545780638b83209b146107a55780638da5cb5b146107c557806395d89b41146107e45780639852595c146107f957005b80633a7fb03d1161027b57806350842cf31161022157806350842cf3146104165780635270ad6c1461064c57806352d1902d1461066c5780635c975abb146106815780636a23befb1461069957806370a08231146106ae578063715018a6146106e45780637ecebe00146106f957005b80633a7fb03d1461056e5780633a98ef391461058e5780633f4ba83a146105a4578063406072a9146105b957806348b75044146105d95780634a02099b146105f95780634d950449146106195780634f1ef2861461063957005b806323b872dd116102e057806323b872dd1461045757806324600fc314610477578063259478181461048c578063313ce567146104b957806334ae54e9146104d55780633644e515146105195780633659cfe61461052e578063395093511461054e57005b806306fdde0314610343578063095ea7b31461036e578063150b7a021461039e57806318160ddd146103d757806319165587146103f65780631ac9a91e146104165780631dd320ea14610422578063200d2ed21461044257005b3661034157005b005b34801561034f57600080fd5b50610358610b96565b60405161036591906146d6565b60405180910390f35b34801561037a57600080fd5b5061038e6103893660046146fe565b610c28565b6040519015158152602001610365565b3480156103aa57600080fd5b506103be6103b9366004614808565b610c42565b6040516001600160e01b03199091168152602001610365565b3480156103e357600080fd5b5060cb545b604051908152602001610365565b34801561040257600080fd5b50610341610411366004614873565b610e6b565b34801561034157600080fd5b34801561042e57600080fd5b5061038e61043d3660046146fe565b610f57565b34801561044e57600080fd5b5061034161101c565b34801561046357600080fd5b5061038e610472366004614890565b61102c565b34801561048357600080fd5b50610341611050565b34801561049857600080fd5b506104ac6104a73660046148d1565b611092565b60405161036591906148f3565b3480156104c557600080fd5b5060405160128152602001610365565b3480156104e157600080fd5b5061050c6104f0366004614962565b6101cc602052600090815260409020546001600160a01b031681565b604051610365919061497b565b34801561052557600080fd5b506103e8611219565b34801561053a57600080fd5b50610341610549366004614873565b611228565b34801561055a57600080fd5b5061038e6105693660046146fe565b6112f0565b34801561057a57600080fd5b5061034161058936600461498f565b611312565b34801561059a57600080fd5b50610162546103e8565b3480156105b057600080fd5b5061034161139c565b3480156105c557600080fd5b506103e86105d43660046149bf565b6113ac565b3480156105e557600080fd5b506103416105f43660046149bf565b6113d8565b34801561060557600080fd5b506103416106143660046149ed565b6114e9565b34801561062557600080fd5b50610341610634366004614962565b611530565b610341610647366004614a2f565b61153e565b34801561065857600080fd5b50610341610667366004614962565b6115f3565b34801561067857600080fd5b506103e86117a6565b34801561068d57600080fd5b5060335460ff1661038e565b3480156106a557600080fd5b506104ac611854565b3480156106ba57600080fd5b506103e86106c9366004614873565b6001600160a01b0316600090815260c9602052604090205490565b3480156106f057600080fd5b506103416118ea565b34801561070557600080fd5b506103e8610714366004614873565b6118fc565b6103416107273660046148d1565b61191b565b34801561073857600080fd5b5061074161213c565b6040516103659796959493929190614a7e565b34801561076057600080fd5b5061077461076f3660046146fe565b6121da565b604051610365949392919093845260208401929092526001600160a01b031660408301521515606082015260800190565b3480156107b157600080fd5b5061050c6107c0366004614962565b612232565b3480156107d157600080fd5b50610194546001600160a01b031661050c565b3480156107f057600080fd5b50610358612263565b34801561080557600080fd5b506103e8610814366004614873565b612272565b34801561082557600080fd5b506103e8610834366004614873565b61228e565b34801561084557600080fd5b5061038e6108543660046146fe565b6122c1565b34801561086557600080fd5b50610341610874366004614890565b61233c565b34801561088557600080fd5b5061038e6108943660046146fe565b6123f5565b3480156108a557600080fd5b5061050c6108b4366004614962565b60009081526101cc60205260409020546001600160a01b031690565b3480156108dc57600080fd5b506103e86108eb3660046149bf565b612403565b3480156108fc57600080fd5b5061034161090b366004614873565b612497565b34801561091c57600080fd5b5061034161092b366004614962565b6125c1565b34801561093c57600080fd5b5061034161094b3660046148d1565b6125d7565b34801561095c57600080fd5b5061034161096b366004614873565b61289e565b34801561097c57600080fd5b506103e861098b366004614873565b6001600160a01b03166000908152610164602052604090205490565b3480156109b357600080fd5b506103416109c2366004614b17565b6128d1565b3480156109d357600080fd5b506103e86109e2366004614873565b612a35565b3480156109f357600080fd5b50610a07610a02366004614873565b612a51565b6040516103659190614b8e565b348015610a2057600080fd5b5061038e610a2f3660046149bf565b612b21565b348015610a4057600080fd5b506103e8610a4f3660046149bf565b612b99565b348015610a6057600080fd5b50610a74610a6f3660046146fe565b612bc4565b604080516001600160a01b0398891681526020810197909752941515948601949094529115156060850152909316608083015260a082019290925260c081019190915260e001610365565b348015610acb57600080fd5b50610163546103e8565b348015610ae157600080fd5b506101c65461050c906001600160a01b031681565b348015610b0257600080fd5b50610341610b11366004614873565b612c35565b348015610b2257600080fd5b5061038e610b313660046146fe565b612cab565b348015610b4257600080fd5b50610341610b513660046149bf565b612d3b565b348015610b6257600080fd5b50610341610b7136600461498f565b612db2565b348015610b8257600080fd5b506104ac610b91366004614873565b612def565b606060cc8054610ba590614c15565b80601f0160208091040260200160405190810160405280929190818152602001828054610bd190614c15565b8015610c1e5780601f10610bf357610100808354040283529160200191610c1e565b820191906000526020600020905b815481529060010190602001808311610c0157829003601f168201915b5050505050905090565b600033610c36818585612e90565b60019150505b92915050565b6000808251118015610c5f57506101c8546001600160a01b031633145b15610cb857600082806020019051810190610c7a9190614c49565b9050610c87848287612fb4565b60008051602061521b83398151915286868686604051610caa9493929190614c62565b60405180910390a150610e59565b6101c8546001600160a01b03163303610e2d576101c85460405163dc9ce7a560e01b8152600481018590526000916001600160a01b03169063dc9ce7a590602401600060405180830381865afa158015610d16573d6000803e3d6000fd5b505050506040513d6000823e601f3d908101601f19168201604052610d3e9190810190614d4c565b50905060008161012001519050600085905060006101cc600084600081518110610d6a57610d6a614e6a565b6020026020010151815260200190815260200160002060009054906101000a90046001600160a01b0316905060006101cc600085600181518110610db057610db0614e6a565b60209081029190910181015182528181019290925260409081016000205481518083019092526001600160a01b03858116835216918101829052909150610df78185613128565b60008051602061521b8339815191528b8b8b8b604051610e1a9493929190614e80565b60405180910390a1505050505050610e59565b60008051602061521b83398151915285858585604051610e509493929190614ee2565b60405180910390a15b50630a85bd0160e11b5b949350505050565b6001600160a01b03811660009081526101646020526040902054610eaa5760405162461bcd60e51b8152600401610ea190614f47565b60405180910390fd5b6000610eb58261228e565b905080600003610ed75760405162461bcd60e51b8152600401610ea190614f8d565b806101636000828254610eea9190614fee565b90915550506001600160a01b038216600090815261016560205260409020805482019055610f188282613428565b7fdf20fd1e76bc69d672e4814fafb2c449bba3a5369d8359adf9e05e6fde87b0568282604051610f49929190615001565b60405180910390a15050565b565b6001600160a01b03821660009081526101cd60205260408120815b8154811015610fe05783828281548110610f8e57610f8e614e6a565b90600052602060002090600502016004015403610fd857818181548110610fb757610fb7614e6a565b600091825260209091206002600590920201015460ff169250610c3c915050565b600101610f72565b5060405162461bcd60e51b815260206004820152601060248201526f141b185b995d081b9bdd08199bdd5b9960821b6044820152606401610ea1565b61102461353e565b610f55613599565b60003361103a8582856135ed565b611045858585613661565b506001949350505050565b61105861353e565b61106061380c565b604051339081904780156108fc02916000818181858888f1935050505015801561108e573d6000803e3d6000fd5b5050565b60608282116110d35760405162461bcd60e51b815260206004820152600d60248201526c092dcecc2d8d2c840d2dcc8caf609b1b6044820152606401610ea1565b6101cb548211156110f65760405162461bcd60e51b8152600401610ea19061501a565b60006111028484615047565b6001600160401b038111156111195761111961472a565b60405190808252806020026020018201604052801561116b57816020015b6040805160808101825260008082526020808301829052928201819052606082015282526000199092019101816111375790505b509050835b83811015611211576101cb818154811061118c5761118c614e6a565b600091825260209182902060408051608081018252600393909302909101805483526001810154938301939093526002909201546001600160a01b03811692820192909252600160a01b90910460ff1615156060820152826111ee8784615047565b815181106111fe576111fe614e6a565b6020908102919091010152600101611170565b509392505050565b6000611223613852565b905090565b6001600160a01b037f00000000000000000000000000000000000000000000000000000000000000001630036112705760405162461bcd60e51b8152600401610ea19061505a565b7f00000000000000000000000000000000000000000000000000000000000000006001600160a01b03166112a261385c565b6001600160a01b0316146112c85760405162461bcd60e51b8152600401610ea1906150a6565b6112d181613878565b604080516000808252602082019092526112ed91839190613880565b50565b600033610c368185856113038383612b99565b61130d9190614fee565b612e90565b61131a61353e565b61132261380c565b60008281526101cc60205260409020546001600160a01b031661134583826139eb565b5061134f83613a60565b6101c8546040517ffbabfabc293b9daf3d9f8a42d485f10715027db90fd73abbe4ae4b4424decd049161138f9185916001600160a01b03169087906150f2565b60405180910390a1505050565b6113a461353e565b610f55613b00565b6001600160a01b0391821660009081526101686020908152604080832093909416825291909152205490565b6001600160a01b0381166000908152610164602052604090205461140e5760405162461bcd60e51b8152600401610ea190614f47565b600061141a8383612403565b90508060000361143c5760405162461bcd60e51b8152600401610ea190614f8d565b6001600160a01b0383166000908152610167602052604081208054839290611465908490614fee565b90915550506001600160a01b038084166000908152610168602090815260408083209386168352929052208054820190556114a1838383613b39565b826001600160a01b03167f3be5b7a71e84ed12875d241991c70855ac5817d847039e17a9d895c1ceb0f18a83836040516114dc929190615001565b60405180910390a2505050565b6114f161353e565b6114f961380c565b6101c9919091556101c680546001600160a01b039384166001600160a01b0319918216179091556101c88054929093169116179055565b61153861353e565b6101ce55565b6001600160a01b037f00000000000000000000000000000000000000000000000000000000000000001630036115865760405162461bcd60e51b8152600401610ea19061505a565b7f00000000000000000000000000000000000000000000000000000000000000006001600160a01b03166115b861385c565b6001600160a01b0316146115de5760405162461bcd60e51b8152600401610ea1906150a6565b6115e782613878565b61108e82826001613880565b6115fb61380c565b60008181526101cc602052604090205433906001600160a01b03168082146116925761162681613b8f565b61162f82613b8f565b60405162461bcd60e51b815260206004820152603260248201527f636c61696d206d7573742062652066726f6d20636c61696d616e7473206164646044820152713932b9b99696903234b9b0b63637bbb2b21760711b6064820152608401610ea1565b6116ca604051806040016040528060178152602001761696a7232a16969021ba34b216103a3432b7103ab9b2b960491b815250613bd2565b6116d383613c15565b6116dc82613b8f565b60006116e884846139eb565b90508061174f5760405162461bcd60e51b815260206004820152602f60248201527f4661696c656420746f2073656e64204e46542e20436865636b20436c61696d6160448201526e1b9d08151bdad95b9259081cd95b9d608a1b6064820152608401610ea1565b61175884613a60565b6101c8546040517ffbabfabc293b9daf3d9f8a42d485f10715027db90fd73abbe4ae4b4424decd04916117989186916001600160a01b03169088906150f2565b60405180910390a150505050565b6000306001600160a01b037f000000000000000000000000000000000000000000000000000000000000000016146118415760405162461bcd60e51b815260206004820152603860248201527f555550535570677261646561626c653a206d757374206e6f742062652063616c6044820152771b1959081d1a1c9bdd59da0819195b1959d85d1958d85b1b60421b6064820152608401610ea1565b5060008051602061523b83398151915290565b60606101cb805480602002602001604051908101604052809291908181526020016000905b828210156118e1576000848152602090819020604080516080810182526003860290920180548352600180820154848601526002909101546001600160a01b03811692840192909252600160a01b90910460ff16151560608301529083529092019101611879565b50505050905090565b6118f261353e565b610f556000613c5a565b6001600160a01b038116600090815261012f6020526040812054610c3c565b61192361380c565b80820361197e5760405162461bcd60e51b815260206004820152602360248201527f4173657875616c20726570726f64756374696f6e206973206e6f7420616c6c6f6044820152621dd95960ea1b6064820152608401610ea1565b600061198982613cad565b6101c8546040516331a9108f60e11b8152600481018690529192506000916001600160a01b0390911690636352211e90602401602060405180830381865afa1580156119d9573d6000803e3d6000fd5b505050506040513d601f19601f820116820180604052508101906119fd9190615116565b90506001600160a01b0381163014611a875760405162461bcd60e51b815260206004820152604160248201527f596f75206e65656420746f206c6973742f6465706f7369742074686520706c6160448201527f6e657420796f752061726520747279696e6720746f20627265656420776974686064820152601760f91b608482015260a401610ea1565b60008060005b6101cb54811015611b3457866101cb8281548110611aad57611aad614e6a565b90600052602060002090600302016000015403611b2c576101cb8181548110611ad857611ad8614e6a565b906000526020600020906003020160020160009054906101000a90046001600160a01b031692506101cb8181548110611b1357611b13614e6a565b9060005260206000209060030201600001549150611b34565b600101611a8d565b506001600160a01b0382163314611ba85760405162461bcd60e51b815260206004820152603260248201527f596f7520646f206e6f74206f776e2074686520706c616e657420796f7520617260448201527132903a393cb4b733903a3790313932b2b21760711b6064820152608401610ea1565b600060646101ce5486611bbb9190615133565b611bc5919061514a565b905080856101c954611bd79190614fee565b611be19190614fee565b341015611c505760405162461bcd60e51b815260206004820152603760248201527f496e73756666696369656e742066756e647320746f20636f766572205652462060448201527631b7b9ba1030b73210383934b1b29030b732103332b29760491b6064820152608401610ea1565b33600080805b6101cb54811015611cfd57896101cb8281548110611c7657611c76614e6a565b90600052602060002090600302016000015403611cf5576101cb8181548110611ca157611ca1614e6a565b906000526020600020906003020160020160009054906101000a90046001600160a01b031692506101cb8181548110611cdc57611cdc614e6a565b9060005260206000209060030201600001549150611cfd565b600101611c56565b506706f05b59d3b20000471015611d745760405162461bcd60e51b815260206004820152603560248201527f436f6e74726163742068617320496e73756666696369656e742062616c616e63604482015274652c20636f6e74616374206861746368657220687160581b6064820152608401610ea1565b6040516000906001600160a01b038416908a156108fc02908b9084818181858888f19350505050905080611de15760405162461bcd60e51b81526020600482015260146024820152732330b4b632b2103a379039b2b7321022ba3432b960611b6044820152606401610ea1565b6101c6546101c954604051634e9e6a0760e01b8152600481018e9052602481018d9052600060448201526001600160a01b0390921691634e9e6a07919060640160206040518083038185885af1158015611e3f573d6000803e3d6000fd5b50505050506040513d601f19601f82011682018060405250810190611e649190614c49565b5060006040518060e00160405280866001600160a01b031681526020018d8152602001600015158152602001600015158152602001856001600160a01b03168152602001848152602001600081525090506101cd6000866001600160a01b03166001600160a01b0316815260200190815260200160002081908060018154018082558091505060019003906000526020600020906005020160009091909190915060008201518160000160006101000a8154816001600160a01b0302191690836001600160a01b031602179055506020820151816001015560408201518160020160006101000a81548160ff02191690831515021790555060608201518160020160016101000a81548160ff02191690831515021790555060808201518160020160026101000a8154816001600160a01b0302191690836001600160a01b0316021790555060a0820151816003015560c082015181600401555050846101cc60008e815260200190815260200160002060006101000a8154816001600160a01b0302191690836001600160a01b03160217905550858a6101c9546120089190614fee565b6120129190614fee565b3411156120de576000336001600160a01b0316878c6101c954346120369190615047565b6120409190615047565b61204a9190615047565b604051600081818185875af1925050503d8060008114612086576040519150601f19603f3d011682016040523d82523d6000602084013e61208b565b606091505b50509050806120dc5760405162461bcd60e51b815260206004820152601d60248201527f4661696c656420746f20726566756e64206578636573732045746865720000006044820152606401610ea1565b505b604080518d81526001600160a01b0387811660208301528183018e90528616606082015290517f8557df6951fbdd47fe9027516fc896be40f285ed55a6acac460352adbab730cd9181900360800190a1505050505050505050505050565b60006060806000806000606060fb546000801b14801561215c575060fc54155b6121a05760405162461bcd60e51b81526020600482015260156024820152741152540dcc4c8e88155b9a5b9a5d1a585b1a5e9959605a1b6044820152606401610ea1565b6121a8613d4e565b6121b0613d5d565b60408051600080825260208201909252600f60f81b9b939a50919850469750309650945092509050565b6101ca60205281600052604060002081815481106121f757600080fd5b60009182526020909120600390910201805460018201546002909201549093509091506001600160a01b03811690600160a01b900460ff1684565b6000610166828154811061224857612248614e6a565b6000918252602090912001546001600160a01b031692915050565b606060cd8054610ba590614c15565b6001600160a01b03166000908152610165602052604090205490565b60008061229b6101635490565b6122a59047614fee565b90506122ba83826122b586612272565b613d6c565b9392505050565b600033816122cf8286612b99565b90508381101561232f5760405162461bcd60e51b815260206004820152602560248201527f45524332303a2064656372656173656420616c6c6f77616e63652062656c6f77604482015264207a65726f60d81b6064820152608401610ea1565b6110458286868403612e90565b60405163095ea7b360e01b81526001600160a01b0384169063095ea7b39061236a9085908590600401615001565b6020604051808303816000875af1158015612389573d6000803e3d6000fd5b505050506040513d601f19601f820116820180604052508101906123ad919061516c565b6123f05760405162461bcd60e51b8152602060048201526014602482015273115490cc8c08185c1c1c9bdd994819985a5b195960621b6044820152606401610ea1565b505050565b600033610c36818585613661565b60008061240f84612a35565b6040516370a0823160e01b81526001600160a01b038616906370a082319061243b90309060040161497b565b602060405180830381865afa158015612458573d6000803e3d6000fd5b505050506040513d601f19601f8201168201806040525081019061247c9190614c49565b6124869190614fee565b9050610e6383826122b587876113ac565b600054610100900460ff16158080156124b75750600054600160ff909116105b806124d857506124c630613dac565b1580156124d8575060005460ff166001145b61253b5760405162461bcd60e51b815260206004820152602e60248201527f496e697469616c697a61626c653a20636f6e747261637420697320616c72656160448201526d191e481a5b9a5d1a585b1a5e995960921b6064820152608401610ea1565b6000805460ff19166001179055801561255e576000805461ff0019166101001790555b612566613dbb565b61256e613dea565b612576613e19565b61257f82612c35565b801561108e576000805461ff0019169055604051600181527f7f26b83ff96e1f2b6a682f133852f6798a09c465da95921460cefb384740249890602001610f49565b6125c961353e565b6125d161380c565b6101c955565b6125df61380c565b6101cb5482106126015760405162461bcd60e51b8152600401610ea19061501a565b600033905060006101cb848154811061261c5761261c614e6a565b6000918252602091829020604080516080810182526003909302909101805483526001810154938301939093526002909201546001600160a01b03811692820183905260ff600160a01b90910416151560608201529150331461267e57600080fd5b6040518060800160405280826000015181526020016000815260200182604001516001600160a01b03168152602001600015158152506101cb85815481106126c8576126c8614e6a565b60009182526020808320845160039093020191825583810151600180840191909155604080860151600290940180546060909701511515600160a01b026001600160a81b03199097166001600160a01b0390951694909417959095179092553383526101ca90529190208054909161273f91615047565b8154811061274f5761274f614e6a565b90600052602060002090600302016101ca6000336001600160a01b03166001600160a01b03168152602001908152602001600020858154811061279457612794614e6a565b60009182526020808320845460039093020191825560018085015490830155600293840180549490920180546001600160a01b031981166001600160a01b039096169586178255925460ff600160a01b91829004161515026001600160a81b0319909316909417919091179092553381526101ca9091526040902080548061281e5761281e615187565b600082815260208120600360001990930192830201818155600181019190915560020180546001600160a81b0319169055905561285b83836139eb565b506101c85481516040517f0ece05e698e9e143fb75b2ad0aba7f141238c27b6d3e9728898183ee0d68498b926117989286926001600160a01b03909216916150f2565b6128a661353e565b6128ae61380c565b6101c780546001600160a01b0319166001600160a01b0392909216919091179055565b834211156129215760405162461bcd60e51b815260206004820152601d60248201527f45524332305065726d69743a206578706972656420646561646c696e650000006044820152606401610ea1565b60007f6e71edae12b1b97f4d1f60370fef10105fa2faae0126114a169c64845d6126c98888886129508c613e40565b6040805160208101969096526001600160a01b0394851690860152929091166060840152608083015260a082015260c0810186905260e00160405160208183030381529060405280519060200120905060006129ab82613e67565b905060006129bb82878787613e94565b9050896001600160a01b0316816001600160a01b031614612a1e5760405162461bcd60e51b815260206004820152601e60248201527f45524332305065726d69743a20696e76616c6964207369676e617475726500006044820152606401610ea1565b612a298a8a8a612e90565b50505050505050505050565b6001600160a01b03166000908152610167602052604090205490565b6001600160a01b03811660009081526101cd60209081526040808320805482518185028101850190935280835260609492939192909184015b82821015612b165760008481526020908190206040805160e0810182526005860290920180546001600160a01b03908116845260018083015485870152600283015460ff80821615159587019590955261010081049094161515606086015262010000909304166080840152600381015460a08401526004015460c08301529083529092019101612a8a565b505050509050919050565b6101c85460405163e985e9c560e01b81526001600160a01b0384811660048301528381166024830152600092169063e985e9c590604401602060405180830381865afa158015612b75573d6000803e3d6000fd5b505050506040513d601f19601f820116820180604052508101906122ba919061516c565b6001600160a01b03918216600090815260ca6020908152604080832093909416825291909152205490565b6101cd6020528160005260406000208181548110612be157600080fd5b6000918252602090912060059091020180546001820154600283015460038401546004909401546001600160a01b03938416965091945060ff80821694610100830490911693620100009092049091169187565b612c3d61353e565b6001600160a01b038116612ca25760405162461bcd60e51b815260206004820152602660248201527f4f776e61626c653a206e6577206f776e657220697320746865207a65726f206160448201526564647265737360d01b6064820152608401610ea1565b6112ed81613c5a565b6001600160a01b03821660009081526101cd60205260408120815b8154811015610fe05783828281548110612ce257612ce2614e6a565b90600052602060002090600502016004015403612d3357818181548110612d0b57612d0b614e6a565b906000526020600020906005020160020160019054906101000a900460ff1692505050610c3c565b600101612cc6565b612d4361353e565b612d4b61380c565b60405163a22cb46560e01b81526001600160a01b0382811660048301526001602483015283169063a22cb465906044015b600060405180830381600087803b158015612d9657600080fd5b505af1158015612daa573d6000803e3d6000fd5b505050505050565b612dba61353e565b6101c8546040516323b872dd60e01b81526001600160a01b03909116906323b872dd90612d7c903090859087906004016150f2565b6001600160a01b03811660009081526101ca60209081526040808320805482518185028101850190935280835260609492939192909184015b82821015612b16576000848152602090819020604080516080810182526003860290920180548352600180820154848601526002909101546001600160a01b03811692840192909252600160a01b90910460ff16151560608301529083529092019101612e28565b6001600160a01b038316612ef25760405162461bcd60e51b8152602060048201526024808201527f45524332303a20617070726f76652066726f6d20746865207a65726f206164646044820152637265737360e01b6064820152608401610ea1565b6001600160a01b038216612f535760405162461bcd60e51b815260206004820152602260248201527f45524332303a20617070726f766520746f20746865207a65726f206164647265604482015261737360f01b6064820152608401610ea1565b6001600160a01b03838116600081815260ca602090815260408083209487168084529482529182902085905590518481527f8c5be1e5ebec7d5bd14f71427d1e84f3dd0314c0f7b2291e5b200ac8c7c3b925910160405180910390a3505050565b604080516080808201835285825260208083018681526001600160a01b03868116858701818152600160608089018281526101cb8054808501825560009182528b5160039182027fe8bbfecd380c4167d6a1f763a233ec73e73f534b1970c4e1683f437ec23c1f4481019190915589517fe8bbfecd380c4167d6a1f763a233ec73e73f534b1970c4e1683f437ec23c1f4582015586517fe8bbfecd380c4167d6a1f763a233ec73e73f534b1970c4e1683f437ec23c1f46909101805485511515600160a01b9081026001600160a81b0319928316948d1694909417939093179091559783526101ca8b528d832080548088018255908452928b90208d5193909202909101918255975193810193909355925160029092018054935115159096029290931690841617179092556101c854865133815291169281019290925293810187905292830185905290917fb30319a217488a3ed441c348e935a48d16091e33109bab0c79a353b9797528839101611798565b81516020808401516001600160a01b03831660009081526101cd9092526040909120541561327f5760005b6001600160a01b03831660009081526101cd6020526040902054811015613279576001600160a01b0383811660009081526101cd60205260409020805491841691839081106131a4576131a4614e6a565b60009182526020909120600590910201600201546201000090046001600160a01b031603613271576001600160a01b03831660009081526101cd60205260409020805460019190839081106131fb576131fb614e6a565b906000526020600020906005020160020160016101000a81548160ff021916908315150217905550836101cd6000856001600160a01b03166001600160a01b03168152602001908152602001600020828154811061325b5761325b614e6a565b9060005260206000209060050201600401819055505b600101613153565b50613422565b6020808501516001600160a01b031660009081526101cd9091526040902054156133cc5760005b6001600160a01b03821660009081526101cd6020526040902054811015613279576001600160a01b0382811660009081526101cd60205260409020805491851691839081106132f7576132f7614e6a565b60009182526020909120600590910201600201546201000090046001600160a01b0316036133c4576001600160a01b03821660009081526101cd602052604090208054600191908390811061334e5761334e614e6a565b906000526020600020906005020160020160016101000a81548160ff021916908315150217905550836101cd6000846001600160a01b03166001600160a01b0316815260200190815260200160002082815481106133ae576133ae614e6a565b9060005260206000209060050201600401819055505b6001016132a6565b60405162461bcd60e51b815260206004820152602560248201527f706c616e65742073656e7420657272616e746c792c206e6f206f6e6520746f20604482015264636c61696d60d81b6064820152608401610ea1565b50505050565b804710156134785760405162461bcd60e51b815260206004820152601d60248201527f416464726573733a20696e73756666696369656e742062616c616e63650000006044820152606401610ea1565b6000826001600160a01b03168260405160006040518083038185875af1925050503d80600081146134c5576040519150601f19603f3d011682016040523d82523d6000602084013e6134ca565b606091505b50509050806123f05760405162461bcd60e51b815260206004820152603a60248201527f416464726573733a20756e61626c6520746f2073656e642076616c75652c20726044820152791958da5c1a595b9d081b585e481a185d99481c995d995c9d195960321b6064820152608401610ea1565b610194546001600160a01b03163314610f555760405162461bcd60e51b815260206004820181905260248201527f4f776e61626c653a2063616c6c6572206973206e6f7420746865206f776e65726044820152606401610ea1565b6135a161380c565b6033805460ff191660011790557f62e78cea01bee320cd4e420270b5ea74000d11b0c9f74754ebdbfc544b05a2586135d63390565b6040516135e3919061497b565b60405180910390a1565b60006135f98484612b99565b9050600019811461342257818110156136545760405162461bcd60e51b815260206004820152601d60248201527f45524332303a20696e73756666696369656e7420616c6c6f77616e63650000006044820152606401610ea1565b6134228484848403612e90565b6001600160a01b0383166136c55760405162461bcd60e51b815260206004820152602560248201527f45524332303a207472616e736665722066726f6d20746865207a65726f206164604482015264647265737360d81b6064820152608401610ea1565b6001600160a01b0382166137275760405162461bcd60e51b815260206004820152602360248201527f45524332303a207472616e7366657220746f20746865207a65726f206164647260448201526265737360e81b6064820152608401610ea1565b6001600160a01b038316600090815260c960205260409020548181101561379f5760405162461bcd60e51b815260206004820152602660248201527f45524332303a207472616e7366657220616d6f756e7420657863656564732062604482015265616c616e636560d01b6064820152608401610ea1565b6001600160a01b03808516600081815260c9602052604080822086860390559286168082529083902080548601905591517fddf252ad1be2c89b69c2b068fc378daa952ba7f163c4a11628f55a4df523b3ef906137ff9086815260200190565b60405180910390a3613422565b60335460ff1615610f555760405162461bcd60e51b815260206004820152601060248201526f14185d5cd8589b194e881c185d5cd95960821b6044820152606401610ea1565b6000611223613ebc565b60008051602061523b833981519152546001600160a01b031690565b6112ed61353e565b7f4910fdfa16fed3260ed0e7147f7cc6da11a60208b5b9406d12a635614ffd91435460ff16156138b3576123f083613f30565b826001600160a01b03166352d1902d6040518163ffffffff1660e01b8152600401602060405180830381865afa92505050801561390d575060408051601f3d908101601f1916820190925261390a91810190614c49565b60015b6139705760405162461bcd60e51b815260206004820152602e60248201527f45524331393637557067726164653a206e657720696d706c656d656e7461746960448201526d6f6e206973206e6f74205555505360901b6064820152608401610ea1565b60008051602061523b83398151915281146139df5760405162461bcd60e51b815260206004820152602960248201527f45524331393637557067726164653a20756e737570706f727465642070726f786044820152681a58589b195555525160ba1b6064820152608401610ea1565b506123f0838383613fca565b6101c854604051632142170760e11b81526000916001600160a01b0316906342842e0e90613a21903090869088906004016150f2565b600060405180830381600087803b158015613a3b57600080fd5b505af1925050508015613a4c575060015b613a5857506000610c3c565b506001610c3c565b60008181526101cc60209081526040808320546001600160a01b03168084526101cd909252822090915b81548110156134225783828281548110613aa657613aa6614e6a565b90600052602060002090600502016004015403613af8576001828281548110613ad157613ad1614e6a565b60009182526020909120600590910201600201805460ff1916911515919091179055613422565b600101613a8a565b613b08613fef565b6033805460ff191690557f5db9ee0a495bf2e6ff9c91a7834c1ba4fdd244a5e8aa4e537bd38aeae4b073aa336135d6565b6123f08363a9059cbb60e01b8484604051602401613b58929190615001565b60408051601f198184030181529190526020810180516001600160e01b03166001600160e01b031990931692909217909152614038565b6112ed81604051602401613ba3919061497b565b60408051601f198184030181529190526020810180516001600160e01b031663161765e160e11b17905261410d565b6112ed81604051602401613be691906146d6565b60408051601f198184030181529190526020810180516001600160e01b031663104c13eb60e21b17905261410d565b6112ed81604051602401613c2b91815260200190565b60408051601f198184030181529190526020810180516001600160e01b031663f82c50f160e01b17905261410d565b61019480546001600160a01b038381166001600160a01b0319831681179093556040519116919082907f8be0079c531659141344cd1fd0a4f28419497f9722a3daafe3b4186f6b6457e090600090a35050565b6000613cb761380c565b60005b6101cb54811015613d4757826101cb8281548110613cda57613cda614e6a565b90600052602060002090600302016000015403613d1f576101cb8181548110613d0557613d05614e6a565b906000526020600020906003020160010154915050919050565b6101cb54613d2f90600190615047565b8103613d3f575060001992915050565b600101613cba565b505b919050565b606060fd8054610ba590614c15565b606060fe8054610ba590614c15565b610162546001600160a01b0384166000908152610164602052604081205490918391613d989086615133565b613da2919061514a565b610e639190615047565b6001600160a01b03163b151590565b600054610100900460ff16613de25760405162461bcd60e51b8152600401610ea19061519d565b610f55614116565b600054610100900460ff16613e115760405162461bcd60e51b8152600401610ea19061519d565b610f55614146565b600054610100900460ff16610f555760405162461bcd60e51b8152600401610ea19061519d565b6001600160a01b038116600090815261012f60205260409020805460018101825590613d47565b6000610c3c613e74613852565b8360405161190160f01b8152600281019290925260228201526042902090565b6000806000613ea587878787614179565b91509150613eb281614233565b5095945050505050565b60007f8b73c3c69bb8fe3d512ecc4cf759cc79239f7b179b0ffacaa9a75d522b39400f613ee7614378565b613eef6143d1565b60408051602081019490945283019190915260608201524660808201523060a082015260c00160405160208183030381529060405280519060200120905090565b613f3981613dac565b613f9b5760405162461bcd60e51b815260206004820152602d60248201527f455243313936373a206e657720696d706c656d656e746174696f6e206973206e60448201526c1bdd08184818dbdb9d1c9858dd609a1b6064820152608401610ea1565b60008051602061523b83398151915280546001600160a01b0319166001600160a01b0392909216919091179055565b613fd383614402565b600082511180613fe05750805b156123f0576134228383614442565b60335460ff16610f555760405162461bcd60e51b815260206004820152601460248201527314185d5cd8589b194e881b9bdd081c185d5cd95960621b6044820152606401610ea1565b600061408d826040518060400160405280602081526020017f5361666545524332303a206c6f772d6c6576656c2063616c6c206661696c6564815250856001600160a01b03166144679092919063ffffffff16565b90508051600014806140ae5750808060200190518101906140ae919061516c565b6123f05760405162461bcd60e51b815260206004820152602a60248201527f5361666545524332303a204552433230206f7065726174696f6e20646964206e6044820152691bdd081cdd58d8d9595960b21b6064820152608401610ea1565b6112ed81614476565b600054610100900460ff1661413d5760405162461bcd60e51b8152600401610ea19061519d565b610f5533613c5a565b600054610100900460ff1661416d5760405162461bcd60e51b8152600401610ea19061519d565b6033805460ff19169055565b6000806fa2a8918ca85bafe22016d0b997e4df60600160ff1b038311156141a6575060009050600361422a565b6040805160008082526020820180845289905260ff881692820192909252606081018690526080810185905260019060a0016020604051602081039080840390855afa1580156141fa573d6000803e3d6000fd5b5050604051601f1901519150506001600160a01b0381166142235760006001925092505061422a565b9150600090505b94509492505050565b6000816004811115614247576142476151e8565b0361424f5750565b6001816004811115614263576142636151e8565b036142ab5760405162461bcd60e51b815260206004820152601860248201527745434453413a20696e76616c6964207369676e617475726560401b6044820152606401610ea1565b60028160048111156142bf576142bf6151e8565b0361430c5760405162461bcd60e51b815260206004820152601f60248201527f45434453413a20696e76616c6964207369676e6174757265206c656e677468006044820152606401610ea1565b6003816004811115614320576143206151e8565b036112ed5760405162461bcd60e51b815260206004820152602260248201527f45434453413a20696e76616c6964207369676e6174757265202773272076616c604482015261756560f01b6064820152608401610ea1565b600080614383613d4e565b80519091501561439a578051602090910120919050565b60fb5480156143a95792915050565b7fc5d2460186f7233c927e7db2dcc703c0e500b653ca82273b7bfad8045d85a4709250505090565b6000806143dc613d5d565b8051909150156143f3578051602090910120919050565b60fc5480156143a95792915050565b61440b81613f30565b6040516001600160a01b038216907fbc7cd75a20ee27fd9adebab32041f755214dbc6bffa90cc0225b39da2e5c2d3b90600090a250565b60606122ba838360405180606001604052806027815260200161525b60279139614497565b6060610e63848460008561450f565b60006a636f6e736f6c652e6c6f679050600080835160208501845afa505050565b6060600080856001600160a01b0316856040516144b491906151fe565b600060405180830381855af49150503d80600081146144ef576040519150601f19603f3d011682016040523d82523d6000602084013e6144f4565b606091505b5091509150614505868383876145ea565b9695505050505050565b6060824710156145705760405162461bcd60e51b815260206004820152602660248201527f416464726573733a20696e73756666696369656e742062616c616e636520666f6044820152651c8818d85b1b60d21b6064820152608401610ea1565b600080866001600160a01b0316858760405161458c91906151fe565b60006040518083038185875af1925050503d80600081146145c9576040519150601f19603f3d011682016040523d82523d6000602084013e6145ce565b606091505b50915091506145df878383876145ea565b979650505050505050565b606083156146575782516000036146505761460485613dac565b6146505760405162461bcd60e51b815260206004820152601d60248201527f416464726573733a2063616c6c20746f206e6f6e2d636f6e74726163740000006044820152606401610ea1565b5081610e63565b610e63838381511561466c5781518083602001fd5b8060405162461bcd60e51b8152600401610ea191906146d6565b60005b838110156146a1578181015183820152602001614689565b50506000910152565b600081518084526146c2816020860160208601614686565b601f01601f19169290920160200192915050565b6020815260006122ba60208301846146aa565b6001600160a01b03811681146112ed57600080fd5b6000806040838503121561471157600080fd5b823561471c816146e9565b946020939093013593505050565b634e487b7160e01b600052604160045260246000fd5b60405161016081016001600160401b03811182821017156147635761476361472a565b60405290565b604051601f8201601f191681016001600160401b03811182821017156147915761479161472a565b604052919050565b600082601f8301126147aa57600080fd5b81356001600160401b038111156147c3576147c361472a565b6147d6601f8201601f1916602001614769565b8181528460208386010111156147eb57600080fd5b816020850160208301376000918101602001919091529392505050565b6000806000806080858703121561481e57600080fd5b8435614829816146e9565b93506020850135614839816146e9565b92506040850135915060608501356001600160401b0381111561485b57600080fd5b61486787828801614799565b91505092959194509250565b60006020828403121561488557600080fd5b81356122ba816146e9565b6000806000606084860312156148a557600080fd5b83356148b0816146e9565b925060208401356148c0816146e9565b929592945050506040919091013590565b600080604083850312156148e457600080fd5b50508035926020909101359150565b602080825282518282018190526000919060409081850190868401855b82811015614955578151805185528681015187860152858101516001600160a01b03168686015260609081015115159085015260809093019290850190600101614910565b5091979650505050505050565b60006020828403121561497457600080fd5b5035919050565b6001600160a01b0391909116815260200190565b600080604083850312156149a257600080fd5b8235915060208301356149b4816146e9565b809150509250929050565b600080604083850312156149d257600080fd5b82356149dd816146e9565b915060208301356149b4816146e9565b600080600060608486031215614a0257600080fd5b8335614a0d816146e9565b9250602084013591506040840135614a24816146e9565b809150509250925092565b60008060408385031215614a4257600080fd5b8235614a4d816146e9565b915060208301356001600160401b03811115614a6857600080fd5b614a7485828601614799565b9150509250929050565b60ff60f81b881681526000602060e06020840152614a9f60e084018a6146aa565b8381036040850152614ab1818a6146aa565b606085018990526001600160a01b038816608086015260a0850187905284810360c08601528551808252602080880193509091019060005b81811015614b0557835183529284019291840191600101614ae9565b50909c9b505050505050505050505050565b600080600080600080600060e0888a031215614b3257600080fd5b8735614b3d816146e9565b96506020880135614b4d816146e9565b95506040880135945060608801359350608088013560ff81168114614b7157600080fd5b9699959850939692959460a0840135945060c09093013592915050565b602080825282518282018190526000919060409081850190868401855b8281101561495557815180516001600160a01b0390811686528782015188870152868201511515878701526060808301511515908701526080808301519091169086015260a0808201519086015260c0908101519085015260e09093019290850190600101614bab565b600181811c90821680614c2957607f821691505b602082108103613d4757634e487b7160e01b600052602260045260246000fd5b600060208284031215614c5b57600080fd5b5051919050565b6001600160a01b038581168252841660208201526040810183905260a060608201819052600090614c95908301846146aa565b8281036080840152600e81526d1b1a5cdd1a5b99c81c1b185b995d60921b60208201526040810191505095945050505050565b600082601f830112614cd957600080fd5b815160206001600160401b03821115614cf457614cf461472a565b8160051b614d03828201614769565b9283528481018201928281019087851115614d1d57600080fd5b83870192505b848310156145df57825182529183019190830190614d23565b80518015158114613d4957600080fd5b60008060408385031215614d5f57600080fd5b82516001600160401b0380821115614d7657600080fd5b908401906101608287031215614d8b57600080fd5b614d93614740565b825181526020830151602082015260408301516040820152606083015160608201526080830151608082015260a083015160a082015260c083015160c082015260e083015160e08201526101008084015183811115614df157600080fd5b614dfd89828701614cc8565b8284015250506101208084015183811115614e1757600080fd5b614e2389828701614cc8565b8284015250506101408084015183811115614e3d57600080fd5b614e4989828701614cc8565b828401525050809450505050614e6160208401614d3c565b90509250929050565b634e487b7160e01b600052603260045260246000fd5b6001600160a01b038581168252841660208201526040810183905260a060608201819052600090614eb3908301846146aa565b8281036080840152600a8152691b995dc81c1b185b995d60b21b60208201526040810191505095945050505050565b6001600160a01b038581168252841660208201526040810183905260a060608201819052600090614f15908301846146aa565b8281036080840152600d81526c1d5b98d85d1959dbdc9a5e9959609a1b60208201526040810191505095945050505050565b60208082526026908201527f5061796d656e7453706c69747465723a206163636f756e7420686173206e6f2060408201526573686172657360d01b606082015260800190565b6020808252602b908201527f5061796d656e7453706c69747465723a206163636f756e74206973206e6f742060408201526a191d59481c185e5b595b9d60aa1b606082015260800190565b634e487b7160e01b600052601160045260246000fd5b80820180821115610c3c57610c3c614fd8565b6001600160a01b03929092168252602082015260400190565b602080825260139082015272496e646578206f7574206f6620626f756e647360681b604082015260600190565b81810381811115610c3c57610c3c614fd8565b6020808252602c908201527f46756e6374696f6e206d7573742062652063616c6c6564207468726f7567682060408201526b19195b1959d85d1958d85b1b60a21b606082015260800190565b6020808252602c908201527f46756e6374696f6e206d7573742062652063616c6c6564207468726f7567682060408201526b6163746976652070726f787960a01b606082015260800190565b6001600160a01b039384168152919092166020820152604081019190915260600190565b60006020828403121561512857600080fd5b81516122ba816146e9565b8082028115828204841417610c3c57610c3c614fd8565b60008261516757634e487b7160e01b600052601260045260246000fd5b500490565b60006020828403121561517e57600080fd5b6122ba82614d3c565b634e487b7160e01b600052603160045260246000fd5b6020808252602b908201527f496e697469616c697a61626c653a20636f6e7472616374206973206e6f74206960408201526a6e697469616c697a696e6760a81b606082015260800190565b634e487b7160e01b600052602160045260246000fd5b60008251615210818460208701614686565b919091019291505056fe13c6ec2a463a35f898a457814a782f1f567808293fa783a31fa4dac8868e6011360894a13ba1a3210667c828492db98dca3e2076cc3735a920a3ca505d382bbc416464726573733a206c6f772d6c6576656c2064656c65676174652063616c6c206661696c6564a26469706673582212201b28e2b6acdc0c4deb6e062aac9fbfc2e977c9443aff99de8b7f3ad27871663464736f6c63430008180033",
  "linkReferences": {},
  "deployedLinkReferences": {}
}