{
  "_format": "hh-sol-artifact-1",
  "contractName": "HatcherVOld2",
  "sourceName": "contracts/Older/HatcherV3Old2.sol",
  "abi": [
    {
      "inputs": [],
      "name": "Unauthorized",
      "type": "error"
    },
    {
      "anonymous": false,
      "inputs": [
        {
          "indexed": false,
          "internalType": "address",
          "name": "previousAdmin",
          "type": "address"
        },
        {
          "indexed": false,
          "internalType": "address",
          "name": "newAdmin",
          "type": "address"
        }
      ],
      "name": "AdminChanged",
      "type": "event"
    },
    {
      "anonymous": false,
      "inputs": [
        {
          "indexed": true,
          "internalType": "address",
          "name": "owner",
          "type": "address"
        },
        {
          "indexed": true,
          "internalType": "address",
          "name": "spender",
          "type": "address"
        },
        {
          "indexed": false,
          "internalType": "uint256",
          "name": "value",
          "type": "uint256"
        }
      ],
      "name": "Approval",
      "type": "event"
    },
    {
      "anonymous": false,
      "inputs": [
        {
          "indexed": true,
          "internalType": "address",
          "name": "beacon",
          "type": "address"
        }
      ],
      "name": "BeaconUpgraded",
      "type": "event"
    },
    {
      "anonymous": false,
      "inputs": [
        {
          "indexed": false,
          "internalType": "address",
          "name": "sentToUser",
          "type": "address"
        },
        {
          "indexed": false,
          "internalType": "address",
          "name": "token",
          "type": "address"
        },
        {
          "indexed": false,
          "internalType": "uint256",
          "name": "tokenId",
          "type": "uint256"
        },
        {
          "indexed": false,
          "internalType": "bool",
          "name": "success",
          "type": "bool"
        }
      ],
      "name": "DeClaimedAPlanet",
      "type": "event"
    },
    {
      "anonymous": false,
      "inputs": [
        {
          "indexed": false,
          "internalType": "address",
          "name": "sentToUser",
          "type": "address"
        },
        {
          "indexed": false,
          "internalType": "address",
          "name": "token",
          "type": "address"
        },
        {
          "indexed": false,
          "internalType": "uint256",
          "name": "tokenId",
          "type": "uint256"
        },
        {
          "indexed": false,
          "internalType": "bool",
          "name": "success",
          "type": "bool"
        }
      ],
      "name": "DeListedAPlanet",
      "type": "event"
    },
    {
      "anonymous": false,
      "inputs": [],
      "name": "EIP712DomainChanged",
      "type": "event"
    },
    {
      "anonymous": false,
      "inputs": [
        {
          "indexed": true,
          "internalType": "contract IERC20Upgradeable",
          "name": "token",
          "type": "address"
        },
        {
          "indexed": false,
          "internalType": "address",
          "name": "to",
          "type": "address"
        },
        {
          "indexed": false,
          "internalType": "uint256",
          "name": "amount",
          "type": "uint256"
        }
      ],
      "name": "ERC20PaymentReleased",
      "type": "event"
    },
    {
      "anonymous": false,
      "inputs": [
        {
          "indexed": false,
          "internalType": "uint8",
          "name": "version",
          "type": "uint8"
        }
      ],
      "name": "Initialized",
      "type": "event"
    },
    {
      "anonymous": false,
      "inputs": [
        {
          "indexed": false,
          "internalType": "address",
          "name": "sentFromUser",
          "type": "address"
        },
        {
          "indexed": false,
          "internalType": "address",
          "name": "token",
          "type": "address"
        },
        {
          "indexed": false,
          "internalType": "uint256",
          "name": "tokenId",
          "type": "uint256"
        },
        {
          "indexed": false,
          "internalType": "uint256",
          "name": "price",
          "type": "uint256"
        }
      ],
      "name": "ListedAPlanet",
      "type": "event"
    },
    {
      "anonymous": false,
      "inputs": [
        {
          "indexed": false,
          "internalType": "address",
          "name": "operator",
          "type": "address"
        },
        {
          "indexed": false,
          "internalType": "address",
          "name": "from",
          "type": "address"
        },
        {
          "indexed": false,
          "internalType": "uint256",
          "name": "tokenId",
          "type": "uint256"
        },
        {
          "indexed": false,
          "internalType": "bytes",
          "name": "data",
          "type": "bytes"
        },
        {
          "indexed": false,
          "internalType": "string",
          "name": "typeOfReceival",
          "type": "string"
        }
      ],
      "name": "NftReceived",
      "type": "event"
    },
    {
      "anonymous": false,
      "inputs": [
        {
          "indexed": true,
          "internalType": "address",
          "name": "previousOwner",
          "type": "address"
        },
        {
          "indexed": true,
          "internalType": "address",
          "name": "newOwner",
          "type": "address"
        }
      ],
      "name": "OwnershipTransferred",
      "type": "event"
    },
    {
      "anonymous": false,
      "inputs": [
        {
          "indexed": false,
          "internalType": "address",
          "name": "account",
          "type": "address"
        }
      ],
      "name": "Paused",
      "type": "event"
    },
    {
      "anonymous": false,
      "inputs": [
        {
          "indexed": false,
          "internalType": "address",
          "name": "account",
          "type": "address"
        },
        {
          "indexed": false,
          "internalType": "uint256",
          "name": "shares",
          "type": "uint256"
        }
      ],
      "name": "PayeeAdded",
      "type": "event"
    },
    {
      "anonymous": false,
      "inputs": [
        {
          "indexed": false,
          "internalType": "address",
          "name": "from",
          "type": "address"
        },
        {
          "indexed": false,
          "internalType": "uint256",
          "name": "amount",
          "type": "uint256"
        }
      ],
      "name": "PaymentReceived",
      "type": "event"
    },
    {
      "anonymous": false,
      "inputs": [
        {
          "indexed": false,
          "internalType": "address",
          "name": "to",
          "type": "address"
        },
        {
          "indexed": false,
          "internalType": "uint256",
          "name": "amount",
          "type": "uint256"
        }
      ],
      "name": "PaymentReleased",
      "type": "event"
    },
    {
      "anonymous": false,
      "inputs": [
        {
          "indexed": false,
          "internalType": "uint256",
          "name": "planetAsking",
          "type": "uint256"
        },
        {
          "indexed": false,
          "internalType": "address",
          "name": "askingUser",
          "type": "address"
        },
        {
          "indexed": false,
          "internalType": "uint256",
          "name": "planetJoining",
          "type": "uint256"
        },
        {
          "indexed": false,
          "internalType": "address",
          "name": "joiningUser",
          "type": "address"
        }
      ],
      "name": "PlanetsConjoining",
      "type": "event"
    },
    {
      "anonymous": false,
      "inputs": [
        {
          "indexed": true,
          "internalType": "address",
          "name": "from",
          "type": "address"
        },
        {
          "indexed": true,
          "internalType": "address",
          "name": "to",
          "type": "address"
        },
        {
          "indexed": false,
          "internalType": "uint256",
          "name": "value",
          "type": "uint256"
        }
      ],
      "name": "Transfer",
      "type": "event"
    },
    {
      "anonymous": false,
      "inputs": [
        {
          "indexed": false,
          "internalType": "address",
          "name": "account",
          "type": "address"
        }
      ],
      "name": "Unpaused",
      "type": "event"
    },
    {
      "anonymous": false,
      "inputs": [
        {
          "indexed": true,
          "internalType": "address",
          "name": "implementation",
          "type": "address"
        }
      ],
      "name": "Upgraded",
      "type": "event"
    },
    {
      "stateMutability": "payable",
      "type": "fallback"
    },
    {
      "inputs": [],
      "name": "DOMAIN_SEPARATOR",
      "outputs": [
        {
          "internalType": "bytes32",
          "name": "",
          "type": "bytes32"
        }
      ],
      "stateMutability": "view",
      "type": "function"
    },
    {
      "inputs": [
        {
          "internalType": "address",
          "name": "owner",
          "type": "address"
        },
        {
          "internalType": "address",
          "name": "spender",
          "type": "address"
        }
      ],
      "name": "allowance",
      "outputs": [
        {
          "internalType": "uint256",
          "name": "",
          "type": "uint256"
        }
      ],
      "stateMutability": "view",
      "type": "function"
    },
    {
      "inputs": [
        {
          "internalType": "address",
          "name": "spender",
          "type": "address"
        },
        {
          "internalType": "uint256",
          "name": "amount",
          "type": "uint256"
        }
      ],
      "name": "approve",
      "outputs": [
        {
          "internalType": "bool",
          "name": "",
          "type": "bool"
        }
      ],
      "stateMutability": "nonpayable",
      "type": "function"
    },
    {
      "inputs": [
        {
          "internalType": "contract IERC721",
          "name": "token",
          "type": "address"
        },
        {
          "internalType": "address",
          "name": "operator",
          "type": "address"
        }
      ],
      "name": "approveAllERC721Tokens",
      "outputs": [],
      "stateMutability": "nonpayable",
      "type": "function"
    },
    {
      "inputs": [
        {
          "internalType": "contract IERC20",
          "name": "token",
          "type": "address"
        },
        {
          "internalType": "address",
          "name": "spender",
          "type": "address"
        },
        {
          "internalType": "uint256",
          "name": "amount",
          "type": "uint256"
        }
      ],
      "name": "approveERC20",
      "outputs": [],
      "stateMutability": "nonpayable",
      "type": "function"
    },
    {
      "inputs": [
        {
          "internalType": "address",
          "name": "account",
          "type": "address"
        }
      ],
      "name": "balanceOf",
      "outputs": [
        {
          "internalType": "uint256",
          "name": "",
          "type": "uint256"
        }
      ],
      "stateMutability": "view",
      "type": "function"
    },
    {
      "inputs": [],
      "name": "breedContract",
      "outputs": [
        {
          "internalType": "contract IBreedContract",
          "name": "",
          "type": "address"
        }
      ],
      "stateMutability": "view",
      "type": "function"
    },
    {
      "inputs": [
        {
          "internalType": "uint256",
          "name": "newVRF",
          "type": "uint256"
        }
      ],
      "name": "changeVRFValue",
      "outputs": [],
      "stateMutability": "nonpayable",
      "type": "function"
    },
    {
      "inputs": [
        {
          "internalType": "address",
          "name": "owner",
          "type": "address"
        },
        {
          "internalType": "address",
          "name": "operator",
          "type": "address"
        }
      ],
      "name": "checkApprovalForAll",
      "outputs": [
        {
          "internalType": "bool",
          "name": "",
          "type": "bool"
        }
      ],
      "stateMutability": "view",
      "type": "function"
    },
    {
      "inputs": [
        {
          "internalType": "uint256",
          "name": "claimableTokenId",
          "type": "uint256"
        }
      ],
      "name": "claimPlanet",
      "outputs": [],
      "stateMutability": "nonpayable",
      "type": "function"
    },
    {
      "inputs": [
        {
          "internalType": "address",
          "name": "",
          "type": "address"
        },
        {
          "internalType": "uint256",
          "name": "",
          "type": "uint256"
        }
      ],
      "name": "claimablePlanets",
      "outputs": [
        {
          "internalType": "address",
          "name": "ownerParentAddress",
          "type": "address"
        },
        {
          "internalType": "uint256",
          "name": "ownerTokenId",
          "type": "uint256"
        },
        {
          "internalType": "bool",
          "name": "delivered",
          "type": "bool"
        },
        {
          "internalType": "bool",
          "name": "arrived",
          "type": "bool"
        },
        {
          "internalType": "address",
          "name": "otherParent",
          "type": "address"
        },
        {
          "internalType": "uint256",
          "name": "otherTokenId",
          "type": "uint256"
        },
        {
          "internalType": "uint256",
          "name": "claimsTokenId",
          "type": "uint256"
        }
      ],
      "stateMutability": "view",
      "type": "function"
    },
    {
      "inputs": [
        {
          "internalType": "uint256",
          "name": "",
          "type": "uint256"
        }
      ],
      "name": "claimantTokenIdToOwnerAddress",
      "outputs": [
        {
          "internalType": "address",
          "name": "",
          "type": "address"
        }
      ],
      "stateMutability": "view",
      "type": "function"
    },
    {
      "inputs": [
        {
          "internalType": "uint256",
          "name": "yourPlanet",
          "type": "uint256"
        },
        {
          "internalType": "uint256",
          "name": "withListedPlanet",
          "type": "uint256"
        }
      ],
      "name": "conjunct",
      "outputs": [],
      "stateMutability": "payable",
      "type": "function"
    },
    {
      "inputs": [
        {
          "internalType": "uint256",
          "name": "idIndex",
          "type": "uint256"
        },
        {
          "internalType": "uint256",
          "name": "tokenId",
          "type": "uint256"
        }
      ],
      "name": "deList",
      "outputs": [],
      "stateMutability": "nonpayable",
      "type": "function"
    },
    {
      "inputs": [],
      "name": "deListAllYourPlanets",
      "outputs": [],
      "stateMutability": "nonpayable",
      "type": "function"
    },
    {
      "inputs": [],
      "name": "decimals",
      "outputs": [
        {
          "internalType": "uint8",
          "name": "",
          "type": "uint8"
        }
      ],
      "stateMutability": "view",
      "type": "function"
    },
    {
      "inputs": [
        {
          "internalType": "address",
          "name": "spender",
          "type": "address"
        },
        {
          "internalType": "uint256",
          "name": "subtractedValue",
          "type": "uint256"
        }
      ],
      "name": "decreaseAllowance",
      "outputs": [
        {
          "internalType": "bool",
          "name": "",
          "type": "bool"
        }
      ],
      "stateMutability": "nonpayable",
      "type": "function"
    },
    {
      "inputs": [],
      "name": "eip712Domain",
      "outputs": [
        {
          "internalType": "bytes1",
          "name": "fields",
          "type": "bytes1"
        },
        {
          "internalType": "string",
          "name": "name",
          "type": "string"
        },
        {
          "internalType": "string",
          "name": "version",
          "type": "string"
        },
        {
          "internalType": "uint256",
          "name": "chainId",
          "type": "uint256"
        },
        {
          "internalType": "address",
          "name": "verifyingContract",
          "type": "address"
        },
        {
          "internalType": "bytes32",
          "name": "salt",
          "type": "bytes32"
        },
        {
          "internalType": "uint256[]",
          "name": "extensions",
          "type": "uint256[]"
        }
      ],
      "stateMutability": "view",
      "type": "function"
    },
    {
      "inputs": [],
      "name": "getAllPlanets",
      "outputs": [
        {
          "components": [
            {
              "internalType": "uint256",
              "name": "tokenId",
              "type": "uint256"
            },
            {
              "internalType": "uint256",
              "name": "price",
              "type": "uint256"
            },
            {
              "internalType": "address",
              "name": "ownerAddress",
              "type": "address"
            },
            {
              "internalType": "bool",
              "name": "active",
              "type": "bool"
            }
          ],
          "internalType": "struct ListedPlanet[]",
          "name": "",
          "type": "tuple[]"
        }
      ],
      "stateMutability": "view",
      "type": "function"
    },
    {
      "inputs": [
        {
          "internalType": "address",
          "name": "userAddr",
          "type": "address"
        }
      ],
      "name": "getClaimablePlanetsFor",
      "outputs": [
        {
          "components": [
            {
              "internalType": "address",
              "name": "ownerParentAddress",
              "type": "address"
            },
            {
              "internalType": "uint256",
              "name": "ownerTokenId",
              "type": "uint256"
            },
            {
              "internalType": "bool",
              "name": "delivered",
              "type": "bool"
            },
            {
              "internalType": "bool",
              "name": "arrived",
              "type": "bool"
            },
            {
              "internalType": "address",
              "name": "otherParent",
              "type": "address"
            },
            {
              "internalType": "uint256",
              "name": "otherTokenId",
              "type": "uint256"
            },
            {
              "internalType": "uint256",
              "name": "claimsTokenId",
              "type": "uint256"
            }
          ],
          "internalType": "struct ClaimablePlanet[]",
          "name": "",
          "type": "tuple[]"
        }
      ],
      "stateMutability": "view",
      "type": "function"
    },
    {
      "inputs": [
        {
          "internalType": "uint256",
          "name": "claimableTokenId",
          "type": "uint256"
        }
      ],
      "name": "getClaimantTokenIdToOwnerAddress",
      "outputs": [
        {
          "internalType": "address",
          "name": "",
          "type": "address"
        }
      ],
      "stateMutability": "view",
      "type": "function"
    },
    {
      "inputs": [
        {
          "internalType": "uint256",
          "name": "listedTokenId",
          "type": "uint256"
        }
      ],
      "name": "getListedTokenIdToOwnerAddr",
      "outputs": [
        {
          "internalType": "address",
          "name": "",
          "type": "address"
        }
      ],
      "stateMutability": "view",
      "type": "function"
    },
    {
      "inputs": [
        {
          "internalType": "uint256",
          "name": "startIndex",
          "type": "uint256"
        },
        {
          "internalType": "uint256",
          "name": "endIndex",
          "type": "uint256"
        }
      ],
      "name": "getPlanetsPaginated",
      "outputs": [
        {
          "components": [
            {
              "internalType": "uint256",
              "name": "tokenId",
              "type": "uint256"
            },
            {
              "internalType": "uint256",
              "name": "price",
              "type": "uint256"
            },
            {
              "internalType": "address",
              "name": "ownerAddress",
              "type": "address"
            },
            {
              "internalType": "bool",
              "name": "active",
              "type": "bool"
            }
          ],
          "internalType": "struct ListedPlanet[]",
          "name": "",
          "type": "tuple[]"
        }
      ],
      "stateMutability": "view",
      "type": "function"
    },
    {
      "inputs": [
        {
          "internalType": "address",
          "name": "userAddr",
          "type": "address"
        }
      ],
      "name": "getuserToListedPlanets",
      "outputs": [
        {
          "components": [
            {
              "internalType": "uint256",
              "name": "tokenId",
              "type": "uint256"
            },
            {
              "internalType": "uint256",
              "name": "price",
              "type": "uint256"
            },
            {
              "internalType": "address",
              "name": "ownerAddress",
              "type": "address"
            },
            {
              "internalType": "bool",
              "name": "active",
              "type": "bool"
            }
          ],
          "internalType": "struct ListedPlanet[]",
          "name": "",
          "type": "tuple[]"
        }
      ],
      "stateMutability": "view",
      "type": "function"
    },
    {
      "inputs": [
        {
          "internalType": "address",
          "name": "owner",
          "type": "address"
        },
        {
          "internalType": "uint256",
          "name": "tokenId",
          "type": "uint256"
        }
      ],
      "name": "hasPlanetArrived",
      "outputs": [
        {
          "internalType": "bool",
          "name": "arrived",
          "type": "bool"
        }
      ],
      "stateMutability": "view",
      "type": "function"
    },
    {
      "inputs": [
        {
          "internalType": "address",
          "name": "owner",
          "type": "address"
        },
        {
          "internalType": "uint256",
          "name": "tokenId",
          "type": "uint256"
        }
      ],
      "name": "hasPlanetBeenDelivered",
      "outputs": [
        {
          "internalType": "bool",
          "name": "delivered",
          "type": "bool"
        }
      ],
      "stateMutability": "view",
      "type": "function"
    },
    {
      "inputs": [
        {
          "internalType": "address",
          "name": "spender",
          "type": "address"
        },
        {
          "internalType": "uint256",
          "name": "addedValue",
          "type": "uint256"
        }
      ],
      "name": "increaseAllowance",
      "outputs": [
        {
          "internalType": "bool",
          "name": "",
          "type": "bool"
        }
      ],
      "stateMutability": "nonpayable",
      "type": "function"
    },
    {
      "inputs": [
        {
          "internalType": "address",
          "name": "initialOwner",
          "type": "address"
        }
      ],
      "name": "initialize",
      "outputs": [],
      "stateMutability": "nonpayable",
      "type": "function"
    },
    {
      "inputs": [],
      "name": "listAllYourPlanets",
      "outputs": [],
      "stateMutability": "nonpayable",
      "type": "function"
    },
    {
      "inputs": [
        {
          "internalType": "uint256",
          "name": "",
          "type": "uint256"
        }
      ],
      "name": "listedTokenIdToOwnerAddr",
      "outputs": [
        {
          "internalType": "address",
          "name": "",
          "type": "address"
        }
      ],
      "stateMutability": "view",
      "type": "function"
    },
    {
      "inputs": [],
      "name": "name",
      "outputs": [
        {
          "internalType": "string",
          "name": "",
          "type": "string"
        }
      ],
      "stateMutability": "view",
      "type": "function"
    },
    {
      "inputs": [
        {
          "internalType": "address",
          "name": "owner",
          "type": "address"
        }
      ],
      "name": "nonces",
      "outputs": [
        {
          "internalType": "uint256",
          "name": "",
          "type": "uint256"
        }
      ],
      "stateMutability": "view",
      "type": "function"
    },
    {
      "inputs": [
        {
          "internalType": "address",
          "name": "operator",
          "type": "address"
        },
        {
          "internalType": "address",
          "name": "from",
          "type": "address"
        },
        {
          "internalType": "uint256",
          "name": "tokenId",
          "type": "uint256"
        },
        {
          "internalType": "bytes",
          "name": "data",
          "type": "bytes"
        }
      ],
      "name": "onERC721Received",
      "outputs": [
        {
          "internalType": "bytes4",
          "name": "",
          "type": "bytes4"
        }
      ],
      "stateMutability": "nonpayable",
      "type": "function"
    },
    {
      "inputs": [],
      "name": "owner",
      "outputs": [
        {
          "internalType": "address",
          "name": "",
          "type": "address"
        }
      ],
      "stateMutability": "view",
      "type": "function"
    },
    {
      "inputs": [
        {
          "internalType": "uint256",
          "name": "claimableTokenId",
          "type": "uint256"
        },
        {
          "internalType": "address",
          "name": "sendToAddr",
          "type": "address"
        }
      ],
      "name": "ownerClaimPlanet",
      "outputs": [],
      "stateMutability": "nonpayable",
      "type": "function"
    },
    {
      "inputs": [
        {
          "internalType": "uint256",
          "name": "tokenId",
          "type": "uint256"
        },
        {
          "internalType": "address",
          "name": "destinationAddr",
          "type": "address"
        }
      ],
      "name": "ownerOverrideSendNFT",
      "outputs": [],
      "stateMutability": "nonpayable",
      "type": "function"
    },
    {
      "inputs": [],
      "name": "pause",
      "outputs": [],
      "stateMutability": "nonpayable",
      "type": "function"
    },
    {
      "inputs": [],
      "name": "paused",
      "outputs": [
        {
          "internalType": "bool",
          "name": "",
          "type": "bool"
        }
      ],
      "stateMutability": "view",
      "type": "function"
    },
    {
      "inputs": [
        {
          "internalType": "uint256",
          "name": "index",
          "type": "uint256"
        }
      ],
      "name": "payee",
      "outputs": [
        {
          "internalType": "address",
          "name": "",
          "type": "address"
        }
      ],
      "stateMutability": "view",
      "type": "function"
    },
    {
      "inputs": [
        {
          "internalType": "address",
          "name": "owner",
          "type": "address"
        },
        {
          "internalType": "address",
          "name": "spender",
          "type": "address"
        },
        {
          "internalType": "uint256",
          "name": "value",
          "type": "uint256"
        },
        {
          "internalType": "uint256",
          "name": "deadline",
          "type": "uint256"
        },
        {
          "internalType": "uint8",
          "name": "v",
          "type": "uint8"
        },
        {
          "internalType": "bytes32",
          "name": "r",
          "type": "bytes32"
        },
        {
          "internalType": "bytes32",
          "name": "s",
          "type": "bytes32"
        }
      ],
      "name": "permit",
      "outputs": [],
      "stateMutability": "nonpayable",
      "type": "function"
    },
    {
      "inputs": [],
      "name": "proxiableUUID",
      "outputs": [
        {
          "internalType": "bytes32",
          "name": "",
          "type": "bytes32"
        }
      ],
      "stateMutability": "view",
      "type": "function"
    },
    {
      "inputs": [
        {
          "internalType": "address",
          "name": "account",
          "type": "address"
        }
      ],
      "name": "releasable",
      "outputs": [
        {
          "internalType": "uint256",
          "name": "",
          "type": "uint256"
        }
      ],
      "stateMutability": "view",
      "type": "function"
    },
    {
      "inputs": [
        {
          "internalType": "contract IERC20Upgradeable",
          "name": "token",
          "type": "address"
        },
        {
          "internalType": "address",
          "name": "account",
          "type": "address"
        }
      ],
      "name": "releasable",
      "outputs": [
        {
          "internalType": "uint256",
          "name": "",
          "type": "uint256"
        }
      ],
      "stateMutability": "view",
      "type": "function"
    },
    {
      "inputs": [
        {
          "internalType": "address payable",
          "name": "account",
          "type": "address"
        }
      ],
      "name": "release",
      "outputs": [],
      "stateMutability": "nonpayable",
      "type": "function"
    },
    {
      "inputs": [
        {
          "internalType": "contract IERC20Upgradeable",
          "name": "token",
          "type": "address"
        },
        {
          "internalType": "address",
          "name": "account",
          "type": "address"
        }
      ],
      "name": "release",
      "outputs": [],
      "stateMutability": "nonpayable",
      "type": "function"
    },
    {
      "inputs": [
        {
          "internalType": "contract IERC20Upgradeable",
          "name": "token",
          "type": "address"
        },
        {
          "internalType": "address",
          "name": "account",
          "type": "address"
        }
      ],
      "name": "released",
      "outputs": [
        {
          "internalType": "uint256",
          "name": "",
          "type": "uint256"
        }
      ],
      "stateMutability": "view",
      "type": "function"
    },
    {
      "inputs": [
        {
          "internalType": "address",
          "name": "account",
          "type": "address"
        }
      ],
      "name": "released",
      "outputs": [
        {
          "internalType": "uint256",
          "name": "",
          "type": "uint256"
        }
      ],
      "stateMutability": "view",
      "type": "function"
    },
    {
      "inputs": [],
      "name": "renounceOwnership",
      "outputs": [],
      "stateMutability": "nonpayable",
      "type": "function"
    },
    {
      "inputs": [
        {
          "internalType": "address",
          "name": "_breederContractAddr",
          "type": "address"
        },
        {
          "internalType": "uint256",
          "name": "_vrfValue",
          "type": "uint256"
        },
        {
          "internalType": "address",
          "name": "_nftContractAddr",
          "type": "address"
        },
        {
          "internalType": "address",
          "name": "_aprsContract",
          "type": "address"
        },
        {
          "internalType": "address",
          "name": "_animaContract",
          "type": "address"
        }
      ],
      "name": "setAllOf",
      "outputs": [],
      "stateMutability": "nonpayable",
      "type": "function"
    },
    {
      "inputs": [
        {
          "internalType": "uint256",
          "name": "_toThisPercentage",
          "type": "uint256"
        }
      ],
      "name": "setMktFee",
      "outputs": [],
      "stateMutability": "nonpayable",
      "type": "function"
    },
    {
      "inputs": [
        {
          "internalType": "address payable",
          "name": "newTAdd",
          "type": "address"
        }
      ],
      "name": "setTAdd",
      "outputs": [],
      "stateMutability": "nonpayable",
      "type": "function"
    },
    {
      "inputs": [
        {
          "internalType": "address",
          "name": "account",
          "type": "address"
        }
      ],
      "name": "shares",
      "outputs": [
        {
          "internalType": "uint256",
          "name": "",
          "type": "uint256"
        }
      ],
      "stateMutability": "view",
      "type": "function"
    },
    {
      "inputs": [],
      "name": "status",
      "outputs": [],
      "stateMutability": "nonpayable",
      "type": "function"
    },
    {
      "inputs": [],
      "name": "symbol",
      "outputs": [
        {
          "internalType": "string",
          "name": "",
          "type": "string"
        }
      ],
      "stateMutability": "view",
      "type": "function"
    },
    {
      "inputs": [
        {
          "internalType": "uint256",
          "name": "",
          "type": "uint256"
        }
      ],
      "name": "tokenIdClaimableToOwnerAddr",
      "outputs": [
        {
          "internalType": "address",
          "name": "",
          "type": "address"
        }
      ],
      "stateMutability": "view",
      "type": "function"
    },
    {
      "inputs": [
        {
          "internalType": "contract IERC20Upgradeable",
          "name": "token",
          "type": "address"
        }
      ],
      "name": "totalReleased",
      "outputs": [
        {
          "internalType": "uint256",
          "name": "",
          "type": "uint256"
        }
      ],
      "stateMutability": "view",
      "type": "function"
    },
    {
      "inputs": [],
      "name": "totalReleased",
      "outputs": [
        {
          "internalType": "uint256",
          "name": "",
          "type": "uint256"
        }
      ],
      "stateMutability": "view",
      "type": "function"
    },
    {
      "inputs": [],
      "name": "totalShares",
      "outputs": [
        {
          "internalType": "uint256",
          "name": "",
          "type": "uint256"
        }
      ],
      "stateMutability": "view",
      "type": "function"
    },
    {
      "inputs": [],
      "name": "totalSupply",
      "outputs": [
        {
          "internalType": "uint256",
          "name": "",
          "type": "uint256"
        }
      ],
      "stateMutability": "view",
      "type": "function"
    },
    {
      "inputs": [
        {
          "internalType": "address",
          "name": "to",
          "type": "address"
        },
        {
          "internalType": "uint256",
          "name": "amount",
          "type": "uint256"
        }
      ],
      "name": "transfer",
      "outputs": [
        {
          "internalType": "bool",
          "name": "",
          "type": "bool"
        }
      ],
      "stateMutability": "nonpayable",
      "type": "function"
    },
    {
      "inputs": [
        {
          "internalType": "address",
          "name": "from",
          "type": "address"
        },
        {
          "internalType": "address",
          "name": "to",
          "type": "address"
        },
        {
          "internalType": "uint256",
          "name": "amount",
          "type": "uint256"
        }
      ],
      "name": "transferFrom",
      "outputs": [
        {
          "internalType": "bool",
          "name": "",
          "type": "bool"
        }
      ],
      "stateMutability": "nonpayable",
      "type": "function"
    },
    {
      "inputs": [
        {
          "internalType": "address",
          "name": "newOwner",
          "type": "address"
        }
      ],
      "name": "transferOwnership",
      "outputs": [],
      "stateMutability": "nonpayable",
      "type": "function"
    },
    {
      "inputs": [],
      "name": "unpause",
      "outputs": [],
      "stateMutability": "nonpayable",
      "type": "function"
    },
    {
      "inputs": [
        {
          "internalType": "address",
          "name": "newImplementation",
          "type": "address"
        }
      ],
      "name": "upgradeTo",
      "outputs": [],
      "stateMutability": "nonpayable",
      "type": "function"
    },
    {
      "inputs": [
        {
          "internalType": "address",
          "name": "newImplementation",
          "type": "address"
        },
        {
          "internalType": "bytes",
          "name": "data",
          "type": "bytes"
        }
      ],
      "name": "upgradeToAndCall",
      "outputs": [],
      "stateMutability": "payable",
      "type": "function"
    },
    {
      "inputs": [
        {
          "internalType": "address",
          "name": "",
          "type": "address"
        },
        {
          "internalType": "uint256",
          "name": "",
          "type": "uint256"
        }
      ],
      "name": "userToListedPlanets",
      "outputs": [
        {
          "internalType": "uint256",
          "name": "tokenId",
          "type": "uint256"
        },
        {
          "internalType": "uint256",
          "name": "price",
          "type": "uint256"
        },
        {
          "internalType": "address",
          "name": "ownerAddress",
          "type": "address"
        },
        {
          "internalType": "bool",
          "name": "active",
          "type": "bool"
        }
      ],
      "stateMutability": "view",
      "type": "function"
    },
    {
      "inputs": [
        {
          "internalType": "address",
          "name": "userAddress",
          "type": "address"
        }
      ],
      "name": "usersClaims",
      "outputs": [
        {
          "components": [
            {
              "internalType": "address",
              "name": "ownerParentAddress",
              "type": "address"
            },
            {
              "internalType": "uint256",
              "name": "ownerTokenId",
              "type": "uint256"
            },
            {
              "internalType": "bool",
              "name": "delivered",
              "type": "bool"
            },
            {
              "internalType": "bool",
              "name": "arrived",
              "type": "bool"
            },
            {
              "internalType": "address",
              "name": "otherParent",
              "type": "address"
            },
            {
              "internalType": "uint256",
              "name": "otherTokenId",
              "type": "uint256"
            },
            {
              "internalType": "uint256",
              "name": "claimsTokenId",
              "type": "uint256"
            }
          ],
          "internalType": "struct ClaimablePlanet[]",
          "name": "",
          "type": "tuple[]"
        }
      ],
      "stateMutability": "view",
      "type": "function"
    },
    {
      "inputs": [
        {
          "internalType": "address",
          "name": "tokenAddress",
          "type": "address"
        },
        {
          "internalType": "address",
          "name": "address1",
          "type": "address"
        },
        {
          "internalType": "address",
          "name": "address2",
          "type": "address"
        },
        {
          "internalType": "uint256",
          "name": "withdrawalAmount",
          "type": "uint256"
        }
      ],
      "name": "withdrawAndSplitERC20",
      "outputs": [],
      "stateMutability": "nonpayable",
      "type": "function"
    },
    {
      "inputs": [
        {
          "internalType": "address",
          "name": "address1",
          "type": "address"
        },
        {
          "internalType": "address",
          "name": "address2",
          "type": "address"
        },
        {
          "internalType": "uint256",
          "name": "withdrawalAmount",
          "type": "uint256"
        }
      ],
      "name": "withdrawAndSplitHalfsies",
      "outputs": [],
      "stateMutability": "nonpayable",
      "type": "function"
    },
    {
      "inputs": [],
      "name": "withdrawFunds",
      "outputs": [],
      "stateMutability": "nonpayable",
      "type": "function"
    },
    {
      "stateMutability": "payable",
      "type": "receive"
    }
  ],
  "bytecode": "0x60a06040523060805234801561001457600080fd5b506080516159046200004d60003960008181611487015281816114c70152818161174201528181611782015261196501526159046000f3fe6080604052600436106103715760003560e01c80638456cb59116101c7578063ce7c2ac2116100fd578063e8cbd25c11610098578063e8cbd25c14610b9a578063ee6e3a2314610bba578063f2fde38b14610bdb578063f4c1494314610bfb578063f658159a14610c1b578063f837894714610c52578063fdb4087514610c72578063fde4976714610c92578063fe79222914610aac57005b8063ce7c2ac2146109fe578063d4b5b8d614610a35578063d505accf14610a6c578063d79779b214610a8c578063dbb774d814610aac578063dd22a9c714610ad9578063dd62ed3e14610af9578063e22aecb414610b19578063e33b7de314610b8457005b8063a457c2d71161016d578063a457c2d7146108c7578063a8e5e4aa146108e7578063a9059cbb14610907578063bd83dc0514610927578063c45ac0501461095e578063c4d66de81461097e578063c7c0e6b11461099e578063cbdf1b5a146109be578063cdb82a37146109de57005b80638456cb591461047957806384b0196e146107ba57806385fe7243146107e25780638b83209b146108335780638da5cb5b1461085357806395d89b41146108725780639852595c14610887578063a3f8eace146108a757005b80633a7fb03d116102a757806352d1902d1161024257806352d1902d146106a35780635b634b6a146106b85780635c975abb146106ef5780636a23befb1461070757806370a082311461071c578063715018a6146107525780637ecebe00146107675780638230a78414610787578063842905911461079a57005b80633a7fb03d146105c55780633a98ef39146105e55780633f4ba83a146105fb578063406072a91461061057806348b75044146106305780634d950449146106505780634f1ef2861461067057806350842cf31461044d5780635270ad6c1461068357005b8063229c23cc11610317578063229c23cc1461048e57806323b872dd146104ae57806324600fc3146104ce57806325947818146104e3578063313ce5671461051057806334ae54e91461052c5780633644e515146105705780633659cfe61461058557806339509351146105a557005b806306fdde031461037a578063095ea7b3146103a5578063150b7a02146103d557806318160ddd1461040e578063191655871461042d5780631ac9a91e1461044d5780631dd320ea14610459578063200d2ed21461047957005b3661037857005b005b34801561038657600080fd5b5061038f610cb2565b60405161039c9190614c55565b60405180910390f35b3480156103b157600080fd5b506103c56103c0366004614c7d565b610d44565b604051901515815260200161039c565b3480156103e157600080fd5b506103f56103f0366004614d87565b610d5e565b6040516001600160e01b0319909116815260200161039c565b34801561041a57600080fd5b5060cb545b60405190815260200161039c565b34801561043957600080fd5b50610378610448366004614df2565b61100c565b34801561037857600080fd5b34801561046557600080fd5b506103c5610474366004614c7d565b6110f8565b34801561048557600080fd5b506103786111bd565b34801561049a57600080fd5b506103786104a9366004614e0f565b6111cd565b3480156104ba57600080fd5b506103c56104c9366004614e0f565b611281565b3480156104da57600080fd5b506103786112a5565b3480156104ef57600080fd5b506105036104fe366004614e50565b6112e7565b60405161039c9190614e72565b34801561051c57600080fd5b506040516012815260200161039c565b34801561053857600080fd5b50610563610547366004614ee1565b6101cc602052600090815260409020546001600160a01b031681565b60405161039c9190614efa565b34801561057c57600080fd5b5061041f61146e565b34801561059157600080fd5b506103786105a0366004614df2565b61147d565b3480156105b157600080fd5b506103c56105c0366004614c7d565b611545565b3480156105d157600080fd5b506103786105e0366004614f0e565b611567565b3480156105f157600080fd5b506101625461041f565b34801561060757600080fd5b506103786115dd565b34801561061c57600080fd5b5061041f61062b366004614f3e565b6115ed565b34801561063c57600080fd5b5061037861064b366004614f3e565b611619565b34801561065c57600080fd5b5061037861066b366004614ee1565b61172a565b61037861067e366004614f6c565b611738565b34801561068f57600080fd5b5061037861069e366004614ee1565b6117ed565b3480156106af57600080fd5b5061041f611958565b3480156106c457600080fd5b506105636106d3366004614ee1565b6101cf602052600090815260409020546001600160a01b031681565b3480156106fb57600080fd5b5060335460ff166103c5565b34801561071357600080fd5b50610503611a06565b34801561072857600080fd5b5061041f610737366004614df2565b6001600160a01b0316600090815260c9602052604090205490565b34801561075e57600080fd5b50610378611a9c565b34801561077357600080fd5b5061041f610782366004614df2565b611aae565b610378610795366004614e50565b611acd565b3480156107a657600080fd5b506103786107b5366004614fbb565b6122ee565b3480156107c657600080fd5b506107cf612521565b60405161039c979695949392919061500c565b3480156107ee57600080fd5b506108026107fd366004614c7d565b6125bf565b60405161039c949392919093845260208401929092526001600160a01b031660408301521515606082015260800190565b34801561083f57600080fd5b5061056361084e366004614ee1565b612617565b34801561085f57600080fd5b50610194546001600160a01b0316610563565b34801561087e57600080fd5b5061038f612648565b34801561089357600080fd5b5061041f6108a2366004614df2565b612657565b3480156108b357600080fd5b5061041f6108c2366004614df2565b612673565b3480156108d357600080fd5b506103c56108e2366004614c7d565b6126a6565b3480156108f357600080fd5b50610378610902366004614e0f565b612721565b34801561091357600080fd5b506103c5610922366004614c7d565b6127da565b34801561093357600080fd5b50610563610942366004614ee1565b60009081526101cc60205260409020546001600160a01b031690565b34801561096a57600080fd5b5061041f610979366004614f3e565b6127e8565b34801561098a57600080fd5b50610378610999366004614df2565b61287c565b3480156109aa57600080fd5b506103786109b9366004614ee1565b6129a6565b3480156109ca57600080fd5b506103786109d9366004614e50565b6129bc565b3480156109ea57600080fd5b506103786109f9366004614df2565b612d08565b348015610a0a57600080fd5b5061041f610a19366004614df2565b6001600160a01b03166000908152610164602052604090205490565b348015610a4157600080fd5b50610563610a50366004614ee1565b6101d0602052600090815260409020546001600160a01b031681565b348015610a7857600080fd5b50610378610a873660046150a5565b612d3b565b348015610a9857600080fd5b5061041f610aa7366004614df2565b612e9f565b348015610ab857600080fd5b50610acc610ac7366004614df2565b612ebb565b60405161039c919061511c565b348015610ae557600080fd5b506103c5610af4366004614f3e565b612f8b565b348015610b0557600080fd5b5061041f610b14366004614f3e565b613003565b348015610b2557600080fd5b50610b39610b34366004614c7d565b61302e565b604080516001600160a01b0398891681526020810197909752941515948601949094529115156060850152909316608083015260a082019290925260c081019190915260e00161039c565b348015610b9057600080fd5b506101635461041f565b348015610ba657600080fd5b50610378610bb53660046151a3565b61309f565b348015610bc657600080fd5b506101c654610563906001600160a01b031681565b348015610be757600080fd5b50610378610bf6366004614df2565b613109565b348015610c0757600080fd5b506103c5610c16366004614c7d565b61317f565b348015610c2757600080fd5b50610563610c36366004614ee1565b60009081526101d060205260409020546001600160a01b031690565b348015610c5e57600080fd5b50610378610c6d366004614f3e565b61320f565b348015610c7e57600080fd5b50610378610c8d366004614f0e565b613286565b348015610c9e57600080fd5b50610503610cad366004614df2565b6132c3565b606060cc8054610cc19061520b565b80601f0160208091040260200160405190810160405280929190818152602001828054610ced9061520b565b8015610d3a5780601f10610d0f57610100808354040283529160200191610d3a565b820191906000526020600020905b815481529060010190602001808311610d1d57829003601f168201915b5050505050905090565b600033610d52818585613364565b60019150505b92915050565b6000808251118015610d7b57506101c8546001600160a01b031633145b15610dd457600082806020019051810190610d96919061523f565b9050610da3848287613488565b60008051602061586883398151915286868686604051610dc69493929190615258565b60405180910390a150610ffa565b6101c8546001600160a01b03163303610fce576101c85460405163dc9ce7a560e01b8152600481018590526000916001600160a01b03169063dc9ce7a590602401600060405180830381865afa158015610e32573d6000803e3d6000fd5b505050506040513d6000823e601f3d908101601f19168201604052610e5a9190810190615342565b50905060008161012001519050600085905060006101cc600084600081518110610e8657610e86615460565b6020026020010151815260200190815260200160002060009054906101000a90046001600160a01b0316905060006101cc600085600181518110610ecc57610ecc615460565b6020026020010151815260200190815260200160002060009054906101000a90046001600160a01b0316905060006040518060400160405280846001600160a01b03166001600160a01b03168152602001836001600160a01b03166001600160a01b0316815250905060006040518060400160405280886101200151600081518110610f5a57610f5a615460565b60200260200101518152602001886101200151600181518110610f7f57610f7f615460565b60200260200101518152509050610f9782868361361a565b6000805160206158688339815191528c8c8c8c604051610fba9493929190615476565b60405180910390a150505050505050610ffa565b60008051602061586883398151915285858585604051610ff194939291906154d8565b60405180910390a15b50630a85bd0160e11b5b949350505050565b6001600160a01b0381166000908152610164602052604090205461104b5760405162461bcd60e51b81526004016110429061553d565b60405180910390fd5b600061105682612673565b9050806000036110785760405162461bcd60e51b815260040161104290615583565b80610163600082825461108b91906155e4565b90915550506001600160a01b0382166000908152610165602052604090208054820190556110b98282613a29565b7fdf20fd1e76bc69d672e4814fafb2c449bba3a5369d8359adf9e05e6fde87b05682826040516110ea9291906155f7565b60405180910390a15050565b565b6001600160a01b03821660009081526101cd60205260408120815b8154811015611181578382828154811061112f5761112f615460565b906000526020600020906005020160040154036111795781818154811061115857611158615460565b600091825260209091206002600590920201015460ff169250610d58915050565b600101611113565b5060405162461bcd60e51b815260206004820152601060248201526f141b185b995d081b9bdd08199bdd5b9960821b6044820152606401611042565b6111c5613b3f565b6110f6613b9a565b6111d5613b3f565b6111dd613bee565b478111156111fd5760405162461bcd60e51b815260040161104290615610565b600061120a60028361563e565b6040519091506001600160a01b0385169082156108fc029083906000818181858888f19350505050158015611243573d6000803e3d6000fd5b506040516001600160a01b0384169082156108fc029083906000818181858888f1935050505015801561127a573d6000803e3d6000fd5b5050505050565b60003361128f858285613c34565b61129a858585613cae565b506001949350505050565b6112ad613b3f565b6112b5613bee565b604051339081904780156108fc02916000818181858888f193505050501580156112e3573d6000803e3d6000fd5b5050565b60608282116113285760405162461bcd60e51b815260206004820152600d60248201526c092dcecc2d8d2c840d2dcc8caf609b1b6044820152606401611042565b6101cb5482111561134b5760405162461bcd60e51b815260040161104290615660565b6000611357848461568d565b6001600160401b0381111561136e5761136e614ca9565b6040519080825280602002602001820160405280156113c057816020015b60408051608081018252600080825260208083018290529282018190526060820152825260001990920191018161138c5790505b509050835b83811015611466576101cb81815481106113e1576113e1615460565b600091825260209182902060408051608081018252600393909302909101805483526001810154938301939093526002909201546001600160a01b03811692820192909252600160a01b90910460ff161515606082015282611443878461568d565b8151811061145357611453615460565b60209081029190910101526001016113c5565b509392505050565b6000611478613e59565b905090565b6001600160a01b037f00000000000000000000000000000000000000000000000000000000000000001630036114c55760405162461bcd60e51b8152600401611042906156a0565b7f00000000000000000000000000000000000000000000000000000000000000006001600160a01b03166114f7613e63565b6001600160a01b03161461151d5760405162461bcd60e51b8152600401611042906156ec565b61152681613e7f565b6040805160008082526020820190925261154291839190613e87565b50565b600033610d528185856115588383613003565b61156291906155e4565b613364565b61156f613b3f565b611577613bee565b60006115838383613ff2565b905061158e83614067565b6101c8546040517f3e47efa91d5d329f50f04f0b9784b40b63d441ca130a5ddca1865d16e4d612a3916115d09185916001600160a01b03169087908690615738565b60405180910390a1505050565b6115e5613b3f565b6110f6614107565b6001600160a01b0391821660009081526101686020908152604080832093909416825291909152205490565b6001600160a01b0381166000908152610164602052604090205461164f5760405162461bcd60e51b81526004016110429061553d565b600061165b83836127e8565b90508060000361167d5760405162461bcd60e51b815260040161104290615583565b6001600160a01b03831660009081526101676020526040812080548392906116a69084906155e4565b90915550506001600160a01b038084166000908152610168602090815260408083209386168352929052208054820190556116e2838383614140565b826001600160a01b03167f3be5b7a71e84ed12875d241991c70855ac5817d847039e17a9d895c1ceb0f18a838360405161171d9291906155f7565b60405180910390a2505050565b611732613b3f565b6101ce55565b6001600160a01b037f00000000000000000000000000000000000000000000000000000000000000001630036117805760405162461bcd60e51b8152600401611042906156a0565b7f00000000000000000000000000000000000000000000000000000000000000006001600160a01b03166117b2613e63565b6001600160a01b0316146117d85760405162461bcd60e51b8152600401611042906156ec565b6117e182613e7f565b6112e382826001613e87565b6117f5613bee565b60008181526101cf602052604090205433906001600160a01b031680821461188c5761182081614196565b61182982614196565b60405162461bcd60e51b815260206004820152603260248201527f636c61696d206d7573742062652066726f6d20636c61696d616e7473206164646044820152713932b9b99696903234b9b0b63637bbb2b21760711b6064820152608401611042565b60006118988484613ff2565b9050806118ff5760405162461bcd60e51b815260206004820152602f60248201527f4661696c656420746f2073656e64204e46542e20436865636b20436c61696d6160448201526e1b9d08151bdad95b9259081cd95b9d608a1b6064820152608401611042565b61190884614067565b6101c8546040517f3e47efa91d5d329f50f04f0b9784b40b63d441ca130a5ddca1865d16e4d612a39161194a9186916001600160a01b03169088908690615738565b60405180910390a150505050565b6000306001600160a01b037f000000000000000000000000000000000000000000000000000000000000000016146119f35760405162461bcd60e51b815260206004820152603860248201527f555550535570677261646561626c653a206d757374206e6f742062652063616c6044820152771b1959081d1a1c9bdd59da0819195b1959d85d1958d85b1b60421b6064820152608401611042565b5060008051602061588883398151915290565b60606101cb805480602002602001604051908101604052809291908181526020016000905b82821015611a93576000848152602090819020604080516080810182526003860290920180548352600180820154848601526002909101546001600160a01b03811692840192909252600160a01b90910460ff16151560608301529083529092019101611a2b565b50505050905090565b611aa4613b3f565b6110f660006141d9565b6001600160a01b038116600090815261012f6020526040812054610d58565b611ad5613bee565b808203611b305760405162461bcd60e51b815260206004820152602360248201527f4173657875616c20726570726f64756374696f6e206973206e6f7420616c6c6f6044820152621dd95960ea1b6064820152608401611042565b6000611b3b8261422c565b6101c8546040516331a9108f60e11b8152600481018690529192506000916001600160a01b0390911690636352211e90602401602060405180830381865afa158015611b8b573d6000803e3d6000fd5b505050506040513d601f19601f82011682018060405250810190611baf9190615761565b90506001600160a01b0381163014611c395760405162461bcd60e51b815260206004820152604160248201527f596f75206e65656420746f206c6973742f6465706f7369742074686520706c6160448201527f6e657420796f752061726520747279696e6720746f20627265656420776974686064820152601760f91b608482015260a401611042565b60008060005b6101cb54811015611ce657866101cb8281548110611c5f57611c5f615460565b90600052602060002090600302016000015403611cde576101cb8181548110611c8a57611c8a615460565b906000526020600020906003020160020160009054906101000a90046001600160a01b031692506101cb8181548110611cc557611cc5615460565b9060005260206000209060030201600001549150611ce6565b600101611c3f565b506001600160a01b0382163314611d5a5760405162461bcd60e51b815260206004820152603260248201527f596f7520646f206e6f74206f776e2074686520706c616e657420796f7520617260448201527132903a393cb4b733903a3790313932b2b21760711b6064820152608401611042565b600060646101ce5486611d6d919061577e565b611d77919061563e565b905080856101c954611d8991906155e4565b611d9391906155e4565b341015611e025760405162461bcd60e51b815260206004820152603760248201527f496e73756666696369656e742066756e647320746f20636f766572205652462060448201527631b7b9ba1030b73210383934b1b29030b732103332b29760491b6064820152608401611042565b33600080805b6101cb54811015611eaf57896101cb8281548110611e2857611e28615460565b90600052602060002090600302016000015403611ea7576101cb8181548110611e5357611e53615460565b906000526020600020906003020160020160009054906101000a90046001600160a01b031692506101cb8181548110611e8e57611e8e615460565b9060005260206000209060030201600001549150611eaf565b600101611e08565b506706f05b59d3b20000471015611f265760405162461bcd60e51b815260206004820152603560248201527f436f6e74726163742068617320496e73756666696369656e742062616c616e63604482015274652c20636f6e74616374206861746368657220687160581b6064820152608401611042565b6040516000906001600160a01b038416908a156108fc02908b9084818181858888f19350505050905080611f935760405162461bcd60e51b81526020600482015260146024820152732330b4b632b2103a379039b2b7321022ba3432b960611b6044820152606401611042565b6101c6546101c954604051634e9e6a0760e01b8152600481018e9052602481018d9052600060448201526001600160a01b0390921691634e9e6a07919060640160206040518083038185885af1158015611ff1573d6000803e3d6000fd5b50505050506040513d601f19601f82011682018060405250810190612016919061523f565b5060006040518060e00160405280866001600160a01b031681526020018d8152602001600015158152602001600015158152602001856001600160a01b03168152602001848152602001600081525090506101cd6000866001600160a01b03166001600160a01b0316815260200190815260200160002081908060018154018082558091505060019003906000526020600020906005020160009091909190915060008201518160000160006101000a8154816001600160a01b0302191690836001600160a01b031602179055506020820151816001015560408201518160020160006101000a81548160ff02191690831515021790555060608201518160020160016101000a81548160ff02191690831515021790555060808201518160020160026101000a8154816001600160a01b0302191690836001600160a01b0316021790555060a0820151816003015560c082015181600401555050846101cc60008e815260200190815260200160002060006101000a8154816001600160a01b0302191690836001600160a01b03160217905550858a6101c9546121ba91906155e4565b6121c491906155e4565b341115612290576000336001600160a01b0316878c6101c954346121e8919061568d565b6121f2919061568d565b6121fc919061568d565b604051600081818185875af1925050503d8060008114612238576040519150601f19603f3d011682016040523d82523d6000602084013e61223d565b606091505b505090508061228e5760405162461bcd60e51b815260206004820152601d60248201527f4661696c656420746f20726566756e64206578636573732045746865720000006044820152606401611042565b505b604080518d81526001600160a01b0387811660208301528183018e90528616606082015290517f8557df6951fbdd47fe9027516fc896be40f285ed55a6acac460352adbab730cd9181900360800190a1505050505050505050505050565b6122f6613b3f565b6122fe613bee565b6040516370a0823160e01b815284906000906001600160a01b038316906370a082319061232f903090600401614efa565b602060405180830381865afa15801561234c573d6000803e3d6000fd5b505050506040513d601f19601f82011682018060405250810190612370919061523f565b9050808311156123925760405162461bcd60e51b815260040161104290615610565b600061239f60028561563e565b60405163a9059cbb60e01b81529091506001600160a01b0384169063a9059cbb906123d090899085906004016155f7565b6020604051808303816000875af11580156123ef573d6000803e3d6000fd5b505050506040513d601f19601f820116820180604052508101906124139190615795565b61245d5760405162461bcd60e51b815260206004820152601b60248201527a151c985b9cd9995c881d1bc81859191c995cdccc4819985a5b1959602a1b6044820152606401611042565b60405163a9059cbb60e01b81526001600160a01b0384169063a9059cbb9061248b90889085906004016155f7565b6020604051808303816000875af11580156124aa573d6000803e3d6000fd5b505050506040513d601f19601f820116820180604052508101906124ce9190615795565b6125185760405162461bcd60e51b815260206004820152601b60248201527a151c985b9cd9995c881d1bc81859191c995cdccc8819985a5b1959602a1b6044820152606401611042565b50505050505050565b60006060806000806000606060fb546000801b148015612541575060fc54155b6125855760405162461bcd60e51b81526020600482015260156024820152741152540dcc4c8e88155b9a5b9a5d1a585b1a5e9959605a1b6044820152606401611042565b61258d6142cd565b6125956142dc565b60408051600080825260208201909252600f60f81b9b939a50919850469750309650945092509050565b6101ca60205281600052604060002081815481106125dc57600080fd5b60009182526020909120600390910201805460018201546002909201549093509091506001600160a01b03811690600160a01b900460ff1684565b6000610166828154811061262d5761262d615460565b6000918252602090912001546001600160a01b031692915050565b606060cd8054610cc19061520b565b6001600160a01b03166000908152610165602052604090205490565b6000806126806101635490565b61268a90476155e4565b905061269f838261269a86612657565b6142eb565b9392505050565b600033816126b48286613003565b9050838110156127145760405162461bcd60e51b815260206004820152602560248201527f45524332303a2064656372656173656420616c6c6f77616e63652062656c6f77604482015264207a65726f60d81b6064820152608401611042565b61129a8286868403613364565b60405163095ea7b360e01b81526001600160a01b0384169063095ea7b39061274f90859085906004016155f7565b6020604051808303816000875af115801561276e573d6000803e3d6000fd5b505050506040513d601f19601f820116820180604052508101906127929190615795565b6127d55760405162461bcd60e51b8152602060048201526014602482015273115490cc8c08185c1c1c9bdd994819985a5b195960621b6044820152606401611042565b505050565b600033610d52818585613cae565b6000806127f484612e9f565b6040516370a0823160e01b81526001600160a01b038616906370a0823190612820903090600401614efa565b602060405180830381865afa15801561283d573d6000803e3d6000fd5b505050506040513d601f19601f82011682018060405250810190612861919061523f565b61286b91906155e4565b9050611004838261269a87876115ed565b600054610100900460ff161580801561289c5750600054600160ff909116105b806128bd57506128ab3061432b565b1580156128bd575060005460ff166001145b6129205760405162461bcd60e51b815260206004820152602e60248201527f496e697469616c697a61626c653a20636f6e747261637420697320616c72656160448201526d191e481a5b9a5d1a585b1a5e995960921b6064820152608401611042565b6000805460ff191660011790558015612943576000805461ff0019166101001790555b61294b61433a565b612953614369565b61295b614398565b61296482613109565b80156112e3576000805461ff0019169055604051600181527f7f26b83ff96e1f2b6a682f133852f6798a09c465da95921460cefb3847402498906020016110ea565b6129ae613b3f565b6129b6613bee565b6101c955565b6129c4613bee565b6101cb5482106129e65760405162461bcd60e51b815260040161104290615660565b600033905060006101cb8481548110612a0157612a01615460565b6000918252602091829020604080516080810182526003909302909101805483526001810154938301939093526002909201546001600160a01b03811692820183905260ff600160a01b909104161515606082015291503314612a6357600080fd5b6040518060800160405280826000015181526020016000815260200182604001516001600160a01b03168152602001600015158152506101cb8581548110612aad57612aad615460565b60009182526020808320845160039093020191825583015160018201556040830151600290910180546060909401511515600160a01b026001600160a81b03199094166001600160a01b039092169190911792909217909155612b108484613ff2565b905080612b695760405162461bcd60e51b815260206004820152602160248201527f64654c697374696e67204661696c65642073656e64204e46542070726f6365736044820152607360f81b6064820152608401611042565b3360009081526101ca602052604090208054612b879060019061568d565b81548110612b9757612b97615460565b90600052602060002090600302016101ca6000336001600160a01b03166001600160a01b031681526020019081526020016000208681548110612bdc57612bdc615460565b60009182526020808320845460039093020191825560018085015490830155600293840180549490920180546001600160a01b031981166001600160a01b039096169586178255925460ff600160a01b91829004161515026001600160a81b0319909316909417919091179092553381526101ca90915260409020805480612c6657612c666157b0565b600082815260208082206003600019909401938402018281556001810183905560020180546001600160a81b0319169055919092558582526101d090526040902080546001600160a01b03191690556101c85482516040517fc6d479c3ed7081a22666733326104ccbbbaccec81902d39e12430505ee2993bd92612cf99287926001600160a01b03909216918690615738565b60405180910390a15050505050565b612d10613b3f565b612d18613bee565b6101c780546001600160a01b0319166001600160a01b0392909216919091179055565b83421115612d8b5760405162461bcd60e51b815260206004820152601d60248201527f45524332305065726d69743a206578706972656420646561646c696e650000006044820152606401611042565b60007f6e71edae12b1b97f4d1f60370fef10105fa2faae0126114a169c64845d6126c9888888612dba8c6143bf565b6040805160208101969096526001600160a01b0394851690860152929091166060840152608083015260a082015260c0810186905260e0016040516020818303038152906040528051906020012090506000612e15826143e6565b90506000612e2582878787614413565b9050896001600160a01b0316816001600160a01b031614612e885760405162461bcd60e51b815260206004820152601e60248201527f45524332305065726d69743a20696e76616c6964207369676e617475726500006044820152606401611042565b612e938a8a8a613364565b50505050505050505050565b6001600160a01b03166000908152610167602052604090205490565b6001600160a01b03811660009081526101cd60209081526040808320805482518185028101850190935280835260609492939192909184015b82821015612f805760008481526020908190206040805160e0810182526005860290920180546001600160a01b03908116845260018083015485870152600283015460ff80821615159587019590955261010081049094161515606086015262010000909304166080840152600381015460a08401526004015460c08301529083529092019101612ef4565b505050509050919050565b6101c85460405163e985e9c560e01b81526001600160a01b0384811660048301528381166024830152600092169063e985e9c590604401602060405180830381865afa158015612fdf573d6000803e3d6000fd5b505050506040513d601f19601f8201168201806040525081019061269f9190615795565b6001600160a01b03918216600090815260ca6020908152604080832093909416825291909152205490565b6101cd602052816000526040600020818154811061304b57600080fd5b6000918252602090912060059091020180546001820154600283015460038401546004909401546001600160a01b03938416965091945060ff80821694610100830490911693620100009092049091169187565b6130a7613b3f565b6130af613bee565b6101c9939093556101c680546001600160a01b039586166001600160a01b0319918216179091556101c88054938616938216939093179092556101d180549185169183169190911790556101d28054929093169116179055565b613111613b3f565b6001600160a01b0381166131765760405162461bcd60e51b815260206004820152602660248201527f4f776e61626c653a206e6577206f776e657220697320746865207a65726f206160448201526564647265737360d01b6064820152608401611042565b611542816141d9565b6001600160a01b03821660009081526101cd60205260408120815b815481101561118157838282815481106131b6576131b6615460565b90600052602060002090600502016004015403613207578181815481106131df576131df615460565b906000526020600020906005020160020160019054906101000a900460ff1692505050610d58565b60010161319a565b613217613b3f565b61321f613bee565b60405163a22cb46560e01b81526001600160a01b0382811660048301526001602483015283169063a22cb465906044015b600060405180830381600087803b15801561326a57600080fd5b505af115801561327e573d6000803e3d6000fd5b505050505050565b61328e613b3f565b6101c8546040516323b872dd60e01b81526001600160a01b03909116906323b872dd90613250903090859087906004016157c6565b6001600160a01b03811660009081526101ca60209081526040808320805482518185028101850190935280835260609492939192909184015b82821015612f80576000848152602090819020604080516080810182526003860290920180548352600180820154848601526002909101546001600160a01b03811692840192909252600160a01b90910460ff161515606083015290835290920191016132fc565b6001600160a01b0383166133c65760405162461bcd60e51b8152602060048201526024808201527f45524332303a20617070726f76652066726f6d20746865207a65726f206164646044820152637265737360e01b6064820152608401611042565b6001600160a01b0382166134275760405162461bcd60e51b815260206004820152602260248201527f45524332303a20617070726f766520746f20746865207a65726f206164647265604482015261737360f01b6064820152608401611042565b6001600160a01b03838116600081815260ca602090815260408083209487168084529482529182902085905590518481527f8c5be1e5ebec7d5bd14f71427d1e84f3dd0314c0f7b2291e5b200ac8c7c3b925910160405180910390a3505050565b604080516080808201835285825260208083018681526001600160a01b03868116858701818152600160608089018281526101cb8054808501825560009182528b517fe8bbfecd380c4167d6a1f763a233ec73e73f534b1970c4e1683f437ec23c1f4460039283029081019190915589517fe8bbfecd380c4167d6a1f763a233ec73e73f534b1970c4e1683f437ec23c1f4582015586517fe8bbfecd380c4167d6a1f763a233ec73e73f534b1970c4e1683f437ec23c1f4690910180548551928b166001600160a81b031991821617600160a01b9315158402179091558884526101ca8c528e8420805480890182559085528c85208f519190940290930192835599519582019590955594516002909501805492519588169290981691909117931515909202929092179094558a84526101d085529287902080546001600160a01b03191690911790556101c854865133815291169281019290925293810187905292830185905290917fb30319a217488a3ed441c348e935a48d16091e33109bab0c79a353b979752883910161194a565b82516020808501518351918401519091906000805b6001600160a01b03861660009081526101cd60205260409020548110156137f0576001600160a01b0386811660009081526101cd602052604090208054918716918390811061368057613680615460565b60009182526020909120600590910201600201546201000090046001600160a01b03161480156136ed57506001600160a01b03861660009081526101cd602052604090208054859190839081106136d9576136d9615460565b906000526020600020906005020160010154145b801561373657506001600160a01b03861660009081526101cd6020526040902080548491908390811061372257613722615460565b906000526020600020906005020160030154145b156137e8576001600160a01b03861660009081526101cd602052604090208054600191908390811061376a5761376a615460565b906000526020600020906005020160020160016101000a81548160ff021916908315150217905550876101cd6000886001600160a01b03166001600160a01b0316815260200190815260200160002082815481106137ca576137ca615460565b906000526020600020906005020160040181905550600191506137f0565b60010161362f565b50806139bc5760005b6001600160a01b03851660009081526101cd60205260409020548110156139ba576001600160a01b0385811660009081526101cd602052604090208054918816918390811061384a5761384a615460565b60009182526020909120600590910201600201546201000090046001600160a01b03161480156138b757506001600160a01b03851660009081526101cd602052604090208054849190839081106138a3576138a3615460565b906000526020600020906005020160010154145b801561390057506001600160a01b03851660009081526101cd602052604090208054859190839081106138ec576138ec615460565b906000526020600020906005020160030154145b156139b2576001600160a01b03851660009081526101cd602052604090208054600191908390811061393457613934615460565b906000526020600020906005020160020160016101000a81548160ff021916908315150217905550876101cd6000876001600160a01b03166001600160a01b03168152602001908152602001600020828154811061399457613994615460565b906000526020600020906005020160040181905550600191506139ba565b6001016137f9565b505b80613a1f5760405162461bcd60e51b815260206004820152602d60248201527f506c616e65742073656e7420657272616e746c792c206e6f206d61746368696e60448201526c19c818db185a5b48199bdd5b99609a1b6064820152608401611042565b5050505050505050565b80471015613a795760405162461bcd60e51b815260206004820152601d60248201527f416464726573733a20696e73756666696369656e742062616c616e63650000006044820152606401611042565b6000826001600160a01b03168260405160006040518083038185875af1925050503d8060008114613ac6576040519150601f19603f3d011682016040523d82523d6000602084013e613acb565b606091505b50509050806127d55760405162461bcd60e51b815260206004820152603a60248201527f416464726573733a20756e61626c6520746f2073656e642076616c75652c20726044820152791958da5c1a595b9d081b585e481a185d99481c995d995c9d195960321b6064820152608401611042565b610194546001600160a01b031633146110f65760405162461bcd60e51b815260206004820181905260248201527f4f776e61626c653a2063616c6c6572206973206e6f7420746865206f776e65726044820152606401611042565b613ba2613bee565b6033805460ff191660011790557f62e78cea01bee320cd4e420270b5ea74000d11b0c9f74754ebdbfc544b05a258613bd73390565b604051613be49190614efa565b60405180910390a1565b60335460ff16156110f65760405162461bcd60e51b815260206004820152601060248201526f14185d5cd8589b194e881c185d5cd95960821b6044820152606401611042565b6000613c408484613003565b90506000198114613ca85781811015613c9b5760405162461bcd60e51b815260206004820152601d60248201527f45524332303a20696e73756666696369656e7420616c6c6f77616e63650000006044820152606401611042565b613ca88484848403613364565b50505050565b6001600160a01b038316613d125760405162461bcd60e51b815260206004820152602560248201527f45524332303a207472616e736665722066726f6d20746865207a65726f206164604482015264647265737360d81b6064820152608401611042565b6001600160a01b038216613d745760405162461bcd60e51b815260206004820152602360248201527f45524332303a207472616e7366657220746f20746865207a65726f206164647260448201526265737360e81b6064820152608401611042565b6001600160a01b038316600090815260c9602052604090205481811015613dec5760405162461bcd60e51b815260206004820152602660248201527f45524332303a207472616e7366657220616d6f756e7420657863656564732062604482015265616c616e636560d01b6064820152608401611042565b6001600160a01b03808516600081815260c9602052604080822086860390559286168082529083902080548601905591517fddf252ad1be2c89b69c2b068fc378daa952ba7f163c4a11628f55a4df523b3ef90613e4c9086815260200190565b60405180910390a3613ca8565b600061147861443b565b600080516020615888833981519152546001600160a01b031690565b611542613b3f565b7f4910fdfa16fed3260ed0e7147f7cc6da11a60208b5b9406d12a635614ffd91435460ff1615613eba576127d5836144af565b826001600160a01b03166352d1902d6040518163ffffffff1660e01b8152600401602060405180830381865afa925050508015613f14575060408051601f3d908101601f19168201909252613f119181019061523f565b60015b613f775760405162461bcd60e51b815260206004820152602e60248201527f45524331393637557067726164653a206e657720696d706c656d656e7461746960448201526d6f6e206973206e6f74205555505360901b6064820152608401611042565b6000805160206158888339815191528114613fe65760405162461bcd60e51b815260206004820152602960248201527f45524331393637557067726164653a20756e737570706f727465642070726f786044820152681a58589b195555525160ba1b6064820152608401611042565b506127d5838383614549565b6101c854604051632142170760e11b81526000916001600160a01b0316906342842e0e90614028903090869088906004016157c6565b600060405180830381600087803b15801561404257600080fd5b505af1925050508015614053575060015b61405f57506000610d58565b506001610d58565b60008181526101cc60209081526040808320546001600160a01b03168084526101cd909252822090915b8154811015613ca857838282815481106140ad576140ad615460565b906000526020600020906005020160040154036140ff5760018282815481106140d8576140d8615460565b60009182526020909120600590910201600201805460ff1916911515919091179055613ca8565b600101614091565b61410f61456e565b6033805460ff191690557f5db9ee0a495bf2e6ff9c91a7834c1ba4fdd244a5e8aa4e537bd38aeae4b073aa33613bd7565b6127d58363a9059cbb60e01b848460405160240161415f9291906155f7565b60408051601f198184030181529190526020810180516001600160e01b03166001600160e01b0319909316929092179091526145b7565b611542816040516024016141aa9190614efa565b60408051601f198184030181529190526020810180516001600160e01b031663161765e160e11b17905261468c565b61019480546001600160a01b038381166001600160a01b0319831681179093556040519116919082907f8be0079c531659141344cd1fd0a4f28419497f9722a3daafe3b4186f6b6457e090600090a35050565b6000614236613bee565b60005b6101cb548110156142c657826101cb828154811061425957614259615460565b9060005260206000209060030201600001540361429e576101cb818154811061428457614284615460565b906000526020600020906003020160010154915050919050565b6101cb546142ae9060019061568d565b81036142be575060001992915050565b600101614239565b505b919050565b606060fd8054610cc19061520b565b606060fe8054610cc19061520b565b610162546001600160a01b0384166000908152610164602052604081205490918391614317908661577e565b614321919061563e565b611004919061568d565b6001600160a01b03163b151590565b600054610100900460ff166143615760405162461bcd60e51b8152600401611042906157ea565b6110f6614695565b600054610100900460ff166143905760405162461bcd60e51b8152600401611042906157ea565b6110f66146c5565b600054610100900460ff166110f65760405162461bcd60e51b8152600401611042906157ea565b6001600160a01b038116600090815261012f602052604090208054600181018255906142c6565b6000610d586143f3613e59565b8360405161190160f01b8152600281019290925260228201526042902090565b6000806000614424878787876146f8565b91509150614431816147b2565b5095945050505050565b60007f8b73c3c69bb8fe3d512ecc4cf759cc79239f7b179b0ffacaa9a75d522b39400f6144666148f7565b61446e614950565b60408051602081019490945283019190915260608201524660808201523060a082015260c00160405160208183030381529060405280519060200120905090565b6144b88161432b565b61451a5760405162461bcd60e51b815260206004820152602d60248201527f455243313936373a206e657720696d706c656d656e746174696f6e206973206e60448201526c1bdd08184818dbdb9d1c9858dd609a1b6064820152608401611042565b60008051602061588883398151915280546001600160a01b0319166001600160a01b0392909216919091179055565b61455283614981565b60008251118061455f5750805b156127d557613ca883836149c1565b60335460ff166110f65760405162461bcd60e51b815260206004820152601460248201527314185d5cd8589b194e881b9bdd081c185d5cd95960621b6044820152606401611042565b600061460c826040518060400160405280602081526020017f5361666545524332303a206c6f772d6c6576656c2063616c6c206661696c6564815250856001600160a01b03166149e69092919063ffffffff16565b905080516000148061462d57508080602001905181019061462d9190615795565b6127d55760405162461bcd60e51b815260206004820152602a60248201527f5361666545524332303a204552433230206f7065726174696f6e20646964206e6044820152691bdd081cdd58d8d9595960b21b6064820152608401611042565b611542816149f5565b600054610100900460ff166146bc5760405162461bcd60e51b8152600401611042906157ea565b6110f6336141d9565b600054610100900460ff166146ec5760405162461bcd60e51b8152600401611042906157ea565b6033805460ff19169055565b6000806fa2a8918ca85bafe22016d0b997e4df60600160ff1b0383111561472557506000905060036147a9565b6040805160008082526020820180845289905260ff881692820192909252606081018690526080810185905260019060a0016020604051602081039080840390855afa158015614779573d6000803e3d6000fd5b5050604051601f1901519150506001600160a01b0381166147a2576000600192509250506147a9565b9150600090505b94509492505050565b60008160048111156147c6576147c6615835565b036147ce5750565b60018160048111156147e2576147e2615835565b0361482a5760405162461bcd60e51b815260206004820152601860248201527745434453413a20696e76616c6964207369676e617475726560401b6044820152606401611042565b600281600481111561483e5761483e615835565b0361488b5760405162461bcd60e51b815260206004820152601f60248201527f45434453413a20696e76616c6964207369676e6174757265206c656e677468006044820152606401611042565b600381600481111561489f5761489f615835565b036115425760405162461bcd60e51b815260206004820152602260248201527f45434453413a20696e76616c6964207369676e6174757265202773272076616c604482015261756560f01b6064820152608401611042565b6000806149026142cd565b805190915015614919578051602090910120919050565b60fb5480156149285792915050565b7fc5d2460186f7233c927e7db2dcc703c0e500b653ca82273b7bfad8045d85a4709250505090565b60008061495b6142dc565b805190915015614972578051602090910120919050565b60fc5480156149285792915050565b61498a816144af565b6040516001600160a01b038216907fbc7cd75a20ee27fd9adebab32041f755214dbc6bffa90cc0225b39da2e5c2d3b90600090a250565b606061269f83836040518060600160405280602781526020016158a860279139614a16565b60606110048484600085614a8e565b60006a636f6e736f6c652e6c6f679050600080835160208501845afa505050565b6060600080856001600160a01b031685604051614a33919061584b565b600060405180830381855af49150503d8060008114614a6e576040519150601f19603f3d011682016040523d82523d6000602084013e614a73565b606091505b5091509150614a8486838387614b69565b9695505050505050565b606082471015614aef5760405162461bcd60e51b815260206004820152602660248201527f416464726573733a20696e73756666696369656e742062616c616e636520666f6044820152651c8818d85b1b60d21b6064820152608401611042565b600080866001600160a01b03168587604051614b0b919061584b565b60006040518083038185875af1925050503d8060008114614b48576040519150601f19603f3d011682016040523d82523d6000602084013e614b4d565b606091505b5091509150614b5e87838387614b69565b979650505050505050565b60608315614bd6578251600003614bcf57614b838561432b565b614bcf5760405162461bcd60e51b815260206004820152601d60248201527f416464726573733a2063616c6c20746f206e6f6e2d636f6e74726163740000006044820152606401611042565b5081611004565b6110048383815115614beb5781518083602001fd5b8060405162461bcd60e51b81526004016110429190614c55565b60005b83811015614c20578181015183820152602001614c08565b50506000910152565b60008151808452614c41816020860160208601614c05565b601f01601f19169290920160200192915050565b60208152600061269f6020830184614c29565b6001600160a01b038116811461154257600080fd5b60008060408385031215614c9057600080fd5b8235614c9b81614c68565b946020939093013593505050565b634e487b7160e01b600052604160045260246000fd5b60405161016081016001600160401b0381118282101715614ce257614ce2614ca9565b60405290565b604051601f8201601f191681016001600160401b0381118282101715614d1057614d10614ca9565b604052919050565b600082601f830112614d2957600080fd5b81356001600160401b03811115614d4257614d42614ca9565b614d55601f8201601f1916602001614ce8565b818152846020838601011115614d6a57600080fd5b816020850160208301376000918101602001919091529392505050565b60008060008060808587031215614d9d57600080fd5b8435614da881614c68565b93506020850135614db881614c68565b92506040850135915060608501356001600160401b03811115614dda57600080fd5b614de687828801614d18565b91505092959194509250565b600060208284031215614e0457600080fd5b813561269f81614c68565b600080600060608486031215614e2457600080fd5b8335614e2f81614c68565b92506020840135614e3f81614c68565b929592945050506040919091013590565b60008060408385031215614e6357600080fd5b50508035926020909101359150565b602080825282518282018190526000919060409081850190868401855b82811015614ed4578151805185528681015187860152858101516001600160a01b03168686015260609081015115159085015260809093019290850190600101614e8f565b5091979650505050505050565b600060208284031215614ef357600080fd5b5035919050565b6001600160a01b0391909116815260200190565b60008060408385031215614f2157600080fd5b823591506020830135614f3381614c68565b809150509250929050565b60008060408385031215614f5157600080fd5b8235614f5c81614c68565b91506020830135614f3381614c68565b60008060408385031215614f7f57600080fd5b8235614f8a81614c68565b915060208301356001600160401b03811115614fa557600080fd5b614fb185828601614d18565b9150509250929050565b60008060008060808587031215614fd157600080fd5b8435614fdc81614c68565b93506020850135614fec81614c68565b92506040850135614ffc81614c68565b9396929550929360600135925050565b60ff60f81b881681526000602060e0602084015261502d60e084018a614c29565b838103604085015261503f818a614c29565b606085018990526001600160a01b038816608086015260a0850187905284810360c08601528551808252602080880193509091019060005b8181101561509357835183529284019291840191600101615077565b50909c9b505050505050505050505050565b600080600080600080600060e0888a0312156150c057600080fd5b87356150cb81614c68565b965060208801356150db81614c68565b95506040880135945060608801359350608088013560ff811681146150ff57600080fd5b9699959850939692959460a0840135945060c09093013592915050565b602080825282518282018190526000919060409081850190868401855b82811015614ed457815180516001600160a01b0390811686528782015188870152868201511515878701526060808301511515908701526080808301519091169086015260a0808201519086015260c0908101519085015260e09093019290850190600101615139565b600080600080600060a086880312156151bb57600080fd5b85356151c681614c68565b94506020860135935060408601356151dd81614c68565b925060608601356151ed81614c68565b915060808601356151fd81614c68565b809150509295509295909350565b600181811c9082168061521f57607f821691505b6020821081036142c657634e487b7160e01b600052602260045260246000fd5b60006020828403121561525157600080fd5b5051919050565b6001600160a01b038581168252841660208201526040810183905260a06060820181905260009061528b90830184614c29565b8281036080840152600e81526d1b1a5cdd1a5b99c81c1b185b995d60921b60208201526040810191505095945050505050565b600082601f8301126152cf57600080fd5b815160206001600160401b038211156152ea576152ea614ca9565b8160051b6152f9828201614ce8565b928352848101820192828101908785111561531357600080fd5b83870192505b84831015614b5e57825182529183019190830190615319565b805180151581146142c857600080fd5b6000806040838503121561535557600080fd5b82516001600160401b038082111561536c57600080fd5b90840190610160828703121561538157600080fd5b615389614cbf565b825181526020830151602082015260408301516040820152606083015160608201526080830151608082015260a083015160a082015260c083015160c082015260e083015160e082015261010080840151838111156153e757600080fd5b6153f3898287016152be565b828401525050610120808401518381111561540d57600080fd5b615419898287016152be565b828401525050610140808401518381111561543357600080fd5b61543f898287016152be565b82840152505080945050505061545760208401615332565b90509250929050565b634e487b7160e01b600052603260045260246000fd5b6001600160a01b038581168252841660208201526040810183905260a0606082018190526000906154a990830184614c29565b8281036080840152600a8152691b995dc81c1b185b995d60b21b60208201526040810191505095945050505050565b6001600160a01b038581168252841660208201526040810183905260a06060820181905260009061550b90830184614c29565b8281036080840152600d81526c1d5b98d85d1959dbdc9a5e9959609a1b60208201526040810191505095945050505050565b60208082526026908201527f5061796d656e7453706c69747465723a206163636f756e7420686173206e6f2060408201526573686172657360d01b606082015260800190565b6020808252602b908201527f5061796d656e7453706c69747465723a206163636f756e74206973206e6f742060408201526a191d59481c185e5b595b9d60aa1b606082015260800190565b634e487b7160e01b600052601160045260246000fd5b80820180821115610d5857610d586155ce565b6001600160a01b03929092168252602082015260400190565b602080825260149082015273496e73756666696369656e742062616c616e636560601b604082015260600190565b60008261565b57634e487b7160e01b600052601260045260246000fd5b500490565b602080825260139082015272496e646578206f7574206f6620626f756e647360681b604082015260600190565b81810381811115610d5857610d586155ce565b6020808252602c908201527f46756e6374696f6e206d7573742062652063616c6c6564207468726f7567682060408201526b19195b1959d85d1958d85b1b60a21b606082015260800190565b6020808252602c908201527f46756e6374696f6e206d7573742062652063616c6c6564207468726f7567682060408201526b6163746976652070726f787960a01b606082015260800190565b6001600160a01b0394851681529290931660208301526040820152901515606082015260800190565b60006020828403121561577357600080fd5b815161269f81614c68565b8082028115828204841417610d5857610d586155ce565b6000602082840312156157a757600080fd5b61269f82615332565b634e487b7160e01b600052603160045260246000fd5b6001600160a01b039384168152919092166020820152604081019190915260600190565b6020808252602b908201527f496e697469616c697a61626c653a20636f6e7472616374206973206e6f74206960408201526a6e697469616c697a696e6760a81b606082015260800190565b634e487b7160e01b600052602160045260246000fd5b6000825161585d818460208701614c05565b919091019291505056fe13c6ec2a463a35f898a457814a782f1f567808293fa783a31fa4dac8868e6011360894a13ba1a3210667c828492db98dca3e2076cc3735a920a3ca505d382bbc416464726573733a206c6f772d6c6576656c2064656c65676174652063616c6c206661696c6564a2646970667358221220354a5ac5ea4355b7b72f3c78d5fa3bb1b5dfed56fe2c7e7437a22984c930cd6f64736f6c63430008180033",
  "linkReferences": {},
  "deployedLinkReferences": {}
}