{
  "_format": "hh-sol-artifact-1",
  "contractName": "HatcherVOld2",
  "sourceName": "contracts/Older/HatcherV3Old2.sol",
  "abi": [
    {
      "inputs": [],
      "name": "Unauthorized",
      "type": "error"
    },
    {
      "anonymous": false,
      "inputs": [
        {
          "indexed": false,
          "internalType": "address",
          "name": "previousAdmin",
          "type": "address"
        },
        {
          "indexed": false,
          "internalType": "address",
          "name": "newAdmin",
          "type": "address"
        }
      ],
      "name": "AdminChanged",
      "type": "event"
    },
    {
      "anonymous": false,
      "inputs": [
        {
          "indexed": true,
          "internalType": "address",
          "name": "owner",
          "type": "address"
        },
        {
          "indexed": true,
          "internalType": "address",
          "name": "spender",
          "type": "address"
        },
        {
          "indexed": false,
          "internalType": "uint256",
          "name": "value",
          "type": "uint256"
        }
      ],
      "name": "Approval",
      "type": "event"
    },
    {
      "anonymous": false,
      "inputs": [
        {
          "indexed": true,
          "internalType": "address",
          "name": "beacon",
          "type": "address"
        }
      ],
      "name": "BeaconUpgraded",
      "type": "event"
    },
    {
      "anonymous": false,
      "inputs": [
        {
          "indexed": false,
          "internalType": "address",
          "name": "sentToUser",
          "type": "address"
        },
        {
          "indexed": false,
          "internalType": "address",
          "name": "token",
          "type": "address"
        },
        {
          "indexed": false,
          "internalType": "uint256",
          "name": "tokenId",
          "type": "uint256"
        },
        {
          "indexed": false,
          "internalType": "bool",
          "name": "success",
          "type": "bool"
        }
      ],
      "name": "DeClaimedAPlanet",
      "type": "event"
    },
    {
      "anonymous": false,
      "inputs": [
        {
          "indexed": false,
          "internalType": "address",
          "name": "sentToUser",
          "type": "address"
        },
        {
          "indexed": false,
          "internalType": "address",
          "name": "token",
          "type": "address"
        },
        {
          "indexed": false,
          "internalType": "uint256",
          "name": "tokenId",
          "type": "uint256"
        },
        {
          "indexed": false,
          "internalType": "bool",
          "name": "success",
          "type": "bool"
        }
      ],
      "name": "DeListedAPlanet",
      "type": "event"
    },
    {
      "anonymous": false,
      "inputs": [],
      "name": "EIP712DomainChanged",
      "type": "event"
    },
    {
      "anonymous": false,
      "inputs": [
        {
          "indexed": true,
          "internalType": "contract IERC20Upgradeable",
          "name": "token",
          "type": "address"
        },
        {
          "indexed": false,
          "internalType": "address",
          "name": "to",
          "type": "address"
        },
        {
          "indexed": false,
          "internalType": "uint256",
          "name": "amount",
          "type": "uint256"
        }
      ],
      "name": "ERC20PaymentReleased",
      "type": "event"
    },
    {
      "anonymous": false,
      "inputs": [
        {
          "indexed": false,
          "internalType": "uint8",
          "name": "version",
          "type": "uint8"
        }
      ],
      "name": "Initialized",
      "type": "event"
    },
    {
      "anonymous": false,
      "inputs": [
        {
          "indexed": false,
          "internalType": "address",
          "name": "sentFromUser",
          "type": "address"
        },
        {
          "indexed": false,
          "internalType": "address",
          "name": "token",
          "type": "address"
        },
        {
          "indexed": false,
          "internalType": "uint256",
          "name": "tokenId",
          "type": "uint256"
        },
        {
          "indexed": false,
          "internalType": "uint256",
          "name": "price",
          "type": "uint256"
        }
      ],
      "name": "ListedAPlanet",
      "type": "event"
    },
    {
      "anonymous": false,
      "inputs": [
        {
          "indexed": false,
          "internalType": "address",
          "name": "operator",
          "type": "address"
        },
        {
          "indexed": false,
          "internalType": "address",
          "name": "from",
          "type": "address"
        },
        {
          "indexed": false,
          "internalType": "uint256",
          "name": "tokenId",
          "type": "uint256"
        },
        {
          "indexed": false,
          "internalType": "bytes",
          "name": "data",
          "type": "bytes"
        },
        {
          "indexed": false,
          "internalType": "string",
          "name": "typeOfReceival",
          "type": "string"
        }
      ],
      "name": "NftReceived",
      "type": "event"
    },
    {
      "anonymous": false,
      "inputs": [
        {
          "indexed": true,
          "internalType": "address",
          "name": "previousOwner",
          "type": "address"
        },
        {
          "indexed": true,
          "internalType": "address",
          "name": "newOwner",
          "type": "address"
        }
      ],
      "name": "OwnershipTransferred",
      "type": "event"
    },
    {
      "anonymous": false,
      "inputs": [
        {
          "indexed": false,
          "internalType": "address",
          "name": "account",
          "type": "address"
        }
      ],
      "name": "Paused",
      "type": "event"
    },
    {
      "anonymous": false,
      "inputs": [
        {
          "indexed": false,
          "internalType": "address",
          "name": "account",
          "type": "address"
        },
        {
          "indexed": false,
          "internalType": "uint256",
          "name": "shares",
          "type": "uint256"
        }
      ],
      "name": "PayeeAdded",
      "type": "event"
    },
    {
      "anonymous": false,
      "inputs": [
        {
          "indexed": false,
          "internalType": "address",
          "name": "from",
          "type": "address"
        },
        {
          "indexed": false,
          "internalType": "uint256",
          "name": "amount",
          "type": "uint256"
        }
      ],
      "name": "PaymentReceived",
      "type": "event"
    },
    {
      "anonymous": false,
      "inputs": [
        {
          "indexed": false,
          "internalType": "address",
          "name": "to",
          "type": "address"
        },
        {
          "indexed": false,
          "internalType": "uint256",
          "name": "amount",
          "type": "uint256"
        }
      ],
      "name": "PaymentReleased",
      "type": "event"
    },
    {
      "anonymous": false,
      "inputs": [
        {
          "indexed": false,
          "internalType": "uint256",
          "name": "planetAsking",
          "type": "uint256"
        },
        {
          "indexed": false,
          "internalType": "address",
          "name": "askingUser",
          "type": "address"
        },
        {
          "indexed": false,
          "internalType": "uint256",
          "name": "planetJoining",
          "type": "uint256"
        },
        {
          "indexed": false,
          "internalType": "address",
          "name": "joiningUser",
          "type": "address"
        }
      ],
      "name": "PlanetsConjoining",
      "type": "event"
    },
    {
      "anonymous": false,
      "inputs": [
        {
          "indexed": true,
          "internalType": "address",
          "name": "from",
          "type": "address"
        },
        {
          "indexed": true,
          "internalType": "address",
          "name": "to",
          "type": "address"
        },
        {
          "indexed": false,
          "internalType": "uint256",
          "name": "value",
          "type": "uint256"
        }
      ],
      "name": "Transfer",
      "type": "event"
    },
    {
      "anonymous": false,
      "inputs": [
        {
          "indexed": false,
          "internalType": "address",
          "name": "account",
          "type": "address"
        }
      ],
      "name": "Unpaused",
      "type": "event"
    },
    {
      "anonymous": false,
      "inputs": [
        {
          "indexed": true,
          "internalType": "address",
          "name": "implementation",
          "type": "address"
        }
      ],
      "name": "Upgraded",
      "type": "event"
    },
    {
      "stateMutability": "payable",
      "type": "fallback"
    },
    {
      "inputs": [],
      "name": "DOMAIN_SEPARATOR",
      "outputs": [
        {
          "internalType": "bytes32",
          "name": "",
          "type": "bytes32"
        }
      ],
      "stateMutability": "view",
      "type": "function"
    },
    {
      "inputs": [
        {
          "internalType": "address",
          "name": "owner",
          "type": "address"
        },
        {
          "internalType": "address",
          "name": "spender",
          "type": "address"
        }
      ],
      "name": "allowance",
      "outputs": [
        {
          "internalType": "uint256",
          "name": "",
          "type": "uint256"
        }
      ],
      "stateMutability": "view",
      "type": "function"
    },
    {
      "inputs": [
        {
          "internalType": "address",
          "name": "spender",
          "type": "address"
        },
        {
          "internalType": "uint256",
          "name": "amount",
          "type": "uint256"
        }
      ],
      "name": "approve",
      "outputs": [
        {
          "internalType": "bool",
          "name": "",
          "type": "bool"
        }
      ],
      "stateMutability": "nonpayable",
      "type": "function"
    },
    {
      "inputs": [
        {
          "internalType": "contract IERC721",
          "name": "token",
          "type": "address"
        },
        {
          "internalType": "address",
          "name": "operator",
          "type": "address"
        }
      ],
      "name": "approveAllERC721Tokens",
      "outputs": [],
      "stateMutability": "nonpayable",
      "type": "function"
    },
    {
      "inputs": [
        {
          "internalType": "contract IERC20",
          "name": "token",
          "type": "address"
        },
        {
          "internalType": "address",
          "name": "spender",
          "type": "address"
        },
        {
          "internalType": "uint256",
          "name": "amount",
          "type": "uint256"
        }
      ],
      "name": "approveERC20",
      "outputs": [],
      "stateMutability": "nonpayable",
      "type": "function"
    },
    {
      "inputs": [
        {
          "internalType": "address",
          "name": "account",
          "type": "address"
        }
      ],
      "name": "balanceOf",
      "outputs": [
        {
          "internalType": "uint256",
          "name": "",
          "type": "uint256"
        }
      ],
      "stateMutability": "view",
      "type": "function"
    },
    {
      "inputs": [],
      "name": "breedContract",
      "outputs": [
        {
          "internalType": "contract IBreedContract",
          "name": "",
          "type": "address"
        }
      ],
      "stateMutability": "view",
      "type": "function"
    },
    {
      "inputs": [
        {
          "internalType": "uint256",
          "name": "newVRF",
          "type": "uint256"
        }
      ],
      "name": "changeVRFValue",
      "outputs": [],
      "stateMutability": "nonpayable",
      "type": "function"
    },
    {
      "inputs": [
        {
          "internalType": "address",
          "name": "owner",
          "type": "address"
        },
        {
          "internalType": "address",
          "name": "operator",
          "type": "address"
        }
      ],
      "name": "checkApprovalForAll",
      "outputs": [
        {
          "internalType": "bool",
          "name": "",
          "type": "bool"
        }
      ],
      "stateMutability": "view",
      "type": "function"
    },
    {
      "inputs": [
        {
          "internalType": "uint256",
          "name": "claimableTokenId",
          "type": "uint256"
        }
      ],
      "name": "claimPlanet",
      "outputs": [],
      "stateMutability": "nonpayable",
      "type": "function"
    },
    {
      "inputs": [
        {
          "internalType": "address",
          "name": "",
          "type": "address"
        },
        {
          "internalType": "uint256",
          "name": "",
          "type": "uint256"
        }
      ],
      "name": "claimablePlanets",
      "outputs": [
        {
          "internalType": "address",
          "name": "ownerParentAddress",
          "type": "address"
        },
        {
          "internalType": "uint256",
          "name": "ownerTokenId",
          "type": "uint256"
        },
        {
          "internalType": "bool",
          "name": "delivered",
          "type": "bool"
        },
        {
          "internalType": "bool",
          "name": "arrived",
          "type": "bool"
        },
        {
          "internalType": "address",
          "name": "otherParent",
          "type": "address"
        },
        {
          "internalType": "uint256",
          "name": "otherTokenId",
          "type": "uint256"
        },
        {
          "internalType": "uint256",
          "name": "claimsTokenId",
          "type": "uint256"
        }
      ],
      "stateMutability": "view",
      "type": "function"
    },
    {
      "inputs": [
        {
          "internalType": "uint256",
          "name": "",
          "type": "uint256"
        }
      ],
      "name": "claimantTokenIdToOwnerAddress",
      "outputs": [
        {
          "internalType": "address",
          "name": "",
          "type": "address"
        }
      ],
      "stateMutability": "view",
      "type": "function"
    },
    {
      "inputs": [
        {
          "internalType": "uint256",
          "name": "yourPlanet",
          "type": "uint256"
        },
        {
          "internalType": "uint256",
          "name": "withListedPlanet",
          "type": "uint256"
        }
      ],
      "name": "conjunct",
      "outputs": [],
      "stateMutability": "payable",
      "type": "function"
    },
    {
      "inputs": [
        {
          "internalType": "uint256",
          "name": "idIndex",
          "type": "uint256"
        },
        {
          "internalType": "uint256",
          "name": "tokenId",
          "type": "uint256"
        }
      ],
      "name": "deList",
      "outputs": [],
      "stateMutability": "nonpayable",
      "type": "function"
    },
    {
      "inputs": [],
      "name": "deListAllYourPlanets",
      "outputs": [],
      "stateMutability": "nonpayable",
      "type": "function"
    },
    {
      "inputs": [],
      "name": "decimals",
      "outputs": [
        {
          "internalType": "uint8",
          "name": "",
          "type": "uint8"
        }
      ],
      "stateMutability": "view",
      "type": "function"
    },
    {
      "inputs": [
        {
          "internalType": "address",
          "name": "spender",
          "type": "address"
        },
        {
          "internalType": "uint256",
          "name": "subtractedValue",
          "type": "uint256"
        }
      ],
      "name": "decreaseAllowance",
      "outputs": [
        {
          "internalType": "bool",
          "name": "",
          "type": "bool"
        }
      ],
      "stateMutability": "nonpayable",
      "type": "function"
    },
    {
      "inputs": [],
      "name": "eip712Domain",
      "outputs": [
        {
          "internalType": "bytes1",
          "name": "fields",
          "type": "bytes1"
        },
        {
          "internalType": "string",
          "name": "name",
          "type": "string"
        },
        {
          "internalType": "string",
          "name": "version",
          "type": "string"
        },
        {
          "internalType": "uint256",
          "name": "chainId",
          "type": "uint256"
        },
        {
          "internalType": "address",
          "name": "verifyingContract",
          "type": "address"
        },
        {
          "internalType": "bytes32",
          "name": "salt",
          "type": "bytes32"
        },
        {
          "internalType": "uint256[]",
          "name": "extensions",
          "type": "uint256[]"
        }
      ],
      "stateMutability": "view",
      "type": "function"
    },
    {
      "inputs": [],
      "name": "getAllPlanets",
      "outputs": [
        {
          "components": [
            {
              "internalType": "uint256",
              "name": "tokenId",
              "type": "uint256"
            },
            {
              "internalType": "uint256",
              "name": "price",
              "type": "uint256"
            },
            {
              "internalType": "address",
              "name": "ownerAddress",
              "type": "address"
            },
            {
              "internalType": "bool",
              "name": "active",
              "type": "bool"
            }
          ],
          "internalType": "struct ListedPlanet[]",
          "name": "",
          "type": "tuple[]"
        }
      ],
      "stateMutability": "view",
      "type": "function"
    },
    {
      "inputs": [
        {
          "internalType": "address",
          "name": "userAddr",
          "type": "address"
        }
      ],
      "name": "getClaimablePlanetsFor",
      "outputs": [
        {
          "components": [
            {
              "internalType": "address",
              "name": "ownerParentAddress",
              "type": "address"
            },
            {
              "internalType": "uint256",
              "name": "ownerTokenId",
              "type": "uint256"
            },
            {
              "internalType": "bool",
              "name": "delivered",
              "type": "bool"
            },
            {
              "internalType": "bool",
              "name": "arrived",
              "type": "bool"
            },
            {
              "internalType": "address",
              "name": "otherParent",
              "type": "address"
            },
            {
              "internalType": "uint256",
              "name": "otherTokenId",
              "type": "uint256"
            },
            {
              "internalType": "uint256",
              "name": "claimsTokenId",
              "type": "uint256"
            }
          ],
          "internalType": "struct ClaimablePlanet[]",
          "name": "",
          "type": "tuple[]"
        }
      ],
      "stateMutability": "view",
      "type": "function"
    },
    {
      "inputs": [
        {
          "internalType": "uint256",
          "name": "claimableTokenId",
          "type": "uint256"
        }
      ],
      "name": "getClaimantTokenIdToOwnerAddress",
      "outputs": [
        {
          "internalType": "address",
          "name": "",
          "type": "address"
        }
      ],
      "stateMutability": "view",
      "type": "function"
    },
    {
      "inputs": [
        {
          "internalType": "uint256",
          "name": "listedTokenId",
          "type": "uint256"
        }
      ],
      "name": "getListedTokenIdToOwnerAddr",
      "outputs": [
        {
          "internalType": "address",
          "name": "",
          "type": "address"
        }
      ],
      "stateMutability": "view",
      "type": "function"
    },
    {
      "inputs": [
        {
          "internalType": "uint256",
          "name": "startIndex",
          "type": "uint256"
        },
        {
          "internalType": "uint256",
          "name": "endIndex",
          "type": "uint256"
        }
      ],
      "name": "getPlanetsPaginated",
      "outputs": [
        {
          "components": [
            {
              "internalType": "uint256",
              "name": "tokenId",
              "type": "uint256"
            },
            {
              "internalType": "uint256",
              "name": "price",
              "type": "uint256"
            },
            {
              "internalType": "address",
              "name": "ownerAddress",
              "type": "address"
            },
            {
              "internalType": "bool",
              "name": "active",
              "type": "bool"
            }
          ],
          "internalType": "struct ListedPlanet[]",
          "name": "",
          "type": "tuple[]"
        }
      ],
      "stateMutability": "view",
      "type": "function"
    },
    {
      "inputs": [
        {
          "internalType": "address",
          "name": "userAddr",
          "type": "address"
        }
      ],
      "name": "getuserToListedPlanets",
      "outputs": [
        {
          "components": [
            {
              "internalType": "uint256",
              "name": "tokenId",
              "type": "uint256"
            },
            {
              "internalType": "uint256",
              "name": "price",
              "type": "uint256"
            },
            {
              "internalType": "address",
              "name": "ownerAddress",
              "type": "address"
            },
            {
              "internalType": "bool",
              "name": "active",
              "type": "bool"
            }
          ],
          "internalType": "struct ListedPlanet[]",
          "name": "",
          "type": "tuple[]"
        }
      ],
      "stateMutability": "view",
      "type": "function"
    },
    {
      "inputs": [
        {
          "internalType": "address",
          "name": "owner",
          "type": "address"
        },
        {
          "internalType": "uint256",
          "name": "tokenId",
          "type": "uint256"
        }
      ],
      "name": "hasPlanetArrived",
      "outputs": [
        {
          "internalType": "bool",
          "name": "arrived",
          "type": "bool"
        }
      ],
      "stateMutability": "view",
      "type": "function"
    },
    {
      "inputs": [
        {
          "internalType": "address",
          "name": "owner",
          "type": "address"
        },
        {
          "internalType": "uint256",
          "name": "tokenId",
          "type": "uint256"
        }
      ],
      "name": "hasPlanetBeenDelivered",
      "outputs": [
        {
          "internalType": "bool",
          "name": "delivered",
          "type": "bool"
        }
      ],
      "stateMutability": "view",
      "type": "function"
    },
    {
      "inputs": [
        {
          "internalType": "address",
          "name": "spender",
          "type": "address"
        },
        {
          "internalType": "uint256",
          "name": "addedValue",
          "type": "uint256"
        }
      ],
      "name": "increaseAllowance",
      "outputs": [
        {
          "internalType": "bool",
          "name": "",
          "type": "bool"
        }
      ],
      "stateMutability": "nonpayable",
      "type": "function"
    },
    {
      "inputs": [
        {
          "internalType": "address",
          "name": "initialOwner",
          "type": "address"
        }
      ],
      "name": "initialize",
      "outputs": [],
      "stateMutability": "nonpayable",
      "type": "function"
    },
    {
      "inputs": [],
      "name": "listAllYourPlanets",
      "outputs": [],
      "stateMutability": "nonpayable",
      "type": "function"
    },
    {
      "inputs": [
        {
          "internalType": "uint256",
          "name": "",
          "type": "uint256"
        }
      ],
      "name": "listedTokenIdToOwnerAddr",
      "outputs": [
        {
          "internalType": "address",
          "name": "",
          "type": "address"
        }
      ],
      "stateMutability": "view",
      "type": "function"
    },
    {
      "inputs": [],
      "name": "name",
      "outputs": [
        {
          "internalType": "string",
          "name": "",
          "type": "string"
        }
      ],
      "stateMutability": "view",
      "type": "function"
    },
    {
      "inputs": [
        {
          "internalType": "address",
          "name": "owner",
          "type": "address"
        }
      ],
      "name": "nonces",
      "outputs": [
        {
          "internalType": "uint256",
          "name": "",
          "type": "uint256"
        }
      ],
      "stateMutability": "view",
      "type": "function"
    },
    {
      "inputs": [
        {
          "internalType": "address",
          "name": "operator",
          "type": "address"
        },
        {
          "internalType": "address",
          "name": "from",
          "type": "address"
        },
        {
          "internalType": "uint256",
          "name": "tokenId",
          "type": "uint256"
        },
        {
          "internalType": "bytes",
          "name": "data",
          "type": "bytes"
        }
      ],
      "name": "onERC721Received",
      "outputs": [
        {
          "internalType": "bytes4",
          "name": "",
          "type": "bytes4"
        }
      ],
      "stateMutability": "nonpayable",
      "type": "function"
    },
    {
      "inputs": [],
      "name": "owner",
      "outputs": [
        {
          "internalType": "address",
          "name": "",
          "type": "address"
        }
      ],
      "stateMutability": "view",
      "type": "function"
    },
    {
      "inputs": [
        {
          "internalType": "uint256",
          "name": "claimableTokenId",
          "type": "uint256"
        },
        {
          "internalType": "address",
          "name": "sendToAddr",
          "type": "address"
        }
      ],
      "name": "ownerClaimPlanet",
      "outputs": [],
      "stateMutability": "nonpayable",
      "type": "function"
    },
    {
      "inputs": [
        {
          "internalType": "uint256",
          "name": "tokenId",
          "type": "uint256"
        },
        {
          "internalType": "address",
          "name": "destinationAddr",
          "type": "address"
        }
      ],
      "name": "ownerOverrideSendNFT",
      "outputs": [],
      "stateMutability": "nonpayable",
      "type": "function"
    },
    {
      "inputs": [],
      "name": "pause",
      "outputs": [],
      "stateMutability": "nonpayable",
      "type": "function"
    },
    {
      "inputs": [],
      "name": "paused",
      "outputs": [
        {
          "internalType": "bool",
          "name": "",
          "type": "bool"
        }
      ],
      "stateMutability": "view",
      "type": "function"
    },
    {
      "inputs": [
        {
          "internalType": "uint256",
          "name": "index",
          "type": "uint256"
        }
      ],
      "name": "payee",
      "outputs": [
        {
          "internalType": "address",
          "name": "",
          "type": "address"
        }
      ],
      "stateMutability": "view",
      "type": "function"
    },
    {
      "inputs": [
        {
          "internalType": "address",
          "name": "owner",
          "type": "address"
        },
        {
          "internalType": "address",
          "name": "spender",
          "type": "address"
        },
        {
          "internalType": "uint256",
          "name": "value",
          "type": "uint256"
        },
        {
          "internalType": "uint256",
          "name": "deadline",
          "type": "uint256"
        },
        {
          "internalType": "uint8",
          "name": "v",
          "type": "uint8"
        },
        {
          "internalType": "bytes32",
          "name": "r",
          "type": "bytes32"
        },
        {
          "internalType": "bytes32",
          "name": "s",
          "type": "bytes32"
        }
      ],
      "name": "permit",
      "outputs": [],
      "stateMutability": "nonpayable",
      "type": "function"
    },
    {
      "inputs": [],
      "name": "proxiableUUID",
      "outputs": [
        {
          "internalType": "bytes32",
          "name": "",
          "type": "bytes32"
        }
      ],
      "stateMutability": "view",
      "type": "function"
    },
    {
      "inputs": [
        {
          "internalType": "address",
          "name": "account",
          "type": "address"
        }
      ],
      "name": "releasable",
      "outputs": [
        {
          "internalType": "uint256",
          "name": "",
          "type": "uint256"
        }
      ],
      "stateMutability": "view",
      "type": "function"
    },
    {
      "inputs": [
        {
          "internalType": "contract IERC20Upgradeable",
          "name": "token",
          "type": "address"
        },
        {
          "internalType": "address",
          "name": "account",
          "type": "address"
        }
      ],
      "name": "releasable",
      "outputs": [
        {
          "internalType": "uint256",
          "name": "",
          "type": "uint256"
        }
      ],
      "stateMutability": "view",
      "type": "function"
    },
    {
      "inputs": [
        {
          "internalType": "address payable",
          "name": "account",
          "type": "address"
        }
      ],
      "name": "release",
      "outputs": [],
      "stateMutability": "nonpayable",
      "type": "function"
    },
    {
      "inputs": [
        {
          "internalType": "contract IERC20Upgradeable",
          "name": "token",
          "type": "address"
        },
        {
          "internalType": "address",
          "name": "account",
          "type": "address"
        }
      ],
      "name": "release",
      "outputs": [],
      "stateMutability": "nonpayable",
      "type": "function"
    },
    {
      "inputs": [
        {
          "internalType": "contract IERC20Upgradeable",
          "name": "token",
          "type": "address"
        },
        {
          "internalType": "address",
          "name": "account",
          "type": "address"
        }
      ],
      "name": "released",
      "outputs": [
        {
          "internalType": "uint256",
          "name": "",
          "type": "uint256"
        }
      ],
      "stateMutability": "view",
      "type": "function"
    },
    {
      "inputs": [
        {
          "internalType": "address",
          "name": "account",
          "type": "address"
        }
      ],
      "name": "released",
      "outputs": [
        {
          "internalType": "uint256",
          "name": "",
          "type": "uint256"
        }
      ],
      "stateMutability": "view",
      "type": "function"
    },
    {
      "inputs": [],
      "name": "renounceOwnership",
      "outputs": [],
      "stateMutability": "nonpayable",
      "type": "function"
    },
    {
      "inputs": [
        {
          "internalType": "address",
          "name": "_breederContractAddr",
          "type": "address"
        },
        {
          "internalType": "uint256",
          "name": "_vrfValue",
          "type": "uint256"
        },
        {
          "internalType": "address",
          "name": "_nftContractAddr",
          "type": "address"
        },
        {
          "internalType": "address",
          "name": "_aprsContract",
          "type": "address"
        },
        {
          "internalType": "address",
          "name": "_animaContract",
          "type": "address"
        }
      ],
      "name": "setAllOf",
      "outputs": [],
      "stateMutability": "nonpayable",
      "type": "function"
    },
    {
      "inputs": [
        {
          "internalType": "uint256",
          "name": "_toThisPercentage",
          "type": "uint256"
        }
      ],
      "name": "setMktFee",
      "outputs": [],
      "stateMutability": "nonpayable",
      "type": "function"
    },
    {
      "inputs": [
        {
          "internalType": "address payable",
          "name": "newTAdd",
          "type": "address"
        }
      ],
      "name": "setTAdd",
      "outputs": [],
      "stateMutability": "nonpayable",
      "type": "function"
    },
    {
      "inputs": [
        {
          "internalType": "address",
          "name": "account",
          "type": "address"
        }
      ],
      "name": "shares",
      "outputs": [
        {
          "internalType": "uint256",
          "name": "",
          "type": "uint256"
        }
      ],
      "stateMutability": "view",
      "type": "function"
    },
    {
      "inputs": [],
      "name": "status",
      "outputs": [],
      "stateMutability": "nonpayable",
      "type": "function"
    },
    {
      "inputs": [],
      "name": "symbol",
      "outputs": [
        {
          "internalType": "string",
          "name": "",
          "type": "string"
        }
      ],
      "stateMutability": "view",
      "type": "function"
    },
    {
      "inputs": [
        {
          "internalType": "uint256",
          "name": "",
          "type": "uint256"
        }
      ],
      "name": "tokenIdClaimableToOwnerAddr",
      "outputs": [
        {
          "internalType": "address",
          "name": "",
          "type": "address"
        }
      ],
      "stateMutability": "view",
      "type": "function"
    },
    {
      "inputs": [
        {
          "internalType": "contract IERC20Upgradeable",
          "name": "token",
          "type": "address"
        }
      ],
      "name": "totalReleased",
      "outputs": [
        {
          "internalType": "uint256",
          "name": "",
          "type": "uint256"
        }
      ],
      "stateMutability": "view",
      "type": "function"
    },
    {
      "inputs": [],
      "name": "totalReleased",
      "outputs": [
        {
          "internalType": "uint256",
          "name": "",
          "type": "uint256"
        }
      ],
      "stateMutability": "view",
      "type": "function"
    },
    {
      "inputs": [],
      "name": "totalShares",
      "outputs": [
        {
          "internalType": "uint256",
          "name": "",
          "type": "uint256"
        }
      ],
      "stateMutability": "view",
      "type": "function"
    },
    {
      "inputs": [],
      "name": "totalSupply",
      "outputs": [
        {
          "internalType": "uint256",
          "name": "",
          "type": "uint256"
        }
      ],
      "stateMutability": "view",
      "type": "function"
    },
    {
      "inputs": [
        {
          "internalType": "address",
          "name": "to",
          "type": "address"
        },
        {
          "internalType": "uint256",
          "name": "amount",
          "type": "uint256"
        }
      ],
      "name": "transfer",
      "outputs": [
        {
          "internalType": "bool",
          "name": "",
          "type": "bool"
        }
      ],
      "stateMutability": "nonpayable",
      "type": "function"
    },
    {
      "inputs": [
        {
          "internalType": "address",
          "name": "from",
          "type": "address"
        },
        {
          "internalType": "address",
          "name": "to",
          "type": "address"
        },
        {
          "internalType": "uint256",
          "name": "amount",
          "type": "uint256"
        }
      ],
      "name": "transferFrom",
      "outputs": [
        {
          "internalType": "bool",
          "name": "",
          "type": "bool"
        }
      ],
      "stateMutability": "nonpayable",
      "type": "function"
    },
    {
      "inputs": [
        {
          "internalType": "address",
          "name": "newOwner",
          "type": "address"
        }
      ],
      "name": "transferOwnership",
      "outputs": [],
      "stateMutability": "nonpayable",
      "type": "function"
    },
    {
      "inputs": [],
      "name": "unpause",
      "outputs": [],
      "stateMutability": "nonpayable",
      "type": "function"
    },
    {
      "inputs": [
        {
          "internalType": "address",
          "name": "newImplementation",
          "type": "address"
        }
      ],
      "name": "upgradeTo",
      "outputs": [],
      "stateMutability": "nonpayable",
      "type": "function"
    },
    {
      "inputs": [
        {
          "internalType": "address",
          "name": "newImplementation",
          "type": "address"
        },
        {
          "internalType": "bytes",
          "name": "data",
          "type": "bytes"
        }
      ],
      "name": "upgradeToAndCall",
      "outputs": [],
      "stateMutability": "payable",
      "type": "function"
    },
    {
      "inputs": [
        {
          "internalType": "address",
          "name": "",
          "type": "address"
        },
        {
          "internalType": "uint256",
          "name": "",
          "type": "uint256"
        }
      ],
      "name": "userToListedPlanets",
      "outputs": [
        {
          "internalType": "uint256",
          "name": "tokenId",
          "type": "uint256"
        },
        {
          "internalType": "uint256",
          "name": "price",
          "type": "uint256"
        },
        {
          "internalType": "address",
          "name": "ownerAddress",
          "type": "address"
        },
        {
          "internalType": "bool",
          "name": "active",
          "type": "bool"
        }
      ],
      "stateMutability": "view",
      "type": "function"
    },
    {
      "inputs": [
        {
          "internalType": "address",
          "name": "userAddress",
          "type": "address"
        }
      ],
      "name": "usersClaims",
      "outputs": [
        {
          "components": [
            {
              "internalType": "address",
              "name": "ownerParentAddress",
              "type": "address"
            },
            {
              "internalType": "uint256",
              "name": "ownerTokenId",
              "type": "uint256"
            },
            {
              "internalType": "bool",
              "name": "delivered",
              "type": "bool"
            },
            {
              "internalType": "bool",
              "name": "arrived",
              "type": "bool"
            },
            {
              "internalType": "address",
              "name": "otherParent",
              "type": "address"
            },
            {
              "internalType": "uint256",
              "name": "otherTokenId",
              "type": "uint256"
            },
            {
              "internalType": "uint256",
              "name": "claimsTokenId",
              "type": "uint256"
            }
          ],
          "internalType": "struct ClaimablePlanet[]",
          "name": "",
          "type": "tuple[]"
        }
      ],
      "stateMutability": "view",
      "type": "function"
    },
    {
      "inputs": [
        {
          "internalType": "address",
          "name": "tokenAddress",
          "type": "address"
        },
        {
          "internalType": "address",
          "name": "address1",
          "type": "address"
        },
        {
          "internalType": "address",
          "name": "address2",
          "type": "address"
        },
        {
          "internalType": "uint256",
          "name": "withdrawalAmount",
          "type": "uint256"
        }
      ],
      "name": "withdrawAndSplitERC20",
      "outputs": [],
      "stateMutability": "nonpayable",
      "type": "function"
    },
    {
      "inputs": [
        {
          "internalType": "address",
          "name": "address1",
          "type": "address"
        },
        {
          "internalType": "address",
          "name": "address2",
          "type": "address"
        },
        {
          "internalType": "uint256",
          "name": "withdrawalAmount",
          "type": "uint256"
        }
      ],
      "name": "withdrawAndSplitHalfsies",
      "outputs": [],
      "stateMutability": "nonpayable",
      "type": "function"
    },
    {
      "inputs": [],
      "name": "withdrawFunds",
      "outputs": [],
      "stateMutability": "nonpayable",
      "type": "function"
    },
    {
      "stateMutability": "payable",
      "type": "receive"
    }
  ],
  "bytecode": "0x60a06040523060805234801561001457600080fd5b506080516158da6200004d60003960008181611449015281816114890152818161170401528181611744015261192701526158da6000f3fe60806040526004361061033d5760003560e01c80638456cb59116101ad578063ce7c2ac2116100f0578063ce7c2ac2146109c0578063d4b5b8d6146109f7578063d505accf14610a2e578063d79779b214610a4e578063dbb774d814610a6e578063dd22a9c714610a9b578063dd62ed3e14610abb578063e22aecb414610adb578063e33b7de314610b46578063e8cbd25c14610b5c578063ee6e3a2314610b7c578063f2fde38b14610b9d578063f4c1494314610bbd578063f658159a14610bdd578063f837894714610c14578063fdb4087514610c34578063fde4976714610c54578063fe79222914610a6e57005b80638456cb591461044557806384b0196e1461078657806385fe7243146107ae5780638b83209b146107ff5780638da5cb5b1461081f57806395d89b41146108345780639852595c14610849578063a3f8eace14610869578063a457c2d714610889578063a8e5e4aa146108a9578063a9059cbb146108c9578063bd83dc05146108e9578063c45ac05014610920578063c4d66de814610940578063c7c0e6b114610960578063cbdf1b5a14610980578063cdb82a37146109a057005b80633a7fb03d116102805780633a7fb03d146105915780633a98ef39146105b15780633f4ba83a146105c7578063406072a9146105dc57806348b75044146105fc5780634d9504491461061c5780634f1ef2861461063c57806350842cf3146104195780635270ad6c1461064f57806352d1902d1461066f5780635b634b6a146106845780635c975abb146106bb5780636a23befb146106d357806370a08231146106e8578063715018a61461071e5780637ecebe00146107335780638230a78414610753578063842905911461076657005b806306fdde0314610346578063095ea7b314610371578063150b7a02146103a157806318160ddd146103da57806319165587146103f95780631ac9a91e146104195780631dd320ea14610425578063200d2ed214610445578063229c23cc1461045a57806323b872dd1461047a57806324600fc31461049a57806325947818146104af578063313ce567146104dc57806334ae54e9146104f85780633644e5151461053c5780633659cfe614610551578063395093511461057157005b3661034457005b005b34801561035257600080fd5b5061035b610c74565b6040516103689190614c2b565b60405180910390f35b34801561037d57600080fd5b5061039161038c366004614c53565b610d06565b6040519015158152602001610368565b3480156103ad57600080fd5b506103c16103bc366004614d5d565b610d20565b6040516001600160e01b03199091168152602001610368565b3480156103e657600080fd5b5060cb545b604051908152602001610368565b34801561040557600080fd5b50610344610414366004614dc8565b610fce565b34801561034457600080fd5b34801561043157600080fd5b50610391610440366004614c53565b6110ba565b34801561045157600080fd5b5061034461117f565b34801561046657600080fd5b50610344610475366004614de5565b61118f565b34801561048657600080fd5b50610391610495366004614de5565b611243565b3480156104a657600080fd5b50610344611267565b3480156104bb57600080fd5b506104cf6104ca366004614e26565b6112a9565b6040516103689190614e48565b3480156104e857600080fd5b5060405160128152602001610368565b34801561050457600080fd5b5061052f610513366004614eb7565b6101cc602052600090815260409020546001600160a01b031681565b6040516103689190614ed0565b34801561054857600080fd5b506103eb611430565b34801561055d57600080fd5b5061034461056c366004614dc8565b61143f565b34801561057d57600080fd5b5061039161058c366004614c53565b611507565b34801561059d57600080fd5b506103446105ac366004614ee4565b611529565b3480156105bd57600080fd5b50610162546103eb565b3480156105d357600080fd5b5061034461159f565b3480156105e857600080fd5b506103eb6105f7366004614f14565b6115af565b34801561060857600080fd5b50610344610617366004614f14565b6115db565b34801561062857600080fd5b50610344610637366004614eb7565b6116ec565b61034461064a366004614f42565b6116fa565b34801561065b57600080fd5b5061034461066a366004614eb7565b6117af565b34801561067b57600080fd5b506103eb61191a565b34801561069057600080fd5b5061052f61069f366004614eb7565b6101cf602052600090815260409020546001600160a01b031681565b3480156106c757600080fd5b5060335460ff16610391565b3480156106df57600080fd5b506104cf6119c8565b3480156106f457600080fd5b506103eb610703366004614dc8565b6001600160a01b0316600090815260c9602052604090205490565b34801561072a57600080fd5b50610344611a5e565b34801561073f57600080fd5b506103eb61074e366004614dc8565b611a70565b610344610761366004614e26565b611a8f565b34801561077257600080fd5b50610344610781366004614f91565b6122b0565b34801561079257600080fd5b5061079b6124e3565b6040516103689796959493929190614fe2565b3480156107ba57600080fd5b506107ce6107c9366004614c53565b612581565b604051610368949392919093845260208401929092526001600160a01b031660408301521515606082015260800190565b34801561080b57600080fd5b5061052f61081a366004614eb7565b6125d9565b34801561082b57600080fd5b5061052f61260a565b34801561084057600080fd5b5061035b61261a565b34801561085557600080fd5b506103eb610864366004614dc8565b612629565b34801561087557600080fd5b506103eb610884366004614dc8565b612645565b34801561089557600080fd5b506103916108a4366004614c53565b612678565b3480156108b557600080fd5b506103446108c4366004614de5565b6126f3565b3480156108d557600080fd5b506103916108e4366004614c53565b6127ac565b3480156108f557600080fd5b5061052f610904366004614eb7565b60009081526101cc60205260409020546001600160a01b031690565b34801561092c57600080fd5b506103eb61093b366004614f14565b6127ba565b34801561094c57600080fd5b5061034461095b366004614dc8565b61284e565b34801561096c57600080fd5b5061034461097b366004614eb7565b612978565b34801561098c57600080fd5b5061034461099b366004614e26565b61298e565b3480156109ac57600080fd5b506103446109bb366004614dc8565b612cda565b3480156109cc57600080fd5b506103eb6109db366004614dc8565b6001600160a01b03166000908152610164602052604090205490565b348015610a0357600080fd5b5061052f610a12366004614eb7565b6101d0602052600090815260409020546001600160a01b031681565b348015610a3a57600080fd5b50610344610a4936600461507b565b612d0d565b348015610a5a57600080fd5b506103eb610a69366004614dc8565b612e71565b348015610a7a57600080fd5b50610a8e610a89366004614dc8565b612e8d565b60405161036891906150f2565b348015610aa757600080fd5b50610391610ab6366004614f14565b612f5d565b348015610ac757600080fd5b506103eb610ad6366004614f14565b612fd5565b348015610ae757600080fd5b50610afb610af6366004614c53565b613000565b604080516001600160a01b0398891681526020810197909752941515948601949094529115156060850152909316608083015260a082019290925260c081019190915260e001610368565b348015610b5257600080fd5b50610163546103eb565b348015610b6857600080fd5b50610344610b77366004615179565b613071565b348015610b8857600080fd5b506101c65461052f906001600160a01b031681565b348015610ba957600080fd5b50610344610bb8366004614dc8565b6130db565b348015610bc957600080fd5b50610391610bd8366004614c53565b613151565b348015610be957600080fd5b5061052f610bf8366004614eb7565b60009081526101d060205260409020546001600160a01b031690565b348015610c2057600080fd5b50610344610c2f366004614f14565b6131e1565b348015610c4057600080fd5b50610344610c4f366004614ee4565b613258565b348015610c6057600080fd5b506104cf610c6f366004614dc8565b613295565b606060cc8054610c83906151e1565b80601f0160208091040260200160405190810160405280929190818152602001828054610caf906151e1565b8015610cfc5780601f10610cd157610100808354040283529160200191610cfc565b820191906000526020600020905b815481529060010190602001808311610cdf57829003601f168201915b5050505050905090565b600033610d14818585613336565b60019150505b92915050565b6000808251118015610d3d57506101c8546001600160a01b031633145b15610d9657600082806020019051810190610d589190615215565b9050610d6584828761345a565b60008051602061583e83398151915286868686604051610d88949392919061522e565b60405180910390a150610fbc565b6101c8546001600160a01b03163303610f90576101c85460405163dc9ce7a560e01b8152600481018590526000916001600160a01b03169063dc9ce7a590602401600060405180830381865afa158015610df4573d6000803e3d6000fd5b505050506040513d6000823e601f3d908101601f19168201604052610e1c9190810190615318565b50905060008161012001519050600085905060006101cc600084600081518110610e4857610e48615436565b6020026020010151815260200190815260200160002060009054906101000a90046001600160a01b0316905060006101cc600085600181518110610e8e57610e8e615436565b6020026020010151815260200190815260200160002060009054906101000a90046001600160a01b0316905060006040518060400160405280846001600160a01b03166001600160a01b03168152602001836001600160a01b03166001600160a01b0316815250905060006040518060400160405280886101200151600081518110610f1c57610f1c615436565b60200260200101518152602001886101200151600181518110610f4157610f41615436565b60200260200101518152509050610f598286836135ec565b60008051602061583e8339815191528c8c8c8c604051610f7c949392919061544c565b60405180910390a150505050505050610fbc565b60008051602061583e83398151915285858585604051610fb394939291906154ae565b60405180910390a15b50630a85bd0160e11b5b949350505050565b6001600160a01b0381166000908152610164602052604090205461100d5760405162461bcd60e51b815260040161100490615513565b60405180910390fd5b600061101882612645565b90508060000361103a5760405162461bcd60e51b815260040161100490615559565b80610163600082825461104d91906155ba565b90915550506001600160a01b03821660009081526101656020526040902080548201905561107b82826139fb565b7fdf20fd1e76bc69d672e4814fafb2c449bba3a5369d8359adf9e05e6fde87b05682826040516110ac9291906155cd565b60405180910390a15050565b565b6001600160a01b03821660009081526101cd60205260408120815b815481101561114357838282815481106110f1576110f1615436565b9060005260206000209060050201600401540361113b5781818154811061111a5761111a615436565b600091825260209091206002600590920201015460ff169250610d1a915050565b6001016110d5565b5060405162461bcd60e51b815260206004820152601060248201526f141b185b995d081b9bdd08199bdd5b9960821b6044820152606401611004565b611187613b11565b6110b8613b70565b611197613b11565b61119f613bc4565b478111156111bf5760405162461bcd60e51b8152600401611004906155e6565b60006111cc600283615614565b6040519091506001600160a01b0385169082156108fc029083906000818181858888f19350505050158015611205573d6000803e3d6000fd5b506040516001600160a01b0384169082156108fc029083906000818181858888f1935050505015801561123c573d6000803e3d6000fd5b5050505050565b600033611251858285613c0a565b61125c858585613c84565b506001949350505050565b61126f613b11565b611277613bc4565b604051339081904780156108fc02916000818181858888f193505050501580156112a5573d6000803e3d6000fd5b5050565b60608282116112ea5760405162461bcd60e51b815260206004820152600d60248201526c092dcecc2d8d2c840d2dcc8caf609b1b6044820152606401611004565b6101cb5482111561130d5760405162461bcd60e51b815260040161100490615636565b60006113198484615663565b6001600160401b0381111561133057611330614c7f565b60405190808252806020026020018201604052801561138257816020015b60408051608081018252600080825260208083018290529282018190526060820152825260001990920191018161134e5790505b509050835b83811015611428576101cb81815481106113a3576113a3615436565b600091825260209182902060408051608081018252600393909302909101805483526001810154938301939093526002909201546001600160a01b03811692820192909252600160a01b90910460ff1615156060820152826114058784615663565b8151811061141557611415615436565b6020908102919091010152600101611387565b509392505050565b600061143a613e2f565b905090565b6001600160a01b037f00000000000000000000000000000000000000000000000000000000000000001630036114875760405162461bcd60e51b815260040161100490615676565b7f00000000000000000000000000000000000000000000000000000000000000006001600160a01b03166114b9613e39565b6001600160a01b0316146114df5760405162461bcd60e51b8152600401611004906156c2565b6114e881613e55565b6040805160008082526020820190925261150491839190613e5d565b50565b600033610d1481858561151a8383612fd5565b61152491906155ba565b613336565b611531613b11565b611539613bc4565b60006115458383613fc8565b90506115508361403d565b6101c8546040517f3e47efa91d5d329f50f04f0b9784b40b63d441ca130a5ddca1865d16e4d612a3916115929185916001600160a01b0316908790869061570e565b60405180910390a1505050565b6115a7613b11565b6110b86140dd565b6001600160a01b0391821660009081526101686020908152604080832093909416825291909152205490565b6001600160a01b038116600090815261016460205260409020546116115760405162461bcd60e51b815260040161100490615513565b600061161d83836127ba565b90508060000361163f5760405162461bcd60e51b815260040161100490615559565b6001600160a01b03831660009081526101676020526040812080548392906116689084906155ba565b90915550506001600160a01b038084166000908152610168602090815260408083209386168352929052208054820190556116a4838383614116565b826001600160a01b03167f3be5b7a71e84ed12875d241991c70855ac5817d847039e17a9d895c1ceb0f18a83836040516116df9291906155cd565b60405180910390a2505050565b6116f4613b11565b6101ce55565b6001600160a01b037f00000000000000000000000000000000000000000000000000000000000000001630036117425760405162461bcd60e51b815260040161100490615676565b7f00000000000000000000000000000000000000000000000000000000000000006001600160a01b0316611774613e39565b6001600160a01b03161461179a5760405162461bcd60e51b8152600401611004906156c2565b6117a382613e55565b6112a582826001613e5d565b6117b7613bc4565b60008181526101cf602052604090205433906001600160a01b031680821461184e576117e28161416c565b6117eb8261416c565b60405162461bcd60e51b815260206004820152603260248201527f636c61696d206d7573742062652066726f6d20636c61696d616e7473206164646044820152713932b9b99696903234b9b0b63637bbb2b21760711b6064820152608401611004565b600061185a8484613fc8565b9050806118c15760405162461bcd60e51b815260206004820152602f60248201527f4661696c656420746f2073656e64204e46542e20436865636b20436c61696d6160448201526e1b9d08151bdad95b9259081cd95b9d608a1b6064820152608401611004565b6118ca8461403d565b6101c8546040517f3e47efa91d5d329f50f04f0b9784b40b63d441ca130a5ddca1865d16e4d612a39161190c9186916001600160a01b0316908890869061570e565b60405180910390a150505050565b6000306001600160a01b037f000000000000000000000000000000000000000000000000000000000000000016146119b55760405162461bcd60e51b815260206004820152603860248201527f555550535570677261646561626c653a206d757374206e6f742062652063616c6044820152771b1959081d1a1c9bdd59da0819195b1959d85d1958d85b1b60421b6064820152608401611004565b5060008051602061585e83398151915290565b60606101cb805480602002602001604051908101604052809291908181526020016000905b82821015611a55576000848152602090819020604080516080810182526003860290920180548352600180820154848601526002909101546001600160a01b03811692840192909252600160a01b90910460ff161515606083015290835290920191016119ed565b50505050905090565b611a66613b11565b6110b860006141af565b6001600160a01b038116600090815261012f6020526040812054610d1a565b611a97613bc4565b808203611af25760405162461bcd60e51b815260206004820152602360248201527f4173657875616c20726570726f64756374696f6e206973206e6f7420616c6c6f6044820152621dd95960ea1b6064820152608401611004565b6000611afd82614202565b6101c8546040516331a9108f60e11b8152600481018690529192506000916001600160a01b0390911690636352211e90602401602060405180830381865afa158015611b4d573d6000803e3d6000fd5b505050506040513d601f19601f82011682018060405250810190611b719190615737565b90506001600160a01b0381163014611bfb5760405162461bcd60e51b815260206004820152604160248201527f596f75206e65656420746f206c6973742f6465706f7369742074686520706c6160448201527f6e657420796f752061726520747279696e6720746f20627265656420776974686064820152601760f91b608482015260a401611004565b60008060005b6101cb54811015611ca857866101cb8281548110611c2157611c21615436565b90600052602060002090600302016000015403611ca0576101cb8181548110611c4c57611c4c615436565b906000526020600020906003020160020160009054906101000a90046001600160a01b031692506101cb8181548110611c8757611c87615436565b9060005260206000209060030201600001549150611ca8565b600101611c01565b506001600160a01b0382163314611d1c5760405162461bcd60e51b815260206004820152603260248201527f596f7520646f206e6f74206f776e2074686520706c616e657420796f7520617260448201527132903a393cb4b733903a3790313932b2b21760711b6064820152608401611004565b600060646101ce5486611d2f9190615754565b611d399190615614565b905080856101c954611d4b91906155ba565b611d5591906155ba565b341015611dc45760405162461bcd60e51b815260206004820152603760248201527f496e73756666696369656e742066756e647320746f20636f766572205652462060448201527631b7b9ba1030b73210383934b1b29030b732103332b29760491b6064820152608401611004565b33600080805b6101cb54811015611e7157896101cb8281548110611dea57611dea615436565b90600052602060002090600302016000015403611e69576101cb8181548110611e1557611e15615436565b906000526020600020906003020160020160009054906101000a90046001600160a01b031692506101cb8181548110611e5057611e50615436565b9060005260206000209060030201600001549150611e71565b600101611dca565b506706f05b59d3b20000471015611ee85760405162461bcd60e51b815260206004820152603560248201527f436f6e74726163742068617320496e73756666696369656e742062616c616e63604482015274652c20636f6e74616374206861746368657220687160581b6064820152608401611004565b6040516000906001600160a01b038416908a156108fc02908b9084818181858888f19350505050905080611f555760405162461bcd60e51b81526020600482015260146024820152732330b4b632b2103a379039b2b7321022ba3432b960611b6044820152606401611004565b6101c6546101c954604051634e9e6a0760e01b8152600481018e9052602481018d9052600060448201526001600160a01b0390921691634e9e6a07919060640160206040518083038185885af1158015611fb3573d6000803e3d6000fd5b50505050506040513d601f19601f82011682018060405250810190611fd89190615215565b5060006040518060e00160405280866001600160a01b031681526020018d8152602001600015158152602001600015158152602001856001600160a01b03168152602001848152602001600081525090506101cd6000866001600160a01b03166001600160a01b0316815260200190815260200160002081908060018154018082558091505060019003906000526020600020906005020160009091909190915060008201518160000160006101000a8154816001600160a01b0302191690836001600160a01b031602179055506020820151816001015560408201518160020160006101000a81548160ff02191690831515021790555060608201518160020160016101000a81548160ff02191690831515021790555060808201518160020160026101000a8154816001600160a01b0302191690836001600160a01b0316021790555060a0820151816003015560c082015181600401555050846101cc60008e815260200190815260200160002060006101000a8154816001600160a01b0302191690836001600160a01b03160217905550858a6101c95461217c91906155ba565b61218691906155ba565b341115612252576000336001600160a01b0316878c6101c954346121aa9190615663565b6121b49190615663565b6121be9190615663565b604051600081818185875af1925050503d80600081146121fa576040519150601f19603f3d011682016040523d82523d6000602084013e6121ff565b606091505b50509050806122505760405162461bcd60e51b815260206004820152601d60248201527f4661696c656420746f20726566756e64206578636573732045746865720000006044820152606401611004565b505b604080518d81526001600160a01b0387811660208301528183018e90528616606082015290517f8557df6951fbdd47fe9027516fc896be40f285ed55a6acac460352adbab730cd9181900360800190a1505050505050505050505050565b6122b8613b11565b6122c0613bc4565b6040516370a0823160e01b815284906000906001600160a01b038316906370a08231906122f1903090600401614ed0565b602060405180830381865afa15801561230e573d6000803e3d6000fd5b505050506040513d601f19601f820116820180604052508101906123329190615215565b9050808311156123545760405162461bcd60e51b8152600401611004906155e6565b6000612361600285615614565b60405163a9059cbb60e01b81529091506001600160a01b0384169063a9059cbb9061239290899085906004016155cd565b6020604051808303816000875af11580156123b1573d6000803e3d6000fd5b505050506040513d601f19601f820116820180604052508101906123d5919061576b565b61241f5760405162461bcd60e51b815260206004820152601b60248201527a151c985b9cd9995c881d1bc81859191c995cdccc4819985a5b1959602a1b6044820152606401611004565b60405163a9059cbb60e01b81526001600160a01b0384169063a9059cbb9061244d90889085906004016155cd565b6020604051808303816000875af115801561246c573d6000803e3d6000fd5b505050506040513d601f19601f82011682018060405250810190612490919061576b565b6124da5760405162461bcd60e51b815260206004820152601b60248201527a151c985b9cd9995c881d1bc81859191c995cdccc8819985a5b1959602a1b6044820152606401611004565b50505050505050565b60006060806000806000606060fb546000801b148015612503575060fc54155b6125475760405162461bcd60e51b81526020600482015260156024820152741152540dcc4c8e88155b9a5b9a5d1a585b1a5e9959605a1b6044820152606401611004565b61254f6142a3565b6125576142b2565b60408051600080825260208201909252600f60f81b9b939a50919850469750309650945092509050565b6101ca602052816000526040600020818154811061259e57600080fd5b60009182526020909120600390910201805460018201546002909201549093509091506001600160a01b03811690600160a01b900460ff1684565b600061016682815481106125ef576125ef615436565b6000918252602090912001546001600160a01b031692915050565b610194546001600160a01b031690565b606060cd8054610c83906151e1565b6001600160a01b03166000908152610165602052604090205490565b6000806126526101635490565b61265c90476155ba565b9050612671838261266c86612629565b6142c1565b9392505050565b600033816126868286612fd5565b9050838110156126e65760405162461bcd60e51b815260206004820152602560248201527f45524332303a2064656372656173656420616c6c6f77616e63652062656c6f77604482015264207a65726f60d81b6064820152608401611004565b61125c8286868403613336565b60405163095ea7b360e01b81526001600160a01b0384169063095ea7b39061272190859085906004016155cd565b6020604051808303816000875af1158015612740573d6000803e3d6000fd5b505050506040513d601f19601f82011682018060405250810190612764919061576b565b6127a75760405162461bcd60e51b8152602060048201526014602482015273115490cc8c08185c1c1c9bdd994819985a5b195960621b6044820152606401611004565b505050565b600033610d14818585613c84565b6000806127c684612e71565b6040516370a0823160e01b81526001600160a01b038616906370a08231906127f2903090600401614ed0565b602060405180830381865afa15801561280f573d6000803e3d6000fd5b505050506040513d601f19601f820116820180604052508101906128339190615215565b61283d91906155ba565b9050610fc6838261266c87876115af565b600054610100900460ff161580801561286e5750600054600160ff909116105b8061288f575061287d30614301565b15801561288f575060005460ff166001145b6128f25760405162461bcd60e51b815260206004820152602e60248201527f496e697469616c697a61626c653a20636f6e747261637420697320616c72656160448201526d191e481a5b9a5d1a585b1a5e995960921b6064820152608401611004565b6000805460ff191660011790558015612915576000805461ff0019166101001790555b61291d614310565b61292561433f565b61292d61436e565b612936826130db565b80156112a5576000805461ff0019169055604051600181527f7f26b83ff96e1f2b6a682f133852f6798a09c465da95921460cefb3847402498906020016110ac565b612980613b11565b612988613bc4565b6101c955565b612996613bc4565b6101cb5482106129b85760405162461bcd60e51b815260040161100490615636565b600033905060006101cb84815481106129d3576129d3615436565b6000918252602091829020604080516080810182526003909302909101805483526001810154938301939093526002909201546001600160a01b03811692820183905260ff600160a01b909104161515606082015291503314612a3557600080fd5b6040518060800160405280826000015181526020016000815260200182604001516001600160a01b03168152602001600015158152506101cb8581548110612a7f57612a7f615436565b60009182526020808320845160039093020191825583015160018201556040830151600290910180546060909401511515600160a01b026001600160a81b03199094166001600160a01b039092169190911792909217909155612ae28484613fc8565b905080612b3b5760405162461bcd60e51b815260206004820152602160248201527f64654c697374696e67204661696c65642073656e64204e46542070726f6365736044820152607360f81b6064820152608401611004565b3360009081526101ca602052604090208054612b5990600190615663565b81548110612b6957612b69615436565b90600052602060002090600302016101ca6000336001600160a01b03166001600160a01b031681526020019081526020016000208681548110612bae57612bae615436565b60009182526020808320845460039093020191825560018085015490830155600293840180549490920180546001600160a01b031981166001600160a01b039096169586178255925460ff600160a01b91829004161515026001600160a81b0319909316909417919091179092553381526101ca90915260409020805480612c3857612c38615786565b600082815260208082206003600019909401938402018281556001810183905560020180546001600160a81b0319169055919092558582526101d090526040902080546001600160a01b03191690556101c85482516040517fc6d479c3ed7081a22666733326104ccbbbaccec81902d39e12430505ee2993bd92612ccb9287926001600160a01b0390921691869061570e565b60405180910390a15050505050565b612ce2613b11565b612cea613bc4565b6101c780546001600160a01b0319166001600160a01b0392909216919091179055565b83421115612d5d5760405162461bcd60e51b815260206004820152601d60248201527f45524332305065726d69743a206578706972656420646561646c696e650000006044820152606401611004565b60007f6e71edae12b1b97f4d1f60370fef10105fa2faae0126114a169c64845d6126c9888888612d8c8c614395565b6040805160208101969096526001600160a01b0394851690860152929091166060840152608083015260a082015260c0810186905260e0016040516020818303038152906040528051906020012090506000612de7826143bc565b90506000612df7828787876143e9565b9050896001600160a01b0316816001600160a01b031614612e5a5760405162461bcd60e51b815260206004820152601e60248201527f45524332305065726d69743a20696e76616c6964207369676e617475726500006044820152606401611004565b612e658a8a8a613336565b50505050505050505050565b6001600160a01b03166000908152610167602052604090205490565b6001600160a01b03811660009081526101cd60209081526040808320805482518185028101850190935280835260609492939192909184015b82821015612f525760008481526020908190206040805160e0810182526005860290920180546001600160a01b03908116845260018083015485870152600283015460ff80821615159587019590955261010081049094161515606086015262010000909304166080840152600381015460a08401526004015460c08301529083529092019101612ec6565b505050509050919050565b6101c85460405163e985e9c560e01b81526001600160a01b0384811660048301528381166024830152600092169063e985e9c590604401602060405180830381865afa158015612fb1573d6000803e3d6000fd5b505050506040513d601f19601f82011682018060405250810190612671919061576b565b6001600160a01b03918216600090815260ca6020908152604080832093909416825291909152205490565b6101cd602052816000526040600020818154811061301d57600080fd5b6000918252602090912060059091020180546001820154600283015460038401546004909401546001600160a01b03938416965091945060ff80821694610100830490911693620100009092049091169187565b613079613b11565b613081613bc4565b6101c9939093556101c680546001600160a01b039586166001600160a01b0319918216179091556101c88054938616938216939093179092556101d180549185169183169190911790556101d28054929093169116179055565b6130e3613b11565b6001600160a01b0381166131485760405162461bcd60e51b815260206004820152602660248201527f4f776e61626c653a206e6577206f776e657220697320746865207a65726f206160448201526564647265737360d01b6064820152608401611004565b611504816141af565b6001600160a01b03821660009081526101cd60205260408120815b8154811015611143578382828154811061318857613188615436565b906000526020600020906005020160040154036131d9578181815481106131b1576131b1615436565b906000526020600020906005020160020160019054906101000a900460ff1692505050610d1a565b60010161316c565b6131e9613b11565b6131f1613bc4565b60405163a22cb46560e01b81526001600160a01b0382811660048301526001602483015283169063a22cb465906044015b600060405180830381600087803b15801561323c57600080fd5b505af1158015613250573d6000803e3d6000fd5b505050505050565b613260613b11565b6101c8546040516323b872dd60e01b81526001600160a01b03909116906323b872dd906132229030908590879060040161579c565b6001600160a01b03811660009081526101ca60209081526040808320805482518185028101850190935280835260609492939192909184015b82821015612f52576000848152602090819020604080516080810182526003860290920180548352600180820154848601526002909101546001600160a01b03811692840192909252600160a01b90910460ff161515606083015290835290920191016132ce565b6001600160a01b0383166133985760405162461bcd60e51b8152602060048201526024808201527f45524332303a20617070726f76652066726f6d20746865207a65726f206164646044820152637265737360e01b6064820152608401611004565b6001600160a01b0382166133f95760405162461bcd60e51b815260206004820152602260248201527f45524332303a20617070726f766520746f20746865207a65726f206164647265604482015261737360f01b6064820152608401611004565b6001600160a01b03838116600081815260ca602090815260408083209487168084529482529182902085905590518481527f8c5be1e5ebec7d5bd14f71427d1e84f3dd0314c0f7b2291e5b200ac8c7c3b925910160405180910390a3505050565b604080516080808201835285825260208083018681526001600160a01b03868116858701818152600160608089018281526101cb8054808501825560009182528b517fe8bbfecd380c4167d6a1f763a233ec73e73f534b1970c4e1683f437ec23c1f4460039283029081019190915589517fe8bbfecd380c4167d6a1f763a233ec73e73f534b1970c4e1683f437ec23c1f4582015586517fe8bbfecd380c4167d6a1f763a233ec73e73f534b1970c4e1683f437ec23c1f4690910180548551928b166001600160a81b031991821617600160a01b9315158402179091558884526101ca8c528e8420805480890182559085528c85208f519190940290930192835599519582019590955594516002909501805492519588169290981691909117931515909202929092179094558a84526101d085529287902080546001600160a01b03191690911790556101c854865133815291169281019290925293810187905292830185905290917fb30319a217488a3ed441c348e935a48d16091e33109bab0c79a353b979752883910161190c565b82516020808501518351918401519091906000805b6001600160a01b03861660009081526101cd60205260409020548110156137c2576001600160a01b0386811660009081526101cd602052604090208054918716918390811061365257613652615436565b60009182526020909120600590910201600201546201000090046001600160a01b03161480156136bf57506001600160a01b03861660009081526101cd602052604090208054859190839081106136ab576136ab615436565b906000526020600020906005020160010154145b801561370857506001600160a01b03861660009081526101cd602052604090208054849190839081106136f4576136f4615436565b906000526020600020906005020160030154145b156137ba576001600160a01b03861660009081526101cd602052604090208054600191908390811061373c5761373c615436565b906000526020600020906005020160020160016101000a81548160ff021916908315150217905550876101cd6000886001600160a01b03166001600160a01b03168152602001908152602001600020828154811061379c5761379c615436565b906000526020600020906005020160040181905550600191506137c2565b600101613601565b508061398e5760005b6001600160a01b03851660009081526101cd602052604090205481101561398c576001600160a01b0385811660009081526101cd602052604090208054918816918390811061381c5761381c615436565b60009182526020909120600590910201600201546201000090046001600160a01b031614801561388957506001600160a01b03851660009081526101cd6020526040902080548491908390811061387557613875615436565b906000526020600020906005020160010154145b80156138d257506001600160a01b03851660009081526101cd602052604090208054859190839081106138be576138be615436565b906000526020600020906005020160030154145b15613984576001600160a01b03851660009081526101cd602052604090208054600191908390811061390657613906615436565b906000526020600020906005020160020160016101000a81548160ff021916908315150217905550876101cd6000876001600160a01b03166001600160a01b03168152602001908152602001600020828154811061396657613966615436565b9060005260206000209060050201600401819055506001915061398c565b6001016137cb565b505b806139f15760405162461bcd60e51b815260206004820152602d60248201527f506c616e65742073656e7420657272616e746c792c206e6f206d61746368696e60448201526c19c818db185a5b48199bdd5b99609a1b6064820152608401611004565b5050505050505050565b80471015613a4b5760405162461bcd60e51b815260206004820152601d60248201527f416464726573733a20696e73756666696369656e742062616c616e63650000006044820152606401611004565b6000826001600160a01b03168260405160006040518083038185875af1925050503d8060008114613a98576040519150601f19603f3d011682016040523d82523d6000602084013e613a9d565b606091505b50509050806127a75760405162461bcd60e51b815260206004820152603a60248201527f416464726573733a20756e61626c6520746f2073656e642076616c75652c20726044820152791958da5c1a595b9d081b585e481a185d99481c995d995c9d195960321b6064820152608401611004565b33613b1a61260a565b6001600160a01b0316146110b85760405162461bcd60e51b815260206004820181905260248201527f4f776e61626c653a2063616c6c6572206973206e6f7420746865206f776e65726044820152606401611004565b613b78613bc4565b6033805460ff191660011790557f62e78cea01bee320cd4e420270b5ea74000d11b0c9f74754ebdbfc544b05a258613bad3390565b604051613bba9190614ed0565b60405180910390a1565b60335460ff16156110b85760405162461bcd60e51b815260206004820152601060248201526f14185d5cd8589b194e881c185d5cd95960821b6044820152606401611004565b6000613c168484612fd5565b90506000198114613c7e5781811015613c715760405162461bcd60e51b815260206004820152601d60248201527f45524332303a20696e73756666696369656e7420616c6c6f77616e63650000006044820152606401611004565b613c7e8484848403613336565b50505050565b6001600160a01b038316613ce85760405162461bcd60e51b815260206004820152602560248201527f45524332303a207472616e736665722066726f6d20746865207a65726f206164604482015264647265737360d81b6064820152608401611004565b6001600160a01b038216613d4a5760405162461bcd60e51b815260206004820152602360248201527f45524332303a207472616e7366657220746f20746865207a65726f206164647260448201526265737360e81b6064820152608401611004565b6001600160a01b038316600090815260c9602052604090205481811015613dc25760405162461bcd60e51b815260206004820152602660248201527f45524332303a207472616e7366657220616d6f756e7420657863656564732062604482015265616c616e636560d01b6064820152608401611004565b6001600160a01b03808516600081815260c9602052604080822086860390559286168082529083902080548601905591517fddf252ad1be2c89b69c2b068fc378daa952ba7f163c4a11628f55a4df523b3ef90613e229086815260200190565b60405180910390a3613c7e565b600061143a614411565b60008051602061585e833981519152546001600160a01b031690565b611504613b11565b7f4910fdfa16fed3260ed0e7147f7cc6da11a60208b5b9406d12a635614ffd91435460ff1615613e90576127a783614485565b826001600160a01b03166352d1902d6040518163ffffffff1660e01b8152600401602060405180830381865afa925050508015613eea575060408051601f3d908101601f19168201909252613ee791810190615215565b60015b613f4d5760405162461bcd60e51b815260206004820152602e60248201527f45524331393637557067726164653a206e657720696d706c656d656e7461746960448201526d6f6e206973206e6f74205555505360901b6064820152608401611004565b60008051602061585e8339815191528114613fbc5760405162461bcd60e51b815260206004820152602960248201527f45524331393637557067726164653a20756e737570706f727465642070726f786044820152681a58589b195555525160ba1b6064820152608401611004565b506127a783838361451f565b6101c854604051632142170760e11b81526000916001600160a01b0316906342842e0e90613ffe9030908690889060040161579c565b600060405180830381600087803b15801561401857600080fd5b505af1925050508015614029575060015b61403557506000610d1a565b506001610d1a565b60008181526101cc60209081526040808320546001600160a01b03168084526101cd909252822090915b8154811015613c7e578382828154811061408357614083615436565b906000526020600020906005020160040154036140d55760018282815481106140ae576140ae615436565b60009182526020909120600590910201600201805460ff1916911515919091179055613c7e565b600101614067565b6140e5614544565b6033805460ff191690557f5db9ee0a495bf2e6ff9c91a7834c1ba4fdd244a5e8aa4e537bd38aeae4b073aa33613bad565b6127a78363a9059cbb60e01b84846040516024016141359291906155cd565b60408051601f198184030181529190526020810180516001600160e01b03166001600160e01b03199093169290921790915261458d565b611504816040516024016141809190614ed0565b60408051601f198184030181529190526020810180516001600160e01b031663161765e160e11b179052614662565b61019480546001600160a01b038381166001600160a01b0319831681179093556040519116919082907f8be0079c531659141344cd1fd0a4f28419497f9722a3daafe3b4186f6b6457e090600090a35050565b600061420c613bc4565b60005b6101cb5481101561429c57826101cb828154811061422f5761422f615436565b90600052602060002090600302016000015403614274576101cb818154811061425a5761425a615436565b906000526020600020906003020160010154915050919050565b6101cb5461428490600190615663565b8103614294575060001992915050565b60010161420f565b505b919050565b606060fd8054610c83906151e1565b606060fe8054610c83906151e1565b610162546001600160a01b03841660009081526101646020526040812054909183916142ed9086615754565b6142f79190615614565b610fc69190615663565b6001600160a01b03163b151590565b600054610100900460ff166143375760405162461bcd60e51b8152600401611004906157c0565b6110b861466b565b600054610100900460ff166143665760405162461bcd60e51b8152600401611004906157c0565b6110b861469b565b600054610100900460ff166110b85760405162461bcd60e51b8152600401611004906157c0565b6001600160a01b038116600090815261012f6020526040902080546001810182559061429c565b6000610d1a6143c9613e2f565b8360405161190160f01b8152600281019290925260228201526042902090565b60008060006143fa878787876146ce565b9150915061440781614788565b5095945050505050565b60007f8b73c3c69bb8fe3d512ecc4cf759cc79239f7b179b0ffacaa9a75d522b39400f61443c6148cd565b614444614926565b60408051602081019490945283019190915260608201524660808201523060a082015260c00160405160208183030381529060405280519060200120905090565b61448e81614301565b6144f05760405162461bcd60e51b815260206004820152602d60248201527f455243313936373a206e657720696d706c656d656e746174696f6e206973206e60448201526c1bdd08184818dbdb9d1c9858dd609a1b6064820152608401611004565b60008051602061585e83398151915280546001600160a01b0319166001600160a01b0392909216919091179055565b61452883614957565b6000825111806145355750805b156127a757613c7e8383614997565b60335460ff166110b85760405162461bcd60e51b815260206004820152601460248201527314185d5cd8589b194e881b9bdd081c185d5cd95960621b6044820152606401611004565b60006145e2826040518060400160405280602081526020017f5361666545524332303a206c6f772d6c6576656c2063616c6c206661696c6564815250856001600160a01b03166149bc9092919063ffffffff16565b9050805160001480614603575080806020019051810190614603919061576b565b6127a75760405162461bcd60e51b815260206004820152602a60248201527f5361666545524332303a204552433230206f7065726174696f6e20646964206e6044820152691bdd081cdd58d8d9595960b21b6064820152608401611004565b611504816149cb565b600054610100900460ff166146925760405162461bcd60e51b8152600401611004906157c0565b6110b8336141af565b600054610100900460ff166146c25760405162461bcd60e51b8152600401611004906157c0565b6033805460ff19169055565b6000806fa2a8918ca85bafe22016d0b997e4df60600160ff1b038311156146fb575060009050600361477f565b6040805160008082526020820180845289905260ff881692820192909252606081018690526080810185905260019060a0016020604051602081039080840390855afa15801561474f573d6000803e3d6000fd5b5050604051601f1901519150506001600160a01b0381166147785760006001925092505061477f565b9150600090505b94509492505050565b600081600481111561479c5761479c61580b565b036147a45750565b60018160048111156147b8576147b861580b565b036148005760405162461bcd60e51b815260206004820152601860248201527745434453413a20696e76616c6964207369676e617475726560401b6044820152606401611004565b60028160048111156148145761481461580b565b036148615760405162461bcd60e51b815260206004820152601f60248201527f45434453413a20696e76616c6964207369676e6174757265206c656e677468006044820152606401611004565b60038160048111156148755761487561580b565b036115045760405162461bcd60e51b815260206004820152602260248201527f45434453413a20696e76616c6964207369676e6174757265202773272076616c604482015261756560f01b6064820152608401611004565b6000806148d86142a3565b8051909150156148ef578051602090910120919050565b60fb5480156148fe5792915050565b7fc5d2460186f7233c927e7db2dcc703c0e500b653ca82273b7bfad8045d85a4709250505090565b6000806149316142b2565b805190915015614948578051602090910120919050565b60fc5480156148fe5792915050565b61496081614485565b6040516001600160a01b038216907fbc7cd75a20ee27fd9adebab32041f755214dbc6bffa90cc0225b39da2e5c2d3b90600090a250565b6060612671838360405180606001604052806027815260200161587e602791396149ec565b6060610fc68484600085614a64565b60006a636f6e736f6c652e6c6f679050600080835160208501845afa505050565b6060600080856001600160a01b031685604051614a099190615821565b600060405180830381855af49150503d8060008114614a44576040519150601f19603f3d011682016040523d82523d6000602084013e614a49565b606091505b5091509150614a5a86838387614b3f565b9695505050505050565b606082471015614ac55760405162461bcd60e51b815260206004820152602660248201527f416464726573733a20696e73756666696369656e742062616c616e636520666f6044820152651c8818d85b1b60d21b6064820152608401611004565b600080866001600160a01b03168587604051614ae19190615821565b60006040518083038185875af1925050503d8060008114614b1e576040519150601f19603f3d011682016040523d82523d6000602084013e614b23565b606091505b5091509150614b3487838387614b3f565b979650505050505050565b60608315614bac578251600003614ba557614b5985614301565b614ba55760405162461bcd60e51b815260206004820152601d60248201527f416464726573733a2063616c6c20746f206e6f6e2d636f6e74726163740000006044820152606401611004565b5081610fc6565b610fc68383815115614bc15781518083602001fd5b8060405162461bcd60e51b81526004016110049190614c2b565b60005b83811015614bf6578181015183820152602001614bde565b50506000910152565b60008151808452614c17816020860160208601614bdb565b601f01601f19169290920160200192915050565b6020815260006126716020830184614bff565b6001600160a01b038116811461150457600080fd5b60008060408385031215614c6657600080fd5b8235614c7181614c3e565b946020939093013593505050565b634e487b7160e01b600052604160045260246000fd5b60405161016081016001600160401b0381118282101715614cb857614cb8614c7f565b60405290565b604051601f8201601f191681016001600160401b0381118282101715614ce657614ce6614c7f565b604052919050565b600082601f830112614cff57600080fd5b81356001600160401b03811115614d1857614d18614c7f565b614d2b601f8201601f1916602001614cbe565b818152846020838601011115614d4057600080fd5b816020850160208301376000918101602001919091529392505050565b60008060008060808587031215614d7357600080fd5b8435614d7e81614c3e565b93506020850135614d8e81614c3e565b92506040850135915060608501356001600160401b03811115614db057600080fd5b614dbc87828801614cee565b91505092959194509250565b600060208284031215614dda57600080fd5b813561267181614c3e565b600080600060608486031215614dfa57600080fd5b8335614e0581614c3e565b92506020840135614e1581614c3e565b929592945050506040919091013590565b60008060408385031215614e3957600080fd5b50508035926020909101359150565b602080825282518282018190526000919060409081850190868401855b82811015614eaa578151805185528681015187860152858101516001600160a01b03168686015260609081015115159085015260809093019290850190600101614e65565b5091979650505050505050565b600060208284031215614ec957600080fd5b5035919050565b6001600160a01b0391909116815260200190565b60008060408385031215614ef757600080fd5b823591506020830135614f0981614c3e565b809150509250929050565b60008060408385031215614f2757600080fd5b8235614f3281614c3e565b91506020830135614f0981614c3e565b60008060408385031215614f5557600080fd5b8235614f6081614c3e565b915060208301356001600160401b03811115614f7b57600080fd5b614f8785828601614cee565b9150509250929050565b60008060008060808587031215614fa757600080fd5b8435614fb281614c3e565b93506020850135614fc281614c3e565b92506040850135614fd281614c3e565b9396929550929360600135925050565b60ff60f81b881681526000602060e0602084015261500360e084018a614bff565b8381036040850152615015818a614bff565b606085018990526001600160a01b038816608086015260a0850187905284810360c08601528551808252602080880193509091019060005b818110156150695783518352928401929184019160010161504d565b50909c9b505050505050505050505050565b600080600080600080600060e0888a03121561509657600080fd5b87356150a181614c3e565b965060208801356150b181614c3e565b95506040880135945060608801359350608088013560ff811681146150d557600080fd5b9699959850939692959460a0840135945060c09093013592915050565b602080825282518282018190526000919060409081850190868401855b82811015614eaa57815180516001600160a01b0390811686528782015188870152868201511515878701526060808301511515908701526080808301519091169086015260a0808201519086015260c0908101519085015260e0909301929085019060010161510f565b600080600080600060a0868803121561519157600080fd5b853561519c81614c3e565b94506020860135935060408601356151b381614c3e565b925060608601356151c381614c3e565b915060808601356151d381614c3e565b809150509295509295909350565b600181811c908216806151f557607f821691505b60208210810361429c57634e487b7160e01b600052602260045260246000fd5b60006020828403121561522757600080fd5b5051919050565b6001600160a01b038581168252841660208201526040810183905260a06060820181905260009061526190830184614bff565b8281036080840152600e81526d1b1a5cdd1a5b99c81c1b185b995d60921b60208201526040810191505095945050505050565b600082601f8301126152a557600080fd5b815160206001600160401b038211156152c0576152c0614c7f565b8160051b6152cf828201614cbe565b92835284810182019282810190878511156152e957600080fd5b83870192505b84831015614b34578251825291830191908301906152ef565b8051801515811461429e57600080fd5b6000806040838503121561532b57600080fd5b82516001600160401b038082111561534257600080fd5b90840190610160828703121561535757600080fd5b61535f614c95565b825181526020830151602082015260408301516040820152606083015160608201526080830151608082015260a083015160a082015260c083015160c082015260e083015160e082015261010080840151838111156153bd57600080fd5b6153c989828701615294565b82840152505061012080840151838111156153e357600080fd5b6153ef89828701615294565b828401525050610140808401518381111561540957600080fd5b61541589828701615294565b82840152505080945050505061542d60208401615308565b90509250929050565b634e487b7160e01b600052603260045260246000fd5b6001600160a01b038581168252841660208201526040810183905260a06060820181905260009061547f90830184614bff565b8281036080840152600a8152691b995dc81c1b185b995d60b21b60208201526040810191505095945050505050565b6001600160a01b038581168252841660208201526040810183905260a0606082018190526000906154e190830184614bff565b8281036080840152600d81526c1d5b98d85d1959dbdc9a5e9959609a1b60208201526040810191505095945050505050565b60208082526026908201527f5061796d656e7453706c69747465723a206163636f756e7420686173206e6f2060408201526573686172657360d01b606082015260800190565b6020808252602b908201527f5061796d656e7453706c69747465723a206163636f756e74206973206e6f742060408201526a191d59481c185e5b595b9d60aa1b606082015260800190565b634e487b7160e01b600052601160045260246000fd5b80820180821115610d1a57610d1a6155a4565b6001600160a01b03929092168252602082015260400190565b602080825260149082015273496e73756666696369656e742062616c616e636560601b604082015260600190565b60008261563157634e487b7160e01b600052601260045260246000fd5b500490565b602080825260139082015272496e646578206f7574206f6620626f756e647360681b604082015260600190565b81810381811115610d1a57610d1a6155a4565b6020808252602c908201527f46756e6374696f6e206d7573742062652063616c6c6564207468726f7567682060408201526b19195b1959d85d1958d85b1b60a21b606082015260800190565b6020808252602c908201527f46756e6374696f6e206d7573742062652063616c6c6564207468726f7567682060408201526b6163746976652070726f787960a01b606082015260800190565b6001600160a01b0394851681529290931660208301526040820152901515606082015260800190565b60006020828403121561574957600080fd5b815161267181614c3e565b8082028115828204841417610d1a57610d1a6155a4565b60006020828403121561577d57600080fd5b61267182615308565b634e487b7160e01b600052603160045260246000fd5b6001600160a01b039384168152919092166020820152604081019190915260600190565b6020808252602b908201527f496e697469616c697a61626c653a20636f6e7472616374206973206e6f74206960408201526a6e697469616c697a696e6760a81b606082015260800190565b634e487b7160e01b600052602160045260246000fd5b60008251615833818460208701614bdb565b919091019291505056fe13c6ec2a463a35f898a457814a782f1f567808293fa783a31fa4dac8868e6011360894a13ba1a3210667c828492db98dca3e2076cc3735a920a3ca505d382bbc416464726573733a206c6f772d6c6576656c2064656c65676174652063616c6c206661696c6564a26469706673582212204a68708211f3dc18b537f63eb76b1752eb8adea4d33667e58d35663ddc4bcd5964736f6c63430008180033",
  "linkReferences": {},
  "deployedLinkReferences": {}
}