{
  "_format": "hh-sol-artifact-1",
  "contractName": "BreedingTestContract",
  "sourceName": "contracts/test/BreedingTestContract.sol",
  "abi": [
    {
      "inputs": [],
      "stateMutability": "nonpayable",
      "type": "constructor"
    },
    {
      "inputs": [
        {
          "internalType": "uint256",
          "name": "planetAId",
          "type": "uint256"
        },
        {
          "internalType": "uint256",
          "name": "planetBId",
          "type": "uint256"
        },
        {
          "internalType": "bool",
          "name": "shouldUseMiniBlackhole",
          "type": "bool"
        }
      ],
      "name": "requestBreed",
      "outputs": [
        {
          "internalType": "bytes32",
          "name": "",
          "type": "bytes32"
        }
      ],
      "stateMutability": "payable",
      "type": "function"
    }
  ],
  "bytecode": "0x608060405234801561001057600080fd5b5061022f806100206000396000f3fe60806040526004361061001e5760003560e01c80634e9e6a0714610023575b600080fd5b61003661003136600461016d565b610048565b60405190815260200160405180910390f35b60006702c68af0bb14000034101561009d5760405162461bcd60e51b8152602060048201526014602482015273496e73756666696369656e7420726f6e2066656560601b604482015260640160405180910390fd5b60006100a984866101ab565b9050826001811515146100bf576100bf82610100565b604080518082019091526013815272636f6e6a756e6374696f6e636f6d706c65746560681b602082015260006100f4826101d2565b98975050505050505050565b6101458160405160240161011691815260200190565b60408051601f198184030181529190526020810180516001600160e01b031663f82c50f160e01b179052610148565b50565b6101458160006a636f6e736f6c652e6c6f679050600080835160208501845afa505050565b60008060006060848603121561018257600080fd5b8335925060208401359150604084013580151581146101a057600080fd5b809150509250925092565b808201808211156101cc57634e487b7160e01b600052601160045260246000fd5b92915050565b805160208083015191908110156101f3576000198160200360031b1b821691505b5091905056fea2646970667358221220b37bcac4f4bd190d534b5c25f69cb43d34d801d38f2c645361cd4229daa1369464736f6c63430008180033",
  "linkReferences": {},
  "deployedLinkReferences": {}
}