{
  "_format": "hh-sol-artifact-1",
  "contractName": "BreedingTestContract",
  "sourceName": "contracts/test/BreedingTestContract.sol",
  "abi": [
    {
      "inputs": [],
      "stateMutability": "nonpayable",
      "type": "constructor"
    },
    {
      "inputs": [
        {
          "internalType": "uint256",
          "name": "planetAId",
          "type": "uint256"
        },
        {
          "internalType": "uint256",
          "name": "planetBId",
          "type": "uint256"
        },
        {
          "internalType": "bool",
          "name": "shouldUseMiniBlackhole",
          "type": "bool"
        }
      ],
      "name": "requestBreed",
      "outputs": [
        {
          "internalType": "bytes32",
          "name": "",
          "type": "bytes32"
        }
      ],
      "stateMutability": "payable",
      "type": "function"
    }
  ],
  "bytecode": "0x608060405234801561001057600080fd5b506102a3806100206000396000f3fe60806040526004361061001e5760003560e01c80634e9e6a0714610023575b600080fd5b6100366100313660046101c8565b610048565b60405190815260200160405180910390f35b60006702c68af0bb1400003410156100c0576040517f08c379a000000000000000000000000000000000000000000000000000000000815260206004820152601460248201527f496e73756666696369656e7420726f6e20666565000000000000000000000000604482015260640160405180910390fd5b60006100cc8486610206565b9050826001811515146100e2576100e28261012d565b60408051808201909152601381527f636f6e6a756e6374696f6e636f6d706c657465000000000000000000000000006020820152600061012182610246565b98975050505050505050565b6101a08160405160240161014391815260200190565b60408051601f198184030181529190526020810180517bffffffffffffffffffffffffffffffffffffffffffffffffffffffff167ff82c50f1000000000000000000000000000000000000000000000000000000001790526101a3565b50565b6101a08160006a636f6e736f6c652e6c6f679050600080835160208501845afa505050565b6000806000606084860312156101dd57600080fd5b8335925060208401359150604084013580151581146101fb57600080fd5b809150509250925092565b80820180821115610240577f4e487b7100000000000000000000000000000000000000000000000000000000600052601160045260246000fd5b92915050565b80516020808301519190811015610267576000198160200360031b1b821691505b5091905056fea26469706673582212209c182ff70873d9eed4e044a6de811696a96cf5c7f8e5e181435a680c79689f6664736f6c63430008180033",
  "linkReferences": {},
  "deployedLinkReferences": {}
}