{
  "_format": "hh-sol-artifact-1",
  "contractName": "MockERC721",
  "sourceName": "contracts/test/MockERC721.sol",
  "abi": [
    {
      "inputs": [
        {
          "internalType": "string",
          "name": "name",
          "type": "string"
        },
        {
          "internalType": "string",
          "name": "symbol",
          "type": "string"
        }
      ],
      "stateMutability": "nonpayable",
      "type": "constructor"
    },
    {
      "anonymous": false,
      "inputs": [
        {
          "indexed": true,
          "internalType": "address",
          "name": "owner",
          "type": "address"
        },
        {
          "indexed": true,
          "internalType": "address",
          "name": "approved",
          "type": "address"
        },
        {
          "indexed": true,
          "internalType": "uint256",
          "name": "tokenId",
          "type": "uint256"
        }
      ],
      "name": "Approval",
      "type": "event"
    },
    {
      "anonymous": false,
      "inputs": [
        {
          "indexed": true,
          "internalType": "address",
          "name": "owner",
          "type": "address"
        },
        {
          "indexed": true,
          "internalType": "address",
          "name": "operator",
          "type": "address"
        },
        {
          "indexed": false,
          "internalType": "bool",
          "name": "approved",
          "type": "bool"
        }
      ],
      "name": "ApprovalForAll",
      "type": "event"
    },
    {
      "anonymous": false,
      "inputs": [
        {
          "indexed": false,
          "internalType": "string",
          "name": "message",
          "type": "string"
        },
        {
          "indexed": true,
          "internalType": "address",
          "name": "from",
          "type": "address"
        },
        {
          "indexed": false,
          "internalType": "uint256",
          "name": "value",
          "type": "uint256"
        }
      ],
      "name": "DebugLog",
      "type": "event"
    },
    {
      "anonymous": false,
      "inputs": [
        {
          "indexed": true,
          "internalType": "address",
          "name": "previousOwner",
          "type": "address"
        },
        {
          "indexed": true,
          "internalType": "address",
          "name": "newOwner",
          "type": "address"
        }
      ],
      "name": "OwnershipTransferred",
      "type": "event"
    },
    {
      "anonymous": false,
      "inputs": [
        {
          "indexed": true,
          "internalType": "address",
          "name": "from",
          "type": "address"
        },
        {
          "indexed": true,
          "internalType": "address",
          "name": "to",
          "type": "address"
        },
        {
          "indexed": true,
          "internalType": "uint256",
          "name": "tokenId",
          "type": "uint256"
        }
      ],
      "name": "Transfer",
      "type": "event"
    },
    {
      "inputs": [
        {
          "internalType": "address",
          "name": "to",
          "type": "address"
        },
        {
          "internalType": "uint256",
          "name": "tokenId",
          "type": "uint256"
        }
      ],
      "name": "approve",
      "outputs": [],
      "stateMutability": "nonpayable",
      "type": "function"
    },
    {
      "inputs": [
        {
          "internalType": "address",
          "name": "owner",
          "type": "address"
        }
      ],
      "name": "balanceOf",
      "outputs": [
        {
          "internalType": "uint256",
          "name": "",
          "type": "uint256"
        }
      ],
      "stateMutability": "view",
      "type": "function"
    },
    {
      "inputs": [
        {
          "internalType": "uint256",
          "name": "tokenId",
          "type": "uint256"
        }
      ],
      "name": "getApproved",
      "outputs": [
        {
          "internalType": "address",
          "name": "",
          "type": "address"
        }
      ],
      "stateMutability": "view",
      "type": "function"
    },
    {
      "inputs": [],
      "name": "getCurrentTokenId",
      "outputs": [
        {
          "internalType": "uint256",
          "name": "",
          "type": "uint256"
        }
      ],
      "stateMutability": "view",
      "type": "function"
    },
    {
      "inputs": [
        {
          "internalType": "uint256",
          "name": "tokenId",
          "type": "uint256"
        }
      ],
      "name": "getPlanetData",
      "outputs": [
        {
          "components": [
            {
              "internalType": "uint256",
              "name": "gene",
              "type": "uint256"
            },
            {
              "internalType": "uint256",
              "name": "baseAge",
              "type": "uint256"
            },
            {
              "internalType": "uint256",
              "name": "evolve",
              "type": "uint256"
            },
            {
              "internalType": "uint256",
              "name": "breedCount",
              "type": "uint256"
            },
            {
              "internalType": "uint256",
              "name": "breedCountMax",
              "type": "uint256"
            },
            {
              "internalType": "uint256",
              "name": "createTime",
              "type": "uint256"
            },
            {
              "internalType": "uint256",
              "name": "bornTime",
              "type": "uint256"
            },
            {
              "internalType": "uint256",
              "name": "lastBreedTime",
              "type": "uint256"
            },
            {
              "internalType": "uint256[]",
              "name": "relicsTokenIDs",
              "type": "uint256[]"
            },
            {
              "internalType": "uint256[]",
              "name": "parents",
              "type": "uint256[]"
            },
            {
              "internalType": "uint256[]",
              "name": "children",
              "type": "uint256[]"
            }
          ],
          "internalType": "struct PlanetData",
          "name": "",
          "type": "tuple"
        },
        {
          "internalType": "bool",
          "name": "",
          "type": "bool"
        }
      ],
      "stateMutability": "nonpayable",
      "type": "function"
    },
    {
      "inputs": [
        {
          "internalType": "address",
          "name": "owner",
          "type": "address"
        },
        {
          "internalType": "address",
          "name": "operator",
          "type": "address"
        }
      ],
      "name": "isApprovedForAll",
      "outputs": [
        {
          "internalType": "bool",
          "name": "",
          "type": "bool"
        }
      ],
      "stateMutability": "view",
      "type": "function"
    },
    {
      "inputs": [
        {
          "internalType": "address",
          "name": "to",
          "type": "address"
        }
      ],
      "name": "mint",
      "outputs": [],
      "stateMutability": "nonpayable",
      "type": "function"
    },
    {
      "inputs": [],
      "name": "name",
      "outputs": [
        {
          "internalType": "string",
          "name": "",
          "type": "string"
        }
      ],
      "stateMutability": "view",
      "type": "function"
    },
    {
      "inputs": [],
      "name": "owner",
      "outputs": [
        {
          "internalType": "address",
          "name": "",
          "type": "address"
        }
      ],
      "stateMutability": "view",
      "type": "function"
    },
    {
      "inputs": [
        {
          "internalType": "uint256",
          "name": "tokenId",
          "type": "uint256"
        }
      ],
      "name": "ownerOf",
      "outputs": [
        {
          "internalType": "address",
          "name": "",
          "type": "address"
        }
      ],
      "stateMutability": "view",
      "type": "function"
    },
    {
      "inputs": [],
      "name": "renounceOwnership",
      "outputs": [],
      "stateMutability": "nonpayable",
      "type": "function"
    },
    {
      "inputs": [
        {
          "internalType": "address",
          "name": "from",
          "type": "address"
        },
        {
          "internalType": "address",
          "name": "to",
          "type": "address"
        },
        {
          "internalType": "uint256",
          "name": "tokenId",
          "type": "uint256"
        }
      ],
      "name": "safeTransferFrom",
      "outputs": [],
      "stateMutability": "nonpayable",
      "type": "function"
    },
    {
      "inputs": [
        {
          "internalType": "address",
          "name": "from",
          "type": "address"
        },
        {
          "internalType": "address",
          "name": "to",
          "type": "address"
        },
        {
          "internalType": "uint256",
          "name": "tokenId",
          "type": "uint256"
        },
        {
          "internalType": "bytes",
          "name": "data",
          "type": "bytes"
        }
      ],
      "name": "safeTransferFrom",
      "outputs": [],
      "stateMutability": "nonpayable",
      "type": "function"
    },
    {
      "inputs": [
        {
          "internalType": "address",
          "name": "operator",
          "type": "address"
        },
        {
          "internalType": "bool",
          "name": "approved",
          "type": "bool"
        }
      ],
      "name": "setApprovalForAll",
      "outputs": [],
      "stateMutability": "nonpayable",
      "type": "function"
    },
    {
      "inputs": [
        {
          "internalType": "bytes4",
          "name": "interfaceId",
          "type": "bytes4"
        }
      ],
      "name": "supportsInterface",
      "outputs": [
        {
          "internalType": "bool",
          "name": "",
          "type": "bool"
        }
      ],
      "stateMutability": "view",
      "type": "function"
    },
    {
      "inputs": [],
      "name": "symbol",
      "outputs": [
        {
          "internalType": "string",
          "name": "",
          "type": "string"
        }
      ],
      "stateMutability": "view",
      "type": "function"
    },
    {
      "inputs": [
        {
          "internalType": "uint256",
          "name": "tokenId",
          "type": "uint256"
        }
      ],
      "name": "tokenURI",
      "outputs": [
        {
          "internalType": "string",
          "name": "",
          "type": "string"
        }
      ],
      "stateMutability": "view",
      "type": "function"
    },
    {
      "inputs": [
        {
          "internalType": "address",
          "name": "from",
          "type": "address"
        },
        {
          "internalType": "address",
          "name": "to",
          "type": "address"
        },
        {
          "internalType": "uint256",
          "name": "tokenId",
          "type": "uint256"
        }
      ],
      "name": "transferFrom",
      "outputs": [],
      "stateMutability": "nonpayable",
      "type": "function"
    },
    {
      "inputs": [
        {
          "internalType": "address",
          "name": "newOwner",
          "type": "address"
        }
      ],
      "name": "transferOwnership",
      "outputs": [],
      "stateMutability": "nonpayable",
      "type": "function"
    }
  ],
  "bytecode": "0x6000600781905563075bcd156080908152606460a052600160c05260e082905260056101005267112210f47de98115610120526101408290526101608290526101e091825261018091909152600261020081815261026060409081526101a092906102209080368337505050815260408051600081526020808201835292830152825160089081558383015160095590830151600a556060830151600b556080830151600c5560a0830151600d5560c0830151600e5560e0830151600f5561010083015180519192620000d99260109290910190620002d0565b506101208201518051620000f8916009840191602090910190620002d0565b5061014082015180516200011791600a840191602090910190620002d0565b5050503480156200012757600080fd5b5060405162001ee538038062001ee58339810160408190526200014a91620003ff565b818160006200015a8382620004fa565b506001620001698282620004fa565b50505062000186620001806200019960201b60201c565b6200019d565b6200019133620001ef565b5050620005c6565b3390565b600680546001600160a01b038381166001600160a01b0319831681179093556040519116919082907f8be0079c531659141344cd1fd0a4f28419497f9722a3daafe3b4186f6b6457e090600090a35050565b620001f962000272565b6001600160a01b038116620002645760405162461bcd60e51b815260206004820152602660248201527f4f776e61626c653a206e6577206f776e657220697320746865207a65726f206160448201526564647265737360d01b60648201526084015b60405180910390fd5b6200026f816200019d565b50565b6006546001600160a01b03163314620002ce5760405162461bcd60e51b815260206004820181905260248201527f4f776e61626c653a2063616c6c6572206973206e6f7420746865206f776e657260448201526064016200025b565b565b8280548282559060005260206000209081019282156200030e579160200282015b828111156200030e578251825591602001919060010190620002f1565b506200031c92915062000320565b5090565b5b808211156200031c576000815560010162000321565b634e487b7160e01b600052604160045260246000fd5b600082601f8301126200035f57600080fd5b81516001600160401b03808211156200037c576200037c62000337565b604051601f8301601f19908116603f01168101908282118183101715620003a757620003a762000337565b8160405283815260209250866020858801011115620003c557600080fd5b600091505b83821015620003e95785820183015181830184015290820190620003ca565b6000602085830101528094505050505092915050565b600080604083850312156200041357600080fd5b82516001600160401b03808211156200042b57600080fd5b62000439868387016200034d565b935060208501519150808211156200045057600080fd5b506200045f858286016200034d565b9150509250929050565b600181811c908216806200047e57607f821691505b6020821081036200049f57634e487b7160e01b600052602260045260246000fd5b50919050565b601f821115620004f5576000816000526020600020601f850160051c81016020861015620004d05750805b601f850160051c820191505b81811015620004f157828155600101620004dc565b5050505b505050565b81516001600160401b0381111562000516576200051662000337565b6200052e8162000527845462000469565b84620004a5565b602080601f8311600181146200056657600084156200054d5750858301515b600019600386901b1c1916600185901b178555620004f1565b600085815260208120601f198616915b82811015620005975788860151825594840194600190910190840162000576565b5085821015620005b65787850151600019600388901b60f8161c191681555b5050505050600190811b01905550565b61190f80620005d66000396000f3fe608060405234801561001057600080fd5b50600436106100f15760003560e01c806301ffc9a7146100f657806306fdde031461011e578063081812fc14610133578063095ea7b31461015e57806323b872dd1461017357806342842e0e1461018657806356189236146101995780636352211e146101ab5780636a627842146101be57806370a08231146101d1578063715018a6146101e45780638da5cb5b146101ec57806395d89b41146101f4578063a22cb465146101fc578063b88d4fde1461020f578063c87b56dd14610222578063dc9ce7a514610235578063e985e9c514610256578063f2fde38b14610269575b600080fd5b6101096101043660046112c2565b61027c565b60405190151581526020015b60405180910390f35b6101266102ce565b604051610115919061132f565b610146610141366004611342565b610360565b6040516001600160a01b039091168152602001610115565b61017161016c366004611377565b610387565b005b6101716101813660046113a1565b61049e565b6101716101943660046113a1565b6104d4565b6007545b604051908152602001610115565b6101466101b9366004611342565b6104ef565b6101716101cc3660046113dd565b610523565b61019d6101df3660046113dd565b61054e565b6101716105d4565b6101466105e8565b6101266105f7565b61017161020a3660046113f8565b610606565b61017161021d36600461144a565b610638565b610126610230366004611342565b6106b3565b610248610243366004611342565b610727565b604051610115929190611561565b61010961026436600461162d565b610932565b6101716102773660046113dd565b610960565b60006001600160e01b031982166380ac58cd60e01b14806102ad57506001600160e01b03198216635b5e139f60e01b145b806102c857506301ffc9a760e01b6001600160e01b03198316145b92915050565b6060600080546102dd90611660565b80601f016020809104026020016040519081016040528092919081815260200182805461030990611660565b80156103565780601f1061032b57610100808354040283529160200191610356565b820191906000526020600020905b81548152906001019060200180831161033957829003601f168201915b5050505050905090565b600061036b826109d9565b506000908152600460205260409020546001600160a01b031690565b610390816109fe565b6103f65760405162461bcd60e51b815260206004820152602c60248201527f4552433732313a20617070726f76616c20717565727920666f72206e6f6e657860448201526b34b9ba32b73a103a37b5b2b760a11b60648201526084015b60405180910390fd5b33610400826104ef565b6001600160a01b03161480610422575061042261041c826104ef565b33610932565b6104905760405162461bcd60e51b815260206004820152603960248201527f4552433732313a20617070726f76652063616c6c6572206973206e6f74206f776044820152786e6572206e6f7220617070726f76656420666f7220616c6c2160381b60648201526084016103ed565b61049a8282610a1b565b5050565b6104a83382610b2b565b6104c45760405162461bcd60e51b81526004016103ed9061169a565b6104cf838383610b8a565b505050565b6104cf83838360405180602001604052806000815250610638565b6000806104fb83610cee565b90506001600160a01b0381166102c85760405162461bcd60e51b81526004016103ed906116e7565b61052b610d09565b6000600754600161053c9190611719565b90506105488282610d68565b60075550565b60006001600160a01b0382166105b85760405162461bcd60e51b815260206004820152602960248201527f4552433732313a2061646472657373207a65726f206973206e6f7420612076616044820152683634b21037bbb732b960b91b60648201526084016103ed565b506001600160a01b031660009081526003602052604090205490565b6105dc610d09565b6105e66000610e75565b565b6006546001600160a01b031690565b6060600180546102dd90611660565b336001600160a01b0383160361062e5760405162461bcd60e51b81526004016103ed9061173a565b61049a8282610ec7565b826001600160a01b03167fb515f8464a2e9f92f223836cb4d97889b194249a3f5a6bae6b346c6b0ac8fd558360405161069991906040808252600b908201526a39b2b73a103a37b5b2b71d60a91b6060820152602081019190915260800190565b60405180910390a26106ad84848484610ed2565b50505050565b60606106be826109d9565b60006106d560408051602081019091526000815290565b905060008151116106f55760405180602001604052806000815250610720565b806106ff84610f04565b60405160200161071092919061176d565b6040516020818303038152906040525b9392505050565b61078460405180610160016040528060008152602001600081526020016000815260200160008152602001600081526020016000815260200160008152602001600081526020016060815260200160608152602001606081525090565b6000600b600860090160008154811061079f5761079f61179c565b9060005260206000200181905550600c60086009016001815481106107c6576107c661179c565b60009182526020918290200191909155604080516101608101825260088054825260095482850152600a5482840152600b546060830152600c546080830152600d5460a0830152600e5460c0830152600f5460e08301526010805484518187028101870190955280855291946001948693610100860193919283018282801561086e57602002820191906000526020600020905b81548152602001906001019080831161085a575b50505050508152602001600982018054806020026020016040519081016040528092919081815260200182805480156108c657602002820191906000526020600020905b8154815260200190600101908083116108b2575b50505050508152602001600a820180548060200260200160405190810160405280929190818152602001828054801561091e57602002820191906000526020600020905b81548152602001906001019080831161090a575b505050505081525050915091509150915091565b6001600160a01b03918216600090815260056020908152604080832093909416825291909152205460ff1690565b610968610d09565b6001600160a01b0381166109cd5760405162461bcd60e51b815260206004820152602660248201527f4f776e61626c653a206e6577206f776e657220697320746865207a65726f206160448201526564647265737360d01b60648201526084016103ed565b6109d681610e75565b50565b6109e2816109fe565b6109d65760405162461bcd60e51b81526004016103ed906116e7565b600080610a0a83610cee565b6001600160a01b0316141592915050565b6000610a26826104ef565b9050806001600160a01b0316836001600160a01b031603610a935760405162461bcd60e51b815260206004820152602160248201527f4552433732313a20617070726f76616c20746f2063757272656e74206f776e656044820152603960f91b60648201526084016103ed565b336001600160a01b0382161480610aaf5750610aaf8133610932565b610b215760405162461bcd60e51b815260206004820152603d60248201527f4552433732313a20617070726f76652063616c6c6572206973206e6f7420746f60448201527f6b656e206f776e6572206f7220617070726f76656420666f7220616c6c00000060648201526084016103ed565b6104cf8383610f96565b600080610b37836104ef565b9050806001600160a01b0316846001600160a01b03161480610b5e5750610b5e8185610932565b80610b825750836001600160a01b0316610b7784610360565b6001600160a01b0316145b949350505050565b826001600160a01b0316610b9d826104ef565b6001600160a01b031614610bc35760405162461bcd60e51b81526004016103ed906117b2565b6001600160a01b038216610c255760405162461bcd60e51b8152602060048201526024808201527f4552433732313a207472616e7366657220746f20746865207a65726f206164646044820152637265737360e01b60648201526084016103ed565b826001600160a01b0316610c38826104ef565b6001600160a01b031614610c5e5760405162461bcd60e51b81526004016103ed906117b2565b600081815260046020908152604080832080546001600160a01b03199081169091556001600160a01b0387811680865260038552838620805460001901905590871680865283862080546001019055868652600290945282852080549092168417909155905184937fddf252ad1be2c89b69c2b068fc378daa952ba7f163c4a11628f55a4df523b3ef91a4505050565b6000908152600260205260409020546001600160a01b031690565b33610d126105e8565b6001600160a01b0316146105e65760405162461bcd60e51b815260206004820181905260248201527f4f776e61626c653a2063616c6c6572206973206e6f7420746865206f776e657260448201526064016103ed565b6001600160a01b038216610dbe5760405162461bcd60e51b815260206004820181905260248201527f4552433732313a206d696e7420746f20746865207a65726f206164647265737360448201526064016103ed565b610dc7816109fe565b15610de45760405162461bcd60e51b81526004016103ed906117f7565b610ded816109fe565b15610e0a5760405162461bcd60e51b81526004016103ed906117f7565b6001600160a01b038216600081815260036020908152604080832080546001019055848352600290915280822080546001600160a01b0319168417905551839291907fddf252ad1be2c89b69c2b068fc378daa952ba7f163c4a11628f55a4df523b3ef908290a45050565b600680546001600160a01b038381166001600160a01b0319831681179093556040519116919082907f8be0079c531659141344cd1fd0a4f28419497f9722a3daafe3b4186f6b6457e090600090a35050565b61049a338383611004565b610edc3383610b2b565b610ef85760405162461bcd60e51b81526004016103ed9061169a565b6106ad848484846110a2565b60606000610f11836110d5565b60010190506000816001600160401b03811115610f3057610f30611434565b6040519080825280601f01601f191660200182016040528015610f5a576020820181803683370190505b5090508181016020015b600019016f181899199a1a9b1b9c1cb0b131b232b360811b600a86061a8153600a8504945084610f6457509392505050565b600081815260046020526040902080546001600160a01b0319166001600160a01b0384169081179091558190610fcb826104ef565b6001600160a01b03167f8c5be1e5ebec7d5bd14f71427d1e84f3dd0314c0f7b2291e5b200ac8c7c3b92560405160405180910390a45050565b816001600160a01b0316836001600160a01b0316036110355760405162461bcd60e51b81526004016103ed9061173a565b6001600160a01b03838116600081815260056020908152604080832094871680845294825291829020805460ff191686151590811790915591519182527f17307eab39ab6107e8899845ad3d59bd9653f200f220920489ca2b5937696c31910160405180910390a3505050565b6110ad848484610b8a565b6110b9848484846111ab565b6106ad5760405162461bcd60e51b81526004016103ed9061182d565b60008072184f03e93ff9f4daa797ed6e38ed64bf6a1f0160401b83106111145772184f03e93ff9f4daa797ed6e38ed64bf6a1f0160401b830492506040015b6904ee2d6d415b85acef8160201b831061113e576904ee2d6d415b85acef8160201b830492506020015b662386f26fc10000831061115c57662386f26fc10000830492506010015b6305f5e1008310611174576305f5e100830492506008015b612710831061118857612710830492506004015b6064831061119a576064830492506002015b600a83106102c85760010192915050565b60006001600160a01b0384163b156112a157604051630a85bd0160e11b81526001600160a01b0385169063150b7a02906111ef90339089908890889060040161187f565b6020604051808303816000875af192505050801561122a575060408051601f3d908101601f19168201909252611227918101906118bc565b60015b611287573d808015611258576040519150601f19603f3d011682016040523d82523d6000602084013e61125d565b606091505b50805160000361127f5760405162461bcd60e51b81526004016103ed9061182d565b805181602001fd5b6001600160e01b031916630a85bd0160e11b149050610b82565b506001949350505050565b6001600160e01b0319811681146109d657600080fd5b6000602082840312156112d457600080fd5b8135610720816112ac565b60005b838110156112fa5781810151838201526020016112e2565b50506000910152565b6000815180845261131b8160208601602086016112df565b601f01601f19169290920160200192915050565b6020815260006107206020830184611303565b60006020828403121561135457600080fd5b5035919050565b80356001600160a01b038116811461137257600080fd5b919050565b6000806040838503121561138a57600080fd5b6113938361135b565b946020939093013593505050565b6000806000606084860312156113b657600080fd5b6113bf8461135b565b92506113cd6020850161135b565b9150604084013590509250925092565b6000602082840312156113ef57600080fd5b6107208261135b565b6000806040838503121561140b57600080fd5b6114148361135b565b91506020830135801515811461142957600080fd5b809150509250929050565b634e487b7160e01b600052604160045260246000fd5b6000806000806080858703121561146057600080fd5b6114698561135b565b93506114776020860161135b565b92506040850135915060608501356001600160401b038082111561149a57600080fd5b818701915087601f8301126114ae57600080fd5b8135818111156114c0576114c0611434565b604051601f8201601f19908116603f011681019083821181831017156114e8576114e8611434565b816040528281528a602084870101111561150157600080fd5b82602086016020830137600060208483010152809550505050505092959194509250565b60008151808452602080850194506020840160005b838110156115565781518752958201959082019060010161153a565b509495945050505050565b60408152825160408201526020830151606082015260408301516080820152606083015160a0820152608083015160c082015260a083015160e0820152600060c0840151610100818185015260e086015191506101208281860152818701519250610160915061014082818701526115dd6101a0870185611525565b9350818801519150603f198087860301848801526115fb8584611525565b9450818901519350808786030161018088015250505061161b8282611525565b92505050610720602083018415159052565b6000806040838503121561164057600080fd5b6116498361135b565b91506116576020840161135b565b90509250929050565b600181811c9082168061167457607f821691505b60208210810361169457634e487b7160e01b600052602260045260246000fd5b50919050565b6020808252602d908201527f4552433732313a2063616c6c6572206973206e6f7420746f6b656e206f776e6560408201526c1c881bdc88185c1c1c9bdd9959609a1b606082015260800190565b602080825260189082015277115490cdcc8c4e881a5b9d985b1a59081d1bdad95b88125160421b604082015260600190565b808201808211156102c857634e487b7160e01b600052601160045260246000fd5b60208082526019908201527822a9219b99189d1030b8383937bb32903a379031b0b63632b960391b604082015260600190565b6000835161177f8184602088016112df565b8351908301906117938183602088016112df565b01949350505050565b634e487b7160e01b600052603260045260246000fd5b60208082526025908201527f4552433732313a207472616e736665722066726f6d20696e636f72726563742060408201526437bbb732b960d91b606082015260800190565b6020808252601c908201527b115490cdcc8c4e881d1bdad95b88185b1c9958591e481b5a5b9d195960221b604082015260600190565b60208082526032908201527f4552433732313a207472616e7366657220746f206e6f6e20455243373231526560408201527131b2b4bb32b91034b6b83632b6b2b73a32b960711b606082015260800190565b6001600160a01b03858116825284166020820152604081018390526080606082018190526000906118b290830184611303565b9695505050505050565b6000602082840312156118ce57600080fd5b8151610720816112ac56fea2646970667358221220145bfc4a912aec715d914700455a7920f62a473a999804c2ce7b464b9425135864736f6c63430008180033",
  "linkReferences": {},
  "deployedLinkReferences": {}
}