{
  "_format": "hh-sol-artifact-1",
  "contractName": "MockERC721",
  "sourceName": "contracts/test/MockERC721.sol",
  "abi": [
    {
      "inputs": [
        {
          "internalType": "string",
          "name": "name",
          "type": "string"
        },
        {
          "internalType": "string",
          "name": "symbol",
          "type": "string"
        }
      ],
      "stateMutability": "nonpayable",
      "type": "constructor"
    },
    {
      "anonymous": false,
      "inputs": [
        {
          "indexed": true,
          "internalType": "address",
          "name": "owner",
          "type": "address"
        },
        {
          "indexed": true,
          "internalType": "address",
          "name": "approved",
          "type": "address"
        },
        {
          "indexed": true,
          "internalType": "uint256",
          "name": "tokenId",
          "type": "uint256"
        }
      ],
      "name": "Approval",
      "type": "event"
    },
    {
      "anonymous": false,
      "inputs": [
        {
          "indexed": true,
          "internalType": "address",
          "name": "owner",
          "type": "address"
        },
        {
          "indexed": true,
          "internalType": "address",
          "name": "operator",
          "type": "address"
        },
        {
          "indexed": false,
          "internalType": "bool",
          "name": "approved",
          "type": "bool"
        }
      ],
      "name": "ApprovalForAll",
      "type": "event"
    },
    {
      "anonymous": false,
      "inputs": [
        {
          "indexed": false,
          "internalType": "string",
          "name": "message",
          "type": "string"
        },
        {
          "indexed": true,
          "internalType": "address",
          "name": "from",
          "type": "address"
        },
        {
          "indexed": false,
          "internalType": "uint256",
          "name": "value",
          "type": "uint256"
        }
      ],
      "name": "DebugLog",
      "type": "event"
    },
    {
      "anonymous": false,
      "inputs": [
        {
          "indexed": true,
          "internalType": "address",
          "name": "previousOwner",
          "type": "address"
        },
        {
          "indexed": true,
          "internalType": "address",
          "name": "newOwner",
          "type": "address"
        }
      ],
      "name": "OwnershipTransferred",
      "type": "event"
    },
    {
      "anonymous": false,
      "inputs": [
        {
          "indexed": true,
          "internalType": "address",
          "name": "from",
          "type": "address"
        },
        {
          "indexed": true,
          "internalType": "address",
          "name": "to",
          "type": "address"
        },
        {
          "indexed": true,
          "internalType": "uint256",
          "name": "tokenId",
          "type": "uint256"
        }
      ],
      "name": "Transfer",
      "type": "event"
    },
    {
      "inputs": [
        {
          "internalType": "address",
          "name": "to",
          "type": "address"
        },
        {
          "internalType": "uint256",
          "name": "tokenId",
          "type": "uint256"
        }
      ],
      "name": "approve",
      "outputs": [],
      "stateMutability": "nonpayable",
      "type": "function"
    },
    {
      "inputs": [
        {
          "internalType": "address",
          "name": "owner",
          "type": "address"
        }
      ],
      "name": "balanceOf",
      "outputs": [
        {
          "internalType": "uint256",
          "name": "",
          "type": "uint256"
        }
      ],
      "stateMutability": "view",
      "type": "function"
    },
    {
      "inputs": [
        {
          "internalType": "uint256",
          "name": "tokenId",
          "type": "uint256"
        }
      ],
      "name": "getApproved",
      "outputs": [
        {
          "internalType": "address",
          "name": "",
          "type": "address"
        }
      ],
      "stateMutability": "view",
      "type": "function"
    },
    {
      "inputs": [],
      "name": "getCurrentTokenId",
      "outputs": [
        {
          "internalType": "uint256",
          "name": "",
          "type": "uint256"
        }
      ],
      "stateMutability": "view",
      "type": "function"
    },
    {
      "inputs": [
        {
          "internalType": "address",
          "name": "owner",
          "type": "address"
        },
        {
          "internalType": "address",
          "name": "operator",
          "type": "address"
        }
      ],
      "name": "isApprovedForAll",
      "outputs": [
        {
          "internalType": "bool",
          "name": "",
          "type": "bool"
        }
      ],
      "stateMutability": "view",
      "type": "function"
    },
    {
      "inputs": [
        {
          "internalType": "address",
          "name": "to",
          "type": "address"
        }
      ],
      "name": "mint",
      "outputs": [],
      "stateMutability": "nonpayable",
      "type": "function"
    },
    {
      "inputs": [],
      "name": "name",
      "outputs": [
        {
          "internalType": "string",
          "name": "",
          "type": "string"
        }
      ],
      "stateMutability": "view",
      "type": "function"
    },
    {
      "inputs": [],
      "name": "owner",
      "outputs": [
        {
          "internalType": "address",
          "name": "",
          "type": "address"
        }
      ],
      "stateMutability": "view",
      "type": "function"
    },
    {
      "inputs": [
        {
          "internalType": "uint256",
          "name": "tokenId",
          "type": "uint256"
        }
      ],
      "name": "ownerOf",
      "outputs": [
        {
          "internalType": "address",
          "name": "",
          "type": "address"
        }
      ],
      "stateMutability": "view",
      "type": "function"
    },
    {
      "inputs": [],
      "name": "renounceOwnership",
      "outputs": [],
      "stateMutability": "nonpayable",
      "type": "function"
    },
    {
      "inputs": [
        {
          "internalType": "address",
          "name": "from",
          "type": "address"
        },
        {
          "internalType": "address",
          "name": "to",
          "type": "address"
        },
        {
          "internalType": "uint256",
          "name": "tokenId",
          "type": "uint256"
        }
      ],
      "name": "safeTransferFrom",
      "outputs": [],
      "stateMutability": "nonpayable",
      "type": "function"
    },
    {
      "inputs": [
        {
          "internalType": "address",
          "name": "from",
          "type": "address"
        },
        {
          "internalType": "address",
          "name": "to",
          "type": "address"
        },
        {
          "internalType": "uint256",
          "name": "tokenId",
          "type": "uint256"
        },
        {
          "internalType": "bytes",
          "name": "data",
          "type": "bytes"
        }
      ],
      "name": "safeTransferFrom",
      "outputs": [],
      "stateMutability": "nonpayable",
      "type": "function"
    },
    {
      "inputs": [
        {
          "internalType": "address",
          "name": "operator",
          "type": "address"
        },
        {
          "internalType": "bool",
          "name": "approved",
          "type": "bool"
        }
      ],
      "name": "setApprovalForAll",
      "outputs": [],
      "stateMutability": "nonpayable",
      "type": "function"
    },
    {
      "inputs": [
        {
          "internalType": "bytes4",
          "name": "interfaceId",
          "type": "bytes4"
        }
      ],
      "name": "supportsInterface",
      "outputs": [
        {
          "internalType": "bool",
          "name": "",
          "type": "bool"
        }
      ],
      "stateMutability": "view",
      "type": "function"
    },
    {
      "inputs": [],
      "name": "symbol",
      "outputs": [
        {
          "internalType": "string",
          "name": "",
          "type": "string"
        }
      ],
      "stateMutability": "view",
      "type": "function"
    },
    {
      "inputs": [
        {
          "internalType": "uint256",
          "name": "tokenId",
          "type": "uint256"
        }
      ],
      "name": "tokenURI",
      "outputs": [
        {
          "internalType": "string",
          "name": "",
          "type": "string"
        }
      ],
      "stateMutability": "view",
      "type": "function"
    },
    {
      "inputs": [
        {
          "internalType": "address",
          "name": "from",
          "type": "address"
        },
        {
          "internalType": "address",
          "name": "to",
          "type": "address"
        },
        {
          "internalType": "uint256",
          "name": "tokenId",
          "type": "uint256"
        }
      ],
      "name": "transferFrom",
      "outputs": [],
      "stateMutability": "nonpayable",
      "type": "function"
    },
    {
      "inputs": [
        {
          "internalType": "address",
          "name": "newOwner",
          "type": "address"
        }
      ],
      "name": "transferOwnership",
      "outputs": [],
      "stateMutability": "nonpayable",
      "type": "function"
    }
  ],
  "bytecode": "0x608060405260006007553480156200001657600080fd5b5060405162001cd138038062001cd1833981016040819052620000399162000287565b8181600062000049838262000382565b50600162000058828262000382565b505050620000756200006f6200008860201b60201c565b6200008c565b6200008033620000de565b50506200044e565b3390565b600680546001600160a01b038381166001600160a01b0319831681179093556040519116919082907f8be0079c531659141344cd1fd0a4f28419497f9722a3daafe3b4186f6b6457e090600090a35050565b620000e862000161565b6001600160a01b038116620001535760405162461bcd60e51b815260206004820152602660248201527f4f776e61626c653a206e6577206f776e657220697320746865207a65726f206160448201526564647265737360d01b60648201526084015b60405180910390fd5b6200015e816200008c565b50565b6006546001600160a01b03163314620001bd5760405162461bcd60e51b815260206004820181905260248201527f4f776e61626c653a2063616c6c6572206973206e6f7420746865206f776e657260448201526064016200014a565b565b634e487b7160e01b600052604160045260246000fd5b600082601f830112620001e757600080fd5b81516001600160401b0380821115620002045762000204620001bf565b604051601f8301601f19908116603f011681019082821181831017156200022f576200022f620001bf565b81604052838152602092508660208588010111156200024d57600080fd5b600091505b8382101562000271578582018301518183018401529082019062000252565b6000602085830101528094505050505092915050565b600080604083850312156200029b57600080fd5b82516001600160401b0380821115620002b357600080fd5b620002c186838701620001d5565b93506020850151915080821115620002d857600080fd5b50620002e785828601620001d5565b9150509250929050565b600181811c908216806200030657607f821691505b6020821081036200032757634e487b7160e01b600052602260045260246000fd5b50919050565b601f8211156200037d576000816000526020600020601f850160051c81016020861015620003585750805b601f850160051c820191505b81811015620003795782815560010162000364565b5050505b505050565b81516001600160401b038111156200039e576200039e620001bf565b620003b681620003af8454620002f1565b846200032d565b602080601f831160018114620003ee5760008415620003d55750858301515b600019600386901b1c1916600185901b17855562000379565b600085815260208120601f198616915b828110156200041f57888601518255948401946001909101908401620003fe565b50858210156200043e5787850151600019600388901b60f8161c191681555b5050505050600190811b01905550565b611873806200045e6000396000f3fe608060405234801561001057600080fd5b50600436106101365760003560e01c806370a08231116100b2578063a22cb46511610081578063c87b56dd11610066578063c87b56dd14610270578063e985e9c514610283578063f2fde38b146102bf57600080fd5b8063a22cb4651461024a578063b88d4fde1461025d57600080fd5b806370a0823114610216578063715018a6146102295780638da5cb5b1461023157806395d89b411461024257600080fd5b806323b872dd1161010957806356189236116100ee57806356189236146101de5780636352211e146101f05780636a6278421461020357600080fd5b806323b872dd146101b857806342842e0e146101cb57600080fd5b806301ffc9a71461013b57806306fdde0314610163578063081812fc14610178578063095ea7b3146101a3575b600080fd5b61014e6101493660046114c3565b6102d2565b60405190151581526020015b60405180910390f35b61016b61036f565b60405161015a9190611530565b61018b610186366004611543565b610401565b6040516001600160a01b03909116815260200161015a565b6101b66101b1366004611578565b610428565b005b6101b66101c63660046115a2565b610586565b6101b66101d93660046115a2565b610602565b6007545b60405190815260200161015a565b61018b6101fe366004611543565b61061d565b6101b66102113660046115de565b610682565b6101e26102243660046115de565b6106ad565b6101b6610747565b6006546001600160a01b031661018b565b61016b61075b565b6101b66102583660046115f9565b61076a565b6101b661026b36600461164b565b610775565b61016b61027e366004611543565b610802565b61014e610291366004611727565b6001600160a01b03918216600090815260056020908152604080832093909416825291909152205460ff1690565b6101b66102cd3660046115de565b610876565b60006001600160e01b031982167f80ac58cd00000000000000000000000000000000000000000000000000000000148061033557506001600160e01b031982167f5b5e139f00000000000000000000000000000000000000000000000000000000145b8061036957507f01ffc9a7000000000000000000000000000000000000000000000000000000006001600160e01b03198316145b92915050565b60606000805461037e9061175a565b80601f01602080910402602001604051908101604052809291908181526020018280546103aa9061175a565b80156103f75780601f106103cc576101008083540402835291602001916103f7565b820191906000526020600020905b8154815290600101906020018083116103da57829003601f168201915b5050505050905090565b600061040c82610906565b506000908152600460205260409020546001600160a01b031690565b6000818152600260205260409020546001600160a01b03166104b75760405162461bcd60e51b815260206004820152602c60248201527f4552433732313a20617070726f76616c20717565727920666f72206e6f6e657860448201527f697374656e7420746f6b656e000000000000000000000000000000000000000060648201526084015b60405180910390fd5b336104c18261061d565b6001600160a01b0316148061050657506105066104dd8261061d565b6001600160a01b0316600090815260056020908152604080832033845290915290205460ff1690565b6105785760405162461bcd60e51b815260206004820152603960248201527f4552433732313a20617070726f76652063616c6c6572206973206e6f74206f7760448201527f6e6572206e6f7220617070726f76656420666f7220616c6c210000000000000060648201526084016104ae565b610582828261096a565b5050565b6105903382610ab4565b6105f25760405162461bcd60e51b815260206004820152602d60248201527f4552433732313a2063616c6c6572206973206e6f7420746f6b656e206f776e6560448201526c1c881bdc88185c1c1c9bdd9959609a1b60648201526084016104ae565b6105fd838383610b33565b505050565b6105fd83838360405180602001604052806000815250610775565b6000818152600260205260408120546001600160a01b0316806103695760405162461bcd60e51b815260206004820152601860248201527f4552433732313a20696e76616c696420746f6b656e204944000000000000000060448201526064016104ae565b61068a610d39565b6000600754600161069b9190611794565b90506106a78282610d93565b60075550565b60006001600160a01b03821661072b5760405162461bcd60e51b815260206004820152602960248201527f4552433732313a2061646472657373207a65726f206973206e6f74206120766160448201527f6c6964206f776e6572000000000000000000000000000000000000000000000060648201526084016104ae565b506001600160a01b031660009081526003602052604090205490565b61074f610d39565b6107596000610f2b565b565b60606001805461037e9061175a565b610582338383610f8a565b826001600160a01b03167fb515f8464a2e9f92f223836cb4d97889b194249a3f5a6bae6b346c6b0ac8fd55836040516107e891906040808252600b908201527f73656e7420746f6b656e3a0000000000000000000000000000000000000000006060820152602081019190915260800190565b60405180910390a26107fc84848484611058565b50505050565b606061080d82610906565b600061082460408051602081019091526000815290565b90506000815111610844576040518060200160405280600081525061086f565b8061084e846110d0565b60405160200161085f9291906117b5565b6040516020818303038152906040525b9392505050565b61087e610d39565b6001600160a01b0381166108fa5760405162461bcd60e51b815260206004820152602660248201527f4f776e61626c653a206e6577206f776e657220697320746865207a65726f206160448201527f646472657373000000000000000000000000000000000000000000000000000060648201526084016104ae565b61090381610f2b565b50565b6000818152600260205260409020546001600160a01b03166109035760405162461bcd60e51b815260206004820152601860248201527f4552433732313a20696e76616c696420746f6b656e204944000000000000000060448201526064016104ae565b60006109758261061d565b9050806001600160a01b0316836001600160a01b0316036109fe5760405162461bcd60e51b815260206004820152602160248201527f4552433732313a20617070726f76616c20746f2063757272656e74206f776e6560448201527f720000000000000000000000000000000000000000000000000000000000000060648201526084016104ae565b336001600160a01b0382161480610a3857506001600160a01b038116600090815260056020908152604080832033845290915290205460ff165b610aaa5760405162461bcd60e51b815260206004820152603d60248201527f4552433732313a20617070726f76652063616c6c6572206973206e6f7420746f60448201527f6b656e206f776e6572206f7220617070726f76656420666f7220616c6c00000060648201526084016104ae565b6105fd8383611170565b600080610ac08361061d565b9050806001600160a01b0316846001600160a01b03161480610b0757506001600160a01b0380821660009081526005602090815260408083209388168352929052205460ff165b80610b2b5750836001600160a01b0316610b2084610401565b6001600160a01b0316145b949350505050565b826001600160a01b0316610b468261061d565b6001600160a01b031614610baa5760405162461bcd60e51b815260206004820152602560248201527f4552433732313a207472616e736665722066726f6d20696e636f72726563742060448201526437bbb732b960d91b60648201526084016104ae565b6001600160a01b038216610c255760405162461bcd60e51b8152602060048201526024808201527f4552433732313a207472616e7366657220746f20746865207a65726f2061646460448201527f726573730000000000000000000000000000000000000000000000000000000060648201526084016104ae565b826001600160a01b0316610c388261061d565b6001600160a01b031614610c9c5760405162461bcd60e51b815260206004820152602560248201527f4552433732313a207472616e736665722066726f6d20696e636f72726563742060448201526437bbb732b960d91b60648201526084016104ae565b6000818152600460209081526040808320805473ffffffffffffffffffffffffffffffffffffffff199081169091556001600160a01b0387811680865260038552838620805460001901905590871680865283862080546001019055868652600290945282852080549092168417909155905184937fddf252ad1be2c89b69c2b068fc378daa952ba7f163c4a11628f55a4df523b3ef91a4505050565b6006546001600160a01b031633146107595760405162461bcd60e51b815260206004820181905260248201527f4f776e61626c653a2063616c6c6572206973206e6f7420746865206f776e657260448201526064016104ae565b6001600160a01b038216610de95760405162461bcd60e51b815260206004820181905260248201527f4552433732313a206d696e7420746f20746865207a65726f206164647265737360448201526064016104ae565b6000818152600260205260409020546001600160a01b031615610e4e5760405162461bcd60e51b815260206004820152601c60248201527f4552433732313a20746f6b656e20616c7265616479206d696e7465640000000060448201526064016104ae565b6000818152600260205260409020546001600160a01b031615610eb35760405162461bcd60e51b815260206004820152601c60248201527f4552433732313a20746f6b656e20616c7265616479206d696e7465640000000060448201526064016104ae565b6001600160a01b0382166000818152600360209081526040808320805460010190558483526002909152808220805473ffffffffffffffffffffffffffffffffffffffff19168417905551839291907fddf252ad1be2c89b69c2b068fc378daa952ba7f163c4a11628f55a4df523b3ef908290a45050565b600680546001600160a01b0383811673ffffffffffffffffffffffffffffffffffffffff19831681179093556040519116919082907f8be0079c531659141344cd1fd0a4f28419497f9722a3daafe3b4186f6b6457e090600090a35050565b816001600160a01b0316836001600160a01b031603610feb5760405162461bcd60e51b815260206004820152601960248201527f4552433732313a20617070726f766520746f2063616c6c65720000000000000060448201526064016104ae565b6001600160a01b03838116600081815260056020908152604080832094871680845294825291829020805460ff191686151590811790915591519182527f17307eab39ab6107e8899845ad3d59bd9653f200f220920489ca2b5937696c31910160405180910390a3505050565b6110623383610ab4565b6110c45760405162461bcd60e51b815260206004820152602d60248201527f4552433732313a2063616c6c6572206973206e6f7420746f6b656e206f776e6560448201526c1c881bdc88185c1c1c9bdd9959609a1b60648201526084016104ae565b6107fc848484846111eb565b606060006110dd83611274565b600101905060008167ffffffffffffffff8111156110fd576110fd611635565b6040519080825280601f01601f191660200182016040528015611127576020820181803683370190505b5090508181016020015b600019017f3031323334353637383961626364656600000000000000000000000000000000600a86061a8153600a850494508461113157509392505050565b6000818152600460205260409020805473ffffffffffffffffffffffffffffffffffffffff19166001600160a01b03841690811790915581906111b28261061d565b6001600160a01b03167f8c5be1e5ebec7d5bd14f71427d1e84f3dd0314c0f7b2291e5b200ac8c7c3b92560405160405180910390a45050565b6111f6848484610b33565b61120284848484611356565b6107fc5760405162461bcd60e51b815260206004820152603260248201527f4552433732313a207472616e7366657220746f206e6f6e20455243373231526560448201527f63656976657220696d706c656d656e746572000000000000000000000000000060648201526084016104ae565b6000807a184f03e93ff9f4daa797ed6e38ed64bf6a1f01000000000000000083106112bd577a184f03e93ff9f4daa797ed6e38ed64bf6a1f010000000000000000830492506040015b6d04ee2d6d415b85acef810000000083106112e9576d04ee2d6d415b85acef8100000000830492506020015b662386f26fc10000831061130757662386f26fc10000830492506010015b6305f5e100831061131f576305f5e100830492506008015b612710831061133357612710830492506004015b60648310611345576064830492506002015b600a83106103695760010192915050565b60006001600160a01b0384163b156114a257604051630a85bd0160e11b81526001600160a01b0385169063150b7a029061139a9033908990889088906004016117e4565b6020604051808303816000875af19250505080156113d5575060408051601f3d908101601f191682019092526113d291810190611820565b60015b611488573d808015611403576040519150601f19603f3d011682016040523d82523d6000602084013e611408565b606091505b5080516000036114805760405162461bcd60e51b815260206004820152603260248201527f4552433732313a207472616e7366657220746f206e6f6e20455243373231526560448201527f63656976657220696d706c656d656e746572000000000000000000000000000060648201526084016104ae565b805181602001fd5b6001600160e01b031916630a85bd0160e11b149050610b2b565b506001949350505050565b6001600160e01b03198116811461090357600080fd5b6000602082840312156114d557600080fd5b813561086f816114ad565b60005b838110156114fb5781810151838201526020016114e3565b50506000910152565b6000815180845261151c8160208601602086016114e0565b601f01601f19169290920160200192915050565b60208152600061086f6020830184611504565b60006020828403121561155557600080fd5b5035919050565b80356001600160a01b038116811461157357600080fd5b919050565b6000806040838503121561158b57600080fd5b6115948361155c565b946020939093013593505050565b6000806000606084860312156115b757600080fd5b6115c08461155c565b92506115ce6020850161155c565b9150604084013590509250925092565b6000602082840312156115f057600080fd5b61086f8261155c565b6000806040838503121561160c57600080fd5b6116158361155c565b91506020830135801515811461162a57600080fd5b809150509250929050565b634e487b7160e01b600052604160045260246000fd5b6000806000806080858703121561166157600080fd5b61166a8561155c565b93506116786020860161155c565b925060408501359150606085013567ffffffffffffffff8082111561169c57600080fd5b818701915087601f8301126116b057600080fd5b8135818111156116c2576116c2611635565b604051601f8201601f19908116603f011681019083821181831017156116ea576116ea611635565b816040528281528a602084870101111561170357600080fd5b82602086016020830137600060208483010152809550505050505092959194509250565b6000806040838503121561173a57600080fd5b6117438361155c565b91506117516020840161155c565b90509250929050565b600181811c9082168061176e57607f821691505b60208210810361178e57634e487b7160e01b600052602260045260246000fd5b50919050565b8082018082111561036957634e487b7160e01b600052601160045260246000fd5b600083516117c78184602088016114e0565b8351908301906117db8183602088016114e0565b01949350505050565b60006001600160a01b038087168352808616602084015250836040830152608060608301526118166080830184611504565b9695505050505050565b60006020828403121561183257600080fd5b815161086f816114ad56fea2646970667358221220d688b79a1cd059e4edd5f7e1f0320aa74d5bfa0a4db65d5d54fb0d72270a37d364736f6c63430008180033",
  "linkReferences": {},
  "deployedLinkReferences": {}
}