{
  "_format": "hh-sol-artifact-1",
  "contractName": "MockERC721",
  "sourceName": "contracts/test/MockERC721.sol",
  "abi": [
    {
      "inputs": [
        {
          "internalType": "string",
          "name": "name",
          "type": "string"
        },
        {
          "internalType": "string",
          "name": "symbol",
          "type": "string"
        }
      ],
      "stateMutability": "nonpayable",
      "type": "constructor"
    },
    {
      "anonymous": false,
      "inputs": [
        {
          "indexed": true,
          "internalType": "address",
          "name": "owner",
          "type": "address"
        },
        {
          "indexed": true,
          "internalType": "address",
          "name": "approved",
          "type": "address"
        },
        {
          "indexed": true,
          "internalType": "uint256",
          "name": "tokenId",
          "type": "uint256"
        }
      ],
      "name": "Approval",
      "type": "event"
    },
    {
      "anonymous": false,
      "inputs": [
        {
          "indexed": true,
          "internalType": "address",
          "name": "owner",
          "type": "address"
        },
        {
          "indexed": true,
          "internalType": "address",
          "name": "operator",
          "type": "address"
        },
        {
          "indexed": false,
          "internalType": "bool",
          "name": "approved",
          "type": "bool"
        }
      ],
      "name": "ApprovalForAll",
      "type": "event"
    },
    {
      "anonymous": false,
      "inputs": [
        {
          "indexed": true,
          "internalType": "address",
          "name": "previousOwner",
          "type": "address"
        },
        {
          "indexed": true,
          "internalType": "address",
          "name": "newOwner",
          "type": "address"
        }
      ],
      "name": "OwnershipTransferred",
      "type": "event"
    },
    {
      "anonymous": false,
      "inputs": [
        {
          "indexed": true,
          "internalType": "address",
          "name": "from",
          "type": "address"
        },
        {
          "indexed": true,
          "internalType": "address",
          "name": "to",
          "type": "address"
        },
        {
          "indexed": true,
          "internalType": "uint256",
          "name": "tokenId",
          "type": "uint256"
        }
      ],
      "name": "Transfer",
      "type": "event"
    },
    {
      "inputs": [
        {
          "internalType": "address",
          "name": "to",
          "type": "address"
        },
        {
          "internalType": "uint256",
          "name": "tokenId",
          "type": "uint256"
        }
      ],
      "name": "approve",
      "outputs": [],
      "stateMutability": "nonpayable",
      "type": "function"
    },
    {
      "inputs": [
        {
          "internalType": "address",
          "name": "owner",
          "type": "address"
        }
      ],
      "name": "balanceOf",
      "outputs": [
        {
          "internalType": "uint256",
          "name": "",
          "type": "uint256"
        }
      ],
      "stateMutability": "view",
      "type": "function"
    },
    {
      "inputs": [
        {
          "internalType": "uint256",
          "name": "tokenId",
          "type": "uint256"
        }
      ],
      "name": "getApproved",
      "outputs": [
        {
          "internalType": "address",
          "name": "",
          "type": "address"
        }
      ],
      "stateMutability": "view",
      "type": "function"
    },
    {
      "inputs": [],
      "name": "getCurrentTokenId",
      "outputs": [
        {
          "internalType": "uint256",
          "name": "",
          "type": "uint256"
        }
      ],
      "stateMutability": "view",
      "type": "function"
    },
    {
      "inputs": [
        {
          "internalType": "address",
          "name": "owner",
          "type": "address"
        },
        {
          "internalType": "address",
          "name": "operator",
          "type": "address"
        }
      ],
      "name": "isApprovedForAll",
      "outputs": [
        {
          "internalType": "bool",
          "name": "",
          "type": "bool"
        }
      ],
      "stateMutability": "view",
      "type": "function"
    },
    {
      "inputs": [
        {
          "internalType": "address",
          "name": "to",
          "type": "address"
        }
      ],
      "name": "mint",
      "outputs": [],
      "stateMutability": "nonpayable",
      "type": "function"
    },
    {
      "inputs": [],
      "name": "name",
      "outputs": [
        {
          "internalType": "string",
          "name": "",
          "type": "string"
        }
      ],
      "stateMutability": "view",
      "type": "function"
    },
    {
      "inputs": [],
      "name": "owner",
      "outputs": [
        {
          "internalType": "address",
          "name": "",
          "type": "address"
        }
      ],
      "stateMutability": "view",
      "type": "function"
    },
    {
      "inputs": [
        {
          "internalType": "uint256",
          "name": "tokenId",
          "type": "uint256"
        }
      ],
      "name": "ownerOf",
      "outputs": [
        {
          "internalType": "address",
          "name": "",
          "type": "address"
        }
      ],
      "stateMutability": "view",
      "type": "function"
    },
    {
      "inputs": [],
      "name": "renounceOwnership",
      "outputs": [],
      "stateMutability": "nonpayable",
      "type": "function"
    },
    {
      "inputs": [
        {
          "internalType": "address",
          "name": "from",
          "type": "address"
        },
        {
          "internalType": "address",
          "name": "to",
          "type": "address"
        },
        {
          "internalType": "uint256",
          "name": "tokenId",
          "type": "uint256"
        }
      ],
      "name": "safeTransferFrom",
      "outputs": [],
      "stateMutability": "nonpayable",
      "type": "function"
    },
    {
      "inputs": [
        {
          "internalType": "address",
          "name": "from",
          "type": "address"
        },
        {
          "internalType": "address",
          "name": "to",
          "type": "address"
        },
        {
          "internalType": "uint256",
          "name": "tokenId",
          "type": "uint256"
        },
        {
          "internalType": "bytes",
          "name": "data",
          "type": "bytes"
        }
      ],
      "name": "safeTransferFrom",
      "outputs": [],
      "stateMutability": "nonpayable",
      "type": "function"
    },
    {
      "inputs": [
        {
          "internalType": "address",
          "name": "operator",
          "type": "address"
        },
        {
          "internalType": "bool",
          "name": "approved",
          "type": "bool"
        }
      ],
      "name": "setApprovalForAll",
      "outputs": [],
      "stateMutability": "nonpayable",
      "type": "function"
    },
    {
      "inputs": [
        {
          "internalType": "bytes4",
          "name": "interfaceId",
          "type": "bytes4"
        }
      ],
      "name": "supportsInterface",
      "outputs": [
        {
          "internalType": "bool",
          "name": "",
          "type": "bool"
        }
      ],
      "stateMutability": "view",
      "type": "function"
    },
    {
      "inputs": [],
      "name": "symbol",
      "outputs": [
        {
          "internalType": "string",
          "name": "",
          "type": "string"
        }
      ],
      "stateMutability": "view",
      "type": "function"
    },
    {
      "inputs": [
        {
          "internalType": "uint256",
          "name": "tokenId",
          "type": "uint256"
        }
      ],
      "name": "tokenURI",
      "outputs": [
        {
          "internalType": "string",
          "name": "",
          "type": "string"
        }
      ],
      "stateMutability": "view",
      "type": "function"
    },
    {
      "inputs": [
        {
          "internalType": "address",
          "name": "from",
          "type": "address"
        },
        {
          "internalType": "address",
          "name": "to",
          "type": "address"
        },
        {
          "internalType": "uint256",
          "name": "tokenId",
          "type": "uint256"
        }
      ],
      "name": "transferFrom",
      "outputs": [],
      "stateMutability": "nonpayable",
      "type": "function"
    },
    {
      "inputs": [
        {
          "internalType": "address",
          "name": "newOwner",
          "type": "address"
        }
      ],
      "name": "transferOwnership",
      "outputs": [],
      "stateMutability": "nonpayable",
      "type": "function"
    }
  ],
  "bytecode": "0x608060405260006007553480156200001657600080fd5b5060405162001a0938038062001a0983398101604081905262000039916200019b565b8181600062000049838262000296565b50600162000058828262000296565b505050620000756200006f6200007d60201b60201c565b62000081565b505062000362565b3390565b600680546001600160a01b038381166001600160a01b0319831681179093556040519116919082907f8be0079c531659141344cd1fd0a4f28419497f9722a3daafe3b4186f6b6457e090600090a35050565b634e487b7160e01b600052604160045260246000fd5b600082601f830112620000fb57600080fd5b81516001600160401b0380821115620001185762000118620000d3565b604051601f8301601f19908116603f01168101908282118183101715620001435762000143620000d3565b81604052838152602092508660208588010111156200016157600080fd5b600091505b8382101562000185578582018301518183018401529082019062000166565b6000602085830101528094505050505092915050565b60008060408385031215620001af57600080fd5b82516001600160401b0380821115620001c757600080fd5b620001d586838701620000e9565b93506020850151915080821115620001ec57600080fd5b50620001fb85828601620000e9565b9150509250929050565b600181811c908216806200021a57607f821691505b6020821081036200023b57634e487b7160e01b600052602260045260246000fd5b50919050565b601f82111562000291576000816000526020600020601f850160051c810160208610156200026c5750805b601f850160051c820191505b818110156200028d5782815560010162000278565b5050505b505050565b81516001600160401b03811115620002b257620002b2620000d3565b620002ca81620002c3845462000205565b8462000241565b602080601f831160018114620003025760008415620002e95750858301515b600019600386901b1c1916600185901b1785556200028d565b600085815260208120601f198616915b82811015620003335788860151825594840194600190910190840162000312565b5085821015620003525787850151600019600388901b60f8161c191681555b5050505050600190811b01905550565b61169780620003726000396000f3fe608060405234801561001057600080fd5b50600436106101365760003560e01c806370a08231116100b2578063a22cb46511610081578063c87b56dd11610066578063c87b56dd14610270578063e985e9c514610283578063f2fde38b146102bf57600080fd5b8063a22cb4651461024a578063b88d4fde1461025d57600080fd5b806370a0823114610216578063715018a6146102295780638da5cb5b1461023157806395d89b411461024257600080fd5b806323b872dd1161010957806356189236116100ee57806356189236146101de5780636352211e146101f05780636a6278421461020357600080fd5b806323b872dd146101b857806342842e0e146101cb57600080fd5b806301ffc9a71461013b57806306fdde0314610163578063081812fc14610178578063095ea7b3146101a3575b600080fd5b61014e6101493660046112e7565b6102d2565b60405190151581526020015b60405180910390f35b61016b61036f565b60405161015a9190611354565b61018b610186366004611367565b610401565b6040516001600160a01b03909116815260200161015a565b6101b66101b136600461139c565b610428565b005b6101b66101c63660046113c6565b61057c565b6101b66101d93660046113c6565b6105f3565b6007545b60405190815260200161015a565b61018b6101fe366004611367565b61060e565b6101b6610211366004611402565b610673565b6101e2610224366004611402565b61069e565b6101b6610738565b6006546001600160a01b031661018b565b61016b61074c565b6101b661025836600461141d565b61075b565b6101b661026b36600461146f565b61076a565b61016b61027e366004611367565b6107e8565b61014e61029136600461154b565b6001600160a01b03918216600090815260056020908152604080832093909416825291909152205460ff1690565b6101b66102cd366004611402565b61085c565b60006001600160e01b031982167f80ac58cd00000000000000000000000000000000000000000000000000000000148061033557506001600160e01b031982167f5b5e139f00000000000000000000000000000000000000000000000000000000145b8061036957507f01ffc9a7000000000000000000000000000000000000000000000000000000006001600160e01b03198316145b92915050565b60606000805461037e9061157e565b80601f01602080910402602001604051908101604052809291908181526020018280546103aa9061157e565b80156103f75780601f106103cc576101008083540402835291602001916103f7565b820191906000526020600020905b8154815290600101906020018083116103da57829003601f168201915b5050505050905090565b600061040c826108ec565b506000908152600460205260409020546001600160a01b031690565b60006104338261060e565b9050806001600160a01b0316836001600160a01b0316036104c15760405162461bcd60e51b815260206004820152602160248201527f4552433732313a20617070726f76616c20746f2063757272656e74206f776e6560448201527f720000000000000000000000000000000000000000000000000000000000000060648201526084015b60405180910390fd5b336001600160a01b03821614806104fb57506001600160a01b038116600090815260056020908152604080832033845290915290205460ff165b61056d5760405162461bcd60e51b815260206004820152603d60248201527f4552433732313a20617070726f76652063616c6c6572206973206e6f7420746f60448201527f6b656e206f776e6572206f7220617070726f76656420666f7220616c6c00000060648201526084016104b8565b6105778383610950565b505050565b61058633826109cb565b6105e85760405162461bcd60e51b815260206004820152602d60248201527f4552433732313a2063616c6c6572206973206e6f7420746f6b656e206f776e6560448201526c1c881bdc88185c1c1c9bdd9959609a1b60648201526084016104b8565b610577838383610a4a565b6105778383836040518060200160405280600081525061076a565b6000818152600260205260408120546001600160a01b0316806103695760405162461bcd60e51b815260206004820152601860248201527f4552433732313a20696e76616c696420746f6b656e204944000000000000000060448201526064016104b8565b61067b610c50565b6000600754600161068c91906115b8565b90506106988282610caa565b60075550565b60006001600160a01b03821661071c5760405162461bcd60e51b815260206004820152602960248201527f4552433732313a2061646472657373207a65726f206973206e6f74206120766160448201527f6c6964206f776e6572000000000000000000000000000000000000000000000060648201526084016104b8565b506001600160a01b031660009081526003602052604090205490565b610740610c50565b61074a6000610e42565b565b60606001805461037e9061157e565b610766338383610ea1565b5050565b61077433836109cb565b6107d65760405162461bcd60e51b815260206004820152602d60248201527f4552433732313a2063616c6c6572206973206e6f7420746f6b656e206f776e6560448201526c1c881bdc88185c1c1c9bdd9959609a1b60648201526084016104b8565b6107e284848484610f6f565b50505050565b60606107f3826108ec565b600061080a60408051602081019091526000815290565b9050600081511161082a5760405180602001604052806000815250610855565b8061083484610ff8565b6040516020016108459291906115d9565b6040516020818303038152906040525b9392505050565b610864610c50565b6001600160a01b0381166108e05760405162461bcd60e51b815260206004820152602660248201527f4f776e61626c653a206e6577206f776e657220697320746865207a65726f206160448201527f646472657373000000000000000000000000000000000000000000000000000060648201526084016104b8565b6108e981610e42565b50565b6000818152600260205260409020546001600160a01b03166108e95760405162461bcd60e51b815260206004820152601860248201527f4552433732313a20696e76616c696420746f6b656e204944000000000000000060448201526064016104b8565b6000818152600460205260409020805473ffffffffffffffffffffffffffffffffffffffff19166001600160a01b03841690811790915581906109928261060e565b6001600160a01b03167f8c5be1e5ebec7d5bd14f71427d1e84f3dd0314c0f7b2291e5b200ac8c7c3b92560405160405180910390a45050565b6000806109d78361060e565b9050806001600160a01b0316846001600160a01b03161480610a1e57506001600160a01b0380821660009081526005602090815260408083209388168352929052205460ff165b80610a425750836001600160a01b0316610a3784610401565b6001600160a01b0316145b949350505050565b826001600160a01b0316610a5d8261060e565b6001600160a01b031614610ac15760405162461bcd60e51b815260206004820152602560248201527f4552433732313a207472616e736665722066726f6d20696e636f72726563742060448201526437bbb732b960d91b60648201526084016104b8565b6001600160a01b038216610b3c5760405162461bcd60e51b8152602060048201526024808201527f4552433732313a207472616e7366657220746f20746865207a65726f2061646460448201527f726573730000000000000000000000000000000000000000000000000000000060648201526084016104b8565b826001600160a01b0316610b4f8261060e565b6001600160a01b031614610bb35760405162461bcd60e51b815260206004820152602560248201527f4552433732313a207472616e736665722066726f6d20696e636f72726563742060448201526437bbb732b960d91b60648201526084016104b8565b6000818152600460209081526040808320805473ffffffffffffffffffffffffffffffffffffffff199081169091556001600160a01b0387811680865260038552838620805460001901905590871680865283862080546001019055868652600290945282852080549092168417909155905184937fddf252ad1be2c89b69c2b068fc378daa952ba7f163c4a11628f55a4df523b3ef91a4505050565b6006546001600160a01b0316331461074a5760405162461bcd60e51b815260206004820181905260248201527f4f776e61626c653a2063616c6c6572206973206e6f7420746865206f776e657260448201526064016104b8565b6001600160a01b038216610d005760405162461bcd60e51b815260206004820181905260248201527f4552433732313a206d696e7420746f20746865207a65726f206164647265737360448201526064016104b8565b6000818152600260205260409020546001600160a01b031615610d655760405162461bcd60e51b815260206004820152601c60248201527f4552433732313a20746f6b656e20616c7265616479206d696e7465640000000060448201526064016104b8565b6000818152600260205260409020546001600160a01b031615610dca5760405162461bcd60e51b815260206004820152601c60248201527f4552433732313a20746f6b656e20616c7265616479206d696e7465640000000060448201526064016104b8565b6001600160a01b0382166000818152600360209081526040808320805460010190558483526002909152808220805473ffffffffffffffffffffffffffffffffffffffff19168417905551839291907fddf252ad1be2c89b69c2b068fc378daa952ba7f163c4a11628f55a4df523b3ef908290a45050565b600680546001600160a01b0383811673ffffffffffffffffffffffffffffffffffffffff19831681179093556040519116919082907f8be0079c531659141344cd1fd0a4f28419497f9722a3daafe3b4186f6b6457e090600090a35050565b816001600160a01b0316836001600160a01b031603610f025760405162461bcd60e51b815260206004820152601960248201527f4552433732313a20617070726f766520746f2063616c6c65720000000000000060448201526064016104b8565b6001600160a01b03838116600081815260056020908152604080832094871680845294825291829020805460ff191686151590811790915591519182527f17307eab39ab6107e8899845ad3d59bd9653f200f220920489ca2b5937696c31910160405180910390a3505050565b610f7a848484610a4a565b610f8684848484611098565b6107e25760405162461bcd60e51b815260206004820152603260248201527f4552433732313a207472616e7366657220746f206e6f6e20455243373231526560448201527f63656976657220696d706c656d656e746572000000000000000000000000000060648201526084016104b8565b60606000611005836111ef565b600101905060008167ffffffffffffffff81111561102557611025611459565b6040519080825280601f01601f19166020018201604052801561104f576020820181803683370190505b5090508181016020015b600019017f3031323334353637383961626364656600000000000000000000000000000000600a86061a8153600a850494508461105957509392505050565b60006001600160a01b0384163b156111e457604051630a85bd0160e11b81526001600160a01b0385169063150b7a02906110dc903390899088908890600401611608565b6020604051808303816000875af1925050508015611117575060408051601f3d908101601f1916820190925261111491810190611644565b60015b6111ca573d808015611145576040519150601f19603f3d011682016040523d82523d6000602084013e61114a565b606091505b5080516000036111c25760405162461bcd60e51b815260206004820152603260248201527f4552433732313a207472616e7366657220746f206e6f6e20455243373231526560448201527f63656976657220696d706c656d656e746572000000000000000000000000000060648201526084016104b8565b805181602001fd5b6001600160e01b031916630a85bd0160e11b149050610a42565b506001949350505050565b6000807a184f03e93ff9f4daa797ed6e38ed64bf6a1f0100000000000000008310611238577a184f03e93ff9f4daa797ed6e38ed64bf6a1f010000000000000000830492506040015b6d04ee2d6d415b85acef81000000008310611264576d04ee2d6d415b85acef8100000000830492506020015b662386f26fc10000831061128257662386f26fc10000830492506010015b6305f5e100831061129a576305f5e100830492506008015b61271083106112ae57612710830492506004015b606483106112c0576064830492506002015b600a83106103695760010192915050565b6001600160e01b0319811681146108e957600080fd5b6000602082840312156112f957600080fd5b8135610855816112d1565b60005b8381101561131f578181015183820152602001611307565b50506000910152565b60008151808452611340816020860160208601611304565b601f01601f19169290920160200192915050565b6020815260006108556020830184611328565b60006020828403121561137957600080fd5b5035919050565b80356001600160a01b038116811461139757600080fd5b919050565b600080604083850312156113af57600080fd5b6113b883611380565b946020939093013593505050565b6000806000606084860312156113db57600080fd5b6113e484611380565b92506113f260208501611380565b9150604084013590509250925092565b60006020828403121561141457600080fd5b61085582611380565b6000806040838503121561143057600080fd5b61143983611380565b91506020830135801515811461144e57600080fd5b809150509250929050565b634e487b7160e01b600052604160045260246000fd5b6000806000806080858703121561148557600080fd5b61148e85611380565b935061149c60208601611380565b925060408501359150606085013567ffffffffffffffff808211156114c057600080fd5b818701915087601f8301126114d457600080fd5b8135818111156114e6576114e6611459565b604051601f8201601f19908116603f0116810190838211818310171561150e5761150e611459565b816040528281528a602084870101111561152757600080fd5b82602086016020830137600060208483010152809550505050505092959194509250565b6000806040838503121561155e57600080fd5b61156783611380565b915061157560208401611380565b90509250929050565b600181811c9082168061159257607f821691505b6020821081036115b257634e487b7160e01b600052602260045260246000fd5b50919050565b8082018082111561036957634e487b7160e01b600052601160045260246000fd5b600083516115eb818460208801611304565b8351908301906115ff818360208801611304565b01949350505050565b60006001600160a01b0380871683528086166020840152508360408301526080606083015261163a6080830184611328565b9695505050505050565b60006020828403121561165657600080fd5b8151610855816112d156fea26469706673582212204e75bf35f4813316b0be24dc442547bbeea260cf945ead69020f4692b497d2c864736f6c63430008180033",
  "linkReferences": {},
  "deployedLinkReferences": {}
}