{
  "_format": "hh-sol-artifact-1",
  "contractName": "InternalTests",
  "sourceName": "contracts/test/InternalTests.sol",
  "abi": [
    {
      "inputs": [],
      "stateMutability": "nonpayable",
      "type": "constructor"
    },
    {
      "inputs": [],
      "name": "Unauthorized",
      "type": "error"
    },
    {
      "anonymous": false,
      "inputs": [
        {
          "indexed": false,
          "internalType": "address",
          "name": "previousAdmin",
          "type": "address"
        },
        {
          "indexed": false,
          "internalType": "address",
          "name": "newAdmin",
          "type": "address"
        }
      ],
      "name": "AdminChanged",
      "type": "event"
    },
    {
      "anonymous": false,
      "inputs": [
        {
          "indexed": true,
          "internalType": "address",
          "name": "owner",
          "type": "address"
        },
        {
          "indexed": true,
          "internalType": "address",
          "name": "spender",
          "type": "address"
        },
        {
          "indexed": false,
          "internalType": "uint256",
          "name": "value",
          "type": "uint256"
        }
      ],
      "name": "Approval",
      "type": "event"
    },
    {
      "anonymous": false,
      "inputs": [
        {
          "indexed": true,
          "internalType": "address",
          "name": "beacon",
          "type": "address"
        }
      ],
      "name": "BeaconUpgraded",
      "type": "event"
    },
    {
      "anonymous": false,
      "inputs": [
        {
          "indexed": false,
          "internalType": "address",
          "name": "sentToUser",
          "type": "address"
        },
        {
          "indexed": false,
          "internalType": "address",
          "name": "token",
          "type": "address"
        },
        {
          "indexed": false,
          "internalType": "uint256",
          "name": "tokenId",
          "type": "uint256"
        }
      ],
      "name": "DeClaimedAPlanet",
      "type": "event"
    },
    {
      "anonymous": false,
      "inputs": [
        {
          "indexed": false,
          "internalType": "address",
          "name": "sentToUser",
          "type": "address"
        },
        {
          "indexed": false,
          "internalType": "address",
          "name": "token",
          "type": "address"
        },
        {
          "indexed": false,
          "internalType": "uint256",
          "name": "tokenId",
          "type": "uint256"
        }
      ],
      "name": "DeListedAPlanet",
      "type": "event"
    },
    {
      "anonymous": false,
      "inputs": [],
      "name": "EIP712DomainChanged",
      "type": "event"
    },
    {
      "anonymous": false,
      "inputs": [
        {
          "indexed": true,
          "internalType": "contract IERC20Upgradeable",
          "name": "token",
          "type": "address"
        },
        {
          "indexed": false,
          "internalType": "address",
          "name": "to",
          "type": "address"
        },
        {
          "indexed": false,
          "internalType": "uint256",
          "name": "amount",
          "type": "uint256"
        }
      ],
      "name": "ERC20PaymentReleased",
      "type": "event"
    },
    {
      "anonymous": false,
      "inputs": [
        {
          "indexed": false,
          "internalType": "uint8",
          "name": "version",
          "type": "uint8"
        }
      ],
      "name": "Initialized",
      "type": "event"
    },
    {
      "anonymous": false,
      "inputs": [
        {
          "indexed": false,
          "internalType": "address",
          "name": "sentFromUser",
          "type": "address"
        },
        {
          "indexed": false,
          "internalType": "address",
          "name": "token",
          "type": "address"
        },
        {
          "indexed": false,
          "internalType": "uint256",
          "name": "tokenId",
          "type": "uint256"
        },
        {
          "indexed": false,
          "internalType": "uint256",
          "name": "price",
          "type": "uint256"
        }
      ],
      "name": "ListedAPlanet",
      "type": "event"
    },
    {
      "anonymous": false,
      "inputs": [
        {
          "indexed": false,
          "internalType": "address",
          "name": "operator",
          "type": "address"
        },
        {
          "indexed": false,
          "internalType": "address",
          "name": "from",
          "type": "address"
        },
        {
          "indexed": false,
          "internalType": "uint256",
          "name": "tokenId",
          "type": "uint256"
        },
        {
          "indexed": false,
          "internalType": "bytes",
          "name": "data",
          "type": "bytes"
        },
        {
          "indexed": false,
          "internalType": "string",
          "name": "typeOfReceival",
          "type": "string"
        }
      ],
      "name": "NftReceived",
      "type": "event"
    },
    {
      "anonymous": false,
      "inputs": [
        {
          "indexed": true,
          "internalType": "address",
          "name": "previousOwner",
          "type": "address"
        },
        {
          "indexed": true,
          "internalType": "address",
          "name": "newOwner",
          "type": "address"
        }
      ],
      "name": "OwnershipTransferred",
      "type": "event"
    },
    {
      "anonymous": false,
      "inputs": [
        {
          "indexed": false,
          "internalType": "address",
          "name": "account",
          "type": "address"
        }
      ],
      "name": "Paused",
      "type": "event"
    },
    {
      "anonymous": false,
      "inputs": [
        {
          "indexed": false,
          "internalType": "address",
          "name": "account",
          "type": "address"
        },
        {
          "indexed": false,
          "internalType": "uint256",
          "name": "shares",
          "type": "uint256"
        }
      ],
      "name": "PayeeAdded",
      "type": "event"
    },
    {
      "anonymous": false,
      "inputs": [
        {
          "indexed": false,
          "internalType": "address",
          "name": "from",
          "type": "address"
        },
        {
          "indexed": false,
          "internalType": "uint256",
          "name": "amount",
          "type": "uint256"
        }
      ],
      "name": "PaymentReceived",
      "type": "event"
    },
    {
      "anonymous": false,
      "inputs": [
        {
          "indexed": false,
          "internalType": "address",
          "name": "to",
          "type": "address"
        },
        {
          "indexed": false,
          "internalType": "uint256",
          "name": "amount",
          "type": "uint256"
        }
      ],
      "name": "PaymentReleased",
      "type": "event"
    },
    {
      "anonymous": false,
      "inputs": [
        {
          "indexed": false,
          "internalType": "uint256",
          "name": "planetAsking",
          "type": "uint256"
        },
        {
          "indexed": false,
          "internalType": "address",
          "name": "askingUser",
          "type": "address"
        },
        {
          "indexed": false,
          "internalType": "uint256",
          "name": "planetJoining",
          "type": "uint256"
        },
        {
          "indexed": false,
          "internalType": "address",
          "name": "joiningUser",
          "type": "address"
        }
      ],
      "name": "PlanetsConjoining",
      "type": "event"
    },
    {
      "anonymous": false,
      "inputs": [
        {
          "indexed": true,
          "internalType": "address",
          "name": "from",
          "type": "address"
        },
        {
          "indexed": true,
          "internalType": "address",
          "name": "to",
          "type": "address"
        },
        {
          "indexed": false,
          "internalType": "uint256",
          "name": "value",
          "type": "uint256"
        }
      ],
      "name": "Transfer",
      "type": "event"
    },
    {
      "anonymous": false,
      "inputs": [
        {
          "indexed": false,
          "internalType": "address",
          "name": "account",
          "type": "address"
        }
      ],
      "name": "Unpaused",
      "type": "event"
    },
    {
      "anonymous": false,
      "inputs": [
        {
          "indexed": true,
          "internalType": "address",
          "name": "implementation",
          "type": "address"
        }
      ],
      "name": "Upgraded",
      "type": "event"
    },
    {
      "inputs": [],
      "name": "DOMAIN_SEPARATOR",
      "outputs": [
        {
          "internalType": "bytes32",
          "name": "",
          "type": "bytes32"
        }
      ],
      "stateMutability": "view",
      "type": "function"
    },
    {
      "inputs": [],
      "name": "_getBreedContract",
      "outputs": [
        {
          "internalType": "address",
          "name": "",
          "type": "address"
        }
      ],
      "stateMutability": "view",
      "type": "function"
    },
    {
      "inputs": [],
      "name": "_getNFTContract",
      "outputs": [
        {
          "internalType": "address",
          "name": "",
          "type": "address"
        }
      ],
      "stateMutability": "view",
      "type": "function"
    },
    {
      "inputs": [],
      "name": "_getVRFValue",
      "outputs": [
        {
          "internalType": "uint256",
          "name": "",
          "type": "uint256"
        }
      ],
      "stateMutability": "view",
      "type": "function"
    },
    {
      "inputs": [
        {
          "internalType": "address",
          "name": "owner",
          "type": "address"
        },
        {
          "internalType": "address",
          "name": "spender",
          "type": "address"
        }
      ],
      "name": "allowance",
      "outputs": [
        {
          "internalType": "uint256",
          "name": "",
          "type": "uint256"
        }
      ],
      "stateMutability": "view",
      "type": "function"
    },
    {
      "inputs": [
        {
          "internalType": "address",
          "name": "spender",
          "type": "address"
        },
        {
          "internalType": "uint256",
          "name": "amount",
          "type": "uint256"
        }
      ],
      "name": "approve",
      "outputs": [
        {
          "internalType": "bool",
          "name": "",
          "type": "bool"
        }
      ],
      "stateMutability": "nonpayable",
      "type": "function"
    },
    {
      "inputs": [
        {
          "internalType": "address",
          "name": "account",
          "type": "address"
        }
      ],
      "name": "balanceOf",
      "outputs": [
        {
          "internalType": "uint256",
          "name": "",
          "type": "uint256"
        }
      ],
      "stateMutability": "view",
      "type": "function"
    },
    {
      "inputs": [
        {
          "internalType": "uint256",
          "name": "newVRF",
          "type": "uint256"
        }
      ],
      "name": "changeVRFValue",
      "outputs": [],
      "stateMutability": "nonpayable",
      "type": "function"
    },
    {
      "inputs": [
        {
          "internalType": "address",
          "name": "owner",
          "type": "address"
        },
        {
          "internalType": "address",
          "name": "operator",
          "type": "address"
        }
      ],
      "name": "checkApprovalForAll",
      "outputs": [
        {
          "internalType": "bool",
          "name": "",
          "type": "bool"
        }
      ],
      "stateMutability": "view",
      "type": "function"
    },
    {
      "inputs": [
        {
          "internalType": "uint256",
          "name": "claimableTokenId",
          "type": "uint256"
        }
      ],
      "name": "claimPlanet",
      "outputs": [],
      "stateMutability": "nonpayable",
      "type": "function"
    },
    {
      "inputs": [
        {
          "internalType": "address",
          "name": "",
          "type": "address"
        },
        {
          "internalType": "uint256",
          "name": "",
          "type": "uint256"
        }
      ],
      "name": "claimablePlanets",
      "outputs": [
        {
          "internalType": "address",
          "name": "ownerParentAddress",
          "type": "address"
        },
        {
          "internalType": "uint256",
          "name": "ownerTokenId",
          "type": "uint256"
        },
        {
          "internalType": "bool",
          "name": "delivered",
          "type": "bool"
        },
        {
          "internalType": "address",
          "name": "otherParent",
          "type": "address"
        },
        {
          "internalType": "uint256",
          "name": "otherTokenId",
          "type": "uint256"
        },
        {
          "internalType": "uint256",
          "name": "claimsTokenId",
          "type": "uint256"
        }
      ],
      "stateMutability": "view",
      "type": "function"
    },
    {
      "inputs": [
        {
          "internalType": "uint256",
          "name": "",
          "type": "uint256"
        }
      ],
      "name": "claimableTokenIdToOwnerAddress",
      "outputs": [
        {
          "internalType": "address",
          "name": "",
          "type": "address"
        }
      ],
      "stateMutability": "view",
      "type": "function"
    },
    {
      "inputs": [
        {
          "internalType": "uint256",
          "name": "yourPlanet",
          "type": "uint256"
        },
        {
          "internalType": "uint256",
          "name": "withListedPlanet",
          "type": "uint256"
        }
      ],
      "name": "conjunct",
      "outputs": [],
      "stateMutability": "payable",
      "type": "function"
    },
    {
      "inputs": [
        {
          "internalType": "uint256",
          "name": "idIndex",
          "type": "uint256"
        },
        {
          "internalType": "uint256",
          "name": "tokenId",
          "type": "uint256"
        }
      ],
      "name": "deList",
      "outputs": [],
      "stateMutability": "nonpayable",
      "type": "function"
    },
    {
      "inputs": [],
      "name": "deListAllYourPlanets",
      "outputs": [],
      "stateMutability": "nonpayable",
      "type": "function"
    },
    {
      "inputs": [],
      "name": "decimals",
      "outputs": [
        {
          "internalType": "uint8",
          "name": "",
          "type": "uint8"
        }
      ],
      "stateMutability": "view",
      "type": "function"
    },
    {
      "inputs": [
        {
          "internalType": "address",
          "name": "spender",
          "type": "address"
        },
        {
          "internalType": "uint256",
          "name": "subtractedValue",
          "type": "uint256"
        }
      ],
      "name": "decreaseAllowance",
      "outputs": [
        {
          "internalType": "bool",
          "name": "",
          "type": "bool"
        }
      ],
      "stateMutability": "nonpayable",
      "type": "function"
    },
    {
      "inputs": [],
      "name": "eip712Domain",
      "outputs": [
        {
          "internalType": "bytes1",
          "name": "fields",
          "type": "bytes1"
        },
        {
          "internalType": "string",
          "name": "name",
          "type": "string"
        },
        {
          "internalType": "string",
          "name": "version",
          "type": "string"
        },
        {
          "internalType": "uint256",
          "name": "chainId",
          "type": "uint256"
        },
        {
          "internalType": "address",
          "name": "verifyingContract",
          "type": "address"
        },
        {
          "internalType": "bytes32",
          "name": "salt",
          "type": "bytes32"
        },
        {
          "internalType": "uint256[]",
          "name": "extensions",
          "type": "uint256[]"
        }
      ],
      "stateMutability": "view",
      "type": "function"
    },
    {
      "inputs": [],
      "name": "getAllPlanets",
      "outputs": [
        {
          "components": [
            {
              "internalType": "uint256",
              "name": "planet",
              "type": "uint256"
            },
            {
              "internalType": "uint256",
              "name": "price",
              "type": "uint256"
            },
            {
              "internalType": "address",
              "name": "ownerAddress",
              "type": "address"
            }
          ],
          "internalType": "struct ListedPlanet[]",
          "name": "",
          "type": "tuple[]"
        }
      ],
      "stateMutability": "view",
      "type": "function"
    },
    {
      "inputs": [
        {
          "internalType": "uint256",
          "name": "startIndex",
          "type": "uint256"
        },
        {
          "internalType": "uint256",
          "name": "endIndex",
          "type": "uint256"
        }
      ],
      "name": "getPlanetsPaginated",
      "outputs": [
        {
          "components": [
            {
              "internalType": "uint256",
              "name": "planet",
              "type": "uint256"
            },
            {
              "internalType": "uint256",
              "name": "price",
              "type": "uint256"
            },
            {
              "internalType": "address",
              "name": "ownerAddress",
              "type": "address"
            }
          ],
          "internalType": "struct ListedPlanet[]",
          "name": "",
          "type": "tuple[]"
        }
      ],
      "stateMutability": "view",
      "type": "function"
    },
    {
      "inputs": [
        {
          "internalType": "address",
          "name": "spender",
          "type": "address"
        },
        {
          "internalType": "uint256",
          "name": "addedValue",
          "type": "uint256"
        }
      ],
      "name": "increaseAllowance",
      "outputs": [
        {
          "internalType": "bool",
          "name": "",
          "type": "bool"
        }
      ],
      "stateMutability": "nonpayable",
      "type": "function"
    },
    {
      "inputs": [],
      "name": "initialize",
      "outputs": [],
      "stateMutability": "nonpayable",
      "type": "function"
    },
    {
      "inputs": [],
      "name": "listAllYourPlanets",
      "outputs": [],
      "stateMutability": "nonpayable",
      "type": "function"
    },
    {
      "inputs": [],
      "name": "name",
      "outputs": [
        {
          "internalType": "string",
          "name": "",
          "type": "string"
        }
      ],
      "stateMutability": "view",
      "type": "function"
    },
    {
      "inputs": [
        {
          "internalType": "address",
          "name": "owner",
          "type": "address"
        }
      ],
      "name": "nonces",
      "outputs": [
        {
          "internalType": "uint256",
          "name": "",
          "type": "uint256"
        }
      ],
      "stateMutability": "view",
      "type": "function"
    },
    {
      "inputs": [
        {
          "internalType": "address",
          "name": "operator",
          "type": "address"
        },
        {
          "internalType": "address",
          "name": "from",
          "type": "address"
        },
        {
          "internalType": "uint256",
          "name": "tokenId",
          "type": "uint256"
        },
        {
          "internalType": "bytes",
          "name": "data",
          "type": "bytes"
        }
      ],
      "name": "onERC721Received",
      "outputs": [
        {
          "internalType": "bytes4",
          "name": "",
          "type": "bytes4"
        }
      ],
      "stateMutability": "nonpayable",
      "type": "function"
    },
    {
      "inputs": [],
      "name": "owner",
      "outputs": [
        {
          "internalType": "address",
          "name": "",
          "type": "address"
        }
      ],
      "stateMutability": "view",
      "type": "function"
    },
    {
      "inputs": [
        {
          "internalType": "uint256",
          "name": "claimableTokenId",
          "type": "uint256"
        },
        {
          "internalType": "address",
          "name": "sendToAddr",
          "type": "address"
        }
      ],
      "name": "ownerClaimPlanet",
      "outputs": [],
      "stateMutability": "nonpayable",
      "type": "function"
    },
    {
      "inputs": [
        {
          "internalType": "uint256",
          "name": "tokenId",
          "type": "uint256"
        },
        {
          "internalType": "address",
          "name": "destinationAddr",
          "type": "address"
        }
      ],
      "name": "ownerOverrideSendNFT",
      "outputs": [],
      "stateMutability": "nonpayable",
      "type": "function"
    },
    {
      "inputs": [],
      "name": "pause",
      "outputs": [],
      "stateMutability": "nonpayable",
      "type": "function"
    },
    {
      "inputs": [],
      "name": "paused",
      "outputs": [
        {
          "internalType": "bool",
          "name": "",
          "type": "bool"
        }
      ],
      "stateMutability": "view",
      "type": "function"
    },
    {
      "inputs": [
        {
          "internalType": "uint256",
          "name": "index",
          "type": "uint256"
        }
      ],
      "name": "payee",
      "outputs": [
        {
          "internalType": "address",
          "name": "",
          "type": "address"
        }
      ],
      "stateMutability": "view",
      "type": "function"
    },
    {
      "inputs": [
        {
          "internalType": "address",
          "name": "owner",
          "type": "address"
        },
        {
          "internalType": "address",
          "name": "spender",
          "type": "address"
        },
        {
          "internalType": "uint256",
          "name": "value",
          "type": "uint256"
        },
        {
          "internalType": "uint256",
          "name": "deadline",
          "type": "uint256"
        },
        {
          "internalType": "uint8",
          "name": "v",
          "type": "uint8"
        },
        {
          "internalType": "bytes32",
          "name": "r",
          "type": "bytes32"
        },
        {
          "internalType": "bytes32",
          "name": "s",
          "type": "bytes32"
        }
      ],
      "name": "permit",
      "outputs": [],
      "stateMutability": "nonpayable",
      "type": "function"
    },
    {
      "inputs": [],
      "name": "proxiableUUID",
      "outputs": [
        {
          "internalType": "bytes32",
          "name": "",
          "type": "bytes32"
        }
      ],
      "stateMutability": "view",
      "type": "function"
    },
    {
      "inputs": [
        {
          "internalType": "address",
          "name": "account",
          "type": "address"
        }
      ],
      "name": "releasable",
      "outputs": [
        {
          "internalType": "uint256",
          "name": "",
          "type": "uint256"
        }
      ],
      "stateMutability": "view",
      "type": "function"
    },
    {
      "inputs": [
        {
          "internalType": "contract IERC20Upgradeable",
          "name": "token",
          "type": "address"
        },
        {
          "internalType": "address",
          "name": "account",
          "type": "address"
        }
      ],
      "name": "releasable",
      "outputs": [
        {
          "internalType": "uint256",
          "name": "",
          "type": "uint256"
        }
      ],
      "stateMutability": "view",
      "type": "function"
    },
    {
      "inputs": [
        {
          "internalType": "address payable",
          "name": "account",
          "type": "address"
        }
      ],
      "name": "release",
      "outputs": [],
      "stateMutability": "nonpayable",
      "type": "function"
    },
    {
      "inputs": [
        {
          "internalType": "contract IERC20Upgradeable",
          "name": "token",
          "type": "address"
        },
        {
          "internalType": "address",
          "name": "account",
          "type": "address"
        }
      ],
      "name": "release",
      "outputs": [],
      "stateMutability": "nonpayable",
      "type": "function"
    },
    {
      "inputs": [
        {
          "internalType": "contract IERC20Upgradeable",
          "name": "token",
          "type": "address"
        },
        {
          "internalType": "address",
          "name": "account",
          "type": "address"
        }
      ],
      "name": "released",
      "outputs": [
        {
          "internalType": "uint256",
          "name": "",
          "type": "uint256"
        }
      ],
      "stateMutability": "view",
      "type": "function"
    },
    {
      "inputs": [
        {
          "internalType": "address",
          "name": "account",
          "type": "address"
        }
      ],
      "name": "released",
      "outputs": [
        {
          "internalType": "uint256",
          "name": "",
          "type": "uint256"
        }
      ],
      "stateMutability": "view",
      "type": "function"
    },
    {
      "inputs": [],
      "name": "renounceOwnership",
      "outputs": [],
      "stateMutability": "nonpayable",
      "type": "function"
    },
    {
      "inputs": [
        {
          "internalType": "address",
          "name": "_breederContractAddr",
          "type": "address"
        },
        {
          "internalType": "uint256",
          "name": "_vrfValue",
          "type": "uint256"
        },
        {
          "internalType": "address",
          "name": "_nftContractAddr",
          "type": "address"
        }
      ],
      "name": "setAllOf",
      "outputs": [],
      "stateMutability": "nonpayable",
      "type": "function"
    },
    {
      "inputs": [
        {
          "internalType": "address payable",
          "name": "newTAdd",
          "type": "address"
        }
      ],
      "name": "setTAdd",
      "outputs": [],
      "stateMutability": "nonpayable",
      "type": "function"
    },
    {
      "inputs": [
        {
          "internalType": "address",
          "name": "account",
          "type": "address"
        }
      ],
      "name": "shares",
      "outputs": [
        {
          "internalType": "uint256",
          "name": "",
          "type": "uint256"
        }
      ],
      "stateMutability": "view",
      "type": "function"
    },
    {
      "inputs": [],
      "name": "status",
      "outputs": [],
      "stateMutability": "nonpayable",
      "type": "function"
    },
    {
      "inputs": [],
      "name": "symbol",
      "outputs": [
        {
          "internalType": "string",
          "name": "",
          "type": "string"
        }
      ],
      "stateMutability": "view",
      "type": "function"
    },
    {
      "inputs": [
        {
          "internalType": "contract IERC20Upgradeable",
          "name": "token",
          "type": "address"
        }
      ],
      "name": "totalReleased",
      "outputs": [
        {
          "internalType": "uint256",
          "name": "",
          "type": "uint256"
        }
      ],
      "stateMutability": "view",
      "type": "function"
    },
    {
      "inputs": [],
      "name": "totalReleased",
      "outputs": [
        {
          "internalType": "uint256",
          "name": "",
          "type": "uint256"
        }
      ],
      "stateMutability": "view",
      "type": "function"
    },
    {
      "inputs": [],
      "name": "totalShares",
      "outputs": [
        {
          "internalType": "uint256",
          "name": "",
          "type": "uint256"
        }
      ],
      "stateMutability": "view",
      "type": "function"
    },
    {
      "inputs": [],
      "name": "totalSupply",
      "outputs": [
        {
          "internalType": "uint256",
          "name": "",
          "type": "uint256"
        }
      ],
      "stateMutability": "view",
      "type": "function"
    },
    {
      "inputs": [
        {
          "internalType": "address",
          "name": "to",
          "type": "address"
        },
        {
          "internalType": "uint256",
          "name": "amount",
          "type": "uint256"
        }
      ],
      "name": "transfer",
      "outputs": [
        {
          "internalType": "bool",
          "name": "",
          "type": "bool"
        }
      ],
      "stateMutability": "nonpayable",
      "type": "function"
    },
    {
      "inputs": [
        {
          "internalType": "address",
          "name": "from",
          "type": "address"
        },
        {
          "internalType": "address",
          "name": "to",
          "type": "address"
        },
        {
          "internalType": "uint256",
          "name": "amount",
          "type": "uint256"
        }
      ],
      "name": "transferFrom",
      "outputs": [
        {
          "internalType": "bool",
          "name": "",
          "type": "bool"
        }
      ],
      "stateMutability": "nonpayable",
      "type": "function"
    },
    {
      "inputs": [
        {
          "internalType": "address",
          "name": "newOwner",
          "type": "address"
        }
      ],
      "name": "transferOwnership",
      "outputs": [],
      "stateMutability": "nonpayable",
      "type": "function"
    },
    {
      "inputs": [],
      "name": "unpause",
      "outputs": [],
      "stateMutability": "nonpayable",
      "type": "function"
    },
    {
      "inputs": [
        {
          "internalType": "address",
          "name": "newImplementation",
          "type": "address"
        }
      ],
      "name": "upgradeTo",
      "outputs": [],
      "stateMutability": "nonpayable",
      "type": "function"
    },
    {
      "inputs": [
        {
          "internalType": "address",
          "name": "newImplementation",
          "type": "address"
        },
        {
          "internalType": "bytes",
          "name": "data",
          "type": "bytes"
        }
      ],
      "name": "upgradeToAndCall",
      "outputs": [],
      "stateMutability": "payable",
      "type": "function"
    },
    {
      "inputs": [
        {
          "internalType": "address",
          "name": "",
          "type": "address"
        },
        {
          "internalType": "uint256",
          "name": "",
          "type": "uint256"
        }
      ],
      "name": "userToListedPlanets",
      "outputs": [
        {
          "internalType": "uint256",
          "name": "planet",
          "type": "uint256"
        },
        {
          "internalType": "uint256",
          "name": "price",
          "type": "uint256"
        },
        {
          "internalType": "address",
          "name": "ownerAddress",
          "type": "address"
        }
      ],
      "stateMutability": "view",
      "type": "function"
    },
    {
      "inputs": [
        {
          "internalType": "address",
          "name": "userAddress",
          "type": "address"
        }
      ],
      "name": "usersClaims",
      "outputs": [
        {
          "components": [
            {
              "internalType": "address",
              "name": "ownerParentAddress",
              "type": "address"
            },
            {
              "internalType": "uint256",
              "name": "ownerTokenId",
              "type": "uint256"
            },
            {
              "internalType": "bool",
              "name": "delivered",
              "type": "bool"
            },
            {
              "internalType": "address",
              "name": "otherParent",
              "type": "address"
            },
            {
              "internalType": "uint256",
              "name": "otherTokenId",
              "type": "uint256"
            },
            {
              "internalType": "uint256",
              "name": "claimsTokenId",
              "type": "uint256"
            }
          ],
          "internalType": "struct ClaimablePlanet[]",
          "name": "",
          "type": "tuple[]"
        }
      ],
      "stateMutability": "view",
      "type": "function"
    },
    {
      "inputs": [],
      "name": "withdrawFunds",
      "outputs": [],
      "stateMutability": "nonpayable",
      "type": "function"
    },
    {
      "stateMutability": "payable",
      "type": "receive"
    }
  ],
  "bytecode": "0x60a06040523060805234801561001457600080fd5b50608051614b6b61004c60003960008181611365015281816113ea0152818161179d0152818161182201526119af0152614b6b6000f3fe6080604052600436106103905760003560e01c80637465c4eb116101dc578063c45ac05011610102578063d79779b2116100a0578063e22aecb41161006f578063e22aecb414610b30578063e33b7de314610b92578063f2fde38b14610ba8578063fdb4087514610bc857600080fd5b8063d79779b214610a66578063dbb774d814610a9d578063dd22a9c714610aca578063dd62ed3e14610aea57600080fd5b8063cbdf1b5a116100dc578063cbdf1b5a146109cf578063cdb82a37146109ef578063ce7c2ac214610a0f578063d505accf14610a4657600080fd5b8063c45ac05014610970578063c50a783b14610990578063c7c0e6b1146109af57600080fd5b806387b4f6df1161017a5780639852595c116101495780639852595c146108d9578063a3f8eace14610910578063a457c2d714610930578063a9059cbb1461095057600080fd5b806387b4f6df1461086f5780638b83209b146108855780638da5cb5b146108a557806395d89b41146108c457600080fd5b80638230a784116101b65780638230a784146107f05780638456cb591461052257806384b0196e1461080357806385fe72431461082b57600080fd5b80637465c4eb1461079c5780637ecebe00146107bb5780638129fc1c146107db57600080fd5b806339509351116102c15780634f1ef2861161025f5780635c975abb1161022e5780635c975abb146107245780636a23befb1461073c57806370a0823114610751578063715018a61461078757600080fd5b80634f1ef286146106dc57806350842cf3146105165780635270ad6c146106ef57806352d1902d1461070f57600080fd5b80633f4ba83a1161029b5780633f4ba83a14610640578063406072a91461065557806348b750441461069c5780634a02099b146106bc57600080fd5b806339509351146105ea5780633a7fb03d1461060a5780633a98ef391461062a57600080fd5b8063200d2ed21161032e5780632594781811610308578063259478181461056c578063313ce567146105995780633644e515146105b55780633659cfe6146105ca57600080fd5b8063200d2ed21461052257806323b872dd1461053757806324600fc31461055757600080fd5b8063150b7a021161036a578063150b7a021461048457806318160ddd146104d557806319165587146104f45780631ac9a91e1461051657600080fd5b8063064db874146103de57806306fdde0314610432578063095ea7b31461045457600080fd5b366103d9577f6ef95f06320e7a25a04a175ca677b7052bdd97131872c2192525a629f51be77033604080516001600160a01b0390921682523460208301520160405180910390a1005b600080fd5b3480156103ea57600080fd5b506104156103f93660046141da565b6101cc602052600090815260409020546001600160a01b031681565b6040516001600160a01b0390911681526020015b60405180910390f35b34801561043e57600080fd5b50610447610be8565b6040516104299190614243565b34801561046057600080fd5b5061047461046f36600461426b565b610c7a565b6040519015158152602001610429565b34801561049057600080fd5b506104a461049f366004614378565b610c94565b6040517fffffffff000000000000000000000000000000000000000000000000000000009091168152602001610429565b3480156104e157600080fd5b5060cb545b604051908152602001610429565b34801561050057600080fd5b5061051461050f3660046143e4565b610fa2565b005b34801561051457600080fd5b34801561052e57600080fd5b50610514611116565b34801561054357600080fd5b50610474610552366004614401565b611126565b34801561056357600080fd5b5061051461114a565b34801561057857600080fd5b5061058c610587366004614442565b61118c565b6040516104299190614464565b3480156105a557600080fd5b5060405160128152602001610429565b3480156105c157600080fd5b506104e661134c565b3480156105d657600080fd5b506105146105e53660046143e4565b61135b565b3480156105f657600080fd5b5061047461060536600461426b565b6114d6565b34801561061657600080fd5b506105146106253660046144c6565b611515565b34801561063657600080fd5b50610162546104e6565b34801561064c57600080fd5b506105146115a5565b34801561066157600080fd5b506104e66106703660046144f6565b6001600160a01b0391821660009081526101686020908152604080832093909416825291909152205490565b3480156106a857600080fd5b506105146106b73660046144f6565b6115b5565b3480156106c857600080fd5b506105146106d7366004614524565b61174c565b6105146106ea366004614566565b611793565b3480156106fb57600080fd5b5061051461070a3660046141da565b6118fb565b34801561071b57600080fd5b506104e66119a2565b34801561073057600080fd5b5060335460ff16610474565b34801561074857600080fd5b5061058c611a67565b34801561075d57600080fd5b506104e661076c3660046143e4565b6001600160a01b0316600090815260c9602052604090205490565b34801561079357600080fd5b50610514611aea565b3480156107a857600080fd5b506101c8546001600160a01b0316610415565b3480156107c757600080fd5b506104e66107d63660046143e4565b611afc565b3480156107e757600080fd5b50610514611b1b565b6105146107fe366004614442565b611c4a565b34801561080f57600080fd5b50610818611f65565b60405161042997969594939291906145b6565b34801561083757600080fd5b5061084b61084636600461426b565b612027565b6040805193845260208401929092526001600160a01b031690820152606001610429565b34801561087b57600080fd5b506101c9546104e6565b34801561089157600080fd5b506104156108a03660046141da565b612073565b3480156108b157600080fd5b50610194546001600160a01b0316610415565b3480156108d057600080fd5b506104476120a4565b3480156108e557600080fd5b506104e66108f43660046143e4565b6001600160a01b03166000908152610165602052604090205490565b34801561091c57600080fd5b506104e661092b3660046143e4565b6120b3565b34801561093c57600080fd5b5061047461094b36600461426b565b6120fd565b34801561095c57600080fd5b5061047461096b36600461426b565b6121a7565b34801561097c57600080fd5b506104e661098b3660046144f6565b6121b5565b34801561099c57600080fd5b506101c6546001600160a01b0316610415565b3480156109bb57600080fd5b506105146109ca3660046141da565b612293565b3480156109db57600080fd5b506105146109ea366004614442565b6122a9565b3480156109fb57600080fd5b50610514610a0a3660046143e4565b612450565b348015610a1b57600080fd5b506104e6610a2a3660046143e4565b6001600160a01b03166000908152610164602052604090205490565b348015610a5257600080fd5b50610514610a6136600461466b565b612483565b348015610a7257600080fd5b506104e6610a813660046143e4565b6001600160a01b03166000908152610167602052604090205490565b348015610aa957600080fd5b50610abd610ab83660046143e4565b6125e7565b60405161042991906146e2565b348015610ad657600080fd5b50610474610ae53660046144f6565b6126a6565b348015610af657600080fd5b506104e6610b053660046144f6565b6001600160a01b03918216600090815260ca6020908152604080832093909416825291909152205490565b348015610b3c57600080fd5b50610b50610b4b36600461426b565b612737565b604080516001600160a01b03978816815260208101969096529315159385019390935293166060830152608082019290925260a081019190915260c001610429565b348015610b9e57600080fd5b50610163546104e6565b348015610bb457600080fd5b50610514610bc33660046143e4565b61279e565b348015610bd457600080fd5b50610514610be33660046144c6565b61282b565b606060cc8054610bf79061475d565b80601f0160208091040260200160405190810160405280929190818152602001828054610c239061475d565b8015610c705780601f10610c4557610100808354040283529160200191610c70565b820191906000526020600020905b815481529060010190602001808311610c5357829003601f168201915b5050505050905090565b600033610c888185856128bd565b60019150505b92915050565b6000610cd46040518060400160405280600881526020017f7265636569766572000000000000000000000000000000000000000000000000815250612a15565b610cde8251612a71565b815115610d8957610d236040518060400160405280600981526020017f646174656e677468650000000000000000000000000000000000000000000000815250612a15565b600082806020019051810190610d399190614791565b9050610d46848287612acf565b7f13c6ec2a463a35f898a457814a782f1f567808293fa783a31fa4dac8868e601186868686604051610d7b94939291906147aa565b60405180910390a150610f39565b6101c6546001600160a01b038681169116148015610db257506101c8546001600160a01b031633145b15610f39576101c8546040517fdc9ce7a5000000000000000000000000000000000000000000000000000000008152600481018590526000916001600160a01b03169063dc9ce7a590602401600060405180830381865afa158015610e1b573d6000803e3d6000fd5b505050506040513d6000823e601f3d908101601f19168201604052610e4391908101906148a3565b5090506000816101200151905060006101cc600083600081518110610e6a57610e6a6149c2565b6020026020010151815260200190815260200160002060009054906101000a90046001600160a01b0316905060006101cc600084600181518110610eb057610eb06149c2565b60209081029190910181015182528181019290925260409081016000205481518083019092526001600160a01b03858116835216918101829052909150610ef681612bca565b7f13c6ec2a463a35f898a457814a782f1f567808293fa783a31fa4dac8868e60118a8a8a8a604051610f2b94939291906149d8565b60405180910390a150505050505b610f776040518060400160405280601981526020017f726563656976696e6720636f6d706c657465212a2a2a2a2a2a00000000000000815250612a15565b507f150b7a02000000000000000000000000000000000000000000000000000000005b949350505050565b6001600160a01b0381166000908152610164602052604090205461101c5760405162461bcd60e51b815260206004820152602660248201527f5061796d656e7453706c69747465723a206163636f756e7420686173206e6f2060448201526573686172657360d01b60648201526084015b60405180910390fd5b6000611027826120b3565b90508060000361108d5760405162461bcd60e51b815260206004820152602b60248201527f5061796d656e7453706c69747465723a206163636f756e74206973206e6f742060448201526a191d59481c185e5b595b9d60aa1b6064820152608401611013565b8061016360008282546110a09190614a62565b90915550506001600160a01b0382166000908152610165602052604090208054820190556110ce8282612e34565b604080516001600160a01b0384168152602081018390527fdf20fd1e76bc69d672e4814fafb2c449bba3a5369d8359adf9e05e6fde87b056910160405180910390a15050565b565b61111e612f4d565b611114612fa8565b600033611134858285613002565b61113f85858561308e565b506001949350505050565b611152612f4d565b61115a613282565b604051339081904780156108fc02916000818181858888f19350505050158015611188573d6000803e3d6000fd5b5050565b60608282116111dd5760405162461bcd60e51b815260206004820152600d60248201527f496e76616c696420696e646578000000000000000000000000000000000000006044820152606401611013565b6101cb548211156112305760405162461bcd60e51b815260206004820152601360248201527f496e646578206f7574206f6620626f756e6473000000000000000000000000006044820152606401611013565b600061123c8484614a75565b67ffffffffffffffff81111561125457611254614297565b6040519080825280602002602001820160405280156112b257816020015b61129f6040518060600160405280600081526020016000815260200160006001600160a01b031681525090565b8152602001906001900390816112725790505b509050835b83811015611344576101cb81815481106112d3576112d36149c2565b6000918252602091829020604080516060810182526003909302909101805483526001810154938301939093526002909201546001600160a01b031691810191909152826113218784614a75565b81518110611331576113316149c2565b60209081029190910101526001016112b7565b509392505050565b60006113566132d5565b905090565b6001600160a01b037f00000000000000000000000000000000000000000000000000000000000000001630036113e85760405162461bcd60e51b815260206004820152602c60248201527f46756e6374696f6e206d7573742062652063616c6c6564207468726f7567682060448201526b19195b1959d85d1958d85b1b60a21b6064820152608401611013565b7f00000000000000000000000000000000000000000000000000000000000000006001600160a01b03166114437f360894a13ba1a3210667c828492db98dca3e2076cc3735a920a3ca505d382bbc546001600160a01b031690565b6001600160a01b0316146114ae5760405162461bcd60e51b815260206004820152602c60248201527f46756e6374696f6e206d7573742062652063616c6c6564207468726f7567682060448201526b6163746976652070726f787960a01b6064820152608401611013565b6114b7816132df565b604080516000808252602082019092526114d3918391906132e7565b50565b33600081815260ca602090815260408083206001600160a01b0387168452909152812054909190610c889082908690611510908790614a62565b6128bd565b61151d612f4d565b611525613282565b60008281526101cc60205260409020546001600160a01b03166115488382612833565b61155183613487565b6101c854604080516001600160a01b038086168252909216602083015281018490527ffbabfabc293b9daf3d9f8a42d485f10715027db90fd73abbe4ae4b4424decd049060600160405180910390a1505050565b6115ad612f4d565b611114613527565b6001600160a01b0381166000908152610164602052604090205461162a5760405162461bcd60e51b815260206004820152602660248201527f5061796d656e7453706c69747465723a206163636f756e7420686173206e6f2060448201526573686172657360d01b6064820152608401611013565b600061163683836121b5565b90508060000361169c5760405162461bcd60e51b815260206004820152602b60248201527f5061796d656e7453706c69747465723a206163636f756e74206973206e6f742060448201526a191d59481c185e5b595b9d60aa1b6064820152608401611013565b6001600160a01b03831660009081526101676020526040812080548392906116c5908490614a62565b90915550506001600160a01b03808416600090815261016860209081526040808320938616835292905220805482019055611701838383613560565b604080516001600160a01b038481168252602082018490528516917f3be5b7a71e84ed12875d241991c70855ac5817d847039e17a9d895c1ceb0f18a910160405180910390a2505050565b611754612f4d565b61175c613282565b6101c9919091556101c680546001600160a01b039384166001600160a01b0319918216179091556101c88054929093169116179055565b6001600160a01b037f00000000000000000000000000000000000000000000000000000000000000001630036118205760405162461bcd60e51b815260206004820152602c60248201527f46756e6374696f6e206d7573742062652063616c6c6564207468726f7567682060448201526b19195b1959d85d1958d85b1b60a21b6064820152608401611013565b7f00000000000000000000000000000000000000000000000000000000000000006001600160a01b031661187b7f360894a13ba1a3210667c828492db98dca3e2076cc3735a920a3ca505d382bbc546001600160a01b031690565b6001600160a01b0316146118e65760405162461bcd60e51b815260206004820152602c60248201527f46756e6374696f6e206d7573742062652063616c6c6564207468726f7567682060448201526b6163746976652070726f787960a01b6064820152608401611013565b6118ef826132df565b611188828260016132e7565b611903613282565b60008181526101cc602052604090205433906001600160a01b031681810361192f576115488383612833565b60405162461bcd60e51b815260206004820152603260248201527f636c61696d206d7573742062652066726f6d20636c61696d616e74732061646460448201527f726573732d2d20646973616c6c6f7765642e00000000000000000000000000006064820152608401611013565b505050565b6000306001600160a01b037f00000000000000000000000000000000000000000000000000000000000000001614611a425760405162461bcd60e51b815260206004820152603860248201527f555550535570677261646561626c653a206d757374206e6f742062652063616c60448201527f6c6564207468726f7567682064656c656761746563616c6c00000000000000006064820152608401611013565b507f360894a13ba1a3210667c828492db98dca3e2076cc3735a920a3ca505d382bbc90565b60606101cb805480602002602001604051908101604052809291908181526020016000905b82821015611ae1576000848152602090819020604080516060810182526003860290920180548352600180820154848601526002909101546001600160a01b0316918301919091529083529092019101611a8c565b50505050905090565b611af2612f4d565b61111460006135cb565b6001600160a01b038116600090815261012f6020526040812054610c8e565b600054610100900460ff1615808015611b3b5750600054600160ff909116105b80611b555750303b158015611b55575060005460ff166001145b611bc75760405162461bcd60e51b815260206004820152602e60248201527f496e697469616c697a61626c653a20636f6e747261637420697320616c72656160448201527f647920696e697469616c697a65640000000000000000000000000000000000006064820152608401611013565b6000805460ff191660011790558015611bea576000805461ff0019166101001790555b611bf261361e565b611bfa613691565b611c02613704565b80156114d3576000805461ff0019169055604051600181527f7f26b83ff96e1f2b6a682f133852f6798a09c465da95921460cefb38474024989060200160405180910390a150565b611c52613282565b6000806000611c608461376f565b9050806101c954611c719190614a62565b341015611c7d57600080fd5b6000805b6101cb54811015611cf857856101cb8281548110611ca157611ca16149c2565b90600052602060002090600302016000015403611cf0576101cb8181548110611ccc57611ccc6149c2565b60009182526020909120600260039092020101546001600160a01b03169150611cf8565b600101611c81565b50604051600b906000906001600160a01b0384169083908381818185875af1925050503d8060008114611d47576040519150601f19603f3d011682016040523d82523d6000602084013e611d4c565b606091505b5050905080611d9d5760405162461bcd60e51b815260206004820152601460248201527f4661696c656420746f2073656e642045746865720000000000000000000000006044820152606401611013565b6101c6546040517fbf0e57a3000000000000000000000000000000000000000000000000000000008152600481018a905260248101899052600060448201523460648201526001600160a01b039091169063bf0e57a3906084016020604051808303816000875af1158015611e16573d6000803e3d6000fd5b505050506040513d601f19601f82011682018060405250810190611e3a9190614791565b50816101c954611e4a9190614a62565b341115611f0b576000336001600160a01b0316836101c95434611e6d9190614a75565b611e779190614a75565b604051600081818185875af1925050503d8060008114611eb3576040519150601f19603f3d011682016040523d82523d6000602084013e611eb8565b606091505b5050905080611f095760405162461bcd60e51b815260206004820152601d60248201527f4661696c656420746f20726566756e64206578636573732045746865720000006044820152606401611013565b505b604080518981526001600160a01b0388811660208301528183018a90528716606082015290517f8557df6951fbdd47fe9027516fc896be40f285ed55a6acac460352adbab730cd9181900360800190a15050505050505050565b60006060806000806000606060fb546000801b148015611f85575060fc54155b611fd15760405162461bcd60e51b815260206004820152601560248201527f4549503731323a20556e696e697469616c697a656400000000000000000000006044820152606401611013565b611fd9613810565b611fe161381f565b604080516000808252602082019092527f0f000000000000000000000000000000000000000000000000000000000000009b939a50919850469750309650945092509050565b6101ca602052816000526040600020818154811061204457600080fd5b60009182526020909120600390910201805460018201546002909201549093509091506001600160a01b031683565b60006101668281548110612089576120896149c2565b6000918252602090912001546001600160a01b031692915050565b606060cd8054610bf79061475d565b6000806120c06101635490565b6120ca9047614a62565b90506120f683826120f1866001600160a01b03166000908152610165602052604090205490565b61382e565b9392505050565b33600081815260ca602090815260408083206001600160a01b03871684529091528120549091908381101561219a5760405162461bcd60e51b815260206004820152602560248201527f45524332303a2064656372656173656420616c6c6f77616e63652062656c6f7760448201527f207a65726f0000000000000000000000000000000000000000000000000000006064820152608401611013565b61113f82868684036128bd565b600033610c8881858561308e565b6001600160a01b0382166000908152610167602052604081205481906040517f70a082310000000000000000000000000000000000000000000000000000000081523060048201526001600160a01b038616906370a0823190602401602060405180830381865afa15801561222e573d6000803e3d6000fd5b505050506040513d601f19601f820116820180604052508101906122529190614791565b61225c9190614a62565b6001600160a01b0380861660009081526101686020908152604080832093881683529290522054909150610f9a908490839061382e565b61229b612f4d565b6122a3613282565b6101c955565b6122b1613282565b6101cb5482106123035760405162461bcd60e51b815260206004820152601360248201527f496e646578206f7574206f6620626f756e6473000000000000000000000000006044820152606401611013565b600033905060006101cb848154811061231e5761231e6149c2565b6000918252602091829020604080516060810182526003909302909101805483526001810154938301939093526002909201546001600160a01b03169181018290529150331461236d57600080fd5b6040518060600160405280600081526020016000815260200160006001600160a01b03168152506101cb85815481106123a8576123a86149c2565b6000918252602091829020835160039290920201908155908201516001820155604090910151600290910180546001600160a01b0319166001600160a01b039092169190911790556123fa8383612833565b6101c8548151604080516001600160a01b03808716825290931660208401528201527f0ece05e698e9e143fb75b2ad0aba7f141238c27b6d3e9728898183ee0d68498b906060015b60405180910390a150505050565b612458612f4d565b612460613282565b6101c780546001600160a01b0319166001600160a01b0392909216919091179055565b834211156124d35760405162461bcd60e51b815260206004820152601d60248201527f45524332305065726d69743a206578706972656420646561646c696e650000006044820152606401611013565b60007f6e71edae12b1b97f4d1f60370fef10105fa2faae0126114a169c64845d6126c98888886125028c61386e565b6040805160208101969096526001600160a01b0394851690860152929091166060840152608083015260a082015260c0810186905260e001604051602081830303815290604052805190602001209050600061255d82613895565b9050600061256d828787876138dd565b9050896001600160a01b0316816001600160a01b0316146125d05760405162461bcd60e51b815260206004820152601e60248201527f45524332305065726d69743a20696e76616c6964207369676e617475726500006044820152606401611013565b6125db8a8a8a6128bd565b50505050505050505050565b6001600160a01b03811660009081526101cd60209081526040808320805482518185028101850190935280835260609492939192909184015b8282101561269b5760008481526020908190206040805160c0810182526005860290920180546001600160a01b03908116845260018083015485870152600283015460ff8116151594860194909452610100909304166060840152600381015460808401526004015460a08301529083529092019101612620565b505050509050919050565b6101c8546040517fe985e9c50000000000000000000000000000000000000000000000000000000081526001600160a01b0384811660048301528381166024830152600092169063e985e9c590604401602060405180830381865afa158015612713573d6000803e3d6000fd5b505050506040513d601f19601f820116820180604052508101906120f69190614a88565b6101cd602052816000526040600020818154811061275457600080fd5b6000918252602090912060059091020180546001820154600283015460038401546004909401546001600160a01b03938416965091945060ff811693610100909104909216919086565b6127a6612f4d565b6001600160a01b0381166128225760405162461bcd60e51b815260206004820152602660248201527f4f776e61626c653a206e6577206f776e657220697320746865207a65726f206160448201527f64647265737300000000000000000000000000000000000000000000000000006064820152608401611013565b6114d3816135cb565b612833612f4d565b6101c8546040517f23b872dd0000000000000000000000000000000000000000000000000000000081523060048201526001600160a01b03838116602483015260448201859052909116906323b872dd90606401600060405180830381600087803b1580156128a157600080fd5b505af11580156128b5573d6000803e3d6000fd5b505050505050565b6001600160a01b0383166129385760405162461bcd60e51b8152602060048201526024808201527f45524332303a20617070726f76652066726f6d20746865207a65726f2061646460448201527f72657373000000000000000000000000000000000000000000000000000000006064820152608401611013565b6001600160a01b0382166129b45760405162461bcd60e51b815260206004820152602260248201527f45524332303a20617070726f766520746f20746865207a65726f20616464726560448201527f73730000000000000000000000000000000000000000000000000000000000006064820152608401611013565b6001600160a01b03838116600081815260ca602090815260408083209487168084529482529182902085905590518481527f8c5be1e5ebec7d5bd14f71427d1e84f3dd0314c0f7b2291e5b200ac8c7c3b925910160405180910390a3505050565b6114d381604051602401612a299190614243565b60408051601f198184030181529190526020810180516001600160e01b03167f41304fac00000000000000000000000000000000000000000000000000000000179052613905565b6114d381604051602401612a8791815260200190565b60408051601f198184030181529190526020810180516001600160e01b03167ff82c50f100000000000000000000000000000000000000000000000000000000179052613905565b612b0d6040518060400160405280601881526020017f6c697374696e672e2e2e2e2e2e2e2e2e2e2e2e2e2e2e2e3a0000000000000000815250612a15565b604080516060808201835285825260208083018681526001600160a01b0386811685870181815260009182526101ca85528782208054600180820183559184529286902088516003909402019283559351938201939093559151600290920180546001600160a01b031916928216929092179091556101c85485513381529116918101919091529283018690528201849052907fb30319a217488a3ed441c348e935a48d16091e33109bab0c79a353b97975288390608001612442565b80516020808301516001600160a01b03831660009081526101cd90925260409091205415612ccd5760005b6001600160a01b03831660009081526101cd6020526040902054811015612cc7576001600160a01b0383811660009081526101cd6020526040902080549184169183908110612c4657612c466149c2565b600091825260209091206005909102016002015461010090046001600160a01b031603612cbf576001600160a01b03831660009081526101cd6020526040902080546001919083908110612c9c57612c9c6149c2565b60009182526020909120600590910201600201805460ff19169115159190911790555b600101612bf5565b50505050565b6020808401516001600160a01b031660009081526101cd909152604090205415612dc65760005b6001600160a01b03821660009081526101cd6020526040902054811015612cc7576001600160a01b0382811660009081526101cd6020526040902080549185169183908110612d4557612d456149c2565b600091825260209091206005909102016002015461010090046001600160a01b031603612dbe576001600160a01b03821660009081526101cd6020526040902080546001919083908110612d9b57612d9b6149c2565b60009182526020909120600590910201600201805460ff19169115159190911790555b600101612cf4565b60405162461bcd60e51b815260206004820152602560248201527f706c616e65742073656e7420657272616e746c792c206e6f206f6e6520746f2060448201527f636c61696d0000000000000000000000000000000000000000000000000000006064820152608401611013565b80471015612e845760405162461bcd60e51b815260206004820152601d60248201527f416464726573733a20696e73756666696369656e742062616c616e63650000006044820152606401611013565b6000826001600160a01b03168260405160006040518083038185875af1925050503d8060008114612ed1576040519150601f19603f3d011682016040523d82523d6000602084013e612ed6565b606091505b505090508061199d5760405162461bcd60e51b815260206004820152603a60248201527f416464726573733a20756e61626c6520746f2073656e642076616c75652c207260448201527f6563697069656e74206d617920686176652072657665727465640000000000006064820152608401611013565b610194546001600160a01b031633146111145760405162461bcd60e51b815260206004820181905260248201527f4f776e61626c653a2063616c6c6572206973206e6f7420746865206f776e65726044820152606401611013565b612fb0613282565b6033805460ff191660011790557f62e78cea01bee320cd4e420270b5ea74000d11b0c9f74754ebdbfc544b05a258612fe53390565b6040516001600160a01b03909116815260200160405180910390a1565b6001600160a01b03838116600090815260ca60209081526040808320938616835292905220546000198114612cc757818110156130815760405162461bcd60e51b815260206004820152601d60248201527f45524332303a20696e73756666696369656e7420616c6c6f77616e63650000006044820152606401611013565b612cc784848484036128bd565b6001600160a01b03831661310a5760405162461bcd60e51b815260206004820152602560248201527f45524332303a207472616e736665722066726f6d20746865207a65726f20616460448201527f64726573730000000000000000000000000000000000000000000000000000006064820152608401611013565b6001600160a01b0382166131865760405162461bcd60e51b815260206004820152602360248201527f45524332303a207472616e7366657220746f20746865207a65726f206164647260448201527f65737300000000000000000000000000000000000000000000000000000000006064820152608401611013565b6001600160a01b038316600090815260c96020526040902054818110156132155760405162461bcd60e51b815260206004820152602660248201527f45524332303a207472616e7366657220616d6f756e742065786365656473206260448201527f616c616e636500000000000000000000000000000000000000000000000000006064820152608401611013565b6001600160a01b03808516600081815260c9602052604080822086860390559286168082529083902080548601905591517fddf252ad1be2c89b69c2b068fc378daa952ba7f163c4a11628f55a4df523b3ef906132759086815260200190565b60405180910390a3612cc7565b60335460ff16156111145760405162461bcd60e51b815260206004820152601060248201527f5061757361626c653a20706175736564000000000000000000000000000000006044820152606401611013565b600061135661390e565b6114d3612f4d565b7f4910fdfa16fed3260ed0e7147f7cc6da11a60208b5b9406d12a635614ffd91435460ff161561331a5761199d83613982565b826001600160a01b03166352d1902d6040518163ffffffff1660e01b8152600401602060405180830381865afa925050508015613374575060408051601f3d908101601f1916820190925261337191810190614791565b60015b6133e65760405162461bcd60e51b815260206004820152602e60248201527f45524331393637557067726164653a206e657720696d706c656d656e7461746960448201527f6f6e206973206e6f7420555550530000000000000000000000000000000000006064820152608401611013565b7f360894a13ba1a3210667c828492db98dca3e2076cc3735a920a3ca505d382bbc811461347b5760405162461bcd60e51b815260206004820152602960248201527f45524331393637557067726164653a20756e737570706f727465642070726f7860448201527f6961626c655555494400000000000000000000000000000000000000000000006064820152608401611013565b5061199d838383613a40565b60008181526101cc60209081526040808320546001600160a01b03168084526101cd909252822090915b8154811015612cc757838282815481106134cd576134cd6149c2565b9060005260206000209060050201600401540361351f5760018282815481106134f8576134f86149c2565b60009182526020909120600590910201600201805460ff1916911515919091179055612cc7565b6001016134b1565b61352f613a65565b6033805460ff191690557f5db9ee0a495bf2e6ff9c91a7834c1ba4fdd244a5e8aa4e537bd38aeae4b073aa33612fe5565b604080516001600160a01b038416602482015260448082018490528251808303909101815260649091019091526020810180516001600160e01b03167fa9059cbb0000000000000000000000000000000000000000000000000000000017905261199d908490613ab7565b61019480546001600160a01b038381166001600160a01b0319831681179093556040519116919082907f8be0079c531659141344cd1fd0a4f28419497f9722a3daafe3b4186f6b6457e090600090a35050565b600054610100900460ff166136895760405162461bcd60e51b815260206004820152602b60248201527f496e697469616c697a61626c653a20636f6e7472616374206973206e6f74206960448201526a6e697469616c697a696e6760a81b6064820152608401611013565b611114613b9f565b600054610100900460ff166136fc5760405162461bcd60e51b815260206004820152602b60248201527f496e697469616c697a61626c653a20636f6e7472616374206973206e6f74206960448201526a6e697469616c697a696e6760a81b6064820152608401611013565b611114613c13565b600054610100900460ff166111145760405162461bcd60e51b815260206004820152602b60248201527f496e697469616c697a61626c653a20636f6e7472616374206973206e6f74206960448201526a6e697469616c697a696e6760a81b6064820152608401611013565b6000613779613282565b60005b6101cb5481101561380957826101cb828154811061379c5761379c6149c2565b906000526020600020906003020160000154036137e1576101cb81815481106137c7576137c76149c2565b906000526020600020906003020160010154915050919050565b6101cb546137f190600190614a75565b8103613801575060001992915050565b60010161377c565b505b919050565b606060fd8054610bf79061475d565b606060fe8054610bf79061475d565b610162546001600160a01b038416600090815261016460205260408120549091839161385a9086614aa3565b6138649190614aba565b610f9a9190614a75565b6001600160a01b038116600090815261012f60205260409020805460018101825590613809565b6000610c8e6138a26132d5565b836040517f19010000000000000000000000000000000000000000000000000000000000008152600281019290925260228201526042902090565b60008060006138ee87878787613c8a565b915091506138fb81613d4e565b5095945050505050565b6114d381613eb3565b60007f8b73c3c69bb8fe3d512ecc4cf759cc79239f7b179b0ffacaa9a75d522b39400f613939613ed4565b613941613f2d565b60408051602081019490945283019190915260608201524660808201523060a082015260c00160405160208183030381529060405280519060200120905090565b6001600160a01b0381163b6139ff5760405162461bcd60e51b815260206004820152602d60248201527f455243313936373a206e657720696d706c656d656e746174696f6e206973206e60448201527f6f74206120636f6e7472616374000000000000000000000000000000000000006064820152608401611013565b7f360894a13ba1a3210667c828492db98dca3e2076cc3735a920a3ca505d382bbc80546001600160a01b0319166001600160a01b0392909216919091179055565b613a4983613f5e565b600082511180613a565750805b1561199d57612cc78383613f9e565b60335460ff166111145760405162461bcd60e51b815260206004820152601460248201527f5061757361626c653a206e6f74207061757365640000000000000000000000006044820152606401611013565b6000613b0c826040518060400160405280602081526020017f5361666545524332303a206c6f772d6c6576656c2063616c6c206661696c6564815250856001600160a01b0316613fc39092919063ffffffff16565b9050805160001480613b2d575080806020019051810190613b2d9190614a88565b61199d5760405162461bcd60e51b815260206004820152602a60248201527f5361666545524332303a204552433230206f7065726174696f6e20646964206e60448201527f6f742073756363656564000000000000000000000000000000000000000000006064820152608401611013565b600054610100900460ff16613c0a5760405162461bcd60e51b815260206004820152602b60248201527f496e697469616c697a61626c653a20636f6e7472616374206973206e6f74206960448201526a6e697469616c697a696e6760a81b6064820152608401611013565b611114336135cb565b600054610100900460ff16613c7e5760405162461bcd60e51b815260206004820152602b60248201527f496e697469616c697a61626c653a20636f6e7472616374206973206e6f74206960448201526a6e697469616c697a696e6760a81b6064820152608401611013565b6033805460ff19169055565b6000807f7fffffffffffffffffffffffffffffff5d576e7357a4501ddfe92f46681b20a0831115613cc15750600090506003613d45565b6040805160008082526020820180845289905260ff881692820192909252606081018690526080810185905260019060a0016020604051602081039080840390855afa158015613d15573d6000803e3d6000fd5b5050604051601f1901519150506001600160a01b038116613d3e57600060019250925050613d45565b9150600090505b94509492505050565b6000816004811115613d6257613d62614adc565b03613d6a5750565b6001816004811115613d7e57613d7e614adc565b03613dcb5760405162461bcd60e51b815260206004820152601860248201527f45434453413a20696e76616c6964207369676e617475726500000000000000006044820152606401611013565b6002816004811115613ddf57613ddf614adc565b03613e2c5760405162461bcd60e51b815260206004820152601f60248201527f45434453413a20696e76616c6964207369676e6174757265206c656e677468006044820152606401611013565b6003816004811115613e4057613e40614adc565b036114d35760405162461bcd60e51b815260206004820152602260248201527f45434453413a20696e76616c6964207369676e6174757265202773272076616c60448201527f75650000000000000000000000000000000000000000000000000000000000006064820152608401611013565b60006a636f6e736f6c652e6c6f679050600080835160208501845afa505050565b600080613edf613810565b805190915015613ef6578051602090910120919050565b60fb548015613f055792915050565b7fc5d2460186f7233c927e7db2dcc703c0e500b653ca82273b7bfad8045d85a4709250505090565b600080613f3861381f565b805190915015613f4f578051602090910120919050565b60fc548015613f055792915050565b613f6781613982565b6040516001600160a01b038216907fbc7cd75a20ee27fd9adebab32041f755214dbc6bffa90cc0225b39da2e5c2d3b90600090a250565b60606120f68383604051806060016040528060278152602001614b0f60279139613fd2565b6060610f9a848460008561404a565b6060600080856001600160a01b031685604051613fef9190614af2565b600060405180830381855af49150503d806000811461402a576040519150601f19603f3d011682016040523d82523d6000602084013e61402f565b606091505b50915091506140408683838761413c565b9695505050505050565b6060824710156140c25760405162461bcd60e51b815260206004820152602660248201527f416464726573733a20696e73756666696369656e742062616c616e636520666f60448201527f722063616c6c00000000000000000000000000000000000000000000000000006064820152608401611013565b600080866001600160a01b031685876040516140de9190614af2565b60006040518083038185875af1925050503d806000811461411b576040519150601f19603f3d011682016040523d82523d6000602084013e614120565b606091505b50915091506141318783838761413c565b979650505050505050565b606083156141ab5782516000036141a4576001600160a01b0385163b6141a45760405162461bcd60e51b815260206004820152601d60248201527f416464726573733a2063616c6c20746f206e6f6e2d636f6e74726163740000006044820152606401611013565b5081610f9a565b610f9a83838151156141c05781518083602001fd5b8060405162461bcd60e51b81526004016110139190614243565b6000602082840312156141ec57600080fd5b5035919050565b60005b8381101561420e5781810151838201526020016141f6565b50506000910152565b6000815180845261422f8160208601602086016141f3565b601f01601f19169290920160200192915050565b6020815260006120f66020830184614217565b6001600160a01b03811681146114d357600080fd5b6000806040838503121561427e57600080fd5b823561428981614256565b946020939093013593505050565b634e487b7160e01b600052604160045260246000fd5b604051610160810167ffffffffffffffff811182821017156142d1576142d1614297565b60405290565b604051601f8201601f1916810167ffffffffffffffff8111828210171561430057614300614297565b604052919050565b600082601f83011261431957600080fd5b813567ffffffffffffffff81111561433357614333614297565b614346601f8201601f19166020016142d7565b81815284602083860101111561435b57600080fd5b816020850160208301376000918101602001919091529392505050565b6000806000806080858703121561438e57600080fd5b843561439981614256565b935060208501356143a981614256565b925060408501359150606085013567ffffffffffffffff8111156143cc57600080fd5b6143d887828801614308565b91505092959194509250565b6000602082840312156143f657600080fd5b81356120f681614256565b60008060006060848603121561441657600080fd5b833561442181614256565b9250602084013561443181614256565b929592945050506040919091013590565b6000806040838503121561445557600080fd5b50508035926020909101359150565b602080825282518282018190526000919060409081850190868401855b828110156144b95781518051855286810151878601528501516001600160a01b03168585015260609093019290850190600101614481565b5091979650505050505050565b600080604083850312156144d957600080fd5b8235915060208301356144eb81614256565b809150509250929050565b6000806040838503121561450957600080fd5b823561451481614256565b915060208301356144eb81614256565b60008060006060848603121561453957600080fd5b833561454481614256565b925060208401359150604084013561455b81614256565b809150509250925092565b6000806040838503121561457957600080fd5b823561458481614256565b9150602083013567ffffffffffffffff8111156145a057600080fd5b6145ac85828601614308565b9150509250929050565b7fff00000000000000000000000000000000000000000000000000000000000000881681526000602060e060208401526145f360e084018a614217565b8381036040850152614605818a614217565b606085018990526001600160a01b038816608086015260a0850187905284810360c08601528551808252602080880193509091019060005b818110156146595783518352928401929184019160010161463d565b50909c9b505050505050505050505050565b600080600080600080600060e0888a03121561468657600080fd5b873561469181614256565b965060208801356146a181614256565b95506040880135945060608801359350608088013560ff811681146146c557600080fd5b9699959850939692959460a0840135945060c09093013592915050565b602080825282518282018190526000919060409081850190868401855b828110156144b957815180516001600160a01b039081168652878201518887015286820151151587870152606080830151909116908601526080808201519086015260a0908101519085015260c090930192908501906001016146ff565b600181811c9082168061477157607f821691505b60208210810361380957634e487b7160e01b600052602260045260246000fd5b6000602082840312156147a357600080fd5b5051919050565b60006001600160a01b03808716835280861660208401525083604083015260a060608301526147dc60a0830184614217565b8281036080840152600e81527f6c697374696e6720706c616e657400000000000000000000000000000000000060208201526040810191505095945050505050565b600082601f83011261482f57600080fd5b8151602067ffffffffffffffff82111561484b5761484b614297565b8160051b61485a8282016142d7565b928352848101820192828101908785111561487457600080fd5b83870192505b848310156141315782518252918301919083019061487a565b8051801515811461380b57600080fd5b600080604083850312156148b657600080fd5b825167ffffffffffffffff808211156148ce57600080fd5b9084019061016082870312156148e357600080fd5b6148eb6142ad565b825181526020830151602082015260408301516040820152606083015160608201526080830151608082015260a083015160a082015260c083015160c082015260e083015160e0820152610100808401518381111561494957600080fd5b6149558982870161481e565b828401525050610120808401518381111561496f57600080fd5b61497b8982870161481e565b828401525050610140808401518381111561499557600080fd5b6149a18982870161481e565b8284015250508094505050506149b960208401614893565b90509250929050565b634e487b7160e01b600052603260045260246000fd5b60006001600160a01b03808716835280861660208401525083604083015260a06060830152614a0a60a0830184614217565b8281036080840152600a81527f6e657720706c616e65740000000000000000000000000000000000000000000060208201526040810191505095945050505050565b634e487b7160e01b600052601160045260246000fd5b80820180821115610c8e57610c8e614a4c565b81810381811115610c8e57610c8e614a4c565b600060208284031215614a9a57600080fd5b6120f682614893565b8082028115828204841417610c8e57610c8e614a4c565b600082614ad757634e487b7160e01b600052601260045260246000fd5b500490565b634e487b7160e01b600052602160045260246000fd5b60008251614b048184602087016141f3565b919091019291505056fe416464726573733a206c6f772d6c6576656c2064656c65676174652063616c6c206661696c6564a26469706673582212209c38b91e8c7bb403dc8af21c363e6bc29478763f2bb2fd51a1dc34a9b6e6163e64736f6c63430008180033",
  "linkReferences": {},
  "deployedLinkReferences": {}
}