{
  "_format": "hh-sol-artifact-1",
  "contractName": "InternalTests",
  "sourceName": "contracts/test/InternalTests.sol",
  "abi": [
    {
      "inputs": [],
      "stateMutability": "nonpayable",
      "type": "constructor"
    },
    {
      "inputs": [],
      "name": "Unauthorized",
      "type": "error"
    },
    {
      "anonymous": false,
      "inputs": [
        {
          "indexed": false,
          "internalType": "address",
          "name": "previousAdmin",
          "type": "address"
        },
        {
          "indexed": false,
          "internalType": "address",
          "name": "newAdmin",
          "type": "address"
        }
      ],
      "name": "AdminChanged",
      "type": "event"
    },
    {
      "anonymous": false,
      "inputs": [
        {
          "indexed": true,
          "internalType": "address",
          "name": "owner",
          "type": "address"
        },
        {
          "indexed": true,
          "internalType": "address",
          "name": "spender",
          "type": "address"
        },
        {
          "indexed": false,
          "internalType": "uint256",
          "name": "value",
          "type": "uint256"
        }
      ],
      "name": "Approval",
      "type": "event"
    },
    {
      "anonymous": false,
      "inputs": [
        {
          "indexed": true,
          "internalType": "address",
          "name": "beacon",
          "type": "address"
        }
      ],
      "name": "BeaconUpgraded",
      "type": "event"
    },
    {
      "anonymous": false,
      "inputs": [
        {
          "indexed": false,
          "internalType": "address",
          "name": "sentToUser",
          "type": "address"
        },
        {
          "indexed": false,
          "internalType": "address",
          "name": "token",
          "type": "address"
        },
        {
          "indexed": false,
          "internalType": "uint256",
          "name": "tokenId",
          "type": "uint256"
        }
      ],
      "name": "DeClaimedAPlanet",
      "type": "event"
    },
    {
      "anonymous": false,
      "inputs": [
        {
          "indexed": false,
          "internalType": "address",
          "name": "sentToUser",
          "type": "address"
        },
        {
          "indexed": false,
          "internalType": "address",
          "name": "token",
          "type": "address"
        },
        {
          "indexed": false,
          "internalType": "uint256",
          "name": "tokenId",
          "type": "uint256"
        }
      ],
      "name": "DeListedAPlanet",
      "type": "event"
    },
    {
      "anonymous": false,
      "inputs": [],
      "name": "EIP712DomainChanged",
      "type": "event"
    },
    {
      "anonymous": false,
      "inputs": [
        {
          "indexed": true,
          "internalType": "contract IERC20Upgradeable",
          "name": "token",
          "type": "address"
        },
        {
          "indexed": false,
          "internalType": "address",
          "name": "to",
          "type": "address"
        },
        {
          "indexed": false,
          "internalType": "uint256",
          "name": "amount",
          "type": "uint256"
        }
      ],
      "name": "ERC20PaymentReleased",
      "type": "event"
    },
    {
      "anonymous": false,
      "inputs": [
        {
          "indexed": false,
          "internalType": "uint8",
          "name": "version",
          "type": "uint8"
        }
      ],
      "name": "Initialized",
      "type": "event"
    },
    {
      "anonymous": false,
      "inputs": [
        {
          "indexed": false,
          "internalType": "address",
          "name": "sentFromUser",
          "type": "address"
        },
        {
          "indexed": false,
          "internalType": "address",
          "name": "token",
          "type": "address"
        },
        {
          "indexed": false,
          "internalType": "uint256",
          "name": "tokenId",
          "type": "uint256"
        },
        {
          "indexed": false,
          "internalType": "uint256",
          "name": "price",
          "type": "uint256"
        }
      ],
      "name": "ListedAPlanet",
      "type": "event"
    },
    {
      "anonymous": false,
      "inputs": [
        {
          "indexed": false,
          "internalType": "address",
          "name": "operator",
          "type": "address"
        },
        {
          "indexed": false,
          "internalType": "address",
          "name": "from",
          "type": "address"
        },
        {
          "indexed": false,
          "internalType": "uint256",
          "name": "tokenId",
          "type": "uint256"
        },
        {
          "indexed": false,
          "internalType": "bytes",
          "name": "data",
          "type": "bytes"
        },
        {
          "indexed": false,
          "internalType": "string",
          "name": "typeOfReceival",
          "type": "string"
        }
      ],
      "name": "NftReceived",
      "type": "event"
    },
    {
      "anonymous": false,
      "inputs": [
        {
          "indexed": true,
          "internalType": "address",
          "name": "previousOwner",
          "type": "address"
        },
        {
          "indexed": true,
          "internalType": "address",
          "name": "newOwner",
          "type": "address"
        }
      ],
      "name": "OwnershipTransferred",
      "type": "event"
    },
    {
      "anonymous": false,
      "inputs": [
        {
          "indexed": false,
          "internalType": "address",
          "name": "account",
          "type": "address"
        }
      ],
      "name": "Paused",
      "type": "event"
    },
    {
      "anonymous": false,
      "inputs": [
        {
          "indexed": false,
          "internalType": "address",
          "name": "account",
          "type": "address"
        },
        {
          "indexed": false,
          "internalType": "uint256",
          "name": "shares",
          "type": "uint256"
        }
      ],
      "name": "PayeeAdded",
      "type": "event"
    },
    {
      "anonymous": false,
      "inputs": [
        {
          "indexed": false,
          "internalType": "address",
          "name": "from",
          "type": "address"
        },
        {
          "indexed": false,
          "internalType": "uint256",
          "name": "amount",
          "type": "uint256"
        }
      ],
      "name": "PaymentReceived",
      "type": "event"
    },
    {
      "anonymous": false,
      "inputs": [
        {
          "indexed": false,
          "internalType": "address",
          "name": "to",
          "type": "address"
        },
        {
          "indexed": false,
          "internalType": "uint256",
          "name": "amount",
          "type": "uint256"
        }
      ],
      "name": "PaymentReleased",
      "type": "event"
    },
    {
      "anonymous": false,
      "inputs": [
        {
          "indexed": false,
          "internalType": "uint256",
          "name": "planetAsking",
          "type": "uint256"
        },
        {
          "indexed": false,
          "internalType": "address",
          "name": "askingUser",
          "type": "address"
        },
        {
          "indexed": false,
          "internalType": "uint256",
          "name": "planetJoining",
          "type": "uint256"
        },
        {
          "indexed": false,
          "internalType": "address",
          "name": "joiningUser",
          "type": "address"
        }
      ],
      "name": "PlanetsConjoining",
      "type": "event"
    },
    {
      "anonymous": false,
      "inputs": [
        {
          "indexed": true,
          "internalType": "address",
          "name": "from",
          "type": "address"
        },
        {
          "indexed": true,
          "internalType": "address",
          "name": "to",
          "type": "address"
        },
        {
          "indexed": false,
          "internalType": "uint256",
          "name": "value",
          "type": "uint256"
        }
      ],
      "name": "Transfer",
      "type": "event"
    },
    {
      "anonymous": false,
      "inputs": [
        {
          "indexed": false,
          "internalType": "address",
          "name": "account",
          "type": "address"
        }
      ],
      "name": "Unpaused",
      "type": "event"
    },
    {
      "anonymous": false,
      "inputs": [
        {
          "indexed": true,
          "internalType": "address",
          "name": "implementation",
          "type": "address"
        }
      ],
      "name": "Upgraded",
      "type": "event"
    },
    {
      "inputs": [],
      "name": "DOMAIN_SEPARATOR",
      "outputs": [
        {
          "internalType": "bytes32",
          "name": "",
          "type": "bytes32"
        }
      ],
      "stateMutability": "view",
      "type": "function"
    },
    {
      "inputs": [
        {
          "internalType": "uint256",
          "name": "_claimTokenId",
          "type": "uint256"
        },
        {
          "internalType": "address",
          "name": "_claimAddr",
          "type": "address"
        }
      ],
      "name": "addClaimant",
      "outputs": [],
      "stateMutability": "nonpayable",
      "type": "function"
    },
    {
      "inputs": [
        {
          "internalType": "address",
          "name": "owner",
          "type": "address"
        },
        {
          "internalType": "address",
          "name": "spender",
          "type": "address"
        }
      ],
      "name": "allowance",
      "outputs": [
        {
          "internalType": "uint256",
          "name": "",
          "type": "uint256"
        }
      ],
      "stateMutability": "view",
      "type": "function"
    },
    {
      "inputs": [
        {
          "internalType": "address",
          "name": "spender",
          "type": "address"
        },
        {
          "internalType": "uint256",
          "name": "amount",
          "type": "uint256"
        }
      ],
      "name": "approve",
      "outputs": [
        {
          "internalType": "bool",
          "name": "",
          "type": "bool"
        }
      ],
      "stateMutability": "nonpayable",
      "type": "function"
    },
    {
      "inputs": [
        {
          "internalType": "address",
          "name": "userAsking",
          "type": "address"
        },
        {
          "internalType": "uint256",
          "name": "askingPlanet",
          "type": "uint256"
        },
        {
          "internalType": "address",
          "name": "otherParent",
          "type": "address"
        },
        {
          "internalType": "uint256",
          "name": "otherTokenId",
          "type": "uint256"
        },
        {
          "internalType": "uint256",
          "name": "cTokenId",
          "type": "uint256"
        }
      ],
      "name": "arriveClaimablePlanet",
      "outputs": [],
      "stateMutability": "nonpayable",
      "type": "function"
    },
    {
      "inputs": [
        {
          "internalType": "address",
          "name": "account",
          "type": "address"
        }
      ],
      "name": "balanceOf",
      "outputs": [
        {
          "internalType": "uint256",
          "name": "",
          "type": "uint256"
        }
      ],
      "stateMutability": "view",
      "type": "function"
    },
    {
      "inputs": [],
      "name": "breedContract",
      "outputs": [
        {
          "internalType": "contract IBreedContract",
          "name": "",
          "type": "address"
        }
      ],
      "stateMutability": "view",
      "type": "function"
    },
    {
      "inputs": [
        {
          "internalType": "uint256",
          "name": "newVRF",
          "type": "uint256"
        }
      ],
      "name": "changeVRFValue",
      "outputs": [],
      "stateMutability": "nonpayable",
      "type": "function"
    },
    {
      "inputs": [
        {
          "internalType": "address",
          "name": "owner",
          "type": "address"
        },
        {
          "internalType": "address",
          "name": "operator",
          "type": "address"
        }
      ],
      "name": "checkApprovalForAll",
      "outputs": [
        {
          "internalType": "bool",
          "name": "",
          "type": "bool"
        }
      ],
      "stateMutability": "view",
      "type": "function"
    },
    {
      "inputs": [
        {
          "internalType": "uint256",
          "name": "claimableTokenId",
          "type": "uint256"
        }
      ],
      "name": "claimPlanet",
      "outputs": [],
      "stateMutability": "nonpayable",
      "type": "function"
    },
    {
      "inputs": [
        {
          "internalType": "address",
          "name": "",
          "type": "address"
        },
        {
          "internalType": "uint256",
          "name": "",
          "type": "uint256"
        }
      ],
      "name": "claimablePlanets",
      "outputs": [
        {
          "internalType": "address",
          "name": "ownerParentAddress",
          "type": "address"
        },
        {
          "internalType": "uint256",
          "name": "ownerTokenId",
          "type": "uint256"
        },
        {
          "internalType": "bool",
          "name": "delivered",
          "type": "bool"
        },
        {
          "internalType": "bool",
          "name": "arrived",
          "type": "bool"
        },
        {
          "internalType": "address",
          "name": "otherParent",
          "type": "address"
        },
        {
          "internalType": "uint256",
          "name": "otherTokenId",
          "type": "uint256"
        },
        {
          "internalType": "uint256",
          "name": "claimsTokenId",
          "type": "uint256"
        }
      ],
      "stateMutability": "view",
      "type": "function"
    },
    {
      "inputs": [
        {
          "internalType": "uint256",
          "name": "",
          "type": "uint256"
        }
      ],
      "name": "claimantTokenIdToOwnerAddress",
      "outputs": [
        {
          "internalType": "address",
          "name": "",
          "type": "address"
        }
      ],
      "stateMutability": "view",
      "type": "function"
    },
    {
      "inputs": [
        {
          "internalType": "uint256",
          "name": "yourPlanet",
          "type": "uint256"
        },
        {
          "internalType": "uint256",
          "name": "withListedPlanet",
          "type": "uint256"
        }
      ],
      "name": "conjunct",
      "outputs": [],
      "stateMutability": "payable",
      "type": "function"
    },
    {
      "inputs": [
        {
          "internalType": "uint256",
          "name": "idIndex",
          "type": "uint256"
        },
        {
          "internalType": "uint256",
          "name": "tokenId",
          "type": "uint256"
        }
      ],
      "name": "deList",
      "outputs": [],
      "stateMutability": "nonpayable",
      "type": "function"
    },
    {
      "inputs": [],
      "name": "deListAllYourPlanets",
      "outputs": [],
      "stateMutability": "nonpayable",
      "type": "function"
    },
    {
      "inputs": [],
      "name": "decimals",
      "outputs": [
        {
          "internalType": "uint8",
          "name": "",
          "type": "uint8"
        }
      ],
      "stateMutability": "view",
      "type": "function"
    },
    {
      "inputs": [
        {
          "internalType": "address",
          "name": "spender",
          "type": "address"
        },
        {
          "internalType": "uint256",
          "name": "subtractedValue",
          "type": "uint256"
        }
      ],
      "name": "decreaseAllowance",
      "outputs": [
        {
          "internalType": "bool",
          "name": "",
          "type": "bool"
        }
      ],
      "stateMutability": "nonpayable",
      "type": "function"
    },
    {
      "inputs": [
        {
          "internalType": "address",
          "name": "userAsking",
          "type": "address"
        },
        {
          "internalType": "uint256",
          "name": "askingPlanet",
          "type": "uint256"
        },
        {
          "internalType": "address",
          "name": "otherParent",
          "type": "address"
        },
        {
          "internalType": "uint256",
          "name": "otherTokenId",
          "type": "uint256"
        },
        {
          "internalType": "uint256",
          "name": "cTokenId",
          "type": "uint256"
        }
      ],
      "name": "deliverClaimablePlanet",
      "outputs": [],
      "stateMutability": "nonpayable",
      "type": "function"
    },
    {
      "inputs": [],
      "name": "eip712Domain",
      "outputs": [
        {
          "internalType": "bytes1",
          "name": "fields",
          "type": "bytes1"
        },
        {
          "internalType": "string",
          "name": "name",
          "type": "string"
        },
        {
          "internalType": "string",
          "name": "version",
          "type": "string"
        },
        {
          "internalType": "uint256",
          "name": "chainId",
          "type": "uint256"
        },
        {
          "internalType": "address",
          "name": "verifyingContract",
          "type": "address"
        },
        {
          "internalType": "bytes32",
          "name": "salt",
          "type": "bytes32"
        },
        {
          "internalType": "uint256[]",
          "name": "extensions",
          "type": "uint256[]"
        }
      ],
      "stateMutability": "view",
      "type": "function"
    },
    {
      "inputs": [],
      "name": "getAllPlanets",
      "outputs": [
        {
          "components": [
            {
              "internalType": "uint256",
              "name": "tokenId",
              "type": "uint256"
            },
            {
              "internalType": "uint256",
              "name": "price",
              "type": "uint256"
            },
            {
              "internalType": "address",
              "name": "ownerAddress",
              "type": "address"
            },
            {
              "internalType": "bool",
              "name": "active",
              "type": "bool"
            }
          ],
          "internalType": "struct ListedPlanet[]",
          "name": "",
          "type": "tuple[]"
        }
      ],
      "stateMutability": "view",
      "type": "function"
    },
    {
      "inputs": [
        {
          "internalType": "address",
          "name": "userAddr",
          "type": "address"
        }
      ],
      "name": "getClaimablePlanetsFor",
      "outputs": [
        {
          "components": [
            {
              "internalType": "address",
              "name": "ownerParentAddress",
              "type": "address"
            },
            {
              "internalType": "uint256",
              "name": "ownerTokenId",
              "type": "uint256"
            },
            {
              "internalType": "bool",
              "name": "delivered",
              "type": "bool"
            },
            {
              "internalType": "bool",
              "name": "arrived",
              "type": "bool"
            },
            {
              "internalType": "address",
              "name": "otherParent",
              "type": "address"
            },
            {
              "internalType": "uint256",
              "name": "otherTokenId",
              "type": "uint256"
            },
            {
              "internalType": "uint256",
              "name": "claimsTokenId",
              "type": "uint256"
            }
          ],
          "internalType": "struct ClaimablePlanet[]",
          "name": "",
          "type": "tuple[]"
        }
      ],
      "stateMutability": "view",
      "type": "function"
    },
    {
      "inputs": [
        {
          "internalType": "uint256",
          "name": "claimableTokenId",
          "type": "uint256"
        }
      ],
      "name": "getClaimantTokenIdToOwnerAddress",
      "outputs": [
        {
          "internalType": "address",
          "name": "",
          "type": "address"
        }
      ],
      "stateMutability": "view",
      "type": "function"
    },
    {
      "inputs": [
        {
          "internalType": "uint256",
          "name": "startIndex",
          "type": "uint256"
        },
        {
          "internalType": "uint256",
          "name": "endIndex",
          "type": "uint256"
        }
      ],
      "name": "getPlanetsPaginated",
      "outputs": [
        {
          "components": [
            {
              "internalType": "uint256",
              "name": "tokenId",
              "type": "uint256"
            },
            {
              "internalType": "uint256",
              "name": "price",
              "type": "uint256"
            },
            {
              "internalType": "address",
              "name": "ownerAddress",
              "type": "address"
            },
            {
              "internalType": "bool",
              "name": "active",
              "type": "bool"
            }
          ],
          "internalType": "struct ListedPlanet[]",
          "name": "",
          "type": "tuple[]"
        }
      ],
      "stateMutability": "view",
      "type": "function"
    },
    {
      "inputs": [
        {
          "internalType": "address",
          "name": "userAddr",
          "type": "address"
        }
      ],
      "name": "getuserToListedPlanets",
      "outputs": [
        {
          "components": [
            {
              "internalType": "uint256",
              "name": "tokenId",
              "type": "uint256"
            },
            {
              "internalType": "uint256",
              "name": "price",
              "type": "uint256"
            },
            {
              "internalType": "address",
              "name": "ownerAddress",
              "type": "address"
            },
            {
              "internalType": "bool",
              "name": "active",
              "type": "bool"
            }
          ],
          "internalType": "struct ListedPlanet[]",
          "name": "",
          "type": "tuple[]"
        }
      ],
      "stateMutability": "view",
      "type": "function"
    },
    {
      "inputs": [
        {
          "internalType": "address",
          "name": "spender",
          "type": "address"
        },
        {
          "internalType": "uint256",
          "name": "addedValue",
          "type": "uint256"
        }
      ],
      "name": "increaseAllowance",
      "outputs": [
        {
          "internalType": "bool",
          "name": "",
          "type": "bool"
        }
      ],
      "stateMutability": "nonpayable",
      "type": "function"
    },
    {
      "inputs": [],
      "name": "initialize",
      "outputs": [],
      "stateMutability": "nonpayable",
      "type": "function"
    },
    {
      "inputs": [],
      "name": "listAllYourPlanets",
      "outputs": [],
      "stateMutability": "nonpayable",
      "type": "function"
    },
    {
      "inputs": [],
      "name": "name",
      "outputs": [
        {
          "internalType": "string",
          "name": "",
          "type": "string"
        }
      ],
      "stateMutability": "view",
      "type": "function"
    },
    {
      "inputs": [
        {
          "internalType": "address",
          "name": "owner",
          "type": "address"
        }
      ],
      "name": "nonces",
      "outputs": [
        {
          "internalType": "uint256",
          "name": "",
          "type": "uint256"
        }
      ],
      "stateMutability": "view",
      "type": "function"
    },
    {
      "inputs": [
        {
          "internalType": "address",
          "name": "operator",
          "type": "address"
        },
        {
          "internalType": "address",
          "name": "from",
          "type": "address"
        },
        {
          "internalType": "uint256",
          "name": "tokenId",
          "type": "uint256"
        },
        {
          "internalType": "bytes",
          "name": "data",
          "type": "bytes"
        }
      ],
      "name": "onERC721Received",
      "outputs": [
        {
          "internalType": "bytes4",
          "name": "",
          "type": "bytes4"
        }
      ],
      "stateMutability": "nonpayable",
      "type": "function"
    },
    {
      "inputs": [],
      "name": "owner",
      "outputs": [
        {
          "internalType": "address",
          "name": "",
          "type": "address"
        }
      ],
      "stateMutability": "view",
      "type": "function"
    },
    {
      "inputs": [
        {
          "internalType": "uint256",
          "name": "claimableTokenId",
          "type": "uint256"
        },
        {
          "internalType": "address",
          "name": "sendToAddr",
          "type": "address"
        }
      ],
      "name": "ownerClaimPlanet",
      "outputs": [],
      "stateMutability": "nonpayable",
      "type": "function"
    },
    {
      "inputs": [
        {
          "internalType": "uint256",
          "name": "tokenId",
          "type": "uint256"
        },
        {
          "internalType": "address",
          "name": "destinationAddr",
          "type": "address"
        }
      ],
      "name": "ownerOverrideSendNFT",
      "outputs": [],
      "stateMutability": "nonpayable",
      "type": "function"
    },
    {
      "inputs": [],
      "name": "pause",
      "outputs": [],
      "stateMutability": "nonpayable",
      "type": "function"
    },
    {
      "inputs": [],
      "name": "paused",
      "outputs": [
        {
          "internalType": "bool",
          "name": "",
          "type": "bool"
        }
      ],
      "stateMutability": "view",
      "type": "function"
    },
    {
      "inputs": [
        {
          "internalType": "uint256",
          "name": "index",
          "type": "uint256"
        }
      ],
      "name": "payee",
      "outputs": [
        {
          "internalType": "address",
          "name": "",
          "type": "address"
        }
      ],
      "stateMutability": "view",
      "type": "function"
    },
    {
      "inputs": [
        {
          "internalType": "address",
          "name": "owner",
          "type": "address"
        },
        {
          "internalType": "address",
          "name": "spender",
          "type": "address"
        },
        {
          "internalType": "uint256",
          "name": "value",
          "type": "uint256"
        },
        {
          "internalType": "uint256",
          "name": "deadline",
          "type": "uint256"
        },
        {
          "internalType": "uint8",
          "name": "v",
          "type": "uint8"
        },
        {
          "internalType": "bytes32",
          "name": "r",
          "type": "bytes32"
        },
        {
          "internalType": "bytes32",
          "name": "s",
          "type": "bytes32"
        }
      ],
      "name": "permit",
      "outputs": [],
      "stateMutability": "nonpayable",
      "type": "function"
    },
    {
      "inputs": [],
      "name": "proxiableUUID",
      "outputs": [
        {
          "internalType": "bytes32",
          "name": "",
          "type": "bytes32"
        }
      ],
      "stateMutability": "view",
      "type": "function"
    },
    {
      "inputs": [
        {
          "internalType": "address",
          "name": "account",
          "type": "address"
        }
      ],
      "name": "releasable",
      "outputs": [
        {
          "internalType": "uint256",
          "name": "",
          "type": "uint256"
        }
      ],
      "stateMutability": "view",
      "type": "function"
    },
    {
      "inputs": [
        {
          "internalType": "contract IERC20Upgradeable",
          "name": "token",
          "type": "address"
        },
        {
          "internalType": "address",
          "name": "account",
          "type": "address"
        }
      ],
      "name": "releasable",
      "outputs": [
        {
          "internalType": "uint256",
          "name": "",
          "type": "uint256"
        }
      ],
      "stateMutability": "view",
      "type": "function"
    },
    {
      "inputs": [
        {
          "internalType": "address payable",
          "name": "account",
          "type": "address"
        }
      ],
      "name": "release",
      "outputs": [],
      "stateMutability": "nonpayable",
      "type": "function"
    },
    {
      "inputs": [
        {
          "internalType": "contract IERC20Upgradeable",
          "name": "token",
          "type": "address"
        },
        {
          "internalType": "address",
          "name": "account",
          "type": "address"
        }
      ],
      "name": "release",
      "outputs": [],
      "stateMutability": "nonpayable",
      "type": "function"
    },
    {
      "inputs": [
        {
          "internalType": "contract IERC20Upgradeable",
          "name": "token",
          "type": "address"
        },
        {
          "internalType": "address",
          "name": "account",
          "type": "address"
        }
      ],
      "name": "released",
      "outputs": [
        {
          "internalType": "uint256",
          "name": "",
          "type": "uint256"
        }
      ],
      "stateMutability": "view",
      "type": "function"
    },
    {
      "inputs": [
        {
          "internalType": "address",
          "name": "account",
          "type": "address"
        }
      ],
      "name": "released",
      "outputs": [
        {
          "internalType": "uint256",
          "name": "",
          "type": "uint256"
        }
      ],
      "stateMutability": "view",
      "type": "function"
    },
    {
      "inputs": [],
      "name": "renounceOwnership",
      "outputs": [],
      "stateMutability": "nonpayable",
      "type": "function"
    },
    {
      "inputs": [
        {
          "internalType": "address",
          "name": "_breederContractAddr",
          "type": "address"
        },
        {
          "internalType": "uint256",
          "name": "_vrfValue",
          "type": "uint256"
        },
        {
          "internalType": "address",
          "name": "_nftContractAddr",
          "type": "address"
        }
      ],
      "name": "setAllOf",
      "outputs": [],
      "stateMutability": "nonpayable",
      "type": "function"
    },
    {
      "inputs": [
        {
          "internalType": "address payable",
          "name": "newTAdd",
          "type": "address"
        }
      ],
      "name": "setTAdd",
      "outputs": [],
      "stateMutability": "nonpayable",
      "type": "function"
    },
    {
      "inputs": [
        {
          "internalType": "address",
          "name": "account",
          "type": "address"
        }
      ],
      "name": "shares",
      "outputs": [
        {
          "internalType": "uint256",
          "name": "",
          "type": "uint256"
        }
      ],
      "stateMutability": "view",
      "type": "function"
    },
    {
      "inputs": [],
      "name": "status",
      "outputs": [],
      "stateMutability": "nonpayable",
      "type": "function"
    },
    {
      "inputs": [],
      "name": "symbol",
      "outputs": [
        {
          "internalType": "string",
          "name": "",
          "type": "string"
        }
      ],
      "stateMutability": "view",
      "type": "function"
    },
    {
      "inputs": [
        {
          "internalType": "contract IERC20Upgradeable",
          "name": "token",
          "type": "address"
        }
      ],
      "name": "totalReleased",
      "outputs": [
        {
          "internalType": "uint256",
          "name": "",
          "type": "uint256"
        }
      ],
      "stateMutability": "view",
      "type": "function"
    },
    {
      "inputs": [],
      "name": "totalReleased",
      "outputs": [
        {
          "internalType": "uint256",
          "name": "",
          "type": "uint256"
        }
      ],
      "stateMutability": "view",
      "type": "function"
    },
    {
      "inputs": [],
      "name": "totalShares",
      "outputs": [
        {
          "internalType": "uint256",
          "name": "",
          "type": "uint256"
        }
      ],
      "stateMutability": "view",
      "type": "function"
    },
    {
      "inputs": [],
      "name": "totalSupply",
      "outputs": [
        {
          "internalType": "uint256",
          "name": "",
          "type": "uint256"
        }
      ],
      "stateMutability": "view",
      "type": "function"
    },
    {
      "inputs": [
        {
          "internalType": "address",
          "name": "to",
          "type": "address"
        },
        {
          "internalType": "uint256",
          "name": "amount",
          "type": "uint256"
        }
      ],
      "name": "transfer",
      "outputs": [
        {
          "internalType": "bool",
          "name": "",
          "type": "bool"
        }
      ],
      "stateMutability": "nonpayable",
      "type": "function"
    },
    {
      "inputs": [
        {
          "internalType": "address",
          "name": "from",
          "type": "address"
        },
        {
          "internalType": "address",
          "name": "to",
          "type": "address"
        },
        {
          "internalType": "uint256",
          "name": "amount",
          "type": "uint256"
        }
      ],
      "name": "transferFrom",
      "outputs": [
        {
          "internalType": "bool",
          "name": "",
          "type": "bool"
        }
      ],
      "stateMutability": "nonpayable",
      "type": "function"
    },
    {
      "inputs": [
        {
          "internalType": "address",
          "name": "newOwner",
          "type": "address"
        }
      ],
      "name": "transferOwnership",
      "outputs": [],
      "stateMutability": "nonpayable",
      "type": "function"
    },
    {
      "inputs": [],
      "name": "unpause",
      "outputs": [],
      "stateMutability": "nonpayable",
      "type": "function"
    },
    {
      "inputs": [
        {
          "internalType": "address",
          "name": "newImplementation",
          "type": "address"
        }
      ],
      "name": "upgradeTo",
      "outputs": [],
      "stateMutability": "nonpayable",
      "type": "function"
    },
    {
      "inputs": [
        {
          "internalType": "address",
          "name": "newImplementation",
          "type": "address"
        },
        {
          "internalType": "bytes",
          "name": "data",
          "type": "bytes"
        }
      ],
      "name": "upgradeToAndCall",
      "outputs": [],
      "stateMutability": "payable",
      "type": "function"
    },
    {
      "inputs": [
        {
          "internalType": "address",
          "name": "",
          "type": "address"
        },
        {
          "internalType": "uint256",
          "name": "",
          "type": "uint256"
        }
      ],
      "name": "userToListedPlanets",
      "outputs": [
        {
          "internalType": "uint256",
          "name": "tokenId",
          "type": "uint256"
        },
        {
          "internalType": "uint256",
          "name": "price",
          "type": "uint256"
        },
        {
          "internalType": "address",
          "name": "ownerAddress",
          "type": "address"
        },
        {
          "internalType": "bool",
          "name": "active",
          "type": "bool"
        }
      ],
      "stateMutability": "view",
      "type": "function"
    },
    {
      "inputs": [
        {
          "internalType": "address",
          "name": "userAddress",
          "type": "address"
        }
      ],
      "name": "usersClaims",
      "outputs": [
        {
          "components": [
            {
              "internalType": "address",
              "name": "ownerParentAddress",
              "type": "address"
            },
            {
              "internalType": "uint256",
              "name": "ownerTokenId",
              "type": "uint256"
            },
            {
              "internalType": "bool",
              "name": "delivered",
              "type": "bool"
            },
            {
              "internalType": "bool",
              "name": "arrived",
              "type": "bool"
            },
            {
              "internalType": "address",
              "name": "otherParent",
              "type": "address"
            },
            {
              "internalType": "uint256",
              "name": "otherTokenId",
              "type": "uint256"
            },
            {
              "internalType": "uint256",
              "name": "claimsTokenId",
              "type": "uint256"
            }
          ],
          "internalType": "struct ClaimablePlanet[]",
          "name": "",
          "type": "tuple[]"
        }
      ],
      "stateMutability": "view",
      "type": "function"
    },
    {
      "inputs": [],
      "name": "withdrawFunds",
      "outputs": [],
      "stateMutability": "nonpayable",
      "type": "function"
    },
    {
      "stateMutability": "payable",
      "type": "receive"
    }
  ],
  "bytecode": "0x60a06040523060805234801561001457600080fd5b506080516156d46200004d600039600081816115b401528181611639015281816119e501528181611a6a0152611d2a01526156d46000f3fe6080604052600436106103bc5760003560e01c8063715018a6116101f2578063c7c0e6b11161010d578063dd62ed3e116100a0578063f2fde38b1161006f578063f2fde38b14610e4e578063fdb4087514610e6e578063fde4976714610e8e578063fe79222914610d1957600080fd5b8063dd62ed3e14610d66578063e22aecb414610dac578063e33b7de314610e17578063ee6e3a2314610e2d57600080fd5b8063d505accf116100dc578063d505accf14610cc2578063d79779b214610ce2578063dbb774d814610d19578063dd22a9c714610d4657600080fd5b8063c7c0e6b114610c2b578063cbdf1b5a14610c4b578063cdb82a3714610c6b578063ce7c2ac214610c8b57600080fd5b80638da5cb5b11610185578063a457c2d711610154578063a457c2d714610b94578063a9059cbb14610bb4578063bd83dc0514610bd4578063c45ac05014610c0b57600080fd5b80638da5cb5b14610b0957806395d89b4114610b285780639852595c14610b3d578063a3f8eace14610b7457600080fd5b80638456cb59116101c15780638456cb591461060c57806384b0196e14610a7057806385fe724314610a985780638b83209b14610ae957600080fd5b8063715018a614610a135780637ecebe0014610a285780638129fc1c14610a485780638230a78414610a5d57600080fd5b806339509351116102e25780634f1ef286116102755780635c975abb116102445780635c975abb146108a75780635e1e4262146108bf5780636a23befb146109c857806370a08231146109dd57600080fd5b80634f1ef2861461085f57806350842cf3146106005780635270ad6c1461087257806352d1902d1461089257600080fd5b80633f4ba83a116102b15780633f4ba83a146107c3578063406072a9146107d857806348b750441461081f5780634a02099b1461083f57600080fd5b806339509351146107235780633a7fb03d146107435780633a98ef39146107635780633b933f851461077957600080fd5b8063200d2ed21161035a578063313ce56711610329578063313ce5671461068357806334ae54e91461069f5780633644e515146106ee5780633659cfe61461070357600080fd5b8063200d2ed21461060c57806323b872dd1461062157806324600fc314610641578063259478181461065657600080fd5b8063150b7a0211610396578063150b7a021461057057806318160ddd146105c157806319165587146105e05780631ac9a91e1461060057600080fd5b806306fdde031461040a578063095ea7b3146104355780630ffb61b71461046557600080fd5b36610405577f6ef95f06320e7a25a04a175ca677b7052bdd97131872c2192525a629f51be77033604080516001600160a01b0390921682523460208301520160405180910390a1005b600080fd5b34801561041657600080fd5b5061041f610eae565b60405161042c9190614cf5565b60405180910390f35b34801561044157600080fd5b50610455610450366004614d1d565b610f40565b604051901515815260200161042c565b34801561047157600080fd5b5061056e610480366004614d49565b6040805160e0810182526001600160a01b0396871680825260208083019788526000838501818152600160608601818152998c166080870190815260a08701998a5260c087019889529483526101cd84529582208054808801825590835292909120935160059092029093018054918a166001600160a01b03199092169190911781559651928701929092555160028601805495519251909716620100000275ffffffffffffffffffffffffffffffffffffffff0000199215156101000261ff00199215159290921661ffff1990961695909517171692909217909355915160038201559051600490910155565b005b34801561057c57600080fd5b5061059061058b366004614e7c565b610f5a565b6040517fffffffff00000000000000000000000000000000000000000000000000000000909116815260200161042c565b3480156105cd57600080fd5b5060cb545b60405190815260200161042c565b3480156105ec57600080fd5b5061056e6105fb366004614ee8565b6111e9565b34801561056e57600080fd5b34801561061857600080fd5b5061056e61135d565b34801561062d57600080fd5b5061045561063c366004614f05565b61136d565b34801561064d57600080fd5b5061056e611391565b34801561066257600080fd5b50610676610671366004614f46565b6113d3565b60405161042c9190614f68565b34801561068f57600080fd5b506040516012815260200161042c565b3480156106ab57600080fd5b506106d66106ba366004614fd7565b6101cc602052600090815260409020546001600160a01b031681565b6040516001600160a01b03909116815260200161042c565b3480156106fa57600080fd5b506105d261159b565b34801561070f57600080fd5b5061056e61071e366004614ee8565b6115aa565b34801561072f57600080fd5b5061045561073e366004614d1d565b611725565b34801561074f57600080fd5b5061056e61075e366004614ff0565b611764565b34801561076f57600080fd5b50610162546105d2565b34801561078557600080fd5b5061056e610794366004614ff0565b60009182526101cc602052604090912080546001600160a01b0319166001600160a01b03909216919091179055565b3480156107cf57600080fd5b5061056e6117f5565b3480156107e457600080fd5b506105d26107f3366004615020565b6001600160a01b0391821660009081526101686020908152604080832093909416825291909152205490565b34801561082b57600080fd5b5061056e61083a366004615020565b611805565b34801561084b57600080fd5b5061056e61085a36600461504e565b61199c565b61056e61086d366004615090565b6119db565b34801561087e57600080fd5b5061056e61088d366004614fd7565b611b43565b34801561089e57600080fd5b506105d2611d1d565b3480156108b357600080fd5b5060335460ff16610455565b3480156108cb57600080fd5b5061056e6108da366004614d49565b6040805160e0810182526001600160a01b039687168082526020808301978852600183850181815260608501828152988b166080860190815260a0860198895260c0860197885260009485526101cd84529584208054808401825590855292909320935160059092029093018054918a166001600160a01b03199092169190911781559651918701919091555160028601805495519251909716620100000275ffffffffffffffffffffffffffffffffffffffff0000199215156101000261ff00199215159290921661ffff1990961695909517171692909217909355915160038201559051600490910155565b3480156109d457600080fd5b50610676611de2565b3480156109e957600080fd5b506105d26109f8366004614ee8565b6001600160a01b0316600090815260c9602052604090205490565b348015610a1f57600080fd5b5061056e611e78565b348015610a3457600080fd5b506105d2610a43366004614ee8565b611e8a565b348015610a5457600080fd5b5061056e611ea9565b61056e610a6b366004614f46565b611fd8565b348015610a7c57600080fd5b50610a856125b5565b60405161042c97969594939291906150e0565b348015610aa457600080fd5b50610ab8610ab3366004614d1d565b612677565b60405161042c949392919093845260208401929092526001600160a01b031660408301521515606082015260800190565b348015610af557600080fd5b506106d6610b04366004614fd7565b6126cf565b348015610b1557600080fd5b50610194546001600160a01b03166106d6565b348015610b3457600080fd5b5061041f612700565b348015610b4957600080fd5b506105d2610b58366004614ee8565b6001600160a01b03166000908152610165602052604090205490565b348015610b8057600080fd5b506105d2610b8f366004614ee8565b61270f565b348015610ba057600080fd5b50610455610baf366004614d1d565b612759565b348015610bc057600080fd5b50610455610bcf366004614d1d565b612803565b348015610be057600080fd5b506106d6610bef366004614fd7565b60009081526101cc60205260409020546001600160a01b031690565b348015610c1757600080fd5b506105d2610c26366004615020565b612811565b348015610c3757600080fd5b5061056e610c46366004614fd7565b6128ef565b348015610c5757600080fd5b5061056e610c66366004614f46565b612905565b348015610c7757600080fd5b5061056e610c86366004614ee8565b612c30565b348015610c9757600080fd5b506105d2610ca6366004614ee8565b6001600160a01b03166000908152610164602052604090205490565b348015610cce57600080fd5b5061056e610cdd366004615195565b612c63565b348015610cee57600080fd5b506105d2610cfd366004614ee8565b6001600160a01b03166000908152610167602052604090205490565b348015610d2557600080fd5b50610d39610d34366004614ee8565b612dc7565b60405161042c919061520c565b348015610d5257600080fd5b50610455610d61366004615020565b612e97565b348015610d7257600080fd5b506105d2610d81366004615020565b6001600160a01b03918216600090815260ca6020908152604080832093909416825291909152205490565b348015610db857600080fd5b50610dcc610dc7366004614d1d565b612f28565b604080516001600160a01b0398891681526020810197909752941515948601949094529115156060850152909316608083015260a082019290925260c081019190915260e00161042c565b348015610e2357600080fd5b50610163546105d2565b348015610e3957600080fd5b506101c6546106d6906001600160a01b031681565b348015610e5a57600080fd5b5061056e610e69366004614ee8565b612f99565b348015610e7a57600080fd5b5061056e610e89366004614ff0565b613026565b348015610e9a57600080fd5b50610676610ea9366004614ee8565b6130b8565b606060cc8054610ebd90615293565b80601f0160208091040260200160405190810160405280929190818152602001828054610ee990615293565b8015610f365780601f10610f0b57610100808354040283529160200191610f36565b820191906000526020600020905b815481529060010190602001808311610f1957829003601f168201915b5050505050905090565b600033610f4e818585613159565b60019150505b92915050565b6000610f9a6040518060400160405280600881526020017f72656365697665720000000000000000000000000000000000000000000000008152506132b1565b81511561100757600082806020019051810190610fb791906152c7565b9050610fc484828761330d565b7f13c6ec2a463a35f898a457814a782f1f567808293fa783a31fa4dac8868e601186868686604051610ff994939291906152e0565b60405180910390a1506111be565b6101c6546001600160a01b03868116911614801561103057506101c8546001600160a01b031633145b156111be576101c8546040517fdc9ce7a5000000000000000000000000000000000000000000000000000000008152600481018590526000916001600160a01b03169063dc9ce7a590602401600060405180830381865afa158015611099573d6000803e3d6000fd5b505050506040513d6000823e601f3d908101601f191682016040526110c191908101906153d9565b50905060008161012001519050600085905060006101cc6000846000815181106110ed576110ed6154f8565b6020026020010151815260200190815260200160002060009054906101000a90046001600160a01b0316905060006101cc600085600181518110611133576111336154f8565b60209081029190910181015182528181019290925260409081016000205481518083019092526001600160a01b0385811683521691810182905290915061117a818561348f565b7f13c6ec2a463a35f898a457814a782f1f567808293fa783a31fa4dac8868e60118b8b8b8b6040516111af949392919061550e565b60405180910390a15050505050505b507f150b7a02000000000000000000000000000000000000000000000000000000005b949350505050565b6001600160a01b038116600090815261016460205260409020546112635760405162461bcd60e51b815260206004820152602660248201527f5061796d656e7453706c69747465723a206163636f756e7420686173206e6f2060448201526573686172657360d01b60648201526084015b60405180910390fd5b600061126e8261270f565b9050806000036112d45760405162461bcd60e51b815260206004820152602b60248201527f5061796d656e7453706c69747465723a206163636f756e74206973206e6f742060448201526a191d59481c185e5b595b9d60aa1b606482015260840161125a565b8061016360008282546112e79190615598565b90915550506001600160a01b03821660009081526101656020526040902080548201905561131582826137a7565b604080516001600160a01b0384168152602081018390527fdf20fd1e76bc69d672e4814fafb2c449bba3a5369d8359adf9e05e6fde87b056910160405180910390a15050565b565b6113656138c5565b61135b613920565b60003361137b85828561397a565b611386858585613a06565b506001949350505050565b6113996138c5565b6113a1613bfa565b604051339081904780156108fc02916000818181858888f193505050501580156113cf573d6000803e3d6000fd5b5050565b60608282116114245760405162461bcd60e51b815260206004820152600d60248201527f496e76616c696420696e64657800000000000000000000000000000000000000604482015260640161125a565b6101cb548211156114775760405162461bcd60e51b815260206004820152601360248201527f496e646578206f7574206f6620626f756e647300000000000000000000000000604482015260640161125a565b600061148384846155ab565b67ffffffffffffffff81111561149b5761149b614d9b565b6040519080825280602002602001820160405280156114ed57816020015b6040805160808101825260008082526020808301829052928201819052606082015282526000199092019101816114b95790505b509050835b83811015611593576101cb818154811061150e5761150e6154f8565b600091825260209182902060408051608081018252600393909302909101805483526001810154938301939093526002909201546001600160a01b03811692820192909252600160a01b90910460ff16151560608201528261157087846155ab565b81518110611580576115806154f8565b60209081029190910101526001016114f2565b509392505050565b60006115a5613c4d565b905090565b6001600160a01b037f00000000000000000000000000000000000000000000000000000000000000001630036116375760405162461bcd60e51b815260206004820152602c60248201527f46756e6374696f6e206d7573742062652063616c6c6564207468726f7567682060448201526b19195b1959d85d1958d85b1b60a21b606482015260840161125a565b7f00000000000000000000000000000000000000000000000000000000000000006001600160a01b03166116927f360894a13ba1a3210667c828492db98dca3e2076cc3735a920a3ca505d382bbc546001600160a01b031690565b6001600160a01b0316146116fd5760405162461bcd60e51b815260206004820152602c60248201527f46756e6374696f6e206d7573742062652063616c6c6564207468726f7567682060448201526b6163746976652070726f787960a01b606482015260840161125a565b61170681613c57565b6040805160008082526020820190925261172291839190613c5f565b50565b33600081815260ca602090815260408083206001600160a01b0387168452909152812054909190610f4e908290869061175f908790615598565b613159565b61176c6138c5565b611774613bfa565b60008281526101cc60205260409020546001600160a01b03166117978382613dff565b506117a183613e93565b6101c854604080516001600160a01b038086168252909216602083015281018490527ffbabfabc293b9daf3d9f8a42d485f10715027db90fd73abbe4ae4b4424decd049060600160405180910390a1505050565b6117fd6138c5565b61135b613f33565b6001600160a01b0381166000908152610164602052604090205461187a5760405162461bcd60e51b815260206004820152602660248201527f5061796d656e7453706c69747465723a206163636f756e7420686173206e6f2060448201526573686172657360d01b606482015260840161125a565b60006118868383612811565b9050806000036118ec5760405162461bcd60e51b815260206004820152602b60248201527f5061796d656e7453706c69747465723a206163636f756e74206973206e6f742060448201526a191d59481c185e5b595b9d60aa1b606482015260840161125a565b6001600160a01b0383166000908152610167602052604081208054839290611915908490615598565b90915550506001600160a01b03808416600090815261016860209081526040808320938616835292905220805482019055611951838383613f6c565b604080516001600160a01b038481168252602082018490528516917f3be5b7a71e84ed12875d241991c70855ac5817d847039e17a9d895c1ceb0f18a910160405180910390a2505050565b6119a4613bfa565b6101c9919091556101c680546001600160a01b039384166001600160a01b0319918216179091556101c88054929093169116179055565b6001600160a01b037f0000000000000000000000000000000000000000000000000000000000000000163003611a685760405162461bcd60e51b815260206004820152602c60248201527f46756e6374696f6e206d7573742062652063616c6c6564207468726f7567682060448201526b19195b1959d85d1958d85b1b60a21b606482015260840161125a565b7f00000000000000000000000000000000000000000000000000000000000000006001600160a01b0316611ac37f360894a13ba1a3210667c828492db98dca3e2076cc3735a920a3ca505d382bbc546001600160a01b031690565b6001600160a01b031614611b2e5760405162461bcd60e51b815260206004820152602c60248201527f46756e6374696f6e206d7573742062652063616c6c6564207468726f7567682060448201526b6163746976652070726f787960a01b606482015260840161125a565b611b3782613c57565b6113cf82826001613c5f565b611b4b613bfa565b60008181526101cc602052604090205433906001600160a01b0316808214611bed57611b7681613fd7565b611b7f82613fd7565b60405162461bcd60e51b815260206004820152603260248201527f636c61696d206d7573742062652066726f6d20636c61696d616e74732061646460448201527f726573732d2d20646973616c6c6f7765642e0000000000000000000000000000606482015260840161125a565b611c2b6040518060400160405280601781526020017f2d2d4e46542d2d20437469642c207468656e20757365720000000000000000008152506132b1565b611c3483614038565b611c3d82613fd7565b6000611c498484613dff565b905080611cbe5760405162461bcd60e51b815260206004820152602f60248201527f4661696c656420746f2073656e64204e46542e20436865636b20436c61696d6160448201527f6e7420546f6b656e49642073656e740000000000000000000000000000000000606482015260840161125a565b611cc784613e93565b6101c854604080516001600160a01b038087168252909216602083015281018590527ffbabfabc293b9daf3d9f8a42d485f10715027db90fd73abbe4ae4b4424decd04906060015b60405180910390a150505050565b6000306001600160a01b037f00000000000000000000000000000000000000000000000000000000000000001614611dbd5760405162461bcd60e51b815260206004820152603860248201527f555550535570677261646561626c653a206d757374206e6f742062652063616c60448201527f6c6564207468726f7567682064656c656761746563616c6c0000000000000000606482015260840161125a565b507f360894a13ba1a3210667c828492db98dca3e2076cc3735a920a3ca505d382bbc90565b60606101cb805480602002602001604051908101604052809291908181526020016000905b82821015611e6f576000848152602090819020604080516080810182526003860290920180548352600180820154848601526002909101546001600160a01b03811692840192909252600160a01b90910460ff16151560608301529083529092019101611e07565b50505050905090565b611e806138c5565b61135b6000614096565b6001600160a01b038116600090815261012f6020526040812054610f54565b600054610100900460ff1615808015611ec95750600054600160ff909116105b80611ee35750303b158015611ee3575060005460ff166001145b611f555760405162461bcd60e51b815260206004820152602e60248201527f496e697469616c697a61626c653a20636f6e747261637420697320616c72656160448201527f647920696e697469616c697a6564000000000000000000000000000000000000606482015260840161125a565b6000805460ff191660011790558015611f78576000805461ff0019166101001790555b611f806140e9565b611f8861415c565b611f906141cf565b8015611722576000805461ff0019169055604051600181527f7f26b83ff96e1f2b6a682f133852f6798a09c465da95921460cefb38474024989060200160405180910390a150565b611fe0613bfa565b6000611feb8261423a565b6101c8546040517f6352211e000000000000000000000000000000000000000000000000000000008152600481018690529192506000916001600160a01b0390911690636352211e90602401602060405180830381865afa158015612054573d6000803e3d6000fd5b505050506040513d601f19601f8201168201806040525081019061207891906155be565b90506001600160a01b03811633146120f85760405162461bcd60e51b815260206004820152603260248201527f596f7520646f206e6f74206f776e2074686520706c616e657420796f7520617260448201527f6520747279696e6720746f2062726565642e0000000000000000000000000000606482015260840161125a565b816101c9546121079190615598565b34101561217c5760405162461bcd60e51b815260206004820152602a60248201527f496e73756666696369656e742066756e647320746f20636f766572205652462060448201527f616e642070726963652e00000000000000000000000000000000000000000000606482015260840161125a565b33600080805b6101cb5481101561222957866101cb82815481106121a2576121a26154f8565b90600052602060002090600302016000015403612221576101cb81815481106121cd576121cd6154f8565b906000526020600020906003020160020160009054906101000a90046001600160a01b031692506101cb8181548110612208576122086154f8565b9060005260206000209060030201600001549150612229565b600101612182565b506000606461223987605f6155db565b61224391906155f2565b90506000836001600160a01b03168260405160006040518083038185875af1925050503d8060008114612292576040519150601f19603f3d011682016040523d82523d6000602084013e612297565b606091505b50509050806122e85760405162461bcd60e51b815260206004820152601460248201527f4661696c656420746f2073656e64204574686572000000000000000000000000604482015260640161125a565b6101c6546101c9546040517f4e9e6a07000000000000000000000000000000000000000000000000000000008152600481018c9052602481018b9052600060448201526001600160a01b0390921691634e9e6a07919060640160206040518083038185885af115801561235f573d6000803e3d6000fd5b50505050506040513d601f19601f8201168201806040525081019061238491906152c7565b506040805160e0810182526001600160a01b0380881680835260208084018e81526000858701818152606087018281528c87166080890190815260a089018d815260c08a018581528886526101cd88528b86208054600181810183559188528988208d516005909202018054918d166001600160a01b0319928316178155985191890191909155945160028801805495519451909b16620100000275ffffffffffffffffffffffffffffffffffffffff0000199415156101000261ff00199215159290921661ffff199096169590951717929092169290921790975551600384015594516004909201919091558e81526101cc9091529390932080549091169092179091556101c954612498908490615598565b341115612559576000336001600160a01b0316846101c954346124bb91906155ab565b6124c591906155ab565b604051600081818185875af1925050503d8060008114612501576040519150601f19603f3d011682016040523d82523d6000602084013e612506565b606091505b50509050806125575760405162461bcd60e51b815260206004820152601d60248201527f4661696c656420746f20726566756e6420657863657373204574686572000000604482015260640161125a565b505b604080518b81526001600160a01b0388811660208301528183018c90528716606082015290517f8557df6951fbdd47fe9027516fc896be40f285ed55a6acac460352adbab730cd9181900360800190a150505050505050505050565b60006060806000806000606060fb546000801b1480156125d5575060fc54155b6126215760405162461bcd60e51b815260206004820152601560248201527f4549503731323a20556e696e697469616c697a65640000000000000000000000604482015260640161125a565b6126296142db565b6126316142ea565b604080516000808252602082019092527f0f000000000000000000000000000000000000000000000000000000000000009b939a50919850469750309650945092509050565b6101ca602052816000526040600020818154811061269457600080fd5b60009182526020909120600390910201805460018201546002909201549093509091506001600160a01b03811690600160a01b900460ff1684565b600061016682815481106126e5576126e56154f8565b6000918252602090912001546001600160a01b031692915050565b606060cd8054610ebd90615293565b60008061271c6101635490565b6127269047615598565b9050612752838261274d866001600160a01b03166000908152610165602052604090205490565b6142f9565b9392505050565b33600081815260ca602090815260408083206001600160a01b0387168452909152812054909190838110156127f65760405162461bcd60e51b815260206004820152602560248201527f45524332303a2064656372656173656420616c6c6f77616e63652062656c6f7760448201527f207a65726f000000000000000000000000000000000000000000000000000000606482015260840161125a565b6113868286868403613159565b600033610f4e818585613a06565b6001600160a01b0382166000908152610167602052604081205481906040517f70a082310000000000000000000000000000000000000000000000000000000081523060048201526001600160a01b038616906370a0823190602401602060405180830381865afa15801561288a573d6000803e3d6000fd5b505050506040513d601f19601f820116820180604052508101906128ae91906152c7565b6128b89190615598565b6001600160a01b03808616600090815261016860209081526040808320938816835292905220549091506111e190849083906142f9565b6128f76138c5565b6128ff613bfa565b6101c955565b61290d613bfa565b6101cb54821061295f5760405162461bcd60e51b815260206004820152601360248201527f496e646578206f7574206f6620626f756e647300000000000000000000000000604482015260640161125a565b600033905060006101cb848154811061297a5761297a6154f8565b6000918252602091829020604080516080810182526003909302909101805483526001810154938301939093526002909201546001600160a01b03811692820183905260ff600160a01b9091041615156060820152915033146129dc57600080fd5b6040518060800160405280826000015181526020016000815260200182604001516001600160a01b03168152602001600015158152506101cb8581548110612a2657612a266154f8565b60009182526020808320845160039093020191825583810151600180840191909155604080860151600290940180546060909701511515600160a01b0274ffffffffffffffffffffffffffffffffffffffffff199097166001600160a01b0390951694909417959095179092553383526101ca905291902080549091612aab916155ab565b81548110612abb57612abb6154f8565b90600052602060002090600302016101ca6000336001600160a01b03166001600160a01b031681526020019081526020016000208581548110612b0057612b006154f8565b60009182526020808320845460039093020191825560018085015490830155600293840180549490920180546001600160a01b031981166001600160a01b039096169586178255925460ff600160a01b918290041615150274ffffffffffffffffffffffffffffffffffffffffff19909316909417919091179092553381526101ca90915260409020805480612b9857612b98615614565b6000828152602081206003600019909301928302018181556001810191909155600201805474ffffffffffffffffffffffffffffffffffffffffff191690559055612be38383613dff565b506101c8548151604080516001600160a01b03808716825290931660208401528201527f0ece05e698e9e143fb75b2ad0aba7f141238c27b6d3e9728898183ee0d68498b90606001611d0f565b612c386138c5565b612c40613bfa565b6101c780546001600160a01b0319166001600160a01b0392909216919091179055565b83421115612cb35760405162461bcd60e51b815260206004820152601d60248201527f45524332305065726d69743a206578706972656420646561646c696e65000000604482015260640161125a565b60007f6e71edae12b1b97f4d1f60370fef10105fa2faae0126114a169c64845d6126c9888888612ce28c614339565b6040805160208101969096526001600160a01b0394851690860152929091166060840152608083015260a082015260c0810186905260e0016040516020818303038152906040528051906020012090506000612d3d82614360565b90506000612d4d828787876143a8565b9050896001600160a01b0316816001600160a01b031614612db05760405162461bcd60e51b815260206004820152601e60248201527f45524332305065726d69743a20696e76616c6964207369676e61747572650000604482015260640161125a565b612dbb8a8a8a613159565b50505050505050505050565b6001600160a01b03811660009081526101cd60209081526040808320805482518185028101850190935280835260609492939192909184015b82821015612e8c5760008481526020908190206040805160e0810182526005860290920180546001600160a01b03908116845260018083015485870152600283015460ff80821615159587019590955261010081049094161515606086015262010000909304166080840152600381015460a08401526004015460c08301529083529092019101612e00565b505050509050919050565b6101c8546040517fe985e9c50000000000000000000000000000000000000000000000000000000081526001600160a01b0384811660048301528381166024830152600092169063e985e9c590604401602060405180830381865afa158015612f04573d6000803e3d6000fd5b505050506040513d601f19601f82011682018060405250810190612752919061562a565b6101cd6020528160005260406000208181548110612f4557600080fd5b6000918252602090912060059091020180546001820154600283015460038401546004909401546001600160a01b03938416965091945060ff80821694610100830490911693620100009092049091169187565b612fa16138c5565b6001600160a01b03811661301d5760405162461bcd60e51b815260206004820152602660248201527f4f776e61626c653a206e6577206f776e657220697320746865207a65726f206160448201527f6464726573730000000000000000000000000000000000000000000000000000606482015260840161125a565b61172281614096565b61302e6138c5565b6101c8546040517f23b872dd0000000000000000000000000000000000000000000000000000000081523060048201526001600160a01b03838116602483015260448201859052909116906323b872dd90606401600060405180830381600087803b15801561309c57600080fd5b505af11580156130b0573d6000803e3d6000fd5b505050505050565b6001600160a01b03811660009081526101ca60209081526040808320805482518185028101850190935280835260609492939192909184015b82821015612e8c576000848152602090819020604080516080810182526003860290920180548352600180820154848601526002909101546001600160a01b03811692840192909252600160a01b90910460ff161515606083015290835290920191016130f1565b6001600160a01b0383166131d45760405162461bcd60e51b8152602060048201526024808201527f45524332303a20617070726f76652066726f6d20746865207a65726f2061646460448201527f7265737300000000000000000000000000000000000000000000000000000000606482015260840161125a565b6001600160a01b0382166132505760405162461bcd60e51b815260206004820152602260248201527f45524332303a20617070726f766520746f20746865207a65726f20616464726560448201527f7373000000000000000000000000000000000000000000000000000000000000606482015260840161125a565b6001600160a01b03838116600081815260ca602090815260408083209487168084529482529182902085905590518481527f8c5be1e5ebec7d5bd14f71427d1e84f3dd0314c0f7b2291e5b200ac8c7c3b925910160405180910390a3505050565b611722816040516024016132c59190614cf5565b60408051601f198184030181529190526020810180516001600160e01b03167f41304fac000000000000000000000000000000000000000000000000000000001790526143d0565b604080516080808201835285825260208083018681526001600160a01b03868116858701818152600160608089018281526101cb8054808501825560009182528b5160039182027fe8bbfecd380c4167d6a1f763a233ec73e73f534b1970c4e1683f437ec23c1f4481019190915589517fe8bbfecd380c4167d6a1f763a233ec73e73f534b1970c4e1683f437ec23c1f4582015586517fe8bbfecd380c4167d6a1f763a233ec73e73f534b1970c4e1683f437ec23c1f46909101805485511515600160a01b90810274ffffffffffffffffffffffffffffffffffffffffff19928316948d1694909417939093179091559783526101ca8b528d832080548088018255908452928b90208d5193909202909101918255975193810193909355925160029092018054935115159096029290931690841617179092556101c854865133815291169281019290925293810187905292830185905290917fb30319a217488a3ed441c348e935a48d16091e33109bab0c79a353b9797528839101611d0f565b81516020808401516001600160a01b03831660009081526101cd909252604090912054156135e65760005b6001600160a01b03831660009081526101cd60205260409020548110156135e0576001600160a01b0383811660009081526101cd602052604090208054918416918390811061350b5761350b6154f8565b60009182526020909120600590910201600201546201000090046001600160a01b0316036135d8576001600160a01b03831660009081526101cd6020526040902080546001919083908110613562576135626154f8565b906000526020600020906005020160020160016101000a81548160ff021916908315150217905550836101cd6000856001600160a01b03166001600160a01b0316815260200190815260200160002082815481106135c2576135c26154f8565b9060005260206000209060050201600401819055505b6001016134ba565b506137a1565b6020808501516001600160a01b031660009081526101cd9091526040902054156137335760005b6001600160a01b03821660009081526101cd60205260409020548110156135e0576001600160a01b0382811660009081526101cd602052604090208054918516918390811061365e5761365e6154f8565b60009182526020909120600590910201600201546201000090046001600160a01b03160361372b576001600160a01b03821660009081526101cd60205260409020805460019190839081106136b5576136b56154f8565b906000526020600020906005020160020160016101000a81548160ff021916908315150217905550836101cd6000846001600160a01b03166001600160a01b031681526020019081526020016000208281548110613715576137156154f8565b9060005260206000209060050201600401819055505b60010161360d565b60405162461bcd60e51b815260206004820152602560248201527f706c616e65742073656e7420657272616e746c792c206e6f206f6e6520746f2060448201527f636c61696d000000000000000000000000000000000000000000000000000000606482015260840161125a565b50505050565b804710156137f75760405162461bcd60e51b815260206004820152601d60248201527f416464726573733a20696e73756666696369656e742062616c616e6365000000604482015260640161125a565b6000826001600160a01b03168260405160006040518083038185875af1925050503d8060008114613844576040519150601f19603f3d011682016040523d82523d6000602084013e613849565b606091505b50509050806138c05760405162461bcd60e51b815260206004820152603a60248201527f416464726573733a20756e61626c6520746f2073656e642076616c75652c207260448201527f6563697069656e74206d61792068617665207265766572746564000000000000606482015260840161125a565b505050565b610194546001600160a01b0316331461135b5760405162461bcd60e51b815260206004820181905260248201527f4f776e61626c653a2063616c6c6572206973206e6f7420746865206f776e6572604482015260640161125a565b613928613bfa565b6033805460ff191660011790557f62e78cea01bee320cd4e420270b5ea74000d11b0c9f74754ebdbfc544b05a25861395d3390565b6040516001600160a01b03909116815260200160405180910390a1565b6001600160a01b03838116600090815260ca602090815260408083209386168352929052205460001981146137a157818110156139f95760405162461bcd60e51b815260206004820152601d60248201527f45524332303a20696e73756666696369656e7420616c6c6f77616e6365000000604482015260640161125a565b6137a18484848403613159565b6001600160a01b038316613a825760405162461bcd60e51b815260206004820152602560248201527f45524332303a207472616e736665722066726f6d20746865207a65726f20616460448201527f6472657373000000000000000000000000000000000000000000000000000000606482015260840161125a565b6001600160a01b038216613afe5760405162461bcd60e51b815260206004820152602360248201527f45524332303a207472616e7366657220746f20746865207a65726f206164647260448201527f6573730000000000000000000000000000000000000000000000000000000000606482015260840161125a565b6001600160a01b038316600090815260c9602052604090205481811015613b8d5760405162461bcd60e51b815260206004820152602660248201527f45524332303a207472616e7366657220616d6f756e742065786365656473206260448201527f616c616e63650000000000000000000000000000000000000000000000000000606482015260840161125a565b6001600160a01b03808516600081815260c9602052604080822086860390559286168082529083902080548601905591517fddf252ad1be2c89b69c2b068fc378daa952ba7f163c4a11628f55a4df523b3ef90613bed9086815260200190565b60405180910390a36137a1565b60335460ff161561135b5760405162461bcd60e51b815260206004820152601060248201527f5061757361626c653a2070617573656400000000000000000000000000000000604482015260640161125a565b60006115a56143d9565b6117226138c5565b7f4910fdfa16fed3260ed0e7147f7cc6da11a60208b5b9406d12a635614ffd91435460ff1615613c92576138c08361444d565b826001600160a01b03166352d1902d6040518163ffffffff1660e01b8152600401602060405180830381865afa925050508015613cec575060408051601f3d908101601f19168201909252613ce9918101906152c7565b60015b613d5e5760405162461bcd60e51b815260206004820152602e60248201527f45524331393637557067726164653a206e657720696d706c656d656e7461746960448201527f6f6e206973206e6f742055555053000000000000000000000000000000000000606482015260840161125a565b7f360894a13ba1a3210667c828492db98dca3e2076cc3735a920a3ca505d382bbc8114613df35760405162461bcd60e51b815260206004820152602960248201527f45524331393637557067726164653a20756e737570706f727465642070726f7860448201527f6961626c65555549440000000000000000000000000000000000000000000000606482015260840161125a565b506138c083838361450b565b6101c8546040517f42842e0e0000000000000000000000000000000000000000000000000000000081523060048201526001600160a01b0383811660248301526044820185905260009216906342842e0e90606401600060405180830381600087803b158015613e6e57600080fd5b505af1925050508015613e7f575060015b613e8b57506000610f54565b506001610f54565b60008181526101cc60209081526040808320546001600160a01b03168084526101cd909252822090915b81548110156137a15783828281548110613ed957613ed96154f8565b90600052602060002090600502016004015403613f2b576001828281548110613f0457613f046154f8565b60009182526020909120600590910201600201805460ff19169115159190911790556137a1565b600101613ebd565b613f3b614530565b6033805460ff191690557f5db9ee0a495bf2e6ff9c91a7834c1ba4fdd244a5e8aa4e537bd38aeae4b073aa3361395d565b604080516001600160a01b038416602482015260448082018490528251808303909101815260649091019091526020810180516001600160e01b03167fa9059cbb000000000000000000000000000000000000000000000000000000001790526138c0908490614582565b6040516001600160a01b03821660248201526117229060440160408051601f198184030181529190526020810180516001600160e01b03167f2c2ecbc2000000000000000000000000000000000000000000000000000000001790526143d0565b6117228160405160240161404e91815260200190565b60408051601f198184030181529190526020810180516001600160e01b03167ff82c50f1000000000000000000000000000000000000000000000000000000001790526143d0565b61019480546001600160a01b038381166001600160a01b0319831681179093556040519116919082907f8be0079c531659141344cd1fd0a4f28419497f9722a3daafe3b4186f6b6457e090600090a35050565b600054610100900460ff166141545760405162461bcd60e51b815260206004820152602b60248201527f496e697469616c697a61626c653a20636f6e7472616374206973206e6f74206960448201526a6e697469616c697a696e6760a81b606482015260840161125a565b61135b61466a565b600054610100900460ff166141c75760405162461bcd60e51b815260206004820152602b60248201527f496e697469616c697a61626c653a20636f6e7472616374206973206e6f74206960448201526a6e697469616c697a696e6760a81b606482015260840161125a565b61135b6146de565b600054610100900460ff1661135b5760405162461bcd60e51b815260206004820152602b60248201527f496e697469616c697a61626c653a20636f6e7472616374206973206e6f74206960448201526a6e697469616c697a696e6760a81b606482015260840161125a565b6000614244613bfa565b60005b6101cb548110156142d457826101cb8281548110614267576142676154f8565b906000526020600020906003020160000154036142ac576101cb8181548110614292576142926154f8565b906000526020600020906003020160010154915050919050565b6101cb546142bc906001906155ab565b81036142cc575060001992915050565b600101614247565b505b919050565b606060fd8054610ebd90615293565b606060fe8054610ebd90615293565b610162546001600160a01b038416600090815261016460205260408120549091839161432590866155db565b61432f91906155f2565b6111e191906155ab565b6001600160a01b038116600090815261012f602052604090208054600181018255906142d4565b6000610f5461436d613c4d565b836040517f19010000000000000000000000000000000000000000000000000000000000008152600281019290925260228201526042902090565b60008060006143b987878787614755565b915091506143c681614819565b5095945050505050565b6117228161497e565b60007f8b73c3c69bb8fe3d512ecc4cf759cc79239f7b179b0ffacaa9a75d522b39400f61440461499f565b61440c6149f8565b60408051602081019490945283019190915260608201524660808201523060a082015260c00160405160208183030381529060405280519060200120905090565b6001600160a01b0381163b6144ca5760405162461bcd60e51b815260206004820152602d60248201527f455243313936373a206e657720696d706c656d656e746174696f6e206973206e60448201527f6f74206120636f6e747261637400000000000000000000000000000000000000606482015260840161125a565b7f360894a13ba1a3210667c828492db98dca3e2076cc3735a920a3ca505d382bbc80546001600160a01b0319166001600160a01b0392909216919091179055565b61451483614a29565b6000825111806145215750805b156138c0576137a18383614a69565b60335460ff1661135b5760405162461bcd60e51b815260206004820152601460248201527f5061757361626c653a206e6f7420706175736564000000000000000000000000604482015260640161125a565b60006145d7826040518060400160405280602081526020017f5361666545524332303a206c6f772d6c6576656c2063616c6c206661696c6564815250856001600160a01b0316614a8e9092919063ffffffff16565b90508051600014806145f85750808060200190518101906145f8919061562a565b6138c05760405162461bcd60e51b815260206004820152602a60248201527f5361666545524332303a204552433230206f7065726174696f6e20646964206e60448201527f6f74207375636365656400000000000000000000000000000000000000000000606482015260840161125a565b600054610100900460ff166146d55760405162461bcd60e51b815260206004820152602b60248201527f496e697469616c697a61626c653a20636f6e7472616374206973206e6f74206960448201526a6e697469616c697a696e6760a81b606482015260840161125a565b61135b33614096565b600054610100900460ff166147495760405162461bcd60e51b815260206004820152602b60248201527f496e697469616c697a61626c653a20636f6e7472616374206973206e6f74206960448201526a6e697469616c697a696e6760a81b606482015260840161125a565b6033805460ff19169055565b6000807f7fffffffffffffffffffffffffffffff5d576e7357a4501ddfe92f46681b20a083111561478c5750600090506003614810565b6040805160008082526020820180845289905260ff881692820192909252606081018690526080810185905260019060a0016020604051602081039080840390855afa1580156147e0573d6000803e3d6000fd5b5050604051601f1901519150506001600160a01b03811661480957600060019250925050614810565b9150600090505b94509492505050565b600081600481111561482d5761482d615645565b036148355750565b600181600481111561484957614849615645565b036148965760405162461bcd60e51b815260206004820152601860248201527f45434453413a20696e76616c6964207369676e61747572650000000000000000604482015260640161125a565b60028160048111156148aa576148aa615645565b036148f75760405162461bcd60e51b815260206004820152601f60248201527f45434453413a20696e76616c6964207369676e6174757265206c656e67746800604482015260640161125a565b600381600481111561490b5761490b615645565b036117225760405162461bcd60e51b815260206004820152602260248201527f45434453413a20696e76616c6964207369676e6174757265202773272076616c60448201527f7565000000000000000000000000000000000000000000000000000000000000606482015260840161125a565b60006a636f6e736f6c652e6c6f679050600080835160208501845afa505050565b6000806149aa6142db565b8051909150156149c1578051602090910120919050565b60fb5480156149d05792915050565b7fc5d2460186f7233c927e7db2dcc703c0e500b653ca82273b7bfad8045d85a4709250505090565b600080614a036142ea565b805190915015614a1a578051602090910120919050565b60fc5480156149d05792915050565b614a328161444d565b6040516001600160a01b038216907fbc7cd75a20ee27fd9adebab32041f755214dbc6bffa90cc0225b39da2e5c2d3b90600090a250565b6060612752838360405180606001604052806027815260200161567860279139614a9d565b60606111e18484600085614b15565b6060600080856001600160a01b031685604051614aba919061565b565b600060405180830381855af49150503d8060008114614af5576040519150601f19603f3d011682016040523d82523d6000602084013e614afa565b606091505b5091509150614b0b86838387614c07565b9695505050505050565b606082471015614b8d5760405162461bcd60e51b815260206004820152602660248201527f416464726573733a20696e73756666696369656e742062616c616e636520666f60448201527f722063616c6c0000000000000000000000000000000000000000000000000000606482015260840161125a565b600080866001600160a01b03168587604051614ba9919061565b565b60006040518083038185875af1925050503d8060008114614be6576040519150601f19603f3d011682016040523d82523d6000602084013e614beb565b606091505b5091509150614bfc87838387614c07565b979650505050505050565b60608315614c76578251600003614c6f576001600160a01b0385163b614c6f5760405162461bcd60e51b815260206004820152601d60248201527f416464726573733a2063616c6c20746f206e6f6e2d636f6e7472616374000000604482015260640161125a565b50816111e1565b6111e18383815115614c8b5781518083602001fd5b8060405162461bcd60e51b815260040161125a9190614cf5565b60005b83811015614cc0578181015183820152602001614ca8565b50506000910152565b60008151808452614ce1816020860160208601614ca5565b601f01601f19169290920160200192915050565b6020815260006127526020830184614cc9565b6001600160a01b038116811461172257600080fd5b60008060408385031215614d3057600080fd5b8235614d3b81614d08565b946020939093013593505050565b600080600080600060a08688031215614d6157600080fd5b8535614d6c81614d08565b9450602086013593506040860135614d8381614d08565b94979396509394606081013594506080013592915050565b634e487b7160e01b600052604160045260246000fd5b604051610160810167ffffffffffffffff81118282101715614dd557614dd5614d9b565b60405290565b604051601f8201601f1916810167ffffffffffffffff81118282101715614e0457614e04614d9b565b604052919050565b600082601f830112614e1d57600080fd5b813567ffffffffffffffff811115614e3757614e37614d9b565b614e4a601f8201601f1916602001614ddb565b818152846020838601011115614e5f57600080fd5b816020850160208301376000918101602001919091529392505050565b60008060008060808587031215614e9257600080fd5b8435614e9d81614d08565b93506020850135614ead81614d08565b925060408501359150606085013567ffffffffffffffff811115614ed057600080fd5b614edc87828801614e0c565b91505092959194509250565b600060208284031215614efa57600080fd5b813561275281614d08565b600080600060608486031215614f1a57600080fd5b8335614f2581614d08565b92506020840135614f3581614d08565b929592945050506040919091013590565b60008060408385031215614f5957600080fd5b50508035926020909101359150565b602080825282518282018190526000919060409081850190868401855b82811015614fca578151805185528681015187860152858101516001600160a01b03168686015260609081015115159085015260809093019290850190600101614f85565b5091979650505050505050565b600060208284031215614fe957600080fd5b5035919050565b6000806040838503121561500357600080fd5b82359150602083013561501581614d08565b809150509250929050565b6000806040838503121561503357600080fd5b823561503e81614d08565b9150602083013561501581614d08565b60008060006060848603121561506357600080fd5b833561506e81614d08565b925060208401359150604084013561508581614d08565b809150509250925092565b600080604083850312156150a357600080fd5b82356150ae81614d08565b9150602083013567ffffffffffffffff8111156150ca57600080fd5b6150d685828601614e0c565b9150509250929050565b7fff00000000000000000000000000000000000000000000000000000000000000881681526000602060e0602084015261511d60e084018a614cc9565b838103604085015261512f818a614cc9565b606085018990526001600160a01b038816608086015260a0850187905284810360c08601528551808252602080880193509091019060005b8181101561518357835183529284019291840191600101615167565b50909c9b505050505050505050505050565b600080600080600080600060e0888a0312156151b057600080fd5b87356151bb81614d08565b965060208801356151cb81614d08565b95506040880135945060608801359350608088013560ff811681146151ef57600080fd5b9699959850939692959460a0840135945060c09093013592915050565b602080825282518282018190526000919060409081850190868401855b82811015614fca57815180516001600160a01b0390811686528782015188870152868201511515878701526060808301511515908701526080808301519091169086015260a0808201519086015260c0908101519085015260e09093019290850190600101615229565b600181811c908216806152a757607f821691505b6020821081036142d457634e487b7160e01b600052602260045260246000fd5b6000602082840312156152d957600080fd5b5051919050565b60006001600160a01b03808716835280861660208401525083604083015260a0606083015261531260a0830184614cc9565b8281036080840152600e81527f6c697374696e6720706c616e657400000000000000000000000000000000000060208201526040810191505095945050505050565b600082601f83011261536557600080fd5b8151602067ffffffffffffffff82111561538157615381614d9b565b8160051b615390828201614ddb565b92835284810182019282810190878511156153aa57600080fd5b83870192505b84831015614bfc578251825291830191908301906153b0565b805180151581146142d657600080fd5b600080604083850312156153ec57600080fd5b825167ffffffffffffffff8082111561540457600080fd5b90840190610160828703121561541957600080fd5b615421614db1565b825181526020830151602082015260408301516040820152606083015160608201526080830151608082015260a083015160a082015260c083015160c082015260e083015160e0820152610100808401518381111561547f57600080fd5b61548b89828701615354565b82840152505061012080840151838111156154a557600080fd5b6154b189828701615354565b82840152505061014080840151838111156154cb57600080fd5b6154d789828701615354565b8284015250508094505050506154ef602084016153c9565b90509250929050565b634e487b7160e01b600052603260045260246000fd5b60006001600160a01b03808716835280861660208401525083604083015260a0606083015261554060a0830184614cc9565b8281036080840152600a81527f6e657720706c616e65740000000000000000000000000000000000000000000060208201526040810191505095945050505050565b634e487b7160e01b600052601160045260246000fd5b80820180821115610f5457610f54615582565b81810381811115610f5457610f54615582565b6000602082840312156155d057600080fd5b815161275281614d08565b8082028115828204841417610f5457610f54615582565b60008261560f57634e487b7160e01b600052601260045260246000fd5b500490565b634e487b7160e01b600052603160045260246000fd5b60006020828403121561563c57600080fd5b612752826153c9565b634e487b7160e01b600052602160045260246000fd5b6000825161566d818460208701614ca5565b919091019291505056fe416464726573733a206c6f772d6c6576656c2064656c65676174652063616c6c206661696c6564a26469706673582212204d5832b46f7c120be0b87409f52444f921a47afb684e747735e2ed668c6f0a0c64736f6c63430008180033",
  "linkReferences": {},
  "deployedLinkReferences": {}
}