{
  "_format": "hh-sol-artifact-1",
  "contractName": "InternalTests",
  "sourceName": "contracts/test/InternalTests.sol",
  "abi": [
    {
      "inputs": [],
      "stateMutability": "nonpayable",
      "type": "constructor"
    },
    {
      "inputs": [],
      "name": "Unauthorized",
      "type": "error"
    },
    {
      "anonymous": false,
      "inputs": [
        {
          "indexed": false,
          "internalType": "address",
          "name": "previousAdmin",
          "type": "address"
        },
        {
          "indexed": false,
          "internalType": "address",
          "name": "newAdmin",
          "type": "address"
        }
      ],
      "name": "AdminChanged",
      "type": "event"
    },
    {
      "anonymous": false,
      "inputs": [
        {
          "indexed": true,
          "internalType": "address",
          "name": "owner",
          "type": "address"
        },
        {
          "indexed": true,
          "internalType": "address",
          "name": "spender",
          "type": "address"
        },
        {
          "indexed": false,
          "internalType": "uint256",
          "name": "value",
          "type": "uint256"
        }
      ],
      "name": "Approval",
      "type": "event"
    },
    {
      "anonymous": false,
      "inputs": [
        {
          "indexed": true,
          "internalType": "address",
          "name": "beacon",
          "type": "address"
        }
      ],
      "name": "BeaconUpgraded",
      "type": "event"
    },
    {
      "anonymous": false,
      "inputs": [
        {
          "indexed": false,
          "internalType": "address",
          "name": "sentToUser",
          "type": "address"
        },
        {
          "indexed": false,
          "internalType": "address",
          "name": "token",
          "type": "address"
        },
        {
          "indexed": false,
          "internalType": "uint256",
          "name": "tokenId",
          "type": "uint256"
        }
      ],
      "name": "DeClaimedAPlanet",
      "type": "event"
    },
    {
      "anonymous": false,
      "inputs": [
        {
          "indexed": false,
          "internalType": "address",
          "name": "sentToUser",
          "type": "address"
        },
        {
          "indexed": false,
          "internalType": "address",
          "name": "token",
          "type": "address"
        },
        {
          "indexed": false,
          "internalType": "uint256",
          "name": "tokenId",
          "type": "uint256"
        }
      ],
      "name": "DeListedAPlanet",
      "type": "event"
    },
    {
      "anonymous": false,
      "inputs": [],
      "name": "EIP712DomainChanged",
      "type": "event"
    },
    {
      "anonymous": false,
      "inputs": [
        {
          "indexed": true,
          "internalType": "contract IERC20Upgradeable",
          "name": "token",
          "type": "address"
        },
        {
          "indexed": false,
          "internalType": "address",
          "name": "to",
          "type": "address"
        },
        {
          "indexed": false,
          "internalType": "uint256",
          "name": "amount",
          "type": "uint256"
        }
      ],
      "name": "ERC20PaymentReleased",
      "type": "event"
    },
    {
      "anonymous": false,
      "inputs": [
        {
          "indexed": false,
          "internalType": "uint8",
          "name": "version",
          "type": "uint8"
        }
      ],
      "name": "Initialized",
      "type": "event"
    },
    {
      "anonymous": false,
      "inputs": [
        {
          "indexed": false,
          "internalType": "address",
          "name": "sentFromUser",
          "type": "address"
        },
        {
          "indexed": false,
          "internalType": "address",
          "name": "token",
          "type": "address"
        },
        {
          "indexed": false,
          "internalType": "uint256",
          "name": "tokenId",
          "type": "uint256"
        },
        {
          "indexed": false,
          "internalType": "uint256",
          "name": "price",
          "type": "uint256"
        }
      ],
      "name": "ListedAPlanet",
      "type": "event"
    },
    {
      "anonymous": false,
      "inputs": [
        {
          "indexed": false,
          "internalType": "address",
          "name": "operator",
          "type": "address"
        },
        {
          "indexed": false,
          "internalType": "address",
          "name": "from",
          "type": "address"
        },
        {
          "indexed": false,
          "internalType": "uint256",
          "name": "tokenId",
          "type": "uint256"
        },
        {
          "indexed": false,
          "internalType": "bytes",
          "name": "data",
          "type": "bytes"
        },
        {
          "indexed": false,
          "internalType": "string",
          "name": "typeOfReceival",
          "type": "string"
        }
      ],
      "name": "NftReceived",
      "type": "event"
    },
    {
      "anonymous": false,
      "inputs": [
        {
          "indexed": true,
          "internalType": "address",
          "name": "previousOwner",
          "type": "address"
        },
        {
          "indexed": true,
          "internalType": "address",
          "name": "newOwner",
          "type": "address"
        }
      ],
      "name": "OwnershipTransferred",
      "type": "event"
    },
    {
      "anonymous": false,
      "inputs": [
        {
          "indexed": false,
          "internalType": "address",
          "name": "account",
          "type": "address"
        }
      ],
      "name": "Paused",
      "type": "event"
    },
    {
      "anonymous": false,
      "inputs": [
        {
          "indexed": false,
          "internalType": "address",
          "name": "account",
          "type": "address"
        },
        {
          "indexed": false,
          "internalType": "uint256",
          "name": "shares",
          "type": "uint256"
        }
      ],
      "name": "PayeeAdded",
      "type": "event"
    },
    {
      "anonymous": false,
      "inputs": [
        {
          "indexed": false,
          "internalType": "address",
          "name": "from",
          "type": "address"
        },
        {
          "indexed": false,
          "internalType": "uint256",
          "name": "amount",
          "type": "uint256"
        }
      ],
      "name": "PaymentReceived",
      "type": "event"
    },
    {
      "anonymous": false,
      "inputs": [
        {
          "indexed": false,
          "internalType": "address",
          "name": "to",
          "type": "address"
        },
        {
          "indexed": false,
          "internalType": "uint256",
          "name": "amount",
          "type": "uint256"
        }
      ],
      "name": "PaymentReleased",
      "type": "event"
    },
    {
      "anonymous": false,
      "inputs": [
        {
          "indexed": false,
          "internalType": "uint256",
          "name": "planetAsking",
          "type": "uint256"
        },
        {
          "indexed": false,
          "internalType": "address",
          "name": "askingUser",
          "type": "address"
        },
        {
          "indexed": false,
          "internalType": "uint256",
          "name": "planetJoining",
          "type": "uint256"
        },
        {
          "indexed": false,
          "internalType": "address",
          "name": "joiningUser",
          "type": "address"
        }
      ],
      "name": "PlanetsConjoining",
      "type": "event"
    },
    {
      "anonymous": false,
      "inputs": [
        {
          "indexed": true,
          "internalType": "address",
          "name": "from",
          "type": "address"
        },
        {
          "indexed": true,
          "internalType": "address",
          "name": "to",
          "type": "address"
        },
        {
          "indexed": false,
          "internalType": "uint256",
          "name": "value",
          "type": "uint256"
        }
      ],
      "name": "Transfer",
      "type": "event"
    },
    {
      "anonymous": false,
      "inputs": [
        {
          "indexed": false,
          "internalType": "address",
          "name": "account",
          "type": "address"
        }
      ],
      "name": "Unpaused",
      "type": "event"
    },
    {
      "anonymous": false,
      "inputs": [
        {
          "indexed": true,
          "internalType": "address",
          "name": "implementation",
          "type": "address"
        }
      ],
      "name": "Upgraded",
      "type": "event"
    },
    {
      "stateMutability": "payable",
      "type": "fallback"
    },
    {
      "inputs": [],
      "name": "DOMAIN_SEPARATOR",
      "outputs": [
        {
          "internalType": "bytes32",
          "name": "",
          "type": "bytes32"
        }
      ],
      "stateMutability": "view",
      "type": "function"
    },
    {
      "inputs": [
        {
          "internalType": "uint256",
          "name": "_claimTokenId",
          "type": "uint256"
        },
        {
          "internalType": "address",
          "name": "_claimAddr",
          "type": "address"
        }
      ],
      "name": "addClaimant",
      "outputs": [],
      "stateMutability": "nonpayable",
      "type": "function"
    },
    {
      "inputs": [
        {
          "internalType": "address",
          "name": "owner",
          "type": "address"
        },
        {
          "internalType": "address",
          "name": "spender",
          "type": "address"
        }
      ],
      "name": "allowance",
      "outputs": [
        {
          "internalType": "uint256",
          "name": "",
          "type": "uint256"
        }
      ],
      "stateMutability": "view",
      "type": "function"
    },
    {
      "inputs": [
        {
          "internalType": "address",
          "name": "spender",
          "type": "address"
        },
        {
          "internalType": "uint256",
          "name": "amount",
          "type": "uint256"
        }
      ],
      "name": "approve",
      "outputs": [
        {
          "internalType": "bool",
          "name": "",
          "type": "bool"
        }
      ],
      "stateMutability": "nonpayable",
      "type": "function"
    },
    {
      "inputs": [
        {
          "internalType": "address",
          "name": "operator",
          "type": "address"
        },
        {
          "internalType": "bool",
          "name": "approved",
          "type": "bool"
        }
      ],
      "name": "approveForAllAsOwner",
      "outputs": [],
      "stateMutability": "nonpayable",
      "type": "function"
    },
    {
      "inputs": [
        {
          "internalType": "address",
          "name": "userAsking",
          "type": "address"
        },
        {
          "internalType": "uint256",
          "name": "askingPlanet",
          "type": "uint256"
        },
        {
          "internalType": "address",
          "name": "otherParent",
          "type": "address"
        },
        {
          "internalType": "uint256",
          "name": "otherTokenId",
          "type": "uint256"
        },
        {
          "internalType": "uint256",
          "name": "cTokenId",
          "type": "uint256"
        }
      ],
      "name": "arriveClaimablePlanet",
      "outputs": [],
      "stateMutability": "nonpayable",
      "type": "function"
    },
    {
      "inputs": [
        {
          "internalType": "address",
          "name": "account",
          "type": "address"
        }
      ],
      "name": "balanceOf",
      "outputs": [
        {
          "internalType": "uint256",
          "name": "",
          "type": "uint256"
        }
      ],
      "stateMutability": "view",
      "type": "function"
    },
    {
      "inputs": [],
      "name": "breedContract",
      "outputs": [
        {
          "internalType": "contract IBreedContract",
          "name": "",
          "type": "address"
        }
      ],
      "stateMutability": "view",
      "type": "function"
    },
    {
      "inputs": [
        {
          "internalType": "uint256",
          "name": "newVRF",
          "type": "uint256"
        }
      ],
      "name": "changeVRFValue",
      "outputs": [],
      "stateMutability": "nonpayable",
      "type": "function"
    },
    {
      "inputs": [
        {
          "internalType": "address",
          "name": "owner",
          "type": "address"
        },
        {
          "internalType": "address",
          "name": "operator",
          "type": "address"
        }
      ],
      "name": "checkApprovalForAll",
      "outputs": [
        {
          "internalType": "bool",
          "name": "",
          "type": "bool"
        }
      ],
      "stateMutability": "view",
      "type": "function"
    },
    {
      "inputs": [
        {
          "internalType": "uint256",
          "name": "claimableTokenId",
          "type": "uint256"
        }
      ],
      "name": "claimPlanet",
      "outputs": [],
      "stateMutability": "nonpayable",
      "type": "function"
    },
    {
      "inputs": [
        {
          "internalType": "address",
          "name": "",
          "type": "address"
        },
        {
          "internalType": "uint256",
          "name": "",
          "type": "uint256"
        }
      ],
      "name": "claimablePlanets",
      "outputs": [
        {
          "internalType": "address",
          "name": "ownerParentAddress",
          "type": "address"
        },
        {
          "internalType": "uint256",
          "name": "ownerTokenId",
          "type": "uint256"
        },
        {
          "internalType": "bool",
          "name": "delivered",
          "type": "bool"
        },
        {
          "internalType": "bool",
          "name": "arrived",
          "type": "bool"
        },
        {
          "internalType": "address",
          "name": "otherParent",
          "type": "address"
        },
        {
          "internalType": "uint256",
          "name": "otherTokenId",
          "type": "uint256"
        },
        {
          "internalType": "uint256",
          "name": "claimsTokenId",
          "type": "uint256"
        }
      ],
      "stateMutability": "view",
      "type": "function"
    },
    {
      "inputs": [
        {
          "internalType": "uint256",
          "name": "",
          "type": "uint256"
        }
      ],
      "name": "claimantTokenIdToOwnerAddress",
      "outputs": [
        {
          "internalType": "address",
          "name": "",
          "type": "address"
        }
      ],
      "stateMutability": "view",
      "type": "function"
    },
    {
      "inputs": [
        {
          "internalType": "uint256",
          "name": "yourPlanet",
          "type": "uint256"
        },
        {
          "internalType": "uint256",
          "name": "withListedPlanet",
          "type": "uint256"
        }
      ],
      "name": "conjunct",
      "outputs": [],
      "stateMutability": "payable",
      "type": "function"
    },
    {
      "inputs": [
        {
          "internalType": "uint256",
          "name": "idIndex",
          "type": "uint256"
        },
        {
          "internalType": "uint256",
          "name": "tokenId",
          "type": "uint256"
        }
      ],
      "name": "deList",
      "outputs": [],
      "stateMutability": "nonpayable",
      "type": "function"
    },
    {
      "inputs": [],
      "name": "deListAllYourPlanets",
      "outputs": [],
      "stateMutability": "nonpayable",
      "type": "function"
    },
    {
      "inputs": [],
      "name": "decimals",
      "outputs": [
        {
          "internalType": "uint8",
          "name": "",
          "type": "uint8"
        }
      ],
      "stateMutability": "view",
      "type": "function"
    },
    {
      "inputs": [
        {
          "internalType": "address",
          "name": "spender",
          "type": "address"
        },
        {
          "internalType": "uint256",
          "name": "subtractedValue",
          "type": "uint256"
        }
      ],
      "name": "decreaseAllowance",
      "outputs": [
        {
          "internalType": "bool",
          "name": "",
          "type": "bool"
        }
      ],
      "stateMutability": "nonpayable",
      "type": "function"
    },
    {
      "inputs": [
        {
          "internalType": "address",
          "name": "userAsking",
          "type": "address"
        },
        {
          "internalType": "uint256",
          "name": "askingPlanet",
          "type": "uint256"
        },
        {
          "internalType": "address",
          "name": "otherParent",
          "type": "address"
        },
        {
          "internalType": "uint256",
          "name": "otherTokenId",
          "type": "uint256"
        },
        {
          "internalType": "uint256",
          "name": "cTokenId",
          "type": "uint256"
        }
      ],
      "name": "deliverClaimablePlanet",
      "outputs": [],
      "stateMutability": "nonpayable",
      "type": "function"
    },
    {
      "inputs": [],
      "name": "eip712Domain",
      "outputs": [
        {
          "internalType": "bytes1",
          "name": "fields",
          "type": "bytes1"
        },
        {
          "internalType": "string",
          "name": "name",
          "type": "string"
        },
        {
          "internalType": "string",
          "name": "version",
          "type": "string"
        },
        {
          "internalType": "uint256",
          "name": "chainId",
          "type": "uint256"
        },
        {
          "internalType": "address",
          "name": "verifyingContract",
          "type": "address"
        },
        {
          "internalType": "bytes32",
          "name": "salt",
          "type": "bytes32"
        },
        {
          "internalType": "uint256[]",
          "name": "extensions",
          "type": "uint256[]"
        }
      ],
      "stateMutability": "view",
      "type": "function"
    },
    {
      "inputs": [],
      "name": "getAllPlanets",
      "outputs": [
        {
          "components": [
            {
              "internalType": "uint256",
              "name": "tokenId",
              "type": "uint256"
            },
            {
              "internalType": "uint256",
              "name": "price",
              "type": "uint256"
            },
            {
              "internalType": "address",
              "name": "ownerAddress",
              "type": "address"
            },
            {
              "internalType": "bool",
              "name": "active",
              "type": "bool"
            }
          ],
          "internalType": "struct ListedPlanet[]",
          "name": "",
          "type": "tuple[]"
        }
      ],
      "stateMutability": "view",
      "type": "function"
    },
    {
      "inputs": [
        {
          "internalType": "address",
          "name": "userAddr",
          "type": "address"
        }
      ],
      "name": "getClaimablePlanetsFor",
      "outputs": [
        {
          "components": [
            {
              "internalType": "address",
              "name": "ownerParentAddress",
              "type": "address"
            },
            {
              "internalType": "uint256",
              "name": "ownerTokenId",
              "type": "uint256"
            },
            {
              "internalType": "bool",
              "name": "delivered",
              "type": "bool"
            },
            {
              "internalType": "bool",
              "name": "arrived",
              "type": "bool"
            },
            {
              "internalType": "address",
              "name": "otherParent",
              "type": "address"
            },
            {
              "internalType": "uint256",
              "name": "otherTokenId",
              "type": "uint256"
            },
            {
              "internalType": "uint256",
              "name": "claimsTokenId",
              "type": "uint256"
            }
          ],
          "internalType": "struct ClaimablePlanet[]",
          "name": "",
          "type": "tuple[]"
        }
      ],
      "stateMutability": "view",
      "type": "function"
    },
    {
      "inputs": [
        {
          "internalType": "uint256",
          "name": "claimableTokenId",
          "type": "uint256"
        }
      ],
      "name": "getClaimantTokenIdToOwnerAddress",
      "outputs": [
        {
          "internalType": "address",
          "name": "",
          "type": "address"
        }
      ],
      "stateMutability": "view",
      "type": "function"
    },
    {
      "inputs": [
        {
          "internalType": "uint256",
          "name": "startIndex",
          "type": "uint256"
        },
        {
          "internalType": "uint256",
          "name": "endIndex",
          "type": "uint256"
        }
      ],
      "name": "getPlanetsPaginated",
      "outputs": [
        {
          "components": [
            {
              "internalType": "uint256",
              "name": "tokenId",
              "type": "uint256"
            },
            {
              "internalType": "uint256",
              "name": "price",
              "type": "uint256"
            },
            {
              "internalType": "address",
              "name": "ownerAddress",
              "type": "address"
            },
            {
              "internalType": "bool",
              "name": "active",
              "type": "bool"
            }
          ],
          "internalType": "struct ListedPlanet[]",
          "name": "",
          "type": "tuple[]"
        }
      ],
      "stateMutability": "view",
      "type": "function"
    },
    {
      "inputs": [
        {
          "internalType": "address",
          "name": "userAddr",
          "type": "address"
        }
      ],
      "name": "getuserToListedPlanets",
      "outputs": [
        {
          "components": [
            {
              "internalType": "uint256",
              "name": "tokenId",
              "type": "uint256"
            },
            {
              "internalType": "uint256",
              "name": "price",
              "type": "uint256"
            },
            {
              "internalType": "address",
              "name": "ownerAddress",
              "type": "address"
            },
            {
              "internalType": "bool",
              "name": "active",
              "type": "bool"
            }
          ],
          "internalType": "struct ListedPlanet[]",
          "name": "",
          "type": "tuple[]"
        }
      ],
      "stateMutability": "view",
      "type": "function"
    },
    {
      "inputs": [
        {
          "internalType": "address",
          "name": "owner",
          "type": "address"
        },
        {
          "internalType": "uint256",
          "name": "tokenId",
          "type": "uint256"
        }
      ],
      "name": "hasPlanetArrived",
      "outputs": [
        {
          "internalType": "bool",
          "name": "arrived",
          "type": "bool"
        }
      ],
      "stateMutability": "view",
      "type": "function"
    },
    {
      "inputs": [
        {
          "internalType": "address",
          "name": "owner",
          "type": "address"
        },
        {
          "internalType": "uint256",
          "name": "tokenId",
          "type": "uint256"
        }
      ],
      "name": "hasPlanetBeenDelivered",
      "outputs": [
        {
          "internalType": "bool",
          "name": "delivered",
          "type": "bool"
        }
      ],
      "stateMutability": "view",
      "type": "function"
    },
    {
      "inputs": [
        {
          "internalType": "address",
          "name": "spender",
          "type": "address"
        },
        {
          "internalType": "uint256",
          "name": "addedValue",
          "type": "uint256"
        }
      ],
      "name": "increaseAllowance",
      "outputs": [
        {
          "internalType": "bool",
          "name": "",
          "type": "bool"
        }
      ],
      "stateMutability": "nonpayable",
      "type": "function"
    },
    {
      "inputs": [
        {
          "internalType": "address",
          "name": "initialOwner",
          "type": "address"
        }
      ],
      "name": "initialize",
      "outputs": [],
      "stateMutability": "nonpayable",
      "type": "function"
    },
    {
      "inputs": [],
      "name": "listAllYourPlanets",
      "outputs": [],
      "stateMutability": "nonpayable",
      "type": "function"
    },
    {
      "inputs": [],
      "name": "name",
      "outputs": [
        {
          "internalType": "string",
          "name": "",
          "type": "string"
        }
      ],
      "stateMutability": "view",
      "type": "function"
    },
    {
      "inputs": [
        {
          "internalType": "address",
          "name": "owner",
          "type": "address"
        }
      ],
      "name": "nonces",
      "outputs": [
        {
          "internalType": "uint256",
          "name": "",
          "type": "uint256"
        }
      ],
      "stateMutability": "view",
      "type": "function"
    },
    {
      "inputs": [
        {
          "internalType": "address",
          "name": "operator",
          "type": "address"
        },
        {
          "internalType": "address",
          "name": "from",
          "type": "address"
        },
        {
          "internalType": "uint256",
          "name": "tokenId",
          "type": "uint256"
        },
        {
          "internalType": "bytes",
          "name": "data",
          "type": "bytes"
        }
      ],
      "name": "onERC721Received",
      "outputs": [
        {
          "internalType": "bytes4",
          "name": "",
          "type": "bytes4"
        }
      ],
      "stateMutability": "nonpayable",
      "type": "function"
    },
    {
      "inputs": [],
      "name": "owner",
      "outputs": [
        {
          "internalType": "address",
          "name": "",
          "type": "address"
        }
      ],
      "stateMutability": "view",
      "type": "function"
    },
    {
      "inputs": [
        {
          "internalType": "uint256",
          "name": "claimableTokenId",
          "type": "uint256"
        },
        {
          "internalType": "address",
          "name": "sendToAddr",
          "type": "address"
        }
      ],
      "name": "ownerClaimPlanet",
      "outputs": [],
      "stateMutability": "nonpayable",
      "type": "function"
    },
    {
      "inputs": [
        {
          "internalType": "uint256",
          "name": "tokenId",
          "type": "uint256"
        },
        {
          "internalType": "address",
          "name": "destinationAddr",
          "type": "address"
        }
      ],
      "name": "ownerOverrideSendNFT",
      "outputs": [],
      "stateMutability": "nonpayable",
      "type": "function"
    },
    {
      "inputs": [],
      "name": "pause",
      "outputs": [],
      "stateMutability": "nonpayable",
      "type": "function"
    },
    {
      "inputs": [],
      "name": "paused",
      "outputs": [
        {
          "internalType": "bool",
          "name": "",
          "type": "bool"
        }
      ],
      "stateMutability": "view",
      "type": "function"
    },
    {
      "inputs": [
        {
          "internalType": "uint256",
          "name": "index",
          "type": "uint256"
        }
      ],
      "name": "payee",
      "outputs": [
        {
          "internalType": "address",
          "name": "",
          "type": "address"
        }
      ],
      "stateMutability": "view",
      "type": "function"
    },
    {
      "inputs": [
        {
          "internalType": "address",
          "name": "owner",
          "type": "address"
        },
        {
          "internalType": "address",
          "name": "spender",
          "type": "address"
        },
        {
          "internalType": "uint256",
          "name": "value",
          "type": "uint256"
        },
        {
          "internalType": "uint256",
          "name": "deadline",
          "type": "uint256"
        },
        {
          "internalType": "uint8",
          "name": "v",
          "type": "uint8"
        },
        {
          "internalType": "bytes32",
          "name": "r",
          "type": "bytes32"
        },
        {
          "internalType": "bytes32",
          "name": "s",
          "type": "bytes32"
        }
      ],
      "name": "permit",
      "outputs": [],
      "stateMutability": "nonpayable",
      "type": "function"
    },
    {
      "inputs": [],
      "name": "proxiableUUID",
      "outputs": [
        {
          "internalType": "bytes32",
          "name": "",
          "type": "bytes32"
        }
      ],
      "stateMutability": "view",
      "type": "function"
    },
    {
      "inputs": [
        {
          "internalType": "address",
          "name": "account",
          "type": "address"
        }
      ],
      "name": "releasable",
      "outputs": [
        {
          "internalType": "uint256",
          "name": "",
          "type": "uint256"
        }
      ],
      "stateMutability": "view",
      "type": "function"
    },
    {
      "inputs": [
        {
          "internalType": "contract IERC20Upgradeable",
          "name": "token",
          "type": "address"
        },
        {
          "internalType": "address",
          "name": "account",
          "type": "address"
        }
      ],
      "name": "releasable",
      "outputs": [
        {
          "internalType": "uint256",
          "name": "",
          "type": "uint256"
        }
      ],
      "stateMutability": "view",
      "type": "function"
    },
    {
      "inputs": [
        {
          "internalType": "address payable",
          "name": "account",
          "type": "address"
        }
      ],
      "name": "release",
      "outputs": [],
      "stateMutability": "nonpayable",
      "type": "function"
    },
    {
      "inputs": [
        {
          "internalType": "contract IERC20Upgradeable",
          "name": "token",
          "type": "address"
        },
        {
          "internalType": "address",
          "name": "account",
          "type": "address"
        }
      ],
      "name": "release",
      "outputs": [],
      "stateMutability": "nonpayable",
      "type": "function"
    },
    {
      "inputs": [
        {
          "internalType": "contract IERC20Upgradeable",
          "name": "token",
          "type": "address"
        },
        {
          "internalType": "address",
          "name": "account",
          "type": "address"
        }
      ],
      "name": "released",
      "outputs": [
        {
          "internalType": "uint256",
          "name": "",
          "type": "uint256"
        }
      ],
      "stateMutability": "view",
      "type": "function"
    },
    {
      "inputs": [
        {
          "internalType": "address",
          "name": "account",
          "type": "address"
        }
      ],
      "name": "released",
      "outputs": [
        {
          "internalType": "uint256",
          "name": "",
          "type": "uint256"
        }
      ],
      "stateMutability": "view",
      "type": "function"
    },
    {
      "inputs": [],
      "name": "renounceOwnership",
      "outputs": [],
      "stateMutability": "nonpayable",
      "type": "function"
    },
    {
      "inputs": [
        {
          "internalType": "address",
          "name": "_breederContractAddr",
          "type": "address"
        },
        {
          "internalType": "uint256",
          "name": "_vrfValue",
          "type": "uint256"
        },
        {
          "internalType": "address",
          "name": "_nftContractAddr",
          "type": "address"
        }
      ],
      "name": "setAllOf",
      "outputs": [],
      "stateMutability": "nonpayable",
      "type": "function"
    },
    {
      "inputs": [
        {
          "internalType": "uint256",
          "name": "_toThisPercentage",
          "type": "uint256"
        }
      ],
      "name": "setMktFee",
      "outputs": [],
      "stateMutability": "nonpayable",
      "type": "function"
    },
    {
      "inputs": [
        {
          "internalType": "address payable",
          "name": "newTAdd",
          "type": "address"
        }
      ],
      "name": "setTAdd",
      "outputs": [],
      "stateMutability": "nonpayable",
      "type": "function"
    },
    {
      "inputs": [
        {
          "internalType": "address",
          "name": "account",
          "type": "address"
        }
      ],
      "name": "shares",
      "outputs": [
        {
          "internalType": "uint256",
          "name": "",
          "type": "uint256"
        }
      ],
      "stateMutability": "view",
      "type": "function"
    },
    {
      "inputs": [],
      "name": "status",
      "outputs": [],
      "stateMutability": "nonpayable",
      "type": "function"
    },
    {
      "inputs": [],
      "name": "symbol",
      "outputs": [
        {
          "internalType": "string",
          "name": "",
          "type": "string"
        }
      ],
      "stateMutability": "view",
      "type": "function"
    },
    {
      "inputs": [
        {
          "internalType": "contract IERC20Upgradeable",
          "name": "token",
          "type": "address"
        }
      ],
      "name": "totalReleased",
      "outputs": [
        {
          "internalType": "uint256",
          "name": "",
          "type": "uint256"
        }
      ],
      "stateMutability": "view",
      "type": "function"
    },
    {
      "inputs": [],
      "name": "totalReleased",
      "outputs": [
        {
          "internalType": "uint256",
          "name": "",
          "type": "uint256"
        }
      ],
      "stateMutability": "view",
      "type": "function"
    },
    {
      "inputs": [],
      "name": "totalShares",
      "outputs": [
        {
          "internalType": "uint256",
          "name": "",
          "type": "uint256"
        }
      ],
      "stateMutability": "view",
      "type": "function"
    },
    {
      "inputs": [],
      "name": "totalSupply",
      "outputs": [
        {
          "internalType": "uint256",
          "name": "",
          "type": "uint256"
        }
      ],
      "stateMutability": "view",
      "type": "function"
    },
    {
      "inputs": [
        {
          "internalType": "address",
          "name": "to",
          "type": "address"
        },
        {
          "internalType": "uint256",
          "name": "amount",
          "type": "uint256"
        }
      ],
      "name": "transfer",
      "outputs": [
        {
          "internalType": "bool",
          "name": "",
          "type": "bool"
        }
      ],
      "stateMutability": "nonpayable",
      "type": "function"
    },
    {
      "inputs": [
        {
          "internalType": "address",
          "name": "from",
          "type": "address"
        },
        {
          "internalType": "address",
          "name": "to",
          "type": "address"
        },
        {
          "internalType": "uint256",
          "name": "amount",
          "type": "uint256"
        }
      ],
      "name": "transferFrom",
      "outputs": [
        {
          "internalType": "bool",
          "name": "",
          "type": "bool"
        }
      ],
      "stateMutability": "nonpayable",
      "type": "function"
    },
    {
      "inputs": [
        {
          "internalType": "address",
          "name": "newOwner",
          "type": "address"
        }
      ],
      "name": "transferOwnership",
      "outputs": [],
      "stateMutability": "nonpayable",
      "type": "function"
    },
    {
      "inputs": [],
      "name": "unpause",
      "outputs": [],
      "stateMutability": "nonpayable",
      "type": "function"
    },
    {
      "inputs": [
        {
          "internalType": "address",
          "name": "newImplementation",
          "type": "address"
        }
      ],
      "name": "upgradeTo",
      "outputs": [],
      "stateMutability": "nonpayable",
      "type": "function"
    },
    {
      "inputs": [
        {
          "internalType": "address",
          "name": "newImplementation",
          "type": "address"
        },
        {
          "internalType": "bytes",
          "name": "data",
          "type": "bytes"
        }
      ],
      "name": "upgradeToAndCall",
      "outputs": [],
      "stateMutability": "payable",
      "type": "function"
    },
    {
      "inputs": [
        {
          "internalType": "address",
          "name": "",
          "type": "address"
        },
        {
          "internalType": "uint256",
          "name": "",
          "type": "uint256"
        }
      ],
      "name": "userToListedPlanets",
      "outputs": [
        {
          "internalType": "uint256",
          "name": "tokenId",
          "type": "uint256"
        },
        {
          "internalType": "uint256",
          "name": "price",
          "type": "uint256"
        },
        {
          "internalType": "address",
          "name": "ownerAddress",
          "type": "address"
        },
        {
          "internalType": "bool",
          "name": "active",
          "type": "bool"
        }
      ],
      "stateMutability": "view",
      "type": "function"
    },
    {
      "inputs": [
        {
          "internalType": "address",
          "name": "userAddress",
          "type": "address"
        }
      ],
      "name": "usersClaims",
      "outputs": [
        {
          "components": [
            {
              "internalType": "address",
              "name": "ownerParentAddress",
              "type": "address"
            },
            {
              "internalType": "uint256",
              "name": "ownerTokenId",
              "type": "uint256"
            },
            {
              "internalType": "bool",
              "name": "delivered",
              "type": "bool"
            },
            {
              "internalType": "bool",
              "name": "arrived",
              "type": "bool"
            },
            {
              "internalType": "address",
              "name": "otherParent",
              "type": "address"
            },
            {
              "internalType": "uint256",
              "name": "otherTokenId",
              "type": "uint256"
            },
            {
              "internalType": "uint256",
              "name": "claimsTokenId",
              "type": "uint256"
            }
          ],
          "internalType": "struct ClaimablePlanet[]",
          "name": "",
          "type": "tuple[]"
        }
      ],
      "stateMutability": "view",
      "type": "function"
    },
    {
      "inputs": [],
      "name": "withdrawFunds",
      "outputs": [],
      "stateMutability": "nonpayable",
      "type": "function"
    },
    {
      "stateMutability": "payable",
      "type": "receive"
    }
  ],
  "bytecode": "0x60a06040523060805234801561001457600080fd5b50608051615c896200004d600039600081816116f00152818161177501528181611b2f01528181611bb40152611e740152615c896000f3fe6080604052600436106103df5760003560e01c8063715018a61161020a578063cbdf1b5a11610119578063dd62ed3e116100b2578063f2fde38b11610084578063fdb408751161006c578063fdb4087514610ed5578063fde4976714610ef5578063fe79222914610d6057005b8063f2fde38b14610e95578063f4c1494314610eb557005b8063dd62ed3e14610dad578063e22aecb414610df3578063e33b7de314610e5e578063ee6e3a2314610e7457005b8063d505accf116100eb578063d505accf14610d09578063d79779b214610d29578063dbb774d814610d60578063dd22a9c714610d8d57005b8063cbdf1b5a14610c72578063cdb82a3714610c92578063ce7c2ac214610cb2578063d28eb2dc14610ce957005b806395d89b41116101a3578063a9059cbb11610175578063c45ac0501161015d578063c45ac05014610c12578063c4d66de814610c32578063c7c0e6b114610c5257005b8063a9059cbb14610bbb578063bd83dc0514610bdb57005b806395d89b4114610b2f5780639852595c14610b44578063a3f8eace14610b7b578063a457c2d714610b9b57005b806384b0196e116101dc57806384b0196e14610a7757806385fe724314610a9f5780638b83209b14610af05780638da5cb5b14610b1057005b8063715018a614610a2f5780637ecebe0014610a445780638230a78414610a645780638456cb591461060857005b806339509351116103065780634d9504491161029f57806352d1902d116102715780635e1e4262116102595780635e1e4262146108db5780636a23befb146109e457806370a08231146109f957005b806352d1902d146108ae5780635c975abb146108c357005b80634d9504491461085b5780634f1ef2861461087b57806350842cf3146105dc5780635270ad6c1461088e57005b80633f4ba83a116102d85780633f4ba83a146107bf578063406072a9146107d457806348b750441461081b5780634a02099b1461083b57005b8063395093511461071f5780633a7fb03d1461073f5780633a98ef391461075f5780633b933f851461077557005b8063200d2ed211610378578063313ce5671161034a578063313ce5671461067f57806334ae54e91461069b5780633644e515146106ea5780633659cfe6146106ff57005b8063200d2ed21461060857806323b872dd1461061d57806324600fc31461063d578063259478181461065257005b806318160ddd116103b157806318160ddd1461059d57806319165587146105bc5780631ac9a91e146105dc5780631dd320ea146105e857005b806306fdde03146103e8578063095ea7b3146104135780630ffb61b714610443578063150b7a021461054c57005b366103e657005b005b3480156103f457600080fd5b506103fd610f15565b60405161040a91906151fd565b60405180910390f35b34801561041f57600080fd5b5061043361042e366004615225565b610fa7565b604051901515815260200161040a565b34801561044f57600080fd5b506103e661045e366004615251565b6040805160e0810182526001600160a01b0396871680825260208083019788526000838501818152600160608601818152998c166080870190815260a08701998a5260c087019889529483526101cd84529582208054808801825590835292909120935160059092029093018054918a166001600160a01b03199092169190911781559651928701929092555160028601805495519251909716620100000275ffffffffffffffffffffffffffffffffffffffff0000199215156101000261ff00199215159290921661ffff1990961695909517171692909217909355915160038201559051600490910155565b34801561055857600080fd5b5061056c610567366004615384565b610fc1565b6040517fffffffff00000000000000000000000000000000000000000000000000000000909116815260200161040a565b3480156105a957600080fd5b5060cb545b60405190815260200161040a565b3480156105c857600080fd5b506103e66105d73660046153f0565b611252565b3480156103e657600080fd5b3480156105f457600080fd5b50610433610603366004615225565b6113c7565b34801561061457600080fd5b506103e6611499565b34801561062957600080fd5b5061043361063836600461540d565b6114a9565b34801561064957600080fd5b506103e66114cd565b34801561065e57600080fd5b5061067261066d36600461544e565b61150f565b60405161040a9190615470565b34801561068b57600080fd5b506040516012815260200161040a565b3480156106a757600080fd5b506106d26106b63660046154df565b6101cc602052600090815260409020546001600160a01b031681565b6040516001600160a01b03909116815260200161040a565b3480156106f657600080fd5b506105ae6116d7565b34801561070b57600080fd5b506103e661071a3660046153f0565b6116e6565b34801561072b57600080fd5b5061043361073a366004615225565b611861565b34801561074b57600080fd5b506103e661075a3660046154f8565b6118a0565b34801561076b57600080fd5b50610162546105ae565b34801561078157600080fd5b506103e66107903660046154f8565b60009182526101cc602052604090912080546001600160a01b0319166001600160a01b03909216919091179055565b3480156107cb57600080fd5b506103e6611931565b3480156107e057600080fd5b506105ae6107ef366004615528565b6001600160a01b0391821660009081526101686020908152604080832093909416825291909152205490565b34801561082757600080fd5b506103e6610836366004615528565b611941565b34801561084757600080fd5b506103e6610856366004615556565b611ad8565b34801561086757600080fd5b506103e66108763660046154df565b611b17565b6103e6610889366004615598565b611b25565b34801561089a57600080fd5b506103e66108a93660046154df565b611c8d565b3480156108ba57600080fd5b506105ae611e67565b3480156108cf57600080fd5b5060335460ff16610433565b3480156108e757600080fd5b506103e66108f6366004615251565b6040805160e0810182526001600160a01b039687168082526020808301978852600183850181815260608501828152988b166080860190815260a0860198895260c0860197885260009485526101cd84529584208054808401825590855292909320935160059092029093018054918a166001600160a01b03199092169190911781559651918701919091555160028601805495519251909716620100000275ffffffffffffffffffffffffffffffffffffffff0000199215156101000261ff00199215159290921661ffff1990961695909517171692909217909355915160038201559051600490910155565b3480156109f057600080fd5b50610672611f2c565b348015610a0557600080fd5b506105ae610a143660046153f0565b6001600160a01b0316600090815260c9602052604090205490565b348015610a3b57600080fd5b506103e6611fc2565b348015610a5057600080fd5b506105ae610a5f3660046153f0565b611fd4565b6103e6610a7236600461544e565b611ff3565b348015610a8357600080fd5b50610a8c61289e565b60405161040a97969594939291906155e8565b348015610aab57600080fd5b50610abf610aba366004615225565b612960565b60405161040a949392919093845260208401929092526001600160a01b031660408301521515606082015260800190565b348015610afc57600080fd5b506106d2610b0b3660046154df565b6129b8565b348015610b1c57600080fd5b50610194546001600160a01b03166106d2565b348015610b3b57600080fd5b506103fd6129e9565b348015610b5057600080fd5b506105ae610b5f3660046153f0565b6001600160a01b03166000908152610165602052604090205490565b348015610b8757600080fd5b506105ae610b963660046153f0565b6129f8565b348015610ba757600080fd5b50610433610bb6366004615225565b612a42565b348015610bc757600080fd5b50610433610bd6366004615225565b612aec565b348015610be757600080fd5b506106d2610bf63660046154df565b60009081526101cc60205260409020546001600160a01b031690565b348015610c1e57600080fd5b506105ae610c2d366004615528565b612afa565b348015610c3e57600080fd5b506103e6610c4d3660046153f0565b612bd8565b348015610c5e57600080fd5b506103e6610c6d3660046154df565b612d0a565b348015610c7e57600080fd5b506103e6610c8d36600461544e565b612d20565b348015610c9e57600080fd5b506103e6610cad3660046153f0565b61304b565b348015610cbe57600080fd5b506105ae610ccd3660046153f0565b6001600160a01b03166000908152610164602052604090205490565b348015610cf557600080fd5b506103e6610d043660046156ab565b61307e565b348015610d1557600080fd5b506103e6610d243660046156d9565b61310c565b348015610d3557600080fd5b506105ae610d443660046153f0565b6001600160a01b03166000908152610167602052604090205490565b348015610d6c57600080fd5b50610d80610d7b3660046153f0565b613270565b60405161040a9190615750565b348015610d9957600080fd5b50610433610da8366004615528565b613340565b348015610db957600080fd5b506105ae610dc8366004615528565b6001600160a01b03918216600090815260ca6020908152604080832093909416825291909152205490565b348015610dff57600080fd5b50610e13610e0e366004615225565b6133d1565b604080516001600160a01b0398891681526020810197909752941515948601949094529115156060850152909316608083015260a082019290925260c081019190915260e00161040a565b348015610e6a57600080fd5b50610163546105ae565b348015610e8057600080fd5b506101c6546106d2906001600160a01b031681565b348015610ea157600080fd5b506103e6610eb03660046153f0565b613442565b348015610ec157600080fd5b50610433610ed0366004615225565b6134cf565b348015610ee157600080fd5b506103e6610ef03660046154f8565b61355f565b348015610f0157600080fd5b50610672610f103660046153f0565b6135c0565b606060cc8054610f24906157d7565b80601f0160208091040260200160405190810160405280929190818152602001828054610f50906157d7565b8015610f9d5780601f10610f7257610100808354040283529160200191610f9d565b820191906000526020600020905b815481529060010190602001808311610f8057829003601f168201915b5050505050905090565b600033610fb5818585613661565b60019150505b92915050565b6000808251118015610fde57506101c8546001600160a01b031633145b1561104957600082806020019051810190610ff9919061580b565b90506110068482876137b9565b7f13c6ec2a463a35f898a457814a782f1f567808293fa783a31fa4dac8868e60118686868660405161103b9493929190615824565b60405180910390a150611227565b6101c8546001600160a01b031633036111e9576101c8546040517fdc9ce7a5000000000000000000000000000000000000000000000000000000008152600481018590526000916001600160a01b03169063dc9ce7a590602401600060405180830381865afa1580156110c0573d6000803e3d6000fd5b505050506040513d6000823e601f3d908101601f191682016040526110e89190810190615918565b50905060008161012001519050600085905060006101cc60008460008151811061111457611114615a37565b6020026020010151815260200190815260200160002060009054906101000a90046001600160a01b0316905060006101cc60008560018151811061115a5761115a615a37565b60209081029190910181015182528181019290925260409081016000205481518083019092526001600160a01b038581168352169181018290529091506111a1818561393b565b7f13c6ec2a463a35f898a457814a782f1f567808293fa783a31fa4dac8868e60118b8b8b8b6040516111d69493929190615a4d565b60405180910390a1505050505050611227565b7f13c6ec2a463a35f898a457814a782f1f567808293fa783a31fa4dac8868e60118585858560405161121e9493929190615ac1565b60405180910390a15b507f150b7a02000000000000000000000000000000000000000000000000000000005b949350505050565b6001600160a01b038116600090815261016460205260409020546112cc5760405162461bcd60e51b815260206004820152602660248201527f5061796d656e7453706c69747465723a206163636f756e7420686173206e6f2060448201526573686172657360d01b60648201526084015b60405180910390fd5b60006112d7826129f8565b90508060000361133d5760405162461bcd60e51b815260206004820152602b60248201527f5061796d656e7453706c69747465723a206163636f756e74206973206e6f742060448201526a191d59481c185e5b595b9d60aa1b60648201526084016112c3565b8061016360008282546113509190615b4b565b90915550506001600160a01b03821660009081526101656020526040902080548201905561137e8282613c53565b604080516001600160a01b0384168152602081018390527fdf20fd1e76bc69d672e4814fafb2c449bba3a5369d8359adf9e05e6fde87b05691015b60405180910390a15050565b565b6001600160a01b03821660009081526101cd60205260408120815b815481101561145057838282815481106113fe576113fe615a37565b906000526020600020906005020160040154036114485781818154811061142757611427615a37565b600091825260209091206002600590920201015460ff169250610fbb915050565b6001016113e2565b5060405162461bcd60e51b815260206004820152601060248201527f506c616e6574206e6f7420666f756e640000000000000000000000000000000060448201526064016112c3565b6114a1613d71565b6113c5613dcc565b6000336114b7858285613e26565b6114c2858585613eb2565b506001949350505050565b6114d5613d71565b6114dd6140a6565b604051339081904780156108fc02916000818181858888f1935050505015801561150b573d6000803e3d6000fd5b5050565b60608282116115605760405162461bcd60e51b815260206004820152600d60248201527f496e76616c696420696e6465780000000000000000000000000000000000000060448201526064016112c3565b6101cb548211156115b35760405162461bcd60e51b815260206004820152601360248201527f496e646578206f7574206f6620626f756e64730000000000000000000000000060448201526064016112c3565b60006115bf8484615b5e565b67ffffffffffffffff8111156115d7576115d76152a3565b60405190808252806020026020018201604052801561162957816020015b6040805160808101825260008082526020808301829052928201819052606082015282526000199092019101816115f55790505b509050835b838110156116cf576101cb818154811061164a5761164a615a37565b600091825260209182902060408051608081018252600393909302909101805483526001810154938301939093526002909201546001600160a01b03811692820192909252600160a01b90910460ff1615156060820152826116ac8784615b5e565b815181106116bc576116bc615a37565b602090810291909101015260010161162e565b509392505050565b60006116e16140f9565b905090565b6001600160a01b037f00000000000000000000000000000000000000000000000000000000000000001630036117735760405162461bcd60e51b815260206004820152602c60248201527f46756e6374696f6e206d7573742062652063616c6c6564207468726f7567682060448201526b19195b1959d85d1958d85b1b60a21b60648201526084016112c3565b7f00000000000000000000000000000000000000000000000000000000000000006001600160a01b03166117ce7f360894a13ba1a3210667c828492db98dca3e2076cc3735a920a3ca505d382bbc546001600160a01b031690565b6001600160a01b0316146118395760405162461bcd60e51b815260206004820152602c60248201527f46756e6374696f6e206d7573742062652063616c6c6564207468726f7567682060448201526b6163746976652070726f787960a01b60648201526084016112c3565b61184281614103565b6040805160008082526020820190925261185e9183919061410b565b50565b33600081815260ca602090815260408083206001600160a01b0387168452909152812054909190610fb5908290869061189b908790615b4b565b613661565b6118a8613d71565b6118b06140a6565b60008281526101cc60205260409020546001600160a01b03166118d383826142ab565b506118dd8361433f565b6101c854604080516001600160a01b038086168252909216602083015281018490527ffbabfabc293b9daf3d9f8a42d485f10715027db90fd73abbe4ae4b4424decd049060600160405180910390a1505050565b611939613d71565b6113c56143df565b6001600160a01b038116600090815261016460205260409020546119b65760405162461bcd60e51b815260206004820152602660248201527f5061796d656e7453706c69747465723a206163636f756e7420686173206e6f2060448201526573686172657360d01b60648201526084016112c3565b60006119c28383612afa565b905080600003611a285760405162461bcd60e51b815260206004820152602b60248201527f5061796d656e7453706c69747465723a206163636f756e74206973206e6f742060448201526a191d59481c185e5b595b9d60aa1b60648201526084016112c3565b6001600160a01b0383166000908152610167602052604081208054839290611a51908490615b4b565b90915550506001600160a01b03808416600090815261016860209081526040808320938616835292905220805482019055611a8d838383614418565b604080516001600160a01b038481168252602082018490528516917f3be5b7a71e84ed12875d241991c70855ac5817d847039e17a9d895c1ceb0f18a910160405180910390a2505050565b611ae06140a6565b6101c9919091556101c680546001600160a01b039384166001600160a01b0319918216179091556101c88054929093169116179055565b611b1f613d71565b6101ce55565b6001600160a01b037f0000000000000000000000000000000000000000000000000000000000000000163003611bb25760405162461bcd60e51b815260206004820152602c60248201527f46756e6374696f6e206d7573742062652063616c6c6564207468726f7567682060448201526b19195b1959d85d1958d85b1b60a21b60648201526084016112c3565b7f00000000000000000000000000000000000000000000000000000000000000006001600160a01b0316611c0d7f360894a13ba1a3210667c828492db98dca3e2076cc3735a920a3ca505d382bbc546001600160a01b031690565b6001600160a01b031614611c785760405162461bcd60e51b815260206004820152602c60248201527f46756e6374696f6e206d7573742062652063616c6c6564207468726f7567682060448201526b6163746976652070726f787960a01b60648201526084016112c3565b611c8182614103565b61150b8282600161410b565b611c956140a6565b60008181526101cc602052604090205433906001600160a01b0316808214611d3757611cc081614483565b611cc982614483565b60405162461bcd60e51b815260206004820152603260248201527f636c61696d206d7573742062652066726f6d20636c61696d616e74732061646460448201527f726573732d2d20646973616c6c6f7765642e000000000000000000000000000060648201526084016112c3565b611d756040518060400160405280601781526020017f2d2d4e46542d2d20437469642c207468656e20757365720000000000000000008152506144e4565b611d7e83614540565b611d8782614483565b6000611d9384846142ab565b905080611e085760405162461bcd60e51b815260206004820152602f60248201527f4661696c656420746f2073656e64204e46542e20436865636b20436c61696d6160448201527f6e7420546f6b656e49642073656e74000000000000000000000000000000000060648201526084016112c3565b611e118461433f565b6101c854604080516001600160a01b038087168252909216602083015281018590527ffbabfabc293b9daf3d9f8a42d485f10715027db90fd73abbe4ae4b4424decd04906060015b60405180910390a150505050565b6000306001600160a01b037f00000000000000000000000000000000000000000000000000000000000000001614611f075760405162461bcd60e51b815260206004820152603860248201527f555550535570677261646561626c653a206d757374206e6f742062652063616c60448201527f6c6564207468726f7567682064656c656761746563616c6c000000000000000060648201526084016112c3565b507f360894a13ba1a3210667c828492db98dca3e2076cc3735a920a3ca505d382bbc90565b60606101cb805480602002602001604051908101604052809291908181526020016000905b82821015611fb9576000848152602090819020604080516080810182526003860290920180548352600180820154848601526002909101546001600160a01b03811692840192909252600160a01b90910460ff16151560608301529083529092019101611f51565b50505050905090565b611fca613d71565b6113c5600061459e565b6001600160a01b038116600090815261012f6020526040812054610fbb565b611ffb6140a6565b8082036120705760405162461bcd60e51b815260206004820152602360248201527f4173657875616c20726570726f64756374696f6e206973206e6f7420616c6c6f60448201527f776564000000000000000000000000000000000000000000000000000000000060648201526084016112c3565b600061207b826145f1565b6101c8546040517f6352211e000000000000000000000000000000000000000000000000000000008152600481018690529192506000916001600160a01b0390911690636352211e90602401602060405180830381865afa1580156120e4573d6000803e3d6000fd5b505050506040513d601f19601f820116820180604052508101906121089190615b71565b90506001600160a01b03811630146121ae5760405162461bcd60e51b815260206004820152604160248201527f596f75206e65656420746f206c6973742f6465706f7369742074686520706c6160448201527f6e657420796f752061726520747279696e6720746f206272656564207769746860648201527f2e00000000000000000000000000000000000000000000000000000000000000608482015260a4016112c3565b60008060005b6101cb5481101561225b57866101cb82815481106121d4576121d4615a37565b90600052602060002090600302016000015403612253576101cb81815481106121ff576121ff615a37565b906000526020600020906003020160020160009054906101000a90046001600160a01b031692506101cb818154811061223a5761223a615a37565b906000526020600020906003020160000154915061225b565b6001016121b4565b506001600160a01b03821633146122da5760405162461bcd60e51b815260206004820152603260248201527f596f7520646f206e6f74206f776e2074686520706c616e657420796f7520617260448201527f6520747279696e6720746f2062726565642e000000000000000000000000000060648201526084016112c3565b600060646101ce54866122ed9190615b8e565b6122f79190615ba5565b905080856101c9546123099190615b4b565b6123139190615b4b565b3410156123885760405162461bcd60e51b815260206004820152603760248201527f496e73756666696369656e742066756e647320746f20636f766572205652462060448201527f636f737420616e6420707269636520616e64206665652e00000000000000000060648201526084016112c3565b33600080805b6101cb5481101561243557896101cb82815481106123ae576123ae615a37565b9060005260206000209060030201600001540361242d576101cb81815481106123d9576123d9615a37565b906000526020600020906003020160020160009054906101000a90046001600160a01b031692506101cb818154811061241457612414615a37565b9060005260206000209060030201600001549150612435565b60010161238e565b506706f05b59d3b200004710156124b45760405162461bcd60e51b815260206004820152603560248201527f436f6e74726163742068617320496e73756666696369656e742062616c616e6360448201527f652c20636f6e746163742068617463686572206871000000000000000000000060648201526084016112c3565b6040516000906001600160a01b038416908a156108fc02908b9084818181858888f1935050505090508061252a5760405162461bcd60e51b815260206004820152601460248201527f4661696c656420746f2073656e6420457468657200000000000000000000000060448201526064016112c3565b6101c6546101c9546040517f4e9e6a07000000000000000000000000000000000000000000000000000000008152600481018e9052602481018d9052600060448201526001600160a01b0390921691634e9e6a07919060640160206040518083038185885af11580156125a1573d6000803e3d6000fd5b50505050506040513d601f19601f820116820180604052508101906125c6919061580b565b5060006040518060e00160405280866001600160a01b031681526020018d8152602001600015158152602001600015158152602001856001600160a01b03168152602001848152602001600081525090506101cd6000866001600160a01b03166001600160a01b0316815260200190815260200160002081908060018154018082558091505060019003906000526020600020906005020160009091909190915060008201518160000160006101000a8154816001600160a01b0302191690836001600160a01b031602179055506020820151816001015560408201518160020160006101000a81548160ff02191690831515021790555060608201518160020160016101000a81548160ff02191690831515021790555060808201518160020160026101000a8154816001600160a01b0302191690836001600160a01b0316021790555060a0820151816003015560c082015181600401555050846101cc60008e815260200190815260200160002060006101000a8154816001600160a01b0302191690836001600160a01b03160217905550858a6101c95461276a9190615b4b565b6127749190615b4b565b341115612840576000336001600160a01b0316878c6101c954346127989190615b5e565b6127a29190615b5e565b6127ac9190615b5e565b604051600081818185875af1925050503d80600081146127e8576040519150601f19603f3d011682016040523d82523d6000602084013e6127ed565b606091505b505090508061283e5760405162461bcd60e51b815260206004820152601d60248201527f4661696c656420746f20726566756e642065786365737320457468657200000060448201526064016112c3565b505b604080518d81526001600160a01b0387811660208301528183018e90528616606082015290517f8557df6951fbdd47fe9027516fc896be40f285ed55a6acac460352adbab730cd9181900360800190a1505050505050505050505050565b60006060806000806000606060fb546000801b1480156128be575060fc54155b61290a5760405162461bcd60e51b815260206004820152601560248201527f4549503731323a20556e696e697469616c697a6564000000000000000000000060448201526064016112c3565b612912614692565b61291a6146a1565b604080516000808252602082019092527f0f000000000000000000000000000000000000000000000000000000000000009b939a50919850469750309650945092509050565b6101ca602052816000526040600020818154811061297d57600080fd5b60009182526020909120600390910201805460018201546002909201549093509091506001600160a01b03811690600160a01b900460ff1684565b600061016682815481106129ce576129ce615a37565b6000918252602090912001546001600160a01b031692915050565b606060cd8054610f24906157d7565b600080612a056101635490565b612a0f9047615b4b565b9050612a3b8382612a36866001600160a01b03166000908152610165602052604090205490565b6146b0565b9392505050565b33600081815260ca602090815260408083206001600160a01b038716845290915281205490919083811015612adf5760405162461bcd60e51b815260206004820152602560248201527f45524332303a2064656372656173656420616c6c6f77616e63652062656c6f7760448201527f207a65726f00000000000000000000000000000000000000000000000000000060648201526084016112c3565b6114c28286868403613661565b600033610fb5818585613eb2565b6001600160a01b0382166000908152610167602052604081205481906040517f70a082310000000000000000000000000000000000000000000000000000000081523060048201526001600160a01b038616906370a0823190602401602060405180830381865afa158015612b73573d6000803e3d6000fd5b505050506040513d601f19601f82011682018060405250810190612b97919061580b565b612ba19190615b4b565b6001600160a01b038086166000908152610168602090815260408083209388168352929052205490915061124a90849083906146b0565b600054610100900460ff1615808015612bf85750600054600160ff909116105b80612c125750303b158015612c12575060005460ff166001145b612c845760405162461bcd60e51b815260206004820152602e60248201527f496e697469616c697a61626c653a20636f6e747261637420697320616c72656160448201527f647920696e697469616c697a656400000000000000000000000000000000000060648201526084016112c3565b6000805460ff191660011790558015612ca7576000805461ff0019166101001790555b612caf6146f0565b612cb7614763565b612cbf6147d6565b612cc882613442565b801561150b576000805461ff0019169055604051600181527f7f26b83ff96e1f2b6a682f133852f6798a09c465da95921460cefb3847402498906020016113b9565b612d12613d71565b612d1a6140a6565b6101c955565b612d286140a6565b6101cb548210612d7a5760405162461bcd60e51b815260206004820152601360248201527f496e646578206f7574206f6620626f756e64730000000000000000000000000060448201526064016112c3565b600033905060006101cb8481548110612d9557612d95615a37565b6000918252602091829020604080516080810182526003909302909101805483526001810154938301939093526002909201546001600160a01b03811692820183905260ff600160a01b909104161515606082015291503314612df757600080fd5b6040518060800160405280826000015181526020016000815260200182604001516001600160a01b03168152602001600015158152506101cb8581548110612e4157612e41615a37565b60009182526020808320845160039093020191825583810151600180840191909155604080860151600290940180546060909701511515600160a01b0274ffffffffffffffffffffffffffffffffffffffffff199097166001600160a01b0390951694909417959095179092553383526101ca905291902080549091612ec691615b5e565b81548110612ed657612ed6615a37565b90600052602060002090600302016101ca6000336001600160a01b03166001600160a01b031681526020019081526020016000208581548110612f1b57612f1b615a37565b60009182526020808320845460039093020191825560018085015490830155600293840180549490920180546001600160a01b031981166001600160a01b039096169586178255925460ff600160a01b918290041615150274ffffffffffffffffffffffffffffffffffffffffff19909316909417919091179092553381526101ca90915260409020805480612fb357612fb3615bc7565b6000828152602081206003600019909301928302018181556001810191909155600201805474ffffffffffffffffffffffffffffffffffffffffff191690559055612ffe83836142ab565b506101c8548151604080516001600160a01b03808716825290931660208401528201527f0ece05e698e9e143fb75b2ad0aba7f141238c27b6d3e9728898183ee0d68498b90606001611e59565b613053613d71565b61305b6140a6565b6101c780546001600160a01b0319166001600160a01b0392909216919091179055565b613086613d71565b6101c8546040517fa22cb4650000000000000000000000000000000000000000000000000000000081526001600160a01b03848116600483015283151560248301529091169063a22cb465906044015b600060405180830381600087803b1580156130f057600080fd5b505af1158015613104573d6000803e3d6000fd5b505050505050565b8342111561315c5760405162461bcd60e51b815260206004820152601d60248201527f45524332305065726d69743a206578706972656420646561646c696e6500000060448201526064016112c3565b60007f6e71edae12b1b97f4d1f60370fef10105fa2faae0126114a169c64845d6126c988888861318b8c614841565b6040805160208101969096526001600160a01b0394851690860152929091166060840152608083015260a082015260c0810186905260e00160405160208183030381529060405280519060200120905060006131e682614868565b905060006131f6828787876148b0565b9050896001600160a01b0316816001600160a01b0316146132595760405162461bcd60e51b815260206004820152601e60248201527f45524332305065726d69743a20696e76616c6964207369676e6174757265000060448201526064016112c3565b6132648a8a8a613661565b50505050505050505050565b6001600160a01b03811660009081526101cd60209081526040808320805482518185028101850190935280835260609492939192909184015b828210156133355760008481526020908190206040805160e0810182526005860290920180546001600160a01b03908116845260018083015485870152600283015460ff80821615159587019590955261010081049094161515606086015262010000909304166080840152600381015460a08401526004015460c083015290835290920191016132a9565b505050509050919050565b6101c8546040517fe985e9c50000000000000000000000000000000000000000000000000000000081526001600160a01b0384811660048301528381166024830152600092169063e985e9c590604401602060405180830381865afa1580156133ad573d6000803e3d6000fd5b505050506040513d601f19601f82011682018060405250810190612a3b9190615bdd565b6101cd60205281600052604060002081815481106133ee57600080fd5b6000918252602090912060059091020180546001820154600283015460038401546004909401546001600160a01b03938416965091945060ff80821694610100830490911693620100009092049091169187565b61344a613d71565b6001600160a01b0381166134c65760405162461bcd60e51b815260206004820152602660248201527f4f776e61626c653a206e6577206f776e657220697320746865207a65726f206160448201527f646472657373000000000000000000000000000000000000000000000000000060648201526084016112c3565b61185e8161459e565b6001600160a01b03821660009081526101cd60205260408120815b8154811015611450578382828154811061350657613506615a37565b906000526020600020906005020160040154036135575781818154811061352f5761352f615a37565b906000526020600020906005020160020160019054906101000a900460ff1692505050610fbb565b6001016134ea565b613567613d71565b6101c8546040517f23b872dd0000000000000000000000000000000000000000000000000000000081523060048201526001600160a01b03838116602483015260448201859052909116906323b872dd906064016130d6565b6001600160a01b03811660009081526101ca60209081526040808320805482518185028101850190935280835260609492939192909184015b82821015613335576000848152602090819020604080516080810182526003860290920180548352600180820154848601526002909101546001600160a01b03811692840192909252600160a01b90910460ff161515606083015290835290920191016135f9565b6001600160a01b0383166136dc5760405162461bcd60e51b8152602060048201526024808201527f45524332303a20617070726f76652066726f6d20746865207a65726f2061646460448201527f726573730000000000000000000000000000000000000000000000000000000060648201526084016112c3565b6001600160a01b0382166137585760405162461bcd60e51b815260206004820152602260248201527f45524332303a20617070726f766520746f20746865207a65726f20616464726560448201527f737300000000000000000000000000000000000000000000000000000000000060648201526084016112c3565b6001600160a01b03838116600081815260ca602090815260408083209487168084529482529182902085905590518481527f8c5be1e5ebec7d5bd14f71427d1e84f3dd0314c0f7b2291e5b200ac8c7c3b925910160405180910390a3505050565b604080516080808201835285825260208083018681526001600160a01b03868116858701818152600160608089018281526101cb8054808501825560009182528b5160039182027fe8bbfecd380c4167d6a1f763a233ec73e73f534b1970c4e1683f437ec23c1f4481019190915589517fe8bbfecd380c4167d6a1f763a233ec73e73f534b1970c4e1683f437ec23c1f4582015586517fe8bbfecd380c4167d6a1f763a233ec73e73f534b1970c4e1683f437ec23c1f46909101805485511515600160a01b90810274ffffffffffffffffffffffffffffffffffffffffff19928316948d1694909417939093179091559783526101ca8b528d832080548088018255908452928b90208d5193909202909101918255975193810193909355925160029092018054935115159096029290931690841617179092556101c854865133815291169281019290925293810187905292830185905290917fb30319a217488a3ed441c348e935a48d16091e33109bab0c79a353b9797528839101611e59565b81516020808401516001600160a01b03831660009081526101cd90925260409091205415613a925760005b6001600160a01b03831660009081526101cd6020526040902054811015613a8c576001600160a01b0383811660009081526101cd60205260409020805491841691839081106139b7576139b7615a37565b60009182526020909120600590910201600201546201000090046001600160a01b031603613a84576001600160a01b03831660009081526101cd6020526040902080546001919083908110613a0e57613a0e615a37565b906000526020600020906005020160020160016101000a81548160ff021916908315150217905550836101cd6000856001600160a01b03166001600160a01b031681526020019081526020016000208281548110613a6e57613a6e615a37565b9060005260206000209060050201600401819055505b600101613966565b50613c4d565b6020808501516001600160a01b031660009081526101cd909152604090205415613bdf5760005b6001600160a01b03821660009081526101cd6020526040902054811015613a8c576001600160a01b0382811660009081526101cd6020526040902080549185169183908110613b0a57613b0a615a37565b60009182526020909120600590910201600201546201000090046001600160a01b031603613bd7576001600160a01b03821660009081526101cd6020526040902080546001919083908110613b6157613b61615a37565b906000526020600020906005020160020160016101000a81548160ff021916908315150217905550836101cd6000846001600160a01b03166001600160a01b031681526020019081526020016000208281548110613bc157613bc1615a37565b9060005260206000209060050201600401819055505b600101613ab9565b60405162461bcd60e51b815260206004820152602560248201527f706c616e65742073656e7420657272616e746c792c206e6f206f6e6520746f2060448201527f636c61696d00000000000000000000000000000000000000000000000000000060648201526084016112c3565b50505050565b80471015613ca35760405162461bcd60e51b815260206004820152601d60248201527f416464726573733a20696e73756666696369656e742062616c616e636500000060448201526064016112c3565b6000826001600160a01b03168260405160006040518083038185875af1925050503d8060008114613cf0576040519150601f19603f3d011682016040523d82523d6000602084013e613cf5565b606091505b5050905080613d6c5760405162461bcd60e51b815260206004820152603a60248201527f416464726573733a20756e61626c6520746f2073656e642076616c75652c207260448201527f6563697069656e74206d6179206861766520726576657274656400000000000060648201526084016112c3565b505050565b610194546001600160a01b031633146113c55760405162461bcd60e51b815260206004820181905260248201527f4f776e61626c653a2063616c6c6572206973206e6f7420746865206f776e657260448201526064016112c3565b613dd46140a6565b6033805460ff191660011790557f62e78cea01bee320cd4e420270b5ea74000d11b0c9f74754ebdbfc544b05a258613e093390565b6040516001600160a01b03909116815260200160405180910390a1565b6001600160a01b03838116600090815260ca60209081526040808320938616835292905220546000198114613c4d5781811015613ea55760405162461bcd60e51b815260206004820152601d60248201527f45524332303a20696e73756666696369656e7420616c6c6f77616e636500000060448201526064016112c3565b613c4d8484848403613661565b6001600160a01b038316613f2e5760405162461bcd60e51b815260206004820152602560248201527f45524332303a207472616e736665722066726f6d20746865207a65726f20616460448201527f647265737300000000000000000000000000000000000000000000000000000060648201526084016112c3565b6001600160a01b038216613faa5760405162461bcd60e51b815260206004820152602360248201527f45524332303a207472616e7366657220746f20746865207a65726f206164647260448201527f657373000000000000000000000000000000000000000000000000000000000060648201526084016112c3565b6001600160a01b038316600090815260c96020526040902054818110156140395760405162461bcd60e51b815260206004820152602660248201527f45524332303a207472616e7366657220616d6f756e742065786365656473206260448201527f616c616e6365000000000000000000000000000000000000000000000000000060648201526084016112c3565b6001600160a01b03808516600081815260c9602052604080822086860390559286168082529083902080548601905591517fddf252ad1be2c89b69c2b068fc378daa952ba7f163c4a11628f55a4df523b3ef906140999086815260200190565b60405180910390a3613c4d565b60335460ff16156113c55760405162461bcd60e51b815260206004820152601060248201527f5061757361626c653a207061757365640000000000000000000000000000000060448201526064016112c3565b60006116e16148d8565b61185e613d71565b7f4910fdfa16fed3260ed0e7147f7cc6da11a60208b5b9406d12a635614ffd91435460ff161561413e57613d6c8361494c565b826001600160a01b03166352d1902d6040518163ffffffff1660e01b8152600401602060405180830381865afa925050508015614198575060408051601f3d908101601f191682019092526141959181019061580b565b60015b61420a5760405162461bcd60e51b815260206004820152602e60248201527f45524331393637557067726164653a206e657720696d706c656d656e7461746960448201527f6f6e206973206e6f74205555505300000000000000000000000000000000000060648201526084016112c3565b7f360894a13ba1a3210667c828492db98dca3e2076cc3735a920a3ca505d382bbc811461429f5760405162461bcd60e51b815260206004820152602960248201527f45524331393637557067726164653a20756e737570706f727465642070726f7860448201527f6961626c6555554944000000000000000000000000000000000000000000000060648201526084016112c3565b50613d6c838383614a0a565b6101c8546040517f42842e0e0000000000000000000000000000000000000000000000000000000081523060048201526001600160a01b0383811660248301526044820185905260009216906342842e0e90606401600060405180830381600087803b15801561431a57600080fd5b505af192505050801561432b575060015b61433757506000610fbb565b506001610fbb565b60008181526101cc60209081526040808320546001600160a01b03168084526101cd909252822090915b8154811015613c4d578382828154811061438557614385615a37565b906000526020600020906005020160040154036143d75760018282815481106143b0576143b0615a37565b60009182526020909120600590910201600201805460ff1916911515919091179055613c4d565b600101614369565b6143e7614a2f565b6033805460ff191690557f5db9ee0a495bf2e6ff9c91a7834c1ba4fdd244a5e8aa4e537bd38aeae4b073aa33613e09565b604080516001600160a01b038416602482015260448082018490528251808303909101815260649091019091526020810180516001600160e01b03167fa9059cbb00000000000000000000000000000000000000000000000000000000179052613d6c908490614a81565b6040516001600160a01b038216602482015261185e9060440160408051601f198184030181529190526020810180516001600160e01b03167f2c2ecbc200000000000000000000000000000000000000000000000000000000179052614b69565b61185e816040516024016144f891906151fd565b60408051601f198184030181529190526020810180516001600160e01b03167f41304fac00000000000000000000000000000000000000000000000000000000179052614b69565b61185e8160405160240161455691815260200190565b60408051601f198184030181529190526020810180516001600160e01b03167ff82c50f100000000000000000000000000000000000000000000000000000000179052614b69565b61019480546001600160a01b038381166001600160a01b0319831681179093556040519116919082907f8be0079c531659141344cd1fd0a4f28419497f9722a3daafe3b4186f6b6457e090600090a35050565b60006145fb6140a6565b60005b6101cb5481101561468b57826101cb828154811061461e5761461e615a37565b90600052602060002090600302016000015403614663576101cb818154811061464957614649615a37565b906000526020600020906003020160010154915050919050565b6101cb5461467390600190615b5e565b8103614683575060001992915050565b6001016145fe565b505b919050565b606060fd8054610f24906157d7565b606060fe8054610f24906157d7565b610162546001600160a01b03841660009081526101646020526040812054909183916146dc9086615b8e565b6146e69190615ba5565b61124a9190615b5e565b600054610100900460ff1661475b5760405162461bcd60e51b815260206004820152602b60248201527f496e697469616c697a61626c653a20636f6e7472616374206973206e6f74206960448201526a6e697469616c697a696e6760a81b60648201526084016112c3565b6113c5614b72565b600054610100900460ff166147ce5760405162461bcd60e51b815260206004820152602b60248201527f496e697469616c697a61626c653a20636f6e7472616374206973206e6f74206960448201526a6e697469616c697a696e6760a81b60648201526084016112c3565b6113c5614be6565b600054610100900460ff166113c55760405162461bcd60e51b815260206004820152602b60248201527f496e697469616c697a61626c653a20636f6e7472616374206973206e6f74206960448201526a6e697469616c697a696e6760a81b60648201526084016112c3565b6001600160a01b038116600090815261012f6020526040902080546001810182559061468b565b6000610fbb6148756140f9565b836040517f19010000000000000000000000000000000000000000000000000000000000008152600281019290925260228201526042902090565b60008060006148c187878787614c5d565b915091506148ce81614d21565b5095945050505050565b60007f8b73c3c69bb8fe3d512ecc4cf759cc79239f7b179b0ffacaa9a75d522b39400f614903614e86565b61490b614edf565b60408051602081019490945283019190915260608201524660808201523060a082015260c00160405160208183030381529060405280519060200120905090565b6001600160a01b0381163b6149c95760405162461bcd60e51b815260206004820152602d60248201527f455243313936373a206e657720696d706c656d656e746174696f6e206973206e60448201527f6f74206120636f6e74726163740000000000000000000000000000000000000060648201526084016112c3565b7f360894a13ba1a3210667c828492db98dca3e2076cc3735a920a3ca505d382bbc80546001600160a01b0319166001600160a01b0392909216919091179055565b614a1383614f10565b600082511180614a205750805b15613d6c57613c4d8383614f50565b60335460ff166113c55760405162461bcd60e51b815260206004820152601460248201527f5061757361626c653a206e6f742070617573656400000000000000000000000060448201526064016112c3565b6000614ad6826040518060400160405280602081526020017f5361666545524332303a206c6f772d6c6576656c2063616c6c206661696c6564815250856001600160a01b0316614f759092919063ffffffff16565b9050805160001480614af7575080806020019051810190614af79190615bdd565b613d6c5760405162461bcd60e51b815260206004820152602a60248201527f5361666545524332303a204552433230206f7065726174696f6e20646964206e60448201527f6f7420737563636565640000000000000000000000000000000000000000000060648201526084016112c3565b61185e81614f84565b600054610100900460ff16614bdd5760405162461bcd60e51b815260206004820152602b60248201527f496e697469616c697a61626c653a20636f6e7472616374206973206e6f74206960448201526a6e697469616c697a696e6760a81b60648201526084016112c3565b6113c53361459e565b600054610100900460ff16614c515760405162461bcd60e51b815260206004820152602b60248201527f496e697469616c697a61626c653a20636f6e7472616374206973206e6f74206960448201526a6e697469616c697a696e6760a81b60648201526084016112c3565b6033805460ff19169055565b6000807f7fffffffffffffffffffffffffffffff5d576e7357a4501ddfe92f46681b20a0831115614c945750600090506003614d18565b6040805160008082526020820180845289905260ff881692820192909252606081018690526080810185905260019060a0016020604051602081039080840390855afa158015614ce8573d6000803e3d6000fd5b5050604051601f1901519150506001600160a01b038116614d1157600060019250925050614d18565b9150600090505b94509492505050565b6000816004811115614d3557614d35615bfa565b03614d3d5750565b6001816004811115614d5157614d51615bfa565b03614d9e5760405162461bcd60e51b815260206004820152601860248201527f45434453413a20696e76616c6964207369676e6174757265000000000000000060448201526064016112c3565b6002816004811115614db257614db2615bfa565b03614dff5760405162461bcd60e51b815260206004820152601f60248201527f45434453413a20696e76616c6964207369676e6174757265206c656e6774680060448201526064016112c3565b6003816004811115614e1357614e13615bfa565b0361185e5760405162461bcd60e51b815260206004820152602260248201527f45434453413a20696e76616c6964207369676e6174757265202773272076616c60448201527f756500000000000000000000000000000000000000000000000000000000000060648201526084016112c3565b600080614e91614692565b805190915015614ea8578051602090910120919050565b60fb548015614eb75792915050565b7fc5d2460186f7233c927e7db2dcc703c0e500b653ca82273b7bfad8045d85a4709250505090565b600080614eea6146a1565b805190915015614f01578051602090910120919050565b60fc548015614eb75792915050565b614f198161494c565b6040516001600160a01b038216907fbc7cd75a20ee27fd9adebab32041f755214dbc6bffa90cc0225b39da2e5c2d3b90600090a250565b6060612a3b8383604051806060016040528060278152602001615c2d60279139614fa5565b606061124a848460008561501d565b60006a636f6e736f6c652e6c6f679050600080835160208501845afa505050565b6060600080856001600160a01b031685604051614fc29190615c10565b600060405180830381855af49150503d8060008114614ffd576040519150601f19603f3d011682016040523d82523d6000602084013e615002565b606091505b50915091506150138683838761510f565b9695505050505050565b6060824710156150955760405162461bcd60e51b815260206004820152602660248201527f416464726573733a20696e73756666696369656e742062616c616e636520666f60448201527f722063616c6c000000000000000000000000000000000000000000000000000060648201526084016112c3565b600080866001600160a01b031685876040516150b19190615c10565b60006040518083038185875af1925050503d80600081146150ee576040519150601f19603f3d011682016040523d82523d6000602084013e6150f3565b606091505b50915091506151048783838761510f565b979650505050505050565b6060831561517e578251600003615177576001600160a01b0385163b6151775760405162461bcd60e51b815260206004820152601d60248201527f416464726573733a2063616c6c20746f206e6f6e2d636f6e747261637400000060448201526064016112c3565b508161124a565b61124a83838151156151935781518083602001fd5b8060405162461bcd60e51b81526004016112c391906151fd565b60005b838110156151c85781810151838201526020016151b0565b50506000910152565b600081518084526151e98160208601602086016151ad565b601f01601f19169290920160200192915050565b602081526000612a3b60208301846151d1565b6001600160a01b038116811461185e57600080fd5b6000806040838503121561523857600080fd5b823561524381615210565b946020939093013593505050565b600080600080600060a0868803121561526957600080fd5b853561527481615210565b945060208601359350604086013561528b81615210565b94979396509394606081013594506080013592915050565b634e487b7160e01b600052604160045260246000fd5b604051610160810167ffffffffffffffff811182821017156152dd576152dd6152a3565b60405290565b604051601f8201601f1916810167ffffffffffffffff8111828210171561530c5761530c6152a3565b604052919050565b600082601f83011261532557600080fd5b813567ffffffffffffffff81111561533f5761533f6152a3565b615352601f8201601f19166020016152e3565b81815284602083860101111561536757600080fd5b816020850160208301376000918101602001919091529392505050565b6000806000806080858703121561539a57600080fd5b84356153a581615210565b935060208501356153b581615210565b925060408501359150606085013567ffffffffffffffff8111156153d857600080fd5b6153e487828801615314565b91505092959194509250565b60006020828403121561540257600080fd5b8135612a3b81615210565b60008060006060848603121561542257600080fd5b833561542d81615210565b9250602084013561543d81615210565b929592945050506040919091013590565b6000806040838503121561546157600080fd5b50508035926020909101359150565b602080825282518282018190526000919060409081850190868401855b828110156154d2578151805185528681015187860152858101516001600160a01b0316868601526060908101511515908501526080909301929085019060010161548d565b5091979650505050505050565b6000602082840312156154f157600080fd5b5035919050565b6000806040838503121561550b57600080fd5b82359150602083013561551d81615210565b809150509250929050565b6000806040838503121561553b57600080fd5b823561554681615210565b9150602083013561551d81615210565b60008060006060848603121561556b57600080fd5b833561557681615210565b925060208401359150604084013561558d81615210565b809150509250925092565b600080604083850312156155ab57600080fd5b82356155b681615210565b9150602083013567ffffffffffffffff8111156155d257600080fd5b6155de85828601615314565b9150509250929050565b7fff00000000000000000000000000000000000000000000000000000000000000881681526000602060e0602084015261562560e084018a6151d1565b8381036040850152615637818a6151d1565b606085018990526001600160a01b038816608086015260a0850187905284810360c08601528551808252602080880193509091019060005b8181101561568b5783518352928401929184019160010161566f565b50909c9b505050505050505050505050565b801515811461185e57600080fd5b600080604083850312156156be57600080fd5b82356156c981615210565b9150602083013561551d8161569d565b600080600080600080600060e0888a0312156156f457600080fd5b87356156ff81615210565b9650602088013561570f81615210565b95506040880135945060608801359350608088013560ff8116811461573357600080fd5b9699959850939692959460a0840135945060c09093013592915050565b602080825282518282018190526000919060409081850190868401855b828110156154d257815180516001600160a01b0390811686528782015188870152868201511515878701526060808301511515908701526080808301519091169086015260a0808201519086015260c0908101519085015260e0909301929085019060010161576d565b600181811c908216806157eb57607f821691505b60208210810361468b57634e487b7160e01b600052602260045260246000fd5b60006020828403121561581d57600080fd5b5051919050565b60006001600160a01b03808716835280861660208401525083604083015260a0606083015261585660a08301846151d1565b8281036080840152600e81527f6c697374696e6720706c616e657400000000000000000000000000000000000060208201526040810191505095945050505050565b600082601f8301126158a957600080fd5b8151602067ffffffffffffffff8211156158c5576158c56152a3565b8160051b6158d48282016152e3565b92835284810182019282810190878511156158ee57600080fd5b83870192505b84831015615104578251825291830191908301906158f4565b805161468d8161569d565b6000806040838503121561592b57600080fd5b825167ffffffffffffffff8082111561594357600080fd5b90840190610160828703121561595857600080fd5b6159606152b9565b825181526020830151602082015260408301516040820152606083015160608201526080830151608082015260a083015160a082015260c083015160c082015260e083015160e082015261010080840151838111156159be57600080fd5b6159ca89828701615898565b82840152505061012080840151838111156159e457600080fd5b6159f089828701615898565b8284015250506101408084015183811115615a0a57600080fd5b615a1689828701615898565b828401525050809450505050615a2e6020840161590d565b90509250929050565b634e487b7160e01b600052603260045260246000fd5b60006001600160a01b03808716835280861660208401525083604083015260a06060830152615a7f60a08301846151d1565b8281036080840152600a81527f6e657720706c616e65740000000000000000000000000000000000000000000060208201526040810191505095945050505050565b60006001600160a01b03808716835280861660208401525083604083015260a06060830152615af360a08301846151d1565b8281036080840152600d81527f756e63617465676f72697a65640000000000000000000000000000000000000060208201526040810191505095945050505050565b634e487b7160e01b600052601160045260246000fd5b80820180821115610fbb57610fbb615b35565b81810381811115610fbb57610fbb615b35565b600060208284031215615b8357600080fd5b8151612a3b81615210565b8082028115828204841417610fbb57610fbb615b35565b600082615bc257634e487b7160e01b600052601260045260246000fd5b500490565b634e487b7160e01b600052603160045260246000fd5b600060208284031215615bef57600080fd5b8151612a3b8161569d565b634e487b7160e01b600052602160045260246000fd5b60008251615c228184602087016151ad565b919091019291505056fe416464726573733a206c6f772d6c6576656c2064656c65676174652063616c6c206661696c6564a26469706673582212201eee1447392f09cbd3b0cb46c29dd7397254bbcbd2311b97f523094f14773bd464736f6c63430008180033",
  "linkReferences": {},
  "deployedLinkReferences": {}
}