{
  "_format": "hh-sol-artifact-1",
  "contractName": "InternalTests",
  "sourceName": "contracts/test/InternalTests.sol",
  "abi": [
    {
      "inputs": [],
      "stateMutability": "nonpayable",
      "type": "constructor"
    },
    {
      "inputs": [],
      "name": "Unauthorized",
      "type": "error"
    },
    {
      "anonymous": false,
      "inputs": [
        {
          "indexed": false,
          "internalType": "address",
          "name": "previousAdmin",
          "type": "address"
        },
        {
          "indexed": false,
          "internalType": "address",
          "name": "newAdmin",
          "type": "address"
        }
      ],
      "name": "AdminChanged",
      "type": "event"
    },
    {
      "anonymous": false,
      "inputs": [
        {
          "indexed": true,
          "internalType": "address",
          "name": "owner",
          "type": "address"
        },
        {
          "indexed": true,
          "internalType": "address",
          "name": "spender",
          "type": "address"
        },
        {
          "indexed": false,
          "internalType": "uint256",
          "name": "value",
          "type": "uint256"
        }
      ],
      "name": "Approval",
      "type": "event"
    },
    {
      "anonymous": false,
      "inputs": [
        {
          "indexed": true,
          "internalType": "address",
          "name": "beacon",
          "type": "address"
        }
      ],
      "name": "BeaconUpgraded",
      "type": "event"
    },
    {
      "anonymous": false,
      "inputs": [
        {
          "indexed": false,
          "internalType": "address",
          "name": "sentToUser",
          "type": "address"
        },
        {
          "indexed": false,
          "internalType": "address",
          "name": "token",
          "type": "address"
        },
        {
          "indexed": false,
          "internalType": "uint256",
          "name": "tokenId",
          "type": "uint256"
        }
      ],
      "name": "DeClaimedAPlanet",
      "type": "event"
    },
    {
      "anonymous": false,
      "inputs": [
        {
          "indexed": false,
          "internalType": "address",
          "name": "sentToUser",
          "type": "address"
        },
        {
          "indexed": false,
          "internalType": "address",
          "name": "token",
          "type": "address"
        },
        {
          "indexed": false,
          "internalType": "uint256",
          "name": "tokenId",
          "type": "uint256"
        }
      ],
      "name": "DeListedAPlanet",
      "type": "event"
    },
    {
      "anonymous": false,
      "inputs": [],
      "name": "EIP712DomainChanged",
      "type": "event"
    },
    {
      "anonymous": false,
      "inputs": [
        {
          "indexed": true,
          "internalType": "contract IERC20Upgradeable",
          "name": "token",
          "type": "address"
        },
        {
          "indexed": false,
          "internalType": "address",
          "name": "to",
          "type": "address"
        },
        {
          "indexed": false,
          "internalType": "uint256",
          "name": "amount",
          "type": "uint256"
        }
      ],
      "name": "ERC20PaymentReleased",
      "type": "event"
    },
    {
      "anonymous": false,
      "inputs": [
        {
          "indexed": false,
          "internalType": "uint8",
          "name": "version",
          "type": "uint8"
        }
      ],
      "name": "Initialized",
      "type": "event"
    },
    {
      "anonymous": false,
      "inputs": [
        {
          "indexed": false,
          "internalType": "address",
          "name": "sentFromUser",
          "type": "address"
        },
        {
          "indexed": false,
          "internalType": "address",
          "name": "token",
          "type": "address"
        },
        {
          "indexed": false,
          "internalType": "uint256",
          "name": "tokenId",
          "type": "uint256"
        },
        {
          "indexed": false,
          "internalType": "uint256",
          "name": "price",
          "type": "uint256"
        }
      ],
      "name": "ListedAPlanet",
      "type": "event"
    },
    {
      "anonymous": false,
      "inputs": [
        {
          "indexed": false,
          "internalType": "address",
          "name": "operator",
          "type": "address"
        },
        {
          "indexed": false,
          "internalType": "address",
          "name": "from",
          "type": "address"
        },
        {
          "indexed": false,
          "internalType": "uint256",
          "name": "tokenId",
          "type": "uint256"
        },
        {
          "indexed": false,
          "internalType": "bytes",
          "name": "data",
          "type": "bytes"
        },
        {
          "indexed": false,
          "internalType": "string",
          "name": "typeOfReceival",
          "type": "string"
        }
      ],
      "name": "NftReceived",
      "type": "event"
    },
    {
      "anonymous": false,
      "inputs": [
        {
          "indexed": true,
          "internalType": "address",
          "name": "previousOwner",
          "type": "address"
        },
        {
          "indexed": true,
          "internalType": "address",
          "name": "newOwner",
          "type": "address"
        }
      ],
      "name": "OwnershipTransferred",
      "type": "event"
    },
    {
      "anonymous": false,
      "inputs": [
        {
          "indexed": false,
          "internalType": "address",
          "name": "account",
          "type": "address"
        }
      ],
      "name": "Paused",
      "type": "event"
    },
    {
      "anonymous": false,
      "inputs": [
        {
          "indexed": false,
          "internalType": "address",
          "name": "account",
          "type": "address"
        },
        {
          "indexed": false,
          "internalType": "uint256",
          "name": "shares",
          "type": "uint256"
        }
      ],
      "name": "PayeeAdded",
      "type": "event"
    },
    {
      "anonymous": false,
      "inputs": [
        {
          "indexed": false,
          "internalType": "address",
          "name": "from",
          "type": "address"
        },
        {
          "indexed": false,
          "internalType": "uint256",
          "name": "amount",
          "type": "uint256"
        }
      ],
      "name": "PaymentReceived",
      "type": "event"
    },
    {
      "anonymous": false,
      "inputs": [
        {
          "indexed": false,
          "internalType": "address",
          "name": "to",
          "type": "address"
        },
        {
          "indexed": false,
          "internalType": "uint256",
          "name": "amount",
          "type": "uint256"
        }
      ],
      "name": "PaymentReleased",
      "type": "event"
    },
    {
      "anonymous": false,
      "inputs": [
        {
          "indexed": false,
          "internalType": "uint256",
          "name": "planetAsking",
          "type": "uint256"
        },
        {
          "indexed": false,
          "internalType": "address",
          "name": "askingUser",
          "type": "address"
        },
        {
          "indexed": false,
          "internalType": "uint256",
          "name": "planetJoining",
          "type": "uint256"
        },
        {
          "indexed": false,
          "internalType": "address",
          "name": "joiningUser",
          "type": "address"
        }
      ],
      "name": "PlanetsConjoining",
      "type": "event"
    },
    {
      "anonymous": false,
      "inputs": [
        {
          "indexed": true,
          "internalType": "address",
          "name": "from",
          "type": "address"
        },
        {
          "indexed": true,
          "internalType": "address",
          "name": "to",
          "type": "address"
        },
        {
          "indexed": false,
          "internalType": "uint256",
          "name": "value",
          "type": "uint256"
        }
      ],
      "name": "Transfer",
      "type": "event"
    },
    {
      "anonymous": false,
      "inputs": [
        {
          "indexed": false,
          "internalType": "address",
          "name": "account",
          "type": "address"
        }
      ],
      "name": "Unpaused",
      "type": "event"
    },
    {
      "anonymous": false,
      "inputs": [
        {
          "indexed": true,
          "internalType": "address",
          "name": "implementation",
          "type": "address"
        }
      ],
      "name": "Upgraded",
      "type": "event"
    },
    {
      "stateMutability": "payable",
      "type": "fallback"
    },
    {
      "inputs": [],
      "name": "DOMAIN_SEPARATOR",
      "outputs": [
        {
          "internalType": "bytes32",
          "name": "",
          "type": "bytes32"
        }
      ],
      "stateMutability": "view",
      "type": "function"
    },
    {
      "inputs": [
        {
          "internalType": "uint256",
          "name": "_claimTokenId",
          "type": "uint256"
        },
        {
          "internalType": "address",
          "name": "_claimAddr",
          "type": "address"
        }
      ],
      "name": "addClaimant",
      "outputs": [],
      "stateMutability": "nonpayable",
      "type": "function"
    },
    {
      "inputs": [
        {
          "internalType": "address",
          "name": "owner",
          "type": "address"
        },
        {
          "internalType": "address",
          "name": "spender",
          "type": "address"
        }
      ],
      "name": "allowance",
      "outputs": [
        {
          "internalType": "uint256",
          "name": "",
          "type": "uint256"
        }
      ],
      "stateMutability": "view",
      "type": "function"
    },
    {
      "inputs": [
        {
          "internalType": "address",
          "name": "spender",
          "type": "address"
        },
        {
          "internalType": "uint256",
          "name": "amount",
          "type": "uint256"
        }
      ],
      "name": "approve",
      "outputs": [
        {
          "internalType": "bool",
          "name": "",
          "type": "bool"
        }
      ],
      "stateMutability": "nonpayable",
      "type": "function"
    },
    {
      "inputs": [
        {
          "internalType": "contract IERC721",
          "name": "token",
          "type": "address"
        },
        {
          "internalType": "address",
          "name": "operator",
          "type": "address"
        }
      ],
      "name": "approveAllERC721Tokens",
      "outputs": [],
      "stateMutability": "nonpayable",
      "type": "function"
    },
    {
      "inputs": [
        {
          "internalType": "contract IERC20",
          "name": "token",
          "type": "address"
        },
        {
          "internalType": "address",
          "name": "spender",
          "type": "address"
        },
        {
          "internalType": "uint256",
          "name": "amount",
          "type": "uint256"
        }
      ],
      "name": "approveERC20",
      "outputs": [],
      "stateMutability": "nonpayable",
      "type": "function"
    },
    {
      "inputs": [
        {
          "internalType": "address",
          "name": "userAsking",
          "type": "address"
        },
        {
          "internalType": "uint256",
          "name": "askingPlanet",
          "type": "uint256"
        },
        {
          "internalType": "address",
          "name": "otherParent",
          "type": "address"
        },
        {
          "internalType": "uint256",
          "name": "otherTokenId",
          "type": "uint256"
        },
        {
          "internalType": "uint256",
          "name": "cTokenId",
          "type": "uint256"
        }
      ],
      "name": "arriveClaimablePlanet",
      "outputs": [],
      "stateMutability": "nonpayable",
      "type": "function"
    },
    {
      "inputs": [
        {
          "internalType": "address",
          "name": "account",
          "type": "address"
        }
      ],
      "name": "balanceOf",
      "outputs": [
        {
          "internalType": "uint256",
          "name": "",
          "type": "uint256"
        }
      ],
      "stateMutability": "view",
      "type": "function"
    },
    {
      "inputs": [],
      "name": "breedContract",
      "outputs": [
        {
          "internalType": "contract IBreedContract",
          "name": "",
          "type": "address"
        }
      ],
      "stateMutability": "view",
      "type": "function"
    },
    {
      "inputs": [
        {
          "internalType": "uint256",
          "name": "newVRF",
          "type": "uint256"
        }
      ],
      "name": "changeVRFValue",
      "outputs": [],
      "stateMutability": "nonpayable",
      "type": "function"
    },
    {
      "inputs": [
        {
          "internalType": "address",
          "name": "owner",
          "type": "address"
        },
        {
          "internalType": "address",
          "name": "operator",
          "type": "address"
        }
      ],
      "name": "checkApprovalForAll",
      "outputs": [
        {
          "internalType": "bool",
          "name": "",
          "type": "bool"
        }
      ],
      "stateMutability": "view",
      "type": "function"
    },
    {
      "inputs": [
        {
          "internalType": "uint256",
          "name": "claimableTokenId",
          "type": "uint256"
        }
      ],
      "name": "claimPlanet",
      "outputs": [],
      "stateMutability": "nonpayable",
      "type": "function"
    },
    {
      "inputs": [
        {
          "internalType": "address",
          "name": "",
          "type": "address"
        },
        {
          "internalType": "uint256",
          "name": "",
          "type": "uint256"
        }
      ],
      "name": "claimablePlanets",
      "outputs": [
        {
          "internalType": "address",
          "name": "ownerParentAddress",
          "type": "address"
        },
        {
          "internalType": "uint256",
          "name": "ownerTokenId",
          "type": "uint256"
        },
        {
          "internalType": "bool",
          "name": "delivered",
          "type": "bool"
        },
        {
          "internalType": "bool",
          "name": "arrived",
          "type": "bool"
        },
        {
          "internalType": "address",
          "name": "otherParent",
          "type": "address"
        },
        {
          "internalType": "uint256",
          "name": "otherTokenId",
          "type": "uint256"
        },
        {
          "internalType": "uint256",
          "name": "claimsTokenId",
          "type": "uint256"
        }
      ],
      "stateMutability": "view",
      "type": "function"
    },
    {
      "inputs": [
        {
          "internalType": "uint256",
          "name": "",
          "type": "uint256"
        }
      ],
      "name": "claimantTokenIdToOwnerAddress",
      "outputs": [
        {
          "internalType": "address",
          "name": "",
          "type": "address"
        }
      ],
      "stateMutability": "view",
      "type": "function"
    },
    {
      "inputs": [
        {
          "internalType": "uint256",
          "name": "yourPlanet",
          "type": "uint256"
        },
        {
          "internalType": "uint256",
          "name": "withListedPlanet",
          "type": "uint256"
        }
      ],
      "name": "conjunct",
      "outputs": [],
      "stateMutability": "payable",
      "type": "function"
    },
    {
      "inputs": [
        {
          "internalType": "uint256",
          "name": "idIndex",
          "type": "uint256"
        },
        {
          "internalType": "uint256",
          "name": "tokenId",
          "type": "uint256"
        }
      ],
      "name": "deList",
      "outputs": [],
      "stateMutability": "nonpayable",
      "type": "function"
    },
    {
      "inputs": [],
      "name": "deListAllYourPlanets",
      "outputs": [],
      "stateMutability": "nonpayable",
      "type": "function"
    },
    {
      "inputs": [],
      "name": "decimals",
      "outputs": [
        {
          "internalType": "uint8",
          "name": "",
          "type": "uint8"
        }
      ],
      "stateMutability": "view",
      "type": "function"
    },
    {
      "inputs": [
        {
          "internalType": "address",
          "name": "spender",
          "type": "address"
        },
        {
          "internalType": "uint256",
          "name": "subtractedValue",
          "type": "uint256"
        }
      ],
      "name": "decreaseAllowance",
      "outputs": [
        {
          "internalType": "bool",
          "name": "",
          "type": "bool"
        }
      ],
      "stateMutability": "nonpayable",
      "type": "function"
    },
    {
      "inputs": [
        {
          "internalType": "address",
          "name": "userAsking",
          "type": "address"
        },
        {
          "internalType": "uint256",
          "name": "askingPlanet",
          "type": "uint256"
        },
        {
          "internalType": "address",
          "name": "otherParent",
          "type": "address"
        },
        {
          "internalType": "uint256",
          "name": "otherTokenId",
          "type": "uint256"
        },
        {
          "internalType": "uint256",
          "name": "cTokenId",
          "type": "uint256"
        }
      ],
      "name": "deliverClaimablePlanet",
      "outputs": [],
      "stateMutability": "nonpayable",
      "type": "function"
    },
    {
      "inputs": [],
      "name": "eip712Domain",
      "outputs": [
        {
          "internalType": "bytes1",
          "name": "fields",
          "type": "bytes1"
        },
        {
          "internalType": "string",
          "name": "name",
          "type": "string"
        },
        {
          "internalType": "string",
          "name": "version",
          "type": "string"
        },
        {
          "internalType": "uint256",
          "name": "chainId",
          "type": "uint256"
        },
        {
          "internalType": "address",
          "name": "verifyingContract",
          "type": "address"
        },
        {
          "internalType": "bytes32",
          "name": "salt",
          "type": "bytes32"
        },
        {
          "internalType": "uint256[]",
          "name": "extensions",
          "type": "uint256[]"
        }
      ],
      "stateMutability": "view",
      "type": "function"
    },
    {
      "inputs": [],
      "name": "getAllPlanets",
      "outputs": [
        {
          "components": [
            {
              "internalType": "uint256",
              "name": "tokenId",
              "type": "uint256"
            },
            {
              "internalType": "uint256",
              "name": "price",
              "type": "uint256"
            },
            {
              "internalType": "address",
              "name": "ownerAddress",
              "type": "address"
            },
            {
              "internalType": "bool",
              "name": "active",
              "type": "bool"
            }
          ],
          "internalType": "struct ListedPlanet[]",
          "name": "",
          "type": "tuple[]"
        }
      ],
      "stateMutability": "view",
      "type": "function"
    },
    {
      "inputs": [
        {
          "internalType": "address",
          "name": "userAddr",
          "type": "address"
        }
      ],
      "name": "getClaimablePlanetsFor",
      "outputs": [
        {
          "components": [
            {
              "internalType": "address",
              "name": "ownerParentAddress",
              "type": "address"
            },
            {
              "internalType": "uint256",
              "name": "ownerTokenId",
              "type": "uint256"
            },
            {
              "internalType": "bool",
              "name": "delivered",
              "type": "bool"
            },
            {
              "internalType": "bool",
              "name": "arrived",
              "type": "bool"
            },
            {
              "internalType": "address",
              "name": "otherParent",
              "type": "address"
            },
            {
              "internalType": "uint256",
              "name": "otherTokenId",
              "type": "uint256"
            },
            {
              "internalType": "uint256",
              "name": "claimsTokenId",
              "type": "uint256"
            }
          ],
          "internalType": "struct ClaimablePlanet[]",
          "name": "",
          "type": "tuple[]"
        }
      ],
      "stateMutability": "view",
      "type": "function"
    },
    {
      "inputs": [
        {
          "internalType": "uint256",
          "name": "claimableTokenId",
          "type": "uint256"
        }
      ],
      "name": "getClaimantTokenIdToOwnerAddress",
      "outputs": [
        {
          "internalType": "address",
          "name": "",
          "type": "address"
        }
      ],
      "stateMutability": "view",
      "type": "function"
    },
    {
      "inputs": [
        {
          "internalType": "uint256",
          "name": "startIndex",
          "type": "uint256"
        },
        {
          "internalType": "uint256",
          "name": "endIndex",
          "type": "uint256"
        }
      ],
      "name": "getPlanetsPaginated",
      "outputs": [
        {
          "components": [
            {
              "internalType": "uint256",
              "name": "tokenId",
              "type": "uint256"
            },
            {
              "internalType": "uint256",
              "name": "price",
              "type": "uint256"
            },
            {
              "internalType": "address",
              "name": "ownerAddress",
              "type": "address"
            },
            {
              "internalType": "bool",
              "name": "active",
              "type": "bool"
            }
          ],
          "internalType": "struct ListedPlanet[]",
          "name": "",
          "type": "tuple[]"
        }
      ],
      "stateMutability": "view",
      "type": "function"
    },
    {
      "inputs": [
        {
          "internalType": "address",
          "name": "userAddr",
          "type": "address"
        }
      ],
      "name": "getuserToListedPlanets",
      "outputs": [
        {
          "components": [
            {
              "internalType": "uint256",
              "name": "tokenId",
              "type": "uint256"
            },
            {
              "internalType": "uint256",
              "name": "price",
              "type": "uint256"
            },
            {
              "internalType": "address",
              "name": "ownerAddress",
              "type": "address"
            },
            {
              "internalType": "bool",
              "name": "active",
              "type": "bool"
            }
          ],
          "internalType": "struct ListedPlanet[]",
          "name": "",
          "type": "tuple[]"
        }
      ],
      "stateMutability": "view",
      "type": "function"
    },
    {
      "inputs": [
        {
          "internalType": "address",
          "name": "owner",
          "type": "address"
        },
        {
          "internalType": "uint256",
          "name": "tokenId",
          "type": "uint256"
        }
      ],
      "name": "hasPlanetArrived",
      "outputs": [
        {
          "internalType": "bool",
          "name": "arrived",
          "type": "bool"
        }
      ],
      "stateMutability": "view",
      "type": "function"
    },
    {
      "inputs": [
        {
          "internalType": "address",
          "name": "owner",
          "type": "address"
        },
        {
          "internalType": "uint256",
          "name": "tokenId",
          "type": "uint256"
        }
      ],
      "name": "hasPlanetBeenDelivered",
      "outputs": [
        {
          "internalType": "bool",
          "name": "delivered",
          "type": "bool"
        }
      ],
      "stateMutability": "view",
      "type": "function"
    },
    {
      "inputs": [
        {
          "internalType": "address",
          "name": "spender",
          "type": "address"
        },
        {
          "internalType": "uint256",
          "name": "addedValue",
          "type": "uint256"
        }
      ],
      "name": "increaseAllowance",
      "outputs": [
        {
          "internalType": "bool",
          "name": "",
          "type": "bool"
        }
      ],
      "stateMutability": "nonpayable",
      "type": "function"
    },
    {
      "inputs": [
        {
          "internalType": "address",
          "name": "initialOwner",
          "type": "address"
        }
      ],
      "name": "initialize",
      "outputs": [],
      "stateMutability": "nonpayable",
      "type": "function"
    },
    {
      "inputs": [],
      "name": "listAllYourPlanets",
      "outputs": [],
      "stateMutability": "nonpayable",
      "type": "function"
    },
    {
      "inputs": [],
      "name": "name",
      "outputs": [
        {
          "internalType": "string",
          "name": "",
          "type": "string"
        }
      ],
      "stateMutability": "view",
      "type": "function"
    },
    {
      "inputs": [
        {
          "internalType": "address",
          "name": "owner",
          "type": "address"
        }
      ],
      "name": "nonces",
      "outputs": [
        {
          "internalType": "uint256",
          "name": "",
          "type": "uint256"
        }
      ],
      "stateMutability": "view",
      "type": "function"
    },
    {
      "inputs": [
        {
          "internalType": "address",
          "name": "operator",
          "type": "address"
        },
        {
          "internalType": "address",
          "name": "from",
          "type": "address"
        },
        {
          "internalType": "uint256",
          "name": "tokenId",
          "type": "uint256"
        },
        {
          "internalType": "bytes",
          "name": "data",
          "type": "bytes"
        }
      ],
      "name": "onERC721Received",
      "outputs": [
        {
          "internalType": "bytes4",
          "name": "",
          "type": "bytes4"
        }
      ],
      "stateMutability": "nonpayable",
      "type": "function"
    },
    {
      "inputs": [],
      "name": "owner",
      "outputs": [
        {
          "internalType": "address",
          "name": "",
          "type": "address"
        }
      ],
      "stateMutability": "view",
      "type": "function"
    },
    {
      "inputs": [
        {
          "internalType": "uint256",
          "name": "claimableTokenId",
          "type": "uint256"
        },
        {
          "internalType": "address",
          "name": "sendToAddr",
          "type": "address"
        }
      ],
      "name": "ownerClaimPlanet",
      "outputs": [],
      "stateMutability": "nonpayable",
      "type": "function"
    },
    {
      "inputs": [
        {
          "internalType": "uint256",
          "name": "tokenId",
          "type": "uint256"
        },
        {
          "internalType": "address",
          "name": "destinationAddr",
          "type": "address"
        }
      ],
      "name": "ownerOverrideSendNFT",
      "outputs": [],
      "stateMutability": "nonpayable",
      "type": "function"
    },
    {
      "inputs": [],
      "name": "pause",
      "outputs": [],
      "stateMutability": "nonpayable",
      "type": "function"
    },
    {
      "inputs": [],
      "name": "paused",
      "outputs": [
        {
          "internalType": "bool",
          "name": "",
          "type": "bool"
        }
      ],
      "stateMutability": "view",
      "type": "function"
    },
    {
      "inputs": [
        {
          "internalType": "uint256",
          "name": "index",
          "type": "uint256"
        }
      ],
      "name": "payee",
      "outputs": [
        {
          "internalType": "address",
          "name": "",
          "type": "address"
        }
      ],
      "stateMutability": "view",
      "type": "function"
    },
    {
      "inputs": [
        {
          "internalType": "address",
          "name": "owner",
          "type": "address"
        },
        {
          "internalType": "address",
          "name": "spender",
          "type": "address"
        },
        {
          "internalType": "uint256",
          "name": "value",
          "type": "uint256"
        },
        {
          "internalType": "uint256",
          "name": "deadline",
          "type": "uint256"
        },
        {
          "internalType": "uint8",
          "name": "v",
          "type": "uint8"
        },
        {
          "internalType": "bytes32",
          "name": "r",
          "type": "bytes32"
        },
        {
          "internalType": "bytes32",
          "name": "s",
          "type": "bytes32"
        }
      ],
      "name": "permit",
      "outputs": [],
      "stateMutability": "nonpayable",
      "type": "function"
    },
    {
      "inputs": [],
      "name": "proxiableUUID",
      "outputs": [
        {
          "internalType": "bytes32",
          "name": "",
          "type": "bytes32"
        }
      ],
      "stateMutability": "view",
      "type": "function"
    },
    {
      "inputs": [
        {
          "internalType": "address",
          "name": "account",
          "type": "address"
        }
      ],
      "name": "releasable",
      "outputs": [
        {
          "internalType": "uint256",
          "name": "",
          "type": "uint256"
        }
      ],
      "stateMutability": "view",
      "type": "function"
    },
    {
      "inputs": [
        {
          "internalType": "contract IERC20Upgradeable",
          "name": "token",
          "type": "address"
        },
        {
          "internalType": "address",
          "name": "account",
          "type": "address"
        }
      ],
      "name": "releasable",
      "outputs": [
        {
          "internalType": "uint256",
          "name": "",
          "type": "uint256"
        }
      ],
      "stateMutability": "view",
      "type": "function"
    },
    {
      "inputs": [
        {
          "internalType": "address payable",
          "name": "account",
          "type": "address"
        }
      ],
      "name": "release",
      "outputs": [],
      "stateMutability": "nonpayable",
      "type": "function"
    },
    {
      "inputs": [
        {
          "internalType": "contract IERC20Upgradeable",
          "name": "token",
          "type": "address"
        },
        {
          "internalType": "address",
          "name": "account",
          "type": "address"
        }
      ],
      "name": "release",
      "outputs": [],
      "stateMutability": "nonpayable",
      "type": "function"
    },
    {
      "inputs": [
        {
          "internalType": "contract IERC20Upgradeable",
          "name": "token",
          "type": "address"
        },
        {
          "internalType": "address",
          "name": "account",
          "type": "address"
        }
      ],
      "name": "released",
      "outputs": [
        {
          "internalType": "uint256",
          "name": "",
          "type": "uint256"
        }
      ],
      "stateMutability": "view",
      "type": "function"
    },
    {
      "inputs": [
        {
          "internalType": "address",
          "name": "account",
          "type": "address"
        }
      ],
      "name": "released",
      "outputs": [
        {
          "internalType": "uint256",
          "name": "",
          "type": "uint256"
        }
      ],
      "stateMutability": "view",
      "type": "function"
    },
    {
      "inputs": [],
      "name": "renounceOwnership",
      "outputs": [],
      "stateMutability": "nonpayable",
      "type": "function"
    },
    {
      "inputs": [
        {
          "internalType": "address",
          "name": "_breederContractAddr",
          "type": "address"
        },
        {
          "internalType": "uint256",
          "name": "_vrfValue",
          "type": "uint256"
        },
        {
          "internalType": "address",
          "name": "_nftContractAddr",
          "type": "address"
        }
      ],
      "name": "setAllOf",
      "outputs": [],
      "stateMutability": "nonpayable",
      "type": "function"
    },
    {
      "inputs": [
        {
          "internalType": "uint256",
          "name": "_toThisPercentage",
          "type": "uint256"
        }
      ],
      "name": "setMktFee",
      "outputs": [],
      "stateMutability": "nonpayable",
      "type": "function"
    },
    {
      "inputs": [
        {
          "internalType": "address payable",
          "name": "newTAdd",
          "type": "address"
        }
      ],
      "name": "setTAdd",
      "outputs": [],
      "stateMutability": "nonpayable",
      "type": "function"
    },
    {
      "inputs": [
        {
          "internalType": "address",
          "name": "account",
          "type": "address"
        }
      ],
      "name": "shares",
      "outputs": [
        {
          "internalType": "uint256",
          "name": "",
          "type": "uint256"
        }
      ],
      "stateMutability": "view",
      "type": "function"
    },
    {
      "inputs": [],
      "name": "status",
      "outputs": [],
      "stateMutability": "nonpayable",
      "type": "function"
    },
    {
      "inputs": [],
      "name": "symbol",
      "outputs": [
        {
          "internalType": "string",
          "name": "",
          "type": "string"
        }
      ],
      "stateMutability": "view",
      "type": "function"
    },
    {
      "inputs": [
        {
          "internalType": "contract IERC20Upgradeable",
          "name": "token",
          "type": "address"
        }
      ],
      "name": "totalReleased",
      "outputs": [
        {
          "internalType": "uint256",
          "name": "",
          "type": "uint256"
        }
      ],
      "stateMutability": "view",
      "type": "function"
    },
    {
      "inputs": [],
      "name": "totalReleased",
      "outputs": [
        {
          "internalType": "uint256",
          "name": "",
          "type": "uint256"
        }
      ],
      "stateMutability": "view",
      "type": "function"
    },
    {
      "inputs": [],
      "name": "totalShares",
      "outputs": [
        {
          "internalType": "uint256",
          "name": "",
          "type": "uint256"
        }
      ],
      "stateMutability": "view",
      "type": "function"
    },
    {
      "inputs": [],
      "name": "totalSupply",
      "outputs": [
        {
          "internalType": "uint256",
          "name": "",
          "type": "uint256"
        }
      ],
      "stateMutability": "view",
      "type": "function"
    },
    {
      "inputs": [
        {
          "internalType": "address",
          "name": "to",
          "type": "address"
        },
        {
          "internalType": "uint256",
          "name": "amount",
          "type": "uint256"
        }
      ],
      "name": "transfer",
      "outputs": [
        {
          "internalType": "bool",
          "name": "",
          "type": "bool"
        }
      ],
      "stateMutability": "nonpayable",
      "type": "function"
    },
    {
      "inputs": [
        {
          "internalType": "address",
          "name": "from",
          "type": "address"
        },
        {
          "internalType": "address",
          "name": "to",
          "type": "address"
        },
        {
          "internalType": "uint256",
          "name": "amount",
          "type": "uint256"
        }
      ],
      "name": "transferFrom",
      "outputs": [
        {
          "internalType": "bool",
          "name": "",
          "type": "bool"
        }
      ],
      "stateMutability": "nonpayable",
      "type": "function"
    },
    {
      "inputs": [
        {
          "internalType": "address",
          "name": "newOwner",
          "type": "address"
        }
      ],
      "name": "transferOwnership",
      "outputs": [],
      "stateMutability": "nonpayable",
      "type": "function"
    },
    {
      "inputs": [],
      "name": "unpause",
      "outputs": [],
      "stateMutability": "nonpayable",
      "type": "function"
    },
    {
      "inputs": [
        {
          "internalType": "address",
          "name": "newImplementation",
          "type": "address"
        }
      ],
      "name": "upgradeTo",
      "outputs": [],
      "stateMutability": "nonpayable",
      "type": "function"
    },
    {
      "inputs": [
        {
          "internalType": "address",
          "name": "newImplementation",
          "type": "address"
        },
        {
          "internalType": "bytes",
          "name": "data",
          "type": "bytes"
        }
      ],
      "name": "upgradeToAndCall",
      "outputs": [],
      "stateMutability": "payable",
      "type": "function"
    },
    {
      "inputs": [
        {
          "internalType": "address",
          "name": "",
          "type": "address"
        },
        {
          "internalType": "uint256",
          "name": "",
          "type": "uint256"
        }
      ],
      "name": "userToListedPlanets",
      "outputs": [
        {
          "internalType": "uint256",
          "name": "tokenId",
          "type": "uint256"
        },
        {
          "internalType": "uint256",
          "name": "price",
          "type": "uint256"
        },
        {
          "internalType": "address",
          "name": "ownerAddress",
          "type": "address"
        },
        {
          "internalType": "bool",
          "name": "active",
          "type": "bool"
        }
      ],
      "stateMutability": "view",
      "type": "function"
    },
    {
      "inputs": [
        {
          "internalType": "address",
          "name": "userAddress",
          "type": "address"
        }
      ],
      "name": "usersClaims",
      "outputs": [
        {
          "components": [
            {
              "internalType": "address",
              "name": "ownerParentAddress",
              "type": "address"
            },
            {
              "internalType": "uint256",
              "name": "ownerTokenId",
              "type": "uint256"
            },
            {
              "internalType": "bool",
              "name": "delivered",
              "type": "bool"
            },
            {
              "internalType": "bool",
              "name": "arrived",
              "type": "bool"
            },
            {
              "internalType": "address",
              "name": "otherParent",
              "type": "address"
            },
            {
              "internalType": "uint256",
              "name": "otherTokenId",
              "type": "uint256"
            },
            {
              "internalType": "uint256",
              "name": "claimsTokenId",
              "type": "uint256"
            }
          ],
          "internalType": "struct ClaimablePlanet[]",
          "name": "",
          "type": "tuple[]"
        }
      ],
      "stateMutability": "view",
      "type": "function"
    },
    {
      "inputs": [],
      "name": "withdrawFunds",
      "outputs": [],
      "stateMutability": "nonpayable",
      "type": "function"
    },
    {
      "stateMutability": "payable",
      "type": "receive"
    }
  ],
  "bytecode": "0x60a06040523060805234801561001457600080fd5b50608051615d626200004d60003960008181611728015281816117ad01528181611b6701528181611bec0152611eac0152615d626000f3fe6080604052600436106103f75760003560e01c80637ecebe001161020a578063cbdf1b5a11610119578063e22aecb4116100b2578063f4c1494311610084578063fdb408751161006c578063fdb4087514610f0d578063fde4976714610f2d578063fe79222914610d7857005b8063f4c1494314610ecd578063f837894714610eed57005b8063e22aecb414610e0b578063e33b7de314610e76578063ee6e3a2314610e8c578063f2fde38b14610ead57005b8063d79779b2116100eb578063d79779b214610d41578063dbb774d814610d78578063dd22a9c714610da5578063dd62ed3e14610dc557005b8063cbdf1b5a14610caa578063cdb82a3714610cca578063ce7c2ac214610cea578063d505accf14610d2157005b80639852595c116101a3578063a9059cbb11610175578063c45ac0501161015d578063c45ac05014610c4a578063c4d66de814610c6a578063c7c0e6b114610c8a57005b8063a9059cbb14610bf3578063bd83dc0514610c1357005b80639852595c14610b5c578063a3f8eace14610b93578063a457c2d714610bb3578063a8e5e4aa14610bd357005b806385fe7243116101dc57806385fe724314610ab75780638b83209b14610b085780638da5cb5b14610b2857806395d89b4114610b4757005b80637ecebe0014610a5c5780638230a78414610a7c5780638456cb591461062057806384b0196e14610a8f57005b80633a7fb03d116103065780634f1ef2861161029f5780635c975abb116102715780636a23befb116102595780636a23befb146109fc57806370a0823114610a11578063715018a614610a4757005b80635c975abb146108db5780635e1e4262146108f357005b80634f1ef2861461089357806350842cf3146105f45780635270ad6c146108a657806352d1902d146108c657005b8063406072a9116102d8578063406072a9146107ec57806348b75044146108335780634a02099b146108535780634d9504491461087357005b80633a7fb03d146107575780633a98ef39146107775780633b933f851461078d5780633f4ba83a146107d757005b8063200d2ed211610390578063313ce567116103625780633644e5151161034a5780633644e515146107025780633659cfe614610717578063395093511461073757005b8063313ce5671461069757806334ae54e9146106b357005b8063200d2ed21461062057806323b872dd1461063557806324600fc314610655578063259478181461066a57005b806318160ddd116103c957806318160ddd146105b557806319165587146105d45780631ac9a91e146105f45780631dd320ea1461060057005b806306fdde0314610400578063095ea7b31461042b5780630ffb61b71461045b578063150b7a021461056457005b366103fe57005b005b34801561040c57600080fd5b50610415610f4d565b604051610422919061530f565b60405180910390f35b34801561043757600080fd5b5061044b610446366004615337565b610fdf565b6040519015158152602001610422565b34801561046757600080fd5b506103fe610476366004615363565b6040805160e0810182526001600160a01b0396871680825260208083019788526000838501818152600160608601818152998c166080870190815260a08701998a5260c087019889529483526101cd84529582208054808801825590835292909120935160059092029093018054918a166001600160a01b03199092169190911781559651928701929092555160028601805495519251909716620100000275ffffffffffffffffffffffffffffffffffffffff0000199215156101000261ff00199215159290921661ffff1990961695909517171692909217909355915160038201559051600490910155565b34801561057057600080fd5b5061058461057f366004615496565b610ff9565b6040517fffffffff000000000000000000000000000000000000000000000000000000009091168152602001610422565b3480156105c157600080fd5b5060cb545b604051908152602001610422565b3480156105e057600080fd5b506103fe6105ef366004615502565b61128a565b3480156103fe57600080fd5b34801561060c57600080fd5b5061044b61061b366004615337565b6113ff565b34801561062c57600080fd5b506103fe6114d1565b34801561064157600080fd5b5061044b61065036600461551f565b6114e1565b34801561066157600080fd5b506103fe611505565b34801561067657600080fd5b5061068a610685366004615560565b611547565b6040516104229190615582565b3480156106a357600080fd5b5060405160128152602001610422565b3480156106bf57600080fd5b506106ea6106ce3660046155f1565b6101cc602052600090815260409020546001600160a01b031681565b6040516001600160a01b039091168152602001610422565b34801561070e57600080fd5b506105c661170f565b34801561072357600080fd5b506103fe610732366004615502565b61171e565b34801561074357600080fd5b5061044b610752366004615337565b611899565b34801561076357600080fd5b506103fe61077236600461560a565b6118d8565b34801561078357600080fd5b50610162546105c6565b34801561079957600080fd5b506103fe6107a836600461560a565b60009182526101cc602052604090912080546001600160a01b0319166001600160a01b03909216919091179055565b3480156107e357600080fd5b506103fe611969565b3480156107f857600080fd5b506105c661080736600461563a565b6001600160a01b0391821660009081526101686020908152604080832093909416825291909152205490565b34801561083f57600080fd5b506103fe61084e36600461563a565b611979565b34801561085f57600080fd5b506103fe61086e366004615668565b611b10565b34801561087f57600080fd5b506103fe61088e3660046155f1565b611b4f565b6103fe6108a13660046156aa565b611b5d565b3480156108b257600080fd5b506103fe6108c13660046155f1565b611cc5565b3480156108d257600080fd5b506105c6611e9f565b3480156108e757600080fd5b5060335460ff1661044b565b3480156108ff57600080fd5b506103fe61090e366004615363565b6040805160e0810182526001600160a01b039687168082526020808301978852600183850181815260608501828152988b166080860190815260a0860198895260c0860197885260009485526101cd84529584208054808401825590855292909320935160059092029093018054918a166001600160a01b03199092169190911781559651918701919091555160028601805495519251909716620100000275ffffffffffffffffffffffffffffffffffffffff0000199215156101000261ff00199215159290921661ffff1990961695909517171692909217909355915160038201559051600490910155565b348015610a0857600080fd5b5061068a611f64565b348015610a1d57600080fd5b506105c6610a2c366004615502565b6001600160a01b0316600090815260c9602052604090205490565b348015610a5357600080fd5b506103fe611ffa565b348015610a6857600080fd5b506105c6610a77366004615502565b61200c565b6103fe610a8a366004615560565b61202b565b348015610a9b57600080fd5b50610aa46128d6565b60405161042297969594939291906156fa565b348015610ac357600080fd5b50610ad7610ad2366004615337565b612998565b604051610422949392919093845260208401929092526001600160a01b031660408301521515606082015260800190565b348015610b1457600080fd5b506106ea610b233660046155f1565b6129f0565b348015610b3457600080fd5b50610194546001600160a01b03166106ea565b348015610b5357600080fd5b50610415612a21565b348015610b6857600080fd5b506105c6610b77366004615502565b6001600160a01b03166000908152610165602052604090205490565b348015610b9f57600080fd5b506105c6610bae366004615502565b612a30565b348015610bbf57600080fd5b5061044b610bce366004615337565b612a7a565b348015610bdf57600080fd5b506103fe610bee36600461551f565b612b24565b348015610bff57600080fd5b5061044b610c0e366004615337565b612c01565b348015610c1f57600080fd5b506106ea610c2e3660046155f1565b60009081526101cc60205260409020546001600160a01b031690565b348015610c5657600080fd5b506105c6610c6536600461563a565b612c0f565b348015610c7657600080fd5b506103fe610c85366004615502565b612ced565b348015610c9657600080fd5b506103fe610ca53660046155f1565b612e1f565b348015610cb657600080fd5b506103fe610cc5366004615560565b612e35565b348015610cd657600080fd5b506103fe610ce5366004615502565b613160565b348015610cf657600080fd5b506105c6610d05366004615502565b6001600160a01b03166000908152610164602052604090205490565b348015610d2d57600080fd5b506103fe610d3c3660046157af565b613193565b348015610d4d57600080fd5b506105c6610d5c366004615502565b6001600160a01b03166000908152610167602052604090205490565b348015610d8457600080fd5b50610d98610d93366004615502565b6132f7565b6040516104229190615826565b348015610db157600080fd5b5061044b610dc036600461563a565b6133c7565b348015610dd157600080fd5b506105c6610de036600461563a565b6001600160a01b03918216600090815260ca6020908152604080832093909416825291909152205490565b348015610e1757600080fd5b50610e2b610e26366004615337565b613458565b604080516001600160a01b0398891681526020810197909752941515948601949094529115156060850152909316608083015260a082019290925260c081019190915260e001610422565b348015610e8257600080fd5b50610163546105c6565b348015610e9857600080fd5b506101c6546106ea906001600160a01b031681565b348015610eb957600080fd5b506103fe610ec8366004615502565b6134c9565b348015610ed957600080fd5b5061044b610ee8366004615337565b613556565b348015610ef957600080fd5b506103fe610f0836600461563a565b6135e6565b348015610f1957600080fd5b506103fe610f2836600461560a565b613676565b348015610f3957600080fd5b5061068a610f48366004615502565b6136d7565b606060cc8054610f5c906158ad565b80601f0160208091040260200160405190810160405280929190818152602001828054610f88906158ad565b8015610fd55780601f10610faa57610100808354040283529160200191610fd5565b820191906000526020600020905b815481529060010190602001808311610fb857829003601f168201915b5050505050905090565b600033610fed818585613778565b60019150505b92915050565b600080825111801561101657506101c8546001600160a01b031633145b156110815760008280602001905181019061103191906158e1565b905061103e8482876138d0565b7f13c6ec2a463a35f898a457814a782f1f567808293fa783a31fa4dac8868e60118686868660405161107394939291906158fa565b60405180910390a15061125f565b6101c8546001600160a01b03163303611221576101c8546040517fdc9ce7a5000000000000000000000000000000000000000000000000000000008152600481018590526000916001600160a01b03169063dc9ce7a590602401600060405180830381865afa1580156110f8573d6000803e3d6000fd5b505050506040513d6000823e601f3d908101601f1916820160405261112091908101906159f3565b50905060008161012001519050600085905060006101cc60008460008151811061114c5761114c615b12565b6020026020010151815260200190815260200160002060009054906101000a90046001600160a01b0316905060006101cc60008560018151811061119257611192615b12565b60209081029190910181015182528181019290925260409081016000205481518083019092526001600160a01b038581168352169181018290529091506111d98185613a52565b7f13c6ec2a463a35f898a457814a782f1f567808293fa783a31fa4dac8868e60118b8b8b8b60405161120e9493929190615b28565b60405180910390a150505050505061125f565b7f13c6ec2a463a35f898a457814a782f1f567808293fa783a31fa4dac8868e6011858585856040516112569493929190615b9c565b60405180910390a15b507f150b7a02000000000000000000000000000000000000000000000000000000005b949350505050565b6001600160a01b038116600090815261016460205260409020546113045760405162461bcd60e51b815260206004820152602660248201527f5061796d656e7453706c69747465723a206163636f756e7420686173206e6f2060448201526573686172657360d01b60648201526084015b60405180910390fd5b600061130f82612a30565b9050806000036113755760405162461bcd60e51b815260206004820152602b60248201527f5061796d656e7453706c69747465723a206163636f756e74206973206e6f742060448201526a191d59481c185e5b595b9d60aa1b60648201526084016112fb565b8061016360008282546113889190615c26565b90915550506001600160a01b0382166000908152610165602052604090208054820190556113b68282613d6a565b604080516001600160a01b0384168152602081018390527fdf20fd1e76bc69d672e4814fafb2c449bba3a5369d8359adf9e05e6fde87b05691015b60405180910390a15050565b565b6001600160a01b03821660009081526101cd60205260408120815b8154811015611488578382828154811061143657611436615b12565b906000526020600020906005020160040154036114805781818154811061145f5761145f615b12565b600091825260209091206002600590920201015460ff169250610ff3915050565b60010161141a565b5060405162461bcd60e51b815260206004820152601060248201527f506c616e6574206e6f7420666f756e640000000000000000000000000000000060448201526064016112fb565b6114d9613e83565b6113fd613ede565b6000336114ef858285613f38565b6114fa858585613fc4565b506001949350505050565b61150d613e83565b6115156141b8565b604051339081904780156108fc02916000818181858888f19350505050158015611543573d6000803e3d6000fd5b5050565b60608282116115985760405162461bcd60e51b815260206004820152600d60248201527f496e76616c696420696e6465780000000000000000000000000000000000000060448201526064016112fb565b6101cb548211156115eb5760405162461bcd60e51b815260206004820152601360248201527f496e646578206f7574206f6620626f756e64730000000000000000000000000060448201526064016112fb565b60006115f78484615c39565b67ffffffffffffffff81111561160f5761160f6153b5565b60405190808252806020026020018201604052801561166157816020015b60408051608081018252600080825260208083018290529282018190526060820152825260001990920191018161162d5790505b509050835b83811015611707576101cb818154811061168257611682615b12565b600091825260209182902060408051608081018252600393909302909101805483526001810154938301939093526002909201546001600160a01b03811692820192909252600160a01b90910460ff1615156060820152826116e48784615c39565b815181106116f4576116f4615b12565b6020908102919091010152600101611666565b509392505050565b600061171961420b565b905090565b6001600160a01b037f00000000000000000000000000000000000000000000000000000000000000001630036117ab5760405162461bcd60e51b815260206004820152602c60248201527f46756e6374696f6e206d7573742062652063616c6c6564207468726f7567682060448201526b19195b1959d85d1958d85b1b60a21b60648201526084016112fb565b7f00000000000000000000000000000000000000000000000000000000000000006001600160a01b03166118067f360894a13ba1a3210667c828492db98dca3e2076cc3735a920a3ca505d382bbc546001600160a01b031690565b6001600160a01b0316146118715760405162461bcd60e51b815260206004820152602c60248201527f46756e6374696f6e206d7573742062652063616c6c6564207468726f7567682060448201526b6163746976652070726f787960a01b60648201526084016112fb565b61187a81614215565b604080516000808252602082019092526118969183919061421d565b50565b33600081815260ca602090815260408083206001600160a01b0387168452909152812054909190610fed90829086906118d3908790615c26565b613778565b6118e0613e83565b6118e86141b8565b60008281526101cc60205260409020546001600160a01b031661190b83826143bd565b5061191583614451565b6101c854604080516001600160a01b038086168252909216602083015281018490527ffbabfabc293b9daf3d9f8a42d485f10715027db90fd73abbe4ae4b4424decd049060600160405180910390a1505050565b611971613e83565b6113fd6144f1565b6001600160a01b038116600090815261016460205260409020546119ee5760405162461bcd60e51b815260206004820152602660248201527f5061796d656e7453706c69747465723a206163636f756e7420686173206e6f2060448201526573686172657360d01b60648201526084016112fb565b60006119fa8383612c0f565b905080600003611a605760405162461bcd60e51b815260206004820152602b60248201527f5061796d656e7453706c69747465723a206163636f756e74206973206e6f742060448201526a191d59481c185e5b595b9d60aa1b60648201526084016112fb565b6001600160a01b0383166000908152610167602052604081208054839290611a89908490615c26565b90915550506001600160a01b03808416600090815261016860209081526040808320938616835292905220805482019055611ac583838361452a565b604080516001600160a01b038481168252602082018490528516917f3be5b7a71e84ed12875d241991c70855ac5817d847039e17a9d895c1ceb0f18a910160405180910390a2505050565b611b186141b8565b6101c9919091556101c680546001600160a01b039384166001600160a01b0319918216179091556101c88054929093169116179055565b611b57613e83565b6101ce55565b6001600160a01b037f0000000000000000000000000000000000000000000000000000000000000000163003611bea5760405162461bcd60e51b815260206004820152602c60248201527f46756e6374696f6e206d7573742062652063616c6c6564207468726f7567682060448201526b19195b1959d85d1958d85b1b60a21b60648201526084016112fb565b7f00000000000000000000000000000000000000000000000000000000000000006001600160a01b0316611c457f360894a13ba1a3210667c828492db98dca3e2076cc3735a920a3ca505d382bbc546001600160a01b031690565b6001600160a01b031614611cb05760405162461bcd60e51b815260206004820152602c60248201527f46756e6374696f6e206d7573742062652063616c6c6564207468726f7567682060448201526b6163746976652070726f787960a01b60648201526084016112fb565b611cb982614215565b6115438282600161421d565b611ccd6141b8565b60008181526101cc602052604090205433906001600160a01b0316808214611d6f57611cf881614595565b611d0182614595565b60405162461bcd60e51b815260206004820152603260248201527f636c61696d206d7573742062652066726f6d20636c61696d616e74732061646460448201527f726573732d2d20646973616c6c6f7765642e000000000000000000000000000060648201526084016112fb565b611dad6040518060400160405280601781526020017f2d2d4e46542d2d20437469642c207468656e20757365720000000000000000008152506145f6565b611db683614652565b611dbf82614595565b6000611dcb84846143bd565b905080611e405760405162461bcd60e51b815260206004820152602f60248201527f4661696c656420746f2073656e64204e46542e20436865636b20436c61696d6160448201527f6e7420546f6b656e49642073656e74000000000000000000000000000000000060648201526084016112fb565b611e4984614451565b6101c854604080516001600160a01b038087168252909216602083015281018590527ffbabfabc293b9daf3d9f8a42d485f10715027db90fd73abbe4ae4b4424decd04906060015b60405180910390a150505050565b6000306001600160a01b037f00000000000000000000000000000000000000000000000000000000000000001614611f3f5760405162461bcd60e51b815260206004820152603860248201527f555550535570677261646561626c653a206d757374206e6f742062652063616c60448201527f6c6564207468726f7567682064656c656761746563616c6c000000000000000060648201526084016112fb565b507f360894a13ba1a3210667c828492db98dca3e2076cc3735a920a3ca505d382bbc90565b60606101cb805480602002602001604051908101604052809291908181526020016000905b82821015611ff1576000848152602090819020604080516080810182526003860290920180548352600180820154848601526002909101546001600160a01b03811692840192909252600160a01b90910460ff16151560608301529083529092019101611f89565b50505050905090565b612002613e83565b6113fd60006146b0565b6001600160a01b038116600090815261012f6020526040812054610ff3565b6120336141b8565b8082036120a85760405162461bcd60e51b815260206004820152602360248201527f4173657875616c20726570726f64756374696f6e206973206e6f7420616c6c6f60448201527f776564000000000000000000000000000000000000000000000000000000000060648201526084016112fb565b60006120b382614703565b6101c8546040517f6352211e000000000000000000000000000000000000000000000000000000008152600481018690529192506000916001600160a01b0390911690636352211e90602401602060405180830381865afa15801561211c573d6000803e3d6000fd5b505050506040513d601f19601f820116820180604052508101906121409190615c4c565b90506001600160a01b03811630146121e65760405162461bcd60e51b815260206004820152604160248201527f596f75206e65656420746f206c6973742f6465706f7369742074686520706c6160448201527f6e657420796f752061726520747279696e6720746f206272656564207769746860648201527f2e00000000000000000000000000000000000000000000000000000000000000608482015260a4016112fb565b60008060005b6101cb5481101561229357866101cb828154811061220c5761220c615b12565b9060005260206000209060030201600001540361228b576101cb818154811061223757612237615b12565b906000526020600020906003020160020160009054906101000a90046001600160a01b031692506101cb818154811061227257612272615b12565b9060005260206000209060030201600001549150612293565b6001016121ec565b506001600160a01b03821633146123125760405162461bcd60e51b815260206004820152603260248201527f596f7520646f206e6f74206f776e2074686520706c616e657420796f7520617260448201527f6520747279696e6720746f2062726565642e000000000000000000000000000060648201526084016112fb565b600060646101ce54866123259190615c69565b61232f9190615c80565b905080856101c9546123419190615c26565b61234b9190615c26565b3410156123c05760405162461bcd60e51b815260206004820152603760248201527f496e73756666696369656e742066756e647320746f20636f766572205652462060448201527f636f737420616e6420707269636520616e64206665652e00000000000000000060648201526084016112fb565b33600080805b6101cb5481101561246d57896101cb82815481106123e6576123e6615b12565b90600052602060002090600302016000015403612465576101cb818154811061241157612411615b12565b906000526020600020906003020160020160009054906101000a90046001600160a01b031692506101cb818154811061244c5761244c615b12565b906000526020600020906003020160000154915061246d565b6001016123c6565b506706f05b59d3b200004710156124ec5760405162461bcd60e51b815260206004820152603560248201527f436f6e74726163742068617320496e73756666696369656e742062616c616e6360448201527f652c20636f6e746163742068617463686572206871000000000000000000000060648201526084016112fb565b6040516000906001600160a01b038416908a156108fc02908b9084818181858888f193505050509050806125625760405162461bcd60e51b815260206004820152601460248201527f4661696c656420746f2073656e6420457468657200000000000000000000000060448201526064016112fb565b6101c6546101c9546040517f4e9e6a07000000000000000000000000000000000000000000000000000000008152600481018e9052602481018d9052600060448201526001600160a01b0390921691634e9e6a07919060640160206040518083038185885af11580156125d9573d6000803e3d6000fd5b50505050506040513d601f19601f820116820180604052508101906125fe91906158e1565b5060006040518060e00160405280866001600160a01b031681526020018d8152602001600015158152602001600015158152602001856001600160a01b03168152602001848152602001600081525090506101cd6000866001600160a01b03166001600160a01b0316815260200190815260200160002081908060018154018082558091505060019003906000526020600020906005020160009091909190915060008201518160000160006101000a8154816001600160a01b0302191690836001600160a01b031602179055506020820151816001015560408201518160020160006101000a81548160ff02191690831515021790555060608201518160020160016101000a81548160ff02191690831515021790555060808201518160020160026101000a8154816001600160a01b0302191690836001600160a01b0316021790555060a0820151816003015560c082015181600401555050846101cc60008e815260200190815260200160002060006101000a8154816001600160a01b0302191690836001600160a01b03160217905550858a6101c9546127a29190615c26565b6127ac9190615c26565b341115612878576000336001600160a01b0316878c6101c954346127d09190615c39565b6127da9190615c39565b6127e49190615c39565b604051600081818185875af1925050503d8060008114612820576040519150601f19603f3d011682016040523d82523d6000602084013e612825565b606091505b50509050806128765760405162461bcd60e51b815260206004820152601d60248201527f4661696c656420746f20726566756e642065786365737320457468657200000060448201526064016112fb565b505b604080518d81526001600160a01b0387811660208301528183018e90528616606082015290517f8557df6951fbdd47fe9027516fc896be40f285ed55a6acac460352adbab730cd9181900360800190a1505050505050505050505050565b60006060806000806000606060fb546000801b1480156128f6575060fc54155b6129425760405162461bcd60e51b815260206004820152601560248201527f4549503731323a20556e696e697469616c697a6564000000000000000000000060448201526064016112fb565b61294a6147a4565b6129526147b3565b604080516000808252602082019092527f0f000000000000000000000000000000000000000000000000000000000000009b939a50919850469750309650945092509050565b6101ca60205281600052604060002081815481106129b557600080fd5b60009182526020909120600390910201805460018201546002909201549093509091506001600160a01b03811690600160a01b900460ff1684565b60006101668281548110612a0657612a06615b12565b6000918252602090912001546001600160a01b031692915050565b606060cd8054610f5c906158ad565b600080612a3d6101635490565b612a479047615c26565b9050612a738382612a6e866001600160a01b03166000908152610165602052604090205490565b6147c2565b9392505050565b33600081815260ca602090815260408083206001600160a01b038716845290915281205490919083811015612b175760405162461bcd60e51b815260206004820152602560248201527f45524332303a2064656372656173656420616c6c6f77616e63652062656c6f7760448201527f207a65726f00000000000000000000000000000000000000000000000000000060648201526084016112fb565b6114fa8286868403613778565b6040517f095ea7b30000000000000000000000000000000000000000000000000000000081526001600160a01b0383811660048301526024820183905284169063095ea7b3906044016020604051808303816000875af1158015612b8c573d6000803e3d6000fd5b505050506040513d601f19601f82011682018060405250810190612bb09190615ca2565b612bfc5760405162461bcd60e51b815260206004820152601460248201527f455243323020617070726f7665206661696c656400000000000000000000000060448201526064016112fb565b505050565b600033610fed818585613fc4565b6001600160a01b0382166000908152610167602052604081205481906040517f70a082310000000000000000000000000000000000000000000000000000000081523060048201526001600160a01b038616906370a0823190602401602060405180830381865afa158015612c88573d6000803e3d6000fd5b505050506040513d601f19601f82011682018060405250810190612cac91906158e1565b612cb69190615c26565b6001600160a01b038086166000908152610168602090815260408083209388168352929052205490915061128290849083906147c2565b600054610100900460ff1615808015612d0d5750600054600160ff909116105b80612d275750303b158015612d27575060005460ff166001145b612d995760405162461bcd60e51b815260206004820152602e60248201527f496e697469616c697a61626c653a20636f6e747261637420697320616c72656160448201527f647920696e697469616c697a656400000000000000000000000000000000000060648201526084016112fb565b6000805460ff191660011790558015612dbc576000805461ff0019166101001790555b612dc4614802565b612dcc614875565b612dd46148e8565b612ddd826134c9565b8015611543576000805461ff0019169055604051600181527f7f26b83ff96e1f2b6a682f133852f6798a09c465da95921460cefb3847402498906020016113f1565b612e27613e83565b612e2f6141b8565b6101c955565b612e3d6141b8565b6101cb548210612e8f5760405162461bcd60e51b815260206004820152601360248201527f496e646578206f7574206f6620626f756e64730000000000000000000000000060448201526064016112fb565b600033905060006101cb8481548110612eaa57612eaa615b12565b6000918252602091829020604080516080810182526003909302909101805483526001810154938301939093526002909201546001600160a01b03811692820183905260ff600160a01b909104161515606082015291503314612f0c57600080fd5b6040518060800160405280826000015181526020016000815260200182604001516001600160a01b03168152602001600015158152506101cb8581548110612f5657612f56615b12565b60009182526020808320845160039093020191825583810151600180840191909155604080860151600290940180546060909701511515600160a01b0274ffffffffffffffffffffffffffffffffffffffffff199097166001600160a01b0390951694909417959095179092553383526101ca905291902080549091612fdb91615c39565b81548110612feb57612feb615b12565b90600052602060002090600302016101ca6000336001600160a01b03166001600160a01b03168152602001908152602001600020858154811061303057613030615b12565b60009182526020808320845460039093020191825560018085015490830155600293840180549490920180546001600160a01b031981166001600160a01b039096169586178255925460ff600160a01b918290041615150274ffffffffffffffffffffffffffffffffffffffffff19909316909417919091179092553381526101ca909152604090208054806130c8576130c8615cbd565b6000828152602081206003600019909301928302018181556001810191909155600201805474ffffffffffffffffffffffffffffffffffffffffff19169055905561311383836143bd565b506101c8548151604080516001600160a01b03808716825290931660208401528201527f0ece05e698e9e143fb75b2ad0aba7f141238c27b6d3e9728898183ee0d68498b90606001611e91565b613168613e83565b6131706141b8565b6101c780546001600160a01b0319166001600160a01b0392909216919091179055565b834211156131e35760405162461bcd60e51b815260206004820152601d60248201527f45524332305065726d69743a206578706972656420646561646c696e6500000060448201526064016112fb565b60007f6e71edae12b1b97f4d1f60370fef10105fa2faae0126114a169c64845d6126c98888886132128c614953565b6040805160208101969096526001600160a01b0394851690860152929091166060840152608083015260a082015260c0810186905260e001604051602081830303815290604052805190602001209050600061326d8261497a565b9050600061327d828787876149c2565b9050896001600160a01b0316816001600160a01b0316146132e05760405162461bcd60e51b815260206004820152601e60248201527f45524332305065726d69743a20696e76616c6964207369676e6174757265000060448201526064016112fb565b6132eb8a8a8a613778565b50505050505050505050565b6001600160a01b03811660009081526101cd60209081526040808320805482518185028101850190935280835260609492939192909184015b828210156133bc5760008481526020908190206040805160e0810182526005860290920180546001600160a01b03908116845260018083015485870152600283015460ff80821615159587019590955261010081049094161515606086015262010000909304166080840152600381015460a08401526004015460c08301529083529092019101613330565b505050509050919050565b6101c8546040517fe985e9c50000000000000000000000000000000000000000000000000000000081526001600160a01b0384811660048301528381166024830152600092169063e985e9c590604401602060405180830381865afa158015613434573d6000803e3d6000fd5b505050506040513d601f19601f82011682018060405250810190612a739190615ca2565b6101cd602052816000526040600020818154811061347557600080fd5b6000918252602090912060059091020180546001820154600283015460038401546004909401546001600160a01b03938416965091945060ff80821694610100830490911693620100009092049091169187565b6134d1613e83565b6001600160a01b03811661354d5760405162461bcd60e51b815260206004820152602660248201527f4f776e61626c653a206e6577206f776e657220697320746865207a65726f206160448201527f646472657373000000000000000000000000000000000000000000000000000060648201526084016112fb565b611896816146b0565b6001600160a01b03821660009081526101cd60205260408120815b8154811015611488578382828154811061358d5761358d615b12565b906000526020600020906005020160040154036135de578181815481106135b6576135b6615b12565b906000526020600020906005020160020160019054906101000a900460ff1692505050610ff3565b600101613571565b6135ee613e83565b6135f66141b8565b6040517fa22cb4650000000000000000000000000000000000000000000000000000000081526001600160a01b0382811660048301526001602483015283169063a22cb465906044015b600060405180830381600087803b15801561365a57600080fd5b505af115801561366e573d6000803e3d6000fd5b505050505050565b61367e613e83565b6101c8546040517f23b872dd0000000000000000000000000000000000000000000000000000000081523060048201526001600160a01b03838116602483015260448201859052909116906323b872dd90606401613640565b6001600160a01b03811660009081526101ca60209081526040808320805482518185028101850190935280835260609492939192909184015b828210156133bc576000848152602090819020604080516080810182526003860290920180548352600180820154848601526002909101546001600160a01b03811692840192909252600160a01b90910460ff16151560608301529083529092019101613710565b6001600160a01b0383166137f35760405162461bcd60e51b8152602060048201526024808201527f45524332303a20617070726f76652066726f6d20746865207a65726f2061646460448201527f726573730000000000000000000000000000000000000000000000000000000060648201526084016112fb565b6001600160a01b03821661386f5760405162461bcd60e51b815260206004820152602260248201527f45524332303a20617070726f766520746f20746865207a65726f20616464726560448201527f737300000000000000000000000000000000000000000000000000000000000060648201526084016112fb565b6001600160a01b03838116600081815260ca602090815260408083209487168084529482529182902085905590518481527f8c5be1e5ebec7d5bd14f71427d1e84f3dd0314c0f7b2291e5b200ac8c7c3b925910160405180910390a3505050565b604080516080808201835285825260208083018681526001600160a01b03868116858701818152600160608089018281526101cb8054808501825560009182528b5160039182027fe8bbfecd380c4167d6a1f763a233ec73e73f534b1970c4e1683f437ec23c1f4481019190915589517fe8bbfecd380c4167d6a1f763a233ec73e73f534b1970c4e1683f437ec23c1f4582015586517fe8bbfecd380c4167d6a1f763a233ec73e73f534b1970c4e1683f437ec23c1f46909101805485511515600160a01b90810274ffffffffffffffffffffffffffffffffffffffffff19928316948d1694909417939093179091559783526101ca8b528d832080548088018255908452928b90208d5193909202909101918255975193810193909355925160029092018054935115159096029290931690841617179092556101c854865133815291169281019290925293810187905292830185905290917fb30319a217488a3ed441c348e935a48d16091e33109bab0c79a353b9797528839101611e91565b81516020808401516001600160a01b03831660009081526101cd90925260409091205415613ba95760005b6001600160a01b03831660009081526101cd6020526040902054811015613ba3576001600160a01b0383811660009081526101cd6020526040902080549184169183908110613ace57613ace615b12565b60009182526020909120600590910201600201546201000090046001600160a01b031603613b9b576001600160a01b03831660009081526101cd6020526040902080546001919083908110613b2557613b25615b12565b906000526020600020906005020160020160016101000a81548160ff021916908315150217905550836101cd6000856001600160a01b03166001600160a01b031681526020019081526020016000208281548110613b8557613b85615b12565b9060005260206000209060050201600401819055505b600101613a7d565b50613d64565b6020808501516001600160a01b031660009081526101cd909152604090205415613cf65760005b6001600160a01b03821660009081526101cd6020526040902054811015613ba3576001600160a01b0382811660009081526101cd6020526040902080549185169183908110613c2157613c21615b12565b60009182526020909120600590910201600201546201000090046001600160a01b031603613cee576001600160a01b03821660009081526101cd6020526040902080546001919083908110613c7857613c78615b12565b906000526020600020906005020160020160016101000a81548160ff021916908315150217905550836101cd6000846001600160a01b03166001600160a01b031681526020019081526020016000208281548110613cd857613cd8615b12565b9060005260206000209060050201600401819055505b600101613bd0565b60405162461bcd60e51b815260206004820152602560248201527f706c616e65742073656e7420657272616e746c792c206e6f206f6e6520746f2060448201527f636c61696d00000000000000000000000000000000000000000000000000000060648201526084016112fb565b50505050565b80471015613dba5760405162461bcd60e51b815260206004820152601d60248201527f416464726573733a20696e73756666696369656e742062616c616e636500000060448201526064016112fb565b6000826001600160a01b03168260405160006040518083038185875af1925050503d8060008114613e07576040519150601f19603f3d011682016040523d82523d6000602084013e613e0c565b606091505b5050905080612bfc5760405162461bcd60e51b815260206004820152603a60248201527f416464726573733a20756e61626c6520746f2073656e642076616c75652c207260448201527f6563697069656e74206d6179206861766520726576657274656400000000000060648201526084016112fb565b610194546001600160a01b031633146113fd5760405162461bcd60e51b815260206004820181905260248201527f4f776e61626c653a2063616c6c6572206973206e6f7420746865206f776e657260448201526064016112fb565b613ee66141b8565b6033805460ff191660011790557f62e78cea01bee320cd4e420270b5ea74000d11b0c9f74754ebdbfc544b05a258613f1b3390565b6040516001600160a01b03909116815260200160405180910390a1565b6001600160a01b03838116600090815260ca60209081526040808320938616835292905220546000198114613d645781811015613fb75760405162461bcd60e51b815260206004820152601d60248201527f45524332303a20696e73756666696369656e7420616c6c6f77616e636500000060448201526064016112fb565b613d648484848403613778565b6001600160a01b0383166140405760405162461bcd60e51b815260206004820152602560248201527f45524332303a207472616e736665722066726f6d20746865207a65726f20616460448201527f647265737300000000000000000000000000000000000000000000000000000060648201526084016112fb565b6001600160a01b0382166140bc5760405162461bcd60e51b815260206004820152602360248201527f45524332303a207472616e7366657220746f20746865207a65726f206164647260448201527f657373000000000000000000000000000000000000000000000000000000000060648201526084016112fb565b6001600160a01b038316600090815260c960205260409020548181101561414b5760405162461bcd60e51b815260206004820152602660248201527f45524332303a207472616e7366657220616d6f756e742065786365656473206260448201527f616c616e6365000000000000000000000000000000000000000000000000000060648201526084016112fb565b6001600160a01b03808516600081815260c9602052604080822086860390559286168082529083902080548601905591517fddf252ad1be2c89b69c2b068fc378daa952ba7f163c4a11628f55a4df523b3ef906141ab9086815260200190565b60405180910390a3613d64565b60335460ff16156113fd5760405162461bcd60e51b815260206004820152601060248201527f5061757361626c653a207061757365640000000000000000000000000000000060448201526064016112fb565b60006117196149ea565b611896613e83565b7f4910fdfa16fed3260ed0e7147f7cc6da11a60208b5b9406d12a635614ffd91435460ff161561425057612bfc83614a5e565b826001600160a01b03166352d1902d6040518163ffffffff1660e01b8152600401602060405180830381865afa9250505080156142aa575060408051601f3d908101601f191682019092526142a7918101906158e1565b60015b61431c5760405162461bcd60e51b815260206004820152602e60248201527f45524331393637557067726164653a206e657720696d706c656d656e7461746960448201527f6f6e206973206e6f74205555505300000000000000000000000000000000000060648201526084016112fb565b7f360894a13ba1a3210667c828492db98dca3e2076cc3735a920a3ca505d382bbc81146143b15760405162461bcd60e51b815260206004820152602960248201527f45524331393637557067726164653a20756e737570706f727465642070726f7860448201527f6961626c6555554944000000000000000000000000000000000000000000000060648201526084016112fb565b50612bfc838383614b1c565b6101c8546040517f42842e0e0000000000000000000000000000000000000000000000000000000081523060048201526001600160a01b0383811660248301526044820185905260009216906342842e0e90606401600060405180830381600087803b15801561442c57600080fd5b505af192505050801561443d575060015b61444957506000610ff3565b506001610ff3565b60008181526101cc60209081526040808320546001600160a01b03168084526101cd909252822090915b8154811015613d64578382828154811061449757614497615b12565b906000526020600020906005020160040154036144e95760018282815481106144c2576144c2615b12565b60009182526020909120600590910201600201805460ff1916911515919091179055613d64565b60010161447b565b6144f9614b41565b6033805460ff191690557f5db9ee0a495bf2e6ff9c91a7834c1ba4fdd244a5e8aa4e537bd38aeae4b073aa33613f1b565b604080516001600160a01b038416602482015260448082018490528251808303909101815260649091019091526020810180516001600160e01b03167fa9059cbb00000000000000000000000000000000000000000000000000000000179052612bfc908490614b93565b6040516001600160a01b03821660248201526118969060440160408051601f198184030181529190526020810180516001600160e01b03167f2c2ecbc200000000000000000000000000000000000000000000000000000000179052614c7b565b6118968160405160240161460a919061530f565b60408051601f198184030181529190526020810180516001600160e01b03167f41304fac00000000000000000000000000000000000000000000000000000000179052614c7b565b6118968160405160240161466891815260200190565b60408051601f198184030181529190526020810180516001600160e01b03167ff82c50f100000000000000000000000000000000000000000000000000000000179052614c7b565b61019480546001600160a01b038381166001600160a01b0319831681179093556040519116919082907f8be0079c531659141344cd1fd0a4f28419497f9722a3daafe3b4186f6b6457e090600090a35050565b600061470d6141b8565b60005b6101cb5481101561479d57826101cb828154811061473057614730615b12565b90600052602060002090600302016000015403614775576101cb818154811061475b5761475b615b12565b906000526020600020906003020160010154915050919050565b6101cb5461478590600190615c39565b8103614795575060001992915050565b600101614710565b505b919050565b606060fd8054610f5c906158ad565b606060fe8054610f5c906158ad565b610162546001600160a01b03841660009081526101646020526040812054909183916147ee9086615c69565b6147f89190615c80565b6112829190615c39565b600054610100900460ff1661486d5760405162461bcd60e51b815260206004820152602b60248201527f496e697469616c697a61626c653a20636f6e7472616374206973206e6f74206960448201526a6e697469616c697a696e6760a81b60648201526084016112fb565b6113fd614c84565b600054610100900460ff166148e05760405162461bcd60e51b815260206004820152602b60248201527f496e697469616c697a61626c653a20636f6e7472616374206973206e6f74206960448201526a6e697469616c697a696e6760a81b60648201526084016112fb565b6113fd614cf8565b600054610100900460ff166113fd5760405162461bcd60e51b815260206004820152602b60248201527f496e697469616c697a61626c653a20636f6e7472616374206973206e6f74206960448201526a6e697469616c697a696e6760a81b60648201526084016112fb565b6001600160a01b038116600090815261012f6020526040902080546001810182559061479d565b6000610ff361498761420b565b836040517f19010000000000000000000000000000000000000000000000000000000000008152600281019290925260228201526042902090565b60008060006149d387878787614d6f565b915091506149e081614e33565b5095945050505050565b60007f8b73c3c69bb8fe3d512ecc4cf759cc79239f7b179b0ffacaa9a75d522b39400f614a15614f98565b614a1d614ff1565b60408051602081019490945283019190915260608201524660808201523060a082015260c00160405160208183030381529060405280519060200120905090565b6001600160a01b0381163b614adb5760405162461bcd60e51b815260206004820152602d60248201527f455243313936373a206e657720696d706c656d656e746174696f6e206973206e60448201527f6f74206120636f6e74726163740000000000000000000000000000000000000060648201526084016112fb565b7f360894a13ba1a3210667c828492db98dca3e2076cc3735a920a3ca505d382bbc80546001600160a01b0319166001600160a01b0392909216919091179055565b614b2583615022565b600082511180614b325750805b15612bfc57613d648383615062565b60335460ff166113fd5760405162461bcd60e51b815260206004820152601460248201527f5061757361626c653a206e6f742070617573656400000000000000000000000060448201526064016112fb565b6000614be8826040518060400160405280602081526020017f5361666545524332303a206c6f772d6c6576656c2063616c6c206661696c6564815250856001600160a01b03166150879092919063ffffffff16565b9050805160001480614c09575080806020019051810190614c099190615ca2565b612bfc5760405162461bcd60e51b815260206004820152602a60248201527f5361666545524332303a204552433230206f7065726174696f6e20646964206e60448201527f6f7420737563636565640000000000000000000000000000000000000000000060648201526084016112fb565b61189681615096565b600054610100900460ff16614cef5760405162461bcd60e51b815260206004820152602b60248201527f496e697469616c697a61626c653a20636f6e7472616374206973206e6f74206960448201526a6e697469616c697a696e6760a81b60648201526084016112fb565b6113fd336146b0565b600054610100900460ff16614d635760405162461bcd60e51b815260206004820152602b60248201527f496e697469616c697a61626c653a20636f6e7472616374206973206e6f74206960448201526a6e697469616c697a696e6760a81b60648201526084016112fb565b6033805460ff19169055565b6000807f7fffffffffffffffffffffffffffffff5d576e7357a4501ddfe92f46681b20a0831115614da65750600090506003614e2a565b6040805160008082526020820180845289905260ff881692820192909252606081018690526080810185905260019060a0016020604051602081039080840390855afa158015614dfa573d6000803e3d6000fd5b5050604051601f1901519150506001600160a01b038116614e2357600060019250925050614e2a565b9150600090505b94509492505050565b6000816004811115614e4757614e47615cd3565b03614e4f5750565b6001816004811115614e6357614e63615cd3565b03614eb05760405162461bcd60e51b815260206004820152601860248201527f45434453413a20696e76616c6964207369676e6174757265000000000000000060448201526064016112fb565b6002816004811115614ec457614ec4615cd3565b03614f115760405162461bcd60e51b815260206004820152601f60248201527f45434453413a20696e76616c6964207369676e6174757265206c656e6774680060448201526064016112fb565b6003816004811115614f2557614f25615cd3565b036118965760405162461bcd60e51b815260206004820152602260248201527f45434453413a20696e76616c6964207369676e6174757265202773272076616c60448201527f756500000000000000000000000000000000000000000000000000000000000060648201526084016112fb565b600080614fa36147a4565b805190915015614fba578051602090910120919050565b60fb548015614fc95792915050565b7fc5d2460186f7233c927e7db2dcc703c0e500b653ca82273b7bfad8045d85a4709250505090565b600080614ffc6147b3565b805190915015615013578051602090910120919050565b60fc548015614fc95792915050565b61502b81614a5e565b6040516001600160a01b038216907fbc7cd75a20ee27fd9adebab32041f755214dbc6bffa90cc0225b39da2e5c2d3b90600090a250565b6060612a738383604051806060016040528060278152602001615d06602791396150b7565b6060611282848460008561512f565b60006a636f6e736f6c652e6c6f679050600080835160208501845afa505050565b6060600080856001600160a01b0316856040516150d49190615ce9565b600060405180830381855af49150503d806000811461510f576040519150601f19603f3d011682016040523d82523d6000602084013e615114565b606091505b509150915061512586838387615221565b9695505050505050565b6060824710156151a75760405162461bcd60e51b815260206004820152602660248201527f416464726573733a20696e73756666696369656e742062616c616e636520666f60448201527f722063616c6c000000000000000000000000000000000000000000000000000060648201526084016112fb565b600080866001600160a01b031685876040516151c39190615ce9565b60006040518083038185875af1925050503d8060008114615200576040519150601f19603f3d011682016040523d82523d6000602084013e615205565b606091505b509150915061521687838387615221565b979650505050505050565b60608315615290578251600003615289576001600160a01b0385163b6152895760405162461bcd60e51b815260206004820152601d60248201527f416464726573733a2063616c6c20746f206e6f6e2d636f6e747261637400000060448201526064016112fb565b5081611282565b61128283838151156152a55781518083602001fd5b8060405162461bcd60e51b81526004016112fb919061530f565b60005b838110156152da5781810151838201526020016152c2565b50506000910152565b600081518084526152fb8160208601602086016152bf565b601f01601f19169290920160200192915050565b602081526000612a7360208301846152e3565b6001600160a01b038116811461189657600080fd5b6000806040838503121561534a57600080fd5b823561535581615322565b946020939093013593505050565b600080600080600060a0868803121561537b57600080fd5b853561538681615322565b945060208601359350604086013561539d81615322565b94979396509394606081013594506080013592915050565b634e487b7160e01b600052604160045260246000fd5b604051610160810167ffffffffffffffff811182821017156153ef576153ef6153b5565b60405290565b604051601f8201601f1916810167ffffffffffffffff8111828210171561541e5761541e6153b5565b604052919050565b600082601f83011261543757600080fd5b813567ffffffffffffffff811115615451576154516153b5565b615464601f8201601f19166020016153f5565b81815284602083860101111561547957600080fd5b816020850160208301376000918101602001919091529392505050565b600080600080608085870312156154ac57600080fd5b84356154b781615322565b935060208501356154c781615322565b925060408501359150606085013567ffffffffffffffff8111156154ea57600080fd5b6154f687828801615426565b91505092959194509250565b60006020828403121561551457600080fd5b8135612a7381615322565b60008060006060848603121561553457600080fd5b833561553f81615322565b9250602084013561554f81615322565b929592945050506040919091013590565b6000806040838503121561557357600080fd5b50508035926020909101359150565b602080825282518282018190526000919060409081850190868401855b828110156155e4578151805185528681015187860152858101516001600160a01b0316868601526060908101511515908501526080909301929085019060010161559f565b5091979650505050505050565b60006020828403121561560357600080fd5b5035919050565b6000806040838503121561561d57600080fd5b82359150602083013561562f81615322565b809150509250929050565b6000806040838503121561564d57600080fd5b823561565881615322565b9150602083013561562f81615322565b60008060006060848603121561567d57600080fd5b833561568881615322565b925060208401359150604084013561569f81615322565b809150509250925092565b600080604083850312156156bd57600080fd5b82356156c881615322565b9150602083013567ffffffffffffffff8111156156e457600080fd5b6156f085828601615426565b9150509250929050565b7fff00000000000000000000000000000000000000000000000000000000000000881681526000602060e0602084015261573760e084018a6152e3565b8381036040850152615749818a6152e3565b606085018990526001600160a01b038816608086015260a0850187905284810360c08601528551808252602080880193509091019060005b8181101561579d57835183529284019291840191600101615781565b50909c9b505050505050505050505050565b600080600080600080600060e0888a0312156157ca57600080fd5b87356157d581615322565b965060208801356157e581615322565b95506040880135945060608801359350608088013560ff8116811461580957600080fd5b9699959850939692959460a0840135945060c09093013592915050565b602080825282518282018190526000919060409081850190868401855b828110156155e457815180516001600160a01b0390811686528782015188870152868201511515878701526060808301511515908701526080808301519091169086015260a0808201519086015260c0908101519085015260e09093019290850190600101615843565b600181811c908216806158c157607f821691505b60208210810361479d57634e487b7160e01b600052602260045260246000fd5b6000602082840312156158f357600080fd5b5051919050565b60006001600160a01b03808716835280861660208401525083604083015260a0606083015261592c60a08301846152e3565b8281036080840152600e81527f6c697374696e6720706c616e657400000000000000000000000000000000000060208201526040810191505095945050505050565b600082601f83011261597f57600080fd5b8151602067ffffffffffffffff82111561599b5761599b6153b5565b8160051b6159aa8282016153f5565b92835284810182019282810190878511156159c457600080fd5b83870192505b84831015615216578251825291830191908301906159ca565b8051801515811461479f57600080fd5b60008060408385031215615a0657600080fd5b825167ffffffffffffffff80821115615a1e57600080fd5b908401906101608287031215615a3357600080fd5b615a3b6153cb565b825181526020830151602082015260408301516040820152606083015160608201526080830151608082015260a083015160a082015260c083015160c082015260e083015160e08201526101008084015183811115615a9957600080fd5b615aa58982870161596e565b8284015250506101208084015183811115615abf57600080fd5b615acb8982870161596e565b8284015250506101408084015183811115615ae557600080fd5b615af18982870161596e565b828401525050809450505050615b09602084016159e3565b90509250929050565b634e487b7160e01b600052603260045260246000fd5b60006001600160a01b03808716835280861660208401525083604083015260a06060830152615b5a60a08301846152e3565b8281036080840152600a81527f6e657720706c616e65740000000000000000000000000000000000000000000060208201526040810191505095945050505050565b60006001600160a01b03808716835280861660208401525083604083015260a06060830152615bce60a08301846152e3565b8281036080840152600d81527f756e63617465676f72697a65640000000000000000000000000000000000000060208201526040810191505095945050505050565b634e487b7160e01b600052601160045260246000fd5b80820180821115610ff357610ff3615c10565b81810381811115610ff357610ff3615c10565b600060208284031215615c5e57600080fd5b8151612a7381615322565b8082028115828204841417610ff357610ff3615c10565b600082615c9d57634e487b7160e01b600052601260045260246000fd5b500490565b600060208284031215615cb457600080fd5b612a73826159e3565b634e487b7160e01b600052603160045260246000fd5b634e487b7160e01b600052602160045260246000fd5b60008251615cfb8184602087016152bf565b919091019291505056fe416464726573733a206c6f772d6c6576656c2064656c65676174652063616c6c206661696c6564a26469706673582212208346a7d5682926c8768cabdeb276da0662c8cf7485cf330951e31bbdb84ef27c64736f6c63430008180033",
  "linkReferences": {},
  "deployedLinkReferences": {}
}