{
  "_format": "hh-sol-artifact-1",
  "contractName": "InternalTests",
  "sourceName": "contracts/test/InternalTests.sol",
  "abi": [
    {
      "inputs": [],
      "stateMutability": "nonpayable",
      "type": "constructor"
    },
    {
      "inputs": [],
      "name": "Unauthorized",
      "type": "error"
    },
    {
      "anonymous": false,
      "inputs": [
        {
          "indexed": false,
          "internalType": "address",
          "name": "previousAdmin",
          "type": "address"
        },
        {
          "indexed": false,
          "internalType": "address",
          "name": "newAdmin",
          "type": "address"
        }
      ],
      "name": "AdminChanged",
      "type": "event"
    },
    {
      "anonymous": false,
      "inputs": [
        {
          "indexed": true,
          "internalType": "address",
          "name": "owner",
          "type": "address"
        },
        {
          "indexed": true,
          "internalType": "address",
          "name": "spender",
          "type": "address"
        },
        {
          "indexed": false,
          "internalType": "uint256",
          "name": "value",
          "type": "uint256"
        }
      ],
      "name": "Approval",
      "type": "event"
    },
    {
      "anonymous": false,
      "inputs": [
        {
          "indexed": true,
          "internalType": "address",
          "name": "beacon",
          "type": "address"
        }
      ],
      "name": "BeaconUpgraded",
      "type": "event"
    },
    {
      "anonymous": false,
      "inputs": [
        {
          "indexed": false,
          "internalType": "address",
          "name": "sentToUser",
          "type": "address"
        },
        {
          "indexed": false,
          "internalType": "address",
          "name": "token",
          "type": "address"
        },
        {
          "indexed": false,
          "internalType": "uint256",
          "name": "tokenId",
          "type": "uint256"
        }
      ],
      "name": "DeClaimedAPlanet",
      "type": "event"
    },
    {
      "anonymous": false,
      "inputs": [
        {
          "indexed": false,
          "internalType": "address",
          "name": "sentToUser",
          "type": "address"
        },
        {
          "indexed": false,
          "internalType": "address",
          "name": "token",
          "type": "address"
        },
        {
          "indexed": false,
          "internalType": "uint256",
          "name": "tokenId",
          "type": "uint256"
        }
      ],
      "name": "DeListedAPlanet",
      "type": "event"
    },
    {
      "anonymous": false,
      "inputs": [],
      "name": "EIP712DomainChanged",
      "type": "event"
    },
    {
      "anonymous": false,
      "inputs": [
        {
          "indexed": true,
          "internalType": "contract IERC20Upgradeable",
          "name": "token",
          "type": "address"
        },
        {
          "indexed": false,
          "internalType": "address",
          "name": "to",
          "type": "address"
        },
        {
          "indexed": false,
          "internalType": "uint256",
          "name": "amount",
          "type": "uint256"
        }
      ],
      "name": "ERC20PaymentReleased",
      "type": "event"
    },
    {
      "anonymous": false,
      "inputs": [
        {
          "indexed": false,
          "internalType": "uint8",
          "name": "version",
          "type": "uint8"
        }
      ],
      "name": "Initialized",
      "type": "event"
    },
    {
      "anonymous": false,
      "inputs": [
        {
          "indexed": false,
          "internalType": "address",
          "name": "sentFromUser",
          "type": "address"
        },
        {
          "indexed": false,
          "internalType": "address",
          "name": "token",
          "type": "address"
        },
        {
          "indexed": false,
          "internalType": "uint256",
          "name": "tokenId",
          "type": "uint256"
        },
        {
          "indexed": false,
          "internalType": "uint256",
          "name": "price",
          "type": "uint256"
        }
      ],
      "name": "ListedAPlanet",
      "type": "event"
    },
    {
      "anonymous": false,
      "inputs": [
        {
          "indexed": false,
          "internalType": "address",
          "name": "operator",
          "type": "address"
        },
        {
          "indexed": false,
          "internalType": "address",
          "name": "from",
          "type": "address"
        },
        {
          "indexed": false,
          "internalType": "uint256",
          "name": "tokenId",
          "type": "uint256"
        },
        {
          "indexed": false,
          "internalType": "bytes",
          "name": "data",
          "type": "bytes"
        },
        {
          "indexed": false,
          "internalType": "string",
          "name": "typeOfReceival",
          "type": "string"
        }
      ],
      "name": "NftReceived",
      "type": "event"
    },
    {
      "anonymous": false,
      "inputs": [
        {
          "indexed": true,
          "internalType": "address",
          "name": "previousOwner",
          "type": "address"
        },
        {
          "indexed": true,
          "internalType": "address",
          "name": "newOwner",
          "type": "address"
        }
      ],
      "name": "OwnershipTransferred",
      "type": "event"
    },
    {
      "anonymous": false,
      "inputs": [
        {
          "indexed": false,
          "internalType": "address",
          "name": "account",
          "type": "address"
        }
      ],
      "name": "Paused",
      "type": "event"
    },
    {
      "anonymous": false,
      "inputs": [
        {
          "indexed": false,
          "internalType": "address",
          "name": "account",
          "type": "address"
        },
        {
          "indexed": false,
          "internalType": "uint256",
          "name": "shares",
          "type": "uint256"
        }
      ],
      "name": "PayeeAdded",
      "type": "event"
    },
    {
      "anonymous": false,
      "inputs": [
        {
          "indexed": false,
          "internalType": "address",
          "name": "from",
          "type": "address"
        },
        {
          "indexed": false,
          "internalType": "uint256",
          "name": "amount",
          "type": "uint256"
        }
      ],
      "name": "PaymentReceived",
      "type": "event"
    },
    {
      "anonymous": false,
      "inputs": [
        {
          "indexed": false,
          "internalType": "address",
          "name": "to",
          "type": "address"
        },
        {
          "indexed": false,
          "internalType": "uint256",
          "name": "amount",
          "type": "uint256"
        }
      ],
      "name": "PaymentReleased",
      "type": "event"
    },
    {
      "anonymous": false,
      "inputs": [
        {
          "indexed": false,
          "internalType": "uint256",
          "name": "planetAsking",
          "type": "uint256"
        },
        {
          "indexed": false,
          "internalType": "address",
          "name": "askingUser",
          "type": "address"
        },
        {
          "indexed": false,
          "internalType": "uint256",
          "name": "planetJoining",
          "type": "uint256"
        },
        {
          "indexed": false,
          "internalType": "address",
          "name": "joiningUser",
          "type": "address"
        }
      ],
      "name": "PlanetsConjoining",
      "type": "event"
    },
    {
      "anonymous": false,
      "inputs": [
        {
          "indexed": true,
          "internalType": "address",
          "name": "from",
          "type": "address"
        },
        {
          "indexed": true,
          "internalType": "address",
          "name": "to",
          "type": "address"
        },
        {
          "indexed": false,
          "internalType": "uint256",
          "name": "value",
          "type": "uint256"
        }
      ],
      "name": "Transfer",
      "type": "event"
    },
    {
      "anonymous": false,
      "inputs": [
        {
          "indexed": false,
          "internalType": "address",
          "name": "account",
          "type": "address"
        }
      ],
      "name": "Unpaused",
      "type": "event"
    },
    {
      "anonymous": false,
      "inputs": [
        {
          "indexed": true,
          "internalType": "address",
          "name": "implementation",
          "type": "address"
        }
      ],
      "name": "Upgraded",
      "type": "event"
    },
    {
      "stateMutability": "payable",
      "type": "fallback"
    },
    {
      "inputs": [],
      "name": "DOMAIN_SEPARATOR",
      "outputs": [
        {
          "internalType": "bytes32",
          "name": "",
          "type": "bytes32"
        }
      ],
      "stateMutability": "view",
      "type": "function"
    },
    {
      "inputs": [
        {
          "internalType": "uint256",
          "name": "_claimTokenId",
          "type": "uint256"
        },
        {
          "internalType": "address",
          "name": "_claimAddr",
          "type": "address"
        }
      ],
      "name": "addClaimant",
      "outputs": [],
      "stateMutability": "nonpayable",
      "type": "function"
    },
    {
      "inputs": [
        {
          "internalType": "address",
          "name": "owner",
          "type": "address"
        },
        {
          "internalType": "address",
          "name": "spender",
          "type": "address"
        }
      ],
      "name": "allowance",
      "outputs": [
        {
          "internalType": "uint256",
          "name": "",
          "type": "uint256"
        }
      ],
      "stateMutability": "view",
      "type": "function"
    },
    {
      "inputs": [
        {
          "internalType": "address",
          "name": "spender",
          "type": "address"
        },
        {
          "internalType": "uint256",
          "name": "amount",
          "type": "uint256"
        }
      ],
      "name": "approve",
      "outputs": [
        {
          "internalType": "bool",
          "name": "",
          "type": "bool"
        }
      ],
      "stateMutability": "nonpayable",
      "type": "function"
    },
    {
      "inputs": [
        {
          "internalType": "contract IERC721",
          "name": "token",
          "type": "address"
        },
        {
          "internalType": "address",
          "name": "operator",
          "type": "address"
        }
      ],
      "name": "approveAllERC721Tokens",
      "outputs": [],
      "stateMutability": "nonpayable",
      "type": "function"
    },
    {
      "inputs": [
        {
          "internalType": "contract IERC20",
          "name": "token",
          "type": "address"
        },
        {
          "internalType": "address",
          "name": "spender",
          "type": "address"
        },
        {
          "internalType": "uint256",
          "name": "amount",
          "type": "uint256"
        }
      ],
      "name": "approveERC20",
      "outputs": [],
      "stateMutability": "nonpayable",
      "type": "function"
    },
    {
      "inputs": [
        {
          "internalType": "address",
          "name": "userAsking",
          "type": "address"
        },
        {
          "internalType": "uint256",
          "name": "askingPlanet",
          "type": "uint256"
        },
        {
          "internalType": "address",
          "name": "otherParent",
          "type": "address"
        },
        {
          "internalType": "uint256",
          "name": "otherTokenId",
          "type": "uint256"
        },
        {
          "internalType": "uint256",
          "name": "cTokenId",
          "type": "uint256"
        }
      ],
      "name": "arriveClaimablePlanet",
      "outputs": [],
      "stateMutability": "nonpayable",
      "type": "function"
    },
    {
      "inputs": [
        {
          "internalType": "address",
          "name": "account",
          "type": "address"
        }
      ],
      "name": "balanceOf",
      "outputs": [
        {
          "internalType": "uint256",
          "name": "",
          "type": "uint256"
        }
      ],
      "stateMutability": "view",
      "type": "function"
    },
    {
      "inputs": [],
      "name": "breedContract",
      "outputs": [
        {
          "internalType": "contract IBreedContract",
          "name": "",
          "type": "address"
        }
      ],
      "stateMutability": "view",
      "type": "function"
    },
    {
      "inputs": [
        {
          "internalType": "uint256",
          "name": "newVRF",
          "type": "uint256"
        }
      ],
      "name": "changeVRFValue",
      "outputs": [],
      "stateMutability": "nonpayable",
      "type": "function"
    },
    {
      "inputs": [
        {
          "internalType": "address",
          "name": "owner",
          "type": "address"
        },
        {
          "internalType": "address",
          "name": "operator",
          "type": "address"
        }
      ],
      "name": "checkApprovalForAll",
      "outputs": [
        {
          "internalType": "bool",
          "name": "",
          "type": "bool"
        }
      ],
      "stateMutability": "view",
      "type": "function"
    },
    {
      "inputs": [
        {
          "internalType": "uint256",
          "name": "claimableTokenId",
          "type": "uint256"
        }
      ],
      "name": "claimPlanet",
      "outputs": [],
      "stateMutability": "nonpayable",
      "type": "function"
    },
    {
      "inputs": [
        {
          "internalType": "address",
          "name": "",
          "type": "address"
        },
        {
          "internalType": "uint256",
          "name": "",
          "type": "uint256"
        }
      ],
      "name": "claimablePlanets",
      "outputs": [
        {
          "internalType": "address",
          "name": "ownerParentAddress",
          "type": "address"
        },
        {
          "internalType": "uint256",
          "name": "ownerTokenId",
          "type": "uint256"
        },
        {
          "internalType": "bool",
          "name": "delivered",
          "type": "bool"
        },
        {
          "internalType": "bool",
          "name": "arrived",
          "type": "bool"
        },
        {
          "internalType": "address",
          "name": "otherParent",
          "type": "address"
        },
        {
          "internalType": "uint256",
          "name": "otherTokenId",
          "type": "uint256"
        },
        {
          "internalType": "uint256",
          "name": "claimsTokenId",
          "type": "uint256"
        }
      ],
      "stateMutability": "view",
      "type": "function"
    },
    {
      "inputs": [
        {
          "internalType": "uint256",
          "name": "",
          "type": "uint256"
        }
      ],
      "name": "claimantTokenIdToOwnerAddress",
      "outputs": [
        {
          "internalType": "address",
          "name": "",
          "type": "address"
        }
      ],
      "stateMutability": "view",
      "type": "function"
    },
    {
      "inputs": [
        {
          "internalType": "uint256",
          "name": "yourPlanet",
          "type": "uint256"
        },
        {
          "internalType": "uint256",
          "name": "withListedPlanet",
          "type": "uint256"
        }
      ],
      "name": "conjunct",
      "outputs": [],
      "stateMutability": "payable",
      "type": "function"
    },
    {
      "inputs": [
        {
          "internalType": "uint256",
          "name": "idIndex",
          "type": "uint256"
        },
        {
          "internalType": "uint256",
          "name": "tokenId",
          "type": "uint256"
        }
      ],
      "name": "deList",
      "outputs": [],
      "stateMutability": "nonpayable",
      "type": "function"
    },
    {
      "inputs": [],
      "name": "deListAllYourPlanets",
      "outputs": [],
      "stateMutability": "nonpayable",
      "type": "function"
    },
    {
      "inputs": [],
      "name": "decimals",
      "outputs": [
        {
          "internalType": "uint8",
          "name": "",
          "type": "uint8"
        }
      ],
      "stateMutability": "view",
      "type": "function"
    },
    {
      "inputs": [
        {
          "internalType": "address",
          "name": "spender",
          "type": "address"
        },
        {
          "internalType": "uint256",
          "name": "subtractedValue",
          "type": "uint256"
        }
      ],
      "name": "decreaseAllowance",
      "outputs": [
        {
          "internalType": "bool",
          "name": "",
          "type": "bool"
        }
      ],
      "stateMutability": "nonpayable",
      "type": "function"
    },
    {
      "inputs": [
        {
          "internalType": "address",
          "name": "userAsking",
          "type": "address"
        },
        {
          "internalType": "uint256",
          "name": "askingPlanet",
          "type": "uint256"
        },
        {
          "internalType": "address",
          "name": "otherParent",
          "type": "address"
        },
        {
          "internalType": "uint256",
          "name": "otherTokenId",
          "type": "uint256"
        },
        {
          "internalType": "uint256",
          "name": "cTokenId",
          "type": "uint256"
        }
      ],
      "name": "deliverClaimablePlanet",
      "outputs": [],
      "stateMutability": "nonpayable",
      "type": "function"
    },
    {
      "inputs": [],
      "name": "eip712Domain",
      "outputs": [
        {
          "internalType": "bytes1",
          "name": "fields",
          "type": "bytes1"
        },
        {
          "internalType": "string",
          "name": "name",
          "type": "string"
        },
        {
          "internalType": "string",
          "name": "version",
          "type": "string"
        },
        {
          "internalType": "uint256",
          "name": "chainId",
          "type": "uint256"
        },
        {
          "internalType": "address",
          "name": "verifyingContract",
          "type": "address"
        },
        {
          "internalType": "bytes32",
          "name": "salt",
          "type": "bytes32"
        },
        {
          "internalType": "uint256[]",
          "name": "extensions",
          "type": "uint256[]"
        }
      ],
      "stateMutability": "view",
      "type": "function"
    },
    {
      "inputs": [],
      "name": "getAllPlanets",
      "outputs": [
        {
          "components": [
            {
              "internalType": "uint256",
              "name": "tokenId",
              "type": "uint256"
            },
            {
              "internalType": "uint256",
              "name": "price",
              "type": "uint256"
            },
            {
              "internalType": "address",
              "name": "ownerAddress",
              "type": "address"
            },
            {
              "internalType": "bool",
              "name": "active",
              "type": "bool"
            }
          ],
          "internalType": "struct ListedPlanet[]",
          "name": "",
          "type": "tuple[]"
        }
      ],
      "stateMutability": "view",
      "type": "function"
    },
    {
      "inputs": [
        {
          "internalType": "address",
          "name": "userAddr",
          "type": "address"
        }
      ],
      "name": "getClaimablePlanetsFor",
      "outputs": [
        {
          "components": [
            {
              "internalType": "address",
              "name": "ownerParentAddress",
              "type": "address"
            },
            {
              "internalType": "uint256",
              "name": "ownerTokenId",
              "type": "uint256"
            },
            {
              "internalType": "bool",
              "name": "delivered",
              "type": "bool"
            },
            {
              "internalType": "bool",
              "name": "arrived",
              "type": "bool"
            },
            {
              "internalType": "address",
              "name": "otherParent",
              "type": "address"
            },
            {
              "internalType": "uint256",
              "name": "otherTokenId",
              "type": "uint256"
            },
            {
              "internalType": "uint256",
              "name": "claimsTokenId",
              "type": "uint256"
            }
          ],
          "internalType": "struct ClaimablePlanet[]",
          "name": "",
          "type": "tuple[]"
        }
      ],
      "stateMutability": "view",
      "type": "function"
    },
    {
      "inputs": [
        {
          "internalType": "uint256",
          "name": "claimableTokenId",
          "type": "uint256"
        }
      ],
      "name": "getClaimantTokenIdToOwnerAddress",
      "outputs": [
        {
          "internalType": "address",
          "name": "",
          "type": "address"
        }
      ],
      "stateMutability": "view",
      "type": "function"
    },
    {
      "inputs": [
        {
          "internalType": "uint256",
          "name": "startIndex",
          "type": "uint256"
        },
        {
          "internalType": "uint256",
          "name": "endIndex",
          "type": "uint256"
        }
      ],
      "name": "getPlanetsPaginated",
      "outputs": [
        {
          "components": [
            {
              "internalType": "uint256",
              "name": "tokenId",
              "type": "uint256"
            },
            {
              "internalType": "uint256",
              "name": "price",
              "type": "uint256"
            },
            {
              "internalType": "address",
              "name": "ownerAddress",
              "type": "address"
            },
            {
              "internalType": "bool",
              "name": "active",
              "type": "bool"
            }
          ],
          "internalType": "struct ListedPlanet[]",
          "name": "",
          "type": "tuple[]"
        }
      ],
      "stateMutability": "view",
      "type": "function"
    },
    {
      "inputs": [
        {
          "internalType": "address",
          "name": "userAddr",
          "type": "address"
        }
      ],
      "name": "getuserToListedPlanets",
      "outputs": [
        {
          "components": [
            {
              "internalType": "uint256",
              "name": "tokenId",
              "type": "uint256"
            },
            {
              "internalType": "uint256",
              "name": "price",
              "type": "uint256"
            },
            {
              "internalType": "address",
              "name": "ownerAddress",
              "type": "address"
            },
            {
              "internalType": "bool",
              "name": "active",
              "type": "bool"
            }
          ],
          "internalType": "struct ListedPlanet[]",
          "name": "",
          "type": "tuple[]"
        }
      ],
      "stateMutability": "view",
      "type": "function"
    },
    {
      "inputs": [
        {
          "internalType": "address",
          "name": "owner",
          "type": "address"
        },
        {
          "internalType": "uint256",
          "name": "tokenId",
          "type": "uint256"
        }
      ],
      "name": "hasPlanetArrived",
      "outputs": [
        {
          "internalType": "bool",
          "name": "arrived",
          "type": "bool"
        }
      ],
      "stateMutability": "view",
      "type": "function"
    },
    {
      "inputs": [
        {
          "internalType": "address",
          "name": "owner",
          "type": "address"
        },
        {
          "internalType": "uint256",
          "name": "tokenId",
          "type": "uint256"
        }
      ],
      "name": "hasPlanetBeenDelivered",
      "outputs": [
        {
          "internalType": "bool",
          "name": "delivered",
          "type": "bool"
        }
      ],
      "stateMutability": "view",
      "type": "function"
    },
    {
      "inputs": [
        {
          "internalType": "address",
          "name": "spender",
          "type": "address"
        },
        {
          "internalType": "uint256",
          "name": "addedValue",
          "type": "uint256"
        }
      ],
      "name": "increaseAllowance",
      "outputs": [
        {
          "internalType": "bool",
          "name": "",
          "type": "bool"
        }
      ],
      "stateMutability": "nonpayable",
      "type": "function"
    },
    {
      "inputs": [
        {
          "internalType": "address",
          "name": "initialOwner",
          "type": "address"
        }
      ],
      "name": "initialize",
      "outputs": [],
      "stateMutability": "nonpayable",
      "type": "function"
    },
    {
      "inputs": [],
      "name": "listAllYourPlanets",
      "outputs": [],
      "stateMutability": "nonpayable",
      "type": "function"
    },
    {
      "inputs": [],
      "name": "name",
      "outputs": [
        {
          "internalType": "string",
          "name": "",
          "type": "string"
        }
      ],
      "stateMutability": "view",
      "type": "function"
    },
    {
      "inputs": [
        {
          "internalType": "address",
          "name": "owner",
          "type": "address"
        }
      ],
      "name": "nonces",
      "outputs": [
        {
          "internalType": "uint256",
          "name": "",
          "type": "uint256"
        }
      ],
      "stateMutability": "view",
      "type": "function"
    },
    {
      "inputs": [
        {
          "internalType": "address",
          "name": "operator",
          "type": "address"
        },
        {
          "internalType": "address",
          "name": "from",
          "type": "address"
        },
        {
          "internalType": "uint256",
          "name": "tokenId",
          "type": "uint256"
        },
        {
          "internalType": "bytes",
          "name": "data",
          "type": "bytes"
        }
      ],
      "name": "onERC721Received",
      "outputs": [
        {
          "internalType": "bytes4",
          "name": "",
          "type": "bytes4"
        }
      ],
      "stateMutability": "nonpayable",
      "type": "function"
    },
    {
      "inputs": [],
      "name": "owner",
      "outputs": [
        {
          "internalType": "address",
          "name": "",
          "type": "address"
        }
      ],
      "stateMutability": "view",
      "type": "function"
    },
    {
      "inputs": [
        {
          "internalType": "uint256",
          "name": "claimableTokenId",
          "type": "uint256"
        },
        {
          "internalType": "address",
          "name": "sendToAddr",
          "type": "address"
        }
      ],
      "name": "ownerClaimPlanet",
      "outputs": [],
      "stateMutability": "nonpayable",
      "type": "function"
    },
    {
      "inputs": [
        {
          "internalType": "uint256",
          "name": "tokenId",
          "type": "uint256"
        },
        {
          "internalType": "address",
          "name": "destinationAddr",
          "type": "address"
        }
      ],
      "name": "ownerOverrideSendNFT",
      "outputs": [],
      "stateMutability": "nonpayable",
      "type": "function"
    },
    {
      "inputs": [],
      "name": "pause",
      "outputs": [],
      "stateMutability": "nonpayable",
      "type": "function"
    },
    {
      "inputs": [],
      "name": "paused",
      "outputs": [
        {
          "internalType": "bool",
          "name": "",
          "type": "bool"
        }
      ],
      "stateMutability": "view",
      "type": "function"
    },
    {
      "inputs": [
        {
          "internalType": "uint256",
          "name": "index",
          "type": "uint256"
        }
      ],
      "name": "payee",
      "outputs": [
        {
          "internalType": "address",
          "name": "",
          "type": "address"
        }
      ],
      "stateMutability": "view",
      "type": "function"
    },
    {
      "inputs": [
        {
          "internalType": "address",
          "name": "owner",
          "type": "address"
        },
        {
          "internalType": "address",
          "name": "spender",
          "type": "address"
        },
        {
          "internalType": "uint256",
          "name": "value",
          "type": "uint256"
        },
        {
          "internalType": "uint256",
          "name": "deadline",
          "type": "uint256"
        },
        {
          "internalType": "uint8",
          "name": "v",
          "type": "uint8"
        },
        {
          "internalType": "bytes32",
          "name": "r",
          "type": "bytes32"
        },
        {
          "internalType": "bytes32",
          "name": "s",
          "type": "bytes32"
        }
      ],
      "name": "permit",
      "outputs": [],
      "stateMutability": "nonpayable",
      "type": "function"
    },
    {
      "inputs": [],
      "name": "proxiableUUID",
      "outputs": [
        {
          "internalType": "bytes32",
          "name": "",
          "type": "bytes32"
        }
      ],
      "stateMutability": "view",
      "type": "function"
    },
    {
      "inputs": [
        {
          "internalType": "address",
          "name": "account",
          "type": "address"
        }
      ],
      "name": "releasable",
      "outputs": [
        {
          "internalType": "uint256",
          "name": "",
          "type": "uint256"
        }
      ],
      "stateMutability": "view",
      "type": "function"
    },
    {
      "inputs": [
        {
          "internalType": "contract IERC20Upgradeable",
          "name": "token",
          "type": "address"
        },
        {
          "internalType": "address",
          "name": "account",
          "type": "address"
        }
      ],
      "name": "releasable",
      "outputs": [
        {
          "internalType": "uint256",
          "name": "",
          "type": "uint256"
        }
      ],
      "stateMutability": "view",
      "type": "function"
    },
    {
      "inputs": [
        {
          "internalType": "address payable",
          "name": "account",
          "type": "address"
        }
      ],
      "name": "release",
      "outputs": [],
      "stateMutability": "nonpayable",
      "type": "function"
    },
    {
      "inputs": [
        {
          "internalType": "contract IERC20Upgradeable",
          "name": "token",
          "type": "address"
        },
        {
          "internalType": "address",
          "name": "account",
          "type": "address"
        }
      ],
      "name": "release",
      "outputs": [],
      "stateMutability": "nonpayable",
      "type": "function"
    },
    {
      "inputs": [
        {
          "internalType": "contract IERC20Upgradeable",
          "name": "token",
          "type": "address"
        },
        {
          "internalType": "address",
          "name": "account",
          "type": "address"
        }
      ],
      "name": "released",
      "outputs": [
        {
          "internalType": "uint256",
          "name": "",
          "type": "uint256"
        }
      ],
      "stateMutability": "view",
      "type": "function"
    },
    {
      "inputs": [
        {
          "internalType": "address",
          "name": "account",
          "type": "address"
        }
      ],
      "name": "released",
      "outputs": [
        {
          "internalType": "uint256",
          "name": "",
          "type": "uint256"
        }
      ],
      "stateMutability": "view",
      "type": "function"
    },
    {
      "inputs": [],
      "name": "renounceOwnership",
      "outputs": [],
      "stateMutability": "nonpayable",
      "type": "function"
    },
    {
      "inputs": [
        {
          "internalType": "address",
          "name": "_breederContractAddr",
          "type": "address"
        },
        {
          "internalType": "uint256",
          "name": "_vrfValue",
          "type": "uint256"
        },
        {
          "internalType": "address",
          "name": "_nftContractAddr",
          "type": "address"
        }
      ],
      "name": "setAllOf",
      "outputs": [],
      "stateMutability": "nonpayable",
      "type": "function"
    },
    {
      "inputs": [
        {
          "internalType": "uint256",
          "name": "_toThisPercentage",
          "type": "uint256"
        }
      ],
      "name": "setMktFee",
      "outputs": [],
      "stateMutability": "nonpayable",
      "type": "function"
    },
    {
      "inputs": [
        {
          "internalType": "address payable",
          "name": "newTAdd",
          "type": "address"
        }
      ],
      "name": "setTAdd",
      "outputs": [],
      "stateMutability": "nonpayable",
      "type": "function"
    },
    {
      "inputs": [
        {
          "internalType": "address",
          "name": "account",
          "type": "address"
        }
      ],
      "name": "shares",
      "outputs": [
        {
          "internalType": "uint256",
          "name": "",
          "type": "uint256"
        }
      ],
      "stateMutability": "view",
      "type": "function"
    },
    {
      "inputs": [],
      "name": "status",
      "outputs": [],
      "stateMutability": "nonpayable",
      "type": "function"
    },
    {
      "inputs": [],
      "name": "symbol",
      "outputs": [
        {
          "internalType": "string",
          "name": "",
          "type": "string"
        }
      ],
      "stateMutability": "view",
      "type": "function"
    },
    {
      "inputs": [
        {
          "internalType": "contract IERC20Upgradeable",
          "name": "token",
          "type": "address"
        }
      ],
      "name": "totalReleased",
      "outputs": [
        {
          "internalType": "uint256",
          "name": "",
          "type": "uint256"
        }
      ],
      "stateMutability": "view",
      "type": "function"
    },
    {
      "inputs": [],
      "name": "totalReleased",
      "outputs": [
        {
          "internalType": "uint256",
          "name": "",
          "type": "uint256"
        }
      ],
      "stateMutability": "view",
      "type": "function"
    },
    {
      "inputs": [],
      "name": "totalShares",
      "outputs": [
        {
          "internalType": "uint256",
          "name": "",
          "type": "uint256"
        }
      ],
      "stateMutability": "view",
      "type": "function"
    },
    {
      "inputs": [],
      "name": "totalSupply",
      "outputs": [
        {
          "internalType": "uint256",
          "name": "",
          "type": "uint256"
        }
      ],
      "stateMutability": "view",
      "type": "function"
    },
    {
      "inputs": [
        {
          "internalType": "address",
          "name": "to",
          "type": "address"
        },
        {
          "internalType": "uint256",
          "name": "amount",
          "type": "uint256"
        }
      ],
      "name": "transfer",
      "outputs": [
        {
          "internalType": "bool",
          "name": "",
          "type": "bool"
        }
      ],
      "stateMutability": "nonpayable",
      "type": "function"
    },
    {
      "inputs": [
        {
          "internalType": "address",
          "name": "from",
          "type": "address"
        },
        {
          "internalType": "address",
          "name": "to",
          "type": "address"
        },
        {
          "internalType": "uint256",
          "name": "amount",
          "type": "uint256"
        }
      ],
      "name": "transferFrom",
      "outputs": [
        {
          "internalType": "bool",
          "name": "",
          "type": "bool"
        }
      ],
      "stateMutability": "nonpayable",
      "type": "function"
    },
    {
      "inputs": [
        {
          "internalType": "address",
          "name": "newOwner",
          "type": "address"
        }
      ],
      "name": "transferOwnership",
      "outputs": [],
      "stateMutability": "nonpayable",
      "type": "function"
    },
    {
      "inputs": [],
      "name": "unpause",
      "outputs": [],
      "stateMutability": "nonpayable",
      "type": "function"
    },
    {
      "inputs": [
        {
          "internalType": "address",
          "name": "newImplementation",
          "type": "address"
        }
      ],
      "name": "upgradeTo",
      "outputs": [],
      "stateMutability": "nonpayable",
      "type": "function"
    },
    {
      "inputs": [
        {
          "internalType": "address",
          "name": "newImplementation",
          "type": "address"
        },
        {
          "internalType": "bytes",
          "name": "data",
          "type": "bytes"
        }
      ],
      "name": "upgradeToAndCall",
      "outputs": [],
      "stateMutability": "payable",
      "type": "function"
    },
    {
      "inputs": [
        {
          "internalType": "address",
          "name": "",
          "type": "address"
        },
        {
          "internalType": "uint256",
          "name": "",
          "type": "uint256"
        }
      ],
      "name": "userToListedPlanets",
      "outputs": [
        {
          "internalType": "uint256",
          "name": "tokenId",
          "type": "uint256"
        },
        {
          "internalType": "uint256",
          "name": "price",
          "type": "uint256"
        },
        {
          "internalType": "address",
          "name": "ownerAddress",
          "type": "address"
        },
        {
          "internalType": "bool",
          "name": "active",
          "type": "bool"
        }
      ],
      "stateMutability": "view",
      "type": "function"
    },
    {
      "inputs": [
        {
          "internalType": "address",
          "name": "userAddress",
          "type": "address"
        }
      ],
      "name": "usersClaims",
      "outputs": [
        {
          "components": [
            {
              "internalType": "address",
              "name": "ownerParentAddress",
              "type": "address"
            },
            {
              "internalType": "uint256",
              "name": "ownerTokenId",
              "type": "uint256"
            },
            {
              "internalType": "bool",
              "name": "delivered",
              "type": "bool"
            },
            {
              "internalType": "bool",
              "name": "arrived",
              "type": "bool"
            },
            {
              "internalType": "address",
              "name": "otherParent",
              "type": "address"
            },
            {
              "internalType": "uint256",
              "name": "otherTokenId",
              "type": "uint256"
            },
            {
              "internalType": "uint256",
              "name": "claimsTokenId",
              "type": "uint256"
            }
          ],
          "internalType": "struct ClaimablePlanet[]",
          "name": "",
          "type": "tuple[]"
        }
      ],
      "stateMutability": "view",
      "type": "function"
    },
    {
      "inputs": [],
      "name": "withdrawFunds",
      "outputs": [],
      "stateMutability": "nonpayable",
      "type": "function"
    },
    {
      "stateMutability": "payable",
      "type": "receive"
    }
  ],
  "bytecode": "0x60a06040523060805234801561001457600080fd5b5060805161565c6200004d600039600081816115c401528181611604015281816118c7015281816119070152611b57015261565c6000f3fe6080604052600436106103c35760003560e01c80637ecebe00116101f0578063cbdf1b5a1161010c578063e22aecb4116100a5578063f4c1494311610077578063f4c1494314610e41578063f837894714610e61578063fdb4087514610e81578063fde4976714610ea1578063fe79222914610d1257005b8063e22aecb414610d7f578063e33b7de314610dea578063ee6e3a2314610e00578063f2fde38b14610e2157005b8063d79779b2116100de578063d79779b214610cdb578063dbb774d814610d12578063dd22a9c714610d3f578063dd62ed3e14610d5f57005b8063cbdf1b5a14610c44578063cdb82a3714610c64578063ce7c2ac214610c84578063d505accf14610cbb57005b80639852595c11610189578063a9059cbb1161015b578063a9059cbb14610b8d578063bd83dc0514610bad578063c45ac05014610be4578063c4d66de814610c04578063c7c0e6b114610c2457005b80639852595c14610af6578063a3f8eace14610b2d578063a457c2d714610b4d578063a8e5e4aa14610b6d57005b806385fe7243116101c257806385fe724314610a515780638b83209b14610aa25780638da5cb5b14610ac257806395d89b4114610ae157005b80637ecebe00146109f65780638230a78414610a165780638456cb59146105c757806384b0196e14610a2957005b80633a7fb03d116102df5780634f1ef286116102785780635c975abb1161024a5780635c975abb146108825780635e1e42621461089a5780636a23befb1461099657806370a08231146109ab578063715018a6146109e157005b80634f1ef2861461083a57806350842cf31461059b5780635270ad6c1461084d57806352d1902d1461086d57005b8063406072a9116102b1578063406072a91461079357806348b75044146107da5780634a02099b146107fa5780634d9504491461081a57005b80633a7fb03d146106fe5780633a98ef391461071e5780633b933f85146107345780633f4ba83a1461077e57005b8063200d2ed21161035c578063313ce5671161032e578063313ce5671461063e57806334ae54e91461065a5780633644e515146106a95780633659cfe6146106be57806339509351146106de57005b8063200d2ed2146105c757806323b872dd146105dc57806324600fc3146105fc578063259478181461061157005b806318160ddd1161039557806318160ddd1461055c578063191655871461057b5780631ac9a91e1461059b5780631dd320ea146105a757005b806306fdde03146103cc578063095ea7b3146103f75780630ffb61b714610427578063150b7a021461052357005b366103ca57005b005b3480156103d857600080fd5b506103e1610ec1565b6040516103ee9190614ac3565b60405180910390f35b34801561040357600080fd5b50610417610412366004614aeb565b610f53565b60405190151581526020016103ee565b34801561043357600080fd5b506103ca610442366004614b17565b6040805160e0810182526001600160a01b0396871680825260208083019788526000838501818152600160608601818152998c166080870190815260a08701998a5260c087019889529483526101cd84529582208054808801825590835292909120935160059092029093018054918a166001600160a01b03199092169190911781559651928701929092555160028601805495519251909716620100000262010000600160b01b03199215156101000261ff00199215159290921661ffff1990961695909517171692909217909355915160038201559051600490910155565b34801561052f57600080fd5b5061054361053e366004614c4a565b610f6d565b6040516001600160e01b031990911681526020016103ee565b34801561056857600080fd5b5060cb545b6040519081526020016103ee565b34801561058757600080fd5b506103ca610596366004614cb6565b6111cc565b3480156103ca57600080fd5b3480156105b357600080fd5b506104176105c2366004614aeb565b6112c2565b3480156105d357600080fd5b506103ca611387565b3480156105e857600080fd5b506104176105f7366004614cd3565b611397565b34801561060857600080fd5b506103ca6113bb565b34801561061d57600080fd5b5061063161062c366004614d14565b6113fd565b6040516103ee9190614d36565b34801561064a57600080fd5b50604051601281526020016103ee565b34801561066657600080fd5b50610691610675366004614da5565b6101cc602052600090815260409020546001600160a01b031681565b6040516001600160a01b0390911681526020016103ee565b3480156106b557600080fd5b5061056d6115ab565b3480156106ca57600080fd5b506103ca6106d9366004614cb6565b6115ba565b3480156106ea57600080fd5b506104176106f9366004614aeb565b611699565b34801561070a57600080fd5b506103ca610719366004614dbe565b6116bb565b34801561072a57600080fd5b506101625461056d565b34801561074057600080fd5b506103ca61074f366004614dbe565b60009182526101cc602052604090912080546001600160a01b0319166001600160a01b03909216919091179055565b34801561078a57600080fd5b506103ca61174c565b34801561079f57600080fd5b5061056d6107ae366004614dee565b6001600160a01b0391821660009081526101686020908152604080832093909416825291909152205490565b3480156107e657600080fd5b506103ca6107f5366004614dee565b61175c565b34801561080657600080fd5b506103ca610815366004614e1c565b611870565b34801561082657600080fd5b506103ca610835366004614da5565b6118af565b6103ca610848366004614e5e565b6118bd565b34801561085957600080fd5b506103ca610868366004614da5565b611989565b34801561087957600080fd5b5061056d611b4a565b34801561088e57600080fd5b5060335460ff16610417565b3480156108a657600080fd5b506103ca6108b5366004614b17565b6040805160e0810182526001600160a01b039687168082526020808301978852600183850181815260608501828152988b166080860190815260a0860198895260c0860197885260009485526101cd84529584208054808401825590855292909320935160059092029093018054918a166001600160a01b03199092169190911781559651918701919091555160028601805495519251909716620100000262010000600160b01b03199215156101000261ff00199215159290921661ffff1990961695909517171692909217909355915160038201559051600490910155565b3480156109a257600080fd5b50610631611bfd565b3480156109b757600080fd5b5061056d6109c6366004614cb6565b6001600160a01b0316600090815260c9602052604090205490565b3480156109ed57600080fd5b506103ca611c93565b348015610a0257600080fd5b5061056d610a11366004614cb6565b611ca5565b6103ca610a24366004614d14565b611cc4565b348015610a3557600080fd5b50610a3e6124eb565b6040516103ee9796959493929190614eae565b348015610a5d57600080fd5b50610a71610a6c366004614aeb565b612589565b6040516103ee949392919093845260208401929092526001600160a01b031660408301521515606082015260800190565b348015610aae57600080fd5b50610691610abd366004614da5565b6125e1565b348015610ace57600080fd5b50610194546001600160a01b0316610691565b348015610aed57600080fd5b506103e1612612565b348015610b0257600080fd5b5061056d610b11366004614cb6565b6001600160a01b03166000908152610165602052604090205490565b348015610b3957600080fd5b5061056d610b48366004614cb6565b612621565b348015610b5957600080fd5b50610417610b68366004614aeb565b61266b565b348015610b7957600080fd5b506103ca610b88366004614cd3565b6126e6565b348015610b9957600080fd5b50610417610ba8366004614aeb565b6127a1565b348015610bb957600080fd5b50610691610bc8366004614da5565b60009081526101cc60205260409020546001600160a01b031690565b348015610bf057600080fd5b5061056d610bff366004614dee565b6127af565b348015610c1057600080fd5b506103ca610c1f366004614cb6565b612874565b348015610c3057600080fd5b506103ca610c3f366004614da5565b612997565b348015610c5057600080fd5b506103ca610c5f366004614d14565b6129ad565b348015610c7057600080fd5b506103ca610c7f366004614cb6565b612ca4565b348015610c9057600080fd5b5061056d610c9f366004614cb6565b6001600160a01b03166000908152610164602052604090205490565b348015610cc757600080fd5b506103ca610cd6366004614f47565b612cd7565b348015610ce757600080fd5b5061056d610cf6366004614cb6565b6001600160a01b03166000908152610167602052604090205490565b348015610d1e57600080fd5b50610d32610d2d366004614cb6565b612e3b565b6040516103ee9190614fbe565b348015610d4b57600080fd5b50610417610d5a366004614dee565b612f0b565b348015610d6b57600080fd5b5061056d610d7a366004614dee565b612f83565b348015610d8b57600080fd5b50610d9f610d9a366004614aeb565b612fae565b604080516001600160a01b0398891681526020810197909752941515948601949094529115156060850152909316608083015260a082019290925260c081019190915260e0016103ee565b348015610df657600080fd5b506101635461056d565b348015610e0c57600080fd5b506101c654610691906001600160a01b031681565b348015610e2d57600080fd5b506103ca610e3c366004614cb6565b61301f565b348015610e4d57600080fd5b50610417610e5c366004614aeb565b613095565b348015610e6d57600080fd5b506103ca610e7c366004614dee565b613125565b348015610e8d57600080fd5b506103ca610e9c366004614dbe565b61319c565b348015610ead57600080fd5b50610631610ebc366004614cb6565b6131e4565b606060cc8054610ed090615045565b80601f0160208091040260200160405190810160405280929190818152602001828054610efc90615045565b8015610f495780601f10610f1e57610100808354040283529160200191610f49565b820191906000526020600020905b815481529060010190602001808311610f2c57829003601f168201915b5050505050905090565b600033610f61818585613285565b60019150505b92915050565b6000808251118015610f8a57506101c8546001600160a01b031633145b15610ff557600082806020019051810190610fa59190615079565b9050610fb28482876133a9565b7f13c6ec2a463a35f898a457814a782f1f567808293fa783a31fa4dac8868e601186868686604051610fe79493929190615092565b60405180910390a1506111ba565b6101c8546001600160a01b0316330361117c576101c85460405163dc9ce7a560e01b8152600481018590526000916001600160a01b03169063dc9ce7a590602401600060405180830381865afa158015611053573d6000803e3d6000fd5b505050506040513d6000823e601f3d908101601f1916820160405261107b919081019061517c565b50905060008161012001519050600085905060006101cc6000846000815181106110a7576110a761529b565b6020026020010151815260200190815260200160002060009054906101000a90046001600160a01b0316905060006101cc6000856001815181106110ed576110ed61529b565b60209081029190910181015182528181019290925260409081016000205481518083019092526001600160a01b03858116835216918101829052909150611134818561351d565b7f13c6ec2a463a35f898a457814a782f1f567808293fa783a31fa4dac8868e60118b8b8b8b60405161116994939291906152b1565b60405180910390a15050505050506111ba565b7f13c6ec2a463a35f898a457814a782f1f567808293fa783a31fa4dac8868e6011858585856040516111b19493929190615312565b60405180910390a15b50630a85bd0160e11b5b949350505050565b6001600160a01b0381166000908152610164602052604090205461120b5760405162461bcd60e51b815260040161120290615376565b60405180910390fd5b600061121682612621565b9050806000036112385760405162461bcd60e51b8152600401611202906153bc565b80610163600082825461124b919061541d565b90915550506001600160a01b038216600090815261016560205260409020805482019055611279828261381d565b604080516001600160a01b0384168152602081018390527fdf20fd1e76bc69d672e4814fafb2c449bba3a5369d8359adf9e05e6fde87b05691015b60405180910390a15050565b565b6001600160a01b03821660009081526101cd60205260408120815b815481101561134b57838282815481106112f9576112f961529b565b90600052602060002090600502016004015403611343578181815481106113225761132261529b565b600091825260209091206002600590920201015460ff169250610f67915050565b6001016112dd565b5060405162461bcd60e51b815260206004820152601060248201526f141b185b995d081b9bdd08199bdd5b9960821b6044820152606401611202565b61138f613936565b6112c0613991565b6000336113a58582856139eb565b6113b0858585613a5f565b506001949350505050565b6113c3613936565b6113cb613c0a565b604051339081904780156108fc02916000818181858888f193505050501580156113f9573d6000803e3d6000fd5b5050565b606082821161143e5760405162461bcd60e51b815260206004820152600d60248201526c092dcecc2d8d2c840d2dcc8caf609b1b6044820152606401611202565b6101cb548211156114875760405162461bcd60e51b8152602060048201526013602482015272496e646578206f7574206f6620626f756e647360681b6044820152606401611202565b60006114938484615430565b67ffffffffffffffff8111156114ab576114ab614b69565b6040519080825280602002602001820160405280156114fd57816020015b6040805160808101825260008082526020808301829052928201819052606082015282526000199092019101816114c95790505b509050835b838110156115a3576101cb818154811061151e5761151e61529b565b600091825260209182902060408051608081018252600393909302909101805483526001810154938301939093526002909201546001600160a01b03811692820192909252600160a01b90910460ff1615156060820152826115808784615430565b815181106115905761159061529b565b6020908102919091010152600101611502565b509392505050565b60006115b5613c50565b905090565b6001600160a01b037f00000000000000000000000000000000000000000000000000000000000000001630036116025760405162461bcd60e51b815260040161120290615443565b7f00000000000000000000000000000000000000000000000000000000000000006001600160a01b031661164b6000805160206155e0833981519152546001600160a01b031690565b6001600160a01b0316146116715760405162461bcd60e51b81526004016112029061548f565b61167a81613c5a565b6040805160008082526020820190925261169691839190613c62565b50565b600033610f618185856116ac8383612f83565b6116b6919061541d565b613285565b6116c3613936565b6116cb613c0a565b60008281526101cc60205260409020546001600160a01b03166116ee8382613dcd565b506116f883613e48565b6101c854604080516001600160a01b038086168252909216602083015281018490527ffbabfabc293b9daf3d9f8a42d485f10715027db90fd73abbe4ae4b4424decd049060600160405180910390a1505050565b611754613936565b6112c0613ee8565b6001600160a01b038116600090815261016460205260409020546117925760405162461bcd60e51b815260040161120290615376565b600061179e83836127af565b9050806000036117c05760405162461bcd60e51b8152600401611202906153bc565b6001600160a01b03831660009081526101676020526040812080548392906117e990849061541d565b90915550506001600160a01b03808416600090815261016860209081526040808320938616835292905220805482019055611825838383613f21565b604080516001600160a01b038481168252602082018490528516917f3be5b7a71e84ed12875d241991c70855ac5817d847039e17a9d895c1ceb0f18a910160405180910390a2505050565b611878613c0a565b6101c9919091556101c680546001600160a01b039384166001600160a01b0319918216179091556101c88054929093169116179055565b6118b7613936565b6101ce55565b6001600160a01b037f00000000000000000000000000000000000000000000000000000000000000001630036119055760405162461bcd60e51b815260040161120290615443565b7f00000000000000000000000000000000000000000000000000000000000000006001600160a01b031661194e6000805160206155e0833981519152546001600160a01b031690565b6001600160a01b0316146119745760405162461bcd60e51b81526004016112029061548f565b61197d82613c5a565b6113f982826001613c62565b611991613c0a565b60008181526101cc602052604090205433906001600160a01b0316808214611a28576119bc81613f73565b6119c582613f73565b60405162461bcd60e51b815260206004820152603260248201527f636c61696d206d7573742062652066726f6d20636c61696d616e7473206164646044820152713932b9b99696903234b9b0b63637bbb2b21760711b6064820152608401611202565b611a666040518060400160405280601781526020017f2d2d4e46542d2d20437469642c207468656e2075736572000000000000000000815250613fbb565b611a6f83613ffe565b611a7882613f73565b6000611a848484613dcd565b905080611aeb5760405162461bcd60e51b815260206004820152602f60248201527f4661696c656420746f2073656e64204e46542e20436865636b20436c61696d6160448201526e1b9d08151bdad95b9259081cd95b9d608a1b6064820152608401611202565b611af484613e48565b6101c854604080516001600160a01b038087168252909216602083015281018590527ffbabfabc293b9daf3d9f8a42d485f10715027db90fd73abbe4ae4b4424decd04906060015b60405180910390a150505050565b6000306001600160a01b037f00000000000000000000000000000000000000000000000000000000000000001614611bea5760405162461bcd60e51b815260206004820152603860248201527f555550535570677261646561626c653a206d757374206e6f742062652063616c60448201527f6c6564207468726f7567682064656c656761746563616c6c00000000000000006064820152608401611202565b506000805160206155e083398151915290565b60606101cb805480602002602001604051908101604052809291908181526020016000905b82821015611c8a576000848152602090819020604080516080810182526003860290920180548352600180820154848601526002909101546001600160a01b03811692840192909252600160a01b90910460ff16151560608301529083529092019101611c22565b50505050905090565b611c9b613936565b6112c06000614043565b6001600160a01b038116600090815261012f6020526040812054610f67565b611ccc613c0a565b808203611d275760405162461bcd60e51b815260206004820152602360248201527f4173657875616c20726570726f64756374696f6e206973206e6f7420616c6c6f6044820152621dd95960ea1b6064820152608401611202565b6000611d3282614096565b6101c8546040516331a9108f60e11b8152600481018690529192506000916001600160a01b0390911690636352211e90602401602060405180830381865afa158015611d82573d6000803e3d6000fd5b505050506040513d601f19601f82011682018060405250810190611da691906154db565b90506001600160a01b0381163014611e305760405162461bcd60e51b815260206004820152604160248201527f596f75206e65656420746f206c6973742f6465706f7369742074686520706c6160448201527f6e657420796f752061726520747279696e6720746f20627265656420776974686064820152601760f91b608482015260a401611202565b60008060005b6101cb54811015611edd57866101cb8281548110611e5657611e5661529b565b90600052602060002090600302016000015403611ed5576101cb8181548110611e8157611e8161529b565b906000526020600020906003020160020160009054906101000a90046001600160a01b031692506101cb8181548110611ebc57611ebc61529b565b9060005260206000209060030201600001549150611edd565b600101611e36565b506001600160a01b0382163314611f515760405162461bcd60e51b815260206004820152603260248201527f596f7520646f206e6f74206f776e2074686520706c616e657420796f7520617260448201527132903a393cb4b733903a3790313932b2b21760711b6064820152608401611202565b600060646101ce5486611f6491906154f8565b611f6e919061550f565b905080856101c954611f80919061541d565b611f8a919061541d565b341015611fff5760405162461bcd60e51b815260206004820152603760248201527f496e73756666696369656e742066756e647320746f20636f766572205652462060448201527f636f737420616e6420707269636520616e64206665652e0000000000000000006064820152608401611202565b33600080805b6101cb548110156120ac57896101cb82815481106120255761202561529b565b906000526020600020906003020160000154036120a4576101cb81815481106120505761205061529b565b906000526020600020906003020160020160009054906101000a90046001600160a01b031692506101cb818154811061208b5761208b61529b565b90600052602060002090600302016000015491506120ac565b600101612005565b506706f05b59d3b200004710156121235760405162461bcd60e51b815260206004820152603560248201527f436f6e74726163742068617320496e73756666696369656e742062616c616e63604482015274652c20636f6e74616374206861746368657220687160581b6064820152608401611202565b6040516000906001600160a01b038416908a156108fc02908b9084818181858888f193505050509050806121905760405162461bcd60e51b81526020600482015260146024820152732330b4b632b2103a379039b2b7321022ba3432b960611b6044820152606401611202565b6101c6546101c954604051634e9e6a0760e01b8152600481018e9052602481018d9052600060448201526001600160a01b0390921691634e9e6a07919060640160206040518083038185885af11580156121ee573d6000803e3d6000fd5b50505050506040513d601f19601f820116820180604052508101906122139190615079565b5060006040518060e00160405280866001600160a01b031681526020018d8152602001600015158152602001600015158152602001856001600160a01b03168152602001848152602001600081525090506101cd6000866001600160a01b03166001600160a01b0316815260200190815260200160002081908060018154018082558091505060019003906000526020600020906005020160009091909190915060008201518160000160006101000a8154816001600160a01b0302191690836001600160a01b031602179055506020820151816001015560408201518160020160006101000a81548160ff02191690831515021790555060608201518160020160016101000a81548160ff02191690831515021790555060808201518160020160026101000a8154816001600160a01b0302191690836001600160a01b0316021790555060a0820151816003015560c082015181600401555050846101cc60008e815260200190815260200160002060006101000a8154816001600160a01b0302191690836001600160a01b03160217905550858a6101c9546123b7919061541d565b6123c1919061541d565b34111561248d576000336001600160a01b0316878c6101c954346123e59190615430565b6123ef9190615430565b6123f99190615430565b604051600081818185875af1925050503d8060008114612435576040519150601f19603f3d011682016040523d82523d6000602084013e61243a565b606091505b505090508061248b5760405162461bcd60e51b815260206004820152601d60248201527f4661696c656420746f20726566756e64206578636573732045746865720000006044820152606401611202565b505b604080518d81526001600160a01b0387811660208301528183018e90528616606082015290517f8557df6951fbdd47fe9027516fc896be40f285ed55a6acac460352adbab730cd9181900360800190a1505050505050505050505050565b60006060806000806000606060fb546000801b14801561250b575060fc54155b61254f5760405162461bcd60e51b81526020600482015260156024820152741152540dcc4c8e88155b9a5b9a5d1a585b1a5e9959605a1b6044820152606401611202565b612557614137565b61255f614146565b60408051600080825260208201909252600f60f81b9b939a50919850469750309650945092509050565b6101ca60205281600052604060002081815481106125a657600080fd5b60009182526020909120600390910201805460018201546002909201549093509091506001600160a01b03811690600160a01b900460ff1684565b600061016682815481106125f7576125f761529b565b6000918252602090912001546001600160a01b031692915050565b606060cd8054610ed090615045565b60008061262e6101635490565b612638904761541d565b9050612664838261265f866001600160a01b03166000908152610165602052604090205490565b614155565b9392505050565b600033816126798286612f83565b9050838110156126d95760405162461bcd60e51b815260206004820152602560248201527f45524332303a2064656372656173656420616c6c6f77616e63652062656c6f77604482015264207a65726f60d81b6064820152608401611202565b6113b08286868403613285565b60405163095ea7b360e01b81526001600160a01b0383811660048301526024820183905284169063095ea7b3906044016020604051808303816000875af1158015612735573d6000803e3d6000fd5b505050506040513d601f19601f820116820180604052508101906127599190615531565b61279c5760405162461bcd60e51b8152602060048201526014602482015273115490cc8c08185c1c1c9bdd994819985a5b195960621b6044820152606401611202565b505050565b600033610f61818585613a5f565b6001600160a01b0382166000908152610167602052604081205481906040516370a0823160e01b81523060048201526001600160a01b038616906370a0823190602401602060405180830381865afa15801561280f573d6000803e3d6000fd5b505050506040513d601f19601f820116820180604052508101906128339190615079565b61283d919061541d565b6001600160a01b03808616600090815261016860209081526040808320938816835292905220549091506111c49084908390614155565b600054610100900460ff16158080156128945750600054600160ff909116105b806128ae5750303b1580156128ae575060005460ff166001145b6129115760405162461bcd60e51b815260206004820152602e60248201527f496e697469616c697a61626c653a20636f6e747261637420697320616c72656160448201526d191e481a5b9a5d1a585b1a5e995960921b6064820152608401611202565b6000805460ff191660011790558015612934576000805461ff0019166101001790555b61293c614195565b6129446141c4565b61294c6141f3565b6129558261301f565b80156113f9576000805461ff0019169055604051600181527f7f26b83ff96e1f2b6a682f133852f6798a09c465da95921460cefb3847402498906020016112b4565b61299f613936565b6129a7613c0a565b6101c955565b6129b5613c0a565b6101cb5482106129fd5760405162461bcd60e51b8152602060048201526013602482015272496e646578206f7574206f6620626f756e647360681b6044820152606401611202565b600033905060006101cb8481548110612a1857612a1861529b565b6000918252602091829020604080516080810182526003909302909101805483526001810154938301939093526002909201546001600160a01b03811692820183905260ff600160a01b909104161515606082015291503314612a7a57600080fd5b6040518060800160405280826000015181526020016000815260200182604001516001600160a01b03168152602001600015158152506101cb8581548110612ac457612ac461529b565b60009182526020808320845160039093020191825583810151600180840191909155604080860151600290940180546060909701511515600160a01b026001600160a81b03199097166001600160a01b0390951694909417959095179092553383526101ca905291902080549091612b3b91615430565b81548110612b4b57612b4b61529b565b90600052602060002090600302016101ca6000336001600160a01b03166001600160a01b031681526020019081526020016000208581548110612b9057612b9061529b565b60009182526020808320845460039093020191825560018085015490830155600293840180549490920180546001600160a01b031981166001600160a01b039096169586178255925460ff600160a01b91829004161515026001600160a81b0319909316909417919091179092553381526101ca90915260409020805480612c1a57612c1a61554c565b600082815260208120600360001990930192830201818155600181019190915560020180546001600160a81b03191690559055612c578383613dcd565b506101c8548151604080516001600160a01b03808716825290931660208401528201527f0ece05e698e9e143fb75b2ad0aba7f141238c27b6d3e9728898183ee0d68498b90606001611b3c565b612cac613936565b612cb4613c0a565b6101c780546001600160a01b0319166001600160a01b0392909216919091179055565b83421115612d275760405162461bcd60e51b815260206004820152601d60248201527f45524332305065726d69743a206578706972656420646561646c696e650000006044820152606401611202565b60007f6e71edae12b1b97f4d1f60370fef10105fa2faae0126114a169c64845d6126c9888888612d568c61421a565b6040805160208101969096526001600160a01b0394851690860152929091166060840152608083015260a082015260c0810186905260e0016040516020818303038152906040528051906020012090506000612db182614241565b90506000612dc18287878761426e565b9050896001600160a01b0316816001600160a01b031614612e245760405162461bcd60e51b815260206004820152601e60248201527f45524332305065726d69743a20696e76616c6964207369676e617475726500006044820152606401611202565b612e2f8a8a8a613285565b50505050505050505050565b6001600160a01b03811660009081526101cd60209081526040808320805482518185028101850190935280835260609492939192909184015b82821015612f005760008481526020908190206040805160e0810182526005860290920180546001600160a01b03908116845260018083015485870152600283015460ff80821615159587019590955261010081049094161515606086015262010000909304166080840152600381015460a08401526004015460c08301529083529092019101612e74565b505050509050919050565b6101c85460405163e985e9c560e01b81526001600160a01b0384811660048301528381166024830152600092169063e985e9c590604401602060405180830381865afa158015612f5f573d6000803e3d6000fd5b505050506040513d601f19601f820116820180604052508101906126649190615531565b6001600160a01b03918216600090815260ca6020908152604080832093909416825291909152205490565b6101cd6020528160005260406000208181548110612fcb57600080fd5b6000918252602090912060059091020180546001820154600283015460038401546004909401546001600160a01b03938416965091945060ff80821694610100830490911693620100009092049091169187565b613027613936565b6001600160a01b03811661308c5760405162461bcd60e51b815260206004820152602660248201527f4f776e61626c653a206e6577206f776e657220697320746865207a65726f206160448201526564647265737360d01b6064820152608401611202565b61169681614043565b6001600160a01b03821660009081526101cd60205260408120815b815481101561134b57838282815481106130cc576130cc61529b565b9060005260206000209060050201600401540361311d578181815481106130f5576130f561529b565b906000526020600020906005020160020160019054906101000a900460ff1692505050610f67565b6001016130b0565b61312d613936565b613135613c0a565b60405163a22cb46560e01b81526001600160a01b0382811660048301526001602483015283169063a22cb465906044015b600060405180830381600087803b15801561318057600080fd5b505af1158015613194573d6000803e3d6000fd5b505050505050565b6131a4613936565b6101c8546040516323b872dd60e01b81523060048201526001600160a01b03838116602483015260448201859052909116906323b872dd90606401613166565b6001600160a01b03811660009081526101ca60209081526040808320805482518185028101850190935280835260609492939192909184015b82821015612f00576000848152602090819020604080516080810182526003860290920180548352600180820154848601526002909101546001600160a01b03811692840192909252600160a01b90910460ff1615156060830152908352909201910161321d565b6001600160a01b0383166132e75760405162461bcd60e51b8152602060048201526024808201527f45524332303a20617070726f76652066726f6d20746865207a65726f206164646044820152637265737360e01b6064820152608401611202565b6001600160a01b0382166133485760405162461bcd60e51b815260206004820152602260248201527f45524332303a20617070726f766520746f20746865207a65726f206164647265604482015261737360f01b6064820152608401611202565b6001600160a01b03838116600081815260ca602090815260408083209487168084529482529182902085905590518481527f8c5be1e5ebec7d5bd14f71427d1e84f3dd0314c0f7b2291e5b200ac8c7c3b925910160405180910390a3505050565b604080516080808201835285825260208083018681526001600160a01b03868116858701818152600160608089018281526101cb8054808501825560009182528b5160039182027fe8bbfecd380c4167d6a1f763a233ec73e73f534b1970c4e1683f437ec23c1f4481019190915589517fe8bbfecd380c4167d6a1f763a233ec73e73f534b1970c4e1683f437ec23c1f4582015586517fe8bbfecd380c4167d6a1f763a233ec73e73f534b1970c4e1683f437ec23c1f46909101805485511515600160a01b9081026001600160a81b0319928316948d1694909417939093179091559783526101ca8b528d832080548088018255908452928b90208d5193909202909101918255975193810193909355925160029092018054935115159096029290931690841617179092556101c854865133815291169281019290925293810187905292830185905290917fb30319a217488a3ed441c348e935a48d16091e33109bab0c79a353b9797528839101611b3c565b81516020808401516001600160a01b03831660009081526101cd909252604090912054156136745760005b6001600160a01b03831660009081526101cd602052604090205481101561366e576001600160a01b0383811660009081526101cd60205260409020805491841691839081106135995761359961529b565b60009182526020909120600590910201600201546201000090046001600160a01b031603613666576001600160a01b03831660009081526101cd60205260409020805460019190839081106135f0576135f061529b565b906000526020600020906005020160020160016101000a81548160ff021916908315150217905550836101cd6000856001600160a01b03166001600160a01b0316815260200190815260200160002082815481106136505761365061529b565b9060005260206000209060050201600401819055505b600101613548565b50613817565b6020808501516001600160a01b031660009081526101cd9091526040902054156137c15760005b6001600160a01b03821660009081526101cd602052604090205481101561366e576001600160a01b0382811660009081526101cd60205260409020805491851691839081106136ec576136ec61529b565b60009182526020909120600590910201600201546201000090046001600160a01b0316036137b9576001600160a01b03821660009081526101cd60205260409020805460019190839081106137435761374361529b565b906000526020600020906005020160020160016101000a81548160ff021916908315150217905550836101cd6000846001600160a01b03166001600160a01b0316815260200190815260200160002082815481106137a3576137a361529b565b9060005260206000209060050201600401819055505b60010161369b565b60405162461bcd60e51b815260206004820152602560248201527f706c616e65742073656e7420657272616e746c792c206e6f206f6e6520746f20604482015264636c61696d60d81b6064820152608401611202565b50505050565b8047101561386d5760405162461bcd60e51b815260206004820152601d60248201527f416464726573733a20696e73756666696369656e742062616c616e63650000006044820152606401611202565b6000826001600160a01b03168260405160006040518083038185875af1925050503d80600081146138ba576040519150601f19603f3d011682016040523d82523d6000602084013e6138bf565b606091505b505090508061279c5760405162461bcd60e51b815260206004820152603a60248201527f416464726573733a20756e61626c6520746f2073656e642076616c75652c207260448201527f6563697069656e74206d617920686176652072657665727465640000000000006064820152608401611202565b610194546001600160a01b031633146112c05760405162461bcd60e51b815260206004820181905260248201527f4f776e61626c653a2063616c6c6572206973206e6f7420746865206f776e65726044820152606401611202565b613999613c0a565b6033805460ff191660011790557f62e78cea01bee320cd4e420270b5ea74000d11b0c9f74754ebdbfc544b05a2586139ce3390565b6040516001600160a01b03909116815260200160405180910390a1565b60006139f78484612f83565b905060001981146138175781811015613a525760405162461bcd60e51b815260206004820152601d60248201527f45524332303a20696e73756666696369656e7420616c6c6f77616e63650000006044820152606401611202565b6138178484848403613285565b6001600160a01b038316613ac35760405162461bcd60e51b815260206004820152602560248201527f45524332303a207472616e736665722066726f6d20746865207a65726f206164604482015264647265737360d81b6064820152608401611202565b6001600160a01b038216613b255760405162461bcd60e51b815260206004820152602360248201527f45524332303a207472616e7366657220746f20746865207a65726f206164647260448201526265737360e81b6064820152608401611202565b6001600160a01b038316600090815260c9602052604090205481811015613b9d5760405162461bcd60e51b815260206004820152602660248201527f45524332303a207472616e7366657220616d6f756e7420657863656564732062604482015265616c616e636560d01b6064820152608401611202565b6001600160a01b03808516600081815260c9602052604080822086860390559286168082529083902080548601905591517fddf252ad1be2c89b69c2b068fc378daa952ba7f163c4a11628f55a4df523b3ef90613bfd9086815260200190565b60405180910390a3613817565b60335460ff16156112c05760405162461bcd60e51b815260206004820152601060248201526f14185d5cd8589b194e881c185d5cd95960821b6044820152606401611202565b60006115b5614296565b611696613936565b7f4910fdfa16fed3260ed0e7147f7cc6da11a60208b5b9406d12a635614ffd91435460ff1615613c955761279c8361430a565b826001600160a01b03166352d1902d6040518163ffffffff1660e01b8152600401602060405180830381865afa925050508015613cef575060408051601f3d908101601f19168201909252613cec91810190615079565b60015b613d525760405162461bcd60e51b815260206004820152602e60248201527f45524331393637557067726164653a206e657720696d706c656d656e7461746960448201526d6f6e206973206e6f74205555505360901b6064820152608401611202565b6000805160206155e08339815191528114613dc15760405162461bcd60e51b815260206004820152602960248201527f45524331393637557067726164653a20756e737570706f727465642070726f786044820152681a58589b195555525160ba1b6064820152608401611202565b5061279c8383836143a6565b6101c854604051632142170760e11b81523060048201526001600160a01b0383811660248301526044820185905260009216906342842e0e90606401600060405180830381600087803b158015613e2357600080fd5b505af1925050508015613e34575060015b613e4057506000610f67565b506001610f67565b60008181526101cc60209081526040808320546001600160a01b03168084526101cd909252822090915b81548110156138175783828281548110613e8e57613e8e61529b565b90600052602060002090600502016004015403613ee0576001828281548110613eb957613eb961529b565b60009182526020909120600590910201600201805460ff1916911515919091179055613817565b600101613e72565b613ef06143cb565b6033805460ff191690557f5db9ee0a495bf2e6ff9c91a7834c1ba4fdd244a5e8aa4e537bd38aeae4b073aa336139ce565b604080516001600160a01b038416602482015260448082018490528251808303909101815260649091019091526020810180516001600160e01b031663a9059cbb60e01b17905261279c908490614414565b6040516001600160a01b03821660248201526116969060440160408051601f198184030181529190526020810180516001600160e01b031663161765e160e11b1790526144e9565b61169681604051602401613fcf9190614ac3565b60408051601f198184030181529190526020810180516001600160e01b031663104c13eb60e21b1790526144e9565b6116968160405160240161401491815260200190565b60408051601f198184030181529190526020810180516001600160e01b031663f82c50f160e01b1790526144e9565b61019480546001600160a01b038381166001600160a01b0319831681179093556040519116919082907f8be0079c531659141344cd1fd0a4f28419497f9722a3daafe3b4186f6b6457e090600090a35050565b60006140a0613c0a565b60005b6101cb5481101561413057826101cb82815481106140c3576140c361529b565b90600052602060002090600302016000015403614108576101cb81815481106140ee576140ee61529b565b906000526020600020906003020160010154915050919050565b6101cb5461411890600190615430565b8103614128575060001992915050565b6001016140a3565b505b919050565b606060fd8054610ed090615045565b606060fe8054610ed090615045565b610162546001600160a01b038416600090815261016460205260408120549091839161418190866154f8565b61418b919061550f565b6111c49190615430565b600054610100900460ff166141bc5760405162461bcd60e51b815260040161120290615562565b6112c06144f2565b600054610100900460ff166141eb5760405162461bcd60e51b815260040161120290615562565b6112c0614522565b600054610100900460ff166112c05760405162461bcd60e51b815260040161120290615562565b6001600160a01b038116600090815261012f60205260409020805460018101825590614130565b6000610f6761424e613c50565b8360405161190160f01b8152600281019290925260228201526042902090565b600080600061427f87878787614555565b9150915061428c81614619565b5095945050505050565b60007f8b73c3c69bb8fe3d512ecc4cf759cc79239f7b179b0ffacaa9a75d522b39400f6142c1614763565b6142c96147bc565b60408051602081019490945283019190915260608201524660808201523060a082015260c00160405160208183030381529060405280519060200120905090565b6001600160a01b0381163b6143775760405162461bcd60e51b815260206004820152602d60248201527f455243313936373a206e657720696d706c656d656e746174696f6e206973206e60448201526c1bdd08184818dbdb9d1c9858dd609a1b6064820152608401611202565b6000805160206155e083398151915280546001600160a01b0319166001600160a01b0392909216919091179055565b6143af836147ed565b6000825111806143bc5750805b1561279c57613817838361482d565b60335460ff166112c05760405162461bcd60e51b815260206004820152601460248201527314185d5cd8589b194e881b9bdd081c185d5cd95960621b6044820152606401611202565b6000614469826040518060400160405280602081526020017f5361666545524332303a206c6f772d6c6576656c2063616c6c206661696c6564815250856001600160a01b03166148529092919063ffffffff16565b905080516000148061448a57508080602001905181019061448a9190615531565b61279c5760405162461bcd60e51b815260206004820152602a60248201527f5361666545524332303a204552433230206f7065726174696f6e20646964206e6044820152691bdd081cdd58d8d9595960b21b6064820152608401611202565b61169681614861565b600054610100900460ff166145195760405162461bcd60e51b815260040161120290615562565b6112c033614043565b600054610100900460ff166145495760405162461bcd60e51b815260040161120290615562565b6033805460ff19169055565b6000807f7fffffffffffffffffffffffffffffff5d576e7357a4501ddfe92f46681b20a083111561458c5750600090506003614610565b6040805160008082526020820180845289905260ff881692820192909252606081018690526080810185905260019060a0016020604051602081039080840390855afa1580156145e0573d6000803e3d6000fd5b5050604051601f1901519150506001600160a01b03811661460957600060019250925050614610565b9150600090505b94509492505050565b600081600481111561462d5761462d6155ad565b036146355750565b6001816004811115614649576146496155ad565b036146965760405162461bcd60e51b815260206004820152601860248201527f45434453413a20696e76616c6964207369676e617475726500000000000000006044820152606401611202565b60028160048111156146aa576146aa6155ad565b036146f75760405162461bcd60e51b815260206004820152601f60248201527f45434453413a20696e76616c6964207369676e6174757265206c656e677468006044820152606401611202565b600381600481111561470b5761470b6155ad565b036116965760405162461bcd60e51b815260206004820152602260248201527f45434453413a20696e76616c6964207369676e6174757265202773272076616c604482015261756560f01b6064820152608401611202565b60008061476e614137565b805190915015614785578051602090910120919050565b60fb5480156147945792915050565b7fc5d2460186f7233c927e7db2dcc703c0e500b653ca82273b7bfad8045d85a4709250505090565b6000806147c7614146565b8051909150156147de578051602090910120919050565b60fc5480156147945792915050565b6147f68161430a565b6040516001600160a01b038216907fbc7cd75a20ee27fd9adebab32041f755214dbc6bffa90cc0225b39da2e5c2d3b90600090a250565b6060612664838360405180606001604052806027815260200161560060279139614882565b60606111c484846000856148fa565b60006a636f6e736f6c652e6c6f679050600080835160208501845afa505050565b6060600080856001600160a01b03168560405161489f91906155c3565b600060405180830381855af49150503d80600081146148da576040519150601f19603f3d011682016040523d82523d6000602084013e6148df565b606091505b50915091506148f0868383876149d5565b9695505050505050565b60608247101561495b5760405162461bcd60e51b815260206004820152602660248201527f416464726573733a20696e73756666696369656e742062616c616e636520666f6044820152651c8818d85b1b60d21b6064820152608401611202565b600080866001600160a01b0316858760405161497791906155c3565b60006040518083038185875af1925050503d80600081146149b4576040519150601f19603f3d011682016040523d82523d6000602084013e6149b9565b606091505b50915091506149ca878383876149d5565b979650505050505050565b60608315614a44578251600003614a3d576001600160a01b0385163b614a3d5760405162461bcd60e51b815260206004820152601d60248201527f416464726573733a2063616c6c20746f206e6f6e2d636f6e74726163740000006044820152606401611202565b50816111c4565b6111c48383815115614a595781518083602001fd5b8060405162461bcd60e51b81526004016112029190614ac3565b60005b83811015614a8e578181015183820152602001614a76565b50506000910152565b60008151808452614aaf816020860160208601614a73565b601f01601f19169290920160200192915050565b6020815260006126646020830184614a97565b6001600160a01b038116811461169657600080fd5b60008060408385031215614afe57600080fd5b8235614b0981614ad6565b946020939093013593505050565b600080600080600060a08688031215614b2f57600080fd5b8535614b3a81614ad6565b9450602086013593506040860135614b5181614ad6565b94979396509394606081013594506080013592915050565b634e487b7160e01b600052604160045260246000fd5b604051610160810167ffffffffffffffff81118282101715614ba357614ba3614b69565b60405290565b604051601f8201601f1916810167ffffffffffffffff81118282101715614bd257614bd2614b69565b604052919050565b600082601f830112614beb57600080fd5b813567ffffffffffffffff811115614c0557614c05614b69565b614c18601f8201601f1916602001614ba9565b818152846020838601011115614c2d57600080fd5b816020850160208301376000918101602001919091529392505050565b60008060008060808587031215614c6057600080fd5b8435614c6b81614ad6565b93506020850135614c7b81614ad6565b925060408501359150606085013567ffffffffffffffff811115614c9e57600080fd5b614caa87828801614bda565b91505092959194509250565b600060208284031215614cc857600080fd5b813561266481614ad6565b600080600060608486031215614ce857600080fd5b8335614cf381614ad6565b92506020840135614d0381614ad6565b929592945050506040919091013590565b60008060408385031215614d2757600080fd5b50508035926020909101359150565b602080825282518282018190526000919060409081850190868401855b82811015614d98578151805185528681015187860152858101516001600160a01b03168686015260609081015115159085015260809093019290850190600101614d53565b5091979650505050505050565b600060208284031215614db757600080fd5b5035919050565b60008060408385031215614dd157600080fd5b823591506020830135614de381614ad6565b809150509250929050565b60008060408385031215614e0157600080fd5b8235614e0c81614ad6565b91506020830135614de381614ad6565b600080600060608486031215614e3157600080fd5b8335614e3c81614ad6565b9250602084013591506040840135614e5381614ad6565b809150509250925092565b60008060408385031215614e7157600080fd5b8235614e7c81614ad6565b9150602083013567ffffffffffffffff811115614e9857600080fd5b614ea485828601614bda565b9150509250929050565b60ff60f81b881681526000602060e06020840152614ecf60e084018a614a97565b8381036040850152614ee1818a614a97565b606085018990526001600160a01b038816608086015260a0850187905284810360c08601528551808252602080880193509091019060005b81811015614f3557835183529284019291840191600101614f19565b50909c9b505050505050505050505050565b600080600080600080600060e0888a031215614f6257600080fd5b8735614f6d81614ad6565b96506020880135614f7d81614ad6565b95506040880135945060608801359350608088013560ff81168114614fa157600080fd5b9699959850939692959460a0840135945060c09093013592915050565b602080825282518282018190526000919060409081850190868401855b82811015614d9857815180516001600160a01b0390811686528782015188870152868201511515878701526060808301511515908701526080808301519091169086015260a0808201519086015260c0908101519085015260e09093019290850190600101614fdb565b600181811c9082168061505957607f821691505b60208210810361413057634e487b7160e01b600052602260045260246000fd5b60006020828403121561508b57600080fd5b5051919050565b60006001600160a01b03808716835280861660208401525083604083015260a060608301526150c460a0830184614a97565b8281036080840152600e81526d1b1a5cdd1a5b99c81c1b185b995d60921b60208201526040810191505095945050505050565b600082601f83011261510857600080fd5b8151602067ffffffffffffffff82111561512457615124614b69565b8160051b615133828201614ba9565b928352848101820192828101908785111561514d57600080fd5b83870192505b848310156149ca57825182529183019190830190615153565b8051801515811461413257600080fd5b6000806040838503121561518f57600080fd5b825167ffffffffffffffff808211156151a757600080fd5b9084019061016082870312156151bc57600080fd5b6151c4614b7f565b825181526020830151602082015260408301516040820152606083015160608201526080830151608082015260a083015160a082015260c083015160c082015260e083015160e0820152610100808401518381111561522257600080fd5b61522e898287016150f7565b828401525050610120808401518381111561524857600080fd5b615254898287016150f7565b828401525050610140808401518381111561526e57600080fd5b61527a898287016150f7565b8284015250508094505050506152926020840161516c565b90509250929050565b634e487b7160e01b600052603260045260246000fd5b60006001600160a01b03808716835280861660208401525083604083015260a060608301526152e360a0830184614a97565b8281036080840152600a8152691b995dc81c1b185b995d60b21b60208201526040810191505095945050505050565b60006001600160a01b03808716835280861660208401525083604083015260a0606083015261534460a0830184614a97565b8281036080840152600d81526c1d5b98d85d1959dbdc9a5e9959609a1b60208201526040810191505095945050505050565b60208082526026908201527f5061796d656e7453706c69747465723a206163636f756e7420686173206e6f2060408201526573686172657360d01b606082015260800190565b6020808252602b908201527f5061796d656e7453706c69747465723a206163636f756e74206973206e6f742060408201526a191d59481c185e5b595b9d60aa1b606082015260800190565b634e487b7160e01b600052601160045260246000fd5b80820180821115610f6757610f67615407565b81810381811115610f6757610f67615407565b6020808252602c908201527f46756e6374696f6e206d7573742062652063616c6c6564207468726f7567682060408201526b19195b1959d85d1958d85b1b60a21b606082015260800190565b6020808252602c908201527f46756e6374696f6e206d7573742062652063616c6c6564207468726f7567682060408201526b6163746976652070726f787960a01b606082015260800190565b6000602082840312156154ed57600080fd5b815161266481614ad6565b8082028115828204841417610f6757610f67615407565b60008261552c57634e487b7160e01b600052601260045260246000fd5b500490565b60006020828403121561554357600080fd5b6126648261516c565b634e487b7160e01b600052603160045260246000fd5b6020808252602b908201527f496e697469616c697a61626c653a20636f6e7472616374206973206e6f74206960408201526a6e697469616c697a696e6760a81b606082015260800190565b634e487b7160e01b600052602160045260246000fd5b600082516155d5818460208701614a73565b919091019291505056fe360894a13ba1a3210667c828492db98dca3e2076cc3735a920a3ca505d382bbc416464726573733a206c6f772d6c6576656c2064656c65676174652063616c6c206661696c6564a26469706673582212203d8bd3e4791886c3863ddf2430f33cd91fdd3faa8f3a0e2ce88f22b76dfc2efa64736f6c63430008180033",
  "linkReferences": {},
  "deployedLinkReferences": {}
}