{
  "_format": "hh-sol-artifact-1",
  "contractName": "InternalTests",
  "sourceName": "contracts/test/InternalTests.sol",
  "abi": [
    {
      "inputs": [],
      "stateMutability": "nonpayable",
      "type": "constructor"
    },
    {
      "inputs": [],
      "name": "Unauthorized",
      "type": "error"
    },
    {
      "anonymous": false,
      "inputs": [
        {
          "indexed": false,
          "internalType": "address",
          "name": "previousAdmin",
          "type": "address"
        },
        {
          "indexed": false,
          "internalType": "address",
          "name": "newAdmin",
          "type": "address"
        }
      ],
      "name": "AdminChanged",
      "type": "event"
    },
    {
      "anonymous": false,
      "inputs": [
        {
          "indexed": true,
          "internalType": "address",
          "name": "owner",
          "type": "address"
        },
        {
          "indexed": true,
          "internalType": "address",
          "name": "spender",
          "type": "address"
        },
        {
          "indexed": false,
          "internalType": "uint256",
          "name": "value",
          "type": "uint256"
        }
      ],
      "name": "Approval",
      "type": "event"
    },
    {
      "anonymous": false,
      "inputs": [
        {
          "indexed": true,
          "internalType": "address",
          "name": "beacon",
          "type": "address"
        }
      ],
      "name": "BeaconUpgraded",
      "type": "event"
    },
    {
      "anonymous": false,
      "inputs": [
        {
          "indexed": false,
          "internalType": "address",
          "name": "sentToUser",
          "type": "address"
        },
        {
          "indexed": false,
          "internalType": "address",
          "name": "token",
          "type": "address"
        },
        {
          "indexed": false,
          "internalType": "uint256",
          "name": "tokenId",
          "type": "uint256"
        }
      ],
      "name": "DeClaimedAPlanet",
      "type": "event"
    },
    {
      "anonymous": false,
      "inputs": [
        {
          "indexed": false,
          "internalType": "address",
          "name": "sentToUser",
          "type": "address"
        },
        {
          "indexed": false,
          "internalType": "address",
          "name": "token",
          "type": "address"
        },
        {
          "indexed": false,
          "internalType": "uint256",
          "name": "tokenId",
          "type": "uint256"
        }
      ],
      "name": "DeListedAPlanet",
      "type": "event"
    },
    {
      "anonymous": false,
      "inputs": [],
      "name": "EIP712DomainChanged",
      "type": "event"
    },
    {
      "anonymous": false,
      "inputs": [
        {
          "indexed": true,
          "internalType": "contract IERC20Upgradeable",
          "name": "token",
          "type": "address"
        },
        {
          "indexed": false,
          "internalType": "address",
          "name": "to",
          "type": "address"
        },
        {
          "indexed": false,
          "internalType": "uint256",
          "name": "amount",
          "type": "uint256"
        }
      ],
      "name": "ERC20PaymentReleased",
      "type": "event"
    },
    {
      "anonymous": false,
      "inputs": [
        {
          "indexed": false,
          "internalType": "uint8",
          "name": "version",
          "type": "uint8"
        }
      ],
      "name": "Initialized",
      "type": "event"
    },
    {
      "anonymous": false,
      "inputs": [
        {
          "indexed": false,
          "internalType": "address",
          "name": "sentFromUser",
          "type": "address"
        },
        {
          "indexed": false,
          "internalType": "address",
          "name": "token",
          "type": "address"
        },
        {
          "indexed": false,
          "internalType": "uint256",
          "name": "tokenId",
          "type": "uint256"
        },
        {
          "indexed": false,
          "internalType": "uint256",
          "name": "price",
          "type": "uint256"
        }
      ],
      "name": "ListedAPlanet",
      "type": "event"
    },
    {
      "anonymous": false,
      "inputs": [
        {
          "indexed": false,
          "internalType": "address",
          "name": "operator",
          "type": "address"
        },
        {
          "indexed": false,
          "internalType": "address",
          "name": "from",
          "type": "address"
        },
        {
          "indexed": false,
          "internalType": "uint256",
          "name": "tokenId",
          "type": "uint256"
        },
        {
          "indexed": false,
          "internalType": "bytes",
          "name": "data",
          "type": "bytes"
        },
        {
          "indexed": false,
          "internalType": "string",
          "name": "typeOfReceival",
          "type": "string"
        }
      ],
      "name": "NftReceived",
      "type": "event"
    },
    {
      "anonymous": false,
      "inputs": [
        {
          "indexed": true,
          "internalType": "address",
          "name": "previousOwner",
          "type": "address"
        },
        {
          "indexed": true,
          "internalType": "address",
          "name": "newOwner",
          "type": "address"
        }
      ],
      "name": "OwnershipTransferred",
      "type": "event"
    },
    {
      "anonymous": false,
      "inputs": [
        {
          "indexed": false,
          "internalType": "address",
          "name": "account",
          "type": "address"
        }
      ],
      "name": "Paused",
      "type": "event"
    },
    {
      "anonymous": false,
      "inputs": [
        {
          "indexed": false,
          "internalType": "address",
          "name": "account",
          "type": "address"
        },
        {
          "indexed": false,
          "internalType": "uint256",
          "name": "shares",
          "type": "uint256"
        }
      ],
      "name": "PayeeAdded",
      "type": "event"
    },
    {
      "anonymous": false,
      "inputs": [
        {
          "indexed": false,
          "internalType": "address",
          "name": "from",
          "type": "address"
        },
        {
          "indexed": false,
          "internalType": "uint256",
          "name": "amount",
          "type": "uint256"
        }
      ],
      "name": "PaymentReceived",
      "type": "event"
    },
    {
      "anonymous": false,
      "inputs": [
        {
          "indexed": false,
          "internalType": "address",
          "name": "to",
          "type": "address"
        },
        {
          "indexed": false,
          "internalType": "uint256",
          "name": "amount",
          "type": "uint256"
        }
      ],
      "name": "PaymentReleased",
      "type": "event"
    },
    {
      "anonymous": false,
      "inputs": [
        {
          "indexed": false,
          "internalType": "uint256",
          "name": "planetAsking",
          "type": "uint256"
        },
        {
          "indexed": false,
          "internalType": "address",
          "name": "askingUser",
          "type": "address"
        },
        {
          "indexed": false,
          "internalType": "uint256",
          "name": "planetJoining",
          "type": "uint256"
        },
        {
          "indexed": false,
          "internalType": "address",
          "name": "joiningUser",
          "type": "address"
        }
      ],
      "name": "PlanetsConjoining",
      "type": "event"
    },
    {
      "anonymous": false,
      "inputs": [
        {
          "indexed": true,
          "internalType": "address",
          "name": "from",
          "type": "address"
        },
        {
          "indexed": true,
          "internalType": "address",
          "name": "to",
          "type": "address"
        },
        {
          "indexed": false,
          "internalType": "uint256",
          "name": "value",
          "type": "uint256"
        }
      ],
      "name": "Transfer",
      "type": "event"
    },
    {
      "anonymous": false,
      "inputs": [
        {
          "indexed": false,
          "internalType": "address",
          "name": "account",
          "type": "address"
        }
      ],
      "name": "Unpaused",
      "type": "event"
    },
    {
      "anonymous": false,
      "inputs": [
        {
          "indexed": true,
          "internalType": "address",
          "name": "implementation",
          "type": "address"
        }
      ],
      "name": "Upgraded",
      "type": "event"
    },
    {
      "stateMutability": "payable",
      "type": "fallback"
    },
    {
      "inputs": [],
      "name": "DOMAIN_SEPARATOR",
      "outputs": [
        {
          "internalType": "bytes32",
          "name": "",
          "type": "bytes32"
        }
      ],
      "stateMutability": "view",
      "type": "function"
    },
    {
      "inputs": [
        {
          "internalType": "uint256",
          "name": "_claimTokenId",
          "type": "uint256"
        },
        {
          "internalType": "address",
          "name": "_claimAddr",
          "type": "address"
        }
      ],
      "name": "addClaimant",
      "outputs": [],
      "stateMutability": "nonpayable",
      "type": "function"
    },
    {
      "inputs": [
        {
          "internalType": "address",
          "name": "owner",
          "type": "address"
        },
        {
          "internalType": "address",
          "name": "spender",
          "type": "address"
        }
      ],
      "name": "allowance",
      "outputs": [
        {
          "internalType": "uint256",
          "name": "",
          "type": "uint256"
        }
      ],
      "stateMutability": "view",
      "type": "function"
    },
    {
      "inputs": [
        {
          "internalType": "address",
          "name": "spender",
          "type": "address"
        },
        {
          "internalType": "uint256",
          "name": "amount",
          "type": "uint256"
        }
      ],
      "name": "approve",
      "outputs": [
        {
          "internalType": "bool",
          "name": "",
          "type": "bool"
        }
      ],
      "stateMutability": "nonpayable",
      "type": "function"
    },
    {
      "inputs": [
        {
          "internalType": "address",
          "name": "userAsking",
          "type": "address"
        },
        {
          "internalType": "uint256",
          "name": "askingPlanet",
          "type": "uint256"
        },
        {
          "internalType": "address",
          "name": "otherParent",
          "type": "address"
        },
        {
          "internalType": "uint256",
          "name": "otherTokenId",
          "type": "uint256"
        },
        {
          "internalType": "uint256",
          "name": "cTokenId",
          "type": "uint256"
        }
      ],
      "name": "arriveClaimablePlanet",
      "outputs": [],
      "stateMutability": "nonpayable",
      "type": "function"
    },
    {
      "inputs": [
        {
          "internalType": "address",
          "name": "account",
          "type": "address"
        }
      ],
      "name": "balanceOf",
      "outputs": [
        {
          "internalType": "uint256",
          "name": "",
          "type": "uint256"
        }
      ],
      "stateMutability": "view",
      "type": "function"
    },
    {
      "inputs": [],
      "name": "breedContract",
      "outputs": [
        {
          "internalType": "contract IBreedContract",
          "name": "",
          "type": "address"
        }
      ],
      "stateMutability": "view",
      "type": "function"
    },
    {
      "inputs": [
        {
          "internalType": "uint256",
          "name": "newVRF",
          "type": "uint256"
        }
      ],
      "name": "changeVRFValue",
      "outputs": [],
      "stateMutability": "nonpayable",
      "type": "function"
    },
    {
      "inputs": [
        {
          "internalType": "address",
          "name": "owner",
          "type": "address"
        },
        {
          "internalType": "address",
          "name": "operator",
          "type": "address"
        }
      ],
      "name": "checkApprovalForAll",
      "outputs": [
        {
          "internalType": "bool",
          "name": "",
          "type": "bool"
        }
      ],
      "stateMutability": "view",
      "type": "function"
    },
    {
      "inputs": [
        {
          "internalType": "uint256",
          "name": "claimableTokenId",
          "type": "uint256"
        }
      ],
      "name": "claimPlanet",
      "outputs": [],
      "stateMutability": "nonpayable",
      "type": "function"
    },
    {
      "inputs": [
        {
          "internalType": "address",
          "name": "",
          "type": "address"
        },
        {
          "internalType": "uint256",
          "name": "",
          "type": "uint256"
        }
      ],
      "name": "claimablePlanets",
      "outputs": [
        {
          "internalType": "address",
          "name": "ownerParentAddress",
          "type": "address"
        },
        {
          "internalType": "uint256",
          "name": "ownerTokenId",
          "type": "uint256"
        },
        {
          "internalType": "bool",
          "name": "delivered",
          "type": "bool"
        },
        {
          "internalType": "bool",
          "name": "arrived",
          "type": "bool"
        },
        {
          "internalType": "address",
          "name": "otherParent",
          "type": "address"
        },
        {
          "internalType": "uint256",
          "name": "otherTokenId",
          "type": "uint256"
        },
        {
          "internalType": "uint256",
          "name": "claimsTokenId",
          "type": "uint256"
        }
      ],
      "stateMutability": "view",
      "type": "function"
    },
    {
      "inputs": [
        {
          "internalType": "uint256",
          "name": "",
          "type": "uint256"
        }
      ],
      "name": "claimantTokenIdToOwnerAddress",
      "outputs": [
        {
          "internalType": "address",
          "name": "",
          "type": "address"
        }
      ],
      "stateMutability": "view",
      "type": "function"
    },
    {
      "inputs": [
        {
          "internalType": "uint256",
          "name": "yourPlanet",
          "type": "uint256"
        },
        {
          "internalType": "uint256",
          "name": "withListedPlanet",
          "type": "uint256"
        }
      ],
      "name": "conjunct",
      "outputs": [],
      "stateMutability": "payable",
      "type": "function"
    },
    {
      "inputs": [
        {
          "internalType": "uint256",
          "name": "idIndex",
          "type": "uint256"
        },
        {
          "internalType": "uint256",
          "name": "tokenId",
          "type": "uint256"
        }
      ],
      "name": "deList",
      "outputs": [],
      "stateMutability": "nonpayable",
      "type": "function"
    },
    {
      "inputs": [],
      "name": "deListAllYourPlanets",
      "outputs": [],
      "stateMutability": "nonpayable",
      "type": "function"
    },
    {
      "inputs": [],
      "name": "decimals",
      "outputs": [
        {
          "internalType": "uint8",
          "name": "",
          "type": "uint8"
        }
      ],
      "stateMutability": "view",
      "type": "function"
    },
    {
      "inputs": [
        {
          "internalType": "address",
          "name": "spender",
          "type": "address"
        },
        {
          "internalType": "uint256",
          "name": "subtractedValue",
          "type": "uint256"
        }
      ],
      "name": "decreaseAllowance",
      "outputs": [
        {
          "internalType": "bool",
          "name": "",
          "type": "bool"
        }
      ],
      "stateMutability": "nonpayable",
      "type": "function"
    },
    {
      "inputs": [
        {
          "internalType": "address",
          "name": "userAsking",
          "type": "address"
        },
        {
          "internalType": "uint256",
          "name": "askingPlanet",
          "type": "uint256"
        },
        {
          "internalType": "address",
          "name": "otherParent",
          "type": "address"
        },
        {
          "internalType": "uint256",
          "name": "otherTokenId",
          "type": "uint256"
        },
        {
          "internalType": "uint256",
          "name": "cTokenId",
          "type": "uint256"
        }
      ],
      "name": "deliverClaimablePlanet",
      "outputs": [],
      "stateMutability": "nonpayable",
      "type": "function"
    },
    {
      "inputs": [],
      "name": "eip712Domain",
      "outputs": [
        {
          "internalType": "bytes1",
          "name": "fields",
          "type": "bytes1"
        },
        {
          "internalType": "string",
          "name": "name",
          "type": "string"
        },
        {
          "internalType": "string",
          "name": "version",
          "type": "string"
        },
        {
          "internalType": "uint256",
          "name": "chainId",
          "type": "uint256"
        },
        {
          "internalType": "address",
          "name": "verifyingContract",
          "type": "address"
        },
        {
          "internalType": "bytes32",
          "name": "salt",
          "type": "bytes32"
        },
        {
          "internalType": "uint256[]",
          "name": "extensions",
          "type": "uint256[]"
        }
      ],
      "stateMutability": "view",
      "type": "function"
    },
    {
      "inputs": [],
      "name": "getAllPlanets",
      "outputs": [
        {
          "components": [
            {
              "internalType": "uint256",
              "name": "tokenId",
              "type": "uint256"
            },
            {
              "internalType": "uint256",
              "name": "price",
              "type": "uint256"
            },
            {
              "internalType": "address",
              "name": "ownerAddress",
              "type": "address"
            },
            {
              "internalType": "bool",
              "name": "active",
              "type": "bool"
            }
          ],
          "internalType": "struct ListedPlanet[]",
          "name": "",
          "type": "tuple[]"
        }
      ],
      "stateMutability": "view",
      "type": "function"
    },
    {
      "inputs": [
        {
          "internalType": "address",
          "name": "userAddr",
          "type": "address"
        }
      ],
      "name": "getClaimablePlanetsFor",
      "outputs": [
        {
          "components": [
            {
              "internalType": "address",
              "name": "ownerParentAddress",
              "type": "address"
            },
            {
              "internalType": "uint256",
              "name": "ownerTokenId",
              "type": "uint256"
            },
            {
              "internalType": "bool",
              "name": "delivered",
              "type": "bool"
            },
            {
              "internalType": "bool",
              "name": "arrived",
              "type": "bool"
            },
            {
              "internalType": "address",
              "name": "otherParent",
              "type": "address"
            },
            {
              "internalType": "uint256",
              "name": "otherTokenId",
              "type": "uint256"
            },
            {
              "internalType": "uint256",
              "name": "claimsTokenId",
              "type": "uint256"
            }
          ],
          "internalType": "struct ClaimablePlanet[]",
          "name": "",
          "type": "tuple[]"
        }
      ],
      "stateMutability": "view",
      "type": "function"
    },
    {
      "inputs": [
        {
          "internalType": "uint256",
          "name": "claimableTokenId",
          "type": "uint256"
        }
      ],
      "name": "getClaimantTokenIdToOwnerAddress",
      "outputs": [
        {
          "internalType": "address",
          "name": "",
          "type": "address"
        }
      ],
      "stateMutability": "view",
      "type": "function"
    },
    {
      "inputs": [
        {
          "internalType": "uint256",
          "name": "startIndex",
          "type": "uint256"
        },
        {
          "internalType": "uint256",
          "name": "endIndex",
          "type": "uint256"
        }
      ],
      "name": "getPlanetsPaginated",
      "outputs": [
        {
          "components": [
            {
              "internalType": "uint256",
              "name": "tokenId",
              "type": "uint256"
            },
            {
              "internalType": "uint256",
              "name": "price",
              "type": "uint256"
            },
            {
              "internalType": "address",
              "name": "ownerAddress",
              "type": "address"
            },
            {
              "internalType": "bool",
              "name": "active",
              "type": "bool"
            }
          ],
          "internalType": "struct ListedPlanet[]",
          "name": "",
          "type": "tuple[]"
        }
      ],
      "stateMutability": "view",
      "type": "function"
    },
    {
      "inputs": [
        {
          "internalType": "address",
          "name": "userAddr",
          "type": "address"
        }
      ],
      "name": "getuserToListedPlanets",
      "outputs": [
        {
          "components": [
            {
              "internalType": "uint256",
              "name": "tokenId",
              "type": "uint256"
            },
            {
              "internalType": "uint256",
              "name": "price",
              "type": "uint256"
            },
            {
              "internalType": "address",
              "name": "ownerAddress",
              "type": "address"
            },
            {
              "internalType": "bool",
              "name": "active",
              "type": "bool"
            }
          ],
          "internalType": "struct ListedPlanet[]",
          "name": "",
          "type": "tuple[]"
        }
      ],
      "stateMutability": "view",
      "type": "function"
    },
    {
      "inputs": [
        {
          "internalType": "address",
          "name": "owner",
          "type": "address"
        },
        {
          "internalType": "uint256",
          "name": "tokenId",
          "type": "uint256"
        }
      ],
      "name": "hasPlanetArrived",
      "outputs": [
        {
          "internalType": "bool",
          "name": "arrived",
          "type": "bool"
        }
      ],
      "stateMutability": "view",
      "type": "function"
    },
    {
      "inputs": [
        {
          "internalType": "address",
          "name": "owner",
          "type": "address"
        },
        {
          "internalType": "uint256",
          "name": "tokenId",
          "type": "uint256"
        }
      ],
      "name": "hasPlanetBeenDelivered",
      "outputs": [
        {
          "internalType": "bool",
          "name": "delivered",
          "type": "bool"
        }
      ],
      "stateMutability": "view",
      "type": "function"
    },
    {
      "inputs": [
        {
          "internalType": "address",
          "name": "spender",
          "type": "address"
        },
        {
          "internalType": "uint256",
          "name": "addedValue",
          "type": "uint256"
        }
      ],
      "name": "increaseAllowance",
      "outputs": [
        {
          "internalType": "bool",
          "name": "",
          "type": "bool"
        }
      ],
      "stateMutability": "nonpayable",
      "type": "function"
    },
    {
      "inputs": [
        {
          "internalType": "address",
          "name": "initialOwner",
          "type": "address"
        }
      ],
      "name": "initialize",
      "outputs": [],
      "stateMutability": "nonpayable",
      "type": "function"
    },
    {
      "inputs": [],
      "name": "listAllYourPlanets",
      "outputs": [],
      "stateMutability": "nonpayable",
      "type": "function"
    },
    {
      "inputs": [],
      "name": "name",
      "outputs": [
        {
          "internalType": "string",
          "name": "",
          "type": "string"
        }
      ],
      "stateMutability": "view",
      "type": "function"
    },
    {
      "inputs": [
        {
          "internalType": "address",
          "name": "owner",
          "type": "address"
        }
      ],
      "name": "nonces",
      "outputs": [
        {
          "internalType": "uint256",
          "name": "",
          "type": "uint256"
        }
      ],
      "stateMutability": "view",
      "type": "function"
    },
    {
      "inputs": [
        {
          "internalType": "address",
          "name": "operator",
          "type": "address"
        },
        {
          "internalType": "address",
          "name": "from",
          "type": "address"
        },
        {
          "internalType": "uint256",
          "name": "tokenId",
          "type": "uint256"
        },
        {
          "internalType": "bytes",
          "name": "data",
          "type": "bytes"
        }
      ],
      "name": "onERC721Received",
      "outputs": [
        {
          "internalType": "bytes4",
          "name": "",
          "type": "bytes4"
        }
      ],
      "stateMutability": "nonpayable",
      "type": "function"
    },
    {
      "inputs": [],
      "name": "owner",
      "outputs": [
        {
          "internalType": "address",
          "name": "",
          "type": "address"
        }
      ],
      "stateMutability": "view",
      "type": "function"
    },
    {
      "inputs": [
        {
          "internalType": "uint256",
          "name": "claimableTokenId",
          "type": "uint256"
        },
        {
          "internalType": "address",
          "name": "sendToAddr",
          "type": "address"
        }
      ],
      "name": "ownerClaimPlanet",
      "outputs": [],
      "stateMutability": "nonpayable",
      "type": "function"
    },
    {
      "inputs": [
        {
          "internalType": "uint256",
          "name": "tokenId",
          "type": "uint256"
        },
        {
          "internalType": "address",
          "name": "destinationAddr",
          "type": "address"
        }
      ],
      "name": "ownerOverrideSendNFT",
      "outputs": [],
      "stateMutability": "nonpayable",
      "type": "function"
    },
    {
      "inputs": [],
      "name": "pause",
      "outputs": [],
      "stateMutability": "nonpayable",
      "type": "function"
    },
    {
      "inputs": [],
      "name": "paused",
      "outputs": [
        {
          "internalType": "bool",
          "name": "",
          "type": "bool"
        }
      ],
      "stateMutability": "view",
      "type": "function"
    },
    {
      "inputs": [
        {
          "internalType": "uint256",
          "name": "index",
          "type": "uint256"
        }
      ],
      "name": "payee",
      "outputs": [
        {
          "internalType": "address",
          "name": "",
          "type": "address"
        }
      ],
      "stateMutability": "view",
      "type": "function"
    },
    {
      "inputs": [
        {
          "internalType": "address",
          "name": "owner",
          "type": "address"
        },
        {
          "internalType": "address",
          "name": "spender",
          "type": "address"
        },
        {
          "internalType": "uint256",
          "name": "value",
          "type": "uint256"
        },
        {
          "internalType": "uint256",
          "name": "deadline",
          "type": "uint256"
        },
        {
          "internalType": "uint8",
          "name": "v",
          "type": "uint8"
        },
        {
          "internalType": "bytes32",
          "name": "r",
          "type": "bytes32"
        },
        {
          "internalType": "bytes32",
          "name": "s",
          "type": "bytes32"
        }
      ],
      "name": "permit",
      "outputs": [],
      "stateMutability": "nonpayable",
      "type": "function"
    },
    {
      "inputs": [],
      "name": "proxiableUUID",
      "outputs": [
        {
          "internalType": "bytes32",
          "name": "",
          "type": "bytes32"
        }
      ],
      "stateMutability": "view",
      "type": "function"
    },
    {
      "inputs": [
        {
          "internalType": "address",
          "name": "account",
          "type": "address"
        }
      ],
      "name": "releasable",
      "outputs": [
        {
          "internalType": "uint256",
          "name": "",
          "type": "uint256"
        }
      ],
      "stateMutability": "view",
      "type": "function"
    },
    {
      "inputs": [
        {
          "internalType": "contract IERC20Upgradeable",
          "name": "token",
          "type": "address"
        },
        {
          "internalType": "address",
          "name": "account",
          "type": "address"
        }
      ],
      "name": "releasable",
      "outputs": [
        {
          "internalType": "uint256",
          "name": "",
          "type": "uint256"
        }
      ],
      "stateMutability": "view",
      "type": "function"
    },
    {
      "inputs": [
        {
          "internalType": "address payable",
          "name": "account",
          "type": "address"
        }
      ],
      "name": "release",
      "outputs": [],
      "stateMutability": "nonpayable",
      "type": "function"
    },
    {
      "inputs": [
        {
          "internalType": "contract IERC20Upgradeable",
          "name": "token",
          "type": "address"
        },
        {
          "internalType": "address",
          "name": "account",
          "type": "address"
        }
      ],
      "name": "release",
      "outputs": [],
      "stateMutability": "nonpayable",
      "type": "function"
    },
    {
      "inputs": [
        {
          "internalType": "contract IERC20Upgradeable",
          "name": "token",
          "type": "address"
        },
        {
          "internalType": "address",
          "name": "account",
          "type": "address"
        }
      ],
      "name": "released",
      "outputs": [
        {
          "internalType": "uint256",
          "name": "",
          "type": "uint256"
        }
      ],
      "stateMutability": "view",
      "type": "function"
    },
    {
      "inputs": [
        {
          "internalType": "address",
          "name": "account",
          "type": "address"
        }
      ],
      "name": "released",
      "outputs": [
        {
          "internalType": "uint256",
          "name": "",
          "type": "uint256"
        }
      ],
      "stateMutability": "view",
      "type": "function"
    },
    {
      "inputs": [],
      "name": "renounceOwnership",
      "outputs": [],
      "stateMutability": "nonpayable",
      "type": "function"
    },
    {
      "inputs": [
        {
          "internalType": "address",
          "name": "_breederContractAddr",
          "type": "address"
        },
        {
          "internalType": "uint256",
          "name": "_vrfValue",
          "type": "uint256"
        },
        {
          "internalType": "address",
          "name": "_nftContractAddr",
          "type": "address"
        }
      ],
      "name": "setAllOf",
      "outputs": [],
      "stateMutability": "nonpayable",
      "type": "function"
    },
    {
      "inputs": [
        {
          "internalType": "uint256",
          "name": "_toThisPercentage",
          "type": "uint256"
        }
      ],
      "name": "setMktFee",
      "outputs": [],
      "stateMutability": "nonpayable",
      "type": "function"
    },
    {
      "inputs": [
        {
          "internalType": "address payable",
          "name": "newTAdd",
          "type": "address"
        }
      ],
      "name": "setTAdd",
      "outputs": [],
      "stateMutability": "nonpayable",
      "type": "function"
    },
    {
      "inputs": [
        {
          "internalType": "address",
          "name": "account",
          "type": "address"
        }
      ],
      "name": "shares",
      "outputs": [
        {
          "internalType": "uint256",
          "name": "",
          "type": "uint256"
        }
      ],
      "stateMutability": "view",
      "type": "function"
    },
    {
      "inputs": [],
      "name": "status",
      "outputs": [],
      "stateMutability": "nonpayable",
      "type": "function"
    },
    {
      "inputs": [],
      "name": "symbol",
      "outputs": [
        {
          "internalType": "string",
          "name": "",
          "type": "string"
        }
      ],
      "stateMutability": "view",
      "type": "function"
    },
    {
      "inputs": [
        {
          "internalType": "contract IERC20Upgradeable",
          "name": "token",
          "type": "address"
        }
      ],
      "name": "totalReleased",
      "outputs": [
        {
          "internalType": "uint256",
          "name": "",
          "type": "uint256"
        }
      ],
      "stateMutability": "view",
      "type": "function"
    },
    {
      "inputs": [],
      "name": "totalReleased",
      "outputs": [
        {
          "internalType": "uint256",
          "name": "",
          "type": "uint256"
        }
      ],
      "stateMutability": "view",
      "type": "function"
    },
    {
      "inputs": [],
      "name": "totalShares",
      "outputs": [
        {
          "internalType": "uint256",
          "name": "",
          "type": "uint256"
        }
      ],
      "stateMutability": "view",
      "type": "function"
    },
    {
      "inputs": [],
      "name": "totalSupply",
      "outputs": [
        {
          "internalType": "uint256",
          "name": "",
          "type": "uint256"
        }
      ],
      "stateMutability": "view",
      "type": "function"
    },
    {
      "inputs": [
        {
          "internalType": "address",
          "name": "to",
          "type": "address"
        },
        {
          "internalType": "uint256",
          "name": "amount",
          "type": "uint256"
        }
      ],
      "name": "transfer",
      "outputs": [
        {
          "internalType": "bool",
          "name": "",
          "type": "bool"
        }
      ],
      "stateMutability": "nonpayable",
      "type": "function"
    },
    {
      "inputs": [
        {
          "internalType": "address",
          "name": "from",
          "type": "address"
        },
        {
          "internalType": "address",
          "name": "to",
          "type": "address"
        },
        {
          "internalType": "uint256",
          "name": "amount",
          "type": "uint256"
        }
      ],
      "name": "transferFrom",
      "outputs": [
        {
          "internalType": "bool",
          "name": "",
          "type": "bool"
        }
      ],
      "stateMutability": "nonpayable",
      "type": "function"
    },
    {
      "inputs": [
        {
          "internalType": "address",
          "name": "newOwner",
          "type": "address"
        }
      ],
      "name": "transferOwnership",
      "outputs": [],
      "stateMutability": "nonpayable",
      "type": "function"
    },
    {
      "inputs": [],
      "name": "unpause",
      "outputs": [],
      "stateMutability": "nonpayable",
      "type": "function"
    },
    {
      "inputs": [
        {
          "internalType": "address",
          "name": "newImplementation",
          "type": "address"
        }
      ],
      "name": "upgradeTo",
      "outputs": [],
      "stateMutability": "nonpayable",
      "type": "function"
    },
    {
      "inputs": [
        {
          "internalType": "address",
          "name": "newImplementation",
          "type": "address"
        },
        {
          "internalType": "bytes",
          "name": "data",
          "type": "bytes"
        }
      ],
      "name": "upgradeToAndCall",
      "outputs": [],
      "stateMutability": "payable",
      "type": "function"
    },
    {
      "inputs": [
        {
          "internalType": "address",
          "name": "",
          "type": "address"
        },
        {
          "internalType": "uint256",
          "name": "",
          "type": "uint256"
        }
      ],
      "name": "userToListedPlanets",
      "outputs": [
        {
          "internalType": "uint256",
          "name": "tokenId",
          "type": "uint256"
        },
        {
          "internalType": "uint256",
          "name": "price",
          "type": "uint256"
        },
        {
          "internalType": "address",
          "name": "ownerAddress",
          "type": "address"
        },
        {
          "internalType": "bool",
          "name": "active",
          "type": "bool"
        }
      ],
      "stateMutability": "view",
      "type": "function"
    },
    {
      "inputs": [
        {
          "internalType": "address",
          "name": "userAddress",
          "type": "address"
        }
      ],
      "name": "usersClaims",
      "outputs": [
        {
          "components": [
            {
              "internalType": "address",
              "name": "ownerParentAddress",
              "type": "address"
            },
            {
              "internalType": "uint256",
              "name": "ownerTokenId",
              "type": "uint256"
            },
            {
              "internalType": "bool",
              "name": "delivered",
              "type": "bool"
            },
            {
              "internalType": "bool",
              "name": "arrived",
              "type": "bool"
            },
            {
              "internalType": "address",
              "name": "otherParent",
              "type": "address"
            },
            {
              "internalType": "uint256",
              "name": "otherTokenId",
              "type": "uint256"
            },
            {
              "internalType": "uint256",
              "name": "claimsTokenId",
              "type": "uint256"
            }
          ],
          "internalType": "struct ClaimablePlanet[]",
          "name": "",
          "type": "tuple[]"
        }
      ],
      "stateMutability": "view",
      "type": "function"
    },
    {
      "inputs": [],
      "name": "withdrawFunds",
      "outputs": [],
      "stateMutability": "nonpayable",
      "type": "function"
    },
    {
      "stateMutability": "payable",
      "type": "receive"
    }
  ],
  "bytecode": "0x60a06040523060805234801561001457600080fd5b50608051615bbb6200004d600039600081816116b80152818161173d01528181611af701528181611b7c0152611e3c0152615bbb6000f3fe6080604052600436106103c75760003560e01c8063715018a6116101f2578063c7c0e6b111610119578063dd62ed3e116100b2578063f2fde38b11610084578063fdb408751161006c578063fdb4087514610e9d578063fde4976714610ebd578063fe79222914610d2857005b8063f2fde38b14610e5d578063f4c1494314610e7d57005b8063dd62ed3e14610d75578063e22aecb414610dbb578063e33b7de314610e26578063ee6e3a2314610e3c57005b8063d505accf116100eb578063d505accf14610cd1578063d79779b214610cf1578063dbb774d814610d28578063dd22a9c714610d5557005b8063c7c0e6b114610c3a578063cbdf1b5a14610c5a578063cdb82a3714610c7a578063ce7c2ac214610c9a57005b806395d89b411161018b578063a9059cbb1161015d578063a9059cbb14610ba3578063bd83dc0514610bc3578063c45ac05014610bfa578063c4d66de814610c1a57005b806395d89b4114610b175780639852595c14610b2c578063a3f8eace14610b63578063a457c2d714610b8357005b806384b0196e116101c457806384b0196e14610a5f57806385fe724314610a875780638b83209b14610ad85780638da5cb5b14610af857005b8063715018a614610a175780637ecebe0014610a2c5780638230a78414610a4c5780638456cb59146105f057005b806339509351116102ee5780634d9504491161028757806352d1902d116102595780635e1e4262116102415780635e1e4262146108c35780636a23befb146109cc57806370a08231146109e157005b806352d1902d146108965780635c975abb146108ab57005b80634d950449146108435780634f1ef2861461086357806350842cf3146105c45780635270ad6c1461087657005b80633f4ba83a116102c05780633f4ba83a146107a7578063406072a9146107bc57806348b75044146108035780634a02099b1461082357005b806339509351146107075780633a7fb03d146107275780633a98ef39146107475780633b933f851461075d57005b8063200d2ed211610360578063313ce56711610332578063313ce5671461066757806334ae54e9146106835780633644e515146106d25780633659cfe6146106e757005b8063200d2ed2146105f057806323b872dd1461060557806324600fc314610625578063259478181461063a57005b806318160ddd1161039957806318160ddd1461058557806319165587146105a45780631ac9a91e146105c45780631dd320ea146105d057005b806306fdde03146103d0578063095ea7b3146103fb5780630ffb61b71461042b578063150b7a021461053457005b366103ce57005b005b3480156103dc57600080fd5b506103e5610edd565b6040516103f29190615168565b60405180910390f35b34801561040757600080fd5b5061041b610416366004615190565b610f6f565b60405190151581526020016103f2565b34801561043757600080fd5b506103ce6104463660046151bc565b6040805160e0810182526001600160a01b0396871680825260208083019788526000838501818152600160608601818152998c166080870190815260a08701998a5260c087019889529483526101cd84529582208054808801825590835292909120935160059092029093018054918a166001600160a01b03199092169190911781559651928701929092555160028601805495519251909716620100000275ffffffffffffffffffffffffffffffffffffffff0000199215156101000261ff00199215159290921661ffff1990961695909517171692909217909355915160038201559051600490910155565b34801561054057600080fd5b5061055461054f3660046152ef565b610f89565b6040517fffffffff0000000000000000000000000000000000000000000000000000000090911681526020016103f2565b34801561059157600080fd5b5060cb545b6040519081526020016103f2565b3480156105b057600080fd5b506103ce6105bf36600461535b565b61121a565b3480156103ce57600080fd5b3480156105dc57600080fd5b5061041b6105eb366004615190565b61138f565b3480156105fc57600080fd5b506103ce611461565b34801561061157600080fd5b5061041b610620366004615378565b611471565b34801561063157600080fd5b506103ce611495565b34801561064657600080fd5b5061065a6106553660046153b9565b6114d7565b6040516103f291906153db565b34801561067357600080fd5b50604051601281526020016103f2565b34801561068f57600080fd5b506106ba61069e36600461544a565b6101cc602052600090815260409020546001600160a01b031681565b6040516001600160a01b0390911681526020016103f2565b3480156106de57600080fd5b5061059661169f565b3480156106f357600080fd5b506103ce61070236600461535b565b6116ae565b34801561071357600080fd5b5061041b610722366004615190565b611829565b34801561073357600080fd5b506103ce610742366004615463565b611868565b34801561075357600080fd5b5061016254610596565b34801561076957600080fd5b506103ce610778366004615463565b60009182526101cc602052604090912080546001600160a01b0319166001600160a01b03909216919091179055565b3480156107b357600080fd5b506103ce6118f9565b3480156107c857600080fd5b506105966107d7366004615493565b6001600160a01b0391821660009081526101686020908152604080832093909416825291909152205490565b34801561080f57600080fd5b506103ce61081e366004615493565b611909565b34801561082f57600080fd5b506103ce61083e3660046154c1565b611aa0565b34801561084f57600080fd5b506103ce61085e36600461544a565b611adf565b6103ce610871366004615503565b611aed565b34801561088257600080fd5b506103ce61089136600461544a565b611c55565b3480156108a257600080fd5b50610596611e2f565b3480156108b757600080fd5b5060335460ff1661041b565b3480156108cf57600080fd5b506103ce6108de3660046151bc565b6040805160e0810182526001600160a01b039687168082526020808301978852600183850181815260608501828152988b166080860190815260a0860198895260c0860197885260009485526101cd84529584208054808401825590855292909320935160059092029093018054918a166001600160a01b03199092169190911781559651918701919091555160028601805495519251909716620100000275ffffffffffffffffffffffffffffffffffffffff0000199215156101000261ff00199215159290921661ffff1990961695909517171692909217909355915160038201559051600490910155565b3480156109d857600080fd5b5061065a611ef4565b3480156109ed57600080fd5b506105966109fc36600461535b565b6001600160a01b0316600090815260c9602052604090205490565b348015610a2357600080fd5b506103ce611f8a565b348015610a3857600080fd5b50610596610a4736600461535b565b611f9c565b6103ce610a5a3660046153b9565b611fbb565b348015610a6b57600080fd5b50610a74612866565b6040516103f29796959493929190615553565b348015610a9357600080fd5b50610aa7610aa2366004615190565b612928565b6040516103f2949392919093845260208401929092526001600160a01b031660408301521515606082015260800190565b348015610ae457600080fd5b506106ba610af336600461544a565b612980565b348015610b0457600080fd5b50610194546001600160a01b03166106ba565b348015610b2357600080fd5b506103e56129b1565b348015610b3857600080fd5b50610596610b4736600461535b565b6001600160a01b03166000908152610165602052604090205490565b348015610b6f57600080fd5b50610596610b7e36600461535b565b6129c0565b348015610b8f57600080fd5b5061041b610b9e366004615190565b612a0a565b348015610baf57600080fd5b5061041b610bbe366004615190565b612ab4565b348015610bcf57600080fd5b506106ba610bde36600461544a565b60009081526101cc60205260409020546001600160a01b031690565b348015610c0657600080fd5b50610596610c15366004615493565b612ac2565b348015610c2657600080fd5b506103ce610c3536600461535b565b612ba0565b348015610c4657600080fd5b506103ce610c5536600461544a565b612cd2565b348015610c6657600080fd5b506103ce610c753660046153b9565b612ce8565b348015610c8657600080fd5b506103ce610c9536600461535b565b613013565b348015610ca657600080fd5b50610596610cb536600461535b565b6001600160a01b03166000908152610164602052604090205490565b348015610cdd57600080fd5b506103ce610cec366004615608565b613046565b348015610cfd57600080fd5b50610596610d0c36600461535b565b6001600160a01b03166000908152610167602052604090205490565b348015610d3457600080fd5b50610d48610d4336600461535b565b6131aa565b6040516103f2919061567f565b348015610d6157600080fd5b5061041b610d70366004615493565b61327a565b348015610d8157600080fd5b50610596610d90366004615493565b6001600160a01b03918216600090815260ca6020908152604080832093909416825291909152205490565b348015610dc757600080fd5b50610ddb610dd6366004615190565b61330b565b604080516001600160a01b0398891681526020810197909752941515948601949094529115156060850152909316608083015260a082019290925260c081019190915260e0016103f2565b348015610e3257600080fd5b5061016354610596565b348015610e4857600080fd5b506101c6546106ba906001600160a01b031681565b348015610e6957600080fd5b506103ce610e7836600461535b565b61337c565b348015610e8957600080fd5b5061041b610e98366004615190565b613409565b348015610ea957600080fd5b506103ce610eb8366004615463565b613499565b348015610ec957600080fd5b5061065a610ed836600461535b565b61352b565b606060cc8054610eec90615706565b80601f0160208091040260200160405190810160405280929190818152602001828054610f1890615706565b8015610f655780601f10610f3a57610100808354040283529160200191610f65565b820191906000526020600020905b815481529060010190602001808311610f4857829003601f168201915b5050505050905090565b600033610f7d8185856135cc565b60019150505b92915050565b6000808251118015610fa657506101c8546001600160a01b031633145b1561101157600082806020019051810190610fc1919061573a565b9050610fce848287613724565b7f13c6ec2a463a35f898a457814a782f1f567808293fa783a31fa4dac8868e6011868686866040516110039493929190615753565b60405180910390a1506111ef565b6101c8546001600160a01b031633036111b1576101c8546040517fdc9ce7a5000000000000000000000000000000000000000000000000000000008152600481018590526000916001600160a01b03169063dc9ce7a590602401600060405180830381865afa158015611088573d6000803e3d6000fd5b505050506040513d6000823e601f3d908101601f191682016040526110b0919081019061584c565b50905060008161012001519050600085905060006101cc6000846000815181106110dc576110dc61596b565b6020026020010151815260200190815260200160002060009054906101000a90046001600160a01b0316905060006101cc6000856001815181106111225761112261596b565b60209081029190910181015182528181019290925260409081016000205481518083019092526001600160a01b0385811683521691810182905290915061116981856138a6565b7f13c6ec2a463a35f898a457814a782f1f567808293fa783a31fa4dac8868e60118b8b8b8b60405161119e9493929190615981565b60405180910390a15050505050506111ef565b7f13c6ec2a463a35f898a457814a782f1f567808293fa783a31fa4dac8868e6011858585856040516111e694939291906159f5565b60405180910390a15b507f150b7a02000000000000000000000000000000000000000000000000000000005b949350505050565b6001600160a01b038116600090815261016460205260409020546112945760405162461bcd60e51b815260206004820152602660248201527f5061796d656e7453706c69747465723a206163636f756e7420686173206e6f2060448201526573686172657360d01b60648201526084015b60405180910390fd5b600061129f826129c0565b9050806000036113055760405162461bcd60e51b815260206004820152602b60248201527f5061796d656e7453706c69747465723a206163636f756e74206973206e6f742060448201526a191d59481c185e5b595b9d60aa1b606482015260840161128b565b8061016360008282546113189190615a7f565b90915550506001600160a01b0382166000908152610165602052604090208054820190556113468282613bbe565b604080516001600160a01b0384168152602081018390527fdf20fd1e76bc69d672e4814fafb2c449bba3a5369d8359adf9e05e6fde87b05691015b60405180910390a15050565b565b6001600160a01b03821660009081526101cd60205260408120815b815481101561141857838282815481106113c6576113c661596b565b90600052602060002090600502016004015403611410578181815481106113ef576113ef61596b565b600091825260209091206002600590920201015460ff169250610f83915050565b6001016113aa565b5060405162461bcd60e51b815260206004820152601060248201527f506c616e6574206e6f7420666f756e6400000000000000000000000000000000604482015260640161128b565b611469613cdc565b61138d613d37565b60003361147f858285613d91565b61148a858585613e1d565b506001949350505050565b61149d613cdc565b6114a5614011565b604051339081904780156108fc02916000818181858888f193505050501580156114d3573d6000803e3d6000fd5b5050565b60608282116115285760405162461bcd60e51b815260206004820152600d60248201527f496e76616c696420696e64657800000000000000000000000000000000000000604482015260640161128b565b6101cb5482111561157b5760405162461bcd60e51b815260206004820152601360248201527f496e646578206f7574206f6620626f756e647300000000000000000000000000604482015260640161128b565b60006115878484615a92565b67ffffffffffffffff81111561159f5761159f61520e565b6040519080825280602002602001820160405280156115f157816020015b6040805160808101825260008082526020808301829052928201819052606082015282526000199092019101816115bd5790505b509050835b83811015611697576101cb81815481106116125761161261596b565b600091825260209182902060408051608081018252600393909302909101805483526001810154938301939093526002909201546001600160a01b03811692820192909252600160a01b90910460ff1615156060820152826116748784615a92565b815181106116845761168461596b565b60209081029190910101526001016115f6565b509392505050565b60006116a9614064565b905090565b6001600160a01b037f000000000000000000000000000000000000000000000000000000000000000016300361173b5760405162461bcd60e51b815260206004820152602c60248201527f46756e6374696f6e206d7573742062652063616c6c6564207468726f7567682060448201526b19195b1959d85d1958d85b1b60a21b606482015260840161128b565b7f00000000000000000000000000000000000000000000000000000000000000006001600160a01b03166117967f360894a13ba1a3210667c828492db98dca3e2076cc3735a920a3ca505d382bbc546001600160a01b031690565b6001600160a01b0316146118015760405162461bcd60e51b815260206004820152602c60248201527f46756e6374696f6e206d7573742062652063616c6c6564207468726f7567682060448201526b6163746976652070726f787960a01b606482015260840161128b565b61180a8161406e565b6040805160008082526020820190925261182691839190614076565b50565b33600081815260ca602090815260408083206001600160a01b0387168452909152812054909190610f7d9082908690611863908790615a7f565b6135cc565b611870613cdc565b611878614011565b60008281526101cc60205260409020546001600160a01b031661189b8382614216565b506118a5836142aa565b6101c854604080516001600160a01b038086168252909216602083015281018490527ffbabfabc293b9daf3d9f8a42d485f10715027db90fd73abbe4ae4b4424decd049060600160405180910390a1505050565b611901613cdc565b61138d61434a565b6001600160a01b0381166000908152610164602052604090205461197e5760405162461bcd60e51b815260206004820152602660248201527f5061796d656e7453706c69747465723a206163636f756e7420686173206e6f2060448201526573686172657360d01b606482015260840161128b565b600061198a8383612ac2565b9050806000036119f05760405162461bcd60e51b815260206004820152602b60248201527f5061796d656e7453706c69747465723a206163636f756e74206973206e6f742060448201526a191d59481c185e5b595b9d60aa1b606482015260840161128b565b6001600160a01b0383166000908152610167602052604081208054839290611a19908490615a7f565b90915550506001600160a01b03808416600090815261016860209081526040808320938616835292905220805482019055611a55838383614383565b604080516001600160a01b038481168252602082018490528516917f3be5b7a71e84ed12875d241991c70855ac5817d847039e17a9d895c1ceb0f18a910160405180910390a2505050565b611aa8614011565b6101c9919091556101c680546001600160a01b039384166001600160a01b0319918216179091556101c88054929093169116179055565b611ae7613cdc565b6101ce55565b6001600160a01b037f0000000000000000000000000000000000000000000000000000000000000000163003611b7a5760405162461bcd60e51b815260206004820152602c60248201527f46756e6374696f6e206d7573742062652063616c6c6564207468726f7567682060448201526b19195b1959d85d1958d85b1b60a21b606482015260840161128b565b7f00000000000000000000000000000000000000000000000000000000000000006001600160a01b0316611bd57f360894a13ba1a3210667c828492db98dca3e2076cc3735a920a3ca505d382bbc546001600160a01b031690565b6001600160a01b031614611c405760405162461bcd60e51b815260206004820152602c60248201527f46756e6374696f6e206d7573742062652063616c6c6564207468726f7567682060448201526b6163746976652070726f787960a01b606482015260840161128b565b611c498261406e565b6114d382826001614076565b611c5d614011565b60008181526101cc602052604090205433906001600160a01b0316808214611cff57611c88816143ee565b611c91826143ee565b60405162461bcd60e51b815260206004820152603260248201527f636c61696d206d7573742062652066726f6d20636c61696d616e74732061646460448201527f726573732d2d20646973616c6c6f7765642e0000000000000000000000000000606482015260840161128b565b611d3d6040518060400160405280601781526020017f2d2d4e46542d2d20437469642c207468656e207573657200000000000000000081525061444f565b611d46836144ab565b611d4f826143ee565b6000611d5b8484614216565b905080611dd05760405162461bcd60e51b815260206004820152602f60248201527f4661696c656420746f2073656e64204e46542e20436865636b20436c61696d6160448201527f6e7420546f6b656e49642073656e740000000000000000000000000000000000606482015260840161128b565b611dd9846142aa565b6101c854604080516001600160a01b038087168252909216602083015281018590527ffbabfabc293b9daf3d9f8a42d485f10715027db90fd73abbe4ae4b4424decd04906060015b60405180910390a150505050565b6000306001600160a01b037f00000000000000000000000000000000000000000000000000000000000000001614611ecf5760405162461bcd60e51b815260206004820152603860248201527f555550535570677261646561626c653a206d757374206e6f742062652063616c60448201527f6c6564207468726f7567682064656c656761746563616c6c0000000000000000606482015260840161128b565b507f360894a13ba1a3210667c828492db98dca3e2076cc3735a920a3ca505d382bbc90565b60606101cb805480602002602001604051908101604052809291908181526020016000905b82821015611f81576000848152602090819020604080516080810182526003860290920180548352600180820154848601526002909101546001600160a01b03811692840192909252600160a01b90910460ff16151560608301529083529092019101611f19565b50505050905090565b611f92613cdc565b61138d6000614509565b6001600160a01b038116600090815261012f6020526040812054610f83565b611fc3614011565b8082036120385760405162461bcd60e51b815260206004820152602360248201527f4173657875616c20726570726f64756374696f6e206973206e6f7420616c6c6f60448201527f7765640000000000000000000000000000000000000000000000000000000000606482015260840161128b565b60006120438261455c565b6101c8546040517f6352211e000000000000000000000000000000000000000000000000000000008152600481018690529192506000916001600160a01b0390911690636352211e90602401602060405180830381865afa1580156120ac573d6000803e3d6000fd5b505050506040513d601f19601f820116820180604052508101906120d09190615aa5565b90506001600160a01b03811630146121765760405162461bcd60e51b815260206004820152604160248201527f596f75206e65656420746f206c6973742f6465706f7369742074686520706c6160448201527f6e657420796f752061726520747279696e6720746f206272656564207769746860648201527f2e00000000000000000000000000000000000000000000000000000000000000608482015260a40161128b565b60008060005b6101cb5481101561222357866101cb828154811061219c5761219c61596b565b9060005260206000209060030201600001540361221b576101cb81815481106121c7576121c761596b565b906000526020600020906003020160020160009054906101000a90046001600160a01b031692506101cb81815481106122025761220261596b565b9060005260206000209060030201600001549150612223565b60010161217c565b506001600160a01b03821633146122a25760405162461bcd60e51b815260206004820152603260248201527f596f7520646f206e6f74206f776e2074686520706c616e657420796f7520617260448201527f6520747279696e6720746f2062726565642e0000000000000000000000000000606482015260840161128b565b600060646101ce54866122b59190615ac2565b6122bf9190615ad9565b905080856101c9546122d19190615a7f565b6122db9190615a7f565b3410156123505760405162461bcd60e51b815260206004820152603760248201527f496e73756666696369656e742066756e647320746f20636f766572205652462060448201527f636f737420616e6420707269636520616e64206665652e000000000000000000606482015260840161128b565b33600080805b6101cb548110156123fd57896101cb82815481106123765761237661596b565b906000526020600020906003020160000154036123f5576101cb81815481106123a1576123a161596b565b906000526020600020906003020160020160009054906101000a90046001600160a01b031692506101cb81815481106123dc576123dc61596b565b90600052602060002090600302016000015491506123fd565b600101612356565b506706f05b59d3b2000047101561247c5760405162461bcd60e51b815260206004820152603560248201527f436f6e74726163742068617320496e73756666696369656e742062616c616e6360448201527f652c20636f6e7461637420686174636865722068710000000000000000000000606482015260840161128b565b6040516000906001600160a01b038416908a156108fc02908b9084818181858888f193505050509050806124f25760405162461bcd60e51b815260206004820152601460248201527f4661696c656420746f2073656e64204574686572000000000000000000000000604482015260640161128b565b6101c6546101c9546040517f4e9e6a07000000000000000000000000000000000000000000000000000000008152600481018e9052602481018d9052600060448201526001600160a01b0390921691634e9e6a07919060640160206040518083038185885af1158015612569573d6000803e3d6000fd5b50505050506040513d601f19601f8201168201806040525081019061258e919061573a565b5060006040518060e00160405280866001600160a01b031681526020018d8152602001600015158152602001600015158152602001856001600160a01b03168152602001848152602001600081525090506101cd6000866001600160a01b03166001600160a01b0316815260200190815260200160002081908060018154018082558091505060019003906000526020600020906005020160009091909190915060008201518160000160006101000a8154816001600160a01b0302191690836001600160a01b031602179055506020820151816001015560408201518160020160006101000a81548160ff02191690831515021790555060608201518160020160016101000a81548160ff02191690831515021790555060808201518160020160026101000a8154816001600160a01b0302191690836001600160a01b0316021790555060a0820151816003015560c082015181600401555050846101cc60008e815260200190815260200160002060006101000a8154816001600160a01b0302191690836001600160a01b03160217905550858a6101c9546127329190615a7f565b61273c9190615a7f565b341115612808576000336001600160a01b0316878c6101c954346127609190615a92565b61276a9190615a92565b6127749190615a92565b604051600081818185875af1925050503d80600081146127b0576040519150601f19603f3d011682016040523d82523d6000602084013e6127b5565b606091505b50509050806128065760405162461bcd60e51b815260206004820152601d60248201527f4661696c656420746f20726566756e6420657863657373204574686572000000604482015260640161128b565b505b604080518d81526001600160a01b0387811660208301528183018e90528616606082015290517f8557df6951fbdd47fe9027516fc896be40f285ed55a6acac460352adbab730cd9181900360800190a1505050505050505050505050565b60006060806000806000606060fb546000801b148015612886575060fc54155b6128d25760405162461bcd60e51b815260206004820152601560248201527f4549503731323a20556e696e697469616c697a65640000000000000000000000604482015260640161128b565b6128da6145fd565b6128e261460c565b604080516000808252602082019092527f0f000000000000000000000000000000000000000000000000000000000000009b939a50919850469750309650945092509050565b6101ca602052816000526040600020818154811061294557600080fd5b60009182526020909120600390910201805460018201546002909201549093509091506001600160a01b03811690600160a01b900460ff1684565b600061016682815481106129965761299661596b565b6000918252602090912001546001600160a01b031692915050565b606060cd8054610eec90615706565b6000806129cd6101635490565b6129d79047615a7f565b9050612a0383826129fe866001600160a01b03166000908152610165602052604090205490565b61461b565b9392505050565b33600081815260ca602090815260408083206001600160a01b038716845290915281205490919083811015612aa75760405162461bcd60e51b815260206004820152602560248201527f45524332303a2064656372656173656420616c6c6f77616e63652062656c6f7760448201527f207a65726f000000000000000000000000000000000000000000000000000000606482015260840161128b565b61148a82868684036135cc565b600033610f7d818585613e1d565b6001600160a01b0382166000908152610167602052604081205481906040517f70a082310000000000000000000000000000000000000000000000000000000081523060048201526001600160a01b038616906370a0823190602401602060405180830381865afa158015612b3b573d6000803e3d6000fd5b505050506040513d601f19601f82011682018060405250810190612b5f919061573a565b612b699190615a7f565b6001600160a01b0380861660009081526101686020908152604080832093881683529290522054909150611212908490839061461b565b600054610100900460ff1615808015612bc05750600054600160ff909116105b80612bda5750303b158015612bda575060005460ff166001145b612c4c5760405162461bcd60e51b815260206004820152602e60248201527f496e697469616c697a61626c653a20636f6e747261637420697320616c72656160448201527f647920696e697469616c697a6564000000000000000000000000000000000000606482015260840161128b565b6000805460ff191660011790558015612c6f576000805461ff0019166101001790555b612c7761465b565b612c7f6146ce565b612c87614741565b612c908261337c565b80156114d3576000805461ff0019169055604051600181527f7f26b83ff96e1f2b6a682f133852f6798a09c465da95921460cefb384740249890602001611381565b612cda613cdc565b612ce2614011565b6101c955565b612cf0614011565b6101cb548210612d425760405162461bcd60e51b815260206004820152601360248201527f496e646578206f7574206f6620626f756e647300000000000000000000000000604482015260640161128b565b600033905060006101cb8481548110612d5d57612d5d61596b565b6000918252602091829020604080516080810182526003909302909101805483526001810154938301939093526002909201546001600160a01b03811692820183905260ff600160a01b909104161515606082015291503314612dbf57600080fd5b6040518060800160405280826000015181526020016000815260200182604001516001600160a01b03168152602001600015158152506101cb8581548110612e0957612e0961596b565b60009182526020808320845160039093020191825583810151600180840191909155604080860151600290940180546060909701511515600160a01b0274ffffffffffffffffffffffffffffffffffffffffff199097166001600160a01b0390951694909417959095179092553383526101ca905291902080549091612e8e91615a92565b81548110612e9e57612e9e61596b565b90600052602060002090600302016101ca6000336001600160a01b03166001600160a01b031681526020019081526020016000208581548110612ee357612ee361596b565b60009182526020808320845460039093020191825560018085015490830155600293840180549490920180546001600160a01b031981166001600160a01b039096169586178255925460ff600160a01b918290041615150274ffffffffffffffffffffffffffffffffffffffffff19909316909417919091179092553381526101ca90915260409020805480612f7b57612f7b615afb565b6000828152602081206003600019909301928302018181556001810191909155600201805474ffffffffffffffffffffffffffffffffffffffffff191690559055612fc68383614216565b506101c8548151604080516001600160a01b03808716825290931660208401528201527f0ece05e698e9e143fb75b2ad0aba7f141238c27b6d3e9728898183ee0d68498b90606001611e21565b61301b613cdc565b613023614011565b6101c780546001600160a01b0319166001600160a01b0392909216919091179055565b834211156130965760405162461bcd60e51b815260206004820152601d60248201527f45524332305065726d69743a206578706972656420646561646c696e65000000604482015260640161128b565b60007f6e71edae12b1b97f4d1f60370fef10105fa2faae0126114a169c64845d6126c98888886130c58c6147ac565b6040805160208101969096526001600160a01b0394851690860152929091166060840152608083015260a082015260c0810186905260e0016040516020818303038152906040528051906020012090506000613120826147d3565b905060006131308287878761481b565b9050896001600160a01b0316816001600160a01b0316146131935760405162461bcd60e51b815260206004820152601e60248201527f45524332305065726d69743a20696e76616c6964207369676e61747572650000604482015260640161128b565b61319e8a8a8a6135cc565b50505050505050505050565b6001600160a01b03811660009081526101cd60209081526040808320805482518185028101850190935280835260609492939192909184015b8282101561326f5760008481526020908190206040805160e0810182526005860290920180546001600160a01b03908116845260018083015485870152600283015460ff80821615159587019590955261010081049094161515606086015262010000909304166080840152600381015460a08401526004015460c083015290835290920191016131e3565b505050509050919050565b6101c8546040517fe985e9c50000000000000000000000000000000000000000000000000000000081526001600160a01b0384811660048301528381166024830152600092169063e985e9c590604401602060405180830381865afa1580156132e7573d6000803e3d6000fd5b505050506040513d601f19601f82011682018060405250810190612a039190615b11565b6101cd602052816000526040600020818154811061332857600080fd5b6000918252602090912060059091020180546001820154600283015460038401546004909401546001600160a01b03938416965091945060ff80821694610100830490911693620100009092049091169187565b613384613cdc565b6001600160a01b0381166134005760405162461bcd60e51b815260206004820152602660248201527f4f776e61626c653a206e6577206f776e657220697320746865207a65726f206160448201527f6464726573730000000000000000000000000000000000000000000000000000606482015260840161128b565b61182681614509565b6001600160a01b03821660009081526101cd60205260408120815b815481101561141857838282815481106134405761344061596b565b90600052602060002090600502016004015403613491578181815481106134695761346961596b565b906000526020600020906005020160020160019054906101000a900460ff1692505050610f83565b600101613424565b6134a1613cdc565b6101c8546040517f23b872dd0000000000000000000000000000000000000000000000000000000081523060048201526001600160a01b03838116602483015260448201859052909116906323b872dd90606401600060405180830381600087803b15801561350f57600080fd5b505af1158015613523573d6000803e3d6000fd5b505050505050565b6001600160a01b03811660009081526101ca60209081526040808320805482518185028101850190935280835260609492939192909184015b8282101561326f576000848152602090819020604080516080810182526003860290920180548352600180820154848601526002909101546001600160a01b03811692840192909252600160a01b90910460ff16151560608301529083529092019101613564565b6001600160a01b0383166136475760405162461bcd60e51b8152602060048201526024808201527f45524332303a20617070726f76652066726f6d20746865207a65726f2061646460448201527f7265737300000000000000000000000000000000000000000000000000000000606482015260840161128b565b6001600160a01b0382166136c35760405162461bcd60e51b815260206004820152602260248201527f45524332303a20617070726f766520746f20746865207a65726f20616464726560448201527f7373000000000000000000000000000000000000000000000000000000000000606482015260840161128b565b6001600160a01b03838116600081815260ca602090815260408083209487168084529482529182902085905590518481527f8c5be1e5ebec7d5bd14f71427d1e84f3dd0314c0f7b2291e5b200ac8c7c3b925910160405180910390a3505050565b604080516080808201835285825260208083018681526001600160a01b03868116858701818152600160608089018281526101cb8054808501825560009182528b5160039182027fe8bbfecd380c4167d6a1f763a233ec73e73f534b1970c4e1683f437ec23c1f4481019190915589517fe8bbfecd380c4167d6a1f763a233ec73e73f534b1970c4e1683f437ec23c1f4582015586517fe8bbfecd380c4167d6a1f763a233ec73e73f534b1970c4e1683f437ec23c1f46909101805485511515600160a01b90810274ffffffffffffffffffffffffffffffffffffffffff19928316948d1694909417939093179091559783526101ca8b528d832080548088018255908452928b90208d5193909202909101918255975193810193909355925160029092018054935115159096029290931690841617179092556101c854865133815291169281019290925293810187905292830185905290917fb30319a217488a3ed441c348e935a48d16091e33109bab0c79a353b9797528839101611e21565b81516020808401516001600160a01b03831660009081526101cd909252604090912054156139fd5760005b6001600160a01b03831660009081526101cd60205260409020548110156139f7576001600160a01b0383811660009081526101cd60205260409020805491841691839081106139225761392261596b565b60009182526020909120600590910201600201546201000090046001600160a01b0316036139ef576001600160a01b03831660009081526101cd60205260409020805460019190839081106139795761397961596b565b906000526020600020906005020160020160016101000a81548160ff021916908315150217905550836101cd6000856001600160a01b03166001600160a01b0316815260200190815260200160002082815481106139d9576139d961596b565b9060005260206000209060050201600401819055505b6001016138d1565b50613bb8565b6020808501516001600160a01b031660009081526101cd909152604090205415613b4a5760005b6001600160a01b03821660009081526101cd60205260409020548110156139f7576001600160a01b0382811660009081526101cd6020526040902080549185169183908110613a7557613a7561596b565b60009182526020909120600590910201600201546201000090046001600160a01b031603613b42576001600160a01b03821660009081526101cd6020526040902080546001919083908110613acc57613acc61596b565b906000526020600020906005020160020160016101000a81548160ff021916908315150217905550836101cd6000846001600160a01b03166001600160a01b031681526020019081526020016000208281548110613b2c57613b2c61596b565b9060005260206000209060050201600401819055505b600101613a24565b60405162461bcd60e51b815260206004820152602560248201527f706c616e65742073656e7420657272616e746c792c206e6f206f6e6520746f2060448201527f636c61696d000000000000000000000000000000000000000000000000000000606482015260840161128b565b50505050565b80471015613c0e5760405162461bcd60e51b815260206004820152601d60248201527f416464726573733a20696e73756666696369656e742062616c616e6365000000604482015260640161128b565b6000826001600160a01b03168260405160006040518083038185875af1925050503d8060008114613c5b576040519150601f19603f3d011682016040523d82523d6000602084013e613c60565b606091505b5050905080613cd75760405162461bcd60e51b815260206004820152603a60248201527f416464726573733a20756e61626c6520746f2073656e642076616c75652c207260448201527f6563697069656e74206d61792068617665207265766572746564000000000000606482015260840161128b565b505050565b610194546001600160a01b0316331461138d5760405162461bcd60e51b815260206004820181905260248201527f4f776e61626c653a2063616c6c6572206973206e6f7420746865206f776e6572604482015260640161128b565b613d3f614011565b6033805460ff191660011790557f62e78cea01bee320cd4e420270b5ea74000d11b0c9f74754ebdbfc544b05a258613d743390565b6040516001600160a01b03909116815260200160405180910390a1565b6001600160a01b03838116600090815260ca60209081526040808320938616835292905220546000198114613bb85781811015613e105760405162461bcd60e51b815260206004820152601d60248201527f45524332303a20696e73756666696369656e7420616c6c6f77616e6365000000604482015260640161128b565b613bb884848484036135cc565b6001600160a01b038316613e995760405162461bcd60e51b815260206004820152602560248201527f45524332303a207472616e736665722066726f6d20746865207a65726f20616460448201527f6472657373000000000000000000000000000000000000000000000000000000606482015260840161128b565b6001600160a01b038216613f155760405162461bcd60e51b815260206004820152602360248201527f45524332303a207472616e7366657220746f20746865207a65726f206164647260448201527f6573730000000000000000000000000000000000000000000000000000000000606482015260840161128b565b6001600160a01b038316600090815260c9602052604090205481811015613fa45760405162461bcd60e51b815260206004820152602660248201527f45524332303a207472616e7366657220616d6f756e742065786365656473206260448201527f616c616e63650000000000000000000000000000000000000000000000000000606482015260840161128b565b6001600160a01b03808516600081815260c9602052604080822086860390559286168082529083902080548601905591517fddf252ad1be2c89b69c2b068fc378daa952ba7f163c4a11628f55a4df523b3ef906140049086815260200190565b60405180910390a3613bb8565b60335460ff161561138d5760405162461bcd60e51b815260206004820152601060248201527f5061757361626c653a2070617573656400000000000000000000000000000000604482015260640161128b565b60006116a9614843565b611826613cdc565b7f4910fdfa16fed3260ed0e7147f7cc6da11a60208b5b9406d12a635614ffd91435460ff16156140a957613cd7836148b7565b826001600160a01b03166352d1902d6040518163ffffffff1660e01b8152600401602060405180830381865afa925050508015614103575060408051601f3d908101601f191682019092526141009181019061573a565b60015b6141755760405162461bcd60e51b815260206004820152602e60248201527f45524331393637557067726164653a206e657720696d706c656d656e7461746960448201527f6f6e206973206e6f742055555053000000000000000000000000000000000000606482015260840161128b565b7f360894a13ba1a3210667c828492db98dca3e2076cc3735a920a3ca505d382bbc811461420a5760405162461bcd60e51b815260206004820152602960248201527f45524331393637557067726164653a20756e737570706f727465642070726f7860448201527f6961626c65555549440000000000000000000000000000000000000000000000606482015260840161128b565b50613cd7838383614975565b6101c8546040517f42842e0e0000000000000000000000000000000000000000000000000000000081523060048201526001600160a01b0383811660248301526044820185905260009216906342842e0e90606401600060405180830381600087803b15801561428557600080fd5b505af1925050508015614296575060015b6142a257506000610f83565b506001610f83565b60008181526101cc60209081526040808320546001600160a01b03168084526101cd909252822090915b8154811015613bb857838282815481106142f0576142f061596b565b9060005260206000209060050201600401540361434257600182828154811061431b5761431b61596b565b60009182526020909120600590910201600201805460ff1916911515919091179055613bb8565b6001016142d4565b61435261499a565b6033805460ff191690557f5db9ee0a495bf2e6ff9c91a7834c1ba4fdd244a5e8aa4e537bd38aeae4b073aa33613d74565b604080516001600160a01b038416602482015260448082018490528251808303909101815260649091019091526020810180516001600160e01b03167fa9059cbb00000000000000000000000000000000000000000000000000000000179052613cd79084906149ec565b6040516001600160a01b03821660248201526118269060440160408051601f198184030181529190526020810180516001600160e01b03167f2c2ecbc200000000000000000000000000000000000000000000000000000000179052614ad4565b611826816040516024016144639190615168565b60408051601f198184030181529190526020810180516001600160e01b03167f41304fac00000000000000000000000000000000000000000000000000000000179052614ad4565b611826816040516024016144c191815260200190565b60408051601f198184030181529190526020810180516001600160e01b03167ff82c50f100000000000000000000000000000000000000000000000000000000179052614ad4565b61019480546001600160a01b038381166001600160a01b0319831681179093556040519116919082907f8be0079c531659141344cd1fd0a4f28419497f9722a3daafe3b4186f6b6457e090600090a35050565b6000614566614011565b60005b6101cb548110156145f657826101cb82815481106145895761458961596b565b906000526020600020906003020160000154036145ce576101cb81815481106145b4576145b461596b565b906000526020600020906003020160010154915050919050565b6101cb546145de90600190615a92565b81036145ee575060001992915050565b600101614569565b505b919050565b606060fd8054610eec90615706565b606060fe8054610eec90615706565b610162546001600160a01b03841660009081526101646020526040812054909183916146479086615ac2565b6146519190615ad9565b6112129190615a92565b600054610100900460ff166146c65760405162461bcd60e51b815260206004820152602b60248201527f496e697469616c697a61626c653a20636f6e7472616374206973206e6f74206960448201526a6e697469616c697a696e6760a81b606482015260840161128b565b61138d614add565b600054610100900460ff166147395760405162461bcd60e51b815260206004820152602b60248201527f496e697469616c697a61626c653a20636f6e7472616374206973206e6f74206960448201526a6e697469616c697a696e6760a81b606482015260840161128b565b61138d614b51565b600054610100900460ff1661138d5760405162461bcd60e51b815260206004820152602b60248201527f496e697469616c697a61626c653a20636f6e7472616374206973206e6f74206960448201526a6e697469616c697a696e6760a81b606482015260840161128b565b6001600160a01b038116600090815261012f602052604090208054600181018255906145f6565b6000610f836147e0614064565b836040517f19010000000000000000000000000000000000000000000000000000000000008152600281019290925260228201526042902090565b600080600061482c87878787614bc8565b9150915061483981614c8c565b5095945050505050565b60007f8b73c3c69bb8fe3d512ecc4cf759cc79239f7b179b0ffacaa9a75d522b39400f61486e614df1565b614876614e4a565b60408051602081019490945283019190915260608201524660808201523060a082015260c00160405160208183030381529060405280519060200120905090565b6001600160a01b0381163b6149345760405162461bcd60e51b815260206004820152602d60248201527f455243313936373a206e657720696d706c656d656e746174696f6e206973206e60448201527f6f74206120636f6e747261637400000000000000000000000000000000000000606482015260840161128b565b7f360894a13ba1a3210667c828492db98dca3e2076cc3735a920a3ca505d382bbc80546001600160a01b0319166001600160a01b0392909216919091179055565b61497e83614e7b565b60008251118061498b5750805b15613cd757613bb88383614ebb565b60335460ff1661138d5760405162461bcd60e51b815260206004820152601460248201527f5061757361626c653a206e6f7420706175736564000000000000000000000000604482015260640161128b565b6000614a41826040518060400160405280602081526020017f5361666545524332303a206c6f772d6c6576656c2063616c6c206661696c6564815250856001600160a01b0316614ee09092919063ffffffff16565b9050805160001480614a62575080806020019051810190614a629190615b11565b613cd75760405162461bcd60e51b815260206004820152602a60248201527f5361666545524332303a204552433230206f7065726174696f6e20646964206e60448201527f6f74207375636365656400000000000000000000000000000000000000000000606482015260840161128b565b61182681614eef565b600054610100900460ff16614b485760405162461bcd60e51b815260206004820152602b60248201527f496e697469616c697a61626c653a20636f6e7472616374206973206e6f74206960448201526a6e697469616c697a696e6760a81b606482015260840161128b565b61138d33614509565b600054610100900460ff16614bbc5760405162461bcd60e51b815260206004820152602b60248201527f496e697469616c697a61626c653a20636f6e7472616374206973206e6f74206960448201526a6e697469616c697a696e6760a81b606482015260840161128b565b6033805460ff19169055565b6000807f7fffffffffffffffffffffffffffffff5d576e7357a4501ddfe92f46681b20a0831115614bff5750600090506003614c83565b6040805160008082526020820180845289905260ff881692820192909252606081018690526080810185905260019060a0016020604051602081039080840390855afa158015614c53573d6000803e3d6000fd5b5050604051601f1901519150506001600160a01b038116614c7c57600060019250925050614c83565b9150600090505b94509492505050565b6000816004811115614ca057614ca0615b2c565b03614ca85750565b6001816004811115614cbc57614cbc615b2c565b03614d095760405162461bcd60e51b815260206004820152601860248201527f45434453413a20696e76616c6964207369676e61747572650000000000000000604482015260640161128b565b6002816004811115614d1d57614d1d615b2c565b03614d6a5760405162461bcd60e51b815260206004820152601f60248201527f45434453413a20696e76616c6964207369676e6174757265206c656e67746800604482015260640161128b565b6003816004811115614d7e57614d7e615b2c565b036118265760405162461bcd60e51b815260206004820152602260248201527f45434453413a20696e76616c6964207369676e6174757265202773272076616c60448201527f7565000000000000000000000000000000000000000000000000000000000000606482015260840161128b565b600080614dfc6145fd565b805190915015614e13578051602090910120919050565b60fb548015614e225792915050565b7fc5d2460186f7233c927e7db2dcc703c0e500b653ca82273b7bfad8045d85a4709250505090565b600080614e5561460c565b805190915015614e6c578051602090910120919050565b60fc548015614e225792915050565b614e84816148b7565b6040516001600160a01b038216907fbc7cd75a20ee27fd9adebab32041f755214dbc6bffa90cc0225b39da2e5c2d3b90600090a250565b6060612a038383604051806060016040528060278152602001615b5f60279139614f10565b60606112128484600085614f88565b60006a636f6e736f6c652e6c6f679050600080835160208501845afa505050565b6060600080856001600160a01b031685604051614f2d9190615b42565b600060405180830381855af49150503d8060008114614f68576040519150601f19603f3d011682016040523d82523d6000602084013e614f6d565b606091505b5091509150614f7e8683838761507a565b9695505050505050565b6060824710156150005760405162461bcd60e51b815260206004820152602660248201527f416464726573733a20696e73756666696369656e742062616c616e636520666f60448201527f722063616c6c0000000000000000000000000000000000000000000000000000606482015260840161128b565b600080866001600160a01b0316858760405161501c9190615b42565b60006040518083038185875af1925050503d8060008114615059576040519150601f19603f3d011682016040523d82523d6000602084013e61505e565b606091505b509150915061506f8783838761507a565b979650505050505050565b606083156150e95782516000036150e2576001600160a01b0385163b6150e25760405162461bcd60e51b815260206004820152601d60248201527f416464726573733a2063616c6c20746f206e6f6e2d636f6e7472616374000000604482015260640161128b565b5081611212565b61121283838151156150fe5781518083602001fd5b8060405162461bcd60e51b815260040161128b9190615168565b60005b8381101561513357818101518382015260200161511b565b50506000910152565b60008151808452615154816020860160208601615118565b601f01601f19169290920160200192915050565b602081526000612a03602083018461513c565b6001600160a01b038116811461182657600080fd5b600080604083850312156151a357600080fd5b82356151ae8161517b565b946020939093013593505050565b600080600080600060a086880312156151d457600080fd5b85356151df8161517b565b94506020860135935060408601356151f68161517b565b94979396509394606081013594506080013592915050565b634e487b7160e01b600052604160045260246000fd5b604051610160810167ffffffffffffffff811182821017156152485761524861520e565b60405290565b604051601f8201601f1916810167ffffffffffffffff811182821017156152775761527761520e565b604052919050565b600082601f83011261529057600080fd5b813567ffffffffffffffff8111156152aa576152aa61520e565b6152bd601f8201601f191660200161524e565b8181528460208386010111156152d257600080fd5b816020850160208301376000918101602001919091529392505050565b6000806000806080858703121561530557600080fd5b84356153108161517b565b935060208501356153208161517b565b925060408501359150606085013567ffffffffffffffff81111561534357600080fd5b61534f8782880161527f565b91505092959194509250565b60006020828403121561536d57600080fd5b8135612a038161517b565b60008060006060848603121561538d57600080fd5b83356153988161517b565b925060208401356153a88161517b565b929592945050506040919091013590565b600080604083850312156153cc57600080fd5b50508035926020909101359150565b602080825282518282018190526000919060409081850190868401855b8281101561543d578151805185528681015187860152858101516001600160a01b031686860152606090810151151590850152608090930192908501906001016153f8565b5091979650505050505050565b60006020828403121561545c57600080fd5b5035919050565b6000806040838503121561547657600080fd5b8235915060208301356154888161517b565b809150509250929050565b600080604083850312156154a657600080fd5b82356154b18161517b565b915060208301356154888161517b565b6000806000606084860312156154d657600080fd5b83356154e18161517b565b92506020840135915060408401356154f88161517b565b809150509250925092565b6000806040838503121561551657600080fd5b82356155218161517b565b9150602083013567ffffffffffffffff81111561553d57600080fd5b6155498582860161527f565b9150509250929050565b7fff00000000000000000000000000000000000000000000000000000000000000881681526000602060e0602084015261559060e084018a61513c565b83810360408501526155a2818a61513c565b606085018990526001600160a01b038816608086015260a0850187905284810360c08601528551808252602080880193509091019060005b818110156155f6578351835292840192918401916001016155da565b50909c9b505050505050505050505050565b600080600080600080600060e0888a03121561562357600080fd5b873561562e8161517b565b9650602088013561563e8161517b565b95506040880135945060608801359350608088013560ff8116811461566257600080fd5b9699959850939692959460a0840135945060c09093013592915050565b602080825282518282018190526000919060409081850190868401855b8281101561543d57815180516001600160a01b0390811686528782015188870152868201511515878701526060808301511515908701526080808301519091169086015260a0808201519086015260c0908101519085015260e0909301929085019060010161569c565b600181811c9082168061571a57607f821691505b6020821081036145f657634e487b7160e01b600052602260045260246000fd5b60006020828403121561574c57600080fd5b5051919050565b60006001600160a01b03808716835280861660208401525083604083015260a0606083015261578560a083018461513c565b8281036080840152600e81527f6c697374696e6720706c616e657400000000000000000000000000000000000060208201526040810191505095945050505050565b600082601f8301126157d857600080fd5b8151602067ffffffffffffffff8211156157f4576157f461520e565b8160051b61580382820161524e565b928352848101820192828101908785111561581d57600080fd5b83870192505b8483101561506f57825182529183019190830190615823565b805180151581146145f857600080fd5b6000806040838503121561585f57600080fd5b825167ffffffffffffffff8082111561587757600080fd5b90840190610160828703121561588c57600080fd5b615894615224565b825181526020830151602082015260408301516040820152606083015160608201526080830151608082015260a083015160a082015260c083015160c082015260e083015160e082015261010080840151838111156158f257600080fd5b6158fe898287016157c7565b828401525050610120808401518381111561591857600080fd5b615924898287016157c7565b828401525050610140808401518381111561593e57600080fd5b61594a898287016157c7565b8284015250508094505050506159626020840161583c565b90509250929050565b634e487b7160e01b600052603260045260246000fd5b60006001600160a01b03808716835280861660208401525083604083015260a060608301526159b360a083018461513c565b8281036080840152600a81527f6e657720706c616e65740000000000000000000000000000000000000000000060208201526040810191505095945050505050565b60006001600160a01b03808716835280861660208401525083604083015260a06060830152615a2760a083018461513c565b8281036080840152600d81527f756e63617465676f72697a65640000000000000000000000000000000000000060208201526040810191505095945050505050565b634e487b7160e01b600052601160045260246000fd5b80820180821115610f8357610f83615a69565b81810381811115610f8357610f83615a69565b600060208284031215615ab757600080fd5b8151612a038161517b565b8082028115828204841417610f8357610f83615a69565b600082615af657634e487b7160e01b600052601260045260246000fd5b500490565b634e487b7160e01b600052603160045260246000fd5b600060208284031215615b2357600080fd5b612a038261583c565b634e487b7160e01b600052602160045260246000fd5b60008251615b54818460208701615118565b919091019291505056fe416464726573733a206c6f772d6c6576656c2064656c65676174652063616c6c206661696c6564a26469706673582212201faee6a4d8a988dfb49dce4ee77827d0d4dcd86417b85c06a6f4833ca1090e3764736f6c63430008180033",
  "linkReferences": {},
  "deployedLinkReferences": {}
}