{
  "_format": "hh-sol-artifact-1",
  "contractName": "InternalTests",
  "sourceName": "contracts/test/InternalTests.sol",
  "abi": [
    {
      "inputs": [],
      "stateMutability": "nonpayable",
      "type": "constructor"
    },
    {
      "inputs": [],
      "name": "Unauthorized",
      "type": "error"
    },
    {
      "anonymous": false,
      "inputs": [
        {
          "indexed": false,
          "internalType": "address",
          "name": "previousAdmin",
          "type": "address"
        },
        {
          "indexed": false,
          "internalType": "address",
          "name": "newAdmin",
          "type": "address"
        }
      ],
      "name": "AdminChanged",
      "type": "event"
    },
    {
      "anonymous": false,
      "inputs": [
        {
          "indexed": true,
          "internalType": "address",
          "name": "owner",
          "type": "address"
        },
        {
          "indexed": true,
          "internalType": "address",
          "name": "spender",
          "type": "address"
        },
        {
          "indexed": false,
          "internalType": "uint256",
          "name": "value",
          "type": "uint256"
        }
      ],
      "name": "Approval",
      "type": "event"
    },
    {
      "anonymous": false,
      "inputs": [
        {
          "indexed": true,
          "internalType": "address",
          "name": "beacon",
          "type": "address"
        }
      ],
      "name": "BeaconUpgraded",
      "type": "event"
    },
    {
      "anonymous": false,
      "inputs": [
        {
          "indexed": false,
          "internalType": "address",
          "name": "sentToUser",
          "type": "address"
        },
        {
          "indexed": false,
          "internalType": "address",
          "name": "token",
          "type": "address"
        },
        {
          "indexed": false,
          "internalType": "uint256",
          "name": "tokenId",
          "type": "uint256"
        }
      ],
      "name": "DeClaimedAPlanet",
      "type": "event"
    },
    {
      "anonymous": false,
      "inputs": [
        {
          "indexed": false,
          "internalType": "address",
          "name": "sentToUser",
          "type": "address"
        },
        {
          "indexed": false,
          "internalType": "address",
          "name": "token",
          "type": "address"
        },
        {
          "indexed": false,
          "internalType": "uint256",
          "name": "tokenId",
          "type": "uint256"
        }
      ],
      "name": "DeListedAPlanet",
      "type": "event"
    },
    {
      "anonymous": false,
      "inputs": [],
      "name": "EIP712DomainChanged",
      "type": "event"
    },
    {
      "anonymous": false,
      "inputs": [
        {
          "indexed": true,
          "internalType": "contract IERC20Upgradeable",
          "name": "token",
          "type": "address"
        },
        {
          "indexed": false,
          "internalType": "address",
          "name": "to",
          "type": "address"
        },
        {
          "indexed": false,
          "internalType": "uint256",
          "name": "amount",
          "type": "uint256"
        }
      ],
      "name": "ERC20PaymentReleased",
      "type": "event"
    },
    {
      "anonymous": false,
      "inputs": [
        {
          "indexed": false,
          "internalType": "uint8",
          "name": "version",
          "type": "uint8"
        }
      ],
      "name": "Initialized",
      "type": "event"
    },
    {
      "anonymous": false,
      "inputs": [
        {
          "indexed": false,
          "internalType": "address",
          "name": "sentFromUser",
          "type": "address"
        },
        {
          "indexed": false,
          "internalType": "address",
          "name": "token",
          "type": "address"
        },
        {
          "indexed": false,
          "internalType": "uint256",
          "name": "tokenId",
          "type": "uint256"
        },
        {
          "indexed": false,
          "internalType": "uint256",
          "name": "price",
          "type": "uint256"
        }
      ],
      "name": "ListedAPlanet",
      "type": "event"
    },
    {
      "anonymous": false,
      "inputs": [
        {
          "indexed": false,
          "internalType": "address",
          "name": "operator",
          "type": "address"
        },
        {
          "indexed": false,
          "internalType": "address",
          "name": "from",
          "type": "address"
        },
        {
          "indexed": false,
          "internalType": "uint256",
          "name": "tokenId",
          "type": "uint256"
        },
        {
          "indexed": false,
          "internalType": "bytes",
          "name": "data",
          "type": "bytes"
        },
        {
          "indexed": false,
          "internalType": "string",
          "name": "typeOfReceival",
          "type": "string"
        }
      ],
      "name": "NftReceived",
      "type": "event"
    },
    {
      "anonymous": false,
      "inputs": [
        {
          "indexed": true,
          "internalType": "address",
          "name": "previousOwner",
          "type": "address"
        },
        {
          "indexed": true,
          "internalType": "address",
          "name": "newOwner",
          "type": "address"
        }
      ],
      "name": "OwnershipTransferred",
      "type": "event"
    },
    {
      "anonymous": false,
      "inputs": [
        {
          "indexed": false,
          "internalType": "address",
          "name": "account",
          "type": "address"
        }
      ],
      "name": "Paused",
      "type": "event"
    },
    {
      "anonymous": false,
      "inputs": [
        {
          "indexed": false,
          "internalType": "address",
          "name": "account",
          "type": "address"
        },
        {
          "indexed": false,
          "internalType": "uint256",
          "name": "shares",
          "type": "uint256"
        }
      ],
      "name": "PayeeAdded",
      "type": "event"
    },
    {
      "anonymous": false,
      "inputs": [
        {
          "indexed": false,
          "internalType": "address",
          "name": "from",
          "type": "address"
        },
        {
          "indexed": false,
          "internalType": "uint256",
          "name": "amount",
          "type": "uint256"
        }
      ],
      "name": "PaymentReceived",
      "type": "event"
    },
    {
      "anonymous": false,
      "inputs": [
        {
          "indexed": false,
          "internalType": "address",
          "name": "to",
          "type": "address"
        },
        {
          "indexed": false,
          "internalType": "uint256",
          "name": "amount",
          "type": "uint256"
        }
      ],
      "name": "PaymentReleased",
      "type": "event"
    },
    {
      "anonymous": false,
      "inputs": [
        {
          "indexed": false,
          "internalType": "uint256",
          "name": "planetAsking",
          "type": "uint256"
        },
        {
          "indexed": false,
          "internalType": "address",
          "name": "askingUser",
          "type": "address"
        },
        {
          "indexed": false,
          "internalType": "uint256",
          "name": "planetJoining",
          "type": "uint256"
        },
        {
          "indexed": false,
          "internalType": "address",
          "name": "joiningUser",
          "type": "address"
        }
      ],
      "name": "PlanetsConjoining",
      "type": "event"
    },
    {
      "anonymous": false,
      "inputs": [
        {
          "indexed": true,
          "internalType": "address",
          "name": "from",
          "type": "address"
        },
        {
          "indexed": true,
          "internalType": "address",
          "name": "to",
          "type": "address"
        },
        {
          "indexed": false,
          "internalType": "uint256",
          "name": "value",
          "type": "uint256"
        }
      ],
      "name": "Transfer",
      "type": "event"
    },
    {
      "anonymous": false,
      "inputs": [
        {
          "indexed": false,
          "internalType": "address",
          "name": "account",
          "type": "address"
        }
      ],
      "name": "Unpaused",
      "type": "event"
    },
    {
      "anonymous": false,
      "inputs": [
        {
          "indexed": true,
          "internalType": "address",
          "name": "implementation",
          "type": "address"
        }
      ],
      "name": "Upgraded",
      "type": "event"
    },
    {
      "inputs": [],
      "name": "DOMAIN_SEPARATOR",
      "outputs": [
        {
          "internalType": "bytes32",
          "name": "",
          "type": "bytes32"
        }
      ],
      "stateMutability": "view",
      "type": "function"
    },
    {
      "inputs": [],
      "name": "_getBreedContract",
      "outputs": [
        {
          "internalType": "address",
          "name": "",
          "type": "address"
        }
      ],
      "stateMutability": "view",
      "type": "function"
    },
    {
      "inputs": [],
      "name": "_getNFTContract",
      "outputs": [
        {
          "internalType": "address",
          "name": "",
          "type": "address"
        }
      ],
      "stateMutability": "view",
      "type": "function"
    },
    {
      "inputs": [],
      "name": "_getVRFValue",
      "outputs": [
        {
          "internalType": "uint256",
          "name": "",
          "type": "uint256"
        }
      ],
      "stateMutability": "view",
      "type": "function"
    },
    {
      "inputs": [
        {
          "internalType": "address",
          "name": "owner",
          "type": "address"
        },
        {
          "internalType": "address",
          "name": "spender",
          "type": "address"
        }
      ],
      "name": "allowance",
      "outputs": [
        {
          "internalType": "uint256",
          "name": "",
          "type": "uint256"
        }
      ],
      "stateMutability": "view",
      "type": "function"
    },
    {
      "inputs": [
        {
          "internalType": "address",
          "name": "spender",
          "type": "address"
        },
        {
          "internalType": "uint256",
          "name": "amount",
          "type": "uint256"
        }
      ],
      "name": "approve",
      "outputs": [
        {
          "internalType": "bool",
          "name": "",
          "type": "bool"
        }
      ],
      "stateMutability": "nonpayable",
      "type": "function"
    },
    {
      "inputs": [
        {
          "internalType": "address",
          "name": "account",
          "type": "address"
        }
      ],
      "name": "balanceOf",
      "outputs": [
        {
          "internalType": "uint256",
          "name": "",
          "type": "uint256"
        }
      ],
      "stateMutability": "view",
      "type": "function"
    },
    {
      "inputs": [
        {
          "internalType": "uint256",
          "name": "newVRF",
          "type": "uint256"
        }
      ],
      "name": "changeVRFValue",
      "outputs": [],
      "stateMutability": "nonpayable",
      "type": "function"
    },
    {
      "inputs": [
        {
          "internalType": "address",
          "name": "owner",
          "type": "address"
        },
        {
          "internalType": "address",
          "name": "operator",
          "type": "address"
        }
      ],
      "name": "checkApprovalForAll",
      "outputs": [
        {
          "internalType": "bool",
          "name": "",
          "type": "bool"
        }
      ],
      "stateMutability": "view",
      "type": "function"
    },
    {
      "inputs": [
        {
          "internalType": "uint256",
          "name": "claimableTokenId",
          "type": "uint256"
        }
      ],
      "name": "claimPlanet",
      "outputs": [],
      "stateMutability": "nonpayable",
      "type": "function"
    },
    {
      "inputs": [
        {
          "internalType": "address",
          "name": "",
          "type": "address"
        },
        {
          "internalType": "uint256",
          "name": "",
          "type": "uint256"
        }
      ],
      "name": "claimablePlanets",
      "outputs": [
        {
          "internalType": "address",
          "name": "ownerParentAddress",
          "type": "address"
        },
        {
          "internalType": "uint256",
          "name": "ownerTokenId",
          "type": "uint256"
        },
        {
          "internalType": "bool",
          "name": "delivered",
          "type": "bool"
        },
        {
          "internalType": "address",
          "name": "otherParent",
          "type": "address"
        },
        {
          "internalType": "uint256",
          "name": "otherTokenId",
          "type": "uint256"
        },
        {
          "internalType": "uint256",
          "name": "claimsTokenId",
          "type": "uint256"
        }
      ],
      "stateMutability": "view",
      "type": "function"
    },
    {
      "inputs": [
        {
          "internalType": "uint256",
          "name": "",
          "type": "uint256"
        }
      ],
      "name": "claimableTokenIdToOwnerAddress",
      "outputs": [
        {
          "internalType": "address",
          "name": "",
          "type": "address"
        }
      ],
      "stateMutability": "view",
      "type": "function"
    },
    {
      "inputs": [
        {
          "internalType": "uint256",
          "name": "yourPlanet",
          "type": "uint256"
        },
        {
          "internalType": "uint256",
          "name": "withListedPlanet",
          "type": "uint256"
        }
      ],
      "name": "conjunct",
      "outputs": [],
      "stateMutability": "payable",
      "type": "function"
    },
    {
      "inputs": [
        {
          "internalType": "uint256",
          "name": "idIndex",
          "type": "uint256"
        },
        {
          "internalType": "uint256",
          "name": "tokenId",
          "type": "uint256"
        }
      ],
      "name": "deList",
      "outputs": [],
      "stateMutability": "nonpayable",
      "type": "function"
    },
    {
      "inputs": [],
      "name": "deListAllYourPlanets",
      "outputs": [],
      "stateMutability": "nonpayable",
      "type": "function"
    },
    {
      "inputs": [],
      "name": "decimals",
      "outputs": [
        {
          "internalType": "uint8",
          "name": "",
          "type": "uint8"
        }
      ],
      "stateMutability": "view",
      "type": "function"
    },
    {
      "inputs": [
        {
          "internalType": "address",
          "name": "spender",
          "type": "address"
        },
        {
          "internalType": "uint256",
          "name": "subtractedValue",
          "type": "uint256"
        }
      ],
      "name": "decreaseAllowance",
      "outputs": [
        {
          "internalType": "bool",
          "name": "",
          "type": "bool"
        }
      ],
      "stateMutability": "nonpayable",
      "type": "function"
    },
    {
      "inputs": [],
      "name": "eip712Domain",
      "outputs": [
        {
          "internalType": "bytes1",
          "name": "fields",
          "type": "bytes1"
        },
        {
          "internalType": "string",
          "name": "name",
          "type": "string"
        },
        {
          "internalType": "string",
          "name": "version",
          "type": "string"
        },
        {
          "internalType": "uint256",
          "name": "chainId",
          "type": "uint256"
        },
        {
          "internalType": "address",
          "name": "verifyingContract",
          "type": "address"
        },
        {
          "internalType": "bytes32",
          "name": "salt",
          "type": "bytes32"
        },
        {
          "internalType": "uint256[]",
          "name": "extensions",
          "type": "uint256[]"
        }
      ],
      "stateMutability": "view",
      "type": "function"
    },
    {
      "inputs": [],
      "name": "getAllPlanets",
      "outputs": [
        {
          "components": [
            {
              "internalType": "uint256",
              "name": "tokenId",
              "type": "uint256"
            },
            {
              "internalType": "uint256",
              "name": "price",
              "type": "uint256"
            },
            {
              "internalType": "address",
              "name": "ownerAddress",
              "type": "address"
            },
            {
              "internalType": "bool",
              "name": "active",
              "type": "bool"
            }
          ],
          "internalType": "struct ListedPlanet[]",
          "name": "",
          "type": "tuple[]"
        }
      ],
      "stateMutability": "view",
      "type": "function"
    },
    {
      "inputs": [
        {
          "internalType": "address",
          "name": "userAddr",
          "type": "address"
        }
      ],
      "name": "getClaimablePlanet",
      "outputs": [
        {
          "components": [
            {
              "internalType": "address",
              "name": "ownerParentAddress",
              "type": "address"
            },
            {
              "internalType": "uint256",
              "name": "ownerTokenId",
              "type": "uint256"
            },
            {
              "internalType": "bool",
              "name": "delivered",
              "type": "bool"
            },
            {
              "internalType": "address",
              "name": "otherParent",
              "type": "address"
            },
            {
              "internalType": "uint256",
              "name": "otherTokenId",
              "type": "uint256"
            },
            {
              "internalType": "uint256",
              "name": "claimsTokenId",
              "type": "uint256"
            }
          ],
          "internalType": "struct ClaimablePlanet[]",
          "name": "",
          "type": "tuple[]"
        }
      ],
      "stateMutability": "view",
      "type": "function"
    },
    {
      "inputs": [
        {
          "internalType": "uint256",
          "name": "claimableTokenId",
          "type": "uint256"
        }
      ],
      "name": "getClaimableTokenIdToOwnerAddress",
      "outputs": [
        {
          "internalType": "address",
          "name": "",
          "type": "address"
        }
      ],
      "stateMutability": "view",
      "type": "function"
    },
    {
      "inputs": [
        {
          "internalType": "uint256",
          "name": "startIndex",
          "type": "uint256"
        },
        {
          "internalType": "uint256",
          "name": "endIndex",
          "type": "uint256"
        }
      ],
      "name": "getPlanetsPaginated",
      "outputs": [
        {
          "components": [
            {
              "internalType": "uint256",
              "name": "tokenId",
              "type": "uint256"
            },
            {
              "internalType": "uint256",
              "name": "price",
              "type": "uint256"
            },
            {
              "internalType": "address",
              "name": "ownerAddress",
              "type": "address"
            },
            {
              "internalType": "bool",
              "name": "active",
              "type": "bool"
            }
          ],
          "internalType": "struct ListedPlanet[]",
          "name": "",
          "type": "tuple[]"
        }
      ],
      "stateMutability": "view",
      "type": "function"
    },
    {
      "inputs": [
        {
          "internalType": "address",
          "name": "userAddr",
          "type": "address"
        }
      ],
      "name": "getuserToListedPlanets",
      "outputs": [
        {
          "components": [
            {
              "internalType": "uint256",
              "name": "tokenId",
              "type": "uint256"
            },
            {
              "internalType": "uint256",
              "name": "price",
              "type": "uint256"
            },
            {
              "internalType": "address",
              "name": "ownerAddress",
              "type": "address"
            },
            {
              "internalType": "bool",
              "name": "active",
              "type": "bool"
            }
          ],
          "internalType": "struct ListedPlanet[]",
          "name": "",
          "type": "tuple[]"
        }
      ],
      "stateMutability": "view",
      "type": "function"
    },
    {
      "inputs": [
        {
          "internalType": "address",
          "name": "spender",
          "type": "address"
        },
        {
          "internalType": "uint256",
          "name": "addedValue",
          "type": "uint256"
        }
      ],
      "name": "increaseAllowance",
      "outputs": [
        {
          "internalType": "bool",
          "name": "",
          "type": "bool"
        }
      ],
      "stateMutability": "nonpayable",
      "type": "function"
    },
    {
      "inputs": [],
      "name": "initialize",
      "outputs": [],
      "stateMutability": "nonpayable",
      "type": "function"
    },
    {
      "inputs": [],
      "name": "listAllYourPlanets",
      "outputs": [],
      "stateMutability": "nonpayable",
      "type": "function"
    },
    {
      "inputs": [],
      "name": "name",
      "outputs": [
        {
          "internalType": "string",
          "name": "",
          "type": "string"
        }
      ],
      "stateMutability": "view",
      "type": "function"
    },
    {
      "inputs": [
        {
          "internalType": "address",
          "name": "owner",
          "type": "address"
        }
      ],
      "name": "nonces",
      "outputs": [
        {
          "internalType": "uint256",
          "name": "",
          "type": "uint256"
        }
      ],
      "stateMutability": "view",
      "type": "function"
    },
    {
      "inputs": [
        {
          "internalType": "address",
          "name": "operator",
          "type": "address"
        },
        {
          "internalType": "address",
          "name": "from",
          "type": "address"
        },
        {
          "internalType": "uint256",
          "name": "tokenId",
          "type": "uint256"
        },
        {
          "internalType": "bytes",
          "name": "data",
          "type": "bytes"
        }
      ],
      "name": "onERC721Received",
      "outputs": [
        {
          "internalType": "bytes4",
          "name": "",
          "type": "bytes4"
        }
      ],
      "stateMutability": "nonpayable",
      "type": "function"
    },
    {
      "inputs": [],
      "name": "owner",
      "outputs": [
        {
          "internalType": "address",
          "name": "",
          "type": "address"
        }
      ],
      "stateMutability": "view",
      "type": "function"
    },
    {
      "inputs": [
        {
          "internalType": "uint256",
          "name": "claimableTokenId",
          "type": "uint256"
        },
        {
          "internalType": "address",
          "name": "sendToAddr",
          "type": "address"
        }
      ],
      "name": "ownerClaimPlanet",
      "outputs": [],
      "stateMutability": "nonpayable",
      "type": "function"
    },
    {
      "inputs": [
        {
          "internalType": "uint256",
          "name": "tokenId",
          "type": "uint256"
        },
        {
          "internalType": "address",
          "name": "destinationAddr",
          "type": "address"
        }
      ],
      "name": "ownerOverrideSendNFT",
      "outputs": [],
      "stateMutability": "nonpayable",
      "type": "function"
    },
    {
      "inputs": [],
      "name": "pause",
      "outputs": [],
      "stateMutability": "nonpayable",
      "type": "function"
    },
    {
      "inputs": [],
      "name": "paused",
      "outputs": [
        {
          "internalType": "bool",
          "name": "",
          "type": "bool"
        }
      ],
      "stateMutability": "view",
      "type": "function"
    },
    {
      "inputs": [
        {
          "internalType": "uint256",
          "name": "index",
          "type": "uint256"
        }
      ],
      "name": "payee",
      "outputs": [
        {
          "internalType": "address",
          "name": "",
          "type": "address"
        }
      ],
      "stateMutability": "view",
      "type": "function"
    },
    {
      "inputs": [
        {
          "internalType": "address",
          "name": "owner",
          "type": "address"
        },
        {
          "internalType": "address",
          "name": "spender",
          "type": "address"
        },
        {
          "internalType": "uint256",
          "name": "value",
          "type": "uint256"
        },
        {
          "internalType": "uint256",
          "name": "deadline",
          "type": "uint256"
        },
        {
          "internalType": "uint8",
          "name": "v",
          "type": "uint8"
        },
        {
          "internalType": "bytes32",
          "name": "r",
          "type": "bytes32"
        },
        {
          "internalType": "bytes32",
          "name": "s",
          "type": "bytes32"
        }
      ],
      "name": "permit",
      "outputs": [],
      "stateMutability": "nonpayable",
      "type": "function"
    },
    {
      "inputs": [],
      "name": "proxiableUUID",
      "outputs": [
        {
          "internalType": "bytes32",
          "name": "",
          "type": "bytes32"
        }
      ],
      "stateMutability": "view",
      "type": "function"
    },
    {
      "inputs": [
        {
          "internalType": "address",
          "name": "account",
          "type": "address"
        }
      ],
      "name": "releasable",
      "outputs": [
        {
          "internalType": "uint256",
          "name": "",
          "type": "uint256"
        }
      ],
      "stateMutability": "view",
      "type": "function"
    },
    {
      "inputs": [
        {
          "internalType": "contract IERC20Upgradeable",
          "name": "token",
          "type": "address"
        },
        {
          "internalType": "address",
          "name": "account",
          "type": "address"
        }
      ],
      "name": "releasable",
      "outputs": [
        {
          "internalType": "uint256",
          "name": "",
          "type": "uint256"
        }
      ],
      "stateMutability": "view",
      "type": "function"
    },
    {
      "inputs": [
        {
          "internalType": "address payable",
          "name": "account",
          "type": "address"
        }
      ],
      "name": "release",
      "outputs": [],
      "stateMutability": "nonpayable",
      "type": "function"
    },
    {
      "inputs": [
        {
          "internalType": "contract IERC20Upgradeable",
          "name": "token",
          "type": "address"
        },
        {
          "internalType": "address",
          "name": "account",
          "type": "address"
        }
      ],
      "name": "release",
      "outputs": [],
      "stateMutability": "nonpayable",
      "type": "function"
    },
    {
      "inputs": [
        {
          "internalType": "contract IERC20Upgradeable",
          "name": "token",
          "type": "address"
        },
        {
          "internalType": "address",
          "name": "account",
          "type": "address"
        }
      ],
      "name": "released",
      "outputs": [
        {
          "internalType": "uint256",
          "name": "",
          "type": "uint256"
        }
      ],
      "stateMutability": "view",
      "type": "function"
    },
    {
      "inputs": [
        {
          "internalType": "address",
          "name": "account",
          "type": "address"
        }
      ],
      "name": "released",
      "outputs": [
        {
          "internalType": "uint256",
          "name": "",
          "type": "uint256"
        }
      ],
      "stateMutability": "view",
      "type": "function"
    },
    {
      "inputs": [],
      "name": "renounceOwnership",
      "outputs": [],
      "stateMutability": "nonpayable",
      "type": "function"
    },
    {
      "inputs": [
        {
          "internalType": "address",
          "name": "_breederContractAddr",
          "type": "address"
        },
        {
          "internalType": "uint256",
          "name": "_vrfValue",
          "type": "uint256"
        },
        {
          "internalType": "address",
          "name": "_nftContractAddr",
          "type": "address"
        }
      ],
      "name": "setAllOf",
      "outputs": [],
      "stateMutability": "nonpayable",
      "type": "function"
    },
    {
      "inputs": [
        {
          "internalType": "address payable",
          "name": "newTAdd",
          "type": "address"
        }
      ],
      "name": "setTAdd",
      "outputs": [],
      "stateMutability": "nonpayable",
      "type": "function"
    },
    {
      "inputs": [
        {
          "internalType": "address",
          "name": "account",
          "type": "address"
        }
      ],
      "name": "shares",
      "outputs": [
        {
          "internalType": "uint256",
          "name": "",
          "type": "uint256"
        }
      ],
      "stateMutability": "view",
      "type": "function"
    },
    {
      "inputs": [],
      "name": "status",
      "outputs": [],
      "stateMutability": "nonpayable",
      "type": "function"
    },
    {
      "inputs": [],
      "name": "symbol",
      "outputs": [
        {
          "internalType": "string",
          "name": "",
          "type": "string"
        }
      ],
      "stateMutability": "view",
      "type": "function"
    },
    {
      "inputs": [
        {
          "internalType": "contract IERC20Upgradeable",
          "name": "token",
          "type": "address"
        }
      ],
      "name": "totalReleased",
      "outputs": [
        {
          "internalType": "uint256",
          "name": "",
          "type": "uint256"
        }
      ],
      "stateMutability": "view",
      "type": "function"
    },
    {
      "inputs": [],
      "name": "totalReleased",
      "outputs": [
        {
          "internalType": "uint256",
          "name": "",
          "type": "uint256"
        }
      ],
      "stateMutability": "view",
      "type": "function"
    },
    {
      "inputs": [],
      "name": "totalShares",
      "outputs": [
        {
          "internalType": "uint256",
          "name": "",
          "type": "uint256"
        }
      ],
      "stateMutability": "view",
      "type": "function"
    },
    {
      "inputs": [],
      "name": "totalSupply",
      "outputs": [
        {
          "internalType": "uint256",
          "name": "",
          "type": "uint256"
        }
      ],
      "stateMutability": "view",
      "type": "function"
    },
    {
      "inputs": [
        {
          "internalType": "address",
          "name": "to",
          "type": "address"
        },
        {
          "internalType": "uint256",
          "name": "amount",
          "type": "uint256"
        }
      ],
      "name": "transfer",
      "outputs": [
        {
          "internalType": "bool",
          "name": "",
          "type": "bool"
        }
      ],
      "stateMutability": "nonpayable",
      "type": "function"
    },
    {
      "inputs": [
        {
          "internalType": "address",
          "name": "from",
          "type": "address"
        },
        {
          "internalType": "address",
          "name": "to",
          "type": "address"
        },
        {
          "internalType": "uint256",
          "name": "amount",
          "type": "uint256"
        }
      ],
      "name": "transferFrom",
      "outputs": [
        {
          "internalType": "bool",
          "name": "",
          "type": "bool"
        }
      ],
      "stateMutability": "nonpayable",
      "type": "function"
    },
    {
      "inputs": [
        {
          "internalType": "address",
          "name": "newOwner",
          "type": "address"
        }
      ],
      "name": "transferOwnership",
      "outputs": [],
      "stateMutability": "nonpayable",
      "type": "function"
    },
    {
      "inputs": [],
      "name": "unpause",
      "outputs": [],
      "stateMutability": "nonpayable",
      "type": "function"
    },
    {
      "inputs": [
        {
          "internalType": "address",
          "name": "newImplementation",
          "type": "address"
        }
      ],
      "name": "upgradeTo",
      "outputs": [],
      "stateMutability": "nonpayable",
      "type": "function"
    },
    {
      "inputs": [
        {
          "internalType": "address",
          "name": "newImplementation",
          "type": "address"
        },
        {
          "internalType": "bytes",
          "name": "data",
          "type": "bytes"
        }
      ],
      "name": "upgradeToAndCall",
      "outputs": [],
      "stateMutability": "payable",
      "type": "function"
    },
    {
      "inputs": [
        {
          "internalType": "address",
          "name": "",
          "type": "address"
        },
        {
          "internalType": "uint256",
          "name": "",
          "type": "uint256"
        }
      ],
      "name": "userToListedPlanets",
      "outputs": [
        {
          "internalType": "uint256",
          "name": "tokenId",
          "type": "uint256"
        },
        {
          "internalType": "uint256",
          "name": "price",
          "type": "uint256"
        },
        {
          "internalType": "address",
          "name": "ownerAddress",
          "type": "address"
        },
        {
          "internalType": "bool",
          "name": "active",
          "type": "bool"
        }
      ],
      "stateMutability": "view",
      "type": "function"
    },
    {
      "inputs": [
        {
          "internalType": "address",
          "name": "userAddress",
          "type": "address"
        }
      ],
      "name": "usersClaims",
      "outputs": [
        {
          "components": [
            {
              "internalType": "address",
              "name": "ownerParentAddress",
              "type": "address"
            },
            {
              "internalType": "uint256",
              "name": "ownerTokenId",
              "type": "uint256"
            },
            {
              "internalType": "bool",
              "name": "delivered",
              "type": "bool"
            },
            {
              "internalType": "address",
              "name": "otherParent",
              "type": "address"
            },
            {
              "internalType": "uint256",
              "name": "otherTokenId",
              "type": "uint256"
            },
            {
              "internalType": "uint256",
              "name": "claimsTokenId",
              "type": "uint256"
            }
          ],
          "internalType": "struct ClaimablePlanet[]",
          "name": "",
          "type": "tuple[]"
        }
      ],
      "stateMutability": "view",
      "type": "function"
    },
    {
      "inputs": [],
      "name": "withdrawFunds",
      "outputs": [],
      "stateMutability": "nonpayable",
      "type": "function"
    },
    {
      "stateMutability": "payable",
      "type": "receive"
    }
  ],
  "bytecode": "0x60a06040523060805234801561001457600080fd5b5060805161503461004c60003960008181611362015281816113e70152818161179a0152818161181f01526119ac01526150346000f3fe6080604052600436106103b15760003560e01c80637ecebe00116101e7578063c50a783b1161010d578063dbb774d8116100a0578063e33b7de31161006f578063e33b7de314610bed578063f2fde38b14610c03578063fdb4087514610c23578063fde4976714610c4357600080fd5b8063dbb774d814610aa1578063dd22a9c714610b25578063dd62ed3e14610b45578063e22aecb414610b8b57600080fd5b8063ce7c2ac2116100dc578063ce7c2ac214610a6a578063d2f6d0ac14610aa1578063d505accf14610ace578063d79779b214610aee57600080fd5b8063c50a783b146109f5578063c7c0e6b114610a0a578063cbdf1b5a14610a2a578063cdb82a3714610a4a57600080fd5b80638b83209b11610185578063a3f8eace11610154578063a3f8eace14610975578063a457c2d714610995578063a9059cbb146109b5578063c45ac050146109d557600080fd5b80638b83209b146108ea5780638da5cb5b1461090a57806395d89b41146109295780639852595c1461093e57600080fd5b80638456cb59116101c15780638456cb591461057a57806384b0196e1461085b57806385fe72431461088357806387b4f6df146108d457600080fd5b80637ecebe00146108135780638129fc1c146108335780638230a7841461084857600080fd5b806339509351116102d757806350842cf31161026a5780636a23befb116102395780636a23befb1461079457806370a08231146107a9578063715018a6146107df5780637465c4eb146107f457600080fd5b806350842cf31461056e5780635270ad6c1461074757806352d1902d146107675780635c975abb1461077c57600080fd5b8063406072a9116102a6578063406072a9146106ad57806348b75044146106f45780634a02099b146107145780634f1ef2861461073457600080fd5b806339509351146106425780633a7fb03d146106625780633a98ef39146106825780633f4ba83a1461069857600080fd5b80631ac9a91e1161034f578063259478181161031e57806325947818146105c4578063313ce567146105f15780633644e5151461060d5780633659cfe61461062257600080fd5b80631ac9a91e1461056e578063200d2ed21461057a57806323b872dd1461058f57806324600fc3146105af57600080fd5b8063095ea7b31161038b578063095ea7b3146104ac578063150b7a02146104dc57806318160ddd1461052d578063191655871461054c57600080fd5b8063064db874146103ff57806306fdde0314610453578063076619391461047557600080fd5b366103fa577f6ef95f06320e7a25a04a175ca677b7052bdd97131872c2192525a629f51be77033604080516001600160a01b0390921682523460208301520160405180910390a1005b600080fd5b34801561040b57600080fd5b5061043661041a366004614663565b6101cc602052600090815260409020546001600160a01b031681565b6040516001600160a01b0390911681526020015b60405180910390f35b34801561045f57600080fd5b50610468610c63565b60405161044a91906146cc565b34801561048157600080fd5b50610436610490366004614663565b60009081526101cc60205260409020546001600160a01b031690565b3480156104b857600080fd5b506104cc6104c73660046146f4565b610cf5565b604051901515815260200161044a565b3480156104e857600080fd5b506104fc6104f7366004614801565b610d0f565b6040517fffffffff00000000000000000000000000000000000000000000000000000000909116815260200161044a565b34801561053957600080fd5b5060cb545b60405190815260200161044a565b34801561055857600080fd5b5061056c61056736600461486d565b610f97565b005b34801561056c57600080fd5b34801561058657600080fd5b5061056c61110b565b34801561059b57600080fd5b506104cc6105aa36600461488a565b61111b565b3480156105bb57600080fd5b5061056c61113f565b3480156105d057600080fd5b506105e46105df3660046148cb565b611181565b60405161044a91906148ed565b3480156105fd57600080fd5b506040516012815260200161044a565b34801561061957600080fd5b5061053e611349565b34801561062e57600080fd5b5061056c61063d36600461486d565b611358565b34801561064e57600080fd5b506104cc61065d3660046146f4565b6114d3565b34801561066e57600080fd5b5061056c61067d36600461495c565b611512565b34801561068e57600080fd5b506101625461053e565b3480156106a457600080fd5b5061056c6115a2565b3480156106b957600080fd5b5061053e6106c836600461498c565b6001600160a01b0391821660009081526101686020908152604080832093909416825291909152205490565b34801561070057600080fd5b5061056c61070f36600461498c565b6115b2565b34801561072057600080fd5b5061056c61072f3660046149ba565b611749565b61056c6107423660046149fc565b611790565b34801561075357600080fd5b5061056c610762366004614663565b6118f8565b34801561077357600080fd5b5061053e61199f565b34801561078857600080fd5b5060335460ff166104cc565b3480156107a057600080fd5b506105e4611a64565b3480156107b557600080fd5b5061053e6107c436600461486d565b6001600160a01b0316600090815260c9602052604090205490565b3480156107eb57600080fd5b5061056c611afa565b34801561080057600080fd5b506101c8546001600160a01b0316610436565b34801561081f57600080fd5b5061053e61082e36600461486d565b611b0c565b34801561083f57600080fd5b5061056c611b2b565b61056c6108563660046148cb565b611c5a565b34801561086757600080fd5b50610870612100565b60405161044a9796959493929190614a4c565b34801561088f57600080fd5b506108a361089e3660046146f4565b6121c2565b60405161044a949392919093845260208401929092526001600160a01b031660408301521515606082015260800190565b3480156108e057600080fd5b506101c95461053e565b3480156108f657600080fd5b50610436610905366004614663565b61221a565b34801561091657600080fd5b50610194546001600160a01b0316610436565b34801561093557600080fd5b5061046861224b565b34801561094a57600080fd5b5061053e61095936600461486d565b6001600160a01b03166000908152610165602052604090205490565b34801561098157600080fd5b5061053e61099036600461486d565b61225a565b3480156109a157600080fd5b506104cc6109b03660046146f4565b6122a4565b3480156109c157600080fd5b506104cc6109d03660046146f4565b61234e565b3480156109e157600080fd5b5061053e6109f036600461498c565b61235c565b348015610a0157600080fd5b5061043661243a565b348015610a1657600080fd5b5061056c610a25366004614663565b612464565b348015610a3657600080fd5b5061056c610a453660046148cb565b61247a565b348015610a5657600080fd5b5061056c610a6536600461486d565b6127ae565b348015610a7657600080fd5b5061053e610a8536600461486d565b6001600160a01b03166000908152610164602052604090205490565b348015610aad57600080fd5b50610ac1610abc36600461486d565b6127e1565b60405161044a9190614b01565b348015610ada57600080fd5b5061056c610ae9366004614b7c565b6128a0565b348015610afa57600080fd5b5061053e610b0936600461486d565b6001600160a01b03166000908152610167602052604090205490565b348015610b3157600080fd5b506104cc610b4036600461498c565b612a04565b348015610b5157600080fd5b5061053e610b6036600461498c565b6001600160a01b03918216600090815260ca6020908152604080832093909416825291909152205490565b348015610b9757600080fd5b50610bab610ba63660046146f4565b612a95565b604080516001600160a01b03978816815260208101969096529315159385019390935293166060830152608082019290925260a081019190915260c00161044a565b348015610bf957600080fd5b506101635461053e565b348015610c0f57600080fd5b5061056c610c1e36600461486d565b612afc565b348015610c2f57600080fd5b5061056c610c3e36600461495c565b612b89565b348015610c4f57600080fd5b506105e4610c5e36600461486d565b612c1b565b606060cc8054610c7290614bf3565b80601f0160208091040260200160405190810160405280929190818152602001828054610c9e90614bf3565b8015610ceb5780601f10610cc057610100808354040283529160200191610ceb565b820191906000526020600020905b815481529060010190602001808311610cce57829003601f168201915b5050505050905090565b600033610d03818585612cbc565b60019150505b92915050565b6000610d4f6040518060400160405280600881526020017f7265636569766572000000000000000000000000000000000000000000000000815250612e14565b815115610dbc57600082806020019051810190610d6c9190614c27565b9050610d79848287612e70565b7f13c6ec2a463a35f898a457814a782f1f567808293fa783a31fa4dac8868e601186868686604051610dae9493929190614c40565b60405180910390a150610f6c565b6101c6546001600160a01b038681169116148015610de557506101c8546001600160a01b031633145b15610f6c576101c8546040517fdc9ce7a5000000000000000000000000000000000000000000000000000000008152600481018590526000916001600160a01b03169063dc9ce7a590602401600060405180830381865afa158015610e4e573d6000803e3d6000fd5b505050506040513d6000823e601f3d908101601f19168201604052610e769190810190614d39565b5090506000816101200151905060006101cc600083600081518110610e9d57610e9d614e58565b6020026020010151815260200190815260200160002060009054906101000a90046001600160a01b0316905060006101cc600084600181518110610ee357610ee3614e58565b60209081029190910181015182528181019290925260409081016000205481518083019092526001600160a01b03858116835216918101829052909150610f2981612ff2565b7f13c6ec2a463a35f898a457814a782f1f567808293fa783a31fa4dac8868e60118a8a8a8a604051610f5e9493929190614e6e565b60405180910390a150505050505b507f150b7a02000000000000000000000000000000000000000000000000000000005b949350505050565b6001600160a01b038116600090815261016460205260409020546110115760405162461bcd60e51b815260206004820152602660248201527f5061796d656e7453706c69747465723a206163636f756e7420686173206e6f2060448201526573686172657360d01b60648201526084015b60405180910390fd5b600061101c8261225a565b9050806000036110825760405162461bcd60e51b815260206004820152602b60248201527f5061796d656e7453706c69747465723a206163636f756e74206973206e6f742060448201526a191d59481c185e5b595b9d60aa1b6064820152608401611008565b8061016360008282546110959190614ef8565b90915550506001600160a01b0382166000908152610165602052604090208054820190556110c3828261325c565b604080516001600160a01b0384168152602081018390527fdf20fd1e76bc69d672e4814fafb2c449bba3a5369d8359adf9e05e6fde87b056910160405180910390a15050565b565b611113613375565b6111096133d0565b60003361112985828561342a565b6111348585856134b6565b506001949350505050565b611147613375565b61114f6136aa565b604051339081904780156108fc02916000818181858888f1935050505015801561117d573d6000803e3d6000fd5b5050565b60608282116111d25760405162461bcd60e51b815260206004820152600d60248201527f496e76616c696420696e646578000000000000000000000000000000000000006044820152606401611008565b6101cb548211156112255760405162461bcd60e51b815260206004820152601360248201527f496e646578206f7574206f6620626f756e6473000000000000000000000000006044820152606401611008565b60006112318484614f0b565b67ffffffffffffffff81111561124957611249614720565b60405190808252806020026020018201604052801561129b57816020015b6040805160808101825260008082526020808301829052928201819052606082015282526000199092019101816112675790505b509050835b83811015611341576101cb81815481106112bc576112bc614e58565b600091825260209182902060408051608081018252600393909302909101805483526001810154938301939093526002909201546001600160a01b03811692820192909252600160a01b90910460ff16151560608201528261131e8784614f0b565b8151811061132e5761132e614e58565b60209081029190910101526001016112a0565b509392505050565b60006113536136fd565b905090565b6001600160a01b037f00000000000000000000000000000000000000000000000000000000000000001630036113e55760405162461bcd60e51b815260206004820152602c60248201527f46756e6374696f6e206d7573742062652063616c6c6564207468726f7567682060448201526b19195b1959d85d1958d85b1b60a21b6064820152608401611008565b7f00000000000000000000000000000000000000000000000000000000000000006001600160a01b03166114407f360894a13ba1a3210667c828492db98dca3e2076cc3735a920a3ca505d382bbc546001600160a01b031690565b6001600160a01b0316146114ab5760405162461bcd60e51b815260206004820152602c60248201527f46756e6374696f6e206d7573742062652063616c6c6564207468726f7567682060448201526b6163746976652070726f787960a01b6064820152608401611008565b6114b481613707565b604080516000808252602082019092526114d09183919061370f565b50565b33600081815260ca602090815260408083206001600160a01b0387168452909152812054909190610d03908290869061150d908790614ef8565b612cbc565b61151a613375565b6115226136aa565b60008281526101cc60205260409020546001600160a01b03166115458382612b91565b61154e836138af565b6101c854604080516001600160a01b038086168252909216602083015281018490527ffbabfabc293b9daf3d9f8a42d485f10715027db90fd73abbe4ae4b4424decd049060600160405180910390a1505050565b6115aa613375565b61110961394f565b6001600160a01b038116600090815261016460205260409020546116275760405162461bcd60e51b815260206004820152602660248201527f5061796d656e7453706c69747465723a206163636f756e7420686173206e6f2060448201526573686172657360d01b6064820152608401611008565b6000611633838361235c565b9050806000036116995760405162461bcd60e51b815260206004820152602b60248201527f5061796d656e7453706c69747465723a206163636f756e74206973206e6f742060448201526a191d59481c185e5b595b9d60aa1b6064820152608401611008565b6001600160a01b03831660009081526101676020526040812080548392906116c2908490614ef8565b90915550506001600160a01b038084166000908152610168602090815260408083209386168352929052208054820190556116fe838383613988565b604080516001600160a01b038481168252602082018490528516917f3be5b7a71e84ed12875d241991c70855ac5817d847039e17a9d895c1ceb0f18a910160405180910390a2505050565b611751613375565b6117596136aa565b6101c9919091556101c680546001600160a01b039384166001600160a01b0319918216179091556101c88054929093169116179055565b6001600160a01b037f000000000000000000000000000000000000000000000000000000000000000016300361181d5760405162461bcd60e51b815260206004820152602c60248201527f46756e6374696f6e206d7573742062652063616c6c6564207468726f7567682060448201526b19195b1959d85d1958d85b1b60a21b6064820152608401611008565b7f00000000000000000000000000000000000000000000000000000000000000006001600160a01b03166118787f360894a13ba1a3210667c828492db98dca3e2076cc3735a920a3ca505d382bbc546001600160a01b031690565b6001600160a01b0316146118e35760405162461bcd60e51b815260206004820152602c60248201527f46756e6374696f6e206d7573742062652063616c6c6564207468726f7567682060448201526b6163746976652070726f787960a01b6064820152608401611008565b6118ec82613707565b61117d8282600161370f565b6119006136aa565b60008181526101cc602052604090205433906001600160a01b031681810361192c576115458383612b91565b60405162461bcd60e51b815260206004820152603260248201527f636c61696d206d7573742062652066726f6d20636c61696d616e74732061646460448201527f726573732d2d20646973616c6c6f7765642e00000000000000000000000000006064820152608401611008565b505050565b6000306001600160a01b037f00000000000000000000000000000000000000000000000000000000000000001614611a3f5760405162461bcd60e51b815260206004820152603860248201527f555550535570677261646561626c653a206d757374206e6f742062652063616c60448201527f6c6564207468726f7567682064656c656761746563616c6c00000000000000006064820152608401611008565b507f360894a13ba1a3210667c828492db98dca3e2076cc3735a920a3ca505d382bbc90565b60606101cb805480602002602001604051908101604052809291908181526020016000905b82821015611af1576000848152602090819020604080516080810182526003860290920180548352600180820154848601526002909101546001600160a01b03811692840192909252600160a01b90910460ff16151560608301529083529092019101611a89565b50505050905090565b611b02613375565b61110960006139f3565b6001600160a01b038116600090815261012f6020526040812054610d09565b600054610100900460ff1615808015611b4b5750600054600160ff909116105b80611b655750303b158015611b65575060005460ff166001145b611bd75760405162461bcd60e51b815260206004820152602e60248201527f496e697469616c697a61626c653a20636f6e747261637420697320616c72656160448201527f647920696e697469616c697a65640000000000000000000000000000000000006064820152608401611008565b6000805460ff191660011790558015611bfa576000805461ff0019166101001790555b611c02613a46565b611c0a613ab9565b611c12613b2c565b80156114d0576000805461ff0019169055604051600181527f7f26b83ff96e1f2b6a682f133852f6798a09c465da95921460cefb38474024989060200160405180910390a150565b611c626136aa565b6000611c6d82613b97565b6101c8546040517f6352211e000000000000000000000000000000000000000000000000000000008152600481018690529192506000916001600160a01b0390911690636352211e90602401602060405180830381865afa158015611cd6573d6000803e3d6000fd5b505050506040513d601f19601f82011682018060405250810190611cfa9190614f1e565b90506001600160a01b0381163314611d7a5760405162461bcd60e51b815260206004820152603260248201527f596f7520646f206e6f74206f776e2074686520706c616e657420796f7520617260448201527f6520747279696e6720746f2062726565642e00000000000000000000000000006064820152608401611008565b816101c954611d899190614ef8565b341015611dfe5760405162461bcd60e51b815260206004820152602a60248201527f496e73756666696369656e742066756e647320746f20636f766572205652462060448201527f616e642070726963652e000000000000000000000000000000000000000000006064820152608401611008565b336000805b6101cb54811015611e7a57856101cb8281548110611e2357611e23614e58565b90600052602060002090600302016000015403611e72576101cb8181548110611e4e57611e4e614e58565b60009182526020909120600260039092020101546001600160a01b03169150611e7a565b600101611e03565b5060006064611e8a86605f614f3b565b611e949190614f52565b90506000826001600160a01b03168260405160006040518083038185875af1925050503d8060008114611ee3576040519150601f19603f3d011682016040523d82523d6000602084013e611ee8565b606091505b5050905080611f395760405162461bcd60e51b815260206004820152601460248201527f4661696c656420746f2073656e642045746865720000000000000000000000006044820152606401611008565b6101c6546101c9546040517f4e9e6a07000000000000000000000000000000000000000000000000000000008152600481018b9052602481018a9052600060448201526001600160a01b0390921691634e9e6a07919060640160206040518083038185885af1158015611fb0573d6000803e3d6000fd5b50505050506040513d601f19601f82011682018060405250810190611fd59190614c27565b50816101c954611fe59190614ef8565b3411156120a6576000336001600160a01b0316836101c954346120089190614f0b565b6120129190614f0b565b604051600081818185875af1925050503d806000811461204e576040519150601f19603f3d011682016040523d82523d6000602084013e612053565b606091505b50509050806120a45760405162461bcd60e51b815260206004820152601d60248201527f4661696c656420746f20726566756e64206578636573732045746865720000006044820152606401611008565b505b604080518981526001600160a01b0386811660208301528183018a90528516606082015290517f8557df6951fbdd47fe9027516fc896be40f285ed55a6acac460352adbab730cd9181900360800190a15050505050505050565b60006060806000806000606060fb546000801b148015612120575060fc54155b61216c5760405162461bcd60e51b815260206004820152601560248201527f4549503731323a20556e696e697469616c697a656400000000000000000000006044820152606401611008565b612174613c38565b61217c613c47565b604080516000808252602082019092527f0f000000000000000000000000000000000000000000000000000000000000009b939a50919850469750309650945092509050565b6101ca60205281600052604060002081815481106121df57600080fd5b60009182526020909120600390910201805460018201546002909201549093509091506001600160a01b03811690600160a01b900460ff1684565b6000610166828154811061223057612230614e58565b6000918252602090912001546001600160a01b031692915050565b606060cd8054610c7290614bf3565b6000806122676101635490565b6122719047614ef8565b905061229d8382612298866001600160a01b03166000908152610165602052604090205490565b613c56565b9392505050565b33600081815260ca602090815260408083206001600160a01b0387168452909152812054909190838110156123415760405162461bcd60e51b815260206004820152602560248201527f45524332303a2064656372656173656420616c6c6f77616e63652062656c6f7760448201527f207a65726f0000000000000000000000000000000000000000000000000000006064820152608401611008565b6111348286868403612cbc565b600033610d038185856134b6565b6001600160a01b0382166000908152610167602052604081205481906040517f70a082310000000000000000000000000000000000000000000000000000000081523060048201526001600160a01b038616906370a0823190602401602060405180830381865afa1580156123d5573d6000803e3d6000fd5b505050506040513d601f19601f820116820180604052508101906123f99190614c27565b6124039190614ef8565b6001600160a01b0380861660009081526101686020908152604080832093881683529290522054909150610f8f9084908390613c56565b6101c654600090612453906001600160a01b0316613c96565b506101c6546001600160a01b031690565b61246c613375565b6124746136aa565b6101c955565b6124826136aa565b6101cb5482106124d45760405162461bcd60e51b815260206004820152601360248201527f496e646578206f7574206f6620626f756e6473000000000000000000000000006044820152606401611008565b600033905060006101cb84815481106124ef576124ef614e58565b6000918252602091829020604080516080810182526003909302909101805483526001810154938301939093526002909201546001600160a01b03811692820183905260ff600160a01b90910416151560608201529150331461255157600080fd5b6040518060800160405280826000015181526020016000815260200182604001516001600160a01b03168152602001600015158152506101cb858154811061259b5761259b614e58565b60009182526020808320845160039093020191825583810151600180840191909155604080860151600290940180546060909701511515600160a01b0274ffffffffffffffffffffffffffffffffffffffffff199097166001600160a01b0390951694909417959095179092553383526101ca90529190208054909161262091614f0b565b8154811061263057612630614e58565b90600052602060002090600302016101ca6000336001600160a01b03166001600160a01b03168152602001908152602001600020858154811061267557612675614e58565b60009182526020808320845460039093020191825560018085015490830155600293840180549490920180546001600160a01b031981166001600160a01b039096169586178255925460ff600160a01b918290041615150274ffffffffffffffffffffffffffffffffffffffffff19909316909417919091179092553381526101ca9091526040902080548061270d5761270d614f74565b6000828152602081206003600019909301928302018181556001810191909155600201805474ffffffffffffffffffffffffffffffffffffffffff1916905590556127588383612b91565b6101c8548151604080516001600160a01b03808716825290931660208401528201527f0ece05e698e9e143fb75b2ad0aba7f141238c27b6d3e9728898183ee0d68498b906060015b60405180910390a150505050565b6127b6613375565b6127be6136aa565b6101c780546001600160a01b0319166001600160a01b0392909216919091179055565b6001600160a01b03811660009081526101cd60209081526040808320805482518185028101850190935280835260609492939192909184015b828210156128955760008481526020908190206040805160c0810182526005860290920180546001600160a01b03908116845260018083015485870152600283015460ff8116151594860194909452610100909304166060840152600381015460808401526004015460a0830152908352909201910161281a565b505050509050919050565b834211156128f05760405162461bcd60e51b815260206004820152601d60248201527f45524332305065726d69743a206578706972656420646561646c696e650000006044820152606401611008565b60007f6e71edae12b1b97f4d1f60370fef10105fa2faae0126114a169c64845d6126c988888861291f8c613cf7565b6040805160208101969096526001600160a01b0394851690860152929091166060840152608083015260a082015260c0810186905260e001604051602081830303815290604052805190602001209050600061297a82613d1e565b9050600061298a82878787613d66565b9050896001600160a01b0316816001600160a01b0316146129ed5760405162461bcd60e51b815260206004820152601e60248201527f45524332305065726d69743a20696e76616c6964207369676e617475726500006044820152606401611008565b6129f88a8a8a612cbc565b50505050505050505050565b6101c8546040517fe985e9c50000000000000000000000000000000000000000000000000000000081526001600160a01b0384811660048301528381166024830152600092169063e985e9c590604401602060405180830381865afa158015612a71573d6000803e3d6000fd5b505050506040513d601f19601f8201168201806040525081019061229d9190614f8a565b6101cd6020528160005260406000208181548110612ab257600080fd5b6000918252602090912060059091020180546001820154600283015460038401546004909401546001600160a01b03938416965091945060ff811693610100909104909216919086565b612b04613375565b6001600160a01b038116612b805760405162461bcd60e51b815260206004820152602660248201527f4f776e61626c653a206e6577206f776e657220697320746865207a65726f206160448201527f64647265737300000000000000000000000000000000000000000000000000006064820152608401611008565b6114d0816139f3565b612b91613375565b6101c8546040517f23b872dd0000000000000000000000000000000000000000000000000000000081523060048201526001600160a01b03838116602483015260448201859052909116906323b872dd90606401600060405180830381600087803b158015612bff57600080fd5b505af1158015612c13573d6000803e3d6000fd5b505050505050565b6001600160a01b03811660009081526101ca60209081526040808320805482518185028101850190935280835260609492939192909184015b82821015612895576000848152602090819020604080516080810182526003860290920180548352600180820154848601526002909101546001600160a01b03811692840192909252600160a01b90910460ff16151560608301529083529092019101612c54565b6001600160a01b038316612d375760405162461bcd60e51b8152602060048201526024808201527f45524332303a20617070726f76652066726f6d20746865207a65726f2061646460448201527f72657373000000000000000000000000000000000000000000000000000000006064820152608401611008565b6001600160a01b038216612db35760405162461bcd60e51b815260206004820152602260248201527f45524332303a20617070726f766520746f20746865207a65726f20616464726560448201527f73730000000000000000000000000000000000000000000000000000000000006064820152608401611008565b6001600160a01b03838116600081815260ca602090815260408083209487168084529482529182902085905590518481527f8c5be1e5ebec7d5bd14f71427d1e84f3dd0314c0f7b2291e5b200ac8c7c3b925910160405180910390a3505050565b6114d081604051602401612e2891906146cc565b60408051601f198184030181529190526020810180516001600160e01b03167f41304fac00000000000000000000000000000000000000000000000000000000179052613d8e565b604080516080808201835285825260208083018681526001600160a01b03868116858701818152600160608089018281526101cb8054808501825560009182528b5160039182027fe8bbfecd380c4167d6a1f763a233ec73e73f534b1970c4e1683f437ec23c1f4481019190915589517fe8bbfecd380c4167d6a1f763a233ec73e73f534b1970c4e1683f437ec23c1f4582015586517fe8bbfecd380c4167d6a1f763a233ec73e73f534b1970c4e1683f437ec23c1f46909101805485511515600160a01b90810274ffffffffffffffffffffffffffffffffffffffffff19928316948d1694909417939093179091559783526101ca8b528d832080548088018255908452928b90208d5193909202909101918255975193810193909355925160029092018054935115159096029290931690841617179092556101c854865133815291169281019290925293810187905292830185905290917fb30319a217488a3ed441c348e935a48d16091e33109bab0c79a353b97975288391016127a0565b80516020808301516001600160a01b03831660009081526101cd909252604090912054156130f55760005b6001600160a01b03831660009081526101cd60205260409020548110156130ef576001600160a01b0383811660009081526101cd602052604090208054918416918390811061306e5761306e614e58565b600091825260209091206005909102016002015461010090046001600160a01b0316036130e7576001600160a01b03831660009081526101cd60205260409020805460019190839081106130c4576130c4614e58565b60009182526020909120600590910201600201805460ff19169115159190911790555b60010161301d565b50505050565b6020808401516001600160a01b031660009081526101cd9091526040902054156131ee5760005b6001600160a01b03821660009081526101cd60205260409020548110156130ef576001600160a01b0382811660009081526101cd602052604090208054918516918390811061316d5761316d614e58565b600091825260209091206005909102016002015461010090046001600160a01b0316036131e6576001600160a01b03821660009081526101cd60205260409020805460019190839081106131c3576131c3614e58565b60009182526020909120600590910201600201805460ff19169115159190911790555b60010161311c565b60405162461bcd60e51b815260206004820152602560248201527f706c616e65742073656e7420657272616e746c792c206e6f206f6e6520746f2060448201527f636c61696d0000000000000000000000000000000000000000000000000000006064820152608401611008565b804710156132ac5760405162461bcd60e51b815260206004820152601d60248201527f416464726573733a20696e73756666696369656e742062616c616e63650000006044820152606401611008565b6000826001600160a01b03168260405160006040518083038185875af1925050503d80600081146132f9576040519150601f19603f3d011682016040523d82523d6000602084013e6132fe565b606091505b505090508061199a5760405162461bcd60e51b815260206004820152603a60248201527f416464726573733a20756e61626c6520746f2073656e642076616c75652c207260448201527f6563697069656e74206d617920686176652072657665727465640000000000006064820152608401611008565b610194546001600160a01b031633146111095760405162461bcd60e51b815260206004820181905260248201527f4f776e61626c653a2063616c6c6572206973206e6f7420746865206f776e65726044820152606401611008565b6133d86136aa565b6033805460ff191660011790557f62e78cea01bee320cd4e420270b5ea74000d11b0c9f74754ebdbfc544b05a25861340d3390565b6040516001600160a01b03909116815260200160405180910390a1565b6001600160a01b03838116600090815260ca602090815260408083209386168352929052205460001981146130ef57818110156134a95760405162461bcd60e51b815260206004820152601d60248201527f45524332303a20696e73756666696369656e7420616c6c6f77616e63650000006044820152606401611008565b6130ef8484848403612cbc565b6001600160a01b0383166135325760405162461bcd60e51b815260206004820152602560248201527f45524332303a207472616e736665722066726f6d20746865207a65726f20616460448201527f64726573730000000000000000000000000000000000000000000000000000006064820152608401611008565b6001600160a01b0382166135ae5760405162461bcd60e51b815260206004820152602360248201527f45524332303a207472616e7366657220746f20746865207a65726f206164647260448201527f65737300000000000000000000000000000000000000000000000000000000006064820152608401611008565b6001600160a01b038316600090815260c960205260409020548181101561363d5760405162461bcd60e51b815260206004820152602660248201527f45524332303a207472616e7366657220616d6f756e742065786365656473206260448201527f616c616e636500000000000000000000000000000000000000000000000000006064820152608401611008565b6001600160a01b03808516600081815260c9602052604080822086860390559286168082529083902080548601905591517fddf252ad1be2c89b69c2b068fc378daa952ba7f163c4a11628f55a4df523b3ef9061369d9086815260200190565b60405180910390a36130ef565b60335460ff16156111095760405162461bcd60e51b815260206004820152601060248201527f5061757361626c653a20706175736564000000000000000000000000000000006044820152606401611008565b6000611353613d97565b6114d0613375565b7f4910fdfa16fed3260ed0e7147f7cc6da11a60208b5b9406d12a635614ffd91435460ff16156137425761199a83613e0b565b826001600160a01b03166352d1902d6040518163ffffffff1660e01b8152600401602060405180830381865afa92505050801561379c575060408051601f3d908101601f1916820190925261379991810190614c27565b60015b61380e5760405162461bcd60e51b815260206004820152602e60248201527f45524331393637557067726164653a206e657720696d706c656d656e7461746960448201527f6f6e206973206e6f7420555550530000000000000000000000000000000000006064820152608401611008565b7f360894a13ba1a3210667c828492db98dca3e2076cc3735a920a3ca505d382bbc81146138a35760405162461bcd60e51b815260206004820152602960248201527f45524331393637557067726164653a20756e737570706f727465642070726f7860448201527f6961626c655555494400000000000000000000000000000000000000000000006064820152608401611008565b5061199a838383613ec9565b60008181526101cc60209081526040808320546001600160a01b03168084526101cd909252822090915b81548110156130ef57838282815481106138f5576138f5614e58565b9060005260206000209060050201600401540361394757600182828154811061392057613920614e58565b60009182526020909120600590910201600201805460ff19169115159190911790556130ef565b6001016138d9565b613957613eee565b6033805460ff191690557f5db9ee0a495bf2e6ff9c91a7834c1ba4fdd244a5e8aa4e537bd38aeae4b073aa3361340d565b604080516001600160a01b038416602482015260448082018490528251808303909101815260649091019091526020810180516001600160e01b03167fa9059cbb0000000000000000000000000000000000000000000000000000000017905261199a908490613f40565b61019480546001600160a01b038381166001600160a01b0319831681179093556040519116919082907f8be0079c531659141344cd1fd0a4f28419497f9722a3daafe3b4186f6b6457e090600090a35050565b600054610100900460ff16613ab15760405162461bcd60e51b815260206004820152602b60248201527f496e697469616c697a61626c653a20636f6e7472616374206973206e6f74206960448201526a6e697469616c697a696e6760a81b6064820152608401611008565b611109614028565b600054610100900460ff16613b245760405162461bcd60e51b815260206004820152602b60248201527f496e697469616c697a61626c653a20636f6e7472616374206973206e6f74206960448201526a6e697469616c697a696e6760a81b6064820152608401611008565b61110961409c565b600054610100900460ff166111095760405162461bcd60e51b815260206004820152602b60248201527f496e697469616c697a61626c653a20636f6e7472616374206973206e6f74206960448201526a6e697469616c697a696e6760a81b6064820152608401611008565b6000613ba16136aa565b60005b6101cb54811015613c3157826101cb8281548110613bc457613bc4614e58565b90600052602060002090600302016000015403613c09576101cb8181548110613bef57613bef614e58565b906000526020600020906003020160010154915050919050565b6101cb54613c1990600190614f0b565b8103613c29575060001992915050565b600101613ba4565b505b919050565b606060fd8054610c7290614bf3565b606060fe8054610c7290614bf3565b610162546001600160a01b0384166000908152610164602052604081205490918391613c829086614f3b565b613c8c9190614f52565b610f8f9190614f0b565b6040516001600160a01b03821660248201526114d09060440160408051601f198184030181529190526020810180516001600160e01b03167f2c2ecbc200000000000000000000000000000000000000000000000000000000179052613d8e565b6001600160a01b038116600090815261012f60205260409020805460018101825590613c31565b6000610d09613d2b6136fd565b836040517f19010000000000000000000000000000000000000000000000000000000000008152600281019290925260228201526042902090565b6000806000613d7787878787614113565b91509150613d84816141d7565b5095945050505050565b6114d08161433c565b60007f8b73c3c69bb8fe3d512ecc4cf759cc79239f7b179b0ffacaa9a75d522b39400f613dc261435d565b613dca6143b6565b60408051602081019490945283019190915260608201524660808201523060a082015260c00160405160208183030381529060405280519060200120905090565b6001600160a01b0381163b613e885760405162461bcd60e51b815260206004820152602d60248201527f455243313936373a206e657720696d706c656d656e746174696f6e206973206e60448201527f6f74206120636f6e7472616374000000000000000000000000000000000000006064820152608401611008565b7f360894a13ba1a3210667c828492db98dca3e2076cc3735a920a3ca505d382bbc80546001600160a01b0319166001600160a01b0392909216919091179055565b613ed2836143e7565b600082511180613edf5750805b1561199a576130ef8383614427565b60335460ff166111095760405162461bcd60e51b815260206004820152601460248201527f5061757361626c653a206e6f74207061757365640000000000000000000000006044820152606401611008565b6000613f95826040518060400160405280602081526020017f5361666545524332303a206c6f772d6c6576656c2063616c6c206661696c6564815250856001600160a01b031661444c9092919063ffffffff16565b9050805160001480613fb6575080806020019051810190613fb69190614f8a565b61199a5760405162461bcd60e51b815260206004820152602a60248201527f5361666545524332303a204552433230206f7065726174696f6e20646964206e60448201527f6f742073756363656564000000000000000000000000000000000000000000006064820152608401611008565b600054610100900460ff166140935760405162461bcd60e51b815260206004820152602b60248201527f496e697469616c697a61626c653a20636f6e7472616374206973206e6f74206960448201526a6e697469616c697a696e6760a81b6064820152608401611008565b611109336139f3565b600054610100900460ff166141075760405162461bcd60e51b815260206004820152602b60248201527f496e697469616c697a61626c653a20636f6e7472616374206973206e6f74206960448201526a6e697469616c697a696e6760a81b6064820152608401611008565b6033805460ff19169055565b6000807f7fffffffffffffffffffffffffffffff5d576e7357a4501ddfe92f46681b20a083111561414a57506000905060036141ce565b6040805160008082526020820180845289905260ff881692820192909252606081018690526080810185905260019060a0016020604051602081039080840390855afa15801561419e573d6000803e3d6000fd5b5050604051601f1901519150506001600160a01b0381166141c7576000600192509250506141ce565b9150600090505b94509492505050565b60008160048111156141eb576141eb614fa5565b036141f35750565b600181600481111561420757614207614fa5565b036142545760405162461bcd60e51b815260206004820152601860248201527f45434453413a20696e76616c6964207369676e617475726500000000000000006044820152606401611008565b600281600481111561426857614268614fa5565b036142b55760405162461bcd60e51b815260206004820152601f60248201527f45434453413a20696e76616c6964207369676e6174757265206c656e677468006044820152606401611008565b60038160048111156142c9576142c9614fa5565b036114d05760405162461bcd60e51b815260206004820152602260248201527f45434453413a20696e76616c6964207369676e6174757265202773272076616c60448201527f75650000000000000000000000000000000000000000000000000000000000006064820152608401611008565b60006a636f6e736f6c652e6c6f679050600080835160208501845afa505050565b600080614368613c38565b80519091501561437f578051602090910120919050565b60fb54801561438e5792915050565b7fc5d2460186f7233c927e7db2dcc703c0e500b653ca82273b7bfad8045d85a4709250505090565b6000806143c1613c47565b8051909150156143d8578051602090910120919050565b60fc54801561438e5792915050565b6143f081613e0b565b6040516001600160a01b038216907fbc7cd75a20ee27fd9adebab32041f755214dbc6bffa90cc0225b39da2e5c2d3b90600090a250565b606061229d8383604051806060016040528060278152602001614fd86027913961445b565b6060610f8f84846000856144d3565b6060600080856001600160a01b0316856040516144789190614fbb565b600060405180830381855af49150503d80600081146144b3576040519150601f19603f3d011682016040523d82523d6000602084013e6144b8565b606091505b50915091506144c9868383876145c5565b9695505050505050565b60608247101561454b5760405162461bcd60e51b815260206004820152602660248201527f416464726573733a20696e73756666696369656e742062616c616e636520666f60448201527f722063616c6c00000000000000000000000000000000000000000000000000006064820152608401611008565b600080866001600160a01b031685876040516145679190614fbb565b60006040518083038185875af1925050503d80600081146145a4576040519150601f19603f3d011682016040523d82523d6000602084013e6145a9565b606091505b50915091506145ba878383876145c5565b979650505050505050565b6060831561463457825160000361462d576001600160a01b0385163b61462d5760405162461bcd60e51b815260206004820152601d60248201527f416464726573733a2063616c6c20746f206e6f6e2d636f6e74726163740000006044820152606401611008565b5081610f8f565b610f8f83838151156146495781518083602001fd5b8060405162461bcd60e51b815260040161100891906146cc565b60006020828403121561467557600080fd5b5035919050565b60005b8381101561469757818101518382015260200161467f565b50506000910152565b600081518084526146b881602086016020860161467c565b601f01601f19169290920160200192915050565b60208152600061229d60208301846146a0565b6001600160a01b03811681146114d057600080fd5b6000806040838503121561470757600080fd5b8235614712816146df565b946020939093013593505050565b634e487b7160e01b600052604160045260246000fd5b604051610160810167ffffffffffffffff8111828210171561475a5761475a614720565b60405290565b604051601f8201601f1916810167ffffffffffffffff8111828210171561478957614789614720565b604052919050565b600082601f8301126147a257600080fd5b813567ffffffffffffffff8111156147bc576147bc614720565b6147cf601f8201601f1916602001614760565b8181528460208386010111156147e457600080fd5b816020850160208301376000918101602001919091529392505050565b6000806000806080858703121561481757600080fd5b8435614822816146df565b93506020850135614832816146df565b925060408501359150606085013567ffffffffffffffff81111561485557600080fd5b61486187828801614791565b91505092959194509250565b60006020828403121561487f57600080fd5b813561229d816146df565b60008060006060848603121561489f57600080fd5b83356148aa816146df565b925060208401356148ba816146df565b929592945050506040919091013590565b600080604083850312156148de57600080fd5b50508035926020909101359150565b602080825282518282018190526000919060409081850190868401855b8281101561494f578151805185528681015187860152858101516001600160a01b0316868601526060908101511515908501526080909301929085019060010161490a565b5091979650505050505050565b6000806040838503121561496f57600080fd5b823591506020830135614981816146df565b809150509250929050565b6000806040838503121561499f57600080fd5b82356149aa816146df565b91506020830135614981816146df565b6000806000606084860312156149cf57600080fd5b83356149da816146df565b92506020840135915060408401356149f1816146df565b809150509250925092565b60008060408385031215614a0f57600080fd5b8235614a1a816146df565b9150602083013567ffffffffffffffff811115614a3657600080fd5b614a4285828601614791565b9150509250929050565b7fff00000000000000000000000000000000000000000000000000000000000000881681526000602060e06020840152614a8960e084018a6146a0565b8381036040850152614a9b818a6146a0565b606085018990526001600160a01b038816608086015260a0850187905284810360c08601528551808252602080880193509091019060005b81811015614aef57835183529284019291840191600101614ad3565b50909c9b505050505050505050505050565b602080825282518282018190526000919060409081850190868401855b8281101561494f57815180516001600160a01b039081168652878201518887015286820151151587870152606080830151909116908601526080808201519086015260a0908101519085015260c09093019290850190600101614b1e565b600080600080600080600060e0888a031215614b9757600080fd5b8735614ba2816146df565b96506020880135614bb2816146df565b95506040880135945060608801359350608088013560ff81168114614bd657600080fd5b9699959850939692959460a0840135945060c09093013592915050565b600181811c90821680614c0757607f821691505b602082108103613c3157634e487b7160e01b600052602260045260246000fd5b600060208284031215614c3957600080fd5b5051919050565b60006001600160a01b03808716835280861660208401525083604083015260a06060830152614c7260a08301846146a0565b8281036080840152600e81527f6c697374696e6720706c616e657400000000000000000000000000000000000060208201526040810191505095945050505050565b600082601f830112614cc557600080fd5b8151602067ffffffffffffffff821115614ce157614ce1614720565b8160051b614cf0828201614760565b9283528481018201928281019087851115614d0a57600080fd5b83870192505b848310156145ba57825182529183019190830190614d10565b80518015158114613c3357600080fd5b60008060408385031215614d4c57600080fd5b825167ffffffffffffffff80821115614d6457600080fd5b908401906101608287031215614d7957600080fd5b614d81614736565b825181526020830151602082015260408301516040820152606083015160608201526080830151608082015260a083015160a082015260c083015160c082015260e083015160e08201526101008084015183811115614ddf57600080fd5b614deb89828701614cb4565b8284015250506101208084015183811115614e0557600080fd5b614e1189828701614cb4565b8284015250506101408084015183811115614e2b57600080fd5b614e3789828701614cb4565b828401525050809450505050614e4f60208401614d29565b90509250929050565b634e487b7160e01b600052603260045260246000fd5b60006001600160a01b03808716835280861660208401525083604083015260a06060830152614ea060a08301846146a0565b8281036080840152600a81527f6e657720706c616e65740000000000000000000000000000000000000000000060208201526040810191505095945050505050565b634e487b7160e01b600052601160045260246000fd5b80820180821115610d0957610d09614ee2565b81810381811115610d0957610d09614ee2565b600060208284031215614f3057600080fd5b815161229d816146df565b8082028115828204841417610d0957610d09614ee2565b600082614f6f57634e487b7160e01b600052601260045260246000fd5b500490565b634e487b7160e01b600052603160045260246000fd5b600060208284031215614f9c57600080fd5b61229d82614d29565b634e487b7160e01b600052602160045260246000fd5b60008251614fcd81846020870161467c565b919091019291505056fe416464726573733a206c6f772d6c6576656c2064656c65676174652063616c6c206661696c6564a2646970667358221220f0ce786e81a8464b97b23dd5433973f359eb9ad4159f45d190b35ea81a6ffd0964736f6c63430008180033",
  "linkReferences": {},
  "deployedLinkReferences": {}
}