{
  "_format": "hh-sol-artifact-1",
  "contractName": "PaymentSplitterUpgradeable",
  "sourceName": "@openzeppelin/contracts-upgradeable/finance/PaymentSplitterUpgradeable.sol",
  "abi": [
    {
      "anonymous": false,
      "inputs": [
        {
          "indexed": true,
          "internalType": "contract IERC20Upgradeable",
          "name": "token",
          "type": "address"
        },
        {
          "indexed": false,
          "internalType": "address",
          "name": "to",
          "type": "address"
        },
        {
          "indexed": false,
          "internalType": "uint256",
          "name": "amount",
          "type": "uint256"
        }
      ],
      "name": "ERC20PaymentReleased",
      "type": "event"
    },
    {
      "anonymous": false,
      "inputs": [
        {
          "indexed": false,
          "internalType": "uint8",
          "name": "version",
          "type": "uint8"
        }
      ],
      "name": "Initialized",
      "type": "event"
    },
    {
      "anonymous": false,
      "inputs": [
        {
          "indexed": false,
          "internalType": "address",
          "name": "account",
          "type": "address"
        },
        {
          "indexed": false,
          "internalType": "uint256",
          "name": "shares",
          "type": "uint256"
        }
      ],
      "name": "PayeeAdded",
      "type": "event"
    },
    {
      "anonymous": false,
      "inputs": [
        {
          "indexed": false,
          "internalType": "address",
          "name": "from",
          "type": "address"
        },
        {
          "indexed": false,
          "internalType": "uint256",
          "name": "amount",
          "type": "uint256"
        }
      ],
      "name": "PaymentReceived",
      "type": "event"
    },
    {
      "anonymous": false,
      "inputs": [
        {
          "indexed": false,
          "internalType": "address",
          "name": "to",
          "type": "address"
        },
        {
          "indexed": false,
          "internalType": "uint256",
          "name": "amount",
          "type": "uint256"
        }
      ],
      "name": "PaymentReleased",
      "type": "event"
    },
    {
      "inputs": [
        {
          "internalType": "uint256",
          "name": "index",
          "type": "uint256"
        }
      ],
      "name": "payee",
      "outputs": [
        {
          "internalType": "address",
          "name": "",
          "type": "address"
        }
      ],
      "stateMutability": "view",
      "type": "function"
    },
    {
      "inputs": [
        {
          "internalType": "address",
          "name": "account",
          "type": "address"
        }
      ],
      "name": "releasable",
      "outputs": [
        {
          "internalType": "uint256",
          "name": "",
          "type": "uint256"
        }
      ],
      "stateMutability": "view",
      "type": "function"
    },
    {
      "inputs": [
        {
          "internalType": "contract IERC20Upgradeable",
          "name": "token",
          "type": "address"
        },
        {
          "internalType": "address",
          "name": "account",
          "type": "address"
        }
      ],
      "name": "releasable",
      "outputs": [
        {
          "internalType": "uint256",
          "name": "",
          "type": "uint256"
        }
      ],
      "stateMutability": "view",
      "type": "function"
    },
    {
      "inputs": [
        {
          "internalType": "address payable",
          "name": "account",
          "type": "address"
        }
      ],
      "name": "release",
      "outputs": [],
      "stateMutability": "nonpayable",
      "type": "function"
    },
    {
      "inputs": [
        {
          "internalType": "contract IERC20Upgradeable",
          "name": "token",
          "type": "address"
        },
        {
          "internalType": "address",
          "name": "account",
          "type": "address"
        }
      ],
      "name": "release",
      "outputs": [],
      "stateMutability": "nonpayable",
      "type": "function"
    },
    {
      "inputs": [
        {
          "internalType": "contract IERC20Upgradeable",
          "name": "token",
          "type": "address"
        },
        {
          "internalType": "address",
          "name": "account",
          "type": "address"
        }
      ],
      "name": "released",
      "outputs": [
        {
          "internalType": "uint256",
          "name": "",
          "type": "uint256"
        }
      ],
      "stateMutability": "view",
      "type": "function"
    },
    {
      "inputs": [
        {
          "internalType": "address",
          "name": "account",
          "type": "address"
        }
      ],
      "name": "released",
      "outputs": [
        {
          "internalType": "uint256",
          "name": "",
          "type": "uint256"
        }
      ],
      "stateMutability": "view",
      "type": "function"
    },
    {
      "inputs": [
        {
          "internalType": "address",
          "name": "account",
          "type": "address"
        }
      ],
      "name": "shares",
      "outputs": [
        {
          "internalType": "uint256",
          "name": "",
          "type": "uint256"
        }
      ],
      "stateMutability": "view",
      "type": "function"
    },
    {
      "inputs": [
        {
          "internalType": "contract IERC20Upgradeable",
          "name": "token",
          "type": "address"
        }
      ],
      "name": "totalReleased",
      "outputs": [
        {
          "internalType": "uint256",
          "name": "",
          "type": "uint256"
        }
      ],
      "stateMutability": "view",
      "type": "function"
    },
    {
      "inputs": [],
      "name": "totalReleased",
      "outputs": [
        {
          "internalType": "uint256",
          "name": "",
          "type": "uint256"
        }
      ],
      "stateMutability": "view",
      "type": "function"
    },
    {
      "inputs": [],
      "name": "totalShares",
      "outputs": [
        {
          "internalType": "uint256",
          "name": "",
          "type": "uint256"
        }
      ],
      "stateMutability": "view",
      "type": "function"
    },
    {
      "stateMutability": "payable",
      "type": "receive"
    }
  ],
  "bytecode": "0x608060405234801561001057600080fd5b50610c04806100206000396000f3fe6080604052600436106100905760003560e01c806319165587146100d55780633a98ef39146100f7578063406072a91461011b57806348b750441461013b5780638b83209b1461015b5780639852595c14610188578063a3f8eace146101a8578063c45ac050146101c8578063ce7c2ac2146101e8578063d79779b21461021e578063e33b7de31461023e57600080fd5b366100d0577f6ef95f06320e7a25a04a175ca677b7052bdd97131872c2192525a629f51be77033346040516100c6929190610950565b60405180910390a1005b600080fd5b3480156100e157600080fd5b506100f56100f0366004610981565b610253565b005b34801561010357600080fd5b506033545b6040519081526020015b60405180910390f35b34801561012757600080fd5b5061010861013636600461099e565b61033a565b34801561014757600080fd5b506100f561015636600461099e565b610367565b34801561016757600080fd5b5061017b6101763660046109d7565b610475565b60405161011291906109f0565b34801561019457600080fd5b506101086101a3366004610981565b6104a5565b3480156101b457600080fd5b506101086101c3366004610981565b6104c0565b3480156101d457600080fd5b506101086101e336600461099e565b6104f2565b3480156101f457600080fd5b50610108610203366004610981565b6001600160a01b031660009081526035602052604090205490565b34801561022a57600080fd5b50610108610239366004610981565b61058e565b34801561024a57600080fd5b50603454610108565b6001600160a01b0381166000908152603560205260409020546102915760405162461bcd60e51b815260040161028890610a04565b60405180910390fd5b600061029c826104c0565b9050806000036102be5760405162461bcd60e51b815260040161028890610a4a565b80603460008282546102d09190610aab565b90915550506001600160a01b03821660009081526036602052604090208054820190556102fd82826105a9565b7fdf20fd1e76bc69d672e4814fafb2c449bba3a5369d8359adf9e05e6fde87b056828260405161032e929190610950565b60405180910390a15050565b6001600160a01b038083166000908152603960209081526040808320938516835292905220545b92915050565b6001600160a01b03811660009081526035602052604090205461039c5760405162461bcd60e51b815260040161028890610a04565b60006103a883836104f2565b9050806000036103ca5760405162461bcd60e51b815260040161028890610a4a565b6001600160a01b038316600090815260386020526040812080548392906103f2908490610aab565b90915550506001600160a01b03808416600090815260396020908152604080832093861683529290522080548201905561042d8383836106c4565b826001600160a01b03167f3be5b7a71e84ed12875d241991c70855ac5817d847039e17a9d895c1ceb0f18a8383604051610468929190610950565b60405180910390a2505050565b60006037828154811061048a5761048a610abe565b6000918252602090912001546001600160a01b031692915050565b6001600160a01b031660009081526036602052604090205490565b6000806104cc60345490565b6104d69047610aab565b90506104eb83826104e6866104a5565b61071a565b9392505050565b6000806104fe8461058e565b6040516370a0823160e01b81526001600160a01b038616906370a082319061052a9030906004016109f0565b602060405180830381865afa158015610547573d6000803e3d6000fd5b505050506040513d601f19601f8201168201806040525081019061056b9190610ad4565b6105759190610aab565b905061058683826104e6878761033a565b949350505050565b6001600160a01b031660009081526038602052604090205490565b804710156105f95760405162461bcd60e51b815260206004820152601d60248201527f416464726573733a20696e73756666696369656e742062616c616e63650000006044820152606401610288565b6000826001600160a01b03168260405160006040518083038185875af1925050503d8060008114610646576040519150601f19603f3d011682016040523d82523d6000602084013e61064b565b606091505b50509050806106bf5760405162461bcd60e51b815260206004820152603a60248201527f416464726573733a20756e61626c6520746f2073656e642076616c75652c20726044820152791958da5c1a595b9d081b585e481a185d99481c995d995c9d195960321b6064820152608401610288565b505050565b6106bf8363a9059cbb60e01b84846040516024016106e3929190610950565b60408051601f198184030181529190526020810180516001600160e01b03166001600160e01b031990931692909217909152610758565b6033546001600160a01b038416600090815260356020526040812054909183916107449086610aed565b61074e9190610b04565b6105869190610b26565b60006107ad826040518060400160405280602081526020017f5361666545524332303a206c6f772d6c6576656c2063616c6c206661696c6564815250856001600160a01b031661082d9092919063ffffffff16565b90508051600014806107ce5750808060200190518101906107ce9190610b39565b6106bf5760405162461bcd60e51b815260206004820152602a60248201527f5361666545524332303a204552433230206f7065726174696f6e20646964206e6044820152691bdd081cdd58d8d9595960b21b6064820152608401610288565b6060610586848460008585600080866001600160a01b031685876040516108549190610b7f565b60006040518083038185875af1925050503d8060008114610891576040519150601f19603f3d011682016040523d82523d6000602084013e610896565b606091505b50915091506108a7878383876108b2565b979650505050505050565b6060831561092157825160000361091a576001600160a01b0385163b61091a5760405162461bcd60e51b815260206004820152601d60248201527f416464726573733a2063616c6c20746f206e6f6e2d636f6e74726163740000006044820152606401610288565b5081610586565b61058683838151156109365781518083602001fd5b8060405162461bcd60e51b81526004016102889190610b9b565b6001600160a01b03929092168252602082015260400190565b6001600160a01b038116811461097e57600080fd5b50565b60006020828403121561099357600080fd5b81356104eb81610969565b600080604083850312156109b157600080fd5b82356109bc81610969565b915060208301356109cc81610969565b809150509250929050565b6000602082840312156109e957600080fd5b5035919050565b6001600160a01b0391909116815260200190565b60208082526026908201527f5061796d656e7453706c69747465723a206163636f756e7420686173206e6f2060408201526573686172657360d01b606082015260800190565b6020808252602b908201527f5061796d656e7453706c69747465723a206163636f756e74206973206e6f742060408201526a191d59481c185e5b595b9d60aa1b606082015260800190565b634e487b7160e01b600052601160045260246000fd5b8082018082111561036157610361610a95565b634e487b7160e01b600052603260045260246000fd5b600060208284031215610ae657600080fd5b5051919050565b808202811582820484141761036157610361610a95565b600082610b2157634e487b7160e01b600052601260045260246000fd5b500490565b8181038181111561036157610361610a95565b600060208284031215610b4b57600080fd5b815180151581146104eb57600080fd5b60005b83811015610b76578181015183820152602001610b5e565b50506000910152565b60008251610b91818460208701610b5b565b9190910192915050565b6020815260008251806020840152610bba816040850160208701610b5b565b601f01601f1916919091016040019291505056fea26469706673582212203d10589c0b00af26b4af243890af06d1e0dce1f632461e3755d71cdc2fc4b9d964736f6c63430008180033",
  "linkReferences": {},
  "deployedLinkReferences": {}
}